{
	"contracts/SwirlPrivatePool_withSanctions.sol": {
		"SwirlPrivatePool": {
			"abi": [
				{
					"inputs": [
						{
							"internalType": "address",
							"name": "_verifier",
							"type": "address"
						},
						{
							"internalType": "address",
							"name": "_poseidon",
							"type": "address"
						}
					],
					"stateMutability": "nonpayable",
					"type": "constructor"
				},
				{
					"inputs": [],
					"name": "InvalidDenomination",
					"type": "error"
				},
				{
					"inputs": [],
					"name": "InvalidProof",
					"type": "error"
				},
				{
					"inputs": [],
					"name": "NullifierAlreadyUsed",
					"type": "error"
				},
				{
					"inputs": [],
					"name": "TreeIsFull",
					"type": "error"
				},
				{
					"inputs": [],
					"name": "UnknownRoot",
					"type": "error"
				},
				{
					"anonymous": false,
					"inputs": [
						{
							"indexed": true,
							"internalType": "bytes32",
							"name": "commitment",
							"type": "bytes32"
						},
						{
							"indexed": false,
							"internalType": "uint32",
							"name": "leafIndex",
							"type": "uint32"
						}
					],
					"name": "Deposit",
					"type": "event"
				},
				{
					"anonymous": false,
					"inputs": [
						{
							"indexed": true,
							"internalType": "address",
							"name": "recipient",
							"type": "address"
						},
						{
							"indexed": false,
							"internalType": "bytes32",
							"name": "nullifierHash",
							"type": "bytes32"
						}
					],
					"name": "Withdrawal",
					"type": "event"
				},
				{
					"inputs": [],
					"name": "DENOMINATION",
					"outputs": [
						{
							"internalType": "uint256",
							"name": "",
							"type": "uint256"
						}
					],
					"stateMutability": "view",
					"type": "function"
				},
				{
					"inputs": [],
					"name": "MAX_LEAVES",
					"outputs": [
						{
							"internalType": "uint32",
							"name": "",
							"type": "uint32"
						}
					],
					"stateMutability": "view",
					"type": "function"
				},
				{
					"inputs": [],
					"name": "PROTOCOL_FEE",
					"outputs": [
						{
							"internalType": "uint256",
							"name": "",
							"type": "uint256"
						}
					],
					"stateMutability": "view",
					"type": "function"
				},
				{
					"inputs": [],
					"name": "TREE_DEPTH",
					"outputs": [
						{
							"internalType": "uint32",
							"name": "",
							"type": "uint32"
						}
					],
					"stateMutability": "view",
					"type": "function"
				},
				{
					"inputs": [
						{
							"internalType": "address",
							"name": "_address",
							"type": "address"
						}
					],
					"name": "blacklist",
					"outputs": [],
					"stateMutability": "nonpayable",
					"type": "function"
				},
				{
					"inputs": [],
					"name": "currentRoot",
					"outputs": [
						{
							"internalType": "bytes32",
							"name": "",
							"type": "bytes32"
						}
					],
					"stateMutability": "view",
					"type": "function"
				},
				{
					"inputs": [
						{
							"internalType": "address",
							"name": "_address",
							"type": "address"
						}
					],
					"name": "deBlacklist",
					"outputs": [],
					"stateMutability": "nonpayable",
					"type": "function"
				},
				{
					"inputs": [
						{
							"internalType": "bytes32",
							"name": "commitment",
							"type": "bytes32"
						},
						{
							"internalType": "bytes",
							"name": "encryptedNote",
							"type": "bytes"
						}
					],
					"name": "deposit",
					"outputs": [],
					"stateMutability": "payable",
					"type": "function"
				},
				{
					"inputs": [
						{
							"internalType": "uint256",
							"name": "",
							"type": "uint256"
						}
					],
					"name": "filledSubtrees",
					"outputs": [
						{
							"internalType": "bytes32",
							"name": "",
							"type": "bytes32"
						}
					],
					"stateMutability": "view",
					"type": "function"
				},
				{
					"inputs": [],
					"name": "getAllFilledSubtrees",
					"outputs": [
						{
							"internalType": "bytes32[]",
							"name": "",
							"type": "bytes32[]"
						}
					],
					"stateMutability": "view",
					"type": "function"
				},
				{
					"inputs": [
						{
							"internalType": "uint32",
							"name": "index",
							"type": "uint32"
						}
					],
					"name": "getFilledSubtree",
					"outputs": [
						{
							"internalType": "bytes32",
							"name": "",
							"type": "bytes32"
						}
					],
					"stateMutability": "view",
					"type": "function"
				},
				{
					"inputs": [
						{
							"internalType": "address",
							"name": "",
							"type": "address"
						}
					],
					"name": "isBlacklisted",
					"outputs": [
						{
							"internalType": "bool",
							"name": "",
							"type": "bool"
						}
					],
					"stateMutability": "view",
					"type": "function"
				},
				{
					"inputs": [
						{
							"internalType": "bytes32",
							"name": "nullifierHash",
							"type": "bytes32"
						}
					],
					"name": "isSpent",
					"outputs": [
						{
							"internalType": "bool",
							"name": "",
							"type": "bool"
						}
					],
					"stateMutability": "view",
					"type": "function"
				},
				{
					"inputs": [
						{
							"internalType": "bytes32",
							"name": "",
							"type": "bytes32"
						}
					],
					"name": "knownRoots",
					"outputs": [
						{
							"internalType": "bool",
							"name": "",
							"type": "bool"
						}
					],
					"stateMutability": "view",
					"type": "function"
				},
				{
					"inputs": [],
					"name": "nextIndex",
					"outputs": [
						{
							"internalType": "uint32",
							"name": "",
							"type": "uint32"
						}
					],
					"stateMutability": "view",
					"type": "function"
				},
				{
					"inputs": [
						{
							"internalType": "bytes32",
							"name": "",
							"type": "bytes32"
						}
					],
					"name": "notes",
					"outputs": [
						{
							"internalType": "bytes",
							"name": "ciphertext",
							"type": "bytes"
						}
					],
					"stateMutability": "view",
					"type": "function"
				},
				{
					"inputs": [
						{
							"internalType": "bytes32",
							"name": "",
							"type": "bytes32"
						}
					],
					"name": "nullifierHashes",
					"outputs": [
						{
							"internalType": "bool",
							"name": "",
							"type": "bool"
						}
					],
					"stateMutability": "view",
					"type": "function"
				},
				{
					"inputs": [],
					"name": "owner",
					"outputs": [
						{
							"internalType": "address",
							"name": "",
							"type": "address"
						}
					],
					"stateMutability": "view",
					"type": "function"
				},
				{
					"inputs": [],
					"name": "poseidon",
					"outputs": [
						{
							"internalType": "contract IPoseidonT2",
							"name": "",
							"type": "address"
						}
					],
					"stateMutability": "view",
					"type": "function"
				},
				{
					"inputs": [],
					"name": "total_fees",
					"outputs": [
						{
							"internalType": "uint256",
							"name": "",
							"type": "uint256"
						}
					],
					"stateMutability": "view",
					"type": "function"
				},
				{
					"inputs": [],
					"name": "verifier",
					"outputs": [
						{
							"internalType": "contract IVerifier",
							"name": "",
							"type": "address"
						}
					],
					"stateMutability": "view",
					"type": "function"
				},
				{
					"inputs": [
						{
							"internalType": "bytes",
							"name": "proof",
							"type": "bytes"
						},
						{
							"internalType": "bytes32",
							"name": "root",
							"type": "bytes32"
						},
						{
							"internalType": "bytes32",
							"name": "nullifierHash",
							"type": "bytes32"
						},
						{
							"internalType": "address payable",
							"name": "recipient",
							"type": "address"
						}
					],
					"name": "withdraw",
					"outputs": [],
					"stateMutability": "nonpayable",
					"type": "function"
				},
				{
					"inputs": [
						{
							"internalType": "uint256",
							"name": "",
							"type": "uint256"
						}
					],
					"name": "zeros",
					"outputs": [
						{
							"internalType": "bytes32",
							"name": "",
							"type": "bytes32"
						}
					],
					"stateMutability": "view",
					"type": "function"
				}
			],
			"devdoc": {
				"kind": "dev",
				"methods": {
					"blacklist(address)": {
						"params": {
							"_address": "The address to be sanctioned"
						}
					},
					"deBlacklist(address)": {
						"params": {
							"_address": "The address to be un-sanctioned"
						}
					},
					"deposit(bytes32,bytes)": {
						"params": {
							"commitment": "Poseidon(secret, nullifier)",
							"encryptedNote": "Encrypted metadata (view-key)"
						}
					},
					"withdraw(bytes,bytes32,bytes32,address)": {
						"params": {
							"nullifierHash": "Poseidon(nullifier)",
							"proof": "Noir proof bytes",
							"recipient": "MNT receiver",
							"root": "Merkle root"
						}
					}
				},
				"version": 1
			},
			"evm": {
				"assembly": "    /* \"contracts/SwirlPrivatePool_withSanctions.sol\":654:8143  contract SwirlPrivatePool {... */\n  mstore(0x40, 0xc0)\n    /* \"contracts/SwirlPrivatePool_withSanctions.sol\":1990:1991  0 */\n  0x00\n    /* \"contracts/SwirlPrivatePool_withSanctions.sol\":1962:1991  uint256 public total_fees = 0 */\n  0x01\n  sstore\n    /* \"contracts/SwirlPrivatePool_withSanctions.sol\":3384:4077  constructor(address _verifier, address _poseidon) {... */\n  callvalue\n  dup1\n  iszero\n  tag_1\n  jumpi\n  revert(0x00, 0x00)\ntag_1:\n  pop\n  mload(0x40)\n  sub(codesize, bytecodeSize)\n  dup1\n  bytecodeSize\n  dup4\n  codecopy\n  dup2\n  dup2\n  add\n  0x40\n  mstore\n  dup2\n  add\n  swap1\n  tag_2\n  swap2\n  swap1\n  tag_3\n  jump\t// in\ntag_2:\n    /* \"contracts/SwirlPrivatePool_withSanctions.sol\":3466:3475  _verifier */\n  dup2\n    /* \"contracts/SwirlPrivatePool_withSanctions.sol\":3445:3476  verifier = IVerifier(_verifier) */\n  0xffffffffffffffffffffffffffffffffffffffff\n  and\n  0x80\n  dup2\n  0xffffffffffffffffffffffffffffffffffffffff\n  and\n  dup2\n  mstore\n  pop\n  pop\n    /* \"contracts/SwirlPrivatePool_withSanctions.sol\":3510:3519  _poseidon */\n  dup1\n    /* \"contracts/SwirlPrivatePool_withSanctions.sol\":3487:3520  poseidon = IPoseidonT2(_poseidon) */\n  0xffffffffffffffffffffffffffffffffffffffff\n  and\n  0xa0\n  dup2\n  0xffffffffffffffffffffffffffffffffffffffff\n  and\n  dup2\n  mstore\n  pop\n  pop\n    /* \"contracts/SwirlPrivatePool_withSanctions.sol\":3539:3549  msg.sender */\n  caller\n    /* \"contracts/SwirlPrivatePool_withSanctions.sol\":3531:3536  owner */\n  0x00\n  0x00\n    /* \"contracts/SwirlPrivatePool_withSanctions.sol\":3531:3549  owner = msg.sender */\n  0x0100\n  exp\n  dup2\n  sload\n  dup2\n  0xffffffffffffffffffffffffffffffffffffffff\n  mul\n  not\n  and\n  swap1\n  dup4\n  0xffffffffffffffffffffffffffffffffffffffff\n  and\n  mul\n  or\n  swap1\n  sstore\n  pop\n    /* \"contracts/SwirlPrivatePool_withSanctions.sol\":3596:3608  uint256 zero */\n  0x00\n    /* \"contracts/SwirlPrivatePool_withSanctions.sol\":3611:3619  poseidon */\n  mload(0xa0)\n    /* \"contracts/SwirlPrivatePool_withSanctions.sol\":3611:3628  poseidon.poseidon */\n  0xffffffffffffffffffffffffffffffffffffffff\n  and\n  0x29a5f2f6\n    /* \"contracts/SwirlPrivatePool_withSanctions.sol\":3611:3654  poseidon.poseidon([uint256(0), uint256(0)]) */\n  mload(0x40)\n  dup1\n  0x40\n  add\n  0x40\n  mstore\n  dup1\n    /* \"contracts/SwirlPrivatePool_withSanctions.sol\":3638:3639  0 */\n  0x00\n    /* \"contracts/SwirlPrivatePool_withSanctions.sol\":3611:3654  poseidon.poseidon([uint256(0), uint256(0)]) */\n  dup2\n  mstore\n  0x20\n  add\n    /* \"contracts/SwirlPrivatePool_withSanctions.sol\":3650:3651  0 */\n  0x00\n    /* \"contracts/SwirlPrivatePool_withSanctions.sol\":3611:3654  poseidon.poseidon([uint256(0), uint256(0)]) */\n  dup2\n  mstore\n  pop\n  mload(0x40)\n  dup3\n  0xffffffff\n  and\n  0xe0\n  shl\n  dup2\n  mstore\n  0x04\n  add\n  tag_6\n  swap2\n  swap1\n  tag_7\n  jump\t// in\ntag_6:\n  0x20\n  mload(0x40)\n  dup1\n  dup4\n  sub\n  dup2\n  dup7\n  gas\n  staticcall\n  iszero\n  dup1\n  iszero\n  tag_9\n  jumpi\n  returndatacopy(0x00, 0x00, returndatasize)\n  revert(0x00, returndatasize)\ntag_9:\n  pop\n  pop\n  pop\n  pop\n  mload(0x40)\n  returndatasize\n  not(0x1f)\n  0x1f\n  dup3\n  add\n  and\n  dup3\n  add\n  dup1\n  0x40\n  mstore\n  pop\n  dup2\n  add\n  swap1\n  tag_10\n  swap2\n  swap1\n  tag_11\n  jump\t// in\ntag_10:\n    /* \"contracts/SwirlPrivatePool_withSanctions.sol\":3596:3654  uint256 zero = poseidon.poseidon([uint256(0), uint256(0)]) */\n  swap1\n  pop\n    /* \"contracts/SwirlPrivatePool_withSanctions.sol\":3684:3688  zero */\n  dup1\n    /* \"contracts/SwirlPrivatePool_withSanctions.sol\":3676:3689  bytes32(zero) */\n  0x00\n  shl\n    /* \"contracts/SwirlPrivatePool_withSanctions.sol\":3665:3670  zeros */\n  0x02\n    /* \"contracts/SwirlPrivatePool_withSanctions.sol\":3671:3672  0 */\n  0x00\n    /* \"contracts/SwirlPrivatePool_withSanctions.sol\":3665:3673  zeros[0] */\n  0x14\n  dup2\n  lt\n  tag_12\n  jumpi\n  tag_13\n  tag_14\n  jump\t// in\ntag_13:\ntag_12:\n  add\n    /* \"contracts/SwirlPrivatePool_withSanctions.sol\":3665:3689  zeros[0] = bytes32(zero) */\n  dup2\n  swap1\n  sstore\n  pop\n    /* \"contracts/SwirlPrivatePool_withSanctions.sol\":3735:3743  uint32 i */\n  0x00\n    /* \"contracts/SwirlPrivatePool_withSanctions.sol\":3746:3747  1 */\n  0x01\n    /* \"contracts/SwirlPrivatePool_withSanctions.sol\":3735:3747  uint32 i = 1 */\n  swap1\n  pop\n    /* \"contracts/SwirlPrivatePool_withSanctions.sol\":3730:3874  for (uint32 i = 1; i < TREE_DEPTH; i++) {... */\ntag_16:\n    /* \"contracts/SwirlPrivatePool_withSanctions.sol\":1671:1673  20 */\n  0x14\n    /* \"contracts/SwirlPrivatePool_withSanctions.sol\":3749:3763  i < TREE_DEPTH */\n  0xffffffff\n  and\n    /* \"contracts/SwirlPrivatePool_withSanctions.sol\":3749:3750  i */\n  dup2\n    /* \"contracts/SwirlPrivatePool_withSanctions.sol\":3749:3763  i < TREE_DEPTH */\n  0xffffffff\n  and\n  lt\n    /* \"contracts/SwirlPrivatePool_withSanctions.sol\":3730:3874  for (uint32 i = 1; i < TREE_DEPTH; i++) {... */\n  iszero\n  tag_17\n  jumpi\n    /* \"contracts/SwirlPrivatePool_withSanctions.sol\":3792:3800  poseidon */\n  mload(0xa0)\n    /* \"contracts/SwirlPrivatePool_withSanctions.sol\":3792:3809  poseidon.poseidon */\n  0xffffffffffffffffffffffffffffffffffffffff\n  and\n  0x29a5f2f6\n    /* \"contracts/SwirlPrivatePool_withSanctions.sol\":3792:3823  poseidon.poseidon([zero, zero]) */\n  mload(0x40)\n  dup1\n  0x40\n  add\n  0x40\n  mstore\n  dup1\n    /* \"contracts/SwirlPrivatePool_withSanctions.sol\":3811:3815  zero */\n  dup6\n    /* \"contracts/SwirlPrivatePool_withSanctions.sol\":3792:3823  poseidon.poseidon([zero, zero]) */\n  dup2\n  mstore\n  0x20\n  add\n    /* \"contracts/SwirlPrivatePool_withSanctions.sol\":3817:3821  zero */\n  dup6\n    /* \"contracts/SwirlPrivatePool_withSanctions.sol\":3792:3823  poseidon.poseidon([zero, zero]) */\n  dup2\n  mstore\n  pop\n  mload(0x40)\n  dup3\n  0xffffffff\n  and\n  0xe0\n  shl\n  dup2\n  mstore\n  0x04\n  add\n  tag_19\n  swap2\n  swap1\n  tag_7\n  jump\t// in\ntag_19:\n  0x20\n  mload(0x40)\n  dup1\n  dup4\n  sub\n  dup2\n  dup7\n  gas\n  staticcall\n  iszero\n  dup1\n  iszero\n  tag_21\n  jumpi\n  returndatacopy(0x00, 0x00, returndatasize)\n  revert(0x00, returndatasize)\ntag_21:\n  pop\n  pop\n  pop\n  pop\n  mload(0x40)\n  returndatasize\n  not(0x1f)\n  0x1f\n  dup3\n  add\n  and\n  dup3\n  add\n  dup1\n  0x40\n  mstore\n  pop\n  dup2\n  add\n  swap1\n  tag_22\n  swap2\n  swap1\n  tag_11\n  jump\t// in\ntag_22:\n    /* \"contracts/SwirlPrivatePool_withSanctions.sol\":3785:3823  zero = poseidon.poseidon([zero, zero]) */\n  swap2\n  pop\n    /* \"contracts/SwirlPrivatePool_withSanctions.sol\":3857:3861  zero */\n  dup2\n    /* \"contracts/SwirlPrivatePool_withSanctions.sol\":3849:3862  bytes32(zero) */\n  0x00\n  shl\n    /* \"contracts/SwirlPrivatePool_withSanctions.sol\":3838:3843  zeros */\n  0x02\n    /* \"contracts/SwirlPrivatePool_withSanctions.sol\":3844:3845  i */\n  dup3\n    /* \"contracts/SwirlPrivatePool_withSanctions.sol\":3838:3846  zeros[i] */\n  0xffffffff\n  and\n  0x14\n  dup2\n  lt\n  tag_23\n  jumpi\n  tag_24\n  tag_14\n  jump\t// in\ntag_24:\ntag_23:\n  add\n    /* \"contracts/SwirlPrivatePool_withSanctions.sol\":3838:3862  zeros[i] = bytes32(zero) */\n  dup2\n  swap1\n  sstore\n  pop\n    /* \"contracts/SwirlPrivatePool_withSanctions.sol\":3765:3768  i++ */\n  dup1\n  dup1\n  0x01\n  add\n  swap2\n  pop\n  pop\n    /* \"contracts/SwirlPrivatePool_withSanctions.sol\":3730:3874  for (uint32 i = 1; i < TREE_DEPTH; i++) {... */\n  jump(tag_16)\ntag_17:\n  pop\n    /* \"contracts/SwirlPrivatePool_withSanctions.sol\":3891:3899  uint32 i */\n  0x00\n    /* \"contracts/SwirlPrivatePool_withSanctions.sol\":3902:3903  0 */\n  0x00\n    /* \"contracts/SwirlPrivatePool_withSanctions.sol\":3891:3903  uint32 i = 0 */\n  swap1\n  pop\n    /* \"contracts/SwirlPrivatePool_withSanctions.sol\":3886:3981  for (uint32 i = 0; i < TREE_DEPTH; i++) {... */\ntag_26:\n    /* \"contracts/SwirlPrivatePool_withSanctions.sol\":1671:1673  20 */\n  0x14\n    /* \"contracts/SwirlPrivatePool_withSanctions.sol\":3905:3919  i < TREE_DEPTH */\n  0xffffffff\n  and\n    /* \"contracts/SwirlPrivatePool_withSanctions.sol\":3905:3906  i */\n  dup2\n    /* \"contracts/SwirlPrivatePool_withSanctions.sol\":3905:3919  i < TREE_DEPTH */\n  0xffffffff\n  and\n  lt\n    /* \"contracts/SwirlPrivatePool_withSanctions.sol\":3886:3981  for (uint32 i = 0; i < TREE_DEPTH; i++) {... */\n  iszero\n  tag_27\n  jumpi\n    /* \"contracts/SwirlPrivatePool_withSanctions.sol\":3961:3966  zeros */\n  0x02\n    /* \"contracts/SwirlPrivatePool_withSanctions.sol\":3967:3968  i */\n  dup2\n    /* \"contracts/SwirlPrivatePool_withSanctions.sol\":3961:3969  zeros[i] */\n  0xffffffff\n  and\n  0x14\n  dup2\n  lt\n  tag_29\n  jumpi\n  tag_30\n  tag_14\n  jump\t// in\ntag_30:\ntag_29:\n  add\n  sload\n    /* \"contracts/SwirlPrivatePool_withSanctions.sol\":3941:3955  filledSubtrees */\n  0x16\n    /* \"contracts/SwirlPrivatePool_withSanctions.sol\":3956:3957  i */\n  dup3\n    /* \"contracts/SwirlPrivatePool_withSanctions.sol\":3941:3958  filledSubtrees[i] */\n  0xffffffff\n  and\n  0x14\n  dup2\n  lt\n  tag_32\n  jumpi\n  tag_33\n  tag_14\n  jump\t// in\ntag_33:\ntag_32:\n  add\n    /* \"contracts/SwirlPrivatePool_withSanctions.sol\":3941:3969  filledSubtrees[i] = zeros[i] */\n  dup2\n  swap1\n  sstore\n  pop\n    /* \"contracts/SwirlPrivatePool_withSanctions.sol\":3921:3924  i++ */\n  dup1\n  dup1\n  0x01\n  add\n  swap2\n  pop\n  pop\n    /* \"contracts/SwirlPrivatePool_withSanctions.sol\":3886:3981  for (uint32 i = 0; i < TREE_DEPTH; i++) {... */\n  jump(tag_26)\ntag_27:\n  pop\n    /* \"contracts/SwirlPrivatePool_withSanctions.sol\":4007:4012  zeros */\n  0x02\n    /* \"contracts/SwirlPrivatePool_withSanctions.sol\":4026:4027  1 */\n  0x01\n    /* \"contracts/SwirlPrivatePool_withSanctions.sol\":1671:1673  20 */\n  0x14\n    /* \"contracts/SwirlPrivatePool_withSanctions.sol\":4013:4027  TREE_DEPTH - 1 */\n  tag_35\n  swap2\n  swap1\n  tag_36\n  jump\t// in\ntag_35:\n    /* \"contracts/SwirlPrivatePool_withSanctions.sol\":4007:4028  zeros[TREE_DEPTH - 1] */\n  0xffffffff\n  and\n  0x14\n  dup2\n  lt\n  tag_37\n  jumpi\n  tag_38\n  tag_14\n  jump\t// in\ntag_38:\ntag_37:\n  add\n  sload\n    /* \"contracts/SwirlPrivatePool_withSanctions.sol\":3993:4004  currentRoot */\n  0x2a\n    /* \"contracts/SwirlPrivatePool_withSanctions.sol\":3993:4028  currentRoot = zeros[TREE_DEPTH - 1] */\n  dup2\n  swap1\n  sstore\n  pop\n    /* \"contracts/SwirlPrivatePool_withSanctions.sol\":4065:4069  true */\n  0x01\n    /* \"contracts/SwirlPrivatePool_withSanctions.sol\":4039:4049  knownRoots */\n  0x2d\n    /* \"contracts/SwirlPrivatePool_withSanctions.sol\":4039:4062  knownRoots[currentRoot] */\n  0x00\n    /* \"contracts/SwirlPrivatePool_withSanctions.sol\":4050:4061  currentRoot */\n  sload(0x2a)\n    /* \"contracts/SwirlPrivatePool_withSanctions.sol\":4039:4062  knownRoots[currentRoot] */\n  dup2\n  mstore\n  0x20\n  add\n  swap1\n  dup2\n  mstore\n  0x20\n  add\n  0x00\n  keccak256\n  0x00\n    /* \"contracts/SwirlPrivatePool_withSanctions.sol\":4039:4069  knownRoots[currentRoot] = true */\n  0x0100\n  exp\n  dup2\n  sload\n  dup2\n  0xff\n  mul\n  not\n  and\n  swap1\n  dup4\n  iszero\n  iszero\n  mul\n  or\n  swap1\n  sstore\n  pop\n    /* \"contracts/SwirlPrivatePool_withSanctions.sol\":3434:4077  {... */\n  pop\n    /* \"contracts/SwirlPrivatePool_withSanctions.sol\":3384:4077  constructor(address _verifier, address _poseidon) {... */\n  pop\n  pop\n    /* \"contracts/SwirlPrivatePool_withSanctions.sol\":654:8143  contract SwirlPrivatePool {... */\n  jump(tag_40)\n    /* \"#utility.yul\":88:205   */\ntag_42:\n    /* \"#utility.yul\":197:198   */\n  0x00\n    /* \"#utility.yul\":194:195   */\n  0x00\n    /* \"#utility.yul\":187:199   */\n  revert\n    /* \"#utility.yul\":334:460   */\ntag_44:\n    /* \"#utility.yul\":371:378   */\n  0x00\n    /* \"#utility.yul\":411:453   */\n  0xffffffffffffffffffffffffffffffffffffffff\n    /* \"#utility.yul\":404:409   */\n  dup3\n    /* \"#utility.yul\":400:454   */\n  and\n    /* \"#utility.yul\":389:454   */\n  swap1\n  pop\n    /* \"#utility.yul\":334:460   */\n  swap2\n  swap1\n  pop\n  jump\t// out\n    /* \"#utility.yul\":466:562   */\ntag_45:\n    /* \"#utility.yul\":503:510   */\n  0x00\n    /* \"#utility.yul\":532:556   */\n  tag_66\n    /* \"#utility.yul\":550:555   */\n  dup3\n    /* \"#utility.yul\":532:556   */\n  tag_44\n  jump\t// in\ntag_66:\n    /* \"#utility.yul\":521:556   */\n  swap1\n  pop\n    /* \"#utility.yul\":466:562   */\n  swap2\n  swap1\n  pop\n  jump\t// out\n    /* \"#utility.yul\":568:690   */\ntag_46:\n    /* \"#utility.yul\":641:665   */\n  tag_68\n    /* \"#utility.yul\":659:664   */\n  dup2\n    /* \"#utility.yul\":641:665   */\n  tag_45\n  jump\t// in\ntag_68:\n    /* \"#utility.yul\":634:639   */\n  dup2\n    /* \"#utility.yul\":631:666   */\n  eq\n    /* \"#utility.yul\":621:684   */\n  tag_69\n  jumpi\n    /* \"#utility.yul\":680:681   */\n  0x00\n    /* \"#utility.yul\":677:678   */\n  0x00\n    /* \"#utility.yul\":670:682   */\n  revert\n    /* \"#utility.yul\":621:684   */\ntag_69:\n    /* \"#utility.yul\":568:690   */\n  pop\n  jump\t// out\n    /* \"#utility.yul\":696:839   */\ntag_47:\n    /* \"#utility.yul\":753:758   */\n  0x00\n    /* \"#utility.yul\":784:790   */\n  dup2\n    /* \"#utility.yul\":778:791   */\n  mload\n    /* \"#utility.yul\":769:791   */\n  swap1\n  pop\n    /* \"#utility.yul\":800:833   */\n  tag_71\n    /* \"#utility.yul\":827:832   */\n  dup2\n    /* \"#utility.yul\":800:833   */\n  tag_46\n  jump\t// in\ntag_71:\n    /* \"#utility.yul\":696:839   */\n  swap3\n  swap2\n  pop\n  pop\n  jump\t// out\n    /* \"#utility.yul\":845:1352   */\ntag_3:\n    /* \"#utility.yul\":924:930   */\n  0x00\n    /* \"#utility.yul\":932:938   */\n  0x00\n    /* \"#utility.yul\":981:983   */\n  0x40\n    /* \"#utility.yul\":969:978   */\n  dup4\n    /* \"#utility.yul\":960:967   */\n  dup6\n    /* \"#utility.yul\":956:979   */\n  sub\n    /* \"#utility.yul\":952:984   */\n  slt\n    /* \"#utility.yul\":949:1068   */\n  iszero\n  tag_73\n  jumpi\n    /* \"#utility.yul\":987:1066   */\n  tag_74\n  tag_42\n  jump\t// in\ntag_74:\n    /* \"#utility.yul\":949:1068   */\ntag_73:\n    /* \"#utility.yul\":1107:1108   */\n  0x00\n    /* \"#utility.yul\":1132:1196   */\n  tag_75\n    /* \"#utility.yul\":1188:1195   */\n  dup6\n    /* \"#utility.yul\":1179:1185   */\n  dup3\n    /* \"#utility.yul\":1168:1177   */\n  dup7\n    /* \"#utility.yul\":1164:1186   */\n  add\n    /* \"#utility.yul\":1132:1196   */\n  tag_47\n  jump\t// in\ntag_75:\n    /* \"#utility.yul\":1122:1196   */\n  swap3\n  pop\n    /* \"#utility.yul\":1078:1206   */\n  pop\n    /* \"#utility.yul\":1245:1247   */\n  0x20\n    /* \"#utility.yul\":1271:1335   */\n  tag_76\n    /* \"#utility.yul\":1327:1334   */\n  dup6\n    /* \"#utility.yul\":1318:1324   */\n  dup3\n    /* \"#utility.yul\":1307:1316   */\n  dup7\n    /* \"#utility.yul\":1303:1325   */\n  add\n    /* \"#utility.yul\":1271:1335   */\n  tag_47\n  jump\t// in\ntag_76:\n    /* \"#utility.yul\":1261:1335   */\n  swap2\n  pop\n    /* \"#utility.yul\":1216:1345   */\n  pop\n    /* \"#utility.yul\":845:1352   */\n  swap3\n  pop\n  swap3\n  swap1\n  pop\n  jump\t// out\n    /* \"#utility.yul\":1358:1462   */\ntag_48:\n    /* \"#utility.yul\":1423:1429   */\n  0x00\n    /* \"#utility.yul\":1451:1455   */\n  0x02\n    /* \"#utility.yul\":1441:1455   */\n  swap1\n  pop\n    /* \"#utility.yul\":1358:1462   */\n  swap2\n  swap1\n  pop\n  jump\t// out\n    /* \"#utility.yul\":1468:1611   */\ntag_49:\n    /* \"#utility.yul\":1565:1576   */\n  0x00\n    /* \"#utility.yul\":1602:1605   */\n  dup2\n    /* \"#utility.yul\":1587:1605   */\n  swap1\n  pop\n    /* \"#utility.yul\":1468:1611   */\n  swap3\n  swap2\n  pop\n  pop\n  jump\t// out\n    /* \"#utility.yul\":1617:1715   */\ntag_50:\n    /* \"#utility.yul\":1682:1686   */\n  0x00\n    /* \"#utility.yul\":1705:1708   */\n  dup2\n    /* \"#utility.yul\":1697:1708   */\n  swap1\n  pop\n    /* \"#utility.yul\":1617:1715   */\n  swap2\n  swap1\n  pop\n  jump\t// out\n    /* \"#utility.yul\":1721:1798   */\ntag_51:\n    /* \"#utility.yul\":1758:1765   */\n  0x00\n    /* \"#utility.yul\":1787:1792   */\n  dup2\n    /* \"#utility.yul\":1776:1792   */\n  swap1\n  pop\n    /* \"#utility.yul\":1721:1798   */\n  swap2\n  swap1\n  pop\n  jump\t// out\n    /* \"#utility.yul\":1804:1912   */\ntag_52:\n    /* \"#utility.yul\":1881:1905   */\n  tag_82\n    /* \"#utility.yul\":1899:1904   */\n  dup2\n    /* \"#utility.yul\":1881:1905   */\n  tag_51\n  jump\t// in\ntag_82:\n    /* \"#utility.yul\":1876:1879   */\n  dup3\n    /* \"#utility.yul\":1869:1906   */\n  mstore\n    /* \"#utility.yul\":1804:1912   */\n  pop\n  pop\n  jump\t// out\n    /* \"#utility.yul\":1918:2097   */\ntag_53:\n    /* \"#utility.yul\":1987:1997   */\n  0x00\n    /* \"#utility.yul\":2008:2054   */\n  tag_84\n    /* \"#utility.yul\":2050:2053   */\n  dup4\n    /* \"#utility.yul\":2042:2048   */\n  dup4\n    /* \"#utility.yul\":2008:2054   */\n  tag_52\n  jump\t// in\ntag_84:\n    /* \"#utility.yul\":2086:2090   */\n  0x20\n    /* \"#utility.yul\":2081:2084   */\n  dup4\n    /* \"#utility.yul\":2077:2091   */\n  add\n    /* \"#utility.yul\":2063:2091   */\n  swap1\n  pop\n    /* \"#utility.yul\":1918:2097   */\n  swap3\n  swap2\n  pop\n  pop\n  jump\t// out\n    /* \"#utility.yul\":2103:2214   */\ntag_54:\n    /* \"#utility.yul\":2171:2175   */\n  0x00\n    /* \"#utility.yul\":2203:2207   */\n  0x20\n    /* \"#utility.yul\":2198:2201   */\n  dup3\n    /* \"#utility.yul\":2194:2208   */\n  add\n    /* \"#utility.yul\":2186:2208   */\n  swap1\n  pop\n    /* \"#utility.yul\":2103:2214   */\n  swap2\n  swap1\n  pop\n  jump\t// out\n    /* \"#utility.yul\":2252:2946   */\ntag_55:\n    /* \"#utility.yul\":2388:2440   */\n  tag_87\n    /* \"#utility.yul\":2434:2439   */\n  dup2\n    /* \"#utility.yul\":2388:2440   */\n  tag_48\n  jump\t// in\ntag_87:\n    /* \"#utility.yul\":2456:2540   */\n  tag_88\n    /* \"#utility.yul\":2533:2539   */\n  dup2\n    /* \"#utility.yul\":2528:2531   */\n  dup5\n    /* \"#utility.yul\":2456:2540   */\n  tag_49\n  jump\t// in\ntag_88:\n    /* \"#utility.yul\":2449:2540   */\n  swap3\n  pop\n    /* \"#utility.yul\":2564:2618   */\n  tag_89\n    /* \"#utility.yul\":2612:2617   */\n  dup3\n    /* \"#utility.yul\":2564:2618   */\n  tag_50\n  jump\t// in\ntag_89:\n    /* \"#utility.yul\":2641:2648   */\n  dup1\n    /* \"#utility.yul\":2672:2673   */\n  0x00\n    /* \"#utility.yul\":2657:2939   */\ntag_90:\n    /* \"#utility.yul\":2682:2688   */\n  dup4\n    /* \"#utility.yul\":2679:2680   */\n  dup2\n    /* \"#utility.yul\":2676:2689   */\n  lt\n    /* \"#utility.yul\":2657:2939   */\n  iszero\n  tag_92\n  jumpi\n    /* \"#utility.yul\":2758:2764   */\n  dup2\n    /* \"#utility.yul\":2752:2765   */\n  mload\n    /* \"#utility.yul\":2785:2848   */\n  tag_93\n    /* \"#utility.yul\":2844:2847   */\n  dup8\n    /* \"#utility.yul\":2829:2842   */\n  dup3\n    /* \"#utility.yul\":2785:2848   */\n  tag_53\n  jump\t// in\ntag_93:\n    /* \"#utility.yul\":2778:2848   */\n  swap7\n  pop\n    /* \"#utility.yul\":2871:2929   */\n  tag_94\n    /* \"#utility.yul\":2922:2928   */\n  dup4\n    /* \"#utility.yul\":2871:2929   */\n  tag_54\n  jump\t// in\ntag_94:\n    /* \"#utility.yul\":2861:2929   */\n  swap3\n  pop\n    /* \"#utility.yul\":2717:2939   */\n  pop\n    /* \"#utility.yul\":2704:2705   */\n  0x01\n    /* \"#utility.yul\":2701:2702   */\n  dup2\n    /* \"#utility.yul\":2697:2706   */\n  add\n    /* \"#utility.yul\":2692:2706   */\n  swap1\n  pop\n    /* \"#utility.yul\":2657:2939   */\n  jump(tag_90)\ntag_92:\n    /* \"#utility.yul\":2661:2675   */\n  pop\n    /* \"#utility.yul\":2364:2946   */\n  pop\n  pop\n  pop\n    /* \"#utility.yul\":2252:2946   */\n  pop\n  pop\n  jump\t// out\n    /* \"#utility.yul\":2952:3266   */\ntag_7:\n    /* \"#utility.yul\":3091:3095   */\n  0x00\n    /* \"#utility.yul\":3129:3131   */\n  0x40\n    /* \"#utility.yul\":3118:3127   */\n  dup3\n    /* \"#utility.yul\":3114:3132   */\n  add\n    /* \"#utility.yul\":3106:3132   */\n  swap1\n  pop\n    /* \"#utility.yul\":3142:3259   */\n  tag_96\n    /* \"#utility.yul\":3256:3257   */\n  0x00\n    /* \"#utility.yul\":3245:3254   */\n  dup4\n    /* \"#utility.yul\":3241:3258   */\n  add\n    /* \"#utility.yul\":3232:3238   */\n  dup5\n    /* \"#utility.yul\":3142:3259   */\n  tag_55\n  jump\t// in\ntag_96:\n    /* \"#utility.yul\":2952:3266   */\n  swap3\n  swap2\n  pop\n  pop\n  jump\t// out\n    /* \"#utility.yul\":3272:3394   */\ntag_56:\n    /* \"#utility.yul\":3345:3369   */\n  tag_98\n    /* \"#utility.yul\":3363:3368   */\n  dup2\n    /* \"#utility.yul\":3345:3369   */\n  tag_51\n  jump\t// in\ntag_98:\n    /* \"#utility.yul\":3338:3343   */\n  dup2\n    /* \"#utility.yul\":3335:3370   */\n  eq\n    /* \"#utility.yul\":3325:3388   */\n  tag_99\n  jumpi\n    /* \"#utility.yul\":3384:3385   */\n  0x00\n    /* \"#utility.yul\":3381:3382   */\n  0x00\n    /* \"#utility.yul\":3374:3386   */\n  revert\n    /* \"#utility.yul\":3325:3388   */\ntag_99:\n    /* \"#utility.yul\":3272:3394   */\n  pop\n  jump\t// out\n    /* \"#utility.yul\":3400:3543   */\ntag_57:\n    /* \"#utility.yul\":3457:3462   */\n  0x00\n    /* \"#utility.yul\":3488:3494   */\n  dup2\n    /* \"#utility.yul\":3482:3495   */\n  mload\n    /* \"#utility.yul\":3473:3495   */\n  swap1\n  pop\n    /* \"#utility.yul\":3504:3537   */\n  tag_101\n    /* \"#utility.yul\":3531:3536   */\n  dup2\n    /* \"#utility.yul\":3504:3537   */\n  tag_56\n  jump\t// in\ntag_101:\n    /* \"#utility.yul\":3400:3543   */\n  swap3\n  swap2\n  pop\n  pop\n  jump\t// out\n    /* \"#utility.yul\":3549:3900   */\ntag_11:\n    /* \"#utility.yul\":3619:3625   */\n  0x00\n    /* \"#utility.yul\":3668:3670   */\n  0x20\n    /* \"#utility.yul\":3656:3665   */\n  dup3\n    /* \"#utility.yul\":3647:3654   */\n  dup5\n    /* \"#utility.yul\":3643:3666   */\n  sub\n    /* \"#utility.yul\":3639:3671   */\n  slt\n    /* \"#utility.yul\":3636:3755   */\n  iszero\n  tag_103\n  jumpi\n    /* \"#utility.yul\":3674:3753   */\n  tag_104\n  tag_42\n  jump\t// in\ntag_104:\n    /* \"#utility.yul\":3636:3755   */\ntag_103:\n    /* \"#utility.yul\":3794:3795   */\n  0x00\n    /* \"#utility.yul\":3819:3883   */\n  tag_105\n    /* \"#utility.yul\":3875:3882   */\n  dup5\n    /* \"#utility.yul\":3866:3872   */\n  dup3\n    /* \"#utility.yul\":3855:3864   */\n  dup6\n    /* \"#utility.yul\":3851:3873   */\n  add\n    /* \"#utility.yul\":3819:3883   */\n  tag_57\n  jump\t// in\ntag_105:\n    /* \"#utility.yul\":3809:3883   */\n  swap2\n  pop\n    /* \"#utility.yul\":3765:3893   */\n  pop\n    /* \"#utility.yul\":3549:3900   */\n  swap3\n  swap2\n  pop\n  pop\n  jump\t// out\n    /* \"#utility.yul\":3906:4086   */\ntag_14:\n    /* \"#utility.yul\":3954:4031   */\n  0x4e487b7100000000000000000000000000000000000000000000000000000000\n    /* \"#utility.yul\":3951:3952   */\n  0x00\n    /* \"#utility.yul\":3944:4032   */\n  mstore\n    /* \"#utility.yul\":4051:4055   */\n  0x32\n    /* \"#utility.yul\":4048:4049   */\n  0x04\n    /* \"#utility.yul\":4041:4056   */\n  mstore\n    /* \"#utility.yul\":4075:4079   */\n  0x24\n    /* \"#utility.yul\":4072:4073   */\n  0x00\n    /* \"#utility.yul\":4065:4080   */\n  revert\n    /* \"#utility.yul\":4092:4185   */\ntag_58:\n    /* \"#utility.yul\":4128:4135   */\n  0x00\n    /* \"#utility.yul\":4168:4178   */\n  0xffffffff\n    /* \"#utility.yul\":4161:4166   */\n  dup3\n    /* \"#utility.yul\":4157:4179   */\n  and\n    /* \"#utility.yul\":4146:4179   */\n  swap1\n  pop\n    /* \"#utility.yul\":4092:4185   */\n  swap2\n  swap1\n  pop\n  jump\t// out\n    /* \"#utility.yul\":4191:4371   */\ntag_59:\n    /* \"#utility.yul\":4239:4316   */\n  0x4e487b7100000000000000000000000000000000000000000000000000000000\n    /* \"#utility.yul\":4236:4237   */\n  0x00\n    /* \"#utility.yul\":4229:4317   */\n  mstore\n    /* \"#utility.yul\":4336:4340   */\n  0x11\n    /* \"#utility.yul\":4333:4334   */\n  0x04\n    /* \"#utility.yul\":4326:4341   */\n  mstore\n    /* \"#utility.yul\":4360:4364   */\n  0x24\n    /* \"#utility.yul\":4357:4358   */\n  0x00\n    /* \"#utility.yul\":4350:4365   */\n  revert\n    /* \"#utility.yul\":4377:4577   */\ntag_36:\n    /* \"#utility.yul\":4416:4420   */\n  0x00\n    /* \"#utility.yul\":4436:4455   */\n  tag_110\n    /* \"#utility.yul\":4453:4454   */\n  dup3\n    /* \"#utility.yul\":4436:4455   */\n  tag_58\n  jump\t// in\ntag_110:\n    /* \"#utility.yul\":4431:4455   */\n  swap2\n  pop\n    /* \"#utility.yul\":4469:4488   */\n  tag_111\n    /* \"#utility.yul\":4486:4487   */\n  dup4\n    /* \"#utility.yul\":4469:4488   */\n  tag_58\n  jump\t// in\ntag_111:\n    /* \"#utility.yul\":4464:4488   */\n  swap3\n  pop\n    /* \"#utility.yul\":4512:4513   */\n  dup3\n    /* \"#utility.yul\":4509:4510   */\n  dup3\n    /* \"#utility.yul\":4505:4514   */\n  sub\n    /* \"#utility.yul\":4497:4514   */\n  swap1\n  pop\n    /* \"#utility.yul\":4536:4546   */\n  0xffffffff\n    /* \"#utility.yul\":4530:4534   */\n  dup2\n    /* \"#utility.yul\":4527:4547   */\n  gt\n    /* \"#utility.yul\":4524:4570   */\n  iszero\n  tag_112\n  jumpi\n    /* \"#utility.yul\":4550:4568   */\n  tag_113\n  tag_59\n  jump\t// in\ntag_113:\n    /* \"#utility.yul\":4524:4570   */\ntag_112:\n    /* \"#utility.yul\":4377:4577   */\n  swap3\n  swap2\n  pop\n  pop\n  jump\t// out\n    /* \"contracts/SwirlPrivatePool_withSanctions.sol\":654:8143  contract SwirlPrivatePool {... */\ntag_40:\n  mload(0x80)\n  mload(0xa0)\n  codecopy(0x00, dataOffset(sub_0), dataSize(sub_0))\n  0x00\n  assignImmutable(\"0xb2219b801710730437d0358146c829b62297a059eceaa0b40b27aea2daecf595\")\n  0x00\n  assignImmutable(\"0xcdbc23227c72e0a3f4683bdbccfcbed38047ca1a70d48b78c210dc5393029019\")\n  return(0x00, dataSize(sub_0))\nstop\n\nsub_0: assembly {\n        /* \"contracts/SwirlPrivatePool_withSanctions.sol\":654:8143  contract SwirlPrivatePool {... */\n      mstore(0x40, 0x80)\n      jumpi(tag_1, lt(calldatasize, 0x04))\n      shr(0xe0, calldataload(0x00))\n      dup1\n      0x9c6ad114\n      gt\n      tag_25\n      jumpi\n      dup1\n      0xf1650536\n      gt\n      tag_26\n      jumpi\n      dup1\n      0xf1650536\n      eq\n      tag_19\n      jumpi\n      dup1\n      0xf178e47c\n      eq\n      tag_20\n      jumpi\n      dup1\n      0xf9f92be4\n      eq\n      tag_21\n      jumpi\n      dup1\n      0xfc7e9c6f\n      eq\n      tag_22\n      jumpi\n      dup1\n      0xfdab463d\n      eq\n      tag_23\n      jumpi\n      dup1\n      0xfe575a87\n      eq\n      tag_24\n      jumpi\n      jump(tag_1)\n    tag_26:\n      dup1\n      0x9c6ad114\n      eq\n      tag_13\n      jumpi\n      dup1\n      0xb130eaa6\n      eq\n      tag_14\n      jumpi\n      dup1\n      0xc62b919e\n      eq\n      tag_15\n      jumpi\n      dup1\n      0xe29973fc\n      eq\n      tag_16\n      jumpi\n      dup1\n      0xe5285dcc\n      eq\n      tag_17\n      jumpi\n      dup1\n      0xe8295588\n      eq\n      tag_18\n      jumpi\n      jump(tag_1)\n    tag_25:\n      dup1\n      0x2b7ac3f3\n      gt\n      tag_27\n      jumpi\n      dup1\n      0x2b7ac3f3\n      eq\n      tag_7\n      jumpi\n      dup1\n      0x4e73da7d\n      eq\n      tag_8\n      jumpi\n      dup1\n      0x77737f4b\n      eq\n      tag_9\n      jumpi\n      dup1\n      0x85de26b7\n      eq\n      tag_10\n      jumpi\n      dup1\n      0x8b01429d\n      eq\n      tag_11\n      jumpi\n      dup1\n      0x8da5cb5b\n      eq\n      tag_12\n      jumpi\n      jump(tag_1)\n    tag_27:\n      dup1\n      0x04d65f11\n      eq\n      tag_2\n      jumpi\n      dup1\n      0x082febf0\n      eq\n      tag_3\n      jumpi\n      dup1\n      0x0b4501fd\n      eq\n      tag_4\n      jumpi\n      dup1\n      0x17cc915c\n      eq\n      tag_5\n      jumpi\n      dup1\n      0x1d84b0e8\n      eq\n      tag_6\n      jumpi\n    tag_1:\n      revert(0x00, 0x00)\n        /* \"contracts/SwirlPrivatePool_withSanctions.sol\":7867:8138  function getAllFilledSubtrees() public view returns (bytes32[] memory) {... */\n    tag_2:\n      callvalue\n      dup1\n      iszero\n      tag_28\n      jumpi\n      revert(0x00, 0x00)\n    tag_28:\n      pop\n      tag_29\n      tag_30\n      jump\t// in\n    tag_29:\n      mload(0x40)\n      tag_31\n      swap2\n      swap1\n      tag_32\n      jump\t// in\n    tag_31:\n      mload(0x40)\n      dup1\n      swap2\n      sub\n      swap1\n      return\n        /* \"contracts/SwirlPrivatePool_withSanctions.sol\":1680:1742  uint32  public constant MAX_LEAVES   = uint32(1 << TREE_DEPTH) */\n    tag_3:\n      callvalue\n      dup1\n      iszero\n      tag_33\n      jumpi\n      revert(0x00, 0x00)\n    tag_33:\n      pop\n      tag_34\n      tag_35\n      jump\t// in\n    tag_34:\n      mload(0x40)\n      tag_36\n      swap2\n      swap1\n      tag_37\n      jump\t// in\n    tag_36:\n      mload(0x40)\n      dup1\n      swap2\n      sub\n      swap1\n      return\n        /* \"contracts/SwirlPrivatePool_withSanctions.sol\":1577:1625  uint256 public constant PROTOCOL_FEE = 0.1 ether */\n    tag_4:\n      callvalue\n      dup1\n      iszero\n      tag_38\n      jumpi\n      revert(0x00, 0x00)\n    tag_38:\n      pop\n      tag_39\n      tag_40\n      jump\t// in\n    tag_39:\n      mload(0x40)\n      tag_41\n      swap2\n      swap1\n      tag_42\n      jump\t// in\n    tag_41:\n      mload(0x40)\n      dup1\n      swap2\n      sub\n      swap1\n      return\n        /* \"contracts/SwirlPrivatePool_withSanctions.sol\":2430:2477  mapping(bytes32 => bool) public nullifierHashes */\n    tag_5:\n      callvalue\n      dup1\n      iszero\n      tag_43\n      jumpi\n      revert(0x00, 0x00)\n    tag_43:\n      pop\n      tag_44\n      0x04\n      dup1\n      calldatasize\n      sub\n      dup2\n      add\n      swap1\n      tag_45\n      swap2\n      swap1\n      tag_46\n      jump\t// in\n    tag_45:\n      tag_47\n      jump\t// in\n    tag_44:\n      mload(0x40)\n      tag_48\n      swap2\n      swap1\n      tag_49\n      jump\t// in\n    tag_48:\n      mload(0x40)\n      dup1\n      swap2\n      sub\n      swap1\n      return\n        /* \"contracts/SwirlPrivatePool_withSanctions.sol\":4537:4643  function deBlacklist(address _address) public onlyOwner {... */\n    tag_6:\n      callvalue\n      dup1\n      iszero\n      tag_50\n      jumpi\n      revert(0x00, 0x00)\n    tag_50:\n      pop\n      tag_51\n      0x04\n      dup1\n      calldatasize\n      sub\n      dup2\n      add\n      swap1\n      tag_52\n      swap2\n      swap1\n      tag_53\n      jump\t// in\n    tag_52:\n      tag_54\n      jump\t// in\n    tag_51:\n      stop\n        /* \"contracts/SwirlPrivatePool_withSanctions.sol\":2187:2222  IVerifier public immutable verifier */\n    tag_7:\n      callvalue\n      dup1\n      iszero\n      tag_55\n      jumpi\n      revert(0x00, 0x00)\n    tag_55:\n      pop\n      tag_56\n      tag_57\n      jump\t// in\n    tag_56:\n      mload(0x40)\n      tag_58\n      swap2\n      swap1\n      tag_59\n      jump\t// in\n    tag_58:\n      mload(0x40)\n      dup1\n      swap2\n      sub\n      swap1\n      return\n        /* \"contracts/SwirlPrivatePool_withSanctions.sol\":2484:2526  mapping(bytes32 => bool) public knownRoots */\n    tag_8:\n      callvalue\n      dup1\n      iszero\n      tag_60\n      jumpi\n      revert(0x00, 0x00)\n    tag_60:\n      pop\n      tag_61\n      0x04\n      dup1\n      calldatasize\n      sub\n      dup2\n      add\n      swap1\n      tag_62\n      swap2\n      swap1\n      tag_46\n      jump\t// in\n    tag_62:\n      tag_63\n      jump\t// in\n    tag_61:\n      mload(0x40)\n      tag_64\n      swap2\n      swap1\n      tag_49\n      jump\t// in\n    tag_64:\n      mload(0x40)\n      dup1\n      swap2\n      sub\n      swap1\n      return\n        /* \"contracts/SwirlPrivatePool_withSanctions.sol\":1962:1991  uint256 public total_fees = 0 */\n    tag_9:\n      callvalue\n      dup1\n      iszero\n      tag_65\n      jumpi\n      revert(0x00, 0x00)\n    tag_65:\n      pop\n      tag_66\n      tag_67\n      jump\t// in\n    tag_66:\n      mload(0x40)\n      tag_68\n      swap2\n      swap1\n      tag_42\n      jump\t// in\n    tag_68:\n      mload(0x40)\n      dup1\n      swap2\n      sub\n      swap1\n      return\n        /* \"contracts/SwirlPrivatePool_withSanctions.sol\":2838:2884  mapping(bytes32 => EncryptedNote) public notes */\n    tag_10:\n      callvalue\n      dup1\n      iszero\n      tag_69\n      jumpi\n      revert(0x00, 0x00)\n    tag_69:\n      pop\n      tag_70\n      0x04\n      dup1\n      calldatasize\n      sub\n      dup2\n      add\n      swap1\n      tag_71\n      swap2\n      swap1\n      tag_46\n      jump\t// in\n    tag_71:\n      tag_72\n      jump\t// in\n    tag_70:\n      mload(0x40)\n      tag_73\n      swap2\n      swap1\n      tag_74\n      jump\t// in\n    tag_73:\n      mload(0x40)\n      dup1\n      swap2\n      sub\n      swap1\n      return\n        /* \"contracts/SwirlPrivatePool_withSanctions.sol\":1524:1570  uint256 public constant DENOMINATION = 1 ether */\n    tag_11:\n      callvalue\n      dup1\n      iszero\n      tag_75\n      jumpi\n      revert(0x00, 0x00)\n    tag_75:\n      pop\n      tag_76\n      tag_77\n      jump\t// in\n    tag_76:\n      mload(0x40)\n      tag_78\n      swap2\n      swap1\n      tag_42\n      jump\t// in\n    tag_78:\n      mload(0x40)\n      dup1\n      swap2\n      sub\n      swap1\n      return\n        /* \"contracts/SwirlPrivatePool_withSanctions.sol\":1934:1954  address public owner */\n    tag_12:\n      callvalue\n      dup1\n      iszero\n      tag_79\n      jumpi\n      revert(0x00, 0x00)\n    tag_79:\n      pop\n      tag_80\n      tag_81\n      jump\t// in\n    tag_80:\n      mload(0x40)\n      tag_82\n      swap2\n      swap1\n      tag_83\n      jump\t// in\n    tag_82:\n      mload(0x40)\n      dup1\n      swap2\n      sub\n      swap1\n      return\n        /* \"contracts/SwirlPrivatePool_withSanctions.sol\":7627:7859  function getFilledSubtree(uint32 index) public view returns (bytes32) {... */\n    tag_13:\n      callvalue\n      dup1\n      iszero\n      tag_84\n      jumpi\n      revert(0x00, 0x00)\n    tag_84:\n      pop\n      tag_85\n      0x04\n      dup1\n      calldatasize\n      sub\n      dup2\n      add\n      swap1\n      tag_86\n      swap2\n      swap1\n      tag_87\n      jump\t// in\n    tag_86:\n      tag_88\n      jump\t// in\n    tag_85:\n      mload(0x40)\n      tag_89\n      swap2\n      swap1\n      tag_90\n      jump\t// in\n    tag_89:\n      mload(0x40)\n      dup1\n      swap2\n      sub\n      swap1\n      return\n        /* \"contracts/SwirlPrivatePool_withSanctions.sol\":6503:7300  function withdraw(... */\n    tag_14:\n      callvalue\n      dup1\n      iszero\n      tag_91\n      jumpi\n      revert(0x00, 0x00)\n    tag_91:\n      pop\n      tag_92\n      0x04\n      dup1\n      calldatasize\n      sub\n      dup2\n      add\n      swap1\n      tag_93\n      swap2\n      swap1\n      tag_94\n      jump\t// in\n    tag_93:\n      tag_95\n      jump\t// in\n    tag_92:\n      stop\n        /* \"contracts/SwirlPrivatePool_withSanctions.sol\":2229:2266  IPoseidonT2 public immutable poseidon */\n    tag_15:\n      callvalue\n      dup1\n      iszero\n      tag_96\n      jumpi\n      revert(0x00, 0x00)\n    tag_96:\n      pop\n      tag_97\n      tag_98\n      jump\t// in\n    tag_97:\n      mload(0x40)\n      tag_99\n      swap2\n      swap1\n      tag_100\n      jump\t// in\n    tag_99:\n      mload(0x40)\n      dup1\n      swap2\n      sub\n      swap1\n      return\n        /* \"contracts/SwirlPrivatePool_withSanctions.sol\":4965:6137  function deposit(... */\n    tag_16:\n      tag_101\n      0x04\n      dup1\n      calldatasize\n      sub\n      dup2\n      add\n      swap1\n      tag_102\n      swap2\n      swap1\n      tag_103\n      jump\t// in\n    tag_102:\n      tag_104\n      jump\t// in\n    tag_101:\n      stop\n        /* \"contracts/SwirlPrivatePool_withSanctions.sol\":7494:7619  function isSpent(bytes32 nullifierHash) external view returns (bool) {... */\n    tag_17:\n      callvalue\n      dup1\n      iszero\n      tag_105\n      jumpi\n      revert(0x00, 0x00)\n    tag_105:\n      pop\n      tag_106\n      0x04\n      dup1\n      calldatasize\n      sub\n      dup2\n      add\n      swap1\n      tag_107\n      swap2\n      swap1\n      tag_46\n      jump\t// in\n    tag_107:\n      tag_108\n      jump\t// in\n    tag_106:\n      mload(0x40)\n      tag_109\n      swap2\n      swap1\n      tag_49\n      jump\t// in\n    tag_109:\n      mload(0x40)\n      dup1\n      swap2\n      sub\n      swap1\n      return\n        /* \"contracts/SwirlPrivatePool_withSanctions.sol\":2275:2307  bytes32[TREE_DEPTH] public zeros */\n    tag_18:\n      callvalue\n      dup1\n      iszero\n      tag_110\n      jumpi\n      revert(0x00, 0x00)\n    tag_110:\n      pop\n      tag_111\n      0x04\n      dup1\n      calldatasize\n      sub\n      dup2\n      add\n      swap1\n      tag_112\n      swap2\n      swap1\n      tag_113\n      jump\t// in\n    tag_112:\n      tag_114\n      jump\t// in\n    tag_111:\n      mload(0x40)\n      tag_115\n      swap2\n      swap1\n      tag_90\n      jump\t// in\n    tag_115:\n      mload(0x40)\n      dup1\n      swap2\n      sub\n      swap1\n      return\n        /* \"contracts/SwirlPrivatePool_withSanctions.sol\":1632:1673  uint32  public constant TREE_DEPTH   = 20 */\n    tag_19:\n      callvalue\n      dup1\n      iszero\n      tag_116\n      jumpi\n      revert(0x00, 0x00)\n    tag_116:\n      pop\n      tag_117\n      tag_118\n      jump\t// in\n    tag_117:\n      mload(0x40)\n      tag_119\n      swap2\n      swap1\n      tag_37\n      jump\t// in\n    tag_119:\n      mload(0x40)\n      dup1\n      swap2\n      sub\n      swap1\n      return\n        /* \"contracts/SwirlPrivatePool_withSanctions.sol\":2314:2355  bytes32[TREE_DEPTH] public filledSubtrees */\n    tag_20:\n      callvalue\n      dup1\n      iszero\n      tag_120\n      jumpi\n      revert(0x00, 0x00)\n    tag_120:\n      pop\n      tag_121\n      0x04\n      dup1\n      calldatasize\n      sub\n      dup2\n      add\n      swap1\n      tag_122\n      swap2\n      swap1\n      tag_113\n      jump\t// in\n    tag_122:\n      tag_123\n      jump\t// in\n    tag_121:\n      mload(0x40)\n      tag_124\n      swap2\n      swap1\n      tag_90\n      jump\t// in\n    tag_124:\n      mload(0x40)\n      dup1\n      swap2\n      sub\n      swap1\n      return\n        /* \"contracts/SwirlPrivatePool_withSanctions.sol\":4346:4449  function blacklist(address _address) public onlyOwner {... */\n    tag_21:\n      callvalue\n      dup1\n      iszero\n      tag_125\n      jumpi\n      revert(0x00, 0x00)\n    tag_125:\n      pop\n      tag_126\n      0x04\n      dup1\n      calldatasize\n      sub\n      dup2\n      add\n      swap1\n      tag_127\n      swap2\n      swap1\n      tag_53\n      jump\t// in\n    tag_127:\n      tag_128\n      jump\t// in\n    tag_126:\n      stop\n        /* \"contracts/SwirlPrivatePool_withSanctions.sol\":2397:2421  uint32  public nextIndex */\n    tag_22:\n      callvalue\n      dup1\n      iszero\n      tag_129\n      jumpi\n      revert(0x00, 0x00)\n    tag_129:\n      pop\n      tag_130\n      tag_131\n      jump\t// in\n    tag_130:\n      mload(0x40)\n      tag_132\n      swap2\n      swap1\n      tag_37\n      jump\t// in\n    tag_132:\n      mload(0x40)\n      dup1\n      swap2\n      sub\n      swap1\n      return\n        /* \"contracts/SwirlPrivatePool_withSanctions.sol\":2364:2390  bytes32 public currentRoot */\n    tag_23:\n      callvalue\n      dup1\n      iszero\n      tag_133\n      jumpi\n      revert(0x00, 0x00)\n    tag_133:\n      pop\n      tag_134\n      tag_135\n      jump\t// in\n    tag_134:\n      mload(0x40)\n      tag_136\n      swap2\n      swap1\n      tag_90\n      jump\t// in\n    tag_136:\n      mload(0x40)\n      dup1\n      swap2\n      sub\n      swap1\n      return\n        /* \"contracts/SwirlPrivatePool_withSanctions.sol\":2533:2578  mapping(address => bool) public isBlacklisted */\n    tag_24:\n      callvalue\n      dup1\n      iszero\n      tag_137\n      jumpi\n      revert(0x00, 0x00)\n    tag_137:\n      pop\n      tag_138\n      0x04\n      dup1\n      calldatasize\n      sub\n      dup2\n      add\n      swap1\n      tag_139\n      swap2\n      swap1\n      tag_53\n      jump\t// in\n    tag_139:\n      tag_140\n      jump\t// in\n    tag_138:\n      mload(0x40)\n      tag_141\n      swap2\n      swap1\n      tag_49\n      jump\t// in\n    tag_141:\n      mload(0x40)\n      dup1\n      swap2\n      sub\n      swap1\n      return\n        /* \"contracts/SwirlPrivatePool_withSanctions.sol\":7867:8138  function getAllFilledSubtrees() public view returns (bytes32[] memory) {... */\n    tag_30:\n        /* \"contracts/SwirlPrivatePool_withSanctions.sol\":7920:7936  bytes32[] memory */\n      0x60\n        /* \"contracts/SwirlPrivatePool_withSanctions.sol\":7949:7972  bytes32[] memory result */\n      0x00\n        /* \"contracts/SwirlPrivatePool_withSanctions.sol\":1671:1673  20 */\n      0x14\n        /* \"contracts/SwirlPrivatePool_withSanctions.sol\":7975:8000  new bytes32[](TREE_DEPTH) */\n      0xffffffff\n      and\n      0xffffffffffffffff\n      dup2\n      gt\n      iszero\n      tag_143\n      jumpi\n      tag_144\n      tag_145\n      jump\t// in\n    tag_144:\n    tag_143:\n      mload(0x40)\n      swap1\n      dup1\n      dup3\n      mstore\n      dup1\n      0x20\n      mul\n      0x20\n      add\n      dup3\n      add\n      0x40\n      mstore\n      dup1\n      iszero\n      tag_146\n      jumpi\n      dup2\n      0x20\n      add\n      0x20\n      dup3\n      mul\n      dup1\n      calldatasize\n      dup4\n      calldatacopy\n      dup1\n      dup3\n      add\n      swap2\n      pop\n      pop\n      swap1\n      pop\n    tag_146:\n      pop\n        /* \"contracts/SwirlPrivatePool_withSanctions.sol\":7949:8000  bytes32[] memory result = new bytes32[](TREE_DEPTH) */\n      swap1\n      pop\n        /* \"contracts/SwirlPrivatePool_withSanctions.sol\":8016:8024  uint32 i */\n      0x00\n        /* \"contracts/SwirlPrivatePool_withSanctions.sol\":8027:8028  0 */\n      0x00\n        /* \"contracts/SwirlPrivatePool_withSanctions.sol\":8016:8028  uint32 i = 0 */\n      swap1\n      pop\n        /* \"contracts/SwirlPrivatePool_withSanctions.sol\":8011:8107  for (uint32 i = 0; i < TREE_DEPTH; i++) {... */\n    tag_147:\n        /* \"contracts/SwirlPrivatePool_withSanctions.sol\":1671:1673  20 */\n      0x14\n        /* \"contracts/SwirlPrivatePool_withSanctions.sol\":8030:8044  i < TREE_DEPTH */\n      0xffffffff\n      and\n        /* \"contracts/SwirlPrivatePool_withSanctions.sol\":8030:8031  i */\n      dup2\n        /* \"contracts/SwirlPrivatePool_withSanctions.sol\":8030:8044  i < TREE_DEPTH */\n      0xffffffff\n      and\n      lt\n        /* \"contracts/SwirlPrivatePool_withSanctions.sol\":8011:8107  for (uint32 i = 0; i < TREE_DEPTH; i++) {... */\n      iszero\n      tag_148\n      jumpi\n        /* \"contracts/SwirlPrivatePool_withSanctions.sol\":8078:8092  filledSubtrees */\n      0x16\n        /* \"contracts/SwirlPrivatePool_withSanctions.sol\":8093:8094  i */\n      dup2\n        /* \"contracts/SwirlPrivatePool_withSanctions.sol\":8078:8095  filledSubtrees[i] */\n      0xffffffff\n      and\n      0x14\n      dup2\n      lt\n      tag_150\n      jumpi\n      tag_151\n      tag_152\n      jump\t// in\n    tag_151:\n    tag_150:\n      add\n      sload\n        /* \"contracts/SwirlPrivatePool_withSanctions.sol\":8066:8072  result */\n      dup3\n        /* \"contracts/SwirlPrivatePool_withSanctions.sol\":8073:8074  i */\n      dup3\n        /* \"contracts/SwirlPrivatePool_withSanctions.sol\":8066:8075  result[i] */\n      0xffffffff\n      and\n      dup2\n      mload\n      dup2\n      lt\n      tag_154\n      jumpi\n      tag_155\n      tag_152\n      jump\t// in\n    tag_155:\n    tag_154:\n      0x20\n      mul\n      0x20\n      add\n      add\n        /* \"contracts/SwirlPrivatePool_withSanctions.sol\":8066:8095  result[i] = filledSubtrees[i] */\n      dup2\n      dup2\n      mstore\n      pop\n      pop\n        /* \"contracts/SwirlPrivatePool_withSanctions.sol\":8046:8049  i++ */\n      dup1\n      dup1\n      0x01\n      add\n      swap2\n      pop\n      pop\n        /* \"contracts/SwirlPrivatePool_withSanctions.sol\":8011:8107  for (uint32 i = 0; i < TREE_DEPTH; i++) {... */\n      jump(tag_147)\n    tag_148:\n      pop\n        /* \"contracts/SwirlPrivatePool_withSanctions.sol\":8124:8130  result */\n      dup1\n        /* \"contracts/SwirlPrivatePool_withSanctions.sol\":8117:8130  return result */\n      swap2\n      pop\n      pop\n        /* \"contracts/SwirlPrivatePool_withSanctions.sol\":7867:8138  function getAllFilledSubtrees() public view returns (bytes32[] memory) {... */\n      swap1\n      jump\t// out\n        /* \"contracts/SwirlPrivatePool_withSanctions.sol\":1680:1742  uint32  public constant MAX_LEAVES   = uint32(1 << TREE_DEPTH) */\n    tag_35:\n        /* \"contracts/SwirlPrivatePool_withSanctions.sol\":1671:1673  20 */\n      0x14\n        /* \"contracts/SwirlPrivatePool_withSanctions.sol\":1726:1741  1 << TREE_DEPTH */\n      0xffffffff\n      and\n        /* \"contracts/SwirlPrivatePool_withSanctions.sol\":1726:1727  1 */\n      0x01\n        /* \"contracts/SwirlPrivatePool_withSanctions.sol\":1726:1741  1 << TREE_DEPTH */\n      swap1\n      shl\n        /* \"contracts/SwirlPrivatePool_withSanctions.sol\":1680:1742  uint32  public constant MAX_LEAVES   = uint32(1 << TREE_DEPTH) */\n      dup2\n      jump\t// out\n        /* \"contracts/SwirlPrivatePool_withSanctions.sol\":1577:1625  uint256 public constant PROTOCOL_FEE = 0.1 ether */\n    tag_40:\n        /* \"contracts/SwirlPrivatePool_withSanctions.sol\":1616:1625  0.1 ether */\n      0x016345785d8a0000\n        /* \"contracts/SwirlPrivatePool_withSanctions.sol\":1577:1625  uint256 public constant PROTOCOL_FEE = 0.1 ether */\n      dup2\n      jump\t// out\n        /* \"contracts/SwirlPrivatePool_withSanctions.sol\":2430:2477  mapping(bytes32 => bool) public nullifierHashes */\n    tag_47:\n      mstore(0x20, 0x2c)\n      dup1\n      0x00\n      mstore\n      keccak256(0x00, 0x40)\n      0x00\n      swap2\n      pop\n      sload\n      swap1\n      0x0100\n      exp\n      swap1\n      div\n      0xff\n      and\n      dup2\n      jump\t// out\n        /* \"contracts/SwirlPrivatePool_withSanctions.sol\":4537:4643  function deBlacklist(address _address) public onlyOwner {... */\n    tag_54:\n        /* \"contracts/SwirlPrivatePool_withSanctions.sol\":3128:3133  owner */\n      0x00\n      0x00\n      swap1\n      sload\n      swap1\n      0x0100\n      exp\n      swap1\n      div\n      0xffffffffffffffffffffffffffffffffffffffff\n      and\n        /* \"contracts/SwirlPrivatePool_withSanctions.sol\":3114:3133  msg.sender == owner */\n      0xffffffffffffffffffffffffffffffffffffffff\n      and\n        /* \"contracts/SwirlPrivatePool_withSanctions.sol\":3114:3124  msg.sender */\n      caller\n        /* \"contracts/SwirlPrivatePool_withSanctions.sol\":3114:3133  msg.sender == owner */\n      0xffffffffffffffffffffffffffffffffffffffff\n      and\n      eq\n        /* \"contracts/SwirlPrivatePool_withSanctions.sol\":3106:3171  require(msg.sender == owner, \"only owner can call this function\") */\n      tag_157\n      jumpi\n      mload(0x40)\n      0x08c379a000000000000000000000000000000000000000000000000000000000\n      dup2\n      mstore\n      0x04\n      add\n      tag_158\n      swap1\n      tag_159\n      jump\t// in\n    tag_158:\n      mload(0x40)\n      dup1\n      swap2\n      sub\n      swap1\n      revert\n    tag_157:\n        /* \"contracts/SwirlPrivatePool_withSanctions.sol\":4630:4635  false */\n      0x00\n        /* \"contracts/SwirlPrivatePool_withSanctions.sol\":4604:4617  isBlacklisted */\n      0x2e\n        /* \"contracts/SwirlPrivatePool_withSanctions.sol\":4604:4627  isBlacklisted[_address] */\n      0x00\n        /* \"contracts/SwirlPrivatePool_withSanctions.sol\":4618:4626  _address */\n      dup4\n        /* \"contracts/SwirlPrivatePool_withSanctions.sol\":4604:4627  isBlacklisted[_address] */\n      0xffffffffffffffffffffffffffffffffffffffff\n      and\n      0xffffffffffffffffffffffffffffffffffffffff\n      and\n      dup2\n      mstore\n      0x20\n      add\n      swap1\n      dup2\n      mstore\n      0x20\n      add\n      0x00\n      keccak256\n      0x00\n        /* \"contracts/SwirlPrivatePool_withSanctions.sol\":4604:4635  isBlacklisted[_address] = false */\n      0x0100\n      exp\n      dup2\n      sload\n      dup2\n      0xff\n      mul\n      not\n      and\n      swap1\n      dup4\n      iszero\n      iszero\n      mul\n      or\n      swap1\n      sstore\n      pop\n        /* \"contracts/SwirlPrivatePool_withSanctions.sol\":4537:4643  function deBlacklist(address _address) public onlyOwner {... */\n      pop\n      jump\t// out\n        /* \"contracts/SwirlPrivatePool_withSanctions.sol\":2187:2222  IVerifier public immutable verifier */\n    tag_57:\n      immutable(\"0xcdbc23227c72e0a3f4683bdbccfcbed38047ca1a70d48b78c210dc5393029019\")\n      dup2\n      jump\t// out\n        /* \"contracts/SwirlPrivatePool_withSanctions.sol\":2484:2526  mapping(bytes32 => bool) public knownRoots */\n    tag_63:\n      mstore(0x20, 0x2d)\n      dup1\n      0x00\n      mstore\n      keccak256(0x00, 0x40)\n      0x00\n      swap2\n      pop\n      sload\n      swap1\n      0x0100\n      exp\n      swap1\n      div\n      0xff\n      and\n      dup2\n      jump\t// out\n        /* \"contracts/SwirlPrivatePool_withSanctions.sol\":1962:1991  uint256 public total_fees = 0 */\n    tag_67:\n      sload(0x01)\n      dup2\n      jump\t// out\n        /* \"contracts/SwirlPrivatePool_withSanctions.sol\":2838:2884  mapping(bytes32 => EncryptedNote) public notes */\n    tag_72:\n      mstore(0x20, 0x2f)\n      dup1\n      0x00\n      mstore\n      keccak256(0x00, 0x40)\n      0x00\n      swap2\n      pop\n      swap1\n      pop\n      dup1\n      0x00\n      add\n      dup1\n      sload\n      tag_161\n      swap1\n      tag_162\n      jump\t// in\n    tag_161:\n      dup1\n      0x1f\n      add\n      0x20\n      dup1\n      swap2\n      div\n      mul\n      0x20\n      add\n      mload(0x40)\n      swap1\n      dup2\n      add\n      0x40\n      mstore\n      dup1\n      swap3\n      swap2\n      swap1\n      dup2\n      dup2\n      mstore\n      0x20\n      add\n      dup3\n      dup1\n      sload\n      tag_163\n      swap1\n      tag_162\n      jump\t// in\n    tag_163:\n      dup1\n      iszero\n      tag_164\n      jumpi\n      dup1\n      0x1f\n      lt\n      tag_165\n      jumpi\n      0x0100\n      dup1\n      dup4\n      sload\n      div\n      mul\n      dup4\n      mstore\n      swap2\n      0x20\n      add\n      swap2\n      jump(tag_164)\n    tag_165:\n      dup3\n      add\n      swap2\n      swap1\n      0x00\n      mstore\n      keccak256(0x00, 0x20)\n      swap1\n    tag_166:\n      dup2\n      sload\n      dup2\n      mstore\n      swap1\n      0x01\n      add\n      swap1\n      0x20\n      add\n      dup1\n      dup4\n      gt\n      tag_166\n      jumpi\n      dup3\n      swap1\n      sub\n      0x1f\n      and\n      dup3\n      add\n      swap2\n    tag_164:\n      pop\n      pop\n      pop\n      pop\n      pop\n      swap1\n      pop\n      dup2\n      jump\t// out\n        /* \"contracts/SwirlPrivatePool_withSanctions.sol\":1524:1570  uint256 public constant DENOMINATION = 1 ether */\n    tag_77:\n        /* \"contracts/SwirlPrivatePool_withSanctions.sol\":1563:1570  1 ether */\n      0x0de0b6b3a7640000\n        /* \"contracts/SwirlPrivatePool_withSanctions.sol\":1524:1570  uint256 public constant DENOMINATION = 1 ether */\n      dup2\n      jump\t// out\n        /* \"contracts/SwirlPrivatePool_withSanctions.sol\":1934:1954  address public owner */\n    tag_81:\n      0x00\n      0x00\n      swap1\n      sload\n      swap1\n      0x0100\n      exp\n      swap1\n      div\n      0xffffffffffffffffffffffffffffffffffffffff\n      and\n      dup2\n      jump\t// out\n        /* \"contracts/SwirlPrivatePool_withSanctions.sol\":7627:7859  function getFilledSubtree(uint32 index) public view returns (bytes32) {... */\n    tag_88:\n        /* \"contracts/SwirlPrivatePool_withSanctions.sol\":7688:7695  bytes32 */\n      0x00\n        /* \"contracts/SwirlPrivatePool_withSanctions.sol\":1671:1673  20 */\n      0x14\n        /* \"contracts/SwirlPrivatePool_withSanctions.sol\":7712:7731  index >= TREE_DEPTH */\n      0xffffffff\n      and\n        /* \"contracts/SwirlPrivatePool_withSanctions.sol\":7712:7717  index */\n      dup3\n        /* \"contracts/SwirlPrivatePool_withSanctions.sol\":7712:7731  index >= TREE_DEPTH */\n      0xffffffff\n      and\n      lt\n        /* \"contracts/SwirlPrivatePool_withSanctions.sol\":7708:7813  if (index >= TREE_DEPTH) {... */\n      tag_168\n      jumpi\n        /* \"contracts/SwirlPrivatePool_withSanctions.sol\":7763:7764  0 */\n      0x00\n        /* \"contracts/SwirlPrivatePool_withSanctions.sol\":7755:7765  bytes32(0) */\n      0x00\n      shl\n        /* \"contracts/SwirlPrivatePool_withSanctions.sol\":7748:7765  return bytes32(0) */\n      swap1\n      pop\n      jump(tag_167)\n        /* \"contracts/SwirlPrivatePool_withSanctions.sol\":7708:7813  if (index >= TREE_DEPTH) {... */\n    tag_168:\n        /* \"contracts/SwirlPrivatePool_withSanctions.sol\":7830:7844  filledSubtrees */\n      0x16\n        /* \"contracts/SwirlPrivatePool_withSanctions.sol\":7845:7850  index */\n      dup3\n        /* \"contracts/SwirlPrivatePool_withSanctions.sol\":7830:7851  filledSubtrees[index] */\n      0xffffffff\n      and\n      0x14\n      dup2\n      lt\n      tag_169\n      jumpi\n      tag_170\n      tag_152\n      jump\t// in\n    tag_170:\n    tag_169:\n      add\n      sload\n        /* \"contracts/SwirlPrivatePool_withSanctions.sol\":7823:7851  return filledSubtrees[index] */\n      swap1\n      pop\n        /* \"contracts/SwirlPrivatePool_withSanctions.sol\":7627:7859  function getFilledSubtree(uint32 index) public view returns (bytes32) {... */\n    tag_167:\n      swap2\n      swap1\n      pop\n      jump\t// out\n        /* \"contracts/SwirlPrivatePool_withSanctions.sol\":6503:7300  function withdraw(... */\n    tag_95:\n        /* \"contracts/SwirlPrivatePool_withSanctions.sol\":6679:6692  isBlacklisted */\n      0x2e\n        /* \"contracts/SwirlPrivatePool_withSanctions.sol\":6679:6704  isBlacklisted[msg.sender] */\n      0x00\n        /* \"contracts/SwirlPrivatePool_withSanctions.sol\":6693:6703  msg.sender */\n      caller\n        /* \"contracts/SwirlPrivatePool_withSanctions.sol\":6679:6704  isBlacklisted[msg.sender] */\n      0xffffffffffffffffffffffffffffffffffffffff\n      and\n      0xffffffffffffffffffffffffffffffffffffffff\n      and\n      dup2\n      mstore\n      0x20\n      add\n      swap1\n      dup2\n      mstore\n      0x20\n      add\n      0x00\n      keccak256\n      0x00\n      swap1\n      sload\n      swap1\n      0x0100\n      exp\n      swap1\n      div\n      0xff\n      and\n        /* \"contracts/SwirlPrivatePool_withSanctions.sol\":6678:6704  !isBlacklisted[msg.sender] */\n      iszero\n        /* \"contracts/SwirlPrivatePool_withSanctions.sol\":6670:6735  require(!isBlacklisted[msg.sender], \"this address is sanctioned\") */\n      tag_173\n      jumpi\n      mload(0x40)\n      0x08c379a000000000000000000000000000000000000000000000000000000000\n      dup2\n      mstore\n      0x04\n      add\n      tag_174\n      swap1\n      tag_175\n      jump\t// in\n    tag_174:\n      mload(0x40)\n      dup1\n      swap2\n      sub\n      swap1\n      revert\n    tag_173:\n        /* \"contracts/SwirlPrivatePool_withSanctions.sol\":6750:6765  nullifierHashes */\n      0x2c\n        /* \"contracts/SwirlPrivatePool_withSanctions.sol\":6750:6780  nullifierHashes[nullifierHash] */\n      0x00\n        /* \"contracts/SwirlPrivatePool_withSanctions.sol\":6766:6779  nullifierHash */\n      dup4\n        /* \"contracts/SwirlPrivatePool_withSanctions.sol\":6750:6780  nullifierHashes[nullifierHash] */\n      dup2\n      mstore\n      0x20\n      add\n      swap1\n      dup2\n      mstore\n      0x20\n      add\n      0x00\n      keccak256\n      0x00\n      swap1\n      sload\n      swap1\n      0x0100\n      exp\n      swap1\n      div\n      0xff\n      and\n        /* \"contracts/SwirlPrivatePool_withSanctions.sol\":6746:6811  if (nullifierHashes[nullifierHash]) revert NullifierAlreadyUsed() */\n      iszero\n      tag_176\n      jumpi\n        /* \"contracts/SwirlPrivatePool_withSanctions.sol\":6789:6811  NullifierAlreadyUsed() */\n      mload(0x40)\n      0xcad2ae0200000000000000000000000000000000000000000000000000000000\n      dup2\n      mstore\n      0x04\n      add\n      mload(0x40)\n      dup1\n      swap2\n      sub\n      swap1\n      revert\n        /* \"contracts/SwirlPrivatePool_withSanctions.sol\":6746:6811  if (nullifierHashes[nullifierHash]) revert NullifierAlreadyUsed() */\n    tag_176:\n        /* \"contracts/SwirlPrivatePool_withSanctions.sol\":6827:6837  knownRoots */\n      0x2d\n        /* \"contracts/SwirlPrivatePool_withSanctions.sol\":6827:6843  knownRoots[root] */\n      0x00\n        /* \"contracts/SwirlPrivatePool_withSanctions.sol\":6838:6842  root */\n      dup5\n        /* \"contracts/SwirlPrivatePool_withSanctions.sol\":6827:6843  knownRoots[root] */\n      dup2\n      mstore\n      0x20\n      add\n      swap1\n      dup2\n      mstore\n      0x20\n      add\n      0x00\n      keccak256\n      0x00\n      swap1\n      sload\n      swap1\n      0x0100\n      exp\n      swap1\n      div\n      0xff\n      and\n        /* \"contracts/SwirlPrivatePool_withSanctions.sol\":6822:6865  if (!knownRoots[root]) revert UnknownRoot() */\n      tag_177\n      jumpi\n        /* \"contracts/SwirlPrivatePool_withSanctions.sol\":6852:6865  UnknownRoot() */\n      mload(0x40)\n      0x8c52011600000000000000000000000000000000000000000000000000000000\n      dup2\n      mstore\n      0x04\n      add\n      mload(0x40)\n      dup1\n      swap2\n      sub\n      swap1\n      revert\n        /* \"contracts/SwirlPrivatePool_withSanctions.sol\":6822:6865  if (!knownRoots[root]) revert UnknownRoot() */\n    tag_177:\n        /* \"contracts/SwirlPrivatePool_withSanctions.sol\":6878:6907  bytes32[] memory publicInputs */\n      0x00\n        /* \"contracts/SwirlPrivatePool_withSanctions.sol\":6924:6925  2 */\n      0x02\n        /* \"contracts/SwirlPrivatePool_withSanctions.sol\":6910:6926  new bytes32[](2) */\n      0xffffffffffffffff\n      dup2\n      gt\n      iszero\n      tag_178\n      jumpi\n      tag_179\n      tag_145\n      jump\t// in\n    tag_179:\n    tag_178:\n      mload(0x40)\n      swap1\n      dup1\n      dup3\n      mstore\n      dup1\n      0x20\n      mul\n      0x20\n      add\n      dup3\n      add\n      0x40\n      mstore\n      dup1\n      iszero\n      tag_180\n      jumpi\n      dup2\n      0x20\n      add\n      0x20\n      dup3\n      mul\n      dup1\n      calldatasize\n      dup4\n      calldatacopy\n      dup1\n      dup3\n      add\n      swap2\n      pop\n      pop\n      swap1\n      pop\n    tag_180:\n      pop\n        /* \"contracts/SwirlPrivatePool_withSanctions.sol\":6878:6926  bytes32[] memory publicInputs = new bytes32[](2) */\n      swap1\n      pop\n        /* \"contracts/SwirlPrivatePool_withSanctions.sol\":6955:6959  root */\n      dup4\n        /* \"contracts/SwirlPrivatePool_withSanctions.sol\":6937:6949  publicInputs */\n      dup2\n        /* \"contracts/SwirlPrivatePool_withSanctions.sol\":6950:6951  0 */\n      0x00\n        /* \"contracts/SwirlPrivatePool_withSanctions.sol\":6937:6952  publicInputs[0] */\n      dup2\n      mload\n      dup2\n      lt\n      tag_181\n      jumpi\n      tag_182\n      tag_152\n      jump\t// in\n    tag_182:\n    tag_181:\n      0x20\n      mul\n      0x20\n      add\n      add\n        /* \"contracts/SwirlPrivatePool_withSanctions.sol\":6937:6959  publicInputs[0] = root */\n      dup2\n      dup2\n      mstore\n      pop\n      pop\n        /* \"contracts/SwirlPrivatePool_withSanctions.sol\":6988:7001  nullifierHash */\n      dup3\n        /* \"contracts/SwirlPrivatePool_withSanctions.sol\":6970:6982  publicInputs */\n      dup2\n        /* \"contracts/SwirlPrivatePool_withSanctions.sol\":6983:6984  1 */\n      0x01\n        /* \"contracts/SwirlPrivatePool_withSanctions.sol\":6970:6985  publicInputs[1] */\n      dup2\n      mload\n      dup2\n      lt\n      tag_183\n      jumpi\n      tag_184\n      tag_152\n      jump\t// in\n    tag_184:\n    tag_183:\n      0x20\n      mul\n      0x20\n      add\n      add\n        /* \"contracts/SwirlPrivatePool_withSanctions.sol\":6970:7001  publicInputs[1] = nullifierHash */\n      dup2\n      dup2\n      mstore\n      pop\n      pop\n        /* \"contracts/SwirlPrivatePool_withSanctions.sol\":7019:7027  verifier */\n      immutable(\"0xcdbc23227c72e0a3f4683bdbccfcbed38047ca1a70d48b78c210dc5393029019\")\n        /* \"contracts/SwirlPrivatePool_withSanctions.sol\":7019:7034  verifier.verify */\n      0xffffffffffffffffffffffffffffffffffffffff\n      and\n      0xea50d0e4\n        /* \"contracts/SwirlPrivatePool_withSanctions.sol\":7035:7040  proof */\n      dup8\n      dup8\n        /* \"contracts/SwirlPrivatePool_withSanctions.sol\":7042:7054  publicInputs */\n      dup5\n        /* \"contracts/SwirlPrivatePool_withSanctions.sol\":7019:7055  verifier.verify(proof, publicInputs) */\n      mload(0x40)\n      dup5\n      0xffffffff\n      and\n      0xe0\n      shl\n      dup2\n      mstore\n      0x04\n      add\n      tag_185\n      swap4\n      swap3\n      swap2\n      swap1\n      tag_186\n      jump\t// in\n    tag_185:\n      0x20\n      mload(0x40)\n      dup1\n      dup4\n      sub\n      dup2\n      dup7\n      gas\n      staticcall\n      iszero\n      dup1\n      iszero\n      tag_188\n      jumpi\n      returndatacopy(0x00, 0x00, returndatasize)\n      revert(0x00, returndatasize)\n    tag_188:\n      pop\n      pop\n      pop\n      pop\n      mload(0x40)\n      returndatasize\n      not(0x1f)\n      0x1f\n      dup3\n      add\n      and\n      dup3\n      add\n      dup1\n      0x40\n      mstore\n      pop\n      dup2\n      add\n      swap1\n      tag_189\n      swap2\n      swap1\n      tag_190\n      jump\t// in\n    tag_189:\n        /* \"contracts/SwirlPrivatePool_withSanctions.sol\":7014:7078  if (!verifier.verify(proof, publicInputs)) revert InvalidProof() */\n      tag_191\n      jumpi\n        /* \"contracts/SwirlPrivatePool_withSanctions.sol\":7064:7078  InvalidProof() */\n      mload(0x40)\n      0x09bde33900000000000000000000000000000000000000000000000000000000\n      dup2\n      mstore\n      0x04\n      add\n      mload(0x40)\n      dup1\n      swap2\n      sub\n      swap1\n      revert\n        /* \"contracts/SwirlPrivatePool_withSanctions.sol\":7014:7078  if (!verifier.verify(proof, publicInputs)) revert InvalidProof() */\n    tag_191:\n        /* \"contracts/SwirlPrivatePool_withSanctions.sol\":7124:7128  true */\n      0x01\n        /* \"contracts/SwirlPrivatePool_withSanctions.sol\":7091:7106  nullifierHashes */\n      0x2c\n        /* \"contracts/SwirlPrivatePool_withSanctions.sol\":7091:7121  nullifierHashes[nullifierHash] */\n      0x00\n        /* \"contracts/SwirlPrivatePool_withSanctions.sol\":7107:7120  nullifierHash */\n      dup6\n        /* \"contracts/SwirlPrivatePool_withSanctions.sol\":7091:7121  nullifierHashes[nullifierHash] */\n      dup2\n      mstore\n      0x20\n      add\n      swap1\n      dup2\n      mstore\n      0x20\n      add\n      0x00\n      keccak256\n      0x00\n        /* \"contracts/SwirlPrivatePool_withSanctions.sol\":7091:7128  nullifierHashes[nullifierHash] = true */\n      0x0100\n      exp\n      dup2\n      sload\n      dup2\n      0xff\n      mul\n      not\n      and\n      swap1\n      dup4\n      iszero\n      iszero\n      mul\n      or\n      swap1\n      sstore\n      pop\n        /* \"contracts/SwirlPrivatePool_withSanctions.sol\":7142:7149  bool ok */\n      0x00\n        /* \"contracts/SwirlPrivatePool_withSanctions.sol\":7154:7163  recipient */\n      dup3\n        /* \"contracts/SwirlPrivatePool_withSanctions.sol\":7154:7168  recipient.call */\n      0xffffffffffffffffffffffffffffffffffffffff\n      and\n        /* \"contracts/SwirlPrivatePool_withSanctions.sol\":1563:1570  1 ether */\n      0x0de0b6b3a7640000\n        /* \"contracts/SwirlPrivatePool_withSanctions.sol\":7154:7193  recipient.call{value: DENOMINATION}(\"\") */\n      mload(0x40)\n      tag_192\n      swap1\n      tag_193\n      jump\t// in\n    tag_192:\n      0x00\n      mload(0x40)\n      dup1\n      dup4\n      sub\n      dup2\n      dup6\n      dup8\n      gas\n      call\n      swap3\n      pop\n      pop\n      pop\n      returndatasize\n      dup1\n      0x00\n      dup2\n      eq\n      tag_196\n      jumpi\n      mload(0x40)\n      swap2\n      pop\n      and(add(returndatasize, 0x3f), not(0x1f))\n      dup3\n      add\n      0x40\n      mstore\n      returndatasize\n      dup3\n      mstore\n      returndatasize\n      0x00\n      0x20\n      dup5\n      add\n      returndatacopy\n      jump(tag_195)\n    tag_196:\n      0x60\n      swap2\n      pop\n    tag_195:\n      pop\n        /* \"contracts/SwirlPrivatePool_withSanctions.sol\":7141:7193  (bool ok,) = recipient.call{value: DENOMINATION}(\"\") */\n      pop\n      swap1\n      pop\n        /* \"contracts/SwirlPrivatePool_withSanctions.sol\":7212:7214  ok */\n      dup1\n        /* \"contracts/SwirlPrivatePool_withSanctions.sol\":7204:7238  require(ok, \"MNT transfer failed\") */\n      tag_197\n      jumpi\n      mload(0x40)\n      0x08c379a000000000000000000000000000000000000000000000000000000000\n      dup2\n      mstore\n      0x04\n      add\n      tag_198\n      swap1\n      tag_199\n      jump\t// in\n    tag_198:\n      mload(0x40)\n      dup1\n      swap2\n      sub\n      swap1\n      revert\n    tag_197:\n        /* \"contracts/SwirlPrivatePool_withSanctions.sol\":7267:7276  recipient */\n      dup3\n        /* \"contracts/SwirlPrivatePool_withSanctions.sol\":7256:7292  Withdrawal(recipient, nullifierHash) */\n      0xffffffffffffffffffffffffffffffffffffffff\n      and\n      0x0ce490531f6c8ae2f1ff174643bc8b7ed5e52987ab50dc1e8f33655d2cd8c90b\n        /* \"contracts/SwirlPrivatePool_withSanctions.sol\":7278:7291  nullifierHash */\n      dup6\n        /* \"contracts/SwirlPrivatePool_withSanctions.sol\":7256:7292  Withdrawal(recipient, nullifierHash) */\n      mload(0x40)\n      tag_200\n      swap2\n      swap1\n      tag_90\n      jump\t// in\n    tag_200:\n      mload(0x40)\n      dup1\n      swap2\n      sub\n      swap1\n      log2\n        /* \"contracts/SwirlPrivatePool_withSanctions.sol\":6659:7300  {... */\n      pop\n      pop\n        /* \"contracts/SwirlPrivatePool_withSanctions.sol\":6503:7300  function withdraw(... */\n      pop\n      pop\n      pop\n      pop\n      pop\n      jump\t// out\n        /* \"contracts/SwirlPrivatePool_withSanctions.sol\":2229:2266  IPoseidonT2 public immutable poseidon */\n    tag_98:\n      immutable(\"0xb2219b801710730437d0358146c829b62297a059eceaa0b40b27aea2daecf595\")\n      dup2\n      jump\t// out\n        /* \"contracts/SwirlPrivatePool_withSanctions.sol\":4965:6137  function deposit(... */\n    tag_104:\n        /* \"contracts/SwirlPrivatePool_withSanctions.sol\":5094:5107  isBlacklisted */\n      0x2e\n        /* \"contracts/SwirlPrivatePool_withSanctions.sol\":5094:5119  isBlacklisted[msg.sender] */\n      0x00\n        /* \"contracts/SwirlPrivatePool_withSanctions.sol\":5108:5118  msg.sender */\n      caller\n        /* \"contracts/SwirlPrivatePool_withSanctions.sol\":5094:5119  isBlacklisted[msg.sender] */\n      0xffffffffffffffffffffffffffffffffffffffff\n      and\n      0xffffffffffffffffffffffffffffffffffffffff\n      and\n      dup2\n      mstore\n      0x20\n      add\n      swap1\n      dup2\n      mstore\n      0x20\n      add\n      0x00\n      keccak256\n      0x00\n      swap1\n      sload\n      swap1\n      0x0100\n      exp\n      swap1\n      div\n      0xff\n      and\n        /* \"contracts/SwirlPrivatePool_withSanctions.sol\":5093:5119  !isBlacklisted[msg.sender] */\n      iszero\n        /* \"contracts/SwirlPrivatePool_withSanctions.sol\":5085:5150  require(!isBlacklisted[msg.sender], \"this address is sanctioned\") */\n      tag_202\n      jumpi\n      mload(0x40)\n      0x08c379a000000000000000000000000000000000000000000000000000000000\n      dup2\n      mstore\n      0x04\n      add\n      tag_203\n      swap1\n      tag_175\n      jump\t// in\n    tag_203:\n      mload(0x40)\n      dup1\n      swap2\n      sub\n      swap1\n      revert\n    tag_202:\n        /* \"contracts/SwirlPrivatePool_withSanctions.sol\":1563:1570  1 ether */\n      0x0de0b6b3a7640000\n        /* \"contracts/SwirlPrivatePool_withSanctions.sol\":5165:5174  msg.value */\n      callvalue\n        /* \"contracts/SwirlPrivatePool_withSanctions.sol\":5165:5190  msg.value != DENOMINATION */\n      eq\n        /* \"contracts/SwirlPrivatePool_withSanctions.sol\":5161:5220  if (msg.value != DENOMINATION) revert InvalidDenomination() */\n      tag_204\n      jumpi\n        /* \"contracts/SwirlPrivatePool_withSanctions.sol\":5199:5220  InvalidDenomination() */\n      mload(0x40)\n      0xf067b3c600000000000000000000000000000000000000000000000000000000\n      dup2\n      mstore\n      0x04\n      add\n      mload(0x40)\n      dup1\n      swap2\n      sub\n      swap1\n      revert\n        /* \"contracts/SwirlPrivatePool_withSanctions.sol\":5161:5220  if (msg.value != DENOMINATION) revert InvalidDenomination() */\n    tag_204:\n        /* \"contracts/SwirlPrivatePool_withSanctions.sol\":1671:1673  20 */\n      0x14\n        /* \"contracts/SwirlPrivatePool_withSanctions.sol\":1726:1741  1 << TREE_DEPTH */\n      0xffffffff\n      and\n        /* \"contracts/SwirlPrivatePool_withSanctions.sol\":1726:1727  1 */\n      0x01\n        /* \"contracts/SwirlPrivatePool_withSanctions.sol\":1726:1741  1 << TREE_DEPTH */\n      swap1\n      shl\n        /* \"contracts/SwirlPrivatePool_withSanctions.sol\":5235:5258  nextIndex >= MAX_LEAVES */\n      0xffffffff\n      and\n        /* \"contracts/SwirlPrivatePool_withSanctions.sol\":5235:5244  nextIndex */\n      0x2b\n      0x00\n      swap1\n      sload\n      swap1\n      0x0100\n      exp\n      swap1\n      div\n      0xffffffff\n      and\n        /* \"contracts/SwirlPrivatePool_withSanctions.sol\":5235:5258  nextIndex >= MAX_LEAVES */\n      0xffffffff\n      and\n      lt\n        /* \"contracts/SwirlPrivatePool_withSanctions.sol\":5231:5279  if (nextIndex >= MAX_LEAVES) revert TreeIsFull() */\n      tag_205\n      jumpi\n        /* \"contracts/SwirlPrivatePool_withSanctions.sol\":5267:5279  TreeIsFull() */\n      mload(0x40)\n      0xed732d0c00000000000000000000000000000000000000000000000000000000\n      dup2\n      mstore\n      0x04\n      add\n      mload(0x40)\n      dup1\n      swap2\n      sub\n      swap1\n      revert\n        /* \"contracts/SwirlPrivatePool_withSanctions.sol\":5231:5279  if (nextIndex >= MAX_LEAVES) revert TreeIsFull() */\n    tag_205:\n        /* \"contracts/SwirlPrivatePool_withSanctions.sol\":5292:5304  uint32 index */\n      0x00\n        /* \"contracts/SwirlPrivatePool_withSanctions.sol\":5307:5316  nextIndex */\n      0x2b\n      0x00\n      swap1\n      sload\n      swap1\n      0x0100\n      exp\n      swap1\n      div\n      0xffffffff\n      and\n        /* \"contracts/SwirlPrivatePool_withSanctions.sol\":5292:5316  uint32 index = nextIndex */\n      swap1\n      pop\n        /* \"contracts/SwirlPrivatePool_withSanctions.sol\":5327:5336  nextIndex */\n      0x2b\n      0x00\n        /* \"contracts/SwirlPrivatePool_withSanctions.sol\":5327:5338  nextIndex++ */\n      dup2\n      dup2\n      swap1\n      sload\n      swap1\n      0x0100\n      exp\n      swap1\n      div\n      0xffffffff\n      and\n      dup1\n      swap3\n      swap2\n      swap1\n      tag_206\n      swap1\n      tag_207\n      jump\t// in\n    tag_206:\n      swap2\n      swap1\n      0x0100\n      exp\n      dup2\n      sload\n      dup2\n      0xffffffff\n      mul\n      not\n      and\n      swap1\n      dup4\n      0xffffffff\n      and\n      mul\n      or\n      swap1\n      sstore\n      pop\n      pop\n        /* \"contracts/SwirlPrivatePool_withSanctions.sol\":5351:5370  uint256 currentHash */\n      0x00\n        /* \"contracts/SwirlPrivatePool_withSanctions.sol\":5381:5391  commitment */\n      dup5\n        /* \"contracts/SwirlPrivatePool_withSanctions.sol\":5373:5392  uint256(commitment) */\n      0x00\n      shr\n        /* \"contracts/SwirlPrivatePool_withSanctions.sol\":5351:5392  uint256 currentHash = uint256(commitment) */\n      swap1\n      pop\n        /* \"contracts/SwirlPrivatePool_withSanctions.sol\":5410:5418  uint32 i */\n      0x00\n        /* \"contracts/SwirlPrivatePool_withSanctions.sol\":5421:5422  0 */\n      0x00\n        /* \"contracts/SwirlPrivatePool_withSanctions.sol\":5410:5422  uint32 i = 0 */\n      swap1\n      pop\n        /* \"contracts/SwirlPrivatePool_withSanctions.sol\":5405:5915  for (uint32 i = 0; i < TREE_DEPTH; i++) {... */\n    tag_208:\n        /* \"contracts/SwirlPrivatePool_withSanctions.sol\":1671:1673  20 */\n      0x14\n        /* \"contracts/SwirlPrivatePool_withSanctions.sol\":5424:5438  i < TREE_DEPTH */\n      0xffffffff\n      and\n        /* \"contracts/SwirlPrivatePool_withSanctions.sol\":5424:5425  i */\n      dup2\n        /* \"contracts/SwirlPrivatePool_withSanctions.sol\":5424:5438  i < TREE_DEPTH */\n      0xffffffff\n      and\n      lt\n        /* \"contracts/SwirlPrivatePool_withSanctions.sol\":5405:5915  for (uint32 i = 0; i < TREE_DEPTH; i++) {... */\n      iszero\n      tag_209\n      jumpi\n        /* \"contracts/SwirlPrivatePool_withSanctions.sol\":5479:5480  0 */\n      0x00\n        /* \"contracts/SwirlPrivatePool_withSanctions.sol\":5473:5474  1 */\n      0x01\n        /* \"contracts/SwirlPrivatePool_withSanctions.sol\":5465:5470  index */\n      dup5\n        /* \"contracts/SwirlPrivatePool_withSanctions.sol\":5465:5474  index & 1 */\n      and\n        /* \"contracts/SwirlPrivatePool_withSanctions.sol\":5464:5480  (index & 1) == 0 */\n      0xffffffff\n      and\n      sub\n        /* \"contracts/SwirlPrivatePool_withSanctions.sol\":5460:5878  if ((index & 1) == 0) {... */\n      tag_211\n      jumpi\n        /* \"contracts/SwirlPrivatePool_withSanctions.sol\":5529:5540  currentHash */\n      dup2\n        /* \"contracts/SwirlPrivatePool_withSanctions.sol\":5521:5541  bytes32(currentHash) */\n      0x00\n      shl\n        /* \"contracts/SwirlPrivatePool_withSanctions.sol\":5501:5515  filledSubtrees */\n      0x16\n        /* \"contracts/SwirlPrivatePool_withSanctions.sol\":5516:5517  i */\n      dup3\n        /* \"contracts/SwirlPrivatePool_withSanctions.sol\":5501:5518  filledSubtrees[i] */\n      0xffffffff\n      and\n      0x14\n      dup2\n      lt\n      tag_212\n      jumpi\n      tag_213\n      tag_152\n      jump\t// in\n    tag_213:\n    tag_212:\n      add\n        /* \"contracts/SwirlPrivatePool_withSanctions.sol\":5501:5541  filledSubtrees[i] = bytes32(currentHash) */\n      dup2\n      swap1\n      sstore\n      pop\n        /* \"contracts/SwirlPrivatePool_withSanctions.sol\":5574:5582  poseidon */\n      immutable(\"0xb2219b801710730437d0358146c829b62297a059eceaa0b40b27aea2daecf595\")\n        /* \"contracts/SwirlPrivatePool_withSanctions.sol\":5574:5591  poseidon.poseidon */\n      0xffffffffffffffffffffffffffffffffffffffff\n      and\n      0x29a5f2f6\n        /* \"contracts/SwirlPrivatePool_withSanctions.sol\":5574:5686  poseidon.poseidon([... */\n      mload(0x40)\n      dup1\n      0x40\n      add\n      0x40\n      mstore\n      dup1\n        /* \"contracts/SwirlPrivatePool_withSanctions.sol\":5615:5626  currentHash */\n      dup6\n        /* \"contracts/SwirlPrivatePool_withSanctions.sol\":5574:5686  poseidon.poseidon([... */\n      dup2\n      mstore\n      0x20\n      add\n        /* \"contracts/SwirlPrivatePool_withSanctions.sol\":5657:5662  zeros */\n      0x02\n        /* \"contracts/SwirlPrivatePool_withSanctions.sol\":5663:5664  i */\n      dup6\n        /* \"contracts/SwirlPrivatePool_withSanctions.sol\":5657:5665  zeros[i] */\n      0xffffffff\n      and\n      0x14\n      dup2\n      lt\n      tag_215\n      jumpi\n      tag_216\n      tag_152\n      jump\t// in\n    tag_216:\n    tag_215:\n      add\n      sload\n        /* \"contracts/SwirlPrivatePool_withSanctions.sol\":5649:5666  uint256(zeros[i]) */\n      0x00\n      shr\n        /* \"contracts/SwirlPrivatePool_withSanctions.sol\":5574:5686  poseidon.poseidon([... */\n      dup2\n      mstore\n      pop\n      mload(0x40)\n      dup3\n      0xffffffff\n      and\n      0xe0\n      shl\n      dup2\n      mstore\n      0x04\n      add\n      tag_218\n      swap2\n      swap1\n      tag_219\n      jump\t// in\n    tag_218:\n      0x20\n      mload(0x40)\n      dup1\n      dup4\n      sub\n      dup2\n      dup7\n      gas\n      staticcall\n      iszero\n      dup1\n      iszero\n      tag_221\n      jumpi\n      returndatacopy(0x00, 0x00, returndatasize)\n      revert(0x00, returndatasize)\n    tag_221:\n      pop\n      pop\n      pop\n      pop\n      mload(0x40)\n      returndatasize\n      not(0x1f)\n      0x1f\n      dup3\n      add\n      and\n      dup3\n      add\n      dup1\n      0x40\n      mstore\n      pop\n      dup2\n      add\n      swap1\n      tag_222\n      swap2\n      swap1\n      tag_223\n      jump\t// in\n    tag_222:\n        /* \"contracts/SwirlPrivatePool_withSanctions.sol\":5560:5686  currentHash = poseidon.poseidon([... */\n      swap2\n      pop\n        /* \"contracts/SwirlPrivatePool_withSanctions.sol\":5460:5878  if ((index & 1) == 0) {... */\n      jump(tag_224)\n    tag_211:\n        /* \"contracts/SwirlPrivatePool_withSanctions.sol\":5741:5749  poseidon */\n      immutable(\"0xb2219b801710730437d0358146c829b62297a059eceaa0b40b27aea2daecf595\")\n        /* \"contracts/SwirlPrivatePool_withSanctions.sol\":5741:5758  poseidon.poseidon */\n      0xffffffffffffffffffffffffffffffffffffffff\n      and\n      0x29a5f2f6\n        /* \"contracts/SwirlPrivatePool_withSanctions.sol\":5741:5862  poseidon.poseidon([... */\n      mload(0x40)\n      dup1\n      0x40\n      add\n      0x40\n      mstore\n      dup1\n        /* \"contracts/SwirlPrivatePool_withSanctions.sol\":5790:5804  filledSubtrees */\n      0x16\n        /* \"contracts/SwirlPrivatePool_withSanctions.sol\":5805:5806  i */\n      dup6\n        /* \"contracts/SwirlPrivatePool_withSanctions.sol\":5790:5807  filledSubtrees[i] */\n      0xffffffff\n      and\n      0x14\n      dup2\n      lt\n      tag_225\n      jumpi\n      tag_226\n      tag_152\n      jump\t// in\n    tag_226:\n    tag_225:\n      add\n      sload\n        /* \"contracts/SwirlPrivatePool_withSanctions.sol\":5782:5808  uint256(filledSubtrees[i]) */\n      0x00\n      shr\n        /* \"contracts/SwirlPrivatePool_withSanctions.sol\":5741:5862  poseidon.poseidon([... */\n      dup2\n      mstore\n      0x20\n      add\n        /* \"contracts/SwirlPrivatePool_withSanctions.sol\":5831:5842  currentHash */\n      dup6\n        /* \"contracts/SwirlPrivatePool_withSanctions.sol\":5741:5862  poseidon.poseidon([... */\n      dup2\n      mstore\n      pop\n      mload(0x40)\n      dup3\n      0xffffffff\n      and\n      0xe0\n      shl\n      dup2\n      mstore\n      0x04\n      add\n      tag_228\n      swap2\n      swap1\n      tag_219\n      jump\t// in\n    tag_228:\n      0x20\n      mload(0x40)\n      dup1\n      dup4\n      sub\n      dup2\n      dup7\n      gas\n      staticcall\n      iszero\n      dup1\n      iszero\n      tag_230\n      jumpi\n      returndatacopy(0x00, 0x00, returndatasize)\n      revert(0x00, returndatasize)\n    tag_230:\n      pop\n      pop\n      pop\n      pop\n      mload(0x40)\n      returndatasize\n      not(0x1f)\n      0x1f\n      dup3\n      add\n      and\n      dup3\n      add\n      dup1\n      0x40\n      mstore\n      pop\n      dup2\n      add\n      swap1\n      tag_231\n      swap2\n      swap1\n      tag_223\n      jump\t// in\n    tag_231:\n        /* \"contracts/SwirlPrivatePool_withSanctions.sol\":5727:5862  currentHash = poseidon.poseidon([... */\n      swap2\n      pop\n        /* \"contracts/SwirlPrivatePool_withSanctions.sol\":5460:5878  if ((index & 1) == 0) {... */\n    tag_224:\n        /* \"contracts/SwirlPrivatePool_withSanctions.sol\":5902:5903  1 */\n      0x01\n        /* \"contracts/SwirlPrivatePool_withSanctions.sol\":5892:5903  index >>= 1 */\n      dup4\n      0xffffffff\n      and\n      swap1\n      shr\n      swap3\n      pop\n        /* \"contracts/SwirlPrivatePool_withSanctions.sol\":5440:5443  i++ */\n      dup1\n      dup1\n      0x01\n      add\n      swap2\n      pop\n      pop\n        /* \"contracts/SwirlPrivatePool_withSanctions.sol\":5405:5915  for (uint32 i = 0; i < TREE_DEPTH; i++) {... */\n      jump(tag_208)\n    tag_209:\n      pop\n        /* \"contracts/SwirlPrivatePool_withSanctions.sol\":5949:5960  currentHash */\n      dup1\n        /* \"contracts/SwirlPrivatePool_withSanctions.sol\":5941:5961  bytes32(currentHash) */\n      0x00\n      shl\n        /* \"contracts/SwirlPrivatePool_withSanctions.sol\":5927:5938  currentRoot */\n      0x2a\n        /* \"contracts/SwirlPrivatePool_withSanctions.sol\":5927:5961  currentRoot = bytes32(currentHash) */\n      dup2\n      swap1\n      sstore\n      pop\n        /* \"contracts/SwirlPrivatePool_withSanctions.sol\":5998:6002  true */\n      0x01\n        /* \"contracts/SwirlPrivatePool_withSanctions.sol\":5972:5982  knownRoots */\n      0x2d\n        /* \"contracts/SwirlPrivatePool_withSanctions.sol\":5972:5995  knownRoots[currentRoot] */\n      0x00\n        /* \"contracts/SwirlPrivatePool_withSanctions.sol\":5983:5994  currentRoot */\n      sload(0x2a)\n        /* \"contracts/SwirlPrivatePool_withSanctions.sol\":5972:5995  knownRoots[currentRoot] */\n      dup2\n      mstore\n      0x20\n      add\n      swap1\n      dup2\n      mstore\n      0x20\n      add\n      0x00\n      keccak256\n      0x00\n        /* \"contracts/SwirlPrivatePool_withSanctions.sol\":5972:6002  knownRoots[currentRoot] = true */\n      0x0100\n      exp\n      dup2\n      sload\n      dup2\n      0xff\n      mul\n      not\n      and\n      swap1\n      dup4\n      iszero\n      iszero\n      mul\n      or\n      swap1\n      sstore\n      pop\n        /* \"contracts/SwirlPrivatePool_withSanctions.sol\":6035:6077  EncryptedNote({ciphertext: encryptedNote}) */\n      mload(0x40)\n      dup1\n      0x20\n      add\n      0x40\n      mstore\n      dup1\n        /* \"contracts/SwirlPrivatePool_withSanctions.sol\":6062:6075  encryptedNote */\n      dup6\n      dup6\n        /* \"contracts/SwirlPrivatePool_withSanctions.sol\":6035:6077  EncryptedNote({ciphertext: encryptedNote}) */\n      dup1\n      dup1\n      0x1f\n      add\n      0x20\n      dup1\n      swap2\n      div\n      mul\n      0x20\n      add\n      mload(0x40)\n      swap1\n      dup2\n      add\n      0x40\n      mstore\n      dup1\n      swap4\n      swap3\n      swap2\n      swap1\n      dup2\n      dup2\n      mstore\n      0x20\n      add\n      dup4\n      dup4\n      dup1\n      dup3\n      dup5\n      calldatacopy\n      0x00\n      dup2\n      dup5\n      add\n      mstore\n      not(0x1f)\n      0x1f\n      dup3\n      add\n      and\n      swap1\n      pop\n      dup1\n      dup4\n      add\n      swap3\n      pop\n      pop\n      pop\n      pop\n      pop\n      pop\n      pop\n      dup2\n      mstore\n      pop\n        /* \"contracts/SwirlPrivatePool_withSanctions.sol\":6015:6020  notes */\n      0x2f\n        /* \"contracts/SwirlPrivatePool_withSanctions.sol\":6015:6032  notes[commitment] */\n      0x00\n        /* \"contracts/SwirlPrivatePool_withSanctions.sol\":6021:6031  commitment */\n      dup8\n        /* \"contracts/SwirlPrivatePool_withSanctions.sol\":6015:6032  notes[commitment] */\n      dup2\n      mstore\n      0x20\n      add\n      swap1\n      dup2\n      mstore\n      0x20\n      add\n      0x00\n      keccak256\n        /* \"contracts/SwirlPrivatePool_withSanctions.sol\":6015:6077  notes[commitment] = EncryptedNote({ciphertext: encryptedNote}) */\n      0x00\n      dup3\n      add\n      mload\n      dup2\n      0x00\n      add\n      swap1\n      dup2\n      tag_232\n      swap2\n      swap1\n      tag_233\n      jump\t// in\n    tag_232:\n      pop\n      swap1\n      pop\n      pop\n        /* \"contracts/SwirlPrivatePool_withSanctions.sol\":6103:6113  commitment */\n      dup5\n        /* \"contracts/SwirlPrivatePool_withSanctions.sol\":6095:6129  Deposit(commitment, nextIndex - 1) */\n      0x84fc9eb8cd0a782a1d1734fbeed616bd0ef775f8b9bd437636b62d634fe4baf3\n        /* \"contracts/SwirlPrivatePool_withSanctions.sol\":6127:6128  1 */\n      0x01\n        /* \"contracts/SwirlPrivatePool_withSanctions.sol\":6115:6124  nextIndex */\n      0x2b\n      0x00\n      swap1\n      sload\n      swap1\n      0x0100\n      exp\n      swap1\n      div\n      0xffffffff\n      and\n        /* \"contracts/SwirlPrivatePool_withSanctions.sol\":6115:6128  nextIndex - 1 */\n      tag_234\n      swap2\n      swap1\n      tag_235\n      jump\t// in\n    tag_234:\n        /* \"contracts/SwirlPrivatePool_withSanctions.sol\":6095:6129  Deposit(commitment, nextIndex - 1) */\n      mload(0x40)\n      tag_236\n      swap2\n      swap1\n      tag_37\n      jump\t// in\n    tag_236:\n      mload(0x40)\n      dup1\n      swap2\n      sub\n      swap1\n      log2\n        /* \"contracts/SwirlPrivatePool_withSanctions.sol\":5074:6137  {... */\n      pop\n      pop\n        /* \"contracts/SwirlPrivatePool_withSanctions.sol\":4965:6137  function deposit(... */\n      pop\n      pop\n      pop\n      jump\t// out\n        /* \"contracts/SwirlPrivatePool_withSanctions.sol\":7494:7619  function isSpent(bytes32 nullifierHash) external view returns (bool) {... */\n    tag_108:\n        /* \"contracts/SwirlPrivatePool_withSanctions.sol\":7557:7561  bool */\n      0x00\n        /* \"contracts/SwirlPrivatePool_withSanctions.sol\":7581:7596  nullifierHashes */\n      0x2c\n        /* \"contracts/SwirlPrivatePool_withSanctions.sol\":7581:7611  nullifierHashes[nullifierHash] */\n      0x00\n        /* \"contracts/SwirlPrivatePool_withSanctions.sol\":7597:7610  nullifierHash */\n      dup4\n        /* \"contracts/SwirlPrivatePool_withSanctions.sol\":7581:7611  nullifierHashes[nullifierHash] */\n      dup2\n      mstore\n      0x20\n      add\n      swap1\n      dup2\n      mstore\n      0x20\n      add\n      0x00\n      keccak256\n      0x00\n      swap1\n      sload\n      swap1\n      0x0100\n      exp\n      swap1\n      div\n      0xff\n      and\n        /* \"contracts/SwirlPrivatePool_withSanctions.sol\":7574:7611  return nullifierHashes[nullifierHash] */\n      swap1\n      pop\n        /* \"contracts/SwirlPrivatePool_withSanctions.sol\":7494:7619  function isSpent(bytes32 nullifierHash) external view returns (bool) {... */\n      swap2\n      swap1\n      pop\n      jump\t// out\n        /* \"contracts/SwirlPrivatePool_withSanctions.sol\":2275:2307  bytes32[TREE_DEPTH] public zeros */\n    tag_114:\n      0x02\n      dup2\n      0x14\n      dup2\n      lt\n      tag_238\n      jumpi\n      0x00\n      dup1\n      revert\n    tag_238:\n      add\n      0x00\n      swap2\n      pop\n      swap1\n      pop\n      sload\n      dup2\n      jump\t// out\n        /* \"contracts/SwirlPrivatePool_withSanctions.sol\":1632:1673  uint32  public constant TREE_DEPTH   = 20 */\n    tag_118:\n        /* \"contracts/SwirlPrivatePool_withSanctions.sol\":1671:1673  20 */\n      0x14\n        /* \"contracts/SwirlPrivatePool_withSanctions.sol\":1632:1673  uint32  public constant TREE_DEPTH   = 20 */\n      dup2\n      jump\t// out\n        /* \"contracts/SwirlPrivatePool_withSanctions.sol\":2314:2355  bytes32[TREE_DEPTH] public filledSubtrees */\n    tag_123:\n      0x16\n      dup2\n      0x14\n      dup2\n      lt\n      tag_240\n      jumpi\n      0x00\n      dup1\n      revert\n    tag_240:\n      add\n      0x00\n      swap2\n      pop\n      swap1\n      pop\n      sload\n      dup2\n      jump\t// out\n        /* \"contracts/SwirlPrivatePool_withSanctions.sol\":4346:4449  function blacklist(address _address) public onlyOwner {... */\n    tag_128:\n        /* \"contracts/SwirlPrivatePool_withSanctions.sol\":3128:3133  owner */\n      0x00\n      0x00\n      swap1\n      sload\n      swap1\n      0x0100\n      exp\n      swap1\n      div\n      0xffffffffffffffffffffffffffffffffffffffff\n      and\n        /* \"contracts/SwirlPrivatePool_withSanctions.sol\":3114:3133  msg.sender == owner */\n      0xffffffffffffffffffffffffffffffffffffffff\n      and\n        /* \"contracts/SwirlPrivatePool_withSanctions.sol\":3114:3124  msg.sender */\n      caller\n        /* \"contracts/SwirlPrivatePool_withSanctions.sol\":3114:3133  msg.sender == owner */\n      0xffffffffffffffffffffffffffffffffffffffff\n      and\n      eq\n        /* \"contracts/SwirlPrivatePool_withSanctions.sol\":3106:3171  require(msg.sender == owner, \"only owner can call this function\") */\n      tag_243\n      jumpi\n      mload(0x40)\n      0x08c379a000000000000000000000000000000000000000000000000000000000\n      dup2\n      mstore\n      0x04\n      add\n      tag_244\n      swap1\n      tag_159\n      jump\t// in\n    tag_244:\n      mload(0x40)\n      dup1\n      swap2\n      sub\n      swap1\n      revert\n    tag_243:\n        /* \"contracts/SwirlPrivatePool_withSanctions.sol\":4437:4441  true */\n      0x01\n        /* \"contracts/SwirlPrivatePool_withSanctions.sol\":4411:4424  isBlacklisted */\n      0x2e\n        /* \"contracts/SwirlPrivatePool_withSanctions.sol\":4411:4434  isBlacklisted[_address] */\n      0x00\n        /* \"contracts/SwirlPrivatePool_withSanctions.sol\":4425:4433  _address */\n      dup4\n        /* \"contracts/SwirlPrivatePool_withSanctions.sol\":4411:4434  isBlacklisted[_address] */\n      0xffffffffffffffffffffffffffffffffffffffff\n      and\n      0xffffffffffffffffffffffffffffffffffffffff\n      and\n      dup2\n      mstore\n      0x20\n      add\n      swap1\n      dup2\n      mstore\n      0x20\n      add\n      0x00\n      keccak256\n      0x00\n        /* \"contracts/SwirlPrivatePool_withSanctions.sol\":4411:4441  isBlacklisted[_address] = true */\n      0x0100\n      exp\n      dup2\n      sload\n      dup2\n      0xff\n      mul\n      not\n      and\n      swap1\n      dup4\n      iszero\n      iszero\n      mul\n      or\n      swap1\n      sstore\n      pop\n        /* \"contracts/SwirlPrivatePool_withSanctions.sol\":4346:4449  function blacklist(address _address) public onlyOwner {... */\n      pop\n      jump\t// out\n        /* \"contracts/SwirlPrivatePool_withSanctions.sol\":2397:2421  uint32  public nextIndex */\n    tag_131:\n      0x2b\n      0x00\n      swap1\n      sload\n      swap1\n      0x0100\n      exp\n      swap1\n      div\n      0xffffffff\n      and\n      dup2\n      jump\t// out\n        /* \"contracts/SwirlPrivatePool_withSanctions.sol\":2364:2390  bytes32 public currentRoot */\n    tag_135:\n      sload(0x2a)\n      dup2\n      jump\t// out\n        /* \"contracts/SwirlPrivatePool_withSanctions.sol\":2533:2578  mapping(address => bool) public isBlacklisted */\n    tag_140:\n      mstore(0x20, 0x2e)\n      dup1\n      0x00\n      mstore\n      keccak256(0x00, 0x40)\n      0x00\n      swap2\n      pop\n      sload\n      swap1\n      0x0100\n      exp\n      swap1\n      div\n      0xff\n      and\n      dup2\n      jump\t// out\n        /* \"#utility.yul\":7:121   */\n    tag_246:\n        /* \"#utility.yul\":74:80   */\n      0x00\n        /* \"#utility.yul\":108:113   */\n      dup2\n        /* \"#utility.yul\":102:114   */\n      mload\n        /* \"#utility.yul\":92:114   */\n      swap1\n      pop\n        /* \"#utility.yul\":7:121   */\n      swap2\n      swap1\n      pop\n      jump\t// out\n        /* \"#utility.yul\":127:311   */\n    tag_247:\n        /* \"#utility.yul\":226:237   */\n      0x00\n        /* \"#utility.yul\":260:266   */\n      dup3\n        /* \"#utility.yul\":255:258   */\n      dup3\n        /* \"#utility.yul\":248:267   */\n      mstore\n        /* \"#utility.yul\":300:304   */\n      0x20\n        /* \"#utility.yul\":295:298   */\n      dup3\n        /* \"#utility.yul\":291:305   */\n      add\n        /* \"#utility.yul\":276:305   */\n      swap1\n      pop\n        /* \"#utility.yul\":127:311   */\n      swap3\n      swap2\n      pop\n      pop\n      jump\t// out\n        /* \"#utility.yul\":317:449   */\n    tag_248:\n        /* \"#utility.yul\":384:388   */\n      0x00\n        /* \"#utility.yul\":407:410   */\n      dup2\n        /* \"#utility.yul\":399:410   */\n      swap1\n      pop\n        /* \"#utility.yul\":437:441   */\n      0x20\n        /* \"#utility.yul\":432:435   */\n      dup3\n        /* \"#utility.yul\":428:442   */\n      add\n        /* \"#utility.yul\":420:442   */\n      swap1\n      pop\n        /* \"#utility.yul\":317:449   */\n      swap2\n      swap1\n      pop\n      jump\t// out\n        /* \"#utility.yul\":455:532   */\n    tag_249:\n        /* \"#utility.yul\":492:499   */\n      0x00\n        /* \"#utility.yul\":521:526   */\n      dup2\n        /* \"#utility.yul\":510:526   */\n      swap1\n      pop\n        /* \"#utility.yul\":455:532   */\n      swap2\n      swap1\n      pop\n      jump\t// out\n        /* \"#utility.yul\":538:646   */\n    tag_250:\n        /* \"#utility.yul\":615:639   */\n      tag_338\n        /* \"#utility.yul\":633:638   */\n      dup2\n        /* \"#utility.yul\":615:639   */\n      tag_249\n      jump\t// in\n    tag_338:\n        /* \"#utility.yul\":610:613   */\n      dup3\n        /* \"#utility.yul\":603:640   */\n      mstore\n        /* \"#utility.yul\":538:646   */\n      pop\n      pop\n      jump\t// out\n        /* \"#utility.yul\":652:831   */\n    tag_251:\n        /* \"#utility.yul\":721:731   */\n      0x00\n        /* \"#utility.yul\":742:788   */\n      tag_340\n        /* \"#utility.yul\":784:787   */\n      dup4\n        /* \"#utility.yul\":776:782   */\n      dup4\n        /* \"#utility.yul\":742:788   */\n      tag_250\n      jump\t// in\n    tag_340:\n        /* \"#utility.yul\":820:824   */\n      0x20\n        /* \"#utility.yul\":815:818   */\n      dup4\n        /* \"#utility.yul\":811:825   */\n      add\n        /* \"#utility.yul\":797:825   */\n      swap1\n      pop\n        /* \"#utility.yul\":652:831   */\n      swap3\n      swap2\n      pop\n      pop\n      jump\t// out\n        /* \"#utility.yul\":837:950   */\n    tag_252:\n        /* \"#utility.yul\":907:911   */\n      0x00\n        /* \"#utility.yul\":939:943   */\n      0x20\n        /* \"#utility.yul\":934:937   */\n      dup3\n        /* \"#utility.yul\":930:944   */\n      add\n        /* \"#utility.yul\":922:944   */\n      swap1\n      pop\n        /* \"#utility.yul\":837:950   */\n      swap2\n      swap1\n      pop\n      jump\t// out\n        /* \"#utility.yul\":986:1718   */\n    tag_253:\n        /* \"#utility.yul\":1105:1108   */\n      0x00\n        /* \"#utility.yul\":1134:1188   */\n      tag_343\n        /* \"#utility.yul\":1182:1187   */\n      dup3\n        /* \"#utility.yul\":1134:1188   */\n      tag_246\n      jump\t// in\n    tag_343:\n        /* \"#utility.yul\":1204:1290   */\n      tag_344\n        /* \"#utility.yul\":1283:1289   */\n      dup2\n        /* \"#utility.yul\":1278:1281   */\n      dup6\n        /* \"#utility.yul\":1204:1290   */\n      tag_247\n      jump\t// in\n    tag_344:\n        /* \"#utility.yul\":1197:1290   */\n      swap4\n      pop\n        /* \"#utility.yul\":1314:1370   */\n      tag_345\n        /* \"#utility.yul\":1364:1369   */\n      dup4\n        /* \"#utility.yul\":1314:1370   */\n      tag_248\n      jump\t// in\n    tag_345:\n        /* \"#utility.yul\":1393:1400   */\n      dup1\n        /* \"#utility.yul\":1424:1425   */\n      0x00\n        /* \"#utility.yul\":1409:1693   */\n    tag_346:\n        /* \"#utility.yul\":1434:1440   */\n      dup4\n        /* \"#utility.yul\":1431:1432   */\n      dup2\n        /* \"#utility.yul\":1428:1441   */\n      lt\n        /* \"#utility.yul\":1409:1693   */\n      iszero\n      tag_348\n      jumpi\n        /* \"#utility.yul\":1510:1516   */\n      dup2\n        /* \"#utility.yul\":1504:1517   */\n      mload\n        /* \"#utility.yul\":1537:1600   */\n      tag_349\n        /* \"#utility.yul\":1596:1599   */\n      dup9\n        /* \"#utility.yul\":1581:1594   */\n      dup3\n        /* \"#utility.yul\":1537:1600   */\n      tag_251\n      jump\t// in\n    tag_349:\n        /* \"#utility.yul\":1530:1600   */\n      swap8\n      pop\n        /* \"#utility.yul\":1623:1683   */\n      tag_350\n        /* \"#utility.yul\":1676:1682   */\n      dup4\n        /* \"#utility.yul\":1623:1683   */\n      tag_252\n      jump\t// in\n    tag_350:\n        /* \"#utility.yul\":1613:1683   */\n      swap3\n      pop\n        /* \"#utility.yul\":1469:1693   */\n      pop\n        /* \"#utility.yul\":1456:1457   */\n      0x01\n        /* \"#utility.yul\":1453:1454   */\n      dup2\n        /* \"#utility.yul\":1449:1458   */\n      add\n        /* \"#utility.yul\":1444:1458   */\n      swap1\n      pop\n        /* \"#utility.yul\":1409:1693   */\n      jump(tag_346)\n    tag_348:\n        /* \"#utility.yul\":1413:1427   */\n      pop\n        /* \"#utility.yul\":1709:1712   */\n      dup6\n        /* \"#utility.yul\":1702:1712   */\n      swap4\n      pop\n        /* \"#utility.yul\":1110:1718   */\n      pop\n      pop\n      pop\n        /* \"#utility.yul\":986:1718   */\n      swap3\n      swap2\n      pop\n      pop\n      jump\t// out\n        /* \"#utility.yul\":1724:2097   */\n    tag_32:\n        /* \"#utility.yul\":1867:1871   */\n      0x00\n        /* \"#utility.yul\":1905:1907   */\n      0x20\n        /* \"#utility.yul\":1894:1903   */\n      dup3\n        /* \"#utility.yul\":1890:1908   */\n      add\n        /* \"#utility.yul\":1882:1908   */\n      swap1\n      pop\n        /* \"#utility.yul\":1954:1963   */\n      dup2\n        /* \"#utility.yul\":1948:1952   */\n      dup2\n        /* \"#utility.yul\":1944:1964   */\n      sub\n        /* \"#utility.yul\":1940:1941   */\n      0x00\n        /* \"#utility.yul\":1929:1938   */\n      dup4\n        /* \"#utility.yul\":1925:1942   */\n      add\n        /* \"#utility.yul\":1918:1965   */\n      mstore\n        /* \"#utility.yul\":1982:2090   */\n      tag_352\n        /* \"#utility.yul\":2085:2089   */\n      dup2\n        /* \"#utility.yul\":2076:2082   */\n      dup5\n        /* \"#utility.yul\":1982:2090   */\n      tag_253\n      jump\t// in\n    tag_352:\n        /* \"#utility.yul\":1974:2090   */\n      swap1\n      pop\n        /* \"#utility.yul\":1724:2097   */\n      swap3\n      swap2\n      pop\n      pop\n      jump\t// out\n        /* \"#utility.yul\":2103:2196   */\n    tag_254:\n        /* \"#utility.yul\":2139:2146   */\n      0x00\n        /* \"#utility.yul\":2179:2189   */\n      0xffffffff\n        /* \"#utility.yul\":2172:2177   */\n      dup3\n        /* \"#utility.yul\":2168:2190   */\n      and\n        /* \"#utility.yul\":2157:2190   */\n      swap1\n      pop\n        /* \"#utility.yul\":2103:2196   */\n      swap2\n      swap1\n      pop\n      jump\t// out\n        /* \"#utility.yul\":2202:2317   */\n    tag_255:\n        /* \"#utility.yul\":2287:2310   */\n      tag_355\n        /* \"#utility.yul\":2304:2309   */\n      dup2\n        /* \"#utility.yul\":2287:2310   */\n      tag_254\n      jump\t// in\n    tag_355:\n        /* \"#utility.yul\":2282:2285   */\n      dup3\n        /* \"#utility.yul\":2275:2311   */\n      mstore\n        /* \"#utility.yul\":2202:2317   */\n      pop\n      pop\n      jump\t// out\n        /* \"#utility.yul\":2323:2541   */\n    tag_37:\n        /* \"#utility.yul\":2414:2418   */\n      0x00\n        /* \"#utility.yul\":2452:2454   */\n      0x20\n        /* \"#utility.yul\":2441:2450   */\n      dup3\n        /* \"#utility.yul\":2437:2455   */\n      add\n        /* \"#utility.yul\":2429:2455   */\n      swap1\n      pop\n        /* \"#utility.yul\":2465:2534   */\n      tag_357\n        /* \"#utility.yul\":2531:2532   */\n      0x00\n        /* \"#utility.yul\":2520:2529   */\n      dup4\n        /* \"#utility.yul\":2516:2533   */\n      add\n        /* \"#utility.yul\":2507:2513   */\n      dup5\n        /* \"#utility.yul\":2465:2534   */\n      tag_255\n      jump\t// in\n    tag_357:\n        /* \"#utility.yul\":2323:2541   */\n      swap3\n      swap2\n      pop\n      pop\n      jump\t// out\n        /* \"#utility.yul\":2547:2624   */\n    tag_256:\n        /* \"#utility.yul\":2584:2591   */\n      0x00\n        /* \"#utility.yul\":2613:2618   */\n      dup2\n        /* \"#utility.yul\":2602:2618   */\n      swap1\n      pop\n        /* \"#utility.yul\":2547:2624   */\n      swap2\n      swap1\n      pop\n      jump\t// out\n        /* \"#utility.yul\":2630:2748   */\n    tag_257:\n        /* \"#utility.yul\":2717:2741   */\n      tag_360\n        /* \"#utility.yul\":2735:2740   */\n      dup2\n        /* \"#utility.yul\":2717:2741   */\n      tag_256\n      jump\t// in\n    tag_360:\n        /* \"#utility.yul\":2712:2715   */\n      dup3\n        /* \"#utility.yul\":2705:2742   */\n      mstore\n        /* \"#utility.yul\":2630:2748   */\n      pop\n      pop\n      jump\t// out\n        /* \"#utility.yul\":2754:2976   */\n    tag_42:\n        /* \"#utility.yul\":2847:2851   */\n      0x00\n        /* \"#utility.yul\":2885:2887   */\n      0x20\n        /* \"#utility.yul\":2874:2883   */\n      dup3\n        /* \"#utility.yul\":2870:2888   */\n      add\n        /* \"#utility.yul\":2862:2888   */\n      swap1\n      pop\n        /* \"#utility.yul\":2898:2969   */\n      tag_362\n        /* \"#utility.yul\":2966:2967   */\n      0x00\n        /* \"#utility.yul\":2955:2964   */\n      dup4\n        /* \"#utility.yul\":2951:2968   */\n      add\n        /* \"#utility.yul\":2942:2948   */\n      dup5\n        /* \"#utility.yul\":2898:2969   */\n      tag_257\n      jump\t// in\n    tag_362:\n        /* \"#utility.yul\":2754:2976   */\n      swap3\n      swap2\n      pop\n      pop\n      jump\t// out\n        /* \"#utility.yul\":3063:3180   */\n    tag_259:\n        /* \"#utility.yul\":3172:3173   */\n      0x00\n        /* \"#utility.yul\":3169:3170   */\n      0x00\n        /* \"#utility.yul\":3162:3174   */\n      revert\n        /* \"#utility.yul\":3186:3303   */\n    tag_260:\n        /* \"#utility.yul\":3295:3296   */\n      0x00\n        /* \"#utility.yul\":3292:3293   */\n      0x00\n        /* \"#utility.yul\":3285:3297   */\n      revert\n        /* \"#utility.yul\":3309:3431   */\n    tag_261:\n        /* \"#utility.yul\":3382:3406   */\n      tag_367\n        /* \"#utility.yul\":3400:3405   */\n      dup2\n        /* \"#utility.yul\":3382:3406   */\n      tag_249\n      jump\t// in\n    tag_367:\n        /* \"#utility.yul\":3375:3380   */\n      dup2\n        /* \"#utility.yul\":3372:3407   */\n      eq\n        /* \"#utility.yul\":3362:3425   */\n      tag_368\n      jumpi\n        /* \"#utility.yul\":3421:3422   */\n      0x00\n        /* \"#utility.yul\":3418:3419   */\n      0x00\n        /* \"#utility.yul\":3411:3423   */\n      revert\n        /* \"#utility.yul\":3362:3425   */\n    tag_368:\n        /* \"#utility.yul\":3309:3431   */\n      pop\n      jump\t// out\n        /* \"#utility.yul\":3437:3576   */\n    tag_262:\n        /* \"#utility.yul\":3483:3488   */\n      0x00\n        /* \"#utility.yul\":3521:3527   */\n      dup2\n        /* \"#utility.yul\":3508:3528   */\n      calldataload\n        /* \"#utility.yul\":3499:3528   */\n      swap1\n      pop\n        /* \"#utility.yul\":3537:3570   */\n      tag_370\n        /* \"#utility.yul\":3564:3569   */\n      dup2\n        /* \"#utility.yul\":3537:3570   */\n      tag_261\n      jump\t// in\n    tag_370:\n        /* \"#utility.yul\":3437:3576   */\n      swap3\n      swap2\n      pop\n      pop\n      jump\t// out\n        /* \"#utility.yul\":3582:3911   */\n    tag_46:\n        /* \"#utility.yul\":3641:3647   */\n      0x00\n        /* \"#utility.yul\":3690:3692   */\n      0x20\n        /* \"#utility.yul\":3678:3687   */\n      dup3\n        /* \"#utility.yul\":3669:3676   */\n      dup5\n        /* \"#utility.yul\":3665:3688   */\n      sub\n        /* \"#utility.yul\":3661:3693   */\n      slt\n        /* \"#utility.yul\":3658:3777   */\n      iszero\n      tag_372\n      jumpi\n        /* \"#utility.yul\":3696:3775   */\n      tag_373\n      tag_259\n      jump\t// in\n    tag_373:\n        /* \"#utility.yul\":3658:3777   */\n    tag_372:\n        /* \"#utility.yul\":3816:3817   */\n      0x00\n        /* \"#utility.yul\":3841:3894   */\n      tag_374\n        /* \"#utility.yul\":3886:3893   */\n      dup5\n        /* \"#utility.yul\":3877:3883   */\n      dup3\n        /* \"#utility.yul\":3866:3875   */\n      dup6\n        /* \"#utility.yul\":3862:3884   */\n      add\n        /* \"#utility.yul\":3841:3894   */\n      tag_262\n      jump\t// in\n    tag_374:\n        /* \"#utility.yul\":3831:3894   */\n      swap2\n      pop\n        /* \"#utility.yul\":3787:3904   */\n      pop\n        /* \"#utility.yul\":3582:3911   */\n      swap3\n      swap2\n      pop\n      pop\n      jump\t// out\n        /* \"#utility.yul\":3917:4007   */\n    tag_263:\n        /* \"#utility.yul\":3951:3958   */\n      0x00\n        /* \"#utility.yul\":3994:3999   */\n      dup2\n        /* \"#utility.yul\":3987:4000   */\n      iszero\n        /* \"#utility.yul\":3980:4001   */\n      iszero\n        /* \"#utility.yul\":3969:4001   */\n      swap1\n      pop\n        /* \"#utility.yul\":3917:4007   */\n      swap2\n      swap1\n      pop\n      jump\t// out\n        /* \"#utility.yul\":4013:4122   */\n    tag_264:\n        /* \"#utility.yul\":4094:4115   */\n      tag_377\n        /* \"#utility.yul\":4109:4114   */\n      dup2\n        /* \"#utility.yul\":4094:4115   */\n      tag_263\n      jump\t// in\n    tag_377:\n        /* \"#utility.yul\":4089:4092   */\n      dup3\n        /* \"#utility.yul\":4082:4116   */\n      mstore\n        /* \"#utility.yul\":4013:4122   */\n      pop\n      pop\n      jump\t// out\n        /* \"#utility.yul\":4128:4338   */\n    tag_49:\n        /* \"#utility.yul\":4215:4219   */\n      0x00\n        /* \"#utility.yul\":4253:4255   */\n      0x20\n        /* \"#utility.yul\":4242:4251   */\n      dup3\n        /* \"#utility.yul\":4238:4256   */\n      add\n        /* \"#utility.yul\":4230:4256   */\n      swap1\n      pop\n        /* \"#utility.yul\":4266:4331   */\n      tag_379\n        /* \"#utility.yul\":4328:4329   */\n      0x00\n        /* \"#utility.yul\":4317:4326   */\n      dup4\n        /* \"#utility.yul\":4313:4330   */\n      add\n        /* \"#utility.yul\":4304:4310   */\n      dup5\n        /* \"#utility.yul\":4266:4331   */\n      tag_264\n      jump\t// in\n    tag_379:\n        /* \"#utility.yul\":4128:4338   */\n      swap3\n      swap2\n      pop\n      pop\n      jump\t// out\n        /* \"#utility.yul\":4344:4470   */\n    tag_265:\n        /* \"#utility.yul\":4381:4388   */\n      0x00\n        /* \"#utility.yul\":4421:4463   */\n      0xffffffffffffffffffffffffffffffffffffffff\n        /* \"#utility.yul\":4414:4419   */\n      dup3\n        /* \"#utility.yul\":4410:4464   */\n      and\n        /* \"#utility.yul\":4399:4464   */\n      swap1\n      pop\n        /* \"#utility.yul\":4344:4470   */\n      swap2\n      swap1\n      pop\n      jump\t// out\n        /* \"#utility.yul\":4476:4572   */\n    tag_266:\n        /* \"#utility.yul\":4513:4520   */\n      0x00\n        /* \"#utility.yul\":4542:4566   */\n      tag_382\n        /* \"#utility.yul\":4560:4565   */\n      dup3\n        /* \"#utility.yul\":4542:4566   */\n      tag_265\n      jump\t// in\n    tag_382:\n        /* \"#utility.yul\":4531:4566   */\n      swap1\n      pop\n        /* \"#utility.yul\":4476:4572   */\n      swap2\n      swap1\n      pop\n      jump\t// out\n        /* \"#utility.yul\":4578:4700   */\n    tag_267:\n        /* \"#utility.yul\":4651:4675   */\n      tag_384\n        /* \"#utility.yul\":4669:4674   */\n      dup2\n        /* \"#utility.yul\":4651:4675   */\n      tag_266\n      jump\t// in\n    tag_384:\n        /* \"#utility.yul\":4644:4649   */\n      dup2\n        /* \"#utility.yul\":4641:4676   */\n      eq\n        /* \"#utility.yul\":4631:4694   */\n      tag_385\n      jumpi\n        /* \"#utility.yul\":4690:4691   */\n      0x00\n        /* \"#utility.yul\":4687:4688   */\n      0x00\n        /* \"#utility.yul\":4680:4692   */\n      revert\n        /* \"#utility.yul\":4631:4694   */\n    tag_385:\n        /* \"#utility.yul\":4578:4700   */\n      pop\n      jump\t// out\n        /* \"#utility.yul\":4706:4845   */\n    tag_268:\n        /* \"#utility.yul\":4752:4757   */\n      0x00\n        /* \"#utility.yul\":4790:4796   */\n      dup2\n        /* \"#utility.yul\":4777:4797   */\n      calldataload\n        /* \"#utility.yul\":4768:4797   */\n      swap1\n      pop\n        /* \"#utility.yul\":4806:4839   */\n      tag_387\n        /* \"#utility.yul\":4833:4838   */\n      dup2\n        /* \"#utility.yul\":4806:4839   */\n      tag_267\n      jump\t// in\n    tag_387:\n        /* \"#utility.yul\":4706:4845   */\n      swap3\n      swap2\n      pop\n      pop\n      jump\t// out\n        /* \"#utility.yul\":4851:5180   */\n    tag_53:\n        /* \"#utility.yul\":4910:4916   */\n      0x00\n        /* \"#utility.yul\":4959:4961   */\n      0x20\n        /* \"#utility.yul\":4947:4956   */\n      dup3\n        /* \"#utility.yul\":4938:4945   */\n      dup5\n        /* \"#utility.yul\":4934:4957   */\n      sub\n        /* \"#utility.yul\":4930:4962   */\n      slt\n        /* \"#utility.yul\":4927:5046   */\n      iszero\n      tag_389\n      jumpi\n        /* \"#utility.yul\":4965:5044   */\n      tag_390\n      tag_259\n      jump\t// in\n    tag_390:\n        /* \"#utility.yul\":4927:5046   */\n    tag_389:\n        /* \"#utility.yul\":5085:5086   */\n      0x00\n        /* \"#utility.yul\":5110:5163   */\n      tag_391\n        /* \"#utility.yul\":5155:5162   */\n      dup5\n        /* \"#utility.yul\":5146:5152   */\n      dup3\n        /* \"#utility.yul\":5135:5144   */\n      dup6\n        /* \"#utility.yul\":5131:5153   */\n      add\n        /* \"#utility.yul\":5110:5163   */\n      tag_268\n      jump\t// in\n    tag_391:\n        /* \"#utility.yul\":5100:5163   */\n      swap2\n      pop\n        /* \"#utility.yul\":5056:5173   */\n      pop\n        /* \"#utility.yul\":4851:5180   */\n      swap3\n      swap2\n      pop\n      pop\n      jump\t// out\n        /* \"#utility.yul\":5186:5246   */\n    tag_269:\n        /* \"#utility.yul\":5214:5217   */\n      0x00\n        /* \"#utility.yul\":5235:5240   */\n      dup2\n        /* \"#utility.yul\":5228:5240   */\n      swap1\n      pop\n        /* \"#utility.yul\":5186:5246   */\n      swap2\n      swap1\n      pop\n      jump\t// out\n        /* \"#utility.yul\":5252:5394   */\n    tag_270:\n        /* \"#utility.yul\":5302:5311   */\n      0x00\n        /* \"#utility.yul\":5335:5388   */\n      tag_394\n        /* \"#utility.yul\":5353:5387   */\n      tag_395\n        /* \"#utility.yul\":5362:5386   */\n      tag_396\n        /* \"#utility.yul\":5380:5385   */\n      dup5\n        /* \"#utility.yul\":5362:5386   */\n      tag_265\n      jump\t// in\n    tag_396:\n        /* \"#utility.yul\":5353:5387   */\n      tag_269\n      jump\t// in\n    tag_395:\n        /* \"#utility.yul\":5335:5388   */\n      tag_265\n      jump\t// in\n    tag_394:\n        /* \"#utility.yul\":5322:5388   */\n      swap1\n      pop\n        /* \"#utility.yul\":5252:5394   */\n      swap2\n      swap1\n      pop\n      jump\t// out\n        /* \"#utility.yul\":5400:5526   */\n    tag_271:\n        /* \"#utility.yul\":5450:5459   */\n      0x00\n        /* \"#utility.yul\":5483:5520   */\n      tag_398\n        /* \"#utility.yul\":5514:5519   */\n      dup3\n        /* \"#utility.yul\":5483:5520   */\n      tag_270\n      jump\t// in\n    tag_398:\n        /* \"#utility.yul\":5470:5520   */\n      swap1\n      pop\n        /* \"#utility.yul\":5400:5526   */\n      swap2\n      swap1\n      pop\n      jump\t// out\n        /* \"#utility.yul\":5532:5674   */\n    tag_272:\n        /* \"#utility.yul\":5598:5607   */\n      0x00\n        /* \"#utility.yul\":5631:5668   */\n      tag_400\n        /* \"#utility.yul\":5662:5667   */\n      dup3\n        /* \"#utility.yul\":5631:5668   */\n      tag_271\n      jump\t// in\n    tag_400:\n        /* \"#utility.yul\":5618:5668   */\n      swap1\n      pop\n        /* \"#utility.yul\":5532:5674   */\n      swap2\n      swap1\n      pop\n      jump\t// out\n        /* \"#utility.yul\":5680:5843   */\n    tag_273:\n        /* \"#utility.yul\":5783:5836   */\n      tag_402\n        /* \"#utility.yul\":5830:5835   */\n      dup2\n        /* \"#utility.yul\":5783:5836   */\n      tag_272\n      jump\t// in\n    tag_402:\n        /* \"#utility.yul\":5778:5781   */\n      dup3\n        /* \"#utility.yul\":5771:5837   */\n      mstore\n        /* \"#utility.yul\":5680:5843   */\n      pop\n      pop\n      jump\t// out\n        /* \"#utility.yul\":5849:6103   */\n    tag_59:\n        /* \"#utility.yul\":5958:5962   */\n      0x00\n        /* \"#utility.yul\":5996:5998   */\n      0x20\n        /* \"#utility.yul\":5985:5994   */\n      dup3\n        /* \"#utility.yul\":5981:5999   */\n      add\n        /* \"#utility.yul\":5973:5999   */\n      swap1\n      pop\n        /* \"#utility.yul\":6009:6096   */\n      tag_404\n        /* \"#utility.yul\":6093:6094   */\n      0x00\n        /* \"#utility.yul\":6082:6091   */\n      dup4\n        /* \"#utility.yul\":6078:6095   */\n      add\n        /* \"#utility.yul\":6069:6075   */\n      dup5\n        /* \"#utility.yul\":6009:6096   */\n      tag_273\n      jump\t// in\n    tag_404:\n        /* \"#utility.yul\":5849:6103   */\n      swap3\n      swap2\n      pop\n      pop\n      jump\t// out\n        /* \"#utility.yul\":6109:6207   */\n    tag_274:\n        /* \"#utility.yul\":6160:6166   */\n      0x00\n        /* \"#utility.yul\":6194:6199   */\n      dup2\n        /* \"#utility.yul\":6188:6200   */\n      mload\n        /* \"#utility.yul\":6178:6200   */\n      swap1\n      pop\n        /* \"#utility.yul\":6109:6207   */\n      swap2\n      swap1\n      pop\n      jump\t// out\n        /* \"#utility.yul\":6213:6381   */\n    tag_275:\n        /* \"#utility.yul\":6296:6307   */\n      0x00\n        /* \"#utility.yul\":6330:6336   */\n      dup3\n        /* \"#utility.yul\":6325:6328   */\n      dup3\n        /* \"#utility.yul\":6318:6337   */\n      mstore\n        /* \"#utility.yul\":6370:6374   */\n      0x20\n        /* \"#utility.yul\":6365:6368   */\n      dup3\n        /* \"#utility.yul\":6361:6375   */\n      add\n        /* \"#utility.yul\":6346:6375   */\n      swap1\n      pop\n        /* \"#utility.yul\":6213:6381   */\n      swap3\n      swap2\n      pop\n      pop\n      jump\t// out\n        /* \"#utility.yul\":6387:6526   */\n    tag_276:\n        /* \"#utility.yul\":6476:6482   */\n      dup3\n        /* \"#utility.yul\":6471:6474   */\n      dup2\n        /* \"#utility.yul\":6466:6469   */\n      dup4\n        /* \"#utility.yul\":6460:6483   */\n      mcopy\n        /* \"#utility.yul\":6517:6518   */\n      0x00\n        /* \"#utility.yul\":6508:6514   */\n      dup4\n        /* \"#utility.yul\":6503:6506   */\n      dup4\n        /* \"#utility.yul\":6499:6515   */\n      add\n        /* \"#utility.yul\":6492:6519   */\n      mstore\n        /* \"#utility.yul\":6387:6526   */\n      pop\n      pop\n      pop\n      jump\t// out\n        /* \"#utility.yul\":6532:6634   */\n    tag_277:\n        /* \"#utility.yul\":6573:6579   */\n      0x00\n        /* \"#utility.yul\":6624:6626   */\n      0x1f\n        /* \"#utility.yul\":6620:6627   */\n      not\n        /* \"#utility.yul\":6615:6617   */\n      0x1f\n        /* \"#utility.yul\":6608:6613   */\n      dup4\n        /* \"#utility.yul\":6604:6618   */\n      add\n        /* \"#utility.yul\":6600:6628   */\n      and\n        /* \"#utility.yul\":6590:6628   */\n      swap1\n      pop\n        /* \"#utility.yul\":6532:6634   */\n      swap2\n      swap1\n      pop\n      jump\t// out\n        /* \"#utility.yul\":6640:7013   */\n    tag_278:\n        /* \"#utility.yul\":6726:6729   */\n      0x00\n        /* \"#utility.yul\":6754:6792   */\n      tag_410\n        /* \"#utility.yul\":6786:6791   */\n      dup3\n        /* \"#utility.yul\":6754:6792   */\n      tag_274\n      jump\t// in\n    tag_410:\n        /* \"#utility.yul\":6808:6878   */\n      tag_411\n        /* \"#utility.yul\":6871:6877   */\n      dup2\n        /* \"#utility.yul\":6866:6869   */\n      dup6\n        /* \"#utility.yul\":6808:6878   */\n      tag_275\n      jump\t// in\n    tag_411:\n        /* \"#utility.yul\":6801:6878   */\n      swap4\n      pop\n        /* \"#utility.yul\":6887:6952   */\n      tag_412\n        /* \"#utility.yul\":6945:6951   */\n      dup2\n        /* \"#utility.yul\":6940:6943   */\n      dup6\n        /* \"#utility.yul\":6933:6937   */\n      0x20\n        /* \"#utility.yul\":6926:6931   */\n      dup7\n        /* \"#utility.yul\":6922:6938   */\n      add\n        /* \"#utility.yul\":6887:6952   */\n      tag_276\n      jump\t// in\n    tag_412:\n        /* \"#utility.yul\":6977:7006   */\n      tag_413\n        /* \"#utility.yul\":6999:7005   */\n      dup2\n        /* \"#utility.yul\":6977:7006   */\n      tag_277\n      jump\t// in\n    tag_413:\n        /* \"#utility.yul\":6972:6975   */\n      dup5\n        /* \"#utility.yul\":6968:7007   */\n      add\n        /* \"#utility.yul\":6961:7007   */\n      swap2\n      pop\n        /* \"#utility.yul\":6730:7013   */\n      pop\n        /* \"#utility.yul\":6640:7013   */\n      swap3\n      swap2\n      pop\n      pop\n      jump\t// out\n        /* \"#utility.yul\":7019:7328   */\n    tag_74:\n        /* \"#utility.yul\":7130:7134   */\n      0x00\n        /* \"#utility.yul\":7168:7170   */\n      0x20\n        /* \"#utility.yul\":7157:7166   */\n      dup3\n        /* \"#utility.yul\":7153:7171   */\n      add\n        /* \"#utility.yul\":7145:7171   */\n      swap1\n      pop\n        /* \"#utility.yul\":7217:7226   */\n      dup2\n        /* \"#utility.yul\":7211:7215   */\n      dup2\n        /* \"#utility.yul\":7207:7227   */\n      sub\n        /* \"#utility.yul\":7203:7204   */\n      0x00\n        /* \"#utility.yul\":7192:7201   */\n      dup4\n        /* \"#utility.yul\":7188:7205   */\n      add\n        /* \"#utility.yul\":7181:7228   */\n      mstore\n        /* \"#utility.yul\":7245:7321   */\n      tag_415\n        /* \"#utility.yul\":7316:7320   */\n      dup2\n        /* \"#utility.yul\":7307:7313   */\n      dup5\n        /* \"#utility.yul\":7245:7321   */\n      tag_278\n      jump\t// in\n    tag_415:\n        /* \"#utility.yul\":7237:7321   */\n      swap1\n      pop\n        /* \"#utility.yul\":7019:7328   */\n      swap3\n      swap2\n      pop\n      pop\n      jump\t// out\n        /* \"#utility.yul\":7334:7452   */\n    tag_279:\n        /* \"#utility.yul\":7421:7445   */\n      tag_417\n        /* \"#utility.yul\":7439:7444   */\n      dup2\n        /* \"#utility.yul\":7421:7445   */\n      tag_266\n      jump\t// in\n    tag_417:\n        /* \"#utility.yul\":7416:7419   */\n      dup3\n        /* \"#utility.yul\":7409:7446   */\n      mstore\n        /* \"#utility.yul\":7334:7452   */\n      pop\n      pop\n      jump\t// out\n        /* \"#utility.yul\":7458:7680   */\n    tag_83:\n        /* \"#utility.yul\":7551:7555   */\n      0x00\n        /* \"#utility.yul\":7589:7591   */\n      0x20\n        /* \"#utility.yul\":7578:7587   */\n      dup3\n        /* \"#utility.yul\":7574:7592   */\n      add\n        /* \"#utility.yul\":7566:7592   */\n      swap1\n      pop\n        /* \"#utility.yul\":7602:7673   */\n      tag_419\n        /* \"#utility.yul\":7670:7671   */\n      0x00\n        /* \"#utility.yul\":7659:7668   */\n      dup4\n        /* \"#utility.yul\":7655:7672   */\n      add\n        /* \"#utility.yul\":7646:7652   */\n      dup5\n        /* \"#utility.yul\":7602:7673   */\n      tag_279\n      jump\t// in\n    tag_419:\n        /* \"#utility.yul\":7458:7680   */\n      swap3\n      swap2\n      pop\n      pop\n      jump\t// out\n        /* \"#utility.yul\":7686:7806   */\n    tag_280:\n        /* \"#utility.yul\":7758:7781   */\n      tag_421\n        /* \"#utility.yul\":7775:7780   */\n      dup2\n        /* \"#utility.yul\":7758:7781   */\n      tag_254\n      jump\t// in\n    tag_421:\n        /* \"#utility.yul\":7751:7756   */\n      dup2\n        /* \"#utility.yul\":7748:7782   */\n      eq\n        /* \"#utility.yul\":7738:7800   */\n      tag_422\n      jumpi\n        /* \"#utility.yul\":7796:7797   */\n      0x00\n        /* \"#utility.yul\":7793:7794   */\n      0x00\n        /* \"#utility.yul\":7786:7798   */\n      revert\n        /* \"#utility.yul\":7738:7800   */\n    tag_422:\n        /* \"#utility.yul\":7686:7806   */\n      pop\n      jump\t// out\n        /* \"#utility.yul\":7812:7949   */\n    tag_281:\n        /* \"#utility.yul\":7857:7862   */\n      0x00\n        /* \"#utility.yul\":7895:7901   */\n      dup2\n        /* \"#utility.yul\":7882:7902   */\n      calldataload\n        /* \"#utility.yul\":7873:7902   */\n      swap1\n      pop\n        /* \"#utility.yul\":7911:7943   */\n      tag_424\n        /* \"#utility.yul\":7937:7942   */\n      dup2\n        /* \"#utility.yul\":7911:7943   */\n      tag_280\n      jump\t// in\n    tag_424:\n        /* \"#utility.yul\":7812:7949   */\n      swap3\n      swap2\n      pop\n      pop\n      jump\t// out\n        /* \"#utility.yul\":7955:8282   */\n    tag_87:\n        /* \"#utility.yul\":8013:8019   */\n      0x00\n        /* \"#utility.yul\":8062:8064   */\n      0x20\n        /* \"#utility.yul\":8050:8059   */\n      dup3\n        /* \"#utility.yul\":8041:8048   */\n      dup5\n        /* \"#utility.yul\":8037:8060   */\n      sub\n        /* \"#utility.yul\":8033:8065   */\n      slt\n        /* \"#utility.yul\":8030:8149   */\n      iszero\n      tag_426\n      jumpi\n        /* \"#utility.yul\":8068:8147   */\n      tag_427\n      tag_259\n      jump\t// in\n    tag_427:\n        /* \"#utility.yul\":8030:8149   */\n    tag_426:\n        /* \"#utility.yul\":8188:8189   */\n      0x00\n        /* \"#utility.yul\":8213:8265   */\n      tag_428\n        /* \"#utility.yul\":8257:8264   */\n      dup5\n        /* \"#utility.yul\":8248:8254   */\n      dup3\n        /* \"#utility.yul\":8237:8246   */\n      dup6\n        /* \"#utility.yul\":8233:8255   */\n      add\n        /* \"#utility.yul\":8213:8265   */\n      tag_281\n      jump\t// in\n    tag_428:\n        /* \"#utility.yul\":8203:8265   */\n      swap2\n      pop\n        /* \"#utility.yul\":8159:8275   */\n      pop\n        /* \"#utility.yul\":7955:8282   */\n      swap3\n      swap2\n      pop\n      pop\n      jump\t// out\n        /* \"#utility.yul\":8288:8406   */\n    tag_282:\n        /* \"#utility.yul\":8375:8399   */\n      tag_430\n        /* \"#utility.yul\":8393:8398   */\n      dup2\n        /* \"#utility.yul\":8375:8399   */\n      tag_249\n      jump\t// in\n    tag_430:\n        /* \"#utility.yul\":8370:8373   */\n      dup3\n        /* \"#utility.yul\":8363:8400   */\n      mstore\n        /* \"#utility.yul\":8288:8406   */\n      pop\n      pop\n      jump\t// out\n        /* \"#utility.yul\":8412:8634   */\n    tag_90:\n        /* \"#utility.yul\":8505:8509   */\n      0x00\n        /* \"#utility.yul\":8543:8545   */\n      0x20\n        /* \"#utility.yul\":8532:8541   */\n      dup3\n        /* \"#utility.yul\":8528:8546   */\n      add\n        /* \"#utility.yul\":8520:8546   */\n      swap1\n      pop\n        /* \"#utility.yul\":8556:8627   */\n      tag_432\n        /* \"#utility.yul\":8624:8625   */\n      0x00\n        /* \"#utility.yul\":8613:8622   */\n      dup4\n        /* \"#utility.yul\":8609:8626   */\n      add\n        /* \"#utility.yul\":8600:8606   */\n      dup5\n        /* \"#utility.yul\":8556:8627   */\n      tag_282\n      jump\t// in\n    tag_432:\n        /* \"#utility.yul\":8412:8634   */\n      swap3\n      swap2\n      pop\n      pop\n      jump\t// out\n        /* \"#utility.yul\":8640:8757   */\n    tag_283:\n        /* \"#utility.yul\":8749:8750   */\n      0x00\n        /* \"#utility.yul\":8746:8747   */\n      0x00\n        /* \"#utility.yul\":8739:8751   */\n      revert\n        /* \"#utility.yul\":8763:8880   */\n    tag_284:\n        /* \"#utility.yul\":8872:8873   */\n      0x00\n        /* \"#utility.yul\":8869:8870   */\n      0x00\n        /* \"#utility.yul\":8862:8874   */\n      revert\n        /* \"#utility.yul\":8886:9003   */\n    tag_285:\n        /* \"#utility.yul\":8995:8996   */\n      0x00\n        /* \"#utility.yul\":8992:8993   */\n      0x00\n        /* \"#utility.yul\":8985:8997   */\n      revert\n        /* \"#utility.yul\":9022:9574   */\n    tag_286:\n        /* \"#utility.yul\":9079:9087   */\n      0x00\n        /* \"#utility.yul\":9089:9095   */\n      0x00\n        /* \"#utility.yul\":9139:9142   */\n      dup4\n        /* \"#utility.yul\":9132:9136   */\n      0x1f\n        /* \"#utility.yul\":9124:9130   */\n      dup5\n        /* \"#utility.yul\":9120:9137   */\n      add\n        /* \"#utility.yul\":9116:9143   */\n      slt\n        /* \"#utility.yul\":9106:9228   */\n      tag_437\n      jumpi\n        /* \"#utility.yul\":9147:9226   */\n      tag_438\n      tag_283\n      jump\t// in\n    tag_438:\n        /* \"#utility.yul\":9106:9228   */\n    tag_437:\n        /* \"#utility.yul\":9260:9266   */\n      dup3\n        /* \"#utility.yul\":9247:9267   */\n      calldataload\n        /* \"#utility.yul\":9237:9267   */\n      swap1\n      pop\n        /* \"#utility.yul\":9290:9308   */\n      0xffffffffffffffff\n        /* \"#utility.yul\":9282:9288   */\n      dup2\n        /* \"#utility.yul\":9279:9309   */\n      gt\n        /* \"#utility.yul\":9276:9393   */\n      iszero\n      tag_439\n      jumpi\n        /* \"#utility.yul\":9312:9391   */\n      tag_440\n      tag_284\n      jump\t// in\n    tag_440:\n        /* \"#utility.yul\":9276:9393   */\n    tag_439:\n        /* \"#utility.yul\":9426:9430   */\n      0x20\n        /* \"#utility.yul\":9418:9424   */\n      dup4\n        /* \"#utility.yul\":9414:9431   */\n      add\n        /* \"#utility.yul\":9402:9431   */\n      swap2\n      pop\n        /* \"#utility.yul\":9480:9483   */\n      dup4\n        /* \"#utility.yul\":9472:9476   */\n      0x01\n        /* \"#utility.yul\":9464:9470   */\n      dup3\n        /* \"#utility.yul\":9460:9477   */\n      mul\n        /* \"#utility.yul\":9450:9458   */\n      dup4\n        /* \"#utility.yul\":9446:9478   */\n      add\n        /* \"#utility.yul\":9443:9484   */\n      gt\n        /* \"#utility.yul\":9440:9568   */\n      iszero\n      tag_441\n      jumpi\n        /* \"#utility.yul\":9487:9566   */\n      tag_442\n      tag_285\n      jump\t// in\n    tag_442:\n        /* \"#utility.yul\":9440:9568   */\n    tag_441:\n        /* \"#utility.yul\":9022:9574   */\n      swap3\n      pop\n      swap3\n      swap1\n      pop\n      jump\t// out\n        /* \"#utility.yul\":9580:9684   */\n    tag_287:\n        /* \"#utility.yul\":9625:9632   */\n      0x00\n        /* \"#utility.yul\":9654:9678   */\n      tag_444\n        /* \"#utility.yul\":9672:9677   */\n      dup3\n        /* \"#utility.yul\":9654:9678   */\n      tag_265\n      jump\t// in\n    tag_444:\n        /* \"#utility.yul\":9643:9678   */\n      swap1\n      pop\n        /* \"#utility.yul\":9580:9684   */\n      swap2\n      swap1\n      pop\n      jump\t// out\n        /* \"#utility.yul\":9690:9828   */\n    tag_288:\n        /* \"#utility.yul\":9771:9803   */\n      tag_446\n        /* \"#utility.yul\":9797:9802   */\n      dup2\n        /* \"#utility.yul\":9771:9803   */\n      tag_287\n      jump\t// in\n    tag_446:\n        /* \"#utility.yul\":9764:9769   */\n      dup2\n        /* \"#utility.yul\":9761:9804   */\n      eq\n        /* \"#utility.yul\":9751:9822   */\n      tag_447\n      jumpi\n        /* \"#utility.yul\":9818:9819   */\n      0x00\n        /* \"#utility.yul\":9815:9816   */\n      0x00\n        /* \"#utility.yul\":9808:9820   */\n      revert\n        /* \"#utility.yul\":9751:9822   */\n    tag_447:\n        /* \"#utility.yul\":9690:9828   */\n      pop\n      jump\t// out\n        /* \"#utility.yul\":9834:9989   */\n    tag_289:\n        /* \"#utility.yul\":9888:9893   */\n      0x00\n        /* \"#utility.yul\":9926:9932   */\n      dup2\n        /* \"#utility.yul\":9913:9933   */\n      calldataload\n        /* \"#utility.yul\":9904:9933   */\n      swap1\n      pop\n        /* \"#utility.yul\":9942:9983   */\n      tag_449\n        /* \"#utility.yul\":9977:9982   */\n      dup2\n        /* \"#utility.yul\":9942:9983   */\n      tag_288\n      jump\t// in\n    tag_449:\n        /* \"#utility.yul\":9834:9989   */\n      swap3\n      swap2\n      pop\n      pop\n      jump\t// out\n        /* \"#utility.yul\":9995:10974   */\n    tag_94:\n        /* \"#utility.yul\":10100:10106   */\n      0x00\n        /* \"#utility.yul\":10108:10114   */\n      0x00\n        /* \"#utility.yul\":10116:10122   */\n      0x00\n        /* \"#utility.yul\":10124:10130   */\n      0x00\n        /* \"#utility.yul\":10132:10138   */\n      0x00\n        /* \"#utility.yul\":10181:10184   */\n      0x80\n        /* \"#utility.yul\":10169:10178   */\n      dup7\n        /* \"#utility.yul\":10160:10167   */\n      dup9\n        /* \"#utility.yul\":10156:10179   */\n      sub\n        /* \"#utility.yul\":10152:10185   */\n      slt\n        /* \"#utility.yul\":10149:10269   */\n      iszero\n      tag_451\n      jumpi\n        /* \"#utility.yul\":10188:10267   */\n      tag_452\n      tag_259\n      jump\t// in\n    tag_452:\n        /* \"#utility.yul\":10149:10269   */\n    tag_451:\n        /* \"#utility.yul\":10336:10337   */\n      0x00\n        /* \"#utility.yul\":10325:10334   */\n      dup7\n        /* \"#utility.yul\":10321:10338   */\n      add\n        /* \"#utility.yul\":10308:10339   */\n      calldataload\n        /* \"#utility.yul\":10366:10384   */\n      0xffffffffffffffff\n        /* \"#utility.yul\":10358:10364   */\n      dup2\n        /* \"#utility.yul\":10355:10385   */\n      gt\n        /* \"#utility.yul\":10352:10469   */\n      iszero\n      tag_453\n      jumpi\n        /* \"#utility.yul\":10388:10467   */\n      tag_454\n      tag_260\n      jump\t// in\n    tag_454:\n        /* \"#utility.yul\":10352:10469   */\n    tag_453:\n        /* \"#utility.yul\":10501:10565   */\n      tag_455\n        /* \"#utility.yul\":10557:10564   */\n      dup9\n        /* \"#utility.yul\":10548:10554   */\n      dup3\n        /* \"#utility.yul\":10537:10546   */\n      dup10\n        /* \"#utility.yul\":10533:10555   */\n      add\n        /* \"#utility.yul\":10501:10565   */\n      tag_286\n      jump\t// in\n    tag_455:\n        /* \"#utility.yul\":10483:10565   */\n      swap6\n      pop\n      swap6\n      pop\n        /* \"#utility.yul\":10279:10575   */\n      pop\n        /* \"#utility.yul\":10614:10616   */\n      0x20\n        /* \"#utility.yul\":10640:10693   */\n      tag_456\n        /* \"#utility.yul\":10685:10692   */\n      dup9\n        /* \"#utility.yul\":10676:10682   */\n      dup3\n        /* \"#utility.yul\":10665:10674   */\n      dup10\n        /* \"#utility.yul\":10661:10683   */\n      add\n        /* \"#utility.yul\":10640:10693   */\n      tag_262\n      jump\t// in\n    tag_456:\n        /* \"#utility.yul\":10630:10693   */\n      swap4\n      pop\n        /* \"#utility.yul\":10585:10703   */\n      pop\n        /* \"#utility.yul\":10742:10744   */\n      0x40\n        /* \"#utility.yul\":10768:10821   */\n      tag_457\n        /* \"#utility.yul\":10813:10820   */\n      dup9\n        /* \"#utility.yul\":10804:10810   */\n      dup3\n        /* \"#utility.yul\":10793:10802   */\n      dup10\n        /* \"#utility.yul\":10789:10811   */\n      add\n        /* \"#utility.yul\":10768:10821   */\n      tag_262\n      jump\t// in\n    tag_457:\n        /* \"#utility.yul\":10758:10821   */\n      swap3\n      pop\n        /* \"#utility.yul\":10713:10831   */\n      pop\n        /* \"#utility.yul\":10870:10872   */\n      0x60\n        /* \"#utility.yul\":10896:10957   */\n      tag_458\n        /* \"#utility.yul\":10949:10956   */\n      dup9\n        /* \"#utility.yul\":10940:10946   */\n      dup3\n        /* \"#utility.yul\":10929:10938   */\n      dup10\n        /* \"#utility.yul\":10925:10947   */\n      add\n        /* \"#utility.yul\":10896:10957   */\n      tag_289\n      jump\t// in\n    tag_458:\n        /* \"#utility.yul\":10886:10957   */\n      swap2\n      pop\n        /* \"#utility.yul\":10841:10967   */\n      pop\n        /* \"#utility.yul\":9995:10974   */\n      swap3\n      swap6\n      pop\n      swap3\n      swap6\n      swap1\n      swap4\n      pop\n      jump\t// out\n        /* \"#utility.yul\":10980:11124   */\n    tag_290:\n        /* \"#utility.yul\":11048:11057   */\n      0x00\n        /* \"#utility.yul\":11081:11118   */\n      tag_460\n        /* \"#utility.yul\":11112:11117   */\n      dup3\n        /* \"#utility.yul\":11081:11118   */\n      tag_271\n      jump\t// in\n    tag_460:\n        /* \"#utility.yul\":11068:11118   */\n      swap1\n      pop\n        /* \"#utility.yul\":10980:11124   */\n      swap2\n      swap1\n      pop\n      jump\t// out\n        /* \"#utility.yul\":11130:11297   */\n    tag_291:\n        /* \"#utility.yul\":11235:11290   */\n      tag_462\n        /* \"#utility.yul\":11284:11289   */\n      dup2\n        /* \"#utility.yul\":11235:11290   */\n      tag_290\n      jump\t// in\n    tag_462:\n        /* \"#utility.yul\":11230:11233   */\n      dup3\n        /* \"#utility.yul\":11223:11291   */\n      mstore\n        /* \"#utility.yul\":11130:11297   */\n      pop\n      pop\n      jump\t// out\n        /* \"#utility.yul\":11303:11561   */\n    tag_100:\n        /* \"#utility.yul\":11414:11418   */\n      0x00\n        /* \"#utility.yul\":11452:11454   */\n      0x20\n        /* \"#utility.yul\":11441:11450   */\n      dup3\n        /* \"#utility.yul\":11437:11455   */\n      add\n        /* \"#utility.yul\":11429:11455   */\n      swap1\n      pop\n        /* \"#utility.yul\":11465:11554   */\n      tag_464\n        /* \"#utility.yul\":11551:11552   */\n      0x00\n        /* \"#utility.yul\":11540:11549   */\n      dup4\n        /* \"#utility.yul\":11536:11553   */\n      add\n        /* \"#utility.yul\":11527:11533   */\n      dup5\n        /* \"#utility.yul\":11465:11554   */\n      tag_291\n      jump\t// in\n    tag_464:\n        /* \"#utility.yul\":11303:11561   */\n      swap3\n      swap2\n      pop\n      pop\n      jump\t// out\n        /* \"#utility.yul\":11567:12239   */\n    tag_103:\n        /* \"#utility.yul\":11646:11652   */\n      0x00\n        /* \"#utility.yul\":11654:11660   */\n      0x00\n        /* \"#utility.yul\":11662:11668   */\n      0x00\n        /* \"#utility.yul\":11711:11713   */\n      0x40\n        /* \"#utility.yul\":11699:11708   */\n      dup5\n        /* \"#utility.yul\":11690:11697   */\n      dup7\n        /* \"#utility.yul\":11686:11709   */\n      sub\n        /* \"#utility.yul\":11682:11714   */\n      slt\n        /* \"#utility.yul\":11679:11798   */\n      iszero\n      tag_466\n      jumpi\n        /* \"#utility.yul\":11717:11796   */\n      tag_467\n      tag_259\n      jump\t// in\n    tag_467:\n        /* \"#utility.yul\":11679:11798   */\n    tag_466:\n        /* \"#utility.yul\":11837:11838   */\n      0x00\n        /* \"#utility.yul\":11862:11915   */\n      tag_468\n        /* \"#utility.yul\":11907:11914   */\n      dup7\n        /* \"#utility.yul\":11898:11904   */\n      dup3\n        /* \"#utility.yul\":11887:11896   */\n      dup8\n        /* \"#utility.yul\":11883:11905   */\n      add\n        /* \"#utility.yul\":11862:11915   */\n      tag_262\n      jump\t// in\n    tag_468:\n        /* \"#utility.yul\":11852:11915   */\n      swap4\n      pop\n        /* \"#utility.yul\":11808:11925   */\n      pop\n        /* \"#utility.yul\":11992:11994   */\n      0x20\n        /* \"#utility.yul\":11981:11990   */\n      dup5\n        /* \"#utility.yul\":11977:11995   */\n      add\n        /* \"#utility.yul\":11964:11996   */\n      calldataload\n        /* \"#utility.yul\":12023:12041   */\n      0xffffffffffffffff\n        /* \"#utility.yul\":12015:12021   */\n      dup2\n        /* \"#utility.yul\":12012:12042   */\n      gt\n        /* \"#utility.yul\":12009:12126   */\n      iszero\n      tag_469\n      jumpi\n        /* \"#utility.yul\":12045:12124   */\n      tag_470\n      tag_260\n      jump\t// in\n    tag_470:\n        /* \"#utility.yul\":12009:12126   */\n    tag_469:\n        /* \"#utility.yul\":12158:12222   */\n      tag_471\n        /* \"#utility.yul\":12214:12221   */\n      dup7\n        /* \"#utility.yul\":12205:12211   */\n      dup3\n        /* \"#utility.yul\":12194:12203   */\n      dup8\n        /* \"#utility.yul\":12190:12212   */\n      add\n        /* \"#utility.yul\":12158:12222   */\n      tag_286\n      jump\t// in\n    tag_471:\n        /* \"#utility.yul\":12140:12222   */\n      swap3\n      pop\n      swap3\n      pop\n        /* \"#utility.yul\":11935:12232   */\n      pop\n        /* \"#utility.yul\":11567:12239   */\n      swap3\n      pop\n      swap3\n      pop\n      swap3\n      jump\t// out\n        /* \"#utility.yul\":12245:12367   */\n    tag_292:\n        /* \"#utility.yul\":12318:12342   */\n      tag_473\n        /* \"#utility.yul\":12336:12341   */\n      dup2\n        /* \"#utility.yul\":12318:12342   */\n      tag_256\n      jump\t// in\n    tag_473:\n        /* \"#utility.yul\":12311:12316   */\n      dup2\n        /* \"#utility.yul\":12308:12343   */\n      eq\n        /* \"#utility.yul\":12298:12361   */\n      tag_474\n      jumpi\n        /* \"#utility.yul\":12357:12358   */\n      0x00\n        /* \"#utility.yul\":12354:12355   */\n      0x00\n        /* \"#utility.yul\":12347:12359   */\n      revert\n        /* \"#utility.yul\":12298:12361   */\n    tag_474:\n        /* \"#utility.yul\":12245:12367   */\n      pop\n      jump\t// out\n        /* \"#utility.yul\":12373:12512   */\n    tag_293:\n        /* \"#utility.yul\":12419:12424   */\n      0x00\n        /* \"#utility.yul\":12457:12463   */\n      dup2\n        /* \"#utility.yul\":12444:12464   */\n      calldataload\n        /* \"#utility.yul\":12435:12464   */\n      swap1\n      pop\n        /* \"#utility.yul\":12473:12506   */\n      tag_476\n        /* \"#utility.yul\":12500:12505   */\n      dup2\n        /* \"#utility.yul\":12473:12506   */\n      tag_292\n      jump\t// in\n    tag_476:\n        /* \"#utility.yul\":12373:12512   */\n      swap3\n      swap2\n      pop\n      pop\n      jump\t// out\n        /* \"#utility.yul\":12518:12847   */\n    tag_113:\n        /* \"#utility.yul\":12577:12583   */\n      0x00\n        /* \"#utility.yul\":12626:12628   */\n      0x20\n        /* \"#utility.yul\":12614:12623   */\n      dup3\n        /* \"#utility.yul\":12605:12612   */\n      dup5\n        /* \"#utility.yul\":12601:12624   */\n      sub\n        /* \"#utility.yul\":12597:12629   */\n      slt\n        /* \"#utility.yul\":12594:12713   */\n      iszero\n      tag_478\n      jumpi\n        /* \"#utility.yul\":12632:12711   */\n      tag_479\n      tag_259\n      jump\t// in\n    tag_479:\n        /* \"#utility.yul\":12594:12713   */\n    tag_478:\n        /* \"#utility.yul\":12752:12753   */\n      0x00\n        /* \"#utility.yul\":12777:12830   */\n      tag_480\n        /* \"#utility.yul\":12822:12829   */\n      dup5\n        /* \"#utility.yul\":12813:12819   */\n      dup3\n        /* \"#utility.yul\":12802:12811   */\n      dup6\n        /* \"#utility.yul\":12798:12820   */\n      add\n        /* \"#utility.yul\":12777:12830   */\n      tag_293\n      jump\t// in\n    tag_480:\n        /* \"#utility.yul\":12767:12830   */\n      swap2\n      pop\n        /* \"#utility.yul\":12723:12840   */\n      pop\n        /* \"#utility.yul\":12518:12847   */\n      swap3\n      swap2\n      pop\n      pop\n      jump\t// out\n        /* \"#utility.yul\":12853:13033   */\n    tag_145:\n        /* \"#utility.yul\":12901:12978   */\n      0x4e487b7100000000000000000000000000000000000000000000000000000000\n        /* \"#utility.yul\":12898:12899   */\n      0x00\n        /* \"#utility.yul\":12891:12979   */\n      mstore\n        /* \"#utility.yul\":12998:13002   */\n      0x41\n        /* \"#utility.yul\":12995:12996   */\n      0x04\n        /* \"#utility.yul\":12988:13003   */\n      mstore\n        /* \"#utility.yul\":13022:13026   */\n      0x24\n        /* \"#utility.yul\":13019:13020   */\n      0x00\n        /* \"#utility.yul\":13012:13027   */\n      revert\n        /* \"#utility.yul\":13039:13219   */\n    tag_152:\n        /* \"#utility.yul\":13087:13164   */\n      0x4e487b7100000000000000000000000000000000000000000000000000000000\n        /* \"#utility.yul\":13084:13085   */\n      0x00\n        /* \"#utility.yul\":13077:13165   */\n      mstore\n        /* \"#utility.yul\":13184:13188   */\n      0x32\n        /* \"#utility.yul\":13181:13182   */\n      0x04\n        /* \"#utility.yul\":13174:13189   */\n      mstore\n        /* \"#utility.yul\":13208:13212   */\n      0x24\n        /* \"#utility.yul\":13205:13206   */\n      0x00\n        /* \"#utility.yul\":13198:13213   */\n      revert\n        /* \"#utility.yul\":13225:13394   */\n    tag_294:\n        /* \"#utility.yul\":13309:13320   */\n      0x00\n        /* \"#utility.yul\":13343:13349   */\n      dup3\n        /* \"#utility.yul\":13338:13341   */\n      dup3\n        /* \"#utility.yul\":13331:13350   */\n      mstore\n        /* \"#utility.yul\":13383:13387   */\n      0x20\n        /* \"#utility.yul\":13378:13381   */\n      dup3\n        /* \"#utility.yul\":13374:13388   */\n      add\n        /* \"#utility.yul\":13359:13388   */\n      swap1\n      pop\n        /* \"#utility.yul\":13225:13394   */\n      swap3\n      swap2\n      pop\n      pop\n      jump\t// out\n        /* \"#utility.yul\":13400:13620   */\n    tag_295:\n        /* \"#utility.yul\":13540:13574   */\n      0x6f6e6c79206f776e65722063616e2063616c6c20746869732066756e6374696f\n        /* \"#utility.yul\":13536:13537   */\n      0x00\n        /* \"#utility.yul\":13528:13534   */\n      dup3\n        /* \"#utility.yul\":13524:13538   */\n      add\n        /* \"#utility.yul\":13517:13575   */\n      mstore\n        /* \"#utility.yul\":13609:13612   */\n      0x6e00000000000000000000000000000000000000000000000000000000000000\n        /* \"#utility.yul\":13604:13606   */\n      0x20\n        /* \"#utility.yul\":13596:13602   */\n      dup3\n        /* \"#utility.yul\":13592:13607   */\n      add\n        /* \"#utility.yul\":13585:13613   */\n      mstore\n        /* \"#utility.yul\":13400:13620   */\n      pop\n      jump\t// out\n        /* \"#utility.yul\":13626:13992   */\n    tag_296:\n        /* \"#utility.yul\":13768:13771   */\n      0x00\n        /* \"#utility.yul\":13789:13856   */\n      tag_486\n        /* \"#utility.yul\":13853:13855   */\n      0x21\n        /* \"#utility.yul\":13848:13851   */\n      dup4\n        /* \"#utility.yul\":13789:13856   */\n      tag_294\n      jump\t// in\n    tag_486:\n        /* \"#utility.yul\":13782:13856   */\n      swap2\n      pop\n        /* \"#utility.yul\":13865:13958   */\n      tag_487\n        /* \"#utility.yul\":13954:13957   */\n      dup3\n        /* \"#utility.yul\":13865:13958   */\n      tag_295\n      jump\t// in\n    tag_487:\n        /* \"#utility.yul\":13983:13985   */\n      0x40\n        /* \"#utility.yul\":13978:13981   */\n      dup3\n        /* \"#utility.yul\":13974:13986   */\n      add\n        /* \"#utility.yul\":13967:13986   */\n      swap1\n      pop\n        /* \"#utility.yul\":13626:13992   */\n      swap2\n      swap1\n      pop\n      jump\t// out\n        /* \"#utility.yul\":13998:14417   */\n    tag_159:\n        /* \"#utility.yul\":14164:14168   */\n      0x00\n        /* \"#utility.yul\":14202:14204   */\n      0x20\n        /* \"#utility.yul\":14191:14200   */\n      dup3\n        /* \"#utility.yul\":14187:14205   */\n      add\n        /* \"#utility.yul\":14179:14205   */\n      swap1\n      pop\n        /* \"#utility.yul\":14251:14260   */\n      dup2\n        /* \"#utility.yul\":14245:14249   */\n      dup2\n        /* \"#utility.yul\":14241:14261   */\n      sub\n        /* \"#utility.yul\":14237:14238   */\n      0x00\n        /* \"#utility.yul\":14226:14235   */\n      dup4\n        /* \"#utility.yul\":14222:14239   */\n      add\n        /* \"#utility.yul\":14215:14262   */\n      mstore\n        /* \"#utility.yul\":14279:14410   */\n      tag_489\n        /* \"#utility.yul\":14405:14409   */\n      dup2\n        /* \"#utility.yul\":14279:14410   */\n      tag_296\n      jump\t// in\n    tag_489:\n        /* \"#utility.yul\":14271:14410   */\n      swap1\n      pop\n        /* \"#utility.yul\":13998:14417   */\n      swap2\n      swap1\n      pop\n      jump\t// out\n        /* \"#utility.yul\":14423:14603   */\n    tag_297:\n        /* \"#utility.yul\":14471:14548   */\n      0x4e487b7100000000000000000000000000000000000000000000000000000000\n        /* \"#utility.yul\":14468:14469   */\n      0x00\n        /* \"#utility.yul\":14461:14549   */\n      mstore\n        /* \"#utility.yul\":14568:14572   */\n      0x22\n        /* \"#utility.yul\":14565:14566   */\n      0x04\n        /* \"#utility.yul\":14558:14573   */\n      mstore\n        /* \"#utility.yul\":14592:14596   */\n      0x24\n        /* \"#utility.yul\":14589:14590   */\n      0x00\n        /* \"#utility.yul\":14582:14597   */\n      revert\n        /* \"#utility.yul\":14609:14929   */\n    tag_162:\n        /* \"#utility.yul\":14653:14659   */\n      0x00\n        /* \"#utility.yul\":14690:14691   */\n      0x02\n        /* \"#utility.yul\":14684:14688   */\n      dup3\n        /* \"#utility.yul\":14680:14692   */\n      div\n        /* \"#utility.yul\":14670:14692   */\n      swap1\n      pop\n        /* \"#utility.yul\":14737:14738   */\n      0x01\n        /* \"#utility.yul\":14731:14735   */\n      dup3\n        /* \"#utility.yul\":14727:14739   */\n      and\n        /* \"#utility.yul\":14758:14776   */\n      dup1\n        /* \"#utility.yul\":14748:14829   */\n      tag_492\n      jumpi\n        /* \"#utility.yul\":14814:14818   */\n      0x7f\n        /* \"#utility.yul\":14806:14812   */\n      dup3\n        /* \"#utility.yul\":14802:14819   */\n      and\n        /* \"#utility.yul\":14792:14819   */\n      swap2\n      pop\n        /* \"#utility.yul\":14748:14829   */\n    tag_492:\n        /* \"#utility.yul\":14876:14878   */\n      0x20\n        /* \"#utility.yul\":14868:14874   */\n      dup3\n        /* \"#utility.yul\":14865:14879   */\n      lt\n        /* \"#utility.yul\":14845:14863   */\n      dup2\n        /* \"#utility.yul\":14842:14880   */\n      sub\n        /* \"#utility.yul\":14839:14923   */\n      tag_493\n      jumpi\n        /* \"#utility.yul\":14895:14913   */\n      tag_494\n      tag_297\n      jump\t// in\n    tag_494:\n        /* \"#utility.yul\":14839:14923   */\n    tag_493:\n        /* \"#utility.yul\":14660:14929   */\n      pop\n        /* \"#utility.yul\":14609:14929   */\n      swap2\n      swap1\n      pop\n      jump\t// out\n        /* \"#utility.yul\":14935:15111   */\n    tag_298:\n        /* \"#utility.yul\":15075:15103   */\n      0x7468697320616464726573732069732073616e6374696f6e6564000000000000\n        /* \"#utility.yul\":15071:15072   */\n      0x00\n        /* \"#utility.yul\":15063:15069   */\n      dup3\n        /* \"#utility.yul\":15059:15073   */\n      add\n        /* \"#utility.yul\":15052:15104   */\n      mstore\n        /* \"#utility.yul\":14935:15111   */\n      pop\n      jump\t// out\n        /* \"#utility.yul\":15117:15483   */\n    tag_299:\n        /* \"#utility.yul\":15259:15262   */\n      0x00\n        /* \"#utility.yul\":15280:15347   */\n      tag_497\n        /* \"#utility.yul\":15344:15346   */\n      0x1a\n        /* \"#utility.yul\":15339:15342   */\n      dup4\n        /* \"#utility.yul\":15280:15347   */\n      tag_294\n      jump\t// in\n    tag_497:\n        /* \"#utility.yul\":15273:15347   */\n      swap2\n      pop\n        /* \"#utility.yul\":15356:15449   */\n      tag_498\n        /* \"#utility.yul\":15445:15448   */\n      dup3\n        /* \"#utility.yul\":15356:15449   */\n      tag_298\n      jump\t// in\n    tag_498:\n        /* \"#utility.yul\":15474:15476   */\n      0x20\n        /* \"#utility.yul\":15469:15472   */\n      dup3\n        /* \"#utility.yul\":15465:15477   */\n      add\n        /* \"#utility.yul\":15458:15477   */\n      swap1\n      pop\n        /* \"#utility.yul\":15117:15483   */\n      swap2\n      swap1\n      pop\n      jump\t// out\n        /* \"#utility.yul\":15489:15908   */\n    tag_175:\n        /* \"#utility.yul\":15655:15659   */\n      0x00\n        /* \"#utility.yul\":15693:15695   */\n      0x20\n        /* \"#utility.yul\":15682:15691   */\n      dup3\n        /* \"#utility.yul\":15678:15696   */\n      add\n        /* \"#utility.yul\":15670:15696   */\n      swap1\n      pop\n        /* \"#utility.yul\":15742:15751   */\n      dup2\n        /* \"#utility.yul\":15736:15740   */\n      dup2\n        /* \"#utility.yul\":15732:15752   */\n      sub\n        /* \"#utility.yul\":15728:15729   */\n      0x00\n        /* \"#utility.yul\":15717:15726   */\n      dup4\n        /* \"#utility.yul\":15713:15730   */\n      add\n        /* \"#utility.yul\":15706:15753   */\n      mstore\n        /* \"#utility.yul\":15770:15901   */\n      tag_500\n        /* \"#utility.yul\":15896:15900   */\n      dup2\n        /* \"#utility.yul\":15770:15901   */\n      tag_299\n      jump\t// in\n    tag_500:\n        /* \"#utility.yul\":15762:15901   */\n      swap1\n      pop\n        /* \"#utility.yul\":15489:15908   */\n      swap2\n      swap1\n      pop\n      jump\t// out\n        /* \"#utility.yul\":15914:16062   */\n    tag_300:\n        /* \"#utility.yul\":16012:16018   */\n      dup3\n        /* \"#utility.yul\":16007:16010   */\n      dup2\n        /* \"#utility.yul\":16002:16005   */\n      dup4\n        /* \"#utility.yul\":15989:16019   */\n      calldatacopy\n        /* \"#utility.yul\":16053:16054   */\n      0x00\n        /* \"#utility.yul\":16044:16050   */\n      dup4\n        /* \"#utility.yul\":16039:16042   */\n      dup4\n        /* \"#utility.yul\":16035:16051   */\n      add\n        /* \"#utility.yul\":16028:16055   */\n      mstore\n        /* \"#utility.yul\":15914:16062   */\n      pop\n      pop\n      pop\n      jump\t// out\n        /* \"#utility.yul\":16090:16404   */\n    tag_301:\n        /* \"#utility.yul\":16186:16189   */\n      0x00\n        /* \"#utility.yul\":16207:16277   */\n      tag_503\n        /* \"#utility.yul\":16270:16276   */\n      dup4\n        /* \"#utility.yul\":16265:16268   */\n      dup6\n        /* \"#utility.yul\":16207:16277   */\n      tag_275\n      jump\t// in\n    tag_503:\n        /* \"#utility.yul\":16200:16277   */\n      swap4\n      pop\n        /* \"#utility.yul\":16287:16343   */\n      tag_504\n        /* \"#utility.yul\":16336:16342   */\n      dup4\n        /* \"#utility.yul\":16331:16334   */\n      dup6\n        /* \"#utility.yul\":16324:16329   */\n      dup5\n        /* \"#utility.yul\":16287:16343   */\n      tag_300\n      jump\t// in\n    tag_504:\n        /* \"#utility.yul\":16368:16397   */\n      tag_505\n        /* \"#utility.yul\":16390:16396   */\n      dup4\n        /* \"#utility.yul\":16368:16397   */\n      tag_277\n      jump\t// in\n    tag_505:\n        /* \"#utility.yul\":16363:16366   */\n      dup5\n        /* \"#utility.yul\":16359:16398   */\n      add\n        /* \"#utility.yul\":16352:16398   */\n      swap1\n      pop\n        /* \"#utility.yul\":16090:16404   */\n      swap4\n      swap3\n      pop\n      pop\n      pop\n      jump\t// out\n        /* \"#utility.yul\":16410:17000   */\n    tag_186:\n        /* \"#utility.yul\":16609:16613   */\n      0x00\n        /* \"#utility.yul\":16647:16649   */\n      0x40\n        /* \"#utility.yul\":16636:16645   */\n      dup3\n        /* \"#utility.yul\":16632:16650   */\n      add\n        /* \"#utility.yul\":16624:16650   */\n      swap1\n      pop\n        /* \"#utility.yul\":16696:16705   */\n      dup2\n        /* \"#utility.yul\":16690:16694   */\n      dup2\n        /* \"#utility.yul\":16686:16706   */\n      sub\n        /* \"#utility.yul\":16682:16683   */\n      0x00\n        /* \"#utility.yul\":16671:16680   */\n      dup4\n        /* \"#utility.yul\":16667:16684   */\n      add\n        /* \"#utility.yul\":16660:16707   */\n      mstore\n        /* \"#utility.yul\":16724:16810   */\n      tag_507\n        /* \"#utility.yul\":16805:16809   */\n      dup2\n        /* \"#utility.yul\":16796:16802   */\n      dup6\n        /* \"#utility.yul\":16788:16794   */\n      dup8\n        /* \"#utility.yul\":16724:16810   */\n      tag_301\n      jump\t// in\n    tag_507:\n        /* \"#utility.yul\":16716:16810   */\n      swap1\n      pop\n        /* \"#utility.yul\":16857:16866   */\n      dup2\n        /* \"#utility.yul\":16851:16855   */\n      dup2\n        /* \"#utility.yul\":16847:16867   */\n      sub\n        /* \"#utility.yul\":16842:16844   */\n      0x20\n        /* \"#utility.yul\":16831:16840   */\n      dup4\n        /* \"#utility.yul\":16827:16845   */\n      add\n        /* \"#utility.yul\":16820:16868   */\n      mstore\n        /* \"#utility.yul\":16885:16993   */\n      tag_508\n        /* \"#utility.yul\":16988:16992   */\n      dup2\n        /* \"#utility.yul\":16979:16985   */\n      dup5\n        /* \"#utility.yul\":16885:16993   */\n      tag_253\n      jump\t// in\n    tag_508:\n        /* \"#utility.yul\":16877:16993   */\n      swap1\n      pop\n        /* \"#utility.yul\":16410:17000   */\n      swap5\n      swap4\n      pop\n      pop\n      pop\n      pop\n      jump\t// out\n        /* \"#utility.yul\":17006:17122   */\n    tag_302:\n        /* \"#utility.yul\":17076:17097   */\n      tag_510\n        /* \"#utility.yul\":17091:17096   */\n      dup2\n        /* \"#utility.yul\":17076:17097   */\n      tag_263\n      jump\t// in\n    tag_510:\n        /* \"#utility.yul\":17069:17074   */\n      dup2\n        /* \"#utility.yul\":17066:17098   */\n      eq\n        /* \"#utility.yul\":17056:17116   */\n      tag_511\n      jumpi\n        /* \"#utility.yul\":17112:17113   */\n      0x00\n        /* \"#utility.yul\":17109:17110   */\n      0x00\n        /* \"#utility.yul\":17102:17114   */\n      revert\n        /* \"#utility.yul\":17056:17116   */\n    tag_511:\n        /* \"#utility.yul\":17006:17122   */\n      pop\n      jump\t// out\n        /* \"#utility.yul\":17128:17265   */\n    tag_303:\n        /* \"#utility.yul\":17182:17187   */\n      0x00\n        /* \"#utility.yul\":17213:17219   */\n      dup2\n        /* \"#utility.yul\":17207:17220   */\n      mload\n        /* \"#utility.yul\":17198:17220   */\n      swap1\n      pop\n        /* \"#utility.yul\":17229:17259   */\n      tag_513\n        /* \"#utility.yul\":17253:17258   */\n      dup2\n        /* \"#utility.yul\":17229:17259   */\n      tag_302\n      jump\t// in\n    tag_513:\n        /* \"#utility.yul\":17128:17265   */\n      swap3\n      swap2\n      pop\n      pop\n      jump\t// out\n        /* \"#utility.yul\":17271:17616   */\n    tag_190:\n        /* \"#utility.yul\":17338:17344   */\n      0x00\n        /* \"#utility.yul\":17387:17389   */\n      0x20\n        /* \"#utility.yul\":17375:17384   */\n      dup3\n        /* \"#utility.yul\":17366:17373   */\n      dup5\n        /* \"#utility.yul\":17362:17385   */\n      sub\n        /* \"#utility.yul\":17358:17390   */\n      slt\n        /* \"#utility.yul\":17355:17474   */\n      iszero\n      tag_515\n      jumpi\n        /* \"#utility.yul\":17393:17472   */\n      tag_516\n      tag_259\n      jump\t// in\n    tag_516:\n        /* \"#utility.yul\":17355:17474   */\n    tag_515:\n        /* \"#utility.yul\":17513:17514   */\n      0x00\n        /* \"#utility.yul\":17538:17599   */\n      tag_517\n        /* \"#utility.yul\":17591:17598   */\n      dup5\n        /* \"#utility.yul\":17582:17588   */\n      dup3\n        /* \"#utility.yul\":17571:17580   */\n      dup6\n        /* \"#utility.yul\":17567:17589   */\n      add\n        /* \"#utility.yul\":17538:17599   */\n      tag_303\n      jump\t// in\n    tag_517:\n        /* \"#utility.yul\":17528:17599   */\n      swap2\n      pop\n        /* \"#utility.yul\":17484:17609   */\n      pop\n        /* \"#utility.yul\":17271:17616   */\n      swap3\n      swap2\n      pop\n      pop\n      jump\t// out\n        /* \"#utility.yul\":17622:17769   */\n    tag_304:\n        /* \"#utility.yul\":17723:17734   */\n      0x00\n        /* \"#utility.yul\":17760:17763   */\n      dup2\n        /* \"#utility.yul\":17745:17763   */\n      swap1\n      pop\n        /* \"#utility.yul\":17622:17769   */\n      swap3\n      swap2\n      pop\n      pop\n      jump\t// out\n        /* \"#utility.yul\":17775:17889   */\n    tag_305:\n      pop\n      jump\t// out\n        /* \"#utility.yul\":17895:18293   */\n    tag_306:\n        /* \"#utility.yul\":18054:18057   */\n      0x00\n        /* \"#utility.yul\":18075:18158   */\n      tag_521\n        /* \"#utility.yul\":18156:18157   */\n      0x00\n        /* \"#utility.yul\":18151:18154   */\n      dup4\n        /* \"#utility.yul\":18075:18158   */\n      tag_304\n      jump\t// in\n    tag_521:\n        /* \"#utility.yul\":18068:18158   */\n      swap2\n      pop\n        /* \"#utility.yul\":18167:18260   */\n      tag_522\n        /* \"#utility.yul\":18256:18259   */\n      dup3\n        /* \"#utility.yul\":18167:18260   */\n      tag_305\n      jump\t// in\n    tag_522:\n        /* \"#utility.yul\":18285:18286   */\n      0x00\n        /* \"#utility.yul\":18280:18283   */\n      dup3\n        /* \"#utility.yul\":18276:18287   */\n      add\n        /* \"#utility.yul\":18269:18287   */\n      swap1\n      pop\n        /* \"#utility.yul\":17895:18293   */\n      swap2\n      swap1\n      pop\n      jump\t// out\n        /* \"#utility.yul\":18299:18678   */\n    tag_193:\n        /* \"#utility.yul\":18483:18486   */\n      0x00\n        /* \"#utility.yul\":18505:18652   */\n      tag_524\n        /* \"#utility.yul\":18648:18651   */\n      dup3\n        /* \"#utility.yul\":18505:18652   */\n      tag_306\n      jump\t// in\n    tag_524:\n        /* \"#utility.yul\":18498:18652   */\n      swap2\n      pop\n        /* \"#utility.yul\":18669:18672   */\n      dup2\n        /* \"#utility.yul\":18662:18672   */\n      swap1\n      pop\n        /* \"#utility.yul\":18299:18678   */\n      swap2\n      swap1\n      pop\n      jump\t// out\n        /* \"#utility.yul\":18684:18853   */\n    tag_307:\n        /* \"#utility.yul\":18824:18845   */\n      0x4d4e54207472616e73666572206661696c656400000000000000000000000000\n        /* \"#utility.yul\":18820:18821   */\n      0x00\n        /* \"#utility.yul\":18812:18818   */\n      dup3\n        /* \"#utility.yul\":18808:18822   */\n      add\n        /* \"#utility.yul\":18801:18846   */\n      mstore\n        /* \"#utility.yul\":18684:18853   */\n      pop\n      jump\t// out\n        /* \"#utility.yul\":18859:19225   */\n    tag_308:\n        /* \"#utility.yul\":19001:19004   */\n      0x00\n        /* \"#utility.yul\":19022:19089   */\n      tag_527\n        /* \"#utility.yul\":19086:19088   */\n      0x13\n        /* \"#utility.yul\":19081:19084   */\n      dup4\n        /* \"#utility.yul\":19022:19089   */\n      tag_294\n      jump\t// in\n    tag_527:\n        /* \"#utility.yul\":19015:19089   */\n      swap2\n      pop\n        /* \"#utility.yul\":19098:19191   */\n      tag_528\n        /* \"#utility.yul\":19187:19190   */\n      dup3\n        /* \"#utility.yul\":19098:19191   */\n      tag_307\n      jump\t// in\n    tag_528:\n        /* \"#utility.yul\":19216:19218   */\n      0x20\n        /* \"#utility.yul\":19211:19214   */\n      dup3\n        /* \"#utility.yul\":19207:19219   */\n      add\n        /* \"#utility.yul\":19200:19219   */\n      swap1\n      pop\n        /* \"#utility.yul\":18859:19225   */\n      swap2\n      swap1\n      pop\n      jump\t// out\n        /* \"#utility.yul\":19231:19650   */\n    tag_199:\n        /* \"#utility.yul\":19397:19401   */\n      0x00\n        /* \"#utility.yul\":19435:19437   */\n      0x20\n        /* \"#utility.yul\":19424:19433   */\n      dup3\n        /* \"#utility.yul\":19420:19438   */\n      add\n        /* \"#utility.yul\":19412:19438   */\n      swap1\n      pop\n        /* \"#utility.yul\":19484:19493   */\n      dup2\n        /* \"#utility.yul\":19478:19482   */\n      dup2\n        /* \"#utility.yul\":19474:19494   */\n      sub\n        /* \"#utility.yul\":19470:19471   */\n      0x00\n        /* \"#utility.yul\":19459:19468   */\n      dup4\n        /* \"#utility.yul\":19455:19472   */\n      add\n        /* \"#utility.yul\":19448:19495   */\n      mstore\n        /* \"#utility.yul\":19512:19643   */\n      tag_530\n        /* \"#utility.yul\":19638:19642   */\n      dup2\n        /* \"#utility.yul\":19512:19643   */\n      tag_308\n      jump\t// in\n    tag_530:\n        /* \"#utility.yul\":19504:19643   */\n      swap1\n      pop\n        /* \"#utility.yul\":19231:19650   */\n      swap2\n      swap1\n      pop\n      jump\t// out\n        /* \"#utility.yul\":19656:19836   */\n    tag_309:\n        /* \"#utility.yul\":19704:19781   */\n      0x4e487b7100000000000000000000000000000000000000000000000000000000\n        /* \"#utility.yul\":19701:19702   */\n      0x00\n        /* \"#utility.yul\":19694:19782   */\n      mstore\n        /* \"#utility.yul\":19801:19805   */\n      0x11\n        /* \"#utility.yul\":19798:19799   */\n      0x04\n        /* \"#utility.yul\":19791:19806   */\n      mstore\n        /* \"#utility.yul\":19825:19829   */\n      0x24\n        /* \"#utility.yul\":19822:19823   */\n      0x00\n        /* \"#utility.yul\":19815:19830   */\n      revert\n        /* \"#utility.yul\":19842:20017   */\n    tag_207:\n        /* \"#utility.yul\":19880:19883   */\n      0x00\n        /* \"#utility.yul\":19903:19926   */\n      tag_533\n        /* \"#utility.yul\":19920:19925   */\n      dup3\n        /* \"#utility.yul\":19903:19926   */\n      tag_254\n      jump\t// in\n    tag_533:\n        /* \"#utility.yul\":19894:19926   */\n      swap2\n      pop\n        /* \"#utility.yul\":19948:19958   */\n      0xffffffff\n        /* \"#utility.yul\":19941:19946   */\n      dup3\n        /* \"#utility.yul\":19938:19959   */\n      sub\n        /* \"#utility.yul\":19935:19982   */\n      tag_534\n      jumpi\n        /* \"#utility.yul\":19962:19980   */\n      tag_535\n      tag_309\n      jump\t// in\n    tag_535:\n        /* \"#utility.yul\":19935:19982   */\n    tag_534:\n        /* \"#utility.yul\":20009:20010   */\n      0x01\n        /* \"#utility.yul\":20002:20007   */\n      dup3\n        /* \"#utility.yul\":19998:20011   */\n      add\n        /* \"#utility.yul\":19991:20011   */\n      swap1\n      pop\n        /* \"#utility.yul\":19842:20017   */\n      swap2\n      swap1\n      pop\n      jump\t// out\n        /* \"#utility.yul\":20023:20127   */\n    tag_310:\n        /* \"#utility.yul\":20088:20094   */\n      0x00\n        /* \"#utility.yul\":20116:20120   */\n      0x02\n        /* \"#utility.yul\":20106:20120   */\n      swap1\n      pop\n        /* \"#utility.yul\":20023:20127   */\n      swap2\n      swap1\n      pop\n      jump\t// out\n        /* \"#utility.yul\":20133:20276   */\n    tag_311:\n        /* \"#utility.yul\":20230:20241   */\n      0x00\n        /* \"#utility.yul\":20267:20270   */\n      dup2\n        /* \"#utility.yul\":20252:20270   */\n      swap1\n      pop\n        /* \"#utility.yul\":20133:20276   */\n      swap3\n      swap2\n      pop\n      pop\n      jump\t// out\n        /* \"#utility.yul\":20282:20380   */\n    tag_312:\n        /* \"#utility.yul\":20347:20351   */\n      0x00\n        /* \"#utility.yul\":20370:20373   */\n      dup2\n        /* \"#utility.yul\":20362:20373   */\n      swap1\n      pop\n        /* \"#utility.yul\":20282:20380   */\n      swap2\n      swap1\n      pop\n      jump\t// out\n        /* \"#utility.yul\":20386:20494   */\n    tag_313:\n        /* \"#utility.yul\":20463:20487   */\n      tag_540\n        /* \"#utility.yul\":20481:20486   */\n      dup2\n        /* \"#utility.yul\":20463:20487   */\n      tag_256\n      jump\t// in\n    tag_540:\n        /* \"#utility.yul\":20458:20461   */\n      dup3\n        /* \"#utility.yul\":20451:20488   */\n      mstore\n        /* \"#utility.yul\":20386:20494   */\n      pop\n      pop\n      jump\t// out\n        /* \"#utility.yul\":20500:20679   */\n    tag_314:\n        /* \"#utility.yul\":20569:20579   */\n      0x00\n        /* \"#utility.yul\":20590:20636   */\n      tag_542\n        /* \"#utility.yul\":20632:20635   */\n      dup4\n        /* \"#utility.yul\":20624:20630   */\n      dup4\n        /* \"#utility.yul\":20590:20636   */\n      tag_313\n      jump\t// in\n    tag_542:\n        /* \"#utility.yul\":20668:20672   */\n      0x20\n        /* \"#utility.yul\":20663:20666   */\n      dup4\n        /* \"#utility.yul\":20659:20673   */\n      add\n        /* \"#utility.yul\":20645:20673   */\n      swap1\n      pop\n        /* \"#utility.yul\":20500:20679   */\n      swap3\n      swap2\n      pop\n      pop\n      jump\t// out\n        /* \"#utility.yul\":20685:20796   */\n    tag_315:\n        /* \"#utility.yul\":20753:20757   */\n      0x00\n        /* \"#utility.yul\":20785:20789   */\n      0x20\n        /* \"#utility.yul\":20780:20783   */\n      dup3\n        /* \"#utility.yul\":20776:20790   */\n      add\n        /* \"#utility.yul\":20768:20790   */\n      swap1\n      pop\n        /* \"#utility.yul\":20685:20796   */\n      swap2\n      swap1\n      pop\n      jump\t// out\n        /* \"#utility.yul\":20834:21528   */\n    tag_316:\n        /* \"#utility.yul\":20970:21022   */\n      tag_545\n        /* \"#utility.yul\":21016:21021   */\n      dup2\n        /* \"#utility.yul\":20970:21022   */\n      tag_310\n      jump\t// in\n    tag_545:\n        /* \"#utility.yul\":21038:21122   */\n      tag_546\n        /* \"#utility.yul\":21115:21121   */\n      dup2\n        /* \"#utility.yul\":21110:21113   */\n      dup5\n        /* \"#utility.yul\":21038:21122   */\n      tag_311\n      jump\t// in\n    tag_546:\n        /* \"#utility.yul\":21031:21122   */\n      swap3\n      pop\n        /* \"#utility.yul\":21146:21200   */\n      tag_547\n        /* \"#utility.yul\":21194:21199   */\n      dup3\n        /* \"#utility.yul\":21146:21200   */\n      tag_312\n      jump\t// in\n    tag_547:\n        /* \"#utility.yul\":21223:21230   */\n      dup1\n        /* \"#utility.yul\":21254:21255   */\n      0x00\n        /* \"#utility.yul\":21239:21521   */\n    tag_548:\n        /* \"#utility.yul\":21264:21270   */\n      dup4\n        /* \"#utility.yul\":21261:21262   */\n      dup2\n        /* \"#utility.yul\":21258:21271   */\n      lt\n        /* \"#utility.yul\":21239:21521   */\n      iszero\n      tag_550\n      jumpi\n        /* \"#utility.yul\":21340:21346   */\n      dup2\n        /* \"#utility.yul\":21334:21347   */\n      mload\n        /* \"#utility.yul\":21367:21430   */\n      tag_551\n        /* \"#utility.yul\":21426:21429   */\n      dup8\n        /* \"#utility.yul\":21411:21424   */\n      dup3\n        /* \"#utility.yul\":21367:21430   */\n      tag_314\n      jump\t// in\n    tag_551:\n        /* \"#utility.yul\":21360:21430   */\n      swap7\n      pop\n        /* \"#utility.yul\":21453:21511   */\n      tag_552\n        /* \"#utility.yul\":21504:21510   */\n      dup4\n        /* \"#utility.yul\":21453:21511   */\n      tag_315\n      jump\t// in\n    tag_552:\n        /* \"#utility.yul\":21443:21511   */\n      swap3\n      pop\n        /* \"#utility.yul\":21299:21521   */\n      pop\n        /* \"#utility.yul\":21286:21287   */\n      0x01\n        /* \"#utility.yul\":21283:21284   */\n      dup2\n        /* \"#utility.yul\":21279:21288   */\n      add\n        /* \"#utility.yul\":21274:21288   */\n      swap1\n      pop\n        /* \"#utility.yul\":21239:21521   */\n      jump(tag_548)\n    tag_550:\n        /* \"#utility.yul\":21243:21257   */\n      pop\n        /* \"#utility.yul\":20946:21528   */\n      pop\n      pop\n      pop\n        /* \"#utility.yul\":20834:21528   */\n      pop\n      pop\n      jump\t// out\n        /* \"#utility.yul\":21534:21848   */\n    tag_219:\n        /* \"#utility.yul\":21673:21677   */\n      0x00\n        /* \"#utility.yul\":21711:21713   */\n      0x40\n        /* \"#utility.yul\":21700:21709   */\n      dup3\n        /* \"#utility.yul\":21696:21714   */\n      add\n        /* \"#utility.yul\":21688:21714   */\n      swap1\n      pop\n        /* \"#utility.yul\":21724:21841   */\n      tag_554\n        /* \"#utility.yul\":21838:21839   */\n      0x00\n        /* \"#utility.yul\":21827:21836   */\n      dup4\n        /* \"#utility.yul\":21823:21840   */\n      add\n        /* \"#utility.yul\":21814:21820   */\n      dup5\n        /* \"#utility.yul\":21724:21841   */\n      tag_316\n      jump\t// in\n    tag_554:\n        /* \"#utility.yul\":21534:21848   */\n      swap3\n      swap2\n      pop\n      pop\n      jump\t// out\n        /* \"#utility.yul\":21854:21997   */\n    tag_317:\n        /* \"#utility.yul\":21911:21916   */\n      0x00\n        /* \"#utility.yul\":21942:21948   */\n      dup2\n        /* \"#utility.yul\":21936:21949   */\n      mload\n        /* \"#utility.yul\":21927:21949   */\n      swap1\n      pop\n        /* \"#utility.yul\":21958:21991   */\n      tag_556\n        /* \"#utility.yul\":21985:21990   */\n      dup2\n        /* \"#utility.yul\":21958:21991   */\n      tag_292\n      jump\t// in\n    tag_556:\n        /* \"#utility.yul\":21854:21997   */\n      swap3\n      swap2\n      pop\n      pop\n      jump\t// out\n        /* \"#utility.yul\":22003:22354   */\n    tag_223:\n        /* \"#utility.yul\":22073:22079   */\n      0x00\n        /* \"#utility.yul\":22122:22124   */\n      0x20\n        /* \"#utility.yul\":22110:22119   */\n      dup3\n        /* \"#utility.yul\":22101:22108   */\n      dup5\n        /* \"#utility.yul\":22097:22120   */\n      sub\n        /* \"#utility.yul\":22093:22125   */\n      slt\n        /* \"#utility.yul\":22090:22209   */\n      iszero\n      tag_558\n      jumpi\n        /* \"#utility.yul\":22128:22207   */\n      tag_559\n      tag_259\n      jump\t// in\n    tag_559:\n        /* \"#utility.yul\":22090:22209   */\n    tag_558:\n        /* \"#utility.yul\":22248:22249   */\n      0x00\n        /* \"#utility.yul\":22273:22337   */\n      tag_560\n        /* \"#utility.yul\":22329:22336   */\n      dup5\n        /* \"#utility.yul\":22320:22326   */\n      dup3\n        /* \"#utility.yul\":22309:22318   */\n      dup6\n        /* \"#utility.yul\":22305:22327   */\n      add\n        /* \"#utility.yul\":22273:22337   */\n      tag_317\n      jump\t// in\n    tag_560:\n        /* \"#utility.yul\":22263:22337   */\n      swap2\n      pop\n        /* \"#utility.yul\":22219:22347   */\n      pop\n        /* \"#utility.yul\":22003:22354   */\n      swap3\n      swap2\n      pop\n      pop\n      jump\t// out\n        /* \"#utility.yul\":22360:22500   */\n    tag_318:\n        /* \"#utility.yul\":22408:22412   */\n      0x00\n        /* \"#utility.yul\":22431:22434   */\n      dup2\n        /* \"#utility.yul\":22423:22434   */\n      swap1\n      pop\n        /* \"#utility.yul\":22454:22457   */\n      dup2\n        /* \"#utility.yul\":22451:22452   */\n      0x00\n        /* \"#utility.yul\":22444:22458   */\n      mstore\n        /* \"#utility.yul\":22488:22492   */\n      0x20\n        /* \"#utility.yul\":22485:22486   */\n      0x00\n        /* \"#utility.yul\":22475:22493   */\n      keccak256\n        /* \"#utility.yul\":22467:22493   */\n      swap1\n      pop\n        /* \"#utility.yul\":22360:22500   */\n      swap2\n      swap1\n      pop\n      jump\t// out\n        /* \"#utility.yul\":22506:22599   */\n    tag_319:\n        /* \"#utility.yul\":22543:22549   */\n      0x00\n        /* \"#utility.yul\":22590:22592   */\n      0x20\n        /* \"#utility.yul\":22585:22587   */\n      0x1f\n        /* \"#utility.yul\":22578:22583   */\n      dup4\n        /* \"#utility.yul\":22574:22588   */\n      add\n        /* \"#utility.yul\":22570:22593   */\n      div\n        /* \"#utility.yul\":22560:22593   */\n      swap1\n      pop\n        /* \"#utility.yul\":22506:22599   */\n      swap2\n      swap1\n      pop\n      jump\t// out\n        /* \"#utility.yul\":22605:22712   */\n    tag_320:\n        /* \"#utility.yul\":22649:22657   */\n      0x00\n        /* \"#utility.yul\":22699:22704   */\n      dup3\n        /* \"#utility.yul\":22693:22697   */\n      dup3\n        /* \"#utility.yul\":22689:22705   */\n      shl\n        /* \"#utility.yul\":22668:22705   */\n      swap1\n      pop\n        /* \"#utility.yul\":22605:22712   */\n      swap3\n      swap2\n      pop\n      pop\n      jump\t// out\n        /* \"#utility.yul\":22718:23111   */\n    tag_321:\n        /* \"#utility.yul\":22787:22793   */\n      0x00\n        /* \"#utility.yul\":22837:22838   */\n      0x08\n        /* \"#utility.yul\":22825:22835   */\n      dup4\n        /* \"#utility.yul\":22821:22839   */\n      mul\n        /* \"#utility.yul\":22860:22957   */\n      tag_565\n        /* \"#utility.yul\":22890:22956   */\n      0xffffffffffffffffffffffffffffffffffffffffffffffffffffffffffffffff\n        /* \"#utility.yul\":22879:22888   */\n      dup3\n        /* \"#utility.yul\":22860:22957   */\n      tag_320\n      jump\t// in\n    tag_565:\n        /* \"#utility.yul\":22978:23017   */\n      tag_566\n        /* \"#utility.yul\":23008:23016   */\n      dup7\n        /* \"#utility.yul\":22997:23006   */\n      dup4\n        /* \"#utility.yul\":22978:23017   */\n      tag_320\n      jump\t// in\n    tag_566:\n        /* \"#utility.yul\":22966:23017   */\n      swap6\n      pop\n        /* \"#utility.yul\":23050:23054   */\n      dup1\n        /* \"#utility.yul\":23046:23055   */\n      not\n        /* \"#utility.yul\":23039:23044   */\n      dup5\n        /* \"#utility.yul\":23035:23056   */\n      and\n        /* \"#utility.yul\":23026:23056   */\n      swap4\n      pop\n        /* \"#utility.yul\":23099:23103   */\n      dup1\n        /* \"#utility.yul\":23089:23097   */\n      dup7\n        /* \"#utility.yul\":23085:23104   */\n      and\n        /* \"#utility.yul\":23078:23083   */\n      dup5\n        /* \"#utility.yul\":23075:23105   */\n      or\n        /* \"#utility.yul\":23065:23105   */\n      swap3\n      pop\n        /* \"#utility.yul\":22794:23111   */\n      pop\n      pop\n        /* \"#utility.yul\":22718:23111   */\n      swap4\n      swap3\n      pop\n      pop\n      pop\n      jump\t// out\n        /* \"#utility.yul\":23117:23259   */\n    tag_322:\n        /* \"#utility.yul\":23167:23176   */\n      0x00\n        /* \"#utility.yul\":23200:23253   */\n      tag_568\n        /* \"#utility.yul\":23218:23252   */\n      tag_569\n        /* \"#utility.yul\":23227:23251   */\n      tag_570\n        /* \"#utility.yul\":23245:23250   */\n      dup5\n        /* \"#utility.yul\":23227:23251   */\n      tag_256\n      jump\t// in\n    tag_570:\n        /* \"#utility.yul\":23218:23252   */\n      tag_269\n      jump\t// in\n    tag_569:\n        /* \"#utility.yul\":23200:23253   */\n      tag_256\n      jump\t// in\n    tag_568:\n        /* \"#utility.yul\":23187:23253   */\n      swap1\n      pop\n        /* \"#utility.yul\":23117:23259   */\n      swap2\n      swap1\n      pop\n      jump\t// out\n        /* \"#utility.yul\":23265:23340   */\n    tag_323:\n        /* \"#utility.yul\":23308:23311   */\n      0x00\n        /* \"#utility.yul\":23329:23334   */\n      dup2\n        /* \"#utility.yul\":23322:23334   */\n      swap1\n      pop\n        /* \"#utility.yul\":23265:23340   */\n      swap2\n      swap1\n      pop\n      jump\t// out\n        /* \"#utility.yul\":23346:23615   */\n    tag_324:\n        /* \"#utility.yul\":23456:23495   */\n      tag_573\n        /* \"#utility.yul\":23487:23494   */\n      dup4\n        /* \"#utility.yul\":23456:23495   */\n      tag_322\n      jump\t// in\n    tag_573:\n        /* \"#utility.yul\":23517:23608   */\n      tag_574\n        /* \"#utility.yul\":23566:23607   */\n      tag_575\n        /* \"#utility.yul\":23590:23606   */\n      dup3\n        /* \"#utility.yul\":23566:23607   */\n      tag_323\n      jump\t// in\n    tag_575:\n        /* \"#utility.yul\":23558:23564   */\n      dup5\n        /* \"#utility.yul\":23551:23555   */\n      dup5\n        /* \"#utility.yul\":23545:23556   */\n      sload\n        /* \"#utility.yul\":23517:23608   */\n      tag_321\n      jump\t// in\n    tag_574:\n        /* \"#utility.yul\":23511:23515   */\n      dup3\n        /* \"#utility.yul\":23504:23609   */\n      sstore\n        /* \"#utility.yul\":23422:23615   */\n      pop\n        /* \"#utility.yul\":23346:23615   */\n      pop\n      pop\n      pop\n      jump\t// out\n        /* \"#utility.yul\":23621:23694   */\n    tag_325:\n        /* \"#utility.yul\":23666:23669   */\n      0x00\n        /* \"#utility.yul\":23687:23688   */\n      0x00\n        /* \"#utility.yul\":23680:23688   */\n      swap1\n      pop\n        /* \"#utility.yul\":23621:23694   */\n      swap1\n      jump\t// out\n        /* \"#utility.yul\":23700:23889   */\n    tag_326:\n        /* \"#utility.yul\":23777:23809   */\n      tag_578\n      tag_325\n      jump\t// in\n    tag_578:\n        /* \"#utility.yul\":23818:23883   */\n      tag_579\n        /* \"#utility.yul\":23876:23882   */\n      dup2\n        /* \"#utility.yul\":23868:23874   */\n      dup5\n        /* \"#utility.yul\":23862:23866   */\n      dup5\n        /* \"#utility.yul\":23818:23883   */\n      tag_324\n      jump\t// in\n    tag_579:\n        /* \"#utility.yul\":23753:23889   */\n      pop\n        /* \"#utility.yul\":23700:23889   */\n      pop\n      pop\n      jump\t// out\n        /* \"#utility.yul\":23895:24081   */\n    tag_327:\n        /* \"#utility.yul\":23955:24075   */\n    tag_581:\n        /* \"#utility.yul\":23972:23975   */\n      dup2\n        /* \"#utility.yul\":23965:23970   */\n      dup2\n        /* \"#utility.yul\":23962:23976   */\n      lt\n        /* \"#utility.yul\":23955:24075   */\n      iszero\n      tag_583\n      jumpi\n        /* \"#utility.yul\":24026:24065   */\n      tag_584\n        /* \"#utility.yul\":24063:24064   */\n      0x00\n        /* \"#utility.yul\":24056:24061   */\n      dup3\n        /* \"#utility.yul\":24026:24065   */\n      tag_326\n      jump\t// in\n    tag_584:\n        /* \"#utility.yul\":23999:24000   */\n      0x01\n        /* \"#utility.yul\":23992:23997   */\n      dup2\n        /* \"#utility.yul\":23988:24001   */\n      add\n        /* \"#utility.yul\":23979:24001   */\n      swap1\n      pop\n        /* \"#utility.yul\":23955:24075   */\n      jump(tag_581)\n    tag_583:\n        /* \"#utility.yul\":23895:24081   */\n      pop\n      pop\n      jump\t// out\n        /* \"#utility.yul\":24087:24628   */\n    tag_328:\n        /* \"#utility.yul\":24187:24189   */\n      0x1f\n        /* \"#utility.yul\":24182:24185   */\n      dup3\n        /* \"#utility.yul\":24179:24190   */\n      gt\n        /* \"#utility.yul\":24176:24621   */\n      iszero\n      tag_586\n      jumpi\n        /* \"#utility.yul\":24221:24258   */\n      tag_587\n        /* \"#utility.yul\":24252:24257   */\n      dup2\n        /* \"#utility.yul\":24221:24258   */\n      tag_318\n      jump\t// in\n    tag_587:\n        /* \"#utility.yul\":24304:24333   */\n      tag_588\n        /* \"#utility.yul\":24322:24332   */\n      dup5\n        /* \"#utility.yul\":24304:24333   */\n      tag_319\n      jump\t// in\n    tag_588:\n        /* \"#utility.yul\":24294:24302   */\n      dup2\n        /* \"#utility.yul\":24290:24334   */\n      add\n        /* \"#utility.yul\":24487:24489   */\n      0x20\n        /* \"#utility.yul\":24475:24485   */\n      dup6\n        /* \"#utility.yul\":24472:24490   */\n      lt\n        /* \"#utility.yul\":24469:24518   */\n      iszero\n      tag_589\n      jumpi\n        /* \"#utility.yul\":24508:24516   */\n      dup2\n        /* \"#utility.yul\":24493:24516   */\n      swap1\n      pop\n        /* \"#utility.yul\":24469:24518   */\n    tag_589:\n        /* \"#utility.yul\":24531:24611   */\n      tag_590\n        /* \"#utility.yul\":24587:24609   */\n      tag_591\n        /* \"#utility.yul\":24605:24608   */\n      dup6\n        /* \"#utility.yul\":24587:24609   */\n      tag_319\n      jump\t// in\n    tag_591:\n        /* \"#utility.yul\":24577:24585   */\n      dup4\n        /* \"#utility.yul\":24573:24610   */\n      add\n        /* \"#utility.yul\":24560:24571   */\n      dup3\n        /* \"#utility.yul\":24531:24611   */\n      tag_327\n      jump\t// in\n    tag_590:\n        /* \"#utility.yul\":24191:24621   */\n      pop\n      pop\n        /* \"#utility.yul\":24176:24621   */\n    tag_586:\n        /* \"#utility.yul\":24087:24628   */\n      pop\n      pop\n      pop\n      jump\t// out\n        /* \"#utility.yul\":24634:24751   */\n    tag_329:\n        /* \"#utility.yul\":24688:24696   */\n      0x00\n        /* \"#utility.yul\":24738:24743   */\n      dup3\n        /* \"#utility.yul\":24732:24736   */\n      dup3\n        /* \"#utility.yul\":24728:24744   */\n      shr\n        /* \"#utility.yul\":24707:24744   */\n      swap1\n      pop\n        /* \"#utility.yul\":24634:24751   */\n      swap3\n      swap2\n      pop\n      pop\n      jump\t// out\n        /* \"#utility.yul\":24757:24926   */\n    tag_330:\n        /* \"#utility.yul\":24801:24807   */\n      0x00\n        /* \"#utility.yul\":24834:24885   */\n      tag_594\n        /* \"#utility.yul\":24882:24883   */\n      0x00\n        /* \"#utility.yul\":24878:24884   */\n      not\n        /* \"#utility.yul\":24870:24875   */\n      dup5\n        /* \"#utility.yul\":24867:24868   */\n      0x08\n        /* \"#utility.yul\":24863:24876   */\n      mul\n        /* \"#utility.yul\":24834:24885   */\n      tag_329\n      jump\t// in\n    tag_594:\n        /* \"#utility.yul\":24830:24886   */\n      not\n        /* \"#utility.yul\":24915:24919   */\n      dup1\n        /* \"#utility.yul\":24909:24913   */\n      dup4\n        /* \"#utility.yul\":24905:24920   */\n      and\n        /* \"#utility.yul\":24895:24920   */\n      swap2\n      pop\n        /* \"#utility.yul\":24808:24926   */\n      pop\n        /* \"#utility.yul\":24757:24926   */\n      swap3\n      swap2\n      pop\n      pop\n      jump\t// out\n        /* \"#utility.yul\":24931:25226   */\n    tag_331:\n        /* \"#utility.yul\":25007:25011   */\n      0x00\n        /* \"#utility.yul\":25153:25182   */\n      tag_596\n        /* \"#utility.yul\":25178:25181   */\n      dup4\n        /* \"#utility.yul\":25172:25176   */\n      dup4\n        /* \"#utility.yul\":25153:25182   */\n      tag_330\n      jump\t// in\n    tag_596:\n        /* \"#utility.yul\":25145:25182   */\n      swap2\n      pop\n        /* \"#utility.yul\":25215:25218   */\n      dup3\n        /* \"#utility.yul\":25212:25213   */\n      0x02\n        /* \"#utility.yul\":25208:25219   */\n      mul\n        /* \"#utility.yul\":25202:25206   */\n      dup3\n        /* \"#utility.yul\":25199:25220   */\n      or\n        /* \"#utility.yul\":25191:25220   */\n      swap1\n      pop\n        /* \"#utility.yul\":24931:25226   */\n      swap3\n      swap2\n      pop\n      pop\n      jump\t// out\n        /* \"#utility.yul\":25231:26621   */\n    tag_233:\n        /* \"#utility.yul\":25346:25382   */\n      tag_598\n        /* \"#utility.yul\":25378:25381   */\n      dup3\n        /* \"#utility.yul\":25346:25382   */\n      tag_274\n      jump\t// in\n    tag_598:\n        /* \"#utility.yul\":25447:25465   */\n      0xffffffffffffffff\n        /* \"#utility.yul\":25439:25445   */\n      dup2\n        /* \"#utility.yul\":25436:25466   */\n      gt\n        /* \"#utility.yul\":25433:25489   */\n      iszero\n      tag_599\n      jumpi\n        /* \"#utility.yul\":25469:25487   */\n      tag_600\n      tag_145\n      jump\t// in\n    tag_600:\n        /* \"#utility.yul\":25433:25489   */\n    tag_599:\n        /* \"#utility.yul\":25513:25551   */\n      tag_601\n        /* \"#utility.yul\":25545:25549   */\n      dup3\n        /* \"#utility.yul\":25539:25550   */\n      sload\n        /* \"#utility.yul\":25513:25551   */\n      tag_162\n      jump\t// in\n    tag_601:\n        /* \"#utility.yul\":25598:25664   */\n      tag_602\n        /* \"#utility.yul\":25657:25663   */\n      dup3\n        /* \"#utility.yul\":25649:25655   */\n      dup3\n        /* \"#utility.yul\":25643:25647   */\n      dup6\n        /* \"#utility.yul\":25598:25664   */\n      tag_328\n      jump\t// in\n    tag_602:\n        /* \"#utility.yul\":25691:25692   */\n      0x00\n        /* \"#utility.yul\":25715:25719   */\n      0x20\n        /* \"#utility.yul\":25702:25719   */\n      swap1\n      pop\n        /* \"#utility.yul\":25747:25749   */\n      0x1f\n        /* \"#utility.yul\":25739:25745   */\n      dup4\n        /* \"#utility.yul\":25736:25750   */\n      gt\n        /* \"#utility.yul\":25764:25765   */\n      0x01\n        /* \"#utility.yul\":25759:26376   */\n      dup2\n      eq\n      tag_604\n      jumpi\n        /* \"#utility.yul\":26420:26421   */\n      0x00\n        /* \"#utility.yul\":26437:26443   */\n      dup5\n        /* \"#utility.yul\":26434:26511   */\n      iszero\n      tag_605\n      jumpi\n        /* \"#utility.yul\":26486:26495   */\n      dup3\n        /* \"#utility.yul\":26481:26484   */\n      dup8\n        /* \"#utility.yul\":26477:26496   */\n      add\n        /* \"#utility.yul\":26471:26497   */\n      mload\n        /* \"#utility.yul\":26462:26497   */\n      swap1\n      pop\n        /* \"#utility.yul\":26434:26511   */\n    tag_605:\n        /* \"#utility.yul\":26537:26604   */\n      tag_606\n        /* \"#utility.yul\":26597:26603   */\n      dup6\n        /* \"#utility.yul\":26590:26595   */\n      dup3\n        /* \"#utility.yul\":26537:26604   */\n      tag_331\n      jump\t// in\n    tag_606:\n        /* \"#utility.yul\":26531:26535   */\n      dup7\n        /* \"#utility.yul\":26524:26605   */\n      sstore\n        /* \"#utility.yul\":26393:26615   */\n      pop\n        /* \"#utility.yul\":25729:26615   */\n      jump(tag_603)\n        /* \"#utility.yul\":25759:26376   */\n    tag_604:\n        /* \"#utility.yul\":25811:25815   */\n      0x1f\n        /* \"#utility.yul\":25807:25816   */\n      not\n        /* \"#utility.yul\":25799:25805   */\n      dup5\n        /* \"#utility.yul\":25795:25817   */\n      and\n        /* \"#utility.yul\":25845:25881   */\n      tag_607\n        /* \"#utility.yul\":25876:25880   */\n      dup7\n        /* \"#utility.yul\":25845:25881   */\n      tag_318\n      jump\t// in\n    tag_607:\n        /* \"#utility.yul\":25903:25904   */\n      0x00\n        /* \"#utility.yul\":25917:26125   */\n    tag_608:\n        /* \"#utility.yul\":25931:25938   */\n      dup3\n        /* \"#utility.yul\":25928:25929   */\n      dup2\n        /* \"#utility.yul\":25925:25939   */\n      lt\n        /* \"#utility.yul\":25917:26125   */\n      iszero\n      tag_610\n      jumpi\n        /* \"#utility.yul\":26010:26019   */\n      dup5\n        /* \"#utility.yul\":26005:26008   */\n      dup10\n        /* \"#utility.yul\":26001:26020   */\n      add\n        /* \"#utility.yul\":25995:26021   */\n      mload\n        /* \"#utility.yul\":25987:25993   */\n      dup3\n        /* \"#utility.yul\":25980:26022   */\n      sstore\n        /* \"#utility.yul\":26061:26062   */\n      0x01\n        /* \"#utility.yul\":26053:26059   */\n      dup3\n        /* \"#utility.yul\":26049:26063   */\n      add\n        /* \"#utility.yul\":26039:26063   */\n      swap2\n      pop\n        /* \"#utility.yul\":26108:26110   */\n      0x20\n        /* \"#utility.yul\":26097:26106   */\n      dup6\n        /* \"#utility.yul\":26093:26111   */\n      add\n        /* \"#utility.yul\":26080:26111   */\n      swap5\n      pop\n        /* \"#utility.yul\":25954:25958   */\n      0x20\n        /* \"#utility.yul\":25951:25952   */\n      dup2\n        /* \"#utility.yul\":25947:25959   */\n      add\n        /* \"#utility.yul\":25942:25959   */\n      swap1\n      pop\n        /* \"#utility.yul\":25917:26125   */\n      jump(tag_608)\n    tag_610:\n        /* \"#utility.yul\":26153:26159   */\n      dup7\n        /* \"#utility.yul\":26144:26151   */\n      dup4\n        /* \"#utility.yul\":26141:26160   */\n      lt\n        /* \"#utility.yul\":26138:26317   */\n      iszero\n      tag_611\n      jumpi\n        /* \"#utility.yul\":26211:26220   */\n      dup5\n        /* \"#utility.yul\":26206:26209   */\n      dup10\n        /* \"#utility.yul\":26202:26221   */\n      add\n        /* \"#utility.yul\":26196:26222   */\n      mload\n        /* \"#utility.yul\":26254:26302   */\n      tag_612\n        /* \"#utility.yul\":26296:26300   */\n      0x1f\n        /* \"#utility.yul\":26288:26294   */\n      dup10\n        /* \"#utility.yul\":26284:26301   */\n      and\n        /* \"#utility.yul\":26273:26282   */\n      dup3\n        /* \"#utility.yul\":26254:26302   */\n      tag_330\n      jump\t// in\n    tag_612:\n        /* \"#utility.yul\":26246:26252   */\n      dup4\n        /* \"#utility.yul\":26239:26303   */\n      sstore\n        /* \"#utility.yul\":26161:26317   */\n      pop\n        /* \"#utility.yul\":26138:26317   */\n    tag_611:\n        /* \"#utility.yul\":26363:26364   */\n      0x01\n        /* \"#utility.yul\":26359:26360   */\n      0x02\n        /* \"#utility.yul\":26351:26357   */\n      dup9\n        /* \"#utility.yul\":26347:26361   */\n      mul\n        /* \"#utility.yul\":26343:26365   */\n      add\n        /* \"#utility.yul\":26337:26341   */\n      dup9\n        /* \"#utility.yul\":26330:26366   */\n      sstore\n        /* \"#utility.yul\":25766:26376   */\n      pop\n      pop\n      pop\n        /* \"#utility.yul\":25729:26615   */\n    tag_603:\n      pop\n        /* \"#utility.yul\":25321:26621   */\n      pop\n      pop\n      pop\n        /* \"#utility.yul\":25231:26621   */\n      pop\n      pop\n      jump\t// out\n        /* \"#utility.yul\":26627:26827   */\n    tag_235:\n        /* \"#utility.yul\":26666:26670   */\n      0x00\n        /* \"#utility.yul\":26686:26705   */\n      tag_614\n        /* \"#utility.yul\":26703:26704   */\n      dup3\n        /* \"#utility.yul\":26686:26705   */\n      tag_254\n      jump\t// in\n    tag_614:\n        /* \"#utility.yul\":26681:26705   */\n      swap2\n      pop\n        /* \"#utility.yul\":26719:26738   */\n      tag_615\n        /* \"#utility.yul\":26736:26737   */\n      dup4\n        /* \"#utility.yul\":26719:26738   */\n      tag_254\n      jump\t// in\n    tag_615:\n        /* \"#utility.yul\":26714:26738   */\n      swap3\n      pop\n        /* \"#utility.yul\":26762:26763   */\n      dup3\n        /* \"#utility.yul\":26759:26760   */\n      dup3\n        /* \"#utility.yul\":26755:26764   */\n      sub\n        /* \"#utility.yul\":26747:26764   */\n      swap1\n      pop\n        /* \"#utility.yul\":26786:26796   */\n      0xffffffff\n        /* \"#utility.yul\":26780:26784   */\n      dup2\n        /* \"#utility.yul\":26777:26797   */\n      gt\n        /* \"#utility.yul\":26774:26820   */\n      iszero\n      tag_616\n      jumpi\n        /* \"#utility.yul\":26800:26818   */\n      tag_617\n      tag_309\n      jump\t// in\n    tag_617:\n        /* \"#utility.yul\":26774:26820   */\n    tag_616:\n        /* \"#utility.yul\":26627:26827   */\n      swap3\n      swap2\n      pop\n      pop\n      jump\t// out\n\n    auxdata: 0xa264697066735822122027d27c0e2970696c44326d967085048491efdf78aa981da89721d6cd4d5c521764736f6c634300081f0033\n}\n",
				"bytecode": {
					"linkReferences": {},
					"object": "60c06040525f600155348015610013575f5ffd5b506040516125d33803806125d383398181016040528101906100359190610387565b8173ffffffffffffffffffffffffffffffffffffffff1660808173ffffffffffffffffffffffffffffffffffffffff16815250508073ffffffffffffffffffffffffffffffffffffffff1660a08173ffffffffffffffffffffffffffffffffffffffff1681525050335f5f6101000a81548173ffffffffffffffffffffffffffffffffffffffff021916908373ffffffffffffffffffffffffffffffffffffffff1602179055505f60a05173ffffffffffffffffffffffffffffffffffffffff166329a5f2f660405180604001604052805f81526020015f8152506040518263ffffffff1660e01b815260040161012c9190610473565b602060405180830381865afa158015610147573d5f5f3e3d5ffd5b505050506040513d601f19601f8201168201806040525081019061016b91906104b6565b9050805f1b60025f60148110610184576101836104e1565b5b01819055505f600190505b601463ffffffff168163ffffffff1610156102635760a05173ffffffffffffffffffffffffffffffffffffffff166329a5f2f66040518060400160405280858152602001858152506040518263ffffffff1660e01b81526004016101f39190610473565b602060405180830381865afa15801561020e573d5f5f3e3d5ffd5b505050506040513d601f19601f8201168201806040525081019061023291906104b6565b9150815f1b60028263ffffffff1660148110610251576102506104e1565b5b0181905550808060010191505061018f565b505f5f90505b601463ffffffff168163ffffffff1610156102c65760028163ffffffff1660148110610298576102976104e1565b5b015460168263ffffffff16601481106102b4576102b36104e1565b5b01819055508080600101915050610269565b506002600160146102d7919061054a565b63ffffffff16601481106102ee576102ed6104e1565b5b0154602a819055506001602d5f602a5481526020019081526020015f205f6101000a81548160ff021916908315150217905550505050610581565b5f5ffd5b5f73ffffffffffffffffffffffffffffffffffffffff82169050919050565b5f6103568261032d565b9050919050565b6103668161034c565b8114610370575f5ffd5b50565b5f815190506103818161035d565b92915050565b5f5f6040838503121561039d5761039c610329565b5b5f6103aa85828601610373565b92505060206103bb85828601610373565b9150509250929050565b5f60029050919050565b5f81905092915050565b5f819050919050565b5f819050919050565b6103f4816103e2565b82525050565b5f61040583836103eb565b60208301905092915050565b5f602082019050919050565b610426816103c5565b61043081846103cf565b925061043b826103d9565b805f5b8381101561046b57815161045287826103fa565b965061045d83610411565b92505060018101905061043e565b505050505050565b5f6040820190506104865f83018461041d565b92915050565b610495816103e2565b811461049f575f5ffd5b50565b5f815190506104b08161048c565b92915050565b5f602082840312156104cb576104ca610329565b5b5f6104d8848285016104a2565b91505092915050565b7f4e487b71000000000000000000000000000000000000000000000000000000005f52603260045260245ffd5b5f63ffffffff82169050919050565b7f4e487b71000000000000000000000000000000000000000000000000000000005f52601160045260245ffd5b5f6105548261050e565b915061055f8361050e565b9250828203905063ffffffff81111561057b5761057a61051d565b5b92915050565b60805160a05161201c6105b75f395f8181610c8601528181610e7d0152610f4d01525f81816107690152610a84015261201c5ff3fe60806040526004361061013f575f3560e01c80639c6ad114116100b5578063f16505361161006e578063f165053614610467578063f178e47c14610491578063f9f92be4146104cd578063fc7e9c6f146104f5578063fdab463d1461051f578063fe575a87146105495761013f565b80639c6ad11414610345578063b130eaa614610381578063c62b919e146103a9578063e29973fc146103d3578063e5285dcc146103ef578063e82955881461042b5761013f565b80632b7ac3f3116101075780632b7ac3f3146102255780634e73da7d1461024f57806377737f4b1461028b57806385de26b7146102b55780638b01429d146102f15780638da5cb5b1461031b5761013f565b806304d65f1114610143578063082febf01461016d5780630b4501fd1461019757806317cc915c146101c15780631d84b0e8146101fd575b5f5ffd5b34801561014e575f5ffd5b50610157610585565b6040516101649190611377565b60405180910390f35b348015610178575f5ffd5b5061018161064a565b60405161018e91906113b5565b60405180910390f35b3480156101a2575f5ffd5b506101ab610659565b6040516101b891906113e6565b60405180910390f35b3480156101cc575f5ffd5b506101e760048036038101906101e29190611431565b610665565b6040516101f49190611476565b60405180910390f35b348015610208575f5ffd5b50610223600480360381019061021e91906114e9565b610682565b005b348015610230575f5ffd5b50610239610767565b604051610246919061156f565b60405180910390f35b34801561025a575f5ffd5b5061027560048036038101906102709190611431565b61078b565b6040516102829190611476565b60405180910390f35b348015610296575f5ffd5b5061029f6107a8565b6040516102ac91906113e6565b60405180910390f35b3480156102c0575f5ffd5b506102db60048036038101906102d69190611431565b6107ae565b6040516102e891906115f8565b60405180910390f35b3480156102fc575f5ffd5b5061030561084e565b60405161031291906113e6565b60405180910390f35b348015610326575f5ffd5b5061032f61085a565b60405161033c9190611627565b60405180910390f35b348015610350575f5ffd5b5061036b6004803603810190610366919061166a565b61087e565b60405161037891906116a4565b60405180910390f35b34801561038c575f5ffd5b506103a760048036038101906103a29190611759565b6108c1565b005b3480156103b4575f5ffd5b506103bd610c84565b6040516103ca91906117fd565b60405180910390f35b6103ed60048036038101906103e89190611816565b610ca8565b005b3480156103fa575f5ffd5b5061041560048036038101906104109190611431565b61113c565b6040516104229190611476565b60405180910390f35b348015610436575f5ffd5b50610451600480360381019061044c919061189d565b611162565b60405161045e91906116a4565b60405180910390f35b348015610472575f5ffd5b5061047b61117b565b60405161048891906113b5565b60405180910390f35b34801561049c575f5ffd5b506104b760048036038101906104b2919061189d565b611180565b6040516104c491906116a4565b60405180910390f35b3480156104d8575f5ffd5b506104f360048036038101906104ee91906114e9565b611199565b005b348015610500575f5ffd5b5061050961127f565b60405161051691906113b5565b60405180910390f35b34801561052a575f5ffd5b50610533611294565b60405161054091906116a4565b60405180910390f35b348015610554575f5ffd5b5061056f600480360381019061056a91906114e9565b61129a565b60405161057c9190611476565b60405180910390f35b60605f601463ffffffff1667ffffffffffffffff8111156105a9576105a86118c8565b5b6040519080825280602002602001820160405280156105d75781602001602082028036833780820191505090505b5090505f5f90505b601463ffffffff168163ffffffff1610156106425760168163ffffffff166014811061060e5761060d6118f5565b5b0154828263ffffffff1681518110610629576106286118f5565b5b60200260200101818152505080806001019150506105df565b508091505090565b601463ffffffff166001901b81565b67016345785d8a000081565b602c602052805f5260405f205f915054906101000a900460ff1681565b5f5f9054906101000a900473ffffffffffffffffffffffffffffffffffffffff1673ffffffffffffffffffffffffffffffffffffffff163373ffffffffffffffffffffffffffffffffffffffff1614610710576040517f08c379a0000000000000000000000000000000000000000000000000000000008152600401610707906119a2565b60405180910390fd5b5f602e5f8373ffffffffffffffffffffffffffffffffffffffff1673ffffffffffffffffffffffffffffffffffffffff1681526020019081526020015f205f6101000a81548160ff02191690831515021790555050565b7f000000000000000000000000000000000000000000000000000000000000000081565b602d602052805f5260405f205f915054906101000a900460ff1681565b60015481565b602f602052805f5260405f205f91509050805f0180546107cd906119ed565b80601f01602080910402602001604051908101604052809291908181526020018280546107f9906119ed565b80156108445780601f1061081b57610100808354040283529160200191610844565b820191905f5260205f20905b81548152906001019060200180831161082757829003601f168201915b5050505050905081565b670de0b6b3a764000081565b5f5f9054906101000a900473ffffffffffffffffffffffffffffffffffffffff1681565b5f601463ffffffff168263ffffffff161061089d575f5f1b90506108bc565b60168263ffffffff16601481106108b7576108b66118f5565b5b015490505b919050565b602e5f3373ffffffffffffffffffffffffffffffffffffffff1673ffffffffffffffffffffffffffffffffffffffff1681526020019081526020015f205f9054906101000a900460ff161561094b576040517f08c379a000000000000000000000000000000000000000000000000000000000815260040161094290611a67565b60405180910390fd5b602c5f8381526020019081526020015f205f9054906101000a900460ff16156109a0576040517fcad2ae0200000000000000000000000000000000000000000000000000000000815260040160405180910390fd5b602d5f8481526020019081526020015f205f9054906101000a900460ff166109f4576040517f8c52011600000000000000000000000000000000000000000000000000000000815260040160405180910390fd5b5f600267ffffffffffffffff811115610a1057610a0f6118c8565b5b604051908082528060200260200182016040528015610a3e5781602001602082028036833780820191505090505b50905083815f81518110610a5557610a546118f5565b5b6020026020010181815250508281600181518110610a7657610a756118f5565b5b6020026020010181815250507f000000000000000000000000000000000000000000000000000000000000000073ffffffffffffffffffffffffffffffffffffffff1663ea50d0e48787846040518463ffffffff1660e01b8152600401610adf93929190611abf565b602060405180830381865afa158015610afa573d5f5f3e3d5ffd5b505050506040513d601f19601f82011682018060405250810190610b1e9190611b20565b610b54576040517f09bde33900000000000000000000000000000000000000000000000000000000815260040160405180910390fd5b6001602c5f8581526020019081526020015f205f6101000a81548160ff0219169083151502179055505f8273ffffffffffffffffffffffffffffffffffffffff16670de0b6b3a7640000604051610baa90611b78565b5f6040518083038185875af1925050503d805f8114610be4576040519150601f19603f3d011682016040523d82523d5f602084013e610be9565b606091505b5050905080610c2d576040517f08c379a0000000000000000000000000000000000000000000000000000000008152600401610c2490611bd6565b60405180910390fd5b8273ffffffffffffffffffffffffffffffffffffffff167f0ce490531f6c8ae2f1ff174643bc8b7ed5e52987ab50dc1e8f33655d2cd8c90b85604051610c7391906116a4565b60405180910390a250505050505050565b7f000000000000000000000000000000000000000000000000000000000000000081565b602e5f3373ffffffffffffffffffffffffffffffffffffffff1673ffffffffffffffffffffffffffffffffffffffff1681526020019081526020015f205f9054906101000a900460ff1615610d32576040517f08c379a0000000000000000000000000000000000000000000000000000000008152600401610d2990611a67565b60405180910390fd5b670de0b6b3a76400003414610d73576040517ff067b3c600000000000000000000000000000000000000000000000000000000815260040160405180910390fd5b601463ffffffff166001901b63ffffffff16602b5f9054906101000a900463ffffffff1663ffffffff1610610dd4576040517fed732d0c00000000000000000000000000000000000000000000000000000000815260040160405180910390fd5b5f602b5f9054906101000a900463ffffffff169050602b5f81819054906101000a900463ffffffff1680929190610e0a90611c21565b91906101000a81548163ffffffff021916908363ffffffff160217905550505f845f1c90505f5f90505b601463ffffffff168163ffffffff161015611031575f6001841663ffffffff1603610f4b57815f1b60168263ffffffff1660148110610e7657610e756118f5565b5b01819055507f000000000000000000000000000000000000000000000000000000000000000073ffffffffffffffffffffffffffffffffffffffff166329a5f2f6604051806040016040528085815260200160028563ffffffff1660148110610ee257610ee16118f5565b5b01545f1c8152506040518263ffffffff1660e01b8152600401610f059190611cf1565b602060405180830381865afa158015610f20573d5f5f3e3d5ffd5b505050506040513d601f19601f82011682018060405250810190610f449190611d1e565b9150611017565b7f000000000000000000000000000000000000000000000000000000000000000073ffffffffffffffffffffffffffffffffffffffff166329a5f2f6604051806040016040528060168563ffffffff1660148110610fac57610fab6118f5565b5b01545f1c8152602001858152506040518263ffffffff1660e01b8152600401610fd59190611cf1565b602060405180830381865afa158015610ff0573d5f5f3e3d5ffd5b505050506040513d601f19601f820116820180604052508101906110149190611d1e565b91505b60018363ffffffff16901c92508080600101915050610e34565b50805f1b602a819055506001602d5f602a5481526020019081526020015f205f6101000a81548160ff021916908315150217905550604051806020016040528085858080601f0160208091040260200160405190810160405280939291908181526020018383808284375f81840152601f19601f82011690508083019250505050505050815250602f5f8781526020019081526020015f205f820151815f0190816110dc9190611ee0565b50905050847f84fc9eb8cd0a782a1d1734fbeed616bd0ef775f8b9bd437636b62d634fe4baf36001602b5f9054906101000a900463ffffffff166111209190611faf565b60405161112d91906113b5565b60405180910390a25050505050565b5f602c5f8381526020019081526020015f205f9054906101000a900460ff169050919050565b60028160148110611171575f80fd5b015f915090505481565b601481565b6016816014811061118f575f80fd5b015f915090505481565b5f5f9054906101000a900473ffffffffffffffffffffffffffffffffffffffff1673ffffffffffffffffffffffffffffffffffffffff163373ffffffffffffffffffffffffffffffffffffffff1614611227576040517f08c379a000000000000000000000000000000000000000000000000000000000815260040161121e906119a2565b60405180910390fd5b6001602e5f8373ffffffffffffffffffffffffffffffffffffffff1673ffffffffffffffffffffffffffffffffffffffff1681526020019081526020015f205f6101000a81548160ff02191690831515021790555050565b602b5f9054906101000a900463ffffffff1681565b602a5481565b602e602052805f5260405f205f915054906101000a900460ff1681565b5f81519050919050565b5f82825260208201905092915050565b5f819050602082019050919050565b5f819050919050565b6112f2816112e0565b82525050565b5f61130383836112e9565b60208301905092915050565b5f602082019050919050565b5f611325826112b7565b61132f81856112c1565b935061133a836112d1565b805f5b8381101561136a57815161135188826112f8565b975061135c8361130f565b92505060018101905061133d565b5085935050505092915050565b5f6020820190508181035f83015261138f818461131b565b905092915050565b5f63ffffffff82169050919050565b6113af81611397565b82525050565b5f6020820190506113c85f8301846113a6565b92915050565b5f819050919050565b6113e0816113ce565b82525050565b5f6020820190506113f95f8301846113d7565b92915050565b5f5ffd5b5f5ffd5b611410816112e0565b811461141a575f5ffd5b50565b5f8135905061142b81611407565b92915050565b5f60208284031215611446576114456113ff565b5b5f6114538482850161141d565b91505092915050565b5f8115159050919050565b6114708161145c565b82525050565b5f6020820190506114895f830184611467565b92915050565b5f73ffffffffffffffffffffffffffffffffffffffff82169050919050565b5f6114b88261148f565b9050919050565b6114c8816114ae565b81146114d2575f5ffd5b50565b5f813590506114e3816114bf565b92915050565b5f602082840312156114fe576114fd6113ff565b5b5f61150b848285016114d5565b91505092915050565b5f819050919050565b5f61153761153261152d8461148f565b611514565b61148f565b9050919050565b5f6115488261151d565b9050919050565b5f6115598261153e565b9050919050565b6115698161154f565b82525050565b5f6020820190506115825f830184611560565b92915050565b5f81519050919050565b5f82825260208201905092915050565b8281835e5f83830152505050565b5f601f19601f8301169050919050565b5f6115ca82611588565b6115d48185611592565b93506115e48185602086016115a2565b6115ed816115b0565b840191505092915050565b5f6020820190508181035f83015261161081846115c0565b905092915050565b611621816114ae565b82525050565b5f60208201905061163a5f830184611618565b92915050565b61164981611397565b8114611653575f5ffd5b50565b5f8135905061166481611640565b92915050565b5f6020828403121561167f5761167e6113ff565b5b5f61168c84828501611656565b91505092915050565b61169e816112e0565b82525050565b5f6020820190506116b75f830184611695565b92915050565b5f5ffd5b5f5ffd5b5f5ffd5b5f5f83601f8401126116de576116dd6116bd565b5b8235905067ffffffffffffffff8111156116fb576116fa6116c1565b5b602083019150836001820283011115611717576117166116c5565b5b9250929050565b5f6117288261148f565b9050919050565b6117388161171e565b8114611742575f5ffd5b50565b5f813590506117538161172f565b92915050565b5f5f5f5f5f60808688031215611772576117716113ff565b5b5f86013567ffffffffffffffff81111561178f5761178e611403565b5b61179b888289016116c9565b955095505060206117ae8882890161141d565b93505060406117bf8882890161141d565b92505060606117d088828901611745565b9150509295509295909350565b5f6117e78261153e565b9050919050565b6117f7816117dd565b82525050565b5f6020820190506118105f8301846117ee565b92915050565b5f5f5f6040848603121561182d5761182c6113ff565b5b5f61183a8682870161141d565b935050602084013567ffffffffffffffff81111561185b5761185a611403565b5b611867868287016116c9565b92509250509250925092565b61187c816113ce565b8114611886575f5ffd5b50565b5f8135905061189781611873565b92915050565b5f602082840312156118b2576118b16113ff565b5b5f6118bf84828501611889565b91505092915050565b7f4e487b71000000000000000000000000000000000000000000000000000000005f52604160045260245ffd5b7f4e487b71000000000000000000000000000000000000000000000000000000005f52603260045260245ffd5b5f82825260208201905092915050565b7f6f6e6c79206f776e65722063616e2063616c6c20746869732066756e6374696f5f8201527f6e00000000000000000000000000000000000000000000000000000000000000602082015250565b5f61198c602183611922565b915061199782611932565b604082019050919050565b5f6020820190508181035f8301526119b981611980565b9050919050565b7f4e487b71000000000000000000000000000000000000000000000000000000005f52602260045260245ffd5b5f6002820490506001821680611a0457607f821691505b602082108103611a1757611a166119c0565b5b50919050565b7f7468697320616464726573732069732073616e6374696f6e65640000000000005f82015250565b5f611a51601a83611922565b9150611a5c82611a1d565b602082019050919050565b5f6020820190508181035f830152611a7e81611a45565b9050919050565b828183375f83830152505050565b5f611a9e8385611592565b9350611aab838584611a85565b611ab4836115b0565b840190509392505050565b5f6040820190508181035f830152611ad8818587611a93565b90508181036020830152611aec818461131b565b9050949350505050565b611aff8161145c565b8114611b09575f5ffd5b50565b5f81519050611b1a81611af6565b92915050565b5f60208284031215611b3557611b346113ff565b5b5f611b4284828501611b0c565b91505092915050565b5f81905092915050565b50565b5f611b635f83611b4b565b9150611b6e82611b55565b5f82019050919050565b5f611b8282611b58565b9150819050919050565b7f4d4e54207472616e73666572206661696c6564000000000000000000000000005f82015250565b5f611bc0601383611922565b9150611bcb82611b8c565b602082019050919050565b5f6020820190508181035f830152611bed81611bb4565b9050919050565b7f4e487b71000000000000000000000000000000000000000000000000000000005f52601160045260245ffd5b5f611c2b82611397565b915063ffffffff8203611c4157611c40611bf4565b5b600182019050919050565b5f60029050919050565b5f81905092915050565b5f819050919050565b611c72816113ce565b82525050565b5f611c838383611c69565b60208301905092915050565b5f602082019050919050565b611ca481611c4c565b611cae8184611c56565b9250611cb982611c60565b805f5b83811015611ce9578151611cd08782611c78565b9650611cdb83611c8f565b925050600181019050611cbc565b505050505050565b5f604082019050611d045f830184611c9b565b92915050565b5f81519050611d1881611873565b92915050565b5f60208284031215611d3357611d326113ff565b5b5f611d4084828501611d0a565b91505092915050565b5f819050815f5260205f209050919050565b5f6020601f8301049050919050565b5f82821b905092915050565b5f60088302611da57fffffffffffffffffffffffffffffffffffffffffffffffffffffffffffffffff82611d6a565b611daf8683611d6a565b95508019841693508086168417925050509392505050565b5f611de1611ddc611dd7846113ce565b611514565b6113ce565b9050919050565b5f819050919050565b611dfa83611dc7565b611e0e611e0682611de8565b848454611d76565b825550505050565b5f5f905090565b611e25611e16565b611e30818484611df1565b505050565b5b81811015611e5357611e485f82611e1d565b600181019050611e36565b5050565b601f821115611e9857611e6981611d49565b611e7284611d5b565b81016020851015611e81578190505b611e95611e8d85611d5b565b830182611e35565b50505b505050565b5f82821c905092915050565b5f611eb85f1984600802611e9d565b1980831691505092915050565b5f611ed08383611ea9565b9150826002028217905092915050565b611ee982611588565b67ffffffffffffffff811115611f0257611f016118c8565b5b611f0c82546119ed565b611f17828285611e57565b5f60209050601f831160018114611f48575f8415611f36578287015190505b611f408582611ec5565b865550611fa7565b601f198416611f5686611d49565b5f5b82811015611f7d57848901518255600182019150602085019450602081019050611f58565b86831015611f9a5784890151611f96601f891682611ea9565b8355505b6001600288020188555050505b505050505050565b5f611fb982611397565b9150611fc483611397565b9250828203905063ffffffff811115611fe057611fdf611bf4565b5b9291505056fea264697066735822122027d27c0e2970696c44326d967085048491efdf78aa981da89721d6cd4d5c521764736f6c634300081f0033",
					"opcodes": "PUSH1 0xC0 PUSH1 0x40 MSTORE PUSH0 PUSH1 0x1 SSTORE CALLVALUE DUP1 ISZERO PUSH2 0x13 JUMPI PUSH0 PUSH0 REVERT JUMPDEST POP PUSH1 0x40 MLOAD PUSH2 0x25D3 CODESIZE SUB DUP1 PUSH2 0x25D3 DUP4 CODECOPY DUP2 DUP2 ADD PUSH1 0x40 MSTORE DUP2 ADD SWAP1 PUSH2 0x35 SWAP2 SWAP1 PUSH2 0x387 JUMP JUMPDEST DUP2 PUSH20 0xFFFFFFFFFFFFFFFFFFFFFFFFFFFFFFFFFFFFFFFF AND PUSH1 0x80 DUP2 PUSH20 0xFFFFFFFFFFFFFFFFFFFFFFFFFFFFFFFFFFFFFFFF AND DUP2 MSTORE POP POP DUP1 PUSH20 0xFFFFFFFFFFFFFFFFFFFFFFFFFFFFFFFFFFFFFFFF AND PUSH1 0xA0 DUP2 PUSH20 0xFFFFFFFFFFFFFFFFFFFFFFFFFFFFFFFFFFFFFFFF AND DUP2 MSTORE POP POP CALLER PUSH0 PUSH0 PUSH2 0x100 EXP DUP2 SLOAD DUP2 PUSH20 0xFFFFFFFFFFFFFFFFFFFFFFFFFFFFFFFFFFFFFFFF MUL NOT AND SWAP1 DUP4 PUSH20 0xFFFFFFFFFFFFFFFFFFFFFFFFFFFFFFFFFFFFFFFF AND MUL OR SWAP1 SSTORE POP PUSH0 PUSH1 0xA0 MLOAD PUSH20 0xFFFFFFFFFFFFFFFFFFFFFFFFFFFFFFFFFFFFFFFF AND PUSH4 0x29A5F2F6 PUSH1 0x40 MLOAD DUP1 PUSH1 0x40 ADD PUSH1 0x40 MSTORE DUP1 PUSH0 DUP2 MSTORE PUSH1 0x20 ADD PUSH0 DUP2 MSTORE POP PUSH1 0x40 MLOAD DUP3 PUSH4 0xFFFFFFFF AND PUSH1 0xE0 SHL DUP2 MSTORE PUSH1 0x4 ADD PUSH2 0x12C SWAP2 SWAP1 PUSH2 0x473 JUMP JUMPDEST PUSH1 0x20 PUSH1 0x40 MLOAD DUP1 DUP4 SUB DUP2 DUP7 GAS STATICCALL ISZERO DUP1 ISZERO PUSH2 0x147 JUMPI RETURNDATASIZE PUSH0 PUSH0 RETURNDATACOPY RETURNDATASIZE PUSH0 REVERT JUMPDEST POP POP POP POP PUSH1 0x40 MLOAD RETURNDATASIZE PUSH1 0x1F NOT PUSH1 0x1F DUP3 ADD AND DUP3 ADD DUP1 PUSH1 0x40 MSTORE POP DUP2 ADD SWAP1 PUSH2 0x16B SWAP2 SWAP1 PUSH2 0x4B6 JUMP JUMPDEST SWAP1 POP DUP1 PUSH0 SHL PUSH1 0x2 PUSH0 PUSH1 0x14 DUP2 LT PUSH2 0x184 JUMPI PUSH2 0x183 PUSH2 0x4E1 JUMP JUMPDEST JUMPDEST ADD DUP2 SWAP1 SSTORE POP PUSH0 PUSH1 0x1 SWAP1 POP JUMPDEST PUSH1 0x14 PUSH4 0xFFFFFFFF AND DUP2 PUSH4 0xFFFFFFFF AND LT ISZERO PUSH2 0x263 JUMPI PUSH1 0xA0 MLOAD PUSH20 0xFFFFFFFFFFFFFFFFFFFFFFFFFFFFFFFFFFFFFFFF AND PUSH4 0x29A5F2F6 PUSH1 0x40 MLOAD DUP1 PUSH1 0x40 ADD PUSH1 0x40 MSTORE DUP1 DUP6 DUP2 MSTORE PUSH1 0x20 ADD DUP6 DUP2 MSTORE POP PUSH1 0x40 MLOAD DUP3 PUSH4 0xFFFFFFFF AND PUSH1 0xE0 SHL DUP2 MSTORE PUSH1 0x4 ADD PUSH2 0x1F3 SWAP2 SWAP1 PUSH2 0x473 JUMP JUMPDEST PUSH1 0x20 PUSH1 0x40 MLOAD DUP1 DUP4 SUB DUP2 DUP7 GAS STATICCALL ISZERO DUP1 ISZERO PUSH2 0x20E JUMPI RETURNDATASIZE PUSH0 PUSH0 RETURNDATACOPY RETURNDATASIZE PUSH0 REVERT JUMPDEST POP POP POP POP PUSH1 0x40 MLOAD RETURNDATASIZE PUSH1 0x1F NOT PUSH1 0x1F DUP3 ADD AND DUP3 ADD DUP1 PUSH1 0x40 MSTORE POP DUP2 ADD SWAP1 PUSH2 0x232 SWAP2 SWAP1 PUSH2 0x4B6 JUMP JUMPDEST SWAP2 POP DUP2 PUSH0 SHL PUSH1 0x2 DUP3 PUSH4 0xFFFFFFFF AND PUSH1 0x14 DUP2 LT PUSH2 0x251 JUMPI PUSH2 0x250 PUSH2 0x4E1 JUMP JUMPDEST JUMPDEST ADD DUP2 SWAP1 SSTORE POP DUP1 DUP1 PUSH1 0x1 ADD SWAP2 POP POP PUSH2 0x18F JUMP JUMPDEST POP PUSH0 PUSH0 SWAP1 POP JUMPDEST PUSH1 0x14 PUSH4 0xFFFFFFFF AND DUP2 PUSH4 0xFFFFFFFF AND LT ISZERO PUSH2 0x2C6 JUMPI PUSH1 0x2 DUP2 PUSH4 0xFFFFFFFF AND PUSH1 0x14 DUP2 LT PUSH2 0x298 JUMPI PUSH2 0x297 PUSH2 0x4E1 JUMP JUMPDEST JUMPDEST ADD SLOAD PUSH1 0x16 DUP3 PUSH4 0xFFFFFFFF AND PUSH1 0x14 DUP2 LT PUSH2 0x2B4 JUMPI PUSH2 0x2B3 PUSH2 0x4E1 JUMP JUMPDEST JUMPDEST ADD DUP2 SWAP1 SSTORE POP DUP1 DUP1 PUSH1 0x1 ADD SWAP2 POP POP PUSH2 0x269 JUMP JUMPDEST POP PUSH1 0x2 PUSH1 0x1 PUSH1 0x14 PUSH2 0x2D7 SWAP2 SWAP1 PUSH2 0x54A JUMP JUMPDEST PUSH4 0xFFFFFFFF AND PUSH1 0x14 DUP2 LT PUSH2 0x2EE JUMPI PUSH2 0x2ED PUSH2 0x4E1 JUMP JUMPDEST JUMPDEST ADD SLOAD PUSH1 0x2A DUP2 SWAP1 SSTORE POP PUSH1 0x1 PUSH1 0x2D PUSH0 PUSH1 0x2A SLOAD DUP2 MSTORE PUSH1 0x20 ADD SWAP1 DUP2 MSTORE PUSH1 0x20 ADD PUSH0 KECCAK256 PUSH0 PUSH2 0x100 EXP DUP2 SLOAD DUP2 PUSH1 0xFF MUL NOT AND SWAP1 DUP4 ISZERO ISZERO MUL OR SWAP1 SSTORE POP POP POP POP PUSH2 0x581 JUMP JUMPDEST PUSH0 PUSH0 REVERT JUMPDEST PUSH0 PUSH20 0xFFFFFFFFFFFFFFFFFFFFFFFFFFFFFFFFFFFFFFFF DUP3 AND SWAP1 POP SWAP2 SWAP1 POP JUMP JUMPDEST PUSH0 PUSH2 0x356 DUP3 PUSH2 0x32D JUMP JUMPDEST SWAP1 POP SWAP2 SWAP1 POP JUMP JUMPDEST PUSH2 0x366 DUP2 PUSH2 0x34C JUMP JUMPDEST DUP2 EQ PUSH2 0x370 JUMPI PUSH0 PUSH0 REVERT JUMPDEST POP JUMP JUMPDEST PUSH0 DUP2 MLOAD SWAP1 POP PUSH2 0x381 DUP2 PUSH2 0x35D JUMP JUMPDEST SWAP3 SWAP2 POP POP JUMP JUMPDEST PUSH0 PUSH0 PUSH1 0x40 DUP4 DUP6 SUB SLT ISZERO PUSH2 0x39D JUMPI PUSH2 0x39C PUSH2 0x329 JUMP JUMPDEST JUMPDEST PUSH0 PUSH2 0x3AA DUP6 DUP3 DUP7 ADD PUSH2 0x373 JUMP JUMPDEST SWAP3 POP POP PUSH1 0x20 PUSH2 0x3BB DUP6 DUP3 DUP7 ADD PUSH2 0x373 JUMP JUMPDEST SWAP2 POP POP SWAP3 POP SWAP3 SWAP1 POP JUMP JUMPDEST PUSH0 PUSH1 0x2 SWAP1 POP SWAP2 SWAP1 POP JUMP JUMPDEST PUSH0 DUP2 SWAP1 POP SWAP3 SWAP2 POP POP JUMP JUMPDEST PUSH0 DUP2 SWAP1 POP SWAP2 SWAP1 POP JUMP JUMPDEST PUSH0 DUP2 SWAP1 POP SWAP2 SWAP1 POP JUMP JUMPDEST PUSH2 0x3F4 DUP2 PUSH2 0x3E2 JUMP JUMPDEST DUP3 MSTORE POP POP JUMP JUMPDEST PUSH0 PUSH2 0x405 DUP4 DUP4 PUSH2 0x3EB JUMP JUMPDEST PUSH1 0x20 DUP4 ADD SWAP1 POP SWAP3 SWAP2 POP POP JUMP JUMPDEST PUSH0 PUSH1 0x20 DUP3 ADD SWAP1 POP SWAP2 SWAP1 POP JUMP JUMPDEST PUSH2 0x426 DUP2 PUSH2 0x3C5 JUMP JUMPDEST PUSH2 0x430 DUP2 DUP5 PUSH2 0x3CF JUMP JUMPDEST SWAP3 POP PUSH2 0x43B DUP3 PUSH2 0x3D9 JUMP JUMPDEST DUP1 PUSH0 JUMPDEST DUP4 DUP2 LT ISZERO PUSH2 0x46B JUMPI DUP2 MLOAD PUSH2 0x452 DUP8 DUP3 PUSH2 0x3FA JUMP JUMPDEST SWAP7 POP PUSH2 0x45D DUP4 PUSH2 0x411 JUMP JUMPDEST SWAP3 POP POP PUSH1 0x1 DUP2 ADD SWAP1 POP PUSH2 0x43E JUMP JUMPDEST POP POP POP POP POP POP JUMP JUMPDEST PUSH0 PUSH1 0x40 DUP3 ADD SWAP1 POP PUSH2 0x486 PUSH0 DUP4 ADD DUP5 PUSH2 0x41D JUMP JUMPDEST SWAP3 SWAP2 POP POP JUMP JUMPDEST PUSH2 0x495 DUP2 PUSH2 0x3E2 JUMP JUMPDEST DUP2 EQ PUSH2 0x49F JUMPI PUSH0 PUSH0 REVERT JUMPDEST POP JUMP JUMPDEST PUSH0 DUP2 MLOAD SWAP1 POP PUSH2 0x4B0 DUP2 PUSH2 0x48C JUMP JUMPDEST SWAP3 SWAP2 POP POP JUMP JUMPDEST PUSH0 PUSH1 0x20 DUP3 DUP5 SUB SLT ISZERO PUSH2 0x4CB JUMPI PUSH2 0x4CA PUSH2 0x329 JUMP JUMPDEST JUMPDEST PUSH0 PUSH2 0x4D8 DUP5 DUP3 DUP6 ADD PUSH2 0x4A2 JUMP JUMPDEST SWAP2 POP POP SWAP3 SWAP2 POP POP JUMP JUMPDEST PUSH32 0x4E487B7100000000000000000000000000000000000000000000000000000000 PUSH0 MSTORE PUSH1 0x32 PUSH1 0x4 MSTORE PUSH1 0x24 PUSH0 REVERT JUMPDEST PUSH0 PUSH4 0xFFFFFFFF DUP3 AND SWAP1 POP SWAP2 SWAP1 POP JUMP JUMPDEST PUSH32 0x4E487B7100000000000000000000000000000000000000000000000000000000 PUSH0 MSTORE PUSH1 0x11 PUSH1 0x4 MSTORE PUSH1 0x24 PUSH0 REVERT JUMPDEST PUSH0 PUSH2 0x554 DUP3 PUSH2 0x50E JUMP JUMPDEST SWAP2 POP PUSH2 0x55F DUP4 PUSH2 0x50E JUMP JUMPDEST SWAP3 POP DUP3 DUP3 SUB SWAP1 POP PUSH4 0xFFFFFFFF DUP2 GT ISZERO PUSH2 0x57B JUMPI PUSH2 0x57A PUSH2 0x51D JUMP JUMPDEST JUMPDEST SWAP3 SWAP2 POP POP JUMP JUMPDEST PUSH1 0x80 MLOAD PUSH1 0xA0 MLOAD PUSH2 0x201C PUSH2 0x5B7 PUSH0 CODECOPY PUSH0 DUP2 DUP2 PUSH2 0xC86 ADD MSTORE DUP2 DUP2 PUSH2 0xE7D ADD MSTORE PUSH2 0xF4D ADD MSTORE PUSH0 DUP2 DUP2 PUSH2 0x769 ADD MSTORE PUSH2 0xA84 ADD MSTORE PUSH2 0x201C PUSH0 RETURN INVALID PUSH1 0x80 PUSH1 0x40 MSTORE PUSH1 0x4 CALLDATASIZE LT PUSH2 0x13F JUMPI PUSH0 CALLDATALOAD PUSH1 0xE0 SHR DUP1 PUSH4 0x9C6AD114 GT PUSH2 0xB5 JUMPI DUP1 PUSH4 0xF1650536 GT PUSH2 0x6E JUMPI DUP1 PUSH4 0xF1650536 EQ PUSH2 0x467 JUMPI DUP1 PUSH4 0xF178E47C EQ PUSH2 0x491 JUMPI DUP1 PUSH4 0xF9F92BE4 EQ PUSH2 0x4CD JUMPI DUP1 PUSH4 0xFC7E9C6F EQ PUSH2 0x4F5 JUMPI DUP1 PUSH4 0xFDAB463D EQ PUSH2 0x51F JUMPI DUP1 PUSH4 0xFE575A87 EQ PUSH2 0x549 JUMPI PUSH2 0x13F JUMP JUMPDEST DUP1 PUSH4 0x9C6AD114 EQ PUSH2 0x345 JUMPI DUP1 PUSH4 0xB130EAA6 EQ PUSH2 0x381 JUMPI DUP1 PUSH4 0xC62B919E EQ PUSH2 0x3A9 JUMPI DUP1 PUSH4 0xE29973FC EQ PUSH2 0x3D3 JUMPI DUP1 PUSH4 0xE5285DCC EQ PUSH2 0x3EF JUMPI DUP1 PUSH4 0xE8295588 EQ PUSH2 0x42B JUMPI PUSH2 0x13F JUMP JUMPDEST DUP1 PUSH4 0x2B7AC3F3 GT PUSH2 0x107 JUMPI DUP1 PUSH4 0x2B7AC3F3 EQ PUSH2 0x225 JUMPI DUP1 PUSH4 0x4E73DA7D EQ PUSH2 0x24F JUMPI DUP1 PUSH4 0x77737F4B EQ PUSH2 0x28B JUMPI DUP1 PUSH4 0x85DE26B7 EQ PUSH2 0x2B5 JUMPI DUP1 PUSH4 0x8B01429D EQ PUSH2 0x2F1 JUMPI DUP1 PUSH4 0x8DA5CB5B EQ PUSH2 0x31B JUMPI PUSH2 0x13F JUMP JUMPDEST DUP1 PUSH4 0x4D65F11 EQ PUSH2 0x143 JUMPI DUP1 PUSH4 0x82FEBF0 EQ PUSH2 0x16D JUMPI DUP1 PUSH4 0xB4501FD EQ PUSH2 0x197 JUMPI DUP1 PUSH4 0x17CC915C EQ PUSH2 0x1C1 JUMPI DUP1 PUSH4 0x1D84B0E8 EQ PUSH2 0x1FD JUMPI JUMPDEST PUSH0 PUSH0 REVERT JUMPDEST CALLVALUE DUP1 ISZERO PUSH2 0x14E JUMPI PUSH0 PUSH0 REVERT JUMPDEST POP PUSH2 0x157 PUSH2 0x585 JUMP JUMPDEST PUSH1 0x40 MLOAD PUSH2 0x164 SWAP2 SWAP1 PUSH2 0x1377 JUMP JUMPDEST PUSH1 0x40 MLOAD DUP1 SWAP2 SUB SWAP1 RETURN JUMPDEST CALLVALUE DUP1 ISZERO PUSH2 0x178 JUMPI PUSH0 PUSH0 REVERT JUMPDEST POP PUSH2 0x181 PUSH2 0x64A JUMP JUMPDEST PUSH1 0x40 MLOAD PUSH2 0x18E SWAP2 SWAP1 PUSH2 0x13B5 JUMP JUMPDEST PUSH1 0x40 MLOAD DUP1 SWAP2 SUB SWAP1 RETURN JUMPDEST CALLVALUE DUP1 ISZERO PUSH2 0x1A2 JUMPI PUSH0 PUSH0 REVERT JUMPDEST POP PUSH2 0x1AB PUSH2 0x659 JUMP JUMPDEST PUSH1 0x40 MLOAD PUSH2 0x1B8 SWAP2 SWAP1 PUSH2 0x13E6 JUMP JUMPDEST PUSH1 0x40 MLOAD DUP1 SWAP2 SUB SWAP1 RETURN JUMPDEST CALLVALUE DUP1 ISZERO PUSH2 0x1CC JUMPI PUSH0 PUSH0 REVERT JUMPDEST POP PUSH2 0x1E7 PUSH1 0x4 DUP1 CALLDATASIZE SUB DUP2 ADD SWAP1 PUSH2 0x1E2 SWAP2 SWAP1 PUSH2 0x1431 JUMP JUMPDEST PUSH2 0x665 JUMP JUMPDEST PUSH1 0x40 MLOAD PUSH2 0x1F4 SWAP2 SWAP1 PUSH2 0x1476 JUMP JUMPDEST PUSH1 0x40 MLOAD DUP1 SWAP2 SUB SWAP1 RETURN JUMPDEST CALLVALUE DUP1 ISZERO PUSH2 0x208 JUMPI PUSH0 PUSH0 REVERT JUMPDEST POP PUSH2 0x223 PUSH1 0x4 DUP1 CALLDATASIZE SUB DUP2 ADD SWAP1 PUSH2 0x21E SWAP2 SWAP1 PUSH2 0x14E9 JUMP JUMPDEST PUSH2 0x682 JUMP JUMPDEST STOP JUMPDEST CALLVALUE DUP1 ISZERO PUSH2 0x230 JUMPI PUSH0 PUSH0 REVERT JUMPDEST POP PUSH2 0x239 PUSH2 0x767 JUMP JUMPDEST PUSH1 0x40 MLOAD PUSH2 0x246 SWAP2 SWAP1 PUSH2 0x156F JUMP JUMPDEST PUSH1 0x40 MLOAD DUP1 SWAP2 SUB SWAP1 RETURN JUMPDEST CALLVALUE DUP1 ISZERO PUSH2 0x25A JUMPI PUSH0 PUSH0 REVERT JUMPDEST POP PUSH2 0x275 PUSH1 0x4 DUP1 CALLDATASIZE SUB DUP2 ADD SWAP1 PUSH2 0x270 SWAP2 SWAP1 PUSH2 0x1431 JUMP JUMPDEST PUSH2 0x78B JUMP JUMPDEST PUSH1 0x40 MLOAD PUSH2 0x282 SWAP2 SWAP1 PUSH2 0x1476 JUMP JUMPDEST PUSH1 0x40 MLOAD DUP1 SWAP2 SUB SWAP1 RETURN JUMPDEST CALLVALUE DUP1 ISZERO PUSH2 0x296 JUMPI PUSH0 PUSH0 REVERT JUMPDEST POP PUSH2 0x29F PUSH2 0x7A8 JUMP JUMPDEST PUSH1 0x40 MLOAD PUSH2 0x2AC SWAP2 SWAP1 PUSH2 0x13E6 JUMP JUMPDEST PUSH1 0x40 MLOAD DUP1 SWAP2 SUB SWAP1 RETURN JUMPDEST CALLVALUE DUP1 ISZERO PUSH2 0x2C0 JUMPI PUSH0 PUSH0 REVERT JUMPDEST POP PUSH2 0x2DB PUSH1 0x4 DUP1 CALLDATASIZE SUB DUP2 ADD SWAP1 PUSH2 0x2D6 SWAP2 SWAP1 PUSH2 0x1431 JUMP JUMPDEST PUSH2 0x7AE JUMP JUMPDEST PUSH1 0x40 MLOAD PUSH2 0x2E8 SWAP2 SWAP1 PUSH2 0x15F8 JUMP JUMPDEST PUSH1 0x40 MLOAD DUP1 SWAP2 SUB SWAP1 RETURN JUMPDEST CALLVALUE DUP1 ISZERO PUSH2 0x2FC JUMPI PUSH0 PUSH0 REVERT JUMPDEST POP PUSH2 0x305 PUSH2 0x84E JUMP JUMPDEST PUSH1 0x40 MLOAD PUSH2 0x312 SWAP2 SWAP1 PUSH2 0x13E6 JUMP JUMPDEST PUSH1 0x40 MLOAD DUP1 SWAP2 SUB SWAP1 RETURN JUMPDEST CALLVALUE DUP1 ISZERO PUSH2 0x326 JUMPI PUSH0 PUSH0 REVERT JUMPDEST POP PUSH2 0x32F PUSH2 0x85A JUMP JUMPDEST PUSH1 0x40 MLOAD PUSH2 0x33C SWAP2 SWAP1 PUSH2 0x1627 JUMP JUMPDEST PUSH1 0x40 MLOAD DUP1 SWAP2 SUB SWAP1 RETURN JUMPDEST CALLVALUE DUP1 ISZERO PUSH2 0x350 JUMPI PUSH0 PUSH0 REVERT JUMPDEST POP PUSH2 0x36B PUSH1 0x4 DUP1 CALLDATASIZE SUB DUP2 ADD SWAP1 PUSH2 0x366 SWAP2 SWAP1 PUSH2 0x166A JUMP JUMPDEST PUSH2 0x87E JUMP JUMPDEST PUSH1 0x40 MLOAD PUSH2 0x378 SWAP2 SWAP1 PUSH2 0x16A4 JUMP JUMPDEST PUSH1 0x40 MLOAD DUP1 SWAP2 SUB SWAP1 RETURN JUMPDEST CALLVALUE DUP1 ISZERO PUSH2 0x38C JUMPI PUSH0 PUSH0 REVERT JUMPDEST POP PUSH2 0x3A7 PUSH1 0x4 DUP1 CALLDATASIZE SUB DUP2 ADD SWAP1 PUSH2 0x3A2 SWAP2 SWAP1 PUSH2 0x1759 JUMP JUMPDEST PUSH2 0x8C1 JUMP JUMPDEST STOP JUMPDEST CALLVALUE DUP1 ISZERO PUSH2 0x3B4 JUMPI PUSH0 PUSH0 REVERT JUMPDEST POP PUSH2 0x3BD PUSH2 0xC84 JUMP JUMPDEST PUSH1 0x40 MLOAD PUSH2 0x3CA SWAP2 SWAP1 PUSH2 0x17FD JUMP JUMPDEST PUSH1 0x40 MLOAD DUP1 SWAP2 SUB SWAP1 RETURN JUMPDEST PUSH2 0x3ED PUSH1 0x4 DUP1 CALLDATASIZE SUB DUP2 ADD SWAP1 PUSH2 0x3E8 SWAP2 SWAP1 PUSH2 0x1816 JUMP JUMPDEST PUSH2 0xCA8 JUMP JUMPDEST STOP JUMPDEST CALLVALUE DUP1 ISZERO PUSH2 0x3FA JUMPI PUSH0 PUSH0 REVERT JUMPDEST POP PUSH2 0x415 PUSH1 0x4 DUP1 CALLDATASIZE SUB DUP2 ADD SWAP1 PUSH2 0x410 SWAP2 SWAP1 PUSH2 0x1431 JUMP JUMPDEST PUSH2 0x113C JUMP JUMPDEST PUSH1 0x40 MLOAD PUSH2 0x422 SWAP2 SWAP1 PUSH2 0x1476 JUMP JUMPDEST PUSH1 0x40 MLOAD DUP1 SWAP2 SUB SWAP1 RETURN JUMPDEST CALLVALUE DUP1 ISZERO PUSH2 0x436 JUMPI PUSH0 PUSH0 REVERT JUMPDEST POP PUSH2 0x451 PUSH1 0x4 DUP1 CALLDATASIZE SUB DUP2 ADD SWAP1 PUSH2 0x44C SWAP2 SWAP1 PUSH2 0x189D JUMP JUMPDEST PUSH2 0x1162 JUMP JUMPDEST PUSH1 0x40 MLOAD PUSH2 0x45E SWAP2 SWAP1 PUSH2 0x16A4 JUMP JUMPDEST PUSH1 0x40 MLOAD DUP1 SWAP2 SUB SWAP1 RETURN JUMPDEST CALLVALUE DUP1 ISZERO PUSH2 0x472 JUMPI PUSH0 PUSH0 REVERT JUMPDEST POP PUSH2 0x47B PUSH2 0x117B JUMP JUMPDEST PUSH1 0x40 MLOAD PUSH2 0x488 SWAP2 SWAP1 PUSH2 0x13B5 JUMP JUMPDEST PUSH1 0x40 MLOAD DUP1 SWAP2 SUB SWAP1 RETURN JUMPDEST CALLVALUE DUP1 ISZERO PUSH2 0x49C JUMPI PUSH0 PUSH0 REVERT JUMPDEST POP PUSH2 0x4B7 PUSH1 0x4 DUP1 CALLDATASIZE SUB DUP2 ADD SWAP1 PUSH2 0x4B2 SWAP2 SWAP1 PUSH2 0x189D JUMP JUMPDEST PUSH2 0x1180 JUMP JUMPDEST PUSH1 0x40 MLOAD PUSH2 0x4C4 SWAP2 SWAP1 PUSH2 0x16A4 JUMP JUMPDEST PUSH1 0x40 MLOAD DUP1 SWAP2 SUB SWAP1 RETURN JUMPDEST CALLVALUE DUP1 ISZERO PUSH2 0x4D8 JUMPI PUSH0 PUSH0 REVERT JUMPDEST POP PUSH2 0x4F3 PUSH1 0x4 DUP1 CALLDATASIZE SUB DUP2 ADD SWAP1 PUSH2 0x4EE SWAP2 SWAP1 PUSH2 0x14E9 JUMP JUMPDEST PUSH2 0x1199 JUMP JUMPDEST STOP JUMPDEST CALLVALUE DUP1 ISZERO PUSH2 0x500 JUMPI PUSH0 PUSH0 REVERT JUMPDEST POP PUSH2 0x509 PUSH2 0x127F JUMP JUMPDEST PUSH1 0x40 MLOAD PUSH2 0x516 SWAP2 SWAP1 PUSH2 0x13B5 JUMP JUMPDEST PUSH1 0x40 MLOAD DUP1 SWAP2 SUB SWAP1 RETURN JUMPDEST CALLVALUE DUP1 ISZERO PUSH2 0x52A JUMPI PUSH0 PUSH0 REVERT JUMPDEST POP PUSH2 0x533 PUSH2 0x1294 JUMP JUMPDEST PUSH1 0x40 MLOAD PUSH2 0x540 SWAP2 SWAP1 PUSH2 0x16A4 JUMP JUMPDEST PUSH1 0x40 MLOAD DUP1 SWAP2 SUB SWAP1 RETURN JUMPDEST CALLVALUE DUP1 ISZERO PUSH2 0x554 JUMPI PUSH0 PUSH0 REVERT JUMPDEST POP PUSH2 0x56F PUSH1 0x4 DUP1 CALLDATASIZE SUB DUP2 ADD SWAP1 PUSH2 0x56A SWAP2 SWAP1 PUSH2 0x14E9 JUMP JUMPDEST PUSH2 0x129A JUMP JUMPDEST PUSH1 0x40 MLOAD PUSH2 0x57C SWAP2 SWAP1 PUSH2 0x1476 JUMP JUMPDEST PUSH1 0x40 MLOAD DUP1 SWAP2 SUB SWAP1 RETURN JUMPDEST PUSH1 0x60 PUSH0 PUSH1 0x14 PUSH4 0xFFFFFFFF AND PUSH8 0xFFFFFFFFFFFFFFFF DUP2 GT ISZERO PUSH2 0x5A9 JUMPI PUSH2 0x5A8 PUSH2 0x18C8 JUMP JUMPDEST JUMPDEST PUSH1 0x40 MLOAD SWAP1 DUP1 DUP3 MSTORE DUP1 PUSH1 0x20 MUL PUSH1 0x20 ADD DUP3 ADD PUSH1 0x40 MSTORE DUP1 ISZERO PUSH2 0x5D7 JUMPI DUP2 PUSH1 0x20 ADD PUSH1 0x20 DUP3 MUL DUP1 CALLDATASIZE DUP4 CALLDATACOPY DUP1 DUP3 ADD SWAP2 POP POP SWAP1 POP JUMPDEST POP SWAP1 POP PUSH0 PUSH0 SWAP1 POP JUMPDEST PUSH1 0x14 PUSH4 0xFFFFFFFF AND DUP2 PUSH4 0xFFFFFFFF AND LT ISZERO PUSH2 0x642 JUMPI PUSH1 0x16 DUP2 PUSH4 0xFFFFFFFF AND PUSH1 0x14 DUP2 LT PUSH2 0x60E JUMPI PUSH2 0x60D PUSH2 0x18F5 JUMP JUMPDEST JUMPDEST ADD SLOAD DUP3 DUP3 PUSH4 0xFFFFFFFF AND DUP2 MLOAD DUP2 LT PUSH2 0x629 JUMPI PUSH2 0x628 PUSH2 0x18F5 JUMP JUMPDEST JUMPDEST PUSH1 0x20 MUL PUSH1 0x20 ADD ADD DUP2 DUP2 MSTORE POP POP DUP1 DUP1 PUSH1 0x1 ADD SWAP2 POP POP PUSH2 0x5DF JUMP JUMPDEST POP DUP1 SWAP2 POP POP SWAP1 JUMP JUMPDEST PUSH1 0x14 PUSH4 0xFFFFFFFF AND PUSH1 0x1 SWAP1 SHL DUP2 JUMP JUMPDEST PUSH8 0x16345785D8A0000 DUP2 JUMP JUMPDEST PUSH1 0x2C PUSH1 0x20 MSTORE DUP1 PUSH0 MSTORE PUSH1 0x40 PUSH0 KECCAK256 PUSH0 SWAP2 POP SLOAD SWAP1 PUSH2 0x100 EXP SWAP1 DIV PUSH1 0xFF AND DUP2 JUMP JUMPDEST PUSH0 PUSH0 SWAP1 SLOAD SWAP1 PUSH2 0x100 EXP SWAP1 DIV PUSH20 0xFFFFFFFFFFFFFFFFFFFFFFFFFFFFFFFFFFFFFFFF AND PUSH20 0xFFFFFFFFFFFFFFFFFFFFFFFFFFFFFFFFFFFFFFFF AND CALLER PUSH20 0xFFFFFFFFFFFFFFFFFFFFFFFFFFFFFFFFFFFFFFFF AND EQ PUSH2 0x710 JUMPI PUSH1 0x40 MLOAD PUSH32 0x8C379A000000000000000000000000000000000000000000000000000000000 DUP2 MSTORE PUSH1 0x4 ADD PUSH2 0x707 SWAP1 PUSH2 0x19A2 JUMP JUMPDEST PUSH1 0x40 MLOAD DUP1 SWAP2 SUB SWAP1 REVERT JUMPDEST PUSH0 PUSH1 0x2E PUSH0 DUP4 PUSH20 0xFFFFFFFFFFFFFFFFFFFFFFFFFFFFFFFFFFFFFFFF AND PUSH20 0xFFFFFFFFFFFFFFFFFFFFFFFFFFFFFFFFFFFFFFFF AND DUP2 MSTORE PUSH1 0x20 ADD SWAP1 DUP2 MSTORE PUSH1 0x20 ADD PUSH0 KECCAK256 PUSH0 PUSH2 0x100 EXP DUP2 SLOAD DUP2 PUSH1 0xFF MUL NOT AND SWAP1 DUP4 ISZERO ISZERO MUL OR SWAP1 SSTORE POP POP JUMP JUMPDEST PUSH32 0x0 DUP2 JUMP JUMPDEST PUSH1 0x2D PUSH1 0x20 MSTORE DUP1 PUSH0 MSTORE PUSH1 0x40 PUSH0 KECCAK256 PUSH0 SWAP2 POP SLOAD SWAP1 PUSH2 0x100 EXP SWAP1 DIV PUSH1 0xFF AND DUP2 JUMP JUMPDEST PUSH1 0x1 SLOAD DUP2 JUMP JUMPDEST PUSH1 0x2F PUSH1 0x20 MSTORE DUP1 PUSH0 MSTORE PUSH1 0x40 PUSH0 KECCAK256 PUSH0 SWAP2 POP SWAP1 POP DUP1 PUSH0 ADD DUP1 SLOAD PUSH2 0x7CD SWAP1 PUSH2 0x19ED JUMP JUMPDEST DUP1 PUSH1 0x1F ADD PUSH1 0x20 DUP1 SWAP2 DIV MUL PUSH1 0x20 ADD PUSH1 0x40 MLOAD SWAP1 DUP2 ADD PUSH1 0x40 MSTORE DUP1 SWAP3 SWAP2 SWAP1 DUP2 DUP2 MSTORE PUSH1 0x20 ADD DUP3 DUP1 SLOAD PUSH2 0x7F9 SWAP1 PUSH2 0x19ED JUMP JUMPDEST DUP1 ISZERO PUSH2 0x844 JUMPI DUP1 PUSH1 0x1F LT PUSH2 0x81B JUMPI PUSH2 0x100 DUP1 DUP4 SLOAD DIV MUL DUP4 MSTORE SWAP2 PUSH1 0x20 ADD SWAP2 PUSH2 0x844 JUMP JUMPDEST DUP3 ADD SWAP2 SWAP1 PUSH0 MSTORE PUSH1 0x20 PUSH0 KECCAK256 SWAP1 JUMPDEST DUP2 SLOAD DUP2 MSTORE SWAP1 PUSH1 0x1 ADD SWAP1 PUSH1 0x20 ADD DUP1 DUP4 GT PUSH2 0x827 JUMPI DUP3 SWAP1 SUB PUSH1 0x1F AND DUP3 ADD SWAP2 JUMPDEST POP POP POP POP POP SWAP1 POP DUP2 JUMP JUMPDEST PUSH8 0xDE0B6B3A7640000 DUP2 JUMP JUMPDEST PUSH0 PUSH0 SWAP1 SLOAD SWAP1 PUSH2 0x100 EXP SWAP1 DIV PUSH20 0xFFFFFFFFFFFFFFFFFFFFFFFFFFFFFFFFFFFFFFFF AND DUP2 JUMP JUMPDEST PUSH0 PUSH1 0x14 PUSH4 0xFFFFFFFF AND DUP3 PUSH4 0xFFFFFFFF AND LT PUSH2 0x89D JUMPI PUSH0 PUSH0 SHL SWAP1 POP PUSH2 0x8BC JUMP JUMPDEST PUSH1 0x16 DUP3 PUSH4 0xFFFFFFFF AND PUSH1 0x14 DUP2 LT PUSH2 0x8B7 JUMPI PUSH2 0x8B6 PUSH2 0x18F5 JUMP JUMPDEST JUMPDEST ADD SLOAD SWAP1 POP JUMPDEST SWAP2 SWAP1 POP JUMP JUMPDEST PUSH1 0x2E PUSH0 CALLER PUSH20 0xFFFFFFFFFFFFFFFFFFFFFFFFFFFFFFFFFFFFFFFF AND PUSH20 0xFFFFFFFFFFFFFFFFFFFFFFFFFFFFFFFFFFFFFFFF AND DUP2 MSTORE PUSH1 0x20 ADD SWAP1 DUP2 MSTORE PUSH1 0x20 ADD PUSH0 KECCAK256 PUSH0 SWAP1 SLOAD SWAP1 PUSH2 0x100 EXP SWAP1 DIV PUSH1 0xFF AND ISZERO PUSH2 0x94B JUMPI PUSH1 0x40 MLOAD PUSH32 0x8C379A000000000000000000000000000000000000000000000000000000000 DUP2 MSTORE PUSH1 0x4 ADD PUSH2 0x942 SWAP1 PUSH2 0x1A67 JUMP JUMPDEST PUSH1 0x40 MLOAD DUP1 SWAP2 SUB SWAP1 REVERT JUMPDEST PUSH1 0x2C PUSH0 DUP4 DUP2 MSTORE PUSH1 0x20 ADD SWAP1 DUP2 MSTORE PUSH1 0x20 ADD PUSH0 KECCAK256 PUSH0 SWAP1 SLOAD SWAP1 PUSH2 0x100 EXP SWAP1 DIV PUSH1 0xFF AND ISZERO PUSH2 0x9A0 JUMPI PUSH1 0x40 MLOAD PUSH32 0xCAD2AE0200000000000000000000000000000000000000000000000000000000 DUP2 MSTORE PUSH1 0x4 ADD PUSH1 0x40 MLOAD DUP1 SWAP2 SUB SWAP1 REVERT JUMPDEST PUSH1 0x2D PUSH0 DUP5 DUP2 MSTORE PUSH1 0x20 ADD SWAP1 DUP2 MSTORE PUSH1 0x20 ADD PUSH0 KECCAK256 PUSH0 SWAP1 SLOAD SWAP1 PUSH2 0x100 EXP SWAP1 DIV PUSH1 0xFF AND PUSH2 0x9F4 JUMPI PUSH1 0x40 MLOAD PUSH32 0x8C52011600000000000000000000000000000000000000000000000000000000 DUP2 MSTORE PUSH1 0x4 ADD PUSH1 0x40 MLOAD DUP1 SWAP2 SUB SWAP1 REVERT JUMPDEST PUSH0 PUSH1 0x2 PUSH8 0xFFFFFFFFFFFFFFFF DUP2 GT ISZERO PUSH2 0xA10 JUMPI PUSH2 0xA0F PUSH2 0x18C8 JUMP JUMPDEST JUMPDEST PUSH1 0x40 MLOAD SWAP1 DUP1 DUP3 MSTORE DUP1 PUSH1 0x20 MUL PUSH1 0x20 ADD DUP3 ADD PUSH1 0x40 MSTORE DUP1 ISZERO PUSH2 0xA3E JUMPI DUP2 PUSH1 0x20 ADD PUSH1 0x20 DUP3 MUL DUP1 CALLDATASIZE DUP4 CALLDATACOPY DUP1 DUP3 ADD SWAP2 POP POP SWAP1 POP JUMPDEST POP SWAP1 POP DUP4 DUP2 PUSH0 DUP2 MLOAD DUP2 LT PUSH2 0xA55 JUMPI PUSH2 0xA54 PUSH2 0x18F5 JUMP JUMPDEST JUMPDEST PUSH1 0x20 MUL PUSH1 0x20 ADD ADD DUP2 DUP2 MSTORE POP POP DUP3 DUP2 PUSH1 0x1 DUP2 MLOAD DUP2 LT PUSH2 0xA76 JUMPI PUSH2 0xA75 PUSH2 0x18F5 JUMP JUMPDEST JUMPDEST PUSH1 0x20 MUL PUSH1 0x20 ADD ADD DUP2 DUP2 MSTORE POP POP PUSH32 0x0 PUSH20 0xFFFFFFFFFFFFFFFFFFFFFFFFFFFFFFFFFFFFFFFF AND PUSH4 0xEA50D0E4 DUP8 DUP8 DUP5 PUSH1 0x40 MLOAD DUP5 PUSH4 0xFFFFFFFF AND PUSH1 0xE0 SHL DUP2 MSTORE PUSH1 0x4 ADD PUSH2 0xADF SWAP4 SWAP3 SWAP2 SWAP1 PUSH2 0x1ABF JUMP JUMPDEST PUSH1 0x20 PUSH1 0x40 MLOAD DUP1 DUP4 SUB DUP2 DUP7 GAS STATICCALL ISZERO DUP1 ISZERO PUSH2 0xAFA JUMPI RETURNDATASIZE PUSH0 PUSH0 RETURNDATACOPY RETURNDATASIZE PUSH0 REVERT JUMPDEST POP POP POP POP PUSH1 0x40 MLOAD RETURNDATASIZE PUSH1 0x1F NOT PUSH1 0x1F DUP3 ADD AND DUP3 ADD DUP1 PUSH1 0x40 MSTORE POP DUP2 ADD SWAP1 PUSH2 0xB1E SWAP2 SWAP1 PUSH2 0x1B20 JUMP JUMPDEST PUSH2 0xB54 JUMPI PUSH1 0x40 MLOAD PUSH32 0x9BDE33900000000000000000000000000000000000000000000000000000000 DUP2 MSTORE PUSH1 0x4 ADD PUSH1 0x40 MLOAD DUP1 SWAP2 SUB SWAP1 REVERT JUMPDEST PUSH1 0x1 PUSH1 0x2C PUSH0 DUP6 DUP2 MSTORE PUSH1 0x20 ADD SWAP1 DUP2 MSTORE PUSH1 0x20 ADD PUSH0 KECCAK256 PUSH0 PUSH2 0x100 EXP DUP2 SLOAD DUP2 PUSH1 0xFF MUL NOT AND SWAP1 DUP4 ISZERO ISZERO MUL OR SWAP1 SSTORE POP PUSH0 DUP3 PUSH20 0xFFFFFFFFFFFFFFFFFFFFFFFFFFFFFFFFFFFFFFFF AND PUSH8 0xDE0B6B3A7640000 PUSH1 0x40 MLOAD PUSH2 0xBAA SWAP1 PUSH2 0x1B78 JUMP JUMPDEST PUSH0 PUSH1 0x40 MLOAD DUP1 DUP4 SUB DUP2 DUP6 DUP8 GAS CALL SWAP3 POP POP POP RETURNDATASIZE DUP1 PUSH0 DUP2 EQ PUSH2 0xBE4 JUMPI PUSH1 0x40 MLOAD SWAP2 POP PUSH1 0x1F NOT PUSH1 0x3F RETURNDATASIZE ADD AND DUP3 ADD PUSH1 0x40 MSTORE RETURNDATASIZE DUP3 MSTORE RETURNDATASIZE PUSH0 PUSH1 0x20 DUP5 ADD RETURNDATACOPY PUSH2 0xBE9 JUMP JUMPDEST PUSH1 0x60 SWAP2 POP JUMPDEST POP POP SWAP1 POP DUP1 PUSH2 0xC2D JUMPI PUSH1 0x40 MLOAD PUSH32 0x8C379A000000000000000000000000000000000000000000000000000000000 DUP2 MSTORE PUSH1 0x4 ADD PUSH2 0xC24 SWAP1 PUSH2 0x1BD6 JUMP JUMPDEST PUSH1 0x40 MLOAD DUP1 SWAP2 SUB SWAP1 REVERT JUMPDEST DUP3 PUSH20 0xFFFFFFFFFFFFFFFFFFFFFFFFFFFFFFFFFFFFFFFF AND PUSH32 0xCE490531F6C8AE2F1FF174643BC8B7ED5E52987AB50DC1E8F33655D2CD8C90B DUP6 PUSH1 0x40 MLOAD PUSH2 0xC73 SWAP2 SWAP1 PUSH2 0x16A4 JUMP JUMPDEST PUSH1 0x40 MLOAD DUP1 SWAP2 SUB SWAP1 LOG2 POP POP POP POP POP POP POP JUMP JUMPDEST PUSH32 0x0 DUP2 JUMP JUMPDEST PUSH1 0x2E PUSH0 CALLER PUSH20 0xFFFFFFFFFFFFFFFFFFFFFFFFFFFFFFFFFFFFFFFF AND PUSH20 0xFFFFFFFFFFFFFFFFFFFFFFFFFFFFFFFFFFFFFFFF AND DUP2 MSTORE PUSH1 0x20 ADD SWAP1 DUP2 MSTORE PUSH1 0x20 ADD PUSH0 KECCAK256 PUSH0 SWAP1 SLOAD SWAP1 PUSH2 0x100 EXP SWAP1 DIV PUSH1 0xFF AND ISZERO PUSH2 0xD32 JUMPI PUSH1 0x40 MLOAD PUSH32 0x8C379A000000000000000000000000000000000000000000000000000000000 DUP2 MSTORE PUSH1 0x4 ADD PUSH2 0xD29 SWAP1 PUSH2 0x1A67 JUMP JUMPDEST PUSH1 0x40 MLOAD DUP1 SWAP2 SUB SWAP1 REVERT JUMPDEST PUSH8 0xDE0B6B3A7640000 CALLVALUE EQ PUSH2 0xD73 JUMPI PUSH1 0x40 MLOAD PUSH32 0xF067B3C600000000000000000000000000000000000000000000000000000000 DUP2 MSTORE PUSH1 0x4 ADD PUSH1 0x40 MLOAD DUP1 SWAP2 SUB SWAP1 REVERT JUMPDEST PUSH1 0x14 PUSH4 0xFFFFFFFF AND PUSH1 0x1 SWAP1 SHL PUSH4 0xFFFFFFFF AND PUSH1 0x2B PUSH0 SWAP1 SLOAD SWAP1 PUSH2 0x100 EXP SWAP1 DIV PUSH4 0xFFFFFFFF AND PUSH4 0xFFFFFFFF AND LT PUSH2 0xDD4 JUMPI PUSH1 0x40 MLOAD PUSH32 0xED732D0C00000000000000000000000000000000000000000000000000000000 DUP2 MSTORE PUSH1 0x4 ADD PUSH1 0x40 MLOAD DUP1 SWAP2 SUB SWAP1 REVERT JUMPDEST PUSH0 PUSH1 0x2B PUSH0 SWAP1 SLOAD SWAP1 PUSH2 0x100 EXP SWAP1 DIV PUSH4 0xFFFFFFFF AND SWAP1 POP PUSH1 0x2B PUSH0 DUP2 DUP2 SWAP1 SLOAD SWAP1 PUSH2 0x100 EXP SWAP1 DIV PUSH4 0xFFFFFFFF AND DUP1 SWAP3 SWAP2 SWAP1 PUSH2 0xE0A SWAP1 PUSH2 0x1C21 JUMP JUMPDEST SWAP2 SWAP1 PUSH2 0x100 EXP DUP2 SLOAD DUP2 PUSH4 0xFFFFFFFF MUL NOT AND SWAP1 DUP4 PUSH4 0xFFFFFFFF AND MUL OR SWAP1 SSTORE POP POP PUSH0 DUP5 PUSH0 SHR SWAP1 POP PUSH0 PUSH0 SWAP1 POP JUMPDEST PUSH1 0x14 PUSH4 0xFFFFFFFF AND DUP2 PUSH4 0xFFFFFFFF AND LT ISZERO PUSH2 0x1031 JUMPI PUSH0 PUSH1 0x1 DUP5 AND PUSH4 0xFFFFFFFF AND SUB PUSH2 0xF4B JUMPI DUP2 PUSH0 SHL PUSH1 0x16 DUP3 PUSH4 0xFFFFFFFF AND PUSH1 0x14 DUP2 LT PUSH2 0xE76 JUMPI PUSH2 0xE75 PUSH2 0x18F5 JUMP JUMPDEST JUMPDEST ADD DUP2 SWAP1 SSTORE POP PUSH32 0x0 PUSH20 0xFFFFFFFFFFFFFFFFFFFFFFFFFFFFFFFFFFFFFFFF AND PUSH4 0x29A5F2F6 PUSH1 0x40 MLOAD DUP1 PUSH1 0x40 ADD PUSH1 0x40 MSTORE DUP1 DUP6 DUP2 MSTORE PUSH1 0x20 ADD PUSH1 0x2 DUP6 PUSH4 0xFFFFFFFF AND PUSH1 0x14 DUP2 LT PUSH2 0xEE2 JUMPI PUSH2 0xEE1 PUSH2 0x18F5 JUMP JUMPDEST JUMPDEST ADD SLOAD PUSH0 SHR DUP2 MSTORE POP PUSH1 0x40 MLOAD DUP3 PUSH4 0xFFFFFFFF AND PUSH1 0xE0 SHL DUP2 MSTORE PUSH1 0x4 ADD PUSH2 0xF05 SWAP2 SWAP1 PUSH2 0x1CF1 JUMP JUMPDEST PUSH1 0x20 PUSH1 0x40 MLOAD DUP1 DUP4 SUB DUP2 DUP7 GAS STATICCALL ISZERO DUP1 ISZERO PUSH2 0xF20 JUMPI RETURNDATASIZE PUSH0 PUSH0 RETURNDATACOPY RETURNDATASIZE PUSH0 REVERT JUMPDEST POP POP POP POP PUSH1 0x40 MLOAD RETURNDATASIZE PUSH1 0x1F NOT PUSH1 0x1F DUP3 ADD AND DUP3 ADD DUP1 PUSH1 0x40 MSTORE POP DUP2 ADD SWAP1 PUSH2 0xF44 SWAP2 SWAP1 PUSH2 0x1D1E JUMP JUMPDEST SWAP2 POP PUSH2 0x1017 JUMP JUMPDEST PUSH32 0x0 PUSH20 0xFFFFFFFFFFFFFFFFFFFFFFFFFFFFFFFFFFFFFFFF AND PUSH4 0x29A5F2F6 PUSH1 0x40 MLOAD DUP1 PUSH1 0x40 ADD PUSH1 0x40 MSTORE DUP1 PUSH1 0x16 DUP6 PUSH4 0xFFFFFFFF AND PUSH1 0x14 DUP2 LT PUSH2 0xFAC JUMPI PUSH2 0xFAB PUSH2 0x18F5 JUMP JUMPDEST JUMPDEST ADD SLOAD PUSH0 SHR DUP2 MSTORE PUSH1 0x20 ADD DUP6 DUP2 MSTORE POP PUSH1 0x40 MLOAD DUP3 PUSH4 0xFFFFFFFF AND PUSH1 0xE0 SHL DUP2 MSTORE PUSH1 0x4 ADD PUSH2 0xFD5 SWAP2 SWAP1 PUSH2 0x1CF1 JUMP JUMPDEST PUSH1 0x20 PUSH1 0x40 MLOAD DUP1 DUP4 SUB DUP2 DUP7 GAS STATICCALL ISZERO DUP1 ISZERO PUSH2 0xFF0 JUMPI RETURNDATASIZE PUSH0 PUSH0 RETURNDATACOPY RETURNDATASIZE PUSH0 REVERT JUMPDEST POP POP POP POP PUSH1 0x40 MLOAD RETURNDATASIZE PUSH1 0x1F NOT PUSH1 0x1F DUP3 ADD AND DUP3 ADD DUP1 PUSH1 0x40 MSTORE POP DUP2 ADD SWAP1 PUSH2 0x1014 SWAP2 SWAP1 PUSH2 0x1D1E JUMP JUMPDEST SWAP2 POP JUMPDEST PUSH1 0x1 DUP4 PUSH4 0xFFFFFFFF AND SWAP1 SHR SWAP3 POP DUP1 DUP1 PUSH1 0x1 ADD SWAP2 POP POP PUSH2 0xE34 JUMP JUMPDEST POP DUP1 PUSH0 SHL PUSH1 0x2A DUP2 SWAP1 SSTORE POP PUSH1 0x1 PUSH1 0x2D PUSH0 PUSH1 0x2A SLOAD DUP2 MSTORE PUSH1 0x20 ADD SWAP1 DUP2 MSTORE PUSH1 0x20 ADD PUSH0 KECCAK256 PUSH0 PUSH2 0x100 EXP DUP2 SLOAD DUP2 PUSH1 0xFF MUL NOT AND SWAP1 DUP4 ISZERO ISZERO MUL OR SWAP1 SSTORE POP PUSH1 0x40 MLOAD DUP1 PUSH1 0x20 ADD PUSH1 0x40 MSTORE DUP1 DUP6 DUP6 DUP1 DUP1 PUSH1 0x1F ADD PUSH1 0x20 DUP1 SWAP2 DIV MUL PUSH1 0x20 ADD PUSH1 0x40 MLOAD SWAP1 DUP2 ADD PUSH1 0x40 MSTORE DUP1 SWAP4 SWAP3 SWAP2 SWAP1 DUP2 DUP2 MSTORE PUSH1 0x20 ADD DUP4 DUP4 DUP1 DUP3 DUP5 CALLDATACOPY PUSH0 DUP2 DUP5 ADD MSTORE PUSH1 0x1F NOT PUSH1 0x1F DUP3 ADD AND SWAP1 POP DUP1 DUP4 ADD SWAP3 POP POP POP POP POP POP POP DUP2 MSTORE POP PUSH1 0x2F PUSH0 DUP8 DUP2 MSTORE PUSH1 0x20 ADD SWAP1 DUP2 MSTORE PUSH1 0x20 ADD PUSH0 KECCAK256 PUSH0 DUP3 ADD MLOAD DUP2 PUSH0 ADD SWAP1 DUP2 PUSH2 0x10DC SWAP2 SWAP1 PUSH2 0x1EE0 JUMP JUMPDEST POP SWAP1 POP POP DUP5 PUSH32 0x84FC9EB8CD0A782A1D1734FBEED616BD0EF775F8B9BD437636B62D634FE4BAF3 PUSH1 0x1 PUSH1 0x2B PUSH0 SWAP1 SLOAD SWAP1 PUSH2 0x100 EXP SWAP1 DIV PUSH4 0xFFFFFFFF AND PUSH2 0x1120 SWAP2 SWAP1 PUSH2 0x1FAF JUMP JUMPDEST PUSH1 0x40 MLOAD PUSH2 0x112D SWAP2 SWAP1 PUSH2 0x13B5 JUMP JUMPDEST PUSH1 0x40 MLOAD DUP1 SWAP2 SUB SWAP1 LOG2 POP POP POP POP POP JUMP JUMPDEST PUSH0 PUSH1 0x2C PUSH0 DUP4 DUP2 MSTORE PUSH1 0x20 ADD SWAP1 DUP2 MSTORE PUSH1 0x20 ADD PUSH0 KECCAK256 PUSH0 SWAP1 SLOAD SWAP1 PUSH2 0x100 EXP SWAP1 DIV PUSH1 0xFF AND SWAP1 POP SWAP2 SWAP1 POP JUMP JUMPDEST PUSH1 0x2 DUP2 PUSH1 0x14 DUP2 LT PUSH2 0x1171 JUMPI PUSH0 DUP1 REVERT JUMPDEST ADD PUSH0 SWAP2 POP SWAP1 POP SLOAD DUP2 JUMP JUMPDEST PUSH1 0x14 DUP2 JUMP JUMPDEST PUSH1 0x16 DUP2 PUSH1 0x14 DUP2 LT PUSH2 0x118F JUMPI PUSH0 DUP1 REVERT JUMPDEST ADD PUSH0 SWAP2 POP SWAP1 POP SLOAD DUP2 JUMP JUMPDEST PUSH0 PUSH0 SWAP1 SLOAD SWAP1 PUSH2 0x100 EXP SWAP1 DIV PUSH20 0xFFFFFFFFFFFFFFFFFFFFFFFFFFFFFFFFFFFFFFFF AND PUSH20 0xFFFFFFFFFFFFFFFFFFFFFFFFFFFFFFFFFFFFFFFF AND CALLER PUSH20 0xFFFFFFFFFFFFFFFFFFFFFFFFFFFFFFFFFFFFFFFF AND EQ PUSH2 0x1227 JUMPI PUSH1 0x40 MLOAD PUSH32 0x8C379A000000000000000000000000000000000000000000000000000000000 DUP2 MSTORE PUSH1 0x4 ADD PUSH2 0x121E SWAP1 PUSH2 0x19A2 JUMP JUMPDEST PUSH1 0x40 MLOAD DUP1 SWAP2 SUB SWAP1 REVERT JUMPDEST PUSH1 0x1 PUSH1 0x2E PUSH0 DUP4 PUSH20 0xFFFFFFFFFFFFFFFFFFFFFFFFFFFFFFFFFFFFFFFF AND PUSH20 0xFFFFFFFFFFFFFFFFFFFFFFFFFFFFFFFFFFFFFFFF AND DUP2 MSTORE PUSH1 0x20 ADD SWAP1 DUP2 MSTORE PUSH1 0x20 ADD PUSH0 KECCAK256 PUSH0 PUSH2 0x100 EXP DUP2 SLOAD DUP2 PUSH1 0xFF MUL NOT AND SWAP1 DUP4 ISZERO ISZERO MUL OR SWAP1 SSTORE POP POP JUMP JUMPDEST PUSH1 0x2B PUSH0 SWAP1 SLOAD SWAP1 PUSH2 0x100 EXP SWAP1 DIV PUSH4 0xFFFFFFFF AND DUP2 JUMP JUMPDEST PUSH1 0x2A SLOAD DUP2 JUMP JUMPDEST PUSH1 0x2E PUSH1 0x20 MSTORE DUP1 PUSH0 MSTORE PUSH1 0x40 PUSH0 KECCAK256 PUSH0 SWAP2 POP SLOAD SWAP1 PUSH2 0x100 EXP SWAP1 DIV PUSH1 0xFF AND DUP2 JUMP JUMPDEST PUSH0 DUP2 MLOAD SWAP1 POP SWAP2 SWAP1 POP JUMP JUMPDEST PUSH0 DUP3 DUP3 MSTORE PUSH1 0x20 DUP3 ADD SWAP1 POP SWAP3 SWAP2 POP POP JUMP JUMPDEST PUSH0 DUP2 SWAP1 POP PUSH1 0x20 DUP3 ADD SWAP1 POP SWAP2 SWAP1 POP JUMP JUMPDEST PUSH0 DUP2 SWAP1 POP SWAP2 SWAP1 POP JUMP JUMPDEST PUSH2 0x12F2 DUP2 PUSH2 0x12E0 JUMP JUMPDEST DUP3 MSTORE POP POP JUMP JUMPDEST PUSH0 PUSH2 0x1303 DUP4 DUP4 PUSH2 0x12E9 JUMP JUMPDEST PUSH1 0x20 DUP4 ADD SWAP1 POP SWAP3 SWAP2 POP POP JUMP JUMPDEST PUSH0 PUSH1 0x20 DUP3 ADD SWAP1 POP SWAP2 SWAP1 POP JUMP JUMPDEST PUSH0 PUSH2 0x1325 DUP3 PUSH2 0x12B7 JUMP JUMPDEST PUSH2 0x132F DUP2 DUP6 PUSH2 0x12C1 JUMP JUMPDEST SWAP4 POP PUSH2 0x133A DUP4 PUSH2 0x12D1 JUMP JUMPDEST DUP1 PUSH0 JUMPDEST DUP4 DUP2 LT ISZERO PUSH2 0x136A JUMPI DUP2 MLOAD PUSH2 0x1351 DUP9 DUP3 PUSH2 0x12F8 JUMP JUMPDEST SWAP8 POP PUSH2 0x135C DUP4 PUSH2 0x130F JUMP JUMPDEST SWAP3 POP POP PUSH1 0x1 DUP2 ADD SWAP1 POP PUSH2 0x133D JUMP JUMPDEST POP DUP6 SWAP4 POP POP POP POP SWAP3 SWAP2 POP POP JUMP JUMPDEST PUSH0 PUSH1 0x20 DUP3 ADD SWAP1 POP DUP2 DUP2 SUB PUSH0 DUP4 ADD MSTORE PUSH2 0x138F DUP2 DUP5 PUSH2 0x131B JUMP JUMPDEST SWAP1 POP SWAP3 SWAP2 POP POP JUMP JUMPDEST PUSH0 PUSH4 0xFFFFFFFF DUP3 AND SWAP1 POP SWAP2 SWAP1 POP JUMP JUMPDEST PUSH2 0x13AF DUP2 PUSH2 0x1397 JUMP JUMPDEST DUP3 MSTORE POP POP JUMP JUMPDEST PUSH0 PUSH1 0x20 DUP3 ADD SWAP1 POP PUSH2 0x13C8 PUSH0 DUP4 ADD DUP5 PUSH2 0x13A6 JUMP JUMPDEST SWAP3 SWAP2 POP POP JUMP JUMPDEST PUSH0 DUP2 SWAP1 POP SWAP2 SWAP1 POP JUMP JUMPDEST PUSH2 0x13E0 DUP2 PUSH2 0x13CE JUMP JUMPDEST DUP3 MSTORE POP POP JUMP JUMPDEST PUSH0 PUSH1 0x20 DUP3 ADD SWAP1 POP PUSH2 0x13F9 PUSH0 DUP4 ADD DUP5 PUSH2 0x13D7 JUMP JUMPDEST SWAP3 SWAP2 POP POP JUMP JUMPDEST PUSH0 PUSH0 REVERT JUMPDEST PUSH0 PUSH0 REVERT JUMPDEST PUSH2 0x1410 DUP2 PUSH2 0x12E0 JUMP JUMPDEST DUP2 EQ PUSH2 0x141A JUMPI PUSH0 PUSH0 REVERT JUMPDEST POP JUMP JUMPDEST PUSH0 DUP2 CALLDATALOAD SWAP1 POP PUSH2 0x142B DUP2 PUSH2 0x1407 JUMP JUMPDEST SWAP3 SWAP2 POP POP JUMP JUMPDEST PUSH0 PUSH1 0x20 DUP3 DUP5 SUB SLT ISZERO PUSH2 0x1446 JUMPI PUSH2 0x1445 PUSH2 0x13FF JUMP JUMPDEST JUMPDEST PUSH0 PUSH2 0x1453 DUP5 DUP3 DUP6 ADD PUSH2 0x141D JUMP JUMPDEST SWAP2 POP POP SWAP3 SWAP2 POP POP JUMP JUMPDEST PUSH0 DUP2 ISZERO ISZERO SWAP1 POP SWAP2 SWAP1 POP JUMP JUMPDEST PUSH2 0x1470 DUP2 PUSH2 0x145C JUMP JUMPDEST DUP3 MSTORE POP POP JUMP JUMPDEST PUSH0 PUSH1 0x20 DUP3 ADD SWAP1 POP PUSH2 0x1489 PUSH0 DUP4 ADD DUP5 PUSH2 0x1467 JUMP JUMPDEST SWAP3 SWAP2 POP POP JUMP JUMPDEST PUSH0 PUSH20 0xFFFFFFFFFFFFFFFFFFFFFFFFFFFFFFFFFFFFFFFF DUP3 AND SWAP1 POP SWAP2 SWAP1 POP JUMP JUMPDEST PUSH0 PUSH2 0x14B8 DUP3 PUSH2 0x148F JUMP JUMPDEST SWAP1 POP SWAP2 SWAP1 POP JUMP JUMPDEST PUSH2 0x14C8 DUP2 PUSH2 0x14AE JUMP JUMPDEST DUP2 EQ PUSH2 0x14D2 JUMPI PUSH0 PUSH0 REVERT JUMPDEST POP JUMP JUMPDEST PUSH0 DUP2 CALLDATALOAD SWAP1 POP PUSH2 0x14E3 DUP2 PUSH2 0x14BF JUMP JUMPDEST SWAP3 SWAP2 POP POP JUMP JUMPDEST PUSH0 PUSH1 0x20 DUP3 DUP5 SUB SLT ISZERO PUSH2 0x14FE JUMPI PUSH2 0x14FD PUSH2 0x13FF JUMP JUMPDEST JUMPDEST PUSH0 PUSH2 0x150B DUP5 DUP3 DUP6 ADD PUSH2 0x14D5 JUMP JUMPDEST SWAP2 POP POP SWAP3 SWAP2 POP POP JUMP JUMPDEST PUSH0 DUP2 SWAP1 POP SWAP2 SWAP1 POP JUMP JUMPDEST PUSH0 PUSH2 0x1537 PUSH2 0x1532 PUSH2 0x152D DUP5 PUSH2 0x148F JUMP JUMPDEST PUSH2 0x1514 JUMP JUMPDEST PUSH2 0x148F JUMP JUMPDEST SWAP1 POP SWAP2 SWAP1 POP JUMP JUMPDEST PUSH0 PUSH2 0x1548 DUP3 PUSH2 0x151D JUMP JUMPDEST SWAP1 POP SWAP2 SWAP1 POP JUMP JUMPDEST PUSH0 PUSH2 0x1559 DUP3 PUSH2 0x153E JUMP JUMPDEST SWAP1 POP SWAP2 SWAP1 POP JUMP JUMPDEST PUSH2 0x1569 DUP2 PUSH2 0x154F JUMP JUMPDEST DUP3 MSTORE POP POP JUMP JUMPDEST PUSH0 PUSH1 0x20 DUP3 ADD SWAP1 POP PUSH2 0x1582 PUSH0 DUP4 ADD DUP5 PUSH2 0x1560 JUMP JUMPDEST SWAP3 SWAP2 POP POP JUMP JUMPDEST PUSH0 DUP2 MLOAD SWAP1 POP SWAP2 SWAP1 POP JUMP JUMPDEST PUSH0 DUP3 DUP3 MSTORE PUSH1 0x20 DUP3 ADD SWAP1 POP SWAP3 SWAP2 POP POP JUMP JUMPDEST DUP3 DUP2 DUP4 MCOPY PUSH0 DUP4 DUP4 ADD MSTORE POP POP POP JUMP JUMPDEST PUSH0 PUSH1 0x1F NOT PUSH1 0x1F DUP4 ADD AND SWAP1 POP SWAP2 SWAP1 POP JUMP JUMPDEST PUSH0 PUSH2 0x15CA DUP3 PUSH2 0x1588 JUMP JUMPDEST PUSH2 0x15D4 DUP2 DUP6 PUSH2 0x1592 JUMP JUMPDEST SWAP4 POP PUSH2 0x15E4 DUP2 DUP6 PUSH1 0x20 DUP7 ADD PUSH2 0x15A2 JUMP JUMPDEST PUSH2 0x15ED DUP2 PUSH2 0x15B0 JUMP JUMPDEST DUP5 ADD SWAP2 POP POP SWAP3 SWAP2 POP POP JUMP JUMPDEST PUSH0 PUSH1 0x20 DUP3 ADD SWAP1 POP DUP2 DUP2 SUB PUSH0 DUP4 ADD MSTORE PUSH2 0x1610 DUP2 DUP5 PUSH2 0x15C0 JUMP JUMPDEST SWAP1 POP SWAP3 SWAP2 POP POP JUMP JUMPDEST PUSH2 0x1621 DUP2 PUSH2 0x14AE JUMP JUMPDEST DUP3 MSTORE POP POP JUMP JUMPDEST PUSH0 PUSH1 0x20 DUP3 ADD SWAP1 POP PUSH2 0x163A PUSH0 DUP4 ADD DUP5 PUSH2 0x1618 JUMP JUMPDEST SWAP3 SWAP2 POP POP JUMP JUMPDEST PUSH2 0x1649 DUP2 PUSH2 0x1397 JUMP JUMPDEST DUP2 EQ PUSH2 0x1653 JUMPI PUSH0 PUSH0 REVERT JUMPDEST POP JUMP JUMPDEST PUSH0 DUP2 CALLDATALOAD SWAP1 POP PUSH2 0x1664 DUP2 PUSH2 0x1640 JUMP JUMPDEST SWAP3 SWAP2 POP POP JUMP JUMPDEST PUSH0 PUSH1 0x20 DUP3 DUP5 SUB SLT ISZERO PUSH2 0x167F JUMPI PUSH2 0x167E PUSH2 0x13FF JUMP JUMPDEST JUMPDEST PUSH0 PUSH2 0x168C DUP5 DUP3 DUP6 ADD PUSH2 0x1656 JUMP JUMPDEST SWAP2 POP POP SWAP3 SWAP2 POP POP JUMP JUMPDEST PUSH2 0x169E DUP2 PUSH2 0x12E0 JUMP JUMPDEST DUP3 MSTORE POP POP JUMP JUMPDEST PUSH0 PUSH1 0x20 DUP3 ADD SWAP1 POP PUSH2 0x16B7 PUSH0 DUP4 ADD DUP5 PUSH2 0x1695 JUMP JUMPDEST SWAP3 SWAP2 POP POP JUMP JUMPDEST PUSH0 PUSH0 REVERT JUMPDEST PUSH0 PUSH0 REVERT JUMPDEST PUSH0 PUSH0 REVERT JUMPDEST PUSH0 PUSH0 DUP4 PUSH1 0x1F DUP5 ADD SLT PUSH2 0x16DE JUMPI PUSH2 0x16DD PUSH2 0x16BD JUMP JUMPDEST JUMPDEST DUP3 CALLDATALOAD SWAP1 POP PUSH8 0xFFFFFFFFFFFFFFFF DUP2 GT ISZERO PUSH2 0x16FB JUMPI PUSH2 0x16FA PUSH2 0x16C1 JUMP JUMPDEST JUMPDEST PUSH1 0x20 DUP4 ADD SWAP2 POP DUP4 PUSH1 0x1 DUP3 MUL DUP4 ADD GT ISZERO PUSH2 0x1717 JUMPI PUSH2 0x1716 PUSH2 0x16C5 JUMP JUMPDEST JUMPDEST SWAP3 POP SWAP3 SWAP1 POP JUMP JUMPDEST PUSH0 PUSH2 0x1728 DUP3 PUSH2 0x148F JUMP JUMPDEST SWAP1 POP SWAP2 SWAP1 POP JUMP JUMPDEST PUSH2 0x1738 DUP2 PUSH2 0x171E JUMP JUMPDEST DUP2 EQ PUSH2 0x1742 JUMPI PUSH0 PUSH0 REVERT JUMPDEST POP JUMP JUMPDEST PUSH0 DUP2 CALLDATALOAD SWAP1 POP PUSH2 0x1753 DUP2 PUSH2 0x172F JUMP JUMPDEST SWAP3 SWAP2 POP POP JUMP JUMPDEST PUSH0 PUSH0 PUSH0 PUSH0 PUSH0 PUSH1 0x80 DUP7 DUP9 SUB SLT ISZERO PUSH2 0x1772 JUMPI PUSH2 0x1771 PUSH2 0x13FF JUMP JUMPDEST JUMPDEST PUSH0 DUP7 ADD CALLDATALOAD PUSH8 0xFFFFFFFFFFFFFFFF DUP2 GT ISZERO PUSH2 0x178F JUMPI PUSH2 0x178E PUSH2 0x1403 JUMP JUMPDEST JUMPDEST PUSH2 0x179B DUP9 DUP3 DUP10 ADD PUSH2 0x16C9 JUMP JUMPDEST SWAP6 POP SWAP6 POP POP PUSH1 0x20 PUSH2 0x17AE DUP9 DUP3 DUP10 ADD PUSH2 0x141D JUMP JUMPDEST SWAP4 POP POP PUSH1 0x40 PUSH2 0x17BF DUP9 DUP3 DUP10 ADD PUSH2 0x141D JUMP JUMPDEST SWAP3 POP POP PUSH1 0x60 PUSH2 0x17D0 DUP9 DUP3 DUP10 ADD PUSH2 0x1745 JUMP JUMPDEST SWAP2 POP POP SWAP3 SWAP6 POP SWAP3 SWAP6 SWAP1 SWAP4 POP JUMP JUMPDEST PUSH0 PUSH2 0x17E7 DUP3 PUSH2 0x153E JUMP JUMPDEST SWAP1 POP SWAP2 SWAP1 POP JUMP JUMPDEST PUSH2 0x17F7 DUP2 PUSH2 0x17DD JUMP JUMPDEST DUP3 MSTORE POP POP JUMP JUMPDEST PUSH0 PUSH1 0x20 DUP3 ADD SWAP1 POP PUSH2 0x1810 PUSH0 DUP4 ADD DUP5 PUSH2 0x17EE JUMP JUMPDEST SWAP3 SWAP2 POP POP JUMP JUMPDEST PUSH0 PUSH0 PUSH0 PUSH1 0x40 DUP5 DUP7 SUB SLT ISZERO PUSH2 0x182D JUMPI PUSH2 0x182C PUSH2 0x13FF JUMP JUMPDEST JUMPDEST PUSH0 PUSH2 0x183A DUP7 DUP3 DUP8 ADD PUSH2 0x141D JUMP JUMPDEST SWAP4 POP POP PUSH1 0x20 DUP5 ADD CALLDATALOAD PUSH8 0xFFFFFFFFFFFFFFFF DUP2 GT ISZERO PUSH2 0x185B JUMPI PUSH2 0x185A PUSH2 0x1403 JUMP JUMPDEST JUMPDEST PUSH2 0x1867 DUP7 DUP3 DUP8 ADD PUSH2 0x16C9 JUMP JUMPDEST SWAP3 POP SWAP3 POP POP SWAP3 POP SWAP3 POP SWAP3 JUMP JUMPDEST PUSH2 0x187C DUP2 PUSH2 0x13CE JUMP JUMPDEST DUP2 EQ PUSH2 0x1886 JUMPI PUSH0 PUSH0 REVERT JUMPDEST POP JUMP JUMPDEST PUSH0 DUP2 CALLDATALOAD SWAP1 POP PUSH2 0x1897 DUP2 PUSH2 0x1873 JUMP JUMPDEST SWAP3 SWAP2 POP POP JUMP JUMPDEST PUSH0 PUSH1 0x20 DUP3 DUP5 SUB SLT ISZERO PUSH2 0x18B2 JUMPI PUSH2 0x18B1 PUSH2 0x13FF JUMP JUMPDEST JUMPDEST PUSH0 PUSH2 0x18BF DUP5 DUP3 DUP6 ADD PUSH2 0x1889 JUMP JUMPDEST SWAP2 POP POP SWAP3 SWAP2 POP POP JUMP JUMPDEST PUSH32 0x4E487B7100000000000000000000000000000000000000000000000000000000 PUSH0 MSTORE PUSH1 0x41 PUSH1 0x4 MSTORE PUSH1 0x24 PUSH0 REVERT JUMPDEST PUSH32 0x4E487B7100000000000000000000000000000000000000000000000000000000 PUSH0 MSTORE PUSH1 0x32 PUSH1 0x4 MSTORE PUSH1 0x24 PUSH0 REVERT JUMPDEST PUSH0 DUP3 DUP3 MSTORE PUSH1 0x20 DUP3 ADD SWAP1 POP SWAP3 SWAP2 POP POP JUMP JUMPDEST PUSH32 0x6F6E6C79206F776E65722063616E2063616C6C20746869732066756E6374696F PUSH0 DUP3 ADD MSTORE PUSH32 0x6E00000000000000000000000000000000000000000000000000000000000000 PUSH1 0x20 DUP3 ADD MSTORE POP JUMP JUMPDEST PUSH0 PUSH2 0x198C PUSH1 0x21 DUP4 PUSH2 0x1922 JUMP JUMPDEST SWAP2 POP PUSH2 0x1997 DUP3 PUSH2 0x1932 JUMP JUMPDEST PUSH1 0x40 DUP3 ADD SWAP1 POP SWAP2 SWAP1 POP JUMP JUMPDEST PUSH0 PUSH1 0x20 DUP3 ADD SWAP1 POP DUP2 DUP2 SUB PUSH0 DUP4 ADD MSTORE PUSH2 0x19B9 DUP2 PUSH2 0x1980 JUMP JUMPDEST SWAP1 POP SWAP2 SWAP1 POP JUMP JUMPDEST PUSH32 0x4E487B7100000000000000000000000000000000000000000000000000000000 PUSH0 MSTORE PUSH1 0x22 PUSH1 0x4 MSTORE PUSH1 0x24 PUSH0 REVERT JUMPDEST PUSH0 PUSH1 0x2 DUP3 DIV SWAP1 POP PUSH1 0x1 DUP3 AND DUP1 PUSH2 0x1A04 JUMPI PUSH1 0x7F DUP3 AND SWAP2 POP JUMPDEST PUSH1 0x20 DUP3 LT DUP2 SUB PUSH2 0x1A17 JUMPI PUSH2 0x1A16 PUSH2 0x19C0 JUMP JUMPDEST JUMPDEST POP SWAP2 SWAP1 POP JUMP JUMPDEST PUSH32 0x7468697320616464726573732069732073616E6374696F6E6564000000000000 PUSH0 DUP3 ADD MSTORE POP JUMP JUMPDEST PUSH0 PUSH2 0x1A51 PUSH1 0x1A DUP4 PUSH2 0x1922 JUMP JUMPDEST SWAP2 POP PUSH2 0x1A5C DUP3 PUSH2 0x1A1D JUMP JUMPDEST PUSH1 0x20 DUP3 ADD SWAP1 POP SWAP2 SWAP1 POP JUMP JUMPDEST PUSH0 PUSH1 0x20 DUP3 ADD SWAP1 POP DUP2 DUP2 SUB PUSH0 DUP4 ADD MSTORE PUSH2 0x1A7E DUP2 PUSH2 0x1A45 JUMP JUMPDEST SWAP1 POP SWAP2 SWAP1 POP JUMP JUMPDEST DUP3 DUP2 DUP4 CALLDATACOPY PUSH0 DUP4 DUP4 ADD MSTORE POP POP POP JUMP JUMPDEST PUSH0 PUSH2 0x1A9E DUP4 DUP6 PUSH2 0x1592 JUMP JUMPDEST SWAP4 POP PUSH2 0x1AAB DUP4 DUP6 DUP5 PUSH2 0x1A85 JUMP JUMPDEST PUSH2 0x1AB4 DUP4 PUSH2 0x15B0 JUMP JUMPDEST DUP5 ADD SWAP1 POP SWAP4 SWAP3 POP POP POP JUMP JUMPDEST PUSH0 PUSH1 0x40 DUP3 ADD SWAP1 POP DUP2 DUP2 SUB PUSH0 DUP4 ADD MSTORE PUSH2 0x1AD8 DUP2 DUP6 DUP8 PUSH2 0x1A93 JUMP JUMPDEST SWAP1 POP DUP2 DUP2 SUB PUSH1 0x20 DUP4 ADD MSTORE PUSH2 0x1AEC DUP2 DUP5 PUSH2 0x131B JUMP JUMPDEST SWAP1 POP SWAP5 SWAP4 POP POP POP POP JUMP JUMPDEST PUSH2 0x1AFF DUP2 PUSH2 0x145C JUMP JUMPDEST DUP2 EQ PUSH2 0x1B09 JUMPI PUSH0 PUSH0 REVERT JUMPDEST POP JUMP JUMPDEST PUSH0 DUP2 MLOAD SWAP1 POP PUSH2 0x1B1A DUP2 PUSH2 0x1AF6 JUMP JUMPDEST SWAP3 SWAP2 POP POP JUMP JUMPDEST PUSH0 PUSH1 0x20 DUP3 DUP5 SUB SLT ISZERO PUSH2 0x1B35 JUMPI PUSH2 0x1B34 PUSH2 0x13FF JUMP JUMPDEST JUMPDEST PUSH0 PUSH2 0x1B42 DUP5 DUP3 DUP6 ADD PUSH2 0x1B0C JUMP JUMPDEST SWAP2 POP POP SWAP3 SWAP2 POP POP JUMP JUMPDEST PUSH0 DUP2 SWAP1 POP SWAP3 SWAP2 POP POP JUMP JUMPDEST POP JUMP JUMPDEST PUSH0 PUSH2 0x1B63 PUSH0 DUP4 PUSH2 0x1B4B JUMP JUMPDEST SWAP2 POP PUSH2 0x1B6E DUP3 PUSH2 0x1B55 JUMP JUMPDEST PUSH0 DUP3 ADD SWAP1 POP SWAP2 SWAP1 POP JUMP JUMPDEST PUSH0 PUSH2 0x1B82 DUP3 PUSH2 0x1B58 JUMP JUMPDEST SWAP2 POP DUP2 SWAP1 POP SWAP2 SWAP1 POP JUMP JUMPDEST PUSH32 0x4D4E54207472616E73666572206661696C656400000000000000000000000000 PUSH0 DUP3 ADD MSTORE POP JUMP JUMPDEST PUSH0 PUSH2 0x1BC0 PUSH1 0x13 DUP4 PUSH2 0x1922 JUMP JUMPDEST SWAP2 POP PUSH2 0x1BCB DUP3 PUSH2 0x1B8C JUMP JUMPDEST PUSH1 0x20 DUP3 ADD SWAP1 POP SWAP2 SWAP1 POP JUMP JUMPDEST PUSH0 PUSH1 0x20 DUP3 ADD SWAP1 POP DUP2 DUP2 SUB PUSH0 DUP4 ADD MSTORE PUSH2 0x1BED DUP2 PUSH2 0x1BB4 JUMP JUMPDEST SWAP1 POP SWAP2 SWAP1 POP JUMP JUMPDEST PUSH32 0x4E487B7100000000000000000000000000000000000000000000000000000000 PUSH0 MSTORE PUSH1 0x11 PUSH1 0x4 MSTORE PUSH1 0x24 PUSH0 REVERT JUMPDEST PUSH0 PUSH2 0x1C2B DUP3 PUSH2 0x1397 JUMP JUMPDEST SWAP2 POP PUSH4 0xFFFFFFFF DUP3 SUB PUSH2 0x1C41 JUMPI PUSH2 0x1C40 PUSH2 0x1BF4 JUMP JUMPDEST JUMPDEST PUSH1 0x1 DUP3 ADD SWAP1 POP SWAP2 SWAP1 POP JUMP JUMPDEST PUSH0 PUSH1 0x2 SWAP1 POP SWAP2 SWAP1 POP JUMP JUMPDEST PUSH0 DUP2 SWAP1 POP SWAP3 SWAP2 POP POP JUMP JUMPDEST PUSH0 DUP2 SWAP1 POP SWAP2 SWAP1 POP JUMP JUMPDEST PUSH2 0x1C72 DUP2 PUSH2 0x13CE JUMP JUMPDEST DUP3 MSTORE POP POP JUMP JUMPDEST PUSH0 PUSH2 0x1C83 DUP4 DUP4 PUSH2 0x1C69 JUMP JUMPDEST PUSH1 0x20 DUP4 ADD SWAP1 POP SWAP3 SWAP2 POP POP JUMP JUMPDEST PUSH0 PUSH1 0x20 DUP3 ADD SWAP1 POP SWAP2 SWAP1 POP JUMP JUMPDEST PUSH2 0x1CA4 DUP2 PUSH2 0x1C4C JUMP JUMPDEST PUSH2 0x1CAE DUP2 DUP5 PUSH2 0x1C56 JUMP JUMPDEST SWAP3 POP PUSH2 0x1CB9 DUP3 PUSH2 0x1C60 JUMP JUMPDEST DUP1 PUSH0 JUMPDEST DUP4 DUP2 LT ISZERO PUSH2 0x1CE9 JUMPI DUP2 MLOAD PUSH2 0x1CD0 DUP8 DUP3 PUSH2 0x1C78 JUMP JUMPDEST SWAP7 POP PUSH2 0x1CDB DUP4 PUSH2 0x1C8F JUMP JUMPDEST SWAP3 POP POP PUSH1 0x1 DUP2 ADD SWAP1 POP PUSH2 0x1CBC JUMP JUMPDEST POP POP POP POP POP POP JUMP JUMPDEST PUSH0 PUSH1 0x40 DUP3 ADD SWAP1 POP PUSH2 0x1D04 PUSH0 DUP4 ADD DUP5 PUSH2 0x1C9B JUMP JUMPDEST SWAP3 SWAP2 POP POP JUMP JUMPDEST PUSH0 DUP2 MLOAD SWAP1 POP PUSH2 0x1D18 DUP2 PUSH2 0x1873 JUMP JUMPDEST SWAP3 SWAP2 POP POP JUMP JUMPDEST PUSH0 PUSH1 0x20 DUP3 DUP5 SUB SLT ISZERO PUSH2 0x1D33 JUMPI PUSH2 0x1D32 PUSH2 0x13FF JUMP JUMPDEST JUMPDEST PUSH0 PUSH2 0x1D40 DUP5 DUP3 DUP6 ADD PUSH2 0x1D0A JUMP JUMPDEST SWAP2 POP POP SWAP3 SWAP2 POP POP JUMP JUMPDEST PUSH0 DUP2 SWAP1 POP DUP2 PUSH0 MSTORE PUSH1 0x20 PUSH0 KECCAK256 SWAP1 POP SWAP2 SWAP1 POP JUMP JUMPDEST PUSH0 PUSH1 0x20 PUSH1 0x1F DUP4 ADD DIV SWAP1 POP SWAP2 SWAP1 POP JUMP JUMPDEST PUSH0 DUP3 DUP3 SHL SWAP1 POP SWAP3 SWAP2 POP POP JUMP JUMPDEST PUSH0 PUSH1 0x8 DUP4 MUL PUSH2 0x1DA5 PUSH32 0xFFFFFFFFFFFFFFFFFFFFFFFFFFFFFFFFFFFFFFFFFFFFFFFFFFFFFFFFFFFFFFFF DUP3 PUSH2 0x1D6A JUMP JUMPDEST PUSH2 0x1DAF DUP7 DUP4 PUSH2 0x1D6A JUMP JUMPDEST SWAP6 POP DUP1 NOT DUP5 AND SWAP4 POP DUP1 DUP7 AND DUP5 OR SWAP3 POP POP POP SWAP4 SWAP3 POP POP POP JUMP JUMPDEST PUSH0 PUSH2 0x1DE1 PUSH2 0x1DDC PUSH2 0x1DD7 DUP5 PUSH2 0x13CE JUMP JUMPDEST PUSH2 0x1514 JUMP JUMPDEST PUSH2 0x13CE JUMP JUMPDEST SWAP1 POP SWAP2 SWAP1 POP JUMP JUMPDEST PUSH0 DUP2 SWAP1 POP SWAP2 SWAP1 POP JUMP JUMPDEST PUSH2 0x1DFA DUP4 PUSH2 0x1DC7 JUMP JUMPDEST PUSH2 0x1E0E PUSH2 0x1E06 DUP3 PUSH2 0x1DE8 JUMP JUMPDEST DUP5 DUP5 SLOAD PUSH2 0x1D76 JUMP JUMPDEST DUP3 SSTORE POP POP POP POP JUMP JUMPDEST PUSH0 PUSH0 SWAP1 POP SWAP1 JUMP JUMPDEST PUSH2 0x1E25 PUSH2 0x1E16 JUMP JUMPDEST PUSH2 0x1E30 DUP2 DUP5 DUP5 PUSH2 0x1DF1 JUMP JUMPDEST POP POP POP JUMP JUMPDEST JUMPDEST DUP2 DUP2 LT ISZERO PUSH2 0x1E53 JUMPI PUSH2 0x1E48 PUSH0 DUP3 PUSH2 0x1E1D JUMP JUMPDEST PUSH1 0x1 DUP2 ADD SWAP1 POP PUSH2 0x1E36 JUMP JUMPDEST POP POP JUMP JUMPDEST PUSH1 0x1F DUP3 GT ISZERO PUSH2 0x1E98 JUMPI PUSH2 0x1E69 DUP2 PUSH2 0x1D49 JUMP JUMPDEST PUSH2 0x1E72 DUP5 PUSH2 0x1D5B JUMP JUMPDEST DUP2 ADD PUSH1 0x20 DUP6 LT ISZERO PUSH2 0x1E81 JUMPI DUP2 SWAP1 POP JUMPDEST PUSH2 0x1E95 PUSH2 0x1E8D DUP6 PUSH2 0x1D5B JUMP JUMPDEST DUP4 ADD DUP3 PUSH2 0x1E35 JUMP JUMPDEST POP POP JUMPDEST POP POP POP JUMP JUMPDEST PUSH0 DUP3 DUP3 SHR SWAP1 POP SWAP3 SWAP2 POP POP JUMP JUMPDEST PUSH0 PUSH2 0x1EB8 PUSH0 NOT DUP5 PUSH1 0x8 MUL PUSH2 0x1E9D JUMP JUMPDEST NOT DUP1 DUP4 AND SWAP2 POP POP SWAP3 SWAP2 POP POP JUMP JUMPDEST PUSH0 PUSH2 0x1ED0 DUP4 DUP4 PUSH2 0x1EA9 JUMP JUMPDEST SWAP2 POP DUP3 PUSH1 0x2 MUL DUP3 OR SWAP1 POP SWAP3 SWAP2 POP POP JUMP JUMPDEST PUSH2 0x1EE9 DUP3 PUSH2 0x1588 JUMP JUMPDEST PUSH8 0xFFFFFFFFFFFFFFFF DUP2 GT ISZERO PUSH2 0x1F02 JUMPI PUSH2 0x1F01 PUSH2 0x18C8 JUMP JUMPDEST JUMPDEST PUSH2 0x1F0C DUP3 SLOAD PUSH2 0x19ED JUMP JUMPDEST PUSH2 0x1F17 DUP3 DUP3 DUP6 PUSH2 0x1E57 JUMP JUMPDEST PUSH0 PUSH1 0x20 SWAP1 POP PUSH1 0x1F DUP4 GT PUSH1 0x1 DUP2 EQ PUSH2 0x1F48 JUMPI PUSH0 DUP5 ISZERO PUSH2 0x1F36 JUMPI DUP3 DUP8 ADD MLOAD SWAP1 POP JUMPDEST PUSH2 0x1F40 DUP6 DUP3 PUSH2 0x1EC5 JUMP JUMPDEST DUP7 SSTORE POP PUSH2 0x1FA7 JUMP JUMPDEST PUSH1 0x1F NOT DUP5 AND PUSH2 0x1F56 DUP7 PUSH2 0x1D49 JUMP JUMPDEST PUSH0 JUMPDEST DUP3 DUP2 LT ISZERO PUSH2 0x1F7D JUMPI DUP5 DUP10 ADD MLOAD DUP3 SSTORE PUSH1 0x1 DUP3 ADD SWAP2 POP PUSH1 0x20 DUP6 ADD SWAP5 POP PUSH1 0x20 DUP2 ADD SWAP1 POP PUSH2 0x1F58 JUMP JUMPDEST DUP7 DUP4 LT ISZERO PUSH2 0x1F9A JUMPI DUP5 DUP10 ADD MLOAD PUSH2 0x1F96 PUSH1 0x1F DUP10 AND DUP3 PUSH2 0x1EA9 JUMP JUMPDEST DUP4 SSTORE POP JUMPDEST PUSH1 0x1 PUSH1 0x2 DUP9 MUL ADD DUP9 SSTORE POP POP POP JUMPDEST POP POP POP POP POP POP JUMP JUMPDEST PUSH0 PUSH2 0x1FB9 DUP3 PUSH2 0x1397 JUMP JUMPDEST SWAP2 POP PUSH2 0x1FC4 DUP4 PUSH2 0x1397 JUMP JUMPDEST SWAP3 POP DUP3 DUP3 SUB SWAP1 POP PUSH4 0xFFFFFFFF DUP2 GT ISZERO PUSH2 0x1FE0 JUMPI PUSH2 0x1FDF PUSH2 0x1BF4 JUMP JUMPDEST JUMPDEST SWAP3 SWAP2 POP POP JUMP INVALID LOG2 PUSH5 0x6970667358 0x22 SLT KECCAK256 0x27 0xD2 PUSH29 0xE2970696C44326D967085048491EFDF78AA981DA89721D6CD4D5C5217 PUSH5 0x736F6C6343 STOP ADDMOD 0x1F STOP CALLER "
				},
				"gasEstimates": {
					"creation": {
						"codeDepositCost": "1644000",
						"executionCost": "infinite",
						"totalCost": "infinite"
					},
					"external": {
						"DENOMINATION()": "436",
						"MAX_LEAVES()": "392",
						"PROTOCOL_FEE()": "393",
						"TREE_DEPTH()": "353",
						"blacklist(address)": "27037",
						"currentRoot()": "2535",
						"deBlacklist(address)": "27082",
						"deposit(bytes32,bytes)": "infinite",
						"filledSubtrees(uint256)": "2766",
						"getAllFilledSubtrees()": "infinite",
						"getFilledSubtree(uint32)": "2793",
						"isBlacklisted(address)": "2965",
						"isSpent(bytes32)": "2921",
						"knownRoots(bytes32)": "2830",
						"nextIndex()": "2554",
						"notes(bytes32)": "infinite",
						"nullifierHashes(bytes32)": "2875",
						"owner()": "2640",
						"poseidon()": "infinite",
						"total_fees()": "2492",
						"verifier()": "infinite",
						"withdraw(bytes,bytes32,bytes32,address)": "infinite",
						"zeros(uint256)": "2855"
					}
				},
				"methodIdentifiers": {
					"DENOMINATION()": "8b01429d",
					"MAX_LEAVES()": "082febf0",
					"PROTOCOL_FEE()": "0b4501fd",
					"TREE_DEPTH()": "f1650536",
					"blacklist(address)": "f9f92be4",
					"currentRoot()": "fdab463d",
					"deBlacklist(address)": "1d84b0e8",
					"deposit(bytes32,bytes)": "e29973fc",
					"filledSubtrees(uint256)": "f178e47c",
					"getAllFilledSubtrees()": "04d65f11",
					"getFilledSubtree(uint32)": "9c6ad114",
					"isBlacklisted(address)": "fe575a87",
					"isSpent(bytes32)": "e5285dcc",
					"knownRoots(bytes32)": "4e73da7d",
					"nextIndex()": "fc7e9c6f",
					"notes(bytes32)": "85de26b7",
					"nullifierHashes(bytes32)": "17cc915c",
					"owner()": "8da5cb5b",
					"poseidon()": "c62b919e",
					"total_fees()": "77737f4b",
					"verifier()": "2b7ac3f3",
					"withdraw(bytes,bytes32,bytes32,address)": "b130eaa6",
					"zeros(uint256)": "e8295588"
				}
			},
			"storageLayout": {
				"storage": [
					{
						"astId": 64,
						"contract": "contracts/SwirlPrivatePool_withSanctions.sol:SwirlPrivatePool",
						"label": "owner",
						"offset": 0,
						"slot": "0",
						"type": "t_address"
					},
					{
						"astId": 67,
						"contract": "contracts/SwirlPrivatePool_withSanctions.sol:SwirlPrivatePool",
						"label": "total_fees",
						"offset": 0,
						"slot": "1",
						"type": "t_uint256"
					},
					{
						"astId": 77,
						"contract": "contracts/SwirlPrivatePool_withSanctions.sol:SwirlPrivatePool",
						"label": "zeros",
						"offset": 0,
						"slot": "2",
						"type": "t_array(t_bytes32)20_storage"
					},
					{
						"astId": 81,
						"contract": "contracts/SwirlPrivatePool_withSanctions.sol:SwirlPrivatePool",
						"label": "filledSubtrees",
						"offset": 0,
						"slot": "22",
						"type": "t_array(t_bytes32)20_storage"
					},
					{
						"astId": 83,
						"contract": "contracts/SwirlPrivatePool_withSanctions.sol:SwirlPrivatePool",
						"label": "currentRoot",
						"offset": 0,
						"slot": "42",
						"type": "t_bytes32"
					},
					{
						"astId": 85,
						"contract": "contracts/SwirlPrivatePool_withSanctions.sol:SwirlPrivatePool",
						"label": "nextIndex",
						"offset": 0,
						"slot": "43",
						"type": "t_uint32"
					},
					{
						"astId": 89,
						"contract": "contracts/SwirlPrivatePool_withSanctions.sol:SwirlPrivatePool",
						"label": "nullifierHashes",
						"offset": 0,
						"slot": "44",
						"type": "t_mapping(t_bytes32,t_bool)"
					},
					{
						"astId": 93,
						"contract": "contracts/SwirlPrivatePool_withSanctions.sol:SwirlPrivatePool",
						"label": "knownRoots",
						"offset": 0,
						"slot": "45",
						"type": "t_mapping(t_bytes32,t_bool)"
					},
					{
						"astId": 97,
						"contract": "contracts/SwirlPrivatePool_withSanctions.sol:SwirlPrivatePool",
						"label": "isBlacklisted",
						"offset": 0,
						"slot": "46",
						"type": "t_mapping(t_address,t_bool)"
					},
					{
						"astId": 105,
						"contract": "contracts/SwirlPrivatePool_withSanctions.sol:SwirlPrivatePool",
						"label": "notes",
						"offset": 0,
						"slot": "47",
						"type": "t_mapping(t_bytes32,t_struct(EncryptedNote)100_storage)"
					}
				],
				"types": {
					"t_address": {
						"encoding": "inplace",
						"label": "address",
						"numberOfBytes": "20"
					},
					"t_array(t_bytes32)20_storage": {
						"base": "t_bytes32",
						"encoding": "inplace",
						"label": "bytes32[20]",
						"numberOfBytes": "640"
					},
					"t_bool": {
						"encoding": "inplace",
						"label": "bool",
						"numberOfBytes": "1"
					},
					"t_bytes32": {
						"encoding": "inplace",
						"label": "bytes32",
						"numberOfBytes": "32"
					},
					"t_bytes_storage": {
						"encoding": "bytes",
						"label": "bytes",
						"numberOfBytes": "32"
					},
					"t_mapping(t_address,t_bool)": {
						"encoding": "mapping",
						"key": "t_address",
						"label": "mapping(address => bool)",
						"numberOfBytes": "32",
						"value": "t_bool"
					},
					"t_mapping(t_bytes32,t_bool)": {
						"encoding": "mapping",
						"key": "t_bytes32",
						"label": "mapping(bytes32 => bool)",
						"numberOfBytes": "32",
						"value": "t_bool"
					},
					"t_mapping(t_bytes32,t_struct(EncryptedNote)100_storage)": {
						"encoding": "mapping",
						"key": "t_bytes32",
						"label": "mapping(bytes32 => struct SwirlPrivatePool.EncryptedNote)",
						"numberOfBytes": "32",
						"value": "t_struct(EncryptedNote)100_storage"
					},
					"t_struct(EncryptedNote)100_storage": {
						"encoding": "inplace",
						"label": "struct SwirlPrivatePool.EncryptedNote",
						"members": [
							{
								"astId": 99,
								"contract": "contracts/SwirlPrivatePool_withSanctions.sol:SwirlPrivatePool",
								"label": "ciphertext",
								"offset": 0,
								"slot": "0",
								"type": "t_bytes_storage"
							}
						],
						"numberOfBytes": "32"
					},
					"t_uint256": {
						"encoding": "inplace",
						"label": "uint256",
						"numberOfBytes": "32"
					},
					"t_uint32": {
						"encoding": "inplace",
						"label": "uint32",
						"numberOfBytes": "4"
					}
				}
			},
			"userdoc": {
				"kind": "user",
				"methods": {},
				"version": 1
			}
		}
	}
}