{
	"contracts/zkleanpool.sol": {
		"zkleanPrivateMNTPool": {
			"abi": [
				{
					"inputs": [
						{
							"internalType": "address",
							"name": "_verifier",
							"type": "address"
						}
					],
					"stateMutability": "nonpayable",
					"type": "constructor"
				},
				{
					"inputs": [],
					"name": "InvalidDenomination",
					"type": "error"
				},
				{
					"inputs": [],
					"name": "InvalidProof",
					"type": "error"
				},
				{
					"inputs": [],
					"name": "NullifierAlreadyUsed",
					"type": "error"
				},
				{
					"inputs": [],
					"name": "TreeIsFull",
					"type": "error"
				},
				{
					"inputs": [],
					"name": "UnknownRoot",
					"type": "error"
				},
				{
					"anonymous": false,
					"inputs": [
						{
							"indexed": true,
							"internalType": "bytes32",
							"name": "commitment",
							"type": "bytes32"
						},
						{
							"indexed": false,
							"internalType": "uint32",
							"name": "leafIndex",
							"type": "uint32"
						}
					],
					"name": "Deposit",
					"type": "event"
				},
				{
					"anonymous": false,
					"inputs": [
						{
							"indexed": true,
							"internalType": "address",
							"name": "recipient",
							"type": "address"
						},
						{
							"indexed": false,
							"internalType": "bytes32",
							"name": "nullifier",
							"type": "bytes32"
						}
					],
					"name": "Withdrawal",
					"type": "event"
				},
				{
					"inputs": [],
					"name": "DENOMINATION",
					"outputs": [
						{
							"internalType": "uint256",
							"name": "",
							"type": "uint256"
						}
					],
					"stateMutability": "view",
					"type": "function"
				},
				{
					"inputs": [],
					"name": "MAX_LEAVES",
					"outputs": [
						{
							"internalType": "uint32",
							"name": "",
							"type": "uint32"
						}
					],
					"stateMutability": "view",
					"type": "function"
				},
				{
					"inputs": [],
					"name": "TREE_DEPTH",
					"outputs": [
						{
							"internalType": "uint32",
							"name": "",
							"type": "uint32"
						}
					],
					"stateMutability": "view",
					"type": "function"
				},
				{
					"inputs": [],
					"name": "currentRoot",
					"outputs": [
						{
							"internalType": "bytes32",
							"name": "",
							"type": "bytes32"
						}
					],
					"stateMutability": "view",
					"type": "function"
				},
				{
					"inputs": [
						{
							"internalType": "bytes32",
							"name": "commitment",
							"type": "bytes32"
						},
						{
							"internalType": "bytes",
							"name": "encryptedNote",
							"type": "bytes"
						}
					],
					"name": "deposit",
					"outputs": [],
					"stateMutability": "payable",
					"type": "function"
				},
				{
					"inputs": [
						{
							"internalType": "uint256",
							"name": "",
							"type": "uint256"
						}
					],
					"name": "filledSubtrees",
					"outputs": [
						{
							"internalType": "bytes32",
							"name": "",
							"type": "bytes32"
						}
					],
					"stateMutability": "view",
					"type": "function"
				},
				{
					"inputs": [
						{
							"internalType": "bytes32",
							"name": "nullifierHash",
							"type": "bytes32"
						}
					],
					"name": "isSpent",
					"outputs": [
						{
							"internalType": "bool",
							"name": "",
							"type": "bool"
						}
					],
					"stateMutability": "view",
					"type": "function"
				},
				{
					"inputs": [
						{
							"internalType": "bytes32",
							"name": "",
							"type": "bytes32"
						}
					],
					"name": "knownRoots",
					"outputs": [
						{
							"internalType": "bool",
							"name": "",
							"type": "bool"
						}
					],
					"stateMutability": "view",
					"type": "function"
				},
				{
					"inputs": [],
					"name": "nextIndex",
					"outputs": [
						{
							"internalType": "uint32",
							"name": "",
							"type": "uint32"
						}
					],
					"stateMutability": "view",
					"type": "function"
				},
				{
					"inputs": [
						{
							"internalType": "bytes32",
							"name": "",
							"type": "bytes32"
						}
					],
					"name": "notes",
					"outputs": [
						{
							"internalType": "bytes",
							"name": "ciphertext",
							"type": "bytes"
						}
					],
					"stateMutability": "view",
					"type": "function"
				},
				{
					"inputs": [
						{
							"internalType": "bytes32",
							"name": "",
							"type": "bytes32"
						}
					],
					"name": "nullifierHashes",
					"outputs": [
						{
							"internalType": "bool",
							"name": "",
							"type": "bool"
						}
					],
					"stateMutability": "view",
					"type": "function"
				},
				{
					"inputs": [],
					"name": "verifier",
					"outputs": [
						{
							"internalType": "contract IVerifier",
							"name": "",
							"type": "address"
						}
					],
					"stateMutability": "view",
					"type": "function"
				},
				{
					"inputs": [
						{
							"internalType": "bytes",
							"name": "proof",
							"type": "bytes"
						},
						{
							"internalType": "bytes32",
							"name": "root",
							"type": "bytes32"
						},
						{
							"internalType": "bytes32",
							"name": "nullifierHash",
							"type": "bytes32"
						},
						{
							"internalType": "address payable",
							"name": "recipient",
							"type": "address"
						}
					],
					"name": "withdraw",
					"outputs": [],
					"stateMutability": "nonpayable",
					"type": "function"
				},
				{
					"inputs": [
						{
							"internalType": "uint256",
							"name": "",
							"type": "uint256"
						}
					],
					"name": "zeros",
					"outputs": [
						{
							"internalType": "bytes32",
							"name": "",
							"type": "bytes32"
						}
					],
					"stateMutability": "view",
					"type": "function"
				}
			],
			"devdoc": {
				"kind": "dev",
				"methods": {
					"deposit(bytes32,bytes)": {
						"params": {
							"commitment": "Poseidon(secret, nullifier)",
							"encryptedNote": "Encrypted metadata (view-key)"
						}
					},
					"withdraw(bytes,bytes32,bytes32,address)": {
						"params": {
							"nullifierHash": "Prevents double spend",
							"proof": "Noir proof bytes",
							"recipient": "MNT receiver",
							"root": "Merkle root"
						}
					}
				},
				"version": 1
			},
			"evm": {
				"assembly": "    /* \"contracts/zkleanpool.sol\":561:5165  contract zkleanPrivateMNTPool {... */\n  mstore(0x40, 0xa0)\n    /* \"contracts/zkleanpool.sol\":2157:2712  constructor(address _verifier) {... */\n  callvalue\n  dup1\n  iszero\n  tag_1\n  jumpi\n  revert(0x00, 0x00)\ntag_1:\n  pop\n  mload(0x40)\n  sub(codesize, bytecodeSize)\n  dup1\n  bytecodeSize\n  dup4\n  codecopy\n  dup2\n  dup2\n  add\n  0x40\n  mstore\n  dup2\n  add\n  swap1\n  tag_2\n  swap2\n  swap1\n  tag_3\n  jump\t// in\ntag_2:\n    /* \"contracts/zkleanpool.sol\":2220:2229  _verifier */\n  dup1\n    /* \"contracts/zkleanpool.sol\":2199:2230  verifier = IVerifier(_verifier) */\n  0xffffffffffffffffffffffffffffffffffffffff\n  and\n  0x80\n  dup2\n  0xffffffffffffffffffffffffffffffffffffffff\n  and\n  dup2\n  mstore\n  pop\n  pop\n    /* \"contracts/zkleanpool.sol\":2333:2334  0 */\n  0x00\n    /* \"contracts/zkleanpool.sol\":2314:2336  abi.encode(uint256(0)) */\n  add(0x20, mload(0x40))\n  tag_6\n  swap2\n  swap1\n  tag_7\n  jump\t// in\ntag_6:\n  mload(0x40)\n  0x20\n  dup2\n  dup4\n  sub\n  sub\n  dup2\n  mstore\n  swap1\n  0x40\n  mstore\n    /* \"contracts/zkleanpool.sol\":2304:2337  keccak256(abi.encode(uint256(0))) */\n  dup1\n  mload\n  swap1\n  0x20\n  add\n  keccak256\n    /* \"contracts/zkleanpool.sol\":2293:2298  zeros */\n  0x00\n    /* \"contracts/zkleanpool.sol\":2299:2300  0 */\n  0x00\n    /* \"contracts/zkleanpool.sol\":2293:2301  zeros[0] */\n  0x14\n  dup2\n  lt\n  tag_8\n  jumpi\n  tag_9\n  tag_10\n  jump\t// in\ntag_9:\ntag_8:\n  add\n    /* \"contracts/zkleanpool.sol\":2293:2337  zeros[0] = keccak256(abi.encode(uint256(0))) */\n  dup2\n  swap1\n  sstore\n  pop\n    /* \"contracts/zkleanpool.sol\":2353:2361  uint32 i */\n  0x00\n    /* \"contracts/zkleanpool.sol\":2364:2365  1 */\n  0x01\n    /* \"contracts/zkleanpool.sol\":2353:2365  uint32 i = 1 */\n  swap1\n  pop\n    /* \"contracts/zkleanpool.sol\":2348:2471  for (uint32 i = 1; i < TREE_DEPTH; i++) {... */\ntag_12:\n    /* \"contracts/zkleanpool.sol\":1272:1274  20 */\n  0x14\n    /* \"contracts/zkleanpool.sol\":2367:2381  i < TREE_DEPTH */\n  0xffffffff\n  and\n    /* \"contracts/zkleanpool.sol\":2367:2368  i */\n  dup2\n    /* \"contracts/zkleanpool.sol\":2367:2381  i < TREE_DEPTH */\n  0xffffffff\n  and\n  lt\n    /* \"contracts/zkleanpool.sol\":2348:2471  for (uint32 i = 1; i < TREE_DEPTH; i++) {... */\n  iszero\n  tag_13\n  jumpi\n    /* \"contracts/zkleanpool.sol\":2435:2440  zeros */\n  0x00\n    /* \"contracts/zkleanpool.sol\":2443:2444  1 */\n  0x01\n    /* \"contracts/zkleanpool.sol\":2441:2442  i */\n  dup3\n    /* \"contracts/zkleanpool.sol\":2441:2444  i-1 */\n  tag_15\n  swap2\n  swap1\n  tag_16\n  jump\t// in\ntag_15:\n    /* \"contracts/zkleanpool.sol\":2435:2445  zeros[i-1] */\n  0xffffffff\n  and\n  0x14\n  dup2\n  lt\n  tag_17\n  jumpi\n  tag_18\n  tag_10\n  jump\t// in\ntag_18:\ntag_17:\n  add\n  sload\n    /* \"contracts/zkleanpool.sol\":2447:2452  zeros */\n  0x00\n    /* \"contracts/zkleanpool.sol\":2455:2456  1 */\n  0x01\n    /* \"contracts/zkleanpool.sol\":2453:2454  i */\n  dup4\n    /* \"contracts/zkleanpool.sol\":2453:2456  i-1 */\n  tag_20\n  swap2\n  swap1\n  tag_16\n  jump\t// in\ntag_20:\n    /* \"contracts/zkleanpool.sol\":2447:2457  zeros[i-1] */\n  0xffffffff\n  and\n  0x14\n  dup2\n  lt\n  tag_21\n  jumpi\n  tag_22\n  tag_10\n  jump\t// in\ntag_22:\ntag_21:\n  add\n  sload\n    /* \"contracts/zkleanpool.sol\":2424:2458  abi.encode(zeros[i-1], zeros[i-1]) */\n  add(0x20, mload(0x40))\n  tag_24\n  swap3\n  swap2\n  swap1\n  tag_25\n  jump\t// in\ntag_24:\n  mload(0x40)\n  0x20\n  dup2\n  dup4\n  sub\n  sub\n  dup2\n  mstore\n  swap1\n  0x40\n  mstore\n    /* \"contracts/zkleanpool.sol\":2414:2459  keccak256(abi.encode(zeros[i-1], zeros[i-1])) */\n  dup1\n  mload\n  swap1\n  0x20\n  add\n  keccak256\n    /* \"contracts/zkleanpool.sol\":2403:2408  zeros */\n  0x00\n    /* \"contracts/zkleanpool.sol\":2409:2410  i */\n  dup3\n    /* \"contracts/zkleanpool.sol\":2403:2411  zeros[i] */\n  0xffffffff\n  and\n  0x14\n  dup2\n  lt\n  tag_26\n  jumpi\n  tag_27\n  tag_10\n  jump\t// in\ntag_27:\ntag_26:\n  add\n    /* \"contracts/zkleanpool.sol\":2403:2459  zeros[i] = keccak256(abi.encode(zeros[i-1], zeros[i-1])) */\n  dup2\n  swap1\n  sstore\n  pop\n    /* \"contracts/zkleanpool.sol\":2383:2386  i++ */\n  dup1\n  dup1\n  0x01\n  add\n  swap2\n  pop\n  pop\n    /* \"contracts/zkleanpool.sol\":2348:2471  for (uint32 i = 1; i < TREE_DEPTH; i++) {... */\n  jump(tag_12)\ntag_13:\n  pop\n    /* \"contracts/zkleanpool.sol\":2526:2534  uint32 i */\n  0x00\n    /* \"contracts/zkleanpool.sol\":2537:2538  0 */\n  0x00\n    /* \"contracts/zkleanpool.sol\":2526:2538  uint32 i = 0 */\n  swap1\n  pop\n    /* \"contracts/zkleanpool.sol\":2521:2616  for (uint32 i = 0; i < TREE_DEPTH; i++) {... */\ntag_29:\n    /* \"contracts/zkleanpool.sol\":1272:1274  20 */\n  0x14\n    /* \"contracts/zkleanpool.sol\":2540:2554  i < TREE_DEPTH */\n  0xffffffff\n  and\n    /* \"contracts/zkleanpool.sol\":2540:2541  i */\n  dup2\n    /* \"contracts/zkleanpool.sol\":2540:2554  i < TREE_DEPTH */\n  0xffffffff\n  and\n  lt\n    /* \"contracts/zkleanpool.sol\":2521:2616  for (uint32 i = 0; i < TREE_DEPTH; i++) {... */\n  iszero\n  tag_30\n  jumpi\n    /* \"contracts/zkleanpool.sol\":2596:2601  zeros */\n  0x00\n    /* \"contracts/zkleanpool.sol\":2602:2603  i */\n  dup2\n    /* \"contracts/zkleanpool.sol\":2596:2604  zeros[i] */\n  0xffffffff\n  and\n  0x14\n  dup2\n  lt\n  tag_32\n  jumpi\n  tag_33\n  tag_10\n  jump\t// in\ntag_33:\ntag_32:\n  add\n  sload\n    /* \"contracts/zkleanpool.sol\":2576:2590  filledSubtrees */\n  0x14\n    /* \"contracts/zkleanpool.sol\":2591:2592  i */\n  dup3\n    /* \"contracts/zkleanpool.sol\":2576:2593  filledSubtrees[i] */\n  0xffffffff\n  and\n  0x14\n  dup2\n  lt\n  tag_35\n  jumpi\n  tag_36\n  tag_10\n  jump\t// in\ntag_36:\ntag_35:\n  add\n    /* \"contracts/zkleanpool.sol\":2576:2604  filledSubtrees[i] = zeros[i] */\n  dup2\n  swap1\n  sstore\n  pop\n    /* \"contracts/zkleanpool.sol\":2556:2559  i++ */\n  dup1\n  dup1\n  0x01\n  add\n  swap2\n  pop\n  pop\n    /* \"contracts/zkleanpool.sol\":2521:2616  for (uint32 i = 0; i < TREE_DEPTH; i++) {... */\n  jump(tag_29)\ntag_30:\n  pop\n    /* \"contracts/zkleanpool.sol\":2642:2647  zeros */\n  0x00\n    /* \"contracts/zkleanpool.sol\":2661:2662  1 */\n  0x01\n    /* \"contracts/zkleanpool.sol\":1272:1274  20 */\n  0x14\n    /* \"contracts/zkleanpool.sol\":2648:2662  TREE_DEPTH - 1 */\n  tag_38\n  swap2\n  swap1\n  tag_16\n  jump\t// in\ntag_38:\n    /* \"contracts/zkleanpool.sol\":2642:2663  zeros[TREE_DEPTH - 1] */\n  0xffffffff\n  and\n  0x14\n  dup2\n  lt\n  tag_39\n  jumpi\n  tag_40\n  tag_10\n  jump\t// in\ntag_40:\ntag_39:\n  add\n  sload\n    /* \"contracts/zkleanpool.sol\":2628:2639  currentRoot */\n  0x28\n    /* \"contracts/zkleanpool.sol\":2628:2663  currentRoot = zeros[TREE_DEPTH - 1] */\n  dup2\n  swap1\n  sstore\n  pop\n    /* \"contracts/zkleanpool.sol\":2700:2704  true */\n  0x01\n    /* \"contracts/zkleanpool.sol\":2674:2684  knownRoots */\n  0x2b\n    /* \"contracts/zkleanpool.sol\":2674:2697  knownRoots[currentRoot] */\n  0x00\n    /* \"contracts/zkleanpool.sol\":2685:2696  currentRoot */\n  sload(0x28)\n    /* \"contracts/zkleanpool.sol\":2674:2697  knownRoots[currentRoot] */\n  dup2\n  mstore\n  0x20\n  add\n  swap1\n  dup2\n  mstore\n  0x20\n  add\n  0x00\n  keccak256\n  0x00\n    /* \"contracts/zkleanpool.sol\":2674:2704  knownRoots[currentRoot] = true */\n  0x0100\n  exp\n  dup2\n  sload\n  dup2\n  0xff\n  mul\n  not\n  and\n  swap1\n  dup4\n  iszero\n  iszero\n  mul\n  or\n  swap1\n  sstore\n  pop\n    /* \"contracts/zkleanpool.sol\":2157:2712  constructor(address _verifier) {... */\n  pop\n    /* \"contracts/zkleanpool.sol\":561:5165  contract zkleanPrivateMNTPool {... */\n  jump(tag_42)\n    /* \"#utility.yul\":88:205   */\ntag_44:\n    /* \"#utility.yul\":197:198   */\n  0x00\n    /* \"#utility.yul\":194:195   */\n  0x00\n    /* \"#utility.yul\":187:199   */\n  revert\n    /* \"#utility.yul\":334:460   */\ntag_46:\n    /* \"#utility.yul\":371:378   */\n  0x00\n    /* \"#utility.yul\":411:453   */\n  0xffffffffffffffffffffffffffffffffffffffff\n    /* \"#utility.yul\":404:409   */\n  dup3\n    /* \"#utility.yul\":400:454   */\n  and\n    /* \"#utility.yul\":389:454   */\n  swap1\n  pop\n    /* \"#utility.yul\":334:460   */\n  swap2\n  swap1\n  pop\n  jump\t// out\n    /* \"#utility.yul\":466:562   */\ntag_47:\n    /* \"#utility.yul\":503:510   */\n  0x00\n    /* \"#utility.yul\":532:556   */\n  tag_62\n    /* \"#utility.yul\":550:555   */\n  dup3\n    /* \"#utility.yul\":532:556   */\n  tag_46\n  jump\t// in\ntag_62:\n    /* \"#utility.yul\":521:556   */\n  swap1\n  pop\n    /* \"#utility.yul\":466:562   */\n  swap2\n  swap1\n  pop\n  jump\t// out\n    /* \"#utility.yul\":568:690   */\ntag_48:\n    /* \"#utility.yul\":641:665   */\n  tag_64\n    /* \"#utility.yul\":659:664   */\n  dup2\n    /* \"#utility.yul\":641:665   */\n  tag_47\n  jump\t// in\ntag_64:\n    /* \"#utility.yul\":634:639   */\n  dup2\n    /* \"#utility.yul\":631:666   */\n  eq\n    /* \"#utility.yul\":621:684   */\n  tag_65\n  jumpi\n    /* \"#utility.yul\":680:681   */\n  0x00\n    /* \"#utility.yul\":677:678   */\n  0x00\n    /* \"#utility.yul\":670:682   */\n  revert\n    /* \"#utility.yul\":621:684   */\ntag_65:\n    /* \"#utility.yul\":568:690   */\n  pop\n  jump\t// out\n    /* \"#utility.yul\":696:839   */\ntag_49:\n    /* \"#utility.yul\":753:758   */\n  0x00\n    /* \"#utility.yul\":784:790   */\n  dup2\n    /* \"#utility.yul\":778:791   */\n  mload\n    /* \"#utility.yul\":769:791   */\n  swap1\n  pop\n    /* \"#utility.yul\":800:833   */\n  tag_67\n    /* \"#utility.yul\":827:832   */\n  dup2\n    /* \"#utility.yul\":800:833   */\n  tag_48\n  jump\t// in\ntag_67:\n    /* \"#utility.yul\":696:839   */\n  swap3\n  swap2\n  pop\n  pop\n  jump\t// out\n    /* \"#utility.yul\":845:1196   */\ntag_3:\n    /* \"#utility.yul\":915:921   */\n  0x00\n    /* \"#utility.yul\":964:966   */\n  0x20\n    /* \"#utility.yul\":952:961   */\n  dup3\n    /* \"#utility.yul\":943:950   */\n  dup5\n    /* \"#utility.yul\":939:962   */\n  sub\n    /* \"#utility.yul\":935:967   */\n  slt\n    /* \"#utility.yul\":932:1051   */\n  iszero\n  tag_69\n  jumpi\n    /* \"#utility.yul\":970:1049   */\n  tag_70\n  tag_44\n  jump\t// in\ntag_70:\n    /* \"#utility.yul\":932:1051   */\ntag_69:\n    /* \"#utility.yul\":1090:1091   */\n  0x00\n    /* \"#utility.yul\":1115:1179   */\n  tag_71\n    /* \"#utility.yul\":1171:1178   */\n  dup5\n    /* \"#utility.yul\":1162:1168   */\n  dup3\n    /* \"#utility.yul\":1151:1160   */\n  dup6\n    /* \"#utility.yul\":1147:1169   */\n  add\n    /* \"#utility.yul\":1115:1179   */\n  tag_49\n  jump\t// in\ntag_71:\n    /* \"#utility.yul\":1105:1179   */\n  swap2\n  pop\n    /* \"#utility.yul\":1061:1189   */\n  pop\n    /* \"#utility.yul\":845:1196   */\n  swap3\n  swap2\n  pop\n  pop\n  jump\t// out\n    /* \"#utility.yul\":1202:1279   */\ntag_50:\n    /* \"#utility.yul\":1239:1246   */\n  0x00\n    /* \"#utility.yul\":1268:1273   */\n  dup2\n    /* \"#utility.yul\":1257:1273   */\n  swap1\n  pop\n    /* \"#utility.yul\":1202:1279   */\n  swap2\n  swap1\n  pop\n  jump\t// out\n    /* \"#utility.yul\":1285:1403   */\ntag_51:\n    /* \"#utility.yul\":1372:1396   */\n  tag_74\n    /* \"#utility.yul\":1390:1395   */\n  dup2\n    /* \"#utility.yul\":1372:1396   */\n  tag_50\n  jump\t// in\ntag_74:\n    /* \"#utility.yul\":1367:1370   */\n  dup3\n    /* \"#utility.yul\":1360:1397   */\n  mstore\n    /* \"#utility.yul\":1285:1403   */\n  pop\n  pop\n  jump\t// out\n    /* \"#utility.yul\":1409:1631   */\ntag_7:\n    /* \"#utility.yul\":1502:1506   */\n  0x00\n    /* \"#utility.yul\":1540:1542   */\n  0x20\n    /* \"#utility.yul\":1529:1538   */\n  dup3\n    /* \"#utility.yul\":1525:1543   */\n  add\n    /* \"#utility.yul\":1517:1543   */\n  swap1\n  pop\n    /* \"#utility.yul\":1553:1624   */\n  tag_76\n    /* \"#utility.yul\":1621:1622   */\n  0x00\n    /* \"#utility.yul\":1610:1619   */\n  dup4\n    /* \"#utility.yul\":1606:1623   */\n  add\n    /* \"#utility.yul\":1597:1603   */\n  dup5\n    /* \"#utility.yul\":1553:1624   */\n  tag_51\n  jump\t// in\ntag_76:\n    /* \"#utility.yul\":1409:1631   */\n  swap3\n  swap2\n  pop\n  pop\n  jump\t// out\n    /* \"#utility.yul\":1637:1817   */\ntag_10:\n    /* \"#utility.yul\":1685:1762   */\n  0x4e487b7100000000000000000000000000000000000000000000000000000000\n    /* \"#utility.yul\":1682:1683   */\n  0x00\n    /* \"#utility.yul\":1675:1763   */\n  mstore\n    /* \"#utility.yul\":1782:1786   */\n  0x32\n    /* \"#utility.yul\":1779:1780   */\n  0x04\n    /* \"#utility.yul\":1772:1787   */\n  mstore\n    /* \"#utility.yul\":1806:1810   */\n  0x24\n    /* \"#utility.yul\":1803:1804   */\n  0x00\n    /* \"#utility.yul\":1796:1811   */\n  revert\n    /* \"#utility.yul\":1823:1916   */\ntag_52:\n    /* \"#utility.yul\":1859:1866   */\n  0x00\n    /* \"#utility.yul\":1899:1909   */\n  0xffffffff\n    /* \"#utility.yul\":1892:1897   */\n  dup3\n    /* \"#utility.yul\":1888:1910   */\n  and\n    /* \"#utility.yul\":1877:1910   */\n  swap1\n  pop\n    /* \"#utility.yul\":1823:1916   */\n  swap2\n  swap1\n  pop\n  jump\t// out\n    /* \"#utility.yul\":1922:2102   */\ntag_53:\n    /* \"#utility.yul\":1970:2047   */\n  0x4e487b7100000000000000000000000000000000000000000000000000000000\n    /* \"#utility.yul\":1967:1968   */\n  0x00\n    /* \"#utility.yul\":1960:2048   */\n  mstore\n    /* \"#utility.yul\":2067:2071   */\n  0x11\n    /* \"#utility.yul\":2064:2065   */\n  0x04\n    /* \"#utility.yul\":2057:2072   */\n  mstore\n    /* \"#utility.yul\":2091:2095   */\n  0x24\n    /* \"#utility.yul\":2088:2089   */\n  0x00\n    /* \"#utility.yul\":2081:2096   */\n  revert\n    /* \"#utility.yul\":2108:2308   */\ntag_16:\n    /* \"#utility.yul\":2147:2151   */\n  0x00\n    /* \"#utility.yul\":2167:2186   */\n  tag_81\n    /* \"#utility.yul\":2184:2185   */\n  dup3\n    /* \"#utility.yul\":2167:2186   */\n  tag_52\n  jump\t// in\ntag_81:\n    /* \"#utility.yul\":2162:2186   */\n  swap2\n  pop\n    /* \"#utility.yul\":2200:2219   */\n  tag_82\n    /* \"#utility.yul\":2217:2218   */\n  dup4\n    /* \"#utility.yul\":2200:2219   */\n  tag_52\n  jump\t// in\ntag_82:\n    /* \"#utility.yul\":2195:2219   */\n  swap3\n  pop\n    /* \"#utility.yul\":2243:2244   */\n  dup3\n    /* \"#utility.yul\":2240:2241   */\n  dup3\n    /* \"#utility.yul\":2236:2245   */\n  sub\n    /* \"#utility.yul\":2228:2245   */\n  swap1\n  pop\n    /* \"#utility.yul\":2267:2277   */\n  0xffffffff\n    /* \"#utility.yul\":2261:2265   */\n  dup2\n    /* \"#utility.yul\":2258:2278   */\n  gt\n    /* \"#utility.yul\":2255:2301   */\n  iszero\n  tag_83\n  jumpi\n    /* \"#utility.yul\":2281:2299   */\n  tag_84\n  tag_53\n  jump\t// in\ntag_84:\n    /* \"#utility.yul\":2255:2301   */\ntag_83:\n    /* \"#utility.yul\":2108:2308   */\n  swap3\n  swap2\n  pop\n  pop\n  jump\t// out\n    /* \"#utility.yul\":2314:2391   */\ntag_54:\n    /* \"#utility.yul\":2351:2358   */\n  0x00\n    /* \"#utility.yul\":2380:2385   */\n  dup2\n    /* \"#utility.yul\":2369:2385   */\n  swap1\n  pop\n    /* \"#utility.yul\":2314:2391   */\n  swap2\n  swap1\n  pop\n  jump\t// out\n    /* \"#utility.yul\":2397:2515   */\ntag_55:\n    /* \"#utility.yul\":2484:2508   */\n  tag_87\n    /* \"#utility.yul\":2502:2507   */\n  dup2\n    /* \"#utility.yul\":2484:2508   */\n  tag_54\n  jump\t// in\ntag_87:\n    /* \"#utility.yul\":2479:2482   */\n  dup3\n    /* \"#utility.yul\":2472:2509   */\n  mstore\n    /* \"#utility.yul\":2397:2515   */\n  pop\n  pop\n  jump\t// out\n    /* \"#utility.yul\":2521:2853   */\ntag_25:\n    /* \"#utility.yul\":2642:2646   */\n  0x00\n    /* \"#utility.yul\":2680:2682   */\n  0x40\n    /* \"#utility.yul\":2669:2678   */\n  dup3\n    /* \"#utility.yul\":2665:2683   */\n  add\n    /* \"#utility.yul\":2657:2683   */\n  swap1\n  pop\n    /* \"#utility.yul\":2693:2764   */\n  tag_89\n    /* \"#utility.yul\":2761:2762   */\n  0x00\n    /* \"#utility.yul\":2750:2759   */\n  dup4\n    /* \"#utility.yul\":2746:2763   */\n  add\n    /* \"#utility.yul\":2737:2743   */\n  dup6\n    /* \"#utility.yul\":2693:2764   */\n  tag_55\n  jump\t// in\ntag_89:\n    /* \"#utility.yul\":2774:2846   */\n  tag_90\n    /* \"#utility.yul\":2842:2844   */\n  0x20\n    /* \"#utility.yul\":2831:2840   */\n  dup4\n    /* \"#utility.yul\":2827:2845   */\n  add\n    /* \"#utility.yul\":2818:2824   */\n  dup5\n    /* \"#utility.yul\":2774:2846   */\n  tag_55\n  jump\t// in\ntag_90:\n    /* \"#utility.yul\":2521:2853   */\n  swap4\n  swap3\n  pop\n  pop\n  pop\n  jump\t// out\n    /* \"contracts/zkleanpool.sol\":561:5165  contract zkleanPrivateMNTPool {... */\ntag_42:\n  mload(0x80)\n  codecopy(0x00, dataOffset(sub_0), dataSize(sub_0))\n  0x00\n  assignImmutable(\"0xcd41b8bf8f20f7ad95d96d948a315af225b219053fc98a80aee13063b692b681\")\n  return(0x00, dataSize(sub_0))\nstop\n\nsub_0: assembly {\n        /* \"contracts/zkleanpool.sol\":561:5165  contract zkleanPrivateMNTPool {... */\n      mstore(0x40, 0x80)\n      jumpi(tag_1, lt(calldatasize, 0x04))\n      shr(0xe0, calldataload(0x00))\n      dup1\n      0xe29973fc\n      gt\n      tag_16\n      jumpi\n      dup1\n      0xf1650536\n      gt\n      tag_17\n      jumpi\n      dup1\n      0xf1650536\n      eq\n      tag_12\n      jumpi\n      dup1\n      0xf178e47c\n      eq\n      tag_13\n      jumpi\n      dup1\n      0xfc7e9c6f\n      eq\n      tag_14\n      jumpi\n      dup1\n      0xfdab463d\n      eq\n      tag_15\n      jumpi\n      jump(tag_1)\n    tag_17:\n      dup1\n      0xe29973fc\n      eq\n      tag_9\n      jumpi\n      dup1\n      0xe5285dcc\n      eq\n      tag_10\n      jumpi\n      dup1\n      0xe8295588\n      eq\n      tag_11\n      jumpi\n      jump(tag_1)\n    tag_16:\n      dup1\n      0x4e73da7d\n      gt\n      tag_18\n      jumpi\n      dup1\n      0x4e73da7d\n      eq\n      tag_5\n      jumpi\n      dup1\n      0x85de26b7\n      eq\n      tag_6\n      jumpi\n      dup1\n      0x8b01429d\n      eq\n      tag_7\n      jumpi\n      dup1\n      0xb130eaa6\n      eq\n      tag_8\n      jumpi\n      jump(tag_1)\n    tag_18:\n      dup1\n      0x082febf0\n      eq\n      tag_2\n      jumpi\n      dup1\n      0x17cc915c\n      eq\n      tag_3\n      jumpi\n      dup1\n      0x2b7ac3f3\n      eq\n      tag_4\n      jumpi\n    tag_1:\n      revert(0x00, 0x00)\n        /* \"contracts/zkleanpool.sol\":1281:1343  uint32  public constant MAX_LEAVES   = uint32(1 << TREE_DEPTH) */\n    tag_2:\n      callvalue\n      dup1\n      iszero\n      tag_19\n      jumpi\n      revert(0x00, 0x00)\n    tag_19:\n      pop\n      tag_20\n      tag_21\n      jump\t// in\n    tag_20:\n      mload(0x40)\n      tag_22\n      swap2\n      swap1\n      tag_23\n      jump\t// in\n    tag_22:\n      mload(0x40)\n      dup1\n      swap2\n      sub\n      swap1\n      return\n        /* \"contracts/zkleanpool.sol\":1656:1703  mapping(bytes32 => bool) public nullifierHashes */\n    tag_3:\n      callvalue\n      dup1\n      iszero\n      tag_24\n      jumpi\n      revert(0x00, 0x00)\n    tag_24:\n      pop\n      tag_25\n      0x04\n      dup1\n      calldatasize\n      sub\n      dup2\n      add\n      swap1\n      tag_26\n      swap2\n      swap1\n      tag_27\n      jump\t// in\n    tag_26:\n      tag_28\n      jump\t// in\n    tag_25:\n      mload(0x40)\n      tag_29\n      swap2\n      swap1\n      tag_30\n      jump\t// in\n    tag_29:\n      mload(0x40)\n      dup1\n      swap2\n      sub\n      swap1\n      return\n        /* \"contracts/zkleanpool.sol\":1458:1493  IVerifier public immutable verifier */\n    tag_4:\n      callvalue\n      dup1\n      iszero\n      tag_31\n      jumpi\n      revert(0x00, 0x00)\n    tag_31:\n      pop\n      tag_32\n      tag_33\n      jump\t// in\n    tag_32:\n      mload(0x40)\n      tag_34\n      swap2\n      swap1\n      tag_35\n      jump\t// in\n    tag_34:\n      mload(0x40)\n      dup1\n      swap2\n      sub\n      swap1\n      return\n        /* \"contracts/zkleanpool.sol\":1710:1752  mapping(bytes32 => bool) public knownRoots */\n    tag_5:\n      callvalue\n      dup1\n      iszero\n      tag_36\n      jumpi\n      revert(0x00, 0x00)\n    tag_36:\n      pop\n      tag_37\n      0x04\n      dup1\n      calldatasize\n      sub\n      dup2\n      add\n      swap1\n      tag_38\n      swap2\n      swap1\n      tag_27\n      jump\t// in\n    tag_38:\n      tag_39\n      jump\t// in\n    tag_37:\n      mload(0x40)\n      tag_40\n      swap2\n      swap1\n      tag_30\n      jump\t// in\n    tag_40:\n      mload(0x40)\n      dup1\n      swap2\n      sub\n      swap1\n      return\n        /* \"contracts/zkleanpool.sol\":1968:2014  mapping(bytes32 => EncryptedNote) public notes */\n    tag_6:\n      callvalue\n      dup1\n      iszero\n      tag_41\n      jumpi\n      revert(0x00, 0x00)\n    tag_41:\n      pop\n      tag_42\n      0x04\n      dup1\n      calldatasize\n      sub\n      dup2\n      add\n      swap1\n      tag_43\n      swap2\n      swap1\n      tag_27\n      jump\t// in\n    tag_43:\n      tag_44\n      jump\t// in\n    tag_42:\n      mload(0x40)\n      tag_45\n      swap2\n      swap1\n      tag_46\n      jump\t// in\n    tag_45:\n      mload(0x40)\n      dup1\n      swap2\n      sub\n      swap1\n      return\n        /* \"contracts/zkleanpool.sol\":1180:1226  uint256 public constant DENOMINATION = 1 ether */\n    tag_7:\n      callvalue\n      dup1\n      iszero\n      tag_47\n      jumpi\n      revert(0x00, 0x00)\n    tag_47:\n      pop\n      tag_48\n      tag_49\n      jump\t// in\n    tag_48:\n      mload(0x40)\n      tag_50\n      swap2\n      swap1\n      tag_51\n      jump\t// in\n    tag_50:\n      mload(0x40)\n      dup1\n      swap2\n      sub\n      swap1\n      return\n        /* \"contracts/zkleanpool.sol\":4173:4925  function withdraw(... */\n    tag_8:\n      callvalue\n      dup1\n      iszero\n      tag_52\n      jumpi\n      revert(0x00, 0x00)\n    tag_52:\n      pop\n      tag_53\n      0x04\n      dup1\n      calldatasize\n      sub\n      dup2\n      add\n      swap1\n      tag_54\n      swap2\n      swap1\n      tag_55\n      jump\t// in\n    tag_54:\n      tag_56\n      jump\t// in\n    tag_53:\n      stop\n        /* \"contracts/zkleanpool.sol\":2950:3888  function deposit(... */\n    tag_9:\n      tag_57\n      0x04\n      dup1\n      calldatasize\n      sub\n      dup2\n      add\n      swap1\n      tag_58\n      swap2\n      swap1\n      tag_59\n      jump\t// in\n    tag_58:\n      tag_60\n      jump\t// in\n    tag_57:\n      stop\n        /* \"contracts/zkleanpool.sol\":5036:5161  function isSpent(bytes32 nullifierHash) external view returns (bool) {... */\n    tag_10:\n      callvalue\n      dup1\n      iszero\n      tag_61\n      jumpi\n      revert(0x00, 0x00)\n    tag_61:\n      pop\n      tag_62\n      0x04\n      dup1\n      calldatasize\n      sub\n      dup2\n      add\n      swap1\n      tag_63\n      swap2\n      swap1\n      tag_27\n      jump\t// in\n    tag_63:\n      tag_64\n      jump\t// in\n    tag_62:\n      mload(0x40)\n      tag_65\n      swap2\n      swap1\n      tag_30\n      jump\t// in\n    tag_65:\n      mload(0x40)\n      dup1\n      swap2\n      sub\n      swap1\n      return\n        /* \"contracts/zkleanpool.sol\":1502:1534  bytes32[TREE_DEPTH] public zeros */\n    tag_11:\n      callvalue\n      dup1\n      iszero\n      tag_66\n      jumpi\n      revert(0x00, 0x00)\n    tag_66:\n      pop\n      tag_67\n      0x04\n      dup1\n      calldatasize\n      sub\n      dup2\n      add\n      swap1\n      tag_68\n      swap2\n      swap1\n      tag_69\n      jump\t// in\n    tag_68:\n      tag_70\n      jump\t// in\n    tag_67:\n      mload(0x40)\n      tag_71\n      swap2\n      swap1\n      tag_72\n      jump\t// in\n    tag_71:\n      mload(0x40)\n      dup1\n      swap2\n      sub\n      swap1\n      return\n        /* \"contracts/zkleanpool.sol\":1233:1274  uint32  public constant TREE_DEPTH   = 20 */\n    tag_12:\n      callvalue\n      dup1\n      iszero\n      tag_73\n      jumpi\n      revert(0x00, 0x00)\n    tag_73:\n      pop\n      tag_74\n      tag_75\n      jump\t// in\n    tag_74:\n      mload(0x40)\n      tag_76\n      swap2\n      swap1\n      tag_23\n      jump\t// in\n    tag_76:\n      mload(0x40)\n      dup1\n      swap2\n      sub\n      swap1\n      return\n        /* \"contracts/zkleanpool.sol\":1541:1582  bytes32[TREE_DEPTH] public filledSubtrees */\n    tag_13:\n      callvalue\n      dup1\n      iszero\n      tag_77\n      jumpi\n      revert(0x00, 0x00)\n    tag_77:\n      pop\n      tag_78\n      0x04\n      dup1\n      calldatasize\n      sub\n      dup2\n      add\n      swap1\n      tag_79\n      swap2\n      swap1\n      tag_69\n      jump\t// in\n    tag_79:\n      tag_80\n      jump\t// in\n    tag_78:\n      mload(0x40)\n      tag_81\n      swap2\n      swap1\n      tag_72\n      jump\t// in\n    tag_81:\n      mload(0x40)\n      dup1\n      swap2\n      sub\n      swap1\n      return\n        /* \"contracts/zkleanpool.sol\":1624:1647  uint32 public nextIndex */\n    tag_14:\n      callvalue\n      dup1\n      iszero\n      tag_82\n      jumpi\n      revert(0x00, 0x00)\n    tag_82:\n      pop\n      tag_83\n      tag_84\n      jump\t// in\n    tag_83:\n      mload(0x40)\n      tag_85\n      swap2\n      swap1\n      tag_23\n      jump\t// in\n    tag_85:\n      mload(0x40)\n      dup1\n      swap2\n      sub\n      swap1\n      return\n        /* \"contracts/zkleanpool.sol\":1591:1617  bytes32 public currentRoot */\n    tag_15:\n      callvalue\n      dup1\n      iszero\n      tag_86\n      jumpi\n      revert(0x00, 0x00)\n    tag_86:\n      pop\n      tag_87\n      tag_88\n      jump\t// in\n    tag_87:\n      mload(0x40)\n      tag_89\n      swap2\n      swap1\n      tag_72\n      jump\t// in\n    tag_89:\n      mload(0x40)\n      dup1\n      swap2\n      sub\n      swap1\n      return\n        /* \"contracts/zkleanpool.sol\":1281:1343  uint32  public constant MAX_LEAVES   = uint32(1 << TREE_DEPTH) */\n    tag_21:\n        /* \"contracts/zkleanpool.sol\":1272:1274  20 */\n      0x14\n        /* \"contracts/zkleanpool.sol\":1327:1342  1 << TREE_DEPTH */\n      0xffffffff\n      and\n        /* \"contracts/zkleanpool.sol\":1327:1328  1 */\n      0x01\n        /* \"contracts/zkleanpool.sol\":1327:1342  1 << TREE_DEPTH */\n      swap1\n      shl\n        /* \"contracts/zkleanpool.sol\":1281:1343  uint32  public constant MAX_LEAVES   = uint32(1 << TREE_DEPTH) */\n      dup2\n      jump\t// out\n        /* \"contracts/zkleanpool.sol\":1656:1703  mapping(bytes32 => bool) public nullifierHashes */\n    tag_28:\n      mstore(0x20, 0x2a)\n      dup1\n      0x00\n      mstore\n      keccak256(0x00, 0x40)\n      0x00\n      swap2\n      pop\n      sload\n      swap1\n      0x0100\n      exp\n      swap1\n      div\n      0xff\n      and\n      dup2\n      jump\t// out\n        /* \"contracts/zkleanpool.sol\":1458:1493  IVerifier public immutable verifier */\n    tag_33:\n      immutable(\"0xcd41b8bf8f20f7ad95d96d948a315af225b219053fc98a80aee13063b692b681\")\n      dup2\n      jump\t// out\n        /* \"contracts/zkleanpool.sol\":1710:1752  mapping(bytes32 => bool) public knownRoots */\n    tag_39:\n      mstore(0x20, 0x2b)\n      dup1\n      0x00\n      mstore\n      keccak256(0x00, 0x40)\n      0x00\n      swap2\n      pop\n      sload\n      swap1\n      0x0100\n      exp\n      swap1\n      div\n      0xff\n      and\n      dup2\n      jump\t// out\n        /* \"contracts/zkleanpool.sol\":1968:2014  mapping(bytes32 => EncryptedNote) public notes */\n    tag_44:\n      mstore(0x20, 0x2c)\n      dup1\n      0x00\n      mstore\n      keccak256(0x00, 0x40)\n      0x00\n      swap2\n      pop\n      swap1\n      pop\n      dup1\n      0x00\n      add\n      dup1\n      sload\n      tag_90\n      swap1\n      tag_91\n      jump\t// in\n    tag_90:\n      dup1\n      0x1f\n      add\n      0x20\n      dup1\n      swap2\n      div\n      mul\n      0x20\n      add\n      mload(0x40)\n      swap1\n      dup2\n      add\n      0x40\n      mstore\n      dup1\n      swap3\n      swap2\n      swap1\n      dup2\n      dup2\n      mstore\n      0x20\n      add\n      dup3\n      dup1\n      sload\n      tag_92\n      swap1\n      tag_91\n      jump\t// in\n    tag_92:\n      dup1\n      iszero\n      tag_93\n      jumpi\n      dup1\n      0x1f\n      lt\n      tag_94\n      jumpi\n      0x0100\n      dup1\n      dup4\n      sload\n      div\n      mul\n      dup4\n      mstore\n      swap2\n      0x20\n      add\n      swap2\n      jump(tag_93)\n    tag_94:\n      dup3\n      add\n      swap2\n      swap1\n      0x00\n      mstore\n      keccak256(0x00, 0x20)\n      swap1\n    tag_95:\n      dup2\n      sload\n      dup2\n      mstore\n      swap1\n      0x01\n      add\n      swap1\n      0x20\n      add\n      dup1\n      dup4\n      gt\n      tag_95\n      jumpi\n      dup3\n      swap1\n      sub\n      0x1f\n      and\n      dup3\n      add\n      swap2\n    tag_93:\n      pop\n      pop\n      pop\n      pop\n      pop\n      swap1\n      pop\n      dup2\n      jump\t// out\n        /* \"contracts/zkleanpool.sol\":1180:1226  uint256 public constant DENOMINATION = 1 ether */\n    tag_49:\n        /* \"contracts/zkleanpool.sol\":1219:1226  1 ether */\n      0x0de0b6b3a7640000\n        /* \"contracts/zkleanpool.sol\":1180:1226  uint256 public constant DENOMINATION = 1 ether */\n      dup2\n      jump\t// out\n        /* \"contracts/zkleanpool.sol\":4173:4925  function withdraw(... */\n    tag_56:\n        /* \"contracts/zkleanpool.sol\":4345:4360  nullifierHashes */\n      0x2a\n        /* \"contracts/zkleanpool.sol\":4345:4375  nullifierHashes[nullifierHash] */\n      0x00\n        /* \"contracts/zkleanpool.sol\":4361:4374  nullifierHash */\n      dup4\n        /* \"contracts/zkleanpool.sol\":4345:4375  nullifierHashes[nullifierHash] */\n      dup2\n      mstore\n      0x20\n      add\n      swap1\n      dup2\n      mstore\n      0x20\n      add\n      0x00\n      keccak256\n      0x00\n      swap1\n      sload\n      swap1\n      0x0100\n      exp\n      swap1\n      div\n      0xff\n      and\n        /* \"contracts/zkleanpool.sol\":4341:4406  if (nullifierHashes[nullifierHash]) revert NullifierAlreadyUsed() */\n      iszero\n      tag_97\n      jumpi\n        /* \"contracts/zkleanpool.sol\":4384:4406  NullifierAlreadyUsed() */\n      mload(0x40)\n      0xcad2ae0200000000000000000000000000000000000000000000000000000000\n      dup2\n      mstore\n      0x04\n      add\n      mload(0x40)\n      dup1\n      swap2\n      sub\n      swap1\n      revert\n        /* \"contracts/zkleanpool.sol\":4341:4406  if (nullifierHashes[nullifierHash]) revert NullifierAlreadyUsed() */\n    tag_97:\n        /* \"contracts/zkleanpool.sol\":4422:4432  knownRoots */\n      0x2b\n        /* \"contracts/zkleanpool.sol\":4422:4438  knownRoots[root] */\n      0x00\n        /* \"contracts/zkleanpool.sol\":4433:4437  root */\n      dup5\n        /* \"contracts/zkleanpool.sol\":4422:4438  knownRoots[root] */\n      dup2\n      mstore\n      0x20\n      add\n      swap1\n      dup2\n      mstore\n      0x20\n      add\n      0x00\n      keccak256\n      0x00\n      swap1\n      sload\n      swap1\n      0x0100\n      exp\n      swap1\n      div\n      0xff\n      and\n        /* \"contracts/zkleanpool.sol\":4417:4460  if (!knownRoots[root]) revert UnknownRoot() */\n      tag_98\n      jumpi\n        /* \"contracts/zkleanpool.sol\":4447:4460  UnknownRoot() */\n      mload(0x40)\n      0x8c52011600000000000000000000000000000000000000000000000000000000\n      dup2\n      mstore\n      0x04\n      add\n      mload(0x40)\n      dup1\n      swap2\n      sub\n      swap1\n      revert\n        /* \"contracts/zkleanpool.sol\":4417:4460  if (!knownRoots[root]) revert UnknownRoot() */\n    tag_98:\n        /* \"contracts/zkleanpool.sol\":4473:4502  bytes32[] memory publicInputs */\n      0x00\n        /* \"contracts/zkleanpool.sol\":4519:4520  2 */\n      0x02\n        /* \"contracts/zkleanpool.sol\":4505:4521  new bytes32[](2) */\n      0xffffffffffffffff\n      dup2\n      gt\n      iszero\n      tag_99\n      jumpi\n      tag_100\n      tag_101\n      jump\t// in\n    tag_100:\n    tag_99:\n      mload(0x40)\n      swap1\n      dup1\n      dup3\n      mstore\n      dup1\n      0x20\n      mul\n      0x20\n      add\n      dup3\n      add\n      0x40\n      mstore\n      dup1\n      iszero\n      tag_102\n      jumpi\n      dup2\n      0x20\n      add\n      0x20\n      dup3\n      mul\n      dup1\n      calldatasize\n      dup4\n      calldatacopy\n      dup1\n      dup3\n      add\n      swap2\n      pop\n      pop\n      swap1\n      pop\n    tag_102:\n      pop\n        /* \"contracts/zkleanpool.sol\":4473:4521  bytes32[] memory publicInputs = new bytes32[](2) */\n      swap1\n      pop\n        /* \"contracts/zkleanpool.sol\":4550:4554  root */\n      dup4\n        /* \"contracts/zkleanpool.sol\":4532:4544  publicInputs */\n      dup2\n        /* \"contracts/zkleanpool.sol\":4545:4546  0 */\n      0x00\n        /* \"contracts/zkleanpool.sol\":4532:4547  publicInputs[0] */\n      dup2\n      mload\n      dup2\n      lt\n      tag_103\n      jumpi\n      tag_104\n      tag_105\n      jump\t// in\n    tag_104:\n    tag_103:\n      0x20\n      mul\n      0x20\n      add\n      add\n        /* \"contracts/zkleanpool.sol\":4532:4554  publicInputs[0] = root */\n      dup2\n      dup2\n      mstore\n      pop\n      pop\n        /* \"contracts/zkleanpool.sol\":4583:4596  nullifierHash */\n      dup3\n        /* \"contracts/zkleanpool.sol\":4565:4577  publicInputs */\n      dup2\n        /* \"contracts/zkleanpool.sol\":4578:4579  1 */\n      0x01\n        /* \"contracts/zkleanpool.sol\":4565:4580  publicInputs[1] */\n      dup2\n      mload\n      dup2\n      lt\n      tag_106\n      jumpi\n      tag_107\n      tag_105\n      jump\t// in\n    tag_107:\n    tag_106:\n      0x20\n      mul\n      0x20\n      add\n      add\n        /* \"contracts/zkleanpool.sol\":4565:4596  publicInputs[1] = nullifierHash */\n      dup2\n      dup2\n      mstore\n      pop\n      pop\n        /* \"contracts/zkleanpool.sol\":4609:4619  bool valid */\n      0x00\n        /* \"contracts/zkleanpool.sol\":4622:4630  verifier */\n      immutable(\"0xcd41b8bf8f20f7ad95d96d948a315af225b219053fc98a80aee13063b692b681\")\n        /* \"contracts/zkleanpool.sol\":4622:4637  verifier.verify */\n      0xffffffffffffffffffffffffffffffffffffffff\n      and\n      0xea50d0e4\n        /* \"contracts/zkleanpool.sol\":4638:4643  proof */\n      dup9\n      dup9\n        /* \"contracts/zkleanpool.sol\":4645:4657  publicInputs */\n      dup6\n        /* \"contracts/zkleanpool.sol\":4622:4658  verifier.verify(proof, publicInputs) */\n      mload(0x40)\n      dup5\n      0xffffffff\n      and\n      0xe0\n      shl\n      dup2\n      mstore\n      0x04\n      add\n      tag_108\n      swap4\n      swap3\n      swap2\n      swap1\n      tag_109\n      jump\t// in\n    tag_108:\n      0x20\n      mload(0x40)\n      dup1\n      dup4\n      sub\n      dup2\n      dup7\n      gas\n      staticcall\n      iszero\n      dup1\n      iszero\n      tag_111\n      jumpi\n      returndatacopy(0x00, 0x00, returndatasize)\n      revert(0x00, returndatasize)\n    tag_111:\n      pop\n      pop\n      pop\n      pop\n      mload(0x40)\n      returndatasize\n      not(0x1f)\n      0x1f\n      dup3\n      add\n      and\n      dup3\n      add\n      dup1\n      0x40\n      mstore\n      pop\n      dup2\n      add\n      swap1\n      tag_112\n      swap2\n      swap1\n      tag_113\n      jump\t// in\n    tag_112:\n        /* \"contracts/zkleanpool.sol\":4609:4658  bool valid = verifier.verify(proof, publicInputs) */\n      swap1\n      pop\n        /* \"contracts/zkleanpool.sol\":4674:4679  valid */\n      dup1\n        /* \"contracts/zkleanpool.sol\":4669:4702  if (!valid) revert InvalidProof() */\n      tag_114\n      jumpi\n        /* \"contracts/zkleanpool.sol\":4688:4702  InvalidProof() */\n      mload(0x40)\n      0x09bde33900000000000000000000000000000000000000000000000000000000\n      dup2\n      mstore\n      0x04\n      add\n      mload(0x40)\n      dup1\n      swap2\n      sub\n      swap1\n      revert\n        /* \"contracts/zkleanpool.sol\":4669:4702  if (!valid) revert InvalidProof() */\n    tag_114:\n        /* \"contracts/zkleanpool.sol\":4748:4752  true */\n      0x01\n        /* \"contracts/zkleanpool.sol\":4715:4730  nullifierHashes */\n      0x2a\n        /* \"contracts/zkleanpool.sol\":4715:4745  nullifierHashes[nullifierHash] */\n      0x00\n        /* \"contracts/zkleanpool.sol\":4731:4744  nullifierHash */\n      dup7\n        /* \"contracts/zkleanpool.sol\":4715:4745  nullifierHashes[nullifierHash] */\n      dup2\n      mstore\n      0x20\n      add\n      swap1\n      dup2\n      mstore\n      0x20\n      add\n      0x00\n      keccak256\n      0x00\n        /* \"contracts/zkleanpool.sol\":4715:4752  nullifierHashes[nullifierHash] = true */\n      0x0100\n      exp\n      dup2\n      sload\n      dup2\n      0xff\n      mul\n      not\n      and\n      swap1\n      dup4\n      iszero\n      iszero\n      mul\n      or\n      swap1\n      sstore\n      pop\n        /* \"contracts/zkleanpool.sol\":4766:4773  bool ok */\n      0x00\n        /* \"contracts/zkleanpool.sol\":4778:4787  recipient */\n      dup4\n        /* \"contracts/zkleanpool.sol\":4778:4792  recipient.call */\n      0xffffffffffffffffffffffffffffffffffffffff\n      and\n        /* \"contracts/zkleanpool.sol\":1219:1226  1 ether */\n      0x0de0b6b3a7640000\n        /* \"contracts/zkleanpool.sol\":4778:4817  recipient.call{value: DENOMINATION}(\"\") */\n      mload(0x40)\n      tag_115\n      swap1\n      tag_116\n      jump\t// in\n    tag_115:\n      0x00\n      mload(0x40)\n      dup1\n      dup4\n      sub\n      dup2\n      dup6\n      dup8\n      gas\n      call\n      swap3\n      pop\n      pop\n      pop\n      returndatasize\n      dup1\n      0x00\n      dup2\n      eq\n      tag_119\n      jumpi\n      mload(0x40)\n      swap2\n      pop\n      and(add(returndatasize, 0x3f), not(0x1f))\n      dup3\n      add\n      0x40\n      mstore\n      returndatasize\n      dup3\n      mstore\n      returndatasize\n      0x00\n      0x20\n      dup5\n      add\n      returndatacopy\n      jump(tag_118)\n    tag_119:\n      0x60\n      swap2\n      pop\n    tag_118:\n      pop\n        /* \"contracts/zkleanpool.sol\":4765:4817  (bool ok,) = recipient.call{value: DENOMINATION}(\"\") */\n      pop\n      swap1\n      pop\n        /* \"contracts/zkleanpool.sol\":4836:4838  ok */\n      dup1\n        /* \"contracts/zkleanpool.sol\":4828:4862  require(ok, \"MNT transfer failed\") */\n      tag_120\n      jumpi\n      mload(0x40)\n      0x08c379a000000000000000000000000000000000000000000000000000000000\n      dup2\n      mstore\n      0x04\n      add\n      tag_121\n      swap1\n      tag_122\n      jump\t// in\n    tag_121:\n      mload(0x40)\n      dup1\n      swap2\n      sub\n      swap1\n      revert\n    tag_120:\n        /* \"contracts/zkleanpool.sol\":4891:4900  recipient */\n      dup4\n        /* \"contracts/zkleanpool.sol\":4880:4916  Withdrawal(recipient, nullifierHash) */\n      0xffffffffffffffffffffffffffffffffffffffff\n      and\n      0x0ce490531f6c8ae2f1ff174643bc8b7ed5e52987ab50dc1e8f33655d2cd8c90b\n        /* \"contracts/zkleanpool.sol\":4902:4915  nullifierHash */\n      dup7\n        /* \"contracts/zkleanpool.sol\":4880:4916  Withdrawal(recipient, nullifierHash) */\n      mload(0x40)\n      tag_123\n      swap2\n      swap1\n      tag_72\n      jump\t// in\n    tag_123:\n      mload(0x40)\n      dup1\n      swap2\n      sub\n      swap1\n      log2\n        /* \"contracts/zkleanpool.sol\":4330:4925  {... */\n      pop\n      pop\n      pop\n        /* \"contracts/zkleanpool.sol\":4173:4925  function withdraw(... */\n      pop\n      pop\n      pop\n      pop\n      pop\n      jump\t// out\n        /* \"contracts/zkleanpool.sol\":2950:3888  function deposit(... */\n    tag_60:\n        /* \"contracts/zkleanpool.sol\":1219:1226  1 ether */\n      0x0de0b6b3a7640000\n        /* \"contracts/zkleanpool.sol\":3074:3083  msg.value */\n      callvalue\n        /* \"contracts/zkleanpool.sol\":3074:3099  msg.value != DENOMINATION */\n      eq\n        /* \"contracts/zkleanpool.sol\":3070:3129  if (msg.value != DENOMINATION) revert InvalidDenomination() */\n      tag_125\n      jumpi\n        /* \"contracts/zkleanpool.sol\":3108:3129  InvalidDenomination() */\n      mload(0x40)\n      0xf067b3c600000000000000000000000000000000000000000000000000000000\n      dup2\n      mstore\n      0x04\n      add\n      mload(0x40)\n      dup1\n      swap2\n      sub\n      swap1\n      revert\n        /* \"contracts/zkleanpool.sol\":3070:3129  if (msg.value != DENOMINATION) revert InvalidDenomination() */\n    tag_125:\n        /* \"contracts/zkleanpool.sol\":1272:1274  20 */\n      0x14\n        /* \"contracts/zkleanpool.sol\":1327:1342  1 << TREE_DEPTH */\n      0xffffffff\n      and\n        /* \"contracts/zkleanpool.sol\":1327:1328  1 */\n      0x01\n        /* \"contracts/zkleanpool.sol\":1327:1342  1 << TREE_DEPTH */\n      swap1\n      shl\n        /* \"contracts/zkleanpool.sol\":3144:3167  nextIndex >= MAX_LEAVES */\n      0xffffffff\n      and\n        /* \"contracts/zkleanpool.sol\":3144:3153  nextIndex */\n      0x29\n      0x00\n      swap1\n      sload\n      swap1\n      0x0100\n      exp\n      swap1\n      div\n      0xffffffff\n      and\n        /* \"contracts/zkleanpool.sol\":3144:3167  nextIndex >= MAX_LEAVES */\n      0xffffffff\n      and\n      lt\n        /* \"contracts/zkleanpool.sol\":3140:3188  if (nextIndex >= MAX_LEAVES) revert TreeIsFull() */\n      tag_126\n      jumpi\n        /* \"contracts/zkleanpool.sol\":3176:3188  TreeIsFull() */\n      mload(0x40)\n      0xed732d0c00000000000000000000000000000000000000000000000000000000\n      dup2\n      mstore\n      0x04\n      add\n      mload(0x40)\n      dup1\n      swap2\n      sub\n      swap1\n      revert\n        /* \"contracts/zkleanpool.sol\":3140:3188  if (nextIndex >= MAX_LEAVES) revert TreeIsFull() */\n    tag_126:\n        /* \"contracts/zkleanpool.sol\":3201:3213  uint32 index */\n      0x00\n        /* \"contracts/zkleanpool.sol\":3216:3225  nextIndex */\n      0x29\n      0x00\n      swap1\n      sload\n      swap1\n      0x0100\n      exp\n      swap1\n      div\n      0xffffffff\n      and\n        /* \"contracts/zkleanpool.sol\":3201:3225  uint32 index = nextIndex */\n      swap1\n      pop\n        /* \"contracts/zkleanpool.sol\":3249:3250  1 */\n      0x01\n        /* \"contracts/zkleanpool.sol\":3236:3245  nextIndex */\n      0x29\n      0x00\n        /* \"contracts/zkleanpool.sol\":3236:3250  nextIndex += 1 */\n      dup3\n      dup3\n      dup3\n      swap1\n      sload\n      swap1\n      0x0100\n      exp\n      swap1\n      div\n      0xffffffff\n      and\n      tag_127\n      swap2\n      swap1\n      tag_128\n      jump\t// in\n    tag_127:\n      swap3\n      pop\n      0x0100\n      exp\n      dup2\n      sload\n      dup2\n      0xffffffff\n      mul\n      not\n      and\n      swap1\n      dup4\n      0xffffffff\n      and\n      mul\n      or\n      swap1\n      sstore\n      pop\n        /* \"contracts/zkleanpool.sol\":3263:3282  bytes32 currentHash */\n      0x00\n        /* \"contracts/zkleanpool.sol\":3285:3295  commitment */\n      dup5\n        /* \"contracts/zkleanpool.sol\":3263:3295  bytes32 currentHash = commitment */\n      swap1\n      pop\n        /* \"contracts/zkleanpool.sol\":3311:3319  uint32 i */\n      0x00\n        /* \"contracts/zkleanpool.sol\":3322:3323  0 */\n      0x00\n        /* \"contracts/zkleanpool.sol\":3311:3323  uint32 i = 0 */\n      swap1\n      pop\n        /* \"contracts/zkleanpool.sol\":3306:3671  for (uint32 i = 0; i < TREE_DEPTH; i++) {... */\n    tag_129:\n        /* \"contracts/zkleanpool.sol\":1272:1274  20 */\n      0x14\n        /* \"contracts/zkleanpool.sol\":3325:3339  i < TREE_DEPTH */\n      0xffffffff\n      and\n        /* \"contracts/zkleanpool.sol\":3325:3326  i */\n      dup2\n        /* \"contracts/zkleanpool.sol\":3325:3339  i < TREE_DEPTH */\n      0xffffffff\n      and\n      lt\n        /* \"contracts/zkleanpool.sol\":3306:3671  for (uint32 i = 0; i < TREE_DEPTH; i++) {... */\n      iszero\n      tag_130\n      jumpi\n        /* \"contracts/zkleanpool.sol\":3380:3381  0 */\n      0x00\n        /* \"contracts/zkleanpool.sol\":3374:3375  1 */\n      0x01\n        /* \"contracts/zkleanpool.sol\":3366:3371  index */\n      dup5\n        /* \"contracts/zkleanpool.sol\":3366:3375  index & 1 */\n      and\n        /* \"contracts/zkleanpool.sol\":3365:3381  (index & 1) == 0 */\n      0xffffffff\n      and\n      sub\n        /* \"contracts/zkleanpool.sol\":3361:3634  if ((index & 1) == 0) {... */\n      tag_132\n      jumpi\n        /* \"contracts/zkleanpool.sol\":3422:3433  currentHash */\n      dup2\n        /* \"contracts/zkleanpool.sol\":3402:3416  filledSubtrees */\n      0x14\n        /* \"contracts/zkleanpool.sol\":3417:3418  i */\n      dup3\n        /* \"contracts/zkleanpool.sol\":3402:3419  filledSubtrees[i] */\n      0xffffffff\n      and\n      0x14\n      dup2\n      lt\n      tag_133\n      jumpi\n      tag_134\n      tag_105\n      jump\t// in\n    tag_134:\n    tag_133:\n      add\n        /* \"contracts/zkleanpool.sol\":3402:3433  filledSubtrees[i] = currentHash */\n      dup2\n      swap1\n      sstore\n      pop\n        /* \"contracts/zkleanpool.sol\":3487:3498  currentHash */\n      dup2\n        /* \"contracts/zkleanpool.sol\":3500:3505  zeros */\n      0x00\n        /* \"contracts/zkleanpool.sol\":3506:3507  i */\n      dup3\n        /* \"contracts/zkleanpool.sol\":3500:3508  zeros[i] */\n      0xffffffff\n      and\n      0x14\n      dup2\n      lt\n      tag_136\n      jumpi\n      tag_137\n      tag_105\n      jump\t// in\n    tag_137:\n    tag_136:\n      add\n      sload\n        /* \"contracts/zkleanpool.sol\":3476:3509  abi.encode(currentHash, zeros[i]) */\n      add(0x20, mload(0x40))\n      tag_139\n      swap3\n      swap2\n      swap1\n      tag_140\n      jump\t// in\n    tag_139:\n      mload(0x40)\n      0x20\n      dup2\n      dup4\n      sub\n      sub\n      dup2\n      mstore\n      swap1\n      0x40\n      mstore\n        /* \"contracts/zkleanpool.sol\":3466:3510  keccak256(abi.encode(currentHash, zeros[i])) */\n      dup1\n      mload\n      swap1\n      0x20\n      add\n      keccak256\n        /* \"contracts/zkleanpool.sol\":3452:3510  currentHash = keccak256(abi.encode(currentHash, zeros[i])) */\n      swap2\n      pop\n        /* \"contracts/zkleanpool.sol\":3361:3634  if ((index & 1) == 0) {... */\n      jump(tag_141)\n    tag_132:\n        /* \"contracts/zkleanpool.sol\":3586:3600  filledSubtrees */\n      0x14\n        /* \"contracts/zkleanpool.sol\":3601:3602  i */\n      dup2\n        /* \"contracts/zkleanpool.sol\":3586:3603  filledSubtrees[i] */\n      0xffffffff\n      and\n      0x14\n      dup2\n      lt\n      tag_142\n      jumpi\n      tag_143\n      tag_105\n      jump\t// in\n    tag_143:\n    tag_142:\n      add\n      sload\n        /* \"contracts/zkleanpool.sol\":3605:3616  currentHash */\n      dup3\n        /* \"contracts/zkleanpool.sol\":3575:3617  abi.encode(filledSubtrees[i], currentHash) */\n      add(0x20, mload(0x40))\n      tag_145\n      swap3\n      swap2\n      swap1\n      tag_140\n      jump\t// in\n    tag_145:\n      mload(0x40)\n      0x20\n      dup2\n      dup4\n      sub\n      sub\n      dup2\n      mstore\n      swap1\n      0x40\n      mstore\n        /* \"contracts/zkleanpool.sol\":3565:3618  keccak256(abi.encode(filledSubtrees[i], currentHash)) */\n      dup1\n      mload\n      swap1\n      0x20\n      add\n      keccak256\n        /* \"contracts/zkleanpool.sol\":3551:3618  currentHash = keccak256(abi.encode(filledSubtrees[i], currentHash)) */\n      swap2\n      pop\n        /* \"contracts/zkleanpool.sol\":3361:3634  if ((index & 1) == 0) {... */\n    tag_141:\n        /* \"contracts/zkleanpool.sol\":3658:3659  1 */\n      0x01\n        /* \"contracts/zkleanpool.sol\":3648:3659  index >>= 1 */\n      dup4\n      0xffffffff\n      and\n      swap1\n      shr\n      swap3\n      pop\n        /* \"contracts/zkleanpool.sol\":3341:3344  i++ */\n      dup1\n      dup1\n      0x01\n      add\n      swap2\n      pop\n      pop\n        /* \"contracts/zkleanpool.sol\":3306:3671  for (uint32 i = 0; i < TREE_DEPTH; i++) {... */\n      jump(tag_129)\n    tag_130:\n      pop\n        /* \"contracts/zkleanpool.sol\":3697:3708  currentHash */\n      dup1\n        /* \"contracts/zkleanpool.sol\":3683:3694  currentRoot */\n      0x28\n        /* \"contracts/zkleanpool.sol\":3683:3708  currentRoot = currentHash */\n      dup2\n      swap1\n      sstore\n      pop\n        /* \"contracts/zkleanpool.sol\":3745:3749  true */\n      0x01\n        /* \"contracts/zkleanpool.sol\":3719:3729  knownRoots */\n      0x2b\n        /* \"contracts/zkleanpool.sol\":3719:3742  knownRoots[currentRoot] */\n      0x00\n        /* \"contracts/zkleanpool.sol\":3730:3741  currentRoot */\n      sload(0x28)\n        /* \"contracts/zkleanpool.sol\":3719:3742  knownRoots[currentRoot] */\n      dup2\n      mstore\n      0x20\n      add\n      swap1\n      dup2\n      mstore\n      0x20\n      add\n      0x00\n      keccak256\n      0x00\n        /* \"contracts/zkleanpool.sol\":3719:3749  knownRoots[currentRoot] = true */\n      0x0100\n      exp\n      dup2\n      sload\n      dup2\n      0xff\n      mul\n      not\n      and\n      swap1\n      dup4\n      iszero\n      iszero\n      mul\n      or\n      swap1\n      sstore\n      pop\n        /* \"contracts/zkleanpool.sol\":3784:3826  EncryptedNote({ciphertext: encryptedNote}) */\n      mload(0x40)\n      dup1\n      0x20\n      add\n      0x40\n      mstore\n      dup1\n        /* \"contracts/zkleanpool.sol\":3811:3824  encryptedNote */\n      dup6\n      dup6\n        /* \"contracts/zkleanpool.sol\":3784:3826  EncryptedNote({ciphertext: encryptedNote}) */\n      dup1\n      dup1\n      0x1f\n      add\n      0x20\n      dup1\n      swap2\n      div\n      mul\n      0x20\n      add\n      mload(0x40)\n      swap1\n      dup2\n      add\n      0x40\n      mstore\n      dup1\n      swap4\n      swap3\n      swap2\n      swap1\n      dup2\n      dup2\n      mstore\n      0x20\n      add\n      dup4\n      dup4\n      dup1\n      dup3\n      dup5\n      calldatacopy\n      0x00\n      dup2\n      dup5\n      add\n      mstore\n      not(0x1f)\n      0x1f\n      dup3\n      add\n      and\n      swap1\n      pop\n      dup1\n      dup4\n      add\n      swap3\n      pop\n      pop\n      pop\n      pop\n      pop\n      pop\n      pop\n      dup2\n      mstore\n      pop\n        /* \"contracts/zkleanpool.sol\":3764:3769  notes */\n      0x2c\n        /* \"contracts/zkleanpool.sol\":3764:3781  notes[commitment] */\n      0x00\n        /* \"contracts/zkleanpool.sol\":3770:3780  commitment */\n      dup8\n        /* \"contracts/zkleanpool.sol\":3764:3781  notes[commitment] */\n      dup2\n      mstore\n      0x20\n      add\n      swap1\n      dup2\n      mstore\n      0x20\n      add\n      0x00\n      keccak256\n        /* \"contracts/zkleanpool.sol\":3764:3826  notes[commitment] = EncryptedNote({ciphertext: encryptedNote}) */\n      0x00\n      dup3\n      add\n      mload\n      dup2\n      0x00\n      add\n      swap1\n      dup2\n      tag_146\n      swap2\n      swap1\n      tag_147\n      jump\t// in\n    tag_146:\n      pop\n      swap1\n      pop\n      pop\n        /* \"contracts/zkleanpool.sol\":3854:3864  commitment */\n      dup5\n        /* \"contracts/zkleanpool.sol\":3846:3880  Deposit(commitment, nextIndex - 1) */\n      0x84fc9eb8cd0a782a1d1734fbeed616bd0ef775f8b9bd437636b62d634fe4baf3\n        /* \"contracts/zkleanpool.sol\":3878:3879  1 */\n      0x01\n        /* \"contracts/zkleanpool.sol\":3866:3875  nextIndex */\n      0x29\n      0x00\n      swap1\n      sload\n      swap1\n      0x0100\n      exp\n      swap1\n      div\n      0xffffffff\n      and\n        /* \"contracts/zkleanpool.sol\":3866:3879  nextIndex - 1 */\n      tag_148\n      swap2\n      swap1\n      tag_149\n      jump\t// in\n    tag_148:\n        /* \"contracts/zkleanpool.sol\":3846:3880  Deposit(commitment, nextIndex - 1) */\n      mload(0x40)\n      tag_150\n      swap2\n      swap1\n      tag_23\n      jump\t// in\n    tag_150:\n      mload(0x40)\n      dup1\n      swap2\n      sub\n      swap1\n      log2\n        /* \"contracts/zkleanpool.sol\":3059:3888  {... */\n      pop\n      pop\n        /* \"contracts/zkleanpool.sol\":2950:3888  function deposit(... */\n      pop\n      pop\n      pop\n      jump\t// out\n        /* \"contracts/zkleanpool.sol\":5036:5161  function isSpent(bytes32 nullifierHash) external view returns (bool) {... */\n    tag_64:\n        /* \"contracts/zkleanpool.sol\":5099:5103  bool */\n      0x00\n        /* \"contracts/zkleanpool.sol\":5123:5138  nullifierHashes */\n      0x2a\n        /* \"contracts/zkleanpool.sol\":5123:5153  nullifierHashes[nullifierHash] */\n      0x00\n        /* \"contracts/zkleanpool.sol\":5139:5152  nullifierHash */\n      dup4\n        /* \"contracts/zkleanpool.sol\":5123:5153  nullifierHashes[nullifierHash] */\n      dup2\n      mstore\n      0x20\n      add\n      swap1\n      dup2\n      mstore\n      0x20\n      add\n      0x00\n      keccak256\n      0x00\n      swap1\n      sload\n      swap1\n      0x0100\n      exp\n      swap1\n      div\n      0xff\n      and\n        /* \"contracts/zkleanpool.sol\":5116:5153  return nullifierHashes[nullifierHash] */\n      swap1\n      pop\n        /* \"contracts/zkleanpool.sol\":5036:5161  function isSpent(bytes32 nullifierHash) external view returns (bool) {... */\n      swap2\n      swap1\n      pop\n      jump\t// out\n        /* \"contracts/zkleanpool.sol\":1502:1534  bytes32[TREE_DEPTH] public zeros */\n    tag_70:\n      0x00\n      dup2\n      0x14\n      dup2\n      lt\n      tag_152\n      jumpi\n      0x00\n      dup1\n      revert\n    tag_152:\n      add\n      0x00\n      swap2\n      pop\n      swap1\n      pop\n      sload\n      dup2\n      jump\t// out\n        /* \"contracts/zkleanpool.sol\":1233:1274  uint32  public constant TREE_DEPTH   = 20 */\n    tag_75:\n        /* \"contracts/zkleanpool.sol\":1272:1274  20 */\n      0x14\n        /* \"contracts/zkleanpool.sol\":1233:1274  uint32  public constant TREE_DEPTH   = 20 */\n      dup2\n      jump\t// out\n        /* \"contracts/zkleanpool.sol\":1541:1582  bytes32[TREE_DEPTH] public filledSubtrees */\n    tag_80:\n      0x14\n      dup2\n      0x14\n      dup2\n      lt\n      tag_154\n      jumpi\n      0x00\n      dup1\n      revert\n    tag_154:\n      add\n      0x00\n      swap2\n      pop\n      swap1\n      pop\n      sload\n      dup2\n      jump\t// out\n        /* \"contracts/zkleanpool.sol\":1624:1647  uint32 public nextIndex */\n    tag_84:\n      0x29\n      0x00\n      swap1\n      sload\n      swap1\n      0x0100\n      exp\n      swap1\n      div\n      0xffffffff\n      and\n      dup2\n      jump\t// out\n        /* \"contracts/zkleanpool.sol\":1591:1617  bytes32 public currentRoot */\n    tag_88:\n      sload(0x28)\n      dup2\n      jump\t// out\n        /* \"#utility.yul\":7:100   */\n    tag_156:\n        /* \"#utility.yul\":43:50   */\n      0x00\n        /* \"#utility.yul\":83:93   */\n      0xffffffff\n        /* \"#utility.yul\":76:81   */\n      dup3\n        /* \"#utility.yul\":72:94   */\n      and\n        /* \"#utility.yul\":61:94   */\n      swap1\n      pop\n        /* \"#utility.yul\":7:100   */\n      swap2\n      swap1\n      pop\n      jump\t// out\n        /* \"#utility.yul\":106:221   */\n    tag_157:\n        /* \"#utility.yul\":191:214   */\n      tag_225\n        /* \"#utility.yul\":208:213   */\n      dup2\n        /* \"#utility.yul\":191:214   */\n      tag_156\n      jump\t// in\n    tag_225:\n        /* \"#utility.yul\":186:189   */\n      dup3\n        /* \"#utility.yul\":179:215   */\n      mstore\n        /* \"#utility.yul\":106:221   */\n      pop\n      pop\n      jump\t// out\n        /* \"#utility.yul\":227:445   */\n    tag_23:\n        /* \"#utility.yul\":318:322   */\n      0x00\n        /* \"#utility.yul\":356:358   */\n      0x20\n        /* \"#utility.yul\":345:354   */\n      dup3\n        /* \"#utility.yul\":341:359   */\n      add\n        /* \"#utility.yul\":333:359   */\n      swap1\n      pop\n        /* \"#utility.yul\":369:438   */\n      tag_227\n        /* \"#utility.yul\":435:436   */\n      0x00\n        /* \"#utility.yul\":424:433   */\n      dup4\n        /* \"#utility.yul\":420:437   */\n      add\n        /* \"#utility.yul\":411:417   */\n      dup5\n        /* \"#utility.yul\":369:438   */\n      tag_157\n      jump\t// in\n    tag_227:\n        /* \"#utility.yul\":227:445   */\n      swap3\n      swap2\n      pop\n      pop\n      jump\t// out\n        /* \"#utility.yul\":532:649   */\n    tag_159:\n        /* \"#utility.yul\":641:642   */\n      0x00\n        /* \"#utility.yul\":638:639   */\n      0x00\n        /* \"#utility.yul\":631:643   */\n      revert\n        /* \"#utility.yul\":655:772   */\n    tag_160:\n        /* \"#utility.yul\":764:765   */\n      0x00\n        /* \"#utility.yul\":761:762   */\n      0x00\n        /* \"#utility.yul\":754:766   */\n      revert\n        /* \"#utility.yul\":778:855   */\n    tag_161:\n        /* \"#utility.yul\":815:822   */\n      0x00\n        /* \"#utility.yul\":844:849   */\n      dup2\n        /* \"#utility.yul\":833:849   */\n      swap1\n      pop\n        /* \"#utility.yul\":778:855   */\n      swap2\n      swap1\n      pop\n      jump\t// out\n        /* \"#utility.yul\":861:983   */\n    tag_162:\n        /* \"#utility.yul\":934:958   */\n      tag_233\n        /* \"#utility.yul\":952:957   */\n      dup2\n        /* \"#utility.yul\":934:958   */\n      tag_161\n      jump\t// in\n    tag_233:\n        /* \"#utility.yul\":927:932   */\n      dup2\n        /* \"#utility.yul\":924:959   */\n      eq\n        /* \"#utility.yul\":914:977   */\n      tag_234\n      jumpi\n        /* \"#utility.yul\":973:974   */\n      0x00\n        /* \"#utility.yul\":970:971   */\n      0x00\n        /* \"#utility.yul\":963:975   */\n      revert\n        /* \"#utility.yul\":914:977   */\n    tag_234:\n        /* \"#utility.yul\":861:983   */\n      pop\n      jump\t// out\n        /* \"#utility.yul\":989:1128   */\n    tag_163:\n        /* \"#utility.yul\":1035:1040   */\n      0x00\n        /* \"#utility.yul\":1073:1079   */\n      dup2\n        /* \"#utility.yul\":1060:1080   */\n      calldataload\n        /* \"#utility.yul\":1051:1080   */\n      swap1\n      pop\n        /* \"#utility.yul\":1089:1122   */\n      tag_236\n        /* \"#utility.yul\":1116:1121   */\n      dup2\n        /* \"#utility.yul\":1089:1122   */\n      tag_162\n      jump\t// in\n    tag_236:\n        /* \"#utility.yul\":989:1128   */\n      swap3\n      swap2\n      pop\n      pop\n      jump\t// out\n        /* \"#utility.yul\":1134:1463   */\n    tag_27:\n        /* \"#utility.yul\":1193:1199   */\n      0x00\n        /* \"#utility.yul\":1242:1244   */\n      0x20\n        /* \"#utility.yul\":1230:1239   */\n      dup3\n        /* \"#utility.yul\":1221:1228   */\n      dup5\n        /* \"#utility.yul\":1217:1240   */\n      sub\n        /* \"#utility.yul\":1213:1245   */\n      slt\n        /* \"#utility.yul\":1210:1329   */\n      iszero\n      tag_238\n      jumpi\n        /* \"#utility.yul\":1248:1327   */\n      tag_239\n      tag_159\n      jump\t// in\n    tag_239:\n        /* \"#utility.yul\":1210:1329   */\n    tag_238:\n        /* \"#utility.yul\":1368:1369   */\n      0x00\n        /* \"#utility.yul\":1393:1446   */\n      tag_240\n        /* \"#utility.yul\":1438:1445   */\n      dup5\n        /* \"#utility.yul\":1429:1435   */\n      dup3\n        /* \"#utility.yul\":1418:1427   */\n      dup6\n        /* \"#utility.yul\":1414:1436   */\n      add\n        /* \"#utility.yul\":1393:1446   */\n      tag_163\n      jump\t// in\n    tag_240:\n        /* \"#utility.yul\":1383:1446   */\n      swap2\n      pop\n        /* \"#utility.yul\":1339:1456   */\n      pop\n        /* \"#utility.yul\":1134:1463   */\n      swap3\n      swap2\n      pop\n      pop\n      jump\t// out\n        /* \"#utility.yul\":1469:1559   */\n    tag_164:\n        /* \"#utility.yul\":1503:1510   */\n      0x00\n        /* \"#utility.yul\":1546:1551   */\n      dup2\n        /* \"#utility.yul\":1539:1552   */\n      iszero\n        /* \"#utility.yul\":1532:1553   */\n      iszero\n        /* \"#utility.yul\":1521:1553   */\n      swap1\n      pop\n        /* \"#utility.yul\":1469:1559   */\n      swap2\n      swap1\n      pop\n      jump\t// out\n        /* \"#utility.yul\":1565:1674   */\n    tag_165:\n        /* \"#utility.yul\":1646:1667   */\n      tag_243\n        /* \"#utility.yul\":1661:1666   */\n      dup2\n        /* \"#utility.yul\":1646:1667   */\n      tag_164\n      jump\t// in\n    tag_243:\n        /* \"#utility.yul\":1641:1644   */\n      dup3\n        /* \"#utility.yul\":1634:1668   */\n      mstore\n        /* \"#utility.yul\":1565:1674   */\n      pop\n      pop\n      jump\t// out\n        /* \"#utility.yul\":1680:1890   */\n    tag_30:\n        /* \"#utility.yul\":1767:1771   */\n      0x00\n        /* \"#utility.yul\":1805:1807   */\n      0x20\n        /* \"#utility.yul\":1794:1803   */\n      dup3\n        /* \"#utility.yul\":1790:1808   */\n      add\n        /* \"#utility.yul\":1782:1808   */\n      swap1\n      pop\n        /* \"#utility.yul\":1818:1883   */\n      tag_245\n        /* \"#utility.yul\":1880:1881   */\n      0x00\n        /* \"#utility.yul\":1869:1878   */\n      dup4\n        /* \"#utility.yul\":1865:1882   */\n      add\n        /* \"#utility.yul\":1856:1862   */\n      dup5\n        /* \"#utility.yul\":1818:1883   */\n      tag_165\n      jump\t// in\n    tag_245:\n        /* \"#utility.yul\":1680:1890   */\n      swap3\n      swap2\n      pop\n      pop\n      jump\t// out\n        /* \"#utility.yul\":1896:2022   */\n    tag_166:\n        /* \"#utility.yul\":1933:1940   */\n      0x00\n        /* \"#utility.yul\":1973:2015   */\n      0xffffffffffffffffffffffffffffffffffffffff\n        /* \"#utility.yul\":1966:1971   */\n      dup3\n        /* \"#utility.yul\":1962:2016   */\n      and\n        /* \"#utility.yul\":1951:2016   */\n      swap1\n      pop\n        /* \"#utility.yul\":1896:2022   */\n      swap2\n      swap1\n      pop\n      jump\t// out\n        /* \"#utility.yul\":2028:2088   */\n    tag_167:\n        /* \"#utility.yul\":2056:2059   */\n      0x00\n        /* \"#utility.yul\":2077:2082   */\n      dup2\n        /* \"#utility.yul\":2070:2082   */\n      swap1\n      pop\n        /* \"#utility.yul\":2028:2088   */\n      swap2\n      swap1\n      pop\n      jump\t// out\n        /* \"#utility.yul\":2094:2236   */\n    tag_168:\n        /* \"#utility.yul\":2144:2153   */\n      0x00\n        /* \"#utility.yul\":2177:2230   */\n      tag_249\n        /* \"#utility.yul\":2195:2229   */\n      tag_250\n        /* \"#utility.yul\":2204:2228   */\n      tag_251\n        /* \"#utility.yul\":2222:2227   */\n      dup5\n        /* \"#utility.yul\":2204:2228   */\n      tag_166\n      jump\t// in\n    tag_251:\n        /* \"#utility.yul\":2195:2229   */\n      tag_167\n      jump\t// in\n    tag_250:\n        /* \"#utility.yul\":2177:2230   */\n      tag_166\n      jump\t// in\n    tag_249:\n        /* \"#utility.yul\":2164:2230   */\n      swap1\n      pop\n        /* \"#utility.yul\":2094:2236   */\n      swap2\n      swap1\n      pop\n      jump\t// out\n        /* \"#utility.yul\":2242:2368   */\n    tag_169:\n        /* \"#utility.yul\":2292:2301   */\n      0x00\n        /* \"#utility.yul\":2325:2362   */\n      tag_253\n        /* \"#utility.yul\":2356:2361   */\n      dup3\n        /* \"#utility.yul\":2325:2362   */\n      tag_168\n      jump\t// in\n    tag_253:\n        /* \"#utility.yul\":2312:2362   */\n      swap1\n      pop\n        /* \"#utility.yul\":2242:2368   */\n      swap2\n      swap1\n      pop\n      jump\t// out\n        /* \"#utility.yul\":2374:2516   */\n    tag_170:\n        /* \"#utility.yul\":2440:2449   */\n      0x00\n        /* \"#utility.yul\":2473:2510   */\n      tag_255\n        /* \"#utility.yul\":2504:2509   */\n      dup3\n        /* \"#utility.yul\":2473:2510   */\n      tag_169\n      jump\t// in\n    tag_255:\n        /* \"#utility.yul\":2460:2510   */\n      swap1\n      pop\n        /* \"#utility.yul\":2374:2516   */\n      swap2\n      swap1\n      pop\n      jump\t// out\n        /* \"#utility.yul\":2522:2685   */\n    tag_171:\n        /* \"#utility.yul\":2625:2678   */\n      tag_257\n        /* \"#utility.yul\":2672:2677   */\n      dup2\n        /* \"#utility.yul\":2625:2678   */\n      tag_170\n      jump\t// in\n    tag_257:\n        /* \"#utility.yul\":2620:2623   */\n      dup3\n        /* \"#utility.yul\":2613:2679   */\n      mstore\n        /* \"#utility.yul\":2522:2685   */\n      pop\n      pop\n      jump\t// out\n        /* \"#utility.yul\":2691:2945   */\n    tag_35:\n        /* \"#utility.yul\":2800:2804   */\n      0x00\n        /* \"#utility.yul\":2838:2840   */\n      0x20\n        /* \"#utility.yul\":2827:2836   */\n      dup3\n        /* \"#utility.yul\":2823:2841   */\n      add\n        /* \"#utility.yul\":2815:2841   */\n      swap1\n      pop\n        /* \"#utility.yul\":2851:2938   */\n      tag_259\n        /* \"#utility.yul\":2935:2936   */\n      0x00\n        /* \"#utility.yul\":2924:2933   */\n      dup4\n        /* \"#utility.yul\":2920:2937   */\n      add\n        /* \"#utility.yul\":2911:2917   */\n      dup5\n        /* \"#utility.yul\":2851:2938   */\n      tag_171\n      jump\t// in\n    tag_259:\n        /* \"#utility.yul\":2691:2945   */\n      swap3\n      swap2\n      pop\n      pop\n      jump\t// out\n        /* \"#utility.yul\":2951:3049   */\n    tag_172:\n        /* \"#utility.yul\":3002:3008   */\n      0x00\n        /* \"#utility.yul\":3036:3041   */\n      dup2\n        /* \"#utility.yul\":3030:3042   */\n      mload\n        /* \"#utility.yul\":3020:3042   */\n      swap1\n      pop\n        /* \"#utility.yul\":2951:3049   */\n      swap2\n      swap1\n      pop\n      jump\t// out\n        /* \"#utility.yul\":3055:3223   */\n    tag_173:\n        /* \"#utility.yul\":3138:3149   */\n      0x00\n        /* \"#utility.yul\":3172:3178   */\n      dup3\n        /* \"#utility.yul\":3167:3170   */\n      dup3\n        /* \"#utility.yul\":3160:3179   */\n      mstore\n        /* \"#utility.yul\":3212:3216   */\n      0x20\n        /* \"#utility.yul\":3207:3210   */\n      dup3\n        /* \"#utility.yul\":3203:3217   */\n      add\n        /* \"#utility.yul\":3188:3217   */\n      swap1\n      pop\n        /* \"#utility.yul\":3055:3223   */\n      swap3\n      swap2\n      pop\n      pop\n      jump\t// out\n        /* \"#utility.yul\":3229:3368   */\n    tag_174:\n        /* \"#utility.yul\":3318:3324   */\n      dup3\n        /* \"#utility.yul\":3313:3316   */\n      dup2\n        /* \"#utility.yul\":3308:3311   */\n      dup4\n        /* \"#utility.yul\":3302:3325   */\n      mcopy\n        /* \"#utility.yul\":3359:3360   */\n      0x00\n        /* \"#utility.yul\":3350:3356   */\n      dup4\n        /* \"#utility.yul\":3345:3348   */\n      dup4\n        /* \"#utility.yul\":3341:3357   */\n      add\n        /* \"#utility.yul\":3334:3361   */\n      mstore\n        /* \"#utility.yul\":3229:3368   */\n      pop\n      pop\n      pop\n      jump\t// out\n        /* \"#utility.yul\":3374:3476   */\n    tag_175:\n        /* \"#utility.yul\":3415:3421   */\n      0x00\n        /* \"#utility.yul\":3466:3468   */\n      0x1f\n        /* \"#utility.yul\":3462:3469   */\n      not\n        /* \"#utility.yul\":3457:3459   */\n      0x1f\n        /* \"#utility.yul\":3450:3455   */\n      dup4\n        /* \"#utility.yul\":3446:3460   */\n      add\n        /* \"#utility.yul\":3442:3470   */\n      and\n        /* \"#utility.yul\":3432:3470   */\n      swap1\n      pop\n        /* \"#utility.yul\":3374:3476   */\n      swap2\n      swap1\n      pop\n      jump\t// out\n        /* \"#utility.yul\":3482:3855   */\n    tag_176:\n        /* \"#utility.yul\":3568:3571   */\n      0x00\n        /* \"#utility.yul\":3596:3634   */\n      tag_265\n        /* \"#utility.yul\":3628:3633   */\n      dup3\n        /* \"#utility.yul\":3596:3634   */\n      tag_172\n      jump\t// in\n    tag_265:\n        /* \"#utility.yul\":3650:3720   */\n      tag_266\n        /* \"#utility.yul\":3713:3719   */\n      dup2\n        /* \"#utility.yul\":3708:3711   */\n      dup6\n        /* \"#utility.yul\":3650:3720   */\n      tag_173\n      jump\t// in\n    tag_266:\n        /* \"#utility.yul\":3643:3720   */\n      swap4\n      pop\n        /* \"#utility.yul\":3729:3794   */\n      tag_267\n        /* \"#utility.yul\":3787:3793   */\n      dup2\n        /* \"#utility.yul\":3782:3785   */\n      dup6\n        /* \"#utility.yul\":3775:3779   */\n      0x20\n        /* \"#utility.yul\":3768:3773   */\n      dup7\n        /* \"#utility.yul\":3764:3780   */\n      add\n        /* \"#utility.yul\":3729:3794   */\n      tag_174\n      jump\t// in\n    tag_267:\n        /* \"#utility.yul\":3819:3848   */\n      tag_268\n        /* \"#utility.yul\":3841:3847   */\n      dup2\n        /* \"#utility.yul\":3819:3848   */\n      tag_175\n      jump\t// in\n    tag_268:\n        /* \"#utility.yul\":3814:3817   */\n      dup5\n        /* \"#utility.yul\":3810:3849   */\n      add\n        /* \"#utility.yul\":3803:3849   */\n      swap2\n      pop\n        /* \"#utility.yul\":3572:3855   */\n      pop\n        /* \"#utility.yul\":3482:3855   */\n      swap3\n      swap2\n      pop\n      pop\n      jump\t// out\n        /* \"#utility.yul\":3861:4170   */\n    tag_46:\n        /* \"#utility.yul\":3972:3976   */\n      0x00\n        /* \"#utility.yul\":4010:4012   */\n      0x20\n        /* \"#utility.yul\":3999:4008   */\n      dup3\n        /* \"#utility.yul\":3995:4013   */\n      add\n        /* \"#utility.yul\":3987:4013   */\n      swap1\n      pop\n        /* \"#utility.yul\":4059:4068   */\n      dup2\n        /* \"#utility.yul\":4053:4057   */\n      dup2\n        /* \"#utility.yul\":4049:4069   */\n      sub\n        /* \"#utility.yul\":4045:4046   */\n      0x00\n        /* \"#utility.yul\":4034:4043   */\n      dup4\n        /* \"#utility.yul\":4030:4047   */\n      add\n        /* \"#utility.yul\":4023:4070   */\n      mstore\n        /* \"#utility.yul\":4087:4163   */\n      tag_270\n        /* \"#utility.yul\":4158:4162   */\n      dup2\n        /* \"#utility.yul\":4149:4155   */\n      dup5\n        /* \"#utility.yul\":4087:4163   */\n      tag_176\n      jump\t// in\n    tag_270:\n        /* \"#utility.yul\":4079:4163   */\n      swap1\n      pop\n        /* \"#utility.yul\":3861:4170   */\n      swap3\n      swap2\n      pop\n      pop\n      jump\t// out\n        /* \"#utility.yul\":4176:4253   */\n    tag_177:\n        /* \"#utility.yul\":4213:4220   */\n      0x00\n        /* \"#utility.yul\":4242:4247   */\n      dup2\n        /* \"#utility.yul\":4231:4247   */\n      swap1\n      pop\n        /* \"#utility.yul\":4176:4253   */\n      swap2\n      swap1\n      pop\n      jump\t// out\n        /* \"#utility.yul\":4259:4377   */\n    tag_178:\n        /* \"#utility.yul\":4346:4370   */\n      tag_273\n        /* \"#utility.yul\":4364:4369   */\n      dup2\n        /* \"#utility.yul\":4346:4370   */\n      tag_177\n      jump\t// in\n    tag_273:\n        /* \"#utility.yul\":4341:4344   */\n      dup3\n        /* \"#utility.yul\":4334:4371   */\n      mstore\n        /* \"#utility.yul\":4259:4377   */\n      pop\n      pop\n      jump\t// out\n        /* \"#utility.yul\":4383:4605   */\n    tag_51:\n        /* \"#utility.yul\":4476:4480   */\n      0x00\n        /* \"#utility.yul\":4514:4516   */\n      0x20\n        /* \"#utility.yul\":4503:4512   */\n      dup3\n        /* \"#utility.yul\":4499:4517   */\n      add\n        /* \"#utility.yul\":4491:4517   */\n      swap1\n      pop\n        /* \"#utility.yul\":4527:4598   */\n      tag_275\n        /* \"#utility.yul\":4595:4596   */\n      0x00\n        /* \"#utility.yul\":4584:4593   */\n      dup4\n        /* \"#utility.yul\":4580:4597   */\n      add\n        /* \"#utility.yul\":4571:4577   */\n      dup5\n        /* \"#utility.yul\":4527:4598   */\n      tag_178\n      jump\t// in\n    tag_275:\n        /* \"#utility.yul\":4383:4605   */\n      swap3\n      swap2\n      pop\n      pop\n      jump\t// out\n        /* \"#utility.yul\":4611:4728   */\n    tag_179:\n        /* \"#utility.yul\":4720:4721   */\n      0x00\n        /* \"#utility.yul\":4717:4718   */\n      0x00\n        /* \"#utility.yul\":4710:4722   */\n      revert\n        /* \"#utility.yul\":4734:4851   */\n    tag_180:\n        /* \"#utility.yul\":4843:4844   */\n      0x00\n        /* \"#utility.yul\":4840:4841   */\n      0x00\n        /* \"#utility.yul\":4833:4845   */\n      revert\n        /* \"#utility.yul\":4857:4974   */\n    tag_181:\n        /* \"#utility.yul\":4966:4967   */\n      0x00\n        /* \"#utility.yul\":4963:4964   */\n      0x00\n        /* \"#utility.yul\":4956:4968   */\n      revert\n        /* \"#utility.yul\":4993:5545   */\n    tag_182:\n        /* \"#utility.yul\":5050:5058   */\n      0x00\n        /* \"#utility.yul\":5060:5066   */\n      0x00\n        /* \"#utility.yul\":5110:5113   */\n      dup4\n        /* \"#utility.yul\":5103:5107   */\n      0x1f\n        /* \"#utility.yul\":5095:5101   */\n      dup5\n        /* \"#utility.yul\":5091:5108   */\n      add\n        /* \"#utility.yul\":5087:5114   */\n      slt\n        /* \"#utility.yul\":5077:5199   */\n      tag_280\n      jumpi\n        /* \"#utility.yul\":5118:5197   */\n      tag_281\n      tag_179\n      jump\t// in\n    tag_281:\n        /* \"#utility.yul\":5077:5199   */\n    tag_280:\n        /* \"#utility.yul\":5231:5237   */\n      dup3\n        /* \"#utility.yul\":5218:5238   */\n      calldataload\n        /* \"#utility.yul\":5208:5238   */\n      swap1\n      pop\n        /* \"#utility.yul\":5261:5279   */\n      0xffffffffffffffff\n        /* \"#utility.yul\":5253:5259   */\n      dup2\n        /* \"#utility.yul\":5250:5280   */\n      gt\n        /* \"#utility.yul\":5247:5364   */\n      iszero\n      tag_282\n      jumpi\n        /* \"#utility.yul\":5283:5362   */\n      tag_283\n      tag_180\n      jump\t// in\n    tag_283:\n        /* \"#utility.yul\":5247:5364   */\n    tag_282:\n        /* \"#utility.yul\":5397:5401   */\n      0x20\n        /* \"#utility.yul\":5389:5395   */\n      dup4\n        /* \"#utility.yul\":5385:5402   */\n      add\n        /* \"#utility.yul\":5373:5402   */\n      swap2\n      pop\n        /* \"#utility.yul\":5451:5454   */\n      dup4\n        /* \"#utility.yul\":5443:5447   */\n      0x01\n        /* \"#utility.yul\":5435:5441   */\n      dup3\n        /* \"#utility.yul\":5431:5448   */\n      mul\n        /* \"#utility.yul\":5421:5429   */\n      dup4\n        /* \"#utility.yul\":5417:5449   */\n      add\n        /* \"#utility.yul\":5414:5455   */\n      gt\n        /* \"#utility.yul\":5411:5539   */\n      iszero\n      tag_284\n      jumpi\n        /* \"#utility.yul\":5458:5537   */\n      tag_285\n      tag_181\n      jump\t// in\n    tag_285:\n        /* \"#utility.yul\":5411:5539   */\n    tag_284:\n        /* \"#utility.yul\":4993:5545   */\n      swap3\n      pop\n      swap3\n      swap1\n      pop\n      jump\t// out\n        /* \"#utility.yul\":5551:5655   */\n    tag_183:\n        /* \"#utility.yul\":5596:5603   */\n      0x00\n        /* \"#utility.yul\":5625:5649   */\n      tag_287\n        /* \"#utility.yul\":5643:5648   */\n      dup3\n        /* \"#utility.yul\":5625:5649   */\n      tag_166\n      jump\t// in\n    tag_287:\n        /* \"#utility.yul\":5614:5649   */\n      swap1\n      pop\n        /* \"#utility.yul\":5551:5655   */\n      swap2\n      swap1\n      pop\n      jump\t// out\n        /* \"#utility.yul\":5661:5799   */\n    tag_184:\n        /* \"#utility.yul\":5742:5774   */\n      tag_289\n        /* \"#utility.yul\":5768:5773   */\n      dup2\n        /* \"#utility.yul\":5742:5774   */\n      tag_183\n      jump\t// in\n    tag_289:\n        /* \"#utility.yul\":5735:5740   */\n      dup2\n        /* \"#utility.yul\":5732:5775   */\n      eq\n        /* \"#utility.yul\":5722:5793   */\n      tag_290\n      jumpi\n        /* \"#utility.yul\":5789:5790   */\n      0x00\n        /* \"#utility.yul\":5786:5787   */\n      0x00\n        /* \"#utility.yul\":5779:5791   */\n      revert\n        /* \"#utility.yul\":5722:5793   */\n    tag_290:\n        /* \"#utility.yul\":5661:5799   */\n      pop\n      jump\t// out\n        /* \"#utility.yul\":5805:5960   */\n    tag_185:\n        /* \"#utility.yul\":5859:5864   */\n      0x00\n        /* \"#utility.yul\":5897:5903   */\n      dup2\n        /* \"#utility.yul\":5884:5904   */\n      calldataload\n        /* \"#utility.yul\":5875:5904   */\n      swap1\n      pop\n        /* \"#utility.yul\":5913:5954   */\n      tag_292\n        /* \"#utility.yul\":5948:5953   */\n      dup2\n        /* \"#utility.yul\":5913:5954   */\n      tag_184\n      jump\t// in\n    tag_292:\n        /* \"#utility.yul\":5805:5960   */\n      swap3\n      swap2\n      pop\n      pop\n      jump\t// out\n        /* \"#utility.yul\":5966:6945   */\n    tag_55:\n        /* \"#utility.yul\":6071:6077   */\n      0x00\n        /* \"#utility.yul\":6079:6085   */\n      0x00\n        /* \"#utility.yul\":6087:6093   */\n      0x00\n        /* \"#utility.yul\":6095:6101   */\n      0x00\n        /* \"#utility.yul\":6103:6109   */\n      0x00\n        /* \"#utility.yul\":6152:6155   */\n      0x80\n        /* \"#utility.yul\":6140:6149   */\n      dup7\n        /* \"#utility.yul\":6131:6138   */\n      dup9\n        /* \"#utility.yul\":6127:6150   */\n      sub\n        /* \"#utility.yul\":6123:6156   */\n      slt\n        /* \"#utility.yul\":6120:6240   */\n      iszero\n      tag_294\n      jumpi\n        /* \"#utility.yul\":6159:6238   */\n      tag_295\n      tag_159\n      jump\t// in\n    tag_295:\n        /* \"#utility.yul\":6120:6240   */\n    tag_294:\n        /* \"#utility.yul\":6307:6308   */\n      0x00\n        /* \"#utility.yul\":6296:6305   */\n      dup7\n        /* \"#utility.yul\":6292:6309   */\n      add\n        /* \"#utility.yul\":6279:6310   */\n      calldataload\n        /* \"#utility.yul\":6337:6355   */\n      0xffffffffffffffff\n        /* \"#utility.yul\":6329:6335   */\n      dup2\n        /* \"#utility.yul\":6326:6356   */\n      gt\n        /* \"#utility.yul\":6323:6440   */\n      iszero\n      tag_296\n      jumpi\n        /* \"#utility.yul\":6359:6438   */\n      tag_297\n      tag_160\n      jump\t// in\n    tag_297:\n        /* \"#utility.yul\":6323:6440   */\n    tag_296:\n        /* \"#utility.yul\":6472:6536   */\n      tag_298\n        /* \"#utility.yul\":6528:6535   */\n      dup9\n        /* \"#utility.yul\":6519:6525   */\n      dup3\n        /* \"#utility.yul\":6508:6517   */\n      dup10\n        /* \"#utility.yul\":6504:6526   */\n      add\n        /* \"#utility.yul\":6472:6536   */\n      tag_182\n      jump\t// in\n    tag_298:\n        /* \"#utility.yul\":6454:6536   */\n      swap6\n      pop\n      swap6\n      pop\n        /* \"#utility.yul\":6250:6546   */\n      pop\n        /* \"#utility.yul\":6585:6587   */\n      0x20\n        /* \"#utility.yul\":6611:6664   */\n      tag_299\n        /* \"#utility.yul\":6656:6663   */\n      dup9\n        /* \"#utility.yul\":6647:6653   */\n      dup3\n        /* \"#utility.yul\":6636:6645   */\n      dup10\n        /* \"#utility.yul\":6632:6654   */\n      add\n        /* \"#utility.yul\":6611:6664   */\n      tag_163\n      jump\t// in\n    tag_299:\n        /* \"#utility.yul\":6601:6664   */\n      swap4\n      pop\n        /* \"#utility.yul\":6556:6674   */\n      pop\n        /* \"#utility.yul\":6713:6715   */\n      0x40\n        /* \"#utility.yul\":6739:6792   */\n      tag_300\n        /* \"#utility.yul\":6784:6791   */\n      dup9\n        /* \"#utility.yul\":6775:6781   */\n      dup3\n        /* \"#utility.yul\":6764:6773   */\n      dup10\n        /* \"#utility.yul\":6760:6782   */\n      add\n        /* \"#utility.yul\":6739:6792   */\n      tag_163\n      jump\t// in\n    tag_300:\n        /* \"#utility.yul\":6729:6792   */\n      swap3\n      pop\n        /* \"#utility.yul\":6684:6802   */\n      pop\n        /* \"#utility.yul\":6841:6843   */\n      0x60\n        /* \"#utility.yul\":6867:6928   */\n      tag_301\n        /* \"#utility.yul\":6920:6927   */\n      dup9\n        /* \"#utility.yul\":6911:6917   */\n      dup3\n        /* \"#utility.yul\":6900:6909   */\n      dup10\n        /* \"#utility.yul\":6896:6918   */\n      add\n        /* \"#utility.yul\":6867:6928   */\n      tag_185\n      jump\t// in\n    tag_301:\n        /* \"#utility.yul\":6857:6928   */\n      swap2\n      pop\n        /* \"#utility.yul\":6812:6938   */\n      pop\n        /* \"#utility.yul\":5966:6945   */\n      swap3\n      swap6\n      pop\n      swap3\n      swap6\n      swap1\n      swap4\n      pop\n      jump\t// out\n        /* \"#utility.yul\":6951:7623   */\n    tag_59:\n        /* \"#utility.yul\":7030:7036   */\n      0x00\n        /* \"#utility.yul\":7038:7044   */\n      0x00\n        /* \"#utility.yul\":7046:7052   */\n      0x00\n        /* \"#utility.yul\":7095:7097   */\n      0x40\n        /* \"#utility.yul\":7083:7092   */\n      dup5\n        /* \"#utility.yul\":7074:7081   */\n      dup7\n        /* \"#utility.yul\":7070:7093   */\n      sub\n        /* \"#utility.yul\":7066:7098   */\n      slt\n        /* \"#utility.yul\":7063:7182   */\n      iszero\n      tag_303\n      jumpi\n        /* \"#utility.yul\":7101:7180   */\n      tag_304\n      tag_159\n      jump\t// in\n    tag_304:\n        /* \"#utility.yul\":7063:7182   */\n    tag_303:\n        /* \"#utility.yul\":7221:7222   */\n      0x00\n        /* \"#utility.yul\":7246:7299   */\n      tag_305\n        /* \"#utility.yul\":7291:7298   */\n      dup7\n        /* \"#utility.yul\":7282:7288   */\n      dup3\n        /* \"#utility.yul\":7271:7280   */\n      dup8\n        /* \"#utility.yul\":7267:7289   */\n      add\n        /* \"#utility.yul\":7246:7299   */\n      tag_163\n      jump\t// in\n    tag_305:\n        /* \"#utility.yul\":7236:7299   */\n      swap4\n      pop\n        /* \"#utility.yul\":7192:7309   */\n      pop\n        /* \"#utility.yul\":7376:7378   */\n      0x20\n        /* \"#utility.yul\":7365:7374   */\n      dup5\n        /* \"#utility.yul\":7361:7379   */\n      add\n        /* \"#utility.yul\":7348:7380   */\n      calldataload\n        /* \"#utility.yul\":7407:7425   */\n      0xffffffffffffffff\n        /* \"#utility.yul\":7399:7405   */\n      dup2\n        /* \"#utility.yul\":7396:7426   */\n      gt\n        /* \"#utility.yul\":7393:7510   */\n      iszero\n      tag_306\n      jumpi\n        /* \"#utility.yul\":7429:7508   */\n      tag_307\n      tag_160\n      jump\t// in\n    tag_307:\n        /* \"#utility.yul\":7393:7510   */\n    tag_306:\n        /* \"#utility.yul\":7542:7606   */\n      tag_308\n        /* \"#utility.yul\":7598:7605   */\n      dup7\n        /* \"#utility.yul\":7589:7595   */\n      dup3\n        /* \"#utility.yul\":7578:7587   */\n      dup8\n        /* \"#utility.yul\":7574:7596   */\n      add\n        /* \"#utility.yul\":7542:7606   */\n      tag_182\n      jump\t// in\n    tag_308:\n        /* \"#utility.yul\":7524:7606   */\n      swap3\n      pop\n      swap3\n      pop\n        /* \"#utility.yul\":7319:7616   */\n      pop\n        /* \"#utility.yul\":6951:7623   */\n      swap3\n      pop\n      swap3\n      pop\n      swap3\n      jump\t// out\n        /* \"#utility.yul\":7629:7751   */\n    tag_186:\n        /* \"#utility.yul\":7702:7726   */\n      tag_310\n        /* \"#utility.yul\":7720:7725   */\n      dup2\n        /* \"#utility.yul\":7702:7726   */\n      tag_177\n      jump\t// in\n    tag_310:\n        /* \"#utility.yul\":7695:7700   */\n      dup2\n        /* \"#utility.yul\":7692:7727   */\n      eq\n        /* \"#utility.yul\":7682:7745   */\n      tag_311\n      jumpi\n        /* \"#utility.yul\":7741:7742   */\n      0x00\n        /* \"#utility.yul\":7738:7739   */\n      0x00\n        /* \"#utility.yul\":7731:7743   */\n      revert\n        /* \"#utility.yul\":7682:7745   */\n    tag_311:\n        /* \"#utility.yul\":7629:7751   */\n      pop\n      jump\t// out\n        /* \"#utility.yul\":7757:7896   */\n    tag_187:\n        /* \"#utility.yul\":7803:7808   */\n      0x00\n        /* \"#utility.yul\":7841:7847   */\n      dup2\n        /* \"#utility.yul\":7828:7848   */\n      calldataload\n        /* \"#utility.yul\":7819:7848   */\n      swap1\n      pop\n        /* \"#utility.yul\":7857:7890   */\n      tag_313\n        /* \"#utility.yul\":7884:7889   */\n      dup2\n        /* \"#utility.yul\":7857:7890   */\n      tag_186\n      jump\t// in\n    tag_313:\n        /* \"#utility.yul\":7757:7896   */\n      swap3\n      swap2\n      pop\n      pop\n      jump\t// out\n        /* \"#utility.yul\":7902:8231   */\n    tag_69:\n        /* \"#utility.yul\":7961:7967   */\n      0x00\n        /* \"#utility.yul\":8010:8012   */\n      0x20\n        /* \"#utility.yul\":7998:8007   */\n      dup3\n        /* \"#utility.yul\":7989:7996   */\n      dup5\n        /* \"#utility.yul\":7985:8008   */\n      sub\n        /* \"#utility.yul\":7981:8013   */\n      slt\n        /* \"#utility.yul\":7978:8097   */\n      iszero\n      tag_315\n      jumpi\n        /* \"#utility.yul\":8016:8095   */\n      tag_316\n      tag_159\n      jump\t// in\n    tag_316:\n        /* \"#utility.yul\":7978:8097   */\n    tag_315:\n        /* \"#utility.yul\":8136:8137   */\n      0x00\n        /* \"#utility.yul\":8161:8214   */\n      tag_317\n        /* \"#utility.yul\":8206:8213   */\n      dup5\n        /* \"#utility.yul\":8197:8203   */\n      dup3\n        /* \"#utility.yul\":8186:8195   */\n      dup6\n        /* \"#utility.yul\":8182:8204   */\n      add\n        /* \"#utility.yul\":8161:8214   */\n      tag_187\n      jump\t// in\n    tag_317:\n        /* \"#utility.yul\":8151:8214   */\n      swap2\n      pop\n        /* \"#utility.yul\":8107:8224   */\n      pop\n        /* \"#utility.yul\":7902:8231   */\n      swap3\n      swap2\n      pop\n      pop\n      jump\t// out\n        /* \"#utility.yul\":8237:8355   */\n    tag_188:\n        /* \"#utility.yul\":8324:8348   */\n      tag_319\n        /* \"#utility.yul\":8342:8347   */\n      dup2\n        /* \"#utility.yul\":8324:8348   */\n      tag_161\n      jump\t// in\n    tag_319:\n        /* \"#utility.yul\":8319:8322   */\n      dup3\n        /* \"#utility.yul\":8312:8349   */\n      mstore\n        /* \"#utility.yul\":8237:8355   */\n      pop\n      pop\n      jump\t// out\n        /* \"#utility.yul\":8361:8583   */\n    tag_72:\n        /* \"#utility.yul\":8454:8458   */\n      0x00\n        /* \"#utility.yul\":8492:8494   */\n      0x20\n        /* \"#utility.yul\":8481:8490   */\n      dup3\n        /* \"#utility.yul\":8477:8495   */\n      add\n        /* \"#utility.yul\":8469:8495   */\n      swap1\n      pop\n        /* \"#utility.yul\":8505:8576   */\n      tag_321\n        /* \"#utility.yul\":8573:8574   */\n      0x00\n        /* \"#utility.yul\":8562:8571   */\n      dup4\n        /* \"#utility.yul\":8558:8575   */\n      add\n        /* \"#utility.yul\":8549:8555   */\n      dup5\n        /* \"#utility.yul\":8505:8576   */\n      tag_188\n      jump\t// in\n    tag_321:\n        /* \"#utility.yul\":8361:8583   */\n      swap3\n      swap2\n      pop\n      pop\n      jump\t// out\n        /* \"#utility.yul\":8589:8769   */\n    tag_189:\n        /* \"#utility.yul\":8637:8714   */\n      0x4e487b7100000000000000000000000000000000000000000000000000000000\n        /* \"#utility.yul\":8634:8635   */\n      0x00\n        /* \"#utility.yul\":8627:8715   */\n      mstore\n        /* \"#utility.yul\":8734:8738   */\n      0x22\n        /* \"#utility.yul\":8731:8732   */\n      0x04\n        /* \"#utility.yul\":8724:8739   */\n      mstore\n        /* \"#utility.yul\":8758:8762   */\n      0x24\n        /* \"#utility.yul\":8755:8756   */\n      0x00\n        /* \"#utility.yul\":8748:8763   */\n      revert\n        /* \"#utility.yul\":8775:9095   */\n    tag_91:\n        /* \"#utility.yul\":8819:8825   */\n      0x00\n        /* \"#utility.yul\":8856:8857   */\n      0x02\n        /* \"#utility.yul\":8850:8854   */\n      dup3\n        /* \"#utility.yul\":8846:8858   */\n      div\n        /* \"#utility.yul\":8836:8858   */\n      swap1\n      pop\n        /* \"#utility.yul\":8903:8904   */\n      0x01\n        /* \"#utility.yul\":8897:8901   */\n      dup3\n        /* \"#utility.yul\":8893:8905   */\n      and\n        /* \"#utility.yul\":8924:8942   */\n      dup1\n        /* \"#utility.yul\":8914:8995   */\n      tag_324\n      jumpi\n        /* \"#utility.yul\":8980:8984   */\n      0x7f\n        /* \"#utility.yul\":8972:8978   */\n      dup3\n        /* \"#utility.yul\":8968:8985   */\n      and\n        /* \"#utility.yul\":8958:8985   */\n      swap2\n      pop\n        /* \"#utility.yul\":8914:8995   */\n    tag_324:\n        /* \"#utility.yul\":9042:9044   */\n      0x20\n        /* \"#utility.yul\":9034:9040   */\n      dup3\n        /* \"#utility.yul\":9031:9045   */\n      lt\n        /* \"#utility.yul\":9011:9029   */\n      dup2\n        /* \"#utility.yul\":9008:9046   */\n      sub\n        /* \"#utility.yul\":9005:9089   */\n      tag_325\n      jumpi\n        /* \"#utility.yul\":9061:9079   */\n      tag_326\n      tag_189\n      jump\t// in\n    tag_326:\n        /* \"#utility.yul\":9005:9089   */\n    tag_325:\n        /* \"#utility.yul\":8826:9095   */\n      pop\n        /* \"#utility.yul\":8775:9095   */\n      swap2\n      swap1\n      pop\n      jump\t// out\n        /* \"#utility.yul\":9101:9281   */\n    tag_101:\n        /* \"#utility.yul\":9149:9226   */\n      0x4e487b7100000000000000000000000000000000000000000000000000000000\n        /* \"#utility.yul\":9146:9147   */\n      0x00\n        /* \"#utility.yul\":9139:9227   */\n      mstore\n        /* \"#utility.yul\":9246:9250   */\n      0x41\n        /* \"#utility.yul\":9243:9244   */\n      0x04\n        /* \"#utility.yul\":9236:9251   */\n      mstore\n        /* \"#utility.yul\":9270:9274   */\n      0x24\n        /* \"#utility.yul\":9267:9268   */\n      0x00\n        /* \"#utility.yul\":9260:9275   */\n      revert\n        /* \"#utility.yul\":9287:9467   */\n    tag_105:\n        /* \"#utility.yul\":9335:9412   */\n      0x4e487b7100000000000000000000000000000000000000000000000000000000\n        /* \"#utility.yul\":9332:9333   */\n      0x00\n        /* \"#utility.yul\":9325:9413   */\n      mstore\n        /* \"#utility.yul\":9432:9436   */\n      0x32\n        /* \"#utility.yul\":9429:9430   */\n      0x04\n        /* \"#utility.yul\":9422:9437   */\n      mstore\n        /* \"#utility.yul\":9456:9460   */\n      0x24\n        /* \"#utility.yul\":9453:9454   */\n      0x00\n        /* \"#utility.yul\":9446:9461   */\n      revert\n        /* \"#utility.yul\":9473:9621   */\n    tag_190:\n        /* \"#utility.yul\":9571:9577   */\n      dup3\n        /* \"#utility.yul\":9566:9569   */\n      dup2\n        /* \"#utility.yul\":9561:9564   */\n      dup4\n        /* \"#utility.yul\":9548:9578   */\n      calldatacopy\n        /* \"#utility.yul\":9612:9613   */\n      0x00\n        /* \"#utility.yul\":9603:9609   */\n      dup4\n        /* \"#utility.yul\":9598:9601   */\n      dup4\n        /* \"#utility.yul\":9594:9610   */\n      add\n        /* \"#utility.yul\":9587:9614   */\n      mstore\n        /* \"#utility.yul\":9473:9621   */\n      pop\n      pop\n      pop\n      jump\t// out\n        /* \"#utility.yul\":9649:9963   */\n    tag_191:\n        /* \"#utility.yul\":9745:9748   */\n      0x00\n        /* \"#utility.yul\":9766:9836   */\n      tag_331\n        /* \"#utility.yul\":9829:9835   */\n      dup4\n        /* \"#utility.yul\":9824:9827   */\n      dup6\n        /* \"#utility.yul\":9766:9836   */\n      tag_173\n      jump\t// in\n    tag_331:\n        /* \"#utility.yul\":9759:9836   */\n      swap4\n      pop\n        /* \"#utility.yul\":9846:9902   */\n      tag_332\n        /* \"#utility.yul\":9895:9901   */\n      dup4\n        /* \"#utility.yul\":9890:9893   */\n      dup6\n        /* \"#utility.yul\":9883:9888   */\n      dup5\n        /* \"#utility.yul\":9846:9902   */\n      tag_190\n      jump\t// in\n    tag_332:\n        /* \"#utility.yul\":9927:9956   */\n      tag_333\n        /* \"#utility.yul\":9949:9955   */\n      dup4\n        /* \"#utility.yul\":9927:9956   */\n      tag_175\n      jump\t// in\n    tag_333:\n        /* \"#utility.yul\":9922:9925   */\n      dup5\n        /* \"#utility.yul\":9918:9957   */\n      add\n        /* \"#utility.yul\":9911:9957   */\n      swap1\n      pop\n        /* \"#utility.yul\":9649:9963   */\n      swap4\n      swap3\n      pop\n      pop\n      pop\n      jump\t// out\n        /* \"#utility.yul\":9969:10083   */\n    tag_192:\n        /* \"#utility.yul\":10036:10042   */\n      0x00\n        /* \"#utility.yul\":10070:10075   */\n      dup2\n        /* \"#utility.yul\":10064:10076   */\n      mload\n        /* \"#utility.yul\":10054:10076   */\n      swap1\n      pop\n        /* \"#utility.yul\":9969:10083   */\n      swap2\n      swap1\n      pop\n      jump\t// out\n        /* \"#utility.yul\":10089:10273   */\n    tag_193:\n        /* \"#utility.yul\":10188:10199   */\n      0x00\n        /* \"#utility.yul\":10222:10228   */\n      dup3\n        /* \"#utility.yul\":10217:10220   */\n      dup3\n        /* \"#utility.yul\":10210:10229   */\n      mstore\n        /* \"#utility.yul\":10262:10266   */\n      0x20\n        /* \"#utility.yul\":10257:10260   */\n      dup3\n        /* \"#utility.yul\":10253:10267   */\n      add\n        /* \"#utility.yul\":10238:10267   */\n      swap1\n      pop\n        /* \"#utility.yul\":10089:10273   */\n      swap3\n      swap2\n      pop\n      pop\n      jump\t// out\n        /* \"#utility.yul\":10279:10411   */\n    tag_194:\n        /* \"#utility.yul\":10346:10350   */\n      0x00\n        /* \"#utility.yul\":10369:10372   */\n      dup2\n        /* \"#utility.yul\":10361:10372   */\n      swap1\n      pop\n        /* \"#utility.yul\":10399:10403   */\n      0x20\n        /* \"#utility.yul\":10394:10397   */\n      dup3\n        /* \"#utility.yul\":10390:10404   */\n      add\n        /* \"#utility.yul\":10382:10404   */\n      swap1\n      pop\n        /* \"#utility.yul\":10279:10411   */\n      swap2\n      swap1\n      pop\n      jump\t// out\n        /* \"#utility.yul\":10417:10525   */\n    tag_195:\n        /* \"#utility.yul\":10494:10518   */\n      tag_338\n        /* \"#utility.yul\":10512:10517   */\n      dup2\n        /* \"#utility.yul\":10494:10518   */\n      tag_161\n      jump\t// in\n    tag_338:\n        /* \"#utility.yul\":10489:10492   */\n      dup3\n        /* \"#utility.yul\":10482:10519   */\n      mstore\n        /* \"#utility.yul\":10417:10525   */\n      pop\n      pop\n      jump\t// out\n        /* \"#utility.yul\":10531:10710   */\n    tag_196:\n        /* \"#utility.yul\":10600:10610   */\n      0x00\n        /* \"#utility.yul\":10621:10667   */\n      tag_340\n        /* \"#utility.yul\":10663:10666   */\n      dup4\n        /* \"#utility.yul\":10655:10661   */\n      dup4\n        /* \"#utility.yul\":10621:10667   */\n      tag_195\n      jump\t// in\n    tag_340:\n        /* \"#utility.yul\":10699:10703   */\n      0x20\n        /* \"#utility.yul\":10694:10697   */\n      dup4\n        /* \"#utility.yul\":10690:10704   */\n      add\n        /* \"#utility.yul\":10676:10704   */\n      swap1\n      pop\n        /* \"#utility.yul\":10531:10710   */\n      swap3\n      swap2\n      pop\n      pop\n      jump\t// out\n        /* \"#utility.yul\":10716:10829   */\n    tag_197:\n        /* \"#utility.yul\":10786:10790   */\n      0x00\n        /* \"#utility.yul\":10818:10822   */\n      0x20\n        /* \"#utility.yul\":10813:10816   */\n      dup3\n        /* \"#utility.yul\":10809:10823   */\n      add\n        /* \"#utility.yul\":10801:10823   */\n      swap1\n      pop\n        /* \"#utility.yul\":10716:10829   */\n      swap2\n      swap1\n      pop\n      jump\t// out\n        /* \"#utility.yul\":10865:11597   */\n    tag_198:\n        /* \"#utility.yul\":10984:10987   */\n      0x00\n        /* \"#utility.yul\":11013:11067   */\n      tag_343\n        /* \"#utility.yul\":11061:11066   */\n      dup3\n        /* \"#utility.yul\":11013:11067   */\n      tag_192\n      jump\t// in\n    tag_343:\n        /* \"#utility.yul\":11083:11169   */\n      tag_344\n        /* \"#utility.yul\":11162:11168   */\n      dup2\n        /* \"#utility.yul\":11157:11160   */\n      dup6\n        /* \"#utility.yul\":11083:11169   */\n      tag_193\n      jump\t// in\n    tag_344:\n        /* \"#utility.yul\":11076:11169   */\n      swap4\n      pop\n        /* \"#utility.yul\":11193:11249   */\n      tag_345\n        /* \"#utility.yul\":11243:11248   */\n      dup4\n        /* \"#utility.yul\":11193:11249   */\n      tag_194\n      jump\t// in\n    tag_345:\n        /* \"#utility.yul\":11272:11279   */\n      dup1\n        /* \"#utility.yul\":11303:11304   */\n      0x00\n        /* \"#utility.yul\":11288:11572   */\n    tag_346:\n        /* \"#utility.yul\":11313:11319   */\n      dup4\n        /* \"#utility.yul\":11310:11311   */\n      dup2\n        /* \"#utility.yul\":11307:11320   */\n      lt\n        /* \"#utility.yul\":11288:11572   */\n      iszero\n      tag_348\n      jumpi\n        /* \"#utility.yul\":11389:11395   */\n      dup2\n        /* \"#utility.yul\":11383:11396   */\n      mload\n        /* \"#utility.yul\":11416:11479   */\n      tag_349\n        /* \"#utility.yul\":11475:11478   */\n      dup9\n        /* \"#utility.yul\":11460:11473   */\n      dup3\n        /* \"#utility.yul\":11416:11479   */\n      tag_196\n      jump\t// in\n    tag_349:\n        /* \"#utility.yul\":11409:11479   */\n      swap8\n      pop\n        /* \"#utility.yul\":11502:11562   */\n      tag_350\n        /* \"#utility.yul\":11555:11561   */\n      dup4\n        /* \"#utility.yul\":11502:11562   */\n      tag_197\n      jump\t// in\n    tag_350:\n        /* \"#utility.yul\":11492:11562   */\n      swap3\n      pop\n        /* \"#utility.yul\":11348:11572   */\n      pop\n        /* \"#utility.yul\":11335:11336   */\n      0x01\n        /* \"#utility.yul\":11332:11333   */\n      dup2\n        /* \"#utility.yul\":11328:11337   */\n      add\n        /* \"#utility.yul\":11323:11337   */\n      swap1\n      pop\n        /* \"#utility.yul\":11288:11572   */\n      jump(tag_346)\n    tag_348:\n        /* \"#utility.yul\":11292:11306   */\n      pop\n        /* \"#utility.yul\":11588:11591   */\n      dup6\n        /* \"#utility.yul\":11581:11591   */\n      swap4\n      pop\n        /* \"#utility.yul\":10989:11597   */\n      pop\n      pop\n      pop\n        /* \"#utility.yul\":10865:11597   */\n      swap3\n      swap2\n      pop\n      pop\n      jump\t// out\n        /* \"#utility.yul\":11603:12193   */\n    tag_109:\n        /* \"#utility.yul\":11802:11806   */\n      0x00\n        /* \"#utility.yul\":11840:11842   */\n      0x40\n        /* \"#utility.yul\":11829:11838   */\n      dup3\n        /* \"#utility.yul\":11825:11843   */\n      add\n        /* \"#utility.yul\":11817:11843   */\n      swap1\n      pop\n        /* \"#utility.yul\":11889:11898   */\n      dup2\n        /* \"#utility.yul\":11883:11887   */\n      dup2\n        /* \"#utility.yul\":11879:11899   */\n      sub\n        /* \"#utility.yul\":11875:11876   */\n      0x00\n        /* \"#utility.yul\":11864:11873   */\n      dup4\n        /* \"#utility.yul\":11860:11877   */\n      add\n        /* \"#utility.yul\":11853:11900   */\n      mstore\n        /* \"#utility.yul\":11917:12003   */\n      tag_352\n        /* \"#utility.yul\":11998:12002   */\n      dup2\n        /* \"#utility.yul\":11989:11995   */\n      dup6\n        /* \"#utility.yul\":11981:11987   */\n      dup8\n        /* \"#utility.yul\":11917:12003   */\n      tag_191\n      jump\t// in\n    tag_352:\n        /* \"#utility.yul\":11909:12003   */\n      swap1\n      pop\n        /* \"#utility.yul\":12050:12059   */\n      dup2\n        /* \"#utility.yul\":12044:12048   */\n      dup2\n        /* \"#utility.yul\":12040:12060   */\n      sub\n        /* \"#utility.yul\":12035:12037   */\n      0x20\n        /* \"#utility.yul\":12024:12033   */\n      dup4\n        /* \"#utility.yul\":12020:12038   */\n      add\n        /* \"#utility.yul\":12013:12061   */\n      mstore\n        /* \"#utility.yul\":12078:12186   */\n      tag_353\n        /* \"#utility.yul\":12181:12185   */\n      dup2\n        /* \"#utility.yul\":12172:12178   */\n      dup5\n        /* \"#utility.yul\":12078:12186   */\n      tag_198\n      jump\t// in\n    tag_353:\n        /* \"#utility.yul\":12070:12186   */\n      swap1\n      pop\n        /* \"#utility.yul\":11603:12193   */\n      swap5\n      swap4\n      pop\n      pop\n      pop\n      pop\n      jump\t// out\n        /* \"#utility.yul\":12199:12315   */\n    tag_199:\n        /* \"#utility.yul\":12269:12290   */\n      tag_355\n        /* \"#utility.yul\":12284:12289   */\n      dup2\n        /* \"#utility.yul\":12269:12290   */\n      tag_164\n      jump\t// in\n    tag_355:\n        /* \"#utility.yul\":12262:12267   */\n      dup2\n        /* \"#utility.yul\":12259:12291   */\n      eq\n        /* \"#utility.yul\":12249:12309   */\n      tag_356\n      jumpi\n        /* \"#utility.yul\":12305:12306   */\n      0x00\n        /* \"#utility.yul\":12302:12303   */\n      0x00\n        /* \"#utility.yul\":12295:12307   */\n      revert\n        /* \"#utility.yul\":12249:12309   */\n    tag_356:\n        /* \"#utility.yul\":12199:12315   */\n      pop\n      jump\t// out\n        /* \"#utility.yul\":12321:12458   */\n    tag_200:\n        /* \"#utility.yul\":12375:12380   */\n      0x00\n        /* \"#utility.yul\":12406:12412   */\n      dup2\n        /* \"#utility.yul\":12400:12413   */\n      mload\n        /* \"#utility.yul\":12391:12413   */\n      swap1\n      pop\n        /* \"#utility.yul\":12422:12452   */\n      tag_358\n        /* \"#utility.yul\":12446:12451   */\n      dup2\n        /* \"#utility.yul\":12422:12452   */\n      tag_199\n      jump\t// in\n    tag_358:\n        /* \"#utility.yul\":12321:12458   */\n      swap3\n      swap2\n      pop\n      pop\n      jump\t// out\n        /* \"#utility.yul\":12464:12809   */\n    tag_113:\n        /* \"#utility.yul\":12531:12537   */\n      0x00\n        /* \"#utility.yul\":12580:12582   */\n      0x20\n        /* \"#utility.yul\":12568:12577   */\n      dup3\n        /* \"#utility.yul\":12559:12566   */\n      dup5\n        /* \"#utility.yul\":12555:12578   */\n      sub\n        /* \"#utility.yul\":12551:12583   */\n      slt\n        /* \"#utility.yul\":12548:12667   */\n      iszero\n      tag_360\n      jumpi\n        /* \"#utility.yul\":12586:12665   */\n      tag_361\n      tag_159\n      jump\t// in\n    tag_361:\n        /* \"#utility.yul\":12548:12667   */\n    tag_360:\n        /* \"#utility.yul\":12706:12707   */\n      0x00\n        /* \"#utility.yul\":12731:12792   */\n      tag_362\n        /* \"#utility.yul\":12784:12791   */\n      dup5\n        /* \"#utility.yul\":12775:12781   */\n      dup3\n        /* \"#utility.yul\":12764:12773   */\n      dup6\n        /* \"#utility.yul\":12760:12782   */\n      add\n        /* \"#utility.yul\":12731:12792   */\n      tag_200\n      jump\t// in\n    tag_362:\n        /* \"#utility.yul\":12721:12792   */\n      swap2\n      pop\n        /* \"#utility.yul\":12677:12802   */\n      pop\n        /* \"#utility.yul\":12464:12809   */\n      swap3\n      swap2\n      pop\n      pop\n      jump\t// out\n        /* \"#utility.yul\":12815:12962   */\n    tag_201:\n        /* \"#utility.yul\":12916:12927   */\n      0x00\n        /* \"#utility.yul\":12953:12956   */\n      dup2\n        /* \"#utility.yul\":12938:12956   */\n      swap1\n      pop\n        /* \"#utility.yul\":12815:12962   */\n      swap3\n      swap2\n      pop\n      pop\n      jump\t// out\n        /* \"#utility.yul\":12968:13082   */\n    tag_202:\n      pop\n      jump\t// out\n        /* \"#utility.yul\":13088:13486   */\n    tag_203:\n        /* \"#utility.yul\":13247:13250   */\n      0x00\n        /* \"#utility.yul\":13268:13351   */\n      tag_366\n        /* \"#utility.yul\":13349:13350   */\n      0x00\n        /* \"#utility.yul\":13344:13347   */\n      dup4\n        /* \"#utility.yul\":13268:13351   */\n      tag_201\n      jump\t// in\n    tag_366:\n        /* \"#utility.yul\":13261:13351   */\n      swap2\n      pop\n        /* \"#utility.yul\":13360:13453   */\n      tag_367\n        /* \"#utility.yul\":13449:13452   */\n      dup3\n        /* \"#utility.yul\":13360:13453   */\n      tag_202\n      jump\t// in\n    tag_367:\n        /* \"#utility.yul\":13478:13479   */\n      0x00\n        /* \"#utility.yul\":13473:13476   */\n      dup3\n        /* \"#utility.yul\":13469:13480   */\n      add\n        /* \"#utility.yul\":13462:13480   */\n      swap1\n      pop\n        /* \"#utility.yul\":13088:13486   */\n      swap2\n      swap1\n      pop\n      jump\t// out\n        /* \"#utility.yul\":13492:13871   */\n    tag_116:\n        /* \"#utility.yul\":13676:13679   */\n      0x00\n        /* \"#utility.yul\":13698:13845   */\n      tag_369\n        /* \"#utility.yul\":13841:13844   */\n      dup3\n        /* \"#utility.yul\":13698:13845   */\n      tag_203\n      jump\t// in\n    tag_369:\n        /* \"#utility.yul\":13691:13845   */\n      swap2\n      pop\n        /* \"#utility.yul\":13862:13865   */\n      dup2\n        /* \"#utility.yul\":13855:13865   */\n      swap1\n      pop\n        /* \"#utility.yul\":13492:13871   */\n      swap2\n      swap1\n      pop\n      jump\t// out\n        /* \"#utility.yul\":13877:14046   */\n    tag_204:\n        /* \"#utility.yul\":13961:13972   */\n      0x00\n        /* \"#utility.yul\":13995:14001   */\n      dup3\n        /* \"#utility.yul\":13990:13993   */\n      dup3\n        /* \"#utility.yul\":13983:14002   */\n      mstore\n        /* \"#utility.yul\":14035:14039   */\n      0x20\n        /* \"#utility.yul\":14030:14033   */\n      dup3\n        /* \"#utility.yul\":14026:14040   */\n      add\n        /* \"#utility.yul\":14011:14040   */\n      swap1\n      pop\n        /* \"#utility.yul\":13877:14046   */\n      swap3\n      swap2\n      pop\n      pop\n      jump\t// out\n        /* \"#utility.yul\":14052:14221   */\n    tag_205:\n        /* \"#utility.yul\":14192:14213   */\n      0x4d4e54207472616e73666572206661696c656400000000000000000000000000\n        /* \"#utility.yul\":14188:14189   */\n      0x00\n        /* \"#utility.yul\":14180:14186   */\n      dup3\n        /* \"#utility.yul\":14176:14190   */\n      add\n        /* \"#utility.yul\":14169:14214   */\n      mstore\n        /* \"#utility.yul\":14052:14221   */\n      pop\n      jump\t// out\n        /* \"#utility.yul\":14227:14593   */\n    tag_206:\n        /* \"#utility.yul\":14369:14372   */\n      0x00\n        /* \"#utility.yul\":14390:14457   */\n      tag_373\n        /* \"#utility.yul\":14454:14456   */\n      0x13\n        /* \"#utility.yul\":14449:14452   */\n      dup4\n        /* \"#utility.yul\":14390:14457   */\n      tag_204\n      jump\t// in\n    tag_373:\n        /* \"#utility.yul\":14383:14457   */\n      swap2\n      pop\n        /* \"#utility.yul\":14466:14559   */\n      tag_374\n        /* \"#utility.yul\":14555:14558   */\n      dup3\n        /* \"#utility.yul\":14466:14559   */\n      tag_205\n      jump\t// in\n    tag_374:\n        /* \"#utility.yul\":14584:14586   */\n      0x20\n        /* \"#utility.yul\":14579:14582   */\n      dup3\n        /* \"#utility.yul\":14575:14587   */\n      add\n        /* \"#utility.yul\":14568:14587   */\n      swap1\n      pop\n        /* \"#utility.yul\":14227:14593   */\n      swap2\n      swap1\n      pop\n      jump\t// out\n        /* \"#utility.yul\":14599:15018   */\n    tag_122:\n        /* \"#utility.yul\":14765:14769   */\n      0x00\n        /* \"#utility.yul\":14803:14805   */\n      0x20\n        /* \"#utility.yul\":14792:14801   */\n      dup3\n        /* \"#utility.yul\":14788:14806   */\n      add\n        /* \"#utility.yul\":14780:14806   */\n      swap1\n      pop\n        /* \"#utility.yul\":14852:14861   */\n      dup2\n        /* \"#utility.yul\":14846:14850   */\n      dup2\n        /* \"#utility.yul\":14842:14862   */\n      sub\n        /* \"#utility.yul\":14838:14839   */\n      0x00\n        /* \"#utility.yul\":14827:14836   */\n      dup4\n        /* \"#utility.yul\":14823:14840   */\n      add\n        /* \"#utility.yul\":14816:14863   */\n      mstore\n        /* \"#utility.yul\":14880:15011   */\n      tag_376\n        /* \"#utility.yul\":15006:15010   */\n      dup2\n        /* \"#utility.yul\":14880:15011   */\n      tag_206\n      jump\t// in\n    tag_376:\n        /* \"#utility.yul\":14872:15011   */\n      swap1\n      pop\n        /* \"#utility.yul\":14599:15018   */\n      swap2\n      swap1\n      pop\n      jump\t// out\n        /* \"#utility.yul\":15024:15204   */\n    tag_207:\n        /* \"#utility.yul\":15072:15149   */\n      0x4e487b7100000000000000000000000000000000000000000000000000000000\n        /* \"#utility.yul\":15069:15070   */\n      0x00\n        /* \"#utility.yul\":15062:15150   */\n      mstore\n        /* \"#utility.yul\":15169:15173   */\n      0x11\n        /* \"#utility.yul\":15166:15167   */\n      0x04\n        /* \"#utility.yul\":15159:15174   */\n      mstore\n        /* \"#utility.yul\":15193:15197   */\n      0x24\n        /* \"#utility.yul\":15190:15191   */\n      0x00\n        /* \"#utility.yul\":15183:15198   */\n      revert\n        /* \"#utility.yul\":15210:15407   */\n    tag_128:\n        /* \"#utility.yul\":15249:15252   */\n      0x00\n        /* \"#utility.yul\":15268:15287   */\n      tag_379\n        /* \"#utility.yul\":15285:15286   */\n      dup3\n        /* \"#utility.yul\":15268:15287   */\n      tag_156\n      jump\t// in\n    tag_379:\n        /* \"#utility.yul\":15263:15287   */\n      swap2\n      pop\n        /* \"#utility.yul\":15301:15320   */\n      tag_380\n        /* \"#utility.yul\":15318:15319   */\n      dup4\n        /* \"#utility.yul\":15301:15320   */\n      tag_156\n      jump\t// in\n    tag_380:\n        /* \"#utility.yul\":15296:15320   */\n      swap3\n      pop\n        /* \"#utility.yul\":15343:15344   */\n      dup3\n        /* \"#utility.yul\":15340:15341   */\n      dup3\n        /* \"#utility.yul\":15336:15345   */\n      add\n        /* \"#utility.yul\":15329:15345   */\n      swap1\n      pop\n        /* \"#utility.yul\":15366:15376   */\n      0xffffffff\n        /* \"#utility.yul\":15361:15364   */\n      dup2\n        /* \"#utility.yul\":15358:15377   */\n      gt\n        /* \"#utility.yul\":15355:15400   */\n      iszero\n      tag_381\n      jumpi\n        /* \"#utility.yul\":15380:15398   */\n      tag_382\n      tag_207\n      jump\t// in\n    tag_382:\n        /* \"#utility.yul\":15355:15400   */\n    tag_381:\n        /* \"#utility.yul\":15210:15407   */\n      swap3\n      swap2\n      pop\n      pop\n      jump\t// out\n        /* \"#utility.yul\":15413:15745   */\n    tag_140:\n        /* \"#utility.yul\":15534:15538   */\n      0x00\n        /* \"#utility.yul\":15572:15574   */\n      0x40\n        /* \"#utility.yul\":15561:15570   */\n      dup3\n        /* \"#utility.yul\":15557:15575   */\n      add\n        /* \"#utility.yul\":15549:15575   */\n      swap1\n      pop\n        /* \"#utility.yul\":15585:15656   */\n      tag_384\n        /* \"#utility.yul\":15653:15654   */\n      0x00\n        /* \"#utility.yul\":15642:15651   */\n      dup4\n        /* \"#utility.yul\":15638:15655   */\n      add\n        /* \"#utility.yul\":15629:15635   */\n      dup6\n        /* \"#utility.yul\":15585:15656   */\n      tag_188\n      jump\t// in\n    tag_384:\n        /* \"#utility.yul\":15666:15738   */\n      tag_385\n        /* \"#utility.yul\":15734:15736   */\n      0x20\n        /* \"#utility.yul\":15723:15732   */\n      dup4\n        /* \"#utility.yul\":15719:15737   */\n      add\n        /* \"#utility.yul\":15710:15716   */\n      dup5\n        /* \"#utility.yul\":15666:15738   */\n      tag_188\n      jump\t// in\n    tag_385:\n        /* \"#utility.yul\":15413:15745   */\n      swap4\n      swap3\n      pop\n      pop\n      pop\n      jump\t// out\n        /* \"#utility.yul\":15751:15891   */\n    tag_208:\n        /* \"#utility.yul\":15799:15803   */\n      0x00\n        /* \"#utility.yul\":15822:15825   */\n      dup2\n        /* \"#utility.yul\":15814:15825   */\n      swap1\n      pop\n        /* \"#utility.yul\":15845:15848   */\n      dup2\n        /* \"#utility.yul\":15842:15843   */\n      0x00\n        /* \"#utility.yul\":15835:15849   */\n      mstore\n        /* \"#utility.yul\":15879:15883   */\n      0x20\n        /* \"#utility.yul\":15876:15877   */\n      0x00\n        /* \"#utility.yul\":15866:15884   */\n      keccak256\n        /* \"#utility.yul\":15858:15884   */\n      swap1\n      pop\n        /* \"#utility.yul\":15751:15891   */\n      swap2\n      swap1\n      pop\n      jump\t// out\n        /* \"#utility.yul\":15897:15990   */\n    tag_209:\n        /* \"#utility.yul\":15934:15940   */\n      0x00\n        /* \"#utility.yul\":15981:15983   */\n      0x20\n        /* \"#utility.yul\":15976:15978   */\n      0x1f\n        /* \"#utility.yul\":15969:15974   */\n      dup4\n        /* \"#utility.yul\":15965:15979   */\n      add\n        /* \"#utility.yul\":15961:15984   */\n      div\n        /* \"#utility.yul\":15951:15984   */\n      swap1\n      pop\n        /* \"#utility.yul\":15897:15990   */\n      swap2\n      swap1\n      pop\n      jump\t// out\n        /* \"#utility.yul\":15996:16103   */\n    tag_210:\n        /* \"#utility.yul\":16040:16048   */\n      0x00\n        /* \"#utility.yul\":16090:16095   */\n      dup3\n        /* \"#utility.yul\":16084:16088   */\n      dup3\n        /* \"#utility.yul\":16080:16096   */\n      shl\n        /* \"#utility.yul\":16059:16096   */\n      swap1\n      pop\n        /* \"#utility.yul\":15996:16103   */\n      swap3\n      swap2\n      pop\n      pop\n      jump\t// out\n        /* \"#utility.yul\":16109:16502   */\n    tag_211:\n        /* \"#utility.yul\":16178:16184   */\n      0x00\n        /* \"#utility.yul\":16228:16229   */\n      0x08\n        /* \"#utility.yul\":16216:16226   */\n      dup4\n        /* \"#utility.yul\":16212:16230   */\n      mul\n        /* \"#utility.yul\":16251:16348   */\n      tag_390\n        /* \"#utility.yul\":16281:16347   */\n      0xffffffffffffffffffffffffffffffffffffffffffffffffffffffffffffffff\n        /* \"#utility.yul\":16270:16279   */\n      dup3\n        /* \"#utility.yul\":16251:16348   */\n      tag_210\n      jump\t// in\n    tag_390:\n        /* \"#utility.yul\":16369:16408   */\n      tag_391\n        /* \"#utility.yul\":16399:16407   */\n      dup7\n        /* \"#utility.yul\":16388:16397   */\n      dup4\n        /* \"#utility.yul\":16369:16408   */\n      tag_210\n      jump\t// in\n    tag_391:\n        /* \"#utility.yul\":16357:16408   */\n      swap6\n      pop\n        /* \"#utility.yul\":16441:16445   */\n      dup1\n        /* \"#utility.yul\":16437:16446   */\n      not\n        /* \"#utility.yul\":16430:16435   */\n      dup5\n        /* \"#utility.yul\":16426:16447   */\n      and\n        /* \"#utility.yul\":16417:16447   */\n      swap4\n      pop\n        /* \"#utility.yul\":16490:16494   */\n      dup1\n        /* \"#utility.yul\":16480:16488   */\n      dup7\n        /* \"#utility.yul\":16476:16495   */\n      and\n        /* \"#utility.yul\":16469:16474   */\n      dup5\n        /* \"#utility.yul\":16466:16496   */\n      or\n        /* \"#utility.yul\":16456:16496   */\n      swap3\n      pop\n        /* \"#utility.yul\":16185:16502   */\n      pop\n      pop\n        /* \"#utility.yul\":16109:16502   */\n      swap4\n      swap3\n      pop\n      pop\n      pop\n      jump\t// out\n        /* \"#utility.yul\":16508:16650   */\n    tag_212:\n        /* \"#utility.yul\":16558:16567   */\n      0x00\n        /* \"#utility.yul\":16591:16644   */\n      tag_393\n        /* \"#utility.yul\":16609:16643   */\n      tag_394\n        /* \"#utility.yul\":16618:16642   */\n      tag_395\n        /* \"#utility.yul\":16636:16641   */\n      dup5\n        /* \"#utility.yul\":16618:16642   */\n      tag_177\n      jump\t// in\n    tag_395:\n        /* \"#utility.yul\":16609:16643   */\n      tag_167\n      jump\t// in\n    tag_394:\n        /* \"#utility.yul\":16591:16644   */\n      tag_177\n      jump\t// in\n    tag_393:\n        /* \"#utility.yul\":16578:16644   */\n      swap1\n      pop\n        /* \"#utility.yul\":16508:16650   */\n      swap2\n      swap1\n      pop\n      jump\t// out\n        /* \"#utility.yul\":16656:16731   */\n    tag_213:\n        /* \"#utility.yul\":16699:16702   */\n      0x00\n        /* \"#utility.yul\":16720:16725   */\n      dup2\n        /* \"#utility.yul\":16713:16725   */\n      swap1\n      pop\n        /* \"#utility.yul\":16656:16731   */\n      swap2\n      swap1\n      pop\n      jump\t// out\n        /* \"#utility.yul\":16737:17006   */\n    tag_214:\n        /* \"#utility.yul\":16847:16886   */\n      tag_398\n        /* \"#utility.yul\":16878:16885   */\n      dup4\n        /* \"#utility.yul\":16847:16886   */\n      tag_212\n      jump\t// in\n    tag_398:\n        /* \"#utility.yul\":16908:16999   */\n      tag_399\n        /* \"#utility.yul\":16957:16998   */\n      tag_400\n        /* \"#utility.yul\":16981:16997   */\n      dup3\n        /* \"#utility.yul\":16957:16998   */\n      tag_213\n      jump\t// in\n    tag_400:\n        /* \"#utility.yul\":16949:16955   */\n      dup5\n        /* \"#utility.yul\":16942:16946   */\n      dup5\n        /* \"#utility.yul\":16936:16947   */\n      sload\n        /* \"#utility.yul\":16908:16999   */\n      tag_211\n      jump\t// in\n    tag_399:\n        /* \"#utility.yul\":16902:16906   */\n      dup3\n        /* \"#utility.yul\":16895:17000   */\n      sstore\n        /* \"#utility.yul\":16813:17006   */\n      pop\n        /* \"#utility.yul\":16737:17006   */\n      pop\n      pop\n      pop\n      jump\t// out\n        /* \"#utility.yul\":17012:17085   */\n    tag_215:\n        /* \"#utility.yul\":17057:17060   */\n      0x00\n        /* \"#utility.yul\":17078:17079   */\n      0x00\n        /* \"#utility.yul\":17071:17079   */\n      swap1\n      pop\n        /* \"#utility.yul\":17012:17085   */\n      swap1\n      jump\t// out\n        /* \"#utility.yul\":17091:17280   */\n    tag_216:\n        /* \"#utility.yul\":17168:17200   */\n      tag_403\n      tag_215\n      jump\t// in\n    tag_403:\n        /* \"#utility.yul\":17209:17274   */\n      tag_404\n        /* \"#utility.yul\":17267:17273   */\n      dup2\n        /* \"#utility.yul\":17259:17265   */\n      dup5\n        /* \"#utility.yul\":17253:17257   */\n      dup5\n        /* \"#utility.yul\":17209:17274   */\n      tag_214\n      jump\t// in\n    tag_404:\n        /* \"#utility.yul\":17144:17280   */\n      pop\n        /* \"#utility.yul\":17091:17280   */\n      pop\n      pop\n      jump\t// out\n        /* \"#utility.yul\":17286:17472   */\n    tag_217:\n        /* \"#utility.yul\":17346:17466   */\n    tag_406:\n        /* \"#utility.yul\":17363:17366   */\n      dup2\n        /* \"#utility.yul\":17356:17361   */\n      dup2\n        /* \"#utility.yul\":17353:17367   */\n      lt\n        /* \"#utility.yul\":17346:17466   */\n      iszero\n      tag_408\n      jumpi\n        /* \"#utility.yul\":17417:17456   */\n      tag_409\n        /* \"#utility.yul\":17454:17455   */\n      0x00\n        /* \"#utility.yul\":17447:17452   */\n      dup3\n        /* \"#utility.yul\":17417:17456   */\n      tag_216\n      jump\t// in\n    tag_409:\n        /* \"#utility.yul\":17390:17391   */\n      0x01\n        /* \"#utility.yul\":17383:17388   */\n      dup2\n        /* \"#utility.yul\":17379:17392   */\n      add\n        /* \"#utility.yul\":17370:17392   */\n      swap1\n      pop\n        /* \"#utility.yul\":17346:17466   */\n      jump(tag_406)\n    tag_408:\n        /* \"#utility.yul\":17286:17472   */\n      pop\n      pop\n      jump\t// out\n        /* \"#utility.yul\":17478:18019   */\n    tag_218:\n        /* \"#utility.yul\":17578:17580   */\n      0x1f\n        /* \"#utility.yul\":17573:17576   */\n      dup3\n        /* \"#utility.yul\":17570:17581   */\n      gt\n        /* \"#utility.yul\":17567:18012   */\n      iszero\n      tag_411\n      jumpi\n        /* \"#utility.yul\":17612:17649   */\n      tag_412\n        /* \"#utility.yul\":17643:17648   */\n      dup2\n        /* \"#utility.yul\":17612:17649   */\n      tag_208\n      jump\t// in\n    tag_412:\n        /* \"#utility.yul\":17695:17724   */\n      tag_413\n        /* \"#utility.yul\":17713:17723   */\n      dup5\n        /* \"#utility.yul\":17695:17724   */\n      tag_209\n      jump\t// in\n    tag_413:\n        /* \"#utility.yul\":17685:17693   */\n      dup2\n        /* \"#utility.yul\":17681:17725   */\n      add\n        /* \"#utility.yul\":17878:17880   */\n      0x20\n        /* \"#utility.yul\":17866:17876   */\n      dup6\n        /* \"#utility.yul\":17863:17881   */\n      lt\n        /* \"#utility.yul\":17860:17909   */\n      iszero\n      tag_414\n      jumpi\n        /* \"#utility.yul\":17899:17907   */\n      dup2\n        /* \"#utility.yul\":17884:17907   */\n      swap1\n      pop\n        /* \"#utility.yul\":17860:17909   */\n    tag_414:\n        /* \"#utility.yul\":17922:18002   */\n      tag_415\n        /* \"#utility.yul\":17978:18000   */\n      tag_416\n        /* \"#utility.yul\":17996:17999   */\n      dup6\n        /* \"#utility.yul\":17978:18000   */\n      tag_209\n      jump\t// in\n    tag_416:\n        /* \"#utility.yul\":17968:17976   */\n      dup4\n        /* \"#utility.yul\":17964:18001   */\n      add\n        /* \"#utility.yul\":17951:17962   */\n      dup3\n        /* \"#utility.yul\":17922:18002   */\n      tag_217\n      jump\t// in\n    tag_415:\n        /* \"#utility.yul\":17582:18012   */\n      pop\n      pop\n        /* \"#utility.yul\":17567:18012   */\n    tag_411:\n        /* \"#utility.yul\":17478:18019   */\n      pop\n      pop\n      pop\n      jump\t// out\n        /* \"#utility.yul\":18025:18142   */\n    tag_219:\n        /* \"#utility.yul\":18079:18087   */\n      0x00\n        /* \"#utility.yul\":18129:18134   */\n      dup3\n        /* \"#utility.yul\":18123:18127   */\n      dup3\n        /* \"#utility.yul\":18119:18135   */\n      shr\n        /* \"#utility.yul\":18098:18135   */\n      swap1\n      pop\n        /* \"#utility.yul\":18025:18142   */\n      swap3\n      swap2\n      pop\n      pop\n      jump\t// out\n        /* \"#utility.yul\":18148:18317   */\n    tag_220:\n        /* \"#utility.yul\":18192:18198   */\n      0x00\n        /* \"#utility.yul\":18225:18276   */\n      tag_419\n        /* \"#utility.yul\":18273:18274   */\n      0x00\n        /* \"#utility.yul\":18269:18275   */\n      not\n        /* \"#utility.yul\":18261:18266   */\n      dup5\n        /* \"#utility.yul\":18258:18259   */\n      0x08\n        /* \"#utility.yul\":18254:18267   */\n      mul\n        /* \"#utility.yul\":18225:18276   */\n      tag_219\n      jump\t// in\n    tag_419:\n        /* \"#utility.yul\":18221:18277   */\n      not\n        /* \"#utility.yul\":18306:18310   */\n      dup1\n        /* \"#utility.yul\":18300:18304   */\n      dup4\n        /* \"#utility.yul\":18296:18311   */\n      and\n        /* \"#utility.yul\":18286:18311   */\n      swap2\n      pop\n        /* \"#utility.yul\":18199:18317   */\n      pop\n        /* \"#utility.yul\":18148:18317   */\n      swap3\n      swap2\n      pop\n      pop\n      jump\t// out\n        /* \"#utility.yul\":18322:18617   */\n    tag_221:\n        /* \"#utility.yul\":18398:18402   */\n      0x00\n        /* \"#utility.yul\":18544:18573   */\n      tag_421\n        /* \"#utility.yul\":18569:18572   */\n      dup4\n        /* \"#utility.yul\":18563:18567   */\n      dup4\n        /* \"#utility.yul\":18544:18573   */\n      tag_220\n      jump\t// in\n    tag_421:\n        /* \"#utility.yul\":18536:18573   */\n      swap2\n      pop\n        /* \"#utility.yul\":18606:18609   */\n      dup3\n        /* \"#utility.yul\":18603:18604   */\n      0x02\n        /* \"#utility.yul\":18599:18610   */\n      mul\n        /* \"#utility.yul\":18593:18597   */\n      dup3\n        /* \"#utility.yul\":18590:18611   */\n      or\n        /* \"#utility.yul\":18582:18611   */\n      swap1\n      pop\n        /* \"#utility.yul\":18322:18617   */\n      swap3\n      swap2\n      pop\n      pop\n      jump\t// out\n        /* \"#utility.yul\":18622:20012   */\n    tag_147:\n        /* \"#utility.yul\":18737:18773   */\n      tag_423\n        /* \"#utility.yul\":18769:18772   */\n      dup3\n        /* \"#utility.yul\":18737:18773   */\n      tag_172\n      jump\t// in\n    tag_423:\n        /* \"#utility.yul\":18838:18856   */\n      0xffffffffffffffff\n        /* \"#utility.yul\":18830:18836   */\n      dup2\n        /* \"#utility.yul\":18827:18857   */\n      gt\n        /* \"#utility.yul\":18824:18880   */\n      iszero\n      tag_424\n      jumpi\n        /* \"#utility.yul\":18860:18878   */\n      tag_425\n      tag_101\n      jump\t// in\n    tag_425:\n        /* \"#utility.yul\":18824:18880   */\n    tag_424:\n        /* \"#utility.yul\":18904:18942   */\n      tag_426\n        /* \"#utility.yul\":18936:18940   */\n      dup3\n        /* \"#utility.yul\":18930:18941   */\n      sload\n        /* \"#utility.yul\":18904:18942   */\n      tag_91\n      jump\t// in\n    tag_426:\n        /* \"#utility.yul\":18989:19055   */\n      tag_427\n        /* \"#utility.yul\":19048:19054   */\n      dup3\n        /* \"#utility.yul\":19040:19046   */\n      dup3\n        /* \"#utility.yul\":19034:19038   */\n      dup6\n        /* \"#utility.yul\":18989:19055   */\n      tag_218\n      jump\t// in\n    tag_427:\n        /* \"#utility.yul\":19082:19083   */\n      0x00\n        /* \"#utility.yul\":19106:19110   */\n      0x20\n        /* \"#utility.yul\":19093:19110   */\n      swap1\n      pop\n        /* \"#utility.yul\":19138:19140   */\n      0x1f\n        /* \"#utility.yul\":19130:19136   */\n      dup4\n        /* \"#utility.yul\":19127:19141   */\n      gt\n        /* \"#utility.yul\":19155:19156   */\n      0x01\n        /* \"#utility.yul\":19150:19767   */\n      dup2\n      eq\n      tag_429\n      jumpi\n        /* \"#utility.yul\":19811:19812   */\n      0x00\n        /* \"#utility.yul\":19828:19834   */\n      dup5\n        /* \"#utility.yul\":19825:19902   */\n      iszero\n      tag_430\n      jumpi\n        /* \"#utility.yul\":19877:19886   */\n      dup3\n        /* \"#utility.yul\":19872:19875   */\n      dup8\n        /* \"#utility.yul\":19868:19887   */\n      add\n        /* \"#utility.yul\":19862:19888   */\n      mload\n        /* \"#utility.yul\":19853:19888   */\n      swap1\n      pop\n        /* \"#utility.yul\":19825:19902   */\n    tag_430:\n        /* \"#utility.yul\":19928:19995   */\n      tag_431\n        /* \"#utility.yul\":19988:19994   */\n      dup6\n        /* \"#utility.yul\":19981:19986   */\n      dup3\n        /* \"#utility.yul\":19928:19995   */\n      tag_221\n      jump\t// in\n    tag_431:\n        /* \"#utility.yul\":19922:19926   */\n      dup7\n        /* \"#utility.yul\":19915:19996   */\n      sstore\n        /* \"#utility.yul\":19784:20006   */\n      pop\n        /* \"#utility.yul\":19120:20006   */\n      jump(tag_428)\n        /* \"#utility.yul\":19150:19767   */\n    tag_429:\n        /* \"#utility.yul\":19202:19206   */\n      0x1f\n        /* \"#utility.yul\":19198:19207   */\n      not\n        /* \"#utility.yul\":19190:19196   */\n      dup5\n        /* \"#utility.yul\":19186:19208   */\n      and\n        /* \"#utility.yul\":19236:19272   */\n      tag_432\n        /* \"#utility.yul\":19267:19271   */\n      dup7\n        /* \"#utility.yul\":19236:19272   */\n      tag_208\n      jump\t// in\n    tag_432:\n        /* \"#utility.yul\":19294:19295   */\n      0x00\n        /* \"#utility.yul\":19308:19516   */\n    tag_433:\n        /* \"#utility.yul\":19322:19329   */\n      dup3\n        /* \"#utility.yul\":19319:19320   */\n      dup2\n        /* \"#utility.yul\":19316:19330   */\n      lt\n        /* \"#utility.yul\":19308:19516   */\n      iszero\n      tag_435\n      jumpi\n        /* \"#utility.yul\":19401:19410   */\n      dup5\n        /* \"#utility.yul\":19396:19399   */\n      dup10\n        /* \"#utility.yul\":19392:19411   */\n      add\n        /* \"#utility.yul\":19386:19412   */\n      mload\n        /* \"#utility.yul\":19378:19384   */\n      dup3\n        /* \"#utility.yul\":19371:19413   */\n      sstore\n        /* \"#utility.yul\":19452:19453   */\n      0x01\n        /* \"#utility.yul\":19444:19450   */\n      dup3\n        /* \"#utility.yul\":19440:19454   */\n      add\n        /* \"#utility.yul\":19430:19454   */\n      swap2\n      pop\n        /* \"#utility.yul\":19499:19501   */\n      0x20\n        /* \"#utility.yul\":19488:19497   */\n      dup6\n        /* \"#utility.yul\":19484:19502   */\n      add\n        /* \"#utility.yul\":19471:19502   */\n      swap5\n      pop\n        /* \"#utility.yul\":19345:19349   */\n      0x20\n        /* \"#utility.yul\":19342:19343   */\n      dup2\n        /* \"#utility.yul\":19338:19350   */\n      add\n        /* \"#utility.yul\":19333:19350   */\n      swap1\n      pop\n        /* \"#utility.yul\":19308:19516   */\n      jump(tag_433)\n    tag_435:\n        /* \"#utility.yul\":19544:19550   */\n      dup7\n        /* \"#utility.yul\":19535:19542   */\n      dup4\n        /* \"#utility.yul\":19532:19551   */\n      lt\n        /* \"#utility.yul\":19529:19708   */\n      iszero\n      tag_436\n      jumpi\n        /* \"#utility.yul\":19602:19611   */\n      dup5\n        /* \"#utility.yul\":19597:19600   */\n      dup10\n        /* \"#utility.yul\":19593:19612   */\n      add\n        /* \"#utility.yul\":19587:19613   */\n      mload\n        /* \"#utility.yul\":19645:19693   */\n      tag_437\n        /* \"#utility.yul\":19687:19691   */\n      0x1f\n        /* \"#utility.yul\":19679:19685   */\n      dup10\n        /* \"#utility.yul\":19675:19692   */\n      and\n        /* \"#utility.yul\":19664:19673   */\n      dup3\n        /* \"#utility.yul\":19645:19693   */\n      tag_220\n      jump\t// in\n    tag_437:\n        /* \"#utility.yul\":19637:19643   */\n      dup4\n        /* \"#utility.yul\":19630:19694   */\n      sstore\n        /* \"#utility.yul\":19552:19708   */\n      pop\n        /* \"#utility.yul\":19529:19708   */\n    tag_436:\n        /* \"#utility.yul\":19754:19755   */\n      0x01\n        /* \"#utility.yul\":19750:19751   */\n      0x02\n        /* \"#utility.yul\":19742:19748   */\n      dup9\n        /* \"#utility.yul\":19738:19752   */\n      mul\n        /* \"#utility.yul\":19734:19756   */\n      add\n        /* \"#utility.yul\":19728:19732   */\n      dup9\n        /* \"#utility.yul\":19721:19757   */\n      sstore\n        /* \"#utility.yul\":19157:19767   */\n      pop\n      pop\n      pop\n        /* \"#utility.yul\":19120:20006   */\n    tag_428:\n      pop\n        /* \"#utility.yul\":18712:20012   */\n      pop\n      pop\n      pop\n        /* \"#utility.yul\":18622:20012   */\n      pop\n      pop\n      jump\t// out\n        /* \"#utility.yul\":20018:20218   */\n    tag_149:\n        /* \"#utility.yul\":20057:20061   */\n      0x00\n        /* \"#utility.yul\":20077:20096   */\n      tag_439\n        /* \"#utility.yul\":20094:20095   */\n      dup3\n        /* \"#utility.yul\":20077:20096   */\n      tag_156\n      jump\t// in\n    tag_439:\n        /* \"#utility.yul\":20072:20096   */\n      swap2\n      pop\n        /* \"#utility.yul\":20110:20129   */\n      tag_440\n        /* \"#utility.yul\":20127:20128   */\n      dup4\n        /* \"#utility.yul\":20110:20129   */\n      tag_156\n      jump\t// in\n    tag_440:\n        /* \"#utility.yul\":20105:20129   */\n      swap3\n      pop\n        /* \"#utility.yul\":20153:20154   */\n      dup3\n        /* \"#utility.yul\":20150:20151   */\n      dup3\n        /* \"#utility.yul\":20146:20155   */\n      sub\n        /* \"#utility.yul\":20138:20155   */\n      swap1\n      pop\n        /* \"#utility.yul\":20177:20187   */\n      0xffffffff\n        /* \"#utility.yul\":20171:20175   */\n      dup2\n        /* \"#utility.yul\":20168:20188   */\n      gt\n        /* \"#utility.yul\":20165:20211   */\n      iszero\n      tag_441\n      jumpi\n        /* \"#utility.yul\":20191:20209   */\n      tag_442\n      tag_207\n      jump\t// in\n    tag_442:\n        /* \"#utility.yul\":20165:20211   */\n    tag_441:\n        /* \"#utility.yul\":20018:20218   */\n      swap3\n      swap2\n      pop\n      pop\n      jump\t// out\n\n    auxdata: 0xa26469706673582212209e0c3b56508a8bb81528a641a99e668593e80f138324e9a5e68ed502e0c4bfc564736f6c634300081f0033\n}\n",
				"bytecode": {
					"linkReferences": {},
					"object": "60a060405234801561000f575f5ffd5b506040516119903803806119908339818101604052810190610031919061027f565b8073ffffffffffffffffffffffffffffffffffffffff1660808173ffffffffffffffffffffffffffffffffffffffff16815250505f60405160200161007691906102c2565b604051602081830303815290604052805190602001205f5f6014811061009f5761009e6102db565b5b01819055505f600190505b601463ffffffff168163ffffffff16101561015f575f6001826100cd9190610344565b63ffffffff16601481106100e4576100e36102db565b5b01545f6001836100f49190610344565b63ffffffff166014811061010b5761010a6102db565b5b015460405160200161011e929190610393565b604051602081830303815290604052805190602001205f8263ffffffff166014811061014d5761014c6102db565b5b018190555080806001019150506100aa565b505f5f90505b601463ffffffff168163ffffffff1610156101c1575f8163ffffffff1660148110610193576101926102db565b5b015460148263ffffffff16601481106101af576101ae6102db565b5b01819055508080600101915050610165565b505f600160146101d19190610344565b63ffffffff16601481106101e8576101e76102db565b5b01546028819055506001602b5f60285481526020019081526020015f205f6101000a81548160ff021916908315150217905550506103ba565b5f5ffd5b5f73ffffffffffffffffffffffffffffffffffffffff82169050919050565b5f61024e82610225565b9050919050565b61025e81610244565b8114610268575f5ffd5b50565b5f8151905061027981610255565b92915050565b5f6020828403121561029457610293610221565b5b5f6102a18482850161026b565b91505092915050565b5f819050919050565b6102bc816102aa565b82525050565b5f6020820190506102d55f8301846102b3565b92915050565b7f4e487b71000000000000000000000000000000000000000000000000000000005f52603260045260245ffd5b5f63ffffffff82169050919050565b7f4e487b71000000000000000000000000000000000000000000000000000000005f52601160045260245ffd5b5f61034e82610308565b915061035983610308565b9250828203905063ffffffff81111561037557610374610317565b5b92915050565b5f819050919050565b61038d8161037b565b82525050565b5f6040820190506103a65f830185610384565b6103b36020830184610384565b9392505050565b6080516115b76103d95f395f81816103b601526105db01526115b75ff3fe6080604052600436106100dc575f3560e01c8063e29973fc1161007e578063f165053611610058578063f1650536146102ce578063f178e47c146102f8578063fc7e9c6f14610334578063fdab463d1461035e576100dc565b8063e29973fc1461023a578063e5285dcc14610256578063e829558814610292576100dc565b80634e73da7d116100ba5780634e73da7d1461017057806385de26b7146101ac5780638b01429d146101e8578063b130eaa614610212576100dc565b8063082febf0146100e057806317cc915c1461010a5780632b7ac3f314610146575b5f5ffd5b3480156100eb575f5ffd5b506100f4610388565b6040516101019190610b6c565b60405180910390f35b348015610115575f5ffd5b50610130600480360381019061012b9190610bc0565b610397565b60405161013d9190610c05565b60405180910390f35b348015610151575f5ffd5b5061015a6103b4565b6040516101679190610c98565b60405180910390f35b34801561017b575f5ffd5b5061019660048036038101906101919190610bc0565b6103d8565b6040516101a39190610c05565b60405180910390f35b3480156101b7575f5ffd5b506101d260048036038101906101cd9190610bc0565b6103f5565b6040516101df9190610d21565b60405180910390f35b3480156101f3575f5ffd5b506101fc610495565b6040516102099190610d59565b60405180910390f35b34801561021d575f5ffd5b5061023860048036038101906102339190610e0e565b6104a1565b005b610254600480360381019061024f9190610e92565b6107df565b005b348015610261575f5ffd5b5061027c60048036038101906102779190610bc0565b610ad7565b6040516102899190610c05565b60405180910390f35b34801561029d575f5ffd5b506102b860048036038101906102b39190610f19565b610afd565b6040516102c59190610f53565b60405180910390f35b3480156102d9575f5ffd5b506102e2610b15565b6040516102ef9190610b6c565b60405180910390f35b348015610303575f5ffd5b5061031e60048036038101906103199190610f19565b610b1a565b60405161032b9190610f53565b60405180910390f35b34801561033f575f5ffd5b50610348610b33565b6040516103559190610b6c565b60405180910390f35b348015610369575f5ffd5b50610372610b48565b60405161037f9190610f53565b60405180910390f35b601463ffffffff166001901b81565b602a602052805f5260405f205f915054906101000a900460ff1681565b7f000000000000000000000000000000000000000000000000000000000000000081565b602b602052805f5260405f205f915054906101000a900460ff1681565b602c602052805f5260405f205f91509050805f01805461041490610f99565b80601f016020809104026020016040519081016040528092919081815260200182805461044090610f99565b801561048b5780601f106104625761010080835404028352916020019161048b565b820191905f5260205f20905b81548152906001019060200180831161046e57829003601f168201915b5050505050905081565b670de0b6b3a764000081565b602a5f8381526020019081526020015f205f9054906101000a900460ff16156104f6576040517fcad2ae0200000000000000000000000000000000000000000000000000000000815260040160405180910390fd5b602b5f8481526020019081526020015f205f9054906101000a900460ff1661054a576040517f8c52011600000000000000000000000000000000000000000000000000000000815260040160405180910390fd5b5f600267ffffffffffffffff81111561056657610565610fc9565b5b6040519080825280602002602001820160405280156105945781602001602082028036833780820191505090505b50905083815f815181106105ab576105aa610ff6565b5b60200260200101818152505082816001815181106105cc576105cb610ff6565b5b6020026020010181815250505f7f000000000000000000000000000000000000000000000000000000000000000073ffffffffffffffffffffffffffffffffffffffff1663ea50d0e48888856040518463ffffffff1660e01b815260040161063693929190611114565b602060405180830381865afa158015610651573d5f5f3e3d5ffd5b505050506040513d601f19601f820116820180604052508101906106759190611175565b9050806106ae576040517f09bde33900000000000000000000000000000000000000000000000000000000815260040160405180910390fd5b6001602a5f8681526020019081526020015f205f6101000a81548160ff0219169083151502179055505f8373ffffffffffffffffffffffffffffffffffffffff16670de0b6b3a7640000604051610704906111cd565b5f6040518083038185875af1925050503d805f811461073e576040519150601f19603f3d011682016040523d82523d5f602084013e610743565b606091505b5050905080610787576040517f08c379a000000000000000000000000000000000000000000000000000000000815260040161077e9061123b565b60405180910390fd5b8373ffffffffffffffffffffffffffffffffffffffff167f0ce490531f6c8ae2f1ff174643bc8b7ed5e52987ab50dc1e8f33655d2cd8c90b866040516107cd9190610f53565b60405180910390a25050505050505050565b670de0b6b3a76400003414610820576040517ff067b3c600000000000000000000000000000000000000000000000000000000815260040160405180910390fd5b601463ffffffff166001901b63ffffffff1660295f9054906101000a900463ffffffff1663ffffffff1610610881576040517fed732d0c00000000000000000000000000000000000000000000000000000000815260040160405180910390fd5b5f60295f9054906101000a900463ffffffff169050600160295f8282829054906101000a900463ffffffff166108b79190611286565b92506101000a81548163ffffffff021916908363ffffffff1602179055505f8490505f5f90505b601463ffffffff168163ffffffff1610156109ce575f6001841663ffffffff160361096d578160148263ffffffff166014811061091e5761091d610ff6565b5b0181905550815f8263ffffffff166014811061093d5761093c610ff6565b5b01546040516020016109509291906112bd565b6040516020818303038152906040528051906020012091506109b4565b60148163ffffffff166014811061098757610986610ff6565b5b01548260405160200161099b9291906112bd565b6040516020818303038152906040528051906020012091505b60018363ffffffff16901c925080806001019150506108de565b50806028819055506001602b5f60285481526020019081526020015f205f6101000a81548160ff021916908315150217905550604051806020016040528085858080601f0160208091040260200160405190810160405280939291908181526020018383808284375f81840152601f19601f82011690508083019250505050505050815250602c5f8781526020019081526020015f205f820151815f019081610a77919061147b565b50905050847f84fc9eb8cd0a782a1d1734fbeed616bd0ef775f8b9bd437636b62d634fe4baf3600160295f9054906101000a900463ffffffff16610abb919061154a565b604051610ac89190610b6c565b60405180910390a25050505050565b5f602a5f8381526020019081526020015f205f9054906101000a900460ff169050919050565b5f8160148110610b0b575f80fd5b015f915090505481565b601481565b60148160148110610b29575f80fd5b015f915090505481565b60295f9054906101000a900463ffffffff1681565b60285481565b5f63ffffffff82169050919050565b610b6681610b4e565b82525050565b5f602082019050610b7f5f830184610b5d565b92915050565b5f5ffd5b5f5ffd5b5f819050919050565b610b9f81610b8d565b8114610ba9575f5ffd5b50565b5f81359050610bba81610b96565b92915050565b5f60208284031215610bd557610bd4610b85565b5b5f610be284828501610bac565b91505092915050565b5f8115159050919050565b610bff81610beb565b82525050565b5f602082019050610c185f830184610bf6565b92915050565b5f73ffffffffffffffffffffffffffffffffffffffff82169050919050565b5f819050919050565b5f610c60610c5b610c5684610c1e565b610c3d565b610c1e565b9050919050565b5f610c7182610c46565b9050919050565b5f610c8282610c67565b9050919050565b610c9281610c78565b82525050565b5f602082019050610cab5f830184610c89565b92915050565b5f81519050919050565b5f82825260208201905092915050565b8281835e5f83830152505050565b5f601f19601f8301169050919050565b5f610cf382610cb1565b610cfd8185610cbb565b9350610d0d818560208601610ccb565b610d1681610cd9565b840191505092915050565b5f6020820190508181035f830152610d398184610ce9565b905092915050565b5f819050919050565b610d5381610d41565b82525050565b5f602082019050610d6c5f830184610d4a565b92915050565b5f5ffd5b5f5ffd5b5f5ffd5b5f5f83601f840112610d9357610d92610d72565b5b8235905067ffffffffffffffff811115610db057610daf610d76565b5b602083019150836001820283011115610dcc57610dcb610d7a565b5b9250929050565b5f610ddd82610c1e565b9050919050565b610ded81610dd3565b8114610df7575f5ffd5b50565b5f81359050610e0881610de4565b92915050565b5f5f5f5f5f60808688031215610e2757610e26610b85565b5b5f86013567ffffffffffffffff811115610e4457610e43610b89565b5b610e5088828901610d7e565b95509550506020610e6388828901610bac565b9350506040610e7488828901610bac565b9250506060610e8588828901610dfa565b9150509295509295909350565b5f5f5f60408486031215610ea957610ea8610b85565b5b5f610eb686828701610bac565b935050602084013567ffffffffffffffff811115610ed757610ed6610b89565b5b610ee386828701610d7e565b92509250509250925092565b610ef881610d41565b8114610f02575f5ffd5b50565b5f81359050610f1381610eef565b92915050565b5f60208284031215610f2e57610f2d610b85565b5b5f610f3b84828501610f05565b91505092915050565b610f4d81610b8d565b82525050565b5f602082019050610f665f830184610f44565b92915050565b7f4e487b71000000000000000000000000000000000000000000000000000000005f52602260045260245ffd5b5f6002820490506001821680610fb057607f821691505b602082108103610fc357610fc2610f6c565b5b50919050565b7f4e487b71000000000000000000000000000000000000000000000000000000005f52604160045260245ffd5b7f4e487b71000000000000000000000000000000000000000000000000000000005f52603260045260245ffd5b828183375f83830152505050565b5f61103c8385610cbb565b9350611049838584611023565b61105283610cd9565b840190509392505050565b5f81519050919050565b5f82825260208201905092915050565b5f819050602082019050919050565b61108f81610b8d565b82525050565b5f6110a08383611086565b60208301905092915050565b5f602082019050919050565b5f6110c28261105d565b6110cc8185611067565b93506110d783611077565b805f5b838110156111075781516110ee8882611095565b97506110f9836110ac565b9250506001810190506110da565b5085935050505092915050565b5f6040820190508181035f83015261112d818587611031565b9050818103602083015261114181846110b8565b9050949350505050565b61115481610beb565b811461115e575f5ffd5b50565b5f8151905061116f8161114b565b92915050565b5f6020828403121561118a57611189610b85565b5b5f61119784828501611161565b91505092915050565b5f81905092915050565b50565b5f6111b85f836111a0565b91506111c3826111aa565b5f82019050919050565b5f6111d7826111ad565b9150819050919050565b5f82825260208201905092915050565b7f4d4e54207472616e73666572206661696c6564000000000000000000000000005f82015250565b5f6112256013836111e1565b9150611230826111f1565b602082019050919050565b5f6020820190508181035f83015261125281611219565b9050919050565b7f4e487b71000000000000000000000000000000000000000000000000000000005f52601160045260245ffd5b5f61129082610b4e565b915061129b83610b4e565b9250828201905063ffffffff8111156112b7576112b6611259565b5b92915050565b5f6040820190506112d05f830185610f44565b6112dd6020830184610f44565b9392505050565b5f819050815f5260205f209050919050565b5f6020601f8301049050919050565b5f82821b905092915050565b5f600883026113407fffffffffffffffffffffffffffffffffffffffffffffffffffffffffffffffff82611305565b61134a8683611305565b95508019841693508086168417925050509392505050565b5f61137c61137761137284610d41565b610c3d565b610d41565b9050919050565b5f819050919050565b61139583611362565b6113a96113a182611383565b848454611311565b825550505050565b5f5f905090565b6113c06113b1565b6113cb81848461138c565b505050565b5b818110156113ee576113e35f826113b8565b6001810190506113d1565b5050565b601f82111561143357611404816112e4565b61140d846112f6565b8101602085101561141c578190505b611430611428856112f6565b8301826113d0565b50505b505050565b5f82821c905092915050565b5f6114535f1984600802611438565b1980831691505092915050565b5f61146b8383611444565b9150826002028217905092915050565b61148482610cb1565b67ffffffffffffffff81111561149d5761149c610fc9565b5b6114a78254610f99565b6114b28282856113f2565b5f60209050601f8311600181146114e3575f84156114d1578287015190505b6114db8582611460565b865550611542565b601f1984166114f1866112e4565b5f5b82811015611518578489015182556001820191506020850194506020810190506114f3565b868310156115355784890151611531601f891682611444565b8355505b6001600288020188555050505b505050505050565b5f61155482610b4e565b915061155f83610b4e565b9250828203905063ffffffff81111561157b5761157a611259565b5b9291505056fea26469706673582212209e0c3b56508a8bb81528a641a99e668593e80f138324e9a5e68ed502e0c4bfc564736f6c634300081f0033",
					"opcodes": "PUSH1 0xA0 PUSH1 0x40 MSTORE CALLVALUE DUP1 ISZERO PUSH2 0xF JUMPI PUSH0 PUSH0 REVERT JUMPDEST POP PUSH1 0x40 MLOAD PUSH2 0x1990 CODESIZE SUB DUP1 PUSH2 0x1990 DUP4 CODECOPY DUP2 DUP2 ADD PUSH1 0x40 MSTORE DUP2 ADD SWAP1 PUSH2 0x31 SWAP2 SWAP1 PUSH2 0x27F JUMP JUMPDEST DUP1 PUSH20 0xFFFFFFFFFFFFFFFFFFFFFFFFFFFFFFFFFFFFFFFF AND PUSH1 0x80 DUP2 PUSH20 0xFFFFFFFFFFFFFFFFFFFFFFFFFFFFFFFFFFFFFFFF AND DUP2 MSTORE POP POP PUSH0 PUSH1 0x40 MLOAD PUSH1 0x20 ADD PUSH2 0x76 SWAP2 SWAP1 PUSH2 0x2C2 JUMP JUMPDEST PUSH1 0x40 MLOAD PUSH1 0x20 DUP2 DUP4 SUB SUB DUP2 MSTORE SWAP1 PUSH1 0x40 MSTORE DUP1 MLOAD SWAP1 PUSH1 0x20 ADD KECCAK256 PUSH0 PUSH0 PUSH1 0x14 DUP2 LT PUSH2 0x9F JUMPI PUSH2 0x9E PUSH2 0x2DB JUMP JUMPDEST JUMPDEST ADD DUP2 SWAP1 SSTORE POP PUSH0 PUSH1 0x1 SWAP1 POP JUMPDEST PUSH1 0x14 PUSH4 0xFFFFFFFF AND DUP2 PUSH4 0xFFFFFFFF AND LT ISZERO PUSH2 0x15F JUMPI PUSH0 PUSH1 0x1 DUP3 PUSH2 0xCD SWAP2 SWAP1 PUSH2 0x344 JUMP JUMPDEST PUSH4 0xFFFFFFFF AND PUSH1 0x14 DUP2 LT PUSH2 0xE4 JUMPI PUSH2 0xE3 PUSH2 0x2DB JUMP JUMPDEST JUMPDEST ADD SLOAD PUSH0 PUSH1 0x1 DUP4 PUSH2 0xF4 SWAP2 SWAP1 PUSH2 0x344 JUMP JUMPDEST PUSH4 0xFFFFFFFF AND PUSH1 0x14 DUP2 LT PUSH2 0x10B JUMPI PUSH2 0x10A PUSH2 0x2DB JUMP JUMPDEST JUMPDEST ADD SLOAD PUSH1 0x40 MLOAD PUSH1 0x20 ADD PUSH2 0x11E SWAP3 SWAP2 SWAP1 PUSH2 0x393 JUMP JUMPDEST PUSH1 0x40 MLOAD PUSH1 0x20 DUP2 DUP4 SUB SUB DUP2 MSTORE SWAP1 PUSH1 0x40 MSTORE DUP1 MLOAD SWAP1 PUSH1 0x20 ADD KECCAK256 PUSH0 DUP3 PUSH4 0xFFFFFFFF AND PUSH1 0x14 DUP2 LT PUSH2 0x14D JUMPI PUSH2 0x14C PUSH2 0x2DB JUMP JUMPDEST JUMPDEST ADD DUP2 SWAP1 SSTORE POP DUP1 DUP1 PUSH1 0x1 ADD SWAP2 POP POP PUSH2 0xAA JUMP JUMPDEST POP PUSH0 PUSH0 SWAP1 POP JUMPDEST PUSH1 0x14 PUSH4 0xFFFFFFFF AND DUP2 PUSH4 0xFFFFFFFF AND LT ISZERO PUSH2 0x1C1 JUMPI PUSH0 DUP2 PUSH4 0xFFFFFFFF AND PUSH1 0x14 DUP2 LT PUSH2 0x193 JUMPI PUSH2 0x192 PUSH2 0x2DB JUMP JUMPDEST JUMPDEST ADD SLOAD PUSH1 0x14 DUP3 PUSH4 0xFFFFFFFF AND PUSH1 0x14 DUP2 LT PUSH2 0x1AF JUMPI PUSH2 0x1AE PUSH2 0x2DB JUMP JUMPDEST JUMPDEST ADD DUP2 SWAP1 SSTORE POP DUP1 DUP1 PUSH1 0x1 ADD SWAP2 POP POP PUSH2 0x165 JUMP JUMPDEST POP PUSH0 PUSH1 0x1 PUSH1 0x14 PUSH2 0x1D1 SWAP2 SWAP1 PUSH2 0x344 JUMP JUMPDEST PUSH4 0xFFFFFFFF AND PUSH1 0x14 DUP2 LT PUSH2 0x1E8 JUMPI PUSH2 0x1E7 PUSH2 0x2DB JUMP JUMPDEST JUMPDEST ADD SLOAD PUSH1 0x28 DUP2 SWAP1 SSTORE POP PUSH1 0x1 PUSH1 0x2B PUSH0 PUSH1 0x28 SLOAD DUP2 MSTORE PUSH1 0x20 ADD SWAP1 DUP2 MSTORE PUSH1 0x20 ADD PUSH0 KECCAK256 PUSH0 PUSH2 0x100 EXP DUP2 SLOAD DUP2 PUSH1 0xFF MUL NOT AND SWAP1 DUP4 ISZERO ISZERO MUL OR SWAP1 SSTORE POP POP PUSH2 0x3BA JUMP JUMPDEST PUSH0 PUSH0 REVERT JUMPDEST PUSH0 PUSH20 0xFFFFFFFFFFFFFFFFFFFFFFFFFFFFFFFFFFFFFFFF DUP3 AND SWAP1 POP SWAP2 SWAP1 POP JUMP JUMPDEST PUSH0 PUSH2 0x24E DUP3 PUSH2 0x225 JUMP JUMPDEST SWAP1 POP SWAP2 SWAP1 POP JUMP JUMPDEST PUSH2 0x25E DUP2 PUSH2 0x244 JUMP JUMPDEST DUP2 EQ PUSH2 0x268 JUMPI PUSH0 PUSH0 REVERT JUMPDEST POP JUMP JUMPDEST PUSH0 DUP2 MLOAD SWAP1 POP PUSH2 0x279 DUP2 PUSH2 0x255 JUMP JUMPDEST SWAP3 SWAP2 POP POP JUMP JUMPDEST PUSH0 PUSH1 0x20 DUP3 DUP5 SUB SLT ISZERO PUSH2 0x294 JUMPI PUSH2 0x293 PUSH2 0x221 JUMP JUMPDEST JUMPDEST PUSH0 PUSH2 0x2A1 DUP5 DUP3 DUP6 ADD PUSH2 0x26B JUMP JUMPDEST SWAP2 POP POP SWAP3 SWAP2 POP POP JUMP JUMPDEST PUSH0 DUP2 SWAP1 POP SWAP2 SWAP1 POP JUMP JUMPDEST PUSH2 0x2BC DUP2 PUSH2 0x2AA JUMP JUMPDEST DUP3 MSTORE POP POP JUMP JUMPDEST PUSH0 PUSH1 0x20 DUP3 ADD SWAP1 POP PUSH2 0x2D5 PUSH0 DUP4 ADD DUP5 PUSH2 0x2B3 JUMP JUMPDEST SWAP3 SWAP2 POP POP JUMP JUMPDEST PUSH32 0x4E487B7100000000000000000000000000000000000000000000000000000000 PUSH0 MSTORE PUSH1 0x32 PUSH1 0x4 MSTORE PUSH1 0x24 PUSH0 REVERT JUMPDEST PUSH0 PUSH4 0xFFFFFFFF DUP3 AND SWAP1 POP SWAP2 SWAP1 POP JUMP JUMPDEST PUSH32 0x4E487B7100000000000000000000000000000000000000000000000000000000 PUSH0 MSTORE PUSH1 0x11 PUSH1 0x4 MSTORE PUSH1 0x24 PUSH0 REVERT JUMPDEST PUSH0 PUSH2 0x34E DUP3 PUSH2 0x308 JUMP JUMPDEST SWAP2 POP PUSH2 0x359 DUP4 PUSH2 0x308 JUMP JUMPDEST SWAP3 POP DUP3 DUP3 SUB SWAP1 POP PUSH4 0xFFFFFFFF DUP2 GT ISZERO PUSH2 0x375 JUMPI PUSH2 0x374 PUSH2 0x317 JUMP JUMPDEST JUMPDEST SWAP3 SWAP2 POP POP JUMP JUMPDEST PUSH0 DUP2 SWAP1 POP SWAP2 SWAP1 POP JUMP JUMPDEST PUSH2 0x38D DUP2 PUSH2 0x37B JUMP JUMPDEST DUP3 MSTORE POP POP JUMP JUMPDEST PUSH0 PUSH1 0x40 DUP3 ADD SWAP1 POP PUSH2 0x3A6 PUSH0 DUP4 ADD DUP6 PUSH2 0x384 JUMP JUMPDEST PUSH2 0x3B3 PUSH1 0x20 DUP4 ADD DUP5 PUSH2 0x384 JUMP JUMPDEST SWAP4 SWAP3 POP POP POP JUMP JUMPDEST PUSH1 0x80 MLOAD PUSH2 0x15B7 PUSH2 0x3D9 PUSH0 CODECOPY PUSH0 DUP2 DUP2 PUSH2 0x3B6 ADD MSTORE PUSH2 0x5DB ADD MSTORE PUSH2 0x15B7 PUSH0 RETURN INVALID PUSH1 0x80 PUSH1 0x40 MSTORE PUSH1 0x4 CALLDATASIZE LT PUSH2 0xDC JUMPI PUSH0 CALLDATALOAD PUSH1 0xE0 SHR DUP1 PUSH4 0xE29973FC GT PUSH2 0x7E JUMPI DUP1 PUSH4 0xF1650536 GT PUSH2 0x58 JUMPI DUP1 PUSH4 0xF1650536 EQ PUSH2 0x2CE JUMPI DUP1 PUSH4 0xF178E47C EQ PUSH2 0x2F8 JUMPI DUP1 PUSH4 0xFC7E9C6F EQ PUSH2 0x334 JUMPI DUP1 PUSH4 0xFDAB463D EQ PUSH2 0x35E JUMPI PUSH2 0xDC JUMP JUMPDEST DUP1 PUSH4 0xE29973FC EQ PUSH2 0x23A JUMPI DUP1 PUSH4 0xE5285DCC EQ PUSH2 0x256 JUMPI DUP1 PUSH4 0xE8295588 EQ PUSH2 0x292 JUMPI PUSH2 0xDC JUMP JUMPDEST DUP1 PUSH4 0x4E73DA7D GT PUSH2 0xBA JUMPI DUP1 PUSH4 0x4E73DA7D EQ PUSH2 0x170 JUMPI DUP1 PUSH4 0x85DE26B7 EQ PUSH2 0x1AC JUMPI DUP1 PUSH4 0x8B01429D EQ PUSH2 0x1E8 JUMPI DUP1 PUSH4 0xB130EAA6 EQ PUSH2 0x212 JUMPI PUSH2 0xDC JUMP JUMPDEST DUP1 PUSH4 0x82FEBF0 EQ PUSH2 0xE0 JUMPI DUP1 PUSH4 0x17CC915C EQ PUSH2 0x10A JUMPI DUP1 PUSH4 0x2B7AC3F3 EQ PUSH2 0x146 JUMPI JUMPDEST PUSH0 PUSH0 REVERT JUMPDEST CALLVALUE DUP1 ISZERO PUSH2 0xEB JUMPI PUSH0 PUSH0 REVERT JUMPDEST POP PUSH2 0xF4 PUSH2 0x388 JUMP JUMPDEST PUSH1 0x40 MLOAD PUSH2 0x101 SWAP2 SWAP1 PUSH2 0xB6C JUMP JUMPDEST PUSH1 0x40 MLOAD DUP1 SWAP2 SUB SWAP1 RETURN JUMPDEST CALLVALUE DUP1 ISZERO PUSH2 0x115 JUMPI PUSH0 PUSH0 REVERT JUMPDEST POP PUSH2 0x130 PUSH1 0x4 DUP1 CALLDATASIZE SUB DUP2 ADD SWAP1 PUSH2 0x12B SWAP2 SWAP1 PUSH2 0xBC0 JUMP JUMPDEST PUSH2 0x397 JUMP JUMPDEST PUSH1 0x40 MLOAD PUSH2 0x13D SWAP2 SWAP1 PUSH2 0xC05 JUMP JUMPDEST PUSH1 0x40 MLOAD DUP1 SWAP2 SUB SWAP1 RETURN JUMPDEST CALLVALUE DUP1 ISZERO PUSH2 0x151 JUMPI PUSH0 PUSH0 REVERT JUMPDEST POP PUSH2 0x15A PUSH2 0x3B4 JUMP JUMPDEST PUSH1 0x40 MLOAD PUSH2 0x167 SWAP2 SWAP1 PUSH2 0xC98 JUMP JUMPDEST PUSH1 0x40 MLOAD DUP1 SWAP2 SUB SWAP1 RETURN JUMPDEST CALLVALUE DUP1 ISZERO PUSH2 0x17B JUMPI PUSH0 PUSH0 REVERT JUMPDEST POP PUSH2 0x196 PUSH1 0x4 DUP1 CALLDATASIZE SUB DUP2 ADD SWAP1 PUSH2 0x191 SWAP2 SWAP1 PUSH2 0xBC0 JUMP JUMPDEST PUSH2 0x3D8 JUMP JUMPDEST PUSH1 0x40 MLOAD PUSH2 0x1A3 SWAP2 SWAP1 PUSH2 0xC05 JUMP JUMPDEST PUSH1 0x40 MLOAD DUP1 SWAP2 SUB SWAP1 RETURN JUMPDEST CALLVALUE DUP1 ISZERO PUSH2 0x1B7 JUMPI PUSH0 PUSH0 REVERT JUMPDEST POP PUSH2 0x1D2 PUSH1 0x4 DUP1 CALLDATASIZE SUB DUP2 ADD SWAP1 PUSH2 0x1CD SWAP2 SWAP1 PUSH2 0xBC0 JUMP JUMPDEST PUSH2 0x3F5 JUMP JUMPDEST PUSH1 0x40 MLOAD PUSH2 0x1DF SWAP2 SWAP1 PUSH2 0xD21 JUMP JUMPDEST PUSH1 0x40 MLOAD DUP1 SWAP2 SUB SWAP1 RETURN JUMPDEST CALLVALUE DUP1 ISZERO PUSH2 0x1F3 JUMPI PUSH0 PUSH0 REVERT JUMPDEST POP PUSH2 0x1FC PUSH2 0x495 JUMP JUMPDEST PUSH1 0x40 MLOAD PUSH2 0x209 SWAP2 SWAP1 PUSH2 0xD59 JUMP JUMPDEST PUSH1 0x40 MLOAD DUP1 SWAP2 SUB SWAP1 RETURN JUMPDEST CALLVALUE DUP1 ISZERO PUSH2 0x21D JUMPI PUSH0 PUSH0 REVERT JUMPDEST POP PUSH2 0x238 PUSH1 0x4 DUP1 CALLDATASIZE SUB DUP2 ADD SWAP1 PUSH2 0x233 SWAP2 SWAP1 PUSH2 0xE0E JUMP JUMPDEST PUSH2 0x4A1 JUMP JUMPDEST STOP JUMPDEST PUSH2 0x254 PUSH1 0x4 DUP1 CALLDATASIZE SUB DUP2 ADD SWAP1 PUSH2 0x24F SWAP2 SWAP1 PUSH2 0xE92 JUMP JUMPDEST PUSH2 0x7DF JUMP JUMPDEST STOP JUMPDEST CALLVALUE DUP1 ISZERO PUSH2 0x261 JUMPI PUSH0 PUSH0 REVERT JUMPDEST POP PUSH2 0x27C PUSH1 0x4 DUP1 CALLDATASIZE SUB DUP2 ADD SWAP1 PUSH2 0x277 SWAP2 SWAP1 PUSH2 0xBC0 JUMP JUMPDEST PUSH2 0xAD7 JUMP JUMPDEST PUSH1 0x40 MLOAD PUSH2 0x289 SWAP2 SWAP1 PUSH2 0xC05 JUMP JUMPDEST PUSH1 0x40 MLOAD DUP1 SWAP2 SUB SWAP1 RETURN JUMPDEST CALLVALUE DUP1 ISZERO PUSH2 0x29D JUMPI PUSH0 PUSH0 REVERT JUMPDEST POP PUSH2 0x2B8 PUSH1 0x4 DUP1 CALLDATASIZE SUB DUP2 ADD SWAP1 PUSH2 0x2B3 SWAP2 SWAP1 PUSH2 0xF19 JUMP JUMPDEST PUSH2 0xAFD JUMP JUMPDEST PUSH1 0x40 MLOAD PUSH2 0x2C5 SWAP2 SWAP1 PUSH2 0xF53 JUMP JUMPDEST PUSH1 0x40 MLOAD DUP1 SWAP2 SUB SWAP1 RETURN JUMPDEST CALLVALUE DUP1 ISZERO PUSH2 0x2D9 JUMPI PUSH0 PUSH0 REVERT JUMPDEST POP PUSH2 0x2E2 PUSH2 0xB15 JUMP JUMPDEST PUSH1 0x40 MLOAD PUSH2 0x2EF SWAP2 SWAP1 PUSH2 0xB6C JUMP JUMPDEST PUSH1 0x40 MLOAD DUP1 SWAP2 SUB SWAP1 RETURN JUMPDEST CALLVALUE DUP1 ISZERO PUSH2 0x303 JUMPI PUSH0 PUSH0 REVERT JUMPDEST POP PUSH2 0x31E PUSH1 0x4 DUP1 CALLDATASIZE SUB DUP2 ADD SWAP1 PUSH2 0x319 SWAP2 SWAP1 PUSH2 0xF19 JUMP JUMPDEST PUSH2 0xB1A JUMP JUMPDEST PUSH1 0x40 MLOAD PUSH2 0x32B SWAP2 SWAP1 PUSH2 0xF53 JUMP JUMPDEST PUSH1 0x40 MLOAD DUP1 SWAP2 SUB SWAP1 RETURN JUMPDEST CALLVALUE DUP1 ISZERO PUSH2 0x33F JUMPI PUSH0 PUSH0 REVERT JUMPDEST POP PUSH2 0x348 PUSH2 0xB33 JUMP JUMPDEST PUSH1 0x40 MLOAD PUSH2 0x355 SWAP2 SWAP1 PUSH2 0xB6C JUMP JUMPDEST PUSH1 0x40 MLOAD DUP1 SWAP2 SUB SWAP1 RETURN JUMPDEST CALLVALUE DUP1 ISZERO PUSH2 0x369 JUMPI PUSH0 PUSH0 REVERT JUMPDEST POP PUSH2 0x372 PUSH2 0xB48 JUMP JUMPDEST PUSH1 0x40 MLOAD PUSH2 0x37F SWAP2 SWAP1 PUSH2 0xF53 JUMP JUMPDEST PUSH1 0x40 MLOAD DUP1 SWAP2 SUB SWAP1 RETURN JUMPDEST PUSH1 0x14 PUSH4 0xFFFFFFFF AND PUSH1 0x1 SWAP1 SHL DUP2 JUMP JUMPDEST PUSH1 0x2A PUSH1 0x20 MSTORE DUP1 PUSH0 MSTORE PUSH1 0x40 PUSH0 KECCAK256 PUSH0 SWAP2 POP SLOAD SWAP1 PUSH2 0x100 EXP SWAP1 DIV PUSH1 0xFF AND DUP2 JUMP JUMPDEST PUSH32 0x0 DUP2 JUMP JUMPDEST PUSH1 0x2B PUSH1 0x20 MSTORE DUP1 PUSH0 MSTORE PUSH1 0x40 PUSH0 KECCAK256 PUSH0 SWAP2 POP SLOAD SWAP1 PUSH2 0x100 EXP SWAP1 DIV PUSH1 0xFF AND DUP2 JUMP JUMPDEST PUSH1 0x2C PUSH1 0x20 MSTORE DUP1 PUSH0 MSTORE PUSH1 0x40 PUSH0 KECCAK256 PUSH0 SWAP2 POP SWAP1 POP DUP1 PUSH0 ADD DUP1 SLOAD PUSH2 0x414 SWAP1 PUSH2 0xF99 JUMP JUMPDEST DUP1 PUSH1 0x1F ADD PUSH1 0x20 DUP1 SWAP2 DIV MUL PUSH1 0x20 ADD PUSH1 0x40 MLOAD SWAP1 DUP2 ADD PUSH1 0x40 MSTORE DUP1 SWAP3 SWAP2 SWAP1 DUP2 DUP2 MSTORE PUSH1 0x20 ADD DUP3 DUP1 SLOAD PUSH2 0x440 SWAP1 PUSH2 0xF99 JUMP JUMPDEST DUP1 ISZERO PUSH2 0x48B JUMPI DUP1 PUSH1 0x1F LT PUSH2 0x462 JUMPI PUSH2 0x100 DUP1 DUP4 SLOAD DIV MUL DUP4 MSTORE SWAP2 PUSH1 0x20 ADD SWAP2 PUSH2 0x48B JUMP JUMPDEST DUP3 ADD SWAP2 SWAP1 PUSH0 MSTORE PUSH1 0x20 PUSH0 KECCAK256 SWAP1 JUMPDEST DUP2 SLOAD DUP2 MSTORE SWAP1 PUSH1 0x1 ADD SWAP1 PUSH1 0x20 ADD DUP1 DUP4 GT PUSH2 0x46E JUMPI DUP3 SWAP1 SUB PUSH1 0x1F AND DUP3 ADD SWAP2 JUMPDEST POP POP POP POP POP SWAP1 POP DUP2 JUMP JUMPDEST PUSH8 0xDE0B6B3A7640000 DUP2 JUMP JUMPDEST PUSH1 0x2A PUSH0 DUP4 DUP2 MSTORE PUSH1 0x20 ADD SWAP1 DUP2 MSTORE PUSH1 0x20 ADD PUSH0 KECCAK256 PUSH0 SWAP1 SLOAD SWAP1 PUSH2 0x100 EXP SWAP1 DIV PUSH1 0xFF AND ISZERO PUSH2 0x4F6 JUMPI PUSH1 0x40 MLOAD PUSH32 0xCAD2AE0200000000000000000000000000000000000000000000000000000000 DUP2 MSTORE PUSH1 0x4 ADD PUSH1 0x40 MLOAD DUP1 SWAP2 SUB SWAP1 REVERT JUMPDEST PUSH1 0x2B PUSH0 DUP5 DUP2 MSTORE PUSH1 0x20 ADD SWAP1 DUP2 MSTORE PUSH1 0x20 ADD PUSH0 KECCAK256 PUSH0 SWAP1 SLOAD SWAP1 PUSH2 0x100 EXP SWAP1 DIV PUSH1 0xFF AND PUSH2 0x54A JUMPI PUSH1 0x40 MLOAD PUSH32 0x8C52011600000000000000000000000000000000000000000000000000000000 DUP2 MSTORE PUSH1 0x4 ADD PUSH1 0x40 MLOAD DUP1 SWAP2 SUB SWAP1 REVERT JUMPDEST PUSH0 PUSH1 0x2 PUSH8 0xFFFFFFFFFFFFFFFF DUP2 GT ISZERO PUSH2 0x566 JUMPI PUSH2 0x565 PUSH2 0xFC9 JUMP JUMPDEST JUMPDEST PUSH1 0x40 MLOAD SWAP1 DUP1 DUP3 MSTORE DUP1 PUSH1 0x20 MUL PUSH1 0x20 ADD DUP3 ADD PUSH1 0x40 MSTORE DUP1 ISZERO PUSH2 0x594 JUMPI DUP2 PUSH1 0x20 ADD PUSH1 0x20 DUP3 MUL DUP1 CALLDATASIZE DUP4 CALLDATACOPY DUP1 DUP3 ADD SWAP2 POP POP SWAP1 POP JUMPDEST POP SWAP1 POP DUP4 DUP2 PUSH0 DUP2 MLOAD DUP2 LT PUSH2 0x5AB JUMPI PUSH2 0x5AA PUSH2 0xFF6 JUMP JUMPDEST JUMPDEST PUSH1 0x20 MUL PUSH1 0x20 ADD ADD DUP2 DUP2 MSTORE POP POP DUP3 DUP2 PUSH1 0x1 DUP2 MLOAD DUP2 LT PUSH2 0x5CC JUMPI PUSH2 0x5CB PUSH2 0xFF6 JUMP JUMPDEST JUMPDEST PUSH1 0x20 MUL PUSH1 0x20 ADD ADD DUP2 DUP2 MSTORE POP POP PUSH0 PUSH32 0x0 PUSH20 0xFFFFFFFFFFFFFFFFFFFFFFFFFFFFFFFFFFFFFFFF AND PUSH4 0xEA50D0E4 DUP9 DUP9 DUP6 PUSH1 0x40 MLOAD DUP5 PUSH4 0xFFFFFFFF AND PUSH1 0xE0 SHL DUP2 MSTORE PUSH1 0x4 ADD PUSH2 0x636 SWAP4 SWAP3 SWAP2 SWAP1 PUSH2 0x1114 JUMP JUMPDEST PUSH1 0x20 PUSH1 0x40 MLOAD DUP1 DUP4 SUB DUP2 DUP7 GAS STATICCALL ISZERO DUP1 ISZERO PUSH2 0x651 JUMPI RETURNDATASIZE PUSH0 PUSH0 RETURNDATACOPY RETURNDATASIZE PUSH0 REVERT JUMPDEST POP POP POP POP PUSH1 0x40 MLOAD RETURNDATASIZE PUSH1 0x1F NOT PUSH1 0x1F DUP3 ADD AND DUP3 ADD DUP1 PUSH1 0x40 MSTORE POP DUP2 ADD SWAP1 PUSH2 0x675 SWAP2 SWAP1 PUSH2 0x1175 JUMP JUMPDEST SWAP1 POP DUP1 PUSH2 0x6AE JUMPI PUSH1 0x40 MLOAD PUSH32 0x9BDE33900000000000000000000000000000000000000000000000000000000 DUP2 MSTORE PUSH1 0x4 ADD PUSH1 0x40 MLOAD DUP1 SWAP2 SUB SWAP1 REVERT JUMPDEST PUSH1 0x1 PUSH1 0x2A PUSH0 DUP7 DUP2 MSTORE PUSH1 0x20 ADD SWAP1 DUP2 MSTORE PUSH1 0x20 ADD PUSH0 KECCAK256 PUSH0 PUSH2 0x100 EXP DUP2 SLOAD DUP2 PUSH1 0xFF MUL NOT AND SWAP1 DUP4 ISZERO ISZERO MUL OR SWAP1 SSTORE POP PUSH0 DUP4 PUSH20 0xFFFFFFFFFFFFFFFFFFFFFFFFFFFFFFFFFFFFFFFF AND PUSH8 0xDE0B6B3A7640000 PUSH1 0x40 MLOAD PUSH2 0x704 SWAP1 PUSH2 0x11CD JUMP JUMPDEST PUSH0 PUSH1 0x40 MLOAD DUP1 DUP4 SUB DUP2 DUP6 DUP8 GAS CALL SWAP3 POP POP POP RETURNDATASIZE DUP1 PUSH0 DUP2 EQ PUSH2 0x73E JUMPI PUSH1 0x40 MLOAD SWAP2 POP PUSH1 0x1F NOT PUSH1 0x3F RETURNDATASIZE ADD AND DUP3 ADD PUSH1 0x40 MSTORE RETURNDATASIZE DUP3 MSTORE RETURNDATASIZE PUSH0 PUSH1 0x20 DUP5 ADD RETURNDATACOPY PUSH2 0x743 JUMP JUMPDEST PUSH1 0x60 SWAP2 POP JUMPDEST POP POP SWAP1 POP DUP1 PUSH2 0x787 JUMPI PUSH1 0x40 MLOAD PUSH32 0x8C379A000000000000000000000000000000000000000000000000000000000 DUP2 MSTORE PUSH1 0x4 ADD PUSH2 0x77E SWAP1 PUSH2 0x123B JUMP JUMPDEST PUSH1 0x40 MLOAD DUP1 SWAP2 SUB SWAP1 REVERT JUMPDEST DUP4 PUSH20 0xFFFFFFFFFFFFFFFFFFFFFFFFFFFFFFFFFFFFFFFF AND PUSH32 0xCE490531F6C8AE2F1FF174643BC8B7ED5E52987AB50DC1E8F33655D2CD8C90B DUP7 PUSH1 0x40 MLOAD PUSH2 0x7CD SWAP2 SWAP1 PUSH2 0xF53 JUMP JUMPDEST PUSH1 0x40 MLOAD DUP1 SWAP2 SUB SWAP1 LOG2 POP POP POP POP POP POP POP POP JUMP JUMPDEST PUSH8 0xDE0B6B3A7640000 CALLVALUE EQ PUSH2 0x820 JUMPI PUSH1 0x40 MLOAD PUSH32 0xF067B3C600000000000000000000000000000000000000000000000000000000 DUP2 MSTORE PUSH1 0x4 ADD PUSH1 0x40 MLOAD DUP1 SWAP2 SUB SWAP1 REVERT JUMPDEST PUSH1 0x14 PUSH4 0xFFFFFFFF AND PUSH1 0x1 SWAP1 SHL PUSH4 0xFFFFFFFF AND PUSH1 0x29 PUSH0 SWAP1 SLOAD SWAP1 PUSH2 0x100 EXP SWAP1 DIV PUSH4 0xFFFFFFFF AND PUSH4 0xFFFFFFFF AND LT PUSH2 0x881 JUMPI PUSH1 0x40 MLOAD PUSH32 0xED732D0C00000000000000000000000000000000000000000000000000000000 DUP2 MSTORE PUSH1 0x4 ADD PUSH1 0x40 MLOAD DUP1 SWAP2 SUB SWAP1 REVERT JUMPDEST PUSH0 PUSH1 0x29 PUSH0 SWAP1 SLOAD SWAP1 PUSH2 0x100 EXP SWAP1 DIV PUSH4 0xFFFFFFFF AND SWAP1 POP PUSH1 0x1 PUSH1 0x29 PUSH0 DUP3 DUP3 DUP3 SWAP1 SLOAD SWAP1 PUSH2 0x100 EXP SWAP1 DIV PUSH4 0xFFFFFFFF AND PUSH2 0x8B7 SWAP2 SWAP1 PUSH2 0x1286 JUMP JUMPDEST SWAP3 POP PUSH2 0x100 EXP DUP2 SLOAD DUP2 PUSH4 0xFFFFFFFF MUL NOT AND SWAP1 DUP4 PUSH4 0xFFFFFFFF AND MUL OR SWAP1 SSTORE POP PUSH0 DUP5 SWAP1 POP PUSH0 PUSH0 SWAP1 POP JUMPDEST PUSH1 0x14 PUSH4 0xFFFFFFFF AND DUP2 PUSH4 0xFFFFFFFF AND LT ISZERO PUSH2 0x9CE JUMPI PUSH0 PUSH1 0x1 DUP5 AND PUSH4 0xFFFFFFFF AND SUB PUSH2 0x96D JUMPI DUP2 PUSH1 0x14 DUP3 PUSH4 0xFFFFFFFF AND PUSH1 0x14 DUP2 LT PUSH2 0x91E JUMPI PUSH2 0x91D PUSH2 0xFF6 JUMP JUMPDEST JUMPDEST ADD DUP2 SWAP1 SSTORE POP DUP2 PUSH0 DUP3 PUSH4 0xFFFFFFFF AND PUSH1 0x14 DUP2 LT PUSH2 0x93D JUMPI PUSH2 0x93C PUSH2 0xFF6 JUMP JUMPDEST JUMPDEST ADD SLOAD PUSH1 0x40 MLOAD PUSH1 0x20 ADD PUSH2 0x950 SWAP3 SWAP2 SWAP1 PUSH2 0x12BD JUMP JUMPDEST PUSH1 0x40 MLOAD PUSH1 0x20 DUP2 DUP4 SUB SUB DUP2 MSTORE SWAP1 PUSH1 0x40 MSTORE DUP1 MLOAD SWAP1 PUSH1 0x20 ADD KECCAK256 SWAP2 POP PUSH2 0x9B4 JUMP JUMPDEST PUSH1 0x14 DUP2 PUSH4 0xFFFFFFFF AND PUSH1 0x14 DUP2 LT PUSH2 0x987 JUMPI PUSH2 0x986 PUSH2 0xFF6 JUMP JUMPDEST JUMPDEST ADD SLOAD DUP3 PUSH1 0x40 MLOAD PUSH1 0x20 ADD PUSH2 0x99B SWAP3 SWAP2 SWAP1 PUSH2 0x12BD JUMP JUMPDEST PUSH1 0x40 MLOAD PUSH1 0x20 DUP2 DUP4 SUB SUB DUP2 MSTORE SWAP1 PUSH1 0x40 MSTORE DUP1 MLOAD SWAP1 PUSH1 0x20 ADD KECCAK256 SWAP2 POP JUMPDEST PUSH1 0x1 DUP4 PUSH4 0xFFFFFFFF AND SWAP1 SHR SWAP3 POP DUP1 DUP1 PUSH1 0x1 ADD SWAP2 POP POP PUSH2 0x8DE JUMP JUMPDEST POP DUP1 PUSH1 0x28 DUP2 SWAP1 SSTORE POP PUSH1 0x1 PUSH1 0x2B PUSH0 PUSH1 0x28 SLOAD DUP2 MSTORE PUSH1 0x20 ADD SWAP1 DUP2 MSTORE PUSH1 0x20 ADD PUSH0 KECCAK256 PUSH0 PUSH2 0x100 EXP DUP2 SLOAD DUP2 PUSH1 0xFF MUL NOT AND SWAP1 DUP4 ISZERO ISZERO MUL OR SWAP1 SSTORE POP PUSH1 0x40 MLOAD DUP1 PUSH1 0x20 ADD PUSH1 0x40 MSTORE DUP1 DUP6 DUP6 DUP1 DUP1 PUSH1 0x1F ADD PUSH1 0x20 DUP1 SWAP2 DIV MUL PUSH1 0x20 ADD PUSH1 0x40 MLOAD SWAP1 DUP2 ADD PUSH1 0x40 MSTORE DUP1 SWAP4 SWAP3 SWAP2 SWAP1 DUP2 DUP2 MSTORE PUSH1 0x20 ADD DUP4 DUP4 DUP1 DUP3 DUP5 CALLDATACOPY PUSH0 DUP2 DUP5 ADD MSTORE PUSH1 0x1F NOT PUSH1 0x1F DUP3 ADD AND SWAP1 POP DUP1 DUP4 ADD SWAP3 POP POP POP POP POP POP POP DUP2 MSTORE POP PUSH1 0x2C PUSH0 DUP8 DUP2 MSTORE PUSH1 0x20 ADD SWAP1 DUP2 MSTORE PUSH1 0x20 ADD PUSH0 KECCAK256 PUSH0 DUP3 ADD MLOAD DUP2 PUSH0 ADD SWAP1 DUP2 PUSH2 0xA77 SWAP2 SWAP1 PUSH2 0x147B JUMP JUMPDEST POP SWAP1 POP POP DUP5 PUSH32 0x84FC9EB8CD0A782A1D1734FBEED616BD0EF775F8B9BD437636B62D634FE4BAF3 PUSH1 0x1 PUSH1 0x29 PUSH0 SWAP1 SLOAD SWAP1 PUSH2 0x100 EXP SWAP1 DIV PUSH4 0xFFFFFFFF AND PUSH2 0xABB SWAP2 SWAP1 PUSH2 0x154A JUMP JUMPDEST PUSH1 0x40 MLOAD PUSH2 0xAC8 SWAP2 SWAP1 PUSH2 0xB6C JUMP JUMPDEST PUSH1 0x40 MLOAD DUP1 SWAP2 SUB SWAP1 LOG2 POP POP POP POP POP JUMP JUMPDEST PUSH0 PUSH1 0x2A PUSH0 DUP4 DUP2 MSTORE PUSH1 0x20 ADD SWAP1 DUP2 MSTORE PUSH1 0x20 ADD PUSH0 KECCAK256 PUSH0 SWAP1 SLOAD SWAP1 PUSH2 0x100 EXP SWAP1 DIV PUSH1 0xFF AND SWAP1 POP SWAP2 SWAP1 POP JUMP JUMPDEST PUSH0 DUP2 PUSH1 0x14 DUP2 LT PUSH2 0xB0B JUMPI PUSH0 DUP1 REVERT JUMPDEST ADD PUSH0 SWAP2 POP SWAP1 POP SLOAD DUP2 JUMP JUMPDEST PUSH1 0x14 DUP2 JUMP JUMPDEST PUSH1 0x14 DUP2 PUSH1 0x14 DUP2 LT PUSH2 0xB29 JUMPI PUSH0 DUP1 REVERT JUMPDEST ADD PUSH0 SWAP2 POP SWAP1 POP SLOAD DUP2 JUMP JUMPDEST PUSH1 0x29 PUSH0 SWAP1 SLOAD SWAP1 PUSH2 0x100 EXP SWAP1 DIV PUSH4 0xFFFFFFFF AND DUP2 JUMP JUMPDEST PUSH1 0x28 SLOAD DUP2 JUMP JUMPDEST PUSH0 PUSH4 0xFFFFFFFF DUP3 AND SWAP1 POP SWAP2 SWAP1 POP JUMP JUMPDEST PUSH2 0xB66 DUP2 PUSH2 0xB4E JUMP JUMPDEST DUP3 MSTORE POP POP JUMP JUMPDEST PUSH0 PUSH1 0x20 DUP3 ADD SWAP1 POP PUSH2 0xB7F PUSH0 DUP4 ADD DUP5 PUSH2 0xB5D JUMP JUMPDEST SWAP3 SWAP2 POP POP JUMP JUMPDEST PUSH0 PUSH0 REVERT JUMPDEST PUSH0 PUSH0 REVERT JUMPDEST PUSH0 DUP2 SWAP1 POP SWAP2 SWAP1 POP JUMP JUMPDEST PUSH2 0xB9F DUP2 PUSH2 0xB8D JUMP JUMPDEST DUP2 EQ PUSH2 0xBA9 JUMPI PUSH0 PUSH0 REVERT JUMPDEST POP JUMP JUMPDEST PUSH0 DUP2 CALLDATALOAD SWAP1 POP PUSH2 0xBBA DUP2 PUSH2 0xB96 JUMP JUMPDEST SWAP3 SWAP2 POP POP JUMP JUMPDEST PUSH0 PUSH1 0x20 DUP3 DUP5 SUB SLT ISZERO PUSH2 0xBD5 JUMPI PUSH2 0xBD4 PUSH2 0xB85 JUMP JUMPDEST JUMPDEST PUSH0 PUSH2 0xBE2 DUP5 DUP3 DUP6 ADD PUSH2 0xBAC JUMP JUMPDEST SWAP2 POP POP SWAP3 SWAP2 POP POP JUMP JUMPDEST PUSH0 DUP2 ISZERO ISZERO SWAP1 POP SWAP2 SWAP1 POP JUMP JUMPDEST PUSH2 0xBFF DUP2 PUSH2 0xBEB JUMP JUMPDEST DUP3 MSTORE POP POP JUMP JUMPDEST PUSH0 PUSH1 0x20 DUP3 ADD SWAP1 POP PUSH2 0xC18 PUSH0 DUP4 ADD DUP5 PUSH2 0xBF6 JUMP JUMPDEST SWAP3 SWAP2 POP POP JUMP JUMPDEST PUSH0 PUSH20 0xFFFFFFFFFFFFFFFFFFFFFFFFFFFFFFFFFFFFFFFF DUP3 AND SWAP1 POP SWAP2 SWAP1 POP JUMP JUMPDEST PUSH0 DUP2 SWAP1 POP SWAP2 SWAP1 POP JUMP JUMPDEST PUSH0 PUSH2 0xC60 PUSH2 0xC5B PUSH2 0xC56 DUP5 PUSH2 0xC1E JUMP JUMPDEST PUSH2 0xC3D JUMP JUMPDEST PUSH2 0xC1E JUMP JUMPDEST SWAP1 POP SWAP2 SWAP1 POP JUMP JUMPDEST PUSH0 PUSH2 0xC71 DUP3 PUSH2 0xC46 JUMP JUMPDEST SWAP1 POP SWAP2 SWAP1 POP JUMP JUMPDEST PUSH0 PUSH2 0xC82 DUP3 PUSH2 0xC67 JUMP JUMPDEST SWAP1 POP SWAP2 SWAP1 POP JUMP JUMPDEST PUSH2 0xC92 DUP2 PUSH2 0xC78 JUMP JUMPDEST DUP3 MSTORE POP POP JUMP JUMPDEST PUSH0 PUSH1 0x20 DUP3 ADD SWAP1 POP PUSH2 0xCAB PUSH0 DUP4 ADD DUP5 PUSH2 0xC89 JUMP JUMPDEST SWAP3 SWAP2 POP POP JUMP JUMPDEST PUSH0 DUP2 MLOAD SWAP1 POP SWAP2 SWAP1 POP JUMP JUMPDEST PUSH0 DUP3 DUP3 MSTORE PUSH1 0x20 DUP3 ADD SWAP1 POP SWAP3 SWAP2 POP POP JUMP JUMPDEST DUP3 DUP2 DUP4 MCOPY PUSH0 DUP4 DUP4 ADD MSTORE POP POP POP JUMP JUMPDEST PUSH0 PUSH1 0x1F NOT PUSH1 0x1F DUP4 ADD AND SWAP1 POP SWAP2 SWAP1 POP JUMP JUMPDEST PUSH0 PUSH2 0xCF3 DUP3 PUSH2 0xCB1 JUMP JUMPDEST PUSH2 0xCFD DUP2 DUP6 PUSH2 0xCBB JUMP JUMPDEST SWAP4 POP PUSH2 0xD0D DUP2 DUP6 PUSH1 0x20 DUP7 ADD PUSH2 0xCCB JUMP JUMPDEST PUSH2 0xD16 DUP2 PUSH2 0xCD9 JUMP JUMPDEST DUP5 ADD SWAP2 POP POP SWAP3 SWAP2 POP POP JUMP JUMPDEST PUSH0 PUSH1 0x20 DUP3 ADD SWAP1 POP DUP2 DUP2 SUB PUSH0 DUP4 ADD MSTORE PUSH2 0xD39 DUP2 DUP5 PUSH2 0xCE9 JUMP JUMPDEST SWAP1 POP SWAP3 SWAP2 POP POP JUMP JUMPDEST PUSH0 DUP2 SWAP1 POP SWAP2 SWAP1 POP JUMP JUMPDEST PUSH2 0xD53 DUP2 PUSH2 0xD41 JUMP JUMPDEST DUP3 MSTORE POP POP JUMP JUMPDEST PUSH0 PUSH1 0x20 DUP3 ADD SWAP1 POP PUSH2 0xD6C PUSH0 DUP4 ADD DUP5 PUSH2 0xD4A JUMP JUMPDEST SWAP3 SWAP2 POP POP JUMP JUMPDEST PUSH0 PUSH0 REVERT JUMPDEST PUSH0 PUSH0 REVERT JUMPDEST PUSH0 PUSH0 REVERT JUMPDEST PUSH0 PUSH0 DUP4 PUSH1 0x1F DUP5 ADD SLT PUSH2 0xD93 JUMPI PUSH2 0xD92 PUSH2 0xD72 JUMP JUMPDEST JUMPDEST DUP3 CALLDATALOAD SWAP1 POP PUSH8 0xFFFFFFFFFFFFFFFF DUP2 GT ISZERO PUSH2 0xDB0 JUMPI PUSH2 0xDAF PUSH2 0xD76 JUMP JUMPDEST JUMPDEST PUSH1 0x20 DUP4 ADD SWAP2 POP DUP4 PUSH1 0x1 DUP3 MUL DUP4 ADD GT ISZERO PUSH2 0xDCC JUMPI PUSH2 0xDCB PUSH2 0xD7A JUMP JUMPDEST JUMPDEST SWAP3 POP SWAP3 SWAP1 POP JUMP JUMPDEST PUSH0 PUSH2 0xDDD DUP3 PUSH2 0xC1E JUMP JUMPDEST SWAP1 POP SWAP2 SWAP1 POP JUMP JUMPDEST PUSH2 0xDED DUP2 PUSH2 0xDD3 JUMP JUMPDEST DUP2 EQ PUSH2 0xDF7 JUMPI PUSH0 PUSH0 REVERT JUMPDEST POP JUMP JUMPDEST PUSH0 DUP2 CALLDATALOAD SWAP1 POP PUSH2 0xE08 DUP2 PUSH2 0xDE4 JUMP JUMPDEST SWAP3 SWAP2 POP POP JUMP JUMPDEST PUSH0 PUSH0 PUSH0 PUSH0 PUSH0 PUSH1 0x80 DUP7 DUP9 SUB SLT ISZERO PUSH2 0xE27 JUMPI PUSH2 0xE26 PUSH2 0xB85 JUMP JUMPDEST JUMPDEST PUSH0 DUP7 ADD CALLDATALOAD PUSH8 0xFFFFFFFFFFFFFFFF DUP2 GT ISZERO PUSH2 0xE44 JUMPI PUSH2 0xE43 PUSH2 0xB89 JUMP JUMPDEST JUMPDEST PUSH2 0xE50 DUP9 DUP3 DUP10 ADD PUSH2 0xD7E JUMP JUMPDEST SWAP6 POP SWAP6 POP POP PUSH1 0x20 PUSH2 0xE63 DUP9 DUP3 DUP10 ADD PUSH2 0xBAC JUMP JUMPDEST SWAP4 POP POP PUSH1 0x40 PUSH2 0xE74 DUP9 DUP3 DUP10 ADD PUSH2 0xBAC JUMP JUMPDEST SWAP3 POP POP PUSH1 0x60 PUSH2 0xE85 DUP9 DUP3 DUP10 ADD PUSH2 0xDFA JUMP JUMPDEST SWAP2 POP POP SWAP3 SWAP6 POP SWAP3 SWAP6 SWAP1 SWAP4 POP JUMP JUMPDEST PUSH0 PUSH0 PUSH0 PUSH1 0x40 DUP5 DUP7 SUB SLT ISZERO PUSH2 0xEA9 JUMPI PUSH2 0xEA8 PUSH2 0xB85 JUMP JUMPDEST JUMPDEST PUSH0 PUSH2 0xEB6 DUP7 DUP3 DUP8 ADD PUSH2 0xBAC JUMP JUMPDEST SWAP4 POP POP PUSH1 0x20 DUP5 ADD CALLDATALOAD PUSH8 0xFFFFFFFFFFFFFFFF DUP2 GT ISZERO PUSH2 0xED7 JUMPI PUSH2 0xED6 PUSH2 0xB89 JUMP JUMPDEST JUMPDEST PUSH2 0xEE3 DUP7 DUP3 DUP8 ADD PUSH2 0xD7E JUMP JUMPDEST SWAP3 POP SWAP3 POP POP SWAP3 POP SWAP3 POP SWAP3 JUMP JUMPDEST PUSH2 0xEF8 DUP2 PUSH2 0xD41 JUMP JUMPDEST DUP2 EQ PUSH2 0xF02 JUMPI PUSH0 PUSH0 REVERT JUMPDEST POP JUMP JUMPDEST PUSH0 DUP2 CALLDATALOAD SWAP1 POP PUSH2 0xF13 DUP2 PUSH2 0xEEF JUMP JUMPDEST SWAP3 SWAP2 POP POP JUMP JUMPDEST PUSH0 PUSH1 0x20 DUP3 DUP5 SUB SLT ISZERO PUSH2 0xF2E JUMPI PUSH2 0xF2D PUSH2 0xB85 JUMP JUMPDEST JUMPDEST PUSH0 PUSH2 0xF3B DUP5 DUP3 DUP6 ADD PUSH2 0xF05 JUMP JUMPDEST SWAP2 POP POP SWAP3 SWAP2 POP POP JUMP JUMPDEST PUSH2 0xF4D DUP2 PUSH2 0xB8D JUMP JUMPDEST DUP3 MSTORE POP POP JUMP JUMPDEST PUSH0 PUSH1 0x20 DUP3 ADD SWAP1 POP PUSH2 0xF66 PUSH0 DUP4 ADD DUP5 PUSH2 0xF44 JUMP JUMPDEST SWAP3 SWAP2 POP POP JUMP JUMPDEST PUSH32 0x4E487B7100000000000000000000000000000000000000000000000000000000 PUSH0 MSTORE PUSH1 0x22 PUSH1 0x4 MSTORE PUSH1 0x24 PUSH0 REVERT JUMPDEST PUSH0 PUSH1 0x2 DUP3 DIV SWAP1 POP PUSH1 0x1 DUP3 AND DUP1 PUSH2 0xFB0 JUMPI PUSH1 0x7F DUP3 AND SWAP2 POP JUMPDEST PUSH1 0x20 DUP3 LT DUP2 SUB PUSH2 0xFC3 JUMPI PUSH2 0xFC2 PUSH2 0xF6C JUMP JUMPDEST JUMPDEST POP SWAP2 SWAP1 POP JUMP JUMPDEST PUSH32 0x4E487B7100000000000000000000000000000000000000000000000000000000 PUSH0 MSTORE PUSH1 0x41 PUSH1 0x4 MSTORE PUSH1 0x24 PUSH0 REVERT JUMPDEST PUSH32 0x4E487B7100000000000000000000000000000000000000000000000000000000 PUSH0 MSTORE PUSH1 0x32 PUSH1 0x4 MSTORE PUSH1 0x24 PUSH0 REVERT JUMPDEST DUP3 DUP2 DUP4 CALLDATACOPY PUSH0 DUP4 DUP4 ADD MSTORE POP POP POP JUMP JUMPDEST PUSH0 PUSH2 0x103C DUP4 DUP6 PUSH2 0xCBB JUMP JUMPDEST SWAP4 POP PUSH2 0x1049 DUP4 DUP6 DUP5 PUSH2 0x1023 JUMP JUMPDEST PUSH2 0x1052 DUP4 PUSH2 0xCD9 JUMP JUMPDEST DUP5 ADD SWAP1 POP SWAP4 SWAP3 POP POP POP JUMP JUMPDEST PUSH0 DUP2 MLOAD SWAP1 POP SWAP2 SWAP1 POP JUMP JUMPDEST PUSH0 DUP3 DUP3 MSTORE PUSH1 0x20 DUP3 ADD SWAP1 POP SWAP3 SWAP2 POP POP JUMP JUMPDEST PUSH0 DUP2 SWAP1 POP PUSH1 0x20 DUP3 ADD SWAP1 POP SWAP2 SWAP1 POP JUMP JUMPDEST PUSH2 0x108F DUP2 PUSH2 0xB8D JUMP JUMPDEST DUP3 MSTORE POP POP JUMP JUMPDEST PUSH0 PUSH2 0x10A0 DUP4 DUP4 PUSH2 0x1086 JUMP JUMPDEST PUSH1 0x20 DUP4 ADD SWAP1 POP SWAP3 SWAP2 POP POP JUMP JUMPDEST PUSH0 PUSH1 0x20 DUP3 ADD SWAP1 POP SWAP2 SWAP1 POP JUMP JUMPDEST PUSH0 PUSH2 0x10C2 DUP3 PUSH2 0x105D JUMP JUMPDEST PUSH2 0x10CC DUP2 DUP6 PUSH2 0x1067 JUMP JUMPDEST SWAP4 POP PUSH2 0x10D7 DUP4 PUSH2 0x1077 JUMP JUMPDEST DUP1 PUSH0 JUMPDEST DUP4 DUP2 LT ISZERO PUSH2 0x1107 JUMPI DUP2 MLOAD PUSH2 0x10EE DUP9 DUP3 PUSH2 0x1095 JUMP JUMPDEST SWAP8 POP PUSH2 0x10F9 DUP4 PUSH2 0x10AC JUMP JUMPDEST SWAP3 POP POP PUSH1 0x1 DUP2 ADD SWAP1 POP PUSH2 0x10DA JUMP JUMPDEST POP DUP6 SWAP4 POP POP POP POP SWAP3 SWAP2 POP POP JUMP JUMPDEST PUSH0 PUSH1 0x40 DUP3 ADD SWAP1 POP DUP2 DUP2 SUB PUSH0 DUP4 ADD MSTORE PUSH2 0x112D DUP2 DUP6 DUP8 PUSH2 0x1031 JUMP JUMPDEST SWAP1 POP DUP2 DUP2 SUB PUSH1 0x20 DUP4 ADD MSTORE PUSH2 0x1141 DUP2 DUP5 PUSH2 0x10B8 JUMP JUMPDEST SWAP1 POP SWAP5 SWAP4 POP POP POP POP JUMP JUMPDEST PUSH2 0x1154 DUP2 PUSH2 0xBEB JUMP JUMPDEST DUP2 EQ PUSH2 0x115E JUMPI PUSH0 PUSH0 REVERT JUMPDEST POP JUMP JUMPDEST PUSH0 DUP2 MLOAD SWAP1 POP PUSH2 0x116F DUP2 PUSH2 0x114B JUMP JUMPDEST SWAP3 SWAP2 POP POP JUMP JUMPDEST PUSH0 PUSH1 0x20 DUP3 DUP5 SUB SLT ISZERO PUSH2 0x118A JUMPI PUSH2 0x1189 PUSH2 0xB85 JUMP JUMPDEST JUMPDEST PUSH0 PUSH2 0x1197 DUP5 DUP3 DUP6 ADD PUSH2 0x1161 JUMP JUMPDEST SWAP2 POP POP SWAP3 SWAP2 POP POP JUMP JUMPDEST PUSH0 DUP2 SWAP1 POP SWAP3 SWAP2 POP POP JUMP JUMPDEST POP JUMP JUMPDEST PUSH0 PUSH2 0x11B8 PUSH0 DUP4 PUSH2 0x11A0 JUMP JUMPDEST SWAP2 POP PUSH2 0x11C3 DUP3 PUSH2 0x11AA JUMP JUMPDEST PUSH0 DUP3 ADD SWAP1 POP SWAP2 SWAP1 POP JUMP JUMPDEST PUSH0 PUSH2 0x11D7 DUP3 PUSH2 0x11AD JUMP JUMPDEST SWAP2 POP DUP2 SWAP1 POP SWAP2 SWAP1 POP JUMP JUMPDEST PUSH0 DUP3 DUP3 MSTORE PUSH1 0x20 DUP3 ADD SWAP1 POP SWAP3 SWAP2 POP POP JUMP JUMPDEST PUSH32 0x4D4E54207472616E73666572206661696C656400000000000000000000000000 PUSH0 DUP3 ADD MSTORE POP JUMP JUMPDEST PUSH0 PUSH2 0x1225 PUSH1 0x13 DUP4 PUSH2 0x11E1 JUMP JUMPDEST SWAP2 POP PUSH2 0x1230 DUP3 PUSH2 0x11F1 JUMP JUMPDEST PUSH1 0x20 DUP3 ADD SWAP1 POP SWAP2 SWAP1 POP JUMP JUMPDEST PUSH0 PUSH1 0x20 DUP3 ADD SWAP1 POP DUP2 DUP2 SUB PUSH0 DUP4 ADD MSTORE PUSH2 0x1252 DUP2 PUSH2 0x1219 JUMP JUMPDEST SWAP1 POP SWAP2 SWAP1 POP JUMP JUMPDEST PUSH32 0x4E487B7100000000000000000000000000000000000000000000000000000000 PUSH0 MSTORE PUSH1 0x11 PUSH1 0x4 MSTORE PUSH1 0x24 PUSH0 REVERT JUMPDEST PUSH0 PUSH2 0x1290 DUP3 PUSH2 0xB4E JUMP JUMPDEST SWAP2 POP PUSH2 0x129B DUP4 PUSH2 0xB4E JUMP JUMPDEST SWAP3 POP DUP3 DUP3 ADD SWAP1 POP PUSH4 0xFFFFFFFF DUP2 GT ISZERO PUSH2 0x12B7 JUMPI PUSH2 0x12B6 PUSH2 0x1259 JUMP JUMPDEST JUMPDEST SWAP3 SWAP2 POP POP JUMP JUMPDEST PUSH0 PUSH1 0x40 DUP3 ADD SWAP1 POP PUSH2 0x12D0 PUSH0 DUP4 ADD DUP6 PUSH2 0xF44 JUMP JUMPDEST PUSH2 0x12DD PUSH1 0x20 DUP4 ADD DUP5 PUSH2 0xF44 JUMP JUMPDEST SWAP4 SWAP3 POP POP POP JUMP JUMPDEST PUSH0 DUP2 SWAP1 POP DUP2 PUSH0 MSTORE PUSH1 0x20 PUSH0 KECCAK256 SWAP1 POP SWAP2 SWAP1 POP JUMP JUMPDEST PUSH0 PUSH1 0x20 PUSH1 0x1F DUP4 ADD DIV SWAP1 POP SWAP2 SWAP1 POP JUMP JUMPDEST PUSH0 DUP3 DUP3 SHL SWAP1 POP SWAP3 SWAP2 POP POP JUMP JUMPDEST PUSH0 PUSH1 0x8 DUP4 MUL PUSH2 0x1340 PUSH32 0xFFFFFFFFFFFFFFFFFFFFFFFFFFFFFFFFFFFFFFFFFFFFFFFFFFFFFFFFFFFFFFFF DUP3 PUSH2 0x1305 JUMP JUMPDEST PUSH2 0x134A DUP7 DUP4 PUSH2 0x1305 JUMP JUMPDEST SWAP6 POP DUP1 NOT DUP5 AND SWAP4 POP DUP1 DUP7 AND DUP5 OR SWAP3 POP POP POP SWAP4 SWAP3 POP POP POP JUMP JUMPDEST PUSH0 PUSH2 0x137C PUSH2 0x1377 PUSH2 0x1372 DUP5 PUSH2 0xD41 JUMP JUMPDEST PUSH2 0xC3D JUMP JUMPDEST PUSH2 0xD41 JUMP JUMPDEST SWAP1 POP SWAP2 SWAP1 POP JUMP JUMPDEST PUSH0 DUP2 SWAP1 POP SWAP2 SWAP1 POP JUMP JUMPDEST PUSH2 0x1395 DUP4 PUSH2 0x1362 JUMP JUMPDEST PUSH2 0x13A9 PUSH2 0x13A1 DUP3 PUSH2 0x1383 JUMP JUMPDEST DUP5 DUP5 SLOAD PUSH2 0x1311 JUMP JUMPDEST DUP3 SSTORE POP POP POP POP JUMP JUMPDEST PUSH0 PUSH0 SWAP1 POP SWAP1 JUMP JUMPDEST PUSH2 0x13C0 PUSH2 0x13B1 JUMP JUMPDEST PUSH2 0x13CB DUP2 DUP5 DUP5 PUSH2 0x138C JUMP JUMPDEST POP POP POP JUMP JUMPDEST JUMPDEST DUP2 DUP2 LT ISZERO PUSH2 0x13EE JUMPI PUSH2 0x13E3 PUSH0 DUP3 PUSH2 0x13B8 JUMP JUMPDEST PUSH1 0x1 DUP2 ADD SWAP1 POP PUSH2 0x13D1 JUMP JUMPDEST POP POP JUMP JUMPDEST PUSH1 0x1F DUP3 GT ISZERO PUSH2 0x1433 JUMPI PUSH2 0x1404 DUP2 PUSH2 0x12E4 JUMP JUMPDEST PUSH2 0x140D DUP5 PUSH2 0x12F6 JUMP JUMPDEST DUP2 ADD PUSH1 0x20 DUP6 LT ISZERO PUSH2 0x141C JUMPI DUP2 SWAP1 POP JUMPDEST PUSH2 0x1430 PUSH2 0x1428 DUP6 PUSH2 0x12F6 JUMP JUMPDEST DUP4 ADD DUP3 PUSH2 0x13D0 JUMP JUMPDEST POP POP JUMPDEST POP POP POP JUMP JUMPDEST PUSH0 DUP3 DUP3 SHR SWAP1 POP SWAP3 SWAP2 POP POP JUMP JUMPDEST PUSH0 PUSH2 0x1453 PUSH0 NOT DUP5 PUSH1 0x8 MUL PUSH2 0x1438 JUMP JUMPDEST NOT DUP1 DUP4 AND SWAP2 POP POP SWAP3 SWAP2 POP POP JUMP JUMPDEST PUSH0 PUSH2 0x146B DUP4 DUP4 PUSH2 0x1444 JUMP JUMPDEST SWAP2 POP DUP3 PUSH1 0x2 MUL DUP3 OR SWAP1 POP SWAP3 SWAP2 POP POP JUMP JUMPDEST PUSH2 0x1484 DUP3 PUSH2 0xCB1 JUMP JUMPDEST PUSH8 0xFFFFFFFFFFFFFFFF DUP2 GT ISZERO PUSH2 0x149D JUMPI PUSH2 0x149C PUSH2 0xFC9 JUMP JUMPDEST JUMPDEST PUSH2 0x14A7 DUP3 SLOAD PUSH2 0xF99 JUMP JUMPDEST PUSH2 0x14B2 DUP3 DUP3 DUP6 PUSH2 0x13F2 JUMP JUMPDEST PUSH0 PUSH1 0x20 SWAP1 POP PUSH1 0x1F DUP4 GT PUSH1 0x1 DUP2 EQ PUSH2 0x14E3 JUMPI PUSH0 DUP5 ISZERO PUSH2 0x14D1 JUMPI DUP3 DUP8 ADD MLOAD SWAP1 POP JUMPDEST PUSH2 0x14DB DUP6 DUP3 PUSH2 0x1460 JUMP JUMPDEST DUP7 SSTORE POP PUSH2 0x1542 JUMP JUMPDEST PUSH1 0x1F NOT DUP5 AND PUSH2 0x14F1 DUP7 PUSH2 0x12E4 JUMP JUMPDEST PUSH0 JUMPDEST DUP3 DUP2 LT ISZERO PUSH2 0x1518 JUMPI DUP5 DUP10 ADD MLOAD DUP3 SSTORE PUSH1 0x1 DUP3 ADD SWAP2 POP PUSH1 0x20 DUP6 ADD SWAP5 POP PUSH1 0x20 DUP2 ADD SWAP1 POP PUSH2 0x14F3 JUMP JUMPDEST DUP7 DUP4 LT ISZERO PUSH2 0x1535 JUMPI DUP5 DUP10 ADD MLOAD PUSH2 0x1531 PUSH1 0x1F DUP10 AND DUP3 PUSH2 0x1444 JUMP JUMPDEST DUP4 SSTORE POP JUMPDEST PUSH1 0x1 PUSH1 0x2 DUP9 MUL ADD DUP9 SSTORE POP POP POP JUMPDEST POP POP POP POP POP POP JUMP JUMPDEST PUSH0 PUSH2 0x1554 DUP3 PUSH2 0xB4E JUMP JUMPDEST SWAP2 POP PUSH2 0x155F DUP4 PUSH2 0xB4E JUMP JUMPDEST SWAP3 POP DUP3 DUP3 SUB SWAP1 POP PUSH4 0xFFFFFFFF DUP2 GT ISZERO PUSH2 0x157B JUMPI PUSH2 0x157A PUSH2 0x1259 JUMP JUMPDEST JUMPDEST SWAP3 SWAP2 POP POP JUMP INVALID LOG2 PUSH5 0x6970667358 0x22 SLT KECCAK256 SWAP15 0xC EXTCODESIZE JUMP POP DUP11 DUP12 0xB8 ISZERO 0x28 0xA6 COINBASE 0xA9 SWAP15 PUSH7 0x8593E80F138324 0xE9 0xA5 DUPN 0x8E 0xD5 MUL RJUMP 0xC4BF 0xC5 PUSH5 0x736F6C6343 STOP ADDMOD 0x1F STOP CALLER "
				},
				"gasEstimates": {
					"creation": {
						"codeDepositCost": "1111800",
						"executionCost": "infinite",
						"totalCost": "infinite"
					},
					"external": {
						"DENOMINATION()": "392",
						"MAX_LEAVES()": "370",
						"TREE_DEPTH()": "353",
						"currentRoot()": "2513",
						"deposit(bytes32,bytes)": "infinite",
						"filledSubtrees(uint256)": "2766",
						"isSpent(bytes32)": "2855",
						"knownRoots(bytes32)": "2808",
						"nextIndex()": "2532",
						"notes(bytes32)": "infinite",
						"nullifierHashes(bytes32)": "2831",
						"verifier()": "infinite",
						"withdraw(bytes,bytes32,bytes32,address)": "infinite",
						"zeros(uint256)": "2788"
					}
				},
				"methodIdentifiers": {
					"DENOMINATION()": "8b01429d",
					"MAX_LEAVES()": "082febf0",
					"TREE_DEPTH()": "f1650536",
					"currentRoot()": "fdab463d",
					"deposit(bytes32,bytes)": "e29973fc",
					"filledSubtrees(uint256)": "f178e47c",
					"isSpent(bytes32)": "e5285dcc",
					"knownRoots(bytes32)": "4e73da7d",
					"nextIndex()": "fc7e9c6f",
					"notes(bytes32)": "85de26b7",
					"nullifierHashes(bytes32)": "17cc915c",
					"verifier()": "2b7ac3f3",
					"withdraw(bytes,bytes32,bytes32,address)": "b130eaa6",
					"zeros(uint256)": "e8295588"
				}
			},
			"storageLayout": {
				"storage": [
					{
						"astId": 56,
						"contract": "contracts/zkleanpool.sol:zkleanPrivateMNTPool",
						"label": "zeros",
						"offset": 0,
						"slot": "0",
						"type": "t_array(t_bytes32)20_storage"
					},
					{
						"astId": 60,
						"contract": "contracts/zkleanpool.sol:zkleanPrivateMNTPool",
						"label": "filledSubtrees",
						"offset": 0,
						"slot": "20",
						"type": "t_array(t_bytes32)20_storage"
					},
					{
						"astId": 62,
						"contract": "contracts/zkleanpool.sol:zkleanPrivateMNTPool",
						"label": "currentRoot",
						"offset": 0,
						"slot": "40",
						"type": "t_bytes32"
					},
					{
						"astId": 64,
						"contract": "contracts/zkleanpool.sol:zkleanPrivateMNTPool",
						"label": "nextIndex",
						"offset": 0,
						"slot": "41",
						"type": "t_uint32"
					},
					{
						"astId": 68,
						"contract": "contracts/zkleanpool.sol:zkleanPrivateMNTPool",
						"label": "nullifierHashes",
						"offset": 0,
						"slot": "42",
						"type": "t_mapping(t_bytes32,t_bool)"
					},
					{
						"astId": 72,
						"contract": "contracts/zkleanpool.sol:zkleanPrivateMNTPool",
						"label": "knownRoots",
						"offset": 0,
						"slot": "43",
						"type": "t_mapping(t_bytes32,t_bool)"
					},
					{
						"astId": 80,
						"contract": "contracts/zkleanpool.sol:zkleanPrivateMNTPool",
						"label": "notes",
						"offset": 0,
						"slot": "44",
						"type": "t_mapping(t_bytes32,t_struct(EncryptedNote)75_storage)"
					}
				],
				"types": {
					"t_array(t_bytes32)20_storage": {
						"base": "t_bytes32",
						"encoding": "inplace",
						"label": "bytes32[20]",
						"numberOfBytes": "640"
					},
					"t_bool": {
						"encoding": "inplace",
						"label": "bool",
						"numberOfBytes": "1"
					},
					"t_bytes32": {
						"encoding": "inplace",
						"label": "bytes32",
						"numberOfBytes": "32"
					},
					"t_bytes_storage": {
						"encoding": "bytes",
						"label": "bytes",
						"numberOfBytes": "32"
					},
					"t_mapping(t_bytes32,t_bool)": {
						"encoding": "mapping",
						"key": "t_bytes32",
						"label": "mapping(bytes32 => bool)",
						"numberOfBytes": "32",
						"value": "t_bool"
					},
					"t_mapping(t_bytes32,t_struct(EncryptedNote)75_storage)": {
						"encoding": "mapping",
						"key": "t_bytes32",
						"label": "mapping(bytes32 => struct zkleanPrivateMNTPool.EncryptedNote)",
						"numberOfBytes": "32",
						"value": "t_struct(EncryptedNote)75_storage"
					},
					"t_struct(EncryptedNote)75_storage": {
						"encoding": "inplace",
						"label": "struct zkleanPrivateMNTPool.EncryptedNote",
						"members": [
							{
								"astId": 74,
								"contract": "contracts/zkleanpool.sol:zkleanPrivateMNTPool",
								"label": "ciphertext",
								"offset": 0,
								"slot": "0",
								"type": "t_bytes_storage"
							}
						],
						"numberOfBytes": "32"
					},
					"t_uint32": {
						"encoding": "inplace",
						"label": "uint32",
						"numberOfBytes": "4"
					}
				}
			},
			"userdoc": {
				"kind": "user",
				"methods": {},
				"version": 1
			}
		}
	}
}