{
	"contracts/SwirlPrivatePool_placeholder.sol": {
		"SwirlPrivatePool": {
			"abi": [
				{
					"inputs": [
						{
							"internalType": "address",
							"name": "_verifier",
							"type": "address"
						},
						{
							"internalType": "address",
							"name": "_poseidon",
							"type": "address"
						}
					],
					"stateMutability": "nonpayable",
					"type": "constructor"
				},
				{
					"inputs": [],
					"name": "InvalidDenomination",
					"type": "error"
				},
				{
					"inputs": [],
					"name": "InvalidProof",
					"type": "error"
				},
				{
					"inputs": [],
					"name": "NullifierAlreadyUsed",
					"type": "error"
				},
				{
					"inputs": [],
					"name": "TreeIsFull",
					"type": "error"
				},
				{
					"inputs": [],
					"name": "UnknownRoot",
					"type": "error"
				},
				{
					"anonymous": false,
					"inputs": [
						{
							"indexed": true,
							"internalType": "bytes32",
							"name": "commitment",
							"type": "bytes32"
						},
						{
							"indexed": false,
							"internalType": "uint32",
							"name": "leafIndex",
							"type": "uint32"
						}
					],
					"name": "Deposit",
					"type": "event"
				},
				{
					"anonymous": false,
					"inputs": [
						{
							"indexed": true,
							"internalType": "address",
							"name": "recipient",
							"type": "address"
						},
						{
							"indexed": false,
							"internalType": "bytes32",
							"name": "nullifierHash",
							"type": "bytes32"
						}
					],
					"name": "Withdrawal",
					"type": "event"
				},
				{
					"inputs": [],
					"name": "DENOMINATION",
					"outputs": [
						{
							"internalType": "uint256",
							"name": "",
							"type": "uint256"
						}
					],
					"stateMutability": "view",
					"type": "function"
				},
				{
					"inputs": [],
					"name": "FIELD_MODULUS",
					"outputs": [
						{
							"internalType": "uint256",
							"name": "",
							"type": "uint256"
						}
					],
					"stateMutability": "view",
					"type": "function"
				},
				{
					"inputs": [],
					"name": "MAX_LEAVES",
					"outputs": [
						{
							"internalType": "uint32",
							"name": "",
							"type": "uint32"
						}
					],
					"stateMutability": "view",
					"type": "function"
				},
				{
					"inputs": [],
					"name": "TREE_DEPTH",
					"outputs": [
						{
							"internalType": "uint32",
							"name": "",
							"type": "uint32"
						}
					],
					"stateMutability": "view",
					"type": "function"
				},
				{
					"inputs": [],
					"name": "currentRoot",
					"outputs": [
						{
							"internalType": "bytes32",
							"name": "",
							"type": "bytes32"
						}
					],
					"stateMutability": "view",
					"type": "function"
				},
				{
					"inputs": [
						{
							"internalType": "bytes32",
							"name": "commitment",
							"type": "bytes32"
						},
						{
							"internalType": "bytes",
							"name": "encryptedNote",
							"type": "bytes"
						}
					],
					"name": "deposit",
					"outputs": [],
					"stateMutability": "payable",
					"type": "function"
				},
				{
					"inputs": [
						{
							"internalType": "uint256",
							"name": "",
							"type": "uint256"
						}
					],
					"name": "filledSubtrees",
					"outputs": [
						{
							"internalType": "bytes32",
							"name": "",
							"type": "bytes32"
						}
					],
					"stateMutability": "view",
					"type": "function"
				},
				{
					"inputs": [
						{
							"internalType": "bytes32",
							"name": "nullifierHash",
							"type": "bytes32"
						}
					],
					"name": "isSpent",
					"outputs": [
						{
							"internalType": "bool",
							"name": "",
							"type": "bool"
						}
					],
					"stateMutability": "view",
					"type": "function"
				},
				{
					"inputs": [
						{
							"internalType": "bytes32",
							"name": "",
							"type": "bytes32"
						}
					],
					"name": "knownRoots",
					"outputs": [
						{
							"internalType": "bool",
							"name": "",
							"type": "bool"
						}
					],
					"stateMutability": "view",
					"type": "function"
				},
				{
					"inputs": [],
					"name": "nextIndex",
					"outputs": [
						{
							"internalType": "uint32",
							"name": "",
							"type": "uint32"
						}
					],
					"stateMutability": "view",
					"type": "function"
				},
				{
					"inputs": [
						{
							"internalType": "bytes32",
							"name": "",
							"type": "bytes32"
						}
					],
					"name": "notes",
					"outputs": [
						{
							"internalType": "bytes",
							"name": "ciphertext",
							"type": "bytes"
						}
					],
					"stateMutability": "view",
					"type": "function"
				},
				{
					"inputs": [
						{
							"internalType": "bytes32",
							"name": "",
							"type": "bytes32"
						}
					],
					"name": "nullifierHashes",
					"outputs": [
						{
							"internalType": "bool",
							"name": "",
							"type": "bool"
						}
					],
					"stateMutability": "view",
					"type": "function"
				},
				{
					"inputs": [],
					"name": "poseidon",
					"outputs": [
						{
							"internalType": "contract IPoseidonT2",
							"name": "",
							"type": "address"
						}
					],
					"stateMutability": "view",
					"type": "function"
				},
				{
					"inputs": [],
					"name": "verifier",
					"outputs": [
						{
							"internalType": "contract IVerifier",
							"name": "",
							"type": "address"
						}
					],
					"stateMutability": "view",
					"type": "function"
				},
				{
					"inputs": [
						{
							"internalType": "bytes",
							"name": "proof",
							"type": "bytes"
						},
						{
							"internalType": "bytes32",
							"name": "root",
							"type": "bytes32"
						},
						{
							"internalType": "bytes32",
							"name": "nullifierHash",
							"type": "bytes32"
						},
						{
							"internalType": "address payable",
							"name": "recipient",
							"type": "address"
						}
					],
					"name": "withdraw",
					"outputs": [],
					"stateMutability": "nonpayable",
					"type": "function"
				},
				{
					"inputs": [
						{
							"internalType": "uint256",
							"name": "",
							"type": "uint256"
						}
					],
					"name": "zeros",
					"outputs": [
						{
							"internalType": "bytes32",
							"name": "",
							"type": "bytes32"
						}
					],
					"stateMutability": "view",
					"type": "function"
				}
			],
			"devdoc": {
				"kind": "dev",
				"methods": {
					"deposit(bytes32,bytes)": {
						"params": {
							"commitment": "Poseidon(secret, nullifier)",
							"encryptedNote": "Encrypted metadata (view-key)"
						}
					},
					"withdraw(bytes,bytes32,bytes32,address)": {
						"params": {
							"nullifierHash": "Poseidon(nullifier)",
							"proof": "Noir proof bytes",
							"recipient": "MNT receiver",
							"root": "Merkle root"
						}
					}
				},
				"version": 1
			},
			"evm": {
				"assembly": "    /* \"contracts/SwirlPrivatePool_placeholder.sol\":654:6415  contract SwirlPrivatePool {... */\n  mstore(0x40, 0xc0)\n    /* \"contracts/SwirlPrivatePool_placeholder.sol\":2847:3511  constructor(address _verifier, address _poseidon) {... */\n  callvalue\n  dup1\n  iszero\n  tag_1\n  jumpi\n  revert(0x00, 0x00)\ntag_1:\n  pop\n  mload(0x40)\n  sub(codesize, bytecodeSize)\n  dup1\n  bytecodeSize\n  dup4\n  codecopy\n  dup2\n  dup2\n  add\n  0x40\n  mstore\n  dup2\n  add\n  swap1\n  tag_2\n  swap2\n  swap1\n  tag_3\n  jump\t// in\ntag_2:\n    /* \"contracts/SwirlPrivatePool_placeholder.sol\":2929:2938  _verifier */\n  dup2\n    /* \"contracts/SwirlPrivatePool_placeholder.sol\":2908:2939  verifier = IVerifier(_verifier) */\n  0xffffffffffffffffffffffffffffffffffffffff\n  and\n  0x80\n  dup2\n  0xffffffffffffffffffffffffffffffffffffffff\n  and\n  dup2\n  mstore\n  pop\n  pop\n    /* \"contracts/SwirlPrivatePool_placeholder.sol\":2973:2982  _poseidon */\n  dup1\n    /* \"contracts/SwirlPrivatePool_placeholder.sol\":2950:2983  poseidon = IPoseidonT2(_poseidon) */\n  0xffffffffffffffffffffffffffffffffffffffff\n  and\n  0xa0\n  dup2\n  0xffffffffffffffffffffffffffffffffffffffff\n  and\n  dup2\n  mstore\n  pop\n  pop\n    /* \"contracts/SwirlPrivatePool_placeholder.sol\":3030:3042  uint256 zero */\n  0x00\n    /* \"contracts/SwirlPrivatePool_placeholder.sol\":3045:3053  poseidon */\n  mload(0xa0)\n    /* \"contracts/SwirlPrivatePool_placeholder.sol\":3045:3062  poseidon.poseidon */\n  0xffffffffffffffffffffffffffffffffffffffff\n  and\n  0x29a5f2f6\n    /* \"contracts/SwirlPrivatePool_placeholder.sol\":3045:3088  poseidon.poseidon([uint256(0), uint256(0)]) */\n  mload(0x40)\n  dup1\n  0x40\n  add\n  0x40\n  mstore\n  dup1\n    /* \"contracts/SwirlPrivatePool_placeholder.sol\":3072:3073  0 */\n  0x00\n    /* \"contracts/SwirlPrivatePool_placeholder.sol\":3045:3088  poseidon.poseidon([uint256(0), uint256(0)]) */\n  dup2\n  mstore\n  0x20\n  add\n    /* \"contracts/SwirlPrivatePool_placeholder.sol\":3084:3085  0 */\n  0x00\n    /* \"contracts/SwirlPrivatePool_placeholder.sol\":3045:3088  poseidon.poseidon([uint256(0), uint256(0)]) */\n  dup2\n  mstore\n  pop\n  mload(0x40)\n  dup3\n  0xffffffff\n  and\n  0xe0\n  shl\n  dup2\n  mstore\n  0x04\n  add\n  tag_6\n  swap2\n  swap1\n  tag_7\n  jump\t// in\ntag_6:\n  0x20\n  mload(0x40)\n  dup1\n  dup4\n  sub\n  dup2\n  dup7\n  gas\n  staticcall\n  iszero\n  dup1\n  iszero\n  tag_9\n  jumpi\n  returndatacopy(0x00, 0x00, returndatasize)\n  revert(0x00, returndatasize)\ntag_9:\n  pop\n  pop\n  pop\n  pop\n  mload(0x40)\n  returndatasize\n  not(0x1f)\n  0x1f\n  dup3\n  add\n  and\n  dup3\n  add\n  dup1\n  0x40\n  mstore\n  pop\n  dup2\n  add\n  swap1\n  tag_10\n  swap2\n  swap1\n  tag_11\n  jump\t// in\ntag_10:\n    /* \"contracts/SwirlPrivatePool_placeholder.sol\":3030:3088  uint256 zero = poseidon.poseidon([uint256(0), uint256(0)]) */\n  swap1\n  pop\n    /* \"contracts/SwirlPrivatePool_placeholder.sol\":3118:3122  zero */\n  dup1\n    /* \"contracts/SwirlPrivatePool_placeholder.sol\":3110:3123  bytes32(zero) */\n  0x00\n  shl\n    /* \"contracts/SwirlPrivatePool_placeholder.sol\":3099:3104  zeros */\n  0x00\n    /* \"contracts/SwirlPrivatePool_placeholder.sol\":3105:3106  0 */\n  0x00\n    /* \"contracts/SwirlPrivatePool_placeholder.sol\":3099:3107  zeros[0] */\n  0x14\n  dup2\n  lt\n  tag_12\n  jumpi\n  tag_13\n  tag_14\n  jump\t// in\ntag_13:\ntag_12:\n  add\n    /* \"contracts/SwirlPrivatePool_placeholder.sol\":3099:3123  zeros[0] = bytes32(zero) */\n  dup2\n  swap1\n  sstore\n  pop\n    /* \"contracts/SwirlPrivatePool_placeholder.sol\":3169:3177  uint32 i */\n  0x00\n    /* \"contracts/SwirlPrivatePool_placeholder.sol\":3180:3181  1 */\n  0x01\n    /* \"contracts/SwirlPrivatePool_placeholder.sol\":3169:3181  uint32 i = 1 */\n  swap1\n  pop\n    /* \"contracts/SwirlPrivatePool_placeholder.sol\":3164:3308  for (uint32 i = 1; i < TREE_DEPTH; i++) {... */\ntag_16:\n    /* \"contracts/SwirlPrivatePool_placeholder.sol\":1741:1743  20 */\n  0x14\n    /* \"contracts/SwirlPrivatePool_placeholder.sol\":3183:3197  i < TREE_DEPTH */\n  0xffffffff\n  and\n    /* \"contracts/SwirlPrivatePool_placeholder.sol\":3183:3184  i */\n  dup2\n    /* \"contracts/SwirlPrivatePool_placeholder.sol\":3183:3197  i < TREE_DEPTH */\n  0xffffffff\n  and\n  lt\n    /* \"contracts/SwirlPrivatePool_placeholder.sol\":3164:3308  for (uint32 i = 1; i < TREE_DEPTH; i++) {... */\n  iszero\n  tag_17\n  jumpi\n    /* \"contracts/SwirlPrivatePool_placeholder.sol\":3226:3234  poseidon */\n  mload(0xa0)\n    /* \"contracts/SwirlPrivatePool_placeholder.sol\":3226:3243  poseidon.poseidon */\n  0xffffffffffffffffffffffffffffffffffffffff\n  and\n  0x29a5f2f6\n    /* \"contracts/SwirlPrivatePool_placeholder.sol\":3226:3257  poseidon.poseidon([zero, zero]) */\n  mload(0x40)\n  dup1\n  0x40\n  add\n  0x40\n  mstore\n  dup1\n    /* \"contracts/SwirlPrivatePool_placeholder.sol\":3245:3249  zero */\n  dup6\n    /* \"contracts/SwirlPrivatePool_placeholder.sol\":3226:3257  poseidon.poseidon([zero, zero]) */\n  dup2\n  mstore\n  0x20\n  add\n    /* \"contracts/SwirlPrivatePool_placeholder.sol\":3251:3255  zero */\n  dup6\n    /* \"contracts/SwirlPrivatePool_placeholder.sol\":3226:3257  poseidon.poseidon([zero, zero]) */\n  dup2\n  mstore\n  pop\n  mload(0x40)\n  dup3\n  0xffffffff\n  and\n  0xe0\n  shl\n  dup2\n  mstore\n  0x04\n  add\n  tag_19\n  swap2\n  swap1\n  tag_7\n  jump\t// in\ntag_19:\n  0x20\n  mload(0x40)\n  dup1\n  dup4\n  sub\n  dup2\n  dup7\n  gas\n  staticcall\n  iszero\n  dup1\n  iszero\n  tag_21\n  jumpi\n  returndatacopy(0x00, 0x00, returndatasize)\n  revert(0x00, returndatasize)\ntag_21:\n  pop\n  pop\n  pop\n  pop\n  mload(0x40)\n  returndatasize\n  not(0x1f)\n  0x1f\n  dup3\n  add\n  and\n  dup3\n  add\n  dup1\n  0x40\n  mstore\n  pop\n  dup2\n  add\n  swap1\n  tag_22\n  swap2\n  swap1\n  tag_11\n  jump\t// in\ntag_22:\n    /* \"contracts/SwirlPrivatePool_placeholder.sol\":3219:3257  zero = poseidon.poseidon([zero, zero]) */\n  swap2\n  pop\n    /* \"contracts/SwirlPrivatePool_placeholder.sol\":3291:3295  zero */\n  dup2\n    /* \"contracts/SwirlPrivatePool_placeholder.sol\":3283:3296  bytes32(zero) */\n  0x00\n  shl\n    /* \"contracts/SwirlPrivatePool_placeholder.sol\":3272:3277  zeros */\n  0x00\n    /* \"contracts/SwirlPrivatePool_placeholder.sol\":3278:3279  i */\n  dup3\n    /* \"contracts/SwirlPrivatePool_placeholder.sol\":3272:3280  zeros[i] */\n  0xffffffff\n  and\n  0x14\n  dup2\n  lt\n  tag_23\n  jumpi\n  tag_24\n  tag_14\n  jump\t// in\ntag_24:\ntag_23:\n  add\n    /* \"contracts/SwirlPrivatePool_placeholder.sol\":3272:3296  zeros[i] = bytes32(zero) */\n  dup2\n  swap1\n  sstore\n  pop\n    /* \"contracts/SwirlPrivatePool_placeholder.sol\":3199:3202  i++ */\n  dup1\n  dup1\n  0x01\n  add\n  swap2\n  pop\n  pop\n    /* \"contracts/SwirlPrivatePool_placeholder.sol\":3164:3308  for (uint32 i = 1; i < TREE_DEPTH; i++) {... */\n  jump(tag_16)\ntag_17:\n  pop\n    /* \"contracts/SwirlPrivatePool_placeholder.sol\":3325:3333  uint32 i */\n  0x00\n    /* \"contracts/SwirlPrivatePool_placeholder.sol\":3336:3337  0 */\n  0x00\n    /* \"contracts/SwirlPrivatePool_placeholder.sol\":3325:3337  uint32 i = 0 */\n  swap1\n  pop\n    /* \"contracts/SwirlPrivatePool_placeholder.sol\":3320:3415  for (uint32 i = 0; i < TREE_DEPTH; i++) {... */\ntag_26:\n    /* \"contracts/SwirlPrivatePool_placeholder.sol\":1741:1743  20 */\n  0x14\n    /* \"contracts/SwirlPrivatePool_placeholder.sol\":3339:3353  i < TREE_DEPTH */\n  0xffffffff\n  and\n    /* \"contracts/SwirlPrivatePool_placeholder.sol\":3339:3340  i */\n  dup2\n    /* \"contracts/SwirlPrivatePool_placeholder.sol\":3339:3353  i < TREE_DEPTH */\n  0xffffffff\n  and\n  lt\n    /* \"contracts/SwirlPrivatePool_placeholder.sol\":3320:3415  for (uint32 i = 0; i < TREE_DEPTH; i++) {... */\n  iszero\n  tag_27\n  jumpi\n    /* \"contracts/SwirlPrivatePool_placeholder.sol\":3395:3400  zeros */\n  0x00\n    /* \"contracts/SwirlPrivatePool_placeholder.sol\":3401:3402  i */\n  dup2\n    /* \"contracts/SwirlPrivatePool_placeholder.sol\":3395:3403  zeros[i] */\n  0xffffffff\n  and\n  0x14\n  dup2\n  lt\n  tag_29\n  jumpi\n  tag_30\n  tag_14\n  jump\t// in\ntag_30:\ntag_29:\n  add\n  sload\n    /* \"contracts/SwirlPrivatePool_placeholder.sol\":3375:3389  filledSubtrees */\n  0x14\n    /* \"contracts/SwirlPrivatePool_placeholder.sol\":3390:3391  i */\n  dup3\n    /* \"contracts/SwirlPrivatePool_placeholder.sol\":3375:3392  filledSubtrees[i] */\n  0xffffffff\n  and\n  0x14\n  dup2\n  lt\n  tag_32\n  jumpi\n  tag_33\n  tag_14\n  jump\t// in\ntag_33:\ntag_32:\n  add\n    /* \"contracts/SwirlPrivatePool_placeholder.sol\":3375:3403  filledSubtrees[i] = zeros[i] */\n  dup2\n  swap1\n  sstore\n  pop\n    /* \"contracts/SwirlPrivatePool_placeholder.sol\":3355:3358  i++ */\n  dup1\n  dup1\n  0x01\n  add\n  swap2\n  pop\n  pop\n    /* \"contracts/SwirlPrivatePool_placeholder.sol\":3320:3415  for (uint32 i = 0; i < TREE_DEPTH; i++) {... */\n  jump(tag_26)\ntag_27:\n  pop\n    /* \"contracts/SwirlPrivatePool_placeholder.sol\":3441:3446  zeros */\n  0x00\n    /* \"contracts/SwirlPrivatePool_placeholder.sol\":3460:3461  1 */\n  0x01\n    /* \"contracts/SwirlPrivatePool_placeholder.sol\":1741:1743  20 */\n  0x14\n    /* \"contracts/SwirlPrivatePool_placeholder.sol\":3447:3461  TREE_DEPTH - 1 */\n  tag_35\n  swap2\n  swap1\n  tag_36\n  jump\t// in\ntag_35:\n    /* \"contracts/SwirlPrivatePool_placeholder.sol\":3441:3462  zeros[TREE_DEPTH - 1] */\n  0xffffffff\n  and\n  0x14\n  dup2\n  lt\n  tag_37\n  jumpi\n  tag_38\n  tag_14\n  jump\t// in\ntag_38:\ntag_37:\n  add\n  sload\n    /* \"contracts/SwirlPrivatePool_placeholder.sol\":3427:3438  currentRoot */\n  0x28\n    /* \"contracts/SwirlPrivatePool_placeholder.sol\":3427:3462  currentRoot = zeros[TREE_DEPTH - 1] */\n  dup2\n  swap1\n  sstore\n  pop\n    /* \"contracts/SwirlPrivatePool_placeholder.sol\":3499:3503  true */\n  0x01\n    /* \"contracts/SwirlPrivatePool_placeholder.sol\":3473:3483  knownRoots */\n  0x2b\n    /* \"contracts/SwirlPrivatePool_placeholder.sol\":3473:3496  knownRoots[currentRoot] */\n  0x00\n    /* \"contracts/SwirlPrivatePool_placeholder.sol\":3484:3495  currentRoot */\n  sload(0x28)\n    /* \"contracts/SwirlPrivatePool_placeholder.sol\":3473:3496  knownRoots[currentRoot] */\n  dup2\n  mstore\n  0x20\n  add\n  swap1\n  dup2\n  mstore\n  0x20\n  add\n  0x00\n  keccak256\n  0x00\n    /* \"contracts/SwirlPrivatePool_placeholder.sol\":3473:3503  knownRoots[currentRoot] = true */\n  0x0100\n  exp\n  dup2\n  sload\n  dup2\n  0xff\n  mul\n  not\n  and\n  swap1\n  dup4\n  iszero\n  iszero\n  mul\n  or\n  swap1\n  sstore\n  pop\n    /* \"contracts/SwirlPrivatePool_placeholder.sol\":2897:3511  {... */\n  pop\n    /* \"contracts/SwirlPrivatePool_placeholder.sol\":2847:3511  constructor(address _verifier, address _poseidon) {... */\n  pop\n  pop\n    /* \"contracts/SwirlPrivatePool_placeholder.sol\":654:6415  contract SwirlPrivatePool {... */\n  jump(tag_40)\n    /* \"#utility.yul\":88:205   */\ntag_42:\n    /* \"#utility.yul\":197:198   */\n  0x00\n    /* \"#utility.yul\":194:195   */\n  0x00\n    /* \"#utility.yul\":187:199   */\n  revert\n    /* \"#utility.yul\":334:460   */\ntag_44:\n    /* \"#utility.yul\":371:378   */\n  0x00\n    /* \"#utility.yul\":411:453   */\n  0xffffffffffffffffffffffffffffffffffffffff\n    /* \"#utility.yul\":404:409   */\n  dup3\n    /* \"#utility.yul\":400:454   */\n  and\n    /* \"#utility.yul\":389:454   */\n  swap1\n  pop\n    /* \"#utility.yul\":334:460   */\n  swap2\n  swap1\n  pop\n  jump\t// out\n    /* \"#utility.yul\":466:562   */\ntag_45:\n    /* \"#utility.yul\":503:510   */\n  0x00\n    /* \"#utility.yul\":532:556   */\n  tag_66\n    /* \"#utility.yul\":550:555   */\n  dup3\n    /* \"#utility.yul\":532:556   */\n  tag_44\n  jump\t// in\ntag_66:\n    /* \"#utility.yul\":521:556   */\n  swap1\n  pop\n    /* \"#utility.yul\":466:562   */\n  swap2\n  swap1\n  pop\n  jump\t// out\n    /* \"#utility.yul\":568:690   */\ntag_46:\n    /* \"#utility.yul\":641:665   */\n  tag_68\n    /* \"#utility.yul\":659:664   */\n  dup2\n    /* \"#utility.yul\":641:665   */\n  tag_45\n  jump\t// in\ntag_68:\n    /* \"#utility.yul\":634:639   */\n  dup2\n    /* \"#utility.yul\":631:666   */\n  eq\n    /* \"#utility.yul\":621:684   */\n  tag_69\n  jumpi\n    /* \"#utility.yul\":680:681   */\n  0x00\n    /* \"#utility.yul\":677:678   */\n  0x00\n    /* \"#utility.yul\":670:682   */\n  revert\n    /* \"#utility.yul\":621:684   */\ntag_69:\n    /* \"#utility.yul\":568:690   */\n  pop\n  jump\t// out\n    /* \"#utility.yul\":696:839   */\ntag_47:\n    /* \"#utility.yul\":753:758   */\n  0x00\n    /* \"#utility.yul\":784:790   */\n  dup2\n    /* \"#utility.yul\":778:791   */\n  mload\n    /* \"#utility.yul\":769:791   */\n  swap1\n  pop\n    /* \"#utility.yul\":800:833   */\n  tag_71\n    /* \"#utility.yul\":827:832   */\n  dup2\n    /* \"#utility.yul\":800:833   */\n  tag_46\n  jump\t// in\ntag_71:\n    /* \"#utility.yul\":696:839   */\n  swap3\n  swap2\n  pop\n  pop\n  jump\t// out\n    /* \"#utility.yul\":845:1352   */\ntag_3:\n    /* \"#utility.yul\":924:930   */\n  0x00\n    /* \"#utility.yul\":932:938   */\n  0x00\n    /* \"#utility.yul\":981:983   */\n  0x40\n    /* \"#utility.yul\":969:978   */\n  dup4\n    /* \"#utility.yul\":960:967   */\n  dup6\n    /* \"#utility.yul\":956:979   */\n  sub\n    /* \"#utility.yul\":952:984   */\n  slt\n    /* \"#utility.yul\":949:1068   */\n  iszero\n  tag_73\n  jumpi\n    /* \"#utility.yul\":987:1066   */\n  tag_74\n  tag_42\n  jump\t// in\ntag_74:\n    /* \"#utility.yul\":949:1068   */\ntag_73:\n    /* \"#utility.yul\":1107:1108   */\n  0x00\n    /* \"#utility.yul\":1132:1196   */\n  tag_75\n    /* \"#utility.yul\":1188:1195   */\n  dup6\n    /* \"#utility.yul\":1179:1185   */\n  dup3\n    /* \"#utility.yul\":1168:1177   */\n  dup7\n    /* \"#utility.yul\":1164:1186   */\n  add\n    /* \"#utility.yul\":1132:1196   */\n  tag_47\n  jump\t// in\ntag_75:\n    /* \"#utility.yul\":1122:1196   */\n  swap3\n  pop\n    /* \"#utility.yul\":1078:1206   */\n  pop\n    /* \"#utility.yul\":1245:1247   */\n  0x20\n    /* \"#utility.yul\":1271:1335   */\n  tag_76\n    /* \"#utility.yul\":1327:1334   */\n  dup6\n    /* \"#utility.yul\":1318:1324   */\n  dup3\n    /* \"#utility.yul\":1307:1316   */\n  dup7\n    /* \"#utility.yul\":1303:1325   */\n  add\n    /* \"#utility.yul\":1271:1335   */\n  tag_47\n  jump\t// in\ntag_76:\n    /* \"#utility.yul\":1261:1335   */\n  swap2\n  pop\n    /* \"#utility.yul\":1216:1345   */\n  pop\n    /* \"#utility.yul\":845:1352   */\n  swap3\n  pop\n  swap3\n  swap1\n  pop\n  jump\t// out\n    /* \"#utility.yul\":1358:1462   */\ntag_48:\n    /* \"#utility.yul\":1423:1429   */\n  0x00\n    /* \"#utility.yul\":1451:1455   */\n  0x02\n    /* \"#utility.yul\":1441:1455   */\n  swap1\n  pop\n    /* \"#utility.yul\":1358:1462   */\n  swap2\n  swap1\n  pop\n  jump\t// out\n    /* \"#utility.yul\":1468:1611   */\ntag_49:\n    /* \"#utility.yul\":1565:1576   */\n  0x00\n    /* \"#utility.yul\":1602:1605   */\n  dup2\n    /* \"#utility.yul\":1587:1605   */\n  swap1\n  pop\n    /* \"#utility.yul\":1468:1611   */\n  swap3\n  swap2\n  pop\n  pop\n  jump\t// out\n    /* \"#utility.yul\":1617:1715   */\ntag_50:\n    /* \"#utility.yul\":1682:1686   */\n  0x00\n    /* \"#utility.yul\":1705:1708   */\n  dup2\n    /* \"#utility.yul\":1697:1708   */\n  swap1\n  pop\n    /* \"#utility.yul\":1617:1715   */\n  swap2\n  swap1\n  pop\n  jump\t// out\n    /* \"#utility.yul\":1721:1798   */\ntag_51:\n    /* \"#utility.yul\":1758:1765   */\n  0x00\n    /* \"#utility.yul\":1787:1792   */\n  dup2\n    /* \"#utility.yul\":1776:1792   */\n  swap1\n  pop\n    /* \"#utility.yul\":1721:1798   */\n  swap2\n  swap1\n  pop\n  jump\t// out\n    /* \"#utility.yul\":1804:1912   */\ntag_52:\n    /* \"#utility.yul\":1881:1905   */\n  tag_82\n    /* \"#utility.yul\":1899:1904   */\n  dup2\n    /* \"#utility.yul\":1881:1905   */\n  tag_51\n  jump\t// in\ntag_82:\n    /* \"#utility.yul\":1876:1879   */\n  dup3\n    /* \"#utility.yul\":1869:1906   */\n  mstore\n    /* \"#utility.yul\":1804:1912   */\n  pop\n  pop\n  jump\t// out\n    /* \"#utility.yul\":1918:2097   */\ntag_53:\n    /* \"#utility.yul\":1987:1997   */\n  0x00\n    /* \"#utility.yul\":2008:2054   */\n  tag_84\n    /* \"#utility.yul\":2050:2053   */\n  dup4\n    /* \"#utility.yul\":2042:2048   */\n  dup4\n    /* \"#utility.yul\":2008:2054   */\n  tag_52\n  jump\t// in\ntag_84:\n    /* \"#utility.yul\":2086:2090   */\n  0x20\n    /* \"#utility.yul\":2081:2084   */\n  dup4\n    /* \"#utility.yul\":2077:2091   */\n  add\n    /* \"#utility.yul\":2063:2091   */\n  swap1\n  pop\n    /* \"#utility.yul\":1918:2097   */\n  swap3\n  swap2\n  pop\n  pop\n  jump\t// out\n    /* \"#utility.yul\":2103:2214   */\ntag_54:\n    /* \"#utility.yul\":2171:2175   */\n  0x00\n    /* \"#utility.yul\":2203:2207   */\n  0x20\n    /* \"#utility.yul\":2198:2201   */\n  dup3\n    /* \"#utility.yul\":2194:2208   */\n  add\n    /* \"#utility.yul\":2186:2208   */\n  swap1\n  pop\n    /* \"#utility.yul\":2103:2214   */\n  swap2\n  swap1\n  pop\n  jump\t// out\n    /* \"#utility.yul\":2252:2946   */\ntag_55:\n    /* \"#utility.yul\":2388:2440   */\n  tag_87\n    /* \"#utility.yul\":2434:2439   */\n  dup2\n    /* \"#utility.yul\":2388:2440   */\n  tag_48\n  jump\t// in\ntag_87:\n    /* \"#utility.yul\":2456:2540   */\n  tag_88\n    /* \"#utility.yul\":2533:2539   */\n  dup2\n    /* \"#utility.yul\":2528:2531   */\n  dup5\n    /* \"#utility.yul\":2456:2540   */\n  tag_49\n  jump\t// in\ntag_88:\n    /* \"#utility.yul\":2449:2540   */\n  swap3\n  pop\n    /* \"#utility.yul\":2564:2618   */\n  tag_89\n    /* \"#utility.yul\":2612:2617   */\n  dup3\n    /* \"#utility.yul\":2564:2618   */\n  tag_50\n  jump\t// in\ntag_89:\n    /* \"#utility.yul\":2641:2648   */\n  dup1\n    /* \"#utility.yul\":2672:2673   */\n  0x00\n    /* \"#utility.yul\":2657:2939   */\ntag_90:\n    /* \"#utility.yul\":2682:2688   */\n  dup4\n    /* \"#utility.yul\":2679:2680   */\n  dup2\n    /* \"#utility.yul\":2676:2689   */\n  lt\n    /* \"#utility.yul\":2657:2939   */\n  iszero\n  tag_92\n  jumpi\n    /* \"#utility.yul\":2758:2764   */\n  dup2\n    /* \"#utility.yul\":2752:2765   */\n  mload\n    /* \"#utility.yul\":2785:2848   */\n  tag_93\n    /* \"#utility.yul\":2844:2847   */\n  dup8\n    /* \"#utility.yul\":2829:2842   */\n  dup3\n    /* \"#utility.yul\":2785:2848   */\n  tag_53\n  jump\t// in\ntag_93:\n    /* \"#utility.yul\":2778:2848   */\n  swap7\n  pop\n    /* \"#utility.yul\":2871:2929   */\n  tag_94\n    /* \"#utility.yul\":2922:2928   */\n  dup4\n    /* \"#utility.yul\":2871:2929   */\n  tag_54\n  jump\t// in\ntag_94:\n    /* \"#utility.yul\":2861:2929   */\n  swap3\n  pop\n    /* \"#utility.yul\":2717:2939   */\n  pop\n    /* \"#utility.yul\":2704:2705   */\n  0x01\n    /* \"#utility.yul\":2701:2702   */\n  dup2\n    /* \"#utility.yul\":2697:2706   */\n  add\n    /* \"#utility.yul\":2692:2706   */\n  swap1\n  pop\n    /* \"#utility.yul\":2657:2939   */\n  jump(tag_90)\ntag_92:\n    /* \"#utility.yul\":2661:2675   */\n  pop\n    /* \"#utility.yul\":2364:2946   */\n  pop\n  pop\n  pop\n    /* \"#utility.yul\":2252:2946   */\n  pop\n  pop\n  jump\t// out\n    /* \"#utility.yul\":2952:3266   */\ntag_7:\n    /* \"#utility.yul\":3091:3095   */\n  0x00\n    /* \"#utility.yul\":3129:3131   */\n  0x40\n    /* \"#utility.yul\":3118:3127   */\n  dup3\n    /* \"#utility.yul\":3114:3132   */\n  add\n    /* \"#utility.yul\":3106:3132   */\n  swap1\n  pop\n    /* \"#utility.yul\":3142:3259   */\n  tag_96\n    /* \"#utility.yul\":3256:3257   */\n  0x00\n    /* \"#utility.yul\":3245:3254   */\n  dup4\n    /* \"#utility.yul\":3241:3258   */\n  add\n    /* \"#utility.yul\":3232:3238   */\n  dup5\n    /* \"#utility.yul\":3142:3259   */\n  tag_55\n  jump\t// in\ntag_96:\n    /* \"#utility.yul\":2952:3266   */\n  swap3\n  swap2\n  pop\n  pop\n  jump\t// out\n    /* \"#utility.yul\":3272:3394   */\ntag_56:\n    /* \"#utility.yul\":3345:3369   */\n  tag_98\n    /* \"#utility.yul\":3363:3368   */\n  dup2\n    /* \"#utility.yul\":3345:3369   */\n  tag_51\n  jump\t// in\ntag_98:\n    /* \"#utility.yul\":3338:3343   */\n  dup2\n    /* \"#utility.yul\":3335:3370   */\n  eq\n    /* \"#utility.yul\":3325:3388   */\n  tag_99\n  jumpi\n    /* \"#utility.yul\":3384:3385   */\n  0x00\n    /* \"#utility.yul\":3381:3382   */\n  0x00\n    /* \"#utility.yul\":3374:3386   */\n  revert\n    /* \"#utility.yul\":3325:3388   */\ntag_99:\n    /* \"#utility.yul\":3272:3394   */\n  pop\n  jump\t// out\n    /* \"#utility.yul\":3400:3543   */\ntag_57:\n    /* \"#utility.yul\":3457:3462   */\n  0x00\n    /* \"#utility.yul\":3488:3494   */\n  dup2\n    /* \"#utility.yul\":3482:3495   */\n  mload\n    /* \"#utility.yul\":3473:3495   */\n  swap1\n  pop\n    /* \"#utility.yul\":3504:3537   */\n  tag_101\n    /* \"#utility.yul\":3531:3536   */\n  dup2\n    /* \"#utility.yul\":3504:3537   */\n  tag_56\n  jump\t// in\ntag_101:\n    /* \"#utility.yul\":3400:3543   */\n  swap3\n  swap2\n  pop\n  pop\n  jump\t// out\n    /* \"#utility.yul\":3549:3900   */\ntag_11:\n    /* \"#utility.yul\":3619:3625   */\n  0x00\n    /* \"#utility.yul\":3668:3670   */\n  0x20\n    /* \"#utility.yul\":3656:3665   */\n  dup3\n    /* \"#utility.yul\":3647:3654   */\n  dup5\n    /* \"#utility.yul\":3643:3666   */\n  sub\n    /* \"#utility.yul\":3639:3671   */\n  slt\n    /* \"#utility.yul\":3636:3755   */\n  iszero\n  tag_103\n  jumpi\n    /* \"#utility.yul\":3674:3753   */\n  tag_104\n  tag_42\n  jump\t// in\ntag_104:\n    /* \"#utility.yul\":3636:3755   */\ntag_103:\n    /* \"#utility.yul\":3794:3795   */\n  0x00\n    /* \"#utility.yul\":3819:3883   */\n  tag_105\n    /* \"#utility.yul\":3875:3882   */\n  dup5\n    /* \"#utility.yul\":3866:3872   */\n  dup3\n    /* \"#utility.yul\":3855:3864   */\n  dup6\n    /* \"#utility.yul\":3851:3873   */\n  add\n    /* \"#utility.yul\":3819:3883   */\n  tag_57\n  jump\t// in\ntag_105:\n    /* \"#utility.yul\":3809:3883   */\n  swap2\n  pop\n    /* \"#utility.yul\":3765:3893   */\n  pop\n    /* \"#utility.yul\":3549:3900   */\n  swap3\n  swap2\n  pop\n  pop\n  jump\t// out\n    /* \"#utility.yul\":3906:4086   */\ntag_14:\n    /* \"#utility.yul\":3954:4031   */\n  0x4e487b7100000000000000000000000000000000000000000000000000000000\n    /* \"#utility.yul\":3951:3952   */\n  0x00\n    /* \"#utility.yul\":3944:4032   */\n  mstore\n    /* \"#utility.yul\":4051:4055   */\n  0x32\n    /* \"#utility.yul\":4048:4049   */\n  0x04\n    /* \"#utility.yul\":4041:4056   */\n  mstore\n    /* \"#utility.yul\":4075:4079   */\n  0x24\n    /* \"#utility.yul\":4072:4073   */\n  0x00\n    /* \"#utility.yul\":4065:4080   */\n  revert\n    /* \"#utility.yul\":4092:4185   */\ntag_58:\n    /* \"#utility.yul\":4128:4135   */\n  0x00\n    /* \"#utility.yul\":4168:4178   */\n  0xffffffff\n    /* \"#utility.yul\":4161:4166   */\n  dup3\n    /* \"#utility.yul\":4157:4179   */\n  and\n    /* \"#utility.yul\":4146:4179   */\n  swap1\n  pop\n    /* \"#utility.yul\":4092:4185   */\n  swap2\n  swap1\n  pop\n  jump\t// out\n    /* \"#utility.yul\":4191:4371   */\ntag_59:\n    /* \"#utility.yul\":4239:4316   */\n  0x4e487b7100000000000000000000000000000000000000000000000000000000\n    /* \"#utility.yul\":4236:4237   */\n  0x00\n    /* \"#utility.yul\":4229:4317   */\n  mstore\n    /* \"#utility.yul\":4336:4340   */\n  0x11\n    /* \"#utility.yul\":4333:4334   */\n  0x04\n    /* \"#utility.yul\":4326:4341   */\n  mstore\n    /* \"#utility.yul\":4360:4364   */\n  0x24\n    /* \"#utility.yul\":4357:4358   */\n  0x00\n    /* \"#utility.yul\":4350:4365   */\n  revert\n    /* \"#utility.yul\":4377:4577   */\ntag_36:\n    /* \"#utility.yul\":4416:4420   */\n  0x00\n    /* \"#utility.yul\":4436:4455   */\n  tag_110\n    /* \"#utility.yul\":4453:4454   */\n  dup3\n    /* \"#utility.yul\":4436:4455   */\n  tag_58\n  jump\t// in\ntag_110:\n    /* \"#utility.yul\":4431:4455   */\n  swap2\n  pop\n    /* \"#utility.yul\":4469:4488   */\n  tag_111\n    /* \"#utility.yul\":4486:4487   */\n  dup4\n    /* \"#utility.yul\":4469:4488   */\n  tag_58\n  jump\t// in\ntag_111:\n    /* \"#utility.yul\":4464:4488   */\n  swap3\n  pop\n    /* \"#utility.yul\":4512:4513   */\n  dup3\n    /* \"#utility.yul\":4509:4510   */\n  dup3\n    /* \"#utility.yul\":4505:4514   */\n  sub\n    /* \"#utility.yul\":4497:4514   */\n  swap1\n  pop\n    /* \"#utility.yul\":4536:4546   */\n  0xffffffff\n    /* \"#utility.yul\":4530:4534   */\n  dup2\n    /* \"#utility.yul\":4527:4547   */\n  gt\n    /* \"#utility.yul\":4524:4570   */\n  iszero\n  tag_112\n  jumpi\n    /* \"#utility.yul\":4550:4568   */\n  tag_113\n  tag_59\n  jump\t// in\ntag_113:\n    /* \"#utility.yul\":4524:4570   */\ntag_112:\n    /* \"#utility.yul\":4377:4577   */\n  swap3\n  swap2\n  pop\n  pop\n  jump\t// out\n    /* \"contracts/SwirlPrivatePool_placeholder.sol\":654:6415  contract SwirlPrivatePool {... */\ntag_40:\n  mload(0x80)\n  mload(0xa0)\n  codecopy(0x00, dataOffset(sub_0), dataSize(sub_0))\n  0x00\n  assignImmutable(\"0xcc143a676b82d5e07b2c9d57717b403ab3c58caa273a42cdb95b15980141a86c\")\n  0x00\n  assignImmutable(\"0x606503ebd6bdca7290248af82fd5a09ca0489398da9f242244210336ae6ece9f\")\n  return(0x00, dataSize(sub_0))\nstop\n\nsub_0: assembly {\n        /* \"contracts/SwirlPrivatePool_placeholder.sol\":654:6415  contract SwirlPrivatePool {... */\n      mstore(0x40, 0x80)\n      jumpi(tag_1, lt(calldatasize, 0x04))\n      shr(0xe0, calldataload(0x00))\n      dup1\n      0xc62b919e\n      gt\n      tag_18\n      jumpi\n      dup1\n      0xf1650536\n      gt\n      tag_19\n      jumpi\n      dup1\n      0xf1650536\n      eq\n      tag_14\n      jumpi\n      dup1\n      0xf178e47c\n      eq\n      tag_15\n      jumpi\n      dup1\n      0xfc7e9c6f\n      eq\n      tag_16\n      jumpi\n      dup1\n      0xfdab463d\n      eq\n      tag_17\n      jumpi\n      jump(tag_1)\n    tag_19:\n      dup1\n      0xc62b919e\n      eq\n      tag_10\n      jumpi\n      dup1\n      0xe29973fc\n      eq\n      tag_11\n      jumpi\n      dup1\n      0xe5285dcc\n      eq\n      tag_12\n      jumpi\n      dup1\n      0xe8295588\n      eq\n      tag_13\n      jumpi\n      jump(tag_1)\n    tag_18:\n      dup1\n      0x4f76a98e\n      gt\n      tag_20\n      jumpi\n      dup1\n      0x4f76a98e\n      eq\n      tag_6\n      jumpi\n      dup1\n      0x85de26b7\n      eq\n      tag_7\n      jumpi\n      dup1\n      0x8b01429d\n      eq\n      tag_8\n      jumpi\n      dup1\n      0xb130eaa6\n      eq\n      tag_9\n      jumpi\n      jump(tag_1)\n    tag_20:\n      dup1\n      0x082febf0\n      eq\n      tag_2\n      jumpi\n      dup1\n      0x17cc915c\n      eq\n      tag_3\n      jumpi\n      dup1\n      0x2b7ac3f3\n      eq\n      tag_4\n      jumpi\n      dup1\n      0x4e73da7d\n      eq\n      tag_5\n      jumpi\n    tag_1:\n      revert(0x00, 0x00)\n        /* \"contracts/SwirlPrivatePool_placeholder.sol\":1750:1812  uint32  public constant MAX_LEAVES   = uint32(1 << TREE_DEPTH) */\n    tag_2:\n      callvalue\n      dup1\n      iszero\n      tag_21\n      jumpi\n      revert(0x00, 0x00)\n    tag_21:\n      pop\n      tag_22\n      tag_23\n      jump\t// in\n    tag_22:\n      mload(0x40)\n      tag_24\n      swap2\n      swap1\n      tag_25\n      jump\t// in\n    tag_24:\n      mload(0x40)\n      dup1\n      swap2\n      sub\n      swap1\n      return\n        /* \"contracts/SwirlPrivatePool_placeholder.sol\":2251:2298  mapping(bytes32 => bool) public nullifierHashes */\n    tag_3:\n      callvalue\n      dup1\n      iszero\n      tag_26\n      jumpi\n      revert(0x00, 0x00)\n    tag_26:\n      pop\n      tag_27\n      0x04\n      dup1\n      calldatasize\n      sub\n      dup2\n      add\n      swap1\n      tag_28\n      swap2\n      swap1\n      tag_29\n      jump\t// in\n    tag_28:\n      tag_30\n      jump\t// in\n    tag_27:\n      mload(0x40)\n      tag_31\n      swap2\n      swap1\n      tag_32\n      jump\t// in\n    tag_31:\n      mload(0x40)\n      dup1\n      swap2\n      sub\n      swap1\n      return\n        /* \"contracts/SwirlPrivatePool_placeholder.sol\":2008:2043  IVerifier public immutable verifier */\n    tag_4:\n      callvalue\n      dup1\n      iszero\n      tag_33\n      jumpi\n      revert(0x00, 0x00)\n    tag_33:\n      pop\n      tag_34\n      tag_35\n      jump\t// in\n    tag_34:\n      mload(0x40)\n      tag_36\n      swap2\n      swap1\n      tag_37\n      jump\t// in\n    tag_36:\n      mload(0x40)\n      dup1\n      swap2\n      sub\n      swap1\n      return\n        /* \"contracts/SwirlPrivatePool_placeholder.sol\":2305:2347  mapping(bytes32 => bool) public knownRoots */\n    tag_5:\n      callvalue\n      dup1\n      iszero\n      tag_38\n      jumpi\n      revert(0x00, 0x00)\n    tag_38:\n      pop\n      tag_39\n      0x04\n      dup1\n      calldatasize\n      sub\n      dup2\n      add\n      swap1\n      tag_40\n      swap2\n      swap1\n      tag_29\n      jump\t// in\n    tag_40:\n      tag_41\n      jump\t// in\n    tag_39:\n      mload(0x40)\n      tag_42\n      swap2\n      swap1\n      tag_32\n      jump\t// in\n    tag_42:\n      mload(0x40)\n      dup1\n      swap2\n      sub\n      swap1\n      return\n        /* \"contracts/SwirlPrivatePool_placeholder.sol\":1524:1641  uint256 public constant FIELD_MODULUS = 21888242871839275222246405745257275088548364400416034343698204186575808495617 */\n    tag_6:\n      callvalue\n      dup1\n      iszero\n      tag_43\n      jumpi\n      revert(0x00, 0x00)\n    tag_43:\n      pop\n      tag_44\n      tag_45\n      jump\t// in\n    tag_44:\n      mload(0x40)\n      tag_46\n      swap2\n      swap1\n      tag_47\n      jump\t// in\n    tag_46:\n      mload(0x40)\n      dup1\n      swap2\n      sub\n      swap1\n      return\n        /* \"contracts/SwirlPrivatePool_placeholder.sol\":2607:2653  mapping(bytes32 => EncryptedNote) public notes */\n    tag_7:\n      callvalue\n      dup1\n      iszero\n      tag_48\n      jumpi\n      revert(0x00, 0x00)\n    tag_48:\n      pop\n      tag_49\n      0x04\n      dup1\n      calldatasize\n      sub\n      dup2\n      add\n      swap1\n      tag_50\n      swap2\n      swap1\n      tag_29\n      jump\t// in\n    tag_50:\n      tag_51\n      jump\t// in\n    tag_49:\n      mload(0x40)\n      tag_52\n      swap2\n      swap1\n      tag_53\n      jump\t// in\n    tag_52:\n      mload(0x40)\n      dup1\n      swap2\n      sub\n      swap1\n      return\n        /* \"contracts/SwirlPrivatePool_placeholder.sol\":1648:1695  uint256 public constant DENOMINATION = 10 ether */\n    tag_8:\n      callvalue\n      dup1\n      iszero\n      tag_54\n      jumpi\n      revert(0x00, 0x00)\n    tag_54:\n      pop\n      tag_55\n      tag_56\n      jump\t// in\n    tag_55:\n      mload(0x40)\n      tag_57\n      swap2\n      swap1\n      tag_47\n      jump\t// in\n    tag_57:\n      mload(0x40)\n      dup1\n      swap2\n      sub\n      swap1\n      return\n        /* \"contracts/SwirlPrivatePool_placeholder.sol\":5372:6093  function withdraw(... */\n    tag_9:\n      callvalue\n      dup1\n      iszero\n      tag_58\n      jumpi\n      revert(0x00, 0x00)\n    tag_58:\n      pop\n      tag_59\n      0x04\n      dup1\n      calldatasize\n      sub\n      dup2\n      add\n      swap1\n      tag_60\n      swap2\n      swap1\n      tag_61\n      jump\t// in\n    tag_60:\n      tag_62\n      jump\t// in\n    tag_59:\n      stop\n        /* \"contracts/SwirlPrivatePool_placeholder.sol\":2050:2087  IPoseidonT2 public immutable poseidon */\n    tag_10:\n      callvalue\n      dup1\n      iszero\n      tag_63\n      jumpi\n      revert(0x00, 0x00)\n    tag_63:\n      pop\n      tag_64\n      tag_65\n      jump\t// in\n    tag_64:\n      mload(0x40)\n      tag_66\n      swap2\n      swap1\n      tag_67\n      jump\t// in\n    tag_66:\n      mload(0x40)\n      dup1\n      swap2\n      sub\n      swap1\n      return\n        /* \"contracts/SwirlPrivatePool_placeholder.sol\":3833:5006  function deposit(... */\n    tag_11:\n      tag_68\n      0x04\n      dup1\n      calldatasize\n      sub\n      dup2\n      add\n      swap1\n      tag_69\n      swap2\n      swap1\n      tag_70\n      jump\t// in\n    tag_69:\n      tag_71\n      jump\t// in\n    tag_68:\n      stop\n        /* \"contracts/SwirlPrivatePool_placeholder.sol\":6287:6412  function isSpent(bytes32 nullifierHash) external view returns (bool) {... */\n    tag_12:\n      callvalue\n      dup1\n      iszero\n      tag_72\n      jumpi\n      revert(0x00, 0x00)\n    tag_72:\n      pop\n      tag_73\n      0x04\n      dup1\n      calldatasize\n      sub\n      dup2\n      add\n      swap1\n      tag_74\n      swap2\n      swap1\n      tag_29\n      jump\t// in\n    tag_74:\n      tag_75\n      jump\t// in\n    tag_73:\n      mload(0x40)\n      tag_76\n      swap2\n      swap1\n      tag_32\n      jump\t// in\n    tag_76:\n      mload(0x40)\n      dup1\n      swap2\n      sub\n      swap1\n      return\n        /* \"contracts/SwirlPrivatePool_placeholder.sol\":2096:2128  bytes32[TREE_DEPTH] public zeros */\n    tag_13:\n      callvalue\n      dup1\n      iszero\n      tag_77\n      jumpi\n      revert(0x00, 0x00)\n    tag_77:\n      pop\n      tag_78\n      0x04\n      dup1\n      calldatasize\n      sub\n      dup2\n      add\n      swap1\n      tag_79\n      swap2\n      swap1\n      tag_80\n      jump\t// in\n    tag_79:\n      tag_81\n      jump\t// in\n    tag_78:\n      mload(0x40)\n      tag_82\n      swap2\n      swap1\n      tag_83\n      jump\t// in\n    tag_82:\n      mload(0x40)\n      dup1\n      swap2\n      sub\n      swap1\n      return\n        /* \"contracts/SwirlPrivatePool_placeholder.sol\":1702:1743  uint32  public constant TREE_DEPTH   = 20 */\n    tag_14:\n      callvalue\n      dup1\n      iszero\n      tag_84\n      jumpi\n      revert(0x00, 0x00)\n    tag_84:\n      pop\n      tag_85\n      tag_86\n      jump\t// in\n    tag_85:\n      mload(0x40)\n      tag_87\n      swap2\n      swap1\n      tag_25\n      jump\t// in\n    tag_87:\n      mload(0x40)\n      dup1\n      swap2\n      sub\n      swap1\n      return\n        /* \"contracts/SwirlPrivatePool_placeholder.sol\":2135:2176  bytes32[TREE_DEPTH] public filledSubtrees */\n    tag_15:\n      callvalue\n      dup1\n      iszero\n      tag_88\n      jumpi\n      revert(0x00, 0x00)\n    tag_88:\n      pop\n      tag_89\n      0x04\n      dup1\n      calldatasize\n      sub\n      dup2\n      add\n      swap1\n      tag_90\n      swap2\n      swap1\n      tag_80\n      jump\t// in\n    tag_90:\n      tag_91\n      jump\t// in\n    tag_89:\n      mload(0x40)\n      tag_92\n      swap2\n      swap1\n      tag_83\n      jump\t// in\n    tag_92:\n      mload(0x40)\n      dup1\n      swap2\n      sub\n      swap1\n      return\n        /* \"contracts/SwirlPrivatePool_placeholder.sol\":2218:2242  uint32  public nextIndex */\n    tag_16:\n      callvalue\n      dup1\n      iszero\n      tag_93\n      jumpi\n      revert(0x00, 0x00)\n    tag_93:\n      pop\n      tag_94\n      tag_95\n      jump\t// in\n    tag_94:\n      mload(0x40)\n      tag_96\n      swap2\n      swap1\n      tag_25\n      jump\t// in\n    tag_96:\n      mload(0x40)\n      dup1\n      swap2\n      sub\n      swap1\n      return\n        /* \"contracts/SwirlPrivatePool_placeholder.sol\":2185:2211  bytes32 public currentRoot */\n    tag_17:\n      callvalue\n      dup1\n      iszero\n      tag_97\n      jumpi\n      revert(0x00, 0x00)\n    tag_97:\n      pop\n      tag_98\n      tag_99\n      jump\t// in\n    tag_98:\n      mload(0x40)\n      tag_100\n      swap2\n      swap1\n      tag_83\n      jump\t// in\n    tag_100:\n      mload(0x40)\n      dup1\n      swap2\n      sub\n      swap1\n      return\n        /* \"contracts/SwirlPrivatePool_placeholder.sol\":1750:1812  uint32  public constant MAX_LEAVES   = uint32(1 << TREE_DEPTH) */\n    tag_23:\n        /* \"contracts/SwirlPrivatePool_placeholder.sol\":1741:1743  20 */\n      0x14\n        /* \"contracts/SwirlPrivatePool_placeholder.sol\":1796:1811  1 << TREE_DEPTH */\n      0xffffffff\n      and\n        /* \"contracts/SwirlPrivatePool_placeholder.sol\":1796:1797  1 */\n      0x01\n        /* \"contracts/SwirlPrivatePool_placeholder.sol\":1796:1811  1 << TREE_DEPTH */\n      swap1\n      shl\n        /* \"contracts/SwirlPrivatePool_placeholder.sol\":1750:1812  uint32  public constant MAX_LEAVES   = uint32(1 << TREE_DEPTH) */\n      dup2\n      jump\t// out\n        /* \"contracts/SwirlPrivatePool_placeholder.sol\":2251:2298  mapping(bytes32 => bool) public nullifierHashes */\n    tag_30:\n      mstore(0x20, 0x2a)\n      dup1\n      0x00\n      mstore\n      keccak256(0x00, 0x40)\n      0x00\n      swap2\n      pop\n      sload\n      swap1\n      0x0100\n      exp\n      swap1\n      div\n      0xff\n      and\n      dup2\n      jump\t// out\n        /* \"contracts/SwirlPrivatePool_placeholder.sol\":2008:2043  IVerifier public immutable verifier */\n    tag_35:\n      immutable(\"0x606503ebd6bdca7290248af82fd5a09ca0489398da9f242244210336ae6ece9f\")\n      dup2\n      jump\t// out\n        /* \"contracts/SwirlPrivatePool_placeholder.sol\":2305:2347  mapping(bytes32 => bool) public knownRoots */\n    tag_41:\n      mstore(0x20, 0x2b)\n      dup1\n      0x00\n      mstore\n      keccak256(0x00, 0x40)\n      0x00\n      swap2\n      pop\n      sload\n      swap1\n      0x0100\n      exp\n      swap1\n      div\n      0xff\n      and\n      dup2\n      jump\t// out\n        /* \"contracts/SwirlPrivatePool_placeholder.sol\":1524:1641  uint256 public constant FIELD_MODULUS = 21888242871839275222246405745257275088548364400416034343698204186575808495617 */\n    tag_45:\n        /* \"contracts/SwirlPrivatePool_placeholder.sol\":1564:1641  21888242871839275222246405745257275088548364400416034343698204186575808495617 */\n      0x30644e72e131a029b85045b68181585d2833e84879b9709143e1f593f0000001\n        /* \"contracts/SwirlPrivatePool_placeholder.sol\":1524:1641  uint256 public constant FIELD_MODULUS = 21888242871839275222246405745257275088548364400416034343698204186575808495617 */\n      dup2\n      jump\t// out\n        /* \"contracts/SwirlPrivatePool_placeholder.sol\":2607:2653  mapping(bytes32 => EncryptedNote) public notes */\n    tag_51:\n      mstore(0x20, 0x2c)\n      dup1\n      0x00\n      mstore\n      keccak256(0x00, 0x40)\n      0x00\n      swap2\n      pop\n      swap1\n      pop\n      dup1\n      0x00\n      add\n      dup1\n      sload\n      tag_101\n      swap1\n      tag_102\n      jump\t// in\n    tag_101:\n      dup1\n      0x1f\n      add\n      0x20\n      dup1\n      swap2\n      div\n      mul\n      0x20\n      add\n      mload(0x40)\n      swap1\n      dup2\n      add\n      0x40\n      mstore\n      dup1\n      swap3\n      swap2\n      swap1\n      dup2\n      dup2\n      mstore\n      0x20\n      add\n      dup3\n      dup1\n      sload\n      tag_103\n      swap1\n      tag_102\n      jump\t// in\n    tag_103:\n      dup1\n      iszero\n      tag_104\n      jumpi\n      dup1\n      0x1f\n      lt\n      tag_105\n      jumpi\n      0x0100\n      dup1\n      dup4\n      sload\n      div\n      mul\n      dup4\n      mstore\n      swap2\n      0x20\n      add\n      swap2\n      jump(tag_104)\n    tag_105:\n      dup3\n      add\n      swap2\n      swap1\n      0x00\n      mstore\n      keccak256(0x00, 0x20)\n      swap1\n    tag_106:\n      dup2\n      sload\n      dup2\n      mstore\n      swap1\n      0x01\n      add\n      swap1\n      0x20\n      add\n      dup1\n      dup4\n      gt\n      tag_106\n      jumpi\n      dup3\n      swap1\n      sub\n      0x1f\n      and\n      dup3\n      add\n      swap2\n    tag_104:\n      pop\n      pop\n      pop\n      pop\n      pop\n      swap1\n      pop\n      dup2\n      jump\t// out\n        /* \"contracts/SwirlPrivatePool_placeholder.sol\":1648:1695  uint256 public constant DENOMINATION = 10 ether */\n    tag_56:\n        /* \"contracts/SwirlPrivatePool_placeholder.sol\":1687:1695  10 ether */\n      0x8ac7230489e80000\n        /* \"contracts/SwirlPrivatePool_placeholder.sol\":1648:1695  uint256 public constant DENOMINATION = 10 ether */\n      dup2\n      jump\t// out\n        /* \"contracts/SwirlPrivatePool_placeholder.sol\":5372:6093  function withdraw(... */\n    tag_62:\n        /* \"contracts/SwirlPrivatePool_placeholder.sol\":5543:5558  nullifierHashes */\n      0x2a\n        /* \"contracts/SwirlPrivatePool_placeholder.sol\":5543:5573  nullifierHashes[nullifierHash] */\n      0x00\n        /* \"contracts/SwirlPrivatePool_placeholder.sol\":5559:5572  nullifierHash */\n      dup4\n        /* \"contracts/SwirlPrivatePool_placeholder.sol\":5543:5573  nullifierHashes[nullifierHash] */\n      dup2\n      mstore\n      0x20\n      add\n      swap1\n      dup2\n      mstore\n      0x20\n      add\n      0x00\n      keccak256\n      0x00\n      swap1\n      sload\n      swap1\n      0x0100\n      exp\n      swap1\n      div\n      0xff\n      and\n        /* \"contracts/SwirlPrivatePool_placeholder.sol\":5539:5604  if (nullifierHashes[nullifierHash]) revert NullifierAlreadyUsed() */\n      iszero\n      tag_108\n      jumpi\n        /* \"contracts/SwirlPrivatePool_placeholder.sol\":5582:5604  NullifierAlreadyUsed() */\n      mload(0x40)\n      0xcad2ae0200000000000000000000000000000000000000000000000000000000\n      dup2\n      mstore\n      0x04\n      add\n      mload(0x40)\n      dup1\n      swap2\n      sub\n      swap1\n      revert\n        /* \"contracts/SwirlPrivatePool_placeholder.sol\":5539:5604  if (nullifierHashes[nullifierHash]) revert NullifierAlreadyUsed() */\n    tag_108:\n        /* \"contracts/SwirlPrivatePool_placeholder.sol\":5620:5630  knownRoots */\n      0x2b\n        /* \"contracts/SwirlPrivatePool_placeholder.sol\":5620:5636  knownRoots[root] */\n      0x00\n        /* \"contracts/SwirlPrivatePool_placeholder.sol\":5631:5635  root */\n      dup5\n        /* \"contracts/SwirlPrivatePool_placeholder.sol\":5620:5636  knownRoots[root] */\n      dup2\n      mstore\n      0x20\n      add\n      swap1\n      dup2\n      mstore\n      0x20\n      add\n      0x00\n      keccak256\n      0x00\n      swap1\n      sload\n      swap1\n      0x0100\n      exp\n      swap1\n      div\n      0xff\n      and\n        /* \"contracts/SwirlPrivatePool_placeholder.sol\":5615:5658  if (!knownRoots[root]) revert UnknownRoot() */\n      tag_109\n      jumpi\n        /* \"contracts/SwirlPrivatePool_placeholder.sol\":5645:5658  UnknownRoot() */\n      mload(0x40)\n      0x8c52011600000000000000000000000000000000000000000000000000000000\n      dup2\n      mstore\n      0x04\n      add\n      mload(0x40)\n      dup1\n      swap2\n      sub\n      swap1\n      revert\n        /* \"contracts/SwirlPrivatePool_placeholder.sol\":5615:5658  if (!knownRoots[root]) revert UnknownRoot() */\n    tag_109:\n        /* \"contracts/SwirlPrivatePool_placeholder.sol\":5671:5700  bytes32[] memory publicInputs */\n      0x00\n        /* \"contracts/SwirlPrivatePool_placeholder.sol\":5717:5718  2 */\n      0x02\n        /* \"contracts/SwirlPrivatePool_placeholder.sol\":5703:5719  new bytes32[](2) */\n      0xffffffffffffffff\n      dup2\n      gt\n      iszero\n      tag_110\n      jumpi\n      tag_111\n      tag_112\n      jump\t// in\n    tag_111:\n    tag_110:\n      mload(0x40)\n      swap1\n      dup1\n      dup3\n      mstore\n      dup1\n      0x20\n      mul\n      0x20\n      add\n      dup3\n      add\n      0x40\n      mstore\n      dup1\n      iszero\n      tag_113\n      jumpi\n      dup2\n      0x20\n      add\n      0x20\n      dup3\n      mul\n      dup1\n      calldatasize\n      dup4\n      calldatacopy\n      dup1\n      dup3\n      add\n      swap2\n      pop\n      pop\n      swap1\n      pop\n    tag_113:\n      pop\n        /* \"contracts/SwirlPrivatePool_placeholder.sol\":5671:5719  bytes32[] memory publicInputs = new bytes32[](2) */\n      swap1\n      pop\n        /* \"contracts/SwirlPrivatePool_placeholder.sol\":5748:5752  root */\n      dup4\n        /* \"contracts/SwirlPrivatePool_placeholder.sol\":5730:5742  publicInputs */\n      dup2\n        /* \"contracts/SwirlPrivatePool_placeholder.sol\":5743:5744  0 */\n      0x00\n        /* \"contracts/SwirlPrivatePool_placeholder.sol\":5730:5745  publicInputs[0] */\n      dup2\n      mload\n      dup2\n      lt\n      tag_114\n      jumpi\n      tag_115\n      tag_116\n      jump\t// in\n    tag_115:\n    tag_114:\n      0x20\n      mul\n      0x20\n      add\n      add\n        /* \"contracts/SwirlPrivatePool_placeholder.sol\":5730:5752  publicInputs[0] = root */\n      dup2\n      dup2\n      mstore\n      pop\n      pop\n        /* \"contracts/SwirlPrivatePool_placeholder.sol\":5781:5794  nullifierHash */\n      dup3\n        /* \"contracts/SwirlPrivatePool_placeholder.sol\":5763:5775  publicInputs */\n      dup2\n        /* \"contracts/SwirlPrivatePool_placeholder.sol\":5776:5777  1 */\n      0x01\n        /* \"contracts/SwirlPrivatePool_placeholder.sol\":5763:5778  publicInputs[1] */\n      dup2\n      mload\n      dup2\n      lt\n      tag_117\n      jumpi\n      tag_118\n      tag_116\n      jump\t// in\n    tag_118:\n    tag_117:\n      0x20\n      mul\n      0x20\n      add\n      add\n        /* \"contracts/SwirlPrivatePool_placeholder.sol\":5763:5794  publicInputs[1] = nullifierHash */\n      dup2\n      dup2\n      mstore\n      pop\n      pop\n        /* \"contracts/SwirlPrivatePool_placeholder.sol\":5812:5820  verifier */\n      immutable(\"0x606503ebd6bdca7290248af82fd5a09ca0489398da9f242244210336ae6ece9f\")\n        /* \"contracts/SwirlPrivatePool_placeholder.sol\":5812:5827  verifier.verify */\n      0xffffffffffffffffffffffffffffffffffffffff\n      and\n      0xea50d0e4\n        /* \"contracts/SwirlPrivatePool_placeholder.sol\":5828:5833  proof */\n      dup8\n      dup8\n        /* \"contracts/SwirlPrivatePool_placeholder.sol\":5835:5847  publicInputs */\n      dup5\n        /* \"contracts/SwirlPrivatePool_placeholder.sol\":5812:5848  verifier.verify(proof, publicInputs) */\n      mload(0x40)\n      dup5\n      0xffffffff\n      and\n      0xe0\n      shl\n      dup2\n      mstore\n      0x04\n      add\n      tag_119\n      swap4\n      swap3\n      swap2\n      swap1\n      tag_120\n      jump\t// in\n    tag_119:\n      0x20\n      mload(0x40)\n      dup1\n      dup4\n      sub\n      dup2\n      dup7\n      gas\n      staticcall\n      iszero\n      dup1\n      iszero\n      tag_122\n      jumpi\n      returndatacopy(0x00, 0x00, returndatasize)\n      revert(0x00, returndatasize)\n    tag_122:\n      pop\n      pop\n      pop\n      pop\n      mload(0x40)\n      returndatasize\n      not(0x1f)\n      0x1f\n      dup3\n      add\n      and\n      dup3\n      add\n      dup1\n      0x40\n      mstore\n      pop\n      dup2\n      add\n      swap1\n      tag_123\n      swap2\n      swap1\n      tag_124\n      jump\t// in\n    tag_123:\n        /* \"contracts/SwirlPrivatePool_placeholder.sol\":5807:5871  if (!verifier.verify(proof, publicInputs)) revert InvalidProof() */\n      tag_125\n      jumpi\n        /* \"contracts/SwirlPrivatePool_placeholder.sol\":5857:5871  InvalidProof() */\n      mload(0x40)\n      0x09bde33900000000000000000000000000000000000000000000000000000000\n      dup2\n      mstore\n      0x04\n      add\n      mload(0x40)\n      dup1\n      swap2\n      sub\n      swap1\n      revert\n        /* \"contracts/SwirlPrivatePool_placeholder.sol\":5807:5871  if (!verifier.verify(proof, publicInputs)) revert InvalidProof() */\n    tag_125:\n        /* \"contracts/SwirlPrivatePool_placeholder.sol\":5917:5921  true */\n      0x01\n        /* \"contracts/SwirlPrivatePool_placeholder.sol\":5884:5899  nullifierHashes */\n      0x2a\n        /* \"contracts/SwirlPrivatePool_placeholder.sol\":5884:5914  nullifierHashes[nullifierHash] */\n      0x00\n        /* \"contracts/SwirlPrivatePool_placeholder.sol\":5900:5913  nullifierHash */\n      dup6\n        /* \"contracts/SwirlPrivatePool_placeholder.sol\":5884:5914  nullifierHashes[nullifierHash] */\n      dup2\n      mstore\n      0x20\n      add\n      swap1\n      dup2\n      mstore\n      0x20\n      add\n      0x00\n      keccak256\n      0x00\n        /* \"contracts/SwirlPrivatePool_placeholder.sol\":5884:5921  nullifierHashes[nullifierHash] = true */\n      0x0100\n      exp\n      dup2\n      sload\n      dup2\n      0xff\n      mul\n      not\n      and\n      swap1\n      dup4\n      iszero\n      iszero\n      mul\n      or\n      swap1\n      sstore\n      pop\n        /* \"contracts/SwirlPrivatePool_placeholder.sol\":5935:5942  bool ok */\n      0x00\n        /* \"contracts/SwirlPrivatePool_placeholder.sol\":5947:5956  recipient */\n      dup3\n        /* \"contracts/SwirlPrivatePool_placeholder.sol\":5947:5961  recipient.call */\n      0xffffffffffffffffffffffffffffffffffffffff\n      and\n        /* \"contracts/SwirlPrivatePool_placeholder.sol\":1687:1695  10 ether */\n      0x8ac7230489e80000\n        /* \"contracts/SwirlPrivatePool_placeholder.sol\":5947:5986  recipient.call{value: DENOMINATION}(\"\") */\n      mload(0x40)\n      tag_126\n      swap1\n      tag_127\n      jump\t// in\n    tag_126:\n      0x00\n      mload(0x40)\n      dup1\n      dup4\n      sub\n      dup2\n      dup6\n      dup8\n      gas\n      call\n      swap3\n      pop\n      pop\n      pop\n      returndatasize\n      dup1\n      0x00\n      dup2\n      eq\n      tag_130\n      jumpi\n      mload(0x40)\n      swap2\n      pop\n      and(add(returndatasize, 0x3f), not(0x1f))\n      dup3\n      add\n      0x40\n      mstore\n      returndatasize\n      dup3\n      mstore\n      returndatasize\n      0x00\n      0x20\n      dup5\n      add\n      returndatacopy\n      jump(tag_129)\n    tag_130:\n      0x60\n      swap2\n      pop\n    tag_129:\n      pop\n        /* \"contracts/SwirlPrivatePool_placeholder.sol\":5934:5986  (bool ok,) = recipient.call{value: DENOMINATION}(\"\") */\n      pop\n      swap1\n      pop\n        /* \"contracts/SwirlPrivatePool_placeholder.sol\":6005:6007  ok */\n      dup1\n        /* \"contracts/SwirlPrivatePool_placeholder.sol\":5997:6031  require(ok, \"MNT transfer failed\") */\n      tag_131\n      jumpi\n      mload(0x40)\n      0x08c379a000000000000000000000000000000000000000000000000000000000\n      dup2\n      mstore\n      0x04\n      add\n      tag_132\n      swap1\n      tag_133\n      jump\t// in\n    tag_132:\n      mload(0x40)\n      dup1\n      swap2\n      sub\n      swap1\n      revert\n    tag_131:\n        /* \"contracts/SwirlPrivatePool_placeholder.sol\":6060:6069  recipient */\n      dup3\n        /* \"contracts/SwirlPrivatePool_placeholder.sol\":6049:6085  Withdrawal(recipient, nullifierHash) */\n      0xffffffffffffffffffffffffffffffffffffffff\n      and\n      0x0ce490531f6c8ae2f1ff174643bc8b7ed5e52987ab50dc1e8f33655d2cd8c90b\n        /* \"contracts/SwirlPrivatePool_placeholder.sol\":6071:6084  nullifierHash */\n      dup6\n        /* \"contracts/SwirlPrivatePool_placeholder.sol\":6049:6085  Withdrawal(recipient, nullifierHash) */\n      mload(0x40)\n      tag_134\n      swap2\n      swap1\n      tag_83\n      jump\t// in\n    tag_134:\n      mload(0x40)\n      dup1\n      swap2\n      sub\n      swap1\n      log2\n        /* \"contracts/SwirlPrivatePool_placeholder.sol\":5528:6093  {... */\n      pop\n      pop\n        /* \"contracts/SwirlPrivatePool_placeholder.sol\":5372:6093  function withdraw(... */\n      pop\n      pop\n      pop\n      pop\n      pop\n      jump\t// out\n        /* \"contracts/SwirlPrivatePool_placeholder.sol\":2050:2087  IPoseidonT2 public immutable poseidon */\n    tag_65:\n      immutable(\"0xcc143a676b82d5e07b2c9d57717b403ab3c58caa273a42cdb95b15980141a86c\")\n      dup2\n      jump\t// out\n        /* \"contracts/SwirlPrivatePool_placeholder.sol\":3833:5006  function deposit(... */\n    tag_71:\n        /* \"contracts/SwirlPrivatePool_placeholder.sol\":1564:1641  21888242871839275222246405745257275088548364400416034343698204186575808495617 */\n      0x30644e72e131a029b85045b68181585d2833e84879b9709143e1f593f0000001\n        /* \"contracts/SwirlPrivatePool_placeholder.sol\":3969:3979  commitment */\n      dup4\n        /* \"contracts/SwirlPrivatePool_placeholder.sol\":3961:3980  uint256(commitment) */\n      0x00\n      shr\n        /* \"contracts/SwirlPrivatePool_placeholder.sol\":3961:3996  uint256(commitment) < FIELD_MODULUS */\n      lt\n        /* \"contracts/SwirlPrivatePool_placeholder.sol\":3953:4019  require(uint256(commitment) < FIELD_MODULUS, \"Invalid Commitment\") */\n      tag_136\n      jumpi\n      mload(0x40)\n      0x08c379a000000000000000000000000000000000000000000000000000000000\n      dup2\n      mstore\n      0x04\n      add\n      tag_137\n      swap1\n      tag_138\n      jump\t// in\n    tag_137:\n      mload(0x40)\n      dup1\n      swap2\n      sub\n      swap1\n      revert\n    tag_136:\n        /* \"contracts/SwirlPrivatePool_placeholder.sol\":1687:1695  10 ether */\n      0x8ac7230489e80000\n        /* \"contracts/SwirlPrivatePool_placeholder.sol\":4034:4043  msg.value */\n      callvalue\n        /* \"contracts/SwirlPrivatePool_placeholder.sol\":4034:4059  msg.value != DENOMINATION */\n      eq\n        /* \"contracts/SwirlPrivatePool_placeholder.sol\":4030:4089  if (msg.value != DENOMINATION) revert InvalidDenomination() */\n      tag_139\n      jumpi\n        /* \"contracts/SwirlPrivatePool_placeholder.sol\":4068:4089  InvalidDenomination() */\n      mload(0x40)\n      0xf067b3c600000000000000000000000000000000000000000000000000000000\n      dup2\n      mstore\n      0x04\n      add\n      mload(0x40)\n      dup1\n      swap2\n      sub\n      swap1\n      revert\n        /* \"contracts/SwirlPrivatePool_placeholder.sol\":4030:4089  if (msg.value != DENOMINATION) revert InvalidDenomination() */\n    tag_139:\n        /* \"contracts/SwirlPrivatePool_placeholder.sol\":1741:1743  20 */\n      0x14\n        /* \"contracts/SwirlPrivatePool_placeholder.sol\":1796:1811  1 << TREE_DEPTH */\n      0xffffffff\n      and\n        /* \"contracts/SwirlPrivatePool_placeholder.sol\":1796:1797  1 */\n      0x01\n        /* \"contracts/SwirlPrivatePool_placeholder.sol\":1796:1811  1 << TREE_DEPTH */\n      swap1\n      shl\n        /* \"contracts/SwirlPrivatePool_placeholder.sol\":4104:4127  nextIndex >= MAX_LEAVES */\n      0xffffffff\n      and\n        /* \"contracts/SwirlPrivatePool_placeholder.sol\":4104:4113  nextIndex */\n      0x29\n      0x00\n      swap1\n      sload\n      swap1\n      0x0100\n      exp\n      swap1\n      div\n      0xffffffff\n      and\n        /* \"contracts/SwirlPrivatePool_placeholder.sol\":4104:4127  nextIndex >= MAX_LEAVES */\n      0xffffffff\n      and\n      lt\n        /* \"contracts/SwirlPrivatePool_placeholder.sol\":4100:4148  if (nextIndex >= MAX_LEAVES) revert TreeIsFull() */\n      tag_140\n      jumpi\n        /* \"contracts/SwirlPrivatePool_placeholder.sol\":4136:4148  TreeIsFull() */\n      mload(0x40)\n      0xed732d0c00000000000000000000000000000000000000000000000000000000\n      dup2\n      mstore\n      0x04\n      add\n      mload(0x40)\n      dup1\n      swap2\n      sub\n      swap1\n      revert\n        /* \"contracts/SwirlPrivatePool_placeholder.sol\":4100:4148  if (nextIndex >= MAX_LEAVES) revert TreeIsFull() */\n    tag_140:\n        /* \"contracts/SwirlPrivatePool_placeholder.sol\":4161:4173  uint32 index */\n      0x00\n        /* \"contracts/SwirlPrivatePool_placeholder.sol\":4176:4185  nextIndex */\n      0x29\n      0x00\n      swap1\n      sload\n      swap1\n      0x0100\n      exp\n      swap1\n      div\n      0xffffffff\n      and\n        /* \"contracts/SwirlPrivatePool_placeholder.sol\":4161:4185  uint32 index = nextIndex */\n      swap1\n      pop\n        /* \"contracts/SwirlPrivatePool_placeholder.sol\":4196:4205  nextIndex */\n      0x29\n      0x00\n        /* \"contracts/SwirlPrivatePool_placeholder.sol\":4196:4207  nextIndex++ */\n      dup2\n      dup2\n      swap1\n      sload\n      swap1\n      0x0100\n      exp\n      swap1\n      div\n      0xffffffff\n      and\n      dup1\n      swap3\n      swap2\n      swap1\n      tag_141\n      swap1\n      tag_142\n      jump\t// in\n    tag_141:\n      swap2\n      swap1\n      0x0100\n      exp\n      dup2\n      sload\n      dup2\n      0xffffffff\n      mul\n      not\n      and\n      swap1\n      dup4\n      0xffffffff\n      and\n      mul\n      or\n      swap1\n      sstore\n      pop\n      pop\n        /* \"contracts/SwirlPrivatePool_placeholder.sol\":4220:4239  uint256 currentHash */\n      0x00\n        /* \"contracts/SwirlPrivatePool_placeholder.sol\":4250:4260  commitment */\n      dup5\n        /* \"contracts/SwirlPrivatePool_placeholder.sol\":4242:4261  uint256(commitment) */\n      0x00\n      shr\n        /* \"contracts/SwirlPrivatePool_placeholder.sol\":4220:4261  uint256 currentHash = uint256(commitment) */\n      swap1\n      pop\n        /* \"contracts/SwirlPrivatePool_placeholder.sol\":4279:4287  uint32 i */\n      0x00\n        /* \"contracts/SwirlPrivatePool_placeholder.sol\":4290:4291  0 */\n      0x00\n        /* \"contracts/SwirlPrivatePool_placeholder.sol\":4279:4291  uint32 i = 0 */\n      swap1\n      pop\n        /* \"contracts/SwirlPrivatePool_placeholder.sol\":4274:4784  for (uint32 i = 0; i < TREE_DEPTH; i++) {... */\n    tag_143:\n        /* \"contracts/SwirlPrivatePool_placeholder.sol\":1741:1743  20 */\n      0x14\n        /* \"contracts/SwirlPrivatePool_placeholder.sol\":4293:4307  i < TREE_DEPTH */\n      0xffffffff\n      and\n        /* \"contracts/SwirlPrivatePool_placeholder.sol\":4293:4294  i */\n      dup2\n        /* \"contracts/SwirlPrivatePool_placeholder.sol\":4293:4307  i < TREE_DEPTH */\n      0xffffffff\n      and\n      lt\n        /* \"contracts/SwirlPrivatePool_placeholder.sol\":4274:4784  for (uint32 i = 0; i < TREE_DEPTH; i++) {... */\n      iszero\n      tag_144\n      jumpi\n        /* \"contracts/SwirlPrivatePool_placeholder.sol\":4348:4349  0 */\n      0x00\n        /* \"contracts/SwirlPrivatePool_placeholder.sol\":4342:4343  1 */\n      0x01\n        /* \"contracts/SwirlPrivatePool_placeholder.sol\":4334:4339  index */\n      dup5\n        /* \"contracts/SwirlPrivatePool_placeholder.sol\":4334:4343  index & 1 */\n      and\n        /* \"contracts/SwirlPrivatePool_placeholder.sol\":4333:4349  (index & 1) == 0 */\n      0xffffffff\n      and\n      sub\n        /* \"contracts/SwirlPrivatePool_placeholder.sol\":4329:4747  if ((index & 1) == 0) {... */\n      tag_146\n      jumpi\n        /* \"contracts/SwirlPrivatePool_placeholder.sol\":4398:4409  currentHash */\n      dup2\n        /* \"contracts/SwirlPrivatePool_placeholder.sol\":4390:4410  bytes32(currentHash) */\n      0x00\n      shl\n        /* \"contracts/SwirlPrivatePool_placeholder.sol\":4370:4384  filledSubtrees */\n      0x14\n        /* \"contracts/SwirlPrivatePool_placeholder.sol\":4385:4386  i */\n      dup3\n        /* \"contracts/SwirlPrivatePool_placeholder.sol\":4370:4387  filledSubtrees[i] */\n      0xffffffff\n      and\n      0x14\n      dup2\n      lt\n      tag_147\n      jumpi\n      tag_148\n      tag_116\n      jump\t// in\n    tag_148:\n    tag_147:\n      add\n        /* \"contracts/SwirlPrivatePool_placeholder.sol\":4370:4410  filledSubtrees[i] = bytes32(currentHash) */\n      dup2\n      swap1\n      sstore\n      pop\n        /* \"contracts/SwirlPrivatePool_placeholder.sol\":4443:4451  poseidon */\n      immutable(\"0xcc143a676b82d5e07b2c9d57717b403ab3c58caa273a42cdb95b15980141a86c\")\n        /* \"contracts/SwirlPrivatePool_placeholder.sol\":4443:4460  poseidon.poseidon */\n      0xffffffffffffffffffffffffffffffffffffffff\n      and\n      0x29a5f2f6\n        /* \"contracts/SwirlPrivatePool_placeholder.sol\":4443:4555  poseidon.poseidon([... */\n      mload(0x40)\n      dup1\n      0x40\n      add\n      0x40\n      mstore\n      dup1\n        /* \"contracts/SwirlPrivatePool_placeholder.sol\":4484:4495  currentHash */\n      dup6\n        /* \"contracts/SwirlPrivatePool_placeholder.sol\":4443:4555  poseidon.poseidon([... */\n      dup2\n      mstore\n      0x20\n      add\n        /* \"contracts/SwirlPrivatePool_placeholder.sol\":4526:4531  zeros */\n      0x00\n        /* \"contracts/SwirlPrivatePool_placeholder.sol\":4532:4533  i */\n      dup6\n        /* \"contracts/SwirlPrivatePool_placeholder.sol\":4526:4534  zeros[i] */\n      0xffffffff\n      and\n      0x14\n      dup2\n      lt\n      tag_150\n      jumpi\n      tag_151\n      tag_116\n      jump\t// in\n    tag_151:\n    tag_150:\n      add\n      sload\n        /* \"contracts/SwirlPrivatePool_placeholder.sol\":4518:4535  uint256(zeros[i]) */\n      0x00\n      shr\n        /* \"contracts/SwirlPrivatePool_placeholder.sol\":4443:4555  poseidon.poseidon([... */\n      dup2\n      mstore\n      pop\n      mload(0x40)\n      dup3\n      0xffffffff\n      and\n      0xe0\n      shl\n      dup2\n      mstore\n      0x04\n      add\n      tag_153\n      swap2\n      swap1\n      tag_154\n      jump\t// in\n    tag_153:\n      0x20\n      mload(0x40)\n      dup1\n      dup4\n      sub\n      dup2\n      dup7\n      gas\n      staticcall\n      iszero\n      dup1\n      iszero\n      tag_156\n      jumpi\n      returndatacopy(0x00, 0x00, returndatasize)\n      revert(0x00, returndatasize)\n    tag_156:\n      pop\n      pop\n      pop\n      pop\n      mload(0x40)\n      returndatasize\n      not(0x1f)\n      0x1f\n      dup3\n      add\n      and\n      dup3\n      add\n      dup1\n      0x40\n      mstore\n      pop\n      dup2\n      add\n      swap1\n      tag_157\n      swap2\n      swap1\n      tag_158\n      jump\t// in\n    tag_157:\n        /* \"contracts/SwirlPrivatePool_placeholder.sol\":4429:4555  currentHash = poseidon.poseidon([... */\n      swap2\n      pop\n        /* \"contracts/SwirlPrivatePool_placeholder.sol\":4329:4747  if ((index & 1) == 0) {... */\n      jump(tag_159)\n    tag_146:\n        /* \"contracts/SwirlPrivatePool_placeholder.sol\":4610:4618  poseidon */\n      immutable(\"0xcc143a676b82d5e07b2c9d57717b403ab3c58caa273a42cdb95b15980141a86c\")\n        /* \"contracts/SwirlPrivatePool_placeholder.sol\":4610:4627  poseidon.poseidon */\n      0xffffffffffffffffffffffffffffffffffffffff\n      and\n      0x29a5f2f6\n        /* \"contracts/SwirlPrivatePool_placeholder.sol\":4610:4731  poseidon.poseidon([... */\n      mload(0x40)\n      dup1\n      0x40\n      add\n      0x40\n      mstore\n      dup1\n        /* \"contracts/SwirlPrivatePool_placeholder.sol\":4659:4673  filledSubtrees */\n      0x14\n        /* \"contracts/SwirlPrivatePool_placeholder.sol\":4674:4675  i */\n      dup6\n        /* \"contracts/SwirlPrivatePool_placeholder.sol\":4659:4676  filledSubtrees[i] */\n      0xffffffff\n      and\n      0x14\n      dup2\n      lt\n      tag_160\n      jumpi\n      tag_161\n      tag_116\n      jump\t// in\n    tag_161:\n    tag_160:\n      add\n      sload\n        /* \"contracts/SwirlPrivatePool_placeholder.sol\":4651:4677  uint256(filledSubtrees[i]) */\n      0x00\n      shr\n        /* \"contracts/SwirlPrivatePool_placeholder.sol\":4610:4731  poseidon.poseidon([... */\n      dup2\n      mstore\n      0x20\n      add\n        /* \"contracts/SwirlPrivatePool_placeholder.sol\":4700:4711  currentHash */\n      dup6\n        /* \"contracts/SwirlPrivatePool_placeholder.sol\":4610:4731  poseidon.poseidon([... */\n      dup2\n      mstore\n      pop\n      mload(0x40)\n      dup3\n      0xffffffff\n      and\n      0xe0\n      shl\n      dup2\n      mstore\n      0x04\n      add\n      tag_163\n      swap2\n      swap1\n      tag_154\n      jump\t// in\n    tag_163:\n      0x20\n      mload(0x40)\n      dup1\n      dup4\n      sub\n      dup2\n      dup7\n      gas\n      staticcall\n      iszero\n      dup1\n      iszero\n      tag_165\n      jumpi\n      returndatacopy(0x00, 0x00, returndatasize)\n      revert(0x00, returndatasize)\n    tag_165:\n      pop\n      pop\n      pop\n      pop\n      mload(0x40)\n      returndatasize\n      not(0x1f)\n      0x1f\n      dup3\n      add\n      and\n      dup3\n      add\n      dup1\n      0x40\n      mstore\n      pop\n      dup2\n      add\n      swap1\n      tag_166\n      swap2\n      swap1\n      tag_158\n      jump\t// in\n    tag_166:\n        /* \"contracts/SwirlPrivatePool_placeholder.sol\":4596:4731  currentHash = poseidon.poseidon([... */\n      swap2\n      pop\n        /* \"contracts/SwirlPrivatePool_placeholder.sol\":4329:4747  if ((index & 1) == 0) {... */\n    tag_159:\n        /* \"contracts/SwirlPrivatePool_placeholder.sol\":4771:4772  1 */\n      0x01\n        /* \"contracts/SwirlPrivatePool_placeholder.sol\":4761:4772  index >>= 1 */\n      dup4\n      0xffffffff\n      and\n      swap1\n      shr\n      swap3\n      pop\n        /* \"contracts/SwirlPrivatePool_placeholder.sol\":4309:4312  i++ */\n      dup1\n      dup1\n      0x01\n      add\n      swap2\n      pop\n      pop\n        /* \"contracts/SwirlPrivatePool_placeholder.sol\":4274:4784  for (uint32 i = 0; i < TREE_DEPTH; i++) {... */\n      jump(tag_143)\n    tag_144:\n      pop\n        /* \"contracts/SwirlPrivatePool_placeholder.sol\":4818:4829  currentHash */\n      dup1\n        /* \"contracts/SwirlPrivatePool_placeholder.sol\":4810:4830  bytes32(currentHash) */\n      0x00\n      shl\n        /* \"contracts/SwirlPrivatePool_placeholder.sol\":4796:4807  currentRoot */\n      0x28\n        /* \"contracts/SwirlPrivatePool_placeholder.sol\":4796:4830  currentRoot = bytes32(currentHash) */\n      dup2\n      swap1\n      sstore\n      pop\n        /* \"contracts/SwirlPrivatePool_placeholder.sol\":4867:4871  true */\n      0x01\n        /* \"contracts/SwirlPrivatePool_placeholder.sol\":4841:4851  knownRoots */\n      0x2b\n        /* \"contracts/SwirlPrivatePool_placeholder.sol\":4841:4864  knownRoots[currentRoot] */\n      0x00\n        /* \"contracts/SwirlPrivatePool_placeholder.sol\":4852:4863  currentRoot */\n      sload(0x28)\n        /* \"contracts/SwirlPrivatePool_placeholder.sol\":4841:4864  knownRoots[currentRoot] */\n      dup2\n      mstore\n      0x20\n      add\n      swap1\n      dup2\n      mstore\n      0x20\n      add\n      0x00\n      keccak256\n      0x00\n        /* \"contracts/SwirlPrivatePool_placeholder.sol\":4841:4871  knownRoots[currentRoot] = true */\n      0x0100\n      exp\n      dup2\n      sload\n      dup2\n      0xff\n      mul\n      not\n      and\n      swap1\n      dup4\n      iszero\n      iszero\n      mul\n      or\n      swap1\n      sstore\n      pop\n        /* \"contracts/SwirlPrivatePool_placeholder.sol\":4904:4946  EncryptedNote({ciphertext: encryptedNote}) */\n      mload(0x40)\n      dup1\n      0x20\n      add\n      0x40\n      mstore\n      dup1\n        /* \"contracts/SwirlPrivatePool_placeholder.sol\":4931:4944  encryptedNote */\n      dup6\n      dup6\n        /* \"contracts/SwirlPrivatePool_placeholder.sol\":4904:4946  EncryptedNote({ciphertext: encryptedNote}) */\n      dup1\n      dup1\n      0x1f\n      add\n      0x20\n      dup1\n      swap2\n      div\n      mul\n      0x20\n      add\n      mload(0x40)\n      swap1\n      dup2\n      add\n      0x40\n      mstore\n      dup1\n      swap4\n      swap3\n      swap2\n      swap1\n      dup2\n      dup2\n      mstore\n      0x20\n      add\n      dup4\n      dup4\n      dup1\n      dup3\n      dup5\n      calldatacopy\n      0x00\n      dup2\n      dup5\n      add\n      mstore\n      not(0x1f)\n      0x1f\n      dup3\n      add\n      and\n      swap1\n      pop\n      dup1\n      dup4\n      add\n      swap3\n      pop\n      pop\n      pop\n      pop\n      pop\n      pop\n      pop\n      dup2\n      mstore\n      pop\n        /* \"contracts/SwirlPrivatePool_placeholder.sol\":4884:4889  notes */\n      0x2c\n        /* \"contracts/SwirlPrivatePool_placeholder.sol\":4884:4901  notes[commitment] */\n      0x00\n        /* \"contracts/SwirlPrivatePool_placeholder.sol\":4890:4900  commitment */\n      dup8\n        /* \"contracts/SwirlPrivatePool_placeholder.sol\":4884:4901  notes[commitment] */\n      dup2\n      mstore\n      0x20\n      add\n      swap1\n      dup2\n      mstore\n      0x20\n      add\n      0x00\n      keccak256\n        /* \"contracts/SwirlPrivatePool_placeholder.sol\":4884:4946  notes[commitment] = EncryptedNote({ciphertext: encryptedNote}) */\n      0x00\n      dup3\n      add\n      mload\n      dup2\n      0x00\n      add\n      swap1\n      dup2\n      tag_167\n      swap2\n      swap1\n      tag_168\n      jump\t// in\n    tag_167:\n      pop\n      swap1\n      pop\n      pop\n        /* \"contracts/SwirlPrivatePool_placeholder.sol\":4972:4982  commitment */\n      dup5\n        /* \"contracts/SwirlPrivatePool_placeholder.sol\":4964:4998  Deposit(commitment, nextIndex - 1) */\n      0x84fc9eb8cd0a782a1d1734fbeed616bd0ef775f8b9bd437636b62d634fe4baf3\n        /* \"contracts/SwirlPrivatePool_placeholder.sol\":4996:4997  1 */\n      0x01\n        /* \"contracts/SwirlPrivatePool_placeholder.sol\":4984:4993  nextIndex */\n      0x29\n      0x00\n      swap1\n      sload\n      swap1\n      0x0100\n      exp\n      swap1\n      div\n      0xffffffff\n      and\n        /* \"contracts/SwirlPrivatePool_placeholder.sol\":4984:4997  nextIndex - 1 */\n      tag_169\n      swap2\n      swap1\n      tag_170\n      jump\t// in\n    tag_169:\n        /* \"contracts/SwirlPrivatePool_placeholder.sol\":4964:4998  Deposit(commitment, nextIndex - 1) */\n      mload(0x40)\n      tag_171\n      swap2\n      swap1\n      tag_25\n      jump\t// in\n    tag_171:\n      mload(0x40)\n      dup1\n      swap2\n      sub\n      swap1\n      log2\n        /* \"contracts/SwirlPrivatePool_placeholder.sol\":3942:5006  {... */\n      pop\n      pop\n        /* \"contracts/SwirlPrivatePool_placeholder.sol\":3833:5006  function deposit(... */\n      pop\n      pop\n      pop\n      jump\t// out\n        /* \"contracts/SwirlPrivatePool_placeholder.sol\":6287:6412  function isSpent(bytes32 nullifierHash) external view returns (bool) {... */\n    tag_75:\n        /* \"contracts/SwirlPrivatePool_placeholder.sol\":6350:6354  bool */\n      0x00\n        /* \"contracts/SwirlPrivatePool_placeholder.sol\":6374:6389  nullifierHashes */\n      0x2a\n        /* \"contracts/SwirlPrivatePool_placeholder.sol\":6374:6404  nullifierHashes[nullifierHash] */\n      0x00\n        /* \"contracts/SwirlPrivatePool_placeholder.sol\":6390:6403  nullifierHash */\n      dup4\n        /* \"contracts/SwirlPrivatePool_placeholder.sol\":6374:6404  nullifierHashes[nullifierHash] */\n      dup2\n      mstore\n      0x20\n      add\n      swap1\n      dup2\n      mstore\n      0x20\n      add\n      0x00\n      keccak256\n      0x00\n      swap1\n      sload\n      swap1\n      0x0100\n      exp\n      swap1\n      div\n      0xff\n      and\n        /* \"contracts/SwirlPrivatePool_placeholder.sol\":6367:6404  return nullifierHashes[nullifierHash] */\n      swap1\n      pop\n        /* \"contracts/SwirlPrivatePool_placeholder.sol\":6287:6412  function isSpent(bytes32 nullifierHash) external view returns (bool) {... */\n      swap2\n      swap1\n      pop\n      jump\t// out\n        /* \"contracts/SwirlPrivatePool_placeholder.sol\":2096:2128  bytes32[TREE_DEPTH] public zeros */\n    tag_81:\n      0x00\n      dup2\n      0x14\n      dup2\n      lt\n      tag_173\n      jumpi\n      0x00\n      dup1\n      revert\n    tag_173:\n      add\n      0x00\n      swap2\n      pop\n      swap1\n      pop\n      sload\n      dup2\n      jump\t// out\n        /* \"contracts/SwirlPrivatePool_placeholder.sol\":1702:1743  uint32  public constant TREE_DEPTH   = 20 */\n    tag_86:\n        /* \"contracts/SwirlPrivatePool_placeholder.sol\":1741:1743  20 */\n      0x14\n        /* \"contracts/SwirlPrivatePool_placeholder.sol\":1702:1743  uint32  public constant TREE_DEPTH   = 20 */\n      dup2\n      jump\t// out\n        /* \"contracts/SwirlPrivatePool_placeholder.sol\":2135:2176  bytes32[TREE_DEPTH] public filledSubtrees */\n    tag_91:\n      0x14\n      dup2\n      0x14\n      dup2\n      lt\n      tag_175\n      jumpi\n      0x00\n      dup1\n      revert\n    tag_175:\n      add\n      0x00\n      swap2\n      pop\n      swap1\n      pop\n      sload\n      dup2\n      jump\t// out\n        /* \"contracts/SwirlPrivatePool_placeholder.sol\":2218:2242  uint32  public nextIndex */\n    tag_95:\n      0x29\n      0x00\n      swap1\n      sload\n      swap1\n      0x0100\n      exp\n      swap1\n      div\n      0xffffffff\n      and\n      dup2\n      jump\t// out\n        /* \"contracts/SwirlPrivatePool_placeholder.sol\":2185:2211  bytes32 public currentRoot */\n    tag_99:\n      sload(0x28)\n      dup2\n      jump\t// out\n        /* \"#utility.yul\":7:100   */\n    tag_177:\n        /* \"#utility.yul\":43:50   */\n      0x00\n        /* \"#utility.yul\":83:93   */\n      0xffffffff\n        /* \"#utility.yul\":76:81   */\n      dup3\n        /* \"#utility.yul\":72:94   */\n      and\n        /* \"#utility.yul\":61:94   */\n      swap1\n      pop\n        /* \"#utility.yul\":7:100   */\n      swap2\n      swap1\n      pop\n      jump\t// out\n        /* \"#utility.yul\":106:221   */\n    tag_178:\n        /* \"#utility.yul\":191:214   */\n      tag_258\n        /* \"#utility.yul\":208:213   */\n      dup2\n        /* \"#utility.yul\":191:214   */\n      tag_177\n      jump\t// in\n    tag_258:\n        /* \"#utility.yul\":186:189   */\n      dup3\n        /* \"#utility.yul\":179:215   */\n      mstore\n        /* \"#utility.yul\":106:221   */\n      pop\n      pop\n      jump\t// out\n        /* \"#utility.yul\":227:445   */\n    tag_25:\n        /* \"#utility.yul\":318:322   */\n      0x00\n        /* \"#utility.yul\":356:358   */\n      0x20\n        /* \"#utility.yul\":345:354   */\n      dup3\n        /* \"#utility.yul\":341:359   */\n      add\n        /* \"#utility.yul\":333:359   */\n      swap1\n      pop\n        /* \"#utility.yul\":369:438   */\n      tag_260\n        /* \"#utility.yul\":435:436   */\n      0x00\n        /* \"#utility.yul\":424:433   */\n      dup4\n        /* \"#utility.yul\":420:437   */\n      add\n        /* \"#utility.yul\":411:417   */\n      dup5\n        /* \"#utility.yul\":369:438   */\n      tag_178\n      jump\t// in\n    tag_260:\n        /* \"#utility.yul\":227:445   */\n      swap3\n      swap2\n      pop\n      pop\n      jump\t// out\n        /* \"#utility.yul\":532:649   */\n    tag_180:\n        /* \"#utility.yul\":641:642   */\n      0x00\n        /* \"#utility.yul\":638:639   */\n      0x00\n        /* \"#utility.yul\":631:643   */\n      revert\n        /* \"#utility.yul\":655:772   */\n    tag_181:\n        /* \"#utility.yul\":764:765   */\n      0x00\n        /* \"#utility.yul\":761:762   */\n      0x00\n        /* \"#utility.yul\":754:766   */\n      revert\n        /* \"#utility.yul\":778:855   */\n    tag_182:\n        /* \"#utility.yul\":815:822   */\n      0x00\n        /* \"#utility.yul\":844:849   */\n      dup2\n        /* \"#utility.yul\":833:849   */\n      swap1\n      pop\n        /* \"#utility.yul\":778:855   */\n      swap2\n      swap1\n      pop\n      jump\t// out\n        /* \"#utility.yul\":861:983   */\n    tag_183:\n        /* \"#utility.yul\":934:958   */\n      tag_266\n        /* \"#utility.yul\":952:957   */\n      dup2\n        /* \"#utility.yul\":934:958   */\n      tag_182\n      jump\t// in\n    tag_266:\n        /* \"#utility.yul\":927:932   */\n      dup2\n        /* \"#utility.yul\":924:959   */\n      eq\n        /* \"#utility.yul\":914:977   */\n      tag_267\n      jumpi\n        /* \"#utility.yul\":973:974   */\n      0x00\n        /* \"#utility.yul\":970:971   */\n      0x00\n        /* \"#utility.yul\":963:975   */\n      revert\n        /* \"#utility.yul\":914:977   */\n    tag_267:\n        /* \"#utility.yul\":861:983   */\n      pop\n      jump\t// out\n        /* \"#utility.yul\":989:1128   */\n    tag_184:\n        /* \"#utility.yul\":1035:1040   */\n      0x00\n        /* \"#utility.yul\":1073:1079   */\n      dup2\n        /* \"#utility.yul\":1060:1080   */\n      calldataload\n        /* \"#utility.yul\":1051:1080   */\n      swap1\n      pop\n        /* \"#utility.yul\":1089:1122   */\n      tag_269\n        /* \"#utility.yul\":1116:1121   */\n      dup2\n        /* \"#utility.yul\":1089:1122   */\n      tag_183\n      jump\t// in\n    tag_269:\n        /* \"#utility.yul\":989:1128   */\n      swap3\n      swap2\n      pop\n      pop\n      jump\t// out\n        /* \"#utility.yul\":1134:1463   */\n    tag_29:\n        /* \"#utility.yul\":1193:1199   */\n      0x00\n        /* \"#utility.yul\":1242:1244   */\n      0x20\n        /* \"#utility.yul\":1230:1239   */\n      dup3\n        /* \"#utility.yul\":1221:1228   */\n      dup5\n        /* \"#utility.yul\":1217:1240   */\n      sub\n        /* \"#utility.yul\":1213:1245   */\n      slt\n        /* \"#utility.yul\":1210:1329   */\n      iszero\n      tag_271\n      jumpi\n        /* \"#utility.yul\":1248:1327   */\n      tag_272\n      tag_180\n      jump\t// in\n    tag_272:\n        /* \"#utility.yul\":1210:1329   */\n    tag_271:\n        /* \"#utility.yul\":1368:1369   */\n      0x00\n        /* \"#utility.yul\":1393:1446   */\n      tag_273\n        /* \"#utility.yul\":1438:1445   */\n      dup5\n        /* \"#utility.yul\":1429:1435   */\n      dup3\n        /* \"#utility.yul\":1418:1427   */\n      dup6\n        /* \"#utility.yul\":1414:1436   */\n      add\n        /* \"#utility.yul\":1393:1446   */\n      tag_184\n      jump\t// in\n    tag_273:\n        /* \"#utility.yul\":1383:1446   */\n      swap2\n      pop\n        /* \"#utility.yul\":1339:1456   */\n      pop\n        /* \"#utility.yul\":1134:1463   */\n      swap3\n      swap2\n      pop\n      pop\n      jump\t// out\n        /* \"#utility.yul\":1469:1559   */\n    tag_185:\n        /* \"#utility.yul\":1503:1510   */\n      0x00\n        /* \"#utility.yul\":1546:1551   */\n      dup2\n        /* \"#utility.yul\":1539:1552   */\n      iszero\n        /* \"#utility.yul\":1532:1553   */\n      iszero\n        /* \"#utility.yul\":1521:1553   */\n      swap1\n      pop\n        /* \"#utility.yul\":1469:1559   */\n      swap2\n      swap1\n      pop\n      jump\t// out\n        /* \"#utility.yul\":1565:1674   */\n    tag_186:\n        /* \"#utility.yul\":1646:1667   */\n      tag_276\n        /* \"#utility.yul\":1661:1666   */\n      dup2\n        /* \"#utility.yul\":1646:1667   */\n      tag_185\n      jump\t// in\n    tag_276:\n        /* \"#utility.yul\":1641:1644   */\n      dup3\n        /* \"#utility.yul\":1634:1668   */\n      mstore\n        /* \"#utility.yul\":1565:1674   */\n      pop\n      pop\n      jump\t// out\n        /* \"#utility.yul\":1680:1890   */\n    tag_32:\n        /* \"#utility.yul\":1767:1771   */\n      0x00\n        /* \"#utility.yul\":1805:1807   */\n      0x20\n        /* \"#utility.yul\":1794:1803   */\n      dup3\n        /* \"#utility.yul\":1790:1808   */\n      add\n        /* \"#utility.yul\":1782:1808   */\n      swap1\n      pop\n        /* \"#utility.yul\":1818:1883   */\n      tag_278\n        /* \"#utility.yul\":1880:1881   */\n      0x00\n        /* \"#utility.yul\":1869:1878   */\n      dup4\n        /* \"#utility.yul\":1865:1882   */\n      add\n        /* \"#utility.yul\":1856:1862   */\n      dup5\n        /* \"#utility.yul\":1818:1883   */\n      tag_186\n      jump\t// in\n    tag_278:\n        /* \"#utility.yul\":1680:1890   */\n      swap3\n      swap2\n      pop\n      pop\n      jump\t// out\n        /* \"#utility.yul\":1896:2022   */\n    tag_187:\n        /* \"#utility.yul\":1933:1940   */\n      0x00\n        /* \"#utility.yul\":1973:2015   */\n      0xffffffffffffffffffffffffffffffffffffffff\n        /* \"#utility.yul\":1966:1971   */\n      dup3\n        /* \"#utility.yul\":1962:2016   */\n      and\n        /* \"#utility.yul\":1951:2016   */\n      swap1\n      pop\n        /* \"#utility.yul\":1896:2022   */\n      swap2\n      swap1\n      pop\n      jump\t// out\n        /* \"#utility.yul\":2028:2088   */\n    tag_188:\n        /* \"#utility.yul\":2056:2059   */\n      0x00\n        /* \"#utility.yul\":2077:2082   */\n      dup2\n        /* \"#utility.yul\":2070:2082   */\n      swap1\n      pop\n        /* \"#utility.yul\":2028:2088   */\n      swap2\n      swap1\n      pop\n      jump\t// out\n        /* \"#utility.yul\":2094:2236   */\n    tag_189:\n        /* \"#utility.yul\":2144:2153   */\n      0x00\n        /* \"#utility.yul\":2177:2230   */\n      tag_282\n        /* \"#utility.yul\":2195:2229   */\n      tag_283\n        /* \"#utility.yul\":2204:2228   */\n      tag_284\n        /* \"#utility.yul\":2222:2227   */\n      dup5\n        /* \"#utility.yul\":2204:2228   */\n      tag_187\n      jump\t// in\n    tag_284:\n        /* \"#utility.yul\":2195:2229   */\n      tag_188\n      jump\t// in\n    tag_283:\n        /* \"#utility.yul\":2177:2230   */\n      tag_187\n      jump\t// in\n    tag_282:\n        /* \"#utility.yul\":2164:2230   */\n      swap1\n      pop\n        /* \"#utility.yul\":2094:2236   */\n      swap2\n      swap1\n      pop\n      jump\t// out\n        /* \"#utility.yul\":2242:2368   */\n    tag_190:\n        /* \"#utility.yul\":2292:2301   */\n      0x00\n        /* \"#utility.yul\":2325:2362   */\n      tag_286\n        /* \"#utility.yul\":2356:2361   */\n      dup3\n        /* \"#utility.yul\":2325:2362   */\n      tag_189\n      jump\t// in\n    tag_286:\n        /* \"#utility.yul\":2312:2362   */\n      swap1\n      pop\n        /* \"#utility.yul\":2242:2368   */\n      swap2\n      swap1\n      pop\n      jump\t// out\n        /* \"#utility.yul\":2374:2516   */\n    tag_191:\n        /* \"#utility.yul\":2440:2449   */\n      0x00\n        /* \"#utility.yul\":2473:2510   */\n      tag_288\n        /* \"#utility.yul\":2504:2509   */\n      dup3\n        /* \"#utility.yul\":2473:2510   */\n      tag_190\n      jump\t// in\n    tag_288:\n        /* \"#utility.yul\":2460:2510   */\n      swap1\n      pop\n        /* \"#utility.yul\":2374:2516   */\n      swap2\n      swap1\n      pop\n      jump\t// out\n        /* \"#utility.yul\":2522:2685   */\n    tag_192:\n        /* \"#utility.yul\":2625:2678   */\n      tag_290\n        /* \"#utility.yul\":2672:2677   */\n      dup2\n        /* \"#utility.yul\":2625:2678   */\n      tag_191\n      jump\t// in\n    tag_290:\n        /* \"#utility.yul\":2620:2623   */\n      dup3\n        /* \"#utility.yul\":2613:2679   */\n      mstore\n        /* \"#utility.yul\":2522:2685   */\n      pop\n      pop\n      jump\t// out\n        /* \"#utility.yul\":2691:2945   */\n    tag_37:\n        /* \"#utility.yul\":2800:2804   */\n      0x00\n        /* \"#utility.yul\":2838:2840   */\n      0x20\n        /* \"#utility.yul\":2827:2836   */\n      dup3\n        /* \"#utility.yul\":2823:2841   */\n      add\n        /* \"#utility.yul\":2815:2841   */\n      swap1\n      pop\n        /* \"#utility.yul\":2851:2938   */\n      tag_292\n        /* \"#utility.yul\":2935:2936   */\n      0x00\n        /* \"#utility.yul\":2924:2933   */\n      dup4\n        /* \"#utility.yul\":2920:2937   */\n      add\n        /* \"#utility.yul\":2911:2917   */\n      dup5\n        /* \"#utility.yul\":2851:2938   */\n      tag_192\n      jump\t// in\n    tag_292:\n        /* \"#utility.yul\":2691:2945   */\n      swap3\n      swap2\n      pop\n      pop\n      jump\t// out\n        /* \"#utility.yul\":2951:3028   */\n    tag_193:\n        /* \"#utility.yul\":2988:2995   */\n      0x00\n        /* \"#utility.yul\":3017:3022   */\n      dup2\n        /* \"#utility.yul\":3006:3022   */\n      swap1\n      pop\n        /* \"#utility.yul\":2951:3028   */\n      swap2\n      swap1\n      pop\n      jump\t// out\n        /* \"#utility.yul\":3034:3152   */\n    tag_194:\n        /* \"#utility.yul\":3121:3145   */\n      tag_295\n        /* \"#utility.yul\":3139:3144   */\n      dup2\n        /* \"#utility.yul\":3121:3145   */\n      tag_193\n      jump\t// in\n    tag_295:\n        /* \"#utility.yul\":3116:3119   */\n      dup3\n        /* \"#utility.yul\":3109:3146   */\n      mstore\n        /* \"#utility.yul\":3034:3152   */\n      pop\n      pop\n      jump\t// out\n        /* \"#utility.yul\":3158:3380   */\n    tag_47:\n        /* \"#utility.yul\":3251:3255   */\n      0x00\n        /* \"#utility.yul\":3289:3291   */\n      0x20\n        /* \"#utility.yul\":3278:3287   */\n      dup3\n        /* \"#utility.yul\":3274:3292   */\n      add\n        /* \"#utility.yul\":3266:3292   */\n      swap1\n      pop\n        /* \"#utility.yul\":3302:3373   */\n      tag_297\n        /* \"#utility.yul\":3370:3371   */\n      0x00\n        /* \"#utility.yul\":3359:3368   */\n      dup4\n        /* \"#utility.yul\":3355:3372   */\n      add\n        /* \"#utility.yul\":3346:3352   */\n      dup5\n        /* \"#utility.yul\":3302:3373   */\n      tag_194\n      jump\t// in\n    tag_297:\n        /* \"#utility.yul\":3158:3380   */\n      swap3\n      swap2\n      pop\n      pop\n      jump\t// out\n        /* \"#utility.yul\":3386:3484   */\n    tag_195:\n        /* \"#utility.yul\":3437:3443   */\n      0x00\n        /* \"#utility.yul\":3471:3476   */\n      dup2\n        /* \"#utility.yul\":3465:3477   */\n      mload\n        /* \"#utility.yul\":3455:3477   */\n      swap1\n      pop\n        /* \"#utility.yul\":3386:3484   */\n      swap2\n      swap1\n      pop\n      jump\t// out\n        /* \"#utility.yul\":3490:3658   */\n    tag_196:\n        /* \"#utility.yul\":3573:3584   */\n      0x00\n        /* \"#utility.yul\":3607:3613   */\n      dup3\n        /* \"#utility.yul\":3602:3605   */\n      dup3\n        /* \"#utility.yul\":3595:3614   */\n      mstore\n        /* \"#utility.yul\":3647:3651   */\n      0x20\n        /* \"#utility.yul\":3642:3645   */\n      dup3\n        /* \"#utility.yul\":3638:3652   */\n      add\n        /* \"#utility.yul\":3623:3652   */\n      swap1\n      pop\n        /* \"#utility.yul\":3490:3658   */\n      swap3\n      swap2\n      pop\n      pop\n      jump\t// out\n        /* \"#utility.yul\":3664:3803   */\n    tag_197:\n        /* \"#utility.yul\":3753:3759   */\n      dup3\n        /* \"#utility.yul\":3748:3751   */\n      dup2\n        /* \"#utility.yul\":3743:3746   */\n      dup4\n        /* \"#utility.yul\":3737:3760   */\n      mcopy\n        /* \"#utility.yul\":3794:3795   */\n      0x00\n        /* \"#utility.yul\":3785:3791   */\n      dup4\n        /* \"#utility.yul\":3780:3783   */\n      dup4\n        /* \"#utility.yul\":3776:3792   */\n      add\n        /* \"#utility.yul\":3769:3796   */\n      mstore\n        /* \"#utility.yul\":3664:3803   */\n      pop\n      pop\n      pop\n      jump\t// out\n        /* \"#utility.yul\":3809:3911   */\n    tag_198:\n        /* \"#utility.yul\":3850:3856   */\n      0x00\n        /* \"#utility.yul\":3901:3903   */\n      0x1f\n        /* \"#utility.yul\":3897:3904   */\n      not\n        /* \"#utility.yul\":3892:3894   */\n      0x1f\n        /* \"#utility.yul\":3885:3890   */\n      dup4\n        /* \"#utility.yul\":3881:3895   */\n      add\n        /* \"#utility.yul\":3877:3905   */\n      and\n        /* \"#utility.yul\":3867:3905   */\n      swap1\n      pop\n        /* \"#utility.yul\":3809:3911   */\n      swap2\n      swap1\n      pop\n      jump\t// out\n        /* \"#utility.yul\":3917:4290   */\n    tag_199:\n        /* \"#utility.yul\":4003:4006   */\n      0x00\n        /* \"#utility.yul\":4031:4069   */\n      tag_303\n        /* \"#utility.yul\":4063:4068   */\n      dup3\n        /* \"#utility.yul\":4031:4069   */\n      tag_195\n      jump\t// in\n    tag_303:\n        /* \"#utility.yul\":4085:4155   */\n      tag_304\n        /* \"#utility.yul\":4148:4154   */\n      dup2\n        /* \"#utility.yul\":4143:4146   */\n      dup6\n        /* \"#utility.yul\":4085:4155   */\n      tag_196\n      jump\t// in\n    tag_304:\n        /* \"#utility.yul\":4078:4155   */\n      swap4\n      pop\n        /* \"#utility.yul\":4164:4229   */\n      tag_305\n        /* \"#utility.yul\":4222:4228   */\n      dup2\n        /* \"#utility.yul\":4217:4220   */\n      dup6\n        /* \"#utility.yul\":4210:4214   */\n      0x20\n        /* \"#utility.yul\":4203:4208   */\n      dup7\n        /* \"#utility.yul\":4199:4215   */\n      add\n        /* \"#utility.yul\":4164:4229   */\n      tag_197\n      jump\t// in\n    tag_305:\n        /* \"#utility.yul\":4254:4283   */\n      tag_306\n        /* \"#utility.yul\":4276:4282   */\n      dup2\n        /* \"#utility.yul\":4254:4283   */\n      tag_198\n      jump\t// in\n    tag_306:\n        /* \"#utility.yul\":4249:4252   */\n      dup5\n        /* \"#utility.yul\":4245:4284   */\n      add\n        /* \"#utility.yul\":4238:4284   */\n      swap2\n      pop\n        /* \"#utility.yul\":4007:4290   */\n      pop\n        /* \"#utility.yul\":3917:4290   */\n      swap3\n      swap2\n      pop\n      pop\n      jump\t// out\n        /* \"#utility.yul\":4296:4605   */\n    tag_53:\n        /* \"#utility.yul\":4407:4411   */\n      0x00\n        /* \"#utility.yul\":4445:4447   */\n      0x20\n        /* \"#utility.yul\":4434:4443   */\n      dup3\n        /* \"#utility.yul\":4430:4448   */\n      add\n        /* \"#utility.yul\":4422:4448   */\n      swap1\n      pop\n        /* \"#utility.yul\":4494:4503   */\n      dup2\n        /* \"#utility.yul\":4488:4492   */\n      dup2\n        /* \"#utility.yul\":4484:4504   */\n      sub\n        /* \"#utility.yul\":4480:4481   */\n      0x00\n        /* \"#utility.yul\":4469:4478   */\n      dup4\n        /* \"#utility.yul\":4465:4482   */\n      add\n        /* \"#utility.yul\":4458:4505   */\n      mstore\n        /* \"#utility.yul\":4522:4598   */\n      tag_308\n        /* \"#utility.yul\":4593:4597   */\n      dup2\n        /* \"#utility.yul\":4584:4590   */\n      dup5\n        /* \"#utility.yul\":4522:4598   */\n      tag_199\n      jump\t// in\n    tag_308:\n        /* \"#utility.yul\":4514:4598   */\n      swap1\n      pop\n        /* \"#utility.yul\":4296:4605   */\n      swap3\n      swap2\n      pop\n      pop\n      jump\t// out\n        /* \"#utility.yul\":4611:4728   */\n    tag_200:\n        /* \"#utility.yul\":4720:4721   */\n      0x00\n        /* \"#utility.yul\":4717:4718   */\n      0x00\n        /* \"#utility.yul\":4710:4722   */\n      revert\n        /* \"#utility.yul\":4734:4851   */\n    tag_201:\n        /* \"#utility.yul\":4843:4844   */\n      0x00\n        /* \"#utility.yul\":4840:4841   */\n      0x00\n        /* \"#utility.yul\":4833:4845   */\n      revert\n        /* \"#utility.yul\":4857:4974   */\n    tag_202:\n        /* \"#utility.yul\":4966:4967   */\n      0x00\n        /* \"#utility.yul\":4963:4964   */\n      0x00\n        /* \"#utility.yul\":4956:4968   */\n      revert\n        /* \"#utility.yul\":4993:5545   */\n    tag_203:\n        /* \"#utility.yul\":5050:5058   */\n      0x00\n        /* \"#utility.yul\":5060:5066   */\n      0x00\n        /* \"#utility.yul\":5110:5113   */\n      dup4\n        /* \"#utility.yul\":5103:5107   */\n      0x1f\n        /* \"#utility.yul\":5095:5101   */\n      dup5\n        /* \"#utility.yul\":5091:5108   */\n      add\n        /* \"#utility.yul\":5087:5114   */\n      slt\n        /* \"#utility.yul\":5077:5199   */\n      tag_313\n      jumpi\n        /* \"#utility.yul\":5118:5197   */\n      tag_314\n      tag_200\n      jump\t// in\n    tag_314:\n        /* \"#utility.yul\":5077:5199   */\n    tag_313:\n        /* \"#utility.yul\":5231:5237   */\n      dup3\n        /* \"#utility.yul\":5218:5238   */\n      calldataload\n        /* \"#utility.yul\":5208:5238   */\n      swap1\n      pop\n        /* \"#utility.yul\":5261:5279   */\n      0xffffffffffffffff\n        /* \"#utility.yul\":5253:5259   */\n      dup2\n        /* \"#utility.yul\":5250:5280   */\n      gt\n        /* \"#utility.yul\":5247:5364   */\n      iszero\n      tag_315\n      jumpi\n        /* \"#utility.yul\":5283:5362   */\n      tag_316\n      tag_201\n      jump\t// in\n    tag_316:\n        /* \"#utility.yul\":5247:5364   */\n    tag_315:\n        /* \"#utility.yul\":5397:5401   */\n      0x20\n        /* \"#utility.yul\":5389:5395   */\n      dup4\n        /* \"#utility.yul\":5385:5402   */\n      add\n        /* \"#utility.yul\":5373:5402   */\n      swap2\n      pop\n        /* \"#utility.yul\":5451:5454   */\n      dup4\n        /* \"#utility.yul\":5443:5447   */\n      0x01\n        /* \"#utility.yul\":5435:5441   */\n      dup3\n        /* \"#utility.yul\":5431:5448   */\n      mul\n        /* \"#utility.yul\":5421:5429   */\n      dup4\n        /* \"#utility.yul\":5417:5449   */\n      add\n        /* \"#utility.yul\":5414:5455   */\n      gt\n        /* \"#utility.yul\":5411:5539   */\n      iszero\n      tag_317\n      jumpi\n        /* \"#utility.yul\":5458:5537   */\n      tag_318\n      tag_202\n      jump\t// in\n    tag_318:\n        /* \"#utility.yul\":5411:5539   */\n    tag_317:\n        /* \"#utility.yul\":4993:5545   */\n      swap3\n      pop\n      swap3\n      swap1\n      pop\n      jump\t// out\n        /* \"#utility.yul\":5551:5655   */\n    tag_204:\n        /* \"#utility.yul\":5596:5603   */\n      0x00\n        /* \"#utility.yul\":5625:5649   */\n      tag_320\n        /* \"#utility.yul\":5643:5648   */\n      dup3\n        /* \"#utility.yul\":5625:5649   */\n      tag_187\n      jump\t// in\n    tag_320:\n        /* \"#utility.yul\":5614:5649   */\n      swap1\n      pop\n        /* \"#utility.yul\":5551:5655   */\n      swap2\n      swap1\n      pop\n      jump\t// out\n        /* \"#utility.yul\":5661:5799   */\n    tag_205:\n        /* \"#utility.yul\":5742:5774   */\n      tag_322\n        /* \"#utility.yul\":5768:5773   */\n      dup2\n        /* \"#utility.yul\":5742:5774   */\n      tag_204\n      jump\t// in\n    tag_322:\n        /* \"#utility.yul\":5735:5740   */\n      dup2\n        /* \"#utility.yul\":5732:5775   */\n      eq\n        /* \"#utility.yul\":5722:5793   */\n      tag_323\n      jumpi\n        /* \"#utility.yul\":5789:5790   */\n      0x00\n        /* \"#utility.yul\":5786:5787   */\n      0x00\n        /* \"#utility.yul\":5779:5791   */\n      revert\n        /* \"#utility.yul\":5722:5793   */\n    tag_323:\n        /* \"#utility.yul\":5661:5799   */\n      pop\n      jump\t// out\n        /* \"#utility.yul\":5805:5960   */\n    tag_206:\n        /* \"#utility.yul\":5859:5864   */\n      0x00\n        /* \"#utility.yul\":5897:5903   */\n      dup2\n        /* \"#utility.yul\":5884:5904   */\n      calldataload\n        /* \"#utility.yul\":5875:5904   */\n      swap1\n      pop\n        /* \"#utility.yul\":5913:5954   */\n      tag_325\n        /* \"#utility.yul\":5948:5953   */\n      dup2\n        /* \"#utility.yul\":5913:5954   */\n      tag_205\n      jump\t// in\n    tag_325:\n        /* \"#utility.yul\":5805:5960   */\n      swap3\n      swap2\n      pop\n      pop\n      jump\t// out\n        /* \"#utility.yul\":5966:6945   */\n    tag_61:\n        /* \"#utility.yul\":6071:6077   */\n      0x00\n        /* \"#utility.yul\":6079:6085   */\n      0x00\n        /* \"#utility.yul\":6087:6093   */\n      0x00\n        /* \"#utility.yul\":6095:6101   */\n      0x00\n        /* \"#utility.yul\":6103:6109   */\n      0x00\n        /* \"#utility.yul\":6152:6155   */\n      0x80\n        /* \"#utility.yul\":6140:6149   */\n      dup7\n        /* \"#utility.yul\":6131:6138   */\n      dup9\n        /* \"#utility.yul\":6127:6150   */\n      sub\n        /* \"#utility.yul\":6123:6156   */\n      slt\n        /* \"#utility.yul\":6120:6240   */\n      iszero\n      tag_327\n      jumpi\n        /* \"#utility.yul\":6159:6238   */\n      tag_328\n      tag_180\n      jump\t// in\n    tag_328:\n        /* \"#utility.yul\":6120:6240   */\n    tag_327:\n        /* \"#utility.yul\":6307:6308   */\n      0x00\n        /* \"#utility.yul\":6296:6305   */\n      dup7\n        /* \"#utility.yul\":6292:6309   */\n      add\n        /* \"#utility.yul\":6279:6310   */\n      calldataload\n        /* \"#utility.yul\":6337:6355   */\n      0xffffffffffffffff\n        /* \"#utility.yul\":6329:6335   */\n      dup2\n        /* \"#utility.yul\":6326:6356   */\n      gt\n        /* \"#utility.yul\":6323:6440   */\n      iszero\n      tag_329\n      jumpi\n        /* \"#utility.yul\":6359:6438   */\n      tag_330\n      tag_181\n      jump\t// in\n    tag_330:\n        /* \"#utility.yul\":6323:6440   */\n    tag_329:\n        /* \"#utility.yul\":6472:6536   */\n      tag_331\n        /* \"#utility.yul\":6528:6535   */\n      dup9\n        /* \"#utility.yul\":6519:6525   */\n      dup3\n        /* \"#utility.yul\":6508:6517   */\n      dup10\n        /* \"#utility.yul\":6504:6526   */\n      add\n        /* \"#utility.yul\":6472:6536   */\n      tag_203\n      jump\t// in\n    tag_331:\n        /* \"#utility.yul\":6454:6536   */\n      swap6\n      pop\n      swap6\n      pop\n        /* \"#utility.yul\":6250:6546   */\n      pop\n        /* \"#utility.yul\":6585:6587   */\n      0x20\n        /* \"#utility.yul\":6611:6664   */\n      tag_332\n        /* \"#utility.yul\":6656:6663   */\n      dup9\n        /* \"#utility.yul\":6647:6653   */\n      dup3\n        /* \"#utility.yul\":6636:6645   */\n      dup10\n        /* \"#utility.yul\":6632:6654   */\n      add\n        /* \"#utility.yul\":6611:6664   */\n      tag_184\n      jump\t// in\n    tag_332:\n        /* \"#utility.yul\":6601:6664   */\n      swap4\n      pop\n        /* \"#utility.yul\":6556:6674   */\n      pop\n        /* \"#utility.yul\":6713:6715   */\n      0x40\n        /* \"#utility.yul\":6739:6792   */\n      tag_333\n        /* \"#utility.yul\":6784:6791   */\n      dup9\n        /* \"#utility.yul\":6775:6781   */\n      dup3\n        /* \"#utility.yul\":6764:6773   */\n      dup10\n        /* \"#utility.yul\":6760:6782   */\n      add\n        /* \"#utility.yul\":6739:6792   */\n      tag_184\n      jump\t// in\n    tag_333:\n        /* \"#utility.yul\":6729:6792   */\n      swap3\n      pop\n        /* \"#utility.yul\":6684:6802   */\n      pop\n        /* \"#utility.yul\":6841:6843   */\n      0x60\n        /* \"#utility.yul\":6867:6928   */\n      tag_334\n        /* \"#utility.yul\":6920:6927   */\n      dup9\n        /* \"#utility.yul\":6911:6917   */\n      dup3\n        /* \"#utility.yul\":6900:6909   */\n      dup10\n        /* \"#utility.yul\":6896:6918   */\n      add\n        /* \"#utility.yul\":6867:6928   */\n      tag_206\n      jump\t// in\n    tag_334:\n        /* \"#utility.yul\":6857:6928   */\n      swap2\n      pop\n        /* \"#utility.yul\":6812:6938   */\n      pop\n        /* \"#utility.yul\":5966:6945   */\n      swap3\n      swap6\n      pop\n      swap3\n      swap6\n      swap1\n      swap4\n      pop\n      jump\t// out\n        /* \"#utility.yul\":6951:7095   */\n    tag_207:\n        /* \"#utility.yul\":7019:7028   */\n      0x00\n        /* \"#utility.yul\":7052:7089   */\n      tag_336\n        /* \"#utility.yul\":7083:7088   */\n      dup3\n        /* \"#utility.yul\":7052:7089   */\n      tag_190\n      jump\t// in\n    tag_336:\n        /* \"#utility.yul\":7039:7089   */\n      swap1\n      pop\n        /* \"#utility.yul\":6951:7095   */\n      swap2\n      swap1\n      pop\n      jump\t// out\n        /* \"#utility.yul\":7101:7268   */\n    tag_208:\n        /* \"#utility.yul\":7206:7261   */\n      tag_338\n        /* \"#utility.yul\":7255:7260   */\n      dup2\n        /* \"#utility.yul\":7206:7261   */\n      tag_207\n      jump\t// in\n    tag_338:\n        /* \"#utility.yul\":7201:7204   */\n      dup3\n        /* \"#utility.yul\":7194:7262   */\n      mstore\n        /* \"#utility.yul\":7101:7268   */\n      pop\n      pop\n      jump\t// out\n        /* \"#utility.yul\":7274:7532   */\n    tag_67:\n        /* \"#utility.yul\":7385:7389   */\n      0x00\n        /* \"#utility.yul\":7423:7425   */\n      0x20\n        /* \"#utility.yul\":7412:7421   */\n      dup3\n        /* \"#utility.yul\":7408:7426   */\n      add\n        /* \"#utility.yul\":7400:7426   */\n      swap1\n      pop\n        /* \"#utility.yul\":7436:7525   */\n      tag_340\n        /* \"#utility.yul\":7522:7523   */\n      0x00\n        /* \"#utility.yul\":7511:7520   */\n      dup4\n        /* \"#utility.yul\":7507:7524   */\n      add\n        /* \"#utility.yul\":7498:7504   */\n      dup5\n        /* \"#utility.yul\":7436:7525   */\n      tag_208\n      jump\t// in\n    tag_340:\n        /* \"#utility.yul\":7274:7532   */\n      swap3\n      swap2\n      pop\n      pop\n      jump\t// out\n        /* \"#utility.yul\":7538:8210   */\n    tag_70:\n        /* \"#utility.yul\":7617:7623   */\n      0x00\n        /* \"#utility.yul\":7625:7631   */\n      0x00\n        /* \"#utility.yul\":7633:7639   */\n      0x00\n        /* \"#utility.yul\":7682:7684   */\n      0x40\n        /* \"#utility.yul\":7670:7679   */\n      dup5\n        /* \"#utility.yul\":7661:7668   */\n      dup7\n        /* \"#utility.yul\":7657:7680   */\n      sub\n        /* \"#utility.yul\":7653:7685   */\n      slt\n        /* \"#utility.yul\":7650:7769   */\n      iszero\n      tag_342\n      jumpi\n        /* \"#utility.yul\":7688:7767   */\n      tag_343\n      tag_180\n      jump\t// in\n    tag_343:\n        /* \"#utility.yul\":7650:7769   */\n    tag_342:\n        /* \"#utility.yul\":7808:7809   */\n      0x00\n        /* \"#utility.yul\":7833:7886   */\n      tag_344\n        /* \"#utility.yul\":7878:7885   */\n      dup7\n        /* \"#utility.yul\":7869:7875   */\n      dup3\n        /* \"#utility.yul\":7858:7867   */\n      dup8\n        /* \"#utility.yul\":7854:7876   */\n      add\n        /* \"#utility.yul\":7833:7886   */\n      tag_184\n      jump\t// in\n    tag_344:\n        /* \"#utility.yul\":7823:7886   */\n      swap4\n      pop\n        /* \"#utility.yul\":7779:7896   */\n      pop\n        /* \"#utility.yul\":7963:7965   */\n      0x20\n        /* \"#utility.yul\":7952:7961   */\n      dup5\n        /* \"#utility.yul\":7948:7966   */\n      add\n        /* \"#utility.yul\":7935:7967   */\n      calldataload\n        /* \"#utility.yul\":7994:8012   */\n      0xffffffffffffffff\n        /* \"#utility.yul\":7986:7992   */\n      dup2\n        /* \"#utility.yul\":7983:8013   */\n      gt\n        /* \"#utility.yul\":7980:8097   */\n      iszero\n      tag_345\n      jumpi\n        /* \"#utility.yul\":8016:8095   */\n      tag_346\n      tag_181\n      jump\t// in\n    tag_346:\n        /* \"#utility.yul\":7980:8097   */\n    tag_345:\n        /* \"#utility.yul\":8129:8193   */\n      tag_347\n        /* \"#utility.yul\":8185:8192   */\n      dup7\n        /* \"#utility.yul\":8176:8182   */\n      dup3\n        /* \"#utility.yul\":8165:8174   */\n      dup8\n        /* \"#utility.yul\":8161:8183   */\n      add\n        /* \"#utility.yul\":8129:8193   */\n      tag_203\n      jump\t// in\n    tag_347:\n        /* \"#utility.yul\":8111:8193   */\n      swap3\n      pop\n      swap3\n      pop\n        /* \"#utility.yul\":7906:8203   */\n      pop\n        /* \"#utility.yul\":7538:8210   */\n      swap3\n      pop\n      swap3\n      pop\n      swap3\n      jump\t// out\n        /* \"#utility.yul\":8216:8338   */\n    tag_209:\n        /* \"#utility.yul\":8289:8313   */\n      tag_349\n        /* \"#utility.yul\":8307:8312   */\n      dup2\n        /* \"#utility.yul\":8289:8313   */\n      tag_193\n      jump\t// in\n    tag_349:\n        /* \"#utility.yul\":8282:8287   */\n      dup2\n        /* \"#utility.yul\":8279:8314   */\n      eq\n        /* \"#utility.yul\":8269:8332   */\n      tag_350\n      jumpi\n        /* \"#utility.yul\":8328:8329   */\n      0x00\n        /* \"#utility.yul\":8325:8326   */\n      0x00\n        /* \"#utility.yul\":8318:8330   */\n      revert\n        /* \"#utility.yul\":8269:8332   */\n    tag_350:\n        /* \"#utility.yul\":8216:8338   */\n      pop\n      jump\t// out\n        /* \"#utility.yul\":8344:8483   */\n    tag_210:\n        /* \"#utility.yul\":8390:8395   */\n      0x00\n        /* \"#utility.yul\":8428:8434   */\n      dup2\n        /* \"#utility.yul\":8415:8435   */\n      calldataload\n        /* \"#utility.yul\":8406:8435   */\n      swap1\n      pop\n        /* \"#utility.yul\":8444:8477   */\n      tag_352\n        /* \"#utility.yul\":8471:8476   */\n      dup2\n        /* \"#utility.yul\":8444:8477   */\n      tag_209\n      jump\t// in\n    tag_352:\n        /* \"#utility.yul\":8344:8483   */\n      swap3\n      swap2\n      pop\n      pop\n      jump\t// out\n        /* \"#utility.yul\":8489:8818   */\n    tag_80:\n        /* \"#utility.yul\":8548:8554   */\n      0x00\n        /* \"#utility.yul\":8597:8599   */\n      0x20\n        /* \"#utility.yul\":8585:8594   */\n      dup3\n        /* \"#utility.yul\":8576:8583   */\n      dup5\n        /* \"#utility.yul\":8572:8595   */\n      sub\n        /* \"#utility.yul\":8568:8600   */\n      slt\n        /* \"#utility.yul\":8565:8684   */\n      iszero\n      tag_354\n      jumpi\n        /* \"#utility.yul\":8603:8682   */\n      tag_355\n      tag_180\n      jump\t// in\n    tag_355:\n        /* \"#utility.yul\":8565:8684   */\n    tag_354:\n        /* \"#utility.yul\":8723:8724   */\n      0x00\n        /* \"#utility.yul\":8748:8801   */\n      tag_356\n        /* \"#utility.yul\":8793:8800   */\n      dup5\n        /* \"#utility.yul\":8784:8790   */\n      dup3\n        /* \"#utility.yul\":8773:8782   */\n      dup6\n        /* \"#utility.yul\":8769:8791   */\n      add\n        /* \"#utility.yul\":8748:8801   */\n      tag_210\n      jump\t// in\n    tag_356:\n        /* \"#utility.yul\":8738:8801   */\n      swap2\n      pop\n        /* \"#utility.yul\":8694:8811   */\n      pop\n        /* \"#utility.yul\":8489:8818   */\n      swap3\n      swap2\n      pop\n      pop\n      jump\t// out\n        /* \"#utility.yul\":8824:8942   */\n    tag_211:\n        /* \"#utility.yul\":8911:8935   */\n      tag_358\n        /* \"#utility.yul\":8929:8934   */\n      dup2\n        /* \"#utility.yul\":8911:8935   */\n      tag_182\n      jump\t// in\n    tag_358:\n        /* \"#utility.yul\":8906:8909   */\n      dup3\n        /* \"#utility.yul\":8899:8936   */\n      mstore\n        /* \"#utility.yul\":8824:8942   */\n      pop\n      pop\n      jump\t// out\n        /* \"#utility.yul\":8948:9170   */\n    tag_83:\n        /* \"#utility.yul\":9041:9045   */\n      0x00\n        /* \"#utility.yul\":9079:9081   */\n      0x20\n        /* \"#utility.yul\":9068:9077   */\n      dup3\n        /* \"#utility.yul\":9064:9082   */\n      add\n        /* \"#utility.yul\":9056:9082   */\n      swap1\n      pop\n        /* \"#utility.yul\":9092:9163   */\n      tag_360\n        /* \"#utility.yul\":9160:9161   */\n      0x00\n        /* \"#utility.yul\":9149:9158   */\n      dup4\n        /* \"#utility.yul\":9145:9162   */\n      add\n        /* \"#utility.yul\":9136:9142   */\n      dup5\n        /* \"#utility.yul\":9092:9163   */\n      tag_211\n      jump\t// in\n    tag_360:\n        /* \"#utility.yul\":8948:9170   */\n      swap3\n      swap2\n      pop\n      pop\n      jump\t// out\n        /* \"#utility.yul\":9176:9356   */\n    tag_212:\n        /* \"#utility.yul\":9224:9301   */\n      0x4e487b7100000000000000000000000000000000000000000000000000000000\n        /* \"#utility.yul\":9221:9222   */\n      0x00\n        /* \"#utility.yul\":9214:9302   */\n      mstore\n        /* \"#utility.yul\":9321:9325   */\n      0x22\n        /* \"#utility.yul\":9318:9319   */\n      0x04\n        /* \"#utility.yul\":9311:9326   */\n      mstore\n        /* \"#utility.yul\":9345:9349   */\n      0x24\n        /* \"#utility.yul\":9342:9343   */\n      0x00\n        /* \"#utility.yul\":9335:9350   */\n      revert\n        /* \"#utility.yul\":9362:9682   */\n    tag_102:\n        /* \"#utility.yul\":9406:9412   */\n      0x00\n        /* \"#utility.yul\":9443:9444   */\n      0x02\n        /* \"#utility.yul\":9437:9441   */\n      dup3\n        /* \"#utility.yul\":9433:9445   */\n      div\n        /* \"#utility.yul\":9423:9445   */\n      swap1\n      pop\n        /* \"#utility.yul\":9490:9491   */\n      0x01\n        /* \"#utility.yul\":9484:9488   */\n      dup3\n        /* \"#utility.yul\":9480:9492   */\n      and\n        /* \"#utility.yul\":9511:9529   */\n      dup1\n        /* \"#utility.yul\":9501:9582   */\n      tag_363\n      jumpi\n        /* \"#utility.yul\":9567:9571   */\n      0x7f\n        /* \"#utility.yul\":9559:9565   */\n      dup3\n        /* \"#utility.yul\":9555:9572   */\n      and\n        /* \"#utility.yul\":9545:9572   */\n      swap2\n      pop\n        /* \"#utility.yul\":9501:9582   */\n    tag_363:\n        /* \"#utility.yul\":9629:9631   */\n      0x20\n        /* \"#utility.yul\":9621:9627   */\n      dup3\n        /* \"#utility.yul\":9618:9632   */\n      lt\n        /* \"#utility.yul\":9598:9616   */\n      dup2\n        /* \"#utility.yul\":9595:9633   */\n      sub\n        /* \"#utility.yul\":9592:9676   */\n      tag_364\n      jumpi\n        /* \"#utility.yul\":9648:9666   */\n      tag_365\n      tag_212\n      jump\t// in\n    tag_365:\n        /* \"#utility.yul\":9592:9676   */\n    tag_364:\n        /* \"#utility.yul\":9413:9682   */\n      pop\n        /* \"#utility.yul\":9362:9682   */\n      swap2\n      swap1\n      pop\n      jump\t// out\n        /* \"#utility.yul\":9688:9868   */\n    tag_112:\n        /* \"#utility.yul\":9736:9813   */\n      0x4e487b7100000000000000000000000000000000000000000000000000000000\n        /* \"#utility.yul\":9733:9734   */\n      0x00\n        /* \"#utility.yul\":9726:9814   */\n      mstore\n        /* \"#utility.yul\":9833:9837   */\n      0x41\n        /* \"#utility.yul\":9830:9831   */\n      0x04\n        /* \"#utility.yul\":9823:9838   */\n      mstore\n        /* \"#utility.yul\":9857:9861   */\n      0x24\n        /* \"#utility.yul\":9854:9855   */\n      0x00\n        /* \"#utility.yul\":9847:9862   */\n      revert\n        /* \"#utility.yul\":9874:10054   */\n    tag_116:\n        /* \"#utility.yul\":9922:9999   */\n      0x4e487b7100000000000000000000000000000000000000000000000000000000\n        /* \"#utility.yul\":9919:9920   */\n      0x00\n        /* \"#utility.yul\":9912:10000   */\n      mstore\n        /* \"#utility.yul\":10019:10023   */\n      0x32\n        /* \"#utility.yul\":10016:10017   */\n      0x04\n        /* \"#utility.yul\":10009:10024   */\n      mstore\n        /* \"#utility.yul\":10043:10047   */\n      0x24\n        /* \"#utility.yul\":10040:10041   */\n      0x00\n        /* \"#utility.yul\":10033:10048   */\n      revert\n        /* \"#utility.yul\":10060:10208   */\n    tag_213:\n        /* \"#utility.yul\":10158:10164   */\n      dup3\n        /* \"#utility.yul\":10153:10156   */\n      dup2\n        /* \"#utility.yul\":10148:10151   */\n      dup4\n        /* \"#utility.yul\":10135:10165   */\n      calldatacopy\n        /* \"#utility.yul\":10199:10200   */\n      0x00\n        /* \"#utility.yul\":10190:10196   */\n      dup4\n        /* \"#utility.yul\":10185:10188   */\n      dup4\n        /* \"#utility.yul\":10181:10197   */\n      add\n        /* \"#utility.yul\":10174:10201   */\n      mstore\n        /* \"#utility.yul\":10060:10208   */\n      pop\n      pop\n      pop\n      jump\t// out\n        /* \"#utility.yul\":10236:10550   */\n    tag_214:\n        /* \"#utility.yul\":10332:10335   */\n      0x00\n        /* \"#utility.yul\":10353:10423   */\n      tag_370\n        /* \"#utility.yul\":10416:10422   */\n      dup4\n        /* \"#utility.yul\":10411:10414   */\n      dup6\n        /* \"#utility.yul\":10353:10423   */\n      tag_196\n      jump\t// in\n    tag_370:\n        /* \"#utility.yul\":10346:10423   */\n      swap4\n      pop\n        /* \"#utility.yul\":10433:10489   */\n      tag_371\n        /* \"#utility.yul\":10482:10488   */\n      dup4\n        /* \"#utility.yul\":10477:10480   */\n      dup6\n        /* \"#utility.yul\":10470:10475   */\n      dup5\n        /* \"#utility.yul\":10433:10489   */\n      tag_213\n      jump\t// in\n    tag_371:\n        /* \"#utility.yul\":10514:10543   */\n      tag_372\n        /* \"#utility.yul\":10536:10542   */\n      dup4\n        /* \"#utility.yul\":10514:10543   */\n      tag_198\n      jump\t// in\n    tag_372:\n        /* \"#utility.yul\":10509:10512   */\n      dup5\n        /* \"#utility.yul\":10505:10544   */\n      add\n        /* \"#utility.yul\":10498:10544   */\n      swap1\n      pop\n        /* \"#utility.yul\":10236:10550   */\n      swap4\n      swap3\n      pop\n      pop\n      pop\n      jump\t// out\n        /* \"#utility.yul\":10556:10670   */\n    tag_215:\n        /* \"#utility.yul\":10623:10629   */\n      0x00\n        /* \"#utility.yul\":10657:10662   */\n      dup2\n        /* \"#utility.yul\":10651:10663   */\n      mload\n        /* \"#utility.yul\":10641:10663   */\n      swap1\n      pop\n        /* \"#utility.yul\":10556:10670   */\n      swap2\n      swap1\n      pop\n      jump\t// out\n        /* \"#utility.yul\":10676:10860   */\n    tag_216:\n        /* \"#utility.yul\":10775:10786   */\n      0x00\n        /* \"#utility.yul\":10809:10815   */\n      dup3\n        /* \"#utility.yul\":10804:10807   */\n      dup3\n        /* \"#utility.yul\":10797:10816   */\n      mstore\n        /* \"#utility.yul\":10849:10853   */\n      0x20\n        /* \"#utility.yul\":10844:10847   */\n      dup3\n        /* \"#utility.yul\":10840:10854   */\n      add\n        /* \"#utility.yul\":10825:10854   */\n      swap1\n      pop\n        /* \"#utility.yul\":10676:10860   */\n      swap3\n      swap2\n      pop\n      pop\n      jump\t// out\n        /* \"#utility.yul\":10866:10998   */\n    tag_217:\n        /* \"#utility.yul\":10933:10937   */\n      0x00\n        /* \"#utility.yul\":10956:10959   */\n      dup2\n        /* \"#utility.yul\":10948:10959   */\n      swap1\n      pop\n        /* \"#utility.yul\":10986:10990   */\n      0x20\n        /* \"#utility.yul\":10981:10984   */\n      dup3\n        /* \"#utility.yul\":10977:10991   */\n      add\n        /* \"#utility.yul\":10969:10991   */\n      swap1\n      pop\n        /* \"#utility.yul\":10866:10998   */\n      swap2\n      swap1\n      pop\n      jump\t// out\n        /* \"#utility.yul\":11004:11112   */\n    tag_218:\n        /* \"#utility.yul\":11081:11105   */\n      tag_377\n        /* \"#utility.yul\":11099:11104   */\n      dup2\n        /* \"#utility.yul\":11081:11105   */\n      tag_182\n      jump\t// in\n    tag_377:\n        /* \"#utility.yul\":11076:11079   */\n      dup3\n        /* \"#utility.yul\":11069:11106   */\n      mstore\n        /* \"#utility.yul\":11004:11112   */\n      pop\n      pop\n      jump\t// out\n        /* \"#utility.yul\":11118:11297   */\n    tag_219:\n        /* \"#utility.yul\":11187:11197   */\n      0x00\n        /* \"#utility.yul\":11208:11254   */\n      tag_379\n        /* \"#utility.yul\":11250:11253   */\n      dup4\n        /* \"#utility.yul\":11242:11248   */\n      dup4\n        /* \"#utility.yul\":11208:11254   */\n      tag_218\n      jump\t// in\n    tag_379:\n        /* \"#utility.yul\":11286:11290   */\n      0x20\n        /* \"#utility.yul\":11281:11284   */\n      dup4\n        /* \"#utility.yul\":11277:11291   */\n      add\n        /* \"#utility.yul\":11263:11291   */\n      swap1\n      pop\n        /* \"#utility.yul\":11118:11297   */\n      swap3\n      swap2\n      pop\n      pop\n      jump\t// out\n        /* \"#utility.yul\":11303:11416   */\n    tag_220:\n        /* \"#utility.yul\":11373:11377   */\n      0x00\n        /* \"#utility.yul\":11405:11409   */\n      0x20\n        /* \"#utility.yul\":11400:11403   */\n      dup3\n        /* \"#utility.yul\":11396:11410   */\n      add\n        /* \"#utility.yul\":11388:11410   */\n      swap1\n      pop\n        /* \"#utility.yul\":11303:11416   */\n      swap2\n      swap1\n      pop\n      jump\t// out\n        /* \"#utility.yul\":11452:12184   */\n    tag_221:\n        /* \"#utility.yul\":11571:11574   */\n      0x00\n        /* \"#utility.yul\":11600:11654   */\n      tag_382\n        /* \"#utility.yul\":11648:11653   */\n      dup3\n        /* \"#utility.yul\":11600:11654   */\n      tag_215\n      jump\t// in\n    tag_382:\n        /* \"#utility.yul\":11670:11756   */\n      tag_383\n        /* \"#utility.yul\":11749:11755   */\n      dup2\n        /* \"#utility.yul\":11744:11747   */\n      dup6\n        /* \"#utility.yul\":11670:11756   */\n      tag_216\n      jump\t// in\n    tag_383:\n        /* \"#utility.yul\":11663:11756   */\n      swap4\n      pop\n        /* \"#utility.yul\":11780:11836   */\n      tag_384\n        /* \"#utility.yul\":11830:11835   */\n      dup4\n        /* \"#utility.yul\":11780:11836   */\n      tag_217\n      jump\t// in\n    tag_384:\n        /* \"#utility.yul\":11859:11866   */\n      dup1\n        /* \"#utility.yul\":11890:11891   */\n      0x00\n        /* \"#utility.yul\":11875:12159   */\n    tag_385:\n        /* \"#utility.yul\":11900:11906   */\n      dup4\n        /* \"#utility.yul\":11897:11898   */\n      dup2\n        /* \"#utility.yul\":11894:11907   */\n      lt\n        /* \"#utility.yul\":11875:12159   */\n      iszero\n      tag_387\n      jumpi\n        /* \"#utility.yul\":11976:11982   */\n      dup2\n        /* \"#utility.yul\":11970:11983   */\n      mload\n        /* \"#utility.yul\":12003:12066   */\n      tag_388\n        /* \"#utility.yul\":12062:12065   */\n      dup9\n        /* \"#utility.yul\":12047:12060   */\n      dup3\n        /* \"#utility.yul\":12003:12066   */\n      tag_219\n      jump\t// in\n    tag_388:\n        /* \"#utility.yul\":11996:12066   */\n      swap8\n      pop\n        /* \"#utility.yul\":12089:12149   */\n      tag_389\n        /* \"#utility.yul\":12142:12148   */\n      dup4\n        /* \"#utility.yul\":12089:12149   */\n      tag_220\n      jump\t// in\n    tag_389:\n        /* \"#utility.yul\":12079:12149   */\n      swap3\n      pop\n        /* \"#utility.yul\":11935:12159   */\n      pop\n        /* \"#utility.yul\":11922:11923   */\n      0x01\n        /* \"#utility.yul\":11919:11920   */\n      dup2\n        /* \"#utility.yul\":11915:11924   */\n      add\n        /* \"#utility.yul\":11910:11924   */\n      swap1\n      pop\n        /* \"#utility.yul\":11875:12159   */\n      jump(tag_385)\n    tag_387:\n        /* \"#utility.yul\":11879:11893   */\n      pop\n        /* \"#utility.yul\":12175:12178   */\n      dup6\n        /* \"#utility.yul\":12168:12178   */\n      swap4\n      pop\n        /* \"#utility.yul\":11576:12184   */\n      pop\n      pop\n      pop\n        /* \"#utility.yul\":11452:12184   */\n      swap3\n      swap2\n      pop\n      pop\n      jump\t// out\n        /* \"#utility.yul\":12190:12780   */\n    tag_120:\n        /* \"#utility.yul\":12389:12393   */\n      0x00\n        /* \"#utility.yul\":12427:12429   */\n      0x40\n        /* \"#utility.yul\":12416:12425   */\n      dup3\n        /* \"#utility.yul\":12412:12430   */\n      add\n        /* \"#utility.yul\":12404:12430   */\n      swap1\n      pop\n        /* \"#utility.yul\":12476:12485   */\n      dup2\n        /* \"#utility.yul\":12470:12474   */\n      dup2\n        /* \"#utility.yul\":12466:12486   */\n      sub\n        /* \"#utility.yul\":12462:12463   */\n      0x00\n        /* \"#utility.yul\":12451:12460   */\n      dup4\n        /* \"#utility.yul\":12447:12464   */\n      add\n        /* \"#utility.yul\":12440:12487   */\n      mstore\n        /* \"#utility.yul\":12504:12590   */\n      tag_391\n        /* \"#utility.yul\":12585:12589   */\n      dup2\n        /* \"#utility.yul\":12576:12582   */\n      dup6\n        /* \"#utility.yul\":12568:12574   */\n      dup8\n        /* \"#utility.yul\":12504:12590   */\n      tag_214\n      jump\t// in\n    tag_391:\n        /* \"#utility.yul\":12496:12590   */\n      swap1\n      pop\n        /* \"#utility.yul\":12637:12646   */\n      dup2\n        /* \"#utility.yul\":12631:12635   */\n      dup2\n        /* \"#utility.yul\":12627:12647   */\n      sub\n        /* \"#utility.yul\":12622:12624   */\n      0x20\n        /* \"#utility.yul\":12611:12620   */\n      dup4\n        /* \"#utility.yul\":12607:12625   */\n      add\n        /* \"#utility.yul\":12600:12648   */\n      mstore\n        /* \"#utility.yul\":12665:12773   */\n      tag_392\n        /* \"#utility.yul\":12768:12772   */\n      dup2\n        /* \"#utility.yul\":12759:12765   */\n      dup5\n        /* \"#utility.yul\":12665:12773   */\n      tag_221\n      jump\t// in\n    tag_392:\n        /* \"#utility.yul\":12657:12773   */\n      swap1\n      pop\n        /* \"#utility.yul\":12190:12780   */\n      swap5\n      swap4\n      pop\n      pop\n      pop\n      pop\n      jump\t// out\n        /* \"#utility.yul\":12786:12902   */\n    tag_222:\n        /* \"#utility.yul\":12856:12877   */\n      tag_394\n        /* \"#utility.yul\":12871:12876   */\n      dup2\n        /* \"#utility.yul\":12856:12877   */\n      tag_185\n      jump\t// in\n    tag_394:\n        /* \"#utility.yul\":12849:12854   */\n      dup2\n        /* \"#utility.yul\":12846:12878   */\n      eq\n        /* \"#utility.yul\":12836:12896   */\n      tag_395\n      jumpi\n        /* \"#utility.yul\":12892:12893   */\n      0x00\n        /* \"#utility.yul\":12889:12890   */\n      0x00\n        /* \"#utility.yul\":12882:12894   */\n      revert\n        /* \"#utility.yul\":12836:12896   */\n    tag_395:\n        /* \"#utility.yul\":12786:12902   */\n      pop\n      jump\t// out\n        /* \"#utility.yul\":12908:13045   */\n    tag_223:\n        /* \"#utility.yul\":12962:12967   */\n      0x00\n        /* \"#utility.yul\":12993:12999   */\n      dup2\n        /* \"#utility.yul\":12987:13000   */\n      mload\n        /* \"#utility.yul\":12978:13000   */\n      swap1\n      pop\n        /* \"#utility.yul\":13009:13039   */\n      tag_397\n        /* \"#utility.yul\":13033:13038   */\n      dup2\n        /* \"#utility.yul\":13009:13039   */\n      tag_222\n      jump\t// in\n    tag_397:\n        /* \"#utility.yul\":12908:13045   */\n      swap3\n      swap2\n      pop\n      pop\n      jump\t// out\n        /* \"#utility.yul\":13051:13396   */\n    tag_124:\n        /* \"#utility.yul\":13118:13124   */\n      0x00\n        /* \"#utility.yul\":13167:13169   */\n      0x20\n        /* \"#utility.yul\":13155:13164   */\n      dup3\n        /* \"#utility.yul\":13146:13153   */\n      dup5\n        /* \"#utility.yul\":13142:13165   */\n      sub\n        /* \"#utility.yul\":13138:13170   */\n      slt\n        /* \"#utility.yul\":13135:13254   */\n      iszero\n      tag_399\n      jumpi\n        /* \"#utility.yul\":13173:13252   */\n      tag_400\n      tag_180\n      jump\t// in\n    tag_400:\n        /* \"#utility.yul\":13135:13254   */\n    tag_399:\n        /* \"#utility.yul\":13293:13294   */\n      0x00\n        /* \"#utility.yul\":13318:13379   */\n      tag_401\n        /* \"#utility.yul\":13371:13378   */\n      dup5\n        /* \"#utility.yul\":13362:13368   */\n      dup3\n        /* \"#utility.yul\":13351:13360   */\n      dup6\n        /* \"#utility.yul\":13347:13369   */\n      add\n        /* \"#utility.yul\":13318:13379   */\n      tag_223\n      jump\t// in\n    tag_401:\n        /* \"#utility.yul\":13308:13379   */\n      swap2\n      pop\n        /* \"#utility.yul\":13264:13389   */\n      pop\n        /* \"#utility.yul\":13051:13396   */\n      swap3\n      swap2\n      pop\n      pop\n      jump\t// out\n        /* \"#utility.yul\":13402:13549   */\n    tag_224:\n        /* \"#utility.yul\":13503:13514   */\n      0x00\n        /* \"#utility.yul\":13540:13543   */\n      dup2\n        /* \"#utility.yul\":13525:13543   */\n      swap1\n      pop\n        /* \"#utility.yul\":13402:13549   */\n      swap3\n      swap2\n      pop\n      pop\n      jump\t// out\n        /* \"#utility.yul\":13555:13669   */\n    tag_225:\n      pop\n      jump\t// out\n        /* \"#utility.yul\":13675:14073   */\n    tag_226:\n        /* \"#utility.yul\":13834:13837   */\n      0x00\n        /* \"#utility.yul\":13855:13938   */\n      tag_405\n        /* \"#utility.yul\":13936:13937   */\n      0x00\n        /* \"#utility.yul\":13931:13934   */\n      dup4\n        /* \"#utility.yul\":13855:13938   */\n      tag_224\n      jump\t// in\n    tag_405:\n        /* \"#utility.yul\":13848:13938   */\n      swap2\n      pop\n        /* \"#utility.yul\":13947:14040   */\n      tag_406\n        /* \"#utility.yul\":14036:14039   */\n      dup3\n        /* \"#utility.yul\":13947:14040   */\n      tag_225\n      jump\t// in\n    tag_406:\n        /* \"#utility.yul\":14065:14066   */\n      0x00\n        /* \"#utility.yul\":14060:14063   */\n      dup3\n        /* \"#utility.yul\":14056:14067   */\n      add\n        /* \"#utility.yul\":14049:14067   */\n      swap1\n      pop\n        /* \"#utility.yul\":13675:14073   */\n      swap2\n      swap1\n      pop\n      jump\t// out\n        /* \"#utility.yul\":14079:14458   */\n    tag_127:\n        /* \"#utility.yul\":14263:14266   */\n      0x00\n        /* \"#utility.yul\":14285:14432   */\n      tag_408\n        /* \"#utility.yul\":14428:14431   */\n      dup3\n        /* \"#utility.yul\":14285:14432   */\n      tag_226\n      jump\t// in\n    tag_408:\n        /* \"#utility.yul\":14278:14432   */\n      swap2\n      pop\n        /* \"#utility.yul\":14449:14452   */\n      dup2\n        /* \"#utility.yul\":14442:14452   */\n      swap1\n      pop\n        /* \"#utility.yul\":14079:14458   */\n      swap2\n      swap1\n      pop\n      jump\t// out\n        /* \"#utility.yul\":14464:14633   */\n    tag_227:\n        /* \"#utility.yul\":14548:14559   */\n      0x00\n        /* \"#utility.yul\":14582:14588   */\n      dup3\n        /* \"#utility.yul\":14577:14580   */\n      dup3\n        /* \"#utility.yul\":14570:14589   */\n      mstore\n        /* \"#utility.yul\":14622:14626   */\n      0x20\n        /* \"#utility.yul\":14617:14620   */\n      dup3\n        /* \"#utility.yul\":14613:14627   */\n      add\n        /* \"#utility.yul\":14598:14627   */\n      swap1\n      pop\n        /* \"#utility.yul\":14464:14633   */\n      swap3\n      swap2\n      pop\n      pop\n      jump\t// out\n        /* \"#utility.yul\":14639:14808   */\n    tag_228:\n        /* \"#utility.yul\":14779:14800   */\n      0x4d4e54207472616e73666572206661696c656400000000000000000000000000\n        /* \"#utility.yul\":14775:14776   */\n      0x00\n        /* \"#utility.yul\":14767:14773   */\n      dup3\n        /* \"#utility.yul\":14763:14777   */\n      add\n        /* \"#utility.yul\":14756:14801   */\n      mstore\n        /* \"#utility.yul\":14639:14808   */\n      pop\n      jump\t// out\n        /* \"#utility.yul\":14814:15180   */\n    tag_229:\n        /* \"#utility.yul\":14956:14959   */\n      0x00\n        /* \"#utility.yul\":14977:15044   */\n      tag_412\n        /* \"#utility.yul\":15041:15043   */\n      0x13\n        /* \"#utility.yul\":15036:15039   */\n      dup4\n        /* \"#utility.yul\":14977:15044   */\n      tag_227\n      jump\t// in\n    tag_412:\n        /* \"#utility.yul\":14970:15044   */\n      swap2\n      pop\n        /* \"#utility.yul\":15053:15146   */\n      tag_413\n        /* \"#utility.yul\":15142:15145   */\n      dup3\n        /* \"#utility.yul\":15053:15146   */\n      tag_228\n      jump\t// in\n    tag_413:\n        /* \"#utility.yul\":15171:15173   */\n      0x20\n        /* \"#utility.yul\":15166:15169   */\n      dup3\n        /* \"#utility.yul\":15162:15174   */\n      add\n        /* \"#utility.yul\":15155:15174   */\n      swap1\n      pop\n        /* \"#utility.yul\":14814:15180   */\n      swap2\n      swap1\n      pop\n      jump\t// out\n        /* \"#utility.yul\":15186:15605   */\n    tag_133:\n        /* \"#utility.yul\":15352:15356   */\n      0x00\n        /* \"#utility.yul\":15390:15392   */\n      0x20\n        /* \"#utility.yul\":15379:15388   */\n      dup3\n        /* \"#utility.yul\":15375:15393   */\n      add\n        /* \"#utility.yul\":15367:15393   */\n      swap1\n      pop\n        /* \"#utility.yul\":15439:15448   */\n      dup2\n        /* \"#utility.yul\":15433:15437   */\n      dup2\n        /* \"#utility.yul\":15429:15449   */\n      sub\n        /* \"#utility.yul\":15425:15426   */\n      0x00\n        /* \"#utility.yul\":15414:15423   */\n      dup4\n        /* \"#utility.yul\":15410:15427   */\n      add\n        /* \"#utility.yul\":15403:15450   */\n      mstore\n        /* \"#utility.yul\":15467:15598   */\n      tag_415\n        /* \"#utility.yul\":15593:15597   */\n      dup2\n        /* \"#utility.yul\":15467:15598   */\n      tag_229\n      jump\t// in\n    tag_415:\n        /* \"#utility.yul\":15459:15598   */\n      swap1\n      pop\n        /* \"#utility.yul\":15186:15605   */\n      swap2\n      swap1\n      pop\n      jump\t// out\n        /* \"#utility.yul\":15611:15779   */\n    tag_230:\n        /* \"#utility.yul\":15751:15771   */\n      0x496e76616c696420436f6d6d69746d656e740000000000000000000000000000\n        /* \"#utility.yul\":15747:15748   */\n      0x00\n        /* \"#utility.yul\":15739:15745   */\n      dup3\n        /* \"#utility.yul\":15735:15749   */\n      add\n        /* \"#utility.yul\":15728:15772   */\n      mstore\n        /* \"#utility.yul\":15611:15779   */\n      pop\n      jump\t// out\n        /* \"#utility.yul\":15785:16151   */\n    tag_231:\n        /* \"#utility.yul\":15927:15930   */\n      0x00\n        /* \"#utility.yul\":15948:16015   */\n      tag_418\n        /* \"#utility.yul\":16012:16014   */\n      0x12\n        /* \"#utility.yul\":16007:16010   */\n      dup4\n        /* \"#utility.yul\":15948:16015   */\n      tag_227\n      jump\t// in\n    tag_418:\n        /* \"#utility.yul\":15941:16015   */\n      swap2\n      pop\n        /* \"#utility.yul\":16024:16117   */\n      tag_419\n        /* \"#utility.yul\":16113:16116   */\n      dup3\n        /* \"#utility.yul\":16024:16117   */\n      tag_230\n      jump\t// in\n    tag_419:\n        /* \"#utility.yul\":16142:16144   */\n      0x20\n        /* \"#utility.yul\":16137:16140   */\n      dup3\n        /* \"#utility.yul\":16133:16145   */\n      add\n        /* \"#utility.yul\":16126:16145   */\n      swap1\n      pop\n        /* \"#utility.yul\":15785:16151   */\n      swap2\n      swap1\n      pop\n      jump\t// out\n        /* \"#utility.yul\":16157:16576   */\n    tag_138:\n        /* \"#utility.yul\":16323:16327   */\n      0x00\n        /* \"#utility.yul\":16361:16363   */\n      0x20\n        /* \"#utility.yul\":16350:16359   */\n      dup3\n        /* \"#utility.yul\":16346:16364   */\n      add\n        /* \"#utility.yul\":16338:16364   */\n      swap1\n      pop\n        /* \"#utility.yul\":16410:16419   */\n      dup2\n        /* \"#utility.yul\":16404:16408   */\n      dup2\n        /* \"#utility.yul\":16400:16420   */\n      sub\n        /* \"#utility.yul\":16396:16397   */\n      0x00\n        /* \"#utility.yul\":16385:16394   */\n      dup4\n        /* \"#utility.yul\":16381:16398   */\n      add\n        /* \"#utility.yul\":16374:16421   */\n      mstore\n        /* \"#utility.yul\":16438:16569   */\n      tag_421\n        /* \"#utility.yul\":16564:16568   */\n      dup2\n        /* \"#utility.yul\":16438:16569   */\n      tag_231\n      jump\t// in\n    tag_421:\n        /* \"#utility.yul\":16430:16569   */\n      swap1\n      pop\n        /* \"#utility.yul\":16157:16576   */\n      swap2\n      swap1\n      pop\n      jump\t// out\n        /* \"#utility.yul\":16582:16762   */\n    tag_232:\n        /* \"#utility.yul\":16630:16707   */\n      0x4e487b7100000000000000000000000000000000000000000000000000000000\n        /* \"#utility.yul\":16627:16628   */\n      0x00\n        /* \"#utility.yul\":16620:16708   */\n      mstore\n        /* \"#utility.yul\":16727:16731   */\n      0x11\n        /* \"#utility.yul\":16724:16725   */\n      0x04\n        /* \"#utility.yul\":16717:16732   */\n      mstore\n        /* \"#utility.yul\":16751:16755   */\n      0x24\n        /* \"#utility.yul\":16748:16749   */\n      0x00\n        /* \"#utility.yul\":16741:16756   */\n      revert\n        /* \"#utility.yul\":16768:16943   */\n    tag_142:\n        /* \"#utility.yul\":16806:16809   */\n      0x00\n        /* \"#utility.yul\":16829:16852   */\n      tag_424\n        /* \"#utility.yul\":16846:16851   */\n      dup3\n        /* \"#utility.yul\":16829:16852   */\n      tag_177\n      jump\t// in\n    tag_424:\n        /* \"#utility.yul\":16820:16852   */\n      swap2\n      pop\n        /* \"#utility.yul\":16874:16884   */\n      0xffffffff\n        /* \"#utility.yul\":16867:16872   */\n      dup3\n        /* \"#utility.yul\":16864:16885   */\n      sub\n        /* \"#utility.yul\":16861:16908   */\n      tag_425\n      jumpi\n        /* \"#utility.yul\":16888:16906   */\n      tag_426\n      tag_232\n      jump\t// in\n    tag_426:\n        /* \"#utility.yul\":16861:16908   */\n    tag_425:\n        /* \"#utility.yul\":16935:16936   */\n      0x01\n        /* \"#utility.yul\":16928:16933   */\n      dup3\n        /* \"#utility.yul\":16924:16937   */\n      add\n        /* \"#utility.yul\":16917:16937   */\n      swap1\n      pop\n        /* \"#utility.yul\":16768:16943   */\n      swap2\n      swap1\n      pop\n      jump\t// out\n        /* \"#utility.yul\":16949:17053   */\n    tag_233:\n        /* \"#utility.yul\":17014:17020   */\n      0x00\n        /* \"#utility.yul\":17042:17046   */\n      0x02\n        /* \"#utility.yul\":17032:17046   */\n      swap1\n      pop\n        /* \"#utility.yul\":16949:17053   */\n      swap2\n      swap1\n      pop\n      jump\t// out\n        /* \"#utility.yul\":17059:17202   */\n    tag_234:\n        /* \"#utility.yul\":17156:17167   */\n      0x00\n        /* \"#utility.yul\":17193:17196   */\n      dup2\n        /* \"#utility.yul\":17178:17196   */\n      swap1\n      pop\n        /* \"#utility.yul\":17059:17202   */\n      swap3\n      swap2\n      pop\n      pop\n      jump\t// out\n        /* \"#utility.yul\":17208:17306   */\n    tag_235:\n        /* \"#utility.yul\":17273:17277   */\n      0x00\n        /* \"#utility.yul\":17296:17299   */\n      dup2\n        /* \"#utility.yul\":17288:17299   */\n      swap1\n      pop\n        /* \"#utility.yul\":17208:17306   */\n      swap2\n      swap1\n      pop\n      jump\t// out\n        /* \"#utility.yul\":17312:17420   */\n    tag_236:\n        /* \"#utility.yul\":17389:17413   */\n      tag_431\n        /* \"#utility.yul\":17407:17412   */\n      dup2\n        /* \"#utility.yul\":17389:17413   */\n      tag_193\n      jump\t// in\n    tag_431:\n        /* \"#utility.yul\":17384:17387   */\n      dup3\n        /* \"#utility.yul\":17377:17414   */\n      mstore\n        /* \"#utility.yul\":17312:17420   */\n      pop\n      pop\n      jump\t// out\n        /* \"#utility.yul\":17426:17605   */\n    tag_237:\n        /* \"#utility.yul\":17495:17505   */\n      0x00\n        /* \"#utility.yul\":17516:17562   */\n      tag_433\n        /* \"#utility.yul\":17558:17561   */\n      dup4\n        /* \"#utility.yul\":17550:17556   */\n      dup4\n        /* \"#utility.yul\":17516:17562   */\n      tag_236\n      jump\t// in\n    tag_433:\n        /* \"#utility.yul\":17594:17598   */\n      0x20\n        /* \"#utility.yul\":17589:17592   */\n      dup4\n        /* \"#utility.yul\":17585:17599   */\n      add\n        /* \"#utility.yul\":17571:17599   */\n      swap1\n      pop\n        /* \"#utility.yul\":17426:17605   */\n      swap3\n      swap2\n      pop\n      pop\n      jump\t// out\n        /* \"#utility.yul\":17611:17722   */\n    tag_238:\n        /* \"#utility.yul\":17679:17683   */\n      0x00\n        /* \"#utility.yul\":17711:17715   */\n      0x20\n        /* \"#utility.yul\":17706:17709   */\n      dup3\n        /* \"#utility.yul\":17702:17716   */\n      add\n        /* \"#utility.yul\":17694:17716   */\n      swap1\n      pop\n        /* \"#utility.yul\":17611:17722   */\n      swap2\n      swap1\n      pop\n      jump\t// out\n        /* \"#utility.yul\":17760:18454   */\n    tag_239:\n        /* \"#utility.yul\":17896:17948   */\n      tag_436\n        /* \"#utility.yul\":17942:17947   */\n      dup2\n        /* \"#utility.yul\":17896:17948   */\n      tag_233\n      jump\t// in\n    tag_436:\n        /* \"#utility.yul\":17964:18048   */\n      tag_437\n        /* \"#utility.yul\":18041:18047   */\n      dup2\n        /* \"#utility.yul\":18036:18039   */\n      dup5\n        /* \"#utility.yul\":17964:18048   */\n      tag_234\n      jump\t// in\n    tag_437:\n        /* \"#utility.yul\":17957:18048   */\n      swap3\n      pop\n        /* \"#utility.yul\":18072:18126   */\n      tag_438\n        /* \"#utility.yul\":18120:18125   */\n      dup3\n        /* \"#utility.yul\":18072:18126   */\n      tag_235\n      jump\t// in\n    tag_438:\n        /* \"#utility.yul\":18149:18156   */\n      dup1\n        /* \"#utility.yul\":18180:18181   */\n      0x00\n        /* \"#utility.yul\":18165:18447   */\n    tag_439:\n        /* \"#utility.yul\":18190:18196   */\n      dup4\n        /* \"#utility.yul\":18187:18188   */\n      dup2\n        /* \"#utility.yul\":18184:18197   */\n      lt\n        /* \"#utility.yul\":18165:18447   */\n      iszero\n      tag_441\n      jumpi\n        /* \"#utility.yul\":18266:18272   */\n      dup2\n        /* \"#utility.yul\":18260:18273   */\n      mload\n        /* \"#utility.yul\":18293:18356   */\n      tag_442\n        /* \"#utility.yul\":18352:18355   */\n      dup8\n        /* \"#utility.yul\":18337:18350   */\n      dup3\n        /* \"#utility.yul\":18293:18356   */\n      tag_237\n      jump\t// in\n    tag_442:\n        /* \"#utility.yul\":18286:18356   */\n      swap7\n      pop\n        /* \"#utility.yul\":18379:18437   */\n      tag_443\n        /* \"#utility.yul\":18430:18436   */\n      dup4\n        /* \"#utility.yul\":18379:18437   */\n      tag_238\n      jump\t// in\n    tag_443:\n        /* \"#utility.yul\":18369:18437   */\n      swap3\n      pop\n        /* \"#utility.yul\":18225:18447   */\n      pop\n        /* \"#utility.yul\":18212:18213   */\n      0x01\n        /* \"#utility.yul\":18209:18210   */\n      dup2\n        /* \"#utility.yul\":18205:18214   */\n      add\n        /* \"#utility.yul\":18200:18214   */\n      swap1\n      pop\n        /* \"#utility.yul\":18165:18447   */\n      jump(tag_439)\n    tag_441:\n        /* \"#utility.yul\":18169:18183   */\n      pop\n        /* \"#utility.yul\":17872:18454   */\n      pop\n      pop\n      pop\n        /* \"#utility.yul\":17760:18454   */\n      pop\n      pop\n      jump\t// out\n        /* \"#utility.yul\":18460:18774   */\n    tag_154:\n        /* \"#utility.yul\":18599:18603   */\n      0x00\n        /* \"#utility.yul\":18637:18639   */\n      0x40\n        /* \"#utility.yul\":18626:18635   */\n      dup3\n        /* \"#utility.yul\":18622:18640   */\n      add\n        /* \"#utility.yul\":18614:18640   */\n      swap1\n      pop\n        /* \"#utility.yul\":18650:18767   */\n      tag_445\n        /* \"#utility.yul\":18764:18765   */\n      0x00\n        /* \"#utility.yul\":18753:18762   */\n      dup4\n        /* \"#utility.yul\":18749:18766   */\n      add\n        /* \"#utility.yul\":18740:18746   */\n      dup5\n        /* \"#utility.yul\":18650:18767   */\n      tag_239\n      jump\t// in\n    tag_445:\n        /* \"#utility.yul\":18460:18774   */\n      swap3\n      swap2\n      pop\n      pop\n      jump\t// out\n        /* \"#utility.yul\":18780:18923   */\n    tag_240:\n        /* \"#utility.yul\":18837:18842   */\n      0x00\n        /* \"#utility.yul\":18868:18874   */\n      dup2\n        /* \"#utility.yul\":18862:18875   */\n      mload\n        /* \"#utility.yul\":18853:18875   */\n      swap1\n      pop\n        /* \"#utility.yul\":18884:18917   */\n      tag_447\n        /* \"#utility.yul\":18911:18916   */\n      dup2\n        /* \"#utility.yul\":18884:18917   */\n      tag_209\n      jump\t// in\n    tag_447:\n        /* \"#utility.yul\":18780:18923   */\n      swap3\n      swap2\n      pop\n      pop\n      jump\t// out\n        /* \"#utility.yul\":18929:19280   */\n    tag_158:\n        /* \"#utility.yul\":18999:19005   */\n      0x00\n        /* \"#utility.yul\":19048:19050   */\n      0x20\n        /* \"#utility.yul\":19036:19045   */\n      dup3\n        /* \"#utility.yul\":19027:19034   */\n      dup5\n        /* \"#utility.yul\":19023:19046   */\n      sub\n        /* \"#utility.yul\":19019:19051   */\n      slt\n        /* \"#utility.yul\":19016:19135   */\n      iszero\n      tag_449\n      jumpi\n        /* \"#utility.yul\":19054:19133   */\n      tag_450\n      tag_180\n      jump\t// in\n    tag_450:\n        /* \"#utility.yul\":19016:19135   */\n    tag_449:\n        /* \"#utility.yul\":19174:19175   */\n      0x00\n        /* \"#utility.yul\":19199:19263   */\n      tag_451\n        /* \"#utility.yul\":19255:19262   */\n      dup5\n        /* \"#utility.yul\":19246:19252   */\n      dup3\n        /* \"#utility.yul\":19235:19244   */\n      dup6\n        /* \"#utility.yul\":19231:19253   */\n      add\n        /* \"#utility.yul\":19199:19263   */\n      tag_240\n      jump\t// in\n    tag_451:\n        /* \"#utility.yul\":19189:19263   */\n      swap2\n      pop\n        /* \"#utility.yul\":19145:19273   */\n      pop\n        /* \"#utility.yul\":18929:19280   */\n      swap3\n      swap2\n      pop\n      pop\n      jump\t// out\n        /* \"#utility.yul\":19286:19426   */\n    tag_241:\n        /* \"#utility.yul\":19334:19338   */\n      0x00\n        /* \"#utility.yul\":19357:19360   */\n      dup2\n        /* \"#utility.yul\":19349:19360   */\n      swap1\n      pop\n        /* \"#utility.yul\":19380:19383   */\n      dup2\n        /* \"#utility.yul\":19377:19378   */\n      0x00\n        /* \"#utility.yul\":19370:19384   */\n      mstore\n        /* \"#utility.yul\":19414:19418   */\n      0x20\n        /* \"#utility.yul\":19411:19412   */\n      0x00\n        /* \"#utility.yul\":19401:19419   */\n      keccak256\n        /* \"#utility.yul\":19393:19419   */\n      swap1\n      pop\n        /* \"#utility.yul\":19286:19426   */\n      swap2\n      swap1\n      pop\n      jump\t// out\n        /* \"#utility.yul\":19432:19525   */\n    tag_242:\n        /* \"#utility.yul\":19469:19475   */\n      0x00\n        /* \"#utility.yul\":19516:19518   */\n      0x20\n        /* \"#utility.yul\":19511:19513   */\n      0x1f\n        /* \"#utility.yul\":19504:19509   */\n      dup4\n        /* \"#utility.yul\":19500:19514   */\n      add\n        /* \"#utility.yul\":19496:19519   */\n      div\n        /* \"#utility.yul\":19486:19519   */\n      swap1\n      pop\n        /* \"#utility.yul\":19432:19525   */\n      swap2\n      swap1\n      pop\n      jump\t// out\n        /* \"#utility.yul\":19531:19638   */\n    tag_243:\n        /* \"#utility.yul\":19575:19583   */\n      0x00\n        /* \"#utility.yul\":19625:19630   */\n      dup3\n        /* \"#utility.yul\":19619:19623   */\n      dup3\n        /* \"#utility.yul\":19615:19631   */\n      shl\n        /* \"#utility.yul\":19594:19631   */\n      swap1\n      pop\n        /* \"#utility.yul\":19531:19638   */\n      swap3\n      swap2\n      pop\n      pop\n      jump\t// out\n        /* \"#utility.yul\":19644:20037   */\n    tag_244:\n        /* \"#utility.yul\":19713:19719   */\n      0x00\n        /* \"#utility.yul\":19763:19764   */\n      0x08\n        /* \"#utility.yul\":19751:19761   */\n      dup4\n        /* \"#utility.yul\":19747:19765   */\n      mul\n        /* \"#utility.yul\":19786:19883   */\n      tag_456\n        /* \"#utility.yul\":19816:19882   */\n      0xffffffffffffffffffffffffffffffffffffffffffffffffffffffffffffffff\n        /* \"#utility.yul\":19805:19814   */\n      dup3\n        /* \"#utility.yul\":19786:19883   */\n      tag_243\n      jump\t// in\n    tag_456:\n        /* \"#utility.yul\":19904:19943   */\n      tag_457\n        /* \"#utility.yul\":19934:19942   */\n      dup7\n        /* \"#utility.yul\":19923:19932   */\n      dup4\n        /* \"#utility.yul\":19904:19943   */\n      tag_243\n      jump\t// in\n    tag_457:\n        /* \"#utility.yul\":19892:19943   */\n      swap6\n      pop\n        /* \"#utility.yul\":19976:19980   */\n      dup1\n        /* \"#utility.yul\":19972:19981   */\n      not\n        /* \"#utility.yul\":19965:19970   */\n      dup5\n        /* \"#utility.yul\":19961:19982   */\n      and\n        /* \"#utility.yul\":19952:19982   */\n      swap4\n      pop\n        /* \"#utility.yul\":20025:20029   */\n      dup1\n        /* \"#utility.yul\":20015:20023   */\n      dup7\n        /* \"#utility.yul\":20011:20030   */\n      and\n        /* \"#utility.yul\":20004:20009   */\n      dup5\n        /* \"#utility.yul\":20001:20031   */\n      or\n        /* \"#utility.yul\":19991:20031   */\n      swap3\n      pop\n        /* \"#utility.yul\":19720:20037   */\n      pop\n      pop\n        /* \"#utility.yul\":19644:20037   */\n      swap4\n      swap3\n      pop\n      pop\n      pop\n      jump\t// out\n        /* \"#utility.yul\":20043:20185   */\n    tag_245:\n        /* \"#utility.yul\":20093:20102   */\n      0x00\n        /* \"#utility.yul\":20126:20179   */\n      tag_459\n        /* \"#utility.yul\":20144:20178   */\n      tag_460\n        /* \"#utility.yul\":20153:20177   */\n      tag_461\n        /* \"#utility.yul\":20171:20176   */\n      dup5\n        /* \"#utility.yul\":20153:20177   */\n      tag_193\n      jump\t// in\n    tag_461:\n        /* \"#utility.yul\":20144:20178   */\n      tag_188\n      jump\t// in\n    tag_460:\n        /* \"#utility.yul\":20126:20179   */\n      tag_193\n      jump\t// in\n    tag_459:\n        /* \"#utility.yul\":20113:20179   */\n      swap1\n      pop\n        /* \"#utility.yul\":20043:20185   */\n      swap2\n      swap1\n      pop\n      jump\t// out\n        /* \"#utility.yul\":20191:20266   */\n    tag_246:\n        /* \"#utility.yul\":20234:20237   */\n      0x00\n        /* \"#utility.yul\":20255:20260   */\n      dup2\n        /* \"#utility.yul\":20248:20260   */\n      swap1\n      pop\n        /* \"#utility.yul\":20191:20266   */\n      swap2\n      swap1\n      pop\n      jump\t// out\n        /* \"#utility.yul\":20272:20541   */\n    tag_247:\n        /* \"#utility.yul\":20382:20421   */\n      tag_464\n        /* \"#utility.yul\":20413:20420   */\n      dup4\n        /* \"#utility.yul\":20382:20421   */\n      tag_245\n      jump\t// in\n    tag_464:\n        /* \"#utility.yul\":20443:20534   */\n      tag_465\n        /* \"#utility.yul\":20492:20533   */\n      tag_466\n        /* \"#utility.yul\":20516:20532   */\n      dup3\n        /* \"#utility.yul\":20492:20533   */\n      tag_246\n      jump\t// in\n    tag_466:\n        /* \"#utility.yul\":20484:20490   */\n      dup5\n        /* \"#utility.yul\":20477:20481   */\n      dup5\n        /* \"#utility.yul\":20471:20482   */\n      sload\n        /* \"#utility.yul\":20443:20534   */\n      tag_244\n      jump\t// in\n    tag_465:\n        /* \"#utility.yul\":20437:20441   */\n      dup3\n        /* \"#utility.yul\":20430:20535   */\n      sstore\n        /* \"#utility.yul\":20348:20541   */\n      pop\n        /* \"#utility.yul\":20272:20541   */\n      pop\n      pop\n      pop\n      jump\t// out\n        /* \"#utility.yul\":20547:20620   */\n    tag_248:\n        /* \"#utility.yul\":20592:20595   */\n      0x00\n        /* \"#utility.yul\":20613:20614   */\n      0x00\n        /* \"#utility.yul\":20606:20614   */\n      swap1\n      pop\n        /* \"#utility.yul\":20547:20620   */\n      swap1\n      jump\t// out\n        /* \"#utility.yul\":20626:20815   */\n    tag_249:\n        /* \"#utility.yul\":20703:20735   */\n      tag_469\n      tag_248\n      jump\t// in\n    tag_469:\n        /* \"#utility.yul\":20744:20809   */\n      tag_470\n        /* \"#utility.yul\":20802:20808   */\n      dup2\n        /* \"#utility.yul\":20794:20800   */\n      dup5\n        /* \"#utility.yul\":20788:20792   */\n      dup5\n        /* \"#utility.yul\":20744:20809   */\n      tag_247\n      jump\t// in\n    tag_470:\n        /* \"#utility.yul\":20679:20815   */\n      pop\n        /* \"#utility.yul\":20626:20815   */\n      pop\n      pop\n      jump\t// out\n        /* \"#utility.yul\":20821:21007   */\n    tag_250:\n        /* \"#utility.yul\":20881:21001   */\n    tag_472:\n        /* \"#utility.yul\":20898:20901   */\n      dup2\n        /* \"#utility.yul\":20891:20896   */\n      dup2\n        /* \"#utility.yul\":20888:20902   */\n      lt\n        /* \"#utility.yul\":20881:21001   */\n      iszero\n      tag_474\n      jumpi\n        /* \"#utility.yul\":20952:20991   */\n      tag_475\n        /* \"#utility.yul\":20989:20990   */\n      0x00\n        /* \"#utility.yul\":20982:20987   */\n      dup3\n        /* \"#utility.yul\":20952:20991   */\n      tag_249\n      jump\t// in\n    tag_475:\n        /* \"#utility.yul\":20925:20926   */\n      0x01\n        /* \"#utility.yul\":20918:20923   */\n      dup2\n        /* \"#utility.yul\":20914:20927   */\n      add\n        /* \"#utility.yul\":20905:20927   */\n      swap1\n      pop\n        /* \"#utility.yul\":20881:21001   */\n      jump(tag_472)\n    tag_474:\n        /* \"#utility.yul\":20821:21007   */\n      pop\n      pop\n      jump\t// out\n        /* \"#utility.yul\":21013:21554   */\n    tag_251:\n        /* \"#utility.yul\":21113:21115   */\n      0x1f\n        /* \"#utility.yul\":21108:21111   */\n      dup3\n        /* \"#utility.yul\":21105:21116   */\n      gt\n        /* \"#utility.yul\":21102:21547   */\n      iszero\n      tag_477\n      jumpi\n        /* \"#utility.yul\":21147:21184   */\n      tag_478\n        /* \"#utility.yul\":21178:21183   */\n      dup2\n        /* \"#utility.yul\":21147:21184   */\n      tag_241\n      jump\t// in\n    tag_478:\n        /* \"#utility.yul\":21230:21259   */\n      tag_479\n        /* \"#utility.yul\":21248:21258   */\n      dup5\n        /* \"#utility.yul\":21230:21259   */\n      tag_242\n      jump\t// in\n    tag_479:\n        /* \"#utility.yul\":21220:21228   */\n      dup2\n        /* \"#utility.yul\":21216:21260   */\n      add\n        /* \"#utility.yul\":21413:21415   */\n      0x20\n        /* \"#utility.yul\":21401:21411   */\n      dup6\n        /* \"#utility.yul\":21398:21416   */\n      lt\n        /* \"#utility.yul\":21395:21444   */\n      iszero\n      tag_480\n      jumpi\n        /* \"#utility.yul\":21434:21442   */\n      dup2\n        /* \"#utility.yul\":21419:21442   */\n      swap1\n      pop\n        /* \"#utility.yul\":21395:21444   */\n    tag_480:\n        /* \"#utility.yul\":21457:21537   */\n      tag_481\n        /* \"#utility.yul\":21513:21535   */\n      tag_482\n        /* \"#utility.yul\":21531:21534   */\n      dup6\n        /* \"#utility.yul\":21513:21535   */\n      tag_242\n      jump\t// in\n    tag_482:\n        /* \"#utility.yul\":21503:21511   */\n      dup4\n        /* \"#utility.yul\":21499:21536   */\n      add\n        /* \"#utility.yul\":21486:21497   */\n      dup3\n        /* \"#utility.yul\":21457:21537   */\n      tag_250\n      jump\t// in\n    tag_481:\n        /* \"#utility.yul\":21117:21547   */\n      pop\n      pop\n        /* \"#utility.yul\":21102:21547   */\n    tag_477:\n        /* \"#utility.yul\":21013:21554   */\n      pop\n      pop\n      pop\n      jump\t// out\n        /* \"#utility.yul\":21560:21677   */\n    tag_252:\n        /* \"#utility.yul\":21614:21622   */\n      0x00\n        /* \"#utility.yul\":21664:21669   */\n      dup3\n        /* \"#utility.yul\":21658:21662   */\n      dup3\n        /* \"#utility.yul\":21654:21670   */\n      shr\n        /* \"#utility.yul\":21633:21670   */\n      swap1\n      pop\n        /* \"#utility.yul\":21560:21677   */\n      swap3\n      swap2\n      pop\n      pop\n      jump\t// out\n        /* \"#utility.yul\":21683:21852   */\n    tag_253:\n        /* \"#utility.yul\":21727:21733   */\n      0x00\n        /* \"#utility.yul\":21760:21811   */\n      tag_485\n        /* \"#utility.yul\":21808:21809   */\n      0x00\n        /* \"#utility.yul\":21804:21810   */\n      not\n        /* \"#utility.yul\":21796:21801   */\n      dup5\n        /* \"#utility.yul\":21793:21794   */\n      0x08\n        /* \"#utility.yul\":21789:21802   */\n      mul\n        /* \"#utility.yul\":21760:21811   */\n      tag_252\n      jump\t// in\n    tag_485:\n        /* \"#utility.yul\":21756:21812   */\n      not\n        /* \"#utility.yul\":21841:21845   */\n      dup1\n        /* \"#utility.yul\":21835:21839   */\n      dup4\n        /* \"#utility.yul\":21831:21846   */\n      and\n        /* \"#utility.yul\":21821:21846   */\n      swap2\n      pop\n        /* \"#utility.yul\":21734:21852   */\n      pop\n        /* \"#utility.yul\":21683:21852   */\n      swap3\n      swap2\n      pop\n      pop\n      jump\t// out\n        /* \"#utility.yul\":21857:22152   */\n    tag_254:\n        /* \"#utility.yul\":21933:21937   */\n      0x00\n        /* \"#utility.yul\":22079:22108   */\n      tag_487\n        /* \"#utility.yul\":22104:22107   */\n      dup4\n        /* \"#utility.yul\":22098:22102   */\n      dup4\n        /* \"#utility.yul\":22079:22108   */\n      tag_253\n      jump\t// in\n    tag_487:\n        /* \"#utility.yul\":22071:22108   */\n      swap2\n      pop\n        /* \"#utility.yul\":22141:22144   */\n      dup3\n        /* \"#utility.yul\":22138:22139   */\n      0x02\n        /* \"#utility.yul\":22134:22145   */\n      mul\n        /* \"#utility.yul\":22128:22132   */\n      dup3\n        /* \"#utility.yul\":22125:22146   */\n      or\n        /* \"#utility.yul\":22117:22146   */\n      swap1\n      pop\n        /* \"#utility.yul\":21857:22152   */\n      swap3\n      swap2\n      pop\n      pop\n      jump\t// out\n        /* \"#utility.yul\":22157:23547   */\n    tag_168:\n        /* \"#utility.yul\":22272:22308   */\n      tag_489\n        /* \"#utility.yul\":22304:22307   */\n      dup3\n        /* \"#utility.yul\":22272:22308   */\n      tag_195\n      jump\t// in\n    tag_489:\n        /* \"#utility.yul\":22373:22391   */\n      0xffffffffffffffff\n        /* \"#utility.yul\":22365:22371   */\n      dup2\n        /* \"#utility.yul\":22362:22392   */\n      gt\n        /* \"#utility.yul\":22359:22415   */\n      iszero\n      tag_490\n      jumpi\n        /* \"#utility.yul\":22395:22413   */\n      tag_491\n      tag_112\n      jump\t// in\n    tag_491:\n        /* \"#utility.yul\":22359:22415   */\n    tag_490:\n        /* \"#utility.yul\":22439:22477   */\n      tag_492\n        /* \"#utility.yul\":22471:22475   */\n      dup3\n        /* \"#utility.yul\":22465:22476   */\n      sload\n        /* \"#utility.yul\":22439:22477   */\n      tag_102\n      jump\t// in\n    tag_492:\n        /* \"#utility.yul\":22524:22590   */\n      tag_493\n        /* \"#utility.yul\":22583:22589   */\n      dup3\n        /* \"#utility.yul\":22575:22581   */\n      dup3\n        /* \"#utility.yul\":22569:22573   */\n      dup6\n        /* \"#utility.yul\":22524:22590   */\n      tag_251\n      jump\t// in\n    tag_493:\n        /* \"#utility.yul\":22617:22618   */\n      0x00\n        /* \"#utility.yul\":22641:22645   */\n      0x20\n        /* \"#utility.yul\":22628:22645   */\n      swap1\n      pop\n        /* \"#utility.yul\":22673:22675   */\n      0x1f\n        /* \"#utility.yul\":22665:22671   */\n      dup4\n        /* \"#utility.yul\":22662:22676   */\n      gt\n        /* \"#utility.yul\":22690:22691   */\n      0x01\n        /* \"#utility.yul\":22685:23302   */\n      dup2\n      eq\n      tag_495\n      jumpi\n        /* \"#utility.yul\":23346:23347   */\n      0x00\n        /* \"#utility.yul\":23363:23369   */\n      dup5\n        /* \"#utility.yul\":23360:23437   */\n      iszero\n      tag_496\n      jumpi\n        /* \"#utility.yul\":23412:23421   */\n      dup3\n        /* \"#utility.yul\":23407:23410   */\n      dup8\n        /* \"#utility.yul\":23403:23422   */\n      add\n        /* \"#utility.yul\":23397:23423   */\n      mload\n        /* \"#utility.yul\":23388:23423   */\n      swap1\n      pop\n        /* \"#utility.yul\":23360:23437   */\n    tag_496:\n        /* \"#utility.yul\":23463:23530   */\n      tag_497\n        /* \"#utility.yul\":23523:23529   */\n      dup6\n        /* \"#utility.yul\":23516:23521   */\n      dup3\n        /* \"#utility.yul\":23463:23530   */\n      tag_254\n      jump\t// in\n    tag_497:\n        /* \"#utility.yul\":23457:23461   */\n      dup7\n        /* \"#utility.yul\":23450:23531   */\n      sstore\n        /* \"#utility.yul\":23319:23541   */\n      pop\n        /* \"#utility.yul\":22655:23541   */\n      jump(tag_494)\n        /* \"#utility.yul\":22685:23302   */\n    tag_495:\n        /* \"#utility.yul\":22737:22741   */\n      0x1f\n        /* \"#utility.yul\":22733:22742   */\n      not\n        /* \"#utility.yul\":22725:22731   */\n      dup5\n        /* \"#utility.yul\":22721:22743   */\n      and\n        /* \"#utility.yul\":22771:22807   */\n      tag_498\n        /* \"#utility.yul\":22802:22806   */\n      dup7\n        /* \"#utility.yul\":22771:22807   */\n      tag_241\n      jump\t// in\n    tag_498:\n        /* \"#utility.yul\":22829:22830   */\n      0x00\n        /* \"#utility.yul\":22843:23051   */\n    tag_499:\n        /* \"#utility.yul\":22857:22864   */\n      dup3\n        /* \"#utility.yul\":22854:22855   */\n      dup2\n        /* \"#utility.yul\":22851:22865   */\n      lt\n        /* \"#utility.yul\":22843:23051   */\n      iszero\n      tag_501\n      jumpi\n        /* \"#utility.yul\":22936:22945   */\n      dup5\n        /* \"#utility.yul\":22931:22934   */\n      dup10\n        /* \"#utility.yul\":22927:22946   */\n      add\n        /* \"#utility.yul\":22921:22947   */\n      mload\n        /* \"#utility.yul\":22913:22919   */\n      dup3\n        /* \"#utility.yul\":22906:22948   */\n      sstore\n        /* \"#utility.yul\":22987:22988   */\n      0x01\n        /* \"#utility.yul\":22979:22985   */\n      dup3\n        /* \"#utility.yul\":22975:22989   */\n      add\n        /* \"#utility.yul\":22965:22989   */\n      swap2\n      pop\n        /* \"#utility.yul\":23034:23036   */\n      0x20\n        /* \"#utility.yul\":23023:23032   */\n      dup6\n        /* \"#utility.yul\":23019:23037   */\n      add\n        /* \"#utility.yul\":23006:23037   */\n      swap5\n      pop\n        /* \"#utility.yul\":22880:22884   */\n      0x20\n        /* \"#utility.yul\":22877:22878   */\n      dup2\n        /* \"#utility.yul\":22873:22885   */\n      add\n        /* \"#utility.yul\":22868:22885   */\n      swap1\n      pop\n        /* \"#utility.yul\":22843:23051   */\n      jump(tag_499)\n    tag_501:\n        /* \"#utility.yul\":23079:23085   */\n      dup7\n        /* \"#utility.yul\":23070:23077   */\n      dup4\n        /* \"#utility.yul\":23067:23086   */\n      lt\n        /* \"#utility.yul\":23064:23243   */\n      iszero\n      tag_502\n      jumpi\n        /* \"#utility.yul\":23137:23146   */\n      dup5\n        /* \"#utility.yul\":23132:23135   */\n      dup10\n        /* \"#utility.yul\":23128:23147   */\n      add\n        /* \"#utility.yul\":23122:23148   */\n      mload\n        /* \"#utility.yul\":23180:23228   */\n      tag_503\n        /* \"#utility.yul\":23222:23226   */\n      0x1f\n        /* \"#utility.yul\":23214:23220   */\n      dup10\n        /* \"#utility.yul\":23210:23227   */\n      and\n        /* \"#utility.yul\":23199:23208   */\n      dup3\n        /* \"#utility.yul\":23180:23228   */\n      tag_253\n      jump\t// in\n    tag_503:\n        /* \"#utility.yul\":23172:23178   */\n      dup4\n        /* \"#utility.yul\":23165:23229   */\n      sstore\n        /* \"#utility.yul\":23087:23243   */\n      pop\n        /* \"#utility.yul\":23064:23243   */\n    tag_502:\n        /* \"#utility.yul\":23289:23290   */\n      0x01\n        /* \"#utility.yul\":23285:23286   */\n      0x02\n        /* \"#utility.yul\":23277:23283   */\n      dup9\n        /* \"#utility.yul\":23273:23287   */\n      mul\n        /* \"#utility.yul\":23269:23291   */\n      add\n        /* \"#utility.yul\":23263:23267   */\n      dup9\n        /* \"#utility.yul\":23256:23292   */\n      sstore\n        /* \"#utility.yul\":22692:23302   */\n      pop\n      pop\n      pop\n        /* \"#utility.yul\":22655:23541   */\n    tag_494:\n      pop\n        /* \"#utility.yul\":22247:23547   */\n      pop\n      pop\n      pop\n        /* \"#utility.yul\":22157:23547   */\n      pop\n      pop\n      jump\t// out\n        /* \"#utility.yul\":23553:23753   */\n    tag_170:\n        /* \"#utility.yul\":23592:23596   */\n      0x00\n        /* \"#utility.yul\":23612:23631   */\n      tag_505\n        /* \"#utility.yul\":23629:23630   */\n      dup3\n        /* \"#utility.yul\":23612:23631   */\n      tag_177\n      jump\t// in\n    tag_505:\n        /* \"#utility.yul\":23607:23631   */\n      swap2\n      pop\n        /* \"#utility.yul\":23645:23664   */\n      tag_506\n        /* \"#utility.yul\":23662:23663   */\n      dup4\n        /* \"#utility.yul\":23645:23664   */\n      tag_177\n      jump\t// in\n    tag_506:\n        /* \"#utility.yul\":23640:23664   */\n      swap3\n      pop\n        /* \"#utility.yul\":23688:23689   */\n      dup3\n        /* \"#utility.yul\":23685:23686   */\n      dup3\n        /* \"#utility.yul\":23681:23690   */\n      sub\n        /* \"#utility.yul\":23673:23690   */\n      swap1\n      pop\n        /* \"#utility.yul\":23712:23722   */\n      0xffffffff\n        /* \"#utility.yul\":23706:23710   */\n      dup2\n        /* \"#utility.yul\":23703:23723   */\n      gt\n        /* \"#utility.yul\":23700:23746   */\n      iszero\n      tag_507\n      jumpi\n        /* \"#utility.yul\":23726:23744   */\n      tag_508\n      tag_232\n      jump\t// in\n    tag_508:\n        /* \"#utility.yul\":23700:23746   */\n    tag_507:\n        /* \"#utility.yul\":23553:23753   */\n      swap3\n      swap2\n      pop\n      pop\n      jump\t// out\n\n    auxdata: 0xa26469706673582212207d28399c2c7cea2553f167332edb2d6ac3cd59cdd15f041501097e7df42b57a064736f6c634300081f0033\n}\n",
				"bytecode": {
					"linkReferences": {},
					"object": "60c060405234801561000f575f5ffd5b50604051611eb4380380611eb483398181016040528101906100319190610340565b8173ffffffffffffffffffffffffffffffffffffffff1660808173ffffffffffffffffffffffffffffffffffffffff16815250508073ffffffffffffffffffffffffffffffffffffffff1660a08173ffffffffffffffffffffffffffffffffffffffff16815250505f60a05173ffffffffffffffffffffffffffffffffffffffff166329a5f2f660405180604001604052805f81526020015f8152506040518263ffffffff1660e01b81526004016100e9919061042c565b602060405180830381865afa158015610104573d5f5f3e3d5ffd5b505050506040513d601f19601f82011682018060405250810190610128919061046f565b9050805f1b5f5f601481106101405761013f61049a565b5b01819055505f600190505b601463ffffffff168163ffffffff16101561021e5760a05173ffffffffffffffffffffffffffffffffffffffff166329a5f2f66040518060400160405280858152602001858152506040518263ffffffff1660e01b81526004016101af919061042c565b602060405180830381865afa1580156101ca573d5f5f3e3d5ffd5b505050506040513d601f19601f820116820180604052508101906101ee919061046f565b9150815f1b5f8263ffffffff166014811061020c5761020b61049a565b5b0181905550808060010191505061014b565b505f5f90505b601463ffffffff168163ffffffff161015610280575f8163ffffffff16601481106102525761025161049a565b5b015460148263ffffffff166014811061026e5761026d61049a565b5b01819055508080600101915050610224565b505f600160146102909190610503565b63ffffffff16601481106102a7576102a661049a565b5b01546028819055506001602b5f60285481526020019081526020015f205f6101000a81548160ff02191690831515021790555050505061053a565b5f5ffd5b5f73ffffffffffffffffffffffffffffffffffffffff82169050919050565b5f61030f826102e6565b9050919050565b61031f81610305565b8114610329575f5ffd5b50565b5f8151905061033a81610316565b92915050565b5f5f60408385031215610356576103556102e2565b5b5f6103638582860161032c565b92505060206103748582860161032c565b9150509250929050565b5f60029050919050565b5f81905092915050565b5f819050919050565b5f819050919050565b6103ad8161039b565b82525050565b5f6103be83836103a4565b60208301905092915050565b5f602082019050919050565b6103df8161037e565b6103e98184610388565b92506103f482610392565b805f5b8381101561042457815161040b87826103b3565b9650610416836103ca565b9250506001810190506103f7565b505050505050565b5f60408201905061043f5f8301846103d6565b92915050565b61044e8161039b565b8114610458575f5ffd5b50565b5f8151905061046981610445565b92915050565b5f60208284031215610484576104836102e2565b5b5f6104918482850161045b565b91505092915050565b7f4e487b71000000000000000000000000000000000000000000000000000000005f52603260045260245ffd5b5f63ffffffff82169050919050565b7f4e487b71000000000000000000000000000000000000000000000000000000005f52601160045260245ffd5b5f61050d826104c7565b9150610518836104c7565b9250828203905063ffffffff811115610534576105336104d6565b5b92915050565b60805160a0516119446105705f395f818161086a01528181610a3b0152610b0a01525f8181610420015261066801526119445ff3fe6080604052600436106100f2575f3560e01c8063c62b919e11610089578063f165053611610058578063f165053614610338578063f178e47c14610362578063fc7e9c6f1461039e578063fdab463d146103c8576100f2565b8063c62b919e1461027a578063e29973fc146102a4578063e5285dcc146102c0578063e8295588146102fc576100f2565b80634f76a98e116100c55780634f76a98e146101c257806385de26b7146101ec5780638b01429d14610228578063b130eaa614610252576100f2565b8063082febf0146100f657806317cc915c146101205780632b7ac3f31461015c5780634e73da7d14610186575b5f5ffd5b348015610101575f5ffd5b5061010a6103f2565b6040516101179190610d8e565b60405180910390f35b34801561012b575f5ffd5b5061014660048036038101906101419190610de2565b610401565b6040516101539190610e27565b60405180910390f35b348015610167575f5ffd5b5061017061041e565b60405161017d9190610eba565b60405180910390f35b348015610191575f5ffd5b506101ac60048036038101906101a79190610de2565b610442565b6040516101b99190610e27565b60405180910390f35b3480156101cd575f5ffd5b506101d661045f565b6040516101e39190610eeb565b60405180910390f35b3480156101f7575f5ffd5b50610212600480360381019061020d9190610de2565b610483565b60405161021f9190610f74565b60405180910390f35b348015610233575f5ffd5b5061023c610523565b6040516102499190610eeb565b60405180910390f35b34801561025d575f5ffd5b5061027860048036038101906102739190611030565b61052f565b005b348015610285575f5ffd5b5061028e610868565b60405161029b91906110d4565b60405180910390f35b6102be60048036038101906102b991906110ed565b61088c565b005b3480156102cb575f5ffd5b506102e660048036038101906102e19190610de2565b610cf9565b6040516102f39190610e27565b60405180910390f35b348015610307575f5ffd5b50610322600480360381019061031d9190611174565b610d1f565b60405161032f91906111ae565b60405180910390f35b348015610343575f5ffd5b5061034c610d37565b6040516103599190610d8e565b60405180910390f35b34801561036d575f5ffd5b5061038860048036038101906103839190611174565b610d3c565b60405161039591906111ae565b60405180910390f35b3480156103a9575f5ffd5b506103b2610d55565b6040516103bf9190610d8e565b60405180910390f35b3480156103d3575f5ffd5b506103dc610d6a565b6040516103e991906111ae565b60405180910390f35b601463ffffffff166001901b81565b602a602052805f5260405f205f915054906101000a900460ff1681565b7f000000000000000000000000000000000000000000000000000000000000000081565b602b602052805f5260405f205f915054906101000a900460ff1681565b7f30644e72e131a029b85045b68181585d2833e84879b9709143e1f593f000000181565b602c602052805f5260405f205f91509050805f0180546104a2906111f4565b80601f01602080910402602001604051908101604052809291908181526020018280546104ce906111f4565b80156105195780601f106104f057610100808354040283529160200191610519565b820191905f5260205f20905b8154815290600101906020018083116104fc57829003601f168201915b5050505050905081565b678ac7230489e8000081565b602a5f8381526020019081526020015f205f9054906101000a900460ff1615610584576040517fcad2ae0200000000000000000000000000000000000000000000000000000000815260040160405180910390fd5b602b5f8481526020019081526020015f205f9054906101000a900460ff166105d8576040517f8c52011600000000000000000000000000000000000000000000000000000000815260040160405180910390fd5b5f600267ffffffffffffffff8111156105f4576105f3611224565b5b6040519080825280602002602001820160405280156106225781602001602082028036833780820191505090505b50905083815f8151811061063957610638611251565b5b602002602001018181525050828160018151811061065a57610659611251565b5b6020026020010181815250507f000000000000000000000000000000000000000000000000000000000000000073ffffffffffffffffffffffffffffffffffffffff1663ea50d0e48787846040518463ffffffff1660e01b81526004016106c39392919061136f565b602060405180830381865afa1580156106de573d5f5f3e3d5ffd5b505050506040513d601f19601f8201168201806040525081019061070291906113d0565b610738576040517f09bde33900000000000000000000000000000000000000000000000000000000815260040160405180910390fd5b6001602a5f8581526020019081526020015f205f6101000a81548160ff0219169083151502179055505f8273ffffffffffffffffffffffffffffffffffffffff16678ac7230489e8000060405161078e90611428565b5f6040518083038185875af1925050503d805f81146107c8576040519150601f19603f3d011682016040523d82523d5f602084013e6107cd565b606091505b5050905080610811576040517f08c379a000000000000000000000000000000000000000000000000000000000815260040161080890611496565b60405180910390fd5b8273ffffffffffffffffffffffffffffffffffffffff167f0ce490531f6c8ae2f1ff174643bc8b7ed5e52987ab50dc1e8f33655d2cd8c90b8560405161085791906111ae565b60405180910390a250505050505050565b7f000000000000000000000000000000000000000000000000000000000000000081565b7f30644e72e131a029b85045b68181585d2833e84879b9709143e1f593f0000001835f1c106108f0576040517f08c379a00000000000000000000000000000000000000000000000000000000081526004016108e7906114fe565b60405180910390fd5b678ac7230489e800003414610931576040517ff067b3c600000000000000000000000000000000000000000000000000000000815260040160405180910390fd5b601463ffffffff166001901b63ffffffff1660295f9054906101000a900463ffffffff1663ffffffff1610610992576040517fed732d0c00000000000000000000000000000000000000000000000000000000815260040160405180910390fd5b5f60295f9054906101000a900463ffffffff16905060295f81819054906101000a900463ffffffff16809291906109c890611549565b91906101000a81548163ffffffff021916908363ffffffff160217905550505f845f1c90505f5f90505b601463ffffffff168163ffffffff161015610bee575f6001841663ffffffff1603610b0857815f1b60148263ffffffff1660148110610a3457610a33611251565b5b01819055507f000000000000000000000000000000000000000000000000000000000000000073ffffffffffffffffffffffffffffffffffffffff166329a5f2f660405180604001604052808581526020015f8563ffffffff1660148110610a9f57610a9e611251565b5b01545f1c8152506040518263ffffffff1660e01b8152600401610ac29190611619565b602060405180830381865afa158015610add573d5f5f3e3d5ffd5b505050506040513d601f19601f82011682018060405250810190610b019190611646565b9150610bd4565b7f000000000000000000000000000000000000000000000000000000000000000073ffffffffffffffffffffffffffffffffffffffff166329a5f2f6604051806040016040528060148563ffffffff1660148110610b6957610b68611251565b5b01545f1c8152602001858152506040518263ffffffff1660e01b8152600401610b929190611619565b602060405180830381865afa158015610bad573d5f5f3e3d5ffd5b505050506040513d601f19601f82011682018060405250810190610bd19190611646565b91505b60018363ffffffff16901c925080806001019150506109f2565b50805f1b6028819055506001602b5f60285481526020019081526020015f205f6101000a81548160ff021916908315150217905550604051806020016040528085858080601f0160208091040260200160405190810160405280939291908181526020018383808284375f81840152601f19601f82011690508083019250505050505050815250602c5f8781526020019081526020015f205f820151815f019081610c999190611808565b50905050847f84fc9eb8cd0a782a1d1734fbeed616bd0ef775f8b9bd437636b62d634fe4baf3600160295f9054906101000a900463ffffffff16610cdd91906118d7565b604051610cea9190610d8e565b60405180910390a25050505050565b5f602a5f8381526020019081526020015f205f9054906101000a900460ff169050919050565b5f8160148110610d2d575f80fd5b015f915090505481565b601481565b60148160148110610d4b575f80fd5b015f915090505481565b60295f9054906101000a900463ffffffff1681565b60285481565b5f63ffffffff82169050919050565b610d8881610d70565b82525050565b5f602082019050610da15f830184610d7f565b92915050565b5f5ffd5b5f5ffd5b5f819050919050565b610dc181610daf565b8114610dcb575f5ffd5b50565b5f81359050610ddc81610db8565b92915050565b5f60208284031215610df757610df6610da7565b5b5f610e0484828501610dce565b91505092915050565b5f8115159050919050565b610e2181610e0d565b82525050565b5f602082019050610e3a5f830184610e18565b92915050565b5f73ffffffffffffffffffffffffffffffffffffffff82169050919050565b5f819050919050565b5f610e82610e7d610e7884610e40565b610e5f565b610e40565b9050919050565b5f610e9382610e68565b9050919050565b5f610ea482610e89565b9050919050565b610eb481610e9a565b82525050565b5f602082019050610ecd5f830184610eab565b92915050565b5f819050919050565b610ee581610ed3565b82525050565b5f602082019050610efe5f830184610edc565b92915050565b5f81519050919050565b5f82825260208201905092915050565b8281835e5f83830152505050565b5f601f19601f8301169050919050565b5f610f4682610f04565b610f508185610f0e565b9350610f60818560208601610f1e565b610f6981610f2c565b840191505092915050565b5f6020820190508181035f830152610f8c8184610f3c565b905092915050565b5f5ffd5b5f5ffd5b5f5ffd5b5f5f83601f840112610fb557610fb4610f94565b5b8235905067ffffffffffffffff811115610fd257610fd1610f98565b5b602083019150836001820283011115610fee57610fed610f9c565b5b9250929050565b5f610fff82610e40565b9050919050565b61100f81610ff5565b8114611019575f5ffd5b50565b5f8135905061102a81611006565b92915050565b5f5f5f5f5f6080868803121561104957611048610da7565b5b5f86013567ffffffffffffffff81111561106657611065610dab565b5b61107288828901610fa0565b9550955050602061108588828901610dce565b935050604061109688828901610dce565b92505060606110a78882890161101c565b9150509295509295909350565b5f6110be82610e89565b9050919050565b6110ce816110b4565b82525050565b5f6020820190506110e75f8301846110c5565b92915050565b5f5f5f6040848603121561110457611103610da7565b5b5f61111186828701610dce565b935050602084013567ffffffffffffffff81111561113257611131610dab565b5b61113e86828701610fa0565b92509250509250925092565b61115381610ed3565b811461115d575f5ffd5b50565b5f8135905061116e8161114a565b92915050565b5f6020828403121561118957611188610da7565b5b5f61119684828501611160565b91505092915050565b6111a881610daf565b82525050565b5f6020820190506111c15f83018461119f565b92915050565b7f4e487b71000000000000000000000000000000000000000000000000000000005f52602260045260245ffd5b5f600282049050600182168061120b57607f821691505b60208210810361121e5761121d6111c7565b5b50919050565b7f4e487b71000000000000000000000000000000000000000000000000000000005f52604160045260245ffd5b7f4e487b71000000000000000000000000000000000000000000000000000000005f52603260045260245ffd5b828183375f83830152505050565b5f6112978385610f0e565b93506112a483858461127e565b6112ad83610f2c565b840190509392505050565b5f81519050919050565b5f82825260208201905092915050565b5f819050602082019050919050565b6112ea81610daf565b82525050565b5f6112fb83836112e1565b60208301905092915050565b5f602082019050919050565b5f61131d826112b8565b61132781856112c2565b9350611332836112d2565b805f5b8381101561136257815161134988826112f0565b975061135483611307565b925050600181019050611335565b5085935050505092915050565b5f6040820190508181035f83015261138881858761128c565b9050818103602083015261139c8184611313565b9050949350505050565b6113af81610e0d565b81146113b9575f5ffd5b50565b5f815190506113ca816113a6565b92915050565b5f602082840312156113e5576113e4610da7565b5b5f6113f2848285016113bc565b91505092915050565b5f81905092915050565b50565b5f6114135f836113fb565b915061141e82611405565b5f82019050919050565b5f61143282611408565b9150819050919050565b5f82825260208201905092915050565b7f4d4e54207472616e73666572206661696c6564000000000000000000000000005f82015250565b5f61148060138361143c565b915061148b8261144c565b602082019050919050565b5f6020820190508181035f8301526114ad81611474565b9050919050565b7f496e76616c696420436f6d6d69746d656e7400000000000000000000000000005f82015250565b5f6114e860128361143c565b91506114f3826114b4565b602082019050919050565b5f6020820190508181035f830152611515816114dc565b9050919050565b7f4e487b71000000000000000000000000000000000000000000000000000000005f52601160045260245ffd5b5f61155382610d70565b915063ffffffff82036115695761156861151c565b5b600182019050919050565b5f60029050919050565b5f81905092915050565b5f819050919050565b61159a81610ed3565b82525050565b5f6115ab8383611591565b60208301905092915050565b5f602082019050919050565b6115cc81611574565b6115d6818461157e565b92506115e182611588565b805f5b838110156116115781516115f887826115a0565b9650611603836115b7565b9250506001810190506115e4565b505050505050565b5f60408201905061162c5f8301846115c3565b92915050565b5f815190506116408161114a565b92915050565b5f6020828403121561165b5761165a610da7565b5b5f61166884828501611632565b91505092915050565b5f819050815f5260205f209050919050565b5f6020601f8301049050919050565b5f82821b905092915050565b5f600883026116cd7fffffffffffffffffffffffffffffffffffffffffffffffffffffffffffffffff82611692565b6116d78683611692565b95508019841693508086168417925050509392505050565b5f6117096117046116ff84610ed3565b610e5f565b610ed3565b9050919050565b5f819050919050565b611722836116ef565b61173661172e82611710565b84845461169e565b825550505050565b5f5f905090565b61174d61173e565b611758818484611719565b505050565b5b8181101561177b576117705f82611745565b60018101905061175e565b5050565b601f8211156117c05761179181611671565b61179a84611683565b810160208510156117a9578190505b6117bd6117b585611683565b83018261175d565b50505b505050565b5f82821c905092915050565b5f6117e05f19846008026117c5565b1980831691505092915050565b5f6117f883836117d1565b9150826002028217905092915050565b61181182610f04565b67ffffffffffffffff81111561182a57611829611224565b5b61183482546111f4565b61183f82828561177f565b5f60209050601f831160018114611870575f841561185e578287015190505b61186885826117ed565b8655506118cf565b601f19841661187e86611671565b5f5b828110156118a557848901518255600182019150602085019450602081019050611880565b868310156118c257848901516118be601f8916826117d1565b8355505b6001600288020188555050505b505050505050565b5f6118e182610d70565b91506118ec83610d70565b9250828203905063ffffffff8111156119085761190761151c565b5b9291505056fea26469706673582212207d28399c2c7cea2553f167332edb2d6ac3cd59cdd15f041501097e7df42b57a064736f6c634300081f0033",
					"opcodes": "PUSH1 0xC0 PUSH1 0x40 MSTORE CALLVALUE DUP1 ISZERO PUSH2 0xF JUMPI PUSH0 PUSH0 REVERT JUMPDEST POP PUSH1 0x40 MLOAD PUSH2 0x1EB4 CODESIZE SUB DUP1 PUSH2 0x1EB4 DUP4 CODECOPY DUP2 DUP2 ADD PUSH1 0x40 MSTORE DUP2 ADD SWAP1 PUSH2 0x31 SWAP2 SWAP1 PUSH2 0x340 JUMP JUMPDEST DUP2 PUSH20 0xFFFFFFFFFFFFFFFFFFFFFFFFFFFFFFFFFFFFFFFF AND PUSH1 0x80 DUP2 PUSH20 0xFFFFFFFFFFFFFFFFFFFFFFFFFFFFFFFFFFFFFFFF AND DUP2 MSTORE POP POP DUP1 PUSH20 0xFFFFFFFFFFFFFFFFFFFFFFFFFFFFFFFFFFFFFFFF AND PUSH1 0xA0 DUP2 PUSH20 0xFFFFFFFFFFFFFFFFFFFFFFFFFFFFFFFFFFFFFFFF AND DUP2 MSTORE POP POP PUSH0 PUSH1 0xA0 MLOAD PUSH20 0xFFFFFFFFFFFFFFFFFFFFFFFFFFFFFFFFFFFFFFFF AND PUSH4 0x29A5F2F6 PUSH1 0x40 MLOAD DUP1 PUSH1 0x40 ADD PUSH1 0x40 MSTORE DUP1 PUSH0 DUP2 MSTORE PUSH1 0x20 ADD PUSH0 DUP2 MSTORE POP PUSH1 0x40 MLOAD DUP3 PUSH4 0xFFFFFFFF AND PUSH1 0xE0 SHL DUP2 MSTORE PUSH1 0x4 ADD PUSH2 0xE9 SWAP2 SWAP1 PUSH2 0x42C JUMP JUMPDEST PUSH1 0x20 PUSH1 0x40 MLOAD DUP1 DUP4 SUB DUP2 DUP7 GAS STATICCALL ISZERO DUP1 ISZERO PUSH2 0x104 JUMPI RETURNDATASIZE PUSH0 PUSH0 RETURNDATACOPY RETURNDATASIZE PUSH0 REVERT JUMPDEST POP POP POP POP PUSH1 0x40 MLOAD RETURNDATASIZE PUSH1 0x1F NOT PUSH1 0x1F DUP3 ADD AND DUP3 ADD DUP1 PUSH1 0x40 MSTORE POP DUP2 ADD SWAP1 PUSH2 0x128 SWAP2 SWAP1 PUSH2 0x46F JUMP JUMPDEST SWAP1 POP DUP1 PUSH0 SHL PUSH0 PUSH0 PUSH1 0x14 DUP2 LT PUSH2 0x140 JUMPI PUSH2 0x13F PUSH2 0x49A JUMP JUMPDEST JUMPDEST ADD DUP2 SWAP1 SSTORE POP PUSH0 PUSH1 0x1 SWAP1 POP JUMPDEST PUSH1 0x14 PUSH4 0xFFFFFFFF AND DUP2 PUSH4 0xFFFFFFFF AND LT ISZERO PUSH2 0x21E JUMPI PUSH1 0xA0 MLOAD PUSH20 0xFFFFFFFFFFFFFFFFFFFFFFFFFFFFFFFFFFFFFFFF AND PUSH4 0x29A5F2F6 PUSH1 0x40 MLOAD DUP1 PUSH1 0x40 ADD PUSH1 0x40 MSTORE DUP1 DUP6 DUP2 MSTORE PUSH1 0x20 ADD DUP6 DUP2 MSTORE POP PUSH1 0x40 MLOAD DUP3 PUSH4 0xFFFFFFFF AND PUSH1 0xE0 SHL DUP2 MSTORE PUSH1 0x4 ADD PUSH2 0x1AF SWAP2 SWAP1 PUSH2 0x42C JUMP JUMPDEST PUSH1 0x20 PUSH1 0x40 MLOAD DUP1 DUP4 SUB DUP2 DUP7 GAS STATICCALL ISZERO DUP1 ISZERO PUSH2 0x1CA JUMPI RETURNDATASIZE PUSH0 PUSH0 RETURNDATACOPY RETURNDATASIZE PUSH0 REVERT JUMPDEST POP POP POP POP PUSH1 0x40 MLOAD RETURNDATASIZE PUSH1 0x1F NOT PUSH1 0x1F DUP3 ADD AND DUP3 ADD DUP1 PUSH1 0x40 MSTORE POP DUP2 ADD SWAP1 PUSH2 0x1EE SWAP2 SWAP1 PUSH2 0x46F JUMP JUMPDEST SWAP2 POP DUP2 PUSH0 SHL PUSH0 DUP3 PUSH4 0xFFFFFFFF AND PUSH1 0x14 DUP2 LT PUSH2 0x20C JUMPI PUSH2 0x20B PUSH2 0x49A JUMP JUMPDEST JUMPDEST ADD DUP2 SWAP1 SSTORE POP DUP1 DUP1 PUSH1 0x1 ADD SWAP2 POP POP PUSH2 0x14B JUMP JUMPDEST POP PUSH0 PUSH0 SWAP1 POP JUMPDEST PUSH1 0x14 PUSH4 0xFFFFFFFF AND DUP2 PUSH4 0xFFFFFFFF AND LT ISZERO PUSH2 0x280 JUMPI PUSH0 DUP2 PUSH4 0xFFFFFFFF AND PUSH1 0x14 DUP2 LT PUSH2 0x252 JUMPI PUSH2 0x251 PUSH2 0x49A JUMP JUMPDEST JUMPDEST ADD SLOAD PUSH1 0x14 DUP3 PUSH4 0xFFFFFFFF AND PUSH1 0x14 DUP2 LT PUSH2 0x26E JUMPI PUSH2 0x26D PUSH2 0x49A JUMP JUMPDEST JUMPDEST ADD DUP2 SWAP1 SSTORE POP DUP1 DUP1 PUSH1 0x1 ADD SWAP2 POP POP PUSH2 0x224 JUMP JUMPDEST POP PUSH0 PUSH1 0x1 PUSH1 0x14 PUSH2 0x290 SWAP2 SWAP1 PUSH2 0x503 JUMP JUMPDEST PUSH4 0xFFFFFFFF AND PUSH1 0x14 DUP2 LT PUSH2 0x2A7 JUMPI PUSH2 0x2A6 PUSH2 0x49A JUMP JUMPDEST JUMPDEST ADD SLOAD PUSH1 0x28 DUP2 SWAP1 SSTORE POP PUSH1 0x1 PUSH1 0x2B PUSH0 PUSH1 0x28 SLOAD DUP2 MSTORE PUSH1 0x20 ADD SWAP1 DUP2 MSTORE PUSH1 0x20 ADD PUSH0 KECCAK256 PUSH0 PUSH2 0x100 EXP DUP2 SLOAD DUP2 PUSH1 0xFF MUL NOT AND SWAP1 DUP4 ISZERO ISZERO MUL OR SWAP1 SSTORE POP POP POP POP PUSH2 0x53A JUMP JUMPDEST PUSH0 PUSH0 REVERT JUMPDEST PUSH0 PUSH20 0xFFFFFFFFFFFFFFFFFFFFFFFFFFFFFFFFFFFFFFFF DUP3 AND SWAP1 POP SWAP2 SWAP1 POP JUMP JUMPDEST PUSH0 PUSH2 0x30F DUP3 PUSH2 0x2E6 JUMP JUMPDEST SWAP1 POP SWAP2 SWAP1 POP JUMP JUMPDEST PUSH2 0x31F DUP2 PUSH2 0x305 JUMP JUMPDEST DUP2 EQ PUSH2 0x329 JUMPI PUSH0 PUSH0 REVERT JUMPDEST POP JUMP JUMPDEST PUSH0 DUP2 MLOAD SWAP1 POP PUSH2 0x33A DUP2 PUSH2 0x316 JUMP JUMPDEST SWAP3 SWAP2 POP POP JUMP JUMPDEST PUSH0 PUSH0 PUSH1 0x40 DUP4 DUP6 SUB SLT ISZERO PUSH2 0x356 JUMPI PUSH2 0x355 PUSH2 0x2E2 JUMP JUMPDEST JUMPDEST PUSH0 PUSH2 0x363 DUP6 DUP3 DUP7 ADD PUSH2 0x32C JUMP JUMPDEST SWAP3 POP POP PUSH1 0x20 PUSH2 0x374 DUP6 DUP3 DUP7 ADD PUSH2 0x32C JUMP JUMPDEST SWAP2 POP POP SWAP3 POP SWAP3 SWAP1 POP JUMP JUMPDEST PUSH0 PUSH1 0x2 SWAP1 POP SWAP2 SWAP1 POP JUMP JUMPDEST PUSH0 DUP2 SWAP1 POP SWAP3 SWAP2 POP POP JUMP JUMPDEST PUSH0 DUP2 SWAP1 POP SWAP2 SWAP1 POP JUMP JUMPDEST PUSH0 DUP2 SWAP1 POP SWAP2 SWAP1 POP JUMP JUMPDEST PUSH2 0x3AD DUP2 PUSH2 0x39B JUMP JUMPDEST DUP3 MSTORE POP POP JUMP JUMPDEST PUSH0 PUSH2 0x3BE DUP4 DUP4 PUSH2 0x3A4 JUMP JUMPDEST PUSH1 0x20 DUP4 ADD SWAP1 POP SWAP3 SWAP2 POP POP JUMP JUMPDEST PUSH0 PUSH1 0x20 DUP3 ADD SWAP1 POP SWAP2 SWAP1 POP JUMP JUMPDEST PUSH2 0x3DF DUP2 PUSH2 0x37E JUMP JUMPDEST PUSH2 0x3E9 DUP2 DUP5 PUSH2 0x388 JUMP JUMPDEST SWAP3 POP PUSH2 0x3F4 DUP3 PUSH2 0x392 JUMP JUMPDEST DUP1 PUSH0 JUMPDEST DUP4 DUP2 LT ISZERO PUSH2 0x424 JUMPI DUP2 MLOAD PUSH2 0x40B DUP8 DUP3 PUSH2 0x3B3 JUMP JUMPDEST SWAP7 POP PUSH2 0x416 DUP4 PUSH2 0x3CA JUMP JUMPDEST SWAP3 POP POP PUSH1 0x1 DUP2 ADD SWAP1 POP PUSH2 0x3F7 JUMP JUMPDEST POP POP POP POP POP POP JUMP JUMPDEST PUSH0 PUSH1 0x40 DUP3 ADD SWAP1 POP PUSH2 0x43F PUSH0 DUP4 ADD DUP5 PUSH2 0x3D6 JUMP JUMPDEST SWAP3 SWAP2 POP POP JUMP JUMPDEST PUSH2 0x44E DUP2 PUSH2 0x39B JUMP JUMPDEST DUP2 EQ PUSH2 0x458 JUMPI PUSH0 PUSH0 REVERT JUMPDEST POP JUMP JUMPDEST PUSH0 DUP2 MLOAD SWAP1 POP PUSH2 0x469 DUP2 PUSH2 0x445 JUMP JUMPDEST SWAP3 SWAP2 POP POP JUMP JUMPDEST PUSH0 PUSH1 0x20 DUP3 DUP5 SUB SLT ISZERO PUSH2 0x484 JUMPI PUSH2 0x483 PUSH2 0x2E2 JUMP JUMPDEST JUMPDEST PUSH0 PUSH2 0x491 DUP5 DUP3 DUP6 ADD PUSH2 0x45B JUMP JUMPDEST SWAP2 POP POP SWAP3 SWAP2 POP POP JUMP JUMPDEST PUSH32 0x4E487B7100000000000000000000000000000000000000000000000000000000 PUSH0 MSTORE PUSH1 0x32 PUSH1 0x4 MSTORE PUSH1 0x24 PUSH0 REVERT JUMPDEST PUSH0 PUSH4 0xFFFFFFFF DUP3 AND SWAP1 POP SWAP2 SWAP1 POP JUMP JUMPDEST PUSH32 0x4E487B7100000000000000000000000000000000000000000000000000000000 PUSH0 MSTORE PUSH1 0x11 PUSH1 0x4 MSTORE PUSH1 0x24 PUSH0 REVERT JUMPDEST PUSH0 PUSH2 0x50D DUP3 PUSH2 0x4C7 JUMP JUMPDEST SWAP2 POP PUSH2 0x518 DUP4 PUSH2 0x4C7 JUMP JUMPDEST SWAP3 POP DUP3 DUP3 SUB SWAP1 POP PUSH4 0xFFFFFFFF DUP2 GT ISZERO PUSH2 0x534 JUMPI PUSH2 0x533 PUSH2 0x4D6 JUMP JUMPDEST JUMPDEST SWAP3 SWAP2 POP POP JUMP JUMPDEST PUSH1 0x80 MLOAD PUSH1 0xA0 MLOAD PUSH2 0x1944 PUSH2 0x570 PUSH0 CODECOPY PUSH0 DUP2 DUP2 PUSH2 0x86A ADD MSTORE DUP2 DUP2 PUSH2 0xA3B ADD MSTORE PUSH2 0xB0A ADD MSTORE PUSH0 DUP2 DUP2 PUSH2 0x420 ADD MSTORE PUSH2 0x668 ADD MSTORE PUSH2 0x1944 PUSH0 RETURN INVALID PUSH1 0x80 PUSH1 0x40 MSTORE PUSH1 0x4 CALLDATASIZE LT PUSH2 0xF2 JUMPI PUSH0 CALLDATALOAD PUSH1 0xE0 SHR DUP1 PUSH4 0xC62B919E GT PUSH2 0x89 JUMPI DUP1 PUSH4 0xF1650536 GT PUSH2 0x58 JUMPI DUP1 PUSH4 0xF1650536 EQ PUSH2 0x338 JUMPI DUP1 PUSH4 0xF178E47C EQ PUSH2 0x362 JUMPI DUP1 PUSH4 0xFC7E9C6F EQ PUSH2 0x39E JUMPI DUP1 PUSH4 0xFDAB463D EQ PUSH2 0x3C8 JUMPI PUSH2 0xF2 JUMP JUMPDEST DUP1 PUSH4 0xC62B919E EQ PUSH2 0x27A JUMPI DUP1 PUSH4 0xE29973FC EQ PUSH2 0x2A4 JUMPI DUP1 PUSH4 0xE5285DCC EQ PUSH2 0x2C0 JUMPI DUP1 PUSH4 0xE8295588 EQ PUSH2 0x2FC JUMPI PUSH2 0xF2 JUMP JUMPDEST DUP1 PUSH4 0x4F76A98E GT PUSH2 0xC5 JUMPI DUP1 PUSH4 0x4F76A98E EQ PUSH2 0x1C2 JUMPI DUP1 PUSH4 0x85DE26B7 EQ PUSH2 0x1EC JUMPI DUP1 PUSH4 0x8B01429D EQ PUSH2 0x228 JUMPI DUP1 PUSH4 0xB130EAA6 EQ PUSH2 0x252 JUMPI PUSH2 0xF2 JUMP JUMPDEST DUP1 PUSH4 0x82FEBF0 EQ PUSH2 0xF6 JUMPI DUP1 PUSH4 0x17CC915C EQ PUSH2 0x120 JUMPI DUP1 PUSH4 0x2B7AC3F3 EQ PUSH2 0x15C JUMPI DUP1 PUSH4 0x4E73DA7D EQ PUSH2 0x186 JUMPI JUMPDEST PUSH0 PUSH0 REVERT JUMPDEST CALLVALUE DUP1 ISZERO PUSH2 0x101 JUMPI PUSH0 PUSH0 REVERT JUMPDEST POP PUSH2 0x10A PUSH2 0x3F2 JUMP JUMPDEST PUSH1 0x40 MLOAD PUSH2 0x117 SWAP2 SWAP1 PUSH2 0xD8E JUMP JUMPDEST PUSH1 0x40 MLOAD DUP1 SWAP2 SUB SWAP1 RETURN JUMPDEST CALLVALUE DUP1 ISZERO PUSH2 0x12B JUMPI PUSH0 PUSH0 REVERT JUMPDEST POP PUSH2 0x146 PUSH1 0x4 DUP1 CALLDATASIZE SUB DUP2 ADD SWAP1 PUSH2 0x141 SWAP2 SWAP1 PUSH2 0xDE2 JUMP JUMPDEST PUSH2 0x401 JUMP JUMPDEST PUSH1 0x40 MLOAD PUSH2 0x153 SWAP2 SWAP1 PUSH2 0xE27 JUMP JUMPDEST PUSH1 0x40 MLOAD DUP1 SWAP2 SUB SWAP1 RETURN JUMPDEST CALLVALUE DUP1 ISZERO PUSH2 0x167 JUMPI PUSH0 PUSH0 REVERT JUMPDEST POP PUSH2 0x170 PUSH2 0x41E JUMP JUMPDEST PUSH1 0x40 MLOAD PUSH2 0x17D SWAP2 SWAP1 PUSH2 0xEBA JUMP JUMPDEST PUSH1 0x40 MLOAD DUP1 SWAP2 SUB SWAP1 RETURN JUMPDEST CALLVALUE DUP1 ISZERO PUSH2 0x191 JUMPI PUSH0 PUSH0 REVERT JUMPDEST POP PUSH2 0x1AC PUSH1 0x4 DUP1 CALLDATASIZE SUB DUP2 ADD SWAP1 PUSH2 0x1A7 SWAP2 SWAP1 PUSH2 0xDE2 JUMP JUMPDEST PUSH2 0x442 JUMP JUMPDEST PUSH1 0x40 MLOAD PUSH2 0x1B9 SWAP2 SWAP1 PUSH2 0xE27 JUMP JUMPDEST PUSH1 0x40 MLOAD DUP1 SWAP2 SUB SWAP1 RETURN JUMPDEST CALLVALUE DUP1 ISZERO PUSH2 0x1CD JUMPI PUSH0 PUSH0 REVERT JUMPDEST POP PUSH2 0x1D6 PUSH2 0x45F JUMP JUMPDEST PUSH1 0x40 MLOAD PUSH2 0x1E3 SWAP2 SWAP1 PUSH2 0xEEB JUMP JUMPDEST PUSH1 0x40 MLOAD DUP1 SWAP2 SUB SWAP1 RETURN JUMPDEST CALLVALUE DUP1 ISZERO PUSH2 0x1F7 JUMPI PUSH0 PUSH0 REVERT JUMPDEST POP PUSH2 0x212 PUSH1 0x4 DUP1 CALLDATASIZE SUB DUP2 ADD SWAP1 PUSH2 0x20D SWAP2 SWAP1 PUSH2 0xDE2 JUMP JUMPDEST PUSH2 0x483 JUMP JUMPDEST PUSH1 0x40 MLOAD PUSH2 0x21F SWAP2 SWAP1 PUSH2 0xF74 JUMP JUMPDEST PUSH1 0x40 MLOAD DUP1 SWAP2 SUB SWAP1 RETURN JUMPDEST CALLVALUE DUP1 ISZERO PUSH2 0x233 JUMPI PUSH0 PUSH0 REVERT JUMPDEST POP PUSH2 0x23C PUSH2 0x523 JUMP JUMPDEST PUSH1 0x40 MLOAD PUSH2 0x249 SWAP2 SWAP1 PUSH2 0xEEB JUMP JUMPDEST PUSH1 0x40 MLOAD DUP1 SWAP2 SUB SWAP1 RETURN JUMPDEST CALLVALUE DUP1 ISZERO PUSH2 0x25D JUMPI PUSH0 PUSH0 REVERT JUMPDEST POP PUSH2 0x278 PUSH1 0x4 DUP1 CALLDATASIZE SUB DUP2 ADD SWAP1 PUSH2 0x273 SWAP2 SWAP1 PUSH2 0x1030 JUMP JUMPDEST PUSH2 0x52F JUMP JUMPDEST STOP JUMPDEST CALLVALUE DUP1 ISZERO PUSH2 0x285 JUMPI PUSH0 PUSH0 REVERT JUMPDEST POP PUSH2 0x28E PUSH2 0x868 JUMP JUMPDEST PUSH1 0x40 MLOAD PUSH2 0x29B SWAP2 SWAP1 PUSH2 0x10D4 JUMP JUMPDEST PUSH1 0x40 MLOAD DUP1 SWAP2 SUB SWAP1 RETURN JUMPDEST PUSH2 0x2BE PUSH1 0x4 DUP1 CALLDATASIZE SUB DUP2 ADD SWAP1 PUSH2 0x2B9 SWAP2 SWAP1 PUSH2 0x10ED JUMP JUMPDEST PUSH2 0x88C JUMP JUMPDEST STOP JUMPDEST CALLVALUE DUP1 ISZERO PUSH2 0x2CB JUMPI PUSH0 PUSH0 REVERT JUMPDEST POP PUSH2 0x2E6 PUSH1 0x4 DUP1 CALLDATASIZE SUB DUP2 ADD SWAP1 PUSH2 0x2E1 SWAP2 SWAP1 PUSH2 0xDE2 JUMP JUMPDEST PUSH2 0xCF9 JUMP JUMPDEST PUSH1 0x40 MLOAD PUSH2 0x2F3 SWAP2 SWAP1 PUSH2 0xE27 JUMP JUMPDEST PUSH1 0x40 MLOAD DUP1 SWAP2 SUB SWAP1 RETURN JUMPDEST CALLVALUE DUP1 ISZERO PUSH2 0x307 JUMPI PUSH0 PUSH0 REVERT JUMPDEST POP PUSH2 0x322 PUSH1 0x4 DUP1 CALLDATASIZE SUB DUP2 ADD SWAP1 PUSH2 0x31D SWAP2 SWAP1 PUSH2 0x1174 JUMP JUMPDEST PUSH2 0xD1F JUMP JUMPDEST PUSH1 0x40 MLOAD PUSH2 0x32F SWAP2 SWAP1 PUSH2 0x11AE JUMP JUMPDEST PUSH1 0x40 MLOAD DUP1 SWAP2 SUB SWAP1 RETURN JUMPDEST CALLVALUE DUP1 ISZERO PUSH2 0x343 JUMPI PUSH0 PUSH0 REVERT JUMPDEST POP PUSH2 0x34C PUSH2 0xD37 JUMP JUMPDEST PUSH1 0x40 MLOAD PUSH2 0x359 SWAP2 SWAP1 PUSH2 0xD8E JUMP JUMPDEST PUSH1 0x40 MLOAD DUP1 SWAP2 SUB SWAP1 RETURN JUMPDEST CALLVALUE DUP1 ISZERO PUSH2 0x36D JUMPI PUSH0 PUSH0 REVERT JUMPDEST POP PUSH2 0x388 PUSH1 0x4 DUP1 CALLDATASIZE SUB DUP2 ADD SWAP1 PUSH2 0x383 SWAP2 SWAP1 PUSH2 0x1174 JUMP JUMPDEST PUSH2 0xD3C JUMP JUMPDEST PUSH1 0x40 MLOAD PUSH2 0x395 SWAP2 SWAP1 PUSH2 0x11AE JUMP JUMPDEST PUSH1 0x40 MLOAD DUP1 SWAP2 SUB SWAP1 RETURN JUMPDEST CALLVALUE DUP1 ISZERO PUSH2 0x3A9 JUMPI PUSH0 PUSH0 REVERT JUMPDEST POP PUSH2 0x3B2 PUSH2 0xD55 JUMP JUMPDEST PUSH1 0x40 MLOAD PUSH2 0x3BF SWAP2 SWAP1 PUSH2 0xD8E JUMP JUMPDEST PUSH1 0x40 MLOAD DUP1 SWAP2 SUB SWAP1 RETURN JUMPDEST CALLVALUE DUP1 ISZERO PUSH2 0x3D3 JUMPI PUSH0 PUSH0 REVERT JUMPDEST POP PUSH2 0x3DC PUSH2 0xD6A JUMP JUMPDEST PUSH1 0x40 MLOAD PUSH2 0x3E9 SWAP2 SWAP1 PUSH2 0x11AE JUMP JUMPDEST PUSH1 0x40 MLOAD DUP1 SWAP2 SUB SWAP1 RETURN JUMPDEST PUSH1 0x14 PUSH4 0xFFFFFFFF AND PUSH1 0x1 SWAP1 SHL DUP2 JUMP JUMPDEST PUSH1 0x2A PUSH1 0x20 MSTORE DUP1 PUSH0 MSTORE PUSH1 0x40 PUSH0 KECCAK256 PUSH0 SWAP2 POP SLOAD SWAP1 PUSH2 0x100 EXP SWAP1 DIV PUSH1 0xFF AND DUP2 JUMP JUMPDEST PUSH32 0x0 DUP2 JUMP JUMPDEST PUSH1 0x2B PUSH1 0x20 MSTORE DUP1 PUSH0 MSTORE PUSH1 0x40 PUSH0 KECCAK256 PUSH0 SWAP2 POP SLOAD SWAP1 PUSH2 0x100 EXP SWAP1 DIV PUSH1 0xFF AND DUP2 JUMP JUMPDEST PUSH32 0x30644E72E131A029B85045B68181585D2833E84879B9709143E1F593F0000001 DUP2 JUMP JUMPDEST PUSH1 0x2C PUSH1 0x20 MSTORE DUP1 PUSH0 MSTORE PUSH1 0x40 PUSH0 KECCAK256 PUSH0 SWAP2 POP SWAP1 POP DUP1 PUSH0 ADD DUP1 SLOAD PUSH2 0x4A2 SWAP1 PUSH2 0x11F4 JUMP JUMPDEST DUP1 PUSH1 0x1F ADD PUSH1 0x20 DUP1 SWAP2 DIV MUL PUSH1 0x20 ADD PUSH1 0x40 MLOAD SWAP1 DUP2 ADD PUSH1 0x40 MSTORE DUP1 SWAP3 SWAP2 SWAP1 DUP2 DUP2 MSTORE PUSH1 0x20 ADD DUP3 DUP1 SLOAD PUSH2 0x4CE SWAP1 PUSH2 0x11F4 JUMP JUMPDEST DUP1 ISZERO PUSH2 0x519 JUMPI DUP1 PUSH1 0x1F LT PUSH2 0x4F0 JUMPI PUSH2 0x100 DUP1 DUP4 SLOAD DIV MUL DUP4 MSTORE SWAP2 PUSH1 0x20 ADD SWAP2 PUSH2 0x519 JUMP JUMPDEST DUP3 ADD SWAP2 SWAP1 PUSH0 MSTORE PUSH1 0x20 PUSH0 KECCAK256 SWAP1 JUMPDEST DUP2 SLOAD DUP2 MSTORE SWAP1 PUSH1 0x1 ADD SWAP1 PUSH1 0x20 ADD DUP1 DUP4 GT PUSH2 0x4FC JUMPI DUP3 SWAP1 SUB PUSH1 0x1F AND DUP3 ADD SWAP2 JUMPDEST POP POP POP POP POP SWAP1 POP DUP2 JUMP JUMPDEST PUSH8 0x8AC7230489E80000 DUP2 JUMP JUMPDEST PUSH1 0x2A PUSH0 DUP4 DUP2 MSTORE PUSH1 0x20 ADD SWAP1 DUP2 MSTORE PUSH1 0x20 ADD PUSH0 KECCAK256 PUSH0 SWAP1 SLOAD SWAP1 PUSH2 0x100 EXP SWAP1 DIV PUSH1 0xFF AND ISZERO PUSH2 0x584 JUMPI PUSH1 0x40 MLOAD PUSH32 0xCAD2AE0200000000000000000000000000000000000000000000000000000000 DUP2 MSTORE PUSH1 0x4 ADD PUSH1 0x40 MLOAD DUP1 SWAP2 SUB SWAP1 REVERT JUMPDEST PUSH1 0x2B PUSH0 DUP5 DUP2 MSTORE PUSH1 0x20 ADD SWAP1 DUP2 MSTORE PUSH1 0x20 ADD PUSH0 KECCAK256 PUSH0 SWAP1 SLOAD SWAP1 PUSH2 0x100 EXP SWAP1 DIV PUSH1 0xFF AND PUSH2 0x5D8 JUMPI PUSH1 0x40 MLOAD PUSH32 0x8C52011600000000000000000000000000000000000000000000000000000000 DUP2 MSTORE PUSH1 0x4 ADD PUSH1 0x40 MLOAD DUP1 SWAP2 SUB SWAP1 REVERT JUMPDEST PUSH0 PUSH1 0x2 PUSH8 0xFFFFFFFFFFFFFFFF DUP2 GT ISZERO PUSH2 0x5F4 JUMPI PUSH2 0x5F3 PUSH2 0x1224 JUMP JUMPDEST JUMPDEST PUSH1 0x40 MLOAD SWAP1 DUP1 DUP3 MSTORE DUP1 PUSH1 0x20 MUL PUSH1 0x20 ADD DUP3 ADD PUSH1 0x40 MSTORE DUP1 ISZERO PUSH2 0x622 JUMPI DUP2 PUSH1 0x20 ADD PUSH1 0x20 DUP3 MUL DUP1 CALLDATASIZE DUP4 CALLDATACOPY DUP1 DUP3 ADD SWAP2 POP POP SWAP1 POP JUMPDEST POP SWAP1 POP DUP4 DUP2 PUSH0 DUP2 MLOAD DUP2 LT PUSH2 0x639 JUMPI PUSH2 0x638 PUSH2 0x1251 JUMP JUMPDEST JUMPDEST PUSH1 0x20 MUL PUSH1 0x20 ADD ADD DUP2 DUP2 MSTORE POP POP DUP3 DUP2 PUSH1 0x1 DUP2 MLOAD DUP2 LT PUSH2 0x65A JUMPI PUSH2 0x659 PUSH2 0x1251 JUMP JUMPDEST JUMPDEST PUSH1 0x20 MUL PUSH1 0x20 ADD ADD DUP2 DUP2 MSTORE POP POP PUSH32 0x0 PUSH20 0xFFFFFFFFFFFFFFFFFFFFFFFFFFFFFFFFFFFFFFFF AND PUSH4 0xEA50D0E4 DUP8 DUP8 DUP5 PUSH1 0x40 MLOAD DUP5 PUSH4 0xFFFFFFFF AND PUSH1 0xE0 SHL DUP2 MSTORE PUSH1 0x4 ADD PUSH2 0x6C3 SWAP4 SWAP3 SWAP2 SWAP1 PUSH2 0x136F JUMP JUMPDEST PUSH1 0x20 PUSH1 0x40 MLOAD DUP1 DUP4 SUB DUP2 DUP7 GAS STATICCALL ISZERO DUP1 ISZERO PUSH2 0x6DE JUMPI RETURNDATASIZE PUSH0 PUSH0 RETURNDATACOPY RETURNDATASIZE PUSH0 REVERT JUMPDEST POP POP POP POP PUSH1 0x40 MLOAD RETURNDATASIZE PUSH1 0x1F NOT PUSH1 0x1F DUP3 ADD AND DUP3 ADD DUP1 PUSH1 0x40 MSTORE POP DUP2 ADD SWAP1 PUSH2 0x702 SWAP2 SWAP1 PUSH2 0x13D0 JUMP JUMPDEST PUSH2 0x738 JUMPI PUSH1 0x40 MLOAD PUSH32 0x9BDE33900000000000000000000000000000000000000000000000000000000 DUP2 MSTORE PUSH1 0x4 ADD PUSH1 0x40 MLOAD DUP1 SWAP2 SUB SWAP1 REVERT JUMPDEST PUSH1 0x1 PUSH1 0x2A PUSH0 DUP6 DUP2 MSTORE PUSH1 0x20 ADD SWAP1 DUP2 MSTORE PUSH1 0x20 ADD PUSH0 KECCAK256 PUSH0 PUSH2 0x100 EXP DUP2 SLOAD DUP2 PUSH1 0xFF MUL NOT AND SWAP1 DUP4 ISZERO ISZERO MUL OR SWAP1 SSTORE POP PUSH0 DUP3 PUSH20 0xFFFFFFFFFFFFFFFFFFFFFFFFFFFFFFFFFFFFFFFF AND PUSH8 0x8AC7230489E80000 PUSH1 0x40 MLOAD PUSH2 0x78E SWAP1 PUSH2 0x1428 JUMP JUMPDEST PUSH0 PUSH1 0x40 MLOAD DUP1 DUP4 SUB DUP2 DUP6 DUP8 GAS CALL SWAP3 POP POP POP RETURNDATASIZE DUP1 PUSH0 DUP2 EQ PUSH2 0x7C8 JUMPI PUSH1 0x40 MLOAD SWAP2 POP PUSH1 0x1F NOT PUSH1 0x3F RETURNDATASIZE ADD AND DUP3 ADD PUSH1 0x40 MSTORE RETURNDATASIZE DUP3 MSTORE RETURNDATASIZE PUSH0 PUSH1 0x20 DUP5 ADD RETURNDATACOPY PUSH2 0x7CD JUMP JUMPDEST PUSH1 0x60 SWAP2 POP JUMPDEST POP POP SWAP1 POP DUP1 PUSH2 0x811 JUMPI PUSH1 0x40 MLOAD PUSH32 0x8C379A000000000000000000000000000000000000000000000000000000000 DUP2 MSTORE PUSH1 0x4 ADD PUSH2 0x808 SWAP1 PUSH2 0x1496 JUMP JUMPDEST PUSH1 0x40 MLOAD DUP1 SWAP2 SUB SWAP1 REVERT JUMPDEST DUP3 PUSH20 0xFFFFFFFFFFFFFFFFFFFFFFFFFFFFFFFFFFFFFFFF AND PUSH32 0xCE490531F6C8AE2F1FF174643BC8B7ED5E52987AB50DC1E8F33655D2CD8C90B DUP6 PUSH1 0x40 MLOAD PUSH2 0x857 SWAP2 SWAP1 PUSH2 0x11AE JUMP JUMPDEST PUSH1 0x40 MLOAD DUP1 SWAP2 SUB SWAP1 LOG2 POP POP POP POP POP POP POP JUMP JUMPDEST PUSH32 0x0 DUP2 JUMP JUMPDEST PUSH32 0x30644E72E131A029B85045B68181585D2833E84879B9709143E1F593F0000001 DUP4 PUSH0 SHR LT PUSH2 0x8F0 JUMPI PUSH1 0x40 MLOAD PUSH32 0x8C379A000000000000000000000000000000000000000000000000000000000 DUP2 MSTORE PUSH1 0x4 ADD PUSH2 0x8E7 SWAP1 PUSH2 0x14FE JUMP JUMPDEST PUSH1 0x40 MLOAD DUP1 SWAP2 SUB SWAP1 REVERT JUMPDEST PUSH8 0x8AC7230489E80000 CALLVALUE EQ PUSH2 0x931 JUMPI PUSH1 0x40 MLOAD PUSH32 0xF067B3C600000000000000000000000000000000000000000000000000000000 DUP2 MSTORE PUSH1 0x4 ADD PUSH1 0x40 MLOAD DUP1 SWAP2 SUB SWAP1 REVERT JUMPDEST PUSH1 0x14 PUSH4 0xFFFFFFFF AND PUSH1 0x1 SWAP1 SHL PUSH4 0xFFFFFFFF AND PUSH1 0x29 PUSH0 SWAP1 SLOAD SWAP1 PUSH2 0x100 EXP SWAP1 DIV PUSH4 0xFFFFFFFF AND PUSH4 0xFFFFFFFF AND LT PUSH2 0x992 JUMPI PUSH1 0x40 MLOAD PUSH32 0xED732D0C00000000000000000000000000000000000000000000000000000000 DUP2 MSTORE PUSH1 0x4 ADD PUSH1 0x40 MLOAD DUP1 SWAP2 SUB SWAP1 REVERT JUMPDEST PUSH0 PUSH1 0x29 PUSH0 SWAP1 SLOAD SWAP1 PUSH2 0x100 EXP SWAP1 DIV PUSH4 0xFFFFFFFF AND SWAP1 POP PUSH1 0x29 PUSH0 DUP2 DUP2 SWAP1 SLOAD SWAP1 PUSH2 0x100 EXP SWAP1 DIV PUSH4 0xFFFFFFFF AND DUP1 SWAP3 SWAP2 SWAP1 PUSH2 0x9C8 SWAP1 PUSH2 0x1549 JUMP JUMPDEST SWAP2 SWAP1 PUSH2 0x100 EXP DUP2 SLOAD DUP2 PUSH4 0xFFFFFFFF MUL NOT AND SWAP1 DUP4 PUSH4 0xFFFFFFFF AND MUL OR SWAP1 SSTORE POP POP PUSH0 DUP5 PUSH0 SHR SWAP1 POP PUSH0 PUSH0 SWAP1 POP JUMPDEST PUSH1 0x14 PUSH4 0xFFFFFFFF AND DUP2 PUSH4 0xFFFFFFFF AND LT ISZERO PUSH2 0xBEE JUMPI PUSH0 PUSH1 0x1 DUP5 AND PUSH4 0xFFFFFFFF AND SUB PUSH2 0xB08 JUMPI DUP2 PUSH0 SHL PUSH1 0x14 DUP3 PUSH4 0xFFFFFFFF AND PUSH1 0x14 DUP2 LT PUSH2 0xA34 JUMPI PUSH2 0xA33 PUSH2 0x1251 JUMP JUMPDEST JUMPDEST ADD DUP2 SWAP1 SSTORE POP PUSH32 0x0 PUSH20 0xFFFFFFFFFFFFFFFFFFFFFFFFFFFFFFFFFFFFFFFF AND PUSH4 0x29A5F2F6 PUSH1 0x40 MLOAD DUP1 PUSH1 0x40 ADD PUSH1 0x40 MSTORE DUP1 DUP6 DUP2 MSTORE PUSH1 0x20 ADD PUSH0 DUP6 PUSH4 0xFFFFFFFF AND PUSH1 0x14 DUP2 LT PUSH2 0xA9F JUMPI PUSH2 0xA9E PUSH2 0x1251 JUMP JUMPDEST JUMPDEST ADD SLOAD PUSH0 SHR DUP2 MSTORE POP PUSH1 0x40 MLOAD DUP3 PUSH4 0xFFFFFFFF AND PUSH1 0xE0 SHL DUP2 MSTORE PUSH1 0x4 ADD PUSH2 0xAC2 SWAP2 SWAP1 PUSH2 0x1619 JUMP JUMPDEST PUSH1 0x20 PUSH1 0x40 MLOAD DUP1 DUP4 SUB DUP2 DUP7 GAS STATICCALL ISZERO DUP1 ISZERO PUSH2 0xADD JUMPI RETURNDATASIZE PUSH0 PUSH0 RETURNDATACOPY RETURNDATASIZE PUSH0 REVERT JUMPDEST POP POP POP POP PUSH1 0x40 MLOAD RETURNDATASIZE PUSH1 0x1F NOT PUSH1 0x1F DUP3 ADD AND DUP3 ADD DUP1 PUSH1 0x40 MSTORE POP DUP2 ADD SWAP1 PUSH2 0xB01 SWAP2 SWAP1 PUSH2 0x1646 JUMP JUMPDEST SWAP2 POP PUSH2 0xBD4 JUMP JUMPDEST PUSH32 0x0 PUSH20 0xFFFFFFFFFFFFFFFFFFFFFFFFFFFFFFFFFFFFFFFF AND PUSH4 0x29A5F2F6 PUSH1 0x40 MLOAD DUP1 PUSH1 0x40 ADD PUSH1 0x40 MSTORE DUP1 PUSH1 0x14 DUP6 PUSH4 0xFFFFFFFF AND PUSH1 0x14 DUP2 LT PUSH2 0xB69 JUMPI PUSH2 0xB68 PUSH2 0x1251 JUMP JUMPDEST JUMPDEST ADD SLOAD PUSH0 SHR DUP2 MSTORE PUSH1 0x20 ADD DUP6 DUP2 MSTORE POP PUSH1 0x40 MLOAD DUP3 PUSH4 0xFFFFFFFF AND PUSH1 0xE0 SHL DUP2 MSTORE PUSH1 0x4 ADD PUSH2 0xB92 SWAP2 SWAP1 PUSH2 0x1619 JUMP JUMPDEST PUSH1 0x20 PUSH1 0x40 MLOAD DUP1 DUP4 SUB DUP2 DUP7 GAS STATICCALL ISZERO DUP1 ISZERO PUSH2 0xBAD JUMPI RETURNDATASIZE PUSH0 PUSH0 RETURNDATACOPY RETURNDATASIZE PUSH0 REVERT JUMPDEST POP POP POP POP PUSH1 0x40 MLOAD RETURNDATASIZE PUSH1 0x1F NOT PUSH1 0x1F DUP3 ADD AND DUP3 ADD DUP1 PUSH1 0x40 MSTORE POP DUP2 ADD SWAP1 PUSH2 0xBD1 SWAP2 SWAP1 PUSH2 0x1646 JUMP JUMPDEST SWAP2 POP JUMPDEST PUSH1 0x1 DUP4 PUSH4 0xFFFFFFFF AND SWAP1 SHR SWAP3 POP DUP1 DUP1 PUSH1 0x1 ADD SWAP2 POP POP PUSH2 0x9F2 JUMP JUMPDEST POP DUP1 PUSH0 SHL PUSH1 0x28 DUP2 SWAP1 SSTORE POP PUSH1 0x1 PUSH1 0x2B PUSH0 PUSH1 0x28 SLOAD DUP2 MSTORE PUSH1 0x20 ADD SWAP1 DUP2 MSTORE PUSH1 0x20 ADD PUSH0 KECCAK256 PUSH0 PUSH2 0x100 EXP DUP2 SLOAD DUP2 PUSH1 0xFF MUL NOT AND SWAP1 DUP4 ISZERO ISZERO MUL OR SWAP1 SSTORE POP PUSH1 0x40 MLOAD DUP1 PUSH1 0x20 ADD PUSH1 0x40 MSTORE DUP1 DUP6 DUP6 DUP1 DUP1 PUSH1 0x1F ADD PUSH1 0x20 DUP1 SWAP2 DIV MUL PUSH1 0x20 ADD PUSH1 0x40 MLOAD SWAP1 DUP2 ADD PUSH1 0x40 MSTORE DUP1 SWAP4 SWAP3 SWAP2 SWAP1 DUP2 DUP2 MSTORE PUSH1 0x20 ADD DUP4 DUP4 DUP1 DUP3 DUP5 CALLDATACOPY PUSH0 DUP2 DUP5 ADD MSTORE PUSH1 0x1F NOT PUSH1 0x1F DUP3 ADD AND SWAP1 POP DUP1 DUP4 ADD SWAP3 POP POP POP POP POP POP POP DUP2 MSTORE POP PUSH1 0x2C PUSH0 DUP8 DUP2 MSTORE PUSH1 0x20 ADD SWAP1 DUP2 MSTORE PUSH1 0x20 ADD PUSH0 KECCAK256 PUSH0 DUP3 ADD MLOAD DUP2 PUSH0 ADD SWAP1 DUP2 PUSH2 0xC99 SWAP2 SWAP1 PUSH2 0x1808 JUMP JUMPDEST POP SWAP1 POP POP DUP5 PUSH32 0x84FC9EB8CD0A782A1D1734FBEED616BD0EF775F8B9BD437636B62D634FE4BAF3 PUSH1 0x1 PUSH1 0x29 PUSH0 SWAP1 SLOAD SWAP1 PUSH2 0x100 EXP SWAP1 DIV PUSH4 0xFFFFFFFF AND PUSH2 0xCDD SWAP2 SWAP1 PUSH2 0x18D7 JUMP JUMPDEST PUSH1 0x40 MLOAD PUSH2 0xCEA SWAP2 SWAP1 PUSH2 0xD8E JUMP JUMPDEST PUSH1 0x40 MLOAD DUP1 SWAP2 SUB SWAP1 LOG2 POP POP POP POP POP JUMP JUMPDEST PUSH0 PUSH1 0x2A PUSH0 DUP4 DUP2 MSTORE PUSH1 0x20 ADD SWAP1 DUP2 MSTORE PUSH1 0x20 ADD PUSH0 KECCAK256 PUSH0 SWAP1 SLOAD SWAP1 PUSH2 0x100 EXP SWAP1 DIV PUSH1 0xFF AND SWAP1 POP SWAP2 SWAP1 POP JUMP JUMPDEST PUSH0 DUP2 PUSH1 0x14 DUP2 LT PUSH2 0xD2D JUMPI PUSH0 DUP1 REVERT JUMPDEST ADD PUSH0 SWAP2 POP SWAP1 POP SLOAD DUP2 JUMP JUMPDEST PUSH1 0x14 DUP2 JUMP JUMPDEST PUSH1 0x14 DUP2 PUSH1 0x14 DUP2 LT PUSH2 0xD4B JUMPI PUSH0 DUP1 REVERT JUMPDEST ADD PUSH0 SWAP2 POP SWAP1 POP SLOAD DUP2 JUMP JUMPDEST PUSH1 0x29 PUSH0 SWAP1 SLOAD SWAP1 PUSH2 0x100 EXP SWAP1 DIV PUSH4 0xFFFFFFFF AND DUP2 JUMP JUMPDEST PUSH1 0x28 SLOAD DUP2 JUMP JUMPDEST PUSH0 PUSH4 0xFFFFFFFF DUP3 AND SWAP1 POP SWAP2 SWAP1 POP JUMP JUMPDEST PUSH2 0xD88 DUP2 PUSH2 0xD70 JUMP JUMPDEST DUP3 MSTORE POP POP JUMP JUMPDEST PUSH0 PUSH1 0x20 DUP3 ADD SWAP1 POP PUSH2 0xDA1 PUSH0 DUP4 ADD DUP5 PUSH2 0xD7F JUMP JUMPDEST SWAP3 SWAP2 POP POP JUMP JUMPDEST PUSH0 PUSH0 REVERT JUMPDEST PUSH0 PUSH0 REVERT JUMPDEST PUSH0 DUP2 SWAP1 POP SWAP2 SWAP1 POP JUMP JUMPDEST PUSH2 0xDC1 DUP2 PUSH2 0xDAF JUMP JUMPDEST DUP2 EQ PUSH2 0xDCB JUMPI PUSH0 PUSH0 REVERT JUMPDEST POP JUMP JUMPDEST PUSH0 DUP2 CALLDATALOAD SWAP1 POP PUSH2 0xDDC DUP2 PUSH2 0xDB8 JUMP JUMPDEST SWAP3 SWAP2 POP POP JUMP JUMPDEST PUSH0 PUSH1 0x20 DUP3 DUP5 SUB SLT ISZERO PUSH2 0xDF7 JUMPI PUSH2 0xDF6 PUSH2 0xDA7 JUMP JUMPDEST JUMPDEST PUSH0 PUSH2 0xE04 DUP5 DUP3 DUP6 ADD PUSH2 0xDCE JUMP JUMPDEST SWAP2 POP POP SWAP3 SWAP2 POP POP JUMP JUMPDEST PUSH0 DUP2 ISZERO ISZERO SWAP1 POP SWAP2 SWAP1 POP JUMP JUMPDEST PUSH2 0xE21 DUP2 PUSH2 0xE0D JUMP JUMPDEST DUP3 MSTORE POP POP JUMP JUMPDEST PUSH0 PUSH1 0x20 DUP3 ADD SWAP1 POP PUSH2 0xE3A PUSH0 DUP4 ADD DUP5 PUSH2 0xE18 JUMP JUMPDEST SWAP3 SWAP2 POP POP JUMP JUMPDEST PUSH0 PUSH20 0xFFFFFFFFFFFFFFFFFFFFFFFFFFFFFFFFFFFFFFFF DUP3 AND SWAP1 POP SWAP2 SWAP1 POP JUMP JUMPDEST PUSH0 DUP2 SWAP1 POP SWAP2 SWAP1 POP JUMP JUMPDEST PUSH0 PUSH2 0xE82 PUSH2 0xE7D PUSH2 0xE78 DUP5 PUSH2 0xE40 JUMP JUMPDEST PUSH2 0xE5F JUMP JUMPDEST PUSH2 0xE40 JUMP JUMPDEST SWAP1 POP SWAP2 SWAP1 POP JUMP JUMPDEST PUSH0 PUSH2 0xE93 DUP3 PUSH2 0xE68 JUMP JUMPDEST SWAP1 POP SWAP2 SWAP1 POP JUMP JUMPDEST PUSH0 PUSH2 0xEA4 DUP3 PUSH2 0xE89 JUMP JUMPDEST SWAP1 POP SWAP2 SWAP1 POP JUMP JUMPDEST PUSH2 0xEB4 DUP2 PUSH2 0xE9A JUMP JUMPDEST DUP3 MSTORE POP POP JUMP JUMPDEST PUSH0 PUSH1 0x20 DUP3 ADD SWAP1 POP PUSH2 0xECD PUSH0 DUP4 ADD DUP5 PUSH2 0xEAB JUMP JUMPDEST SWAP3 SWAP2 POP POP JUMP JUMPDEST PUSH0 DUP2 SWAP1 POP SWAP2 SWAP1 POP JUMP JUMPDEST PUSH2 0xEE5 DUP2 PUSH2 0xED3 JUMP JUMPDEST DUP3 MSTORE POP POP JUMP JUMPDEST PUSH0 PUSH1 0x20 DUP3 ADD SWAP1 POP PUSH2 0xEFE PUSH0 DUP4 ADD DUP5 PUSH2 0xEDC JUMP JUMPDEST SWAP3 SWAP2 POP POP JUMP JUMPDEST PUSH0 DUP2 MLOAD SWAP1 POP SWAP2 SWAP1 POP JUMP JUMPDEST PUSH0 DUP3 DUP3 MSTORE PUSH1 0x20 DUP3 ADD SWAP1 POP SWAP3 SWAP2 POP POP JUMP JUMPDEST DUP3 DUP2 DUP4 MCOPY PUSH0 DUP4 DUP4 ADD MSTORE POP POP POP JUMP JUMPDEST PUSH0 PUSH1 0x1F NOT PUSH1 0x1F DUP4 ADD AND SWAP1 POP SWAP2 SWAP1 POP JUMP JUMPDEST PUSH0 PUSH2 0xF46 DUP3 PUSH2 0xF04 JUMP JUMPDEST PUSH2 0xF50 DUP2 DUP6 PUSH2 0xF0E JUMP JUMPDEST SWAP4 POP PUSH2 0xF60 DUP2 DUP6 PUSH1 0x20 DUP7 ADD PUSH2 0xF1E JUMP JUMPDEST PUSH2 0xF69 DUP2 PUSH2 0xF2C JUMP JUMPDEST DUP5 ADD SWAP2 POP POP SWAP3 SWAP2 POP POP JUMP JUMPDEST PUSH0 PUSH1 0x20 DUP3 ADD SWAP1 POP DUP2 DUP2 SUB PUSH0 DUP4 ADD MSTORE PUSH2 0xF8C DUP2 DUP5 PUSH2 0xF3C JUMP JUMPDEST SWAP1 POP SWAP3 SWAP2 POP POP JUMP JUMPDEST PUSH0 PUSH0 REVERT JUMPDEST PUSH0 PUSH0 REVERT JUMPDEST PUSH0 PUSH0 REVERT JUMPDEST PUSH0 PUSH0 DUP4 PUSH1 0x1F DUP5 ADD SLT PUSH2 0xFB5 JUMPI PUSH2 0xFB4 PUSH2 0xF94 JUMP JUMPDEST JUMPDEST DUP3 CALLDATALOAD SWAP1 POP PUSH8 0xFFFFFFFFFFFFFFFF DUP2 GT ISZERO PUSH2 0xFD2 JUMPI PUSH2 0xFD1 PUSH2 0xF98 JUMP JUMPDEST JUMPDEST PUSH1 0x20 DUP4 ADD SWAP2 POP DUP4 PUSH1 0x1 DUP3 MUL DUP4 ADD GT ISZERO PUSH2 0xFEE JUMPI PUSH2 0xFED PUSH2 0xF9C JUMP JUMPDEST JUMPDEST SWAP3 POP SWAP3 SWAP1 POP JUMP JUMPDEST PUSH0 PUSH2 0xFFF DUP3 PUSH2 0xE40 JUMP JUMPDEST SWAP1 POP SWAP2 SWAP1 POP JUMP JUMPDEST PUSH2 0x100F DUP2 PUSH2 0xFF5 JUMP JUMPDEST DUP2 EQ PUSH2 0x1019 JUMPI PUSH0 PUSH0 REVERT JUMPDEST POP JUMP JUMPDEST PUSH0 DUP2 CALLDATALOAD SWAP1 POP PUSH2 0x102A DUP2 PUSH2 0x1006 JUMP JUMPDEST SWAP3 SWAP2 POP POP JUMP JUMPDEST PUSH0 PUSH0 PUSH0 PUSH0 PUSH0 PUSH1 0x80 DUP7 DUP9 SUB SLT ISZERO PUSH2 0x1049 JUMPI PUSH2 0x1048 PUSH2 0xDA7 JUMP JUMPDEST JUMPDEST PUSH0 DUP7 ADD CALLDATALOAD PUSH8 0xFFFFFFFFFFFFFFFF DUP2 GT ISZERO PUSH2 0x1066 JUMPI PUSH2 0x1065 PUSH2 0xDAB JUMP JUMPDEST JUMPDEST PUSH2 0x1072 DUP9 DUP3 DUP10 ADD PUSH2 0xFA0 JUMP JUMPDEST SWAP6 POP SWAP6 POP POP PUSH1 0x20 PUSH2 0x1085 DUP9 DUP3 DUP10 ADD PUSH2 0xDCE JUMP JUMPDEST SWAP4 POP POP PUSH1 0x40 PUSH2 0x1096 DUP9 DUP3 DUP10 ADD PUSH2 0xDCE JUMP JUMPDEST SWAP3 POP POP PUSH1 0x60 PUSH2 0x10A7 DUP9 DUP3 DUP10 ADD PUSH2 0x101C JUMP JUMPDEST SWAP2 POP POP SWAP3 SWAP6 POP SWAP3 SWAP6 SWAP1 SWAP4 POP JUMP JUMPDEST PUSH0 PUSH2 0x10BE DUP3 PUSH2 0xE89 JUMP JUMPDEST SWAP1 POP SWAP2 SWAP1 POP JUMP JUMPDEST PUSH2 0x10CE DUP2 PUSH2 0x10B4 JUMP JUMPDEST DUP3 MSTORE POP POP JUMP JUMPDEST PUSH0 PUSH1 0x20 DUP3 ADD SWAP1 POP PUSH2 0x10E7 PUSH0 DUP4 ADD DUP5 PUSH2 0x10C5 JUMP JUMPDEST SWAP3 SWAP2 POP POP JUMP JUMPDEST PUSH0 PUSH0 PUSH0 PUSH1 0x40 DUP5 DUP7 SUB SLT ISZERO PUSH2 0x1104 JUMPI PUSH2 0x1103 PUSH2 0xDA7 JUMP JUMPDEST JUMPDEST PUSH0 PUSH2 0x1111 DUP7 DUP3 DUP8 ADD PUSH2 0xDCE JUMP JUMPDEST SWAP4 POP POP PUSH1 0x20 DUP5 ADD CALLDATALOAD PUSH8 0xFFFFFFFFFFFFFFFF DUP2 GT ISZERO PUSH2 0x1132 JUMPI PUSH2 0x1131 PUSH2 0xDAB JUMP JUMPDEST JUMPDEST PUSH2 0x113E DUP7 DUP3 DUP8 ADD PUSH2 0xFA0 JUMP JUMPDEST SWAP3 POP SWAP3 POP POP SWAP3 POP SWAP3 POP SWAP3 JUMP JUMPDEST PUSH2 0x1153 DUP2 PUSH2 0xED3 JUMP JUMPDEST DUP2 EQ PUSH2 0x115D JUMPI PUSH0 PUSH0 REVERT JUMPDEST POP JUMP JUMPDEST PUSH0 DUP2 CALLDATALOAD SWAP1 POP PUSH2 0x116E DUP2 PUSH2 0x114A JUMP JUMPDEST SWAP3 SWAP2 POP POP JUMP JUMPDEST PUSH0 PUSH1 0x20 DUP3 DUP5 SUB SLT ISZERO PUSH2 0x1189 JUMPI PUSH2 0x1188 PUSH2 0xDA7 JUMP JUMPDEST JUMPDEST PUSH0 PUSH2 0x1196 DUP5 DUP3 DUP6 ADD PUSH2 0x1160 JUMP JUMPDEST SWAP2 POP POP SWAP3 SWAP2 POP POP JUMP JUMPDEST PUSH2 0x11A8 DUP2 PUSH2 0xDAF JUMP JUMPDEST DUP3 MSTORE POP POP JUMP JUMPDEST PUSH0 PUSH1 0x20 DUP3 ADD SWAP1 POP PUSH2 0x11C1 PUSH0 DUP4 ADD DUP5 PUSH2 0x119F JUMP JUMPDEST SWAP3 SWAP2 POP POP JUMP JUMPDEST PUSH32 0x4E487B7100000000000000000000000000000000000000000000000000000000 PUSH0 MSTORE PUSH1 0x22 PUSH1 0x4 MSTORE PUSH1 0x24 PUSH0 REVERT JUMPDEST PUSH0 PUSH1 0x2 DUP3 DIV SWAP1 POP PUSH1 0x1 DUP3 AND DUP1 PUSH2 0x120B JUMPI PUSH1 0x7F DUP3 AND SWAP2 POP JUMPDEST PUSH1 0x20 DUP3 LT DUP2 SUB PUSH2 0x121E JUMPI PUSH2 0x121D PUSH2 0x11C7 JUMP JUMPDEST JUMPDEST POP SWAP2 SWAP1 POP JUMP JUMPDEST PUSH32 0x4E487B7100000000000000000000000000000000000000000000000000000000 PUSH0 MSTORE PUSH1 0x41 PUSH1 0x4 MSTORE PUSH1 0x24 PUSH0 REVERT JUMPDEST PUSH32 0x4E487B7100000000000000000000000000000000000000000000000000000000 PUSH0 MSTORE PUSH1 0x32 PUSH1 0x4 MSTORE PUSH1 0x24 PUSH0 REVERT JUMPDEST DUP3 DUP2 DUP4 CALLDATACOPY PUSH0 DUP4 DUP4 ADD MSTORE POP POP POP JUMP JUMPDEST PUSH0 PUSH2 0x1297 DUP4 DUP6 PUSH2 0xF0E JUMP JUMPDEST SWAP4 POP PUSH2 0x12A4 DUP4 DUP6 DUP5 PUSH2 0x127E JUMP JUMPDEST PUSH2 0x12AD DUP4 PUSH2 0xF2C JUMP JUMPDEST DUP5 ADD SWAP1 POP SWAP4 SWAP3 POP POP POP JUMP JUMPDEST PUSH0 DUP2 MLOAD SWAP1 POP SWAP2 SWAP1 POP JUMP JUMPDEST PUSH0 DUP3 DUP3 MSTORE PUSH1 0x20 DUP3 ADD SWAP1 POP SWAP3 SWAP2 POP POP JUMP JUMPDEST PUSH0 DUP2 SWAP1 POP PUSH1 0x20 DUP3 ADD SWAP1 POP SWAP2 SWAP1 POP JUMP JUMPDEST PUSH2 0x12EA DUP2 PUSH2 0xDAF JUMP JUMPDEST DUP3 MSTORE POP POP JUMP JUMPDEST PUSH0 PUSH2 0x12FB DUP4 DUP4 PUSH2 0x12E1 JUMP JUMPDEST PUSH1 0x20 DUP4 ADD SWAP1 POP SWAP3 SWAP2 POP POP JUMP JUMPDEST PUSH0 PUSH1 0x20 DUP3 ADD SWAP1 POP SWAP2 SWAP1 POP JUMP JUMPDEST PUSH0 PUSH2 0x131D DUP3 PUSH2 0x12B8 JUMP JUMPDEST PUSH2 0x1327 DUP2 DUP6 PUSH2 0x12C2 JUMP JUMPDEST SWAP4 POP PUSH2 0x1332 DUP4 PUSH2 0x12D2 JUMP JUMPDEST DUP1 PUSH0 JUMPDEST DUP4 DUP2 LT ISZERO PUSH2 0x1362 JUMPI DUP2 MLOAD PUSH2 0x1349 DUP9 DUP3 PUSH2 0x12F0 JUMP JUMPDEST SWAP8 POP PUSH2 0x1354 DUP4 PUSH2 0x1307 JUMP JUMPDEST SWAP3 POP POP PUSH1 0x1 DUP2 ADD SWAP1 POP PUSH2 0x1335 JUMP JUMPDEST POP DUP6 SWAP4 POP POP POP POP SWAP3 SWAP2 POP POP JUMP JUMPDEST PUSH0 PUSH1 0x40 DUP3 ADD SWAP1 POP DUP2 DUP2 SUB PUSH0 DUP4 ADD MSTORE PUSH2 0x1388 DUP2 DUP6 DUP8 PUSH2 0x128C JUMP JUMPDEST SWAP1 POP DUP2 DUP2 SUB PUSH1 0x20 DUP4 ADD MSTORE PUSH2 0x139C DUP2 DUP5 PUSH2 0x1313 JUMP JUMPDEST SWAP1 POP SWAP5 SWAP4 POP POP POP POP JUMP JUMPDEST PUSH2 0x13AF DUP2 PUSH2 0xE0D JUMP JUMPDEST DUP2 EQ PUSH2 0x13B9 JUMPI PUSH0 PUSH0 REVERT JUMPDEST POP JUMP JUMPDEST PUSH0 DUP2 MLOAD SWAP1 POP PUSH2 0x13CA DUP2 PUSH2 0x13A6 JUMP JUMPDEST SWAP3 SWAP2 POP POP JUMP JUMPDEST PUSH0 PUSH1 0x20 DUP3 DUP5 SUB SLT ISZERO PUSH2 0x13E5 JUMPI PUSH2 0x13E4 PUSH2 0xDA7 JUMP JUMPDEST JUMPDEST PUSH0 PUSH2 0x13F2 DUP5 DUP3 DUP6 ADD PUSH2 0x13BC JUMP JUMPDEST SWAP2 POP POP SWAP3 SWAP2 POP POP JUMP JUMPDEST PUSH0 DUP2 SWAP1 POP SWAP3 SWAP2 POP POP JUMP JUMPDEST POP JUMP JUMPDEST PUSH0 PUSH2 0x1413 PUSH0 DUP4 PUSH2 0x13FB JUMP JUMPDEST SWAP2 POP PUSH2 0x141E DUP3 PUSH2 0x1405 JUMP JUMPDEST PUSH0 DUP3 ADD SWAP1 POP SWAP2 SWAP1 POP JUMP JUMPDEST PUSH0 PUSH2 0x1432 DUP3 PUSH2 0x1408 JUMP JUMPDEST SWAP2 POP DUP2 SWAP1 POP SWAP2 SWAP1 POP JUMP JUMPDEST PUSH0 DUP3 DUP3 MSTORE PUSH1 0x20 DUP3 ADD SWAP1 POP SWAP3 SWAP2 POP POP JUMP JUMPDEST PUSH32 0x4D4E54207472616E73666572206661696C656400000000000000000000000000 PUSH0 DUP3 ADD MSTORE POP JUMP JUMPDEST PUSH0 PUSH2 0x1480 PUSH1 0x13 DUP4 PUSH2 0x143C JUMP JUMPDEST SWAP2 POP PUSH2 0x148B DUP3 PUSH2 0x144C JUMP JUMPDEST PUSH1 0x20 DUP3 ADD SWAP1 POP SWAP2 SWAP1 POP JUMP JUMPDEST PUSH0 PUSH1 0x20 DUP3 ADD SWAP1 POP DUP2 DUP2 SUB PUSH0 DUP4 ADD MSTORE PUSH2 0x14AD DUP2 PUSH2 0x1474 JUMP JUMPDEST SWAP1 POP SWAP2 SWAP1 POP JUMP JUMPDEST PUSH32 0x496E76616C696420436F6D6D69746D656E740000000000000000000000000000 PUSH0 DUP3 ADD MSTORE POP JUMP JUMPDEST PUSH0 PUSH2 0x14E8 PUSH1 0x12 DUP4 PUSH2 0x143C JUMP JUMPDEST SWAP2 POP PUSH2 0x14F3 DUP3 PUSH2 0x14B4 JUMP JUMPDEST PUSH1 0x20 DUP3 ADD SWAP1 POP SWAP2 SWAP1 POP JUMP JUMPDEST PUSH0 PUSH1 0x20 DUP3 ADD SWAP1 POP DUP2 DUP2 SUB PUSH0 DUP4 ADD MSTORE PUSH2 0x1515 DUP2 PUSH2 0x14DC JUMP JUMPDEST SWAP1 POP SWAP2 SWAP1 POP JUMP JUMPDEST PUSH32 0x4E487B7100000000000000000000000000000000000000000000000000000000 PUSH0 MSTORE PUSH1 0x11 PUSH1 0x4 MSTORE PUSH1 0x24 PUSH0 REVERT JUMPDEST PUSH0 PUSH2 0x1553 DUP3 PUSH2 0xD70 JUMP JUMPDEST SWAP2 POP PUSH4 0xFFFFFFFF DUP3 SUB PUSH2 0x1569 JUMPI PUSH2 0x1568 PUSH2 0x151C JUMP JUMPDEST JUMPDEST PUSH1 0x1 DUP3 ADD SWAP1 POP SWAP2 SWAP1 POP JUMP JUMPDEST PUSH0 PUSH1 0x2 SWAP1 POP SWAP2 SWAP1 POP JUMP JUMPDEST PUSH0 DUP2 SWAP1 POP SWAP3 SWAP2 POP POP JUMP JUMPDEST PUSH0 DUP2 SWAP1 POP SWAP2 SWAP1 POP JUMP JUMPDEST PUSH2 0x159A DUP2 PUSH2 0xED3 JUMP JUMPDEST DUP3 MSTORE POP POP JUMP JUMPDEST PUSH0 PUSH2 0x15AB DUP4 DUP4 PUSH2 0x1591 JUMP JUMPDEST PUSH1 0x20 DUP4 ADD SWAP1 POP SWAP3 SWAP2 POP POP JUMP JUMPDEST PUSH0 PUSH1 0x20 DUP3 ADD SWAP1 POP SWAP2 SWAP1 POP JUMP JUMPDEST PUSH2 0x15CC DUP2 PUSH2 0x1574 JUMP JUMPDEST PUSH2 0x15D6 DUP2 DUP5 PUSH2 0x157E JUMP JUMPDEST SWAP3 POP PUSH2 0x15E1 DUP3 PUSH2 0x1588 JUMP JUMPDEST DUP1 PUSH0 JUMPDEST DUP4 DUP2 LT ISZERO PUSH2 0x1611 JUMPI DUP2 MLOAD PUSH2 0x15F8 DUP8 DUP3 PUSH2 0x15A0 JUMP JUMPDEST SWAP7 POP PUSH2 0x1603 DUP4 PUSH2 0x15B7 JUMP JUMPDEST SWAP3 POP POP PUSH1 0x1 DUP2 ADD SWAP1 POP PUSH2 0x15E4 JUMP JUMPDEST POP POP POP POP POP POP JUMP JUMPDEST PUSH0 PUSH1 0x40 DUP3 ADD SWAP1 POP PUSH2 0x162C PUSH0 DUP4 ADD DUP5 PUSH2 0x15C3 JUMP JUMPDEST SWAP3 SWAP2 POP POP JUMP JUMPDEST PUSH0 DUP2 MLOAD SWAP1 POP PUSH2 0x1640 DUP2 PUSH2 0x114A JUMP JUMPDEST SWAP3 SWAP2 POP POP JUMP JUMPDEST PUSH0 PUSH1 0x20 DUP3 DUP5 SUB SLT ISZERO PUSH2 0x165B JUMPI PUSH2 0x165A PUSH2 0xDA7 JUMP JUMPDEST JUMPDEST PUSH0 PUSH2 0x1668 DUP5 DUP3 DUP6 ADD PUSH2 0x1632 JUMP JUMPDEST SWAP2 POP POP SWAP3 SWAP2 POP POP JUMP JUMPDEST PUSH0 DUP2 SWAP1 POP DUP2 PUSH0 MSTORE PUSH1 0x20 PUSH0 KECCAK256 SWAP1 POP SWAP2 SWAP1 POP JUMP JUMPDEST PUSH0 PUSH1 0x20 PUSH1 0x1F DUP4 ADD DIV SWAP1 POP SWAP2 SWAP1 POP JUMP JUMPDEST PUSH0 DUP3 DUP3 SHL SWAP1 POP SWAP3 SWAP2 POP POP JUMP JUMPDEST PUSH0 PUSH1 0x8 DUP4 MUL PUSH2 0x16CD PUSH32 0xFFFFFFFFFFFFFFFFFFFFFFFFFFFFFFFFFFFFFFFFFFFFFFFFFFFFFFFFFFFFFFFF DUP3 PUSH2 0x1692 JUMP JUMPDEST PUSH2 0x16D7 DUP7 DUP4 PUSH2 0x1692 JUMP JUMPDEST SWAP6 POP DUP1 NOT DUP5 AND SWAP4 POP DUP1 DUP7 AND DUP5 OR SWAP3 POP POP POP SWAP4 SWAP3 POP POP POP JUMP JUMPDEST PUSH0 PUSH2 0x1709 PUSH2 0x1704 PUSH2 0x16FF DUP5 PUSH2 0xED3 JUMP JUMPDEST PUSH2 0xE5F JUMP JUMPDEST PUSH2 0xED3 JUMP JUMPDEST SWAP1 POP SWAP2 SWAP1 POP JUMP JUMPDEST PUSH0 DUP2 SWAP1 POP SWAP2 SWAP1 POP JUMP JUMPDEST PUSH2 0x1722 DUP4 PUSH2 0x16EF JUMP JUMPDEST PUSH2 0x1736 PUSH2 0x172E DUP3 PUSH2 0x1710 JUMP JUMPDEST DUP5 DUP5 SLOAD PUSH2 0x169E JUMP JUMPDEST DUP3 SSTORE POP POP POP POP JUMP JUMPDEST PUSH0 PUSH0 SWAP1 POP SWAP1 JUMP JUMPDEST PUSH2 0x174D PUSH2 0x173E JUMP JUMPDEST PUSH2 0x1758 DUP2 DUP5 DUP5 PUSH2 0x1719 JUMP JUMPDEST POP POP POP JUMP JUMPDEST JUMPDEST DUP2 DUP2 LT ISZERO PUSH2 0x177B JUMPI PUSH2 0x1770 PUSH0 DUP3 PUSH2 0x1745 JUMP JUMPDEST PUSH1 0x1 DUP2 ADD SWAP1 POP PUSH2 0x175E JUMP JUMPDEST POP POP JUMP JUMPDEST PUSH1 0x1F DUP3 GT ISZERO PUSH2 0x17C0 JUMPI PUSH2 0x1791 DUP2 PUSH2 0x1671 JUMP JUMPDEST PUSH2 0x179A DUP5 PUSH2 0x1683 JUMP JUMPDEST DUP2 ADD PUSH1 0x20 DUP6 LT ISZERO PUSH2 0x17A9 JUMPI DUP2 SWAP1 POP JUMPDEST PUSH2 0x17BD PUSH2 0x17B5 DUP6 PUSH2 0x1683 JUMP JUMPDEST DUP4 ADD DUP3 PUSH2 0x175D JUMP JUMPDEST POP POP JUMPDEST POP POP POP JUMP JUMPDEST PUSH0 DUP3 DUP3 SHR SWAP1 POP SWAP3 SWAP2 POP POP JUMP JUMPDEST PUSH0 PUSH2 0x17E0 PUSH0 NOT DUP5 PUSH1 0x8 MUL PUSH2 0x17C5 JUMP JUMPDEST NOT DUP1 DUP4 AND SWAP2 POP POP SWAP3 SWAP2 POP POP JUMP JUMPDEST PUSH0 PUSH2 0x17F8 DUP4 DUP4 PUSH2 0x17D1 JUMP JUMPDEST SWAP2 POP DUP3 PUSH1 0x2 MUL DUP3 OR SWAP1 POP SWAP3 SWAP2 POP POP JUMP JUMPDEST PUSH2 0x1811 DUP3 PUSH2 0xF04 JUMP JUMPDEST PUSH8 0xFFFFFFFFFFFFFFFF DUP2 GT ISZERO PUSH2 0x182A JUMPI PUSH2 0x1829 PUSH2 0x1224 JUMP JUMPDEST JUMPDEST PUSH2 0x1834 DUP3 SLOAD PUSH2 0x11F4 JUMP JUMPDEST PUSH2 0x183F DUP3 DUP3 DUP6 PUSH2 0x177F JUMP JUMPDEST PUSH0 PUSH1 0x20 SWAP1 POP PUSH1 0x1F DUP4 GT PUSH1 0x1 DUP2 EQ PUSH2 0x1870 JUMPI PUSH0 DUP5 ISZERO PUSH2 0x185E JUMPI DUP3 DUP8 ADD MLOAD SWAP1 POP JUMPDEST PUSH2 0x1868 DUP6 DUP3 PUSH2 0x17ED JUMP JUMPDEST DUP7 SSTORE POP PUSH2 0x18CF JUMP JUMPDEST PUSH1 0x1F NOT DUP5 AND PUSH2 0x187E DUP7 PUSH2 0x1671 JUMP JUMPDEST PUSH0 JUMPDEST DUP3 DUP2 LT ISZERO PUSH2 0x18A5 JUMPI DUP5 DUP10 ADD MLOAD DUP3 SSTORE PUSH1 0x1 DUP3 ADD SWAP2 POP PUSH1 0x20 DUP6 ADD SWAP5 POP PUSH1 0x20 DUP2 ADD SWAP1 POP PUSH2 0x1880 JUMP JUMPDEST DUP7 DUP4 LT ISZERO PUSH2 0x18C2 JUMPI DUP5 DUP10 ADD MLOAD PUSH2 0x18BE PUSH1 0x1F DUP10 AND DUP3 PUSH2 0x17D1 JUMP JUMPDEST DUP4 SSTORE POP JUMPDEST PUSH1 0x1 PUSH1 0x2 DUP9 MUL ADD DUP9 SSTORE POP POP POP JUMPDEST POP POP POP POP POP POP JUMP JUMPDEST PUSH0 PUSH2 0x18E1 DUP3 PUSH2 0xD70 JUMP JUMPDEST SWAP2 POP PUSH2 0x18EC DUP4 PUSH2 0xD70 JUMP JUMPDEST SWAP3 POP DUP3 DUP3 SUB SWAP1 POP PUSH4 0xFFFFFFFF DUP2 GT ISZERO PUSH2 0x1908 JUMPI PUSH2 0x1907 PUSH2 0x151C JUMP JUMPDEST JUMPDEST SWAP3 SWAP2 POP POP JUMP INVALID LOG2 PUSH5 0x6970667358 0x22 SLT KECCAK256 PUSH30 0x28399C2C7CEA2553F167332EDB2D6AC3CD59CDD15F041501097E7DF42B57 LOG0 PUSH5 0x736F6C6343 STOP ADDMOD 0x1F STOP CALLER "
				},
				"gasEstimates": {
					"creation": {
						"codeDepositCost": "1293600",
						"executionCost": "infinite",
						"totalCost": "infinite"
					},
					"external": {
						"DENOMINATION()": "392",
						"FIELD_MODULUS()": "348",
						"MAX_LEAVES()": "370",
						"TREE_DEPTH()": "353",
						"currentRoot()": "2513",
						"deposit(bytes32,bytes)": "infinite",
						"filledSubtrees(uint256)": "2766",
						"isSpent(bytes32)": "2877",
						"knownRoots(bytes32)": "2875",
						"nextIndex()": "2532",
						"notes(bytes32)": "infinite",
						"nullifierHashes(bytes32)": "2831",
						"poseidon()": "infinite",
						"verifier()": "infinite",
						"withdraw(bytes,bytes32,bytes32,address)": "infinite",
						"zeros(uint256)": "2810"
					}
				},
				"methodIdentifiers": {
					"DENOMINATION()": "8b01429d",
					"FIELD_MODULUS()": "4f76a98e",
					"MAX_LEAVES()": "082febf0",
					"TREE_DEPTH()": "f1650536",
					"currentRoot()": "fdab463d",
					"deposit(bytes32,bytes)": "e29973fc",
					"filledSubtrees(uint256)": "f178e47c",
					"isSpent(bytes32)": "e5285dcc",
					"knownRoots(bytes32)": "4e73da7d",
					"nextIndex()": "fc7e9c6f",
					"notes(bytes32)": "85de26b7",
					"nullifierHashes(bytes32)": "17cc915c",
					"poseidon()": "c62b919e",
					"verifier()": "2b7ac3f3",
					"withdraw(bytes,bytes32,bytes32,address)": "b130eaa6",
					"zeros(uint256)": "e8295588"
				}
			},
			"storageLayout": {
				"storage": [
					{
						"astId": 72,
						"contract": "contracts/SwirlPrivatePool_placeholder.sol:SwirlPrivatePool",
						"label": "zeros",
						"offset": 0,
						"slot": "0",
						"type": "t_array(t_bytes32)20_storage"
					},
					{
						"astId": 76,
						"contract": "contracts/SwirlPrivatePool_placeholder.sol:SwirlPrivatePool",
						"label": "filledSubtrees",
						"offset": 0,
						"slot": "20",
						"type": "t_array(t_bytes32)20_storage"
					},
					{
						"astId": 78,
						"contract": "contracts/SwirlPrivatePool_placeholder.sol:SwirlPrivatePool",
						"label": "currentRoot",
						"offset": 0,
						"slot": "40",
						"type": "t_bytes32"
					},
					{
						"astId": 80,
						"contract": "contracts/SwirlPrivatePool_placeholder.sol:SwirlPrivatePool",
						"label": "nextIndex",
						"offset": 0,
						"slot": "41",
						"type": "t_uint32"
					},
					{
						"astId": 84,
						"contract": "contracts/SwirlPrivatePool_placeholder.sol:SwirlPrivatePool",
						"label": "nullifierHashes",
						"offset": 0,
						"slot": "42",
						"type": "t_mapping(t_bytes32,t_bool)"
					},
					{
						"astId": 88,
						"contract": "contracts/SwirlPrivatePool_placeholder.sol:SwirlPrivatePool",
						"label": "knownRoots",
						"offset": 0,
						"slot": "43",
						"type": "t_mapping(t_bytes32,t_bool)"
					},
					{
						"astId": 96,
						"contract": "contracts/SwirlPrivatePool_placeholder.sol:SwirlPrivatePool",
						"label": "notes",
						"offset": 0,
						"slot": "44",
						"type": "t_mapping(t_bytes32,t_struct(EncryptedNote)91_storage)"
					}
				],
				"types": {
					"t_array(t_bytes32)20_storage": {
						"base": "t_bytes32",
						"encoding": "inplace",
						"label": "bytes32[20]",
						"numberOfBytes": "640"
					},
					"t_bool": {
						"encoding": "inplace",
						"label": "bool",
						"numberOfBytes": "1"
					},
					"t_bytes32": {
						"encoding": "inplace",
						"label": "bytes32",
						"numberOfBytes": "32"
					},
					"t_bytes_storage": {
						"encoding": "bytes",
						"label": "bytes",
						"numberOfBytes": "32"
					},
					"t_mapping(t_bytes32,t_bool)": {
						"encoding": "mapping",
						"key": "t_bytes32",
						"label": "mapping(bytes32 => bool)",
						"numberOfBytes": "32",
						"value": "t_bool"
					},
					"t_mapping(t_bytes32,t_struct(EncryptedNote)91_storage)": {
						"encoding": "mapping",
						"key": "t_bytes32",
						"label": "mapping(bytes32 => struct SwirlPrivatePool.EncryptedNote)",
						"numberOfBytes": "32",
						"value": "t_struct(EncryptedNote)91_storage"
					},
					"t_struct(EncryptedNote)91_storage": {
						"encoding": "inplace",
						"label": "struct SwirlPrivatePool.EncryptedNote",
						"members": [
							{
								"astId": 90,
								"contract": "contracts/SwirlPrivatePool_placeholder.sol:SwirlPrivatePool",
								"label": "ciphertext",
								"offset": 0,
								"slot": "0",
								"type": "t_bytes_storage"
							}
						],
						"numberOfBytes": "32"
					},
					"t_uint32": {
						"encoding": "inplace",
						"label": "uint32",
						"numberOfBytes": "4"
					}
				}
			},
			"userdoc": {
				"kind": "user",
				"methods": {},
				"version": 1
			}
		}
	}
}