{
	"contracts/SwirlPrivatePool_Denomination1ether1.sol": {
		"SwirlPrivatePoolDenomination1Ether": {
			"abi": [
				{
					"inputs": [
						{
							"internalType": "address",
							"name": "_verifier",
							"type": "address"
						},
						{
							"internalType": "address",
							"name": "_poseidon",
							"type": "address"
						}
					],
					"stateMutability": "nonpayable",
					"type": "constructor"
				},
				{
					"inputs": [],
					"name": "InvalidDenomination",
					"type": "error"
				},
				{
					"inputs": [],
					"name": "InvalidProof",
					"type": "error"
				},
				{
					"inputs": [],
					"name": "NullifierAlreadyUsed",
					"type": "error"
				},
				{
					"inputs": [],
					"name": "TreeIsFull",
					"type": "error"
				},
				{
					"inputs": [],
					"name": "UnknownRoot",
					"type": "error"
				},
				{
					"anonymous": false,
					"inputs": [
						{
							"indexed": true,
							"internalType": "bytes32",
							"name": "commitment",
							"type": "bytes32"
						},
						{
							"indexed": false,
							"internalType": "uint32",
							"name": "leafIndex",
							"type": "uint32"
						}
					],
					"name": "Deposit",
					"type": "event"
				},
				{
					"anonymous": false,
					"inputs": [
						{
							"indexed": true,
							"internalType": "address",
							"name": "recipient",
							"type": "address"
						},
						{
							"indexed": false,
							"internalType": "bytes32",
							"name": "nullifierHash",
							"type": "bytes32"
						}
					],
					"name": "Withdrawal",
					"type": "event"
				},
				{
					"inputs": [],
					"name": "DENOMINATION",
					"outputs": [
						{
							"internalType": "uint256",
							"name": "",
							"type": "uint256"
						}
					],
					"stateMutability": "view",
					"type": "function"
				},
				{
					"inputs": [],
					"name": "MAX_LEAVES",
					"outputs": [
						{
							"internalType": "uint32",
							"name": "",
							"type": "uint32"
						}
					],
					"stateMutability": "view",
					"type": "function"
				},
				{
					"inputs": [],
					"name": "TREE_DEPTH",
					"outputs": [
						{
							"internalType": "uint32",
							"name": "",
							"type": "uint32"
						}
					],
					"stateMutability": "view",
					"type": "function"
				},
				{
					"inputs": [],
					"name": "currentRoot",
					"outputs": [
						{
							"internalType": "bytes32",
							"name": "",
							"type": "bytes32"
						}
					],
					"stateMutability": "view",
					"type": "function"
				},
				{
					"inputs": [
						{
							"internalType": "bytes32",
							"name": "commitment",
							"type": "bytes32"
						},
						{
							"internalType": "bytes",
							"name": "encryptedNote",
							"type": "bytes"
						}
					],
					"name": "deposit",
					"outputs": [],
					"stateMutability": "payable",
					"type": "function"
				},
				{
					"inputs": [
						{
							"internalType": "uint256",
							"name": "",
							"type": "uint256"
						}
					],
					"name": "filledSubtrees",
					"outputs": [
						{
							"internalType": "bytes32",
							"name": "",
							"type": "bytes32"
						}
					],
					"stateMutability": "view",
					"type": "function"
				},
				{
					"inputs": [
						{
							"internalType": "bytes32",
							"name": "nullifierHash",
							"type": "bytes32"
						}
					],
					"name": "isSpent",
					"outputs": [
						{
							"internalType": "bool",
							"name": "",
							"type": "bool"
						}
					],
					"stateMutability": "view",
					"type": "function"
				},
				{
					"inputs": [
						{
							"internalType": "bytes32",
							"name": "",
							"type": "bytes32"
						}
					],
					"name": "knownRoots",
					"outputs": [
						{
							"internalType": "bool",
							"name": "",
							"type": "bool"
						}
					],
					"stateMutability": "view",
					"type": "function"
				},
				{
					"inputs": [],
					"name": "nextIndex",
					"outputs": [
						{
							"internalType": "uint32",
							"name": "",
							"type": "uint32"
						}
					],
					"stateMutability": "view",
					"type": "function"
				},
				{
					"inputs": [
						{
							"internalType": "bytes32",
							"name": "",
							"type": "bytes32"
						}
					],
					"name": "notes",
					"outputs": [
						{
							"internalType": "bytes",
							"name": "ciphertext",
							"type": "bytes"
						}
					],
					"stateMutability": "view",
					"type": "function"
				},
				{
					"inputs": [
						{
							"internalType": "bytes32",
							"name": "",
							"type": "bytes32"
						}
					],
					"name": "nullifierHashes",
					"outputs": [
						{
							"internalType": "bool",
							"name": "",
							"type": "bool"
						}
					],
					"stateMutability": "view",
					"type": "function"
				},
				{
					"inputs": [],
					"name": "poseidon",
					"outputs": [
						{
							"internalType": "contract IPoseidonT2",
							"name": "",
							"type": "address"
						}
					],
					"stateMutability": "view",
					"type": "function"
				},
				{
					"inputs": [],
					"name": "verifier",
					"outputs": [
						{
							"internalType": "contract IVerifier",
							"name": "",
							"type": "address"
						}
					],
					"stateMutability": "view",
					"type": "function"
				},
				{
					"inputs": [
						{
							"internalType": "bytes",
							"name": "proof",
							"type": "bytes"
						},
						{
							"internalType": "bytes32",
							"name": "root",
							"type": "bytes32"
						},
						{
							"internalType": "bytes32",
							"name": "nullifierHash",
							"type": "bytes32"
						},
						{
							"internalType": "address payable",
							"name": "recipient",
							"type": "address"
						}
					],
					"name": "withdraw",
					"outputs": [],
					"stateMutability": "nonpayable",
					"type": "function"
				},
				{
					"inputs": [
						{
							"internalType": "uint256",
							"name": "",
							"type": "uint256"
						}
					],
					"name": "zeros",
					"outputs": [
						{
							"internalType": "bytes32",
							"name": "",
							"type": "bytes32"
						}
					],
					"stateMutability": "view",
					"type": "function"
				}
			],
			"devdoc": {
				"kind": "dev",
				"methods": {
					"deposit(bytes32,bytes)": {
						"params": {
							"commitment": "Poseidon(secret, nullifier)",
							"encryptedNote": "Encrypted metadata (view-key)"
						}
					},
					"withdraw(bytes,bytes32,bytes32,address)": {
						"params": {
							"nullifierHash": "Poseidon(nullifier)",
							"proof": "Noir proof bytes",
							"recipient": "MNT receiver",
							"root": "Merkle root"
						}
					}
				},
				"version": 1
			},
			"evm": {
				"assembly": "    /* \"contracts/SwirlPrivatePool_Denomination1ether1.sol\":654:6233  contract SwirlPrivatePoolDenomination1Ether {... */\n  mstore(0x40, 0xc0)\n    /* \"contracts/SwirlPrivatePool_Denomination1ether1.sol\":2742:3406  constructor(address _verifier, address _poseidon) {... */\n  callvalue\n  dup1\n  iszero\n  tag_1\n  jumpi\n  revert(0x00, 0x00)\ntag_1:\n  pop\n  mload(0x40)\n  sub(codesize, bytecodeSize)\n  dup1\n  bytecodeSize\n  dup4\n  codecopy\n  dup2\n  dup2\n  add\n  0x40\n  mstore\n  dup2\n  add\n  swap1\n  tag_2\n  swap2\n  swap1\n  tag_3\n  jump\t// in\ntag_2:\n    /* \"contracts/SwirlPrivatePool_Denomination1ether1.sol\":2824:2833  _verifier */\n  dup2\n    /* \"contracts/SwirlPrivatePool_Denomination1ether1.sol\":2803:2834  verifier = IVerifier(_verifier) */\n  0xffffffffffffffffffffffffffffffffffffffff\n  and\n  0x80\n  dup2\n  0xffffffffffffffffffffffffffffffffffffffff\n  and\n  dup2\n  mstore\n  pop\n  pop\n    /* \"contracts/SwirlPrivatePool_Denomination1ether1.sol\":2868:2877  _poseidon */\n  dup1\n    /* \"contracts/SwirlPrivatePool_Denomination1ether1.sol\":2845:2878  poseidon = IPoseidonT2(_poseidon) */\n  0xffffffffffffffffffffffffffffffffffffffff\n  and\n  0xa0\n  dup2\n  0xffffffffffffffffffffffffffffffffffffffff\n  and\n  dup2\n  mstore\n  pop\n  pop\n    /* \"contracts/SwirlPrivatePool_Denomination1ether1.sol\":2925:2937  uint256 zero */\n  0x00\n    /* \"contracts/SwirlPrivatePool_Denomination1ether1.sol\":2940:2948  poseidon */\n  mload(0xa0)\n    /* \"contracts/SwirlPrivatePool_Denomination1ether1.sol\":2940:2957  poseidon.poseidon */\n  0xffffffffffffffffffffffffffffffffffffffff\n  and\n  0x29a5f2f6\n    /* \"contracts/SwirlPrivatePool_Denomination1ether1.sol\":2940:2983  poseidon.poseidon([uint256(0), uint256(0)]) */\n  mload(0x40)\n  dup1\n  0x40\n  add\n  0x40\n  mstore\n  dup1\n    /* \"contracts/SwirlPrivatePool_Denomination1ether1.sol\":2967:2968  0 */\n  0x00\n    /* \"contracts/SwirlPrivatePool_Denomination1ether1.sol\":2940:2983  poseidon.poseidon([uint256(0), uint256(0)]) */\n  dup2\n  mstore\n  0x20\n  add\n    /* \"contracts/SwirlPrivatePool_Denomination1ether1.sol\":2979:2980  0 */\n  0x00\n    /* \"contracts/SwirlPrivatePool_Denomination1ether1.sol\":2940:2983  poseidon.poseidon([uint256(0), uint256(0)]) */\n  dup2\n  mstore\n  pop\n  mload(0x40)\n  dup3\n  0xffffffff\n  and\n  0xe0\n  shl\n  dup2\n  mstore\n  0x04\n  add\n  tag_6\n  swap2\n  swap1\n  tag_7\n  jump\t// in\ntag_6:\n  0x20\n  mload(0x40)\n  dup1\n  dup4\n  sub\n  dup2\n  dup7\n  gas\n  staticcall\n  iszero\n  dup1\n  iszero\n  tag_9\n  jumpi\n  returndatacopy(0x00, 0x00, returndatasize)\n  revert(0x00, returndatasize)\ntag_9:\n  pop\n  pop\n  pop\n  pop\n  mload(0x40)\n  returndatasize\n  not(0x1f)\n  0x1f\n  dup3\n  add\n  and\n  dup3\n  add\n  dup1\n  0x40\n  mstore\n  pop\n  dup2\n  add\n  swap1\n  tag_10\n  swap2\n  swap1\n  tag_11\n  jump\t// in\ntag_10:\n    /* \"contracts/SwirlPrivatePool_Denomination1ether1.sol\":2925:2983  uint256 zero = poseidon.poseidon([uint256(0), uint256(0)]) */\n  swap1\n  pop\n    /* \"contracts/SwirlPrivatePool_Denomination1ether1.sol\":3013:3017  zero */\n  dup1\n    /* \"contracts/SwirlPrivatePool_Denomination1ether1.sol\":3005:3018  bytes32(zero) */\n  0x00\n  shl\n    /* \"contracts/SwirlPrivatePool_Denomination1ether1.sol\":2994:2999  zeros */\n  0x00\n    /* \"contracts/SwirlPrivatePool_Denomination1ether1.sol\":3000:3001  0 */\n  0x00\n    /* \"contracts/SwirlPrivatePool_Denomination1ether1.sol\":2994:3002  zeros[0] */\n  0x14\n  dup2\n  lt\n  tag_12\n  jumpi\n  tag_13\n  tag_14\n  jump\t// in\ntag_13:\ntag_12:\n  add\n    /* \"contracts/SwirlPrivatePool_Denomination1ether1.sol\":2994:3018  zeros[0] = bytes32(zero) */\n  dup2\n  swap1\n  sstore\n  pop\n    /* \"contracts/SwirlPrivatePool_Denomination1ether1.sol\":3064:3072  uint32 i */\n  0x00\n    /* \"contracts/SwirlPrivatePool_Denomination1ether1.sol\":3075:3076  1 */\n  0x01\n    /* \"contracts/SwirlPrivatePool_Denomination1ether1.sol\":3064:3076  uint32 i = 1 */\n  swap1\n  pop\n    /* \"contracts/SwirlPrivatePool_Denomination1ether1.sol\":3059:3203  for (uint32 i = 1; i < TREE_DEPTH; i++) {... */\ntag_16:\n    /* \"contracts/SwirlPrivatePool_Denomination1ether1.sol\":1636:1638  20 */\n  0x14\n    /* \"contracts/SwirlPrivatePool_Denomination1ether1.sol\":3078:3092  i < TREE_DEPTH */\n  0xffffffff\n  and\n    /* \"contracts/SwirlPrivatePool_Denomination1ether1.sol\":3078:3079  i */\n  dup2\n    /* \"contracts/SwirlPrivatePool_Denomination1ether1.sol\":3078:3092  i < TREE_DEPTH */\n  0xffffffff\n  and\n  lt\n    /* \"contracts/SwirlPrivatePool_Denomination1ether1.sol\":3059:3203  for (uint32 i = 1; i < TREE_DEPTH; i++) {... */\n  iszero\n  tag_17\n  jumpi\n    /* \"contracts/SwirlPrivatePool_Denomination1ether1.sol\":3121:3129  poseidon */\n  mload(0xa0)\n    /* \"contracts/SwirlPrivatePool_Denomination1ether1.sol\":3121:3138  poseidon.poseidon */\n  0xffffffffffffffffffffffffffffffffffffffff\n  and\n  0x29a5f2f6\n    /* \"contracts/SwirlPrivatePool_Denomination1ether1.sol\":3121:3152  poseidon.poseidon([zero, zero]) */\n  mload(0x40)\n  dup1\n  0x40\n  add\n  0x40\n  mstore\n  dup1\n    /* \"contracts/SwirlPrivatePool_Denomination1ether1.sol\":3140:3144  zero */\n  dup6\n    /* \"contracts/SwirlPrivatePool_Denomination1ether1.sol\":3121:3152  poseidon.poseidon([zero, zero]) */\n  dup2\n  mstore\n  0x20\n  add\n    /* \"contracts/SwirlPrivatePool_Denomination1ether1.sol\":3146:3150  zero */\n  dup6\n    /* \"contracts/SwirlPrivatePool_Denomination1ether1.sol\":3121:3152  poseidon.poseidon([zero, zero]) */\n  dup2\n  mstore\n  pop\n  mload(0x40)\n  dup3\n  0xffffffff\n  and\n  0xe0\n  shl\n  dup2\n  mstore\n  0x04\n  add\n  tag_19\n  swap2\n  swap1\n  tag_7\n  jump\t// in\ntag_19:\n  0x20\n  mload(0x40)\n  dup1\n  dup4\n  sub\n  dup2\n  dup7\n  gas\n  staticcall\n  iszero\n  dup1\n  iszero\n  tag_21\n  jumpi\n  returndatacopy(0x00, 0x00, returndatasize)\n  revert(0x00, returndatasize)\ntag_21:\n  pop\n  pop\n  pop\n  pop\n  mload(0x40)\n  returndatasize\n  not(0x1f)\n  0x1f\n  dup3\n  add\n  and\n  dup3\n  add\n  dup1\n  0x40\n  mstore\n  pop\n  dup2\n  add\n  swap1\n  tag_22\n  swap2\n  swap1\n  tag_11\n  jump\t// in\ntag_22:\n    /* \"contracts/SwirlPrivatePool_Denomination1ether1.sol\":3114:3152  zero = poseidon.poseidon([zero, zero]) */\n  swap2\n  pop\n    /* \"contracts/SwirlPrivatePool_Denomination1ether1.sol\":3186:3190  zero */\n  dup2\n    /* \"contracts/SwirlPrivatePool_Denomination1ether1.sol\":3178:3191  bytes32(zero) */\n  0x00\n  shl\n    /* \"contracts/SwirlPrivatePool_Denomination1ether1.sol\":3167:3172  zeros */\n  0x00\n    /* \"contracts/SwirlPrivatePool_Denomination1ether1.sol\":3173:3174  i */\n  dup3\n    /* \"contracts/SwirlPrivatePool_Denomination1ether1.sol\":3167:3175  zeros[i] */\n  0xffffffff\n  and\n  0x14\n  dup2\n  lt\n  tag_23\n  jumpi\n  tag_24\n  tag_14\n  jump\t// in\ntag_24:\ntag_23:\n  add\n    /* \"contracts/SwirlPrivatePool_Denomination1ether1.sol\":3167:3191  zeros[i] = bytes32(zero) */\n  dup2\n  swap1\n  sstore\n  pop\n    /* \"contracts/SwirlPrivatePool_Denomination1ether1.sol\":3094:3097  i++ */\n  dup1\n  dup1\n  0x01\n  add\n  swap2\n  pop\n  pop\n    /* \"contracts/SwirlPrivatePool_Denomination1ether1.sol\":3059:3203  for (uint32 i = 1; i < TREE_DEPTH; i++) {... */\n  jump(tag_16)\ntag_17:\n  pop\n    /* \"contracts/SwirlPrivatePool_Denomination1ether1.sol\":3220:3228  uint32 i */\n  0x00\n    /* \"contracts/SwirlPrivatePool_Denomination1ether1.sol\":3231:3232  0 */\n  0x00\n    /* \"contracts/SwirlPrivatePool_Denomination1ether1.sol\":3220:3232  uint32 i = 0 */\n  swap1\n  pop\n    /* \"contracts/SwirlPrivatePool_Denomination1ether1.sol\":3215:3310  for (uint32 i = 0; i < TREE_DEPTH; i++) {... */\ntag_26:\n    /* \"contracts/SwirlPrivatePool_Denomination1ether1.sol\":1636:1638  20 */\n  0x14\n    /* \"contracts/SwirlPrivatePool_Denomination1ether1.sol\":3234:3248  i < TREE_DEPTH */\n  0xffffffff\n  and\n    /* \"contracts/SwirlPrivatePool_Denomination1ether1.sol\":3234:3235  i */\n  dup2\n    /* \"contracts/SwirlPrivatePool_Denomination1ether1.sol\":3234:3248  i < TREE_DEPTH */\n  0xffffffff\n  and\n  lt\n    /* \"contracts/SwirlPrivatePool_Denomination1ether1.sol\":3215:3310  for (uint32 i = 0; i < TREE_DEPTH; i++) {... */\n  iszero\n  tag_27\n  jumpi\n    /* \"contracts/SwirlPrivatePool_Denomination1ether1.sol\":3290:3295  zeros */\n  0x00\n    /* \"contracts/SwirlPrivatePool_Denomination1ether1.sol\":3296:3297  i */\n  dup2\n    /* \"contracts/SwirlPrivatePool_Denomination1ether1.sol\":3290:3298  zeros[i] */\n  0xffffffff\n  and\n  0x14\n  dup2\n  lt\n  tag_29\n  jumpi\n  tag_30\n  tag_14\n  jump\t// in\ntag_30:\ntag_29:\n  add\n  sload\n    /* \"contracts/SwirlPrivatePool_Denomination1ether1.sol\":3270:3284  filledSubtrees */\n  0x14\n    /* \"contracts/SwirlPrivatePool_Denomination1ether1.sol\":3285:3286  i */\n  dup3\n    /* \"contracts/SwirlPrivatePool_Denomination1ether1.sol\":3270:3287  filledSubtrees[i] */\n  0xffffffff\n  and\n  0x14\n  dup2\n  lt\n  tag_32\n  jumpi\n  tag_33\n  tag_14\n  jump\t// in\ntag_33:\ntag_32:\n  add\n    /* \"contracts/SwirlPrivatePool_Denomination1ether1.sol\":3270:3298  filledSubtrees[i] = zeros[i] */\n  dup2\n  swap1\n  sstore\n  pop\n    /* \"contracts/SwirlPrivatePool_Denomination1ether1.sol\":3250:3253  i++ */\n  dup1\n  dup1\n  0x01\n  add\n  swap2\n  pop\n  pop\n    /* \"contracts/SwirlPrivatePool_Denomination1ether1.sol\":3215:3310  for (uint32 i = 0; i < TREE_DEPTH; i++) {... */\n  jump(tag_26)\ntag_27:\n  pop\n    /* \"contracts/SwirlPrivatePool_Denomination1ether1.sol\":3336:3341  zeros */\n  0x00\n    /* \"contracts/SwirlPrivatePool_Denomination1ether1.sol\":3355:3356  1 */\n  0x01\n    /* \"contracts/SwirlPrivatePool_Denomination1ether1.sol\":1636:1638  20 */\n  0x14\n    /* \"contracts/SwirlPrivatePool_Denomination1ether1.sol\":3342:3356  TREE_DEPTH - 1 */\n  tag_35\n  swap2\n  swap1\n  tag_36\n  jump\t// in\ntag_35:\n    /* \"contracts/SwirlPrivatePool_Denomination1ether1.sol\":3336:3357  zeros[TREE_DEPTH - 1] */\n  0xffffffff\n  and\n  0x14\n  dup2\n  lt\n  tag_37\n  jumpi\n  tag_38\n  tag_14\n  jump\t// in\ntag_38:\ntag_37:\n  add\n  sload\n    /* \"contracts/SwirlPrivatePool_Denomination1ether1.sol\":3322:3333  currentRoot */\n  0x28\n    /* \"contracts/SwirlPrivatePool_Denomination1ether1.sol\":3322:3357  currentRoot = zeros[TREE_DEPTH - 1] */\n  dup2\n  swap1\n  sstore\n  pop\n    /* \"contracts/SwirlPrivatePool_Denomination1ether1.sol\":3394:3398  true */\n  0x01\n    /* \"contracts/SwirlPrivatePool_Denomination1ether1.sol\":3368:3378  knownRoots */\n  0x2b\n    /* \"contracts/SwirlPrivatePool_Denomination1ether1.sol\":3368:3391  knownRoots[currentRoot] */\n  0x00\n    /* \"contracts/SwirlPrivatePool_Denomination1ether1.sol\":3379:3390  currentRoot */\n  sload(0x28)\n    /* \"contracts/SwirlPrivatePool_Denomination1ether1.sol\":3368:3391  knownRoots[currentRoot] */\n  dup2\n  mstore\n  0x20\n  add\n  swap1\n  dup2\n  mstore\n  0x20\n  add\n  0x00\n  keccak256\n  0x00\n    /* \"contracts/SwirlPrivatePool_Denomination1ether1.sol\":3368:3398  knownRoots[currentRoot] = true */\n  0x0100\n  exp\n  dup2\n  sload\n  dup2\n  0xff\n  mul\n  not\n  and\n  swap1\n  dup4\n  iszero\n  iszero\n  mul\n  or\n  swap1\n  sstore\n  pop\n    /* \"contracts/SwirlPrivatePool_Denomination1ether1.sol\":2792:3406  {... */\n  pop\n    /* \"contracts/SwirlPrivatePool_Denomination1ether1.sol\":2742:3406  constructor(address _verifier, address _poseidon) {... */\n  pop\n  pop\n    /* \"contracts/SwirlPrivatePool_Denomination1ether1.sol\":654:6233  contract SwirlPrivatePoolDenomination1Ether {... */\n  jump(tag_40)\n    /* \"#utility.yul\":88:205   */\ntag_42:\n    /* \"#utility.yul\":197:198   */\n  0x00\n    /* \"#utility.yul\":194:195   */\n  0x00\n    /* \"#utility.yul\":187:199   */\n  revert\n    /* \"#utility.yul\":334:460   */\ntag_44:\n    /* \"#utility.yul\":371:378   */\n  0x00\n    /* \"#utility.yul\":411:453   */\n  0xffffffffffffffffffffffffffffffffffffffff\n    /* \"#utility.yul\":404:409   */\n  dup3\n    /* \"#utility.yul\":400:454   */\n  and\n    /* \"#utility.yul\":389:454   */\n  swap1\n  pop\n    /* \"#utility.yul\":334:460   */\n  swap2\n  swap1\n  pop\n  jump\t// out\n    /* \"#utility.yul\":466:562   */\ntag_45:\n    /* \"#utility.yul\":503:510   */\n  0x00\n    /* \"#utility.yul\":532:556   */\n  tag_66\n    /* \"#utility.yul\":550:555   */\n  dup3\n    /* \"#utility.yul\":532:556   */\n  tag_44\n  jump\t// in\ntag_66:\n    /* \"#utility.yul\":521:556   */\n  swap1\n  pop\n    /* \"#utility.yul\":466:562   */\n  swap2\n  swap1\n  pop\n  jump\t// out\n    /* \"#utility.yul\":568:690   */\ntag_46:\n    /* \"#utility.yul\":641:665   */\n  tag_68\n    /* \"#utility.yul\":659:664   */\n  dup2\n    /* \"#utility.yul\":641:665   */\n  tag_45\n  jump\t// in\ntag_68:\n    /* \"#utility.yul\":634:639   */\n  dup2\n    /* \"#utility.yul\":631:666   */\n  eq\n    /* \"#utility.yul\":621:684   */\n  tag_69\n  jumpi\n    /* \"#utility.yul\":680:681   */\n  0x00\n    /* \"#utility.yul\":677:678   */\n  0x00\n    /* \"#utility.yul\":670:682   */\n  revert\n    /* \"#utility.yul\":621:684   */\ntag_69:\n    /* \"#utility.yul\":568:690   */\n  pop\n  jump\t// out\n    /* \"#utility.yul\":696:839   */\ntag_47:\n    /* \"#utility.yul\":753:758   */\n  0x00\n    /* \"#utility.yul\":784:790   */\n  dup2\n    /* \"#utility.yul\":778:791   */\n  mload\n    /* \"#utility.yul\":769:791   */\n  swap1\n  pop\n    /* \"#utility.yul\":800:833   */\n  tag_71\n    /* \"#utility.yul\":827:832   */\n  dup2\n    /* \"#utility.yul\":800:833   */\n  tag_46\n  jump\t// in\ntag_71:\n    /* \"#utility.yul\":696:839   */\n  swap3\n  swap2\n  pop\n  pop\n  jump\t// out\n    /* \"#utility.yul\":845:1352   */\ntag_3:\n    /* \"#utility.yul\":924:930   */\n  0x00\n    /* \"#utility.yul\":932:938   */\n  0x00\n    /* \"#utility.yul\":981:983   */\n  0x40\n    /* \"#utility.yul\":969:978   */\n  dup4\n    /* \"#utility.yul\":960:967   */\n  dup6\n    /* \"#utility.yul\":956:979   */\n  sub\n    /* \"#utility.yul\":952:984   */\n  slt\n    /* \"#utility.yul\":949:1068   */\n  iszero\n  tag_73\n  jumpi\n    /* \"#utility.yul\":987:1066   */\n  tag_74\n  tag_42\n  jump\t// in\ntag_74:\n    /* \"#utility.yul\":949:1068   */\ntag_73:\n    /* \"#utility.yul\":1107:1108   */\n  0x00\n    /* \"#utility.yul\":1132:1196   */\n  tag_75\n    /* \"#utility.yul\":1188:1195   */\n  dup6\n    /* \"#utility.yul\":1179:1185   */\n  dup3\n    /* \"#utility.yul\":1168:1177   */\n  dup7\n    /* \"#utility.yul\":1164:1186   */\n  add\n    /* \"#utility.yul\":1132:1196   */\n  tag_47\n  jump\t// in\ntag_75:\n    /* \"#utility.yul\":1122:1196   */\n  swap3\n  pop\n    /* \"#utility.yul\":1078:1206   */\n  pop\n    /* \"#utility.yul\":1245:1247   */\n  0x20\n    /* \"#utility.yul\":1271:1335   */\n  tag_76\n    /* \"#utility.yul\":1327:1334   */\n  dup6\n    /* \"#utility.yul\":1318:1324   */\n  dup3\n    /* \"#utility.yul\":1307:1316   */\n  dup7\n    /* \"#utility.yul\":1303:1325   */\n  add\n    /* \"#utility.yul\":1271:1335   */\n  tag_47\n  jump\t// in\ntag_76:\n    /* \"#utility.yul\":1261:1335   */\n  swap2\n  pop\n    /* \"#utility.yul\":1216:1345   */\n  pop\n    /* \"#utility.yul\":845:1352   */\n  swap3\n  pop\n  swap3\n  swap1\n  pop\n  jump\t// out\n    /* \"#utility.yul\":1358:1462   */\ntag_48:\n    /* \"#utility.yul\":1423:1429   */\n  0x00\n    /* \"#utility.yul\":1451:1455   */\n  0x02\n    /* \"#utility.yul\":1441:1455   */\n  swap1\n  pop\n    /* \"#utility.yul\":1358:1462   */\n  swap2\n  swap1\n  pop\n  jump\t// out\n    /* \"#utility.yul\":1468:1611   */\ntag_49:\n    /* \"#utility.yul\":1565:1576   */\n  0x00\n    /* \"#utility.yul\":1602:1605   */\n  dup2\n    /* \"#utility.yul\":1587:1605   */\n  swap1\n  pop\n    /* \"#utility.yul\":1468:1611   */\n  swap3\n  swap2\n  pop\n  pop\n  jump\t// out\n    /* \"#utility.yul\":1617:1715   */\ntag_50:\n    /* \"#utility.yul\":1682:1686   */\n  0x00\n    /* \"#utility.yul\":1705:1708   */\n  dup2\n    /* \"#utility.yul\":1697:1708   */\n  swap1\n  pop\n    /* \"#utility.yul\":1617:1715   */\n  swap2\n  swap1\n  pop\n  jump\t// out\n    /* \"#utility.yul\":1721:1798   */\ntag_51:\n    /* \"#utility.yul\":1758:1765   */\n  0x00\n    /* \"#utility.yul\":1787:1792   */\n  dup2\n    /* \"#utility.yul\":1776:1792   */\n  swap1\n  pop\n    /* \"#utility.yul\":1721:1798   */\n  swap2\n  swap1\n  pop\n  jump\t// out\n    /* \"#utility.yul\":1804:1912   */\ntag_52:\n    /* \"#utility.yul\":1881:1905   */\n  tag_82\n    /* \"#utility.yul\":1899:1904   */\n  dup2\n    /* \"#utility.yul\":1881:1905   */\n  tag_51\n  jump\t// in\ntag_82:\n    /* \"#utility.yul\":1876:1879   */\n  dup3\n    /* \"#utility.yul\":1869:1906   */\n  mstore\n    /* \"#utility.yul\":1804:1912   */\n  pop\n  pop\n  jump\t// out\n    /* \"#utility.yul\":1918:2097   */\ntag_53:\n    /* \"#utility.yul\":1987:1997   */\n  0x00\n    /* \"#utility.yul\":2008:2054   */\n  tag_84\n    /* \"#utility.yul\":2050:2053   */\n  dup4\n    /* \"#utility.yul\":2042:2048   */\n  dup4\n    /* \"#utility.yul\":2008:2054   */\n  tag_52\n  jump\t// in\ntag_84:\n    /* \"#utility.yul\":2086:2090   */\n  0x20\n    /* \"#utility.yul\":2081:2084   */\n  dup4\n    /* \"#utility.yul\":2077:2091   */\n  add\n    /* \"#utility.yul\":2063:2091   */\n  swap1\n  pop\n    /* \"#utility.yul\":1918:2097   */\n  swap3\n  swap2\n  pop\n  pop\n  jump\t// out\n    /* \"#utility.yul\":2103:2214   */\ntag_54:\n    /* \"#utility.yul\":2171:2175   */\n  0x00\n    /* \"#utility.yul\":2203:2207   */\n  0x20\n    /* \"#utility.yul\":2198:2201   */\n  dup3\n    /* \"#utility.yul\":2194:2208   */\n  add\n    /* \"#utility.yul\":2186:2208   */\n  swap1\n  pop\n    /* \"#utility.yul\":2103:2214   */\n  swap2\n  swap1\n  pop\n  jump\t// out\n    /* \"#utility.yul\":2252:2946   */\ntag_55:\n    /* \"#utility.yul\":2388:2440   */\n  tag_87\n    /* \"#utility.yul\":2434:2439   */\n  dup2\n    /* \"#utility.yul\":2388:2440   */\n  tag_48\n  jump\t// in\ntag_87:\n    /* \"#utility.yul\":2456:2540   */\n  tag_88\n    /* \"#utility.yul\":2533:2539   */\n  dup2\n    /* \"#utility.yul\":2528:2531   */\n  dup5\n    /* \"#utility.yul\":2456:2540   */\n  tag_49\n  jump\t// in\ntag_88:\n    /* \"#utility.yul\":2449:2540   */\n  swap3\n  pop\n    /* \"#utility.yul\":2564:2618   */\n  tag_89\n    /* \"#utility.yul\":2612:2617   */\n  dup3\n    /* \"#utility.yul\":2564:2618   */\n  tag_50\n  jump\t// in\ntag_89:\n    /* \"#utility.yul\":2641:2648   */\n  dup1\n    /* \"#utility.yul\":2672:2673   */\n  0x00\n    /* \"#utility.yul\":2657:2939   */\ntag_90:\n    /* \"#utility.yul\":2682:2688   */\n  dup4\n    /* \"#utility.yul\":2679:2680   */\n  dup2\n    /* \"#utility.yul\":2676:2689   */\n  lt\n    /* \"#utility.yul\":2657:2939   */\n  iszero\n  tag_92\n  jumpi\n    /* \"#utility.yul\":2758:2764   */\n  dup2\n    /* \"#utility.yul\":2752:2765   */\n  mload\n    /* \"#utility.yul\":2785:2848   */\n  tag_93\n    /* \"#utility.yul\":2844:2847   */\n  dup8\n    /* \"#utility.yul\":2829:2842   */\n  dup3\n    /* \"#utility.yul\":2785:2848   */\n  tag_53\n  jump\t// in\ntag_93:\n    /* \"#utility.yul\":2778:2848   */\n  swap7\n  pop\n    /* \"#utility.yul\":2871:2929   */\n  tag_94\n    /* \"#utility.yul\":2922:2928   */\n  dup4\n    /* \"#utility.yul\":2871:2929   */\n  tag_54\n  jump\t// in\ntag_94:\n    /* \"#utility.yul\":2861:2929   */\n  swap3\n  pop\n    /* \"#utility.yul\":2717:2939   */\n  pop\n    /* \"#utility.yul\":2704:2705   */\n  0x01\n    /* \"#utility.yul\":2701:2702   */\n  dup2\n    /* \"#utility.yul\":2697:2706   */\n  add\n    /* \"#utility.yul\":2692:2706   */\n  swap1\n  pop\n    /* \"#utility.yul\":2657:2939   */\n  jump(tag_90)\ntag_92:\n    /* \"#utility.yul\":2661:2675   */\n  pop\n    /* \"#utility.yul\":2364:2946   */\n  pop\n  pop\n  pop\n    /* \"#utility.yul\":2252:2946   */\n  pop\n  pop\n  jump\t// out\n    /* \"#utility.yul\":2952:3266   */\ntag_7:\n    /* \"#utility.yul\":3091:3095   */\n  0x00\n    /* \"#utility.yul\":3129:3131   */\n  0x40\n    /* \"#utility.yul\":3118:3127   */\n  dup3\n    /* \"#utility.yul\":3114:3132   */\n  add\n    /* \"#utility.yul\":3106:3132   */\n  swap1\n  pop\n    /* \"#utility.yul\":3142:3259   */\n  tag_96\n    /* \"#utility.yul\":3256:3257   */\n  0x00\n    /* \"#utility.yul\":3245:3254   */\n  dup4\n    /* \"#utility.yul\":3241:3258   */\n  add\n    /* \"#utility.yul\":3232:3238   */\n  dup5\n    /* \"#utility.yul\":3142:3259   */\n  tag_55\n  jump\t// in\ntag_96:\n    /* \"#utility.yul\":2952:3266   */\n  swap3\n  swap2\n  pop\n  pop\n  jump\t// out\n    /* \"#utility.yul\":3272:3394   */\ntag_56:\n    /* \"#utility.yul\":3345:3369   */\n  tag_98\n    /* \"#utility.yul\":3363:3368   */\n  dup2\n    /* \"#utility.yul\":3345:3369   */\n  tag_51\n  jump\t// in\ntag_98:\n    /* \"#utility.yul\":3338:3343   */\n  dup2\n    /* \"#utility.yul\":3335:3370   */\n  eq\n    /* \"#utility.yul\":3325:3388   */\n  tag_99\n  jumpi\n    /* \"#utility.yul\":3384:3385   */\n  0x00\n    /* \"#utility.yul\":3381:3382   */\n  0x00\n    /* \"#utility.yul\":3374:3386   */\n  revert\n    /* \"#utility.yul\":3325:3388   */\ntag_99:\n    /* \"#utility.yul\":3272:3394   */\n  pop\n  jump\t// out\n    /* \"#utility.yul\":3400:3543   */\ntag_57:\n    /* \"#utility.yul\":3457:3462   */\n  0x00\n    /* \"#utility.yul\":3488:3494   */\n  dup2\n    /* \"#utility.yul\":3482:3495   */\n  mload\n    /* \"#utility.yul\":3473:3495   */\n  swap1\n  pop\n    /* \"#utility.yul\":3504:3537   */\n  tag_101\n    /* \"#utility.yul\":3531:3536   */\n  dup2\n    /* \"#utility.yul\":3504:3537   */\n  tag_56\n  jump\t// in\ntag_101:\n    /* \"#utility.yul\":3400:3543   */\n  swap3\n  swap2\n  pop\n  pop\n  jump\t// out\n    /* \"#utility.yul\":3549:3900   */\ntag_11:\n    /* \"#utility.yul\":3619:3625   */\n  0x00\n    /* \"#utility.yul\":3668:3670   */\n  0x20\n    /* \"#utility.yul\":3656:3665   */\n  dup3\n    /* \"#utility.yul\":3647:3654   */\n  dup5\n    /* \"#utility.yul\":3643:3666   */\n  sub\n    /* \"#utility.yul\":3639:3671   */\n  slt\n    /* \"#utility.yul\":3636:3755   */\n  iszero\n  tag_103\n  jumpi\n    /* \"#utility.yul\":3674:3753   */\n  tag_104\n  tag_42\n  jump\t// in\ntag_104:\n    /* \"#utility.yul\":3636:3755   */\ntag_103:\n    /* \"#utility.yul\":3794:3795   */\n  0x00\n    /* \"#utility.yul\":3819:3883   */\n  tag_105\n    /* \"#utility.yul\":3875:3882   */\n  dup5\n    /* \"#utility.yul\":3866:3872   */\n  dup3\n    /* \"#utility.yul\":3855:3864   */\n  dup6\n    /* \"#utility.yul\":3851:3873   */\n  add\n    /* \"#utility.yul\":3819:3883   */\n  tag_57\n  jump\t// in\ntag_105:\n    /* \"#utility.yul\":3809:3883   */\n  swap2\n  pop\n    /* \"#utility.yul\":3765:3893   */\n  pop\n    /* \"#utility.yul\":3549:3900   */\n  swap3\n  swap2\n  pop\n  pop\n  jump\t// out\n    /* \"#utility.yul\":3906:4086   */\ntag_14:\n    /* \"#utility.yul\":3954:4031   */\n  0x4e487b7100000000000000000000000000000000000000000000000000000000\n    /* \"#utility.yul\":3951:3952   */\n  0x00\n    /* \"#utility.yul\":3944:4032   */\n  mstore\n    /* \"#utility.yul\":4051:4055   */\n  0x32\n    /* \"#utility.yul\":4048:4049   */\n  0x04\n    /* \"#utility.yul\":4041:4056   */\n  mstore\n    /* \"#utility.yul\":4075:4079   */\n  0x24\n    /* \"#utility.yul\":4072:4073   */\n  0x00\n    /* \"#utility.yul\":4065:4080   */\n  revert\n    /* \"#utility.yul\":4092:4185   */\ntag_58:\n    /* \"#utility.yul\":4128:4135   */\n  0x00\n    /* \"#utility.yul\":4168:4178   */\n  0xffffffff\n    /* \"#utility.yul\":4161:4166   */\n  dup3\n    /* \"#utility.yul\":4157:4179   */\n  and\n    /* \"#utility.yul\":4146:4179   */\n  swap1\n  pop\n    /* \"#utility.yul\":4092:4185   */\n  swap2\n  swap1\n  pop\n  jump\t// out\n    /* \"#utility.yul\":4191:4371   */\ntag_59:\n    /* \"#utility.yul\":4239:4316   */\n  0x4e487b7100000000000000000000000000000000000000000000000000000000\n    /* \"#utility.yul\":4236:4237   */\n  0x00\n    /* \"#utility.yul\":4229:4317   */\n  mstore\n    /* \"#utility.yul\":4336:4340   */\n  0x11\n    /* \"#utility.yul\":4333:4334   */\n  0x04\n    /* \"#utility.yul\":4326:4341   */\n  mstore\n    /* \"#utility.yul\":4360:4364   */\n  0x24\n    /* \"#utility.yul\":4357:4358   */\n  0x00\n    /* \"#utility.yul\":4350:4365   */\n  revert\n    /* \"#utility.yul\":4377:4577   */\ntag_36:\n    /* \"#utility.yul\":4416:4420   */\n  0x00\n    /* \"#utility.yul\":4436:4455   */\n  tag_110\n    /* \"#utility.yul\":4453:4454   */\n  dup3\n    /* \"#utility.yul\":4436:4455   */\n  tag_58\n  jump\t// in\ntag_110:\n    /* \"#utility.yul\":4431:4455   */\n  swap2\n  pop\n    /* \"#utility.yul\":4469:4488   */\n  tag_111\n    /* \"#utility.yul\":4486:4487   */\n  dup4\n    /* \"#utility.yul\":4469:4488   */\n  tag_58\n  jump\t// in\ntag_111:\n    /* \"#utility.yul\":4464:4488   */\n  swap3\n  pop\n    /* \"#utility.yul\":4512:4513   */\n  dup3\n    /* \"#utility.yul\":4509:4510   */\n  dup3\n    /* \"#utility.yul\":4505:4514   */\n  sub\n    /* \"#utility.yul\":4497:4514   */\n  swap1\n  pop\n    /* \"#utility.yul\":4536:4546   */\n  0xffffffff\n    /* \"#utility.yul\":4530:4534   */\n  dup2\n    /* \"#utility.yul\":4527:4547   */\n  gt\n    /* \"#utility.yul\":4524:4570   */\n  iszero\n  tag_112\n  jumpi\n    /* \"#utility.yul\":4550:4568   */\n  tag_113\n  tag_59\n  jump\t// in\ntag_113:\n    /* \"#utility.yul\":4524:4570   */\ntag_112:\n    /* \"#utility.yul\":4377:4577   */\n  swap3\n  swap2\n  pop\n  pop\n  jump\t// out\n    /* \"contracts/SwirlPrivatePool_Denomination1ether1.sol\":654:6233  contract SwirlPrivatePoolDenomination1Ether {... */\ntag_40:\n  mload(0x80)\n  mload(0xa0)\n  codecopy(0x00, dataOffset(sub_0), dataSize(sub_0))\n  0x00\n  assignImmutable(\"0x606503ebd6bdca7290248af82fd5a09ca0489398da9f242244210336ae6ece9f\")\n  0x00\n  assignImmutable(\"0xd9670a00d025e59e1bd58d53874bea4ab34fea782716e2c168e89a3c8452d3bb\")\n  return(0x00, dataSize(sub_0))\nstop\n\nsub_0: assembly {\n        /* \"contracts/SwirlPrivatePool_Denomination1ether1.sol\":654:6233  contract SwirlPrivatePoolDenomination1Ether {... */\n      mstore(0x40, 0x80)\n      jumpi(tag_1, lt(calldatasize, 0x04))\n      shr(0xe0, calldataload(0x00))\n      dup1\n      0xc62b919e\n      gt\n      tag_17\n      jumpi\n      dup1\n      0xf1650536\n      gt\n      tag_18\n      jumpi\n      dup1\n      0xf1650536\n      eq\n      tag_13\n      jumpi\n      dup1\n      0xf178e47c\n      eq\n      tag_14\n      jumpi\n      dup1\n      0xfc7e9c6f\n      eq\n      tag_15\n      jumpi\n      dup1\n      0xfdab463d\n      eq\n      tag_16\n      jumpi\n      jump(tag_1)\n    tag_18:\n      dup1\n      0xc62b919e\n      eq\n      tag_9\n      jumpi\n      dup1\n      0xe29973fc\n      eq\n      tag_10\n      jumpi\n      dup1\n      0xe5285dcc\n      eq\n      tag_11\n      jumpi\n      dup1\n      0xe8295588\n      eq\n      tag_12\n      jumpi\n      jump(tag_1)\n    tag_17:\n      dup1\n      0x4e73da7d\n      gt\n      tag_19\n      jumpi\n      dup1\n      0x4e73da7d\n      eq\n      tag_5\n      jumpi\n      dup1\n      0x85de26b7\n      eq\n      tag_6\n      jumpi\n      dup1\n      0x8b01429d\n      eq\n      tag_7\n      jumpi\n      dup1\n      0xb130eaa6\n      eq\n      tag_8\n      jumpi\n      jump(tag_1)\n    tag_19:\n      dup1\n      0x082febf0\n      eq\n      tag_2\n      jumpi\n      dup1\n      0x17cc915c\n      eq\n      tag_3\n      jumpi\n      dup1\n      0x2b7ac3f3\n      eq\n      tag_4\n      jumpi\n    tag_1:\n      revert(0x00, 0x00)\n        /* \"contracts/SwirlPrivatePool_Denomination1ether1.sol\":1645:1707  uint32  public constant MAX_LEAVES   = uint32(1 << TREE_DEPTH) */\n    tag_2:\n      callvalue\n      dup1\n      iszero\n      tag_20\n      jumpi\n      revert(0x00, 0x00)\n    tag_20:\n      pop\n      tag_21\n      tag_22\n      jump\t// in\n    tag_21:\n      mload(0x40)\n      tag_23\n      swap2\n      swap1\n      tag_24\n      jump\t// in\n    tag_23:\n      mload(0x40)\n      dup1\n      swap2\n      sub\n      swap1\n      return\n        /* \"contracts/SwirlPrivatePool_Denomination1ether1.sol\":2146:2193  mapping(bytes32 => bool) public nullifierHashes */\n    tag_3:\n      callvalue\n      dup1\n      iszero\n      tag_25\n      jumpi\n      revert(0x00, 0x00)\n    tag_25:\n      pop\n      tag_26\n      0x04\n      dup1\n      calldatasize\n      sub\n      dup2\n      add\n      swap1\n      tag_27\n      swap2\n      swap1\n      tag_28\n      jump\t// in\n    tag_27:\n      tag_29\n      jump\t// in\n    tag_26:\n      mload(0x40)\n      tag_30\n      swap2\n      swap1\n      tag_31\n      jump\t// in\n    tag_30:\n      mload(0x40)\n      dup1\n      swap2\n      sub\n      swap1\n      return\n        /* \"contracts/SwirlPrivatePool_Denomination1ether1.sol\":1903:1938  IVerifier public immutable verifier */\n    tag_4:\n      callvalue\n      dup1\n      iszero\n      tag_32\n      jumpi\n      revert(0x00, 0x00)\n    tag_32:\n      pop\n      tag_33\n      tag_34\n      jump\t// in\n    tag_33:\n      mload(0x40)\n      tag_35\n      swap2\n      swap1\n      tag_36\n      jump\t// in\n    tag_35:\n      mload(0x40)\n      dup1\n      swap2\n      sub\n      swap1\n      return\n        /* \"contracts/SwirlPrivatePool_Denomination1ether1.sol\":2200:2242  mapping(bytes32 => bool) public knownRoots */\n    tag_5:\n      callvalue\n      dup1\n      iszero\n      tag_37\n      jumpi\n      revert(0x00, 0x00)\n    tag_37:\n      pop\n      tag_38\n      0x04\n      dup1\n      calldatasize\n      sub\n      dup2\n      add\n      swap1\n      tag_39\n      swap2\n      swap1\n      tag_28\n      jump\t// in\n    tag_39:\n      tag_40\n      jump\t// in\n    tag_38:\n      mload(0x40)\n      tag_41\n      swap2\n      swap1\n      tag_31\n      jump\t// in\n    tag_41:\n      mload(0x40)\n      dup1\n      swap2\n      sub\n      swap1\n      return\n        /* \"contracts/SwirlPrivatePool_Denomination1ether1.sol\":2502:2548  mapping(bytes32 => EncryptedNote) public notes */\n    tag_6:\n      callvalue\n      dup1\n      iszero\n      tag_42\n      jumpi\n      revert(0x00, 0x00)\n    tag_42:\n      pop\n      tag_43\n      0x04\n      dup1\n      calldatasize\n      sub\n      dup2\n      add\n      swap1\n      tag_44\n      swap2\n      swap1\n      tag_28\n      jump\t// in\n    tag_44:\n      tag_45\n      jump\t// in\n    tag_43:\n      mload(0x40)\n      tag_46\n      swap2\n      swap1\n      tag_47\n      jump\t// in\n    tag_46:\n      mload(0x40)\n      dup1\n      swap2\n      sub\n      swap1\n      return\n        /* \"contracts/SwirlPrivatePool_Denomination1ether1.sol\":1542:1590  uint256 public constant DENOMINATION = 0.1 ether */\n    tag_7:\n      callvalue\n      dup1\n      iszero\n      tag_48\n      jumpi\n      revert(0x00, 0x00)\n    tag_48:\n      pop\n      tag_49\n      tag_50\n      jump\t// in\n    tag_49:\n      mload(0x40)\n      tag_51\n      swap2\n      swap1\n      tag_52\n      jump\t// in\n    tag_51:\n      mload(0x40)\n      dup1\n      swap2\n      sub\n      swap1\n      return\n        /* \"contracts/SwirlPrivatePool_Denomination1ether1.sol\":5190:5911  function withdraw(... */\n    tag_8:\n      callvalue\n      dup1\n      iszero\n      tag_53\n      jumpi\n      revert(0x00, 0x00)\n    tag_53:\n      pop\n      tag_54\n      0x04\n      dup1\n      calldatasize\n      sub\n      dup2\n      add\n      swap1\n      tag_55\n      swap2\n      swap1\n      tag_56\n      jump\t// in\n    tag_55:\n      tag_57\n      jump\t// in\n    tag_54:\n      stop\n        /* \"contracts/SwirlPrivatePool_Denomination1ether1.sol\":1945:1982  IPoseidonT2 public immutable poseidon */\n    tag_9:\n      callvalue\n      dup1\n      iszero\n      tag_58\n      jumpi\n      revert(0x00, 0x00)\n    tag_58:\n      pop\n      tag_59\n      tag_60\n      jump\t// in\n    tag_59:\n      mload(0x40)\n      tag_61\n      swap2\n      swap1\n      tag_62\n      jump\t// in\n    tag_61:\n      mload(0x40)\n      dup1\n      swap2\n      sub\n      swap1\n      return\n        /* \"contracts/SwirlPrivatePool_Denomination1ether1.sol\":3728:4824  function deposit(... */\n    tag_10:\n      tag_63\n      0x04\n      dup1\n      calldatasize\n      sub\n      dup2\n      add\n      swap1\n      tag_64\n      swap2\n      swap1\n      tag_65\n      jump\t// in\n    tag_64:\n      tag_66\n      jump\t// in\n    tag_63:\n      stop\n        /* \"contracts/SwirlPrivatePool_Denomination1ether1.sol\":6105:6230  function isSpent(bytes32 nullifierHash) external view returns (bool) {... */\n    tag_11:\n      callvalue\n      dup1\n      iszero\n      tag_67\n      jumpi\n      revert(0x00, 0x00)\n    tag_67:\n      pop\n      tag_68\n      0x04\n      dup1\n      calldatasize\n      sub\n      dup2\n      add\n      swap1\n      tag_69\n      swap2\n      swap1\n      tag_28\n      jump\t// in\n    tag_69:\n      tag_70\n      jump\t// in\n    tag_68:\n      mload(0x40)\n      tag_71\n      swap2\n      swap1\n      tag_31\n      jump\t// in\n    tag_71:\n      mload(0x40)\n      dup1\n      swap2\n      sub\n      swap1\n      return\n        /* \"contracts/SwirlPrivatePool_Denomination1ether1.sol\":1991:2023  bytes32[TREE_DEPTH] public zeros */\n    tag_12:\n      callvalue\n      dup1\n      iszero\n      tag_72\n      jumpi\n      revert(0x00, 0x00)\n    tag_72:\n      pop\n      tag_73\n      0x04\n      dup1\n      calldatasize\n      sub\n      dup2\n      add\n      swap1\n      tag_74\n      swap2\n      swap1\n      tag_75\n      jump\t// in\n    tag_74:\n      tag_76\n      jump\t// in\n    tag_73:\n      mload(0x40)\n      tag_77\n      swap2\n      swap1\n      tag_78\n      jump\t// in\n    tag_77:\n      mload(0x40)\n      dup1\n      swap2\n      sub\n      swap1\n      return\n        /* \"contracts/SwirlPrivatePool_Denomination1ether1.sol\":1597:1638  uint32  public constant TREE_DEPTH   = 20 */\n    tag_13:\n      callvalue\n      dup1\n      iszero\n      tag_79\n      jumpi\n      revert(0x00, 0x00)\n    tag_79:\n      pop\n      tag_80\n      tag_81\n      jump\t// in\n    tag_80:\n      mload(0x40)\n      tag_82\n      swap2\n      swap1\n      tag_24\n      jump\t// in\n    tag_82:\n      mload(0x40)\n      dup1\n      swap2\n      sub\n      swap1\n      return\n        /* \"contracts/SwirlPrivatePool_Denomination1ether1.sol\":2030:2071  bytes32[TREE_DEPTH] public filledSubtrees */\n    tag_14:\n      callvalue\n      dup1\n      iszero\n      tag_83\n      jumpi\n      revert(0x00, 0x00)\n    tag_83:\n      pop\n      tag_84\n      0x04\n      dup1\n      calldatasize\n      sub\n      dup2\n      add\n      swap1\n      tag_85\n      swap2\n      swap1\n      tag_75\n      jump\t// in\n    tag_85:\n      tag_86\n      jump\t// in\n    tag_84:\n      mload(0x40)\n      tag_87\n      swap2\n      swap1\n      tag_78\n      jump\t// in\n    tag_87:\n      mload(0x40)\n      dup1\n      swap2\n      sub\n      swap1\n      return\n        /* \"contracts/SwirlPrivatePool_Denomination1ether1.sol\":2113:2137  uint32  public nextIndex */\n    tag_15:\n      callvalue\n      dup1\n      iszero\n      tag_88\n      jumpi\n      revert(0x00, 0x00)\n    tag_88:\n      pop\n      tag_89\n      tag_90\n      jump\t// in\n    tag_89:\n      mload(0x40)\n      tag_91\n      swap2\n      swap1\n      tag_24\n      jump\t// in\n    tag_91:\n      mload(0x40)\n      dup1\n      swap2\n      sub\n      swap1\n      return\n        /* \"contracts/SwirlPrivatePool_Denomination1ether1.sol\":2080:2106  bytes32 public currentRoot */\n    tag_16:\n      callvalue\n      dup1\n      iszero\n      tag_92\n      jumpi\n      revert(0x00, 0x00)\n    tag_92:\n      pop\n      tag_93\n      tag_94\n      jump\t// in\n    tag_93:\n      mload(0x40)\n      tag_95\n      swap2\n      swap1\n      tag_78\n      jump\t// in\n    tag_95:\n      mload(0x40)\n      dup1\n      swap2\n      sub\n      swap1\n      return\n        /* \"contracts/SwirlPrivatePool_Denomination1ether1.sol\":1645:1707  uint32  public constant MAX_LEAVES   = uint32(1 << TREE_DEPTH) */\n    tag_22:\n        /* \"contracts/SwirlPrivatePool_Denomination1ether1.sol\":1636:1638  20 */\n      0x14\n        /* \"contracts/SwirlPrivatePool_Denomination1ether1.sol\":1691:1706  1 << TREE_DEPTH */\n      0xffffffff\n      and\n        /* \"contracts/SwirlPrivatePool_Denomination1ether1.sol\":1691:1692  1 */\n      0x01\n        /* \"contracts/SwirlPrivatePool_Denomination1ether1.sol\":1691:1706  1 << TREE_DEPTH */\n      swap1\n      shl\n        /* \"contracts/SwirlPrivatePool_Denomination1ether1.sol\":1645:1707  uint32  public constant MAX_LEAVES   = uint32(1 << TREE_DEPTH) */\n      dup2\n      jump\t// out\n        /* \"contracts/SwirlPrivatePool_Denomination1ether1.sol\":2146:2193  mapping(bytes32 => bool) public nullifierHashes */\n    tag_29:\n      mstore(0x20, 0x2a)\n      dup1\n      0x00\n      mstore\n      keccak256(0x00, 0x40)\n      0x00\n      swap2\n      pop\n      sload\n      swap1\n      0x0100\n      exp\n      swap1\n      div\n      0xff\n      and\n      dup2\n      jump\t// out\n        /* \"contracts/SwirlPrivatePool_Denomination1ether1.sol\":1903:1938  IVerifier public immutable verifier */\n    tag_34:\n      immutable(\"0xd9670a00d025e59e1bd58d53874bea4ab34fea782716e2c168e89a3c8452d3bb\")\n      dup2\n      jump\t// out\n        /* \"contracts/SwirlPrivatePool_Denomination1ether1.sol\":2200:2242  mapping(bytes32 => bool) public knownRoots */\n    tag_40:\n      mstore(0x20, 0x2b)\n      dup1\n      0x00\n      mstore\n      keccak256(0x00, 0x40)\n      0x00\n      swap2\n      pop\n      sload\n      swap1\n      0x0100\n      exp\n      swap1\n      div\n      0xff\n      and\n      dup2\n      jump\t// out\n        /* \"contracts/SwirlPrivatePool_Denomination1ether1.sol\":2502:2548  mapping(bytes32 => EncryptedNote) public notes */\n    tag_45:\n      mstore(0x20, 0x2c)\n      dup1\n      0x00\n      mstore\n      keccak256(0x00, 0x40)\n      0x00\n      swap2\n      pop\n      swap1\n      pop\n      dup1\n      0x00\n      add\n      dup1\n      sload\n      tag_96\n      swap1\n      tag_97\n      jump\t// in\n    tag_96:\n      dup1\n      0x1f\n      add\n      0x20\n      dup1\n      swap2\n      div\n      mul\n      0x20\n      add\n      mload(0x40)\n      swap1\n      dup2\n      add\n      0x40\n      mstore\n      dup1\n      swap3\n      swap2\n      swap1\n      dup2\n      dup2\n      mstore\n      0x20\n      add\n      dup3\n      dup1\n      sload\n      tag_98\n      swap1\n      tag_97\n      jump\t// in\n    tag_98:\n      dup1\n      iszero\n      tag_99\n      jumpi\n      dup1\n      0x1f\n      lt\n      tag_100\n      jumpi\n      0x0100\n      dup1\n      dup4\n      sload\n      div\n      mul\n      dup4\n      mstore\n      swap2\n      0x20\n      add\n      swap2\n      jump(tag_99)\n    tag_100:\n      dup3\n      add\n      swap2\n      swap1\n      0x00\n      mstore\n      keccak256(0x00, 0x20)\n      swap1\n    tag_101:\n      dup2\n      sload\n      dup2\n      mstore\n      swap1\n      0x01\n      add\n      swap1\n      0x20\n      add\n      dup1\n      dup4\n      gt\n      tag_101\n      jumpi\n      dup3\n      swap1\n      sub\n      0x1f\n      and\n      dup3\n      add\n      swap2\n    tag_99:\n      pop\n      pop\n      pop\n      pop\n      pop\n      swap1\n      pop\n      dup2\n      jump\t// out\n        /* \"contracts/SwirlPrivatePool_Denomination1ether1.sol\":1542:1590  uint256 public constant DENOMINATION = 0.1 ether */\n    tag_50:\n        /* \"contracts/SwirlPrivatePool_Denomination1ether1.sol\":1581:1590  0.1 ether */\n      0x016345785d8a0000\n        /* \"contracts/SwirlPrivatePool_Denomination1ether1.sol\":1542:1590  uint256 public constant DENOMINATION = 0.1 ether */\n      dup2\n      jump\t// out\n        /* \"contracts/SwirlPrivatePool_Denomination1ether1.sol\":5190:5911  function withdraw(... */\n    tag_57:\n        /* \"contracts/SwirlPrivatePool_Denomination1ether1.sol\":5361:5376  nullifierHashes */\n      0x2a\n        /* \"contracts/SwirlPrivatePool_Denomination1ether1.sol\":5361:5391  nullifierHashes[nullifierHash] */\n      0x00\n        /* \"contracts/SwirlPrivatePool_Denomination1ether1.sol\":5377:5390  nullifierHash */\n      dup4\n        /* \"contracts/SwirlPrivatePool_Denomination1ether1.sol\":5361:5391  nullifierHashes[nullifierHash] */\n      dup2\n      mstore\n      0x20\n      add\n      swap1\n      dup2\n      mstore\n      0x20\n      add\n      0x00\n      keccak256\n      0x00\n      swap1\n      sload\n      swap1\n      0x0100\n      exp\n      swap1\n      div\n      0xff\n      and\n        /* \"contracts/SwirlPrivatePool_Denomination1ether1.sol\":5357:5422  if (nullifierHashes[nullifierHash]) revert NullifierAlreadyUsed() */\n      iszero\n      tag_103\n      jumpi\n        /* \"contracts/SwirlPrivatePool_Denomination1ether1.sol\":5400:5422  NullifierAlreadyUsed() */\n      mload(0x40)\n      0xcad2ae0200000000000000000000000000000000000000000000000000000000\n      dup2\n      mstore\n      0x04\n      add\n      mload(0x40)\n      dup1\n      swap2\n      sub\n      swap1\n      revert\n        /* \"contracts/SwirlPrivatePool_Denomination1ether1.sol\":5357:5422  if (nullifierHashes[nullifierHash]) revert NullifierAlreadyUsed() */\n    tag_103:\n        /* \"contracts/SwirlPrivatePool_Denomination1ether1.sol\":5438:5448  knownRoots */\n      0x2b\n        /* \"contracts/SwirlPrivatePool_Denomination1ether1.sol\":5438:5454  knownRoots[root] */\n      0x00\n        /* \"contracts/SwirlPrivatePool_Denomination1ether1.sol\":5449:5453  root */\n      dup5\n        /* \"contracts/SwirlPrivatePool_Denomination1ether1.sol\":5438:5454  knownRoots[root] */\n      dup2\n      mstore\n      0x20\n      add\n      swap1\n      dup2\n      mstore\n      0x20\n      add\n      0x00\n      keccak256\n      0x00\n      swap1\n      sload\n      swap1\n      0x0100\n      exp\n      swap1\n      div\n      0xff\n      and\n        /* \"contracts/SwirlPrivatePool_Denomination1ether1.sol\":5433:5476  if (!knownRoots[root]) revert UnknownRoot() */\n      tag_104\n      jumpi\n        /* \"contracts/SwirlPrivatePool_Denomination1ether1.sol\":5463:5476  UnknownRoot() */\n      mload(0x40)\n      0x8c52011600000000000000000000000000000000000000000000000000000000\n      dup2\n      mstore\n      0x04\n      add\n      mload(0x40)\n      dup1\n      swap2\n      sub\n      swap1\n      revert\n        /* \"contracts/SwirlPrivatePool_Denomination1ether1.sol\":5433:5476  if (!knownRoots[root]) revert UnknownRoot() */\n    tag_104:\n        /* \"contracts/SwirlPrivatePool_Denomination1ether1.sol\":5489:5518  bytes32[] memory publicInputs */\n      0x00\n        /* \"contracts/SwirlPrivatePool_Denomination1ether1.sol\":5535:5536  2 */\n      0x02\n        /* \"contracts/SwirlPrivatePool_Denomination1ether1.sol\":5521:5537  new bytes32[](2) */\n      0xffffffffffffffff\n      dup2\n      gt\n      iszero\n      tag_105\n      jumpi\n      tag_106\n      tag_107\n      jump\t// in\n    tag_106:\n    tag_105:\n      mload(0x40)\n      swap1\n      dup1\n      dup3\n      mstore\n      dup1\n      0x20\n      mul\n      0x20\n      add\n      dup3\n      add\n      0x40\n      mstore\n      dup1\n      iszero\n      tag_108\n      jumpi\n      dup2\n      0x20\n      add\n      0x20\n      dup3\n      mul\n      dup1\n      calldatasize\n      dup4\n      calldatacopy\n      dup1\n      dup3\n      add\n      swap2\n      pop\n      pop\n      swap1\n      pop\n    tag_108:\n      pop\n        /* \"contracts/SwirlPrivatePool_Denomination1ether1.sol\":5489:5537  bytes32[] memory publicInputs = new bytes32[](2) */\n      swap1\n      pop\n        /* \"contracts/SwirlPrivatePool_Denomination1ether1.sol\":5566:5570  root */\n      dup4\n        /* \"contracts/SwirlPrivatePool_Denomination1ether1.sol\":5548:5560  publicInputs */\n      dup2\n        /* \"contracts/SwirlPrivatePool_Denomination1ether1.sol\":5561:5562  0 */\n      0x00\n        /* \"contracts/SwirlPrivatePool_Denomination1ether1.sol\":5548:5563  publicInputs[0] */\n      dup2\n      mload\n      dup2\n      lt\n      tag_109\n      jumpi\n      tag_110\n      tag_111\n      jump\t// in\n    tag_110:\n    tag_109:\n      0x20\n      mul\n      0x20\n      add\n      add\n        /* \"contracts/SwirlPrivatePool_Denomination1ether1.sol\":5548:5570  publicInputs[0] = root */\n      dup2\n      dup2\n      mstore\n      pop\n      pop\n        /* \"contracts/SwirlPrivatePool_Denomination1ether1.sol\":5599:5612  nullifierHash */\n      dup3\n        /* \"contracts/SwirlPrivatePool_Denomination1ether1.sol\":5581:5593  publicInputs */\n      dup2\n        /* \"contracts/SwirlPrivatePool_Denomination1ether1.sol\":5594:5595  1 */\n      0x01\n        /* \"contracts/SwirlPrivatePool_Denomination1ether1.sol\":5581:5596  publicInputs[1] */\n      dup2\n      mload\n      dup2\n      lt\n      tag_112\n      jumpi\n      tag_113\n      tag_111\n      jump\t// in\n    tag_113:\n    tag_112:\n      0x20\n      mul\n      0x20\n      add\n      add\n        /* \"contracts/SwirlPrivatePool_Denomination1ether1.sol\":5581:5612  publicInputs[1] = nullifierHash */\n      dup2\n      dup2\n      mstore\n      pop\n      pop\n        /* \"contracts/SwirlPrivatePool_Denomination1ether1.sol\":5630:5638  verifier */\n      immutable(\"0xd9670a00d025e59e1bd58d53874bea4ab34fea782716e2c168e89a3c8452d3bb\")\n        /* \"contracts/SwirlPrivatePool_Denomination1ether1.sol\":5630:5645  verifier.verify */\n      0xffffffffffffffffffffffffffffffffffffffff\n      and\n      0xea50d0e4\n        /* \"contracts/SwirlPrivatePool_Denomination1ether1.sol\":5646:5651  proof */\n      dup8\n      dup8\n        /* \"contracts/SwirlPrivatePool_Denomination1ether1.sol\":5653:5665  publicInputs */\n      dup5\n        /* \"contracts/SwirlPrivatePool_Denomination1ether1.sol\":5630:5666  verifier.verify(proof, publicInputs) */\n      mload(0x40)\n      dup5\n      0xffffffff\n      and\n      0xe0\n      shl\n      dup2\n      mstore\n      0x04\n      add\n      tag_114\n      swap4\n      swap3\n      swap2\n      swap1\n      tag_115\n      jump\t// in\n    tag_114:\n      0x20\n      mload(0x40)\n      dup1\n      dup4\n      sub\n      dup2\n      dup7\n      gas\n      staticcall\n      iszero\n      dup1\n      iszero\n      tag_117\n      jumpi\n      returndatacopy(0x00, 0x00, returndatasize)\n      revert(0x00, returndatasize)\n    tag_117:\n      pop\n      pop\n      pop\n      pop\n      mload(0x40)\n      returndatasize\n      not(0x1f)\n      0x1f\n      dup3\n      add\n      and\n      dup3\n      add\n      dup1\n      0x40\n      mstore\n      pop\n      dup2\n      add\n      swap1\n      tag_118\n      swap2\n      swap1\n      tag_119\n      jump\t// in\n    tag_118:\n        /* \"contracts/SwirlPrivatePool_Denomination1ether1.sol\":5625:5689  if (!verifier.verify(proof, publicInputs)) revert InvalidProof() */\n      tag_120\n      jumpi\n        /* \"contracts/SwirlPrivatePool_Denomination1ether1.sol\":5675:5689  InvalidProof() */\n      mload(0x40)\n      0x09bde33900000000000000000000000000000000000000000000000000000000\n      dup2\n      mstore\n      0x04\n      add\n      mload(0x40)\n      dup1\n      swap2\n      sub\n      swap1\n      revert\n        /* \"contracts/SwirlPrivatePool_Denomination1ether1.sol\":5625:5689  if (!verifier.verify(proof, publicInputs)) revert InvalidProof() */\n    tag_120:\n        /* \"contracts/SwirlPrivatePool_Denomination1ether1.sol\":5735:5739  true */\n      0x01\n        /* \"contracts/SwirlPrivatePool_Denomination1ether1.sol\":5702:5717  nullifierHashes */\n      0x2a\n        /* \"contracts/SwirlPrivatePool_Denomination1ether1.sol\":5702:5732  nullifierHashes[nullifierHash] */\n      0x00\n        /* \"contracts/SwirlPrivatePool_Denomination1ether1.sol\":5718:5731  nullifierHash */\n      dup6\n        /* \"contracts/SwirlPrivatePool_Denomination1ether1.sol\":5702:5732  nullifierHashes[nullifierHash] */\n      dup2\n      mstore\n      0x20\n      add\n      swap1\n      dup2\n      mstore\n      0x20\n      add\n      0x00\n      keccak256\n      0x00\n        /* \"contracts/SwirlPrivatePool_Denomination1ether1.sol\":5702:5739  nullifierHashes[nullifierHash] = true */\n      0x0100\n      exp\n      dup2\n      sload\n      dup2\n      0xff\n      mul\n      not\n      and\n      swap1\n      dup4\n      iszero\n      iszero\n      mul\n      or\n      swap1\n      sstore\n      pop\n        /* \"contracts/SwirlPrivatePool_Denomination1ether1.sol\":5753:5760  bool ok */\n      0x00\n        /* \"contracts/SwirlPrivatePool_Denomination1ether1.sol\":5765:5774  recipient */\n      dup3\n        /* \"contracts/SwirlPrivatePool_Denomination1ether1.sol\":5765:5779  recipient.call */\n      0xffffffffffffffffffffffffffffffffffffffff\n      and\n        /* \"contracts/SwirlPrivatePool_Denomination1ether1.sol\":1581:1590  0.1 ether */\n      0x016345785d8a0000\n        /* \"contracts/SwirlPrivatePool_Denomination1ether1.sol\":5765:5804  recipient.call{value: DENOMINATION}(\"\") */\n      mload(0x40)\n      tag_121\n      swap1\n      tag_122\n      jump\t// in\n    tag_121:\n      0x00\n      mload(0x40)\n      dup1\n      dup4\n      sub\n      dup2\n      dup6\n      dup8\n      gas\n      call\n      swap3\n      pop\n      pop\n      pop\n      returndatasize\n      dup1\n      0x00\n      dup2\n      eq\n      tag_125\n      jumpi\n      mload(0x40)\n      swap2\n      pop\n      and(add(returndatasize, 0x3f), not(0x1f))\n      dup3\n      add\n      0x40\n      mstore\n      returndatasize\n      dup3\n      mstore\n      returndatasize\n      0x00\n      0x20\n      dup5\n      add\n      returndatacopy\n      jump(tag_124)\n    tag_125:\n      0x60\n      swap2\n      pop\n    tag_124:\n      pop\n        /* \"contracts/SwirlPrivatePool_Denomination1ether1.sol\":5752:5804  (bool ok,) = recipient.call{value: DENOMINATION}(\"\") */\n      pop\n      swap1\n      pop\n        /* \"contracts/SwirlPrivatePool_Denomination1ether1.sol\":5823:5825  ok */\n      dup1\n        /* \"contracts/SwirlPrivatePool_Denomination1ether1.sol\":5815:5849  require(ok, \"MNT transfer failed\") */\n      tag_126\n      jumpi\n      mload(0x40)\n      0x08c379a000000000000000000000000000000000000000000000000000000000\n      dup2\n      mstore\n      0x04\n      add\n      tag_127\n      swap1\n      tag_128\n      jump\t// in\n    tag_127:\n      mload(0x40)\n      dup1\n      swap2\n      sub\n      swap1\n      revert\n    tag_126:\n        /* \"contracts/SwirlPrivatePool_Denomination1ether1.sol\":5878:5887  recipient */\n      dup3\n        /* \"contracts/SwirlPrivatePool_Denomination1ether1.sol\":5867:5903  Withdrawal(recipient, nullifierHash) */\n      0xffffffffffffffffffffffffffffffffffffffff\n      and\n      0x0ce490531f6c8ae2f1ff174643bc8b7ed5e52987ab50dc1e8f33655d2cd8c90b\n        /* \"contracts/SwirlPrivatePool_Denomination1ether1.sol\":5889:5902  nullifierHash */\n      dup6\n        /* \"contracts/SwirlPrivatePool_Denomination1ether1.sol\":5867:5903  Withdrawal(recipient, nullifierHash) */\n      mload(0x40)\n      tag_129\n      swap2\n      swap1\n      tag_78\n      jump\t// in\n    tag_129:\n      mload(0x40)\n      dup1\n      swap2\n      sub\n      swap1\n      log2\n        /* \"contracts/SwirlPrivatePool_Denomination1ether1.sol\":5346:5911  {... */\n      pop\n      pop\n        /* \"contracts/SwirlPrivatePool_Denomination1ether1.sol\":5190:5911  function withdraw(... */\n      pop\n      pop\n      pop\n      pop\n      pop\n      jump\t// out\n        /* \"contracts/SwirlPrivatePool_Denomination1ether1.sol\":1945:1982  IPoseidonT2 public immutable poseidon */\n    tag_60:\n      immutable(\"0x606503ebd6bdca7290248af82fd5a09ca0489398da9f242244210336ae6ece9f\")\n      dup2\n      jump\t// out\n        /* \"contracts/SwirlPrivatePool_Denomination1ether1.sol\":3728:4824  function deposit(... */\n    tag_66:\n        /* \"contracts/SwirlPrivatePool_Denomination1ether1.sol\":1581:1590  0.1 ether */\n      0x016345785d8a0000\n        /* \"contracts/SwirlPrivatePool_Denomination1ether1.sol\":3852:3861  msg.value */\n      callvalue\n        /* \"contracts/SwirlPrivatePool_Denomination1ether1.sol\":3852:3877  msg.value != DENOMINATION */\n      eq\n        /* \"contracts/SwirlPrivatePool_Denomination1ether1.sol\":3848:3907  if (msg.value != DENOMINATION) revert InvalidDenomination() */\n      tag_131\n      jumpi\n        /* \"contracts/SwirlPrivatePool_Denomination1ether1.sol\":3886:3907  InvalidDenomination() */\n      mload(0x40)\n      0xf067b3c600000000000000000000000000000000000000000000000000000000\n      dup2\n      mstore\n      0x04\n      add\n      mload(0x40)\n      dup1\n      swap2\n      sub\n      swap1\n      revert\n        /* \"contracts/SwirlPrivatePool_Denomination1ether1.sol\":3848:3907  if (msg.value != DENOMINATION) revert InvalidDenomination() */\n    tag_131:\n        /* \"contracts/SwirlPrivatePool_Denomination1ether1.sol\":1636:1638  20 */\n      0x14\n        /* \"contracts/SwirlPrivatePool_Denomination1ether1.sol\":1691:1706  1 << TREE_DEPTH */\n      0xffffffff\n      and\n        /* \"contracts/SwirlPrivatePool_Denomination1ether1.sol\":1691:1692  1 */\n      0x01\n        /* \"contracts/SwirlPrivatePool_Denomination1ether1.sol\":1691:1706  1 << TREE_DEPTH */\n      swap1\n      shl\n        /* \"contracts/SwirlPrivatePool_Denomination1ether1.sol\":3922:3945  nextIndex >= MAX_LEAVES */\n      0xffffffff\n      and\n        /* \"contracts/SwirlPrivatePool_Denomination1ether1.sol\":3922:3931  nextIndex */\n      0x29\n      0x00\n      swap1\n      sload\n      swap1\n      0x0100\n      exp\n      swap1\n      div\n      0xffffffff\n      and\n        /* \"contracts/SwirlPrivatePool_Denomination1ether1.sol\":3922:3945  nextIndex >= MAX_LEAVES */\n      0xffffffff\n      and\n      lt\n        /* \"contracts/SwirlPrivatePool_Denomination1ether1.sol\":3918:3966  if (nextIndex >= MAX_LEAVES) revert TreeIsFull() */\n      tag_132\n      jumpi\n        /* \"contracts/SwirlPrivatePool_Denomination1ether1.sol\":3954:3966  TreeIsFull() */\n      mload(0x40)\n      0xed732d0c00000000000000000000000000000000000000000000000000000000\n      dup2\n      mstore\n      0x04\n      add\n      mload(0x40)\n      dup1\n      swap2\n      sub\n      swap1\n      revert\n        /* \"contracts/SwirlPrivatePool_Denomination1ether1.sol\":3918:3966  if (nextIndex >= MAX_LEAVES) revert TreeIsFull() */\n    tag_132:\n        /* \"contracts/SwirlPrivatePool_Denomination1ether1.sol\":3979:3991  uint32 index */\n      0x00\n        /* \"contracts/SwirlPrivatePool_Denomination1ether1.sol\":3994:4003  nextIndex */\n      0x29\n      0x00\n      swap1\n      sload\n      swap1\n      0x0100\n      exp\n      swap1\n      div\n      0xffffffff\n      and\n        /* \"contracts/SwirlPrivatePool_Denomination1ether1.sol\":3979:4003  uint32 index = nextIndex */\n      swap1\n      pop\n        /* \"contracts/SwirlPrivatePool_Denomination1ether1.sol\":4014:4023  nextIndex */\n      0x29\n      0x00\n        /* \"contracts/SwirlPrivatePool_Denomination1ether1.sol\":4014:4025  nextIndex++ */\n      dup2\n      dup2\n      swap1\n      sload\n      swap1\n      0x0100\n      exp\n      swap1\n      div\n      0xffffffff\n      and\n      dup1\n      swap3\n      swap2\n      swap1\n      tag_133\n      swap1\n      tag_134\n      jump\t// in\n    tag_133:\n      swap2\n      swap1\n      0x0100\n      exp\n      dup2\n      sload\n      dup2\n      0xffffffff\n      mul\n      not\n      and\n      swap1\n      dup4\n      0xffffffff\n      and\n      mul\n      or\n      swap1\n      sstore\n      pop\n      pop\n        /* \"contracts/SwirlPrivatePool_Denomination1ether1.sol\":4038:4057  uint256 currentHash */\n      0x00\n        /* \"contracts/SwirlPrivatePool_Denomination1ether1.sol\":4068:4078  commitment */\n      dup5\n        /* \"contracts/SwirlPrivatePool_Denomination1ether1.sol\":4060:4079  uint256(commitment) */\n      0x00\n      shr\n        /* \"contracts/SwirlPrivatePool_Denomination1ether1.sol\":4038:4079  uint256 currentHash = uint256(commitment) */\n      swap1\n      pop\n        /* \"contracts/SwirlPrivatePool_Denomination1ether1.sol\":4097:4105  uint32 i */\n      0x00\n        /* \"contracts/SwirlPrivatePool_Denomination1ether1.sol\":4108:4109  0 */\n      0x00\n        /* \"contracts/SwirlPrivatePool_Denomination1ether1.sol\":4097:4109  uint32 i = 0 */\n      swap1\n      pop\n        /* \"contracts/SwirlPrivatePool_Denomination1ether1.sol\":4092:4602  for (uint32 i = 0; i < TREE_DEPTH; i++) {... */\n    tag_135:\n        /* \"contracts/SwirlPrivatePool_Denomination1ether1.sol\":1636:1638  20 */\n      0x14\n        /* \"contracts/SwirlPrivatePool_Denomination1ether1.sol\":4111:4125  i < TREE_DEPTH */\n      0xffffffff\n      and\n        /* \"contracts/SwirlPrivatePool_Denomination1ether1.sol\":4111:4112  i */\n      dup2\n        /* \"contracts/SwirlPrivatePool_Denomination1ether1.sol\":4111:4125  i < TREE_DEPTH */\n      0xffffffff\n      and\n      lt\n        /* \"contracts/SwirlPrivatePool_Denomination1ether1.sol\":4092:4602  for (uint32 i = 0; i < TREE_DEPTH; i++) {... */\n      iszero\n      tag_136\n      jumpi\n        /* \"contracts/SwirlPrivatePool_Denomination1ether1.sol\":4166:4167  0 */\n      0x00\n        /* \"contracts/SwirlPrivatePool_Denomination1ether1.sol\":4160:4161  1 */\n      0x01\n        /* \"contracts/SwirlPrivatePool_Denomination1ether1.sol\":4152:4157  index */\n      dup5\n        /* \"contracts/SwirlPrivatePool_Denomination1ether1.sol\":4152:4161  index & 1 */\n      and\n        /* \"contracts/SwirlPrivatePool_Denomination1ether1.sol\":4151:4167  (index & 1) == 0 */\n      0xffffffff\n      and\n      sub\n        /* \"contracts/SwirlPrivatePool_Denomination1ether1.sol\":4147:4565  if ((index & 1) == 0) {... */\n      tag_138\n      jumpi\n        /* \"contracts/SwirlPrivatePool_Denomination1ether1.sol\":4216:4227  currentHash */\n      dup2\n        /* \"contracts/SwirlPrivatePool_Denomination1ether1.sol\":4208:4228  bytes32(currentHash) */\n      0x00\n      shl\n        /* \"contracts/SwirlPrivatePool_Denomination1ether1.sol\":4188:4202  filledSubtrees */\n      0x14\n        /* \"contracts/SwirlPrivatePool_Denomination1ether1.sol\":4203:4204  i */\n      dup3\n        /* \"contracts/SwirlPrivatePool_Denomination1ether1.sol\":4188:4205  filledSubtrees[i] */\n      0xffffffff\n      and\n      0x14\n      dup2\n      lt\n      tag_139\n      jumpi\n      tag_140\n      tag_111\n      jump\t// in\n    tag_140:\n    tag_139:\n      add\n        /* \"contracts/SwirlPrivatePool_Denomination1ether1.sol\":4188:4228  filledSubtrees[i] = bytes32(currentHash) */\n      dup2\n      swap1\n      sstore\n      pop\n        /* \"contracts/SwirlPrivatePool_Denomination1ether1.sol\":4261:4269  poseidon */\n      immutable(\"0x606503ebd6bdca7290248af82fd5a09ca0489398da9f242244210336ae6ece9f\")\n        /* \"contracts/SwirlPrivatePool_Denomination1ether1.sol\":4261:4278  poseidon.poseidon */\n      0xffffffffffffffffffffffffffffffffffffffff\n      and\n      0x29a5f2f6\n        /* \"contracts/SwirlPrivatePool_Denomination1ether1.sol\":4261:4373  poseidon.poseidon([... */\n      mload(0x40)\n      dup1\n      0x40\n      add\n      0x40\n      mstore\n      dup1\n        /* \"contracts/SwirlPrivatePool_Denomination1ether1.sol\":4302:4313  currentHash */\n      dup6\n        /* \"contracts/SwirlPrivatePool_Denomination1ether1.sol\":4261:4373  poseidon.poseidon([... */\n      dup2\n      mstore\n      0x20\n      add\n        /* \"contracts/SwirlPrivatePool_Denomination1ether1.sol\":4344:4349  zeros */\n      0x00\n        /* \"contracts/SwirlPrivatePool_Denomination1ether1.sol\":4350:4351  i */\n      dup6\n        /* \"contracts/SwirlPrivatePool_Denomination1ether1.sol\":4344:4352  zeros[i] */\n      0xffffffff\n      and\n      0x14\n      dup2\n      lt\n      tag_142\n      jumpi\n      tag_143\n      tag_111\n      jump\t// in\n    tag_143:\n    tag_142:\n      add\n      sload\n        /* \"contracts/SwirlPrivatePool_Denomination1ether1.sol\":4336:4353  uint256(zeros[i]) */\n      0x00\n      shr\n        /* \"contracts/SwirlPrivatePool_Denomination1ether1.sol\":4261:4373  poseidon.poseidon([... */\n      dup2\n      mstore\n      pop\n      mload(0x40)\n      dup3\n      0xffffffff\n      and\n      0xe0\n      shl\n      dup2\n      mstore\n      0x04\n      add\n      tag_145\n      swap2\n      swap1\n      tag_146\n      jump\t// in\n    tag_145:\n      0x20\n      mload(0x40)\n      dup1\n      dup4\n      sub\n      dup2\n      dup7\n      gas\n      staticcall\n      iszero\n      dup1\n      iszero\n      tag_148\n      jumpi\n      returndatacopy(0x00, 0x00, returndatasize)\n      revert(0x00, returndatasize)\n    tag_148:\n      pop\n      pop\n      pop\n      pop\n      mload(0x40)\n      returndatasize\n      not(0x1f)\n      0x1f\n      dup3\n      add\n      and\n      dup3\n      add\n      dup1\n      0x40\n      mstore\n      pop\n      dup2\n      add\n      swap1\n      tag_149\n      swap2\n      swap1\n      tag_150\n      jump\t// in\n    tag_149:\n        /* \"contracts/SwirlPrivatePool_Denomination1ether1.sol\":4247:4373  currentHash = poseidon.poseidon([... */\n      swap2\n      pop\n        /* \"contracts/SwirlPrivatePool_Denomination1ether1.sol\":4147:4565  if ((index & 1) == 0) {... */\n      jump(tag_151)\n    tag_138:\n        /* \"contracts/SwirlPrivatePool_Denomination1ether1.sol\":4428:4436  poseidon */\n      immutable(\"0x606503ebd6bdca7290248af82fd5a09ca0489398da9f242244210336ae6ece9f\")\n        /* \"contracts/SwirlPrivatePool_Denomination1ether1.sol\":4428:4445  poseidon.poseidon */\n      0xffffffffffffffffffffffffffffffffffffffff\n      and\n      0x29a5f2f6\n        /* \"contracts/SwirlPrivatePool_Denomination1ether1.sol\":4428:4549  poseidon.poseidon([... */\n      mload(0x40)\n      dup1\n      0x40\n      add\n      0x40\n      mstore\n      dup1\n        /* \"contracts/SwirlPrivatePool_Denomination1ether1.sol\":4477:4491  filledSubtrees */\n      0x14\n        /* \"contracts/SwirlPrivatePool_Denomination1ether1.sol\":4492:4493  i */\n      dup6\n        /* \"contracts/SwirlPrivatePool_Denomination1ether1.sol\":4477:4494  filledSubtrees[i] */\n      0xffffffff\n      and\n      0x14\n      dup2\n      lt\n      tag_152\n      jumpi\n      tag_153\n      tag_111\n      jump\t// in\n    tag_153:\n    tag_152:\n      add\n      sload\n        /* \"contracts/SwirlPrivatePool_Denomination1ether1.sol\":4469:4495  uint256(filledSubtrees[i]) */\n      0x00\n      shr\n        /* \"contracts/SwirlPrivatePool_Denomination1ether1.sol\":4428:4549  poseidon.poseidon([... */\n      dup2\n      mstore\n      0x20\n      add\n        /* \"contracts/SwirlPrivatePool_Denomination1ether1.sol\":4518:4529  currentHash */\n      dup6\n        /* \"contracts/SwirlPrivatePool_Denomination1ether1.sol\":4428:4549  poseidon.poseidon([... */\n      dup2\n      mstore\n      pop\n      mload(0x40)\n      dup3\n      0xffffffff\n      and\n      0xe0\n      shl\n      dup2\n      mstore\n      0x04\n      add\n      tag_155\n      swap2\n      swap1\n      tag_146\n      jump\t// in\n    tag_155:\n      0x20\n      mload(0x40)\n      dup1\n      dup4\n      sub\n      dup2\n      dup7\n      gas\n      staticcall\n      iszero\n      dup1\n      iszero\n      tag_157\n      jumpi\n      returndatacopy(0x00, 0x00, returndatasize)\n      revert(0x00, returndatasize)\n    tag_157:\n      pop\n      pop\n      pop\n      pop\n      mload(0x40)\n      returndatasize\n      not(0x1f)\n      0x1f\n      dup3\n      add\n      and\n      dup3\n      add\n      dup1\n      0x40\n      mstore\n      pop\n      dup2\n      add\n      swap1\n      tag_158\n      swap2\n      swap1\n      tag_150\n      jump\t// in\n    tag_158:\n        /* \"contracts/SwirlPrivatePool_Denomination1ether1.sol\":4414:4549  currentHash = poseidon.poseidon([... */\n      swap2\n      pop\n        /* \"contracts/SwirlPrivatePool_Denomination1ether1.sol\":4147:4565  if ((index & 1) == 0) {... */\n    tag_151:\n        /* \"contracts/SwirlPrivatePool_Denomination1ether1.sol\":4589:4590  1 */\n      0x01\n        /* \"contracts/SwirlPrivatePool_Denomination1ether1.sol\":4579:4590  index >>= 1 */\n      dup4\n      0xffffffff\n      and\n      swap1\n      shr\n      swap3\n      pop\n        /* \"contracts/SwirlPrivatePool_Denomination1ether1.sol\":4127:4130  i++ */\n      dup1\n      dup1\n      0x01\n      add\n      swap2\n      pop\n      pop\n        /* \"contracts/SwirlPrivatePool_Denomination1ether1.sol\":4092:4602  for (uint32 i = 0; i < TREE_DEPTH; i++) {... */\n      jump(tag_135)\n    tag_136:\n      pop\n        /* \"contracts/SwirlPrivatePool_Denomination1ether1.sol\":4636:4647  currentHash */\n      dup1\n        /* \"contracts/SwirlPrivatePool_Denomination1ether1.sol\":4628:4648  bytes32(currentHash) */\n      0x00\n      shl\n        /* \"contracts/SwirlPrivatePool_Denomination1ether1.sol\":4614:4625  currentRoot */\n      0x28\n        /* \"contracts/SwirlPrivatePool_Denomination1ether1.sol\":4614:4648  currentRoot = bytes32(currentHash) */\n      dup2\n      swap1\n      sstore\n      pop\n        /* \"contracts/SwirlPrivatePool_Denomination1ether1.sol\":4685:4689  true */\n      0x01\n        /* \"contracts/SwirlPrivatePool_Denomination1ether1.sol\":4659:4669  knownRoots */\n      0x2b\n        /* \"contracts/SwirlPrivatePool_Denomination1ether1.sol\":4659:4682  knownRoots[currentRoot] */\n      0x00\n        /* \"contracts/SwirlPrivatePool_Denomination1ether1.sol\":4670:4681  currentRoot */\n      sload(0x28)\n        /* \"contracts/SwirlPrivatePool_Denomination1ether1.sol\":4659:4682  knownRoots[currentRoot] */\n      dup2\n      mstore\n      0x20\n      add\n      swap1\n      dup2\n      mstore\n      0x20\n      add\n      0x00\n      keccak256\n      0x00\n        /* \"contracts/SwirlPrivatePool_Denomination1ether1.sol\":4659:4689  knownRoots[currentRoot] = true */\n      0x0100\n      exp\n      dup2\n      sload\n      dup2\n      0xff\n      mul\n      not\n      and\n      swap1\n      dup4\n      iszero\n      iszero\n      mul\n      or\n      swap1\n      sstore\n      pop\n        /* \"contracts/SwirlPrivatePool_Denomination1ether1.sol\":4722:4764  EncryptedNote({ciphertext: encryptedNote}) */\n      mload(0x40)\n      dup1\n      0x20\n      add\n      0x40\n      mstore\n      dup1\n        /* \"contracts/SwirlPrivatePool_Denomination1ether1.sol\":4749:4762  encryptedNote */\n      dup6\n      dup6\n        /* \"contracts/SwirlPrivatePool_Denomination1ether1.sol\":4722:4764  EncryptedNote({ciphertext: encryptedNote}) */\n      dup1\n      dup1\n      0x1f\n      add\n      0x20\n      dup1\n      swap2\n      div\n      mul\n      0x20\n      add\n      mload(0x40)\n      swap1\n      dup2\n      add\n      0x40\n      mstore\n      dup1\n      swap4\n      swap3\n      swap2\n      swap1\n      dup2\n      dup2\n      mstore\n      0x20\n      add\n      dup4\n      dup4\n      dup1\n      dup3\n      dup5\n      calldatacopy\n      0x00\n      dup2\n      dup5\n      add\n      mstore\n      not(0x1f)\n      0x1f\n      dup3\n      add\n      and\n      swap1\n      pop\n      dup1\n      dup4\n      add\n      swap3\n      pop\n      pop\n      pop\n      pop\n      pop\n      pop\n      pop\n      dup2\n      mstore\n      pop\n        /* \"contracts/SwirlPrivatePool_Denomination1ether1.sol\":4702:4707  notes */\n      0x2c\n        /* \"contracts/SwirlPrivatePool_Denomination1ether1.sol\":4702:4719  notes[commitment] */\n      0x00\n        /* \"contracts/SwirlPrivatePool_Denomination1ether1.sol\":4708:4718  commitment */\n      dup8\n        /* \"contracts/SwirlPrivatePool_Denomination1ether1.sol\":4702:4719  notes[commitment] */\n      dup2\n      mstore\n      0x20\n      add\n      swap1\n      dup2\n      mstore\n      0x20\n      add\n      0x00\n      keccak256\n        /* \"contracts/SwirlPrivatePool_Denomination1ether1.sol\":4702:4764  notes[commitment] = EncryptedNote({ciphertext: encryptedNote}) */\n      0x00\n      dup3\n      add\n      mload\n      dup2\n      0x00\n      add\n      swap1\n      dup2\n      tag_159\n      swap2\n      swap1\n      tag_160\n      jump\t// in\n    tag_159:\n      pop\n      swap1\n      pop\n      pop\n        /* \"contracts/SwirlPrivatePool_Denomination1ether1.sol\":4790:4800  commitment */\n      dup5\n        /* \"contracts/SwirlPrivatePool_Denomination1ether1.sol\":4782:4816  Deposit(commitment, nextIndex - 1) */\n      0x84fc9eb8cd0a782a1d1734fbeed616bd0ef775f8b9bd437636b62d634fe4baf3\n        /* \"contracts/SwirlPrivatePool_Denomination1ether1.sol\":4814:4815  1 */\n      0x01\n        /* \"contracts/SwirlPrivatePool_Denomination1ether1.sol\":4802:4811  nextIndex */\n      0x29\n      0x00\n      swap1\n      sload\n      swap1\n      0x0100\n      exp\n      swap1\n      div\n      0xffffffff\n      and\n        /* \"contracts/SwirlPrivatePool_Denomination1ether1.sol\":4802:4815  nextIndex - 1 */\n      tag_161\n      swap2\n      swap1\n      tag_162\n      jump\t// in\n    tag_161:\n        /* \"contracts/SwirlPrivatePool_Denomination1ether1.sol\":4782:4816  Deposit(commitment, nextIndex - 1) */\n      mload(0x40)\n      tag_163\n      swap2\n      swap1\n      tag_24\n      jump\t// in\n    tag_163:\n      mload(0x40)\n      dup1\n      swap2\n      sub\n      swap1\n      log2\n        /* \"contracts/SwirlPrivatePool_Denomination1ether1.sol\":3837:4824  {... */\n      pop\n      pop\n        /* \"contracts/SwirlPrivatePool_Denomination1ether1.sol\":3728:4824  function deposit(... */\n      pop\n      pop\n      pop\n      jump\t// out\n        /* \"contracts/SwirlPrivatePool_Denomination1ether1.sol\":6105:6230  function isSpent(bytes32 nullifierHash) external view returns (bool) {... */\n    tag_70:\n        /* \"contracts/SwirlPrivatePool_Denomination1ether1.sol\":6168:6172  bool */\n      0x00\n        /* \"contracts/SwirlPrivatePool_Denomination1ether1.sol\":6192:6207  nullifierHashes */\n      0x2a\n        /* \"contracts/SwirlPrivatePool_Denomination1ether1.sol\":6192:6222  nullifierHashes[nullifierHash] */\n      0x00\n        /* \"contracts/SwirlPrivatePool_Denomination1ether1.sol\":6208:6221  nullifierHash */\n      dup4\n        /* \"contracts/SwirlPrivatePool_Denomination1ether1.sol\":6192:6222  nullifierHashes[nullifierHash] */\n      dup2\n      mstore\n      0x20\n      add\n      swap1\n      dup2\n      mstore\n      0x20\n      add\n      0x00\n      keccak256\n      0x00\n      swap1\n      sload\n      swap1\n      0x0100\n      exp\n      swap1\n      div\n      0xff\n      and\n        /* \"contracts/SwirlPrivatePool_Denomination1ether1.sol\":6185:6222  return nullifierHashes[nullifierHash] */\n      swap1\n      pop\n        /* \"contracts/SwirlPrivatePool_Denomination1ether1.sol\":6105:6230  function isSpent(bytes32 nullifierHash) external view returns (bool) {... */\n      swap2\n      swap1\n      pop\n      jump\t// out\n        /* \"contracts/SwirlPrivatePool_Denomination1ether1.sol\":1991:2023  bytes32[TREE_DEPTH] public zeros */\n    tag_76:\n      0x00\n      dup2\n      0x14\n      dup2\n      lt\n      tag_165\n      jumpi\n      0x00\n      dup1\n      revert\n    tag_165:\n      add\n      0x00\n      swap2\n      pop\n      swap1\n      pop\n      sload\n      dup2\n      jump\t// out\n        /* \"contracts/SwirlPrivatePool_Denomination1ether1.sol\":1597:1638  uint32  public constant TREE_DEPTH   = 20 */\n    tag_81:\n        /* \"contracts/SwirlPrivatePool_Denomination1ether1.sol\":1636:1638  20 */\n      0x14\n        /* \"contracts/SwirlPrivatePool_Denomination1ether1.sol\":1597:1638  uint32  public constant TREE_DEPTH   = 20 */\n      dup2\n      jump\t// out\n        /* \"contracts/SwirlPrivatePool_Denomination1ether1.sol\":2030:2071  bytes32[TREE_DEPTH] public filledSubtrees */\n    tag_86:\n      0x14\n      dup2\n      0x14\n      dup2\n      lt\n      tag_167\n      jumpi\n      0x00\n      dup1\n      revert\n    tag_167:\n      add\n      0x00\n      swap2\n      pop\n      swap1\n      pop\n      sload\n      dup2\n      jump\t// out\n        /* \"contracts/SwirlPrivatePool_Denomination1ether1.sol\":2113:2137  uint32  public nextIndex */\n    tag_90:\n      0x29\n      0x00\n      swap1\n      sload\n      swap1\n      0x0100\n      exp\n      swap1\n      div\n      0xffffffff\n      and\n      dup2\n      jump\t// out\n        /* \"contracts/SwirlPrivatePool_Denomination1ether1.sol\":2080:2106  bytes32 public currentRoot */\n    tag_94:\n      sload(0x28)\n      dup2\n      jump\t// out\n        /* \"#utility.yul\":7:100   */\n    tag_169:\n        /* \"#utility.yul\":43:50   */\n      0x00\n        /* \"#utility.yul\":83:93   */\n      0xffffffff\n        /* \"#utility.yul\":76:81   */\n      dup3\n        /* \"#utility.yul\":72:94   */\n      and\n        /* \"#utility.yul\":61:94   */\n      swap1\n      pop\n        /* \"#utility.yul\":7:100   */\n      swap2\n      swap1\n      pop\n      jump\t// out\n        /* \"#utility.yul\":106:221   */\n    tag_170:\n        /* \"#utility.yul\":191:214   */\n      tag_248\n        /* \"#utility.yul\":208:213   */\n      dup2\n        /* \"#utility.yul\":191:214   */\n      tag_169\n      jump\t// in\n    tag_248:\n        /* \"#utility.yul\":186:189   */\n      dup3\n        /* \"#utility.yul\":179:215   */\n      mstore\n        /* \"#utility.yul\":106:221   */\n      pop\n      pop\n      jump\t// out\n        /* \"#utility.yul\":227:445   */\n    tag_24:\n        /* \"#utility.yul\":318:322   */\n      0x00\n        /* \"#utility.yul\":356:358   */\n      0x20\n        /* \"#utility.yul\":345:354   */\n      dup3\n        /* \"#utility.yul\":341:359   */\n      add\n        /* \"#utility.yul\":333:359   */\n      swap1\n      pop\n        /* \"#utility.yul\":369:438   */\n      tag_250\n        /* \"#utility.yul\":435:436   */\n      0x00\n        /* \"#utility.yul\":424:433   */\n      dup4\n        /* \"#utility.yul\":420:437   */\n      add\n        /* \"#utility.yul\":411:417   */\n      dup5\n        /* \"#utility.yul\":369:438   */\n      tag_170\n      jump\t// in\n    tag_250:\n        /* \"#utility.yul\":227:445   */\n      swap3\n      swap2\n      pop\n      pop\n      jump\t// out\n        /* \"#utility.yul\":532:649   */\n    tag_172:\n        /* \"#utility.yul\":641:642   */\n      0x00\n        /* \"#utility.yul\":638:639   */\n      0x00\n        /* \"#utility.yul\":631:643   */\n      revert\n        /* \"#utility.yul\":655:772   */\n    tag_173:\n        /* \"#utility.yul\":764:765   */\n      0x00\n        /* \"#utility.yul\":761:762   */\n      0x00\n        /* \"#utility.yul\":754:766   */\n      revert\n        /* \"#utility.yul\":778:855   */\n    tag_174:\n        /* \"#utility.yul\":815:822   */\n      0x00\n        /* \"#utility.yul\":844:849   */\n      dup2\n        /* \"#utility.yul\":833:849   */\n      swap1\n      pop\n        /* \"#utility.yul\":778:855   */\n      swap2\n      swap1\n      pop\n      jump\t// out\n        /* \"#utility.yul\":861:983   */\n    tag_175:\n        /* \"#utility.yul\":934:958   */\n      tag_256\n        /* \"#utility.yul\":952:957   */\n      dup2\n        /* \"#utility.yul\":934:958   */\n      tag_174\n      jump\t// in\n    tag_256:\n        /* \"#utility.yul\":927:932   */\n      dup2\n        /* \"#utility.yul\":924:959   */\n      eq\n        /* \"#utility.yul\":914:977   */\n      tag_257\n      jumpi\n        /* \"#utility.yul\":973:974   */\n      0x00\n        /* \"#utility.yul\":970:971   */\n      0x00\n        /* \"#utility.yul\":963:975   */\n      revert\n        /* \"#utility.yul\":914:977   */\n    tag_257:\n        /* \"#utility.yul\":861:983   */\n      pop\n      jump\t// out\n        /* \"#utility.yul\":989:1128   */\n    tag_176:\n        /* \"#utility.yul\":1035:1040   */\n      0x00\n        /* \"#utility.yul\":1073:1079   */\n      dup2\n        /* \"#utility.yul\":1060:1080   */\n      calldataload\n        /* \"#utility.yul\":1051:1080   */\n      swap1\n      pop\n        /* \"#utility.yul\":1089:1122   */\n      tag_259\n        /* \"#utility.yul\":1116:1121   */\n      dup2\n        /* \"#utility.yul\":1089:1122   */\n      tag_175\n      jump\t// in\n    tag_259:\n        /* \"#utility.yul\":989:1128   */\n      swap3\n      swap2\n      pop\n      pop\n      jump\t// out\n        /* \"#utility.yul\":1134:1463   */\n    tag_28:\n        /* \"#utility.yul\":1193:1199   */\n      0x00\n        /* \"#utility.yul\":1242:1244   */\n      0x20\n        /* \"#utility.yul\":1230:1239   */\n      dup3\n        /* \"#utility.yul\":1221:1228   */\n      dup5\n        /* \"#utility.yul\":1217:1240   */\n      sub\n        /* \"#utility.yul\":1213:1245   */\n      slt\n        /* \"#utility.yul\":1210:1329   */\n      iszero\n      tag_261\n      jumpi\n        /* \"#utility.yul\":1248:1327   */\n      tag_262\n      tag_172\n      jump\t// in\n    tag_262:\n        /* \"#utility.yul\":1210:1329   */\n    tag_261:\n        /* \"#utility.yul\":1368:1369   */\n      0x00\n        /* \"#utility.yul\":1393:1446   */\n      tag_263\n        /* \"#utility.yul\":1438:1445   */\n      dup5\n        /* \"#utility.yul\":1429:1435   */\n      dup3\n        /* \"#utility.yul\":1418:1427   */\n      dup6\n        /* \"#utility.yul\":1414:1436   */\n      add\n        /* \"#utility.yul\":1393:1446   */\n      tag_176\n      jump\t// in\n    tag_263:\n        /* \"#utility.yul\":1383:1446   */\n      swap2\n      pop\n        /* \"#utility.yul\":1339:1456   */\n      pop\n        /* \"#utility.yul\":1134:1463   */\n      swap3\n      swap2\n      pop\n      pop\n      jump\t// out\n        /* \"#utility.yul\":1469:1559   */\n    tag_177:\n        /* \"#utility.yul\":1503:1510   */\n      0x00\n        /* \"#utility.yul\":1546:1551   */\n      dup2\n        /* \"#utility.yul\":1539:1552   */\n      iszero\n        /* \"#utility.yul\":1532:1553   */\n      iszero\n        /* \"#utility.yul\":1521:1553   */\n      swap1\n      pop\n        /* \"#utility.yul\":1469:1559   */\n      swap2\n      swap1\n      pop\n      jump\t// out\n        /* \"#utility.yul\":1565:1674   */\n    tag_178:\n        /* \"#utility.yul\":1646:1667   */\n      tag_266\n        /* \"#utility.yul\":1661:1666   */\n      dup2\n        /* \"#utility.yul\":1646:1667   */\n      tag_177\n      jump\t// in\n    tag_266:\n        /* \"#utility.yul\":1641:1644   */\n      dup3\n        /* \"#utility.yul\":1634:1668   */\n      mstore\n        /* \"#utility.yul\":1565:1674   */\n      pop\n      pop\n      jump\t// out\n        /* \"#utility.yul\":1680:1890   */\n    tag_31:\n        /* \"#utility.yul\":1767:1771   */\n      0x00\n        /* \"#utility.yul\":1805:1807   */\n      0x20\n        /* \"#utility.yul\":1794:1803   */\n      dup3\n        /* \"#utility.yul\":1790:1808   */\n      add\n        /* \"#utility.yul\":1782:1808   */\n      swap1\n      pop\n        /* \"#utility.yul\":1818:1883   */\n      tag_268\n        /* \"#utility.yul\":1880:1881   */\n      0x00\n        /* \"#utility.yul\":1869:1878   */\n      dup4\n        /* \"#utility.yul\":1865:1882   */\n      add\n        /* \"#utility.yul\":1856:1862   */\n      dup5\n        /* \"#utility.yul\":1818:1883   */\n      tag_178\n      jump\t// in\n    tag_268:\n        /* \"#utility.yul\":1680:1890   */\n      swap3\n      swap2\n      pop\n      pop\n      jump\t// out\n        /* \"#utility.yul\":1896:2022   */\n    tag_179:\n        /* \"#utility.yul\":1933:1940   */\n      0x00\n        /* \"#utility.yul\":1973:2015   */\n      0xffffffffffffffffffffffffffffffffffffffff\n        /* \"#utility.yul\":1966:1971   */\n      dup3\n        /* \"#utility.yul\":1962:2016   */\n      and\n        /* \"#utility.yul\":1951:2016   */\n      swap1\n      pop\n        /* \"#utility.yul\":1896:2022   */\n      swap2\n      swap1\n      pop\n      jump\t// out\n        /* \"#utility.yul\":2028:2088   */\n    tag_180:\n        /* \"#utility.yul\":2056:2059   */\n      0x00\n        /* \"#utility.yul\":2077:2082   */\n      dup2\n        /* \"#utility.yul\":2070:2082   */\n      swap1\n      pop\n        /* \"#utility.yul\":2028:2088   */\n      swap2\n      swap1\n      pop\n      jump\t// out\n        /* \"#utility.yul\":2094:2236   */\n    tag_181:\n        /* \"#utility.yul\":2144:2153   */\n      0x00\n        /* \"#utility.yul\":2177:2230   */\n      tag_272\n        /* \"#utility.yul\":2195:2229   */\n      tag_273\n        /* \"#utility.yul\":2204:2228   */\n      tag_274\n        /* \"#utility.yul\":2222:2227   */\n      dup5\n        /* \"#utility.yul\":2204:2228   */\n      tag_179\n      jump\t// in\n    tag_274:\n        /* \"#utility.yul\":2195:2229   */\n      tag_180\n      jump\t// in\n    tag_273:\n        /* \"#utility.yul\":2177:2230   */\n      tag_179\n      jump\t// in\n    tag_272:\n        /* \"#utility.yul\":2164:2230   */\n      swap1\n      pop\n        /* \"#utility.yul\":2094:2236   */\n      swap2\n      swap1\n      pop\n      jump\t// out\n        /* \"#utility.yul\":2242:2368   */\n    tag_182:\n        /* \"#utility.yul\":2292:2301   */\n      0x00\n        /* \"#utility.yul\":2325:2362   */\n      tag_276\n        /* \"#utility.yul\":2356:2361   */\n      dup3\n        /* \"#utility.yul\":2325:2362   */\n      tag_181\n      jump\t// in\n    tag_276:\n        /* \"#utility.yul\":2312:2362   */\n      swap1\n      pop\n        /* \"#utility.yul\":2242:2368   */\n      swap2\n      swap1\n      pop\n      jump\t// out\n        /* \"#utility.yul\":2374:2516   */\n    tag_183:\n        /* \"#utility.yul\":2440:2449   */\n      0x00\n        /* \"#utility.yul\":2473:2510   */\n      tag_278\n        /* \"#utility.yul\":2504:2509   */\n      dup3\n        /* \"#utility.yul\":2473:2510   */\n      tag_182\n      jump\t// in\n    tag_278:\n        /* \"#utility.yul\":2460:2510   */\n      swap1\n      pop\n        /* \"#utility.yul\":2374:2516   */\n      swap2\n      swap1\n      pop\n      jump\t// out\n        /* \"#utility.yul\":2522:2685   */\n    tag_184:\n        /* \"#utility.yul\":2625:2678   */\n      tag_280\n        /* \"#utility.yul\":2672:2677   */\n      dup2\n        /* \"#utility.yul\":2625:2678   */\n      tag_183\n      jump\t// in\n    tag_280:\n        /* \"#utility.yul\":2620:2623   */\n      dup3\n        /* \"#utility.yul\":2613:2679   */\n      mstore\n        /* \"#utility.yul\":2522:2685   */\n      pop\n      pop\n      jump\t// out\n        /* \"#utility.yul\":2691:2945   */\n    tag_36:\n        /* \"#utility.yul\":2800:2804   */\n      0x00\n        /* \"#utility.yul\":2838:2840   */\n      0x20\n        /* \"#utility.yul\":2827:2836   */\n      dup3\n        /* \"#utility.yul\":2823:2841   */\n      add\n        /* \"#utility.yul\":2815:2841   */\n      swap1\n      pop\n        /* \"#utility.yul\":2851:2938   */\n      tag_282\n        /* \"#utility.yul\":2935:2936   */\n      0x00\n        /* \"#utility.yul\":2924:2933   */\n      dup4\n        /* \"#utility.yul\":2920:2937   */\n      add\n        /* \"#utility.yul\":2911:2917   */\n      dup5\n        /* \"#utility.yul\":2851:2938   */\n      tag_184\n      jump\t// in\n    tag_282:\n        /* \"#utility.yul\":2691:2945   */\n      swap3\n      swap2\n      pop\n      pop\n      jump\t// out\n        /* \"#utility.yul\":2951:3049   */\n    tag_185:\n        /* \"#utility.yul\":3002:3008   */\n      0x00\n        /* \"#utility.yul\":3036:3041   */\n      dup2\n        /* \"#utility.yul\":3030:3042   */\n      mload\n        /* \"#utility.yul\":3020:3042   */\n      swap1\n      pop\n        /* \"#utility.yul\":2951:3049   */\n      swap2\n      swap1\n      pop\n      jump\t// out\n        /* \"#utility.yul\":3055:3223   */\n    tag_186:\n        /* \"#utility.yul\":3138:3149   */\n      0x00\n        /* \"#utility.yul\":3172:3178   */\n      dup3\n        /* \"#utility.yul\":3167:3170   */\n      dup3\n        /* \"#utility.yul\":3160:3179   */\n      mstore\n        /* \"#utility.yul\":3212:3216   */\n      0x20\n        /* \"#utility.yul\":3207:3210   */\n      dup3\n        /* \"#utility.yul\":3203:3217   */\n      add\n        /* \"#utility.yul\":3188:3217   */\n      swap1\n      pop\n        /* \"#utility.yul\":3055:3223   */\n      swap3\n      swap2\n      pop\n      pop\n      jump\t// out\n        /* \"#utility.yul\":3229:3368   */\n    tag_187:\n        /* \"#utility.yul\":3318:3324   */\n      dup3\n        /* \"#utility.yul\":3313:3316   */\n      dup2\n        /* \"#utility.yul\":3308:3311   */\n      dup4\n        /* \"#utility.yul\":3302:3325   */\n      mcopy\n        /* \"#utility.yul\":3359:3360   */\n      0x00\n        /* \"#utility.yul\":3350:3356   */\n      dup4\n        /* \"#utility.yul\":3345:3348   */\n      dup4\n        /* \"#utility.yul\":3341:3357   */\n      add\n        /* \"#utility.yul\":3334:3361   */\n      mstore\n        /* \"#utility.yul\":3229:3368   */\n      pop\n      pop\n      pop\n      jump\t// out\n        /* \"#utility.yul\":3374:3476   */\n    tag_188:\n        /* \"#utility.yul\":3415:3421   */\n      0x00\n        /* \"#utility.yul\":3466:3468   */\n      0x1f\n        /* \"#utility.yul\":3462:3469   */\n      not\n        /* \"#utility.yul\":3457:3459   */\n      0x1f\n        /* \"#utility.yul\":3450:3455   */\n      dup4\n        /* \"#utility.yul\":3446:3460   */\n      add\n        /* \"#utility.yul\":3442:3470   */\n      and\n        /* \"#utility.yul\":3432:3470   */\n      swap1\n      pop\n        /* \"#utility.yul\":3374:3476   */\n      swap2\n      swap1\n      pop\n      jump\t// out\n        /* \"#utility.yul\":3482:3855   */\n    tag_189:\n        /* \"#utility.yul\":3568:3571   */\n      0x00\n        /* \"#utility.yul\":3596:3634   */\n      tag_288\n        /* \"#utility.yul\":3628:3633   */\n      dup3\n        /* \"#utility.yul\":3596:3634   */\n      tag_185\n      jump\t// in\n    tag_288:\n        /* \"#utility.yul\":3650:3720   */\n      tag_289\n        /* \"#utility.yul\":3713:3719   */\n      dup2\n        /* \"#utility.yul\":3708:3711   */\n      dup6\n        /* \"#utility.yul\":3650:3720   */\n      tag_186\n      jump\t// in\n    tag_289:\n        /* \"#utility.yul\":3643:3720   */\n      swap4\n      pop\n        /* \"#utility.yul\":3729:3794   */\n      tag_290\n        /* \"#utility.yul\":3787:3793   */\n      dup2\n        /* \"#utility.yul\":3782:3785   */\n      dup6\n        /* \"#utility.yul\":3775:3779   */\n      0x20\n        /* \"#utility.yul\":3768:3773   */\n      dup7\n        /* \"#utility.yul\":3764:3780   */\n      add\n        /* \"#utility.yul\":3729:3794   */\n      tag_187\n      jump\t// in\n    tag_290:\n        /* \"#utility.yul\":3819:3848   */\n      tag_291\n        /* \"#utility.yul\":3841:3847   */\n      dup2\n        /* \"#utility.yul\":3819:3848   */\n      tag_188\n      jump\t// in\n    tag_291:\n        /* \"#utility.yul\":3814:3817   */\n      dup5\n        /* \"#utility.yul\":3810:3849   */\n      add\n        /* \"#utility.yul\":3803:3849   */\n      swap2\n      pop\n        /* \"#utility.yul\":3572:3855   */\n      pop\n        /* \"#utility.yul\":3482:3855   */\n      swap3\n      swap2\n      pop\n      pop\n      jump\t// out\n        /* \"#utility.yul\":3861:4170   */\n    tag_47:\n        /* \"#utility.yul\":3972:3976   */\n      0x00\n        /* \"#utility.yul\":4010:4012   */\n      0x20\n        /* \"#utility.yul\":3999:4008   */\n      dup3\n        /* \"#utility.yul\":3995:4013   */\n      add\n        /* \"#utility.yul\":3987:4013   */\n      swap1\n      pop\n        /* \"#utility.yul\":4059:4068   */\n      dup2\n        /* \"#utility.yul\":4053:4057   */\n      dup2\n        /* \"#utility.yul\":4049:4069   */\n      sub\n        /* \"#utility.yul\":4045:4046   */\n      0x00\n        /* \"#utility.yul\":4034:4043   */\n      dup4\n        /* \"#utility.yul\":4030:4047   */\n      add\n        /* \"#utility.yul\":4023:4070   */\n      mstore\n        /* \"#utility.yul\":4087:4163   */\n      tag_293\n        /* \"#utility.yul\":4158:4162   */\n      dup2\n        /* \"#utility.yul\":4149:4155   */\n      dup5\n        /* \"#utility.yul\":4087:4163   */\n      tag_189\n      jump\t// in\n    tag_293:\n        /* \"#utility.yul\":4079:4163   */\n      swap1\n      pop\n        /* \"#utility.yul\":3861:4170   */\n      swap3\n      swap2\n      pop\n      pop\n      jump\t// out\n        /* \"#utility.yul\":4176:4253   */\n    tag_190:\n        /* \"#utility.yul\":4213:4220   */\n      0x00\n        /* \"#utility.yul\":4242:4247   */\n      dup2\n        /* \"#utility.yul\":4231:4247   */\n      swap1\n      pop\n        /* \"#utility.yul\":4176:4253   */\n      swap2\n      swap1\n      pop\n      jump\t// out\n        /* \"#utility.yul\":4259:4377   */\n    tag_191:\n        /* \"#utility.yul\":4346:4370   */\n      tag_296\n        /* \"#utility.yul\":4364:4369   */\n      dup2\n        /* \"#utility.yul\":4346:4370   */\n      tag_190\n      jump\t// in\n    tag_296:\n        /* \"#utility.yul\":4341:4344   */\n      dup3\n        /* \"#utility.yul\":4334:4371   */\n      mstore\n        /* \"#utility.yul\":4259:4377   */\n      pop\n      pop\n      jump\t// out\n        /* \"#utility.yul\":4383:4605   */\n    tag_52:\n        /* \"#utility.yul\":4476:4480   */\n      0x00\n        /* \"#utility.yul\":4514:4516   */\n      0x20\n        /* \"#utility.yul\":4503:4512   */\n      dup3\n        /* \"#utility.yul\":4499:4517   */\n      add\n        /* \"#utility.yul\":4491:4517   */\n      swap1\n      pop\n        /* \"#utility.yul\":4527:4598   */\n      tag_298\n        /* \"#utility.yul\":4595:4596   */\n      0x00\n        /* \"#utility.yul\":4584:4593   */\n      dup4\n        /* \"#utility.yul\":4580:4597   */\n      add\n        /* \"#utility.yul\":4571:4577   */\n      dup5\n        /* \"#utility.yul\":4527:4598   */\n      tag_191\n      jump\t// in\n    tag_298:\n        /* \"#utility.yul\":4383:4605   */\n      swap3\n      swap2\n      pop\n      pop\n      jump\t// out\n        /* \"#utility.yul\":4611:4728   */\n    tag_192:\n        /* \"#utility.yul\":4720:4721   */\n      0x00\n        /* \"#utility.yul\":4717:4718   */\n      0x00\n        /* \"#utility.yul\":4710:4722   */\n      revert\n        /* \"#utility.yul\":4734:4851   */\n    tag_193:\n        /* \"#utility.yul\":4843:4844   */\n      0x00\n        /* \"#utility.yul\":4840:4841   */\n      0x00\n        /* \"#utility.yul\":4833:4845   */\n      revert\n        /* \"#utility.yul\":4857:4974   */\n    tag_194:\n        /* \"#utility.yul\":4966:4967   */\n      0x00\n        /* \"#utility.yul\":4963:4964   */\n      0x00\n        /* \"#utility.yul\":4956:4968   */\n      revert\n        /* \"#utility.yul\":4993:5545   */\n    tag_195:\n        /* \"#utility.yul\":5050:5058   */\n      0x00\n        /* \"#utility.yul\":5060:5066   */\n      0x00\n        /* \"#utility.yul\":5110:5113   */\n      dup4\n        /* \"#utility.yul\":5103:5107   */\n      0x1f\n        /* \"#utility.yul\":5095:5101   */\n      dup5\n        /* \"#utility.yul\":5091:5108   */\n      add\n        /* \"#utility.yul\":5087:5114   */\n      slt\n        /* \"#utility.yul\":5077:5199   */\n      tag_303\n      jumpi\n        /* \"#utility.yul\":5118:5197   */\n      tag_304\n      tag_192\n      jump\t// in\n    tag_304:\n        /* \"#utility.yul\":5077:5199   */\n    tag_303:\n        /* \"#utility.yul\":5231:5237   */\n      dup3\n        /* \"#utility.yul\":5218:5238   */\n      calldataload\n        /* \"#utility.yul\":5208:5238   */\n      swap1\n      pop\n        /* \"#utility.yul\":5261:5279   */\n      0xffffffffffffffff\n        /* \"#utility.yul\":5253:5259   */\n      dup2\n        /* \"#utility.yul\":5250:5280   */\n      gt\n        /* \"#utility.yul\":5247:5364   */\n      iszero\n      tag_305\n      jumpi\n        /* \"#utility.yul\":5283:5362   */\n      tag_306\n      tag_193\n      jump\t// in\n    tag_306:\n        /* \"#utility.yul\":5247:5364   */\n    tag_305:\n        /* \"#utility.yul\":5397:5401   */\n      0x20\n        /* \"#utility.yul\":5389:5395   */\n      dup4\n        /* \"#utility.yul\":5385:5402   */\n      add\n        /* \"#utility.yul\":5373:5402   */\n      swap2\n      pop\n        /* \"#utility.yul\":5451:5454   */\n      dup4\n        /* \"#utility.yul\":5443:5447   */\n      0x01\n        /* \"#utility.yul\":5435:5441   */\n      dup3\n        /* \"#utility.yul\":5431:5448   */\n      mul\n        /* \"#utility.yul\":5421:5429   */\n      dup4\n        /* \"#utility.yul\":5417:5449   */\n      add\n        /* \"#utility.yul\":5414:5455   */\n      gt\n        /* \"#utility.yul\":5411:5539   */\n      iszero\n      tag_307\n      jumpi\n        /* \"#utility.yul\":5458:5537   */\n      tag_308\n      tag_194\n      jump\t// in\n    tag_308:\n        /* \"#utility.yul\":5411:5539   */\n    tag_307:\n        /* \"#utility.yul\":4993:5545   */\n      swap3\n      pop\n      swap3\n      swap1\n      pop\n      jump\t// out\n        /* \"#utility.yul\":5551:5655   */\n    tag_196:\n        /* \"#utility.yul\":5596:5603   */\n      0x00\n        /* \"#utility.yul\":5625:5649   */\n      tag_310\n        /* \"#utility.yul\":5643:5648   */\n      dup3\n        /* \"#utility.yul\":5625:5649   */\n      tag_179\n      jump\t// in\n    tag_310:\n        /* \"#utility.yul\":5614:5649   */\n      swap1\n      pop\n        /* \"#utility.yul\":5551:5655   */\n      swap2\n      swap1\n      pop\n      jump\t// out\n        /* \"#utility.yul\":5661:5799   */\n    tag_197:\n        /* \"#utility.yul\":5742:5774   */\n      tag_312\n        /* \"#utility.yul\":5768:5773   */\n      dup2\n        /* \"#utility.yul\":5742:5774   */\n      tag_196\n      jump\t// in\n    tag_312:\n        /* \"#utility.yul\":5735:5740   */\n      dup2\n        /* \"#utility.yul\":5732:5775   */\n      eq\n        /* \"#utility.yul\":5722:5793   */\n      tag_313\n      jumpi\n        /* \"#utility.yul\":5789:5790   */\n      0x00\n        /* \"#utility.yul\":5786:5787   */\n      0x00\n        /* \"#utility.yul\":5779:5791   */\n      revert\n        /* \"#utility.yul\":5722:5793   */\n    tag_313:\n        /* \"#utility.yul\":5661:5799   */\n      pop\n      jump\t// out\n        /* \"#utility.yul\":5805:5960   */\n    tag_198:\n        /* \"#utility.yul\":5859:5864   */\n      0x00\n        /* \"#utility.yul\":5897:5903   */\n      dup2\n        /* \"#utility.yul\":5884:5904   */\n      calldataload\n        /* \"#utility.yul\":5875:5904   */\n      swap1\n      pop\n        /* \"#utility.yul\":5913:5954   */\n      tag_315\n        /* \"#utility.yul\":5948:5953   */\n      dup2\n        /* \"#utility.yul\":5913:5954   */\n      tag_197\n      jump\t// in\n    tag_315:\n        /* \"#utility.yul\":5805:5960   */\n      swap3\n      swap2\n      pop\n      pop\n      jump\t// out\n        /* \"#utility.yul\":5966:6945   */\n    tag_56:\n        /* \"#utility.yul\":6071:6077   */\n      0x00\n        /* \"#utility.yul\":6079:6085   */\n      0x00\n        /* \"#utility.yul\":6087:6093   */\n      0x00\n        /* \"#utility.yul\":6095:6101   */\n      0x00\n        /* \"#utility.yul\":6103:6109   */\n      0x00\n        /* \"#utility.yul\":6152:6155   */\n      0x80\n        /* \"#utility.yul\":6140:6149   */\n      dup7\n        /* \"#utility.yul\":6131:6138   */\n      dup9\n        /* \"#utility.yul\":6127:6150   */\n      sub\n        /* \"#utility.yul\":6123:6156   */\n      slt\n        /* \"#utility.yul\":6120:6240   */\n      iszero\n      tag_317\n      jumpi\n        /* \"#utility.yul\":6159:6238   */\n      tag_318\n      tag_172\n      jump\t// in\n    tag_318:\n        /* \"#utility.yul\":6120:6240   */\n    tag_317:\n        /* \"#utility.yul\":6307:6308   */\n      0x00\n        /* \"#utility.yul\":6296:6305   */\n      dup7\n        /* \"#utility.yul\":6292:6309   */\n      add\n        /* \"#utility.yul\":6279:6310   */\n      calldataload\n        /* \"#utility.yul\":6337:6355   */\n      0xffffffffffffffff\n        /* \"#utility.yul\":6329:6335   */\n      dup2\n        /* \"#utility.yul\":6326:6356   */\n      gt\n        /* \"#utility.yul\":6323:6440   */\n      iszero\n      tag_319\n      jumpi\n        /* \"#utility.yul\":6359:6438   */\n      tag_320\n      tag_173\n      jump\t// in\n    tag_320:\n        /* \"#utility.yul\":6323:6440   */\n    tag_319:\n        /* \"#utility.yul\":6472:6536   */\n      tag_321\n        /* \"#utility.yul\":6528:6535   */\n      dup9\n        /* \"#utility.yul\":6519:6525   */\n      dup3\n        /* \"#utility.yul\":6508:6517   */\n      dup10\n        /* \"#utility.yul\":6504:6526   */\n      add\n        /* \"#utility.yul\":6472:6536   */\n      tag_195\n      jump\t// in\n    tag_321:\n        /* \"#utility.yul\":6454:6536   */\n      swap6\n      pop\n      swap6\n      pop\n        /* \"#utility.yul\":6250:6546   */\n      pop\n        /* \"#utility.yul\":6585:6587   */\n      0x20\n        /* \"#utility.yul\":6611:6664   */\n      tag_322\n        /* \"#utility.yul\":6656:6663   */\n      dup9\n        /* \"#utility.yul\":6647:6653   */\n      dup3\n        /* \"#utility.yul\":6636:6645   */\n      dup10\n        /* \"#utility.yul\":6632:6654   */\n      add\n        /* \"#utility.yul\":6611:6664   */\n      tag_176\n      jump\t// in\n    tag_322:\n        /* \"#utility.yul\":6601:6664   */\n      swap4\n      pop\n        /* \"#utility.yul\":6556:6674   */\n      pop\n        /* \"#utility.yul\":6713:6715   */\n      0x40\n        /* \"#utility.yul\":6739:6792   */\n      tag_323\n        /* \"#utility.yul\":6784:6791   */\n      dup9\n        /* \"#utility.yul\":6775:6781   */\n      dup3\n        /* \"#utility.yul\":6764:6773   */\n      dup10\n        /* \"#utility.yul\":6760:6782   */\n      add\n        /* \"#utility.yul\":6739:6792   */\n      tag_176\n      jump\t// in\n    tag_323:\n        /* \"#utility.yul\":6729:6792   */\n      swap3\n      pop\n        /* \"#utility.yul\":6684:6802   */\n      pop\n        /* \"#utility.yul\":6841:6843   */\n      0x60\n        /* \"#utility.yul\":6867:6928   */\n      tag_324\n        /* \"#utility.yul\":6920:6927   */\n      dup9\n        /* \"#utility.yul\":6911:6917   */\n      dup3\n        /* \"#utility.yul\":6900:6909   */\n      dup10\n        /* \"#utility.yul\":6896:6918   */\n      add\n        /* \"#utility.yul\":6867:6928   */\n      tag_198\n      jump\t// in\n    tag_324:\n        /* \"#utility.yul\":6857:6928   */\n      swap2\n      pop\n        /* \"#utility.yul\":6812:6938   */\n      pop\n        /* \"#utility.yul\":5966:6945   */\n      swap3\n      swap6\n      pop\n      swap3\n      swap6\n      swap1\n      swap4\n      pop\n      jump\t// out\n        /* \"#utility.yul\":6951:7095   */\n    tag_199:\n        /* \"#utility.yul\":7019:7028   */\n      0x00\n        /* \"#utility.yul\":7052:7089   */\n      tag_326\n        /* \"#utility.yul\":7083:7088   */\n      dup3\n        /* \"#utility.yul\":7052:7089   */\n      tag_182\n      jump\t// in\n    tag_326:\n        /* \"#utility.yul\":7039:7089   */\n      swap1\n      pop\n        /* \"#utility.yul\":6951:7095   */\n      swap2\n      swap1\n      pop\n      jump\t// out\n        /* \"#utility.yul\":7101:7268   */\n    tag_200:\n        /* \"#utility.yul\":7206:7261   */\n      tag_328\n        /* \"#utility.yul\":7255:7260   */\n      dup2\n        /* \"#utility.yul\":7206:7261   */\n      tag_199\n      jump\t// in\n    tag_328:\n        /* \"#utility.yul\":7201:7204   */\n      dup3\n        /* \"#utility.yul\":7194:7262   */\n      mstore\n        /* \"#utility.yul\":7101:7268   */\n      pop\n      pop\n      jump\t// out\n        /* \"#utility.yul\":7274:7532   */\n    tag_62:\n        /* \"#utility.yul\":7385:7389   */\n      0x00\n        /* \"#utility.yul\":7423:7425   */\n      0x20\n        /* \"#utility.yul\":7412:7421   */\n      dup3\n        /* \"#utility.yul\":7408:7426   */\n      add\n        /* \"#utility.yul\":7400:7426   */\n      swap1\n      pop\n        /* \"#utility.yul\":7436:7525   */\n      tag_330\n        /* \"#utility.yul\":7522:7523   */\n      0x00\n        /* \"#utility.yul\":7511:7520   */\n      dup4\n        /* \"#utility.yul\":7507:7524   */\n      add\n        /* \"#utility.yul\":7498:7504   */\n      dup5\n        /* \"#utility.yul\":7436:7525   */\n      tag_200\n      jump\t// in\n    tag_330:\n        /* \"#utility.yul\":7274:7532   */\n      swap3\n      swap2\n      pop\n      pop\n      jump\t// out\n        /* \"#utility.yul\":7538:8210   */\n    tag_65:\n        /* \"#utility.yul\":7617:7623   */\n      0x00\n        /* \"#utility.yul\":7625:7631   */\n      0x00\n        /* \"#utility.yul\":7633:7639   */\n      0x00\n        /* \"#utility.yul\":7682:7684   */\n      0x40\n        /* \"#utility.yul\":7670:7679   */\n      dup5\n        /* \"#utility.yul\":7661:7668   */\n      dup7\n        /* \"#utility.yul\":7657:7680   */\n      sub\n        /* \"#utility.yul\":7653:7685   */\n      slt\n        /* \"#utility.yul\":7650:7769   */\n      iszero\n      tag_332\n      jumpi\n        /* \"#utility.yul\":7688:7767   */\n      tag_333\n      tag_172\n      jump\t// in\n    tag_333:\n        /* \"#utility.yul\":7650:7769   */\n    tag_332:\n        /* \"#utility.yul\":7808:7809   */\n      0x00\n        /* \"#utility.yul\":7833:7886   */\n      tag_334\n        /* \"#utility.yul\":7878:7885   */\n      dup7\n        /* \"#utility.yul\":7869:7875   */\n      dup3\n        /* \"#utility.yul\":7858:7867   */\n      dup8\n        /* \"#utility.yul\":7854:7876   */\n      add\n        /* \"#utility.yul\":7833:7886   */\n      tag_176\n      jump\t// in\n    tag_334:\n        /* \"#utility.yul\":7823:7886   */\n      swap4\n      pop\n        /* \"#utility.yul\":7779:7896   */\n      pop\n        /* \"#utility.yul\":7963:7965   */\n      0x20\n        /* \"#utility.yul\":7952:7961   */\n      dup5\n        /* \"#utility.yul\":7948:7966   */\n      add\n        /* \"#utility.yul\":7935:7967   */\n      calldataload\n        /* \"#utility.yul\":7994:8012   */\n      0xffffffffffffffff\n        /* \"#utility.yul\":7986:7992   */\n      dup2\n        /* \"#utility.yul\":7983:8013   */\n      gt\n        /* \"#utility.yul\":7980:8097   */\n      iszero\n      tag_335\n      jumpi\n        /* \"#utility.yul\":8016:8095   */\n      tag_336\n      tag_173\n      jump\t// in\n    tag_336:\n        /* \"#utility.yul\":7980:8097   */\n    tag_335:\n        /* \"#utility.yul\":8129:8193   */\n      tag_337\n        /* \"#utility.yul\":8185:8192   */\n      dup7\n        /* \"#utility.yul\":8176:8182   */\n      dup3\n        /* \"#utility.yul\":8165:8174   */\n      dup8\n        /* \"#utility.yul\":8161:8183   */\n      add\n        /* \"#utility.yul\":8129:8193   */\n      tag_195\n      jump\t// in\n    tag_337:\n        /* \"#utility.yul\":8111:8193   */\n      swap3\n      pop\n      swap3\n      pop\n        /* \"#utility.yul\":7906:8203   */\n      pop\n        /* \"#utility.yul\":7538:8210   */\n      swap3\n      pop\n      swap3\n      pop\n      swap3\n      jump\t// out\n        /* \"#utility.yul\":8216:8338   */\n    tag_201:\n        /* \"#utility.yul\":8289:8313   */\n      tag_339\n        /* \"#utility.yul\":8307:8312   */\n      dup2\n        /* \"#utility.yul\":8289:8313   */\n      tag_190\n      jump\t// in\n    tag_339:\n        /* \"#utility.yul\":8282:8287   */\n      dup2\n        /* \"#utility.yul\":8279:8314   */\n      eq\n        /* \"#utility.yul\":8269:8332   */\n      tag_340\n      jumpi\n        /* \"#utility.yul\":8328:8329   */\n      0x00\n        /* \"#utility.yul\":8325:8326   */\n      0x00\n        /* \"#utility.yul\":8318:8330   */\n      revert\n        /* \"#utility.yul\":8269:8332   */\n    tag_340:\n        /* \"#utility.yul\":8216:8338   */\n      pop\n      jump\t// out\n        /* \"#utility.yul\":8344:8483   */\n    tag_202:\n        /* \"#utility.yul\":8390:8395   */\n      0x00\n        /* \"#utility.yul\":8428:8434   */\n      dup2\n        /* \"#utility.yul\":8415:8435   */\n      calldataload\n        /* \"#utility.yul\":8406:8435   */\n      swap1\n      pop\n        /* \"#utility.yul\":8444:8477   */\n      tag_342\n        /* \"#utility.yul\":8471:8476   */\n      dup2\n        /* \"#utility.yul\":8444:8477   */\n      tag_201\n      jump\t// in\n    tag_342:\n        /* \"#utility.yul\":8344:8483   */\n      swap3\n      swap2\n      pop\n      pop\n      jump\t// out\n        /* \"#utility.yul\":8489:8818   */\n    tag_75:\n        /* \"#utility.yul\":8548:8554   */\n      0x00\n        /* \"#utility.yul\":8597:8599   */\n      0x20\n        /* \"#utility.yul\":8585:8594   */\n      dup3\n        /* \"#utility.yul\":8576:8583   */\n      dup5\n        /* \"#utility.yul\":8572:8595   */\n      sub\n        /* \"#utility.yul\":8568:8600   */\n      slt\n        /* \"#utility.yul\":8565:8684   */\n      iszero\n      tag_344\n      jumpi\n        /* \"#utility.yul\":8603:8682   */\n      tag_345\n      tag_172\n      jump\t// in\n    tag_345:\n        /* \"#utility.yul\":8565:8684   */\n    tag_344:\n        /* \"#utility.yul\":8723:8724   */\n      0x00\n        /* \"#utility.yul\":8748:8801   */\n      tag_346\n        /* \"#utility.yul\":8793:8800   */\n      dup5\n        /* \"#utility.yul\":8784:8790   */\n      dup3\n        /* \"#utility.yul\":8773:8782   */\n      dup6\n        /* \"#utility.yul\":8769:8791   */\n      add\n        /* \"#utility.yul\":8748:8801   */\n      tag_202\n      jump\t// in\n    tag_346:\n        /* \"#utility.yul\":8738:8801   */\n      swap2\n      pop\n        /* \"#utility.yul\":8694:8811   */\n      pop\n        /* \"#utility.yul\":8489:8818   */\n      swap3\n      swap2\n      pop\n      pop\n      jump\t// out\n        /* \"#utility.yul\":8824:8942   */\n    tag_203:\n        /* \"#utility.yul\":8911:8935   */\n      tag_348\n        /* \"#utility.yul\":8929:8934   */\n      dup2\n        /* \"#utility.yul\":8911:8935   */\n      tag_174\n      jump\t// in\n    tag_348:\n        /* \"#utility.yul\":8906:8909   */\n      dup3\n        /* \"#utility.yul\":8899:8936   */\n      mstore\n        /* \"#utility.yul\":8824:8942   */\n      pop\n      pop\n      jump\t// out\n        /* \"#utility.yul\":8948:9170   */\n    tag_78:\n        /* \"#utility.yul\":9041:9045   */\n      0x00\n        /* \"#utility.yul\":9079:9081   */\n      0x20\n        /* \"#utility.yul\":9068:9077   */\n      dup3\n        /* \"#utility.yul\":9064:9082   */\n      add\n        /* \"#utility.yul\":9056:9082   */\n      swap1\n      pop\n        /* \"#utility.yul\":9092:9163   */\n      tag_350\n        /* \"#utility.yul\":9160:9161   */\n      0x00\n        /* \"#utility.yul\":9149:9158   */\n      dup4\n        /* \"#utility.yul\":9145:9162   */\n      add\n        /* \"#utility.yul\":9136:9142   */\n      dup5\n        /* \"#utility.yul\":9092:9163   */\n      tag_203\n      jump\t// in\n    tag_350:\n        /* \"#utility.yul\":8948:9170   */\n      swap3\n      swap2\n      pop\n      pop\n      jump\t// out\n        /* \"#utility.yul\":9176:9356   */\n    tag_204:\n        /* \"#utility.yul\":9224:9301   */\n      0x4e487b7100000000000000000000000000000000000000000000000000000000\n        /* \"#utility.yul\":9221:9222   */\n      0x00\n        /* \"#utility.yul\":9214:9302   */\n      mstore\n        /* \"#utility.yul\":9321:9325   */\n      0x22\n        /* \"#utility.yul\":9318:9319   */\n      0x04\n        /* \"#utility.yul\":9311:9326   */\n      mstore\n        /* \"#utility.yul\":9345:9349   */\n      0x24\n        /* \"#utility.yul\":9342:9343   */\n      0x00\n        /* \"#utility.yul\":9335:9350   */\n      revert\n        /* \"#utility.yul\":9362:9682   */\n    tag_97:\n        /* \"#utility.yul\":9406:9412   */\n      0x00\n        /* \"#utility.yul\":9443:9444   */\n      0x02\n        /* \"#utility.yul\":9437:9441   */\n      dup3\n        /* \"#utility.yul\":9433:9445   */\n      div\n        /* \"#utility.yul\":9423:9445   */\n      swap1\n      pop\n        /* \"#utility.yul\":9490:9491   */\n      0x01\n        /* \"#utility.yul\":9484:9488   */\n      dup3\n        /* \"#utility.yul\":9480:9492   */\n      and\n        /* \"#utility.yul\":9511:9529   */\n      dup1\n        /* \"#utility.yul\":9501:9582   */\n      tag_353\n      jumpi\n        /* \"#utility.yul\":9567:9571   */\n      0x7f\n        /* \"#utility.yul\":9559:9565   */\n      dup3\n        /* \"#utility.yul\":9555:9572   */\n      and\n        /* \"#utility.yul\":9545:9572   */\n      swap2\n      pop\n        /* \"#utility.yul\":9501:9582   */\n    tag_353:\n        /* \"#utility.yul\":9629:9631   */\n      0x20\n        /* \"#utility.yul\":9621:9627   */\n      dup3\n        /* \"#utility.yul\":9618:9632   */\n      lt\n        /* \"#utility.yul\":9598:9616   */\n      dup2\n        /* \"#utility.yul\":9595:9633   */\n      sub\n        /* \"#utility.yul\":9592:9676   */\n      tag_354\n      jumpi\n        /* \"#utility.yul\":9648:9666   */\n      tag_355\n      tag_204\n      jump\t// in\n    tag_355:\n        /* \"#utility.yul\":9592:9676   */\n    tag_354:\n        /* \"#utility.yul\":9413:9682   */\n      pop\n        /* \"#utility.yul\":9362:9682   */\n      swap2\n      swap1\n      pop\n      jump\t// out\n        /* \"#utility.yul\":9688:9868   */\n    tag_107:\n        /* \"#utility.yul\":9736:9813   */\n      0x4e487b7100000000000000000000000000000000000000000000000000000000\n        /* \"#utility.yul\":9733:9734   */\n      0x00\n        /* \"#utility.yul\":9726:9814   */\n      mstore\n        /* \"#utility.yul\":9833:9837   */\n      0x41\n        /* \"#utility.yul\":9830:9831   */\n      0x04\n        /* \"#utility.yul\":9823:9838   */\n      mstore\n        /* \"#utility.yul\":9857:9861   */\n      0x24\n        /* \"#utility.yul\":9854:9855   */\n      0x00\n        /* \"#utility.yul\":9847:9862   */\n      revert\n        /* \"#utility.yul\":9874:10054   */\n    tag_111:\n        /* \"#utility.yul\":9922:9999   */\n      0x4e487b7100000000000000000000000000000000000000000000000000000000\n        /* \"#utility.yul\":9919:9920   */\n      0x00\n        /* \"#utility.yul\":9912:10000   */\n      mstore\n        /* \"#utility.yul\":10019:10023   */\n      0x32\n        /* \"#utility.yul\":10016:10017   */\n      0x04\n        /* \"#utility.yul\":10009:10024   */\n      mstore\n        /* \"#utility.yul\":10043:10047   */\n      0x24\n        /* \"#utility.yul\":10040:10041   */\n      0x00\n        /* \"#utility.yul\":10033:10048   */\n      revert\n        /* \"#utility.yul\":10060:10208   */\n    tag_205:\n        /* \"#utility.yul\":10158:10164   */\n      dup3\n        /* \"#utility.yul\":10153:10156   */\n      dup2\n        /* \"#utility.yul\":10148:10151   */\n      dup4\n        /* \"#utility.yul\":10135:10165   */\n      calldatacopy\n        /* \"#utility.yul\":10199:10200   */\n      0x00\n        /* \"#utility.yul\":10190:10196   */\n      dup4\n        /* \"#utility.yul\":10185:10188   */\n      dup4\n        /* \"#utility.yul\":10181:10197   */\n      add\n        /* \"#utility.yul\":10174:10201   */\n      mstore\n        /* \"#utility.yul\":10060:10208   */\n      pop\n      pop\n      pop\n      jump\t// out\n        /* \"#utility.yul\":10236:10550   */\n    tag_206:\n        /* \"#utility.yul\":10332:10335   */\n      0x00\n        /* \"#utility.yul\":10353:10423   */\n      tag_360\n        /* \"#utility.yul\":10416:10422   */\n      dup4\n        /* \"#utility.yul\":10411:10414   */\n      dup6\n        /* \"#utility.yul\":10353:10423   */\n      tag_186\n      jump\t// in\n    tag_360:\n        /* \"#utility.yul\":10346:10423   */\n      swap4\n      pop\n        /* \"#utility.yul\":10433:10489   */\n      tag_361\n        /* \"#utility.yul\":10482:10488   */\n      dup4\n        /* \"#utility.yul\":10477:10480   */\n      dup6\n        /* \"#utility.yul\":10470:10475   */\n      dup5\n        /* \"#utility.yul\":10433:10489   */\n      tag_205\n      jump\t// in\n    tag_361:\n        /* \"#utility.yul\":10514:10543   */\n      tag_362\n        /* \"#utility.yul\":10536:10542   */\n      dup4\n        /* \"#utility.yul\":10514:10543   */\n      tag_188\n      jump\t// in\n    tag_362:\n        /* \"#utility.yul\":10509:10512   */\n      dup5\n        /* \"#utility.yul\":10505:10544   */\n      add\n        /* \"#utility.yul\":10498:10544   */\n      swap1\n      pop\n        /* \"#utility.yul\":10236:10550   */\n      swap4\n      swap3\n      pop\n      pop\n      pop\n      jump\t// out\n        /* \"#utility.yul\":10556:10670   */\n    tag_207:\n        /* \"#utility.yul\":10623:10629   */\n      0x00\n        /* \"#utility.yul\":10657:10662   */\n      dup2\n        /* \"#utility.yul\":10651:10663   */\n      mload\n        /* \"#utility.yul\":10641:10663   */\n      swap1\n      pop\n        /* \"#utility.yul\":10556:10670   */\n      swap2\n      swap1\n      pop\n      jump\t// out\n        /* \"#utility.yul\":10676:10860   */\n    tag_208:\n        /* \"#utility.yul\":10775:10786   */\n      0x00\n        /* \"#utility.yul\":10809:10815   */\n      dup3\n        /* \"#utility.yul\":10804:10807   */\n      dup3\n        /* \"#utility.yul\":10797:10816   */\n      mstore\n        /* \"#utility.yul\":10849:10853   */\n      0x20\n        /* \"#utility.yul\":10844:10847   */\n      dup3\n        /* \"#utility.yul\":10840:10854   */\n      add\n        /* \"#utility.yul\":10825:10854   */\n      swap1\n      pop\n        /* \"#utility.yul\":10676:10860   */\n      swap3\n      swap2\n      pop\n      pop\n      jump\t// out\n        /* \"#utility.yul\":10866:10998   */\n    tag_209:\n        /* \"#utility.yul\":10933:10937   */\n      0x00\n        /* \"#utility.yul\":10956:10959   */\n      dup2\n        /* \"#utility.yul\":10948:10959   */\n      swap1\n      pop\n        /* \"#utility.yul\":10986:10990   */\n      0x20\n        /* \"#utility.yul\":10981:10984   */\n      dup3\n        /* \"#utility.yul\":10977:10991   */\n      add\n        /* \"#utility.yul\":10969:10991   */\n      swap1\n      pop\n        /* \"#utility.yul\":10866:10998   */\n      swap2\n      swap1\n      pop\n      jump\t// out\n        /* \"#utility.yul\":11004:11112   */\n    tag_210:\n        /* \"#utility.yul\":11081:11105   */\n      tag_367\n        /* \"#utility.yul\":11099:11104   */\n      dup2\n        /* \"#utility.yul\":11081:11105   */\n      tag_174\n      jump\t// in\n    tag_367:\n        /* \"#utility.yul\":11076:11079   */\n      dup3\n        /* \"#utility.yul\":11069:11106   */\n      mstore\n        /* \"#utility.yul\":11004:11112   */\n      pop\n      pop\n      jump\t// out\n        /* \"#utility.yul\":11118:11297   */\n    tag_211:\n        /* \"#utility.yul\":11187:11197   */\n      0x00\n        /* \"#utility.yul\":11208:11254   */\n      tag_369\n        /* \"#utility.yul\":11250:11253   */\n      dup4\n        /* \"#utility.yul\":11242:11248   */\n      dup4\n        /* \"#utility.yul\":11208:11254   */\n      tag_210\n      jump\t// in\n    tag_369:\n        /* \"#utility.yul\":11286:11290   */\n      0x20\n        /* \"#utility.yul\":11281:11284   */\n      dup4\n        /* \"#utility.yul\":11277:11291   */\n      add\n        /* \"#utility.yul\":11263:11291   */\n      swap1\n      pop\n        /* \"#utility.yul\":11118:11297   */\n      swap3\n      swap2\n      pop\n      pop\n      jump\t// out\n        /* \"#utility.yul\":11303:11416   */\n    tag_212:\n        /* \"#utility.yul\":11373:11377   */\n      0x00\n        /* \"#utility.yul\":11405:11409   */\n      0x20\n        /* \"#utility.yul\":11400:11403   */\n      dup3\n        /* \"#utility.yul\":11396:11410   */\n      add\n        /* \"#utility.yul\":11388:11410   */\n      swap1\n      pop\n        /* \"#utility.yul\":11303:11416   */\n      swap2\n      swap1\n      pop\n      jump\t// out\n        /* \"#utility.yul\":11452:12184   */\n    tag_213:\n        /* \"#utility.yul\":11571:11574   */\n      0x00\n        /* \"#utility.yul\":11600:11654   */\n      tag_372\n        /* \"#utility.yul\":11648:11653   */\n      dup3\n        /* \"#utility.yul\":11600:11654   */\n      tag_207\n      jump\t// in\n    tag_372:\n        /* \"#utility.yul\":11670:11756   */\n      tag_373\n        /* \"#utility.yul\":11749:11755   */\n      dup2\n        /* \"#utility.yul\":11744:11747   */\n      dup6\n        /* \"#utility.yul\":11670:11756   */\n      tag_208\n      jump\t// in\n    tag_373:\n        /* \"#utility.yul\":11663:11756   */\n      swap4\n      pop\n        /* \"#utility.yul\":11780:11836   */\n      tag_374\n        /* \"#utility.yul\":11830:11835   */\n      dup4\n        /* \"#utility.yul\":11780:11836   */\n      tag_209\n      jump\t// in\n    tag_374:\n        /* \"#utility.yul\":11859:11866   */\n      dup1\n        /* \"#utility.yul\":11890:11891   */\n      0x00\n        /* \"#utility.yul\":11875:12159   */\n    tag_375:\n        /* \"#utility.yul\":11900:11906   */\n      dup4\n        /* \"#utility.yul\":11897:11898   */\n      dup2\n        /* \"#utility.yul\":11894:11907   */\n      lt\n        /* \"#utility.yul\":11875:12159   */\n      iszero\n      tag_377\n      jumpi\n        /* \"#utility.yul\":11976:11982   */\n      dup2\n        /* \"#utility.yul\":11970:11983   */\n      mload\n        /* \"#utility.yul\":12003:12066   */\n      tag_378\n        /* \"#utility.yul\":12062:12065   */\n      dup9\n        /* \"#utility.yul\":12047:12060   */\n      dup3\n        /* \"#utility.yul\":12003:12066   */\n      tag_211\n      jump\t// in\n    tag_378:\n        /* \"#utility.yul\":11996:12066   */\n      swap8\n      pop\n        /* \"#utility.yul\":12089:12149   */\n      tag_379\n        /* \"#utility.yul\":12142:12148   */\n      dup4\n        /* \"#utility.yul\":12089:12149   */\n      tag_212\n      jump\t// in\n    tag_379:\n        /* \"#utility.yul\":12079:12149   */\n      swap3\n      pop\n        /* \"#utility.yul\":11935:12159   */\n      pop\n        /* \"#utility.yul\":11922:11923   */\n      0x01\n        /* \"#utility.yul\":11919:11920   */\n      dup2\n        /* \"#utility.yul\":11915:11924   */\n      add\n        /* \"#utility.yul\":11910:11924   */\n      swap1\n      pop\n        /* \"#utility.yul\":11875:12159   */\n      jump(tag_375)\n    tag_377:\n        /* \"#utility.yul\":11879:11893   */\n      pop\n        /* \"#utility.yul\":12175:12178   */\n      dup6\n        /* \"#utility.yul\":12168:12178   */\n      swap4\n      pop\n        /* \"#utility.yul\":11576:12184   */\n      pop\n      pop\n      pop\n        /* \"#utility.yul\":11452:12184   */\n      swap3\n      swap2\n      pop\n      pop\n      jump\t// out\n        /* \"#utility.yul\":12190:12780   */\n    tag_115:\n        /* \"#utility.yul\":12389:12393   */\n      0x00\n        /* \"#utility.yul\":12427:12429   */\n      0x40\n        /* \"#utility.yul\":12416:12425   */\n      dup3\n        /* \"#utility.yul\":12412:12430   */\n      add\n        /* \"#utility.yul\":12404:12430   */\n      swap1\n      pop\n        /* \"#utility.yul\":12476:12485   */\n      dup2\n        /* \"#utility.yul\":12470:12474   */\n      dup2\n        /* \"#utility.yul\":12466:12486   */\n      sub\n        /* \"#utility.yul\":12462:12463   */\n      0x00\n        /* \"#utility.yul\":12451:12460   */\n      dup4\n        /* \"#utility.yul\":12447:12464   */\n      add\n        /* \"#utility.yul\":12440:12487   */\n      mstore\n        /* \"#utility.yul\":12504:12590   */\n      tag_381\n        /* \"#utility.yul\":12585:12589   */\n      dup2\n        /* \"#utility.yul\":12576:12582   */\n      dup6\n        /* \"#utility.yul\":12568:12574   */\n      dup8\n        /* \"#utility.yul\":12504:12590   */\n      tag_206\n      jump\t// in\n    tag_381:\n        /* \"#utility.yul\":12496:12590   */\n      swap1\n      pop\n        /* \"#utility.yul\":12637:12646   */\n      dup2\n        /* \"#utility.yul\":12631:12635   */\n      dup2\n        /* \"#utility.yul\":12627:12647   */\n      sub\n        /* \"#utility.yul\":12622:12624   */\n      0x20\n        /* \"#utility.yul\":12611:12620   */\n      dup4\n        /* \"#utility.yul\":12607:12625   */\n      add\n        /* \"#utility.yul\":12600:12648   */\n      mstore\n        /* \"#utility.yul\":12665:12773   */\n      tag_382\n        /* \"#utility.yul\":12768:12772   */\n      dup2\n        /* \"#utility.yul\":12759:12765   */\n      dup5\n        /* \"#utility.yul\":12665:12773   */\n      tag_213\n      jump\t// in\n    tag_382:\n        /* \"#utility.yul\":12657:12773   */\n      swap1\n      pop\n        /* \"#utility.yul\":12190:12780   */\n      swap5\n      swap4\n      pop\n      pop\n      pop\n      pop\n      jump\t// out\n        /* \"#utility.yul\":12786:12902   */\n    tag_214:\n        /* \"#utility.yul\":12856:12877   */\n      tag_384\n        /* \"#utility.yul\":12871:12876   */\n      dup2\n        /* \"#utility.yul\":12856:12877   */\n      tag_177\n      jump\t// in\n    tag_384:\n        /* \"#utility.yul\":12849:12854   */\n      dup2\n        /* \"#utility.yul\":12846:12878   */\n      eq\n        /* \"#utility.yul\":12836:12896   */\n      tag_385\n      jumpi\n        /* \"#utility.yul\":12892:12893   */\n      0x00\n        /* \"#utility.yul\":12889:12890   */\n      0x00\n        /* \"#utility.yul\":12882:12894   */\n      revert\n        /* \"#utility.yul\":12836:12896   */\n    tag_385:\n        /* \"#utility.yul\":12786:12902   */\n      pop\n      jump\t// out\n        /* \"#utility.yul\":12908:13045   */\n    tag_215:\n        /* \"#utility.yul\":12962:12967   */\n      0x00\n        /* \"#utility.yul\":12993:12999   */\n      dup2\n        /* \"#utility.yul\":12987:13000   */\n      mload\n        /* \"#utility.yul\":12978:13000   */\n      swap1\n      pop\n        /* \"#utility.yul\":13009:13039   */\n      tag_387\n        /* \"#utility.yul\":13033:13038   */\n      dup2\n        /* \"#utility.yul\":13009:13039   */\n      tag_214\n      jump\t// in\n    tag_387:\n        /* \"#utility.yul\":12908:13045   */\n      swap3\n      swap2\n      pop\n      pop\n      jump\t// out\n        /* \"#utility.yul\":13051:13396   */\n    tag_119:\n        /* \"#utility.yul\":13118:13124   */\n      0x00\n        /* \"#utility.yul\":13167:13169   */\n      0x20\n        /* \"#utility.yul\":13155:13164   */\n      dup3\n        /* \"#utility.yul\":13146:13153   */\n      dup5\n        /* \"#utility.yul\":13142:13165   */\n      sub\n        /* \"#utility.yul\":13138:13170   */\n      slt\n        /* \"#utility.yul\":13135:13254   */\n      iszero\n      tag_389\n      jumpi\n        /* \"#utility.yul\":13173:13252   */\n      tag_390\n      tag_172\n      jump\t// in\n    tag_390:\n        /* \"#utility.yul\":13135:13254   */\n    tag_389:\n        /* \"#utility.yul\":13293:13294   */\n      0x00\n        /* \"#utility.yul\":13318:13379   */\n      tag_391\n        /* \"#utility.yul\":13371:13378   */\n      dup5\n        /* \"#utility.yul\":13362:13368   */\n      dup3\n        /* \"#utility.yul\":13351:13360   */\n      dup6\n        /* \"#utility.yul\":13347:13369   */\n      add\n        /* \"#utility.yul\":13318:13379   */\n      tag_215\n      jump\t// in\n    tag_391:\n        /* \"#utility.yul\":13308:13379   */\n      swap2\n      pop\n        /* \"#utility.yul\":13264:13389   */\n      pop\n        /* \"#utility.yul\":13051:13396   */\n      swap3\n      swap2\n      pop\n      pop\n      jump\t// out\n        /* \"#utility.yul\":13402:13549   */\n    tag_216:\n        /* \"#utility.yul\":13503:13514   */\n      0x00\n        /* \"#utility.yul\":13540:13543   */\n      dup2\n        /* \"#utility.yul\":13525:13543   */\n      swap1\n      pop\n        /* \"#utility.yul\":13402:13549   */\n      swap3\n      swap2\n      pop\n      pop\n      jump\t// out\n        /* \"#utility.yul\":13555:13669   */\n    tag_217:\n      pop\n      jump\t// out\n        /* \"#utility.yul\":13675:14073   */\n    tag_218:\n        /* \"#utility.yul\":13834:13837   */\n      0x00\n        /* \"#utility.yul\":13855:13938   */\n      tag_395\n        /* \"#utility.yul\":13936:13937   */\n      0x00\n        /* \"#utility.yul\":13931:13934   */\n      dup4\n        /* \"#utility.yul\":13855:13938   */\n      tag_216\n      jump\t// in\n    tag_395:\n        /* \"#utility.yul\":13848:13938   */\n      swap2\n      pop\n        /* \"#utility.yul\":13947:14040   */\n      tag_396\n        /* \"#utility.yul\":14036:14039   */\n      dup3\n        /* \"#utility.yul\":13947:14040   */\n      tag_217\n      jump\t// in\n    tag_396:\n        /* \"#utility.yul\":14065:14066   */\n      0x00\n        /* \"#utility.yul\":14060:14063   */\n      dup3\n        /* \"#utility.yul\":14056:14067   */\n      add\n        /* \"#utility.yul\":14049:14067   */\n      swap1\n      pop\n        /* \"#utility.yul\":13675:14073   */\n      swap2\n      swap1\n      pop\n      jump\t// out\n        /* \"#utility.yul\":14079:14458   */\n    tag_122:\n        /* \"#utility.yul\":14263:14266   */\n      0x00\n        /* \"#utility.yul\":14285:14432   */\n      tag_398\n        /* \"#utility.yul\":14428:14431   */\n      dup3\n        /* \"#utility.yul\":14285:14432   */\n      tag_218\n      jump\t// in\n    tag_398:\n        /* \"#utility.yul\":14278:14432   */\n      swap2\n      pop\n        /* \"#utility.yul\":14449:14452   */\n      dup2\n        /* \"#utility.yul\":14442:14452   */\n      swap1\n      pop\n        /* \"#utility.yul\":14079:14458   */\n      swap2\n      swap1\n      pop\n      jump\t// out\n        /* \"#utility.yul\":14464:14633   */\n    tag_219:\n        /* \"#utility.yul\":14548:14559   */\n      0x00\n        /* \"#utility.yul\":14582:14588   */\n      dup3\n        /* \"#utility.yul\":14577:14580   */\n      dup3\n        /* \"#utility.yul\":14570:14589   */\n      mstore\n        /* \"#utility.yul\":14622:14626   */\n      0x20\n        /* \"#utility.yul\":14617:14620   */\n      dup3\n        /* \"#utility.yul\":14613:14627   */\n      add\n        /* \"#utility.yul\":14598:14627   */\n      swap1\n      pop\n        /* \"#utility.yul\":14464:14633   */\n      swap3\n      swap2\n      pop\n      pop\n      jump\t// out\n        /* \"#utility.yul\":14639:14808   */\n    tag_220:\n        /* \"#utility.yul\":14779:14800   */\n      0x4d4e54207472616e73666572206661696c656400000000000000000000000000\n        /* \"#utility.yul\":14775:14776   */\n      0x00\n        /* \"#utility.yul\":14767:14773   */\n      dup3\n        /* \"#utility.yul\":14763:14777   */\n      add\n        /* \"#utility.yul\":14756:14801   */\n      mstore\n        /* \"#utility.yul\":14639:14808   */\n      pop\n      jump\t// out\n        /* \"#utility.yul\":14814:15180   */\n    tag_221:\n        /* \"#utility.yul\":14956:14959   */\n      0x00\n        /* \"#utility.yul\":14977:15044   */\n      tag_402\n        /* \"#utility.yul\":15041:15043   */\n      0x13\n        /* \"#utility.yul\":15036:15039   */\n      dup4\n        /* \"#utility.yul\":14977:15044   */\n      tag_219\n      jump\t// in\n    tag_402:\n        /* \"#utility.yul\":14970:15044   */\n      swap2\n      pop\n        /* \"#utility.yul\":15053:15146   */\n      tag_403\n        /* \"#utility.yul\":15142:15145   */\n      dup3\n        /* \"#utility.yul\":15053:15146   */\n      tag_220\n      jump\t// in\n    tag_403:\n        /* \"#utility.yul\":15171:15173   */\n      0x20\n        /* \"#utility.yul\":15166:15169   */\n      dup3\n        /* \"#utility.yul\":15162:15174   */\n      add\n        /* \"#utility.yul\":15155:15174   */\n      swap1\n      pop\n        /* \"#utility.yul\":14814:15180   */\n      swap2\n      swap1\n      pop\n      jump\t// out\n        /* \"#utility.yul\":15186:15605   */\n    tag_128:\n        /* \"#utility.yul\":15352:15356   */\n      0x00\n        /* \"#utility.yul\":15390:15392   */\n      0x20\n        /* \"#utility.yul\":15379:15388   */\n      dup3\n        /* \"#utility.yul\":15375:15393   */\n      add\n        /* \"#utility.yul\":15367:15393   */\n      swap1\n      pop\n        /* \"#utility.yul\":15439:15448   */\n      dup2\n        /* \"#utility.yul\":15433:15437   */\n      dup2\n        /* \"#utility.yul\":15429:15449   */\n      sub\n        /* \"#utility.yul\":15425:15426   */\n      0x00\n        /* \"#utility.yul\":15414:15423   */\n      dup4\n        /* \"#utility.yul\":15410:15427   */\n      add\n        /* \"#utility.yul\":15403:15450   */\n      mstore\n        /* \"#utility.yul\":15467:15598   */\n      tag_405\n        /* \"#utility.yul\":15593:15597   */\n      dup2\n        /* \"#utility.yul\":15467:15598   */\n      tag_221\n      jump\t// in\n    tag_405:\n        /* \"#utility.yul\":15459:15598   */\n      swap1\n      pop\n        /* \"#utility.yul\":15186:15605   */\n      swap2\n      swap1\n      pop\n      jump\t// out\n        /* \"#utility.yul\":15611:15791   */\n    tag_222:\n        /* \"#utility.yul\":15659:15736   */\n      0x4e487b7100000000000000000000000000000000000000000000000000000000\n        /* \"#utility.yul\":15656:15657   */\n      0x00\n        /* \"#utility.yul\":15649:15737   */\n      mstore\n        /* \"#utility.yul\":15756:15760   */\n      0x11\n        /* \"#utility.yul\":15753:15754   */\n      0x04\n        /* \"#utility.yul\":15746:15761   */\n      mstore\n        /* \"#utility.yul\":15780:15784   */\n      0x24\n        /* \"#utility.yul\":15777:15778   */\n      0x00\n        /* \"#utility.yul\":15770:15785   */\n      revert\n        /* \"#utility.yul\":15797:15972   */\n    tag_134:\n        /* \"#utility.yul\":15835:15838   */\n      0x00\n        /* \"#utility.yul\":15858:15881   */\n      tag_408\n        /* \"#utility.yul\":15875:15880   */\n      dup3\n        /* \"#utility.yul\":15858:15881   */\n      tag_169\n      jump\t// in\n    tag_408:\n        /* \"#utility.yul\":15849:15881   */\n      swap2\n      pop\n        /* \"#utility.yul\":15903:15913   */\n      0xffffffff\n        /* \"#utility.yul\":15896:15901   */\n      dup3\n        /* \"#utility.yul\":15893:15914   */\n      sub\n        /* \"#utility.yul\":15890:15937   */\n      tag_409\n      jumpi\n        /* \"#utility.yul\":15917:15935   */\n      tag_410\n      tag_222\n      jump\t// in\n    tag_410:\n        /* \"#utility.yul\":15890:15937   */\n    tag_409:\n        /* \"#utility.yul\":15964:15965   */\n      0x01\n        /* \"#utility.yul\":15957:15962   */\n      dup3\n        /* \"#utility.yul\":15953:15966   */\n      add\n        /* \"#utility.yul\":15946:15966   */\n      swap1\n      pop\n        /* \"#utility.yul\":15797:15972   */\n      swap2\n      swap1\n      pop\n      jump\t// out\n        /* \"#utility.yul\":15978:16082   */\n    tag_223:\n        /* \"#utility.yul\":16043:16049   */\n      0x00\n        /* \"#utility.yul\":16071:16075   */\n      0x02\n        /* \"#utility.yul\":16061:16075   */\n      swap1\n      pop\n        /* \"#utility.yul\":15978:16082   */\n      swap2\n      swap1\n      pop\n      jump\t// out\n        /* \"#utility.yul\":16088:16231   */\n    tag_224:\n        /* \"#utility.yul\":16185:16196   */\n      0x00\n        /* \"#utility.yul\":16222:16225   */\n      dup2\n        /* \"#utility.yul\":16207:16225   */\n      swap1\n      pop\n        /* \"#utility.yul\":16088:16231   */\n      swap3\n      swap2\n      pop\n      pop\n      jump\t// out\n        /* \"#utility.yul\":16237:16335   */\n    tag_225:\n        /* \"#utility.yul\":16302:16306   */\n      0x00\n        /* \"#utility.yul\":16325:16328   */\n      dup2\n        /* \"#utility.yul\":16317:16328   */\n      swap1\n      pop\n        /* \"#utility.yul\":16237:16335   */\n      swap2\n      swap1\n      pop\n      jump\t// out\n        /* \"#utility.yul\":16341:16449   */\n    tag_226:\n        /* \"#utility.yul\":16418:16442   */\n      tag_415\n        /* \"#utility.yul\":16436:16441   */\n      dup2\n        /* \"#utility.yul\":16418:16442   */\n      tag_190\n      jump\t// in\n    tag_415:\n        /* \"#utility.yul\":16413:16416   */\n      dup3\n        /* \"#utility.yul\":16406:16443   */\n      mstore\n        /* \"#utility.yul\":16341:16449   */\n      pop\n      pop\n      jump\t// out\n        /* \"#utility.yul\":16455:16634   */\n    tag_227:\n        /* \"#utility.yul\":16524:16534   */\n      0x00\n        /* \"#utility.yul\":16545:16591   */\n      tag_417\n        /* \"#utility.yul\":16587:16590   */\n      dup4\n        /* \"#utility.yul\":16579:16585   */\n      dup4\n        /* \"#utility.yul\":16545:16591   */\n      tag_226\n      jump\t// in\n    tag_417:\n        /* \"#utility.yul\":16623:16627   */\n      0x20\n        /* \"#utility.yul\":16618:16621   */\n      dup4\n        /* \"#utility.yul\":16614:16628   */\n      add\n        /* \"#utility.yul\":16600:16628   */\n      swap1\n      pop\n        /* \"#utility.yul\":16455:16634   */\n      swap3\n      swap2\n      pop\n      pop\n      jump\t// out\n        /* \"#utility.yul\":16640:16751   */\n    tag_228:\n        /* \"#utility.yul\":16708:16712   */\n      0x00\n        /* \"#utility.yul\":16740:16744   */\n      0x20\n        /* \"#utility.yul\":16735:16738   */\n      dup3\n        /* \"#utility.yul\":16731:16745   */\n      add\n        /* \"#utility.yul\":16723:16745   */\n      swap1\n      pop\n        /* \"#utility.yul\":16640:16751   */\n      swap2\n      swap1\n      pop\n      jump\t// out\n        /* \"#utility.yul\":16789:17483   */\n    tag_229:\n        /* \"#utility.yul\":16925:16977   */\n      tag_420\n        /* \"#utility.yul\":16971:16976   */\n      dup2\n        /* \"#utility.yul\":16925:16977   */\n      tag_223\n      jump\t// in\n    tag_420:\n        /* \"#utility.yul\":16993:17077   */\n      tag_421\n        /* \"#utility.yul\":17070:17076   */\n      dup2\n        /* \"#utility.yul\":17065:17068   */\n      dup5\n        /* \"#utility.yul\":16993:17077   */\n      tag_224\n      jump\t// in\n    tag_421:\n        /* \"#utility.yul\":16986:17077   */\n      swap3\n      pop\n        /* \"#utility.yul\":17101:17155   */\n      tag_422\n        /* \"#utility.yul\":17149:17154   */\n      dup3\n        /* \"#utility.yul\":17101:17155   */\n      tag_225\n      jump\t// in\n    tag_422:\n        /* \"#utility.yul\":17178:17185   */\n      dup1\n        /* \"#utility.yul\":17209:17210   */\n      0x00\n        /* \"#utility.yul\":17194:17476   */\n    tag_423:\n        /* \"#utility.yul\":17219:17225   */\n      dup4\n        /* \"#utility.yul\":17216:17217   */\n      dup2\n        /* \"#utility.yul\":17213:17226   */\n      lt\n        /* \"#utility.yul\":17194:17476   */\n      iszero\n      tag_425\n      jumpi\n        /* \"#utility.yul\":17295:17301   */\n      dup2\n        /* \"#utility.yul\":17289:17302   */\n      mload\n        /* \"#utility.yul\":17322:17385   */\n      tag_426\n        /* \"#utility.yul\":17381:17384   */\n      dup8\n        /* \"#utility.yul\":17366:17379   */\n      dup3\n        /* \"#utility.yul\":17322:17385   */\n      tag_227\n      jump\t// in\n    tag_426:\n        /* \"#utility.yul\":17315:17385   */\n      swap7\n      pop\n        /* \"#utility.yul\":17408:17466   */\n      tag_427\n        /* \"#utility.yul\":17459:17465   */\n      dup4\n        /* \"#utility.yul\":17408:17466   */\n      tag_228\n      jump\t// in\n    tag_427:\n        /* \"#utility.yul\":17398:17466   */\n      swap3\n      pop\n        /* \"#utility.yul\":17254:17476   */\n      pop\n        /* \"#utility.yul\":17241:17242   */\n      0x01\n        /* \"#utility.yul\":17238:17239   */\n      dup2\n        /* \"#utility.yul\":17234:17243   */\n      add\n        /* \"#utility.yul\":17229:17243   */\n      swap1\n      pop\n        /* \"#utility.yul\":17194:17476   */\n      jump(tag_423)\n    tag_425:\n        /* \"#utility.yul\":17198:17212   */\n      pop\n        /* \"#utility.yul\":16901:17483   */\n      pop\n      pop\n      pop\n        /* \"#utility.yul\":16789:17483   */\n      pop\n      pop\n      jump\t// out\n        /* \"#utility.yul\":17489:17803   */\n    tag_146:\n        /* \"#utility.yul\":17628:17632   */\n      0x00\n        /* \"#utility.yul\":17666:17668   */\n      0x40\n        /* \"#utility.yul\":17655:17664   */\n      dup3\n        /* \"#utility.yul\":17651:17669   */\n      add\n        /* \"#utility.yul\":17643:17669   */\n      swap1\n      pop\n        /* \"#utility.yul\":17679:17796   */\n      tag_429\n        /* \"#utility.yul\":17793:17794   */\n      0x00\n        /* \"#utility.yul\":17782:17791   */\n      dup4\n        /* \"#utility.yul\":17778:17795   */\n      add\n        /* \"#utility.yul\":17769:17775   */\n      dup5\n        /* \"#utility.yul\":17679:17796   */\n      tag_229\n      jump\t// in\n    tag_429:\n        /* \"#utility.yul\":17489:17803   */\n      swap3\n      swap2\n      pop\n      pop\n      jump\t// out\n        /* \"#utility.yul\":17809:17952   */\n    tag_230:\n        /* \"#utility.yul\":17866:17871   */\n      0x00\n        /* \"#utility.yul\":17897:17903   */\n      dup2\n        /* \"#utility.yul\":17891:17904   */\n      mload\n        /* \"#utility.yul\":17882:17904   */\n      swap1\n      pop\n        /* \"#utility.yul\":17913:17946   */\n      tag_431\n        /* \"#utility.yul\":17940:17945   */\n      dup2\n        /* \"#utility.yul\":17913:17946   */\n      tag_201\n      jump\t// in\n    tag_431:\n        /* \"#utility.yul\":17809:17952   */\n      swap3\n      swap2\n      pop\n      pop\n      jump\t// out\n        /* \"#utility.yul\":17958:18309   */\n    tag_150:\n        /* \"#utility.yul\":18028:18034   */\n      0x00\n        /* \"#utility.yul\":18077:18079   */\n      0x20\n        /* \"#utility.yul\":18065:18074   */\n      dup3\n        /* \"#utility.yul\":18056:18063   */\n      dup5\n        /* \"#utility.yul\":18052:18075   */\n      sub\n        /* \"#utility.yul\":18048:18080   */\n      slt\n        /* \"#utility.yul\":18045:18164   */\n      iszero\n      tag_433\n      jumpi\n        /* \"#utility.yul\":18083:18162   */\n      tag_434\n      tag_172\n      jump\t// in\n    tag_434:\n        /* \"#utility.yul\":18045:18164   */\n    tag_433:\n        /* \"#utility.yul\":18203:18204   */\n      0x00\n        /* \"#utility.yul\":18228:18292   */\n      tag_435\n        /* \"#utility.yul\":18284:18291   */\n      dup5\n        /* \"#utility.yul\":18275:18281   */\n      dup3\n        /* \"#utility.yul\":18264:18273   */\n      dup6\n        /* \"#utility.yul\":18260:18282   */\n      add\n        /* \"#utility.yul\":18228:18292   */\n      tag_230\n      jump\t// in\n    tag_435:\n        /* \"#utility.yul\":18218:18292   */\n      swap2\n      pop\n        /* \"#utility.yul\":18174:18302   */\n      pop\n        /* \"#utility.yul\":17958:18309   */\n      swap3\n      swap2\n      pop\n      pop\n      jump\t// out\n        /* \"#utility.yul\":18315:18455   */\n    tag_231:\n        /* \"#utility.yul\":18363:18367   */\n      0x00\n        /* \"#utility.yul\":18386:18389   */\n      dup2\n        /* \"#utility.yul\":18378:18389   */\n      swap1\n      pop\n        /* \"#utility.yul\":18409:18412   */\n      dup2\n        /* \"#utility.yul\":18406:18407   */\n      0x00\n        /* \"#utility.yul\":18399:18413   */\n      mstore\n        /* \"#utility.yul\":18443:18447   */\n      0x20\n        /* \"#utility.yul\":18440:18441   */\n      0x00\n        /* \"#utility.yul\":18430:18448   */\n      keccak256\n        /* \"#utility.yul\":18422:18448   */\n      swap1\n      pop\n        /* \"#utility.yul\":18315:18455   */\n      swap2\n      swap1\n      pop\n      jump\t// out\n        /* \"#utility.yul\":18461:18554   */\n    tag_232:\n        /* \"#utility.yul\":18498:18504   */\n      0x00\n        /* \"#utility.yul\":18545:18547   */\n      0x20\n        /* \"#utility.yul\":18540:18542   */\n      0x1f\n        /* \"#utility.yul\":18533:18538   */\n      dup4\n        /* \"#utility.yul\":18529:18543   */\n      add\n        /* \"#utility.yul\":18525:18548   */\n      div\n        /* \"#utility.yul\":18515:18548   */\n      swap1\n      pop\n        /* \"#utility.yul\":18461:18554   */\n      swap2\n      swap1\n      pop\n      jump\t// out\n        /* \"#utility.yul\":18560:18667   */\n    tag_233:\n        /* \"#utility.yul\":18604:18612   */\n      0x00\n        /* \"#utility.yul\":18654:18659   */\n      dup3\n        /* \"#utility.yul\":18648:18652   */\n      dup3\n        /* \"#utility.yul\":18644:18660   */\n      shl\n        /* \"#utility.yul\":18623:18660   */\n      swap1\n      pop\n        /* \"#utility.yul\":18560:18667   */\n      swap3\n      swap2\n      pop\n      pop\n      jump\t// out\n        /* \"#utility.yul\":18673:19066   */\n    tag_234:\n        /* \"#utility.yul\":18742:18748   */\n      0x00\n        /* \"#utility.yul\":18792:18793   */\n      0x08\n        /* \"#utility.yul\":18780:18790   */\n      dup4\n        /* \"#utility.yul\":18776:18794   */\n      mul\n        /* \"#utility.yul\":18815:18912   */\n      tag_440\n        /* \"#utility.yul\":18845:18911   */\n      0xffffffffffffffffffffffffffffffffffffffffffffffffffffffffffffffff\n        /* \"#utility.yul\":18834:18843   */\n      dup3\n        /* \"#utility.yul\":18815:18912   */\n      tag_233\n      jump\t// in\n    tag_440:\n        /* \"#utility.yul\":18933:18972   */\n      tag_441\n        /* \"#utility.yul\":18963:18971   */\n      dup7\n        /* \"#utility.yul\":18952:18961   */\n      dup4\n        /* \"#utility.yul\":18933:18972   */\n      tag_233\n      jump\t// in\n    tag_441:\n        /* \"#utility.yul\":18921:18972   */\n      swap6\n      pop\n        /* \"#utility.yul\":19005:19009   */\n      dup1\n        /* \"#utility.yul\":19001:19010   */\n      not\n        /* \"#utility.yul\":18994:18999   */\n      dup5\n        /* \"#utility.yul\":18990:19011   */\n      and\n        /* \"#utility.yul\":18981:19011   */\n      swap4\n      pop\n        /* \"#utility.yul\":19054:19058   */\n      dup1\n        /* \"#utility.yul\":19044:19052   */\n      dup7\n        /* \"#utility.yul\":19040:19059   */\n      and\n        /* \"#utility.yul\":19033:19038   */\n      dup5\n        /* \"#utility.yul\":19030:19060   */\n      or\n        /* \"#utility.yul\":19020:19060   */\n      swap3\n      pop\n        /* \"#utility.yul\":18749:19066   */\n      pop\n      pop\n        /* \"#utility.yul\":18673:19066   */\n      swap4\n      swap3\n      pop\n      pop\n      pop\n      jump\t// out\n        /* \"#utility.yul\":19072:19214   */\n    tag_235:\n        /* \"#utility.yul\":19122:19131   */\n      0x00\n        /* \"#utility.yul\":19155:19208   */\n      tag_443\n        /* \"#utility.yul\":19173:19207   */\n      tag_444\n        /* \"#utility.yul\":19182:19206   */\n      tag_445\n        /* \"#utility.yul\":19200:19205   */\n      dup5\n        /* \"#utility.yul\":19182:19206   */\n      tag_190\n      jump\t// in\n    tag_445:\n        /* \"#utility.yul\":19173:19207   */\n      tag_180\n      jump\t// in\n    tag_444:\n        /* \"#utility.yul\":19155:19208   */\n      tag_190\n      jump\t// in\n    tag_443:\n        /* \"#utility.yul\":19142:19208   */\n      swap1\n      pop\n        /* \"#utility.yul\":19072:19214   */\n      swap2\n      swap1\n      pop\n      jump\t// out\n        /* \"#utility.yul\":19220:19295   */\n    tag_236:\n        /* \"#utility.yul\":19263:19266   */\n      0x00\n        /* \"#utility.yul\":19284:19289   */\n      dup2\n        /* \"#utility.yul\":19277:19289   */\n      swap1\n      pop\n        /* \"#utility.yul\":19220:19295   */\n      swap2\n      swap1\n      pop\n      jump\t// out\n        /* \"#utility.yul\":19301:19570   */\n    tag_237:\n        /* \"#utility.yul\":19411:19450   */\n      tag_448\n        /* \"#utility.yul\":19442:19449   */\n      dup4\n        /* \"#utility.yul\":19411:19450   */\n      tag_235\n      jump\t// in\n    tag_448:\n        /* \"#utility.yul\":19472:19563   */\n      tag_449\n        /* \"#utility.yul\":19521:19562   */\n      tag_450\n        /* \"#utility.yul\":19545:19561   */\n      dup3\n        /* \"#utility.yul\":19521:19562   */\n      tag_236\n      jump\t// in\n    tag_450:\n        /* \"#utility.yul\":19513:19519   */\n      dup5\n        /* \"#utility.yul\":19506:19510   */\n      dup5\n        /* \"#utility.yul\":19500:19511   */\n      sload\n        /* \"#utility.yul\":19472:19563   */\n      tag_234\n      jump\t// in\n    tag_449:\n        /* \"#utility.yul\":19466:19470   */\n      dup3\n        /* \"#utility.yul\":19459:19564   */\n      sstore\n        /* \"#utility.yul\":19377:19570   */\n      pop\n        /* \"#utility.yul\":19301:19570   */\n      pop\n      pop\n      pop\n      jump\t// out\n        /* \"#utility.yul\":19576:19649   */\n    tag_238:\n        /* \"#utility.yul\":19621:19624   */\n      0x00\n        /* \"#utility.yul\":19642:19643   */\n      0x00\n        /* \"#utility.yul\":19635:19643   */\n      swap1\n      pop\n        /* \"#utility.yul\":19576:19649   */\n      swap1\n      jump\t// out\n        /* \"#utility.yul\":19655:19844   */\n    tag_239:\n        /* \"#utility.yul\":19732:19764   */\n      tag_453\n      tag_238\n      jump\t// in\n    tag_453:\n        /* \"#utility.yul\":19773:19838   */\n      tag_454\n        /* \"#utility.yul\":19831:19837   */\n      dup2\n        /* \"#utility.yul\":19823:19829   */\n      dup5\n        /* \"#utility.yul\":19817:19821   */\n      dup5\n        /* \"#utility.yul\":19773:19838   */\n      tag_237\n      jump\t// in\n    tag_454:\n        /* \"#utility.yul\":19708:19844   */\n      pop\n        /* \"#utility.yul\":19655:19844   */\n      pop\n      pop\n      jump\t// out\n        /* \"#utility.yul\":19850:20036   */\n    tag_240:\n        /* \"#utility.yul\":19910:20030   */\n    tag_456:\n        /* \"#utility.yul\":19927:19930   */\n      dup2\n        /* \"#utility.yul\":19920:19925   */\n      dup2\n        /* \"#utility.yul\":19917:19931   */\n      lt\n        /* \"#utility.yul\":19910:20030   */\n      iszero\n      tag_458\n      jumpi\n        /* \"#utility.yul\":19981:20020   */\n      tag_459\n        /* \"#utility.yul\":20018:20019   */\n      0x00\n        /* \"#utility.yul\":20011:20016   */\n      dup3\n        /* \"#utility.yul\":19981:20020   */\n      tag_239\n      jump\t// in\n    tag_459:\n        /* \"#utility.yul\":19954:19955   */\n      0x01\n        /* \"#utility.yul\":19947:19952   */\n      dup2\n        /* \"#utility.yul\":19943:19956   */\n      add\n        /* \"#utility.yul\":19934:19956   */\n      swap1\n      pop\n        /* \"#utility.yul\":19910:20030   */\n      jump(tag_456)\n    tag_458:\n        /* \"#utility.yul\":19850:20036   */\n      pop\n      pop\n      jump\t// out\n        /* \"#utility.yul\":20042:20583   */\n    tag_241:\n        /* \"#utility.yul\":20142:20144   */\n      0x1f\n        /* \"#utility.yul\":20137:20140   */\n      dup3\n        /* \"#utility.yul\":20134:20145   */\n      gt\n        /* \"#utility.yul\":20131:20576   */\n      iszero\n      tag_461\n      jumpi\n        /* \"#utility.yul\":20176:20213   */\n      tag_462\n        /* \"#utility.yul\":20207:20212   */\n      dup2\n        /* \"#utility.yul\":20176:20213   */\n      tag_231\n      jump\t// in\n    tag_462:\n        /* \"#utility.yul\":20259:20288   */\n      tag_463\n        /* \"#utility.yul\":20277:20287   */\n      dup5\n        /* \"#utility.yul\":20259:20288   */\n      tag_232\n      jump\t// in\n    tag_463:\n        /* \"#utility.yul\":20249:20257   */\n      dup2\n        /* \"#utility.yul\":20245:20289   */\n      add\n        /* \"#utility.yul\":20442:20444   */\n      0x20\n        /* \"#utility.yul\":20430:20440   */\n      dup6\n        /* \"#utility.yul\":20427:20445   */\n      lt\n        /* \"#utility.yul\":20424:20473   */\n      iszero\n      tag_464\n      jumpi\n        /* \"#utility.yul\":20463:20471   */\n      dup2\n        /* \"#utility.yul\":20448:20471   */\n      swap1\n      pop\n        /* \"#utility.yul\":20424:20473   */\n    tag_464:\n        /* \"#utility.yul\":20486:20566   */\n      tag_465\n        /* \"#utility.yul\":20542:20564   */\n      tag_466\n        /* \"#utility.yul\":20560:20563   */\n      dup6\n        /* \"#utility.yul\":20542:20564   */\n      tag_232\n      jump\t// in\n    tag_466:\n        /* \"#utility.yul\":20532:20540   */\n      dup4\n        /* \"#utility.yul\":20528:20565   */\n      add\n        /* \"#utility.yul\":20515:20526   */\n      dup3\n        /* \"#utility.yul\":20486:20566   */\n      tag_240\n      jump\t// in\n    tag_465:\n        /* \"#utility.yul\":20146:20576   */\n      pop\n      pop\n        /* \"#utility.yul\":20131:20576   */\n    tag_461:\n        /* \"#utility.yul\":20042:20583   */\n      pop\n      pop\n      pop\n      jump\t// out\n        /* \"#utility.yul\":20589:20706   */\n    tag_242:\n        /* \"#utility.yul\":20643:20651   */\n      0x00\n        /* \"#utility.yul\":20693:20698   */\n      dup3\n        /* \"#utility.yul\":20687:20691   */\n      dup3\n        /* \"#utility.yul\":20683:20699   */\n      shr\n        /* \"#utility.yul\":20662:20699   */\n      swap1\n      pop\n        /* \"#utility.yul\":20589:20706   */\n      swap3\n      swap2\n      pop\n      pop\n      jump\t// out\n        /* \"#utility.yul\":20712:20881   */\n    tag_243:\n        /* \"#utility.yul\":20756:20762   */\n      0x00\n        /* \"#utility.yul\":20789:20840   */\n      tag_469\n        /* \"#utility.yul\":20837:20838   */\n      0x00\n        /* \"#utility.yul\":20833:20839   */\n      not\n        /* \"#utility.yul\":20825:20830   */\n      dup5\n        /* \"#utility.yul\":20822:20823   */\n      0x08\n        /* \"#utility.yul\":20818:20831   */\n      mul\n        /* \"#utility.yul\":20789:20840   */\n      tag_242\n      jump\t// in\n    tag_469:\n        /* \"#utility.yul\":20785:20841   */\n      not\n        /* \"#utility.yul\":20870:20874   */\n      dup1\n        /* \"#utility.yul\":20864:20868   */\n      dup4\n        /* \"#utility.yul\":20860:20875   */\n      and\n        /* \"#utility.yul\":20850:20875   */\n      swap2\n      pop\n        /* \"#utility.yul\":20763:20881   */\n      pop\n        /* \"#utility.yul\":20712:20881   */\n      swap3\n      swap2\n      pop\n      pop\n      jump\t// out\n        /* \"#utility.yul\":20886:21181   */\n    tag_244:\n        /* \"#utility.yul\":20962:20966   */\n      0x00\n        /* \"#utility.yul\":21108:21137   */\n      tag_471\n        /* \"#utility.yul\":21133:21136   */\n      dup4\n        /* \"#utility.yul\":21127:21131   */\n      dup4\n        /* \"#utility.yul\":21108:21137   */\n      tag_243\n      jump\t// in\n    tag_471:\n        /* \"#utility.yul\":21100:21137   */\n      swap2\n      pop\n        /* \"#utility.yul\":21170:21173   */\n      dup3\n        /* \"#utility.yul\":21167:21168   */\n      0x02\n        /* \"#utility.yul\":21163:21174   */\n      mul\n        /* \"#utility.yul\":21157:21161   */\n      dup3\n        /* \"#utility.yul\":21154:21175   */\n      or\n        /* \"#utility.yul\":21146:21175   */\n      swap1\n      pop\n        /* \"#utility.yul\":20886:21181   */\n      swap3\n      swap2\n      pop\n      pop\n      jump\t// out\n        /* \"#utility.yul\":21186:22576   */\n    tag_160:\n        /* \"#utility.yul\":21301:21337   */\n      tag_473\n        /* \"#utility.yul\":21333:21336   */\n      dup3\n        /* \"#utility.yul\":21301:21337   */\n      tag_185\n      jump\t// in\n    tag_473:\n        /* \"#utility.yul\":21402:21420   */\n      0xffffffffffffffff\n        /* \"#utility.yul\":21394:21400   */\n      dup2\n        /* \"#utility.yul\":21391:21421   */\n      gt\n        /* \"#utility.yul\":21388:21444   */\n      iszero\n      tag_474\n      jumpi\n        /* \"#utility.yul\":21424:21442   */\n      tag_475\n      tag_107\n      jump\t// in\n    tag_475:\n        /* \"#utility.yul\":21388:21444   */\n    tag_474:\n        /* \"#utility.yul\":21468:21506   */\n      tag_476\n        /* \"#utility.yul\":21500:21504   */\n      dup3\n        /* \"#utility.yul\":21494:21505   */\n      sload\n        /* \"#utility.yul\":21468:21506   */\n      tag_97\n      jump\t// in\n    tag_476:\n        /* \"#utility.yul\":21553:21619   */\n      tag_477\n        /* \"#utility.yul\":21612:21618   */\n      dup3\n        /* \"#utility.yul\":21604:21610   */\n      dup3\n        /* \"#utility.yul\":21598:21602   */\n      dup6\n        /* \"#utility.yul\":21553:21619   */\n      tag_241\n      jump\t// in\n    tag_477:\n        /* \"#utility.yul\":21646:21647   */\n      0x00\n        /* \"#utility.yul\":21670:21674   */\n      0x20\n        /* \"#utility.yul\":21657:21674   */\n      swap1\n      pop\n        /* \"#utility.yul\":21702:21704   */\n      0x1f\n        /* \"#utility.yul\":21694:21700   */\n      dup4\n        /* \"#utility.yul\":21691:21705   */\n      gt\n        /* \"#utility.yul\":21719:21720   */\n      0x01\n        /* \"#utility.yul\":21714:22331   */\n      dup2\n      eq\n      tag_479\n      jumpi\n        /* \"#utility.yul\":22375:22376   */\n      0x00\n        /* \"#utility.yul\":22392:22398   */\n      dup5\n        /* \"#utility.yul\":22389:22466   */\n      iszero\n      tag_480\n      jumpi\n        /* \"#utility.yul\":22441:22450   */\n      dup3\n        /* \"#utility.yul\":22436:22439   */\n      dup8\n        /* \"#utility.yul\":22432:22451   */\n      add\n        /* \"#utility.yul\":22426:22452   */\n      mload\n        /* \"#utility.yul\":22417:22452   */\n      swap1\n      pop\n        /* \"#utility.yul\":22389:22466   */\n    tag_480:\n        /* \"#utility.yul\":22492:22559   */\n      tag_481\n        /* \"#utility.yul\":22552:22558   */\n      dup6\n        /* \"#utility.yul\":22545:22550   */\n      dup3\n        /* \"#utility.yul\":22492:22559   */\n      tag_244\n      jump\t// in\n    tag_481:\n        /* \"#utility.yul\":22486:22490   */\n      dup7\n        /* \"#utility.yul\":22479:22560   */\n      sstore\n        /* \"#utility.yul\":22348:22570   */\n      pop\n        /* \"#utility.yul\":21684:22570   */\n      jump(tag_478)\n        /* \"#utility.yul\":21714:22331   */\n    tag_479:\n        /* \"#utility.yul\":21766:21770   */\n      0x1f\n        /* \"#utility.yul\":21762:21771   */\n      not\n        /* \"#utility.yul\":21754:21760   */\n      dup5\n        /* \"#utility.yul\":21750:21772   */\n      and\n        /* \"#utility.yul\":21800:21836   */\n      tag_482\n        /* \"#utility.yul\":21831:21835   */\n      dup7\n        /* \"#utility.yul\":21800:21836   */\n      tag_231\n      jump\t// in\n    tag_482:\n        /* \"#utility.yul\":21858:21859   */\n      0x00\n        /* \"#utility.yul\":21872:22080   */\n    tag_483:\n        /* \"#utility.yul\":21886:21893   */\n      dup3\n        /* \"#utility.yul\":21883:21884   */\n      dup2\n        /* \"#utility.yul\":21880:21894   */\n      lt\n        /* \"#utility.yul\":21872:22080   */\n      iszero\n      tag_485\n      jumpi\n        /* \"#utility.yul\":21965:21974   */\n      dup5\n        /* \"#utility.yul\":21960:21963   */\n      dup10\n        /* \"#utility.yul\":21956:21975   */\n      add\n        /* \"#utility.yul\":21950:21976   */\n      mload\n        /* \"#utility.yul\":21942:21948   */\n      dup3\n        /* \"#utility.yul\":21935:21977   */\n      sstore\n        /* \"#utility.yul\":22016:22017   */\n      0x01\n        /* \"#utility.yul\":22008:22014   */\n      dup3\n        /* \"#utility.yul\":22004:22018   */\n      add\n        /* \"#utility.yul\":21994:22018   */\n      swap2\n      pop\n        /* \"#utility.yul\":22063:22065   */\n      0x20\n        /* \"#utility.yul\":22052:22061   */\n      dup6\n        /* \"#utility.yul\":22048:22066   */\n      add\n        /* \"#utility.yul\":22035:22066   */\n      swap5\n      pop\n        /* \"#utility.yul\":21909:21913   */\n      0x20\n        /* \"#utility.yul\":21906:21907   */\n      dup2\n        /* \"#utility.yul\":21902:21914   */\n      add\n        /* \"#utility.yul\":21897:21914   */\n      swap1\n      pop\n        /* \"#utility.yul\":21872:22080   */\n      jump(tag_483)\n    tag_485:\n        /* \"#utility.yul\":22108:22114   */\n      dup7\n        /* \"#utility.yul\":22099:22106   */\n      dup4\n        /* \"#utility.yul\":22096:22115   */\n      lt\n        /* \"#utility.yul\":22093:22272   */\n      iszero\n      tag_486\n      jumpi\n        /* \"#utility.yul\":22166:22175   */\n      dup5\n        /* \"#utility.yul\":22161:22164   */\n      dup10\n        /* \"#utility.yul\":22157:22176   */\n      add\n        /* \"#utility.yul\":22151:22177   */\n      mload\n        /* \"#utility.yul\":22209:22257   */\n      tag_487\n        /* \"#utility.yul\":22251:22255   */\n      0x1f\n        /* \"#utility.yul\":22243:22249   */\n      dup10\n        /* \"#utility.yul\":22239:22256   */\n      and\n        /* \"#utility.yul\":22228:22237   */\n      dup3\n        /* \"#utility.yul\":22209:22257   */\n      tag_243\n      jump\t// in\n    tag_487:\n        /* \"#utility.yul\":22201:22207   */\n      dup4\n        /* \"#utility.yul\":22194:22258   */\n      sstore\n        /* \"#utility.yul\":22116:22272   */\n      pop\n        /* \"#utility.yul\":22093:22272   */\n    tag_486:\n        /* \"#utility.yul\":22318:22319   */\n      0x01\n        /* \"#utility.yul\":22314:22315   */\n      0x02\n        /* \"#utility.yul\":22306:22312   */\n      dup9\n        /* \"#utility.yul\":22302:22316   */\n      mul\n        /* \"#utility.yul\":22298:22320   */\n      add\n        /* \"#utility.yul\":22292:22296   */\n      dup9\n        /* \"#utility.yul\":22285:22321   */\n      sstore\n        /* \"#utility.yul\":21721:22331   */\n      pop\n      pop\n      pop\n        /* \"#utility.yul\":21684:22570   */\n    tag_478:\n      pop\n        /* \"#utility.yul\":21276:22576   */\n      pop\n      pop\n      pop\n        /* \"#utility.yul\":21186:22576   */\n      pop\n      pop\n      jump\t// out\n        /* \"#utility.yul\":22582:22782   */\n    tag_162:\n        /* \"#utility.yul\":22621:22625   */\n      0x00\n        /* \"#utility.yul\":22641:22660   */\n      tag_489\n        /* \"#utility.yul\":22658:22659   */\n      dup3\n        /* \"#utility.yul\":22641:22660   */\n      tag_169\n      jump\t// in\n    tag_489:\n        /* \"#utility.yul\":22636:22660   */\n      swap2\n      pop\n        /* \"#utility.yul\":22674:22693   */\n      tag_490\n        /* \"#utility.yul\":22691:22692   */\n      dup4\n        /* \"#utility.yul\":22674:22693   */\n      tag_169\n      jump\t// in\n    tag_490:\n        /* \"#utility.yul\":22669:22693   */\n      swap3\n      pop\n        /* \"#utility.yul\":22717:22718   */\n      dup3\n        /* \"#utility.yul\":22714:22715   */\n      dup3\n        /* \"#utility.yul\":22710:22719   */\n      sub\n        /* \"#utility.yul\":22702:22719   */\n      swap1\n      pop\n        /* \"#utility.yul\":22741:22751   */\n      0xffffffff\n        /* \"#utility.yul\":22735:22739   */\n      dup2\n        /* \"#utility.yul\":22732:22752   */\n      gt\n        /* \"#utility.yul\":22729:22775   */\n      iszero\n      tag_491\n      jumpi\n        /* \"#utility.yul\":22755:22773   */\n      tag_492\n      tag_222\n      jump\t// in\n    tag_492:\n        /* \"#utility.yul\":22729:22775   */\n    tag_491:\n        /* \"#utility.yul\":22582:22782   */\n      swap3\n      swap2\n      pop\n      pop\n      jump\t// out\n\n    auxdata: 0xa2646970667358221220e58c5a377600d5159c98fa1d8c19ecf1a6602efa15a68353053dd8163be3ec8864736f6c634300081f0033\n}\n",
				"bytecode": {
					"linkReferences": {},
					"object": "60c060405234801561000f575f5ffd5b50604051611d8f380380611d8f83398181016040528101906100319190610340565b8173ffffffffffffffffffffffffffffffffffffffff1660808173ffffffffffffffffffffffffffffffffffffffff16815250508073ffffffffffffffffffffffffffffffffffffffff1660a08173ffffffffffffffffffffffffffffffffffffffff16815250505f60a05173ffffffffffffffffffffffffffffffffffffffff166329a5f2f660405180604001604052805f81526020015f8152506040518263ffffffff1660e01b81526004016100e9919061042c565b602060405180830381865afa158015610104573d5f5f3e3d5ffd5b505050506040513d601f19601f82011682018060405250810190610128919061046f565b9050805f1b5f5f601481106101405761013f61049a565b5b01819055505f600190505b601463ffffffff168163ffffffff16101561021e5760a05173ffffffffffffffffffffffffffffffffffffffff166329a5f2f66040518060400160405280858152602001858152506040518263ffffffff1660e01b81526004016101af919061042c565b602060405180830381865afa1580156101ca573d5f5f3e3d5ffd5b505050506040513d601f19601f820116820180604052508101906101ee919061046f565b9150815f1b5f8263ffffffff166014811061020c5761020b61049a565b5b0181905550808060010191505061014b565b505f5f90505b601463ffffffff168163ffffffff161015610280575f8163ffffffff16601481106102525761025161049a565b5b015460148263ffffffff166014811061026e5761026d61049a565b5b01819055508080600101915050610224565b505f600160146102909190610503565b63ffffffff16601481106102a7576102a661049a565b5b01546028819055506001602b5f60285481526020019081526020015f205f6101000a81548160ff02191690831515021790555050505061053a565b5f5ffd5b5f73ffffffffffffffffffffffffffffffffffffffff82169050919050565b5f61030f826102e6565b9050919050565b61031f81610305565b8114610329575f5ffd5b50565b5f8151905061033a81610316565b92915050565b5f5f60408385031215610356576103556102e2565b5b5f6103638582860161032c565b92505060206103748582860161032c565b9150509250929050565b5f60029050919050565b5f81905092915050565b5f819050919050565b5f819050919050565b6103ad8161039b565b82525050565b5f6103be83836103a4565b60208301905092915050565b5f602082019050919050565b6103df8161037e565b6103e98184610388565b92506103f482610392565b805f5b8381101561042457815161040b87826103b3565b9650610416836103ca565b9250506001810190506103f7565b505050505050565b5f60408201905061043f5f8301846103d6565b92915050565b61044e8161039b565b8114610458575f5ffd5b50565b5f8151905061046981610445565b92915050565b5f60208284031215610484576104836102e2565b5b5f6104918482850161045b565b91505092915050565b7f4e487b71000000000000000000000000000000000000000000000000000000005f52603260045260245ffd5b5f63ffffffff82169050919050565b7f4e487b71000000000000000000000000000000000000000000000000000000005f52601160045260245ffd5b5f61050d826104c7565b9150610518836104c7565b9250828203905063ffffffff811115610534576105336104d6565b5b92915050565b60805160a05161181f6105705f395f81816108110152818161097e0152610a4d01525f81816103eb015261060f015261181f5ff3fe6080604052600436106100e7575f3560e01c8063c62b919e11610089578063f165053611610058578063f165053614610303578063f178e47c1461032d578063fc7e9c6f14610369578063fdab463d14610393576100e7565b8063c62b919e14610245578063e29973fc1461026f578063e5285dcc1461028b578063e8295588146102c7576100e7565b80634e73da7d116100c55780634e73da7d1461017b57806385de26b7146101b75780638b01429d146101f3578063b130eaa61461021d576100e7565b8063082febf0146100eb57806317cc915c146101155780632b7ac3f314610151575b5f5ffd5b3480156100f6575f5ffd5b506100ff6103bd565b60405161010c9190610cd1565b60405180910390f35b348015610120575f5ffd5b5061013b60048036038101906101369190610d25565b6103cc565b6040516101489190610d6a565b60405180910390f35b34801561015c575f5ffd5b506101656103e9565b6040516101729190610dfd565b60405180910390f35b348015610186575f5ffd5b506101a1600480360381019061019c9190610d25565b61040d565b6040516101ae9190610d6a565b60405180910390f35b3480156101c2575f5ffd5b506101dd60048036038101906101d89190610d25565b61042a565b6040516101ea9190610e86565b60405180910390f35b3480156101fe575f5ffd5b506102076104ca565b6040516102149190610ebe565b60405180910390f35b348015610228575f5ffd5b50610243600480360381019061023e9190610f73565b6104d6565b005b348015610250575f5ffd5b5061025961080f565b6040516102669190611017565b60405180910390f35b61028960048036038101906102849190611030565b610833565b005b348015610296575f5ffd5b506102b160048036038101906102ac9190610d25565b610c3c565b6040516102be9190610d6a565b60405180910390f35b3480156102d2575f5ffd5b506102ed60048036038101906102e891906110b7565b610c62565b6040516102fa91906110f1565b60405180910390f35b34801561030e575f5ffd5b50610317610c7a565b6040516103249190610cd1565b60405180910390f35b348015610338575f5ffd5b50610353600480360381019061034e91906110b7565b610c7f565b60405161036091906110f1565b60405180910390f35b348015610374575f5ffd5b5061037d610c98565b60405161038a9190610cd1565b60405180910390f35b34801561039e575f5ffd5b506103a7610cad565b6040516103b491906110f1565b60405180910390f35b601463ffffffff166001901b81565b602a602052805f5260405f205f915054906101000a900460ff1681565b7f000000000000000000000000000000000000000000000000000000000000000081565b602b602052805f5260405f205f915054906101000a900460ff1681565b602c602052805f5260405f205f91509050805f01805461044990611137565b80601f016020809104026020016040519081016040528092919081815260200182805461047590611137565b80156104c05780601f10610497576101008083540402835291602001916104c0565b820191905f5260205f20905b8154815290600101906020018083116104a357829003601f168201915b5050505050905081565b67016345785d8a000081565b602a5f8381526020019081526020015f205f9054906101000a900460ff161561052b576040517fcad2ae0200000000000000000000000000000000000000000000000000000000815260040160405180910390fd5b602b5f8481526020019081526020015f205f9054906101000a900460ff1661057f576040517f8c52011600000000000000000000000000000000000000000000000000000000815260040160405180910390fd5b5f600267ffffffffffffffff81111561059b5761059a611167565b5b6040519080825280602002602001820160405280156105c95781602001602082028036833780820191505090505b50905083815f815181106105e0576105df611194565b5b602002602001018181525050828160018151811061060157610600611194565b5b6020026020010181815250507f000000000000000000000000000000000000000000000000000000000000000073ffffffffffffffffffffffffffffffffffffffff1663ea50d0e48787846040518463ffffffff1660e01b815260040161066a939291906112b2565b602060405180830381865afa158015610685573d5f5f3e3d5ffd5b505050506040513d601f19601f820116820180604052508101906106a99190611313565b6106df576040517f09bde33900000000000000000000000000000000000000000000000000000000815260040160405180910390fd5b6001602a5f8581526020019081526020015f205f6101000a81548160ff0219169083151502179055505f8273ffffffffffffffffffffffffffffffffffffffff1667016345785d8a00006040516107359061136b565b5f6040518083038185875af1925050503d805f811461076f576040519150601f19603f3d011682016040523d82523d5f602084013e610774565b606091505b50509050806107b8576040517f08c379a00000000000000000000000000000000000000000000000000000000081526004016107af906113d9565b60405180910390fd5b8273ffffffffffffffffffffffffffffffffffffffff167f0ce490531f6c8ae2f1ff174643bc8b7ed5e52987ab50dc1e8f33655d2cd8c90b856040516107fe91906110f1565b60405180910390a250505050505050565b7f000000000000000000000000000000000000000000000000000000000000000081565b67016345785d8a00003414610874576040517ff067b3c600000000000000000000000000000000000000000000000000000000815260040160405180910390fd5b601463ffffffff166001901b63ffffffff1660295f9054906101000a900463ffffffff1663ffffffff16106108d5576040517fed732d0c00000000000000000000000000000000000000000000000000000000815260040160405180910390fd5b5f60295f9054906101000a900463ffffffff16905060295f81819054906101000a900463ffffffff168092919061090b90611424565b91906101000a81548163ffffffff021916908363ffffffff160217905550505f845f1c90505f5f90505b601463ffffffff168163ffffffff161015610b31575f6001841663ffffffff1603610a4b57815f1b60148263ffffffff166014811061097757610976611194565b5b01819055507f000000000000000000000000000000000000000000000000000000000000000073ffffffffffffffffffffffffffffffffffffffff166329a5f2f660405180604001604052808581526020015f8563ffffffff16601481106109e2576109e1611194565b5b01545f1c8152506040518263ffffffff1660e01b8152600401610a0591906114f4565b602060405180830381865afa158015610a20573d5f5f3e3d5ffd5b505050506040513d601f19601f82011682018060405250810190610a449190611521565b9150610b17565b7f000000000000000000000000000000000000000000000000000000000000000073ffffffffffffffffffffffffffffffffffffffff166329a5f2f6604051806040016040528060148563ffffffff1660148110610aac57610aab611194565b5b01545f1c8152602001858152506040518263ffffffff1660e01b8152600401610ad591906114f4565b602060405180830381865afa158015610af0573d5f5f3e3d5ffd5b505050506040513d601f19601f82011682018060405250810190610b149190611521565b91505b60018363ffffffff16901c92508080600101915050610935565b50805f1b6028819055506001602b5f60285481526020019081526020015f205f6101000a81548160ff021916908315150217905550604051806020016040528085858080601f0160208091040260200160405190810160405280939291908181526020018383808284375f81840152601f19601f82011690508083019250505050505050815250602c5f8781526020019081526020015f205f820151815f019081610bdc91906116e3565b50905050847f84fc9eb8cd0a782a1d1734fbeed616bd0ef775f8b9bd437636b62d634fe4baf3600160295f9054906101000a900463ffffffff16610c2091906117b2565b604051610c2d9190610cd1565b60405180910390a25050505050565b5f602a5f8381526020019081526020015f205f9054906101000a900460ff169050919050565b5f8160148110610c70575f80fd5b015f915090505481565b601481565b60148160148110610c8e575f80fd5b015f915090505481565b60295f9054906101000a900463ffffffff1681565b60285481565b5f63ffffffff82169050919050565b610ccb81610cb3565b82525050565b5f602082019050610ce45f830184610cc2565b92915050565b5f5ffd5b5f5ffd5b5f819050919050565b610d0481610cf2565b8114610d0e575f5ffd5b50565b5f81359050610d1f81610cfb565b92915050565b5f60208284031215610d3a57610d39610cea565b5b5f610d4784828501610d11565b91505092915050565b5f8115159050919050565b610d6481610d50565b82525050565b5f602082019050610d7d5f830184610d5b565b92915050565b5f73ffffffffffffffffffffffffffffffffffffffff82169050919050565b5f819050919050565b5f610dc5610dc0610dbb84610d83565b610da2565b610d83565b9050919050565b5f610dd682610dab565b9050919050565b5f610de782610dcc565b9050919050565b610df781610ddd565b82525050565b5f602082019050610e105f830184610dee565b92915050565b5f81519050919050565b5f82825260208201905092915050565b8281835e5f83830152505050565b5f601f19601f8301169050919050565b5f610e5882610e16565b610e628185610e20565b9350610e72818560208601610e30565b610e7b81610e3e565b840191505092915050565b5f6020820190508181035f830152610e9e8184610e4e565b905092915050565b5f819050919050565b610eb881610ea6565b82525050565b5f602082019050610ed15f830184610eaf565b92915050565b5f5ffd5b5f5ffd5b5f5ffd5b5f5f83601f840112610ef857610ef7610ed7565b5b8235905067ffffffffffffffff811115610f1557610f14610edb565b5b602083019150836001820283011115610f3157610f30610edf565b5b9250929050565b5f610f4282610d83565b9050919050565b610f5281610f38565b8114610f5c575f5ffd5b50565b5f81359050610f6d81610f49565b92915050565b5f5f5f5f5f60808688031215610f8c57610f8b610cea565b5b5f86013567ffffffffffffffff811115610fa957610fa8610cee565b5b610fb588828901610ee3565b95509550506020610fc888828901610d11565b9350506040610fd988828901610d11565b9250506060610fea88828901610f5f565b9150509295509295909350565b5f61100182610dcc565b9050919050565b61101181610ff7565b82525050565b5f60208201905061102a5f830184611008565b92915050565b5f5f5f6040848603121561104757611046610cea565b5b5f61105486828701610d11565b935050602084013567ffffffffffffffff81111561107557611074610cee565b5b61108186828701610ee3565b92509250509250925092565b61109681610ea6565b81146110a0575f5ffd5b50565b5f813590506110b18161108d565b92915050565b5f602082840312156110cc576110cb610cea565b5b5f6110d9848285016110a3565b91505092915050565b6110eb81610cf2565b82525050565b5f6020820190506111045f8301846110e2565b92915050565b7f4e487b71000000000000000000000000000000000000000000000000000000005f52602260045260245ffd5b5f600282049050600182168061114e57607f821691505b6020821081036111615761116061110a565b5b50919050565b7f4e487b71000000000000000000000000000000000000000000000000000000005f52604160045260245ffd5b7f4e487b71000000000000000000000000000000000000000000000000000000005f52603260045260245ffd5b828183375f83830152505050565b5f6111da8385610e20565b93506111e78385846111c1565b6111f083610e3e565b840190509392505050565b5f81519050919050565b5f82825260208201905092915050565b5f819050602082019050919050565b61122d81610cf2565b82525050565b5f61123e8383611224565b60208301905092915050565b5f602082019050919050565b5f611260826111fb565b61126a8185611205565b935061127583611215565b805f5b838110156112a557815161128c8882611233565b97506112978361124a565b925050600181019050611278565b5085935050505092915050565b5f6040820190508181035f8301526112cb8185876111cf565b905081810360208301526112df8184611256565b9050949350505050565b6112f281610d50565b81146112fc575f5ffd5b50565b5f8151905061130d816112e9565b92915050565b5f6020828403121561132857611327610cea565b5b5f611335848285016112ff565b91505092915050565b5f81905092915050565b50565b5f6113565f8361133e565b915061136182611348565b5f82019050919050565b5f6113758261134b565b9150819050919050565b5f82825260208201905092915050565b7f4d4e54207472616e73666572206661696c6564000000000000000000000000005f82015250565b5f6113c360138361137f565b91506113ce8261138f565b602082019050919050565b5f6020820190508181035f8301526113f0816113b7565b9050919050565b7f4e487b71000000000000000000000000000000000000000000000000000000005f52601160045260245ffd5b5f61142e82610cb3565b915063ffffffff8203611444576114436113f7565b5b600182019050919050565b5f60029050919050565b5f81905092915050565b5f819050919050565b61147581610ea6565b82525050565b5f611486838361146c565b60208301905092915050565b5f602082019050919050565b6114a78161144f565b6114b18184611459565b92506114bc82611463565b805f5b838110156114ec5781516114d3878261147b565b96506114de83611492565b9250506001810190506114bf565b505050505050565b5f6040820190506115075f83018461149e565b92915050565b5f8151905061151b8161108d565b92915050565b5f6020828403121561153657611535610cea565b5b5f6115438482850161150d565b91505092915050565b5f819050815f5260205f209050919050565b5f6020601f8301049050919050565b5f82821b905092915050565b5f600883026115a87fffffffffffffffffffffffffffffffffffffffffffffffffffffffffffffffff8261156d565b6115b2868361156d565b95508019841693508086168417925050509392505050565b5f6115e46115df6115da84610ea6565b610da2565b610ea6565b9050919050565b5f819050919050565b6115fd836115ca565b611611611609826115eb565b848454611579565b825550505050565b5f5f905090565b611628611619565b6116338184846115f4565b505050565b5b818110156116565761164b5f82611620565b600181019050611639565b5050565b601f82111561169b5761166c8161154c565b6116758461155e565b81016020851015611684578190505b6116986116908561155e565b830182611638565b50505b505050565b5f82821c905092915050565b5f6116bb5f19846008026116a0565b1980831691505092915050565b5f6116d383836116ac565b9150826002028217905092915050565b6116ec82610e16565b67ffffffffffffffff81111561170557611704611167565b5b61170f8254611137565b61171a82828561165a565b5f60209050601f83116001811461174b575f8415611739578287015190505b61174385826116c8565b8655506117aa565b601f1984166117598661154c565b5f5b828110156117805784890151825560018201915060208501945060208101905061175b565b8683101561179d5784890151611799601f8916826116ac565b8355505b6001600288020188555050505b505050505050565b5f6117bc82610cb3565b91506117c783610cb3565b9250828203905063ffffffff8111156117e3576117e26113f7565b5b9291505056fea2646970667358221220e58c5a377600d5159c98fa1d8c19ecf1a6602efa15a68353053dd8163be3ec8864736f6c634300081f0033",
					"opcodes": "PUSH1 0xC0 PUSH1 0x40 MSTORE CALLVALUE DUP1 ISZERO PUSH2 0xF JUMPI PUSH0 PUSH0 REVERT JUMPDEST POP PUSH1 0x40 MLOAD PUSH2 0x1D8F CODESIZE SUB DUP1 PUSH2 0x1D8F DUP4 CODECOPY DUP2 DUP2 ADD PUSH1 0x40 MSTORE DUP2 ADD SWAP1 PUSH2 0x31 SWAP2 SWAP1 PUSH2 0x340 JUMP JUMPDEST DUP2 PUSH20 0xFFFFFFFFFFFFFFFFFFFFFFFFFFFFFFFFFFFFFFFF AND PUSH1 0x80 DUP2 PUSH20 0xFFFFFFFFFFFFFFFFFFFFFFFFFFFFFFFFFFFFFFFF AND DUP2 MSTORE POP POP DUP1 PUSH20 0xFFFFFFFFFFFFFFFFFFFFFFFFFFFFFFFFFFFFFFFF AND PUSH1 0xA0 DUP2 PUSH20 0xFFFFFFFFFFFFFFFFFFFFFFFFFFFFFFFFFFFFFFFF AND DUP2 MSTORE POP POP PUSH0 PUSH1 0xA0 MLOAD PUSH20 0xFFFFFFFFFFFFFFFFFFFFFFFFFFFFFFFFFFFFFFFF AND PUSH4 0x29A5F2F6 PUSH1 0x40 MLOAD DUP1 PUSH1 0x40 ADD PUSH1 0x40 MSTORE DUP1 PUSH0 DUP2 MSTORE PUSH1 0x20 ADD PUSH0 DUP2 MSTORE POP PUSH1 0x40 MLOAD DUP3 PUSH4 0xFFFFFFFF AND PUSH1 0xE0 SHL DUP2 MSTORE PUSH1 0x4 ADD PUSH2 0xE9 SWAP2 SWAP1 PUSH2 0x42C JUMP JUMPDEST PUSH1 0x20 PUSH1 0x40 MLOAD DUP1 DUP4 SUB DUP2 DUP7 GAS STATICCALL ISZERO DUP1 ISZERO PUSH2 0x104 JUMPI RETURNDATASIZE PUSH0 PUSH0 RETURNDATACOPY RETURNDATASIZE PUSH0 REVERT JUMPDEST POP POP POP POP PUSH1 0x40 MLOAD RETURNDATASIZE PUSH1 0x1F NOT PUSH1 0x1F DUP3 ADD AND DUP3 ADD DUP1 PUSH1 0x40 MSTORE POP DUP2 ADD SWAP1 PUSH2 0x128 SWAP2 SWAP1 PUSH2 0x46F JUMP JUMPDEST SWAP1 POP DUP1 PUSH0 SHL PUSH0 PUSH0 PUSH1 0x14 DUP2 LT PUSH2 0x140 JUMPI PUSH2 0x13F PUSH2 0x49A JUMP JUMPDEST JUMPDEST ADD DUP2 SWAP1 SSTORE POP PUSH0 PUSH1 0x1 SWAP1 POP JUMPDEST PUSH1 0x14 PUSH4 0xFFFFFFFF AND DUP2 PUSH4 0xFFFFFFFF AND LT ISZERO PUSH2 0x21E JUMPI PUSH1 0xA0 MLOAD PUSH20 0xFFFFFFFFFFFFFFFFFFFFFFFFFFFFFFFFFFFFFFFF AND PUSH4 0x29A5F2F6 PUSH1 0x40 MLOAD DUP1 PUSH1 0x40 ADD PUSH1 0x40 MSTORE DUP1 DUP6 DUP2 MSTORE PUSH1 0x20 ADD DUP6 DUP2 MSTORE POP PUSH1 0x40 MLOAD DUP3 PUSH4 0xFFFFFFFF AND PUSH1 0xE0 SHL DUP2 MSTORE PUSH1 0x4 ADD PUSH2 0x1AF SWAP2 SWAP1 PUSH2 0x42C JUMP JUMPDEST PUSH1 0x20 PUSH1 0x40 MLOAD DUP1 DUP4 SUB DUP2 DUP7 GAS STATICCALL ISZERO DUP1 ISZERO PUSH2 0x1CA JUMPI RETURNDATASIZE PUSH0 PUSH0 RETURNDATACOPY RETURNDATASIZE PUSH0 REVERT JUMPDEST POP POP POP POP PUSH1 0x40 MLOAD RETURNDATASIZE PUSH1 0x1F NOT PUSH1 0x1F DUP3 ADD AND DUP3 ADD DUP1 PUSH1 0x40 MSTORE POP DUP2 ADD SWAP1 PUSH2 0x1EE SWAP2 SWAP1 PUSH2 0x46F JUMP JUMPDEST SWAP2 POP DUP2 PUSH0 SHL PUSH0 DUP3 PUSH4 0xFFFFFFFF AND PUSH1 0x14 DUP2 LT PUSH2 0x20C JUMPI PUSH2 0x20B PUSH2 0x49A JUMP JUMPDEST JUMPDEST ADD DUP2 SWAP1 SSTORE POP DUP1 DUP1 PUSH1 0x1 ADD SWAP2 POP POP PUSH2 0x14B JUMP JUMPDEST POP PUSH0 PUSH0 SWAP1 POP JUMPDEST PUSH1 0x14 PUSH4 0xFFFFFFFF AND DUP2 PUSH4 0xFFFFFFFF AND LT ISZERO PUSH2 0x280 JUMPI PUSH0 DUP2 PUSH4 0xFFFFFFFF AND PUSH1 0x14 DUP2 LT PUSH2 0x252 JUMPI PUSH2 0x251 PUSH2 0x49A JUMP JUMPDEST JUMPDEST ADD SLOAD PUSH1 0x14 DUP3 PUSH4 0xFFFFFFFF AND PUSH1 0x14 DUP2 LT PUSH2 0x26E JUMPI PUSH2 0x26D PUSH2 0x49A JUMP JUMPDEST JUMPDEST ADD DUP2 SWAP1 SSTORE POP DUP1 DUP1 PUSH1 0x1 ADD SWAP2 POP POP PUSH2 0x224 JUMP JUMPDEST POP PUSH0 PUSH1 0x1 PUSH1 0x14 PUSH2 0x290 SWAP2 SWAP1 PUSH2 0x503 JUMP JUMPDEST PUSH4 0xFFFFFFFF AND PUSH1 0x14 DUP2 LT PUSH2 0x2A7 JUMPI PUSH2 0x2A6 PUSH2 0x49A JUMP JUMPDEST JUMPDEST ADD SLOAD PUSH1 0x28 DUP2 SWAP1 SSTORE POP PUSH1 0x1 PUSH1 0x2B PUSH0 PUSH1 0x28 SLOAD DUP2 MSTORE PUSH1 0x20 ADD SWAP1 DUP2 MSTORE PUSH1 0x20 ADD PUSH0 KECCAK256 PUSH0 PUSH2 0x100 EXP DUP2 SLOAD DUP2 PUSH1 0xFF MUL NOT AND SWAP1 DUP4 ISZERO ISZERO MUL OR SWAP1 SSTORE POP POP POP POP PUSH2 0x53A JUMP JUMPDEST PUSH0 PUSH0 REVERT JUMPDEST PUSH0 PUSH20 0xFFFFFFFFFFFFFFFFFFFFFFFFFFFFFFFFFFFFFFFF DUP3 AND SWAP1 POP SWAP2 SWAP1 POP JUMP JUMPDEST PUSH0 PUSH2 0x30F DUP3 PUSH2 0x2E6 JUMP JUMPDEST SWAP1 POP SWAP2 SWAP1 POP JUMP JUMPDEST PUSH2 0x31F DUP2 PUSH2 0x305 JUMP JUMPDEST DUP2 EQ PUSH2 0x329 JUMPI PUSH0 PUSH0 REVERT JUMPDEST POP JUMP JUMPDEST PUSH0 DUP2 MLOAD SWAP1 POP PUSH2 0x33A DUP2 PUSH2 0x316 JUMP JUMPDEST SWAP3 SWAP2 POP POP JUMP JUMPDEST PUSH0 PUSH0 PUSH1 0x40 DUP4 DUP6 SUB SLT ISZERO PUSH2 0x356 JUMPI PUSH2 0x355 PUSH2 0x2E2 JUMP JUMPDEST JUMPDEST PUSH0 PUSH2 0x363 DUP6 DUP3 DUP7 ADD PUSH2 0x32C JUMP JUMPDEST SWAP3 POP POP PUSH1 0x20 PUSH2 0x374 DUP6 DUP3 DUP7 ADD PUSH2 0x32C JUMP JUMPDEST SWAP2 POP POP SWAP3 POP SWAP3 SWAP1 POP JUMP JUMPDEST PUSH0 PUSH1 0x2 SWAP1 POP SWAP2 SWAP1 POP JUMP JUMPDEST PUSH0 DUP2 SWAP1 POP SWAP3 SWAP2 POP POP JUMP JUMPDEST PUSH0 DUP2 SWAP1 POP SWAP2 SWAP1 POP JUMP JUMPDEST PUSH0 DUP2 SWAP1 POP SWAP2 SWAP1 POP JUMP JUMPDEST PUSH2 0x3AD DUP2 PUSH2 0x39B JUMP JUMPDEST DUP3 MSTORE POP POP JUMP JUMPDEST PUSH0 PUSH2 0x3BE DUP4 DUP4 PUSH2 0x3A4 JUMP JUMPDEST PUSH1 0x20 DUP4 ADD SWAP1 POP SWAP3 SWAP2 POP POP JUMP JUMPDEST PUSH0 PUSH1 0x20 DUP3 ADD SWAP1 POP SWAP2 SWAP1 POP JUMP JUMPDEST PUSH2 0x3DF DUP2 PUSH2 0x37E JUMP JUMPDEST PUSH2 0x3E9 DUP2 DUP5 PUSH2 0x388 JUMP JUMPDEST SWAP3 POP PUSH2 0x3F4 DUP3 PUSH2 0x392 JUMP JUMPDEST DUP1 PUSH0 JUMPDEST DUP4 DUP2 LT ISZERO PUSH2 0x424 JUMPI DUP2 MLOAD PUSH2 0x40B DUP8 DUP3 PUSH2 0x3B3 JUMP JUMPDEST SWAP7 POP PUSH2 0x416 DUP4 PUSH2 0x3CA JUMP JUMPDEST SWAP3 POP POP PUSH1 0x1 DUP2 ADD SWAP1 POP PUSH2 0x3F7 JUMP JUMPDEST POP POP POP POP POP POP JUMP JUMPDEST PUSH0 PUSH1 0x40 DUP3 ADD SWAP1 POP PUSH2 0x43F PUSH0 DUP4 ADD DUP5 PUSH2 0x3D6 JUMP JUMPDEST SWAP3 SWAP2 POP POP JUMP JUMPDEST PUSH2 0x44E DUP2 PUSH2 0x39B JUMP JUMPDEST DUP2 EQ PUSH2 0x458 JUMPI PUSH0 PUSH0 REVERT JUMPDEST POP JUMP JUMPDEST PUSH0 DUP2 MLOAD SWAP1 POP PUSH2 0x469 DUP2 PUSH2 0x445 JUMP JUMPDEST SWAP3 SWAP2 POP POP JUMP JUMPDEST PUSH0 PUSH1 0x20 DUP3 DUP5 SUB SLT ISZERO PUSH2 0x484 JUMPI PUSH2 0x483 PUSH2 0x2E2 JUMP JUMPDEST JUMPDEST PUSH0 PUSH2 0x491 DUP5 DUP3 DUP6 ADD PUSH2 0x45B JUMP JUMPDEST SWAP2 POP POP SWAP3 SWAP2 POP POP JUMP JUMPDEST PUSH32 0x4E487B7100000000000000000000000000000000000000000000000000000000 PUSH0 MSTORE PUSH1 0x32 PUSH1 0x4 MSTORE PUSH1 0x24 PUSH0 REVERT JUMPDEST PUSH0 PUSH4 0xFFFFFFFF DUP3 AND SWAP1 POP SWAP2 SWAP1 POP JUMP JUMPDEST PUSH32 0x4E487B7100000000000000000000000000000000000000000000000000000000 PUSH0 MSTORE PUSH1 0x11 PUSH1 0x4 MSTORE PUSH1 0x24 PUSH0 REVERT JUMPDEST PUSH0 PUSH2 0x50D DUP3 PUSH2 0x4C7 JUMP JUMPDEST SWAP2 POP PUSH2 0x518 DUP4 PUSH2 0x4C7 JUMP JUMPDEST SWAP3 POP DUP3 DUP3 SUB SWAP1 POP PUSH4 0xFFFFFFFF DUP2 GT ISZERO PUSH2 0x534 JUMPI PUSH2 0x533 PUSH2 0x4D6 JUMP JUMPDEST JUMPDEST SWAP3 SWAP2 POP POP JUMP JUMPDEST PUSH1 0x80 MLOAD PUSH1 0xA0 MLOAD PUSH2 0x181F PUSH2 0x570 PUSH0 CODECOPY PUSH0 DUP2 DUP2 PUSH2 0x811 ADD MSTORE DUP2 DUP2 PUSH2 0x97E ADD MSTORE PUSH2 0xA4D ADD MSTORE PUSH0 DUP2 DUP2 PUSH2 0x3EB ADD MSTORE PUSH2 0x60F ADD MSTORE PUSH2 0x181F PUSH0 RETURN INVALID PUSH1 0x80 PUSH1 0x40 MSTORE PUSH1 0x4 CALLDATASIZE LT PUSH2 0xE7 JUMPI PUSH0 CALLDATALOAD PUSH1 0xE0 SHR DUP1 PUSH4 0xC62B919E GT PUSH2 0x89 JUMPI DUP1 PUSH4 0xF1650536 GT PUSH2 0x58 JUMPI DUP1 PUSH4 0xF1650536 EQ PUSH2 0x303 JUMPI DUP1 PUSH4 0xF178E47C EQ PUSH2 0x32D JUMPI DUP1 PUSH4 0xFC7E9C6F EQ PUSH2 0x369 JUMPI DUP1 PUSH4 0xFDAB463D EQ PUSH2 0x393 JUMPI PUSH2 0xE7 JUMP JUMPDEST DUP1 PUSH4 0xC62B919E EQ PUSH2 0x245 JUMPI DUP1 PUSH4 0xE29973FC EQ PUSH2 0x26F JUMPI DUP1 PUSH4 0xE5285DCC EQ PUSH2 0x28B JUMPI DUP1 PUSH4 0xE8295588 EQ PUSH2 0x2C7 JUMPI PUSH2 0xE7 JUMP JUMPDEST DUP1 PUSH4 0x4E73DA7D GT PUSH2 0xC5 JUMPI DUP1 PUSH4 0x4E73DA7D EQ PUSH2 0x17B JUMPI DUP1 PUSH4 0x85DE26B7 EQ PUSH2 0x1B7 JUMPI DUP1 PUSH4 0x8B01429D EQ PUSH2 0x1F3 JUMPI DUP1 PUSH4 0xB130EAA6 EQ PUSH2 0x21D JUMPI PUSH2 0xE7 JUMP JUMPDEST DUP1 PUSH4 0x82FEBF0 EQ PUSH2 0xEB JUMPI DUP1 PUSH4 0x17CC915C EQ PUSH2 0x115 JUMPI DUP1 PUSH4 0x2B7AC3F3 EQ PUSH2 0x151 JUMPI JUMPDEST PUSH0 PUSH0 REVERT JUMPDEST CALLVALUE DUP1 ISZERO PUSH2 0xF6 JUMPI PUSH0 PUSH0 REVERT JUMPDEST POP PUSH2 0xFF PUSH2 0x3BD JUMP JUMPDEST PUSH1 0x40 MLOAD PUSH2 0x10C SWAP2 SWAP1 PUSH2 0xCD1 JUMP JUMPDEST PUSH1 0x40 MLOAD DUP1 SWAP2 SUB SWAP1 RETURN JUMPDEST CALLVALUE DUP1 ISZERO PUSH2 0x120 JUMPI PUSH0 PUSH0 REVERT JUMPDEST POP PUSH2 0x13B PUSH1 0x4 DUP1 CALLDATASIZE SUB DUP2 ADD SWAP1 PUSH2 0x136 SWAP2 SWAP1 PUSH2 0xD25 JUMP JUMPDEST PUSH2 0x3CC JUMP JUMPDEST PUSH1 0x40 MLOAD PUSH2 0x148 SWAP2 SWAP1 PUSH2 0xD6A JUMP JUMPDEST PUSH1 0x40 MLOAD DUP1 SWAP2 SUB SWAP1 RETURN JUMPDEST CALLVALUE DUP1 ISZERO PUSH2 0x15C JUMPI PUSH0 PUSH0 REVERT JUMPDEST POP PUSH2 0x165 PUSH2 0x3E9 JUMP JUMPDEST PUSH1 0x40 MLOAD PUSH2 0x172 SWAP2 SWAP1 PUSH2 0xDFD JUMP JUMPDEST PUSH1 0x40 MLOAD DUP1 SWAP2 SUB SWAP1 RETURN JUMPDEST CALLVALUE DUP1 ISZERO PUSH2 0x186 JUMPI PUSH0 PUSH0 REVERT JUMPDEST POP PUSH2 0x1A1 PUSH1 0x4 DUP1 CALLDATASIZE SUB DUP2 ADD SWAP1 PUSH2 0x19C SWAP2 SWAP1 PUSH2 0xD25 JUMP JUMPDEST PUSH2 0x40D JUMP JUMPDEST PUSH1 0x40 MLOAD PUSH2 0x1AE SWAP2 SWAP1 PUSH2 0xD6A JUMP JUMPDEST PUSH1 0x40 MLOAD DUP1 SWAP2 SUB SWAP1 RETURN JUMPDEST CALLVALUE DUP1 ISZERO PUSH2 0x1C2 JUMPI PUSH0 PUSH0 REVERT JUMPDEST POP PUSH2 0x1DD PUSH1 0x4 DUP1 CALLDATASIZE SUB DUP2 ADD SWAP1 PUSH2 0x1D8 SWAP2 SWAP1 PUSH2 0xD25 JUMP JUMPDEST PUSH2 0x42A JUMP JUMPDEST PUSH1 0x40 MLOAD PUSH2 0x1EA SWAP2 SWAP1 PUSH2 0xE86 JUMP JUMPDEST PUSH1 0x40 MLOAD DUP1 SWAP2 SUB SWAP1 RETURN JUMPDEST CALLVALUE DUP1 ISZERO PUSH2 0x1FE JUMPI PUSH0 PUSH0 REVERT JUMPDEST POP PUSH2 0x207 PUSH2 0x4CA JUMP JUMPDEST PUSH1 0x40 MLOAD PUSH2 0x214 SWAP2 SWAP1 PUSH2 0xEBE JUMP JUMPDEST PUSH1 0x40 MLOAD DUP1 SWAP2 SUB SWAP1 RETURN JUMPDEST CALLVALUE DUP1 ISZERO PUSH2 0x228 JUMPI PUSH0 PUSH0 REVERT JUMPDEST POP PUSH2 0x243 PUSH1 0x4 DUP1 CALLDATASIZE SUB DUP2 ADD SWAP1 PUSH2 0x23E SWAP2 SWAP1 PUSH2 0xF73 JUMP JUMPDEST PUSH2 0x4D6 JUMP JUMPDEST STOP JUMPDEST CALLVALUE DUP1 ISZERO PUSH2 0x250 JUMPI PUSH0 PUSH0 REVERT JUMPDEST POP PUSH2 0x259 PUSH2 0x80F JUMP JUMPDEST PUSH1 0x40 MLOAD PUSH2 0x266 SWAP2 SWAP1 PUSH2 0x1017 JUMP JUMPDEST PUSH1 0x40 MLOAD DUP1 SWAP2 SUB SWAP1 RETURN JUMPDEST PUSH2 0x289 PUSH1 0x4 DUP1 CALLDATASIZE SUB DUP2 ADD SWAP1 PUSH2 0x284 SWAP2 SWAP1 PUSH2 0x1030 JUMP JUMPDEST PUSH2 0x833 JUMP JUMPDEST STOP JUMPDEST CALLVALUE DUP1 ISZERO PUSH2 0x296 JUMPI PUSH0 PUSH0 REVERT JUMPDEST POP PUSH2 0x2B1 PUSH1 0x4 DUP1 CALLDATASIZE SUB DUP2 ADD SWAP1 PUSH2 0x2AC SWAP2 SWAP1 PUSH2 0xD25 JUMP JUMPDEST PUSH2 0xC3C JUMP JUMPDEST PUSH1 0x40 MLOAD PUSH2 0x2BE SWAP2 SWAP1 PUSH2 0xD6A JUMP JUMPDEST PUSH1 0x40 MLOAD DUP1 SWAP2 SUB SWAP1 RETURN JUMPDEST CALLVALUE DUP1 ISZERO PUSH2 0x2D2 JUMPI PUSH0 PUSH0 REVERT JUMPDEST POP PUSH2 0x2ED PUSH1 0x4 DUP1 CALLDATASIZE SUB DUP2 ADD SWAP1 PUSH2 0x2E8 SWAP2 SWAP1 PUSH2 0x10B7 JUMP JUMPDEST PUSH2 0xC62 JUMP JUMPDEST PUSH1 0x40 MLOAD PUSH2 0x2FA SWAP2 SWAP1 PUSH2 0x10F1 JUMP JUMPDEST PUSH1 0x40 MLOAD DUP1 SWAP2 SUB SWAP1 RETURN JUMPDEST CALLVALUE DUP1 ISZERO PUSH2 0x30E JUMPI PUSH0 PUSH0 REVERT JUMPDEST POP PUSH2 0x317 PUSH2 0xC7A JUMP JUMPDEST PUSH1 0x40 MLOAD PUSH2 0x324 SWAP2 SWAP1 PUSH2 0xCD1 JUMP JUMPDEST PUSH1 0x40 MLOAD DUP1 SWAP2 SUB SWAP1 RETURN JUMPDEST CALLVALUE DUP1 ISZERO PUSH2 0x338 JUMPI PUSH0 PUSH0 REVERT JUMPDEST POP PUSH2 0x353 PUSH1 0x4 DUP1 CALLDATASIZE SUB DUP2 ADD SWAP1 PUSH2 0x34E SWAP2 SWAP1 PUSH2 0x10B7 JUMP JUMPDEST PUSH2 0xC7F JUMP JUMPDEST PUSH1 0x40 MLOAD PUSH2 0x360 SWAP2 SWAP1 PUSH2 0x10F1 JUMP JUMPDEST PUSH1 0x40 MLOAD DUP1 SWAP2 SUB SWAP1 RETURN JUMPDEST CALLVALUE DUP1 ISZERO PUSH2 0x374 JUMPI PUSH0 PUSH0 REVERT JUMPDEST POP PUSH2 0x37D PUSH2 0xC98 JUMP JUMPDEST PUSH1 0x40 MLOAD PUSH2 0x38A SWAP2 SWAP1 PUSH2 0xCD1 JUMP JUMPDEST PUSH1 0x40 MLOAD DUP1 SWAP2 SUB SWAP1 RETURN JUMPDEST CALLVALUE DUP1 ISZERO PUSH2 0x39E JUMPI PUSH0 PUSH0 REVERT JUMPDEST POP PUSH2 0x3A7 PUSH2 0xCAD JUMP JUMPDEST PUSH1 0x40 MLOAD PUSH2 0x3B4 SWAP2 SWAP1 PUSH2 0x10F1 JUMP JUMPDEST PUSH1 0x40 MLOAD DUP1 SWAP2 SUB SWAP1 RETURN JUMPDEST PUSH1 0x14 PUSH4 0xFFFFFFFF AND PUSH1 0x1 SWAP1 SHL DUP2 JUMP JUMPDEST PUSH1 0x2A PUSH1 0x20 MSTORE DUP1 PUSH0 MSTORE PUSH1 0x40 PUSH0 KECCAK256 PUSH0 SWAP2 POP SLOAD SWAP1 PUSH2 0x100 EXP SWAP1 DIV PUSH1 0xFF AND DUP2 JUMP JUMPDEST PUSH32 0x0 DUP2 JUMP JUMPDEST PUSH1 0x2B PUSH1 0x20 MSTORE DUP1 PUSH0 MSTORE PUSH1 0x40 PUSH0 KECCAK256 PUSH0 SWAP2 POP SLOAD SWAP1 PUSH2 0x100 EXP SWAP1 DIV PUSH1 0xFF AND DUP2 JUMP JUMPDEST PUSH1 0x2C PUSH1 0x20 MSTORE DUP1 PUSH0 MSTORE PUSH1 0x40 PUSH0 KECCAK256 PUSH0 SWAP2 POP SWAP1 POP DUP1 PUSH0 ADD DUP1 SLOAD PUSH2 0x449 SWAP1 PUSH2 0x1137 JUMP JUMPDEST DUP1 PUSH1 0x1F ADD PUSH1 0x20 DUP1 SWAP2 DIV MUL PUSH1 0x20 ADD PUSH1 0x40 MLOAD SWAP1 DUP2 ADD PUSH1 0x40 MSTORE DUP1 SWAP3 SWAP2 SWAP1 DUP2 DUP2 MSTORE PUSH1 0x20 ADD DUP3 DUP1 SLOAD PUSH2 0x475 SWAP1 PUSH2 0x1137 JUMP JUMPDEST DUP1 ISZERO PUSH2 0x4C0 JUMPI DUP1 PUSH1 0x1F LT PUSH2 0x497 JUMPI PUSH2 0x100 DUP1 DUP4 SLOAD DIV MUL DUP4 MSTORE SWAP2 PUSH1 0x20 ADD SWAP2 PUSH2 0x4C0 JUMP JUMPDEST DUP3 ADD SWAP2 SWAP1 PUSH0 MSTORE PUSH1 0x20 PUSH0 KECCAK256 SWAP1 JUMPDEST DUP2 SLOAD DUP2 MSTORE SWAP1 PUSH1 0x1 ADD SWAP1 PUSH1 0x20 ADD DUP1 DUP4 GT PUSH2 0x4A3 JUMPI DUP3 SWAP1 SUB PUSH1 0x1F AND DUP3 ADD SWAP2 JUMPDEST POP POP POP POP POP SWAP1 POP DUP2 JUMP JUMPDEST PUSH8 0x16345785D8A0000 DUP2 JUMP JUMPDEST PUSH1 0x2A PUSH0 DUP4 DUP2 MSTORE PUSH1 0x20 ADD SWAP1 DUP2 MSTORE PUSH1 0x20 ADD PUSH0 KECCAK256 PUSH0 SWAP1 SLOAD SWAP1 PUSH2 0x100 EXP SWAP1 DIV PUSH1 0xFF AND ISZERO PUSH2 0x52B JUMPI PUSH1 0x40 MLOAD PUSH32 0xCAD2AE0200000000000000000000000000000000000000000000000000000000 DUP2 MSTORE PUSH1 0x4 ADD PUSH1 0x40 MLOAD DUP1 SWAP2 SUB SWAP1 REVERT JUMPDEST PUSH1 0x2B PUSH0 DUP5 DUP2 MSTORE PUSH1 0x20 ADD SWAP1 DUP2 MSTORE PUSH1 0x20 ADD PUSH0 KECCAK256 PUSH0 SWAP1 SLOAD SWAP1 PUSH2 0x100 EXP SWAP1 DIV PUSH1 0xFF AND PUSH2 0x57F JUMPI PUSH1 0x40 MLOAD PUSH32 0x8C52011600000000000000000000000000000000000000000000000000000000 DUP2 MSTORE PUSH1 0x4 ADD PUSH1 0x40 MLOAD DUP1 SWAP2 SUB SWAP1 REVERT JUMPDEST PUSH0 PUSH1 0x2 PUSH8 0xFFFFFFFFFFFFFFFF DUP2 GT ISZERO PUSH2 0x59B JUMPI PUSH2 0x59A PUSH2 0x1167 JUMP JUMPDEST JUMPDEST PUSH1 0x40 MLOAD SWAP1 DUP1 DUP3 MSTORE DUP1 PUSH1 0x20 MUL PUSH1 0x20 ADD DUP3 ADD PUSH1 0x40 MSTORE DUP1 ISZERO PUSH2 0x5C9 JUMPI DUP2 PUSH1 0x20 ADD PUSH1 0x20 DUP3 MUL DUP1 CALLDATASIZE DUP4 CALLDATACOPY DUP1 DUP3 ADD SWAP2 POP POP SWAP1 POP JUMPDEST POP SWAP1 POP DUP4 DUP2 PUSH0 DUP2 MLOAD DUP2 LT PUSH2 0x5E0 JUMPI PUSH2 0x5DF PUSH2 0x1194 JUMP JUMPDEST JUMPDEST PUSH1 0x20 MUL PUSH1 0x20 ADD ADD DUP2 DUP2 MSTORE POP POP DUP3 DUP2 PUSH1 0x1 DUP2 MLOAD DUP2 LT PUSH2 0x601 JUMPI PUSH2 0x600 PUSH2 0x1194 JUMP JUMPDEST JUMPDEST PUSH1 0x20 MUL PUSH1 0x20 ADD ADD DUP2 DUP2 MSTORE POP POP PUSH32 0x0 PUSH20 0xFFFFFFFFFFFFFFFFFFFFFFFFFFFFFFFFFFFFFFFF AND PUSH4 0xEA50D0E4 DUP8 DUP8 DUP5 PUSH1 0x40 MLOAD DUP5 PUSH4 0xFFFFFFFF AND PUSH1 0xE0 SHL DUP2 MSTORE PUSH1 0x4 ADD PUSH2 0x66A SWAP4 SWAP3 SWAP2 SWAP1 PUSH2 0x12B2 JUMP JUMPDEST PUSH1 0x20 PUSH1 0x40 MLOAD DUP1 DUP4 SUB DUP2 DUP7 GAS STATICCALL ISZERO DUP1 ISZERO PUSH2 0x685 JUMPI RETURNDATASIZE PUSH0 PUSH0 RETURNDATACOPY RETURNDATASIZE PUSH0 REVERT JUMPDEST POP POP POP POP PUSH1 0x40 MLOAD RETURNDATASIZE PUSH1 0x1F NOT PUSH1 0x1F DUP3 ADD AND DUP3 ADD DUP1 PUSH1 0x40 MSTORE POP DUP2 ADD SWAP1 PUSH2 0x6A9 SWAP2 SWAP1 PUSH2 0x1313 JUMP JUMPDEST PUSH2 0x6DF JUMPI PUSH1 0x40 MLOAD PUSH32 0x9BDE33900000000000000000000000000000000000000000000000000000000 DUP2 MSTORE PUSH1 0x4 ADD PUSH1 0x40 MLOAD DUP1 SWAP2 SUB SWAP1 REVERT JUMPDEST PUSH1 0x1 PUSH1 0x2A PUSH0 DUP6 DUP2 MSTORE PUSH1 0x20 ADD SWAP1 DUP2 MSTORE PUSH1 0x20 ADD PUSH0 KECCAK256 PUSH0 PUSH2 0x100 EXP DUP2 SLOAD DUP2 PUSH1 0xFF MUL NOT AND SWAP1 DUP4 ISZERO ISZERO MUL OR SWAP1 SSTORE POP PUSH0 DUP3 PUSH20 0xFFFFFFFFFFFFFFFFFFFFFFFFFFFFFFFFFFFFFFFF AND PUSH8 0x16345785D8A0000 PUSH1 0x40 MLOAD PUSH2 0x735 SWAP1 PUSH2 0x136B JUMP JUMPDEST PUSH0 PUSH1 0x40 MLOAD DUP1 DUP4 SUB DUP2 DUP6 DUP8 GAS CALL SWAP3 POP POP POP RETURNDATASIZE DUP1 PUSH0 DUP2 EQ PUSH2 0x76F JUMPI PUSH1 0x40 MLOAD SWAP2 POP PUSH1 0x1F NOT PUSH1 0x3F RETURNDATASIZE ADD AND DUP3 ADD PUSH1 0x40 MSTORE RETURNDATASIZE DUP3 MSTORE RETURNDATASIZE PUSH0 PUSH1 0x20 DUP5 ADD RETURNDATACOPY PUSH2 0x774 JUMP JUMPDEST PUSH1 0x60 SWAP2 POP JUMPDEST POP POP SWAP1 POP DUP1 PUSH2 0x7B8 JUMPI PUSH1 0x40 MLOAD PUSH32 0x8C379A000000000000000000000000000000000000000000000000000000000 DUP2 MSTORE PUSH1 0x4 ADD PUSH2 0x7AF SWAP1 PUSH2 0x13D9 JUMP JUMPDEST PUSH1 0x40 MLOAD DUP1 SWAP2 SUB SWAP1 REVERT JUMPDEST DUP3 PUSH20 0xFFFFFFFFFFFFFFFFFFFFFFFFFFFFFFFFFFFFFFFF AND PUSH32 0xCE490531F6C8AE2F1FF174643BC8B7ED5E52987AB50DC1E8F33655D2CD8C90B DUP6 PUSH1 0x40 MLOAD PUSH2 0x7FE SWAP2 SWAP1 PUSH2 0x10F1 JUMP JUMPDEST PUSH1 0x40 MLOAD DUP1 SWAP2 SUB SWAP1 LOG2 POP POP POP POP POP POP POP JUMP JUMPDEST PUSH32 0x0 DUP2 JUMP JUMPDEST PUSH8 0x16345785D8A0000 CALLVALUE EQ PUSH2 0x874 JUMPI PUSH1 0x40 MLOAD PUSH32 0xF067B3C600000000000000000000000000000000000000000000000000000000 DUP2 MSTORE PUSH1 0x4 ADD PUSH1 0x40 MLOAD DUP1 SWAP2 SUB SWAP1 REVERT JUMPDEST PUSH1 0x14 PUSH4 0xFFFFFFFF AND PUSH1 0x1 SWAP1 SHL PUSH4 0xFFFFFFFF AND PUSH1 0x29 PUSH0 SWAP1 SLOAD SWAP1 PUSH2 0x100 EXP SWAP1 DIV PUSH4 0xFFFFFFFF AND PUSH4 0xFFFFFFFF AND LT PUSH2 0x8D5 JUMPI PUSH1 0x40 MLOAD PUSH32 0xED732D0C00000000000000000000000000000000000000000000000000000000 DUP2 MSTORE PUSH1 0x4 ADD PUSH1 0x40 MLOAD DUP1 SWAP2 SUB SWAP1 REVERT JUMPDEST PUSH0 PUSH1 0x29 PUSH0 SWAP1 SLOAD SWAP1 PUSH2 0x100 EXP SWAP1 DIV PUSH4 0xFFFFFFFF AND SWAP1 POP PUSH1 0x29 PUSH0 DUP2 DUP2 SWAP1 SLOAD SWAP1 PUSH2 0x100 EXP SWAP1 DIV PUSH4 0xFFFFFFFF AND DUP1 SWAP3 SWAP2 SWAP1 PUSH2 0x90B SWAP1 PUSH2 0x1424 JUMP JUMPDEST SWAP2 SWAP1 PUSH2 0x100 EXP DUP2 SLOAD DUP2 PUSH4 0xFFFFFFFF MUL NOT AND SWAP1 DUP4 PUSH4 0xFFFFFFFF AND MUL OR SWAP1 SSTORE POP POP PUSH0 DUP5 PUSH0 SHR SWAP1 POP PUSH0 PUSH0 SWAP1 POP JUMPDEST PUSH1 0x14 PUSH4 0xFFFFFFFF AND DUP2 PUSH4 0xFFFFFFFF AND LT ISZERO PUSH2 0xB31 JUMPI PUSH0 PUSH1 0x1 DUP5 AND PUSH4 0xFFFFFFFF AND SUB PUSH2 0xA4B JUMPI DUP2 PUSH0 SHL PUSH1 0x14 DUP3 PUSH4 0xFFFFFFFF AND PUSH1 0x14 DUP2 LT PUSH2 0x977 JUMPI PUSH2 0x976 PUSH2 0x1194 JUMP JUMPDEST JUMPDEST ADD DUP2 SWAP1 SSTORE POP PUSH32 0x0 PUSH20 0xFFFFFFFFFFFFFFFFFFFFFFFFFFFFFFFFFFFFFFFF AND PUSH4 0x29A5F2F6 PUSH1 0x40 MLOAD DUP1 PUSH1 0x40 ADD PUSH1 0x40 MSTORE DUP1 DUP6 DUP2 MSTORE PUSH1 0x20 ADD PUSH0 DUP6 PUSH4 0xFFFFFFFF AND PUSH1 0x14 DUP2 LT PUSH2 0x9E2 JUMPI PUSH2 0x9E1 PUSH2 0x1194 JUMP JUMPDEST JUMPDEST ADD SLOAD PUSH0 SHR DUP2 MSTORE POP PUSH1 0x40 MLOAD DUP3 PUSH4 0xFFFFFFFF AND PUSH1 0xE0 SHL DUP2 MSTORE PUSH1 0x4 ADD PUSH2 0xA05 SWAP2 SWAP1 PUSH2 0x14F4 JUMP JUMPDEST PUSH1 0x20 PUSH1 0x40 MLOAD DUP1 DUP4 SUB DUP2 DUP7 GAS STATICCALL ISZERO DUP1 ISZERO PUSH2 0xA20 JUMPI RETURNDATASIZE PUSH0 PUSH0 RETURNDATACOPY RETURNDATASIZE PUSH0 REVERT JUMPDEST POP POP POP POP PUSH1 0x40 MLOAD RETURNDATASIZE PUSH1 0x1F NOT PUSH1 0x1F DUP3 ADD AND DUP3 ADD DUP1 PUSH1 0x40 MSTORE POP DUP2 ADD SWAP1 PUSH2 0xA44 SWAP2 SWAP1 PUSH2 0x1521 JUMP JUMPDEST SWAP2 POP PUSH2 0xB17 JUMP JUMPDEST PUSH32 0x0 PUSH20 0xFFFFFFFFFFFFFFFFFFFFFFFFFFFFFFFFFFFFFFFF AND PUSH4 0x29A5F2F6 PUSH1 0x40 MLOAD DUP1 PUSH1 0x40 ADD PUSH1 0x40 MSTORE DUP1 PUSH1 0x14 DUP6 PUSH4 0xFFFFFFFF AND PUSH1 0x14 DUP2 LT PUSH2 0xAAC JUMPI PUSH2 0xAAB PUSH2 0x1194 JUMP JUMPDEST JUMPDEST ADD SLOAD PUSH0 SHR DUP2 MSTORE PUSH1 0x20 ADD DUP6 DUP2 MSTORE POP PUSH1 0x40 MLOAD DUP3 PUSH4 0xFFFFFFFF AND PUSH1 0xE0 SHL DUP2 MSTORE PUSH1 0x4 ADD PUSH2 0xAD5 SWAP2 SWAP1 PUSH2 0x14F4 JUMP JUMPDEST PUSH1 0x20 PUSH1 0x40 MLOAD DUP1 DUP4 SUB DUP2 DUP7 GAS STATICCALL ISZERO DUP1 ISZERO PUSH2 0xAF0 JUMPI RETURNDATASIZE PUSH0 PUSH0 RETURNDATACOPY RETURNDATASIZE PUSH0 REVERT JUMPDEST POP POP POP POP PUSH1 0x40 MLOAD RETURNDATASIZE PUSH1 0x1F NOT PUSH1 0x1F DUP3 ADD AND DUP3 ADD DUP1 PUSH1 0x40 MSTORE POP DUP2 ADD SWAP1 PUSH2 0xB14 SWAP2 SWAP1 PUSH2 0x1521 JUMP JUMPDEST SWAP2 POP JUMPDEST PUSH1 0x1 DUP4 PUSH4 0xFFFFFFFF AND SWAP1 SHR SWAP3 POP DUP1 DUP1 PUSH1 0x1 ADD SWAP2 POP POP PUSH2 0x935 JUMP JUMPDEST POP DUP1 PUSH0 SHL PUSH1 0x28 DUP2 SWAP1 SSTORE POP PUSH1 0x1 PUSH1 0x2B PUSH0 PUSH1 0x28 SLOAD DUP2 MSTORE PUSH1 0x20 ADD SWAP1 DUP2 MSTORE PUSH1 0x20 ADD PUSH0 KECCAK256 PUSH0 PUSH2 0x100 EXP DUP2 SLOAD DUP2 PUSH1 0xFF MUL NOT AND SWAP1 DUP4 ISZERO ISZERO MUL OR SWAP1 SSTORE POP PUSH1 0x40 MLOAD DUP1 PUSH1 0x20 ADD PUSH1 0x40 MSTORE DUP1 DUP6 DUP6 DUP1 DUP1 PUSH1 0x1F ADD PUSH1 0x20 DUP1 SWAP2 DIV MUL PUSH1 0x20 ADD PUSH1 0x40 MLOAD SWAP1 DUP2 ADD PUSH1 0x40 MSTORE DUP1 SWAP4 SWAP3 SWAP2 SWAP1 DUP2 DUP2 MSTORE PUSH1 0x20 ADD DUP4 DUP4 DUP1 DUP3 DUP5 CALLDATACOPY PUSH0 DUP2 DUP5 ADD MSTORE PUSH1 0x1F NOT PUSH1 0x1F DUP3 ADD AND SWAP1 POP DUP1 DUP4 ADD SWAP3 POP POP POP POP POP POP POP DUP2 MSTORE POP PUSH1 0x2C PUSH0 DUP8 DUP2 MSTORE PUSH1 0x20 ADD SWAP1 DUP2 MSTORE PUSH1 0x20 ADD PUSH0 KECCAK256 PUSH0 DUP3 ADD MLOAD DUP2 PUSH0 ADD SWAP1 DUP2 PUSH2 0xBDC SWAP2 SWAP1 PUSH2 0x16E3 JUMP JUMPDEST POP SWAP1 POP POP DUP5 PUSH32 0x84FC9EB8CD0A782A1D1734FBEED616BD0EF775F8B9BD437636B62D634FE4BAF3 PUSH1 0x1 PUSH1 0x29 PUSH0 SWAP1 SLOAD SWAP1 PUSH2 0x100 EXP SWAP1 DIV PUSH4 0xFFFFFFFF AND PUSH2 0xC20 SWAP2 SWAP1 PUSH2 0x17B2 JUMP JUMPDEST PUSH1 0x40 MLOAD PUSH2 0xC2D SWAP2 SWAP1 PUSH2 0xCD1 JUMP JUMPDEST PUSH1 0x40 MLOAD DUP1 SWAP2 SUB SWAP1 LOG2 POP POP POP POP POP JUMP JUMPDEST PUSH0 PUSH1 0x2A PUSH0 DUP4 DUP2 MSTORE PUSH1 0x20 ADD SWAP1 DUP2 MSTORE PUSH1 0x20 ADD PUSH0 KECCAK256 PUSH0 SWAP1 SLOAD SWAP1 PUSH2 0x100 EXP SWAP1 DIV PUSH1 0xFF AND SWAP1 POP SWAP2 SWAP1 POP JUMP JUMPDEST PUSH0 DUP2 PUSH1 0x14 DUP2 LT PUSH2 0xC70 JUMPI PUSH0 DUP1 REVERT JUMPDEST ADD PUSH0 SWAP2 POP SWAP1 POP SLOAD DUP2 JUMP JUMPDEST PUSH1 0x14 DUP2 JUMP JUMPDEST PUSH1 0x14 DUP2 PUSH1 0x14 DUP2 LT PUSH2 0xC8E JUMPI PUSH0 DUP1 REVERT JUMPDEST ADD PUSH0 SWAP2 POP SWAP1 POP SLOAD DUP2 JUMP JUMPDEST PUSH1 0x29 PUSH0 SWAP1 SLOAD SWAP1 PUSH2 0x100 EXP SWAP1 DIV PUSH4 0xFFFFFFFF AND DUP2 JUMP JUMPDEST PUSH1 0x28 SLOAD DUP2 JUMP JUMPDEST PUSH0 PUSH4 0xFFFFFFFF DUP3 AND SWAP1 POP SWAP2 SWAP1 POP JUMP JUMPDEST PUSH2 0xCCB DUP2 PUSH2 0xCB3 JUMP JUMPDEST DUP3 MSTORE POP POP JUMP JUMPDEST PUSH0 PUSH1 0x20 DUP3 ADD SWAP1 POP PUSH2 0xCE4 PUSH0 DUP4 ADD DUP5 PUSH2 0xCC2 JUMP JUMPDEST SWAP3 SWAP2 POP POP JUMP JUMPDEST PUSH0 PUSH0 REVERT JUMPDEST PUSH0 PUSH0 REVERT JUMPDEST PUSH0 DUP2 SWAP1 POP SWAP2 SWAP1 POP JUMP JUMPDEST PUSH2 0xD04 DUP2 PUSH2 0xCF2 JUMP JUMPDEST DUP2 EQ PUSH2 0xD0E JUMPI PUSH0 PUSH0 REVERT JUMPDEST POP JUMP JUMPDEST PUSH0 DUP2 CALLDATALOAD SWAP1 POP PUSH2 0xD1F DUP2 PUSH2 0xCFB JUMP JUMPDEST SWAP3 SWAP2 POP POP JUMP JUMPDEST PUSH0 PUSH1 0x20 DUP3 DUP5 SUB SLT ISZERO PUSH2 0xD3A JUMPI PUSH2 0xD39 PUSH2 0xCEA JUMP JUMPDEST JUMPDEST PUSH0 PUSH2 0xD47 DUP5 DUP3 DUP6 ADD PUSH2 0xD11 JUMP JUMPDEST SWAP2 POP POP SWAP3 SWAP2 POP POP JUMP JUMPDEST PUSH0 DUP2 ISZERO ISZERO SWAP1 POP SWAP2 SWAP1 POP JUMP JUMPDEST PUSH2 0xD64 DUP2 PUSH2 0xD50 JUMP JUMPDEST DUP3 MSTORE POP POP JUMP JUMPDEST PUSH0 PUSH1 0x20 DUP3 ADD SWAP1 POP PUSH2 0xD7D PUSH0 DUP4 ADD DUP5 PUSH2 0xD5B JUMP JUMPDEST SWAP3 SWAP2 POP POP JUMP JUMPDEST PUSH0 PUSH20 0xFFFFFFFFFFFFFFFFFFFFFFFFFFFFFFFFFFFFFFFF DUP3 AND SWAP1 POP SWAP2 SWAP1 POP JUMP JUMPDEST PUSH0 DUP2 SWAP1 POP SWAP2 SWAP1 POP JUMP JUMPDEST PUSH0 PUSH2 0xDC5 PUSH2 0xDC0 PUSH2 0xDBB DUP5 PUSH2 0xD83 JUMP JUMPDEST PUSH2 0xDA2 JUMP JUMPDEST PUSH2 0xD83 JUMP JUMPDEST SWAP1 POP SWAP2 SWAP1 POP JUMP JUMPDEST PUSH0 PUSH2 0xDD6 DUP3 PUSH2 0xDAB JUMP JUMPDEST SWAP1 POP SWAP2 SWAP1 POP JUMP JUMPDEST PUSH0 PUSH2 0xDE7 DUP3 PUSH2 0xDCC JUMP JUMPDEST SWAP1 POP SWAP2 SWAP1 POP JUMP JUMPDEST PUSH2 0xDF7 DUP2 PUSH2 0xDDD JUMP JUMPDEST DUP3 MSTORE POP POP JUMP JUMPDEST PUSH0 PUSH1 0x20 DUP3 ADD SWAP1 POP PUSH2 0xE10 PUSH0 DUP4 ADD DUP5 PUSH2 0xDEE JUMP JUMPDEST SWAP3 SWAP2 POP POP JUMP JUMPDEST PUSH0 DUP2 MLOAD SWAP1 POP SWAP2 SWAP1 POP JUMP JUMPDEST PUSH0 DUP3 DUP3 MSTORE PUSH1 0x20 DUP3 ADD SWAP1 POP SWAP3 SWAP2 POP POP JUMP JUMPDEST DUP3 DUP2 DUP4 MCOPY PUSH0 DUP4 DUP4 ADD MSTORE POP POP POP JUMP JUMPDEST PUSH0 PUSH1 0x1F NOT PUSH1 0x1F DUP4 ADD AND SWAP1 POP SWAP2 SWAP1 POP JUMP JUMPDEST PUSH0 PUSH2 0xE58 DUP3 PUSH2 0xE16 JUMP JUMPDEST PUSH2 0xE62 DUP2 DUP6 PUSH2 0xE20 JUMP JUMPDEST SWAP4 POP PUSH2 0xE72 DUP2 DUP6 PUSH1 0x20 DUP7 ADD PUSH2 0xE30 JUMP JUMPDEST PUSH2 0xE7B DUP2 PUSH2 0xE3E JUMP JUMPDEST DUP5 ADD SWAP2 POP POP SWAP3 SWAP2 POP POP JUMP JUMPDEST PUSH0 PUSH1 0x20 DUP3 ADD SWAP1 POP DUP2 DUP2 SUB PUSH0 DUP4 ADD MSTORE PUSH2 0xE9E DUP2 DUP5 PUSH2 0xE4E JUMP JUMPDEST SWAP1 POP SWAP3 SWAP2 POP POP JUMP JUMPDEST PUSH0 DUP2 SWAP1 POP SWAP2 SWAP1 POP JUMP JUMPDEST PUSH2 0xEB8 DUP2 PUSH2 0xEA6 JUMP JUMPDEST DUP3 MSTORE POP POP JUMP JUMPDEST PUSH0 PUSH1 0x20 DUP3 ADD SWAP1 POP PUSH2 0xED1 PUSH0 DUP4 ADD DUP5 PUSH2 0xEAF JUMP JUMPDEST SWAP3 SWAP2 POP POP JUMP JUMPDEST PUSH0 PUSH0 REVERT JUMPDEST PUSH0 PUSH0 REVERT JUMPDEST PUSH0 PUSH0 REVERT JUMPDEST PUSH0 PUSH0 DUP4 PUSH1 0x1F DUP5 ADD SLT PUSH2 0xEF8 JUMPI PUSH2 0xEF7 PUSH2 0xED7 JUMP JUMPDEST JUMPDEST DUP3 CALLDATALOAD SWAP1 POP PUSH8 0xFFFFFFFFFFFFFFFF DUP2 GT ISZERO PUSH2 0xF15 JUMPI PUSH2 0xF14 PUSH2 0xEDB JUMP JUMPDEST JUMPDEST PUSH1 0x20 DUP4 ADD SWAP2 POP DUP4 PUSH1 0x1 DUP3 MUL DUP4 ADD GT ISZERO PUSH2 0xF31 JUMPI PUSH2 0xF30 PUSH2 0xEDF JUMP JUMPDEST JUMPDEST SWAP3 POP SWAP3 SWAP1 POP JUMP JUMPDEST PUSH0 PUSH2 0xF42 DUP3 PUSH2 0xD83 JUMP JUMPDEST SWAP1 POP SWAP2 SWAP1 POP JUMP JUMPDEST PUSH2 0xF52 DUP2 PUSH2 0xF38 JUMP JUMPDEST DUP2 EQ PUSH2 0xF5C JUMPI PUSH0 PUSH0 REVERT JUMPDEST POP JUMP JUMPDEST PUSH0 DUP2 CALLDATALOAD SWAP1 POP PUSH2 0xF6D DUP2 PUSH2 0xF49 JUMP JUMPDEST SWAP3 SWAP2 POP POP JUMP JUMPDEST PUSH0 PUSH0 PUSH0 PUSH0 PUSH0 PUSH1 0x80 DUP7 DUP9 SUB SLT ISZERO PUSH2 0xF8C JUMPI PUSH2 0xF8B PUSH2 0xCEA JUMP JUMPDEST JUMPDEST PUSH0 DUP7 ADD CALLDATALOAD PUSH8 0xFFFFFFFFFFFFFFFF DUP2 GT ISZERO PUSH2 0xFA9 JUMPI PUSH2 0xFA8 PUSH2 0xCEE JUMP JUMPDEST JUMPDEST PUSH2 0xFB5 DUP9 DUP3 DUP10 ADD PUSH2 0xEE3 JUMP JUMPDEST SWAP6 POP SWAP6 POP POP PUSH1 0x20 PUSH2 0xFC8 DUP9 DUP3 DUP10 ADD PUSH2 0xD11 JUMP JUMPDEST SWAP4 POP POP PUSH1 0x40 PUSH2 0xFD9 DUP9 DUP3 DUP10 ADD PUSH2 0xD11 JUMP JUMPDEST SWAP3 POP POP PUSH1 0x60 PUSH2 0xFEA DUP9 DUP3 DUP10 ADD PUSH2 0xF5F JUMP JUMPDEST SWAP2 POP POP SWAP3 SWAP6 POP SWAP3 SWAP6 SWAP1 SWAP4 POP JUMP JUMPDEST PUSH0 PUSH2 0x1001 DUP3 PUSH2 0xDCC JUMP JUMPDEST SWAP1 POP SWAP2 SWAP1 POP JUMP JUMPDEST PUSH2 0x1011 DUP2 PUSH2 0xFF7 JUMP JUMPDEST DUP3 MSTORE POP POP JUMP JUMPDEST PUSH0 PUSH1 0x20 DUP3 ADD SWAP1 POP PUSH2 0x102A PUSH0 DUP4 ADD DUP5 PUSH2 0x1008 JUMP JUMPDEST SWAP3 SWAP2 POP POP JUMP JUMPDEST PUSH0 PUSH0 PUSH0 PUSH1 0x40 DUP5 DUP7 SUB SLT ISZERO PUSH2 0x1047 JUMPI PUSH2 0x1046 PUSH2 0xCEA JUMP JUMPDEST JUMPDEST PUSH0 PUSH2 0x1054 DUP7 DUP3 DUP8 ADD PUSH2 0xD11 JUMP JUMPDEST SWAP4 POP POP PUSH1 0x20 DUP5 ADD CALLDATALOAD PUSH8 0xFFFFFFFFFFFFFFFF DUP2 GT ISZERO PUSH2 0x1075 JUMPI PUSH2 0x1074 PUSH2 0xCEE JUMP JUMPDEST JUMPDEST PUSH2 0x1081 DUP7 DUP3 DUP8 ADD PUSH2 0xEE3 JUMP JUMPDEST SWAP3 POP SWAP3 POP POP SWAP3 POP SWAP3 POP SWAP3 JUMP JUMPDEST PUSH2 0x1096 DUP2 PUSH2 0xEA6 JUMP JUMPDEST DUP2 EQ PUSH2 0x10A0 JUMPI PUSH0 PUSH0 REVERT JUMPDEST POP JUMP JUMPDEST PUSH0 DUP2 CALLDATALOAD SWAP1 POP PUSH2 0x10B1 DUP2 PUSH2 0x108D JUMP JUMPDEST SWAP3 SWAP2 POP POP JUMP JUMPDEST PUSH0 PUSH1 0x20 DUP3 DUP5 SUB SLT ISZERO PUSH2 0x10CC JUMPI PUSH2 0x10CB PUSH2 0xCEA JUMP JUMPDEST JUMPDEST PUSH0 PUSH2 0x10D9 DUP5 DUP3 DUP6 ADD PUSH2 0x10A3 JUMP JUMPDEST SWAP2 POP POP SWAP3 SWAP2 POP POP JUMP JUMPDEST PUSH2 0x10EB DUP2 PUSH2 0xCF2 JUMP JUMPDEST DUP3 MSTORE POP POP JUMP JUMPDEST PUSH0 PUSH1 0x20 DUP3 ADD SWAP1 POP PUSH2 0x1104 PUSH0 DUP4 ADD DUP5 PUSH2 0x10E2 JUMP JUMPDEST SWAP3 SWAP2 POP POP JUMP JUMPDEST PUSH32 0x4E487B7100000000000000000000000000000000000000000000000000000000 PUSH0 MSTORE PUSH1 0x22 PUSH1 0x4 MSTORE PUSH1 0x24 PUSH0 REVERT JUMPDEST PUSH0 PUSH1 0x2 DUP3 DIV SWAP1 POP PUSH1 0x1 DUP3 AND DUP1 PUSH2 0x114E JUMPI PUSH1 0x7F DUP3 AND SWAP2 POP JUMPDEST PUSH1 0x20 DUP3 LT DUP2 SUB PUSH2 0x1161 JUMPI PUSH2 0x1160 PUSH2 0x110A JUMP JUMPDEST JUMPDEST POP SWAP2 SWAP1 POP JUMP JUMPDEST PUSH32 0x4E487B7100000000000000000000000000000000000000000000000000000000 PUSH0 MSTORE PUSH1 0x41 PUSH1 0x4 MSTORE PUSH1 0x24 PUSH0 REVERT JUMPDEST PUSH32 0x4E487B7100000000000000000000000000000000000000000000000000000000 PUSH0 MSTORE PUSH1 0x32 PUSH1 0x4 MSTORE PUSH1 0x24 PUSH0 REVERT JUMPDEST DUP3 DUP2 DUP4 CALLDATACOPY PUSH0 DUP4 DUP4 ADD MSTORE POP POP POP JUMP JUMPDEST PUSH0 PUSH2 0x11DA DUP4 DUP6 PUSH2 0xE20 JUMP JUMPDEST SWAP4 POP PUSH2 0x11E7 DUP4 DUP6 DUP5 PUSH2 0x11C1 JUMP JUMPDEST PUSH2 0x11F0 DUP4 PUSH2 0xE3E JUMP JUMPDEST DUP5 ADD SWAP1 POP SWAP4 SWAP3 POP POP POP JUMP JUMPDEST PUSH0 DUP2 MLOAD SWAP1 POP SWAP2 SWAP1 POP JUMP JUMPDEST PUSH0 DUP3 DUP3 MSTORE PUSH1 0x20 DUP3 ADD SWAP1 POP SWAP3 SWAP2 POP POP JUMP JUMPDEST PUSH0 DUP2 SWAP1 POP PUSH1 0x20 DUP3 ADD SWAP1 POP SWAP2 SWAP1 POP JUMP JUMPDEST PUSH2 0x122D DUP2 PUSH2 0xCF2 JUMP JUMPDEST DUP3 MSTORE POP POP JUMP JUMPDEST PUSH0 PUSH2 0x123E DUP4 DUP4 PUSH2 0x1224 JUMP JUMPDEST PUSH1 0x20 DUP4 ADD SWAP1 POP SWAP3 SWAP2 POP POP JUMP JUMPDEST PUSH0 PUSH1 0x20 DUP3 ADD SWAP1 POP SWAP2 SWAP1 POP JUMP JUMPDEST PUSH0 PUSH2 0x1260 DUP3 PUSH2 0x11FB JUMP JUMPDEST PUSH2 0x126A DUP2 DUP6 PUSH2 0x1205 JUMP JUMPDEST SWAP4 POP PUSH2 0x1275 DUP4 PUSH2 0x1215 JUMP JUMPDEST DUP1 PUSH0 JUMPDEST DUP4 DUP2 LT ISZERO PUSH2 0x12A5 JUMPI DUP2 MLOAD PUSH2 0x128C DUP9 DUP3 PUSH2 0x1233 JUMP JUMPDEST SWAP8 POP PUSH2 0x1297 DUP4 PUSH2 0x124A JUMP JUMPDEST SWAP3 POP POP PUSH1 0x1 DUP2 ADD SWAP1 POP PUSH2 0x1278 JUMP JUMPDEST POP DUP6 SWAP4 POP POP POP POP SWAP3 SWAP2 POP POP JUMP JUMPDEST PUSH0 PUSH1 0x40 DUP3 ADD SWAP1 POP DUP2 DUP2 SUB PUSH0 DUP4 ADD MSTORE PUSH2 0x12CB DUP2 DUP6 DUP8 PUSH2 0x11CF JUMP JUMPDEST SWAP1 POP DUP2 DUP2 SUB PUSH1 0x20 DUP4 ADD MSTORE PUSH2 0x12DF DUP2 DUP5 PUSH2 0x1256 JUMP JUMPDEST SWAP1 POP SWAP5 SWAP4 POP POP POP POP JUMP JUMPDEST PUSH2 0x12F2 DUP2 PUSH2 0xD50 JUMP JUMPDEST DUP2 EQ PUSH2 0x12FC JUMPI PUSH0 PUSH0 REVERT JUMPDEST POP JUMP JUMPDEST PUSH0 DUP2 MLOAD SWAP1 POP PUSH2 0x130D DUP2 PUSH2 0x12E9 JUMP JUMPDEST SWAP3 SWAP2 POP POP JUMP JUMPDEST PUSH0 PUSH1 0x20 DUP3 DUP5 SUB SLT ISZERO PUSH2 0x1328 JUMPI PUSH2 0x1327 PUSH2 0xCEA JUMP JUMPDEST JUMPDEST PUSH0 PUSH2 0x1335 DUP5 DUP3 DUP6 ADD PUSH2 0x12FF JUMP JUMPDEST SWAP2 POP POP SWAP3 SWAP2 POP POP JUMP JUMPDEST PUSH0 DUP2 SWAP1 POP SWAP3 SWAP2 POP POP JUMP JUMPDEST POP JUMP JUMPDEST PUSH0 PUSH2 0x1356 PUSH0 DUP4 PUSH2 0x133E JUMP JUMPDEST SWAP2 POP PUSH2 0x1361 DUP3 PUSH2 0x1348 JUMP JUMPDEST PUSH0 DUP3 ADD SWAP1 POP SWAP2 SWAP1 POP JUMP JUMPDEST PUSH0 PUSH2 0x1375 DUP3 PUSH2 0x134B JUMP JUMPDEST SWAP2 POP DUP2 SWAP1 POP SWAP2 SWAP1 POP JUMP JUMPDEST PUSH0 DUP3 DUP3 MSTORE PUSH1 0x20 DUP3 ADD SWAP1 POP SWAP3 SWAP2 POP POP JUMP JUMPDEST PUSH32 0x4D4E54207472616E73666572206661696C656400000000000000000000000000 PUSH0 DUP3 ADD MSTORE POP JUMP JUMPDEST PUSH0 PUSH2 0x13C3 PUSH1 0x13 DUP4 PUSH2 0x137F JUMP JUMPDEST SWAP2 POP PUSH2 0x13CE DUP3 PUSH2 0x138F JUMP JUMPDEST PUSH1 0x20 DUP3 ADD SWAP1 POP SWAP2 SWAP1 POP JUMP JUMPDEST PUSH0 PUSH1 0x20 DUP3 ADD SWAP1 POP DUP2 DUP2 SUB PUSH0 DUP4 ADD MSTORE PUSH2 0x13F0 DUP2 PUSH2 0x13B7 JUMP JUMPDEST SWAP1 POP SWAP2 SWAP1 POP JUMP JUMPDEST PUSH32 0x4E487B7100000000000000000000000000000000000000000000000000000000 PUSH0 MSTORE PUSH1 0x11 PUSH1 0x4 MSTORE PUSH1 0x24 PUSH0 REVERT JUMPDEST PUSH0 PUSH2 0x142E DUP3 PUSH2 0xCB3 JUMP JUMPDEST SWAP2 POP PUSH4 0xFFFFFFFF DUP3 SUB PUSH2 0x1444 JUMPI PUSH2 0x1443 PUSH2 0x13F7 JUMP JUMPDEST JUMPDEST PUSH1 0x1 DUP3 ADD SWAP1 POP SWAP2 SWAP1 POP JUMP JUMPDEST PUSH0 PUSH1 0x2 SWAP1 POP SWAP2 SWAP1 POP JUMP JUMPDEST PUSH0 DUP2 SWAP1 POP SWAP3 SWAP2 POP POP JUMP JUMPDEST PUSH0 DUP2 SWAP1 POP SWAP2 SWAP1 POP JUMP JUMPDEST PUSH2 0x1475 DUP2 PUSH2 0xEA6 JUMP JUMPDEST DUP3 MSTORE POP POP JUMP JUMPDEST PUSH0 PUSH2 0x1486 DUP4 DUP4 PUSH2 0x146C JUMP JUMPDEST PUSH1 0x20 DUP4 ADD SWAP1 POP SWAP3 SWAP2 POP POP JUMP JUMPDEST PUSH0 PUSH1 0x20 DUP3 ADD SWAP1 POP SWAP2 SWAP1 POP JUMP JUMPDEST PUSH2 0x14A7 DUP2 PUSH2 0x144F JUMP JUMPDEST PUSH2 0x14B1 DUP2 DUP5 PUSH2 0x1459 JUMP JUMPDEST SWAP3 POP PUSH2 0x14BC DUP3 PUSH2 0x1463 JUMP JUMPDEST DUP1 PUSH0 JUMPDEST DUP4 DUP2 LT ISZERO PUSH2 0x14EC JUMPI DUP2 MLOAD PUSH2 0x14D3 DUP8 DUP3 PUSH2 0x147B JUMP JUMPDEST SWAP7 POP PUSH2 0x14DE DUP4 PUSH2 0x1492 JUMP JUMPDEST SWAP3 POP POP PUSH1 0x1 DUP2 ADD SWAP1 POP PUSH2 0x14BF JUMP JUMPDEST POP POP POP POP POP POP JUMP JUMPDEST PUSH0 PUSH1 0x40 DUP3 ADD SWAP1 POP PUSH2 0x1507 PUSH0 DUP4 ADD DUP5 PUSH2 0x149E JUMP JUMPDEST SWAP3 SWAP2 POP POP JUMP JUMPDEST PUSH0 DUP2 MLOAD SWAP1 POP PUSH2 0x151B DUP2 PUSH2 0x108D JUMP JUMPDEST SWAP3 SWAP2 POP POP JUMP JUMPDEST PUSH0 PUSH1 0x20 DUP3 DUP5 SUB SLT ISZERO PUSH2 0x1536 JUMPI PUSH2 0x1535 PUSH2 0xCEA JUMP JUMPDEST JUMPDEST PUSH0 PUSH2 0x1543 DUP5 DUP3 DUP6 ADD PUSH2 0x150D JUMP JUMPDEST SWAP2 POP POP SWAP3 SWAP2 POP POP JUMP JUMPDEST PUSH0 DUP2 SWAP1 POP DUP2 PUSH0 MSTORE PUSH1 0x20 PUSH0 KECCAK256 SWAP1 POP SWAP2 SWAP1 POP JUMP JUMPDEST PUSH0 PUSH1 0x20 PUSH1 0x1F DUP4 ADD DIV SWAP1 POP SWAP2 SWAP1 POP JUMP JUMPDEST PUSH0 DUP3 DUP3 SHL SWAP1 POP SWAP3 SWAP2 POP POP JUMP JUMPDEST PUSH0 PUSH1 0x8 DUP4 MUL PUSH2 0x15A8 PUSH32 0xFFFFFFFFFFFFFFFFFFFFFFFFFFFFFFFFFFFFFFFFFFFFFFFFFFFFFFFFFFFFFFFF DUP3 PUSH2 0x156D JUMP JUMPDEST PUSH2 0x15B2 DUP7 DUP4 PUSH2 0x156D JUMP JUMPDEST SWAP6 POP DUP1 NOT DUP5 AND SWAP4 POP DUP1 DUP7 AND DUP5 OR SWAP3 POP POP POP SWAP4 SWAP3 POP POP POP JUMP JUMPDEST PUSH0 PUSH2 0x15E4 PUSH2 0x15DF PUSH2 0x15DA DUP5 PUSH2 0xEA6 JUMP JUMPDEST PUSH2 0xDA2 JUMP JUMPDEST PUSH2 0xEA6 JUMP JUMPDEST SWAP1 POP SWAP2 SWAP1 POP JUMP JUMPDEST PUSH0 DUP2 SWAP1 POP SWAP2 SWAP1 POP JUMP JUMPDEST PUSH2 0x15FD DUP4 PUSH2 0x15CA JUMP JUMPDEST PUSH2 0x1611 PUSH2 0x1609 DUP3 PUSH2 0x15EB JUMP JUMPDEST DUP5 DUP5 SLOAD PUSH2 0x1579 JUMP JUMPDEST DUP3 SSTORE POP POP POP POP JUMP JUMPDEST PUSH0 PUSH0 SWAP1 POP SWAP1 JUMP JUMPDEST PUSH2 0x1628 PUSH2 0x1619 JUMP JUMPDEST PUSH2 0x1633 DUP2 DUP5 DUP5 PUSH2 0x15F4 JUMP JUMPDEST POP POP POP JUMP JUMPDEST JUMPDEST DUP2 DUP2 LT ISZERO PUSH2 0x1656 JUMPI PUSH2 0x164B PUSH0 DUP3 PUSH2 0x1620 JUMP JUMPDEST PUSH1 0x1 DUP2 ADD SWAP1 POP PUSH2 0x1639 JUMP JUMPDEST POP POP JUMP JUMPDEST PUSH1 0x1F DUP3 GT ISZERO PUSH2 0x169B JUMPI PUSH2 0x166C DUP2 PUSH2 0x154C JUMP JUMPDEST PUSH2 0x1675 DUP5 PUSH2 0x155E JUMP JUMPDEST DUP2 ADD PUSH1 0x20 DUP6 LT ISZERO PUSH2 0x1684 JUMPI DUP2 SWAP1 POP JUMPDEST PUSH2 0x1698 PUSH2 0x1690 DUP6 PUSH2 0x155E JUMP JUMPDEST DUP4 ADD DUP3 PUSH2 0x1638 JUMP JUMPDEST POP POP JUMPDEST POP POP POP JUMP JUMPDEST PUSH0 DUP3 DUP3 SHR SWAP1 POP SWAP3 SWAP2 POP POP JUMP JUMPDEST PUSH0 PUSH2 0x16BB PUSH0 NOT DUP5 PUSH1 0x8 MUL PUSH2 0x16A0 JUMP JUMPDEST NOT DUP1 DUP4 AND SWAP2 POP POP SWAP3 SWAP2 POP POP JUMP JUMPDEST PUSH0 PUSH2 0x16D3 DUP4 DUP4 PUSH2 0x16AC JUMP JUMPDEST SWAP2 POP DUP3 PUSH1 0x2 MUL DUP3 OR SWAP1 POP SWAP3 SWAP2 POP POP JUMP JUMPDEST PUSH2 0x16EC DUP3 PUSH2 0xE16 JUMP JUMPDEST PUSH8 0xFFFFFFFFFFFFFFFF DUP2 GT ISZERO PUSH2 0x1705 JUMPI PUSH2 0x1704 PUSH2 0x1167 JUMP JUMPDEST JUMPDEST PUSH2 0x170F DUP3 SLOAD PUSH2 0x1137 JUMP JUMPDEST PUSH2 0x171A DUP3 DUP3 DUP6 PUSH2 0x165A JUMP JUMPDEST PUSH0 PUSH1 0x20 SWAP1 POP PUSH1 0x1F DUP4 GT PUSH1 0x1 DUP2 EQ PUSH2 0x174B JUMPI PUSH0 DUP5 ISZERO PUSH2 0x1739 JUMPI DUP3 DUP8 ADD MLOAD SWAP1 POP JUMPDEST PUSH2 0x1743 DUP6 DUP3 PUSH2 0x16C8 JUMP JUMPDEST DUP7 SSTORE POP PUSH2 0x17AA JUMP JUMPDEST PUSH1 0x1F NOT DUP5 AND PUSH2 0x1759 DUP7 PUSH2 0x154C JUMP JUMPDEST PUSH0 JUMPDEST DUP3 DUP2 LT ISZERO PUSH2 0x1780 JUMPI DUP5 DUP10 ADD MLOAD DUP3 SSTORE PUSH1 0x1 DUP3 ADD SWAP2 POP PUSH1 0x20 DUP6 ADD SWAP5 POP PUSH1 0x20 DUP2 ADD SWAP1 POP PUSH2 0x175B JUMP JUMPDEST DUP7 DUP4 LT ISZERO PUSH2 0x179D JUMPI DUP5 DUP10 ADD MLOAD PUSH2 0x1799 PUSH1 0x1F DUP10 AND DUP3 PUSH2 0x16AC JUMP JUMPDEST DUP4 SSTORE POP JUMPDEST PUSH1 0x1 PUSH1 0x2 DUP9 MUL ADD DUP9 SSTORE POP POP POP JUMPDEST POP POP POP POP POP POP JUMP JUMPDEST PUSH0 PUSH2 0x17BC DUP3 PUSH2 0xCB3 JUMP JUMPDEST SWAP2 POP PUSH2 0x17C7 DUP4 PUSH2 0xCB3 JUMP JUMPDEST SWAP3 POP DUP3 DUP3 SUB SWAP1 POP PUSH4 0xFFFFFFFF DUP2 GT ISZERO PUSH2 0x17E3 JUMPI PUSH2 0x17E2 PUSH2 0x13F7 JUMP JUMPDEST JUMPDEST SWAP3 SWAP2 POP POP JUMP INVALID LOG2 PUSH5 0x6970667358 0x22 SLT KECCAK256 JUMPF 0x8C5A CALLDATACOPY PUSH23 0xD5159C98FA1D8C19ECF1A6602EFA15A68353053DD816 EXTCODESIZE CALLF 0xEC88 PUSH5 0x736F6C6343 STOP ADDMOD 0x1F STOP CALLER "
				},
				"gasEstimates": {
					"creation": {
						"codeDepositCost": "1235000",
						"executionCost": "infinite",
						"totalCost": "infinite"
					},
					"external": {
						"DENOMINATION()": "392",
						"MAX_LEAVES()": "370",
						"TREE_DEPTH()": "353",
						"currentRoot()": "2513",
						"deposit(bytes32,bytes)": "infinite",
						"filledSubtrees(uint256)": "2766",
						"isSpent(bytes32)": "2877",
						"knownRoots(bytes32)": "2808",
						"nextIndex()": "2532",
						"notes(bytes32)": "infinite",
						"nullifierHashes(bytes32)": "2831",
						"poseidon()": "infinite",
						"verifier()": "infinite",
						"withdraw(bytes,bytes32,bytes32,address)": "infinite",
						"zeros(uint256)": "2810"
					}
				},
				"methodIdentifiers": {
					"DENOMINATION()": "8b01429d",
					"MAX_LEAVES()": "082febf0",
					"TREE_DEPTH()": "f1650536",
					"currentRoot()": "fdab463d",
					"deposit(bytes32,bytes)": "e29973fc",
					"filledSubtrees(uint256)": "f178e47c",
					"isSpent(bytes32)": "e5285dcc",
					"knownRoots(bytes32)": "4e73da7d",
					"nextIndex()": "fc7e9c6f",
					"notes(bytes32)": "85de26b7",
					"nullifierHashes(bytes32)": "17cc915c",
					"poseidon()": "c62b919e",
					"verifier()": "2b7ac3f3",
					"withdraw(bytes,bytes32,bytes32,address)": "b130eaa6",
					"zeros(uint256)": "e8295588"
				}
			},
			"storageLayout": {
				"storage": [
					{
						"astId": 69,
						"contract": "contracts/SwirlPrivatePool_Denomination1ether1.sol:SwirlPrivatePoolDenomination1Ether",
						"label": "zeros",
						"offset": 0,
						"slot": "0",
						"type": "t_array(t_bytes32)20_storage"
					},
					{
						"astId": 73,
						"contract": "contracts/SwirlPrivatePool_Denomination1ether1.sol:SwirlPrivatePoolDenomination1Ether",
						"label": "filledSubtrees",
						"offset": 0,
						"slot": "20",
						"type": "t_array(t_bytes32)20_storage"
					},
					{
						"astId": 75,
						"contract": "contracts/SwirlPrivatePool_Denomination1ether1.sol:SwirlPrivatePoolDenomination1Ether",
						"label": "currentRoot",
						"offset": 0,
						"slot": "40",
						"type": "t_bytes32"
					},
					{
						"astId": 77,
						"contract": "contracts/SwirlPrivatePool_Denomination1ether1.sol:SwirlPrivatePoolDenomination1Ether",
						"label": "nextIndex",
						"offset": 0,
						"slot": "41",
						"type": "t_uint32"
					},
					{
						"astId": 81,
						"contract": "contracts/SwirlPrivatePool_Denomination1ether1.sol:SwirlPrivatePoolDenomination1Ether",
						"label": "nullifierHashes",
						"offset": 0,
						"slot": "42",
						"type": "t_mapping(t_bytes32,t_bool)"
					},
					{
						"astId": 85,
						"contract": "contracts/SwirlPrivatePool_Denomination1ether1.sol:SwirlPrivatePoolDenomination1Ether",
						"label": "knownRoots",
						"offset": 0,
						"slot": "43",
						"type": "t_mapping(t_bytes32,t_bool)"
					},
					{
						"astId": 93,
						"contract": "contracts/SwirlPrivatePool_Denomination1ether1.sol:SwirlPrivatePoolDenomination1Ether",
						"label": "notes",
						"offset": 0,
						"slot": "44",
						"type": "t_mapping(t_bytes32,t_struct(EncryptedNote)88_storage)"
					}
				],
				"types": {
					"t_array(t_bytes32)20_storage": {
						"base": "t_bytes32",
						"encoding": "inplace",
						"label": "bytes32[20]",
						"numberOfBytes": "640"
					},
					"t_bool": {
						"encoding": "inplace",
						"label": "bool",
						"numberOfBytes": "1"
					},
					"t_bytes32": {
						"encoding": "inplace",
						"label": "bytes32",
						"numberOfBytes": "32"
					},
					"t_bytes_storage": {
						"encoding": "bytes",
						"label": "bytes",
						"numberOfBytes": "32"
					},
					"t_mapping(t_bytes32,t_bool)": {
						"encoding": "mapping",
						"key": "t_bytes32",
						"label": "mapping(bytes32 => bool)",
						"numberOfBytes": "32",
						"value": "t_bool"
					},
					"t_mapping(t_bytes32,t_struct(EncryptedNote)88_storage)": {
						"encoding": "mapping",
						"key": "t_bytes32",
						"label": "mapping(bytes32 => struct SwirlPrivatePoolDenomination1Ether.EncryptedNote)",
						"numberOfBytes": "32",
						"value": "t_struct(EncryptedNote)88_storage"
					},
					"t_struct(EncryptedNote)88_storage": {
						"encoding": "inplace",
						"label": "struct SwirlPrivatePoolDenomination1Ether.EncryptedNote",
						"members": [
							{
								"astId": 87,
								"contract": "contracts/SwirlPrivatePool_Denomination1ether1.sol:SwirlPrivatePoolDenomination1Ether",
								"label": "ciphertext",
								"offset": 0,
								"slot": "0",
								"type": "t_bytes_storage"
							}
						],
						"numberOfBytes": "32"
					},
					"t_uint32": {
						"encoding": "inplace",
						"label": "uint32",
						"numberOfBytes": "4"
					}
				}
			},
			"userdoc": {
				"kind": "user",
				"methods": {},
				"version": 1
			}
		}
	}
}