{
	"contracts/MockVerifier.sol": {
		"MockVerifier": {
			"abi": [
				{
					"inputs": [
						{
							"internalType": "bytes",
							"name": "",
							"type": "bytes"
						},
						{
							"internalType": "bytes32[]",
							"name": "",
							"type": "bytes32[]"
						}
					],
					"name": "verify",
					"outputs": [
						{
							"internalType": "bool",
							"name": "",
							"type": "bool"
						}
					],
					"stateMutability": "pure",
					"type": "function"
				}
			],
			"devdoc": {
				"kind": "dev",
				"methods": {},
				"version": 1
			},
			"evm": {
				"assembly": "    /* \"contracts/MockVerifier.sol\":158:326  contract MockVerifier {... */\n  mstore(0x40, 0x80)\n  callvalue\n  dup1\n  iszero\n  tag_1\n  jumpi\n  revert(0x00, 0x00)\ntag_1:\n  pop\n  dataSize(sub_0)\n  dup1\n  dataOffset(sub_0)\n  0x00\n  codecopy\n  0x00\n  return\nstop\n\nsub_0: assembly {\n        /* \"contracts/MockVerifier.sol\":158:326  contract MockVerifier {... */\n      mstore(0x40, 0x80)\n      callvalue\n      dup1\n      iszero\n      tag_1\n      jumpi\n      revert(0x00, 0x00)\n    tag_1:\n      pop\n      jumpi(tag_2, lt(calldatasize, 0x04))\n      shr(0xe0, calldataload(0x00))\n      dup1\n      0xea50d0e4\n      eq\n      tag_3\n      jumpi\n    tag_2:\n      revert(0x00, 0x00)\n        /* \"contracts/MockVerifier.sol\":187:323  function verify(... */\n    tag_3:\n      tag_4\n      0x04\n      dup1\n      calldatasize\n      sub\n      dup2\n      add\n      swap1\n      tag_5\n      swap2\n      swap1\n      tag_6\n      jump\t// in\n    tag_5:\n      tag_7\n      jump\t// in\n    tag_4:\n      mload(0x40)\n      tag_8\n      swap2\n      swap1\n      tag_9\n      jump\t// in\n    tag_8:\n      mload(0x40)\n      dup1\n      swap2\n      sub\n      swap1\n      return\n    tag_7:\n        /* \"contracts/MockVerifier.sol\":287:291  bool */\n      0x00\n        /* \"contracts/MockVerifier.sol\":311:315  true */\n      0x01\n        /* \"contracts/MockVerifier.sol\":304:315  return true */\n      swap1\n      pop\n        /* \"contracts/MockVerifier.sol\":187:323  function verify(... */\n      swap5\n      swap4\n      pop\n      pop\n      pop\n      pop\n      jump\t// out\n        /* \"#utility.yul\":88:205   */\n    tag_12:\n        /* \"#utility.yul\":197:198   */\n      0x00\n        /* \"#utility.yul\":194:195   */\n      0x00\n        /* \"#utility.yul\":187:199   */\n      revert\n        /* \"#utility.yul\":211:328   */\n    tag_13:\n        /* \"#utility.yul\":320:321   */\n      0x00\n        /* \"#utility.yul\":317:318   */\n      0x00\n        /* \"#utility.yul\":310:322   */\n      revert\n        /* \"#utility.yul\":334:451   */\n    tag_14:\n        /* \"#utility.yul\":443:444   */\n      0x00\n        /* \"#utility.yul\":440:441   */\n      0x00\n        /* \"#utility.yul\":433:445   */\n      revert\n        /* \"#utility.yul\":457:574   */\n    tag_15:\n        /* \"#utility.yul\":566:567   */\n      0x00\n        /* \"#utility.yul\":563:564   */\n      0x00\n        /* \"#utility.yul\":556:568   */\n      revert\n        /* \"#utility.yul\":580:697   */\n    tag_16:\n        /* \"#utility.yul\":689:690   */\n      0x00\n        /* \"#utility.yul\":686:687   */\n      0x00\n        /* \"#utility.yul\":679:691   */\n      revert\n        /* \"#utility.yul\":716:1268   */\n    tag_17:\n        /* \"#utility.yul\":773:781   */\n      0x00\n        /* \"#utility.yul\":783:789   */\n      0x00\n        /* \"#utility.yul\":833:836   */\n      dup4\n        /* \"#utility.yul\":826:830   */\n      0x1f\n        /* \"#utility.yul\":818:824   */\n      dup5\n        /* \"#utility.yul\":814:831   */\n      add\n        /* \"#utility.yul\":810:837   */\n      slt\n        /* \"#utility.yul\":800:922   */\n      tag_29\n      jumpi\n        /* \"#utility.yul\":841:920   */\n      tag_30\n      tag_14\n      jump\t// in\n    tag_30:\n        /* \"#utility.yul\":800:922   */\n    tag_29:\n        /* \"#utility.yul\":954:960   */\n      dup3\n        /* \"#utility.yul\":941:961   */\n      calldataload\n        /* \"#utility.yul\":931:961   */\n      swap1\n      pop\n        /* \"#utility.yul\":984:1002   */\n      0xffffffffffffffff\n        /* \"#utility.yul\":976:982   */\n      dup2\n        /* \"#utility.yul\":973:1003   */\n      gt\n        /* \"#utility.yul\":970:1087   */\n      iszero\n      tag_31\n      jumpi\n        /* \"#utility.yul\":1006:1085   */\n      tag_32\n      tag_15\n      jump\t// in\n    tag_32:\n        /* \"#utility.yul\":970:1087   */\n    tag_31:\n        /* \"#utility.yul\":1120:1124   */\n      0x20\n        /* \"#utility.yul\":1112:1118   */\n      dup4\n        /* \"#utility.yul\":1108:1125   */\n      add\n        /* \"#utility.yul\":1096:1125   */\n      swap2\n      pop\n        /* \"#utility.yul\":1174:1177   */\n      dup4\n        /* \"#utility.yul\":1166:1170   */\n      0x01\n        /* \"#utility.yul\":1158:1164   */\n      dup3\n        /* \"#utility.yul\":1154:1171   */\n      mul\n        /* \"#utility.yul\":1144:1152   */\n      dup4\n        /* \"#utility.yul\":1140:1172   */\n      add\n        /* \"#utility.yul\":1137:1178   */\n      gt\n        /* \"#utility.yul\":1134:1262   */\n      iszero\n      tag_33\n      jumpi\n        /* \"#utility.yul\":1181:1260   */\n      tag_34\n      tag_16\n      jump\t// in\n    tag_34:\n        /* \"#utility.yul\":1134:1262   */\n    tag_33:\n        /* \"#utility.yul\":716:1268   */\n      swap3\n      pop\n      swap3\n      swap1\n      pop\n      jump\t// out\n        /* \"#utility.yul\":1291:1859   */\n    tag_18:\n        /* \"#utility.yul\":1364:1372   */\n      0x00\n        /* \"#utility.yul\":1374:1380   */\n      0x00\n        /* \"#utility.yul\":1424:1427   */\n      dup4\n        /* \"#utility.yul\":1417:1421   */\n      0x1f\n        /* \"#utility.yul\":1409:1415   */\n      dup5\n        /* \"#utility.yul\":1405:1422   */\n      add\n        /* \"#utility.yul\":1401:1428   */\n      slt\n        /* \"#utility.yul\":1391:1513   */\n      tag_36\n      jumpi\n        /* \"#utility.yul\":1432:1511   */\n      tag_37\n      tag_14\n      jump\t// in\n    tag_37:\n        /* \"#utility.yul\":1391:1513   */\n    tag_36:\n        /* \"#utility.yul\":1545:1551   */\n      dup3\n        /* \"#utility.yul\":1532:1552   */\n      calldataload\n        /* \"#utility.yul\":1522:1552   */\n      swap1\n      pop\n        /* \"#utility.yul\":1575:1593   */\n      0xffffffffffffffff\n        /* \"#utility.yul\":1567:1573   */\n      dup2\n        /* \"#utility.yul\":1564:1594   */\n      gt\n        /* \"#utility.yul\":1561:1678   */\n      iszero\n      tag_38\n      jumpi\n        /* \"#utility.yul\":1597:1676   */\n      tag_39\n      tag_15\n      jump\t// in\n    tag_39:\n        /* \"#utility.yul\":1561:1678   */\n    tag_38:\n        /* \"#utility.yul\":1711:1715   */\n      0x20\n        /* \"#utility.yul\":1703:1709   */\n      dup4\n        /* \"#utility.yul\":1699:1716   */\n      add\n        /* \"#utility.yul\":1687:1716   */\n      swap2\n      pop\n        /* \"#utility.yul\":1765:1768   */\n      dup4\n        /* \"#utility.yul\":1757:1761   */\n      0x20\n        /* \"#utility.yul\":1749:1755   */\n      dup3\n        /* \"#utility.yul\":1745:1762   */\n      mul\n        /* \"#utility.yul\":1735:1743   */\n      dup4\n        /* \"#utility.yul\":1731:1763   */\n      add\n        /* \"#utility.yul\":1728:1769   */\n      gt\n        /* \"#utility.yul\":1725:1853   */\n      iszero\n      tag_40\n      jumpi\n        /* \"#utility.yul\":1772:1851   */\n      tag_41\n      tag_16\n      jump\t// in\n    tag_41:\n        /* \"#utility.yul\":1725:1853   */\n    tag_40:\n        /* \"#utility.yul\":1291:1859   */\n      swap3\n      pop\n      swap3\n      swap1\n      pop\n      jump\t// out\n        /* \"#utility.yul\":1865:2767   */\n    tag_6:\n        /* \"#utility.yul\":1971:1977   */\n      0x00\n        /* \"#utility.yul\":1979:1985   */\n      0x00\n        /* \"#utility.yul\":1987:1993   */\n      0x00\n        /* \"#utility.yul\":1995:2001   */\n      0x00\n        /* \"#utility.yul\":2044:2046   */\n      0x40\n        /* \"#utility.yul\":2032:2041   */\n      dup6\n        /* \"#utility.yul\":2023:2030   */\n      dup8\n        /* \"#utility.yul\":2019:2042   */\n      sub\n        /* \"#utility.yul\":2015:2047   */\n      slt\n        /* \"#utility.yul\":2012:2131   */\n      iszero\n      tag_43\n      jumpi\n        /* \"#utility.yul\":2050:2129   */\n      tag_44\n      tag_12\n      jump\t// in\n    tag_44:\n        /* \"#utility.yul\":2012:2131   */\n    tag_43:\n        /* \"#utility.yul\":2198:2199   */\n      0x00\n        /* \"#utility.yul\":2187:2196   */\n      dup6\n        /* \"#utility.yul\":2183:2200   */\n      add\n        /* \"#utility.yul\":2170:2201   */\n      calldataload\n        /* \"#utility.yul\":2228:2246   */\n      0xffffffffffffffff\n        /* \"#utility.yul\":2220:2226   */\n      dup2\n        /* \"#utility.yul\":2217:2247   */\n      gt\n        /* \"#utility.yul\":2214:2331   */\n      iszero\n      tag_45\n      jumpi\n        /* \"#utility.yul\":2250:2329   */\n      tag_46\n      tag_13\n      jump\t// in\n    tag_46:\n        /* \"#utility.yul\":2214:2331   */\n    tag_45:\n        /* \"#utility.yul\":2363:2427   */\n      tag_47\n        /* \"#utility.yul\":2419:2426   */\n      dup8\n        /* \"#utility.yul\":2410:2416   */\n      dup3\n        /* \"#utility.yul\":2399:2408   */\n      dup9\n        /* \"#utility.yul\":2395:2417   */\n      add\n        /* \"#utility.yul\":2363:2427   */\n      tag_17\n      jump\t// in\n    tag_47:\n        /* \"#utility.yul\":2345:2427   */\n      swap5\n      pop\n      swap5\n      pop\n        /* \"#utility.yul\":2141:2437   */\n      pop\n        /* \"#utility.yul\":2504:2506   */\n      0x20\n        /* \"#utility.yul\":2493:2502   */\n      dup6\n        /* \"#utility.yul\":2489:2507   */\n      add\n        /* \"#utility.yul\":2476:2508   */\n      calldataload\n        /* \"#utility.yul\":2535:2553   */\n      0xffffffffffffffff\n        /* \"#utility.yul\":2527:2533   */\n      dup2\n        /* \"#utility.yul\":2524:2554   */\n      gt\n        /* \"#utility.yul\":2521:2638   */\n      iszero\n      tag_48\n      jumpi\n        /* \"#utility.yul\":2557:2636   */\n      tag_49\n      tag_13\n      jump\t// in\n    tag_49:\n        /* \"#utility.yul\":2521:2638   */\n    tag_48:\n        /* \"#utility.yul\":2670:2750   */\n      tag_50\n        /* \"#utility.yul\":2742:2749   */\n      dup8\n        /* \"#utility.yul\":2733:2739   */\n      dup3\n        /* \"#utility.yul\":2722:2731   */\n      dup9\n        /* \"#utility.yul\":2718:2740   */\n      add\n        /* \"#utility.yul\":2670:2750   */\n      tag_18\n      jump\t// in\n    tag_50:\n        /* \"#utility.yul\":2652:2750   */\n      swap3\n      pop\n      swap3\n      pop\n        /* \"#utility.yul\":2447:2760   */\n      pop\n        /* \"#utility.yul\":1865:2767   */\n      swap3\n      swap6\n      swap2\n      swap5\n      pop\n      swap3\n      pop\n      jump\t// out\n        /* \"#utility.yul\":2773:2863   */\n    tag_19:\n        /* \"#utility.yul\":2807:2814   */\n      0x00\n        /* \"#utility.yul\":2850:2855   */\n      dup2\n        /* \"#utility.yul\":2843:2856   */\n      iszero\n        /* \"#utility.yul\":2836:2857   */\n      iszero\n        /* \"#utility.yul\":2825:2857   */\n      swap1\n      pop\n        /* \"#utility.yul\":2773:2863   */\n      swap2\n      swap1\n      pop\n      jump\t// out\n        /* \"#utility.yul\":2869:2978   */\n    tag_20:\n        /* \"#utility.yul\":2950:2971   */\n      tag_53\n        /* \"#utility.yul\":2965:2970   */\n      dup2\n        /* \"#utility.yul\":2950:2971   */\n      tag_19\n      jump\t// in\n    tag_53:\n        /* \"#utility.yul\":2945:2948   */\n      dup3\n        /* \"#utility.yul\":2938:2972   */\n      mstore\n        /* \"#utility.yul\":2869:2978   */\n      pop\n      pop\n      jump\t// out\n        /* \"#utility.yul\":2984:3194   */\n    tag_9:\n        /* \"#utility.yul\":3071:3075   */\n      0x00\n        /* \"#utility.yul\":3109:3111   */\n      0x20\n        /* \"#utility.yul\":3098:3107   */\n      dup3\n        /* \"#utility.yul\":3094:3112   */\n      add\n        /* \"#utility.yul\":3086:3112   */\n      swap1\n      pop\n        /* \"#utility.yul\":3122:3187   */\n      tag_55\n        /* \"#utility.yul\":3184:3185   */\n      0x00\n        /* \"#utility.yul\":3173:3182   */\n      dup4\n        /* \"#utility.yul\":3169:3186   */\n      add\n        /* \"#utility.yul\":3160:3166   */\n      dup5\n        /* \"#utility.yul\":3122:3187   */\n      tag_20\n      jump\t// in\n    tag_55:\n        /* \"#utility.yul\":2984:3194   */\n      swap3\n      swap2\n      pop\n      pop\n      jump\t// out\n\n    auxdata: 0xa2646970667358221220d2a09b857b6e11c2c2c432dd7f345b3dc1d9787f58367626d26b2346672d3b7664736f6c634300081f0033\n}\n",
				"bytecode": {
					"linkReferences": {},
					"object": "6080604052348015600e575f5ffd5b5061020f8061001c5f395ff3fe608060405234801561000f575f5ffd5b5060043610610029575f3560e01c8063ea50d0e41461002d575b5f5ffd5b61004760048036038101906100429190610128565b61005d565b60405161005491906101c0565b60405180910390f35b5f60019050949350505050565b5f5ffd5b5f5ffd5b5f5ffd5b5f5ffd5b5f5ffd5b5f5f83601f84011261009357610092610072565b5b8235905067ffffffffffffffff8111156100b0576100af610076565b5b6020830191508360018202830111156100cc576100cb61007a565b5b9250929050565b5f5f83601f8401126100e8576100e7610072565b5b8235905067ffffffffffffffff81111561010557610104610076565b5b6020830191508360208202830111156101215761012061007a565b5b9250929050565b5f5f5f5f604085870312156101405761013f61006a565b5b5f85013567ffffffffffffffff81111561015d5761015c61006e565b5b6101698782880161007e565b9450945050602085013567ffffffffffffffff81111561018c5761018b61006e565b5b610198878288016100d3565b925092505092959194509250565b5f8115159050919050565b6101ba816101a6565b82525050565b5f6020820190506101d35f8301846101b1565b9291505056fea2646970667358221220d2a09b857b6e11c2c2c432dd7f345b3dc1d9787f58367626d26b2346672d3b7664736f6c634300081f0033",
					"opcodes": "PUSH1 0x80 PUSH1 0x40 MSTORE CALLVALUE DUP1 ISZERO PUSH1 0xE JUMPI PUSH0 PUSH0 REVERT JUMPDEST POP PUSH2 0x20F DUP1 PUSH2 0x1C PUSH0 CODECOPY PUSH0 RETURN INVALID PUSH1 0x80 PUSH1 0x40 MSTORE CALLVALUE DUP1 ISZERO PUSH2 0xF JUMPI PUSH0 PUSH0 REVERT JUMPDEST POP PUSH1 0x4 CALLDATASIZE LT PUSH2 0x29 JUMPI PUSH0 CALLDATALOAD PUSH1 0xE0 SHR DUP1 PUSH4 0xEA50D0E4 EQ PUSH2 0x2D JUMPI JUMPDEST PUSH0 PUSH0 REVERT JUMPDEST PUSH2 0x47 PUSH1 0x4 DUP1 CALLDATASIZE SUB DUP2 ADD SWAP1 PUSH2 0x42 SWAP2 SWAP1 PUSH2 0x128 JUMP JUMPDEST PUSH2 0x5D JUMP JUMPDEST PUSH1 0x40 MLOAD PUSH2 0x54 SWAP2 SWAP1 PUSH2 0x1C0 JUMP JUMPDEST PUSH1 0x40 MLOAD DUP1 SWAP2 SUB SWAP1 RETURN JUMPDEST PUSH0 PUSH1 0x1 SWAP1 POP SWAP5 SWAP4 POP POP POP POP JUMP JUMPDEST PUSH0 PUSH0 REVERT JUMPDEST PUSH0 PUSH0 REVERT JUMPDEST PUSH0 PUSH0 REVERT JUMPDEST PUSH0 PUSH0 REVERT JUMPDEST PUSH0 PUSH0 REVERT JUMPDEST PUSH0 PUSH0 DUP4 PUSH1 0x1F DUP5 ADD SLT PUSH2 0x93 JUMPI PUSH2 0x92 PUSH2 0x72 JUMP JUMPDEST JUMPDEST DUP3 CALLDATALOAD SWAP1 POP PUSH8 0xFFFFFFFFFFFFFFFF DUP2 GT ISZERO PUSH2 0xB0 JUMPI PUSH2 0xAF PUSH2 0x76 JUMP JUMPDEST JUMPDEST PUSH1 0x20 DUP4 ADD SWAP2 POP DUP4 PUSH1 0x1 DUP3 MUL DUP4 ADD GT ISZERO PUSH2 0xCC JUMPI PUSH2 0xCB PUSH2 0x7A JUMP JUMPDEST JUMPDEST SWAP3 POP SWAP3 SWAP1 POP JUMP JUMPDEST PUSH0 PUSH0 DUP4 PUSH1 0x1F DUP5 ADD SLT PUSH2 0xE8 JUMPI PUSH2 0xE7 PUSH2 0x72 JUMP JUMPDEST JUMPDEST DUP3 CALLDATALOAD SWAP1 POP PUSH8 0xFFFFFFFFFFFFFFFF DUP2 GT ISZERO PUSH2 0x105 JUMPI PUSH2 0x104 PUSH2 0x76 JUMP JUMPDEST JUMPDEST PUSH1 0x20 DUP4 ADD SWAP2 POP DUP4 PUSH1 0x20 DUP3 MUL DUP4 ADD GT ISZERO PUSH2 0x121 JUMPI PUSH2 0x120 PUSH2 0x7A JUMP JUMPDEST JUMPDEST SWAP3 POP SWAP3 SWAP1 POP JUMP JUMPDEST PUSH0 PUSH0 PUSH0 PUSH0 PUSH1 0x40 DUP6 DUP8 SUB SLT ISZERO PUSH2 0x140 JUMPI PUSH2 0x13F PUSH2 0x6A JUMP JUMPDEST JUMPDEST PUSH0 DUP6 ADD CALLDATALOAD PUSH8 0xFFFFFFFFFFFFFFFF DUP2 GT ISZERO PUSH2 0x15D JUMPI PUSH2 0x15C PUSH2 0x6E JUMP JUMPDEST JUMPDEST PUSH2 0x169 DUP8 DUP3 DUP9 ADD PUSH2 0x7E JUMP JUMPDEST SWAP5 POP SWAP5 POP POP PUSH1 0x20 DUP6 ADD CALLDATALOAD PUSH8 0xFFFFFFFFFFFFFFFF DUP2 GT ISZERO PUSH2 0x18C JUMPI PUSH2 0x18B PUSH2 0x6E JUMP JUMPDEST JUMPDEST PUSH2 0x198 DUP8 DUP3 DUP9 ADD PUSH2 0xD3 JUMP JUMPDEST SWAP3 POP SWAP3 POP POP SWAP3 SWAP6 SWAP2 SWAP5 POP SWAP3 POP JUMP JUMPDEST PUSH0 DUP2 ISZERO ISZERO SWAP1 POP SWAP2 SWAP1 POP JUMP JUMPDEST PUSH2 0x1BA DUP2 PUSH2 0x1A6 JUMP JUMPDEST DUP3 MSTORE POP POP JUMP JUMPDEST PUSH0 PUSH1 0x20 DUP3 ADD SWAP1 POP PUSH2 0x1D3 PUSH0 DUP4 ADD DUP5 PUSH2 0x1B1 JUMP JUMPDEST SWAP3 SWAP2 POP POP JUMP INVALID LOG2 PUSH5 0x6970667358 0x22 SLT KECCAK256 0xD2 LOG0 SWAP12 DUP6 PUSH28 0x6E11C2C2C432DD7F345B3DC1D9787F58367626D26B2346672D3B7664 PUSH20 0x6F6C634300081F00330000000000000000000000 "
				},
				"gasEstimates": {
					"creation": {
						"codeDepositCost": "105400",
						"executionCost": "151",
						"totalCost": "105551"
					},
					"external": {
						"verify(bytes,bytes32[])": "881"
					}
				},
				"methodIdentifiers": {
					"verify(bytes,bytes32[])": "ea50d0e4"
				}
			},
			"storageLayout": {
				"storage": [],
				"types": null
			},
			"userdoc": {
				"kind": "user",
				"methods": {},
				"notice": "Mock verifier for local testing Always returns true DO NOT USE IN PRODUCTION",
				"version": 1
			}
		}
	}
}