{
	"contracts/SwirlPrivatePoolV2.sol": {
		"SwirlPrivatePool": {
			"abi": [
				{
					"inputs": [
						{
							"internalType": "address",
							"name": "_verifier",
							"type": "address"
						},
						{
							"internalType": "address",
							"name": "_poseidon",
							"type": "address"
						}
					],
					"stateMutability": "nonpayable",
					"type": "constructor"
				},
				{
					"inputs": [],
					"name": "InvalidDenomination",
					"type": "error"
				},
				{
					"inputs": [],
					"name": "InvalidProof",
					"type": "error"
				},
				{
					"inputs": [],
					"name": "NullifierAlreadyUsed",
					"type": "error"
				},
				{
					"inputs": [
						{
							"internalType": "address",
							"name": "owner",
							"type": "address"
						}
					],
					"name": "OwnableInvalidOwner",
					"type": "error"
				},
				{
					"inputs": [
						{
							"internalType": "address",
							"name": "account",
							"type": "address"
						}
					],
					"name": "OwnableUnauthorizedAccount",
					"type": "error"
				},
				{
					"inputs": [],
					"name": "TreeIsFull",
					"type": "error"
				},
				{
					"inputs": [],
					"name": "UnknownRoot",
					"type": "error"
				},
				{
					"anonymous": false,
					"inputs": [
						{
							"indexed": false,
							"internalType": "address",
							"name": "blacklistedAddress",
							"type": "address"
						}
					],
					"name": "Blacklisted",
					"type": "event"
				},
				{
					"anonymous": false,
					"inputs": [
						{
							"indexed": true,
							"internalType": "bytes32",
							"name": "commitment",
							"type": "bytes32"
						},
						{
							"indexed": false,
							"internalType": "uint32",
							"name": "leafIndex",
							"type": "uint32"
						}
					],
					"name": "Deposit",
					"type": "event"
				},
				{
					"anonymous": false,
					"inputs": [
						{
							"indexed": false,
							"internalType": "address",
							"name": "treasury",
							"type": "address"
						},
						{
							"indexed": false,
							"internalType": "uint256",
							"name": "amount",
							"type": "uint256"
						}
					],
					"name": "FeeWithdrawal",
					"type": "event"
				},
				{
					"anonymous": false,
					"inputs": [
						{
							"indexed": false,
							"internalType": "address",
							"name": "burnAddress",
							"type": "address"
						},
						{
							"indexed": false,
							"internalType": "uint256",
							"name": "amount",
							"type": "uint256"
						}
					],
					"name": "FeesBurned",
					"type": "event"
				},
				{
					"anonymous": false,
					"inputs": [
						{
							"indexed": true,
							"internalType": "address",
							"name": "previousOwner",
							"type": "address"
						},
						{
							"indexed": true,
							"internalType": "address",
							"name": "newOwner",
							"type": "address"
						}
					],
					"name": "OwnershipTransferred",
					"type": "event"
				},
				{
					"anonymous": false,
					"inputs": [
						{
							"indexed": false,
							"internalType": "address",
							"name": "pardonedAddress",
							"type": "address"
						}
					],
					"name": "Pardoned",
					"type": "event"
				},
				{
					"anonymous": false,
					"inputs": [
						{
							"indexed": false,
							"internalType": "address",
							"name": "account",
							"type": "address"
						}
					],
					"name": "Paused",
					"type": "event"
				},
				{
					"anonymous": false,
					"inputs": [
						{
							"indexed": false,
							"internalType": "address",
							"name": "account",
							"type": "address"
						}
					],
					"name": "Unpaused",
					"type": "event"
				},
				{
					"anonymous": false,
					"inputs": [
						{
							"indexed": true,
							"internalType": "address",
							"name": "recipient",
							"type": "address"
						},
						{
							"indexed": false,
							"internalType": "bytes32",
							"name": "nullifierHash",
							"type": "bytes32"
						}
					],
					"name": "Withdrawal",
					"type": "event"
				},
				{
					"inputs": [],
					"name": "DENOMINATION",
					"outputs": [
						{
							"internalType": "uint256",
							"name": "",
							"type": "uint256"
						}
					],
					"stateMutability": "view",
					"type": "function"
				},
				{
					"inputs": [],
					"name": "MAX_LEAVES",
					"outputs": [
						{
							"internalType": "uint32",
							"name": "",
							"type": "uint32"
						}
					],
					"stateMutability": "view",
					"type": "function"
				},
				{
					"inputs": [],
					"name": "PROTOCOL_FEE",
					"outputs": [
						{
							"internalType": "uint256",
							"name": "",
							"type": "uint256"
						}
					],
					"stateMutability": "view",
					"type": "function"
				},
				{
					"inputs": [],
					"name": "TREE_DEPTH",
					"outputs": [
						{
							"internalType": "uint32",
							"name": "",
							"type": "uint32"
						}
					],
					"stateMutability": "view",
					"type": "function"
				},
				{
					"inputs": [
						{
							"internalType": "address",
							"name": "_address",
							"type": "address"
						}
					],
					"name": "blacklist",
					"outputs": [],
					"stateMutability": "nonpayable",
					"type": "function"
				},
				{
					"inputs": [],
					"name": "burnFees",
					"outputs": [],
					"stateMutability": "nonpayable",
					"type": "function"
				},
				{
					"inputs": [],
					"name": "checkFees",
					"outputs": [
						{
							"internalType": "uint256",
							"name": "",
							"type": "uint256"
						}
					],
					"stateMutability": "view",
					"type": "function"
				},
				{
					"inputs": [],
					"name": "currentRoot",
					"outputs": [
						{
							"internalType": "bytes32",
							"name": "",
							"type": "bytes32"
						}
					],
					"stateMutability": "view",
					"type": "function"
				},
				{
					"inputs": [
						{
							"internalType": "bytes32",
							"name": "commitment",
							"type": "bytes32"
						}
					],
					"name": "deposit",
					"outputs": [],
					"stateMutability": "payable",
					"type": "function"
				},
				{
					"inputs": [
						{
							"internalType": "uint256",
							"name": "",
							"type": "uint256"
						}
					],
					"name": "filledSubtrees",
					"outputs": [
						{
							"internalType": "bytes32",
							"name": "",
							"type": "bytes32"
						}
					],
					"stateMutability": "view",
					"type": "function"
				},
				{
					"inputs": [
						{
							"internalType": "address",
							"name": "_address",
							"type": "address"
						}
					],
					"name": "isAddressBlacklisted",
					"outputs": [
						{
							"internalType": "bool",
							"name": "",
							"type": "bool"
						}
					],
					"stateMutability": "view",
					"type": "function"
				},
				{
					"inputs": [
						{
							"internalType": "address",
							"name": "",
							"type": "address"
						}
					],
					"name": "isBlacklisted",
					"outputs": [
						{
							"internalType": "bool",
							"name": "",
							"type": "bool"
						}
					],
					"stateMutability": "view",
					"type": "function"
				},
				{
					"inputs": [
						{
							"internalType": "bytes32",
							"name": "nullifierHash",
							"type": "bytes32"
						}
					],
					"name": "isSpent",
					"outputs": [
						{
							"internalType": "bool",
							"name": "",
							"type": "bool"
						}
					],
					"stateMutability": "view",
					"type": "function"
				},
				{
					"inputs": [
						{
							"internalType": "bytes32",
							"name": "",
							"type": "bytes32"
						}
					],
					"name": "knownRoots",
					"outputs": [
						{
							"internalType": "bool",
							"name": "",
							"type": "bool"
						}
					],
					"stateMutability": "view",
					"type": "function"
				},
				{
					"inputs": [],
					"name": "nextIndex",
					"outputs": [
						{
							"internalType": "uint32",
							"name": "",
							"type": "uint32"
						}
					],
					"stateMutability": "view",
					"type": "function"
				},
				{
					"inputs": [
						{
							"internalType": "bytes32",
							"name": "",
							"type": "bytes32"
						}
					],
					"name": "nullifierHashes",
					"outputs": [
						{
							"internalType": "bool",
							"name": "",
							"type": "bool"
						}
					],
					"stateMutability": "view",
					"type": "function"
				},
				{
					"inputs": [],
					"name": "owner",
					"outputs": [
						{
							"internalType": "address",
							"name": "",
							"type": "address"
						}
					],
					"stateMutability": "view",
					"type": "function"
				},
				{
					"inputs": [
						{
							"internalType": "address",
							"name": "_address",
							"type": "address"
						}
					],
					"name": "pardon",
					"outputs": [],
					"stateMutability": "nonpayable",
					"type": "function"
				},
				{
					"inputs": [],
					"name": "pause",
					"outputs": [],
					"stateMutability": "nonpayable",
					"type": "function"
				},
				{
					"inputs": [],
					"name": "paused",
					"outputs": [
						{
							"internalType": "bool",
							"name": "",
							"type": "bool"
						}
					],
					"stateMutability": "view",
					"type": "function"
				},
				{
					"inputs": [],
					"name": "poseidon",
					"outputs": [
						{
							"internalType": "contract IPoseidonT2",
							"name": "",
							"type": "address"
						}
					],
					"stateMutability": "view",
					"type": "function"
				},
				{
					"inputs": [],
					"name": "renounceOwnership",
					"outputs": [],
					"stateMutability": "nonpayable",
					"type": "function"
				},
				{
					"inputs": [],
					"name": "totalFees",
					"outputs": [
						{
							"internalType": "uint256",
							"name": "",
							"type": "uint256"
						}
					],
					"stateMutability": "view",
					"type": "function"
				},
				{
					"inputs": [
						{
							"internalType": "address",
							"name": "newOwner",
							"type": "address"
						}
					],
					"name": "transferOwnership",
					"outputs": [],
					"stateMutability": "nonpayable",
					"type": "function"
				},
				{
					"inputs": [],
					"name": "unpause",
					"outputs": [],
					"stateMutability": "nonpayable",
					"type": "function"
				},
				{
					"inputs": [],
					"name": "verifier",
					"outputs": [
						{
							"internalType": "contract IVerifier",
							"name": "",
							"type": "address"
						}
					],
					"stateMutability": "view",
					"type": "function"
				},
				{
					"inputs": [
						{
							"internalType": "bytes",
							"name": "proof",
							"type": "bytes"
						},
						{
							"internalType": "bytes32",
							"name": "root",
							"type": "bytes32"
						},
						{
							"internalType": "bytes32",
							"name": "nullifierHash",
							"type": "bytes32"
						},
						{
							"internalType": "address payable",
							"name": "recipient",
							"type": "address"
						}
					],
					"name": "withdraw",
					"outputs": [],
					"stateMutability": "nonpayable",
					"type": "function"
				},
				{
					"inputs": [
						{
							"internalType": "address",
							"name": "_treasury",
							"type": "address"
						}
					],
					"name": "withdrawFees",
					"outputs": [],
					"stateMutability": "nonpayable",
					"type": "function"
				},
				{
					"inputs": [
						{
							"internalType": "uint256",
							"name": "",
							"type": "uint256"
						}
					],
					"name": "zeros",
					"outputs": [
						{
							"internalType": "bytes32",
							"name": "",
							"type": "bytes32"
						}
					],
					"stateMutability": "view",
					"type": "function"
				}
			],
			"devdoc": {
				"errors": {
					"OwnableInvalidOwner(address)": [
						{
							"details": "The owner is not a valid owner account. (eg. `address(0)`)"
						}
					],
					"OwnableUnauthorizedAccount(address)": [
						{
							"details": "The caller account is not authorized to perform an operation."
						}
					]
				},
				"events": {
					"Blacklisted(address)": {
						"params": {
							"blacklistedAddress": "Address that was blacklisted"
						}
					},
					"Deposit(bytes32,uint32)": {
						"params": {
							"commitment": "Commitment hash of secret and nullifier",
							"leafIndex": "Index of the commitment in the Merkle tree"
						}
					},
					"FeeWithdrawal(address,uint256)": {
						"params": {
							"amount": "Amount withdrawn",
							"treasury": "Address receiving the fees"
						}
					},
					"FeesBurned(address,uint256)": {
						"params": {
							"amount": "Amount burned",
							"burnAddress": "Address receiving the burned fees"
						}
					},
					"Pardoned(address)": {
						"params": {
							"pardonedAddress": "Address that was removed from blacklist"
						}
					},
					"Paused(address)": {
						"details": "Emitted when the pause is triggered by `account`."
					},
					"Unpaused(address)": {
						"details": "Emitted when the pause is lifted by `account`."
					},
					"Withdrawal(address,bytes32)": {
						"params": {
							"nullifierHash": "Nullifier hash of the withdrawn commitment",
							"recipient": "Address receiving the MNT"
						}
					}
				},
				"kind": "dev",
				"methods": {
					"blacklist(address)": {
						"params": {
							"_address": "The address to be sanctioned"
						}
					},
					"burnFees()": {
						"details": "Fees are sent to dead address"
					},
					"checkFees()": {
						"returns": {
							"_0": "totalFees The amount of MNT collected as fees"
						}
					},
					"constructor": {
						"params": {
							"_poseidon": "Address of the Poseidon hash contract",
							"_verifier": "Address of the ZK proof verifier contract"
						}
					},
					"deposit(bytes32)": {
						"details": "Deposit with commitment Users pay DENOMINATION + PROTOCOL_FEE; only DENOMINATION is withdrawable, PROTOCOL_FEE collected by protocol.",
						"params": {
							"commitment": "Poseidon(secret, nullifier)"
						}
					},
					"isAddressBlacklisted(address)": {
						"params": {
							"_address": "Address to be verified"
						},
						"returns": {
							"_0": "isBlacklisted[_address] true for sanctioned address and false otherwise"
						}
					},
					"isSpent(bytes32)": {
						"params": {
							"nullifierHash": "Nullifier to be verified"
						},
						"returns": {
							"_0": "nullifierHashes[nullifierHash] true for used nullifierHash and false otherwise"
						}
					},
					"owner()": {
						"details": "Returns the address of the current owner."
					},
					"pardon(address)": {
						"params": {
							"_address": "The address to be un-sanctioned"
						}
					},
					"paused()": {
						"details": "Returns true if the contract is paused, and false otherwise."
					},
					"renounceOwnership()": {
						"details": "Leaves the contract without owner. It will not be possible to call `onlyOwner` functions. Can only be called by the current owner. NOTE: Renouncing ownership will leave the contract without an owner, thereby disabling any functionality that is only available to the owner."
					},
					"transferOwnership(address)": {
						"details": "Transfers ownership of the contract to a new account (`newOwner`). Can only be called by the current owner."
					},
					"withdraw(bytes,bytes32,bytes32,address)": {
						"details": "Verify proof, root, nullifierHash and send funds to recipient",
						"params": {
							"nullifierHash": "Poseidon(nullifier)",
							"proof": "Noir proof bytes",
							"recipient": "MNT receiver",
							"root": "Merkle root"
						}
					},
					"withdrawFees(address)": {
						"details": "Only callable by owner; resets totalFees to zero",
						"params": {
							"_treasury": "Address to receive the fees"
						}
					}
				},
				"version": 1
			},
			"evm": {
				"assembly": "    /* \"contracts/SwirlPrivatePoolV2.sol\":923:11841  contract SwirlPrivatePool is Pausable, Ownable, ReentrancyGuard {... */\n  mstore(0x40, 0xc0)\n    /* \"contracts/SwirlPrivatePoolV2.sol\":3405:3406  0 */\n  0x00\n    /* \"contracts/SwirlPrivatePoolV2.sol\":3378:3406  uint256 public totalFees = 0 */\n  0x02\n  sstore\n    /* \"contracts/SwirlPrivatePoolV2.sol\":4419:5103  constructor(address _verifier, address _poseidon) Ownable(msg.sender) {... */\n  callvalue\n  dup1\n  iszero\n  tag_1\n  jumpi\n  revert(0x00, 0x00)\ntag_1:\n  pop\n  mload(0x40)\n  sub(codesize, bytecodeSize)\n  dup1\n  bytecodeSize\n  dup4\n  codecopy\n  dup2\n  add\n  0x40\n  dup2\n  swap1\n  mstore\n  tag_2\n  swap2\n  tag_3\n  jump\t// in\ntag_2:\n    /* \"@openzeppelin/contracts/security/Pausable.sol\":1006:1011  false */\n  0x00\n    /* \"@openzeppelin/contracts/security/Pausable.sol\":996:1011  _paused = false */\n  dup1\n  sload\n  not(0xff)\n  and\n  swap1\n  sstore\n    /* \"contracts/SwirlPrivatePoolV2.sol\":4477:4487  msg.sender */\n  caller\n  dup1\n    /* \"@openzeppelin/contracts/access/Ownable.sol\":1269:1364  if (initialOwner == address(0)) {... */\n  tag_10\n  jumpi\n    /* \"@openzeppelin/contracts/access/Ownable.sol\":1322:1353  OwnableInvalidOwner(address(0)) */\n  mload(0x40)\n  shl(0xe0, 0x1e4fbdf7)\n  dup2\n  mstore\n    /* \"@openzeppelin/contracts/access/Ownable.sol\":1350:1351  0 */\n  0x00\n    /* \"@openzeppelin/contracts/access/Ownable.sol\":1322:1353  OwnableInvalidOwner(address(0)) */\n  0x04\n  dup3\n  add\n    /* \"#utility.yul\":640:691   */\n  mstore\n    /* \"#utility.yul\":613:631   */\n  0x24\n  add\n    /* \"@openzeppelin/contracts/access/Ownable.sol\":1322:1353  OwnableInvalidOwner(address(0)) */\n  mload(0x40)\n  dup1\n  swap2\n  sub\n  swap1\n  revert\n    /* \"@openzeppelin/contracts/access/Ownable.sol\":1269:1364  if (initialOwner == address(0)) {... */\ntag_10:\n    /* \"@openzeppelin/contracts/access/Ownable.sol\":1373:1405  _transferOwnership(initialOwner) */\n  tag_13\n    /* \"@openzeppelin/contracts/access/Ownable.sol\":1392:1404  initialOwner */\n  dup2\n    /* \"@openzeppelin/contracts/access/Ownable.sol\":1373:1391  _transferOwnership */\n  tag_14\n    /* \"@openzeppelin/contracts/access/Ownable.sol\":1373:1405  _transferOwnership(initialOwner) */\n  jump\t// in\ntag_13:\n  pop\n    /* \"@openzeppelin/contracts/security/ReentrancyGuard.sol\":1716:1717  1 */\n  0x01\n    /* \"@openzeppelin/contracts/security/ReentrancyGuard.sol\":1821:1843  _status = _NOT_ENTERED */\n  dup1\n  sstore\n  sub(shl(0xa0, 0x01), 0x01)\n    /* \"contracts/SwirlPrivatePoolV2.sol\":4500:4531  verifier = IVerifier(_verifier) */\n  dup1\n  dup4\n  and\n  0x80\n  mstore\n    /* \"contracts/SwirlPrivatePoolV2.sol\":4542:4575  poseidon = IPoseidonT2(_poseidon) */\n  dup2\n  and\n  0xa0\n  dup2\n  swap1\n  mstore\n    /* \"contracts/SwirlPrivatePoolV2.sol\":4637:4680  poseidon.poseidon([uint256(0), uint256(0)]) */\n  0x40\n  dup1\n  mload\n  dup1\n  dup3\n  add\n  dup3\n  mstore\n    /* \"contracts/SwirlPrivatePoolV2.sol\":4622:4634  uint256 zero */\n  0x00\n    /* \"contracts/SwirlPrivatePoolV2.sol\":4637:4680  poseidon.poseidon([uint256(0), uint256(0)]) */\n  dup1\n  dup3\n  mstore\n  0x20\n  dup3\n  add\n  dup2\n  swap1\n  mstore\n  swap2\n  mload\n  shl(0xe1, 0x14d2f97b)\n  dup2\n  mstore\n    /* \"contracts/SwirlPrivatePoolV2.sol\":4622:4634  uint256 zero */\n  swap2\n  swap3\n    /* \"contracts/SwirlPrivatePoolV2.sol\":4542:4575  poseidon = IPoseidonT2(_poseidon) */\n  swap2\n    /* \"contracts/SwirlPrivatePoolV2.sol\":4637:4654  poseidon.poseidon */\n  0x29a5f2f6\n  swap2\n    /* \"contracts/SwirlPrivatePoolV2.sol\":4637:4680  poseidon.poseidon([uint256(0), uint256(0)]) */\n  tag_17\n  swap2\n  0x04\n  add\n  tag_18\n  jump\t// in\ntag_17:\n  0x20\n  mload(0x40)\n  dup1\n  dup4\n  sub\n  dup2\n  dup7\n  gas\n  staticcall\n  iszero\n  dup1\n  iszero\n  tag_20\n  jumpi\n  returndatacopy(0x00, 0x00, returndatasize)\n  revert(0x00, returndatasize)\ntag_20:\n  pop\n  pop\n  pop\n  pop\n  mload(0x40)\n  returndatasize\n  not(0x1f)\n  0x1f\n  dup3\n  add\n  and\n  dup3\n  add\n  dup1\n  0x40\n  mstore\n  pop\n  dup2\n  add\n  swap1\n  tag_21\n  swap2\n  swap1\n  tag_22\n  jump\t// in\ntag_21:\n    /* \"contracts/SwirlPrivatePoolV2.sol\":4691:4696  zeros */\n  0x03\n    /* \"contracts/SwirlPrivatePoolV2.sol\":4691:4715  zeros[0] = bytes32(zero) */\n  dup2\n  swap1\n  sstore\n    /* \"contracts/SwirlPrivatePoolV2.sol\":4622:4680  uint256 zero = poseidon.poseidon([uint256(0), uint256(0)]) */\n  swap1\n  pop\n    /* \"contracts/SwirlPrivatePoolV2.sol\":4772:4773  1 */\n  0x01\n    /* \"contracts/SwirlPrivatePoolV2.sol\":4756:4900  for (uint32 i = 1; i < TREE_DEPTH; i++) {... */\ntag_27:\n    /* \"contracts/SwirlPrivatePoolV2.sol\":3114:3116  20 */\n  0x14\n    /* \"contracts/SwirlPrivatePoolV2.sol\":4775:4789  i < TREE_DEPTH */\n  0xffffffff\n  dup3\n  and\n  lt\n    /* \"contracts/SwirlPrivatePoolV2.sol\":4756:4900  for (uint32 i = 1; i < TREE_DEPTH; i++) {... */\n  iszero\n  tag_28\n  jumpi\n    /* \"contracts/SwirlPrivatePoolV2.sol\":4818:4826  poseidon */\n  mload(0xa0)\n    /* \"contracts/SwirlPrivatePoolV2.sol\":4818:4849  poseidon.poseidon([zero, zero]) */\n  0x40\n  dup1\n  mload\n  dup1\n  dup3\n  add\n  dup3\n  mstore\n  dup5\n  dup2\n  mstore\n  0x20\n  dup2\n  add\n  dup6\n  swap1\n  mstore\n  swap1\n  mload\n  shl(0xe1, 0x14d2f97b)\n  dup2\n  mstore\n  sub(shl(0xa0, 0x01), 0x01)\n    /* \"contracts/SwirlPrivatePoolV2.sol\":4818:4835  poseidon.poseidon */\n  swap1\n  swap3\n  and\n  swap2\n  0x29a5f2f6\n  swap2\n    /* \"contracts/SwirlPrivatePoolV2.sol\":4818:4849  poseidon.poseidon([zero, zero]) */\n  tag_30\n  swap2\n  0x04\n  add\n  tag_18\n  jump\t// in\ntag_30:\n  0x20\n  mload(0x40)\n  dup1\n  dup4\n  sub\n  dup2\n  dup7\n  gas\n  staticcall\n  iszero\n  dup1\n  iszero\n  tag_32\n  jumpi\n  returndatacopy(0x00, 0x00, returndatasize)\n  revert(0x00, returndatasize)\ntag_32:\n  pop\n  pop\n  pop\n  pop\n  mload(0x40)\n  returndatasize\n  not(0x1f)\n  0x1f\n  dup3\n  add\n  and\n  dup3\n  add\n  dup1\n  0x40\n  mstore\n  pop\n  dup2\n  add\n  swap1\n  tag_33\n  swap2\n  swap1\n  tag_22\n  jump\t// in\ntag_33:\n    /* \"contracts/SwirlPrivatePoolV2.sol\":4811:4849  zero = poseidon.poseidon([zero, zero]) */\n  swap2\n  pop\n  dup2\n    /* \"contracts/SwirlPrivatePoolV2.sol\":4864:4869  zeros */\n  0x03\n    /* \"contracts/SwirlPrivatePoolV2.sol\":4864:4872  zeros[i] */\n  0xffffffff\n  dup4\n  and\n  0x14\n  dup2\n  lt\n  tag_35\n  jumpi\n  tag_35\n  tag_25\n  jump\t// in\ntag_35:\n  add\n    /* \"contracts/SwirlPrivatePoolV2.sol\":4864:4888  zeros[i] = bytes32(zero) */\n  sstore\n    /* \"contracts/SwirlPrivatePoolV2.sol\":4791:4794  i++ */\n  0x01\n  add\n    /* \"contracts/SwirlPrivatePoolV2.sol\":4756:4900  for (uint32 i = 1; i < TREE_DEPTH; i++) {... */\n  jump(tag_27)\ntag_28:\n  pop\n    /* \"contracts/SwirlPrivatePoolV2.sol\":4917:4925  uint32 i */\n  0x00\n    /* \"contracts/SwirlPrivatePoolV2.sol\":4912:5007  for (uint32 i = 0; i < TREE_DEPTH; i++) {... */\ntag_37:\n    /* \"contracts/SwirlPrivatePoolV2.sol\":3114:3116  20 */\n  0x14\n    /* \"contracts/SwirlPrivatePoolV2.sol\":4931:4945  i < TREE_DEPTH */\n  0xffffffff\n  dup3\n  and\n  lt\n    /* \"contracts/SwirlPrivatePoolV2.sol\":4912:5007  for (uint32 i = 0; i < TREE_DEPTH; i++) {... */\n  iszero\n  tag_38\n  jumpi\n    /* \"contracts/SwirlPrivatePoolV2.sol\":4987:4992  zeros */\n  0x03\n    /* \"contracts/SwirlPrivatePoolV2.sol\":4993:4994  i */\n  dup2\n    /* \"contracts/SwirlPrivatePoolV2.sol\":4987:4995  zeros[i] */\n  0xffffffff\n  and\n  0x14\n  dup2\n  lt\n  tag_41\n  jumpi\n  tag_41\n  tag_25\n  jump\t// in\ntag_41:\n  add\n  sload\n    /* \"contracts/SwirlPrivatePoolV2.sol\":4967:4981  filledSubtrees */\n  0x17\n    /* \"contracts/SwirlPrivatePoolV2.sol\":4982:4983  i */\n  dup3\n    /* \"contracts/SwirlPrivatePoolV2.sol\":4967:4984  filledSubtrees[i] */\n  0xffffffff\n  and\n  0x14\n  dup2\n  lt\n  tag_44\n  jumpi\n  tag_44\n  tag_25\n  jump\t// in\ntag_44:\n  add\n    /* \"contracts/SwirlPrivatePoolV2.sol\":4967:4995  filledSubtrees[i] = zeros[i] */\n  sstore\n    /* \"contracts/SwirlPrivatePoolV2.sol\":4947:4950  i++ */\n  0x01\n  add\n    /* \"contracts/SwirlPrivatePoolV2.sol\":4912:5007  for (uint32 i = 0; i < TREE_DEPTH; i++) {... */\n  jump(tag_37)\ntag_38:\n  pop\n    /* \"contracts/SwirlPrivatePoolV2.sol\":5033:5038  zeros */\n  0x03\n    /* \"contracts/SwirlPrivatePoolV2.sol\":5039:5053  TREE_DEPTH - 1 */\n  tag_46\n    /* \"contracts/SwirlPrivatePoolV2.sol\":5052:5053  1 */\n  0x01\n    /* \"contracts/SwirlPrivatePoolV2.sol\":3114:3116  20 */\n  0x14\n    /* \"contracts/SwirlPrivatePoolV2.sol\":5039:5053  TREE_DEPTH - 1 */\n  tag_47\n  jump\t// in\ntag_46:\n    /* \"contracts/SwirlPrivatePoolV2.sol\":5033:5054  zeros[TREE_DEPTH - 1] */\n  0xffffffff\n  and\n  0x14\n  dup2\n  lt\n  tag_49\n  jumpi\n  tag_49\n  tag_25\n  jump\t// in\ntag_49:\n  add\n  sload\n    /* \"contracts/SwirlPrivatePoolV2.sol\":5019:5030  currentRoot */\n  0x2b\n    /* \"contracts/SwirlPrivatePoolV2.sol\":5019:5054  currentRoot = zeros[TREE_DEPTH - 1] */\n  dup2\n  swap1\n  sstore\n    /* \"contracts/SwirlPrivatePoolV2.sol\":5065:5088  knownRoots[currentRoot] */\n  0x00\n  swap1\n  dup2\n  mstore\n    /* \"contracts/SwirlPrivatePoolV2.sol\":5065:5075  knownRoots */\n  0x2e\n    /* \"contracts/SwirlPrivatePoolV2.sol\":5065:5088  knownRoots[currentRoot] */\n  0x20\n  mstore\n  0x40\n  swap1\n  keccak256\n    /* \"contracts/SwirlPrivatePoolV2.sol\":5065:5095  knownRoots[currentRoot] = true */\n  dup1\n  sload\n  not(0xff)\n  and\n    /* \"contracts/SwirlPrivatePoolV2.sol\":5091:5095  true */\n  0x01\n    /* \"contracts/SwirlPrivatePoolV2.sol\":5065:5095  knownRoots[currentRoot] = true */\n  or\n  swap1\n  sstore\n  pop\n    /* \"contracts/SwirlPrivatePoolV2.sol\":923:11841  contract SwirlPrivatePool is Pausable, Ownable, ReentrancyGuard {... */\n  tag_54\n  swap2\n  pop\n  pop\n  jump\n    /* \"@openzeppelin/contracts/access/Ownable.sol\":2912:3099  function _transferOwnership(address newOwner) internal virtual {... */\ntag_14:\n    /* \"@openzeppelin/contracts/access/Ownable.sol\":2985:3001  address oldOwner */\n  0x00\n    /* \"@openzeppelin/contracts/access/Ownable.sol\":3004:3010  _owner */\n  dup1\n  sload\n  sub(shl(0xa0, 0x01), 0x01)\n    /* \"@openzeppelin/contracts/access/Ownable.sol\":3020:3037  _owner = newOwner */\n  dup4\n  dup2\n  and\n    /* \"@openzeppelin/contracts/access/Ownable.sol\":3004:3010  _owner */\n  0x0100\n    /* \"@openzeppelin/contracts/access/Ownable.sol\":3020:3037  _owner = newOwner */\n  dup2\n  dup2\n  mul\n  not(sub(shl(0xa8, 0x01), 0x0100))\n  dup6\n  and\n  or\n  dup6\n  sstore\n    /* \"@openzeppelin/contracts/access/Ownable.sol\":3052:3092  OwnershipTransferred(oldOwner, newOwner) */\n  mload(0x40)\n    /* \"@openzeppelin/contracts/access/Ownable.sol\":3004:3010  _owner */\n  swap4\n  div\n  swap2\n  swap1\n  swap2\n  and\n  swap3\n    /* \"@openzeppelin/contracts/access/Ownable.sol\":3020:3037  _owner = newOwner */\n  swap1\n  swap2\n    /* \"@openzeppelin/contracts/access/Ownable.sol\":3004:3010  _owner */\n  dup4\n  swap2\n    /* \"@openzeppelin/contracts/access/Ownable.sol\":3052:3092  OwnershipTransferred(oldOwner, newOwner) */\n  0x8be0079c531659141344cd1fd0a4f28419497f9722a3daafe3b4186f6b6457e0\n  swap2\n  log3\n    /* \"@openzeppelin/contracts/access/Ownable.sol\":2975:3099  {... */\n  pop\n    /* \"@openzeppelin/contracts/access/Ownable.sol\":2912:3099  function _transferOwnership(address newOwner) internal virtual {... */\n  pop\n  jump\t// out\n    /* \"#utility.yul\":14:191   */\ntag_53:\n    /* \"#utility.yul\":93:106   */\n  dup1\n  mload\n  sub(shl(0xa0, 0x01), 0x01)\n    /* \"#utility.yul\":135:166   */\n  dup2\n  and\n    /* \"#utility.yul\":125:167   */\n  dup2\n  eq\n    /* \"#utility.yul\":115:185   */\n  tag_56\n  jumpi\n    /* \"#utility.yul\":181:182   */\n  0x00\n    /* \"#utility.yul\":178:179   */\n  0x00\n    /* \"#utility.yul\":171:183   */\n  revert\n    /* \"#utility.yul\":115:185   */\ntag_56:\n    /* \"#utility.yul\":14:191   */\n  swap2\n  swap1\n  pop\n  jump\t// out\n    /* \"#utility.yul\":196:489   */\ntag_3:\n    /* \"#utility.yul\":275:281   */\n  0x00\n    /* \"#utility.yul\":283:289   */\n  0x00\n    /* \"#utility.yul\":336:338   */\n  0x40\n    /* \"#utility.yul\":324:333   */\n  dup4\n    /* \"#utility.yul\":315:322   */\n  dup6\n    /* \"#utility.yul\":311:334   */\n  sub\n    /* \"#utility.yul\":307:339   */\n  slt\n    /* \"#utility.yul\":304:356   */\n  iszero\n  tag_58\n  jumpi\n    /* \"#utility.yul\":352:353   */\n  0x00\n    /* \"#utility.yul\":349:350   */\n  0x00\n    /* \"#utility.yul\":342:354   */\n  revert\n    /* \"#utility.yul\":304:356   */\ntag_58:\n    /* \"#utility.yul\":375:415   */\n  tag_59\n    /* \"#utility.yul\":405:414   */\n  dup4\n    /* \"#utility.yul\":375:415   */\n  tag_53\n  jump\t// in\ntag_59:\n    /* \"#utility.yul\":365:415   */\n  swap2\n  pop\n    /* \"#utility.yul\":434:483   */\n  tag_60\n    /* \"#utility.yul\":479:481   */\n  0x20\n    /* \"#utility.yul\":468:477   */\n  dup5\n    /* \"#utility.yul\":464:482   */\n  add\n    /* \"#utility.yul\":434:483   */\n  tag_53\n  jump\t// in\ntag_60:\n    /* \"#utility.yul\":424:483   */\n  swap1\n  pop\n    /* \"#utility.yul\":196:489   */\n  swap3\n  pop\n  swap3\n  swap1\n  pop\n  jump\t// out\n    /* \"#utility.yul\":702:1173   */\ntag_18:\n    /* \"#utility.yul\":882:884   */\n  0x40\n    /* \"#utility.yul\":867:885   */\n  dup2\n  add\n    /* \"#utility.yul\":871:880   */\n  dup2\n    /* \"#utility.yul\":962:968   */\n  dup4\n    /* \"#utility.yul\":840:844   */\n  0x00\n    /* \"#utility.yul\":996:1167   */\ntag_63:\n    /* \"#utility.yul\":1010:1014   */\n  0x02\n    /* \"#utility.yul\":1007:1008   */\n  dup2\n    /* \"#utility.yul\":1004:1015   */\n  lt\n    /* \"#utility.yul\":996:1167   */\n  iszero\n  tag_65\n  jumpi\n    /* \"#utility.yul\":1069:1082   */\n  dup2\n  mload\n    /* \"#utility.yul\":1057:1083   */\n  dup4\n  mstore\n    /* \"#utility.yul\":1112:1116   */\n  0x20\n    /* \"#utility.yul\":1103:1117   */\n  swap3\n  dup4\n  add\n  swap3\n    /* \"#utility.yul\":1140:1157   */\n  swap1\n  swap2\n  add\n  swap1\n    /* \"#utility.yul\":1030:1031   */\n  0x01\n    /* \"#utility.yul\":1023:1032   */\n  add\n    /* \"#utility.yul\":996:1167   */\n  jump(tag_63)\ntag_65:\n    /* \"#utility.yul\":1000:1003   */\n  pop\n  pop\n  pop\n    /* \"#utility.yul\":702:1173   */\n  swap3\n  swap2\n  pop\n  pop\n  jump\t// out\n    /* \"#utility.yul\":1178:1362   */\ntag_22:\n    /* \"#utility.yul\":1248:1254   */\n  0x00\n    /* \"#utility.yul\":1301:1303   */\n  0x20\n    /* \"#utility.yul\":1289:1298   */\n  dup3\n    /* \"#utility.yul\":1280:1287   */\n  dup5\n    /* \"#utility.yul\":1276:1299   */\n  sub\n    /* \"#utility.yul\":1272:1304   */\n  slt\n    /* \"#utility.yul\":1269:1321   */\n  iszero\n  tag_67\n  jumpi\n    /* \"#utility.yul\":1317:1318   */\n  0x00\n    /* \"#utility.yul\":1314:1315   */\n  0x00\n    /* \"#utility.yul\":1307:1319   */\n  revert\n    /* \"#utility.yul\":1269:1321   */\ntag_67:\n  pop\n    /* \"#utility.yul\":1340:1356   */\n  mload\n  swap2\n    /* \"#utility.yul\":1178:1362   */\n  swap1\n  pop\n  jump\t// out\n    /* \"#utility.yul\":1367:1494   */\ntag_25:\n    /* \"#utility.yul\":1428:1438   */\n  0x4e487b71\n    /* \"#utility.yul\":1423:1426   */\n  0xe0\n    /* \"#utility.yul\":1419:1439   */\n  shl\n    /* \"#utility.yul\":1416:1417   */\n  0x00\n    /* \"#utility.yul\":1409:1440   */\n  mstore\n    /* \"#utility.yul\":1459:1463   */\n  0x32\n    /* \"#utility.yul\":1456:1457   */\n  0x04\n    /* \"#utility.yul\":1449:1464   */\n  mstore\n    /* \"#utility.yul\":1483:1487   */\n  0x24\n    /* \"#utility.yul\":1480:1481   */\n  0x00\n    /* \"#utility.yul\":1473:1488   */\n  revert\n    /* \"#utility.yul\":1499:1766   */\ntag_47:\n    /* \"#utility.yul\":1596:1606   */\n  0xffffffff\n    /* \"#utility.yul\":1589:1607   */\n  dup3\n  dup2\n  and\n    /* \"#utility.yul\":1569:1587   */\n  dup3\n  dup3\n  and\n    /* \"#utility.yul\":1565:1608   */\n  sub\n  swap1\n    /* \"#utility.yul\":1620:1640   */\n  dup2\n  gt\n    /* \"#utility.yul\":1617:1760   */\n  iszero\n  tag_70\n  jumpi\n    /* \"#utility.yul\":1682:1692   */\n  0x4e487b71\n    /* \"#utility.yul\":1677:1680   */\n  0xe0\n    /* \"#utility.yul\":1673:1693   */\n  shl\n    /* \"#utility.yul\":1670:1671   */\n  0x00\n    /* \"#utility.yul\":1663:1694   */\n  mstore\n    /* \"#utility.yul\":1717:1721   */\n  0x11\n    /* \"#utility.yul\":1714:1715   */\n  0x04\n    /* \"#utility.yul\":1707:1722   */\n  mstore\n    /* \"#utility.yul\":1745:1749   */\n  0x24\n    /* \"#utility.yul\":1742:1743   */\n  0x00\n    /* \"#utility.yul\":1735:1750   */\n  revert\n    /* \"#utility.yul\":1617:1760   */\ntag_70:\n    /* \"#utility.yul\":1499:1766   */\n  swap3\n  swap2\n  pop\n  pop\n  jump\t// out\ntag_54:\n    /* \"contracts/SwirlPrivatePoolV2.sol\":923:11841  contract SwirlPrivatePool is Pausable, Ownable, ReentrancyGuard {... */\n  mload(0x80)\n  mload(0xa0)\n  codecopy(0x00, dataOffset(sub_0), dataSize(sub_0))\n  0x00\n  assignImmutable(\"0xae31ed75e23e551fde6d038a3aec15ab1ea2fb6c912f84d137c43e0d0ce559b2\")\n  0x00\n  assignImmutable(\"0x650ed8ce37a4ca016960f899232a7a29f723fd75cf8c4efab7095bc4e4608e95\")\n  return(0x00, dataSize(sub_0))\nstop\n\nsub_0: assembly {\n        /* \"contracts/SwirlPrivatePoolV2.sol\":923:11841  contract SwirlPrivatePool is Pausable, Ownable, ReentrancyGuard {... */\n      mstore(0x40, 0x80)\n      jumpi(tag_1, lt(calldatasize, 0x04))\n      shr(0xe0, calldataload(0x00))\n      dup1\n      0x8b01429d\n      gt\n      tag_31\n      jumpi\n      dup1\n      0xe8295588\n      gt\n      tag_32\n      jumpi\n      dup1\n      0xf9f92be4\n      gt\n      tag_33\n      jumpi\n      dup1\n      0xf9f92be4\n      eq\n      tag_27\n      jumpi\n      dup1\n      0xfc7e9c6f\n      eq\n      tag_28\n      jumpi\n      dup1\n      0xfdab463d\n      eq\n      tag_29\n      jumpi\n      dup1\n      0xfe575a87\n      eq\n      tag_30\n      jumpi\n      revert(0x00, 0x00)\n    tag_33:\n      dup1\n      0xe8295588\n      eq\n      tag_23\n      jumpi\n      dup1\n      0xf1650536\n      eq\n      tag_24\n      jumpi\n      dup1\n      0xf178e47c\n      eq\n      tag_25\n      jumpi\n      dup1\n      0xf2fde38b\n      eq\n      tag_26\n      jumpi\n      revert(0x00, 0x00)\n    tag_32:\n      dup1\n      0xb130eaa6\n      gt\n      tag_34\n      jumpi\n      dup1\n      0xb130eaa6\n      eq\n      tag_19\n      jumpi\n      dup1\n      0xb214faa5\n      eq\n      tag_20\n      jumpi\n      dup1\n      0xc62b919e\n      eq\n      tag_21\n      jumpi\n      dup1\n      0xe5285dcc\n      eq\n      tag_22\n      jumpi\n      revert(0x00, 0x00)\n    tag_34:\n      dup1\n      0x8b01429d\n      eq\n      tag_16\n      jumpi\n      dup1\n      0x8da5cb5b\n      eq\n      tag_17\n      jumpi\n      dup1\n      0x90683e8c\n      eq\n      tag_18\n      jumpi\n      revert(0x00, 0x00)\n    tag_31:\n      dup1\n      0x3f4ba83a\n      gt\n      tag_35\n      jumpi\n      dup1\n      0x5c975abb\n      gt\n      tag_36\n      jumpi\n      dup1\n      0x5c975abb\n      eq\n      tag_12\n      jumpi\n      dup1\n      0x715018a6\n      eq\n      tag_13\n      jumpi\n      dup1\n      0x7be441d1\n      eq\n      tag_14\n      jumpi\n      dup1\n      0x8456cb59\n      eq\n      tag_15\n      jumpi\n      revert(0x00, 0x00)\n    tag_36:\n      dup1\n      0x3f4ba83a\n      eq\n      tag_9\n      jumpi\n      dup1\n      0x40f6ac31\n      eq\n      tag_10\n      jumpi\n      dup1\n      0x4e73da7d\n      eq\n      tag_11\n      jumpi\n      revert(0x00, 0x00)\n    tag_35:\n      dup1\n      0x14a0394e\n      gt\n      tag_37\n      jumpi\n      dup1\n      0x14a0394e\n      eq\n      tag_5\n      jumpi\n      dup1\n      0x164e68de\n      eq\n      tag_6\n      jumpi\n      dup1\n      0x17cc915c\n      eq\n      tag_7\n      jumpi\n      dup1\n      0x2b7ac3f3\n      eq\n      tag_8\n      jumpi\n      revert(0x00, 0x00)\n    tag_37:\n      dup1\n      0x082febf0\n      eq\n      tag_2\n      jumpi\n      dup1\n      0x0b4501fd\n      eq\n      tag_3\n      jumpi\n      dup1\n      0x13114a9d\n      eq\n      tag_4\n      jumpi\n    tag_1:\n      revert(0x00, 0x00)\n        /* \"contracts/SwirlPrivatePoolV2.sol\":3123:3185  uint32  public constant MAX_LEAVES   = uint32(1 << TREE_DEPTH) */\n    tag_2:\n      callvalue\n      dup1\n      iszero\n      tag_38\n      jumpi\n      revert(0x00, 0x00)\n    tag_38:\n      pop\n      tag_39\n        /* \"contracts/SwirlPrivatePoolV2.sol\":3169:3184  1 << TREE_DEPTH */\n      0x100000\n        /* \"contracts/SwirlPrivatePoolV2.sol\":3123:3185  uint32  public constant MAX_LEAVES   = uint32(1 << TREE_DEPTH) */\n      dup2\n      jump\n    tag_39:\n      mload(0x40)\n        /* \"#utility.yul\":188:198   */\n      0xffffffff\n        /* \"#utility.yul\":176:199   */\n      swap1\n      swap2\n      and\n        /* \"#utility.yul\":158:200   */\n      dup2\n      mstore\n        /* \"#utility.yul\":146:148   */\n      0x20\n        /* \"#utility.yul\":131:149   */\n      add\n        /* \"contracts/SwirlPrivatePoolV2.sol\":3123:3185  uint32  public constant MAX_LEAVES   = uint32(1 << TREE_DEPTH) */\n    tag_41:\n      mload(0x40)\n      dup1\n      swap2\n      sub\n      swap1\n      return\n        /* \"contracts/SwirlPrivatePoolV2.sol\":3020:3068  uint256 public constant PROTOCOL_FEE = 0.1 ether */\n    tag_3:\n      callvalue\n      dup1\n      iszero\n      tag_43\n      jumpi\n      revert(0x00, 0x00)\n    tag_43:\n      pop\n      tag_44\n        /* \"contracts/SwirlPrivatePoolV2.sol\":3059:3068  0.1 ether */\n      0x016345785d8a0000\n        /* \"contracts/SwirlPrivatePoolV2.sol\":3020:3068  uint256 public constant PROTOCOL_FEE = 0.1 ether */\n      dup2\n      jump\n    tag_44:\n      mload(0x40)\n        /* \"#utility.yul\":357:382   */\n      swap1\n      dup2\n      mstore\n        /* \"#utility.yul\":345:347   */\n      0x20\n        /* \"#utility.yul\":330:348   */\n      add\n        /* \"contracts/SwirlPrivatePoolV2.sol\":3020:3068  uint256 public constant PROTOCOL_FEE = 0.1 ether */\n      tag_41\n        /* \"#utility.yul\":211:388   */\n      jump\n        /* \"contracts/SwirlPrivatePoolV2.sol\":3378:3406  uint256 public totalFees = 0 */\n    tag_4:\n      callvalue\n      dup1\n      iszero\n      tag_48\n      jumpi\n      revert(0x00, 0x00)\n    tag_48:\n      pop\n      tag_44\n      sload(0x02)\n      dup2\n      jump\n        /* \"contracts/SwirlPrivatePoolV2.sol\":5600:5735  function pardon(address _address) public onlyOwner {... */\n    tag_5:\n      callvalue\n      dup1\n      iszero\n      tag_52\n      jumpi\n      revert(0x00, 0x00)\n    tag_52:\n      pop\n      tag_53\n      tag_54\n      calldatasize\n      0x04\n      tag_55\n      jump\t// in\n    tag_54:\n      tag_56\n      jump\t// in\n    tag_53:\n      stop\n        /* \"contracts/SwirlPrivatePoolV2.sol\":9770:10184  function withdrawFees(address _treasury) external onlyOwner nonReentrant {... */\n    tag_6:\n      callvalue\n      dup1\n      iszero\n      tag_57\n      jumpi\n      revert(0x00, 0x00)\n    tag_57:\n      pop\n      tag_53\n      tag_59\n      calldatasize\n      0x04\n      tag_55\n      jump\t// in\n    tag_59:\n      tag_60\n      jump\t// in\n        /* \"contracts/SwirlPrivatePoolV2.sol\":3845:3892  mapping(bytes32 => bool) public nullifierHashes */\n    tag_7:\n      callvalue\n      dup1\n      iszero\n      tag_61\n      jumpi\n      revert(0x00, 0x00)\n    tag_61:\n      pop\n      tag_62\n      tag_63\n      calldatasize\n      0x04\n      tag_64\n      jump\t// in\n    tag_63:\n      mstore(0x20, 0x2d)\n      0x00\n      swap1\n      dup2\n      mstore\n      0x40\n      swap1\n      keccak256\n      sload\n      0xff\n      and\n      dup2\n      jump\n    tag_62:\n      mload(0x40)\n        /* \"#utility.yul\":1177:1191   */\n      swap1\n      iszero\n        /* \"#utility.yul\":1170:1192   */\n      iszero\n        /* \"#utility.yul\":1152:1193   */\n      dup2\n      mstore\n        /* \"#utility.yul\":1140:1142   */\n      0x20\n        /* \"#utility.yul\":1125:1143   */\n      add\n        /* \"contracts/SwirlPrivatePoolV2.sol\":3845:3892  mapping(bytes32 => bool) public nullifierHashes */\n      tag_41\n        /* \"#utility.yul\":1012:1199   */\n      jump\n        /* \"contracts/SwirlPrivatePoolV2.sol\":3602:3637  IVerifier public immutable verifier */\n    tag_8:\n      callvalue\n      dup1\n      iszero\n      tag_68\n      jumpi\n      revert(0x00, 0x00)\n    tag_68:\n      pop\n      tag_69\n      immutable(\"0x650ed8ce37a4ca016960f899232a7a29f723fd75cf8c4efab7095bc4e4608e95\")\n      dup2\n      jump\n    tag_69:\n      mload(0x40)\n      sub(shl(0xa0, 0x01), 0x01)\n        /* \"#utility.yul\":1385:1417   */\n      swap1\n      swap2\n      and\n        /* \"#utility.yul\":1367:1418   */\n      dup2\n      mstore\n        /* \"#utility.yul\":1355:1357   */\n      0x20\n        /* \"#utility.yul\":1340:1358   */\n      add\n        /* \"contracts/SwirlPrivatePoolV2.sol\":3602:3637  IVerifier public immutable verifier */\n      tag_41\n        /* \"#utility.yul\":1204:1424   */\n      jump\n        /* \"contracts/SwirlPrivatePoolV2.sol\":5997:6064  function unpause() external onlyOwner {... */\n    tag_9:\n      callvalue\n      dup1\n      iszero\n      tag_73\n      jumpi\n      revert(0x00, 0x00)\n    tag_73:\n      pop\n      tag_53\n      tag_75\n      jump\t// in\n        /* \"contracts/SwirlPrivatePoolV2.sol\":10293:10698  function burnFees() external onlyOwner nonReentrant whenPaused {... */\n    tag_10:\n      callvalue\n      dup1\n      iszero\n      tag_76\n      jumpi\n      revert(0x00, 0x00)\n    tag_76:\n      pop\n      tag_53\n      tag_78\n      jump\t// in\n        /* \"contracts/SwirlPrivatePoolV2.sol\":3899:3941  mapping(bytes32 => bool) public knownRoots */\n    tag_11:\n      callvalue\n      dup1\n      iszero\n      tag_79\n      jumpi\n      revert(0x00, 0x00)\n    tag_79:\n      pop\n      tag_62\n      tag_81\n      calldatasize\n      0x04\n      tag_64\n      jump\t// in\n    tag_81:\n      mstore(0x20, 0x2e)\n      0x00\n      swap1\n      dup2\n      mstore\n      0x40\n      swap1\n      keccak256\n      sload\n      0xff\n      and\n      dup2\n      jump\n        /* \"@openzeppelin/contracts/security/Pausable.sol\":1615:1699  function paused() public view virtual returns (bool) {... */\n    tag_12:\n      callvalue\n      dup1\n      iszero\n      tag_84\n      jumpi\n      revert(0x00, 0x00)\n    tag_84:\n      pop\n        /* \"@openzeppelin/contracts/security/Pausable.sol\":1662:1666  bool */\n      0x00\n        /* \"@openzeppelin/contracts/security/Pausable.sol\":1685:1692  _paused */\n      sload\n      0xff\n      and\n        /* \"@openzeppelin/contracts/security/Pausable.sol\":1615:1699  function paused() public view virtual returns (bool) {... */\n      jump(tag_62)\n        /* \"@openzeppelin/contracts/access/Ownable.sol\":2293:2394  function renounceOwnership() public virtual onlyOwner {... */\n    tag_13:\n      callvalue\n      dup1\n      iszero\n      tag_88\n      jumpi\n      revert(0x00, 0x00)\n    tag_88:\n      pop\n      tag_53\n      tag_90\n      jump\t// in\n        /* \"contracts/SwirlPrivatePoolV2.sol\":11748:11836  function checkFees() external view returns (uint256) {... */\n    tag_14:\n      callvalue\n      dup1\n      iszero\n      tag_91\n      jumpi\n      revert(0x00, 0x00)\n    tag_91:\n      pop\n        /* \"contracts/SwirlPrivatePoolV2.sol\":11819:11828  totalFees */\n      sload(0x02)\n        /* \"contracts/SwirlPrivatePoolV2.sol\":11748:11836  function checkFees() external view returns (uint256) {... */\n      jump(tag_44)\n        /* \"contracts/SwirlPrivatePoolV2.sol\":5926:5989  function pause() external onlyOwner {... */\n    tag_15:\n      callvalue\n      dup1\n      iszero\n      tag_95\n      jumpi\n      revert(0x00, 0x00)\n    tag_95:\n      pop\n      tag_53\n      tag_97\n      jump\t// in\n        /* \"contracts/SwirlPrivatePoolV2.sol\":2967:3013  uint256 public constant DENOMINATION = 1 ether */\n    tag_16:\n      callvalue\n      dup1\n      iszero\n      tag_98\n      jumpi\n      revert(0x00, 0x00)\n    tag_98:\n      pop\n      tag_44\n        /* \"contracts/SwirlPrivatePoolV2.sol\":3006:3013  1 ether */\n      0x0de0b6b3a7640000\n        /* \"contracts/SwirlPrivatePoolV2.sol\":2967:3013  uint256 public constant DENOMINATION = 1 ether */\n      dup2\n      jump\n        /* \"@openzeppelin/contracts/access/Ownable.sol\":1638:1723  function owner() public view virtual returns (address) {... */\n    tag_17:\n      callvalue\n      dup1\n      iszero\n      tag_102\n      jumpi\n      revert(0x00, 0x00)\n    tag_102:\n      pop\n        /* \"@openzeppelin/contracts/access/Ownable.sol\":1684:1691  address */\n      0x00\n        /* \"@openzeppelin/contracts/access/Ownable.sol\":1710:1716  _owner */\n      sload\n      0x0100\n      swap1\n      div\n      sub(shl(0xa0, 0x01), 0x01)\n      and\n        /* \"@openzeppelin/contracts/access/Ownable.sol\":1638:1723  function owner() public view virtual returns (address) {... */\n      jump(tag_69)\n        /* \"contracts/SwirlPrivatePoolV2.sol\":11465:11591  function isAddressBlacklisted(address _address) external view returns (bool) {... */\n    tag_18:\n      callvalue\n      dup1\n      iszero\n      tag_107\n      jumpi\n      revert(0x00, 0x00)\n    tag_107:\n      pop\n      tag_62\n      tag_109\n      calldatasize\n      0x04\n      tag_55\n      jump\t// in\n    tag_109:\n      sub(shl(0xa0, 0x01), 0x01)\n        /* \"contracts/SwirlPrivatePoolV2.sol\":11560:11583  isBlacklisted[_address] */\n      and\n        /* \"contracts/SwirlPrivatePoolV2.sol\":11536:11540  bool */\n      0x00\n        /* \"contracts/SwirlPrivatePoolV2.sol\":11560:11583  isBlacklisted[_address] */\n      swap1\n      dup2\n      mstore\n        /* \"contracts/SwirlPrivatePoolV2.sol\":11560:11573  isBlacklisted */\n      0x2f\n        /* \"contracts/SwirlPrivatePoolV2.sol\":11560:11583  isBlacklisted[_address] */\n      0x20\n      mstore\n      0x40\n      swap1\n      keccak256\n      sload\n      0xff\n      and\n      swap1\n        /* \"contracts/SwirlPrivatePoolV2.sol\":11465:11591  function isAddressBlacklisted(address _address) external view returns (bool) {... */\n      jump\n        /* \"contracts/SwirlPrivatePoolV2.sol\":8544:9369  function withdraw(... */\n    tag_19:\n      callvalue\n      dup1\n      iszero\n      tag_112\n      jumpi\n      revert(0x00, 0x00)\n    tag_112:\n      pop\n      tag_53\n      tag_114\n      calldatasize\n      0x04\n      tag_115\n      jump\t// in\n    tag_114:\n      tag_116\n      jump\t// in\n        /* \"contracts/SwirlPrivatePoolV2.sol\":6522:8051  function deposit(... */\n    tag_20:\n      tag_53\n      tag_118\n      calldatasize\n      0x04\n      tag_64\n      jump\t// in\n    tag_118:\n      tag_119\n      jump\t// in\n        /* \"contracts/SwirlPrivatePoolV2.sol\":3644:3681  IPoseidonT2 public immutable poseidon */\n    tag_21:\n      callvalue\n      dup1\n      iszero\n      tag_120\n      jumpi\n      revert(0x00, 0x00)\n    tag_120:\n      pop\n      tag_69\n      immutable(\"0xae31ed75e23e551fde6d038a3aec15ab1ea2fb6c912f84d137c43e0d0ce559b2\")\n      dup2\n      jump\n        /* \"contracts/SwirlPrivatePoolV2.sol\":11114:11239  function isSpent(bytes32 nullifierHash) external view returns (bool) {... */\n    tag_22:\n      callvalue\n      dup1\n      iszero\n      tag_125\n      jumpi\n      revert(0x00, 0x00)\n    tag_125:\n      pop\n      tag_62\n      tag_127\n      calldatasize\n      0x04\n      tag_64\n      jump\t// in\n    tag_127:\n        /* \"contracts/SwirlPrivatePoolV2.sol\":11177:11181  bool */\n      0x00\n        /* \"contracts/SwirlPrivatePoolV2.sol\":11201:11231  nullifierHashes[nullifierHash] */\n      swap1\n      dup2\n      mstore\n        /* \"contracts/SwirlPrivatePoolV2.sol\":11201:11216  nullifierHashes */\n      0x2d\n        /* \"contracts/SwirlPrivatePoolV2.sol\":11201:11231  nullifierHashes[nullifierHash] */\n      0x20\n      mstore\n      0x40\n      swap1\n      keccak256\n      sload\n      0xff\n      and\n      swap1\n        /* \"contracts/SwirlPrivatePoolV2.sol\":11114:11239  function isSpent(bytes32 nullifierHash) external view returns (bool) {... */\n      jump\n        /* \"contracts/SwirlPrivatePoolV2.sol\":3690:3722  bytes32[TREE_DEPTH] public zeros */\n    tag_23:\n      callvalue\n      dup1\n      iszero\n      tag_130\n      jumpi\n      revert(0x00, 0x00)\n    tag_130:\n      pop\n      tag_44\n      tag_132\n      calldatasize\n      0x04\n      tag_64\n      jump\t// in\n    tag_132:\n      tag_134\n      jump\t// in\n        /* \"contracts/SwirlPrivatePoolV2.sol\":3075:3116  uint32  public constant TREE_DEPTH   = 20 */\n    tag_24:\n      callvalue\n      dup1\n      iszero\n      tag_137\n      jumpi\n      revert(0x00, 0x00)\n    tag_137:\n      pop\n      tag_39\n        /* \"contracts/SwirlPrivatePoolV2.sol\":3114:3116  20 */\n      0x14\n        /* \"contracts/SwirlPrivatePoolV2.sol\":3075:3116  uint32  public constant TREE_DEPTH   = 20 */\n      dup2\n      jump\n        /* \"contracts/SwirlPrivatePoolV2.sol\":3729:3770  bytes32[TREE_DEPTH] public filledSubtrees */\n    tag_25:\n      callvalue\n      dup1\n      iszero\n      tag_141\n      jumpi\n      revert(0x00, 0x00)\n    tag_141:\n      pop\n      tag_44\n      tag_143\n      calldatasize\n      0x04\n      tag_64\n      jump\t// in\n    tag_143:\n      tag_144\n      jump\t// in\n        /* \"@openzeppelin/contracts/access/Ownable.sol\":2543:2758  function transferOwnership(address newOwner) public virtual onlyOwner {... */\n    tag_26:\n      callvalue\n      dup1\n      iszero\n      tag_146\n      jumpi\n      revert(0x00, 0x00)\n    tag_146:\n      pop\n      tag_53\n      tag_148\n      calldatasize\n      0x04\n      tag_55\n      jump\t// in\n    tag_148:\n      tag_149\n      jump\t// in\n        /* \"contracts/SwirlPrivatePoolV2.sol\":5372:5512  function blacklist(address _address) public onlyOwner {... */\n    tag_27:\n      callvalue\n      dup1\n      iszero\n      tag_150\n      jumpi\n      revert(0x00, 0x00)\n    tag_150:\n      pop\n      tag_53\n      tag_152\n      calldatasize\n      0x04\n      tag_55\n      jump\t// in\n    tag_152:\n      tag_153\n      jump\t// in\n        /* \"contracts/SwirlPrivatePoolV2.sol\":3812:3836  uint32  public nextIndex */\n    tag_28:\n      callvalue\n      dup1\n      iszero\n      tag_154\n      jumpi\n      revert(0x00, 0x00)\n    tag_154:\n      pop\n      sload(0x2c)\n      tag_39\n      swap1\n      0xffffffff\n      and\n      dup2\n      jump\n        /* \"contracts/SwirlPrivatePoolV2.sol\":3779:3805  bytes32 public currentRoot */\n    tag_29:\n      callvalue\n      dup1\n      iszero\n      tag_158\n      jumpi\n      revert(0x00, 0x00)\n    tag_158:\n      pop\n      tag_44\n      sload(0x2b)\n      dup2\n      jump\n        /* \"contracts/SwirlPrivatePoolV2.sol\":3948:3993  mapping(address => bool) public isBlacklisted */\n    tag_30:\n      callvalue\n      dup1\n      iszero\n      tag_162\n      jumpi\n      revert(0x00, 0x00)\n    tag_162:\n      pop\n      tag_62\n      tag_164\n      calldatasize\n      0x04\n      tag_55\n      jump\t// in\n    tag_164:\n      mstore(0x20, 0x2f)\n      0x00\n      swap1\n      dup2\n      mstore\n      0x40\n      swap1\n      keccak256\n      sload\n      0xff\n      and\n      dup2\n      jump\n        /* \"contracts/SwirlPrivatePoolV2.sol\":5600:5735  function pardon(address _address) public onlyOwner {... */\n    tag_56:\n        /* \"@openzeppelin/contracts/access/Ownable.sol\":1531:1544  _checkOwner() */\n      tag_168\n        /* \"@openzeppelin/contracts/access/Ownable.sol\":1531:1542  _checkOwner */\n      tag_169\n        /* \"@openzeppelin/contracts/access/Ownable.sol\":1531:1544  _checkOwner() */\n      jump\t// in\n    tag_168:\n      sub(shl(0xa0, 0x01), 0x01)\n        /* \"contracts/SwirlPrivatePoolV2.sol\":5662:5685  isBlacklisted[_address] */\n      dup2\n      and\n        /* \"contracts/SwirlPrivatePoolV2.sol\":5688:5693  false */\n      0x00\n        /* \"contracts/SwirlPrivatePoolV2.sol\":5662:5685  isBlacklisted[_address] */\n      dup2\n      dup2\n      mstore\n        /* \"contracts/SwirlPrivatePoolV2.sol\":5662:5675  isBlacklisted */\n      0x2f\n        /* \"contracts/SwirlPrivatePoolV2.sol\":5662:5685  isBlacklisted[_address] */\n      0x20\n      swap1\n      dup2\n      mstore\n      0x40\n      swap2\n      dup3\n      swap1\n      keccak256\n        /* \"contracts/SwirlPrivatePoolV2.sol\":5662:5693  isBlacklisted[_address] = false */\n      dup1\n      sload\n      not(0xff)\n      and\n      swap1\n      sstore\n        /* \"contracts/SwirlPrivatePoolV2.sol\":5709:5727  Pardoned(_address) */\n      swap1\n      mload\n        /* \"#utility.yul\":1367:1418   */\n      swap2\n      dup3\n      mstore\n        /* \"contracts/SwirlPrivatePoolV2.sol\":5709:5727  Pardoned(_address) */\n      0x258edb8cc3ac42ac5670d060ab55b20f4d1a16137ceadae6212705aaedab5d1e\n      swap2\n        /* \"#utility.yul\":1340:1358   */\n      add\n        /* \"contracts/SwirlPrivatePoolV2.sol\":5709:5727  Pardoned(_address) */\n    tag_171:\n      mload(0x40)\n      dup1\n      swap2\n      sub\n      swap1\n      log1\n        /* \"contracts/SwirlPrivatePoolV2.sol\":5600:5735  function pardon(address _address) public onlyOwner {... */\n      pop\n      jump\t// out\n        /* \"contracts/SwirlPrivatePoolV2.sol\":9770:10184  function withdrawFees(address _treasury) external onlyOwner nonReentrant {... */\n    tag_60:\n        /* \"@openzeppelin/contracts/access/Ownable.sol\":1531:1544  _checkOwner() */\n      tag_173\n        /* \"@openzeppelin/contracts/access/Ownable.sol\":1531:1542  _checkOwner */\n      tag_169\n        /* \"@openzeppelin/contracts/access/Ownable.sol\":1531:1544  _checkOwner() */\n      jump\t// in\n    tag_173:\n        /* \"@openzeppelin/contracts/security/ReentrancyGuard.sol\":2261:2282  _nonReentrantBefore() */\n      tag_175\n        /* \"@openzeppelin/contracts/security/ReentrancyGuard.sol\":2261:2280  _nonReentrantBefore */\n      tag_176\n        /* \"@openzeppelin/contracts/security/ReentrancyGuard.sol\":2261:2282  _nonReentrantBefore() */\n      jump\t// in\n    tag_175:\n        /* \"contracts/SwirlPrivatePoolV2.sol\":9874:9875  0 */\n      0x00\n        /* \"contracts/SwirlPrivatePoolV2.sol\":9862:9871  totalFees */\n      sload(0x02)\n        /* \"contracts/SwirlPrivatePoolV2.sol\":9862:9875  totalFees > 0 */\n      gt\n        /* \"contracts/SwirlPrivatePoolV2.sol\":9854:9899  require(totalFees > 0, \"no fees to withdraw\") */\n      tag_178\n      jumpi\n      mload(0x40)\n      shl(0xe5, 0x461bcd)\n      dup2\n      mstore\n        /* \"#utility.yul\":3414:3416   */\n      0x20\n        /* \"contracts/SwirlPrivatePoolV2.sol\":9854:9899  require(totalFees > 0, \"no fees to withdraw\") */\n      0x04\n      dup3\n      add\n        /* \"#utility.yul\":3396:3417   */\n      mstore\n        /* \"#utility.yul\":3453:3455   */\n      0x13\n        /* \"#utility.yul\":3433:3451   */\n      0x24\n      dup3\n      add\n        /* \"#utility.yul\":3426:3456   */\n      mstore\n      shl(0x68, 0x6e6f206665657320746f207769746864726177)\n        /* \"#utility.yul\":3472:3490   */\n      0x44\n      dup3\n      add\n        /* \"#utility.yul\":3465:3514   */\n      mstore\n        /* \"#utility.yul\":3531:3549   */\n      0x64\n      add\n        /* \"contracts/SwirlPrivatePoolV2.sol\":9854:9899  require(totalFees > 0, \"no fees to withdraw\") */\n    tag_179:\n      mload(0x40)\n      dup1\n      swap2\n      sub\n      swap1\n      revert\n    tag_178:\n      sub(shl(0xa0, 0x01), 0x01)\n        /* \"contracts/SwirlPrivatePoolV2.sol\":9918:9941  _treasury != address(0) */\n      dup2\n      and\n        /* \"contracts/SwirlPrivatePoolV2.sol\":9910:9962  require(_treasury != address(0), \"invalid treasury\") */\n      tag_181\n      jumpi\n      mload(0x40)\n      shl(0xe5, 0x461bcd)\n      dup2\n      mstore\n        /* \"#utility.yul\":3762:3764   */\n      0x20\n        /* \"contracts/SwirlPrivatePoolV2.sol\":9910:9962  require(_treasury != address(0), \"invalid treasury\") */\n      0x04\n      dup3\n      add\n        /* \"#utility.yul\":3744:3765   */\n      mstore\n        /* \"#utility.yul\":3801:3803   */\n      0x10\n        /* \"#utility.yul\":3781:3799   */\n      0x24\n      dup3\n      add\n        /* \"#utility.yul\":3774:3804   */\n      mstore\n      shl(0x80, 0x696e76616c6964207472656173757279)\n        /* \"#utility.yul\":3820:3838   */\n      0x44\n      dup3\n      add\n        /* \"#utility.yul\":3813:3859   */\n      mstore\n        /* \"#utility.yul\":3876:3894   */\n      0x64\n      add\n        /* \"contracts/SwirlPrivatePoolV2.sol\":9910:9962  require(_treasury != address(0), \"invalid treasury\") */\n      tag_179\n        /* \"#utility.yul\":3560:3900   */\n      jump\n        /* \"contracts/SwirlPrivatePoolV2.sol\":9910:9962  require(_treasury != address(0), \"invalid treasury\") */\n    tag_181:\n        /* \"contracts/SwirlPrivatePoolV2.sol\":9992:10001  totalFees */\n      0x02\n      dup1\n      sload\n        /* \"contracts/SwirlPrivatePoolV2.sol\":9975:9989  uint256 amount */\n      0x00\n        /* \"contracts/SwirlPrivatePoolV2.sol\":10012:10025  totalFees = 0 */\n      swap2\n      dup3\n      swap1\n      sstore\n        /* \"contracts/SwirlPrivatePoolV2.sol\":10052:10085  _treasury.call{value: amount}(\"\") */\n      mload(0x40)\n        /* \"contracts/SwirlPrivatePoolV2.sol\":9992:10001  totalFees */\n      swap1\n      swap2\n        /* \"contracts/SwirlPrivatePoolV2.sol\":9975:9989  uint256 amount */\n      swap1\n      sub(shl(0xa0, 0x01), 0x01)\n        /* \"contracts/SwirlPrivatePoolV2.sol\":10052:10066  _treasury.call */\n      dup5\n      and\n      swap1\n        /* \"contracts/SwirlPrivatePoolV2.sol\":9992:10001  totalFees */\n      dup4\n      swap1\n        /* \"contracts/SwirlPrivatePoolV2.sol\":9975:9989  uint256 amount */\n      dup4\n        /* \"contracts/SwirlPrivatePoolV2.sol\":10052:10085  _treasury.call{value: amount}(\"\") */\n      dup2\n        /* \"contracts/SwirlPrivatePoolV2.sol\":9975:9989  uint256 amount */\n      dup2\n        /* \"contracts/SwirlPrivatePoolV2.sol\":10052:10085  _treasury.call{value: amount}(\"\") */\n      dup2\n        /* \"contracts/SwirlPrivatePoolV2.sol\":9992:10001  totalFees */\n      dup6\n        /* \"contracts/SwirlPrivatePoolV2.sol\":10052:10066  _treasury.call */\n      dup8\n        /* \"contracts/SwirlPrivatePoolV2.sol\":10052:10085  _treasury.call{value: amount}(\"\") */\n      gas\n      call\n      swap3\n      pop\n      pop\n      pop\n      returndatasize\n      dup1\n      0x00\n      dup2\n      eq\n      tag_188\n      jumpi\n      mload(0x40)\n      swap2\n      pop\n      and(add(returndatasize, 0x3f), not(0x1f))\n      dup3\n      add\n      0x40\n      mstore\n      returndatasize\n      dup3\n      mstore\n      returndatasize\n      0x00\n      0x20\n      dup5\n      add\n      returndatacopy\n      jump(tag_187)\n    tag_188:\n      0x60\n      swap2\n      pop\n    tag_187:\n      pop\n        /* \"contracts/SwirlPrivatePoolV2.sol\":10038:10085  (bool ok, ) = _treasury.call{value: amount}(\"\") */\n      pop\n      swap1\n      pop\n        /* \"contracts/SwirlPrivatePoolV2.sol\":10104:10106  ok */\n      dup1\n        /* \"contracts/SwirlPrivatePoolV2.sol\":10096:10126  require(ok, \"withdraw failed\") */\n      tag_189\n      jumpi\n      mload(0x40)\n      shl(0xe5, 0x461bcd)\n      dup2\n      mstore\n        /* \"#utility.yul\":4317:4319   */\n      0x20\n        /* \"contracts/SwirlPrivatePoolV2.sol\":10096:10126  require(ok, \"withdraw failed\") */\n      0x04\n      dup3\n      add\n        /* \"#utility.yul\":4299:4320   */\n      mstore\n        /* \"#utility.yul\":4356:4358   */\n      0x0f\n        /* \"#utility.yul\":4336:4354   */\n      0x24\n      dup3\n      add\n        /* \"#utility.yul\":4329:4359   */\n      mstore\n      shl(0x8a, 0x1dda5d1a191c985dc819985a5b1959)\n        /* \"#utility.yul\":4375:4393   */\n      0x44\n      dup3\n      add\n        /* \"#utility.yul\":4368:4413   */\n      mstore\n        /* \"#utility.yul\":4430:4448   */\n      0x64\n      add\n        /* \"contracts/SwirlPrivatePoolV2.sol\":10096:10126  require(ok, \"withdraw failed\") */\n      tag_179\n        /* \"#utility.yul\":4115:4454   */\n      jump\n        /* \"contracts/SwirlPrivatePoolV2.sol\":10096:10126  require(ok, \"withdraw failed\") */\n    tag_189:\n        /* \"contracts/SwirlPrivatePoolV2.sol\":10144:10176  FeeWithdrawal(_treasury, amount) */\n      0x40\n      dup1\n      mload\n      sub(shl(0xa0, 0x01), 0x01)\n        /* \"#utility.yul\":4651:4683   */\n      dup6\n      and\n        /* \"#utility.yul\":4633:4684   */\n      dup2\n      mstore\n        /* \"#utility.yul\":4715:4717   */\n      0x20\n        /* \"#utility.yul\":4700:4718   */\n      dup2\n      add\n        /* \"#utility.yul\":4693:4727   */\n      dup5\n      swap1\n      mstore\n        /* \"contracts/SwirlPrivatePoolV2.sol\":10144:10176  FeeWithdrawal(_treasury, amount) */\n      0xee33a3a9cb48e4ff209f8b1c67c4632f1dbbf55aeff8e6f17d957ade7a6fb17c\n      swap2\n        /* \"#utility.yul\":4606:4624   */\n      add\n        /* \"contracts/SwirlPrivatePoolV2.sol\":10144:10176  FeeWithdrawal(_treasury, amount) */\n      mload(0x40)\n      dup1\n      swap2\n      sub\n      swap1\n      log1\n        /* \"contracts/SwirlPrivatePoolV2.sol\":9843:10184  {... */\n      pop\n      pop\n        /* \"@openzeppelin/contracts/security/ReentrancyGuard.sol\":2303:2323  _nonReentrantAfter() */\n      tag_194\n        /* \"@openzeppelin/contracts/security/ReentrancyGuard.sol\":1716:1717  1 */\n      0x01\n        /* \"@openzeppelin/contracts/security/ReentrancyGuard.sol\":2809:2831  _status = _NOT_ENTERED */\n      dup1\n      sstore\n        /* \"@openzeppelin/contracts/security/ReentrancyGuard.sol\":2629:2838  function _nonReentrantAfter() private {... */\n      jump\n        /* \"@openzeppelin/contracts/security/ReentrancyGuard.sol\":2303:2323  _nonReentrantAfter() */\n    tag_194:\n        /* \"contracts/SwirlPrivatePoolV2.sol\":9770:10184  function withdrawFees(address _treasury) external onlyOwner nonReentrant {... */\n      pop\n      jump\t// out\n        /* \"contracts/SwirlPrivatePoolV2.sol\":5997:6064  function unpause() external onlyOwner {... */\n    tag_75:\n        /* \"@openzeppelin/contracts/access/Ownable.sol\":1531:1544  _checkOwner() */\n      tag_197\n        /* \"@openzeppelin/contracts/access/Ownable.sol\":1531:1542  _checkOwner */\n      tag_169\n        /* \"@openzeppelin/contracts/access/Ownable.sol\":1531:1544  _checkOwner() */\n      jump\t// in\n    tag_197:\n        /* \"contracts/SwirlPrivatePoolV2.sol\":6046:6056  _unpause() */\n      tag_199\n        /* \"contracts/SwirlPrivatePoolV2.sol\":6046:6054  _unpause */\n      tag_200\n        /* \"contracts/SwirlPrivatePoolV2.sol\":6046:6056  _unpause() */\n      jump\t// in\n    tag_199:\n        /* \"contracts/SwirlPrivatePoolV2.sol\":5997:6064  function unpause() external onlyOwner {... */\n      jump\t// out\n        /* \"contracts/SwirlPrivatePoolV2.sol\":10293:10698  function burnFees() external onlyOwner nonReentrant whenPaused {... */\n    tag_78:\n        /* \"@openzeppelin/contracts/access/Ownable.sol\":1531:1544  _checkOwner() */\n      tag_202\n        /* \"@openzeppelin/contracts/access/Ownable.sol\":1531:1542  _checkOwner */\n      tag_169\n        /* \"@openzeppelin/contracts/access/Ownable.sol\":1531:1544  _checkOwner() */\n      jump\t// in\n    tag_202:\n        /* \"@openzeppelin/contracts/security/ReentrancyGuard.sol\":2261:2282  _nonReentrantBefore() */\n      tag_204\n        /* \"@openzeppelin/contracts/security/ReentrancyGuard.sol\":2261:2280  _nonReentrantBefore */\n      tag_176\n        /* \"@openzeppelin/contracts/security/ReentrancyGuard.sol\":2261:2282  _nonReentrantBefore() */\n      jump\t// in\n    tag_204:\n        /* \"@openzeppelin/contracts/security/Pausable.sol\":1486:1502  _requirePaused() */\n      tag_206\n        /* \"@openzeppelin/contracts/security/Pausable.sol\":1486:1500  _requirePaused */\n      tag_207\n        /* \"@openzeppelin/contracts/security/Pausable.sol\":1486:1502  _requirePaused() */\n      jump\t// in\n    tag_206:\n        /* \"contracts/SwirlPrivatePoolV2.sol\":10387:10388  0 */\n      0x00\n        /* \"contracts/SwirlPrivatePoolV2.sol\":10375:10384  totalFees */\n      sload(0x02)\n        /* \"contracts/SwirlPrivatePoolV2.sol\":10375:10388  totalFees > 0 */\n      gt\n        /* \"contracts/SwirlPrivatePoolV2.sol\":10367:10408  require(totalFees > 0, \"no fees to burn\") */\n      tag_209\n      jumpi\n      mload(0x40)\n      shl(0xe5, 0x461bcd)\n      dup2\n      mstore\n        /* \"#utility.yul\":4940:4942   */\n      0x20\n        /* \"contracts/SwirlPrivatePoolV2.sol\":10367:10408  require(totalFees > 0, \"no fees to burn\") */\n      0x04\n      dup3\n      add\n        /* \"#utility.yul\":4922:4943   */\n      mstore\n        /* \"#utility.yul\":4979:4981   */\n      0x0f\n        /* \"#utility.yul\":4959:4977   */\n      0x24\n      dup3\n      add\n        /* \"#utility.yul\":4952:4982   */\n      mstore\n      shl(0x89, 0x3737903332b2b9903a3790313ab937)\n        /* \"#utility.yul\":4998:5016   */\n      0x44\n      dup3\n      add\n        /* \"#utility.yul\":4991:5036   */\n      mstore\n        /* \"#utility.yul\":5053:5071   */\n      0x64\n      add\n        /* \"contracts/SwirlPrivatePoolV2.sol\":10367:10408  require(totalFees > 0, \"no fees to burn\") */\n      tag_179\n        /* \"#utility.yul\":4738:5077   */\n      jump\n        /* \"contracts/SwirlPrivatePoolV2.sol\":10367:10408  require(totalFees > 0, \"no fees to burn\") */\n    tag_209:\n        /* \"contracts/SwirlPrivatePoolV2.sol\":10438:10447  totalFees */\n      0x02\n      dup1\n      sload\n        /* \"contracts/SwirlPrivatePoolV2.sol\":10421:10435  uint256 amount */\n      0x00\n        /* \"contracts/SwirlPrivatePoolV2.sol\":10458:10471  totalFees = 0 */\n      swap2\n      dup3\n      swap1\n      sstore\n        /* \"contracts/SwirlPrivatePoolV2.sol\":10498:10573  payable(0x000000000000000000000000000000000000dEaD).call{value: amount}(\"\") */\n      mload(0x40)\n        /* \"contracts/SwirlPrivatePoolV2.sol\":10438:10447  totalFees */\n      swap1\n      swap2\n        /* \"contracts/SwirlPrivatePoolV2.sol\":10421:10435  uint256 amount */\n      swap1\n        /* \"contracts/SwirlPrivatePoolV2.sol\":10506:10548  0x000000000000000000000000000000000000dEaD */\n      0xdead\n      swap1\n        /* \"contracts/SwirlPrivatePoolV2.sol\":10438:10447  totalFees */\n      dup4\n      swap1\n        /* \"contracts/SwirlPrivatePoolV2.sol\":10421:10435  uint256 amount */\n      dup4\n        /* \"contracts/SwirlPrivatePoolV2.sol\":10498:10573  payable(0x000000000000000000000000000000000000dEaD).call{value: amount}(\"\") */\n      dup2\n        /* \"contracts/SwirlPrivatePoolV2.sol\":10421:10435  uint256 amount */\n      dup2\n        /* \"contracts/SwirlPrivatePoolV2.sol\":10498:10573  payable(0x000000000000000000000000000000000000dEaD).call{value: amount}(\"\") */\n      dup2\n        /* \"contracts/SwirlPrivatePoolV2.sol\":10438:10447  totalFees */\n      dup6\n        /* \"contracts/SwirlPrivatePoolV2.sol\":10506:10548  0x000000000000000000000000000000000000dEaD */\n      dup8\n        /* \"contracts/SwirlPrivatePoolV2.sol\":10498:10573  payable(0x000000000000000000000000000000000000dEaD).call{value: amount}(\"\") */\n      gas\n      call\n      swap3\n      pop\n      pop\n      pop\n      returndatasize\n      dup1\n      0x00\n      dup2\n      eq\n      tag_215\n      jumpi\n      mload(0x40)\n      swap2\n      pop\n      and(add(returndatasize, 0x3f), not(0x1f))\n      dup3\n      add\n      0x40\n      mstore\n      returndatasize\n      dup3\n      mstore\n      returndatasize\n      0x00\n      0x20\n      dup5\n      add\n      returndatacopy\n      jump(tag_214)\n    tag_215:\n      0x60\n      swap2\n      pop\n    tag_214:\n      pop\n        /* \"contracts/SwirlPrivatePoolV2.sol\":10484:10573  (bool ok, ) = payable(0x000000000000000000000000000000000000dEaD).call{value: amount}(\"\") */\n      pop\n      swap1\n      pop\n        /* \"contracts/SwirlPrivatePoolV2.sol\":10592:10594  ok */\n      dup1\n        /* \"contracts/SwirlPrivatePoolV2.sol\":10584:10610  require(ok, \"burn failed\") */\n      tag_216\n      jumpi\n      mload(0x40)\n      shl(0xe5, 0x461bcd)\n      dup2\n      mstore\n        /* \"#utility.yul\":5284:5286   */\n      0x20\n        /* \"contracts/SwirlPrivatePoolV2.sol\":10584:10610  require(ok, \"burn failed\") */\n      0x04\n      dup3\n      add\n        /* \"#utility.yul\":5266:5287   */\n      mstore\n        /* \"#utility.yul\":5323:5325   */\n      0x0b\n        /* \"#utility.yul\":5303:5321   */\n      0x24\n      dup3\n      add\n        /* \"#utility.yul\":5296:5326   */\n      mstore\n      shl(0xaa, 0x189d5c9b8819985a5b1959)\n        /* \"#utility.yul\":5342:5360   */\n      0x44\n      dup3\n      add\n        /* \"#utility.yul\":5335:5376   */\n      mstore\n        /* \"#utility.yul\":5393:5411   */\n      0x64\n      add\n        /* \"contracts/SwirlPrivatePoolV2.sol\":10584:10610  require(ok, \"burn failed\") */\n      tag_179\n        /* \"#utility.yul\":5082:5417   */\n      jump\n        /* \"contracts/SwirlPrivatePoolV2.sol\":10584:10610  require(ok, \"burn failed\") */\n    tag_216:\n        /* \"contracts/SwirlPrivatePoolV2.sol\":10628:10690  FeesBurned(0x000000000000000000000000000000000000dEaD, amount) */\n      0x40\n      dup1\n      mload\n        /* \"contracts/SwirlPrivatePoolV2.sol\":10639:10681  0x000000000000000000000000000000000000dEaD */\n      0xdead\n        /* \"#utility.yul\":4633:4684   */\n      dup2\n      mstore\n        /* \"#utility.yul\":4715:4717   */\n      0x20\n        /* \"#utility.yul\":4700:4718   */\n      dup2\n      add\n        /* \"#utility.yul\":4693:4727   */\n      dup5\n      swap1\n      mstore\n        /* \"contracts/SwirlPrivatePoolV2.sol\":10628:10690  FeesBurned(0x000000000000000000000000000000000000dEaD, amount) */\n      0x0d9575a73e2a7da16cfde907df749d23d901528ff2e7c832b731babdecca000b\n      swap2\n        /* \"#utility.yul\":4606:4624   */\n      add\n        /* \"contracts/SwirlPrivatePoolV2.sol\":10628:10690  FeesBurned(0x000000000000000000000000000000000000dEaD, amount) */\n      mload(0x40)\n      dup1\n      swap2\n      sub\n      swap1\n      log1\n        /* \"contracts/SwirlPrivatePoolV2.sol\":10356:10698  {... */\n      pop\n      pop\n        /* \"@openzeppelin/contracts/security/ReentrancyGuard.sol\":2303:2323  _nonReentrantAfter() */\n      tag_199\n        /* \"@openzeppelin/contracts/security/ReentrancyGuard.sol\":1716:1717  1 */\n      0x01\n        /* \"@openzeppelin/contracts/security/ReentrancyGuard.sol\":2809:2831  _status = _NOT_ENTERED */\n      dup1\n      sstore\n        /* \"@openzeppelin/contracts/security/ReentrancyGuard.sol\":2629:2838  function _nonReentrantAfter() private {... */\n      jump\n        /* \"@openzeppelin/contracts/access/Ownable.sol\":2293:2394  function renounceOwnership() public virtual onlyOwner {... */\n    tag_90:\n        /* \"@openzeppelin/contracts/access/Ownable.sol\":1531:1544  _checkOwner() */\n      tag_223\n        /* \"@openzeppelin/contracts/access/Ownable.sol\":1531:1542  _checkOwner */\n      tag_169\n        /* \"@openzeppelin/contracts/access/Ownable.sol\":1531:1544  _checkOwner() */\n      jump\t// in\n    tag_223:\n        /* \"@openzeppelin/contracts/access/Ownable.sol\":2357:2387  _transferOwnership(address(0)) */\n      tag_199\n        /* \"@openzeppelin/contracts/access/Ownable.sol\":2384:2385  0 */\n      0x00\n        /* \"@openzeppelin/contracts/access/Ownable.sol\":2357:2375  _transferOwnership */\n      tag_226\n        /* \"@openzeppelin/contracts/access/Ownable.sol\":2357:2387  _transferOwnership(address(0)) */\n      jump\t// in\n        /* \"contracts/SwirlPrivatePoolV2.sol\":5926:5989  function pause() external onlyOwner {... */\n    tag_97:\n        /* \"@openzeppelin/contracts/access/Ownable.sol\":1531:1544  _checkOwner() */\n      tag_229\n        /* \"@openzeppelin/contracts/access/Ownable.sol\":1531:1542  _checkOwner */\n      tag_169\n        /* \"@openzeppelin/contracts/access/Ownable.sol\":1531:1544  _checkOwner() */\n      jump\t// in\n    tag_229:\n        /* \"contracts/SwirlPrivatePoolV2.sol\":5973:5981  _pause() */\n      tag_199\n        /* \"contracts/SwirlPrivatePoolV2.sol\":5973:5979  _pause */\n      tag_232\n        /* \"contracts/SwirlPrivatePoolV2.sol\":5973:5981  _pause() */\n      jump\t// in\n        /* \"contracts/SwirlPrivatePoolV2.sol\":8544:9369  function withdraw(... */\n    tag_116:\n        /* \"@openzeppelin/contracts/security/Pausable.sol\":1239:1258  _requireNotPaused() */\n      tag_236\n        /* \"@openzeppelin/contracts/security/Pausable.sol\":1239:1256  _requireNotPaused */\n      tag_237\n        /* \"@openzeppelin/contracts/security/Pausable.sol\":1239:1258  _requireNotPaused() */\n      jump\t// in\n    tag_236:\n        /* \"@openzeppelin/contracts/security/ReentrancyGuard.sol\":2261:2282  _nonReentrantBefore() */\n      tag_239\n        /* \"@openzeppelin/contracts/security/ReentrancyGuard.sol\":2261:2280  _nonReentrantBefore */\n      tag_176\n        /* \"@openzeppelin/contracts/security/ReentrancyGuard.sol\":2261:2282  _nonReentrantBefore() */\n      jump\t// in\n    tag_239:\n      sub(shl(0xa0, 0x01), 0x01)\n        /* \"contracts/SwirlPrivatePoolV2.sol\":8747:8771  isBlacklisted[recipient] */\n      dup2\n      and\n      0x00\n      swap1\n      dup2\n      mstore\n        /* \"contracts/SwirlPrivatePoolV2.sol\":8747:8760  isBlacklisted */\n      0x2f\n        /* \"contracts/SwirlPrivatePoolV2.sol\":8747:8771  isBlacklisted[recipient] */\n      0x20\n      mstore\n      0x40\n      swap1\n      keccak256\n      sload\n      0xff\n      and\n        /* \"contracts/SwirlPrivatePoolV2.sol\":8746:8771  !isBlacklisted[recipient] */\n      iszero\n        /* \"contracts/SwirlPrivatePoolV2.sol\":8738:8796  require(!isBlacklisted[recipient], \"recipient sanctioned\") */\n      tag_241\n      jumpi\n      mload(0x40)\n      shl(0xe5, 0x461bcd)\n      dup2\n      mstore\n        /* \"#utility.yul\":5624:5626   */\n      0x20\n        /* \"contracts/SwirlPrivatePoolV2.sol\":8738:8796  require(!isBlacklisted[recipient], \"recipient sanctioned\") */\n      0x04\n      dup3\n      add\n        /* \"#utility.yul\":5606:5627   */\n      mstore\n        /* \"#utility.yul\":5663:5665   */\n      0x14\n        /* \"#utility.yul\":5643:5661   */\n      0x24\n      dup3\n      add\n        /* \"#utility.yul\":5636:5666   */\n      mstore\n      shl(0x62, 0x1c9958da5c1a595b9d081cd85b98dd1a5bdb9959)\n        /* \"#utility.yul\":5682:5700   */\n      0x44\n      dup3\n      add\n        /* \"#utility.yul\":5675:5725   */\n      mstore\n        /* \"#utility.yul\":5742:5760   */\n      0x64\n      add\n        /* \"contracts/SwirlPrivatePoolV2.sol\":8738:8796  require(!isBlacklisted[recipient], \"recipient sanctioned\") */\n      tag_179\n        /* \"#utility.yul\":5422:5766   */\n      jump\n        /* \"contracts/SwirlPrivatePoolV2.sol\":8738:8796  require(!isBlacklisted[recipient], \"recipient sanctioned\") */\n    tag_241:\n        /* \"contracts/SwirlPrivatePoolV2.sol\":8811:8841  nullifierHashes[nullifierHash] */\n      0x00\n      dup3\n      dup2\n      mstore\n        /* \"contracts/SwirlPrivatePoolV2.sol\":8811:8826  nullifierHashes */\n      0x2d\n        /* \"contracts/SwirlPrivatePoolV2.sol\":8811:8841  nullifierHashes[nullifierHash] */\n      0x20\n      mstore\n      0x40\n      swap1\n      keccak256\n      sload\n      0xff\n      and\n        /* \"contracts/SwirlPrivatePoolV2.sol\":8807:8872  if (nullifierHashes[nullifierHash]) revert NullifierAlreadyUsed() */\n      iszero\n      tag_244\n      jumpi\n        /* \"contracts/SwirlPrivatePoolV2.sol\":8850:8872  NullifierAlreadyUsed() */\n      mload(0x40)\n      shl(0xe1, 0x65695701)\n      dup2\n      mstore\n      0x04\n      add\n      mload(0x40)\n      dup1\n      swap2\n      sub\n      swap1\n      revert\n        /* \"contracts/SwirlPrivatePoolV2.sol\":8807:8872  if (nullifierHashes[nullifierHash]) revert NullifierAlreadyUsed() */\n    tag_244:\n        /* \"contracts/SwirlPrivatePoolV2.sol\":8888:8904  knownRoots[root] */\n      0x00\n      dup4\n      dup2\n      mstore\n        /* \"contracts/SwirlPrivatePoolV2.sol\":8888:8898  knownRoots */\n      0x2e\n        /* \"contracts/SwirlPrivatePoolV2.sol\":8888:8904  knownRoots[root] */\n      0x20\n      mstore\n      0x40\n      swap1\n      keccak256\n      sload\n      0xff\n      and\n        /* \"contracts/SwirlPrivatePoolV2.sol\":8883:8926  if (!knownRoots[root]) revert UnknownRoot() */\n      tag_245\n      jumpi\n        /* \"contracts/SwirlPrivatePoolV2.sol\":8913:8926  UnknownRoot() */\n      mload(0x40)\n      shl(0xe1, 0x4629008b)\n      dup2\n      mstore\n      0x04\n      add\n      mload(0x40)\n      dup1\n      swap2\n      sub\n      swap1\n      revert\n        /* \"contracts/SwirlPrivatePoolV2.sol\":8883:8926  if (!knownRoots[root]) revert UnknownRoot() */\n    tag_245:\n        /* \"contracts/SwirlPrivatePoolV2.sol\":8979:8995  new bytes32[](2) */\n      0x40\n      dup1\n      mload\n        /* \"contracts/SwirlPrivatePoolV2.sol\":8993:8994  2 */\n      0x02\n        /* \"contracts/SwirlPrivatePoolV2.sol\":8979:8995  new bytes32[](2) */\n      dup1\n      dup3\n      mstore\n      0x60\n      dup3\n      add\n      dup4\n      mstore\n        /* \"contracts/SwirlPrivatePoolV2.sol\":8947:8976  bytes32[] memory publicInputs */\n      0x00\n      swap3\n        /* \"contracts/SwirlPrivatePoolV2.sol\":8979:8995  new bytes32[](2) */\n      0x20\n      dup4\n      add\n      swap1\n      dup1\n      calldatasize\n      dup4\n      calldatacopy\n      add\n      swap1\n      pop\n      pop\n        /* \"contracts/SwirlPrivatePoolV2.sol\":8947:8995  bytes32[] memory publicInputs = new bytes32[](2) */\n      swap1\n      pop\n        /* \"contracts/SwirlPrivatePoolV2.sol\":9024:9028  root */\n      dup4\n        /* \"contracts/SwirlPrivatePoolV2.sol\":9006:9018  publicInputs */\n      dup2\n        /* \"contracts/SwirlPrivatePoolV2.sol\":9019:9020  0 */\n      0x00\n        /* \"contracts/SwirlPrivatePoolV2.sol\":9006:9021  publicInputs[0] */\n      dup2\n      mload\n      dup2\n      lt\n      tag_251\n      jumpi\n      tag_251\n      tag_252\n      jump\t// in\n    tag_251:\n      0x20\n      mul\n      0x20\n      add\n      add\n        /* \"contracts/SwirlPrivatePoolV2.sol\":9006:9028  publicInputs[0] = root */\n      dup2\n      dup2\n      mstore\n      pop\n      pop\n        /* \"contracts/SwirlPrivatePoolV2.sol\":9057:9070  nullifierHash */\n      dup3\n        /* \"contracts/SwirlPrivatePoolV2.sol\":9039:9051  publicInputs */\n      dup2\n        /* \"contracts/SwirlPrivatePoolV2.sol\":9052:9053  1 */\n      0x01\n        /* \"contracts/SwirlPrivatePoolV2.sol\":9039:9054  publicInputs[1] */\n      dup2\n      mload\n      dup2\n      lt\n      tag_254\n      jumpi\n      tag_254\n      tag_252\n      jump\t// in\n    tag_254:\n      0x20\n      swap1\n      dup2\n      mul\n      swap2\n      swap1\n      swap2\n      add\n      add\n        /* \"contracts/SwirlPrivatePoolV2.sol\":9039:9070  publicInputs[1] = nullifierHash */\n      mstore\n        /* \"contracts/SwirlPrivatePoolV2.sol\":9088:9124  verifier.verify(proof, publicInputs) */\n      mload(0x40)\n      shl(0xe2, 0x3a943439)\n      dup2\n      mstore\n      sub(shl(0xa0, 0x01), 0x01)\n        /* \"contracts/SwirlPrivatePoolV2.sol\":9088:9096  verifier */\n      immutable(\"0x650ed8ce37a4ca016960f899232a7a29f723fd75cf8c4efab7095bc4e4608e95\")\n        /* \"contracts/SwirlPrivatePoolV2.sol\":9088:9103  verifier.verify */\n      and\n      swap1\n      0xea50d0e4\n      swap1\n        /* \"contracts/SwirlPrivatePoolV2.sol\":9088:9124  verifier.verify(proof, publicInputs) */\n      tag_255\n      swap1\n        /* \"contracts/SwirlPrivatePoolV2.sol\":9104:9109  proof */\n      dup10\n      swap1\n      dup10\n      swap1\n        /* \"contracts/SwirlPrivatePoolV2.sol\":9111:9123  publicInputs */\n      dup7\n      swap1\n        /* \"contracts/SwirlPrivatePoolV2.sol\":9088:9124  verifier.verify(proof, publicInputs) */\n      0x04\n      add\n      tag_256\n      jump\t// in\n    tag_255:\n      0x20\n      mload(0x40)\n      dup1\n      dup4\n      sub\n      dup2\n      dup7\n      gas\n      staticcall\n      iszero\n      dup1\n      iszero\n      tag_258\n      jumpi\n      returndatacopy(0x00, 0x00, returndatasize)\n      revert(0x00, returndatasize)\n    tag_258:\n      pop\n      pop\n      pop\n      pop\n      mload(0x40)\n      returndatasize\n      not(0x1f)\n      0x1f\n      dup3\n      add\n      and\n      dup3\n      add\n      dup1\n      0x40\n      mstore\n      pop\n      dup2\n      add\n      swap1\n      tag_259\n      swap2\n      swap1\n      tag_260\n      jump\t// in\n    tag_259:\n        /* \"contracts/SwirlPrivatePoolV2.sol\":9083:9147  if (!verifier.verify(proof, publicInputs)) revert InvalidProof() */\n      tag_261\n      jumpi\n        /* \"contracts/SwirlPrivatePoolV2.sol\":9133:9147  InvalidProof() */\n      mload(0x40)\n      shl(0xe0, 0x09bde339)\n      dup2\n      mstore\n      0x04\n      add\n      mload(0x40)\n      dup1\n      swap2\n      sub\n      swap1\n      revert\n        /* \"contracts/SwirlPrivatePoolV2.sol\":9083:9147  if (!verifier.verify(proof, publicInputs)) revert InvalidProof() */\n    tag_261:\n        /* \"contracts/SwirlPrivatePoolV2.sol\":9160:9190  nullifierHashes[nullifierHash] */\n      0x00\n      dup4\n      dup2\n      mstore\n        /* \"contracts/SwirlPrivatePoolV2.sol\":9160:9175  nullifierHashes */\n      0x2d\n        /* \"contracts/SwirlPrivatePoolV2.sol\":9160:9190  nullifierHashes[nullifierHash] */\n      0x20\n      mstore\n      0x40\n      dup1\n      dup3\n      keccak256\n        /* \"contracts/SwirlPrivatePoolV2.sol\":9160:9197  nullifierHashes[nullifierHash] = true */\n      dup1\n      sload\n      not(0xff)\n      and\n        /* \"contracts/SwirlPrivatePoolV2.sol\":9193:9197  true */\n      0x01\n        /* \"contracts/SwirlPrivatePoolV2.sol\":9160:9197  nullifierHashes[nullifierHash] = true */\n      or\n      swap1\n      sstore\n        /* \"contracts/SwirlPrivatePoolV2.sol\":9223:9262  recipient.call{value: DENOMINATION}(\"\") */\n      mload\n      sub(shl(0xa0, 0x01), 0x01)\n        /* \"contracts/SwirlPrivatePoolV2.sol\":9223:9237  recipient.call */\n      dup5\n      and\n      swap1\n        /* \"contracts/SwirlPrivatePoolV2.sol\":3006:3013  1 ether */\n      0x0de0b6b3a7640000\n      swap1\n        /* \"contracts/SwirlPrivatePoolV2.sol\":9160:9190  nullifierHashes[nullifierHash] */\n      dup4\n        /* \"contracts/SwirlPrivatePoolV2.sol\":9223:9262  recipient.call{value: DENOMINATION}(\"\") */\n      dup2\n        /* \"contracts/SwirlPrivatePoolV2.sol\":9160:9190  nullifierHashes[nullifierHash] */\n      dup2\n        /* \"contracts/SwirlPrivatePoolV2.sol\":9223:9262  recipient.call{value: DENOMINATION}(\"\") */\n      dup2\n        /* \"contracts/SwirlPrivatePoolV2.sol\":3006:3013  1 ether */\n      dup6\n        /* \"contracts/SwirlPrivatePoolV2.sol\":9223:9237  recipient.call */\n      dup8\n        /* \"contracts/SwirlPrivatePoolV2.sol\":9223:9262  recipient.call{value: DENOMINATION}(\"\") */\n      gas\n      call\n      swap3\n      pop\n      pop\n      pop\n      returndatasize\n      dup1\n      0x00\n      dup2\n      eq\n      tag_265\n      jumpi\n      mload(0x40)\n      swap2\n      pop\n      and(add(returndatasize, 0x3f), not(0x1f))\n      dup3\n      add\n      0x40\n      mstore\n      returndatasize\n      dup3\n      mstore\n      returndatasize\n      0x00\n      0x20\n      dup5\n      add\n      returndatacopy\n      jump(tag_264)\n    tag_265:\n      0x60\n      swap2\n      pop\n    tag_264:\n      pop\n        /* \"contracts/SwirlPrivatePoolV2.sol\":9210:9262  (bool ok,) = recipient.call{value: DENOMINATION}(\"\") */\n      pop\n      swap1\n      pop\n        /* \"contracts/SwirlPrivatePoolV2.sol\":9281:9283  ok */\n      dup1\n        /* \"contracts/SwirlPrivatePoolV2.sol\":9273:9307  require(ok, \"MNT transfer failed\") */\n      tag_266\n      jumpi\n      mload(0x40)\n      shl(0xe5, 0x461bcd)\n      dup2\n      mstore\n        /* \"#utility.yul\":7456:7458   */\n      0x20\n        /* \"contracts/SwirlPrivatePoolV2.sol\":9273:9307  require(ok, \"MNT transfer failed\") */\n      0x04\n      dup3\n      add\n        /* \"#utility.yul\":7438:7459   */\n      mstore\n        /* \"#utility.yul\":7495:7497   */\n      0x13\n        /* \"#utility.yul\":7475:7493   */\n      0x24\n      dup3\n      add\n        /* \"#utility.yul\":7468:7498   */\n      mstore\n      shl(0x6a, 0x135395081d1c985b9cd9995c8819985a5b1959)\n        /* \"#utility.yul\":7514:7532   */\n      0x44\n      dup3\n      add\n        /* \"#utility.yul\":7507:7556   */\n      mstore\n        /* \"#utility.yul\":7573:7591   */\n      0x64\n      add\n        /* \"contracts/SwirlPrivatePoolV2.sol\":9273:9307  require(ok, \"MNT transfer failed\") */\n      tag_179\n        /* \"#utility.yul\":7254:7597   */\n      jump\n        /* \"contracts/SwirlPrivatePoolV2.sol\":9273:9307  require(ok, \"MNT transfer failed\") */\n    tag_266:\n        /* \"contracts/SwirlPrivatePoolV2.sol\":9336:9345  recipient */\n      dup3\n      sub(shl(0xa0, 0x01), 0x01)\n        /* \"contracts/SwirlPrivatePoolV2.sol\":9325:9361  Withdrawal(recipient, nullifierHash) */\n      and\n      0x0ce490531f6c8ae2f1ff174643bc8b7ed5e52987ab50dc1e8f33655d2cd8c90b\n        /* \"contracts/SwirlPrivatePoolV2.sol\":9347:9360  nullifierHash */\n      dup6\n        /* \"contracts/SwirlPrivatePoolV2.sol\":9325:9361  Withdrawal(recipient, nullifierHash) */\n      mload(0x40)\n      tag_269\n      swap2\n        /* \"#utility.yul\":357:382   */\n      dup2\n      mstore\n        /* \"#utility.yul\":345:347   */\n      0x20\n        /* \"#utility.yul\":330:348   */\n      add\n      swap1\n        /* \"#utility.yul\":211:388   */\n      jump\n        /* \"contracts/SwirlPrivatePoolV2.sol\":9325:9361  Withdrawal(recipient, nullifierHash) */\n    tag_269:\n      mload(0x40)\n      dup1\n      swap2\n      sub\n      swap1\n      log2\n        /* \"contracts/SwirlPrivatePoolV2.sol\":8727:9369  {... */\n      pop\n      pop\n        /* \"@openzeppelin/contracts/security/ReentrancyGuard.sol\":2303:2323  _nonReentrantAfter() */\n      tag_270\n        /* \"@openzeppelin/contracts/security/ReentrancyGuard.sol\":1716:1717  1 */\n      0x01\n        /* \"@openzeppelin/contracts/security/ReentrancyGuard.sol\":2809:2831  _status = _NOT_ENTERED */\n      dup1\n      sstore\n        /* \"@openzeppelin/contracts/security/ReentrancyGuard.sol\":2629:2838  function _nonReentrantAfter() private {... */\n      jump\n        /* \"@openzeppelin/contracts/security/ReentrancyGuard.sol\":2303:2323  _nonReentrantAfter() */\n    tag_270:\n        /* \"contracts/SwirlPrivatePoolV2.sol\":8544:9369  function withdraw(... */\n      pop\n      pop\n      pop\n      pop\n      pop\n      jump\t// out\n        /* \"contracts/SwirlPrivatePoolV2.sol\":6522:8051  function deposit(... */\n    tag_119:\n        /* \"@openzeppelin/contracts/security/Pausable.sol\":1239:1258  _requireNotPaused() */\n      tag_272\n        /* \"@openzeppelin/contracts/security/Pausable.sol\":1239:1256  _requireNotPaused */\n      tag_237\n        /* \"@openzeppelin/contracts/security/Pausable.sol\":1239:1258  _requireNotPaused() */\n      jump\t// in\n    tag_272:\n        /* \"contracts/SwirlPrivatePoolV2.sol\":6786:6796  msg.sender */\n      caller\n        /* \"contracts/SwirlPrivatePoolV2.sol\":6772:6797  isBlacklisted[msg.sender] */\n      0x00\n      swap1\n      dup2\n      mstore\n        /* \"contracts/SwirlPrivatePoolV2.sol\":6772:6785  isBlacklisted */\n      0x2f\n        /* \"contracts/SwirlPrivatePoolV2.sol\":6772:6797  isBlacklisted[msg.sender] */\n      0x20\n      mstore\n      0x40\n      swap1\n      keccak256\n      sload\n      0xff\n      and\n        /* \"contracts/SwirlPrivatePoolV2.sol\":6771:6797  !isBlacklisted[msg.sender] */\n      iszero\n        /* \"contracts/SwirlPrivatePoolV2.sol\":6763:6848  require(!isBlacklisted[msg.sender], \"this address is blacklisted and cannot deposit\") */\n      tag_274\n      jumpi\n      mload(0x40)\n      shl(0xe5, 0x461bcd)\n      dup2\n      mstore\n        /* \"#utility.yul\":7804:7806   */\n      0x20\n        /* \"contracts/SwirlPrivatePoolV2.sol\":6763:6848  require(!isBlacklisted[msg.sender], \"this address is blacklisted and cannot deposit\") */\n      0x04\n      dup3\n      add\n        /* \"#utility.yul\":7786:7807   */\n      mstore\n        /* \"#utility.yul\":7843:7845   */\n      0x2e\n        /* \"#utility.yul\":7823:7841   */\n      0x24\n      dup3\n      add\n        /* \"#utility.yul\":7816:7846   */\n      mstore\n        /* \"#utility.yul\":7882:7916   */\n      0x74686973206164647265737320697320626c61636b6c697374656420616e6420\n        /* \"#utility.yul\":7862:7880   */\n      0x44\n      dup3\n      add\n        /* \"#utility.yul\":7855:7917   */\n      mstore\n      shl(0x92, 0x18d85b9b9bdd0819195c1bdcda5d)\n        /* \"#utility.yul\":7933:7951   */\n      0x64\n      dup3\n      add\n        /* \"#utility.yul\":7926:7970   */\n      mstore\n        /* \"#utility.yul\":7987:8006   */\n      0x84\n      add\n        /* \"contracts/SwirlPrivatePoolV2.sol\":6763:6848  require(!isBlacklisted[msg.sender], \"this address is blacklisted and cannot deposit\") */\n      tag_179\n        /* \"#utility.yul\":7602:8012   */\n      jump\n        /* \"contracts/SwirlPrivatePoolV2.sol\":6763:6848  require(!isBlacklisted[msg.sender], \"this address is blacklisted and cannot deposit\") */\n    tag_274:\n        /* \"contracts/SwirlPrivatePoolV2.sol\":6861:6881  uint256 depositTotal */\n      0x00\n        /* \"contracts/SwirlPrivatePoolV2.sol\":6884:6911  DENOMINATION + PROTOCOL_FEE */\n      tag_277\n        /* \"contracts/SwirlPrivatePoolV2.sol\":3059:3068  0.1 ether */\n      0x016345785d8a0000\n        /* \"contracts/SwirlPrivatePoolV2.sol\":3006:3013  1 ether */\n      0x0de0b6b3a7640000\n        /* \"contracts/SwirlPrivatePoolV2.sol\":6884:6911  DENOMINATION + PROTOCOL_FEE */\n      tag_278\n      jump\t// in\n    tag_277:\n        /* \"contracts/SwirlPrivatePoolV2.sol\":6861:6911  uint256 depositTotal = DENOMINATION + PROTOCOL_FEE */\n      swap1\n      pop\n        /* \"contracts/SwirlPrivatePoolV2.sol\":6941:6953  depositTotal */\n      dup1\n        /* \"contracts/SwirlPrivatePoolV2.sol\":6928:6937  msg.value */\n      callvalue\n        /* \"contracts/SwirlPrivatePoolV2.sol\":6928:6953  msg.value != depositTotal */\n      eq\n        /* \"contracts/SwirlPrivatePoolV2.sol\":6924:6983  if (msg.value != depositTotal) revert InvalidDenomination() */\n      tag_279\n      jumpi\n        /* \"contracts/SwirlPrivatePoolV2.sol\":6962:6983  InvalidDenomination() */\n      mload(0x40)\n      shl(0xe1, 0x7833d9e3)\n      dup2\n      mstore\n      0x04\n      add\n      mload(0x40)\n      dup1\n      swap2\n      sub\n      swap1\n      revert\n        /* \"contracts/SwirlPrivatePoolV2.sol\":6924:6983  if (msg.value != depositTotal) revert InvalidDenomination() */\n    tag_279:\n        /* \"contracts/SwirlPrivatePoolV2.sol\":6998:7007  nextIndex */\n      sload(0x2c)\n        /* \"contracts/SwirlPrivatePoolV2.sol\":3169:3184  1 << TREE_DEPTH */\n      0x100000\n      0xffffffff\n        /* \"contracts/SwirlPrivatePoolV2.sol\":6998:7007  nextIndex */\n      swap1\n      swap2\n      and\n        /* \"contracts/SwirlPrivatePoolV2.sol\":6998:7021  nextIndex >= MAX_LEAVES */\n      lt\n        /* \"contracts/SwirlPrivatePoolV2.sol\":6994:7042  if (nextIndex >= MAX_LEAVES) revert TreeIsFull() */\n      tag_280\n      jumpi\n        /* \"contracts/SwirlPrivatePoolV2.sol\":7030:7042  TreeIsFull() */\n      mload(0x40)\n      shl(0xe2, 0x3b5ccb43)\n      dup2\n      mstore\n      0x04\n      add\n      mload(0x40)\n      dup1\n      swap2\n      sub\n      swap1\n      revert\n        /* \"contracts/SwirlPrivatePoolV2.sol\":6994:7042  if (nextIndex >= MAX_LEAVES) revert TreeIsFull() */\n    tag_280:\n        /* \"contracts/SwirlPrivatePoolV2.sol\":7070:7079  nextIndex */\n      0x2c\n      dup1\n      sload\n      0xffffffff\n      and\n      swap1\n      dup2\n      swap1\n        /* \"contracts/SwirlPrivatePoolV2.sol\":7055:7067  uint32 index */\n      0x00\n        /* \"contracts/SwirlPrivatePoolV2.sol\":7090:7101  nextIndex++ */\n      tag_281\n        /* \"contracts/SwirlPrivatePoolV2.sol\":7070:7079  nextIndex */\n      dup4\n        /* \"contracts/SwirlPrivatePoolV2.sol\":7090:7101  nextIndex++ */\n      tag_282\n      jump\t// in\n    tag_281:\n      dup3\n      sload\n      0xffffffff\n      swap2\n      dup3\n      and\n      0x0100\n      swap4\n      swap1\n      swap4\n      exp\n      swap3\n      dup4\n      mul\n      swap2\n      swap1\n      swap3\n      mul\n      not\n      swap1\n      swap2\n      and\n      or\n      swap1\n      sstore\n      pop\n        /* \"contracts/SwirlPrivatePoolV2.sol\":7144:7154  commitment */\n      dup3\n      0x00\n        /* \"contracts/SwirlPrivatePoolV2.sol\":7168:7868  for (uint32 i = 0; i < TREE_DEPTH; i++) {... */\n    tag_283:\n        /* \"contracts/SwirlPrivatePoolV2.sol\":3114:3116  20 */\n      0x14\n        /* \"contracts/SwirlPrivatePoolV2.sol\":7187:7201  i < TREE_DEPTH */\n      0xffffffff\n      dup3\n      and\n      lt\n        /* \"contracts/SwirlPrivatePoolV2.sol\":7168:7868  for (uint32 i = 0; i < TREE_DEPTH; i++) {... */\n      iszero\n      tag_284\n      jumpi\n        /* \"contracts/SwirlPrivatePoolV2.sol\":7405:7406  1 */\n      0x01\n        /* \"contracts/SwirlPrivatePoolV2.sol\":7397:7406  index & 1 */\n      dup4\n      and\n        /* \"contracts/SwirlPrivatePoolV2.sol\":7411:7412  0 */\n      0x00\n        /* \"contracts/SwirlPrivatePoolV2.sol\":7396:7412  (index & 1) == 0 */\n      sub\n        /* \"contracts/SwirlPrivatePoolV2.sol\":7392:7810  if ((index & 1) == 0) {... */\n      tag_286\n      jumpi\n        /* \"contracts/SwirlPrivatePoolV2.sol\":7461:7472  currentHash */\n      dup2\n        /* \"contracts/SwirlPrivatePoolV2.sol\":7433:7447  filledSubtrees */\n      0x17\n        /* \"contracts/SwirlPrivatePoolV2.sol\":7433:7450  filledSubtrees[i] */\n      0xffffffff\n      dup4\n      and\n      0x14\n      dup2\n      lt\n      tag_288\n      jumpi\n      tag_288\n      tag_252\n      jump\t// in\n    tag_288:\n      add\n        /* \"contracts/SwirlPrivatePoolV2.sol\":7433:7473  filledSubtrees[i] = bytes32(currentHash) */\n      dup2\n      swap1\n      sstore\n      pop\n        /* \"contracts/SwirlPrivatePoolV2.sol\":7506:7514  poseidon */\n      immutable(\"0xae31ed75e23e551fde6d038a3aec15ab1ea2fb6c912f84d137c43e0d0ce559b2\")\n      sub(shl(0xa0, 0x01), 0x01)\n        /* \"contracts/SwirlPrivatePoolV2.sol\":7506:7523  poseidon.poseidon */\n      and\n      0x29a5f2f6\n        /* \"contracts/SwirlPrivatePoolV2.sol\":7506:7618  poseidon.poseidon([... */\n      mload(0x40)\n      dup1\n      0x40\n      add\n      0x40\n      mstore\n      dup1\n        /* \"contracts/SwirlPrivatePoolV2.sol\":7547:7558  currentHash */\n      dup6\n        /* \"contracts/SwirlPrivatePoolV2.sol\":7506:7618  poseidon.poseidon([... */\n      dup2\n      mstore\n      0x20\n      add\n        /* \"contracts/SwirlPrivatePoolV2.sol\":7589:7594  zeros */\n      0x03\n        /* \"contracts/SwirlPrivatePoolV2.sol\":7595:7596  i */\n      dup6\n        /* \"contracts/SwirlPrivatePoolV2.sol\":7589:7597  zeros[i] */\n      0xffffffff\n      and\n      0x14\n      dup2\n      lt\n      tag_291\n      jumpi\n      tag_291\n      tag_252\n      jump\t// in\n    tag_291:\n      add\n      sload\n        /* \"contracts/SwirlPrivatePoolV2.sol\":7506:7618  poseidon.poseidon([... */\n      swap1\n      mstore\n      mload(0x40)\n      not(sub(shl(0xe0, 0x01), 0x01))\n      0xe0\n      dup5\n      swap1\n      shl\n      and\n      dup2\n      mstore\n      tag_293\n      swap2\n      swap1\n      0x04\n      add\n      tag_294\n      jump\t// in\n    tag_293:\n      0x20\n      mload(0x40)\n      dup1\n      dup4\n      sub\n      dup2\n      dup7\n      gas\n      staticcall\n      iszero\n      dup1\n      iszero\n      tag_296\n      jumpi\n      returndatacopy(0x00, 0x00, returndatasize)\n      revert(0x00, returndatasize)\n    tag_296:\n      pop\n      pop\n      pop\n      pop\n      mload(0x40)\n      returndatasize\n      not(0x1f)\n      0x1f\n      dup3\n      add\n      and\n      dup3\n      add\n      dup1\n      0x40\n      mstore\n      pop\n      dup2\n      add\n      swap1\n      tag_297\n      swap2\n      swap1\n      tag_298\n      jump\t// in\n    tag_297:\n        /* \"contracts/SwirlPrivatePoolV2.sol\":7492:7618  currentHash = poseidon.poseidon([... */\n      swap2\n      pop\n        /* \"contracts/SwirlPrivatePoolV2.sol\":7392:7810  if ((index & 1) == 0) {... */\n      jump(tag_299)\n    tag_286:\n        /* \"contracts/SwirlPrivatePoolV2.sol\":7673:7681  poseidon */\n      immutable(\"0xae31ed75e23e551fde6d038a3aec15ab1ea2fb6c912f84d137c43e0d0ce559b2\")\n      sub(shl(0xa0, 0x01), 0x01)\n        /* \"contracts/SwirlPrivatePoolV2.sol\":7673:7690  poseidon.poseidon */\n      and\n      0x29a5f2f6\n        /* \"contracts/SwirlPrivatePoolV2.sol\":7673:7794  poseidon.poseidon([... */\n      mload(0x40)\n      dup1\n      0x40\n      add\n      0x40\n      mstore\n      dup1\n        /* \"contracts/SwirlPrivatePoolV2.sol\":7722:7736  filledSubtrees */\n      0x17\n        /* \"contracts/SwirlPrivatePoolV2.sol\":7737:7738  i */\n      dup6\n        /* \"contracts/SwirlPrivatePoolV2.sol\":7722:7739  filledSubtrees[i] */\n      0xffffffff\n      and\n      0x14\n      dup2\n      lt\n      tag_301\n      jumpi\n      tag_301\n      tag_252\n      jump\t// in\n    tag_301:\n      add\n      sload\n        /* \"contracts/SwirlPrivatePoolV2.sol\":7673:7794  poseidon.poseidon([... */\n      dup2\n      mstore\n      0x20\n      add\n      dup6\n      swap1\n      mstore\n      mload(0x40)\n      not(sub(shl(0xe0, 0x01), 0x01))\n      0xe0\n      dup5\n      swap1\n      shl\n      and\n      dup2\n      mstore\n      tag_303\n      swap2\n      swap1\n      0x04\n      add\n      tag_294\n      jump\t// in\n    tag_303:\n      0x20\n      mload(0x40)\n      dup1\n      dup4\n      sub\n      dup2\n      dup7\n      gas\n      staticcall\n      iszero\n      dup1\n      iszero\n      tag_305\n      jumpi\n      returndatacopy(0x00, 0x00, returndatasize)\n      revert(0x00, returndatasize)\n    tag_305:\n      pop\n      pop\n      pop\n      pop\n      mload(0x40)\n      returndatasize\n      not(0x1f)\n      0x1f\n      dup3\n      add\n      and\n      dup3\n      add\n      dup1\n      0x40\n      mstore\n      pop\n      dup2\n      add\n      swap1\n      tag_306\n      swap2\n      swap1\n      tag_298\n      jump\t// in\n    tag_306:\n        /* \"contracts/SwirlPrivatePoolV2.sol\":7659:7794  currentHash = poseidon.poseidon([... */\n      swap2\n      pop\n        /* \"contracts/SwirlPrivatePoolV2.sol\":7392:7810  if ((index & 1) == 0) {... */\n    tag_299:\n        /* \"contracts/SwirlPrivatePoolV2.sol\":7824:7835  index >>= 1 */\n      0x7fffffff\n        /* \"contracts/SwirlPrivatePoolV2.sol\":7834:7835  1 */\n      0x01\n        /* \"contracts/SwirlPrivatePoolV2.sol\":7824:7835  index >>= 1 */\n      swap4\n      dup5\n      shr\n      and\n      swap3\n        /* \"contracts/SwirlPrivatePoolV2.sol\":7203:7206  i++ */\n      add\n        /* \"contracts/SwirlPrivatePoolV2.sol\":7168:7868  for (uint32 i = 0; i < TREE_DEPTH; i++) {... */\n      jump(tag_283)\n    tag_284:\n      pop\n        /* \"contracts/SwirlPrivatePoolV2.sol\":7880:7891  currentRoot */\n      0x2b\n        /* \"contracts/SwirlPrivatePoolV2.sol\":7880:7914  currentRoot = bytes32(currentHash) */\n      dup2\n      swap1\n      sstore\n        /* \"contracts/SwirlPrivatePoolV2.sol\":7894:7914  bytes32(currentHash) */\n      0x00\n        /* \"contracts/SwirlPrivatePoolV2.sol\":7925:7948  knownRoots[currentRoot] */\n      dup2\n      dup2\n      mstore\n        /* \"contracts/SwirlPrivatePoolV2.sol\":7925:7935  knownRoots */\n      0x2e\n        /* \"contracts/SwirlPrivatePoolV2.sol\":7925:7948  knownRoots[currentRoot] */\n      0x20\n      mstore\n      0x40\n      dup2\n      keccak256\n        /* \"contracts/SwirlPrivatePoolV2.sol\":7925:7955  knownRoots[currentRoot] = true */\n      dup1\n      sload\n      not(0xff)\n      and\n        /* \"contracts/SwirlPrivatePoolV2.sol\":7951:7955  true */\n      0x01\n        /* \"contracts/SwirlPrivatePoolV2.sol\":7925:7955  knownRoots[currentRoot] = true */\n      or\n      swap1\n      sstore\n        /* \"contracts/SwirlPrivatePoolV2.sol\":7966:7975  totalFees */\n      0x02\n        /* \"contracts/SwirlPrivatePoolV2.sol\":7966:7991  totalFees += PROTOCOL_FEE */\n      dup1\n      sload\n        /* \"contracts/SwirlPrivatePoolV2.sol\":3059:3068  0.1 ether */\n      0x016345785d8a0000\n      swap3\n        /* \"contracts/SwirlPrivatePoolV2.sol\":7894:7914  bytes32(currentHash) */\n      swap1\n        /* \"contracts/SwirlPrivatePoolV2.sol\":7966:7991  totalFees += PROTOCOL_FEE */\n      tag_307\n      swap1\n        /* \"contracts/SwirlPrivatePoolV2.sol\":3059:3068  0.1 ether */\n      dup5\n      swap1\n        /* \"contracts/SwirlPrivatePoolV2.sol\":7966:7991  totalFees += PROTOCOL_FEE */\n      tag_278\n      jump\t// in\n    tag_307:\n      swap1\n      swap2\n      sstore\n      pop\n      pop\n        /* \"contracts/SwirlPrivatePoolV2.sol\":8029:8038  nextIndex */\n      sload(0x2c)\n        /* \"contracts/SwirlPrivatePoolV2.sol\":8017:8027  commitment */\n      dup5\n      swap1\n        /* \"contracts/SwirlPrivatePoolV2.sol\":8009:8043  Deposit(commitment, nextIndex - 1) */\n      0x84fc9eb8cd0a782a1d1734fbeed616bd0ef775f8b9bd437636b62d634fe4baf3\n      swap1\n        /* \"contracts/SwirlPrivatePoolV2.sol\":8029:8042  nextIndex - 1 */\n      tag_308\n      swap1\n        /* \"contracts/SwirlPrivatePoolV2.sol\":8041:8042  1 */\n      0x01\n      swap1\n        /* \"contracts/SwirlPrivatePoolV2.sol\":8029:8038  nextIndex */\n      0xffffffff\n      and\n        /* \"contracts/SwirlPrivatePoolV2.sol\":8029:8042  nextIndex - 1 */\n      tag_309\n      jump\t// in\n    tag_308:\n        /* \"contracts/SwirlPrivatePoolV2.sol\":8009:8043  Deposit(commitment, nextIndex - 1) */\n      mload(0x40)\n        /* \"#utility.yul\":188:198   */\n      0xffffffff\n        /* \"#utility.yul\":176:199   */\n      swap1\n      swap2\n      and\n        /* \"#utility.yul\":158:200   */\n      dup2\n      mstore\n        /* \"#utility.yul\":146:148   */\n      0x20\n        /* \"#utility.yul\":131:149   */\n      add\n        /* \"contracts/SwirlPrivatePoolV2.sol\":8009:8043  Deposit(commitment, nextIndex - 1) */\n      mload(0x40)\n      dup1\n      swap2\n      sub\n      swap1\n      log2\n        /* \"contracts/SwirlPrivatePoolV2.sol\":6606:8051  {... */\n      pop\n      pop\n      pop\n        /* \"contracts/SwirlPrivatePoolV2.sol\":6522:8051  function deposit(... */\n      pop\n      jump\t// out\n        /* \"contracts/SwirlPrivatePoolV2.sol\":3690:3722  bytes32[TREE_DEPTH] public zeros */\n    tag_134:\n      0x03\n      dup2\n      0x14\n      dup2\n      lt\n      tag_312\n      jumpi\n      0x00\n      dup1\n      revert\n    tag_312:\n      add\n      sload\n      swap1\n      pop\n      dup2\n      jump\t// out\n        /* \"contracts/SwirlPrivatePoolV2.sol\":3729:3770  bytes32[TREE_DEPTH] public filledSubtrees */\n    tag_144:\n      0x17\n      dup2\n      0x14\n      dup2\n      lt\n      tag_312\n      jumpi\n      0x00\n      dup1\n      revert\n        /* \"@openzeppelin/contracts/access/Ownable.sol\":2543:2758  function transferOwnership(address newOwner) public virtual onlyOwner {... */\n    tag_149:\n        /* \"@openzeppelin/contracts/access/Ownable.sol\":1531:1544  _checkOwner() */\n      tag_317\n        /* \"@openzeppelin/contracts/access/Ownable.sol\":1531:1542  _checkOwner */\n      tag_169\n        /* \"@openzeppelin/contracts/access/Ownable.sol\":1531:1544  _checkOwner() */\n      jump\t// in\n    tag_317:\n      sub(shl(0xa0, 0x01), 0x01)\n        /* \"@openzeppelin/contracts/access/Ownable.sol\":2627:2649  newOwner == address(0) */\n      dup2\n      and\n        /* \"@openzeppelin/contracts/access/Ownable.sol\":2623:2714  if (newOwner == address(0)) {... */\n      tag_319\n      jumpi\n        /* \"@openzeppelin/contracts/access/Ownable.sol\":2672:2703  OwnableInvalidOwner(address(0)) */\n      mload(0x40)\n      shl(0xe0, 0x1e4fbdf7)\n      dup2\n      mstore\n        /* \"@openzeppelin/contracts/access/Ownable.sol\":2700:2701  0 */\n      0x00\n        /* \"@openzeppelin/contracts/access/Ownable.sol\":2672:2703  OwnableInvalidOwner(address(0)) */\n      0x04\n      dup3\n      add\n        /* \"#utility.yul\":1367:1418   */\n      mstore\n        /* \"#utility.yul\":1340:1358   */\n      0x24\n      add\n        /* \"@openzeppelin/contracts/access/Ownable.sol\":2672:2703  OwnableInvalidOwner(address(0)) */\n      tag_179\n        /* \"#utility.yul\":1204:1424   */\n      jump\n        /* \"@openzeppelin/contracts/access/Ownable.sol\":2623:2714  if (newOwner == address(0)) {... */\n    tag_319:\n        /* \"@openzeppelin/contracts/access/Ownable.sol\":2723:2751  _transferOwnership(newOwner) */\n      tag_194\n        /* \"@openzeppelin/contracts/access/Ownable.sol\":2742:2750  newOwner */\n      dup2\n        /* \"@openzeppelin/contracts/access/Ownable.sol\":2723:2741  _transferOwnership */\n      tag_226\n        /* \"@openzeppelin/contracts/access/Ownable.sol\":2723:2751  _transferOwnership(newOwner) */\n      jump\t// in\n        /* \"contracts/SwirlPrivatePoolV2.sol\":5372:5512  function blacklist(address _address) public onlyOwner {... */\n    tag_153:\n        /* \"@openzeppelin/contracts/access/Ownable.sol\":1531:1544  _checkOwner() */\n      tag_323\n        /* \"@openzeppelin/contracts/access/Ownable.sol\":1531:1542  _checkOwner */\n      tag_169\n        /* \"@openzeppelin/contracts/access/Ownable.sol\":1531:1544  _checkOwner() */\n      jump\t// in\n    tag_323:\n      sub(shl(0xa0, 0x01), 0x01)\n        /* \"contracts/SwirlPrivatePoolV2.sol\":5437:5460  isBlacklisted[_address] */\n      dup2\n      and\n      0x00\n      dup2\n      dup2\n      mstore\n        /* \"contracts/SwirlPrivatePoolV2.sol\":5437:5450  isBlacklisted */\n      0x2f\n        /* \"contracts/SwirlPrivatePoolV2.sol\":5437:5460  isBlacklisted[_address] */\n      0x20\n      swap1\n      dup2\n      mstore\n      0x40\n      swap2\n      dup3\n      swap1\n      keccak256\n        /* \"contracts/SwirlPrivatePoolV2.sol\":5437:5467  isBlacklisted[_address] = true */\n      dup1\n      sload\n      not(0xff)\n      and\n        /* \"contracts/SwirlPrivatePoolV2.sol\":5463:5467  true */\n      0x01\n        /* \"contracts/SwirlPrivatePoolV2.sol\":5437:5467  isBlacklisted[_address] = true */\n      or\n      swap1\n      sstore\n        /* \"contracts/SwirlPrivatePoolV2.sol\":5483:5504  Blacklisted(_address) */\n      swap1\n      mload\n        /* \"#utility.yul\":1367:1418   */\n      swap2\n      dup3\n      mstore\n        /* \"contracts/SwirlPrivatePoolV2.sol\":5483:5504  Blacklisted(_address) */\n      0xffa4e6181777692565cf28528fc88fd1516ea86b56da075235fa575af6a4b855\n      swap2\n        /* \"#utility.yul\":1340:1358   */\n      add\n        /* \"contracts/SwirlPrivatePoolV2.sol\":5483:5504  Blacklisted(_address) */\n      tag_171\n        /* \"#utility.yul\":1204:1424   */\n      jump\n        /* \"@openzeppelin/contracts/access/Ownable.sol\":1796:1958  function _checkOwner() internal view virtual {... */\n    tag_169:\n        /* \"@openzeppelin/contracts/access/Ownable.sol\":1684:1691  address */\n      0x00\n        /* \"@openzeppelin/contracts/access/Ownable.sol\":1710:1716  _owner */\n      sload\n      sub(shl(0xa0, 0x01), 0x01)\n      0x0100\n      swap1\n      swap2\n      div\n      and\n        /* \"@openzeppelin/contracts/utils/Context.sol\":735:745  msg.sender */\n      caller\n        /* \"@openzeppelin/contracts/access/Ownable.sol\":1855:1878  owner() != _msgSender() */\n      eq\n        /* \"@openzeppelin/contracts/access/Ownable.sol\":1851:1952  if (owner() != _msgSender()) {... */\n      tag_199\n      jumpi\n        /* \"@openzeppelin/contracts/access/Ownable.sol\":1901:1941  OwnableUnauthorizedAccount(_msgSender()) */\n      mload(0x40)\n      shl(0xe0, 0x118cdaa7)\n      dup2\n      mstore\n        /* \"@openzeppelin/contracts/utils/Context.sol\":735:745  msg.sender */\n      caller\n        /* \"@openzeppelin/contracts/access/Ownable.sol\":1901:1941  OwnableUnauthorizedAccount(_msgSender()) */\n      0x04\n      dup3\n      add\n        /* \"#utility.yul\":1367:1418   */\n      mstore\n        /* \"#utility.yul\":1340:1358   */\n      0x24\n      add\n        /* \"@openzeppelin/contracts/access/Ownable.sol\":1901:1941  OwnableUnauthorizedAccount(_msgSender()) */\n      tag_179\n        /* \"#utility.yul\":1204:1424   */\n      jump\n        /* \"@openzeppelin/contracts/security/ReentrancyGuard.sol\":2336:2623  function _nonReentrantBefore() private {... */\n    tag_176:\n        /* \"@openzeppelin/contracts/security/ReentrancyGuard.sol\":1759:1760  2 */\n      0x02\n        /* \"@openzeppelin/contracts/security/ReentrancyGuard.sol\":2468:2475  _status */\n      sload(0x01)\n        /* \"@openzeppelin/contracts/security/ReentrancyGuard.sol\":2468:2487  _status != _ENTERED */\n      sub\n        /* \"@openzeppelin/contracts/security/ReentrancyGuard.sol\":2460:2523  require(_status != _ENTERED, \"ReentrancyGuard: reentrant call\") */\n      tag_334\n      jumpi\n      mload(0x40)\n      shl(0xe5, 0x461bcd)\n      dup2\n      mstore\n        /* \"#utility.yul\":9514:9516   */\n      0x20\n        /* \"@openzeppelin/contracts/security/ReentrancyGuard.sol\":2460:2523  require(_status != _ENTERED, \"ReentrancyGuard: reentrant call\") */\n      0x04\n      dup3\n      add\n        /* \"#utility.yul\":9496:9517   */\n      mstore\n        /* \"#utility.yul\":9553:9555   */\n      0x1f\n        /* \"#utility.yul\":9533:9551   */\n      0x24\n      dup3\n      add\n        /* \"#utility.yul\":9526:9556   */\n      mstore\n        /* \"#utility.yul\":9592:9625   */\n      0x5265656e7472616e637947756172643a207265656e7472616e742063616c6c00\n        /* \"#utility.yul\":9572:9590   */\n      0x44\n      dup3\n      add\n        /* \"#utility.yul\":9565:9626   */\n      mstore\n        /* \"#utility.yul\":9643:9661   */\n      0x64\n      add\n        /* \"@openzeppelin/contracts/security/ReentrancyGuard.sol\":2460:2523  require(_status != _ENTERED, \"ReentrancyGuard: reentrant call\") */\n      tag_179\n        /* \"#utility.yul\":9312:9667   */\n      jump\n        /* \"@openzeppelin/contracts/security/ReentrancyGuard.sol\":2460:2523  require(_status != _ENTERED, \"ReentrancyGuard: reentrant call\") */\n    tag_334:\n        /* \"@openzeppelin/contracts/security/ReentrancyGuard.sol\":1759:1760  2 */\n      0x02\n        /* \"@openzeppelin/contracts/security/ReentrancyGuard.sol\":2598:2605  _status */\n      0x01\n        /* \"@openzeppelin/contracts/security/ReentrancyGuard.sol\":2598:2616  _status = _ENTERED */\n      sstore\n        /* \"@openzeppelin/contracts/security/ReentrancyGuard.sol\":2336:2623  function _nonReentrantBefore() private {... */\n      jump\t// out\n        /* \"@openzeppelin/contracts/security/Pausable.sol\":2433:2550  function _unpause() internal virtual whenPaused {... */\n    tag_200:\n        /* \"@openzeppelin/contracts/security/Pausable.sol\":1486:1502  _requirePaused() */\n      tag_339\n        /* \"@openzeppelin/contracts/security/Pausable.sol\":1486:1500  _requirePaused */\n      tag_207\n        /* \"@openzeppelin/contracts/security/Pausable.sol\":1486:1502  _requirePaused() */\n      jump\t// in\n    tag_339:\n        /* \"@openzeppelin/contracts/security/Pausable.sol\":2501:2506  false */\n      0x00\n        /* \"@openzeppelin/contracts/security/Pausable.sol\":2491:2506  _paused = false */\n      dup1\n      sload\n      not(0xff)\n      and\n      swap1\n      sstore\n        /* \"@openzeppelin/contracts/security/Pausable.sol\":2521:2543  Unpaused(_msgSender()) */\n      0x5db9ee0a495bf2e6ff9c91a7834c1ba4fdd244a5e8aa4e537bd38aeae4b073aa\n        /* \"@openzeppelin/contracts/utils/Context.sol\":735:745  msg.sender */\n      caller\n        /* \"@openzeppelin/contracts/security/Pausable.sol\":2530:2542  _msgSender() */\n    tag_341:\n        /* \"@openzeppelin/contracts/security/Pausable.sol\":2521:2543  Unpaused(_msgSender()) */\n      mload(0x40)\n      sub(shl(0xa0, 0x01), 0x01)\n        /* \"#utility.yul\":1385:1417   */\n      swap1\n      swap2\n      and\n        /* \"#utility.yul\":1367:1418   */\n      dup2\n      mstore\n        /* \"#utility.yul\":1355:1357   */\n      0x20\n        /* \"#utility.yul\":1340:1358   */\n      add\n        /* \"@openzeppelin/contracts/security/Pausable.sol\":2521:2543  Unpaused(_msgSender()) */\n      mload(0x40)\n      dup1\n      swap2\n      sub\n      swap1\n      log1\n        /* \"@openzeppelin/contracts/security/Pausable.sol\":2433:2550  function _unpause() internal virtual whenPaused {... */\n      jump\t// out\n        /* \"@openzeppelin/contracts/security/Pausable.sol\":1945:2051  function _requirePaused() internal view virtual {... */\n    tag_207:\n        /* \"@openzeppelin/contracts/security/Pausable.sol\":1662:1666  bool */\n      0x00\n        /* \"@openzeppelin/contracts/security/Pausable.sol\":1685:1692  _paused */\n      sload\n      0xff\n      and\n        /* \"@openzeppelin/contracts/security/Pausable.sol\":2003:2044  require(paused(), \"Pausable: not paused\") */\n      tag_199\n      jumpi\n      mload(0x40)\n      shl(0xe5, 0x461bcd)\n      dup2\n      mstore\n        /* \"#utility.yul\":9874:9876   */\n      0x20\n        /* \"@openzeppelin/contracts/security/Pausable.sol\":2003:2044  require(paused(), \"Pausable: not paused\") */\n      0x04\n      dup3\n      add\n        /* \"#utility.yul\":9856:9877   */\n      mstore\n        /* \"#utility.yul\":9913:9915   */\n      0x14\n        /* \"#utility.yul\":9893:9911   */\n      0x24\n      dup3\n      add\n        /* \"#utility.yul\":9886:9916   */\n      mstore\n      shl(0x62, 0x14185d5cd8589b194e881b9bdd081c185d5cd959)\n        /* \"#utility.yul\":9932:9950   */\n      0x44\n      dup3\n      add\n        /* \"#utility.yul\":9925:9975   */\n      mstore\n        /* \"#utility.yul\":9992:10010   */\n      0x64\n      add\n        /* \"@openzeppelin/contracts/security/Pausable.sol\":2003:2044  require(paused(), \"Pausable: not paused\") */\n      tag_179\n        /* \"#utility.yul\":9672:10016   */\n      jump\n        /* \"@openzeppelin/contracts/access/Ownable.sol\":2912:3099  function _transferOwnership(address newOwner) internal virtual {... */\n    tag_226:\n        /* \"@openzeppelin/contracts/access/Ownable.sol\":2985:3001  address oldOwner */\n      0x00\n        /* \"@openzeppelin/contracts/access/Ownable.sol\":3004:3010  _owner */\n      dup1\n      sload\n      sub(shl(0xa0, 0x01), 0x01)\n        /* \"@openzeppelin/contracts/access/Ownable.sol\":3020:3037  _owner = newOwner */\n      dup4\n      dup2\n      and\n        /* \"@openzeppelin/contracts/access/Ownable.sol\":3004:3010  _owner */\n      0x0100\n        /* \"@openzeppelin/contracts/access/Ownable.sol\":3020:3037  _owner = newOwner */\n      dup2\n      dup2\n      mul\n      not(sub(shl(0xa8, 0x01), 0x0100))\n      dup6\n      and\n      or\n      dup6\n      sstore\n        /* \"@openzeppelin/contracts/access/Ownable.sol\":3052:3092  OwnershipTransferred(oldOwner, newOwner) */\n      mload(0x40)\n        /* \"@openzeppelin/contracts/access/Ownable.sol\":3004:3010  _owner */\n      swap4\n      div\n      swap2\n      swap1\n      swap2\n      and\n      swap3\n        /* \"@openzeppelin/contracts/access/Ownable.sol\":3020:3037  _owner = newOwner */\n      swap1\n      swap2\n        /* \"@openzeppelin/contracts/access/Ownable.sol\":3004:3010  _owner */\n      dup4\n      swap2\n        /* \"@openzeppelin/contracts/access/Ownable.sol\":3052:3092  OwnershipTransferred(oldOwner, newOwner) */\n      0x8be0079c531659141344cd1fd0a4f28419497f9722a3daafe3b4186f6b6457e0\n      swap2\n      log3\n        /* \"@openzeppelin/contracts/access/Ownable.sol\":2975:3099  {... */\n      pop\n        /* \"@openzeppelin/contracts/access/Ownable.sol\":2912:3099  function _transferOwnership(address newOwner) internal virtual {... */\n      pop\n      jump\t// out\n        /* \"@openzeppelin/contracts/security/Pausable.sol\":2186:2301  function _pause() internal virtual whenNotPaused {... */\n    tag_232:\n        /* \"@openzeppelin/contracts/security/Pausable.sol\":1239:1258  _requireNotPaused() */\n      tag_350\n        /* \"@openzeppelin/contracts/security/Pausable.sol\":1239:1256  _requireNotPaused */\n      tag_237\n        /* \"@openzeppelin/contracts/security/Pausable.sol\":1239:1258  _requireNotPaused() */\n      jump\t// in\n    tag_350:\n        /* \"@openzeppelin/contracts/security/Pausable.sol\":2245:2252  _paused */\n      0x00\n        /* \"@openzeppelin/contracts/security/Pausable.sol\":2245:2259  _paused = true */\n      dup1\n      sload\n      not(0xff)\n      and\n        /* \"@openzeppelin/contracts/security/Pausable.sol\":2255:2259  true */\n      0x01\n        /* \"@openzeppelin/contracts/security/Pausable.sol\":2245:2259  _paused = true */\n      or\n      swap1\n      sstore\n        /* \"@openzeppelin/contracts/security/Pausable.sol\":2274:2294  Paused(_msgSender()) */\n      0x62e78cea01bee320cd4e420270b5ea74000d11b0c9f74754ebdbfc544b05a258\n        /* \"@openzeppelin/contracts/security/Pausable.sol\":2281:2293  _msgSender() */\n      tag_341\n        /* \"@openzeppelin/contracts/utils/Context.sol\":735:745  msg.sender */\n      caller\n      swap1\n        /* \"@openzeppelin/contracts/utils/Context.sol\":656:752  function _msgSender() internal view virtual returns (address) {... */\n      jump\n        /* \"@openzeppelin/contracts/security/Pausable.sol\":1767:1873  function _requireNotPaused() internal view virtual {... */\n    tag_237:\n        /* \"@openzeppelin/contracts/security/Pausable.sol\":1662:1666  bool */\n      0x00\n        /* \"@openzeppelin/contracts/security/Pausable.sol\":1685:1692  _paused */\n      sload\n      0xff\n      and\n        /* \"@openzeppelin/contracts/security/Pausable.sol\":1836:1845  !paused() */\n      iszero\n        /* \"@openzeppelin/contracts/security/Pausable.sol\":1828:1866  require(!paused(), \"Pausable: paused\") */\n      tag_199\n      jumpi\n      mload(0x40)\n      shl(0xe5, 0x461bcd)\n      dup2\n      mstore\n        /* \"#utility.yul\":10223:10225   */\n      0x20\n        /* \"@openzeppelin/contracts/security/Pausable.sol\":1828:1866  require(!paused(), \"Pausable: paused\") */\n      0x04\n      dup3\n      add\n        /* \"#utility.yul\":10205:10226   */\n      mstore\n        /* \"#utility.yul\":10262:10264   */\n      0x10\n        /* \"#utility.yul\":10242:10260   */\n      0x24\n      dup3\n      add\n        /* \"#utility.yul\":10235:10265   */\n      mstore\n      shl(0x82, 0x14185d5cd8589b194e881c185d5cd959)\n        /* \"#utility.yul\":10281:10299   */\n      0x44\n      dup3\n      add\n        /* \"#utility.yul\":10274:10320   */\n      mstore\n        /* \"#utility.yul\":10337:10355   */\n      0x64\n      add\n        /* \"@openzeppelin/contracts/security/Pausable.sol\":1828:1866  require(!paused(), \"Pausable: paused\") */\n      tag_179\n        /* \"#utility.yul\":10021:10361   */\n      jump\n        /* \"#utility.yul\":393:524   */\n    tag_360:\n      sub(shl(0xa0, 0x01), 0x01)\n        /* \"#utility.yul\":468:499   */\n      dup2\n      and\n        /* \"#utility.yul\":458:500   */\n      dup2\n      eq\n        /* \"#utility.yul\":448:518   */\n      tag_194\n      jumpi\n        /* \"#utility.yul\":514:515   */\n      0x00\n        /* \"#utility.yul\":511:512   */\n      0x00\n        /* \"#utility.yul\":504:516   */\n      revert\n        /* \"#utility.yul\":529:776   */\n    tag_55:\n        /* \"#utility.yul\":588:594   */\n      0x00\n        /* \"#utility.yul\":641:643   */\n      0x20\n        /* \"#utility.yul\":629:638   */\n      dup3\n        /* \"#utility.yul\":620:627   */\n      dup5\n        /* \"#utility.yul\":616:639   */\n      sub\n        /* \"#utility.yul\":612:644   */\n      slt\n        /* \"#utility.yul\":609:661   */\n      iszero\n      tag_368\n      jumpi\n        /* \"#utility.yul\":657:658   */\n      0x00\n        /* \"#utility.yul\":654:655   */\n      0x00\n        /* \"#utility.yul\":647:659   */\n      revert\n        /* \"#utility.yul\":609:661   */\n    tag_368:\n        /* \"#utility.yul\":696:705   */\n      dup2\n        /* \"#utility.yul\":683:706   */\n      calldataload\n        /* \"#utility.yul\":715:746   */\n      tag_369\n        /* \"#utility.yul\":740:745   */\n      dup2\n        /* \"#utility.yul\":715:746   */\n      tag_360\n      jump\t// in\n    tag_369:\n        /* \"#utility.yul\":765:770   */\n      swap4\n        /* \"#utility.yul\":529:776   */\n      swap3\n      pop\n      pop\n      pop\n      jump\t// out\n        /* \"#utility.yul\":781:1007   */\n    tag_64:\n        /* \"#utility.yul\":840:846   */\n      0x00\n        /* \"#utility.yul\":893:895   */\n      0x20\n        /* \"#utility.yul\":881:890   */\n      dup3\n        /* \"#utility.yul\":872:879   */\n      dup5\n        /* \"#utility.yul\":868:891   */\n      sub\n        /* \"#utility.yul\":864:896   */\n      slt\n        /* \"#utility.yul\":861:913   */\n      iszero\n      tag_371\n      jumpi\n        /* \"#utility.yul\":909:910   */\n      0x00\n        /* \"#utility.yul\":906:907   */\n      0x00\n        /* \"#utility.yul\":899:911   */\n      revert\n        /* \"#utility.yul\":861:913   */\n    tag_371:\n      pop\n        /* \"#utility.yul\":954:977   */\n      calldataload\n      swap2\n        /* \"#utility.yul\":781:1007   */\n      swap1\n      pop\n      jump\t// out\n        /* \"#utility.yul\":1637:2613   */\n    tag_115:\n        /* \"#utility.yul\":1742:1748   */\n      0x00\n        /* \"#utility.yul\":1750:1756   */\n      0x00\n        /* \"#utility.yul\":1758:1764   */\n      0x00\n        /* \"#utility.yul\":1766:1772   */\n      0x00\n        /* \"#utility.yul\":1774:1780   */\n      0x00\n        /* \"#utility.yul\":1827:1830   */\n      0x80\n        /* \"#utility.yul\":1815:1824   */\n      dup7\n        /* \"#utility.yul\":1806:1813   */\n      dup9\n        /* \"#utility.yul\":1802:1825   */\n      sub\n        /* \"#utility.yul\":1798:1831   */\n      slt\n        /* \"#utility.yul\":1795:1848   */\n      iszero\n      tag_376\n      jumpi\n        /* \"#utility.yul\":1844:1845   */\n      0x00\n        /* \"#utility.yul\":1841:1842   */\n      0x00\n        /* \"#utility.yul\":1834:1846   */\n      revert\n        /* \"#utility.yul\":1795:1848   */\n    tag_376:\n        /* \"#utility.yul\":1884:1893   */\n      dup6\n        /* \"#utility.yul\":1871:1894   */\n      calldataload\n        /* \"#utility.yul\":1917:1935   */\n      0xffffffffffffffff\n        /* \"#utility.yul\":1909:1915   */\n      dup2\n        /* \"#utility.yul\":1906:1936   */\n      gt\n        /* \"#utility.yul\":1903:1953   */\n      iszero\n      tag_377\n      jumpi\n        /* \"#utility.yul\":1949:1950   */\n      0x00\n        /* \"#utility.yul\":1946:1947   */\n      0x00\n        /* \"#utility.yul\":1939:1951   */\n      revert\n        /* \"#utility.yul\":1903:1953   */\n    tag_377:\n        /* \"#utility.yul\":1972:1994   */\n      dup7\n      add\n        /* \"#utility.yul\":2025:2029   */\n      0x1f\n        /* \"#utility.yul\":2017:2030   */\n      dup2\n      add\n        /* \"#utility.yul\":2013:2040   */\n      dup9\n      sgt\n        /* \"#utility.yul\":2003:2058   */\n      tag_378\n      jumpi\n        /* \"#utility.yul\":2054:2055   */\n      0x00\n        /* \"#utility.yul\":2051:2052   */\n      0x00\n        /* \"#utility.yul\":2044:2056   */\n      revert\n        /* \"#utility.yul\":2003:2058   */\n    tag_378:\n        /* \"#utility.yul\":2094:2096   */\n      dup1\n        /* \"#utility.yul\":2081:2097   */\n      calldataload\n        /* \"#utility.yul\":2120:2138   */\n      0xffffffffffffffff\n        /* \"#utility.yul\":2112:2118   */\n      dup2\n        /* \"#utility.yul\":2109:2139   */\n      gt\n        /* \"#utility.yul\":2106:2156   */\n      iszero\n      tag_379\n      jumpi\n        /* \"#utility.yul\":2152:2153   */\n      0x00\n        /* \"#utility.yul\":2149:2150   */\n      0x00\n        /* \"#utility.yul\":2142:2154   */\n      revert\n        /* \"#utility.yul\":2106:2156   */\n    tag_379:\n        /* \"#utility.yul\":2199:2206   */\n      dup9\n        /* \"#utility.yul\":2192:2196   */\n      0x20\n        /* \"#utility.yul\":2183:2189   */\n      dup3\n        /* \"#utility.yul\":2179:2181   */\n      dup5\n        /* \"#utility.yul\":2175:2190   */\n      add\n        /* \"#utility.yul\":2171:2197   */\n      add\n        /* \"#utility.yul\":2168:2207   */\n      gt\n        /* \"#utility.yul\":2165:2224   */\n      iszero\n      tag_380\n      jumpi\n        /* \"#utility.yul\":2220:2221   */\n      0x00\n        /* \"#utility.yul\":2217:2218   */\n      0x00\n        /* \"#utility.yul\":2210:2222   */\n      revert\n        /* \"#utility.yul\":2165:2224   */\n    tag_380:\n        /* \"#utility.yul\":2251:2255   */\n      0x20\n        /* \"#utility.yul\":2243:2256   */\n      swap2\n      dup3\n      add\n      swap7\n      pop\n        /* \"#utility.yul\":2275:2281   */\n      swap5\n      pop\n        /* \"#utility.yul\":2335:2355   */\n      dup7\n      add\n        /* \"#utility.yul\":2322:2356   */\n      calldataload\n      swap3\n      pop\n        /* \"#utility.yul\":2453:2455   */\n      0x40\n        /* \"#utility.yul\":2438:2456   */\n      dup7\n      add\n        /* \"#utility.yul\":2425:2457   */\n      calldataload\n      swap2\n      pop\n        /* \"#utility.yul\":2535:2537   */\n      0x60\n        /* \"#utility.yul\":2520:2538   */\n      dup7\n      add\n        /* \"#utility.yul\":2507:2539   */\n      calldataload\n        /* \"#utility.yul\":2548:2581   */\n      tag_381\n        /* \"#utility.yul\":2507:2539   */\n      dup2\n        /* \"#utility.yul\":2548:2581   */\n      tag_360\n      jump\t// in\n    tag_381:\n        /* \"#utility.yul\":2600:2607   */\n      dup1\n        /* \"#utility.yul\":2590:2607   */\n      swap2\n      pop\n      pop\n        /* \"#utility.yul\":1637:2613   */\n      swap3\n      swap6\n      pop\n      swap3\n      swap6\n      swap1\n      swap4\n      pop\n      jump\t// out\n        /* \"#utility.yul\":5903:6030   */\n    tag_252:\n        /* \"#utility.yul\":5964:5974   */\n      0x4e487b71\n        /* \"#utility.yul\":5959:5962   */\n      0xe0\n        /* \"#utility.yul\":5955:5975   */\n      shl\n        /* \"#utility.yul\":5952:5953   */\n      0x00\n        /* \"#utility.yul\":5945:5976   */\n      mstore\n        /* \"#utility.yul\":5995:5999   */\n      0x32\n        /* \"#utility.yul\":5992:5993   */\n      0x04\n        /* \"#utility.yul\":5985:6000   */\n      mstore\n        /* \"#utility.yul\":6019:6023   */\n      0x24\n        /* \"#utility.yul\":6016:6017   */\n      0x00\n        /* \"#utility.yul\":6009:6024   */\n      revert\n        /* \"#utility.yul\":6035:6967   */\n    tag_256:\n        /* \"#utility.yul\":6270:6272   */\n      0x40\n        /* \"#utility.yul\":6259:6268   */\n      dup2\n        /* \"#utility.yul\":6252:6273   */\n      mstore\n        /* \"#utility.yul\":6309:6315   */\n      dup3\n        /* \"#utility.yul\":6304:6306   */\n      0x40\n        /* \"#utility.yul\":6293:6302   */\n      dup3\n        /* \"#utility.yul\":6289:6307   */\n      add\n        /* \"#utility.yul\":6282:6316   */\n      mstore\n        /* \"#utility.yul\":6366:6372   */\n      dup3\n        /* \"#utility.yul\":6358:6364   */\n      dup5\n        /* \"#utility.yul\":6353:6355   */\n      0x60\n        /* \"#utility.yul\":6342:6351   */\n      dup4\n        /* \"#utility.yul\":6338:6356   */\n      add\n        /* \"#utility.yul\":6325:6373   */\n      calldatacopy\n        /* \"#utility.yul\":6422:6423   */\n      0x00\n        /* \"#utility.yul\":6417:6419   */\n      0x60\n        /* \"#utility.yul\":6408:6414   */\n      dup5\n        /* \"#utility.yul\":6397:6406   */\n      dup4\n        /* \"#utility.yul\":6393:6415   */\n      add\n        /* \"#utility.yul\":6389:6420   */\n      add\n        /* \"#utility.yul\":6382:6424   */\n      mstore\n        /* \"#utility.yul\":6233:6237   */\n      0x00\n        /* \"#utility.yul\":6483:6485   */\n      0x1f\n        /* \"#utility.yul\":6479:6486   */\n      not\n        /* \"#utility.yul\":6474:6476   */\n      0x1f\n        /* \"#utility.yul\":6466:6472   */\n      dup6\n        /* \"#utility.yul\":6462:6477   */\n      add\n        /* \"#utility.yul\":6458:6487   */\n      and\n        /* \"#utility.yul\":6447:6456   */\n      dup3\n        /* \"#utility.yul\":6443:6488   */\n      add\n        /* \"#utility.yul\":6516:6518   */\n      0x60\n        /* \"#utility.yul\":6512:6514   */\n      dup2\n        /* \"#utility.yul\":6508:6519   */\n      add\n        /* \"#utility.yul\":6581:6583   */\n      0x60\n        /* \"#utility.yul\":6569:6578   */\n      dup5\n        /* \"#utility.yul\":6565:6567   */\n      dup4\n        /* \"#utility.yul\":6561:6579   */\n      sub\n        /* \"#utility.yul\":6557:6584   */\n      add\n        /* \"#utility.yul\":6550:6554   */\n      0x20\n        /* \"#utility.yul\":6539:6548   */\n      dup6\n        /* \"#utility.yul\":6535:6555   */\n      add\n        /* \"#utility.yul\":6528:6585   */\n      mstore\n        /* \"#utility.yul\":6605:6608   */\n      dup1\n        /* \"#utility.yul\":6637:6643   */\n      dup6\n        /* \"#utility.yul\":6631:6644   */\n      mload\n        /* \"#utility.yul\":6665:6671   */\n      dup1\n        /* \"#utility.yul\":6660:6663   */\n      dup4\n        /* \"#utility.yul\":6653:6672   */\n      mstore\n        /* \"#utility.yul\":6696:6699   */\n      0x80\n        /* \"#utility.yul\":6692:6694   */\n      dup5\n        /* \"#utility.yul\":6688:6700   */\n      add\n        /* \"#utility.yul\":6681:6700   */\n      swap2\n      pop\n        /* \"#utility.yul\":6735:6739   */\n      0x20\n        /* \"#utility.yul\":6727:6733   */\n      dup8\n        /* \"#utility.yul\":6723:6740   */\n      add\n        /* \"#utility.yul\":6709:6740   */\n      swap4\n      pop\n        /* \"#utility.yul\":6758:6759   */\n      0x00\n        /* \"#utility.yul\":6749:6759   */\n      swap3\n      pop\n        /* \"#utility.yul\":6768:6941   */\n    tag_397:\n        /* \"#utility.yul\":6782:6788   */\n      dup1\n        /* \"#utility.yul\":6779:6780   */\n      dup4\n        /* \"#utility.yul\":6776:6789   */\n      lt\n        /* \"#utility.yul\":6768:6941   */\n      iszero\n      tag_399\n      jumpi\n        /* \"#utility.yul\":6849:6855   */\n      dup4\n        /* \"#utility.yul\":6843:6856   */\n      mload\n        /* \"#utility.yul\":6838:6841   */\n      dup3\n        /* \"#utility.yul\":6831:6857   */\n      mstore\n        /* \"#utility.yul\":6886:6890   */\n      0x20\n        /* \"#utility.yul\":6881:6884   */\n      dup3\n        /* \"#utility.yul\":6877:6891   */\n      add\n        /* \"#utility.yul\":6870:6891   */\n      swap2\n      pop\n        /* \"#utility.yul\":6926:6930   */\n      0x20\n        /* \"#utility.yul\":6918:6924   */\n      dup5\n        /* \"#utility.yul\":6914:6931   */\n      add\n        /* \"#utility.yul\":6904:6931   */\n      swap4\n      pop\n        /* \"#utility.yul\":6804:6805   */\n      0x01\n        /* \"#utility.yul\":6801:6802   */\n      dup4\n        /* \"#utility.yul\":6797:6806   */\n      add\n        /* \"#utility.yul\":6792:6806   */\n      swap3\n      pop\n        /* \"#utility.yul\":6768:6941   */\n      jump(tag_397)\n    tag_399:\n      pop\n        /* \"#utility.yul\":6958:6961   */\n      swap8\n        /* \"#utility.yul\":6035:6967   */\n      swap7\n      pop\n      pop\n      pop\n      pop\n      pop\n      pop\n      pop\n      jump\t// out\n        /* \"#utility.yul\":6972:7249   */\n    tag_260:\n        /* \"#utility.yul\":7039:7045   */\n      0x00\n        /* \"#utility.yul\":7092:7094   */\n      0x20\n        /* \"#utility.yul\":7080:7089   */\n      dup3\n        /* \"#utility.yul\":7071:7078   */\n      dup5\n        /* \"#utility.yul\":7067:7090   */\n      sub\n        /* \"#utility.yul\":7063:7095   */\n      slt\n        /* \"#utility.yul\":7060:7112   */\n      iszero\n      tag_401\n      jumpi\n        /* \"#utility.yul\":7108:7109   */\n      0x00\n        /* \"#utility.yul\":7105:7106   */\n      0x00\n        /* \"#utility.yul\":7098:7110   */\n      revert\n        /* \"#utility.yul\":7060:7112   */\n    tag_401:\n        /* \"#utility.yul\":7140:7149   */\n      dup2\n        /* \"#utility.yul\":7134:7150   */\n      mload\n        /* \"#utility.yul\":7193:7198   */\n      dup1\n        /* \"#utility.yul\":7186:7199   */\n      iszero\n        /* \"#utility.yul\":7179:7200   */\n      iszero\n        /* \"#utility.yul\":7172:7177   */\n      dup2\n        /* \"#utility.yul\":7169:7201   */\n      eq\n        /* \"#utility.yul\":7159:7219   */\n      tag_369\n      jumpi\n        /* \"#utility.yul\":7215:7216   */\n      0x00\n        /* \"#utility.yul\":7212:7213   */\n      0x00\n        /* \"#utility.yul\":7205:7217   */\n      revert\n        /* \"#utility.yul\":8017:8144   */\n    tag_361:\n        /* \"#utility.yul\":8078:8088   */\n      0x4e487b71\n        /* \"#utility.yul\":8073:8076   */\n      0xe0\n        /* \"#utility.yul\":8069:8089   */\n      shl\n        /* \"#utility.yul\":8066:8067   */\n      0x00\n        /* \"#utility.yul\":8059:8090   */\n      mstore\n        /* \"#utility.yul\":8109:8113   */\n      0x11\n        /* \"#utility.yul\":8106:8107   */\n      0x04\n        /* \"#utility.yul\":8099:8114   */\n      mstore\n        /* \"#utility.yul\":8133:8137   */\n      0x24\n        /* \"#utility.yul\":8130:8131   */\n      0x00\n        /* \"#utility.yul\":8123:8138   */\n      revert\n        /* \"#utility.yul\":8149:8274   */\n    tag_278:\n        /* \"#utility.yul\":8214:8223   */\n      dup1\n      dup3\n      add\n        /* \"#utility.yul\":8235:8245   */\n      dup1\n      dup3\n      gt\n        /* \"#utility.yul\":8232:8268   */\n      iszero\n      tag_408\n      jumpi\n        /* \"#utility.yul\":8248:8266   */\n      tag_408\n      tag_361\n      jump\t// in\n    tag_408:\n        /* \"#utility.yul\":8149:8274   */\n      swap3\n      swap2\n      pop\n      pop\n      jump\t// out\n        /* \"#utility.yul\":8279:8467   */\n    tag_282:\n        /* \"#utility.yul\":8317:8320   */\n      0x00\n        /* \"#utility.yul\":8361:8371   */\n      0xffffffff\n        /* \"#utility.yul\":8354:8359   */\n      dup3\n        /* \"#utility.yul\":8350:8372   */\n      and\n        /* \"#utility.yul\":8396:8406   */\n      0xffffffff\n        /* \"#utility.yul\":8387:8394   */\n      dup2\n        /* \"#utility.yul\":8384:8407   */\n      sub\n        /* \"#utility.yul\":8381:8430   */\n      tag_411\n      jumpi\n        /* \"#utility.yul\":8410:8428   */\n      tag_411\n      tag_361\n      jump\t// in\n    tag_411:\n        /* \"#utility.yul\":8459:8460   */\n      0x01\n        /* \"#utility.yul\":8446:8461   */\n      add\n      swap3\n        /* \"#utility.yul\":8279:8467   */\n      swap2\n      pop\n      pop\n      jump\t// out\n        /* \"#utility.yul\":8472:8943   */\n    tag_294:\n        /* \"#utility.yul\":8652:8654   */\n      0x40\n        /* \"#utility.yul\":8637:8655   */\n      dup2\n      add\n        /* \"#utility.yul\":8641:8650   */\n      dup2\n        /* \"#utility.yul\":8732:8738   */\n      dup4\n        /* \"#utility.yul\":8610:8614   */\n      0x00\n        /* \"#utility.yul\":8766:8937   */\n    tag_413:\n        /* \"#utility.yul\":8780:8784   */\n      0x02\n        /* \"#utility.yul\":8777:8778   */\n      dup2\n        /* \"#utility.yul\":8774:8785   */\n      lt\n        /* \"#utility.yul\":8766:8937   */\n      iszero\n      tag_415\n      jumpi\n        /* \"#utility.yul\":8839:8852   */\n      dup2\n      mload\n        /* \"#utility.yul\":8827:8853   */\n      dup4\n      mstore\n        /* \"#utility.yul\":8882:8886   */\n      0x20\n        /* \"#utility.yul\":8873:8887   */\n      swap3\n      dup4\n      add\n      swap3\n        /* \"#utility.yul\":8910:8927   */\n      swap1\n      swap2\n      add\n      swap1\n        /* \"#utility.yul\":8800:8801   */\n      0x01\n        /* \"#utility.yul\":8793:8802   */\n      add\n        /* \"#utility.yul\":8766:8937   */\n      jump(tag_413)\n    tag_415:\n        /* \"#utility.yul\":8770:8773   */\n      pop\n      pop\n      pop\n        /* \"#utility.yul\":8472:8943   */\n      swap3\n      swap2\n      pop\n      pop\n      jump\t// out\n        /* \"#utility.yul\":8948:9132   */\n    tag_298:\n        /* \"#utility.yul\":9018:9024   */\n      0x00\n        /* \"#utility.yul\":9071:9073   */\n      0x20\n        /* \"#utility.yul\":9059:9068   */\n      dup3\n        /* \"#utility.yul\":9050:9057   */\n      dup5\n        /* \"#utility.yul\":9046:9069   */\n      sub\n        /* \"#utility.yul\":9042:9074   */\n      slt\n        /* \"#utility.yul\":9039:9091   */\n      iszero\n      tag_417\n      jumpi\n        /* \"#utility.yul\":9087:9088   */\n      0x00\n        /* \"#utility.yul\":9084:9085   */\n      0x00\n        /* \"#utility.yul\":9077:9089   */\n      revert\n        /* \"#utility.yul\":9039:9091   */\n    tag_417:\n      pop\n        /* \"#utility.yul\":9110:9126   */\n      mload\n      swap2\n        /* \"#utility.yul\":8948:9132   */\n      swap1\n      pop\n      jump\t// out\n        /* \"#utility.yul\":9137:9307   */\n    tag_309:\n        /* \"#utility.yul\":9234:9244   */\n      0xffffffff\n        /* \"#utility.yul\":9227:9245   */\n      dup3\n      dup2\n      and\n        /* \"#utility.yul\":9207:9225   */\n      dup3\n      dup3\n      and\n        /* \"#utility.yul\":9203:9246   */\n      sub\n      swap1\n        /* \"#utility.yul\":9258:9278   */\n      dup2\n      gt\n        /* \"#utility.yul\":9255:9301   */\n      iszero\n      tag_408\n      jumpi\n        /* \"#utility.yul\":9281:9299   */\n      tag_408\n      tag_361\n      jump\t// in\n\n    auxdata: 0xa264697066735822122097345c7ee9cde15329d112120b9e0f21addb544d515da91ed60f7611d96bdb8a64736f6c634300081f0033\n}\n",
				"bytecode": {
					"linkReferences": {},
					"object": "60c06040525f600255348015610013575f5ffd5b50604051611823380380611823833981016040819052610032916102c5565b5f805460ff19169055338061006057604051631e4fbdf760e01b81525f600482015260240160405180910390fd5b61006981610252565b50600180556001600160a01b03808316608052811660a08190526040805180820182525f8082526020820181905291516314d2f97b60e11b81529192916329a5f2f6916100b8916004016102f6565b602060405180830381865afa1580156100d3573d5f5f3e3d5ffd5b505050506040513d601f19601f820116820180604052508101906100f79190610326565b6003819055905060015b601463ffffffff821610156101b55760a0516040805180820182528481526020810185905290516314d2f97b60e11b81526001600160a01b03909216916329a5f2f691610150916004016102f6565b602060405180830381865afa15801561016b573d5f5f3e3d5ffd5b505050506040513d601f19601f8201168201806040525081019061018f9190610326565b915081600363ffffffff8316601481106101ab576101ab61033d565b0155600101610101565b505f5b601463ffffffff821610156102055760038163ffffffff16601481106101e0576101e061033d565b015460178263ffffffff16601481106101fb576101fb61033d565b01556001016101b8565b50600361021460016014610351565b63ffffffff166014811061022a5761022a61033d565b0154602b8190555f908152602e60205260409020805460ff191660011790555061037f915050565b5f80546001600160a01b03838116610100818102610100600160a81b0319851617855560405193049190911692909183917f8be0079c531659141344cd1fd0a4f28419497f9722a3daafe3b4186f6b6457e091a35050565b80516001600160a01b03811681146102c0575f5ffd5b919050565b5f5f604083850312156102d6575f5ffd5b6102df836102aa565b91506102ed602084016102aa565b90509250929050565b6040810181835f5b600281101561031d5781518352602092830192909101906001016102fe565b50505092915050565b5f60208284031215610336575f5ffd5b5051919050565b634e487b7160e01b5f52603260045260245ffd5b63ffffffff828116828216039081111561037957634e487b7160e01b5f52601160045260245ffd5b92915050565b60805160a05161146e6103b55f395f818161045301528181610d1b0152610ddf01525f81816102bb0152610a24015261146e5ff3fe6080604052600436106101ba575f3560e01c80638b01429d116100f2578063e829558811610092578063f9f92be411610062578063f9f92be414610514578063fc7e9c6f14610533578063fdab463d1461054f578063fe575a8714610564575f5ffd5b8063e8295588146104a3578063f1650536146104c2578063f178e47c146104d6578063f2fde38b146104f5575f5ffd5b8063b130eaa6116100cd578063b130eaa614610410578063b214faa51461042f578063c62b919e14610442578063e5285dcc14610475575f5ffd5b80638b01429d1461039d5780638da5cb5b146103b857806390683e8c146103d9575f5ffd5b80633f4ba83a1161015d5780635c975abb116101385780635c975abb1461034b578063715018a6146103615780637be441d1146103755780638456cb5914610389575f5ffd5b80633f4ba83a146102f557806340f6ac31146103095780634e73da7d1461031d575f5ffd5b806314a0394e1161019857806314a0394e1461022c578063164e68de1461024d57806317cc915c1461026c5780632b7ac3f3146102aa575f5ffd5b8063082febf0146101be5780630b4501fd146101ee57806313114a9d14610217575b5f5ffd5b3480156101c9575f5ffd5b506101d46210000081565b60405163ffffffff90911681526020015b60405180910390f35b3480156101f9575f5ffd5b5061020967016345785d8a000081565b6040519081526020016101e5565b348015610222575f5ffd5b5061020960025481565b348015610237575f5ffd5b5061024b61024636600461120e565b610592565b005b348015610258575f5ffd5b5061024b61026736600461120e565b6105f1565b348015610277575f5ffd5b5061029a610286366004611230565b602d6020525f908152604090205460ff1681565b60405190151581526020016101e5565b3480156102b5575f5ffd5b506102dd7f000000000000000000000000000000000000000000000000000000000000000081565b6040516001600160a01b0390911681526020016101e5565b348015610300575f5ffd5b5061024b610780565b348015610314575f5ffd5b5061024b610792565b348015610328575f5ffd5b5061029a610337366004611230565b602e6020525f908152604090205460ff1681565b348015610356575f5ffd5b505f5460ff1661029a565b34801561036c575f5ffd5b5061024b6108c2565b348015610380575f5ffd5b50600254610209565b348015610394575f5ffd5b5061024b6108d3565b3480156103a8575f5ffd5b50610209670de0b6b3a764000081565b3480156103c3575f5ffd5b505f5461010090046001600160a01b03166102dd565b3480156103e4575f5ffd5b5061029a6103f336600461120e565b6001600160a01b03165f908152602f602052604090205460ff1690565b34801561041b575f5ffd5b5061024b61042a366004611247565b6108e3565b61024b61043d366004611230565b610bbf565b34801561044d575f5ffd5b506102dd7f000000000000000000000000000000000000000000000000000000000000000081565b348015610480575f5ffd5b5061029a61048f366004611230565b5f908152602d602052604090205460ff1690565b3480156104ae575f5ffd5b506102096104bd366004611230565b610f43565b3480156104cd575f5ffd5b506101d4601481565b3480156104e1575f5ffd5b506102096104f0366004611230565b610f59565b348015610500575f5ffd5b5061024b61050f36600461120e565b610f68565b34801561051f575f5ffd5b5061024b61052e36600461120e565b610fa2565b34801561053e575f5ffd5b50602c546101d49063ffffffff1681565b34801561055a575f5ffd5b50610209602b5481565b34801561056f575f5ffd5b5061029a61057e36600461120e565b602f6020525f908152604090205460ff1681565b61059a610ffd565b6001600160a01b0381165f818152602f6020908152604091829020805460ff1916905590519182527f258edb8cc3ac42ac5670d060ab55b20f4d1a16137ceadae6212705aaedab5d1e91015b60405180910390a150565b6105f9610ffd565b61060161102f565b5f6002541161064d5760405162461bcd60e51b81526020600482015260136024820152726e6f206665657320746f20776974686472617760681b60448201526064015b60405180910390fd5b6001600160a01b0381166106965760405162461bcd60e51b815260206004820152601060248201526f696e76616c696420747265617375727960801b6044820152606401610644565b600280545f918290556040519091906001600160a01b0384169083908381818185875af1925050503d805f81146106e8576040519150601f19603f3d011682016040523d82523d5f602084013e6106ed565b606091505b50509050806107305760405162461bcd60e51b815260206004820152600f60248201526e1dda5d1a191c985dc819985a5b1959608a1b6044820152606401610644565b604080516001600160a01b0385168152602081018490527fee33a3a9cb48e4ff209f8b1c67c4632f1dbbf55aeff8e6f17d957ade7a6fb17c910160405180910390a1505061077d60018055565b50565b610788610ffd565b610790611088565b565b61079a610ffd565b6107a261102f565b6107aa6110d9565b5f600254116107ed5760405162461bcd60e51b815260206004820152600f60248201526e3737903332b2b9903a3790313ab93760891b6044820152606401610644565b600280545f9182905560405190919061dead9083908381818185875af1925050503d805f8114610838576040519150601f19603f3d011682016040523d82523d5f602084013e61083d565b606091505b505090508061087c5760405162461bcd60e51b815260206004820152600b60248201526a189d5c9b8819985a5b195960aa1b6044820152606401610644565b6040805161dead8152602081018490527f0d9575a73e2a7da16cfde907df749d23d901528ff2e7c832b731babdecca000b910160405180910390a1505061079060018055565b6108ca610ffd565b6107905f611121565b6108db610ffd565b610790611179565b6108eb6111b5565b6108f361102f565b6001600160a01b0381165f908152602f602052604090205460ff16156109525760405162461bcd60e51b81526020600482015260146024820152731c9958da5c1a595b9d081cd85b98dd1a5bdb995960621b6044820152606401610644565b5f828152602d602052604090205460ff161561098157604051636569570160e11b815260040160405180910390fd5b5f838152602e602052604090205460ff166109af57604051634629008b60e11b815260040160405180910390fd5b6040805160028082526060820183525f9260208301908036833701905050905083815f815181106109e2576109e26112d9565b6020026020010181815250508281600181518110610a0257610a026112d9565b6020908102919091010152604051633a94343960e21b81526001600160a01b037f0000000000000000000000000000000000000000000000000000000000000000169063ea50d0e490610a5d908990899086906004016112ed565b602060405180830381865afa158015610a78573d5f5f3e3d5ffd5b505050506040513d601f19601f82011682018060405250810190610a9c9190611365565b610ab9576040516309bde33960e01b815260040160405180910390fd5b5f838152602d6020526040808220805460ff19166001179055516001600160a01b03841690670de0b6b3a7640000908381818185875af1925050503d805f8114610b1e576040519150601f19603f3d011682016040523d82523d5f602084013e610b23565b606091505b5050905080610b6a5760405162461bcd60e51b8152602060048201526013602482015272135395081d1c985b9cd9995c8819985a5b1959606a1b6044820152606401610644565b826001600160a01b03167f0ce490531f6c8ae2f1ff174643bc8b7ed5e52987ab50dc1e8f33655d2cd8c90b85604051610ba591815260200190565b60405180910390a25050610bb860018055565b5050505050565b610bc76111b5565b335f908152602f602052604090205460ff1615610c3d5760405162461bcd60e51b815260206004820152602e60248201527f74686973206164647265737320697320626c61636b6c697374656420616e642060448201526d18d85b9b9bdd0819195c1bdcda5d60921b6064820152608401610644565b5f610c5867016345785d8a0000670de0b6b3a7640000611398565b9050803414610c7a57604051637833d9e360e11b815260040160405180910390fd5b602c546210000063ffffffff90911610610ca757604051633b5ccb4360e21b815260040160405180910390fd5b602c805463ffffffff169081905f610cbe836113b1565b825463ffffffff9182166101009390930a928302919092021990911617905550825f5b601463ffffffff82161015610eaf57600183165f03610ddd5781601763ffffffff831660148110610d1457610d146112d9565b01819055507f00000000000000000000000000000000000000000000000000000000000000006001600160a01b03166329a5f2f6604051806040016040528085815260200160038563ffffffff1660148110610d7257610d726112d9565b015490526040516001600160e01b031960e084901b168152610d9791906004016113d5565b602060405180830381865afa158015610db2573d5f5f3e3d5ffd5b505050506040513d601f19601f82011682018060405250810190610dd69190611405565b9150610e9d565b7f00000000000000000000000000000000000000000000000000000000000000006001600160a01b03166329a5f2f6604051806040016040528060178563ffffffff1660148110610e3057610e306112d9565b015481526020018590526040516001600160e01b031960e084901b168152610e5b91906004016113d5565b602060405180830381865afa158015610e76573d5f5f3e3d5ffd5b505050506040513d601f19601f82011682018060405250810190610e9a9190611405565b91505b637fffffff600193841c169201610ce1565b50602b8190555f818152602e60205260408120805460ff191660011790556002805467016345785d8a00009290610ee7908490611398565b9091555050602c5484907f84fc9eb8cd0a782a1d1734fbeed616bd0ef775f8b9bd437636b62d634fe4baf390610f259060019063ffffffff1661141c565b60405163ffffffff909116815260200160405180910390a250505050565b60038160148110610f52575f80fd5b0154905081565b60178160148110610f52575f80fd5b610f70610ffd565b6001600160a01b038116610f9957604051631e4fbdf760e01b81525f6004820152602401610644565b61077d81611121565b610faa610ffd565b6001600160a01b0381165f818152602f6020908152604091829020805460ff1916600117905590519182527fffa4e6181777692565cf28528fc88fd1516ea86b56da075235fa575af6a4b85591016105e6565b5f546001600160a01b036101009091041633146107905760405163118cdaa760e01b8152336004820152602401610644565b6002600154036110815760405162461bcd60e51b815260206004820152601f60248201527f5265656e7472616e637947756172643a207265656e7472616e742063616c6c006044820152606401610644565b6002600155565b6110906110d9565b5f805460ff191690557f5db9ee0a495bf2e6ff9c91a7834c1ba4fdd244a5e8aa4e537bd38aeae4b073aa335b6040516001600160a01b03909116815260200160405180910390a1565b5f5460ff166107905760405162461bcd60e51b815260206004820152601460248201527314185d5cd8589b194e881b9bdd081c185d5cd95960621b6044820152606401610644565b5f80546001600160a01b03838116610100818102610100600160a81b0319851617855560405193049190911692909183917f8be0079c531659141344cd1fd0a4f28419497f9722a3daafe3b4186f6b6457e091a35050565b6111816111b5565b5f805460ff191660011790557f62e78cea01bee320cd4e420270b5ea74000d11b0c9f74754ebdbfc544b05a2586110bc3390565b5f5460ff16156107905760405162461bcd60e51b815260206004820152601060248201526f14185d5cd8589b194e881c185d5cd95960821b6044820152606401610644565b6001600160a01b038116811461077d575f5ffd5b5f6020828403121561121e575f5ffd5b8135611229816111fa565b9392505050565b5f60208284031215611240575f5ffd5b5035919050565b5f5f5f5f5f6080868803121561125b575f5ffd5b853567ffffffffffffffff811115611271575f5ffd5b8601601f81018813611281575f5ffd5b803567ffffffffffffffff811115611297575f5ffd5b8860208284010111156112a8575f5ffd5b60209182019650945086013592506040860135915060608601356112cb816111fa565b809150509295509295909350565b634e487b7160e01b5f52603260045260245ffd5b60408152826040820152828460608301375f606084830101525f601f19601f85011682016060810160608483030160208501528085518083526080840191506020870193505f92505b808310156113595783518252602082019150602084019350600183019250611336565b50979650505050505050565b5f60208284031215611375575f5ffd5b81518015158114611229575f5ffd5b634e487b7160e01b5f52601160045260245ffd5b808201808211156113ab576113ab611384565b92915050565b5f63ffffffff821663ffffffff81036113cc576113cc611384565b60010192915050565b6040810181835f5b60028110156113fc5781518352602092830192909101906001016113dd565b50505092915050565b5f60208284031215611415575f5ffd5b5051919050565b63ffffffff82811682821603908111156113ab576113ab61138456fea264697066735822122097345c7ee9cde15329d112120b9e0f21addb544d515da91ed60f7611d96bdb8a64736f6c634300081f0033",
					"opcodes": "PUSH1 0xC0 PUSH1 0x40 MSTORE PUSH0 PUSH1 0x2 SSTORE CALLVALUE DUP1 ISZERO PUSH2 0x13 JUMPI PUSH0 PUSH0 REVERT JUMPDEST POP PUSH1 0x40 MLOAD PUSH2 0x1823 CODESIZE SUB DUP1 PUSH2 0x1823 DUP4 CODECOPY DUP2 ADD PUSH1 0x40 DUP2 SWAP1 MSTORE PUSH2 0x32 SWAP2 PUSH2 0x2C5 JUMP JUMPDEST PUSH0 DUP1 SLOAD PUSH1 0xFF NOT AND SWAP1 SSTORE CALLER DUP1 PUSH2 0x60 JUMPI PUSH1 0x40 MLOAD PUSH4 0x1E4FBDF7 PUSH1 0xE0 SHL DUP2 MSTORE PUSH0 PUSH1 0x4 DUP3 ADD MSTORE PUSH1 0x24 ADD PUSH1 0x40 MLOAD DUP1 SWAP2 SUB SWAP1 REVERT JUMPDEST PUSH2 0x69 DUP2 PUSH2 0x252 JUMP JUMPDEST POP PUSH1 0x1 DUP1 SSTORE PUSH1 0x1 PUSH1 0x1 PUSH1 0xA0 SHL SUB DUP1 DUP4 AND PUSH1 0x80 MSTORE DUP2 AND PUSH1 0xA0 DUP2 SWAP1 MSTORE PUSH1 0x40 DUP1 MLOAD DUP1 DUP3 ADD DUP3 MSTORE PUSH0 DUP1 DUP3 MSTORE PUSH1 0x20 DUP3 ADD DUP2 SWAP1 MSTORE SWAP2 MLOAD PUSH4 0x14D2F97B PUSH1 0xE1 SHL DUP2 MSTORE SWAP2 SWAP3 SWAP2 PUSH4 0x29A5F2F6 SWAP2 PUSH2 0xB8 SWAP2 PUSH1 0x4 ADD PUSH2 0x2F6 JUMP JUMPDEST PUSH1 0x20 PUSH1 0x40 MLOAD DUP1 DUP4 SUB DUP2 DUP7 GAS STATICCALL ISZERO DUP1 ISZERO PUSH2 0xD3 JUMPI RETURNDATASIZE PUSH0 PUSH0 RETURNDATACOPY RETURNDATASIZE PUSH0 REVERT JUMPDEST POP POP POP POP PUSH1 0x40 MLOAD RETURNDATASIZE PUSH1 0x1F NOT PUSH1 0x1F DUP3 ADD AND DUP3 ADD DUP1 PUSH1 0x40 MSTORE POP DUP2 ADD SWAP1 PUSH2 0xF7 SWAP2 SWAP1 PUSH2 0x326 JUMP JUMPDEST PUSH1 0x3 DUP2 SWAP1 SSTORE SWAP1 POP PUSH1 0x1 JUMPDEST PUSH1 0x14 PUSH4 0xFFFFFFFF DUP3 AND LT ISZERO PUSH2 0x1B5 JUMPI PUSH1 0xA0 MLOAD PUSH1 0x40 DUP1 MLOAD DUP1 DUP3 ADD DUP3 MSTORE DUP5 DUP2 MSTORE PUSH1 0x20 DUP2 ADD DUP6 SWAP1 MSTORE SWAP1 MLOAD PUSH4 0x14D2F97B PUSH1 0xE1 SHL DUP2 MSTORE PUSH1 0x1 PUSH1 0x1 PUSH1 0xA0 SHL SUB SWAP1 SWAP3 AND SWAP2 PUSH4 0x29A5F2F6 SWAP2 PUSH2 0x150 SWAP2 PUSH1 0x4 ADD PUSH2 0x2F6 JUMP JUMPDEST PUSH1 0x20 PUSH1 0x40 MLOAD DUP1 DUP4 SUB DUP2 DUP7 GAS STATICCALL ISZERO DUP1 ISZERO PUSH2 0x16B JUMPI RETURNDATASIZE PUSH0 PUSH0 RETURNDATACOPY RETURNDATASIZE PUSH0 REVERT JUMPDEST POP POP POP POP PUSH1 0x40 MLOAD RETURNDATASIZE PUSH1 0x1F NOT PUSH1 0x1F DUP3 ADD AND DUP3 ADD DUP1 PUSH1 0x40 MSTORE POP DUP2 ADD SWAP1 PUSH2 0x18F SWAP2 SWAP1 PUSH2 0x326 JUMP JUMPDEST SWAP2 POP DUP2 PUSH1 0x3 PUSH4 0xFFFFFFFF DUP4 AND PUSH1 0x14 DUP2 LT PUSH2 0x1AB JUMPI PUSH2 0x1AB PUSH2 0x33D JUMP JUMPDEST ADD SSTORE PUSH1 0x1 ADD PUSH2 0x101 JUMP JUMPDEST POP PUSH0 JUMPDEST PUSH1 0x14 PUSH4 0xFFFFFFFF DUP3 AND LT ISZERO PUSH2 0x205 JUMPI PUSH1 0x3 DUP2 PUSH4 0xFFFFFFFF AND PUSH1 0x14 DUP2 LT PUSH2 0x1E0 JUMPI PUSH2 0x1E0 PUSH2 0x33D JUMP JUMPDEST ADD SLOAD PUSH1 0x17 DUP3 PUSH4 0xFFFFFFFF AND PUSH1 0x14 DUP2 LT PUSH2 0x1FB JUMPI PUSH2 0x1FB PUSH2 0x33D JUMP JUMPDEST ADD SSTORE PUSH1 0x1 ADD PUSH2 0x1B8 JUMP JUMPDEST POP PUSH1 0x3 PUSH2 0x214 PUSH1 0x1 PUSH1 0x14 PUSH2 0x351 JUMP JUMPDEST PUSH4 0xFFFFFFFF AND PUSH1 0x14 DUP2 LT PUSH2 0x22A JUMPI PUSH2 0x22A PUSH2 0x33D JUMP JUMPDEST ADD SLOAD PUSH1 0x2B DUP2 SWAP1 SSTORE PUSH0 SWAP1 DUP2 MSTORE PUSH1 0x2E PUSH1 0x20 MSTORE PUSH1 0x40 SWAP1 KECCAK256 DUP1 SLOAD PUSH1 0xFF NOT AND PUSH1 0x1 OR SWAP1 SSTORE POP PUSH2 0x37F SWAP2 POP POP JUMP JUMPDEST PUSH0 DUP1 SLOAD PUSH1 0x1 PUSH1 0x1 PUSH1 0xA0 SHL SUB DUP4 DUP2 AND PUSH2 0x100 DUP2 DUP2 MUL PUSH2 0x100 PUSH1 0x1 PUSH1 0xA8 SHL SUB NOT DUP6 AND OR DUP6 SSTORE PUSH1 0x40 MLOAD SWAP4 DIV SWAP2 SWAP1 SWAP2 AND SWAP3 SWAP1 SWAP2 DUP4 SWAP2 PUSH32 0x8BE0079C531659141344CD1FD0A4F28419497F9722A3DAAFE3B4186F6B6457E0 SWAP2 LOG3 POP POP JUMP JUMPDEST DUP1 MLOAD PUSH1 0x1 PUSH1 0x1 PUSH1 0xA0 SHL SUB DUP2 AND DUP2 EQ PUSH2 0x2C0 JUMPI PUSH0 PUSH0 REVERT JUMPDEST SWAP2 SWAP1 POP JUMP JUMPDEST PUSH0 PUSH0 PUSH1 0x40 DUP4 DUP6 SUB SLT ISZERO PUSH2 0x2D6 JUMPI PUSH0 PUSH0 REVERT JUMPDEST PUSH2 0x2DF DUP4 PUSH2 0x2AA JUMP JUMPDEST SWAP2 POP PUSH2 0x2ED PUSH1 0x20 DUP5 ADD PUSH2 0x2AA JUMP JUMPDEST SWAP1 POP SWAP3 POP SWAP3 SWAP1 POP JUMP JUMPDEST PUSH1 0x40 DUP2 ADD DUP2 DUP4 PUSH0 JUMPDEST PUSH1 0x2 DUP2 LT ISZERO PUSH2 0x31D JUMPI DUP2 MLOAD DUP4 MSTORE PUSH1 0x20 SWAP3 DUP4 ADD SWAP3 SWAP1 SWAP2 ADD SWAP1 PUSH1 0x1 ADD PUSH2 0x2FE JUMP JUMPDEST POP POP POP SWAP3 SWAP2 POP POP JUMP JUMPDEST PUSH0 PUSH1 0x20 DUP3 DUP5 SUB SLT ISZERO PUSH2 0x336 JUMPI PUSH0 PUSH0 REVERT JUMPDEST POP MLOAD SWAP2 SWAP1 POP JUMP JUMPDEST PUSH4 0x4E487B71 PUSH1 0xE0 SHL PUSH0 MSTORE PUSH1 0x32 PUSH1 0x4 MSTORE PUSH1 0x24 PUSH0 REVERT JUMPDEST PUSH4 0xFFFFFFFF DUP3 DUP2 AND DUP3 DUP3 AND SUB SWAP1 DUP2 GT ISZERO PUSH2 0x379 JUMPI PUSH4 0x4E487B71 PUSH1 0xE0 SHL PUSH0 MSTORE PUSH1 0x11 PUSH1 0x4 MSTORE PUSH1 0x24 PUSH0 REVERT JUMPDEST SWAP3 SWAP2 POP POP JUMP JUMPDEST PUSH1 0x80 MLOAD PUSH1 0xA0 MLOAD PUSH2 0x146E PUSH2 0x3B5 PUSH0 CODECOPY PUSH0 DUP2 DUP2 PUSH2 0x453 ADD MSTORE DUP2 DUP2 PUSH2 0xD1B ADD MSTORE PUSH2 0xDDF ADD MSTORE PUSH0 DUP2 DUP2 PUSH2 0x2BB ADD MSTORE PUSH2 0xA24 ADD MSTORE PUSH2 0x146E PUSH0 RETURN INVALID PUSH1 0x80 PUSH1 0x40 MSTORE PUSH1 0x4 CALLDATASIZE LT PUSH2 0x1BA JUMPI PUSH0 CALLDATALOAD PUSH1 0xE0 SHR DUP1 PUSH4 0x8B01429D GT PUSH2 0xF2 JUMPI DUP1 PUSH4 0xE8295588 GT PUSH2 0x92 JUMPI DUP1 PUSH4 0xF9F92BE4 GT PUSH2 0x62 JUMPI DUP1 PUSH4 0xF9F92BE4 EQ PUSH2 0x514 JUMPI DUP1 PUSH4 0xFC7E9C6F EQ PUSH2 0x533 JUMPI DUP1 PUSH4 0xFDAB463D EQ PUSH2 0x54F JUMPI DUP1 PUSH4 0xFE575A87 EQ PUSH2 0x564 JUMPI PUSH0 PUSH0 REVERT JUMPDEST DUP1 PUSH4 0xE8295588 EQ PUSH2 0x4A3 JUMPI DUP1 PUSH4 0xF1650536 EQ PUSH2 0x4C2 JUMPI DUP1 PUSH4 0xF178E47C EQ PUSH2 0x4D6 JUMPI DUP1 PUSH4 0xF2FDE38B EQ PUSH2 0x4F5 JUMPI PUSH0 PUSH0 REVERT JUMPDEST DUP1 PUSH4 0xB130EAA6 GT PUSH2 0xCD JUMPI DUP1 PUSH4 0xB130EAA6 EQ PUSH2 0x410 JUMPI DUP1 PUSH4 0xB214FAA5 EQ PUSH2 0x42F JUMPI DUP1 PUSH4 0xC62B919E EQ PUSH2 0x442 JUMPI DUP1 PUSH4 0xE5285DCC EQ PUSH2 0x475 JUMPI PUSH0 PUSH0 REVERT JUMPDEST DUP1 PUSH4 0x8B01429D EQ PUSH2 0x39D JUMPI DUP1 PUSH4 0x8DA5CB5B EQ PUSH2 0x3B8 JUMPI DUP1 PUSH4 0x90683E8C EQ PUSH2 0x3D9 JUMPI PUSH0 PUSH0 REVERT JUMPDEST DUP1 PUSH4 0x3F4BA83A GT PUSH2 0x15D JUMPI DUP1 PUSH4 0x5C975ABB GT PUSH2 0x138 JUMPI DUP1 PUSH4 0x5C975ABB EQ PUSH2 0x34B JUMPI DUP1 PUSH4 0x715018A6 EQ PUSH2 0x361 JUMPI DUP1 PUSH4 0x7BE441D1 EQ PUSH2 0x375 JUMPI DUP1 PUSH4 0x8456CB59 EQ PUSH2 0x389 JUMPI PUSH0 PUSH0 REVERT JUMPDEST DUP1 PUSH4 0x3F4BA83A EQ PUSH2 0x2F5 JUMPI DUP1 PUSH4 0x40F6AC31 EQ PUSH2 0x309 JUMPI DUP1 PUSH4 0x4E73DA7D EQ PUSH2 0x31D JUMPI PUSH0 PUSH0 REVERT JUMPDEST DUP1 PUSH4 0x14A0394E GT PUSH2 0x198 JUMPI DUP1 PUSH4 0x14A0394E EQ PUSH2 0x22C JUMPI DUP1 PUSH4 0x164E68DE EQ PUSH2 0x24D JUMPI DUP1 PUSH4 0x17CC915C EQ PUSH2 0x26C JUMPI DUP1 PUSH4 0x2B7AC3F3 EQ PUSH2 0x2AA JUMPI PUSH0 PUSH0 REVERT JUMPDEST DUP1 PUSH4 0x82FEBF0 EQ PUSH2 0x1BE JUMPI DUP1 PUSH4 0xB4501FD EQ PUSH2 0x1EE JUMPI DUP1 PUSH4 0x13114A9D EQ PUSH2 0x217 JUMPI JUMPDEST PUSH0 PUSH0 REVERT JUMPDEST CALLVALUE DUP1 ISZERO PUSH2 0x1C9 JUMPI PUSH0 PUSH0 REVERT JUMPDEST POP PUSH2 0x1D4 PUSH3 0x100000 DUP2 JUMP JUMPDEST PUSH1 0x40 MLOAD PUSH4 0xFFFFFFFF SWAP1 SWAP2 AND DUP2 MSTORE PUSH1 0x20 ADD JUMPDEST PUSH1 0x40 MLOAD DUP1 SWAP2 SUB SWAP1 RETURN JUMPDEST CALLVALUE DUP1 ISZERO PUSH2 0x1F9 JUMPI PUSH0 PUSH0 REVERT JUMPDEST POP PUSH2 0x209 PUSH8 0x16345785D8A0000 DUP2 JUMP JUMPDEST PUSH1 0x40 MLOAD SWAP1 DUP2 MSTORE PUSH1 0x20 ADD PUSH2 0x1E5 JUMP JUMPDEST CALLVALUE DUP1 ISZERO PUSH2 0x222 JUMPI PUSH0 PUSH0 REVERT JUMPDEST POP PUSH2 0x209 PUSH1 0x2 SLOAD DUP2 JUMP JUMPDEST CALLVALUE DUP1 ISZERO PUSH2 0x237 JUMPI PUSH0 PUSH0 REVERT JUMPDEST POP PUSH2 0x24B PUSH2 0x246 CALLDATASIZE PUSH1 0x4 PUSH2 0x120E JUMP JUMPDEST PUSH2 0x592 JUMP JUMPDEST STOP JUMPDEST CALLVALUE DUP1 ISZERO PUSH2 0x258 JUMPI PUSH0 PUSH0 REVERT JUMPDEST POP PUSH2 0x24B PUSH2 0x267 CALLDATASIZE PUSH1 0x4 PUSH2 0x120E JUMP JUMPDEST PUSH2 0x5F1 JUMP JUMPDEST CALLVALUE DUP1 ISZERO PUSH2 0x277 JUMPI PUSH0 PUSH0 REVERT JUMPDEST POP PUSH2 0x29A PUSH2 0x286 CALLDATASIZE PUSH1 0x4 PUSH2 0x1230 JUMP JUMPDEST PUSH1 0x2D PUSH1 0x20 MSTORE PUSH0 SWAP1 DUP2 MSTORE PUSH1 0x40 SWAP1 KECCAK256 SLOAD PUSH1 0xFF AND DUP2 JUMP JUMPDEST PUSH1 0x40 MLOAD SWAP1 ISZERO ISZERO DUP2 MSTORE PUSH1 0x20 ADD PUSH2 0x1E5 JUMP JUMPDEST CALLVALUE DUP1 ISZERO PUSH2 0x2B5 JUMPI PUSH0 PUSH0 REVERT JUMPDEST POP PUSH2 0x2DD PUSH32 0x0 DUP2 JUMP JUMPDEST PUSH1 0x40 MLOAD PUSH1 0x1 PUSH1 0x1 PUSH1 0xA0 SHL SUB SWAP1 SWAP2 AND DUP2 MSTORE PUSH1 0x20 ADD PUSH2 0x1E5 JUMP JUMPDEST CALLVALUE DUP1 ISZERO PUSH2 0x300 JUMPI PUSH0 PUSH0 REVERT JUMPDEST POP PUSH2 0x24B PUSH2 0x780 JUMP JUMPDEST CALLVALUE DUP1 ISZERO PUSH2 0x314 JUMPI PUSH0 PUSH0 REVERT JUMPDEST POP PUSH2 0x24B PUSH2 0x792 JUMP JUMPDEST CALLVALUE DUP1 ISZERO PUSH2 0x328 JUMPI PUSH0 PUSH0 REVERT JUMPDEST POP PUSH2 0x29A PUSH2 0x337 CALLDATASIZE PUSH1 0x4 PUSH2 0x1230 JUMP JUMPDEST PUSH1 0x2E PUSH1 0x20 MSTORE PUSH0 SWAP1 DUP2 MSTORE PUSH1 0x40 SWAP1 KECCAK256 SLOAD PUSH1 0xFF AND DUP2 JUMP JUMPDEST CALLVALUE DUP1 ISZERO PUSH2 0x356 JUMPI PUSH0 PUSH0 REVERT JUMPDEST POP PUSH0 SLOAD PUSH1 0xFF AND PUSH2 0x29A JUMP JUMPDEST CALLVALUE DUP1 ISZERO PUSH2 0x36C JUMPI PUSH0 PUSH0 REVERT JUMPDEST POP PUSH2 0x24B PUSH2 0x8C2 JUMP JUMPDEST CALLVALUE DUP1 ISZERO PUSH2 0x380 JUMPI PUSH0 PUSH0 REVERT JUMPDEST POP PUSH1 0x2 SLOAD PUSH2 0x209 JUMP JUMPDEST CALLVALUE DUP1 ISZERO PUSH2 0x394 JUMPI PUSH0 PUSH0 REVERT JUMPDEST POP PUSH2 0x24B PUSH2 0x8D3 JUMP JUMPDEST CALLVALUE DUP1 ISZERO PUSH2 0x3A8 JUMPI PUSH0 PUSH0 REVERT JUMPDEST POP PUSH2 0x209 PUSH8 0xDE0B6B3A7640000 DUP2 JUMP JUMPDEST CALLVALUE DUP1 ISZERO PUSH2 0x3C3 JUMPI PUSH0 PUSH0 REVERT JUMPDEST POP PUSH0 SLOAD PUSH2 0x100 SWAP1 DIV PUSH1 0x1 PUSH1 0x1 PUSH1 0xA0 SHL SUB AND PUSH2 0x2DD JUMP JUMPDEST CALLVALUE DUP1 ISZERO PUSH2 0x3E4 JUMPI PUSH0 PUSH0 REVERT JUMPDEST POP PUSH2 0x29A PUSH2 0x3F3 CALLDATASIZE PUSH1 0x4 PUSH2 0x120E JUMP JUMPDEST PUSH1 0x1 PUSH1 0x1 PUSH1 0xA0 SHL SUB AND PUSH0 SWAP1 DUP2 MSTORE PUSH1 0x2F PUSH1 0x20 MSTORE PUSH1 0x40 SWAP1 KECCAK256 SLOAD PUSH1 0xFF AND SWAP1 JUMP JUMPDEST CALLVALUE DUP1 ISZERO PUSH2 0x41B JUMPI PUSH0 PUSH0 REVERT JUMPDEST POP PUSH2 0x24B PUSH2 0x42A CALLDATASIZE PUSH1 0x4 PUSH2 0x1247 JUMP JUMPDEST PUSH2 0x8E3 JUMP JUMPDEST PUSH2 0x24B PUSH2 0x43D CALLDATASIZE PUSH1 0x4 PUSH2 0x1230 JUMP JUMPDEST PUSH2 0xBBF JUMP JUMPDEST CALLVALUE DUP1 ISZERO PUSH2 0x44D JUMPI PUSH0 PUSH0 REVERT JUMPDEST POP PUSH2 0x2DD PUSH32 0x0 DUP2 JUMP JUMPDEST CALLVALUE DUP1 ISZERO PUSH2 0x480 JUMPI PUSH0 PUSH0 REVERT JUMPDEST POP PUSH2 0x29A PUSH2 0x48F CALLDATASIZE PUSH1 0x4 PUSH2 0x1230 JUMP JUMPDEST PUSH0 SWAP1 DUP2 MSTORE PUSH1 0x2D PUSH1 0x20 MSTORE PUSH1 0x40 SWAP1 KECCAK256 SLOAD PUSH1 0xFF AND SWAP1 JUMP JUMPDEST CALLVALUE DUP1 ISZERO PUSH2 0x4AE JUMPI PUSH0 PUSH0 REVERT JUMPDEST POP PUSH2 0x209 PUSH2 0x4BD CALLDATASIZE PUSH1 0x4 PUSH2 0x1230 JUMP JUMPDEST PUSH2 0xF43 JUMP JUMPDEST CALLVALUE DUP1 ISZERO PUSH2 0x4CD JUMPI PUSH0 PUSH0 REVERT JUMPDEST POP PUSH2 0x1D4 PUSH1 0x14 DUP2 JUMP JUMPDEST CALLVALUE DUP1 ISZERO PUSH2 0x4E1 JUMPI PUSH0 PUSH0 REVERT JUMPDEST POP PUSH2 0x209 PUSH2 0x4F0 CALLDATASIZE PUSH1 0x4 PUSH2 0x1230 JUMP JUMPDEST PUSH2 0xF59 JUMP JUMPDEST CALLVALUE DUP1 ISZERO PUSH2 0x500 JUMPI PUSH0 PUSH0 REVERT JUMPDEST POP PUSH2 0x24B PUSH2 0x50F CALLDATASIZE PUSH1 0x4 PUSH2 0x120E JUMP JUMPDEST PUSH2 0xF68 JUMP JUMPDEST CALLVALUE DUP1 ISZERO PUSH2 0x51F JUMPI PUSH0 PUSH0 REVERT JUMPDEST POP PUSH2 0x24B PUSH2 0x52E CALLDATASIZE PUSH1 0x4 PUSH2 0x120E JUMP JUMPDEST PUSH2 0xFA2 JUMP JUMPDEST CALLVALUE DUP1 ISZERO PUSH2 0x53E JUMPI PUSH0 PUSH0 REVERT JUMPDEST POP PUSH1 0x2C SLOAD PUSH2 0x1D4 SWAP1 PUSH4 0xFFFFFFFF AND DUP2 JUMP JUMPDEST CALLVALUE DUP1 ISZERO PUSH2 0x55A JUMPI PUSH0 PUSH0 REVERT JUMPDEST POP PUSH2 0x209 PUSH1 0x2B SLOAD DUP2 JUMP JUMPDEST CALLVALUE DUP1 ISZERO PUSH2 0x56F JUMPI PUSH0 PUSH0 REVERT JUMPDEST POP PUSH2 0x29A PUSH2 0x57E CALLDATASIZE PUSH1 0x4 PUSH2 0x120E JUMP JUMPDEST PUSH1 0x2F PUSH1 0x20 MSTORE PUSH0 SWAP1 DUP2 MSTORE PUSH1 0x40 SWAP1 KECCAK256 SLOAD PUSH1 0xFF AND DUP2 JUMP JUMPDEST PUSH2 0x59A PUSH2 0xFFD JUMP JUMPDEST PUSH1 0x1 PUSH1 0x1 PUSH1 0xA0 SHL SUB DUP2 AND PUSH0 DUP2 DUP2 MSTORE PUSH1 0x2F PUSH1 0x20 SWAP1 DUP2 MSTORE PUSH1 0x40 SWAP2 DUP3 SWAP1 KECCAK256 DUP1 SLOAD PUSH1 0xFF NOT AND SWAP1 SSTORE SWAP1 MLOAD SWAP2 DUP3 MSTORE PUSH32 0x258EDB8CC3AC42AC5670D060AB55B20F4D1A16137CEADAE6212705AAEDAB5D1E SWAP2 ADD JUMPDEST PUSH1 0x40 MLOAD DUP1 SWAP2 SUB SWAP1 LOG1 POP JUMP JUMPDEST PUSH2 0x5F9 PUSH2 0xFFD JUMP JUMPDEST PUSH2 0x601 PUSH2 0x102F JUMP JUMPDEST PUSH0 PUSH1 0x2 SLOAD GT PUSH2 0x64D JUMPI PUSH1 0x40 MLOAD PUSH3 0x461BCD PUSH1 0xE5 SHL DUP2 MSTORE PUSH1 0x20 PUSH1 0x4 DUP3 ADD MSTORE PUSH1 0x13 PUSH1 0x24 DUP3 ADD MSTORE PUSH19 0x6E6F206665657320746F207769746864726177 PUSH1 0x68 SHL PUSH1 0x44 DUP3 ADD MSTORE PUSH1 0x64 ADD JUMPDEST PUSH1 0x40 MLOAD DUP1 SWAP2 SUB SWAP1 REVERT JUMPDEST PUSH1 0x1 PUSH1 0x1 PUSH1 0xA0 SHL SUB DUP2 AND PUSH2 0x696 JUMPI PUSH1 0x40 MLOAD PUSH3 0x461BCD PUSH1 0xE5 SHL DUP2 MSTORE PUSH1 0x20 PUSH1 0x4 DUP3 ADD MSTORE PUSH1 0x10 PUSH1 0x24 DUP3 ADD MSTORE PUSH16 0x696E76616C6964207472656173757279 PUSH1 0x80 SHL PUSH1 0x44 DUP3 ADD MSTORE PUSH1 0x64 ADD PUSH2 0x644 JUMP JUMPDEST PUSH1 0x2 DUP1 SLOAD PUSH0 SWAP2 DUP3 SWAP1 SSTORE PUSH1 0x40 MLOAD SWAP1 SWAP2 SWAP1 PUSH1 0x1 PUSH1 0x1 PUSH1 0xA0 SHL SUB DUP5 AND SWAP1 DUP4 SWAP1 DUP4 DUP2 DUP2 DUP2 DUP6 DUP8 GAS CALL SWAP3 POP POP POP RETURNDATASIZE DUP1 PUSH0 DUP2 EQ PUSH2 0x6E8 JUMPI PUSH1 0x40 MLOAD SWAP2 POP PUSH1 0x1F NOT PUSH1 0x3F RETURNDATASIZE ADD AND DUP3 ADD PUSH1 0x40 MSTORE RETURNDATASIZE DUP3 MSTORE RETURNDATASIZE PUSH0 PUSH1 0x20 DUP5 ADD RETURNDATACOPY PUSH2 0x6ED JUMP JUMPDEST PUSH1 0x60 SWAP2 POP JUMPDEST POP POP SWAP1 POP DUP1 PUSH2 0x730 JUMPI PUSH1 0x40 MLOAD PUSH3 0x461BCD PUSH1 0xE5 SHL DUP2 MSTORE PUSH1 0x20 PUSH1 0x4 DUP3 ADD MSTORE PUSH1 0xF PUSH1 0x24 DUP3 ADD MSTORE PUSH15 0x1DDA5D1A191C985DC819985A5B1959 PUSH1 0x8A SHL PUSH1 0x44 DUP3 ADD MSTORE PUSH1 0x64 ADD PUSH2 0x644 JUMP JUMPDEST PUSH1 0x40 DUP1 MLOAD PUSH1 0x1 PUSH1 0x1 PUSH1 0xA0 SHL SUB DUP6 AND DUP2 MSTORE PUSH1 0x20 DUP2 ADD DUP5 SWAP1 MSTORE PUSH32 0xEE33A3A9CB48E4FF209F8B1C67C4632F1DBBF55AEFF8E6F17D957ADE7A6FB17C SWAP2 ADD PUSH1 0x40 MLOAD DUP1 SWAP2 SUB SWAP1 LOG1 POP POP PUSH2 0x77D PUSH1 0x1 DUP1 SSTORE JUMP JUMPDEST POP JUMP JUMPDEST PUSH2 0x788 PUSH2 0xFFD JUMP JUMPDEST PUSH2 0x790 PUSH2 0x1088 JUMP JUMPDEST JUMP JUMPDEST PUSH2 0x79A PUSH2 0xFFD JUMP JUMPDEST PUSH2 0x7A2 PUSH2 0x102F JUMP JUMPDEST PUSH2 0x7AA PUSH2 0x10D9 JUMP JUMPDEST PUSH0 PUSH1 0x2 SLOAD GT PUSH2 0x7ED JUMPI PUSH1 0x40 MLOAD PUSH3 0x461BCD PUSH1 0xE5 SHL DUP2 MSTORE PUSH1 0x20 PUSH1 0x4 DUP3 ADD MSTORE PUSH1 0xF PUSH1 0x24 DUP3 ADD MSTORE PUSH15 0x3737903332B2B9903A3790313AB937 PUSH1 0x89 SHL PUSH1 0x44 DUP3 ADD MSTORE PUSH1 0x64 ADD PUSH2 0x644 JUMP JUMPDEST PUSH1 0x2 DUP1 SLOAD PUSH0 SWAP2 DUP3 SWAP1 SSTORE PUSH1 0x40 MLOAD SWAP1 SWAP2 SWAP1 PUSH2 0xDEAD SWAP1 DUP4 SWAP1 DUP4 DUP2 DUP2 DUP2 DUP6 DUP8 GAS CALL SWAP3 POP POP POP RETURNDATASIZE DUP1 PUSH0 DUP2 EQ PUSH2 0x838 JUMPI PUSH1 0x40 MLOAD SWAP2 POP PUSH1 0x1F NOT PUSH1 0x3F RETURNDATASIZE ADD AND DUP3 ADD PUSH1 0x40 MSTORE RETURNDATASIZE DUP3 MSTORE RETURNDATASIZE PUSH0 PUSH1 0x20 DUP5 ADD RETURNDATACOPY PUSH2 0x83D JUMP JUMPDEST PUSH1 0x60 SWAP2 POP JUMPDEST POP POP SWAP1 POP DUP1 PUSH2 0x87C JUMPI PUSH1 0x40 MLOAD PUSH3 0x461BCD PUSH1 0xE5 SHL DUP2 MSTORE PUSH1 0x20 PUSH1 0x4 DUP3 ADD MSTORE PUSH1 0xB PUSH1 0x24 DUP3 ADD MSTORE PUSH11 0x189D5C9B8819985A5B1959 PUSH1 0xAA SHL PUSH1 0x44 DUP3 ADD MSTORE PUSH1 0x64 ADD PUSH2 0x644 JUMP JUMPDEST PUSH1 0x40 DUP1 MLOAD PUSH2 0xDEAD DUP2 MSTORE PUSH1 0x20 DUP2 ADD DUP5 SWAP1 MSTORE PUSH32 0xD9575A73E2A7DA16CFDE907DF749D23D901528FF2E7C832B731BABDECCA000B SWAP2 ADD PUSH1 0x40 MLOAD DUP1 SWAP2 SUB SWAP1 LOG1 POP POP PUSH2 0x790 PUSH1 0x1 DUP1 SSTORE JUMP JUMPDEST PUSH2 0x8CA PUSH2 0xFFD JUMP JUMPDEST PUSH2 0x790 PUSH0 PUSH2 0x1121 JUMP JUMPDEST PUSH2 0x8DB PUSH2 0xFFD JUMP JUMPDEST PUSH2 0x790 PUSH2 0x1179 JUMP JUMPDEST PUSH2 0x8EB PUSH2 0x11B5 JUMP JUMPDEST PUSH2 0x8F3 PUSH2 0x102F JUMP JUMPDEST PUSH1 0x1 PUSH1 0x1 PUSH1 0xA0 SHL SUB DUP2 AND PUSH0 SWAP1 DUP2 MSTORE PUSH1 0x2F PUSH1 0x20 MSTORE PUSH1 0x40 SWAP1 KECCAK256 SLOAD PUSH1 0xFF AND ISZERO PUSH2 0x952 JUMPI PUSH1 0x40 MLOAD PUSH3 0x461BCD PUSH1 0xE5 SHL DUP2 MSTORE PUSH1 0x20 PUSH1 0x4 DUP3 ADD MSTORE PUSH1 0x14 PUSH1 0x24 DUP3 ADD MSTORE PUSH20 0x1C9958DA5C1A595B9D081CD85B98DD1A5BDB9959 PUSH1 0x62 SHL PUSH1 0x44 DUP3 ADD MSTORE PUSH1 0x64 ADD PUSH2 0x644 JUMP JUMPDEST PUSH0 DUP3 DUP2 MSTORE PUSH1 0x2D PUSH1 0x20 MSTORE PUSH1 0x40 SWAP1 KECCAK256 SLOAD PUSH1 0xFF AND ISZERO PUSH2 0x981 JUMPI PUSH1 0x40 MLOAD PUSH4 0x65695701 PUSH1 0xE1 SHL DUP2 MSTORE PUSH1 0x4 ADD PUSH1 0x40 MLOAD DUP1 SWAP2 SUB SWAP1 REVERT JUMPDEST PUSH0 DUP4 DUP2 MSTORE PUSH1 0x2E PUSH1 0x20 MSTORE PUSH1 0x40 SWAP1 KECCAK256 SLOAD PUSH1 0xFF AND PUSH2 0x9AF JUMPI PUSH1 0x40 MLOAD PUSH4 0x4629008B PUSH1 0xE1 SHL DUP2 MSTORE PUSH1 0x4 ADD PUSH1 0x40 MLOAD DUP1 SWAP2 SUB SWAP1 REVERT JUMPDEST PUSH1 0x40 DUP1 MLOAD PUSH1 0x2 DUP1 DUP3 MSTORE PUSH1 0x60 DUP3 ADD DUP4 MSTORE PUSH0 SWAP3 PUSH1 0x20 DUP4 ADD SWAP1 DUP1 CALLDATASIZE DUP4 CALLDATACOPY ADD SWAP1 POP POP SWAP1 POP DUP4 DUP2 PUSH0 DUP2 MLOAD DUP2 LT PUSH2 0x9E2 JUMPI PUSH2 0x9E2 PUSH2 0x12D9 JUMP JUMPDEST PUSH1 0x20 MUL PUSH1 0x20 ADD ADD DUP2 DUP2 MSTORE POP POP DUP3 DUP2 PUSH1 0x1 DUP2 MLOAD DUP2 LT PUSH2 0xA02 JUMPI PUSH2 0xA02 PUSH2 0x12D9 JUMP JUMPDEST PUSH1 0x20 SWAP1 DUP2 MUL SWAP2 SWAP1 SWAP2 ADD ADD MSTORE PUSH1 0x40 MLOAD PUSH4 0x3A943439 PUSH1 0xE2 SHL DUP2 MSTORE PUSH1 0x1 PUSH1 0x1 PUSH1 0xA0 SHL SUB PUSH32 0x0 AND SWAP1 PUSH4 0xEA50D0E4 SWAP1 PUSH2 0xA5D SWAP1 DUP10 SWAP1 DUP10 SWAP1 DUP7 SWAP1 PUSH1 0x4 ADD PUSH2 0x12ED JUMP JUMPDEST PUSH1 0x20 PUSH1 0x40 MLOAD DUP1 DUP4 SUB DUP2 DUP7 GAS STATICCALL ISZERO DUP1 ISZERO PUSH2 0xA78 JUMPI RETURNDATASIZE PUSH0 PUSH0 RETURNDATACOPY RETURNDATASIZE PUSH0 REVERT JUMPDEST POP POP POP POP PUSH1 0x40 MLOAD RETURNDATASIZE PUSH1 0x1F NOT PUSH1 0x1F DUP3 ADD AND DUP3 ADD DUP1 PUSH1 0x40 MSTORE POP DUP2 ADD SWAP1 PUSH2 0xA9C SWAP2 SWAP1 PUSH2 0x1365 JUMP JUMPDEST PUSH2 0xAB9 JUMPI PUSH1 0x40 MLOAD PUSH4 0x9BDE339 PUSH1 0xE0 SHL DUP2 MSTORE PUSH1 0x4 ADD PUSH1 0x40 MLOAD DUP1 SWAP2 SUB SWAP1 REVERT JUMPDEST PUSH0 DUP4 DUP2 MSTORE PUSH1 0x2D PUSH1 0x20 MSTORE PUSH1 0x40 DUP1 DUP3 KECCAK256 DUP1 SLOAD PUSH1 0xFF NOT AND PUSH1 0x1 OR SWAP1 SSTORE MLOAD PUSH1 0x1 PUSH1 0x1 PUSH1 0xA0 SHL SUB DUP5 AND SWAP1 PUSH8 0xDE0B6B3A7640000 SWAP1 DUP4 DUP2 DUP2 DUP2 DUP6 DUP8 GAS CALL SWAP3 POP POP POP RETURNDATASIZE DUP1 PUSH0 DUP2 EQ PUSH2 0xB1E JUMPI PUSH1 0x40 MLOAD SWAP2 POP PUSH1 0x1F NOT PUSH1 0x3F RETURNDATASIZE ADD AND DUP3 ADD PUSH1 0x40 MSTORE RETURNDATASIZE DUP3 MSTORE RETURNDATASIZE PUSH0 PUSH1 0x20 DUP5 ADD RETURNDATACOPY PUSH2 0xB23 JUMP JUMPDEST PUSH1 0x60 SWAP2 POP JUMPDEST POP POP SWAP1 POP DUP1 PUSH2 0xB6A JUMPI PUSH1 0x40 MLOAD PUSH3 0x461BCD PUSH1 0xE5 SHL DUP2 MSTORE PUSH1 0x20 PUSH1 0x4 DUP3 ADD MSTORE PUSH1 0x13 PUSH1 0x24 DUP3 ADD MSTORE PUSH19 0x135395081D1C985B9CD9995C8819985A5B1959 PUSH1 0x6A SHL PUSH1 0x44 DUP3 ADD MSTORE PUSH1 0x64 ADD PUSH2 0x644 JUMP JUMPDEST DUP3 PUSH1 0x1 PUSH1 0x1 PUSH1 0xA0 SHL SUB AND PUSH32 0xCE490531F6C8AE2F1FF174643BC8B7ED5E52987AB50DC1E8F33655D2CD8C90B DUP6 PUSH1 0x40 MLOAD PUSH2 0xBA5 SWAP2 DUP2 MSTORE PUSH1 0x20 ADD SWAP1 JUMP JUMPDEST PUSH1 0x40 MLOAD DUP1 SWAP2 SUB SWAP1 LOG2 POP POP PUSH2 0xBB8 PUSH1 0x1 DUP1 SSTORE JUMP JUMPDEST POP POP POP POP POP JUMP JUMPDEST PUSH2 0xBC7 PUSH2 0x11B5 JUMP JUMPDEST CALLER PUSH0 SWAP1 DUP2 MSTORE PUSH1 0x2F PUSH1 0x20 MSTORE PUSH1 0x40 SWAP1 KECCAK256 SLOAD PUSH1 0xFF AND ISZERO PUSH2 0xC3D JUMPI PUSH1 0x40 MLOAD PUSH3 0x461BCD PUSH1 0xE5 SHL DUP2 MSTORE PUSH1 0x20 PUSH1 0x4 DUP3 ADD MSTORE PUSH1 0x2E PUSH1 0x24 DUP3 ADD MSTORE PUSH32 0x74686973206164647265737320697320626C61636B6C697374656420616E6420 PUSH1 0x44 DUP3 ADD MSTORE PUSH14 0x18D85B9B9BDD0819195C1BDCDA5D PUSH1 0x92 SHL PUSH1 0x64 DUP3 ADD MSTORE PUSH1 0x84 ADD PUSH2 0x644 JUMP JUMPDEST PUSH0 PUSH2 0xC58 PUSH8 0x16345785D8A0000 PUSH8 0xDE0B6B3A7640000 PUSH2 0x1398 JUMP JUMPDEST SWAP1 POP DUP1 CALLVALUE EQ PUSH2 0xC7A JUMPI PUSH1 0x40 MLOAD PUSH4 0x7833D9E3 PUSH1 0xE1 SHL DUP2 MSTORE PUSH1 0x4 ADD PUSH1 0x40 MLOAD DUP1 SWAP2 SUB SWAP1 REVERT JUMPDEST PUSH1 0x2C SLOAD PUSH3 0x100000 PUSH4 0xFFFFFFFF SWAP1 SWAP2 AND LT PUSH2 0xCA7 JUMPI PUSH1 0x40 MLOAD PUSH4 0x3B5CCB43 PUSH1 0xE2 SHL DUP2 MSTORE PUSH1 0x4 ADD PUSH1 0x40 MLOAD DUP1 SWAP2 SUB SWAP1 REVERT JUMPDEST PUSH1 0x2C DUP1 SLOAD PUSH4 0xFFFFFFFF AND SWAP1 DUP2 SWAP1 PUSH0 PUSH2 0xCBE DUP4 PUSH2 0x13B1 JUMP JUMPDEST DUP3 SLOAD PUSH4 0xFFFFFFFF SWAP2 DUP3 AND PUSH2 0x100 SWAP4 SWAP1 SWAP4 EXP SWAP3 DUP4 MUL SWAP2 SWAP1 SWAP3 MUL NOT SWAP1 SWAP2 AND OR SWAP1 SSTORE POP DUP3 PUSH0 JUMPDEST PUSH1 0x14 PUSH4 0xFFFFFFFF DUP3 AND LT ISZERO PUSH2 0xEAF JUMPI PUSH1 0x1 DUP4 AND PUSH0 SUB PUSH2 0xDDD JUMPI DUP2 PUSH1 0x17 PUSH4 0xFFFFFFFF DUP4 AND PUSH1 0x14 DUP2 LT PUSH2 0xD14 JUMPI PUSH2 0xD14 PUSH2 0x12D9 JUMP JUMPDEST ADD DUP2 SWAP1 SSTORE POP PUSH32 0x0 PUSH1 0x1 PUSH1 0x1 PUSH1 0xA0 SHL SUB AND PUSH4 0x29A5F2F6 PUSH1 0x40 MLOAD DUP1 PUSH1 0x40 ADD PUSH1 0x40 MSTORE DUP1 DUP6 DUP2 MSTORE PUSH1 0x20 ADD PUSH1 0x3 DUP6 PUSH4 0xFFFFFFFF AND PUSH1 0x14 DUP2 LT PUSH2 0xD72 JUMPI PUSH2 0xD72 PUSH2 0x12D9 JUMP JUMPDEST ADD SLOAD SWAP1 MSTORE PUSH1 0x40 MLOAD PUSH1 0x1 PUSH1 0x1 PUSH1 0xE0 SHL SUB NOT PUSH1 0xE0 DUP5 SWAP1 SHL AND DUP2 MSTORE PUSH2 0xD97 SWAP2 SWAP1 PUSH1 0x4 ADD PUSH2 0x13D5 JUMP JUMPDEST PUSH1 0x20 PUSH1 0x40 MLOAD DUP1 DUP4 SUB DUP2 DUP7 GAS STATICCALL ISZERO DUP1 ISZERO PUSH2 0xDB2 JUMPI RETURNDATASIZE PUSH0 PUSH0 RETURNDATACOPY RETURNDATASIZE PUSH0 REVERT JUMPDEST POP POP POP POP PUSH1 0x40 MLOAD RETURNDATASIZE PUSH1 0x1F NOT PUSH1 0x1F DUP3 ADD AND DUP3 ADD DUP1 PUSH1 0x40 MSTORE POP DUP2 ADD SWAP1 PUSH2 0xDD6 SWAP2 SWAP1 PUSH2 0x1405 JUMP JUMPDEST SWAP2 POP PUSH2 0xE9D JUMP JUMPDEST PUSH32 0x0 PUSH1 0x1 PUSH1 0x1 PUSH1 0xA0 SHL SUB AND PUSH4 0x29A5F2F6 PUSH1 0x40 MLOAD DUP1 PUSH1 0x40 ADD PUSH1 0x40 MSTORE DUP1 PUSH1 0x17 DUP6 PUSH4 0xFFFFFFFF AND PUSH1 0x14 DUP2 LT PUSH2 0xE30 JUMPI PUSH2 0xE30 PUSH2 0x12D9 JUMP JUMPDEST ADD SLOAD DUP2 MSTORE PUSH1 0x20 ADD DUP6 SWAP1 MSTORE PUSH1 0x40 MLOAD PUSH1 0x1 PUSH1 0x1 PUSH1 0xE0 SHL SUB NOT PUSH1 0xE0 DUP5 SWAP1 SHL AND DUP2 MSTORE PUSH2 0xE5B SWAP2 SWAP1 PUSH1 0x4 ADD PUSH2 0x13D5 JUMP JUMPDEST PUSH1 0x20 PUSH1 0x40 MLOAD DUP1 DUP4 SUB DUP2 DUP7 GAS STATICCALL ISZERO DUP1 ISZERO PUSH2 0xE76 JUMPI RETURNDATASIZE PUSH0 PUSH0 RETURNDATACOPY RETURNDATASIZE PUSH0 REVERT JUMPDEST POP POP POP POP PUSH1 0x40 MLOAD RETURNDATASIZE PUSH1 0x1F NOT PUSH1 0x1F DUP3 ADD AND DUP3 ADD DUP1 PUSH1 0x40 MSTORE POP DUP2 ADD SWAP1 PUSH2 0xE9A SWAP2 SWAP1 PUSH2 0x1405 JUMP JUMPDEST SWAP2 POP JUMPDEST PUSH4 0x7FFFFFFF PUSH1 0x1 SWAP4 DUP5 SHR AND SWAP3 ADD PUSH2 0xCE1 JUMP JUMPDEST POP PUSH1 0x2B DUP2 SWAP1 SSTORE PUSH0 DUP2 DUP2 MSTORE PUSH1 0x2E PUSH1 0x20 MSTORE PUSH1 0x40 DUP2 KECCAK256 DUP1 SLOAD PUSH1 0xFF NOT AND PUSH1 0x1 OR SWAP1 SSTORE PUSH1 0x2 DUP1 SLOAD PUSH8 0x16345785D8A0000 SWAP3 SWAP1 PUSH2 0xEE7 SWAP1 DUP5 SWAP1 PUSH2 0x1398 JUMP JUMPDEST SWAP1 SWAP2 SSTORE POP POP PUSH1 0x2C SLOAD DUP5 SWAP1 PUSH32 0x84FC9EB8CD0A782A1D1734FBEED616BD0EF775F8B9BD437636B62D634FE4BAF3 SWAP1 PUSH2 0xF25 SWAP1 PUSH1 0x1 SWAP1 PUSH4 0xFFFFFFFF AND PUSH2 0x141C JUMP JUMPDEST PUSH1 0x40 MLOAD PUSH4 0xFFFFFFFF SWAP1 SWAP2 AND DUP2 MSTORE PUSH1 0x20 ADD PUSH1 0x40 MLOAD DUP1 SWAP2 SUB SWAP1 LOG2 POP POP POP POP JUMP JUMPDEST PUSH1 0x3 DUP2 PUSH1 0x14 DUP2 LT PUSH2 0xF52 JUMPI PUSH0 DUP1 REVERT JUMPDEST ADD SLOAD SWAP1 POP DUP2 JUMP JUMPDEST PUSH1 0x17 DUP2 PUSH1 0x14 DUP2 LT PUSH2 0xF52 JUMPI PUSH0 DUP1 REVERT JUMPDEST PUSH2 0xF70 PUSH2 0xFFD JUMP JUMPDEST PUSH1 0x1 PUSH1 0x1 PUSH1 0xA0 SHL SUB DUP2 AND PUSH2 0xF99 JUMPI PUSH1 0x40 MLOAD PUSH4 0x1E4FBDF7 PUSH1 0xE0 SHL DUP2 MSTORE PUSH0 PUSH1 0x4 DUP3 ADD MSTORE PUSH1 0x24 ADD PUSH2 0x644 JUMP JUMPDEST PUSH2 0x77D DUP2 PUSH2 0x1121 JUMP JUMPDEST PUSH2 0xFAA PUSH2 0xFFD JUMP JUMPDEST PUSH1 0x1 PUSH1 0x1 PUSH1 0xA0 SHL SUB DUP2 AND PUSH0 DUP2 DUP2 MSTORE PUSH1 0x2F PUSH1 0x20 SWAP1 DUP2 MSTORE PUSH1 0x40 SWAP2 DUP3 SWAP1 KECCAK256 DUP1 SLOAD PUSH1 0xFF NOT AND PUSH1 0x1 OR SWAP1 SSTORE SWAP1 MLOAD SWAP2 DUP3 MSTORE PUSH32 0xFFA4E6181777692565CF28528FC88FD1516EA86B56DA075235FA575AF6A4B855 SWAP2 ADD PUSH2 0x5E6 JUMP JUMPDEST PUSH0 SLOAD PUSH1 0x1 PUSH1 0x1 PUSH1 0xA0 SHL SUB PUSH2 0x100 SWAP1 SWAP2 DIV AND CALLER EQ PUSH2 0x790 JUMPI PUSH1 0x40 MLOAD PUSH4 0x118CDAA7 PUSH1 0xE0 SHL DUP2 MSTORE CALLER PUSH1 0x4 DUP3 ADD MSTORE PUSH1 0x24 ADD PUSH2 0x644 JUMP JUMPDEST PUSH1 0x2 PUSH1 0x1 SLOAD SUB PUSH2 0x1081 JUMPI PUSH1 0x40 MLOAD PUSH3 0x461BCD PUSH1 0xE5 SHL DUP2 MSTORE PUSH1 0x20 PUSH1 0x4 DUP3 ADD MSTORE PUSH1 0x1F PUSH1 0x24 DUP3 ADD MSTORE PUSH32 0x5265656E7472616E637947756172643A207265656E7472616E742063616C6C00 PUSH1 0x44 DUP3 ADD MSTORE PUSH1 0x64 ADD PUSH2 0x644 JUMP JUMPDEST PUSH1 0x2 PUSH1 0x1 SSTORE JUMP JUMPDEST PUSH2 0x1090 PUSH2 0x10D9 JUMP JUMPDEST PUSH0 DUP1 SLOAD PUSH1 0xFF NOT AND SWAP1 SSTORE PUSH32 0x5DB9EE0A495BF2E6FF9C91A7834C1BA4FDD244A5E8AA4E537BD38AEAE4B073AA CALLER JUMPDEST PUSH1 0x40 MLOAD PUSH1 0x1 PUSH1 0x1 PUSH1 0xA0 SHL SUB SWAP1 SWAP2 AND DUP2 MSTORE PUSH1 0x20 ADD PUSH1 0x40 MLOAD DUP1 SWAP2 SUB SWAP1 LOG1 JUMP JUMPDEST PUSH0 SLOAD PUSH1 0xFF AND PUSH2 0x790 JUMPI PUSH1 0x40 MLOAD PUSH3 0x461BCD PUSH1 0xE5 SHL DUP2 MSTORE PUSH1 0x20 PUSH1 0x4 DUP3 ADD MSTORE PUSH1 0x14 PUSH1 0x24 DUP3 ADD MSTORE PUSH20 0x14185D5CD8589B194E881B9BDD081C185D5CD959 PUSH1 0x62 SHL PUSH1 0x44 DUP3 ADD MSTORE PUSH1 0x64 ADD PUSH2 0x644 JUMP JUMPDEST PUSH0 DUP1 SLOAD PUSH1 0x1 PUSH1 0x1 PUSH1 0xA0 SHL SUB DUP4 DUP2 AND PUSH2 0x100 DUP2 DUP2 MUL PUSH2 0x100 PUSH1 0x1 PUSH1 0xA8 SHL SUB NOT DUP6 AND OR DUP6 SSTORE PUSH1 0x40 MLOAD SWAP4 DIV SWAP2 SWAP1 SWAP2 AND SWAP3 SWAP1 SWAP2 DUP4 SWAP2 PUSH32 0x8BE0079C531659141344CD1FD0A4F28419497F9722A3DAAFE3B4186F6B6457E0 SWAP2 LOG3 POP POP JUMP JUMPDEST PUSH2 0x1181 PUSH2 0x11B5 JUMP JUMPDEST PUSH0 DUP1 SLOAD PUSH1 0xFF NOT AND PUSH1 0x1 OR SWAP1 SSTORE PUSH32 0x62E78CEA01BEE320CD4E420270B5EA74000D11B0C9F74754EBDBFC544B05A258 PUSH2 0x10BC CALLER SWAP1 JUMP JUMPDEST PUSH0 SLOAD PUSH1 0xFF AND ISZERO PUSH2 0x790 JUMPI PUSH1 0x40 MLOAD PUSH3 0x461BCD PUSH1 0xE5 SHL DUP2 MSTORE PUSH1 0x20 PUSH1 0x4 DUP3 ADD MSTORE PUSH1 0x10 PUSH1 0x24 DUP3 ADD MSTORE PUSH16 0x14185D5CD8589B194E881C185D5CD959 PUSH1 0x82 SHL PUSH1 0x44 DUP3 ADD MSTORE PUSH1 0x64 ADD PUSH2 0x644 JUMP JUMPDEST PUSH1 0x1 PUSH1 0x1 PUSH1 0xA0 SHL SUB DUP2 AND DUP2 EQ PUSH2 0x77D JUMPI PUSH0 PUSH0 REVERT JUMPDEST PUSH0 PUSH1 0x20 DUP3 DUP5 SUB SLT ISZERO PUSH2 0x121E JUMPI PUSH0 PUSH0 REVERT JUMPDEST DUP2 CALLDATALOAD PUSH2 0x1229 DUP2 PUSH2 0x11FA JUMP JUMPDEST SWAP4 SWAP3 POP POP POP JUMP JUMPDEST PUSH0 PUSH1 0x20 DUP3 DUP5 SUB SLT ISZERO PUSH2 0x1240 JUMPI PUSH0 PUSH0 REVERT JUMPDEST POP CALLDATALOAD SWAP2 SWAP1 POP JUMP JUMPDEST PUSH0 PUSH0 PUSH0 PUSH0 PUSH0 PUSH1 0x80 DUP7 DUP9 SUB SLT ISZERO PUSH2 0x125B JUMPI PUSH0 PUSH0 REVERT JUMPDEST DUP6 CALLDATALOAD PUSH8 0xFFFFFFFFFFFFFFFF DUP2 GT ISZERO PUSH2 0x1271 JUMPI PUSH0 PUSH0 REVERT JUMPDEST DUP7 ADD PUSH1 0x1F DUP2 ADD DUP9 SGT PUSH2 0x1281 JUMPI PUSH0 PUSH0 REVERT JUMPDEST DUP1 CALLDATALOAD PUSH8 0xFFFFFFFFFFFFFFFF DUP2 GT ISZERO PUSH2 0x1297 JUMPI PUSH0 PUSH0 REVERT JUMPDEST DUP9 PUSH1 0x20 DUP3 DUP5 ADD ADD GT ISZERO PUSH2 0x12A8 JUMPI PUSH0 PUSH0 REVERT JUMPDEST PUSH1 0x20 SWAP2 DUP3 ADD SWAP7 POP SWAP5 POP DUP7 ADD CALLDATALOAD SWAP3 POP PUSH1 0x40 DUP7 ADD CALLDATALOAD SWAP2 POP PUSH1 0x60 DUP7 ADD CALLDATALOAD PUSH2 0x12CB DUP2 PUSH2 0x11FA JUMP JUMPDEST DUP1 SWAP2 POP POP SWAP3 SWAP6 POP SWAP3 SWAP6 SWAP1 SWAP4 POP JUMP JUMPDEST PUSH4 0x4E487B71 PUSH1 0xE0 SHL PUSH0 MSTORE PUSH1 0x32 PUSH1 0x4 MSTORE PUSH1 0x24 PUSH0 REVERT JUMPDEST PUSH1 0x40 DUP2 MSTORE DUP3 PUSH1 0x40 DUP3 ADD MSTORE DUP3 DUP5 PUSH1 0x60 DUP4 ADD CALLDATACOPY PUSH0 PUSH1 0x60 DUP5 DUP4 ADD ADD MSTORE PUSH0 PUSH1 0x1F NOT PUSH1 0x1F DUP6 ADD AND DUP3 ADD PUSH1 0x60 DUP2 ADD PUSH1 0x60 DUP5 DUP4 SUB ADD PUSH1 0x20 DUP6 ADD MSTORE DUP1 DUP6 MLOAD DUP1 DUP4 MSTORE PUSH1 0x80 DUP5 ADD SWAP2 POP PUSH1 0x20 DUP8 ADD SWAP4 POP PUSH0 SWAP3 POP JUMPDEST DUP1 DUP4 LT ISZERO PUSH2 0x1359 JUMPI DUP4 MLOAD DUP3 MSTORE PUSH1 0x20 DUP3 ADD SWAP2 POP PUSH1 0x20 DUP5 ADD SWAP4 POP PUSH1 0x1 DUP4 ADD SWAP3 POP PUSH2 0x1336 JUMP JUMPDEST POP SWAP8 SWAP7 POP POP POP POP POP POP POP JUMP JUMPDEST PUSH0 PUSH1 0x20 DUP3 DUP5 SUB SLT ISZERO PUSH2 0x1375 JUMPI PUSH0 PUSH0 REVERT JUMPDEST DUP2 MLOAD DUP1 ISZERO ISZERO DUP2 EQ PUSH2 0x1229 JUMPI PUSH0 PUSH0 REVERT JUMPDEST PUSH4 0x4E487B71 PUSH1 0xE0 SHL PUSH0 MSTORE PUSH1 0x11 PUSH1 0x4 MSTORE PUSH1 0x24 PUSH0 REVERT JUMPDEST DUP1 DUP3 ADD DUP1 DUP3 GT ISZERO PUSH2 0x13AB JUMPI PUSH2 0x13AB PUSH2 0x1384 JUMP JUMPDEST SWAP3 SWAP2 POP POP JUMP JUMPDEST PUSH0 PUSH4 0xFFFFFFFF DUP3 AND PUSH4 0xFFFFFFFF DUP2 SUB PUSH2 0x13CC JUMPI PUSH2 0x13CC PUSH2 0x1384 JUMP JUMPDEST PUSH1 0x1 ADD SWAP3 SWAP2 POP POP JUMP JUMPDEST PUSH1 0x40 DUP2 ADD DUP2 DUP4 PUSH0 JUMPDEST PUSH1 0x2 DUP2 LT ISZERO PUSH2 0x13FC JUMPI DUP2 MLOAD DUP4 MSTORE PUSH1 0x20 SWAP3 DUP4 ADD SWAP3 SWAP1 SWAP2 ADD SWAP1 PUSH1 0x1 ADD PUSH2 0x13DD JUMP JUMPDEST POP POP POP SWAP3 SWAP2 POP POP JUMP JUMPDEST PUSH0 PUSH1 0x20 DUP3 DUP5 SUB SLT ISZERO PUSH2 0x1415 JUMPI PUSH0 PUSH0 REVERT JUMPDEST POP MLOAD SWAP2 SWAP1 POP JUMP JUMPDEST PUSH4 0xFFFFFFFF DUP3 DUP2 AND DUP3 DUP3 AND SUB SWAP1 DUP2 GT ISZERO PUSH2 0x13AB JUMPI PUSH2 0x13AB PUSH2 0x1384 JUMP INVALID LOG2 PUSH5 0x6970667358 0x22 SLT KECCAK256 SWAP8 CALLVALUE TLOAD PUSH31 0xE9CDE15329D112120B9E0F21ADDB544D515DA91ED60F7611D96BDB8A64736F PUSH13 0x634300081F0033000000000000 "
				},
				"gasEstimates": {
					"creation": {
						"codeDepositCost": "1046000",
						"executionCost": "infinite",
						"totalCost": "infinite"
					},
					"external": {
						"DENOMINATION()": "240",
						"MAX_LEAVES()": "239",
						"PROTOCOL_FEE()": "263",
						"TREE_DEPTH()": "259",
						"blacklist(address)": "27905",
						"burnFees()": "infinite",
						"checkFees()": "2380",
						"currentRoot()": "2382",
						"deposit(bytes32)": "infinite",
						"filledSubtrees(uint256)": "2505",
						"isAddressBlacklisted(address)": "2630",
						"isBlacklisted(address)": "2632",
						"isSpent(bytes32)": "2558",
						"knownRoots(bytes32)": "2537",
						"nextIndex()": "2367",
						"nullifierHashes(bytes32)": "2537",
						"owner()": "2408",
						"pardon(address)": "27890",
						"pause()": "infinite",
						"paused()": "2347",
						"poseidon()": "infinite",
						"renounceOwnership()": "infinite",
						"totalFees()": "2385",
						"transferOwnership(address)": "infinite",
						"unpause()": "infinite",
						"verifier()": "infinite",
						"withdraw(bytes,bytes32,bytes32,address)": "infinite",
						"withdrawFees(address)": "infinite",
						"zeros(uint256)": "2461"
					}
				},
				"methodIdentifiers": {
					"DENOMINATION()": "8b01429d",
					"MAX_LEAVES()": "082febf0",
					"PROTOCOL_FEE()": "0b4501fd",
					"TREE_DEPTH()": "f1650536",
					"blacklist(address)": "f9f92be4",
					"burnFees()": "40f6ac31",
					"checkFees()": "7be441d1",
					"currentRoot()": "fdab463d",
					"deposit(bytes32)": "b214faa5",
					"filledSubtrees(uint256)": "f178e47c",
					"isAddressBlacklisted(address)": "90683e8c",
					"isBlacklisted(address)": "fe575a87",
					"isSpent(bytes32)": "e5285dcc",
					"knownRoots(bytes32)": "4e73da7d",
					"nextIndex()": "fc7e9c6f",
					"nullifierHashes(bytes32)": "17cc915c",
					"owner()": "8da5cb5b",
					"pardon(address)": "14a0394e",
					"pause()": "8456cb59",
					"paused()": "5c975abb",
					"poseidon()": "c62b919e",
					"renounceOwnership()": "715018a6",
					"totalFees()": "13114a9d",
					"transferOwnership(address)": "f2fde38b",
					"unpause()": "3f4ba83a",
					"verifier()": "2b7ac3f3",
					"withdraw(bytes,bytes32,bytes32,address)": "b130eaa6",
					"withdrawFees(address)": "164e68de",
					"zeros(uint256)": "e8295588"
				}
			},
			"storageLayout": {
				"storage": [
					{
						"astId": 165,
						"contract": "contracts/SwirlPrivatePoolV2.sol:SwirlPrivatePool",
						"label": "_paused",
						"offset": 0,
						"slot": "0",
						"type": "t_bool"
					},
					{
						"astId": 8,
						"contract": "contracts/SwirlPrivatePoolV2.sol:SwirlPrivatePool",
						"label": "_owner",
						"offset": 1,
						"slot": "0",
						"type": "t_address"
					},
					{
						"astId": 266,
						"contract": "contracts/SwirlPrivatePoolV2.sol:SwirlPrivatePool",
						"label": "_status",
						"offset": 0,
						"slot": "1",
						"type": "t_uint256"
					},
					{
						"astId": 450,
						"contract": "contracts/SwirlPrivatePoolV2.sol:SwirlPrivatePool",
						"label": "totalFees",
						"offset": 0,
						"slot": "2",
						"type": "t_uint256"
					},
					{
						"astId": 460,
						"contract": "contracts/SwirlPrivatePoolV2.sol:SwirlPrivatePool",
						"label": "zeros",
						"offset": 0,
						"slot": "3",
						"type": "t_array(t_bytes32)20_storage"
					},
					{
						"astId": 464,
						"contract": "contracts/SwirlPrivatePoolV2.sol:SwirlPrivatePool",
						"label": "filledSubtrees",
						"offset": 0,
						"slot": "23",
						"type": "t_array(t_bytes32)20_storage"
					},
					{
						"astId": 466,
						"contract": "contracts/SwirlPrivatePoolV2.sol:SwirlPrivatePool",
						"label": "currentRoot",
						"offset": 0,
						"slot": "43",
						"type": "t_bytes32"
					},
					{
						"astId": 468,
						"contract": "contracts/SwirlPrivatePoolV2.sol:SwirlPrivatePool",
						"label": "nextIndex",
						"offset": 0,
						"slot": "44",
						"type": "t_uint32"
					},
					{
						"astId": 472,
						"contract": "contracts/SwirlPrivatePoolV2.sol:SwirlPrivatePool",
						"label": "nullifierHashes",
						"offset": 0,
						"slot": "45",
						"type": "t_mapping(t_bytes32,t_bool)"
					},
					{
						"astId": 476,
						"contract": "contracts/SwirlPrivatePoolV2.sol:SwirlPrivatePool",
						"label": "knownRoots",
						"offset": 0,
						"slot": "46",
						"type": "t_mapping(t_bytes32,t_bool)"
					},
					{
						"astId": 480,
						"contract": "contracts/SwirlPrivatePoolV2.sol:SwirlPrivatePool",
						"label": "isBlacklisted",
						"offset": 0,
						"slot": "47",
						"type": "t_mapping(t_address,t_bool)"
					}
				],
				"types": {
					"t_address": {
						"encoding": "inplace",
						"label": "address",
						"numberOfBytes": "20"
					},
					"t_array(t_bytes32)20_storage": {
						"base": "t_bytes32",
						"encoding": "inplace",
						"label": "bytes32[20]",
						"numberOfBytes": "640"
					},
					"t_bool": {
						"encoding": "inplace",
						"label": "bool",
						"numberOfBytes": "1"
					},
					"t_bytes32": {
						"encoding": "inplace",
						"label": "bytes32",
						"numberOfBytes": "32"
					},
					"t_mapping(t_address,t_bool)": {
						"encoding": "mapping",
						"key": "t_address",
						"label": "mapping(address => bool)",
						"numberOfBytes": "32",
						"value": "t_bool"
					},
					"t_mapping(t_bytes32,t_bool)": {
						"encoding": "mapping",
						"key": "t_bytes32",
						"label": "mapping(bytes32 => bool)",
						"numberOfBytes": "32",
						"value": "t_bool"
					},
					"t_uint256": {
						"encoding": "inplace",
						"label": "uint256",
						"numberOfBytes": "32"
					},
					"t_uint32": {
						"encoding": "inplace",
						"label": "uint32",
						"numberOfBytes": "4"
					}
				}
			},
			"userdoc": {
				"events": {
					"Blacklisted(address)": {
						"notice": "Emitted when an address is blacklisted"
					},
					"Deposit(bytes32,uint32)": {
						"notice": "Emitted when a deposit is made"
					},
					"FeeWithdrawal(address,uint256)": {
						"notice": "Emitted when protocol fees are withdrawn"
					},
					"FeesBurned(address,uint256)": {
						"notice": "Emitted when protocol fees are burned"
					},
					"Pardoned(address)": {
						"notice": "Emitted when an address is pardoned"
					},
					"Withdrawal(address,bytes32)": {
						"notice": "Emitted when a withdrawal occurs"
					}
				},
				"kind": "user",
				"methods": {
					"burnFees()": {
						"notice": "Optionally burn fees"
					},
					"checkFees()": {
						"notice": "Returns the total fees accumulated by the protocol"
					},
					"constructor": {
						"notice": "Initializes the private pool with verifier and Poseidon hash contract"
					},
					"deposit(bytes32)": {
						"notice": "Allows user to deposit."
					},
					"isAddressBlacklisted(address)": {
						"notice": "Checks if an address is blacklisted (sanctioned)"
					},
					"isSpent(bytes32)": {
						"notice": "Verify if a nullifier was already used"
					},
					"withdraw(bytes,bytes32,bytes32,address)": {
						"notice": "Allows user to withdraw their funds"
					},
					"withdrawFees(address)": {
						"notice": "Withdraws all accumulated protocol fees to the treasury"
					}
				},
				"version": 1
			}
		}
	}
}