{
	"contracts/PoseidonTest.sol": {
		"PoseidonTest": {
			"abi": [
				{
					"inputs": [
						{
							"internalType": "address",
							"name": "_poseidon_address",
							"type": "address"
						}
					],
					"stateMutability": "nonpayable",
					"type": "constructor"
				},
				{
					"inputs": [],
					"name": "poseidon",
					"outputs": [
						{
							"internalType": "contract IPoseidonT2",
							"name": "",
							"type": "address"
						}
					],
					"stateMutability": "view",
					"type": "function"
				},
				{
					"inputs": [
						{
							"internalType": "uint256",
							"name": "a",
							"type": "uint256"
						},
						{
							"internalType": "uint256",
							"name": "b",
							"type": "uint256"
						}
					],
					"name": "poseidon_hash",
					"outputs": [
						{
							"internalType": "uint256",
							"name": "",
							"type": "uint256"
						}
					],
					"stateMutability": "view",
					"type": "function"
				}
			],
			"devdoc": {
				"kind": "dev",
				"methods": {},
				"version": 1
			},
			"evm": {
				"assembly": "    /* \"contracts/PoseidonTest.sol\":172:513  contract PoseidonTest {... */\n  mstore(0x40, 0xa0)\n    /* \"contracts/PoseidonTest.sol\":247:346  constructor(address _poseidon_address) {... */\n  callvalue\n  dup1\n  iszero\n  tag_1\n  jumpi\n  revert(0x00, 0x00)\ntag_1:\n  pop\n  mload(0x40)\n  sub(codesize, bytecodeSize)\n  dup1\n  bytecodeSize\n  dup4\n  codecopy\n  dup2\n  dup2\n  add\n  0x40\n  mstore\n  dup2\n  add\n  swap1\n  tag_2\n  swap2\n  swap1\n  tag_3\n  jump\t// in\ntag_2:\n    /* \"contracts/PoseidonTest.sol\":320:337  _poseidon_address */\n  dup1\n    /* \"contracts/PoseidonTest.sol\":297:338  poseidon = IPoseidonT2(_poseidon_address) */\n  0xffffffffffffffffffffffffffffffffffffffff\n  and\n  0x80\n  dup2\n  0xffffffffffffffffffffffffffffffffffffffff\n  and\n  dup2\n  mstore\n  pop\n  pop\n    /* \"contracts/PoseidonTest.sol\":247:346  constructor(address _poseidon_address) {... */\n  pop\n    /* \"contracts/PoseidonTest.sol\":172:513  contract PoseidonTest {... */\n  jump(tag_6)\n    /* \"#utility.yul\":88:205   */\ntag_8:\n    /* \"#utility.yul\":197:198   */\n  0x00\n    /* \"#utility.yul\":194:195   */\n  0x00\n    /* \"#utility.yul\":187:199   */\n  revert\n    /* \"#utility.yul\":334:460   */\ntag_10:\n    /* \"#utility.yul\":371:378   */\n  0x00\n    /* \"#utility.yul\":411:453   */\n  0xffffffffffffffffffffffffffffffffffffffff\n    /* \"#utility.yul\":404:409   */\n  dup3\n    /* \"#utility.yul\":400:454   */\n  and\n    /* \"#utility.yul\":389:454   */\n  swap1\n  pop\n    /* \"#utility.yul\":334:460   */\n  swap2\n  swap1\n  pop\n  jump\t// out\n    /* \"#utility.yul\":466:562   */\ntag_11:\n    /* \"#utility.yul\":503:510   */\n  0x00\n    /* \"#utility.yul\":532:556   */\n  tag_20\n    /* \"#utility.yul\":550:555   */\n  dup3\n    /* \"#utility.yul\":532:556   */\n  tag_10\n  jump\t// in\ntag_20:\n    /* \"#utility.yul\":521:556   */\n  swap1\n  pop\n    /* \"#utility.yul\":466:562   */\n  swap2\n  swap1\n  pop\n  jump\t// out\n    /* \"#utility.yul\":568:690   */\ntag_12:\n    /* \"#utility.yul\":641:665   */\n  tag_22\n    /* \"#utility.yul\":659:664   */\n  dup2\n    /* \"#utility.yul\":641:665   */\n  tag_11\n  jump\t// in\ntag_22:\n    /* \"#utility.yul\":634:639   */\n  dup2\n    /* \"#utility.yul\":631:666   */\n  eq\n    /* \"#utility.yul\":621:684   */\n  tag_23\n  jumpi\n    /* \"#utility.yul\":680:681   */\n  0x00\n    /* \"#utility.yul\":677:678   */\n  0x00\n    /* \"#utility.yul\":670:682   */\n  revert\n    /* \"#utility.yul\":621:684   */\ntag_23:\n    /* \"#utility.yul\":568:690   */\n  pop\n  jump\t// out\n    /* \"#utility.yul\":696:839   */\ntag_13:\n    /* \"#utility.yul\":753:758   */\n  0x00\n    /* \"#utility.yul\":784:790   */\n  dup2\n    /* \"#utility.yul\":778:791   */\n  mload\n    /* \"#utility.yul\":769:791   */\n  swap1\n  pop\n    /* \"#utility.yul\":800:833   */\n  tag_25\n    /* \"#utility.yul\":827:832   */\n  dup2\n    /* \"#utility.yul\":800:833   */\n  tag_12\n  jump\t// in\ntag_25:\n    /* \"#utility.yul\":696:839   */\n  swap3\n  swap2\n  pop\n  pop\n  jump\t// out\n    /* \"#utility.yul\":845:1196   */\ntag_3:\n    /* \"#utility.yul\":915:921   */\n  0x00\n    /* \"#utility.yul\":964:966   */\n  0x20\n    /* \"#utility.yul\":952:961   */\n  dup3\n    /* \"#utility.yul\":943:950   */\n  dup5\n    /* \"#utility.yul\":939:962   */\n  sub\n    /* \"#utility.yul\":935:967   */\n  slt\n    /* \"#utility.yul\":932:1051   */\n  iszero\n  tag_27\n  jumpi\n    /* \"#utility.yul\":970:1049   */\n  tag_28\n  tag_8\n  jump\t// in\ntag_28:\n    /* \"#utility.yul\":932:1051   */\ntag_27:\n    /* \"#utility.yul\":1090:1091   */\n  0x00\n    /* \"#utility.yul\":1115:1179   */\n  tag_29\n    /* \"#utility.yul\":1171:1178   */\n  dup5\n    /* \"#utility.yul\":1162:1168   */\n  dup3\n    /* \"#utility.yul\":1151:1160   */\n  dup6\n    /* \"#utility.yul\":1147:1169   */\n  add\n    /* \"#utility.yul\":1115:1179   */\n  tag_13\n  jump\t// in\ntag_29:\n    /* \"#utility.yul\":1105:1179   */\n  swap2\n  pop\n    /* \"#utility.yul\":1061:1189   */\n  pop\n    /* \"#utility.yul\":845:1196   */\n  swap3\n  swap2\n  pop\n  pop\n  jump\t// out\n    /* \"contracts/PoseidonTest.sol\":172:513  contract PoseidonTest {... */\ntag_6:\n  mload(0x80)\n  codecopy(0x00, dataOffset(sub_0), dataSize(sub_0))\n  0x00\n  assignImmutable(\"0x5c4c6aa067b6f8e6cb38e6ab843832a94d1712d661a04d73c517d6a1931a9e5d\")\n  return(0x00, dataSize(sub_0))\nstop\n\nsub_0: assembly {\n        /* \"contracts/PoseidonTest.sol\":172:513  contract PoseidonTest {... */\n      mstore(0x40, 0x80)\n      callvalue\n      dup1\n      iszero\n      tag_1\n      jumpi\n      revert(0x00, 0x00)\n    tag_1:\n      pop\n      jumpi(tag_2, lt(calldatasize, 0x04))\n      shr(0xe0, calldataload(0x00))\n      dup1\n      0x82343245\n      eq\n      tag_3\n      jumpi\n      dup1\n      0xc62b919e\n      eq\n      tag_4\n      jumpi\n    tag_2:\n      revert(0x00, 0x00)\n        /* \"contracts/PoseidonTest.sol\":354:510  function poseidon_hash(uint256 a, uint256 b) public view returns (uint256) {... */\n    tag_3:\n      tag_5\n      0x04\n      dup1\n      calldatasize\n      sub\n      dup2\n      add\n      swap1\n      tag_6\n      swap2\n      swap1\n      tag_7\n      jump\t// in\n    tag_6:\n      tag_8\n      jump\t// in\n    tag_5:\n      mload(0x40)\n      tag_9\n      swap2\n      swap1\n      tag_10\n      jump\t// in\n    tag_9:\n      mload(0x40)\n      dup1\n      swap2\n      sub\n      swap1\n      return\n        /* \"contracts/PoseidonTest.sol\":201:238  IPoseidonT2 public immutable poseidon */\n    tag_4:\n      tag_11\n      tag_12\n      jump\t// in\n    tag_11:\n      mload(0x40)\n      tag_13\n      swap2\n      swap1\n      tag_14\n      jump\t// in\n    tag_13:\n      mload(0x40)\n      dup1\n      swap2\n      sub\n      swap1\n      return\n        /* \"contracts/PoseidonTest.sol\":354:510  function poseidon_hash(uint256 a, uint256 b) public view returns (uint256) {... */\n    tag_8:\n        /* \"contracts/PoseidonTest.sol\":420:427  uint256 */\n      0x00\n        /* \"contracts/PoseidonTest.sol\":440:451  uint256 res */\n      0x00\n        /* \"contracts/PoseidonTest.sol\":454:462  poseidon */\n      immutable(\"0x5c4c6aa067b6f8e6cb38e6ab843832a94d1712d661a04d73c517d6a1931a9e5d\")\n        /* \"contracts/PoseidonTest.sol\":454:471  poseidon.poseidon */\n      0xffffffffffffffffffffffffffffffffffffffff\n      and\n      0x29a5f2f6\n        /* \"contracts/PoseidonTest.sol\":454:479  poseidon.poseidon([a, b]) */\n      mload(0x40)\n      dup1\n      0x40\n      add\n      0x40\n      mstore\n      dup1\n        /* \"contracts/PoseidonTest.sol\":473:474  a */\n      dup8\n        /* \"contracts/PoseidonTest.sol\":454:479  poseidon.poseidon([a, b]) */\n      dup2\n      mstore\n      0x20\n      add\n        /* \"contracts/PoseidonTest.sol\":476:477  b */\n      dup7\n        /* \"contracts/PoseidonTest.sol\":454:479  poseidon.poseidon([a, b]) */\n      dup2\n      mstore\n      pop\n      mload(0x40)\n      dup3\n      0xffffffff\n      and\n      0xe0\n      shl\n      dup2\n      mstore\n      0x04\n      add\n      tag_16\n      swap2\n      swap1\n      tag_17\n      jump\t// in\n    tag_16:\n      0x20\n      mload(0x40)\n      dup1\n      dup4\n      sub\n      dup2\n      dup7\n      gas\n      staticcall\n      iszero\n      dup1\n      iszero\n      tag_19\n      jumpi\n      returndatacopy(0x00, 0x00, returndatasize)\n      revert(0x00, returndatasize)\n    tag_19:\n      pop\n      pop\n      pop\n      pop\n      mload(0x40)\n      returndatasize\n      not(0x1f)\n      0x1f\n      dup3\n      add\n      and\n      dup3\n      add\n      dup1\n      0x40\n      mstore\n      pop\n      dup2\n      add\n      swap1\n      tag_20\n      swap2\n      swap1\n      tag_21\n      jump\t// in\n    tag_20:\n        /* \"contracts/PoseidonTest.sol\":440:479  uint256 res = poseidon.poseidon([a, b]) */\n      swap1\n      pop\n        /* \"contracts/PoseidonTest.sol\":499:502  res */\n      dup1\n        /* \"contracts/PoseidonTest.sol\":492:502  return res */\n      swap2\n      pop\n      pop\n        /* \"contracts/PoseidonTest.sol\":354:510  function poseidon_hash(uint256 a, uint256 b) public view returns (uint256) {... */\n      swap3\n      swap2\n      pop\n      pop\n      jump\t// out\n        /* \"contracts/PoseidonTest.sol\":201:238  IPoseidonT2 public immutable poseidon */\n    tag_12:\n      immutable(\"0x5c4c6aa067b6f8e6cb38e6ab843832a94d1712d661a04d73c517d6a1931a9e5d\")\n      dup2\n      jump\t// out\n        /* \"#utility.yul\":88:205   */\n    tag_23:\n        /* \"#utility.yul\":197:198   */\n      0x00\n        /* \"#utility.yul\":194:195   */\n      0x00\n        /* \"#utility.yul\":187:199   */\n      revert\n        /* \"#utility.yul\":334:411   */\n    tag_25:\n        /* \"#utility.yul\":371:378   */\n      0x00\n        /* \"#utility.yul\":400:405   */\n      dup2\n        /* \"#utility.yul\":389:405   */\n      swap1\n      pop\n        /* \"#utility.yul\":334:411   */\n      swap2\n      swap1\n      pop\n      jump\t// out\n        /* \"#utility.yul\":417:539   */\n    tag_26:\n        /* \"#utility.yul\":490:514   */\n      tag_49\n        /* \"#utility.yul\":508:513   */\n      dup2\n        /* \"#utility.yul\":490:514   */\n      tag_25\n      jump\t// in\n    tag_49:\n        /* \"#utility.yul\":483:488   */\n      dup2\n        /* \"#utility.yul\":480:515   */\n      eq\n        /* \"#utility.yul\":470:533   */\n      tag_50\n      jumpi\n        /* \"#utility.yul\":529:530   */\n      0x00\n        /* \"#utility.yul\":526:527   */\n      0x00\n        /* \"#utility.yul\":519:531   */\n      revert\n        /* \"#utility.yul\":470:533   */\n    tag_50:\n        /* \"#utility.yul\":417:539   */\n      pop\n      jump\t// out\n        /* \"#utility.yul\":545:684   */\n    tag_27:\n        /* \"#utility.yul\":591:596   */\n      0x00\n        /* \"#utility.yul\":629:635   */\n      dup2\n        /* \"#utility.yul\":616:636   */\n      calldataload\n        /* \"#utility.yul\":607:636   */\n      swap1\n      pop\n        /* \"#utility.yul\":645:678   */\n      tag_52\n        /* \"#utility.yul\":672:677   */\n      dup2\n        /* \"#utility.yul\":645:678   */\n      tag_26\n      jump\t// in\n    tag_52:\n        /* \"#utility.yul\":545:684   */\n      swap3\n      swap2\n      pop\n      pop\n      jump\t// out\n        /* \"#utility.yul\":690:1164   */\n    tag_7:\n        /* \"#utility.yul\":758:764   */\n      0x00\n        /* \"#utility.yul\":766:772   */\n      0x00\n        /* \"#utility.yul\":815:817   */\n      0x40\n        /* \"#utility.yul\":803:812   */\n      dup4\n        /* \"#utility.yul\":794:801   */\n      dup6\n        /* \"#utility.yul\":790:813   */\n      sub\n        /* \"#utility.yul\":786:818   */\n      slt\n        /* \"#utility.yul\":783:902   */\n      iszero\n      tag_54\n      jumpi\n        /* \"#utility.yul\":821:900   */\n      tag_55\n      tag_23\n      jump\t// in\n    tag_55:\n        /* \"#utility.yul\":783:902   */\n    tag_54:\n        /* \"#utility.yul\":941:942   */\n      0x00\n        /* \"#utility.yul\":966:1019   */\n      tag_56\n        /* \"#utility.yul\":1011:1018   */\n      dup6\n        /* \"#utility.yul\":1002:1008   */\n      dup3\n        /* \"#utility.yul\":991:1000   */\n      dup7\n        /* \"#utility.yul\":987:1009   */\n      add\n        /* \"#utility.yul\":966:1019   */\n      tag_27\n      jump\t// in\n    tag_56:\n        /* \"#utility.yul\":956:1019   */\n      swap3\n      pop\n        /* \"#utility.yul\":912:1029   */\n      pop\n        /* \"#utility.yul\":1068:1070   */\n      0x20\n        /* \"#utility.yul\":1094:1147   */\n      tag_57\n        /* \"#utility.yul\":1139:1146   */\n      dup6\n        /* \"#utility.yul\":1130:1136   */\n      dup3\n        /* \"#utility.yul\":1119:1128   */\n      dup7\n        /* \"#utility.yul\":1115:1137   */\n      add\n        /* \"#utility.yul\":1094:1147   */\n      tag_27\n      jump\t// in\n    tag_57:\n        /* \"#utility.yul\":1084:1147   */\n      swap2\n      pop\n        /* \"#utility.yul\":1039:1157   */\n      pop\n        /* \"#utility.yul\":690:1164   */\n      swap3\n      pop\n      swap3\n      swap1\n      pop\n      jump\t// out\n        /* \"#utility.yul\":1170:1288   */\n    tag_28:\n        /* \"#utility.yul\":1257:1281   */\n      tag_59\n        /* \"#utility.yul\":1275:1280   */\n      dup2\n        /* \"#utility.yul\":1257:1281   */\n      tag_25\n      jump\t// in\n    tag_59:\n        /* \"#utility.yul\":1252:1255   */\n      dup3\n        /* \"#utility.yul\":1245:1282   */\n      mstore\n        /* \"#utility.yul\":1170:1288   */\n      pop\n      pop\n      jump\t// out\n        /* \"#utility.yul\":1294:1516   */\n    tag_10:\n        /* \"#utility.yul\":1387:1391   */\n      0x00\n        /* \"#utility.yul\":1425:1427   */\n      0x20\n        /* \"#utility.yul\":1414:1423   */\n      dup3\n        /* \"#utility.yul\":1410:1428   */\n      add\n        /* \"#utility.yul\":1402:1428   */\n      swap1\n      pop\n        /* \"#utility.yul\":1438:1509   */\n      tag_61\n        /* \"#utility.yul\":1506:1507   */\n      0x00\n        /* \"#utility.yul\":1495:1504   */\n      dup4\n        /* \"#utility.yul\":1491:1508   */\n      add\n        /* \"#utility.yul\":1482:1488   */\n      dup5\n        /* \"#utility.yul\":1438:1509   */\n      tag_28\n      jump\t// in\n    tag_61:\n        /* \"#utility.yul\":1294:1516   */\n      swap3\n      swap2\n      pop\n      pop\n      jump\t// out\n        /* \"#utility.yul\":1522:1648   */\n    tag_29:\n        /* \"#utility.yul\":1559:1566   */\n      0x00\n        /* \"#utility.yul\":1599:1641   */\n      0xffffffffffffffffffffffffffffffffffffffff\n        /* \"#utility.yul\":1592:1597   */\n      dup3\n        /* \"#utility.yul\":1588:1642   */\n      and\n        /* \"#utility.yul\":1577:1642   */\n      swap1\n      pop\n        /* \"#utility.yul\":1522:1648   */\n      swap2\n      swap1\n      pop\n      jump\t// out\n        /* \"#utility.yul\":1654:1714   */\n    tag_30:\n        /* \"#utility.yul\":1682:1685   */\n      0x00\n        /* \"#utility.yul\":1703:1708   */\n      dup2\n        /* \"#utility.yul\":1696:1708   */\n      swap1\n      pop\n        /* \"#utility.yul\":1654:1714   */\n      swap2\n      swap1\n      pop\n      jump\t// out\n        /* \"#utility.yul\":1720:1862   */\n    tag_31:\n        /* \"#utility.yul\":1770:1779   */\n      0x00\n        /* \"#utility.yul\":1803:1856   */\n      tag_65\n        /* \"#utility.yul\":1821:1855   */\n      tag_66\n        /* \"#utility.yul\":1830:1854   */\n      tag_67\n        /* \"#utility.yul\":1848:1853   */\n      dup5\n        /* \"#utility.yul\":1830:1854   */\n      tag_29\n      jump\t// in\n    tag_67:\n        /* \"#utility.yul\":1821:1855   */\n      tag_30\n      jump\t// in\n    tag_66:\n        /* \"#utility.yul\":1803:1856   */\n      tag_29\n      jump\t// in\n    tag_65:\n        /* \"#utility.yul\":1790:1856   */\n      swap1\n      pop\n        /* \"#utility.yul\":1720:1862   */\n      swap2\n      swap1\n      pop\n      jump\t// out\n        /* \"#utility.yul\":1868:1994   */\n    tag_32:\n        /* \"#utility.yul\":1918:1927   */\n      0x00\n        /* \"#utility.yul\":1951:1988   */\n      tag_69\n        /* \"#utility.yul\":1982:1987   */\n      dup3\n        /* \"#utility.yul\":1951:1988   */\n      tag_31\n      jump\t// in\n    tag_69:\n        /* \"#utility.yul\":1938:1988   */\n      swap1\n      pop\n        /* \"#utility.yul\":1868:1994   */\n      swap2\n      swap1\n      pop\n      jump\t// out\n        /* \"#utility.yul\":2000:2144   */\n    tag_33:\n        /* \"#utility.yul\":2068:2077   */\n      0x00\n        /* \"#utility.yul\":2101:2138   */\n      tag_71\n        /* \"#utility.yul\":2132:2137   */\n      dup3\n        /* \"#utility.yul\":2101:2138   */\n      tag_32\n      jump\t// in\n    tag_71:\n        /* \"#utility.yul\":2088:2138   */\n      swap1\n      pop\n        /* \"#utility.yul\":2000:2144   */\n      swap2\n      swap1\n      pop\n      jump\t// out\n        /* \"#utility.yul\":2150:2317   */\n    tag_34:\n        /* \"#utility.yul\":2255:2310   */\n      tag_73\n        /* \"#utility.yul\":2304:2309   */\n      dup2\n        /* \"#utility.yul\":2255:2310   */\n      tag_33\n      jump\t// in\n    tag_73:\n        /* \"#utility.yul\":2250:2253   */\n      dup3\n        /* \"#utility.yul\":2243:2311   */\n      mstore\n        /* \"#utility.yul\":2150:2317   */\n      pop\n      pop\n      jump\t// out\n        /* \"#utility.yul\":2323:2581   */\n    tag_14:\n        /* \"#utility.yul\":2434:2438   */\n      0x00\n        /* \"#utility.yul\":2472:2474   */\n      0x20\n        /* \"#utility.yul\":2461:2470   */\n      dup3\n        /* \"#utility.yul\":2457:2475   */\n      add\n        /* \"#utility.yul\":2449:2475   */\n      swap1\n      pop\n        /* \"#utility.yul\":2485:2574   */\n      tag_75\n        /* \"#utility.yul\":2571:2572   */\n      0x00\n        /* \"#utility.yul\":2560:2569   */\n      dup4\n        /* \"#utility.yul\":2556:2573   */\n      add\n        /* \"#utility.yul\":2547:2553   */\n      dup5\n        /* \"#utility.yul\":2485:2574   */\n      tag_34\n      jump\t// in\n    tag_75:\n        /* \"#utility.yul\":2323:2581   */\n      swap3\n      swap2\n      pop\n      pop\n      jump\t// out\n        /* \"#utility.yul\":2587:2691   */\n    tag_35:\n        /* \"#utility.yul\":2652:2658   */\n      0x00\n        /* \"#utility.yul\":2680:2684   */\n      0x02\n        /* \"#utility.yul\":2670:2684   */\n      swap1\n      pop\n        /* \"#utility.yul\":2587:2691   */\n      swap2\n      swap1\n      pop\n      jump\t// out\n        /* \"#utility.yul\":2697:2840   */\n    tag_36:\n        /* \"#utility.yul\":2794:2805   */\n      0x00\n        /* \"#utility.yul\":2831:2834   */\n      dup2\n        /* \"#utility.yul\":2816:2834   */\n      swap1\n      pop\n        /* \"#utility.yul\":2697:2840   */\n      swap3\n      swap2\n      pop\n      pop\n      jump\t// out\n        /* \"#utility.yul\":2846:2944   */\n    tag_37:\n        /* \"#utility.yul\":2911:2915   */\n      0x00\n        /* \"#utility.yul\":2934:2937   */\n      dup2\n        /* \"#utility.yul\":2926:2937   */\n      swap1\n      pop\n        /* \"#utility.yul\":2846:2944   */\n      swap2\n      swap1\n      pop\n      jump\t// out\n        /* \"#utility.yul\":2950:3058   */\n    tag_38:\n        /* \"#utility.yul\":3027:3051   */\n      tag_80\n        /* \"#utility.yul\":3045:3050   */\n      dup2\n        /* \"#utility.yul\":3027:3051   */\n      tag_25\n      jump\t// in\n    tag_80:\n        /* \"#utility.yul\":3022:3025   */\n      dup3\n        /* \"#utility.yul\":3015:3052   */\n      mstore\n        /* \"#utility.yul\":2950:3058   */\n      pop\n      pop\n      jump\t// out\n        /* \"#utility.yul\":3064:3243   */\n    tag_39:\n        /* \"#utility.yul\":3133:3143   */\n      0x00\n        /* \"#utility.yul\":3154:3200   */\n      tag_82\n        /* \"#utility.yul\":3196:3199   */\n      dup4\n        /* \"#utility.yul\":3188:3194   */\n      dup4\n        /* \"#utility.yul\":3154:3200   */\n      tag_38\n      jump\t// in\n    tag_82:\n        /* \"#utility.yul\":3232:3236   */\n      0x20\n        /* \"#utility.yul\":3227:3230   */\n      dup4\n        /* \"#utility.yul\":3223:3237   */\n      add\n        /* \"#utility.yul\":3209:3237   */\n      swap1\n      pop\n        /* \"#utility.yul\":3064:3243   */\n      swap3\n      swap2\n      pop\n      pop\n      jump\t// out\n        /* \"#utility.yul\":3249:3360   */\n    tag_40:\n        /* \"#utility.yul\":3317:3321   */\n      0x00\n        /* \"#utility.yul\":3349:3353   */\n      0x20\n        /* \"#utility.yul\":3344:3347   */\n      dup3\n        /* \"#utility.yul\":3340:3354   */\n      add\n        /* \"#utility.yul\":3332:3354   */\n      swap1\n      pop\n        /* \"#utility.yul\":3249:3360   */\n      swap2\n      swap1\n      pop\n      jump\t// out\n        /* \"#utility.yul\":3398:4092   */\n    tag_41:\n        /* \"#utility.yul\":3534:3586   */\n      tag_85\n        /* \"#utility.yul\":3580:3585   */\n      dup2\n        /* \"#utility.yul\":3534:3586   */\n      tag_35\n      jump\t// in\n    tag_85:\n        /* \"#utility.yul\":3602:3686   */\n      tag_86\n        /* \"#utility.yul\":3679:3685   */\n      dup2\n        /* \"#utility.yul\":3674:3677   */\n      dup5\n        /* \"#utility.yul\":3602:3686   */\n      tag_36\n      jump\t// in\n    tag_86:\n        /* \"#utility.yul\":3595:3686   */\n      swap3\n      pop\n        /* \"#utility.yul\":3710:3764   */\n      tag_87\n        /* \"#utility.yul\":3758:3763   */\n      dup3\n        /* \"#utility.yul\":3710:3764   */\n      tag_37\n      jump\t// in\n    tag_87:\n        /* \"#utility.yul\":3787:3794   */\n      dup1\n        /* \"#utility.yul\":3818:3819   */\n      0x00\n        /* \"#utility.yul\":3803:4085   */\n    tag_88:\n        /* \"#utility.yul\":3828:3834   */\n      dup4\n        /* \"#utility.yul\":3825:3826   */\n      dup2\n        /* \"#utility.yul\":3822:3835   */\n      lt\n        /* \"#utility.yul\":3803:4085   */\n      iszero\n      tag_90\n      jumpi\n        /* \"#utility.yul\":3904:3910   */\n      dup2\n        /* \"#utility.yul\":3898:3911   */\n      mload\n        /* \"#utility.yul\":3931:3994   */\n      tag_91\n        /* \"#utility.yul\":3990:3993   */\n      dup8\n        /* \"#utility.yul\":3975:3988   */\n      dup3\n        /* \"#utility.yul\":3931:3994   */\n      tag_39\n      jump\t// in\n    tag_91:\n        /* \"#utility.yul\":3924:3994   */\n      swap7\n      pop\n        /* \"#utility.yul\":4017:4075   */\n      tag_92\n        /* \"#utility.yul\":4068:4074   */\n      dup4\n        /* \"#utility.yul\":4017:4075   */\n      tag_40\n      jump\t// in\n    tag_92:\n        /* \"#utility.yul\":4007:4075   */\n      swap3\n      pop\n        /* \"#utility.yul\":3863:4085   */\n      pop\n        /* \"#utility.yul\":3850:3851   */\n      0x01\n        /* \"#utility.yul\":3847:3848   */\n      dup2\n        /* \"#utility.yul\":3843:3852   */\n      add\n        /* \"#utility.yul\":3838:3852   */\n      swap1\n      pop\n        /* \"#utility.yul\":3803:4085   */\n      jump(tag_88)\n    tag_90:\n        /* \"#utility.yul\":3807:3821   */\n      pop\n        /* \"#utility.yul\":3510:4092   */\n      pop\n      pop\n      pop\n        /* \"#utility.yul\":3398:4092   */\n      pop\n      pop\n      jump\t// out\n        /* \"#utility.yul\":4098:4412   */\n    tag_17:\n        /* \"#utility.yul\":4237:4241   */\n      0x00\n        /* \"#utility.yul\":4275:4277   */\n      0x40\n        /* \"#utility.yul\":4264:4273   */\n      dup3\n        /* \"#utility.yul\":4260:4278   */\n      add\n        /* \"#utility.yul\":4252:4278   */\n      swap1\n      pop\n        /* \"#utility.yul\":4288:4405   */\n      tag_94\n        /* \"#utility.yul\":4402:4403   */\n      0x00\n        /* \"#utility.yul\":4391:4400   */\n      dup4\n        /* \"#utility.yul\":4387:4404   */\n      add\n        /* \"#utility.yul\":4378:4384   */\n      dup5\n        /* \"#utility.yul\":4288:4405   */\n      tag_41\n      jump\t// in\n    tag_94:\n        /* \"#utility.yul\":4098:4412   */\n      swap3\n      swap2\n      pop\n      pop\n      jump\t// out\n        /* \"#utility.yul\":4418:4561   */\n    tag_42:\n        /* \"#utility.yul\":4475:4480   */\n      0x00\n        /* \"#utility.yul\":4506:4512   */\n      dup2\n        /* \"#utility.yul\":4500:4513   */\n      mload\n        /* \"#utility.yul\":4491:4513   */\n      swap1\n      pop\n        /* \"#utility.yul\":4522:4555   */\n      tag_96\n        /* \"#utility.yul\":4549:4554   */\n      dup2\n        /* \"#utility.yul\":4522:4555   */\n      tag_26\n      jump\t// in\n    tag_96:\n        /* \"#utility.yul\":4418:4561   */\n      swap3\n      swap2\n      pop\n      pop\n      jump\t// out\n        /* \"#utility.yul\":4567:4918   */\n    tag_21:\n        /* \"#utility.yul\":4637:4643   */\n      0x00\n        /* \"#utility.yul\":4686:4688   */\n      0x20\n        /* \"#utility.yul\":4674:4683   */\n      dup3\n        /* \"#utility.yul\":4665:4672   */\n      dup5\n        /* \"#utility.yul\":4661:4684   */\n      sub\n        /* \"#utility.yul\":4657:4689   */\n      slt\n        /* \"#utility.yul\":4654:4773   */\n      iszero\n      tag_98\n      jumpi\n        /* \"#utility.yul\":4692:4771   */\n      tag_99\n      tag_23\n      jump\t// in\n    tag_99:\n        /* \"#utility.yul\":4654:4773   */\n    tag_98:\n        /* \"#utility.yul\":4812:4813   */\n      0x00\n        /* \"#utility.yul\":4837:4901   */\n      tag_100\n        /* \"#utility.yul\":4893:4900   */\n      dup5\n        /* \"#utility.yul\":4884:4890   */\n      dup3\n        /* \"#utility.yul\":4873:4882   */\n      dup6\n        /* \"#utility.yul\":4869:4891   */\n      add\n        /* \"#utility.yul\":4837:4901   */\n      tag_42\n      jump\t// in\n    tag_100:\n        /* \"#utility.yul\":4827:4901   */\n      swap2\n      pop\n        /* \"#utility.yul\":4783:4911   */\n      pop\n        /* \"#utility.yul\":4567:4918   */\n      swap3\n      swap2\n      pop\n      pop\n      jump\t// out\n\n    auxdata: 0xa2646970667358221220ded5653f393a827821e0db07f907b3aaf69eca008b58fe0fc48803ccd898852a64736f6c634300081f0033\n}\n",
				"bytecode": {
					"linkReferences": {},
					"object": "60a060405234801561000f575f5ffd5b506040516104d93803806104d9833981810160405281019061003191906100c9565b8073ffffffffffffffffffffffffffffffffffffffff1660808173ffffffffffffffffffffffffffffffffffffffff1681525050506100f4565b5f5ffd5b5f73ffffffffffffffffffffffffffffffffffffffff82169050919050565b5f6100988261006f565b9050919050565b6100a88161008e565b81146100b2575f5ffd5b50565b5f815190506100c38161009f565b92915050565b5f602082840312156100de576100dd61006b565b5b5f6100eb848285016100b5565b91505092915050565b6080516103c76101125f395f8181608a015261014201526103c75ff3fe608060405234801561000f575f5ffd5b5060043610610034575f3560e01c80638234324514610038578063c62b919e14610068575b5f5ffd5b610052600480360381019061004d919061019b565b610086565b60405161005f91906101e8565b60405180910390f35b610070610140565b60405161007d919061027b565b60405180910390f35b5f5f7f000000000000000000000000000000000000000000000000000000000000000073ffffffffffffffffffffffffffffffffffffffff166329a5f2f66040518060400160405280878152602001868152506040518263ffffffff1660e01b81526004016100f59190610339565b602060405180830381865afa158015610110573d5f5f3e3d5ffd5b505050506040513d601f19601f820116820180604052508101906101349190610366565b90508091505092915050565b7f000000000000000000000000000000000000000000000000000000000000000081565b5f5ffd5b5f819050919050565b61017a81610168565b8114610184575f5ffd5b50565b5f8135905061019581610171565b92915050565b5f5f604083850312156101b1576101b0610164565b5b5f6101be85828601610187565b92505060206101cf85828601610187565b9150509250929050565b6101e281610168565b82525050565b5f6020820190506101fb5f8301846101d9565b92915050565b5f73ffffffffffffffffffffffffffffffffffffffff82169050919050565b5f819050919050565b5f61024361023e61023984610201565b610220565b610201565b9050919050565b5f61025482610229565b9050919050565b5f6102658261024a565b9050919050565b6102758161025b565b82525050565b5f60208201905061028e5f83018461026c565b92915050565b5f60029050919050565b5f81905092915050565b5f819050919050565b6102ba81610168565b82525050565b5f6102cb83836102b1565b60208301905092915050565b5f602082019050919050565b6102ec81610294565b6102f6818461029e565b9250610301826102a8565b805f5b8381101561033157815161031887826102c0565b9650610323836102d7565b925050600181019050610304565b505050505050565b5f60408201905061034c5f8301846102e3565b92915050565b5f8151905061036081610171565b92915050565b5f6020828403121561037b5761037a610164565b5b5f61038884828501610352565b9150509291505056fea2646970667358221220ded5653f393a827821e0db07f907b3aaf69eca008b58fe0fc48803ccd898852a64736f6c634300081f0033",
					"opcodes": "PUSH1 0xA0 PUSH1 0x40 MSTORE CALLVALUE DUP1 ISZERO PUSH2 0xF JUMPI PUSH0 PUSH0 REVERT JUMPDEST POP PUSH1 0x40 MLOAD PUSH2 0x4D9 CODESIZE SUB DUP1 PUSH2 0x4D9 DUP4 CODECOPY DUP2 DUP2 ADD PUSH1 0x40 MSTORE DUP2 ADD SWAP1 PUSH2 0x31 SWAP2 SWAP1 PUSH2 0xC9 JUMP JUMPDEST DUP1 PUSH20 0xFFFFFFFFFFFFFFFFFFFFFFFFFFFFFFFFFFFFFFFF AND PUSH1 0x80 DUP2 PUSH20 0xFFFFFFFFFFFFFFFFFFFFFFFFFFFFFFFFFFFFFFFF AND DUP2 MSTORE POP POP POP PUSH2 0xF4 JUMP JUMPDEST PUSH0 PUSH0 REVERT JUMPDEST PUSH0 PUSH20 0xFFFFFFFFFFFFFFFFFFFFFFFFFFFFFFFFFFFFFFFF DUP3 AND SWAP1 POP SWAP2 SWAP1 POP JUMP JUMPDEST PUSH0 PUSH2 0x98 DUP3 PUSH2 0x6F JUMP JUMPDEST SWAP1 POP SWAP2 SWAP1 POP JUMP JUMPDEST PUSH2 0xA8 DUP2 PUSH2 0x8E JUMP JUMPDEST DUP2 EQ PUSH2 0xB2 JUMPI PUSH0 PUSH0 REVERT JUMPDEST POP JUMP JUMPDEST PUSH0 DUP2 MLOAD SWAP1 POP PUSH2 0xC3 DUP2 PUSH2 0x9F JUMP JUMPDEST SWAP3 SWAP2 POP POP JUMP JUMPDEST PUSH0 PUSH1 0x20 DUP3 DUP5 SUB SLT ISZERO PUSH2 0xDE JUMPI PUSH2 0xDD PUSH2 0x6B JUMP JUMPDEST JUMPDEST PUSH0 PUSH2 0xEB DUP5 DUP3 DUP6 ADD PUSH2 0xB5 JUMP JUMPDEST SWAP2 POP POP SWAP3 SWAP2 POP POP JUMP JUMPDEST PUSH1 0x80 MLOAD PUSH2 0x3C7 PUSH2 0x112 PUSH0 CODECOPY PUSH0 DUP2 DUP2 PUSH1 0x8A ADD MSTORE PUSH2 0x142 ADD MSTORE PUSH2 0x3C7 PUSH0 RETURN INVALID PUSH1 0x80 PUSH1 0x40 MSTORE CALLVALUE DUP1 ISZERO PUSH2 0xF JUMPI PUSH0 PUSH0 REVERT JUMPDEST POP PUSH1 0x4 CALLDATASIZE LT PUSH2 0x34 JUMPI PUSH0 CALLDATALOAD PUSH1 0xE0 SHR DUP1 PUSH4 0x82343245 EQ PUSH2 0x38 JUMPI DUP1 PUSH4 0xC62B919E EQ PUSH2 0x68 JUMPI JUMPDEST PUSH0 PUSH0 REVERT JUMPDEST PUSH2 0x52 PUSH1 0x4 DUP1 CALLDATASIZE SUB DUP2 ADD SWAP1 PUSH2 0x4D SWAP2 SWAP1 PUSH2 0x19B JUMP JUMPDEST PUSH2 0x86 JUMP JUMPDEST PUSH1 0x40 MLOAD PUSH2 0x5F SWAP2 SWAP1 PUSH2 0x1E8 JUMP JUMPDEST PUSH1 0x40 MLOAD DUP1 SWAP2 SUB SWAP1 RETURN JUMPDEST PUSH2 0x70 PUSH2 0x140 JUMP JUMPDEST PUSH1 0x40 MLOAD PUSH2 0x7D SWAP2 SWAP1 PUSH2 0x27B JUMP JUMPDEST PUSH1 0x40 MLOAD DUP1 SWAP2 SUB SWAP1 RETURN JUMPDEST PUSH0 PUSH0 PUSH32 0x0 PUSH20 0xFFFFFFFFFFFFFFFFFFFFFFFFFFFFFFFFFFFFFFFF AND PUSH4 0x29A5F2F6 PUSH1 0x40 MLOAD DUP1 PUSH1 0x40 ADD PUSH1 0x40 MSTORE DUP1 DUP8 DUP2 MSTORE PUSH1 0x20 ADD DUP7 DUP2 MSTORE POP PUSH1 0x40 MLOAD DUP3 PUSH4 0xFFFFFFFF AND PUSH1 0xE0 SHL DUP2 MSTORE PUSH1 0x4 ADD PUSH2 0xF5 SWAP2 SWAP1 PUSH2 0x339 JUMP JUMPDEST PUSH1 0x20 PUSH1 0x40 MLOAD DUP1 DUP4 SUB DUP2 DUP7 GAS STATICCALL ISZERO DUP1 ISZERO PUSH2 0x110 JUMPI RETURNDATASIZE PUSH0 PUSH0 RETURNDATACOPY RETURNDATASIZE PUSH0 REVERT JUMPDEST POP POP POP POP PUSH1 0x40 MLOAD RETURNDATASIZE PUSH1 0x1F NOT PUSH1 0x1F DUP3 ADD AND DUP3 ADD DUP1 PUSH1 0x40 MSTORE POP DUP2 ADD SWAP1 PUSH2 0x134 SWAP2 SWAP1 PUSH2 0x366 JUMP JUMPDEST SWAP1 POP DUP1 SWAP2 POP POP SWAP3 SWAP2 POP POP JUMP JUMPDEST PUSH32 0x0 DUP2 JUMP JUMPDEST PUSH0 PUSH0 REVERT JUMPDEST PUSH0 DUP2 SWAP1 POP SWAP2 SWAP1 POP JUMP JUMPDEST PUSH2 0x17A DUP2 PUSH2 0x168 JUMP JUMPDEST DUP2 EQ PUSH2 0x184 JUMPI PUSH0 PUSH0 REVERT JUMPDEST POP JUMP JUMPDEST PUSH0 DUP2 CALLDATALOAD SWAP1 POP PUSH2 0x195 DUP2 PUSH2 0x171 JUMP JUMPDEST SWAP3 SWAP2 POP POP JUMP JUMPDEST PUSH0 PUSH0 PUSH1 0x40 DUP4 DUP6 SUB SLT ISZERO PUSH2 0x1B1 JUMPI PUSH2 0x1B0 PUSH2 0x164 JUMP JUMPDEST JUMPDEST PUSH0 PUSH2 0x1BE DUP6 DUP3 DUP7 ADD PUSH2 0x187 JUMP JUMPDEST SWAP3 POP POP PUSH1 0x20 PUSH2 0x1CF DUP6 DUP3 DUP7 ADD PUSH2 0x187 JUMP JUMPDEST SWAP2 POP POP SWAP3 POP SWAP3 SWAP1 POP JUMP JUMPDEST PUSH2 0x1E2 DUP2 PUSH2 0x168 JUMP JUMPDEST DUP3 MSTORE POP POP JUMP JUMPDEST PUSH0 PUSH1 0x20 DUP3 ADD SWAP1 POP PUSH2 0x1FB PUSH0 DUP4 ADD DUP5 PUSH2 0x1D9 JUMP JUMPDEST SWAP3 SWAP2 POP POP JUMP JUMPDEST PUSH0 PUSH20 0xFFFFFFFFFFFFFFFFFFFFFFFFFFFFFFFFFFFFFFFF DUP3 AND SWAP1 POP SWAP2 SWAP1 POP JUMP JUMPDEST PUSH0 DUP2 SWAP1 POP SWAP2 SWAP1 POP JUMP JUMPDEST PUSH0 PUSH2 0x243 PUSH2 0x23E PUSH2 0x239 DUP5 PUSH2 0x201 JUMP JUMPDEST PUSH2 0x220 JUMP JUMPDEST PUSH2 0x201 JUMP JUMPDEST SWAP1 POP SWAP2 SWAP1 POP JUMP JUMPDEST PUSH0 PUSH2 0x254 DUP3 PUSH2 0x229 JUMP JUMPDEST SWAP1 POP SWAP2 SWAP1 POP JUMP JUMPDEST PUSH0 PUSH2 0x265 DUP3 PUSH2 0x24A JUMP JUMPDEST SWAP1 POP SWAP2 SWAP1 POP JUMP JUMPDEST PUSH2 0x275 DUP2 PUSH2 0x25B JUMP JUMPDEST DUP3 MSTORE POP POP JUMP JUMPDEST PUSH0 PUSH1 0x20 DUP3 ADD SWAP1 POP PUSH2 0x28E PUSH0 DUP4 ADD DUP5 PUSH2 0x26C JUMP JUMPDEST SWAP3 SWAP2 POP POP JUMP JUMPDEST PUSH0 PUSH1 0x2 SWAP1 POP SWAP2 SWAP1 POP JUMP JUMPDEST PUSH0 DUP2 SWAP1 POP SWAP3 SWAP2 POP POP JUMP JUMPDEST PUSH0 DUP2 SWAP1 POP SWAP2 SWAP1 POP JUMP JUMPDEST PUSH2 0x2BA DUP2 PUSH2 0x168 JUMP JUMPDEST DUP3 MSTORE POP POP JUMP JUMPDEST PUSH0 PUSH2 0x2CB DUP4 DUP4 PUSH2 0x2B1 JUMP JUMPDEST PUSH1 0x20 DUP4 ADD SWAP1 POP SWAP3 SWAP2 POP POP JUMP JUMPDEST PUSH0 PUSH1 0x20 DUP3 ADD SWAP1 POP SWAP2 SWAP1 POP JUMP JUMPDEST PUSH2 0x2EC DUP2 PUSH2 0x294 JUMP JUMPDEST PUSH2 0x2F6 DUP2 DUP5 PUSH2 0x29E JUMP JUMPDEST SWAP3 POP PUSH2 0x301 DUP3 PUSH2 0x2A8 JUMP JUMPDEST DUP1 PUSH0 JUMPDEST DUP4 DUP2 LT ISZERO PUSH2 0x331 JUMPI DUP2 MLOAD PUSH2 0x318 DUP8 DUP3 PUSH2 0x2C0 JUMP JUMPDEST SWAP7 POP PUSH2 0x323 DUP4 PUSH2 0x2D7 JUMP JUMPDEST SWAP3 POP POP PUSH1 0x1 DUP2 ADD SWAP1 POP PUSH2 0x304 JUMP JUMPDEST POP POP POP POP POP POP JUMP JUMPDEST PUSH0 PUSH1 0x40 DUP3 ADD SWAP1 POP PUSH2 0x34C PUSH0 DUP4 ADD DUP5 PUSH2 0x2E3 JUMP JUMPDEST SWAP3 SWAP2 POP POP JUMP JUMPDEST PUSH0 DUP2 MLOAD SWAP1 POP PUSH2 0x360 DUP2 PUSH2 0x171 JUMP JUMPDEST SWAP3 SWAP2 POP POP JUMP JUMPDEST PUSH0 PUSH1 0x20 DUP3 DUP5 SUB SLT ISZERO PUSH2 0x37B JUMPI PUSH2 0x37A PUSH2 0x164 JUMP JUMPDEST JUMPDEST PUSH0 PUSH2 0x388 DUP5 DUP3 DUP6 ADD PUSH2 0x352 JUMP JUMPDEST SWAP2 POP POP SWAP3 SWAP2 POP POP JUMP INVALID LOG2 PUSH5 0x6970667358 0x22 SLT KECCAK256 0xDE 0xD5 PUSH6 0x3F393A827821 RJUMP 0xDB07 EXTDELEGATECALL SMOD 0xB3 0xAA 0xF6 SWAP15 0xCA STOP DUP12 PC INVALID 0xF 0xC4 DUP9 SUB 0xCC 0xD8 SWAP9 DUP6 0x2A PUSH5 0x736F6C6343 STOP ADDMOD 0x1F STOP CALLER "
				},
				"gasEstimates": {
					"creation": {
						"codeDepositCost": "193400",
						"executionCost": "infinite",
						"totalCost": "infinite"
					},
					"external": {
						"poseidon()": "infinite",
						"poseidon_hash(uint256,uint256)": "infinite"
					}
				},
				"methodIdentifiers": {
					"poseidon()": "c62b919e",
					"poseidon_hash(uint256,uint256)": "82343245"
				}
			},
			"storageLayout": {
				"storage": [],
				"types": null
			},
			"userdoc": {
				"kind": "user",
				"methods": {},
				"version": 1
			}
		}
	}
}