{
	"helpers/ByteCodeDeployer.sol": {
		"BytecodeDeployer": {
			"abi": [
				{
					"anonymous": false,
					"inputs": [
						{
							"indexed": false,
							"internalType": "address",
							"name": "addr",
							"type": "address"
						}
					],
					"name": "Deployed",
					"type": "event"
				},
				{
					"inputs": [
						{
							"internalType": "bytes",
							"name": "bytecode",
							"type": "bytes"
						}
					],
					"name": "deploy",
					"outputs": [
						{
							"internalType": "address",
							"name": "addr",
							"type": "address"
						}
					],
					"stateMutability": "nonpayable",
					"type": "function"
				}
			],
			"devdoc": {
				"kind": "dev",
				"methods": {},
				"version": 1
			},
			"evm": {
				"assembly": "    /* \"helpers/ByteCodeDeployer.sol\":61:398  contract BytecodeDeployer {... */\n  mstore(0x40, 0x80)\n  callvalue\n  dup1\n  iszero\n  tag_1\n  jumpi\n  revert(0x00, 0x00)\ntag_1:\n  pop\n  dataSize(sub_0)\n  dup1\n  dataOffset(sub_0)\n  0x00\n  codecopy\n  0x00\n  return\nstop\n\nsub_0: assembly {\n        /* \"helpers/ByteCodeDeployer.sol\":61:398  contract BytecodeDeployer {... */\n      mstore(0x40, 0x80)\n      callvalue\n      dup1\n      iszero\n      tag_1\n      jumpi\n      revert(0x00, 0x00)\n    tag_1:\n      pop\n      jumpi(tag_2, lt(calldatasize, 0x04))\n      shr(0xe0, calldataload(0x00))\n      dup1\n      0x774360\n      eq\n      tag_3\n      jumpi\n    tag_2:\n      revert(0x00, 0x00)\n        /* \"helpers/ByteCodeDeployer.sol\":131:395  function deploy(bytes memory bytecode) external returns (address addr) {... */\n    tag_3:\n      tag_4\n      0x04\n      dup1\n      calldatasize\n      sub\n      dup2\n      add\n      swap1\n      tag_5\n      swap2\n      swap1\n      tag_6\n      jump\t// in\n    tag_5:\n      tag_7\n      jump\t// in\n    tag_4:\n      mload(0x40)\n      tag_8\n      swap2\n      swap1\n      tag_9\n      jump\t// in\n    tag_8:\n      mload(0x40)\n      dup1\n      swap2\n      sub\n      swap1\n      return\n    tag_7:\n        /* \"helpers/ByteCodeDeployer.sol\":188:200  address addr */\n      0x00\n        /* \"helpers/ByteCodeDeployer.sol\":282:290  bytecode */\n      dup2\n        /* \"helpers/ByteCodeDeployer.sol\":276:291  mload(bytecode) */\n      mload\n        /* \"helpers/ByteCodeDeployer.sol\":269:273  0x20 */\n      0x20\n        /* \"helpers/ByteCodeDeployer.sol\":259:267  bytecode */\n      dup4\n        /* \"helpers/ByteCodeDeployer.sol\":255:274  add(bytecode, 0x20) */\n      add\n        /* \"helpers/ByteCodeDeployer.sol\":252:253  0 */\n      0x00\n        /* \"helpers/ByteCodeDeployer.sol\":245:292  create(0, add(bytecode, 0x20), mload(bytecode)) */\n      create\n        /* \"helpers/ByteCodeDeployer.sol\":237:292  addr := create(0, add(bytecode, 0x20), mload(bytecode)) */\n      swap1\n      pop\n        /* \"helpers/ByteCodeDeployer.sol\":337:338  0 */\n      0x00\n        /* \"helpers/ByteCodeDeployer.sol\":321:339  addr != address(0) */\n      0xffffffffffffffffffffffffffffffffffffffff\n      and\n        /* \"helpers/ByteCodeDeployer.sol\":321:325  addr */\n      dup2\n        /* \"helpers/ByteCodeDeployer.sol\":321:339  addr != address(0) */\n      0xffffffffffffffffffffffffffffffffffffffff\n      and\n      sub\n        /* \"helpers/ByteCodeDeployer.sol\":313:357  require(addr != address(0), \"Deploy failed\") */\n      tag_11\n      jumpi\n      mload(0x40)\n      0x08c379a000000000000000000000000000000000000000000000000000000000\n      dup2\n      mstore\n      0x04\n      add\n      tag_12\n      swap1\n      tag_13\n      jump\t// in\n    tag_12:\n      mload(0x40)\n      dup1\n      swap2\n      sub\n      swap1\n      revert\n    tag_11:\n        /* \"helpers/ByteCodeDeployer.sol\":373:387  Deployed(addr) */\n      0xf40fcec21964ffb566044d083b4073f29f7f7929110ea19e1b3ebe375d89055e\n        /* \"helpers/ByteCodeDeployer.sol\":382:386  addr */\n      dup2\n        /* \"helpers/ByteCodeDeployer.sol\":373:387  Deployed(addr) */\n      mload(0x40)\n      tag_14\n      swap2\n      swap1\n      tag_9\n      jump\t// in\n    tag_14:\n      mload(0x40)\n      dup1\n      swap2\n      sub\n      swap1\n      log1\n        /* \"helpers/ByteCodeDeployer.sol\":131:395  function deploy(bytes memory bytecode) external returns (address addr) {... */\n      swap2\n      swap1\n      pop\n      jump\t// out\n        /* \"#utility.yul\":7:82   */\n    tag_15:\n        /* \"#utility.yul\":40:46   */\n      0x00\n        /* \"#utility.yul\":73:75   */\n      0x40\n        /* \"#utility.yul\":67:76   */\n      mload\n        /* \"#utility.yul\":57:76   */\n      swap1\n      pop\n        /* \"#utility.yul\":7:82   */\n      swap1\n      jump\t// out\n        /* \"#utility.yul\":88:205   */\n    tag_16:\n        /* \"#utility.yul\":197:198   */\n      0x00\n        /* \"#utility.yul\":194:195   */\n      0x00\n        /* \"#utility.yul\":187:199   */\n      revert\n        /* \"#utility.yul\":211:328   */\n    tag_17:\n        /* \"#utility.yul\":320:321   */\n      0x00\n        /* \"#utility.yul\":317:318   */\n      0x00\n        /* \"#utility.yul\":310:322   */\n      revert\n        /* \"#utility.yul\":334:451   */\n    tag_18:\n        /* \"#utility.yul\":443:444   */\n      0x00\n        /* \"#utility.yul\":440:441   */\n      0x00\n        /* \"#utility.yul\":433:445   */\n      revert\n        /* \"#utility.yul\":457:574   */\n    tag_19:\n        /* \"#utility.yul\":566:567   */\n      0x00\n        /* \"#utility.yul\":563:564   */\n      0x00\n        /* \"#utility.yul\":556:568   */\n      revert\n        /* \"#utility.yul\":580:682   */\n    tag_20:\n        /* \"#utility.yul\":621:627   */\n      0x00\n        /* \"#utility.yul\":672:674   */\n      0x1f\n        /* \"#utility.yul\":668:675   */\n      not\n        /* \"#utility.yul\":663:665   */\n      0x1f\n        /* \"#utility.yul\":656:661   */\n      dup4\n        /* \"#utility.yul\":652:666   */\n      add\n        /* \"#utility.yul\":648:676   */\n      and\n        /* \"#utility.yul\":638:676   */\n      swap1\n      pop\n        /* \"#utility.yul\":580:682   */\n      swap2\n      swap1\n      pop\n      jump\t// out\n        /* \"#utility.yul\":688:868   */\n    tag_21:\n        /* \"#utility.yul\":736:813   */\n      0x4e487b7100000000000000000000000000000000000000000000000000000000\n        /* \"#utility.yul\":733:734   */\n      0x00\n        /* \"#utility.yul\":726:814   */\n      mstore\n        /* \"#utility.yul\":833:837   */\n      0x41\n        /* \"#utility.yul\":830:831   */\n      0x04\n        /* \"#utility.yul\":823:838   */\n      mstore\n        /* \"#utility.yul\":857:861   */\n      0x24\n        /* \"#utility.yul\":854:855   */\n      0x00\n        /* \"#utility.yul\":847:862   */\n      revert\n        /* \"#utility.yul\":874:1155   */\n    tag_22:\n        /* \"#utility.yul\":957:984   */\n      tag_43\n        /* \"#utility.yul\":979:983   */\n      dup3\n        /* \"#utility.yul\":957:984   */\n      tag_20\n      jump\t// in\n    tag_43:\n        /* \"#utility.yul\":949:955   */\n      dup2\n        /* \"#utility.yul\":945:985   */\n      add\n        /* \"#utility.yul\":1087:1093   */\n      dup2\n        /* \"#utility.yul\":1075:1085   */\n      dup2\n        /* \"#utility.yul\":1072:1094   */\n      lt\n        /* \"#utility.yul\":1051:1069   */\n      0xffffffffffffffff\n        /* \"#utility.yul\":1039:1049   */\n      dup3\n        /* \"#utility.yul\":1036:1070   */\n      gt\n        /* \"#utility.yul\":1033:1095   */\n      or\n        /* \"#utility.yul\":1030:1118   */\n      iszero\n      tag_44\n      jumpi\n        /* \"#utility.yul\":1098:1116   */\n      tag_45\n      tag_21\n      jump\t// in\n    tag_45:\n        /* \"#utility.yul\":1030:1118   */\n    tag_44:\n        /* \"#utility.yul\":1138:1148   */\n      dup1\n        /* \"#utility.yul\":1134:1136   */\n      0x40\n        /* \"#utility.yul\":1127:1149   */\n      mstore\n        /* \"#utility.yul\":917:1155   */\n      pop\n        /* \"#utility.yul\":874:1155   */\n      pop\n      pop\n      jump\t// out\n        /* \"#utility.yul\":1161:1290   */\n    tag_23:\n        /* \"#utility.yul\":1195:1201   */\n      0x00\n        /* \"#utility.yul\":1222:1242   */\n      tag_47\n      tag_15\n      jump\t// in\n    tag_47:\n        /* \"#utility.yul\":1212:1242   */\n      swap1\n      pop\n        /* \"#utility.yul\":1251:1284   */\n      tag_48\n        /* \"#utility.yul\":1279:1283   */\n      dup3\n        /* \"#utility.yul\":1271:1277   */\n      dup3\n        /* \"#utility.yul\":1251:1284   */\n      tag_22\n      jump\t// in\n    tag_48:\n        /* \"#utility.yul\":1161:1290   */\n      swap2\n      swap1\n      pop\n      jump\t// out\n        /* \"#utility.yul\":1296:1603   */\n    tag_24:\n        /* \"#utility.yul\":1357:1361   */\n      0x00\n        /* \"#utility.yul\":1447:1465   */\n      0xffffffffffffffff\n        /* \"#utility.yul\":1439:1445   */\n      dup3\n        /* \"#utility.yul\":1436:1466   */\n      gt\n        /* \"#utility.yul\":1433:1489   */\n      iszero\n      tag_50\n      jumpi\n        /* \"#utility.yul\":1469:1487   */\n      tag_51\n      tag_21\n      jump\t// in\n    tag_51:\n        /* \"#utility.yul\":1433:1489   */\n    tag_50:\n        /* \"#utility.yul\":1507:1536   */\n      tag_52\n        /* \"#utility.yul\":1529:1535   */\n      dup3\n        /* \"#utility.yul\":1507:1536   */\n      tag_20\n      jump\t// in\n    tag_52:\n        /* \"#utility.yul\":1499:1536   */\n      swap1\n      pop\n        /* \"#utility.yul\":1591:1595   */\n      0x20\n        /* \"#utility.yul\":1585:1589   */\n      dup2\n        /* \"#utility.yul\":1581:1596   */\n      add\n        /* \"#utility.yul\":1573:1596   */\n      swap1\n      pop\n        /* \"#utility.yul\":1296:1603   */\n      swap2\n      swap1\n      pop\n      jump\t// out\n        /* \"#utility.yul\":1609:1757   */\n    tag_25:\n        /* \"#utility.yul\":1707:1713   */\n      dup3\n        /* \"#utility.yul\":1702:1705   */\n      dup2\n        /* \"#utility.yul\":1697:1700   */\n      dup4\n        /* \"#utility.yul\":1684:1714   */\n      calldatacopy\n        /* \"#utility.yul\":1748:1749   */\n      0x00\n        /* \"#utility.yul\":1739:1745   */\n      dup4\n        /* \"#utility.yul\":1734:1737   */\n      dup4\n        /* \"#utility.yul\":1730:1746   */\n      add\n        /* \"#utility.yul\":1723:1750   */\n      mstore\n        /* \"#utility.yul\":1609:1757   */\n      pop\n      pop\n      pop\n      jump\t// out\n        /* \"#utility.yul\":1763:2186   */\n    tag_26:\n        /* \"#utility.yul\":1840:1845   */\n      0x00\n        /* \"#utility.yul\":1865:1930   */\n      tag_55\n        /* \"#utility.yul\":1881:1929   */\n      tag_56\n        /* \"#utility.yul\":1922:1928   */\n      dup5\n        /* \"#utility.yul\":1881:1929   */\n      tag_24\n      jump\t// in\n    tag_56:\n        /* \"#utility.yul\":1865:1930   */\n      tag_23\n      jump\t// in\n    tag_55:\n        /* \"#utility.yul\":1856:1930   */\n      swap1\n      pop\n        /* \"#utility.yul\":1953:1959   */\n      dup3\n        /* \"#utility.yul\":1946:1951   */\n      dup2\n        /* \"#utility.yul\":1939:1960   */\n      mstore\n        /* \"#utility.yul\":1991:1995   */\n      0x20\n        /* \"#utility.yul\":1984:1989   */\n      dup2\n        /* \"#utility.yul\":1980:1996   */\n      add\n        /* \"#utility.yul\":2029:2032   */\n      dup5\n        /* \"#utility.yul\":2020:2026   */\n      dup5\n        /* \"#utility.yul\":2015:2018   */\n      dup5\n        /* \"#utility.yul\":2011:2027   */\n      add\n        /* \"#utility.yul\":2008:2033   */\n      gt\n        /* \"#utility.yul\":2005:2117   */\n      iszero\n      tag_57\n      jumpi\n        /* \"#utility.yul\":2036:2115   */\n      tag_58\n      tag_19\n      jump\t// in\n    tag_58:\n        /* \"#utility.yul\":2005:2117   */\n    tag_57:\n        /* \"#utility.yul\":2126:2180   */\n      tag_59\n        /* \"#utility.yul\":2173:2179   */\n      dup5\n        /* \"#utility.yul\":2168:2171   */\n      dup3\n        /* \"#utility.yul\":2163:2166   */\n      dup6\n        /* \"#utility.yul\":2126:2180   */\n      tag_25\n      jump\t// in\n    tag_59:\n        /* \"#utility.yul\":1846:2186   */\n      pop\n        /* \"#utility.yul\":1763:2186   */\n      swap4\n      swap3\n      pop\n      pop\n      pop\n      jump\t// out\n        /* \"#utility.yul\":2205:2543   */\n    tag_27:\n        /* \"#utility.yul\":2260:2265   */\n      0x00\n        /* \"#utility.yul\":2309:2312   */\n      dup3\n        /* \"#utility.yul\":2302:2306   */\n      0x1f\n        /* \"#utility.yul\":2294:2300   */\n      dup4\n        /* \"#utility.yul\":2290:2307   */\n      add\n        /* \"#utility.yul\":2286:2313   */\n      slt\n        /* \"#utility.yul\":2276:2398   */\n      tag_61\n      jumpi\n        /* \"#utility.yul\":2317:2396   */\n      tag_62\n      tag_18\n      jump\t// in\n    tag_62:\n        /* \"#utility.yul\":2276:2398   */\n    tag_61:\n        /* \"#utility.yul\":2434:2440   */\n      dup2\n        /* \"#utility.yul\":2421:2441   */\n      calldataload\n        /* \"#utility.yul\":2459:2537   */\n      tag_63\n        /* \"#utility.yul\":2533:2536   */\n      dup5\n        /* \"#utility.yul\":2525:2531   */\n      dup3\n        /* \"#utility.yul\":2518:2522   */\n      0x20\n        /* \"#utility.yul\":2510:2516   */\n      dup7\n        /* \"#utility.yul\":2506:2523   */\n      add\n        /* \"#utility.yul\":2459:2537   */\n      tag_26\n      jump\t// in\n    tag_63:\n        /* \"#utility.yul\":2450:2537   */\n      swap2\n      pop\n        /* \"#utility.yul\":2266:2543   */\n      pop\n        /* \"#utility.yul\":2205:2543   */\n      swap3\n      swap2\n      pop\n      pop\n      jump\t// out\n        /* \"#utility.yul\":2549:3056   */\n    tag_6:\n        /* \"#utility.yul\":2617:2623   */\n      0x00\n        /* \"#utility.yul\":2666:2668   */\n      0x20\n        /* \"#utility.yul\":2654:2663   */\n      dup3\n        /* \"#utility.yul\":2645:2652   */\n      dup5\n        /* \"#utility.yul\":2641:2664   */\n      sub\n        /* \"#utility.yul\":2637:2669   */\n      slt\n        /* \"#utility.yul\":2634:2753   */\n      iszero\n      tag_65\n      jumpi\n        /* \"#utility.yul\":2672:2751   */\n      tag_66\n      tag_16\n      jump\t// in\n    tag_66:\n        /* \"#utility.yul\":2634:2753   */\n    tag_65:\n        /* \"#utility.yul\":2820:2821   */\n      0x00\n        /* \"#utility.yul\":2809:2818   */\n      dup3\n        /* \"#utility.yul\":2805:2822   */\n      add\n        /* \"#utility.yul\":2792:2823   */\n      calldataload\n        /* \"#utility.yul\":2850:2868   */\n      0xffffffffffffffff\n        /* \"#utility.yul\":2842:2848   */\n      dup2\n        /* \"#utility.yul\":2839:2869   */\n      gt\n        /* \"#utility.yul\":2836:2953   */\n      iszero\n      tag_67\n      jumpi\n        /* \"#utility.yul\":2872:2951   */\n      tag_68\n      tag_17\n      jump\t// in\n    tag_68:\n        /* \"#utility.yul\":2836:2953   */\n    tag_67:\n        /* \"#utility.yul\":2977:3039   */\n      tag_69\n        /* \"#utility.yul\":3031:3038   */\n      dup5\n        /* \"#utility.yul\":3022:3028   */\n      dup3\n        /* \"#utility.yul\":3011:3020   */\n      dup6\n        /* \"#utility.yul\":3007:3029   */\n      add\n        /* \"#utility.yul\":2977:3039   */\n      tag_27\n      jump\t// in\n    tag_69:\n        /* \"#utility.yul\":2967:3039   */\n      swap2\n      pop\n        /* \"#utility.yul\":2763:3049   */\n      pop\n        /* \"#utility.yul\":2549:3056   */\n      swap3\n      swap2\n      pop\n      pop\n      jump\t// out\n        /* \"#utility.yul\":3062:3188   */\n    tag_28:\n        /* \"#utility.yul\":3099:3106   */\n      0x00\n        /* \"#utility.yul\":3139:3181   */\n      0xffffffffffffffffffffffffffffffffffffffff\n        /* \"#utility.yul\":3132:3137   */\n      dup3\n        /* \"#utility.yul\":3128:3182   */\n      and\n        /* \"#utility.yul\":3117:3182   */\n      swap1\n      pop\n        /* \"#utility.yul\":3062:3188   */\n      swap2\n      swap1\n      pop\n      jump\t// out\n        /* \"#utility.yul\":3194:3290   */\n    tag_29:\n        /* \"#utility.yul\":3231:3238   */\n      0x00\n        /* \"#utility.yul\":3260:3284   */\n      tag_72\n        /* \"#utility.yul\":3278:3283   */\n      dup3\n        /* \"#utility.yul\":3260:3284   */\n      tag_28\n      jump\t// in\n    tag_72:\n        /* \"#utility.yul\":3249:3284   */\n      swap1\n      pop\n        /* \"#utility.yul\":3194:3290   */\n      swap2\n      swap1\n      pop\n      jump\t// out\n        /* \"#utility.yul\":3296:3414   */\n    tag_30:\n        /* \"#utility.yul\":3383:3407   */\n      tag_74\n        /* \"#utility.yul\":3401:3406   */\n      dup2\n        /* \"#utility.yul\":3383:3407   */\n      tag_29\n      jump\t// in\n    tag_74:\n        /* \"#utility.yul\":3378:3381   */\n      dup3\n        /* \"#utility.yul\":3371:3408   */\n      mstore\n        /* \"#utility.yul\":3296:3414   */\n      pop\n      pop\n      jump\t// out\n        /* \"#utility.yul\":3420:3642   */\n    tag_9:\n        /* \"#utility.yul\":3513:3517   */\n      0x00\n        /* \"#utility.yul\":3551:3553   */\n      0x20\n        /* \"#utility.yul\":3540:3549   */\n      dup3\n        /* \"#utility.yul\":3536:3554   */\n      add\n        /* \"#utility.yul\":3528:3554   */\n      swap1\n      pop\n        /* \"#utility.yul\":3564:3635   */\n      tag_76\n        /* \"#utility.yul\":3632:3633   */\n      0x00\n        /* \"#utility.yul\":3621:3630   */\n      dup4\n        /* \"#utility.yul\":3617:3634   */\n      add\n        /* \"#utility.yul\":3608:3614   */\n      dup5\n        /* \"#utility.yul\":3564:3635   */\n      tag_30\n      jump\t// in\n    tag_76:\n        /* \"#utility.yul\":3420:3642   */\n      swap3\n      swap2\n      pop\n      pop\n      jump\t// out\n        /* \"#utility.yul\":3648:3817   */\n    tag_31:\n        /* \"#utility.yul\":3732:3743   */\n      0x00\n        /* \"#utility.yul\":3766:3772   */\n      dup3\n        /* \"#utility.yul\":3761:3764   */\n      dup3\n        /* \"#utility.yul\":3754:3773   */\n      mstore\n        /* \"#utility.yul\":3806:3810   */\n      0x20\n        /* \"#utility.yul\":3801:3804   */\n      dup3\n        /* \"#utility.yul\":3797:3811   */\n      add\n        /* \"#utility.yul\":3782:3811   */\n      swap1\n      pop\n        /* \"#utility.yul\":3648:3817   */\n      swap3\n      swap2\n      pop\n      pop\n      jump\t// out\n        /* \"#utility.yul\":3823:3986   */\n    tag_32:\n        /* \"#utility.yul\":3963:3978   */\n      0x4465706c6f79206661696c656400000000000000000000000000000000000000\n        /* \"#utility.yul\":3959:3960   */\n      0x00\n        /* \"#utility.yul\":3951:3957   */\n      dup3\n        /* \"#utility.yul\":3947:3961   */\n      add\n        /* \"#utility.yul\":3940:3979   */\n      mstore\n        /* \"#utility.yul\":3823:3986   */\n      pop\n      jump\t// out\n        /* \"#utility.yul\":3992:4358   */\n    tag_33:\n        /* \"#utility.yul\":4134:4137   */\n      0x00\n        /* \"#utility.yul\":4155:4222   */\n      tag_80\n        /* \"#utility.yul\":4219:4221   */\n      0x0d\n        /* \"#utility.yul\":4214:4217   */\n      dup4\n        /* \"#utility.yul\":4155:4222   */\n      tag_31\n      jump\t// in\n    tag_80:\n        /* \"#utility.yul\":4148:4222   */\n      swap2\n      pop\n        /* \"#utility.yul\":4231:4324   */\n      tag_81\n        /* \"#utility.yul\":4320:4323   */\n      dup3\n        /* \"#utility.yul\":4231:4324   */\n      tag_32\n      jump\t// in\n    tag_81:\n        /* \"#utility.yul\":4349:4351   */\n      0x20\n        /* \"#utility.yul\":4344:4347   */\n      dup3\n        /* \"#utility.yul\":4340:4352   */\n      add\n        /* \"#utility.yul\":4333:4352   */\n      swap1\n      pop\n        /* \"#utility.yul\":3992:4358   */\n      swap2\n      swap1\n      pop\n      jump\t// out\n        /* \"#utility.yul\":4364:4783   */\n    tag_13:\n        /* \"#utility.yul\":4530:4534   */\n      0x00\n        /* \"#utility.yul\":4568:4570   */\n      0x20\n        /* \"#utility.yul\":4557:4566   */\n      dup3\n        /* \"#utility.yul\":4553:4571   */\n      add\n        /* \"#utility.yul\":4545:4571   */\n      swap1\n      pop\n        /* \"#utility.yul\":4617:4626   */\n      dup2\n        /* \"#utility.yul\":4611:4615   */\n      dup2\n        /* \"#utility.yul\":4607:4627   */\n      sub\n        /* \"#utility.yul\":4603:4604   */\n      0x00\n        /* \"#utility.yul\":4592:4601   */\n      dup4\n        /* \"#utility.yul\":4588:4605   */\n      add\n        /* \"#utility.yul\":4581:4628   */\n      mstore\n        /* \"#utility.yul\":4645:4776   */\n      tag_83\n        /* \"#utility.yul\":4771:4775   */\n      dup2\n        /* \"#utility.yul\":4645:4776   */\n      tag_33\n      jump\t// in\n    tag_83:\n        /* \"#utility.yul\":4637:4776   */\n      swap1\n      pop\n        /* \"#utility.yul\":4364:4783   */\n      swap2\n      swap1\n      pop\n      jump\t// out\n\n    auxdata: 0xa2646970667358221220d6843629d9fe76118f77d6532487f59ca5236d0253c71be9175b8eae691a47dd64736f6c634300081f0033\n}\n",
				"bytecode": {
					"linkReferences": {},
					"object": "6080604052348015600e575f5ffd5b506103ab8061001c5f395ff3fe608060405234801561000f575f5ffd5b5060043610610028575f3560e01c80627743601461002c575b5f5ffd5b6100466004803603810190610041919061025e565b61005c565b60405161005391906102e4565b60405180910390f35b5f8151602083015ff090505f73ffffffffffffffffffffffffffffffffffffffff168173ffffffffffffffffffffffffffffffffffffffff16036100d5576040517f08c379a00000000000000000000000000000000000000000000000000000000081526004016100cc90610357565b60405180910390fd5b7ff40fcec21964ffb566044d083b4073f29f7f7929110ea19e1b3ebe375d89055e8160405161010491906102e4565b60405180910390a1919050565b5f604051905090565b5f5ffd5b5f5ffd5b5f5ffd5b5f5ffd5b5f601f19601f8301169050919050565b7f4e487b71000000000000000000000000000000000000000000000000000000005f52604160045260245ffd5b6101708261012a565b810181811067ffffffffffffffff8211171561018f5761018e61013a565b5b80604052505050565b5f6101a1610111565b90506101ad8282610167565b919050565b5f67ffffffffffffffff8211156101cc576101cb61013a565b5b6101d58261012a565b9050602081019050919050565b828183375f83830152505050565b5f6102026101fd846101b2565b610198565b90508281526020810184848401111561021e5761021d610126565b5b6102298482856101e2565b509392505050565b5f82601f83011261024557610244610122565b5b81356102558482602086016101f0565b91505092915050565b5f602082840312156102735761027261011a565b5b5f82013567ffffffffffffffff8111156102905761028f61011e565b5b61029c84828501610231565b91505092915050565b5f73ffffffffffffffffffffffffffffffffffffffff82169050919050565b5f6102ce826102a5565b9050919050565b6102de816102c4565b82525050565b5f6020820190506102f75f8301846102d5565b92915050565b5f82825260208201905092915050565b7f4465706c6f79206661696c6564000000000000000000000000000000000000005f82015250565b5f610341600d836102fd565b915061034c8261030d565b602082019050919050565b5f6020820190508181035f83015261036e81610335565b905091905056fea2646970667358221220d6843629d9fe76118f77d6532487f59ca5236d0253c71be9175b8eae691a47dd64736f6c634300081f0033",
					"opcodes": "PUSH1 0x80 PUSH1 0x40 MSTORE CALLVALUE DUP1 ISZERO PUSH1 0xE JUMPI PUSH0 PUSH0 REVERT JUMPDEST POP PUSH2 0x3AB DUP1 PUSH2 0x1C PUSH0 CODECOPY PUSH0 RETURN INVALID PUSH1 0x80 PUSH1 0x40 MSTORE CALLVALUE DUP1 ISZERO PUSH2 0xF JUMPI PUSH0 PUSH0 REVERT JUMPDEST POP PUSH1 0x4 CALLDATASIZE LT PUSH2 0x28 JUMPI PUSH0 CALLDATALOAD PUSH1 0xE0 SHR DUP1 PUSH3 0x774360 EQ PUSH2 0x2C JUMPI JUMPDEST PUSH0 PUSH0 REVERT JUMPDEST PUSH2 0x46 PUSH1 0x4 DUP1 CALLDATASIZE SUB DUP2 ADD SWAP1 PUSH2 0x41 SWAP2 SWAP1 PUSH2 0x25E JUMP JUMPDEST PUSH2 0x5C JUMP JUMPDEST PUSH1 0x40 MLOAD PUSH2 0x53 SWAP2 SWAP1 PUSH2 0x2E4 JUMP JUMPDEST PUSH1 0x40 MLOAD DUP1 SWAP2 SUB SWAP1 RETURN JUMPDEST PUSH0 DUP2 MLOAD PUSH1 0x20 DUP4 ADD PUSH0 CREATE SWAP1 POP PUSH0 PUSH20 0xFFFFFFFFFFFFFFFFFFFFFFFFFFFFFFFFFFFFFFFF AND DUP2 PUSH20 0xFFFFFFFFFFFFFFFFFFFFFFFFFFFFFFFFFFFFFFFF AND SUB PUSH2 0xD5 JUMPI PUSH1 0x40 MLOAD PUSH32 0x8C379A000000000000000000000000000000000000000000000000000000000 DUP2 MSTORE PUSH1 0x4 ADD PUSH2 0xCC SWAP1 PUSH2 0x357 JUMP JUMPDEST PUSH1 0x40 MLOAD DUP1 SWAP2 SUB SWAP1 REVERT JUMPDEST PUSH32 0xF40FCEC21964FFB566044D083B4073F29F7F7929110EA19E1B3EBE375D89055E DUP2 PUSH1 0x40 MLOAD PUSH2 0x104 SWAP2 SWAP1 PUSH2 0x2E4 JUMP JUMPDEST PUSH1 0x40 MLOAD DUP1 SWAP2 SUB SWAP1 LOG1 SWAP2 SWAP1 POP JUMP JUMPDEST PUSH0 PUSH1 0x40 MLOAD SWAP1 POP SWAP1 JUMP JUMPDEST PUSH0 PUSH0 REVERT JUMPDEST PUSH0 PUSH0 REVERT JUMPDEST PUSH0 PUSH0 REVERT JUMPDEST PUSH0 PUSH0 REVERT JUMPDEST PUSH0 PUSH1 0x1F NOT PUSH1 0x1F DUP4 ADD AND SWAP1 POP SWAP2 SWAP1 POP JUMP JUMPDEST PUSH32 0x4E487B7100000000000000000000000000000000000000000000000000000000 PUSH0 MSTORE PUSH1 0x41 PUSH1 0x4 MSTORE PUSH1 0x24 PUSH0 REVERT JUMPDEST PUSH2 0x170 DUP3 PUSH2 0x12A JUMP JUMPDEST DUP2 ADD DUP2 DUP2 LT PUSH8 0xFFFFFFFFFFFFFFFF DUP3 GT OR ISZERO PUSH2 0x18F JUMPI PUSH2 0x18E PUSH2 0x13A JUMP JUMPDEST JUMPDEST DUP1 PUSH1 0x40 MSTORE POP POP POP JUMP JUMPDEST PUSH0 PUSH2 0x1A1 PUSH2 0x111 JUMP JUMPDEST SWAP1 POP PUSH2 0x1AD DUP3 DUP3 PUSH2 0x167 JUMP JUMPDEST SWAP2 SWAP1 POP JUMP JUMPDEST PUSH0 PUSH8 0xFFFFFFFFFFFFFFFF DUP3 GT ISZERO PUSH2 0x1CC JUMPI PUSH2 0x1CB PUSH2 0x13A JUMP JUMPDEST JUMPDEST PUSH2 0x1D5 DUP3 PUSH2 0x12A JUMP JUMPDEST SWAP1 POP PUSH1 0x20 DUP2 ADD SWAP1 POP SWAP2 SWAP1 POP JUMP JUMPDEST DUP3 DUP2 DUP4 CALLDATACOPY PUSH0 DUP4 DUP4 ADD MSTORE POP POP POP JUMP JUMPDEST PUSH0 PUSH2 0x202 PUSH2 0x1FD DUP5 PUSH2 0x1B2 JUMP JUMPDEST PUSH2 0x198 JUMP JUMPDEST SWAP1 POP DUP3 DUP2 MSTORE PUSH1 0x20 DUP2 ADD DUP5 DUP5 DUP5 ADD GT ISZERO PUSH2 0x21E JUMPI PUSH2 0x21D PUSH2 0x126 JUMP JUMPDEST JUMPDEST PUSH2 0x229 DUP5 DUP3 DUP6 PUSH2 0x1E2 JUMP JUMPDEST POP SWAP4 SWAP3 POP POP POP JUMP JUMPDEST PUSH0 DUP3 PUSH1 0x1F DUP4 ADD SLT PUSH2 0x245 JUMPI PUSH2 0x244 PUSH2 0x122 JUMP JUMPDEST JUMPDEST DUP2 CALLDATALOAD PUSH2 0x255 DUP5 DUP3 PUSH1 0x20 DUP7 ADD PUSH2 0x1F0 JUMP JUMPDEST SWAP2 POP POP SWAP3 SWAP2 POP POP JUMP JUMPDEST PUSH0 PUSH1 0x20 DUP3 DUP5 SUB SLT ISZERO PUSH2 0x273 JUMPI PUSH2 0x272 PUSH2 0x11A JUMP JUMPDEST JUMPDEST PUSH0 DUP3 ADD CALLDATALOAD PUSH8 0xFFFFFFFFFFFFFFFF DUP2 GT ISZERO PUSH2 0x290 JUMPI PUSH2 0x28F PUSH2 0x11E JUMP JUMPDEST JUMPDEST PUSH2 0x29C DUP5 DUP3 DUP6 ADD PUSH2 0x231 JUMP JUMPDEST SWAP2 POP POP SWAP3 SWAP2 POP POP JUMP JUMPDEST PUSH0 PUSH20 0xFFFFFFFFFFFFFFFFFFFFFFFFFFFFFFFFFFFFFFFF DUP3 AND SWAP1 POP SWAP2 SWAP1 POP JUMP JUMPDEST PUSH0 PUSH2 0x2CE DUP3 PUSH2 0x2A5 JUMP JUMPDEST SWAP1 POP SWAP2 SWAP1 POP JUMP JUMPDEST PUSH2 0x2DE DUP2 PUSH2 0x2C4 JUMP JUMPDEST DUP3 MSTORE POP POP JUMP JUMPDEST PUSH0 PUSH1 0x20 DUP3 ADD SWAP1 POP PUSH2 0x2F7 PUSH0 DUP4 ADD DUP5 PUSH2 0x2D5 JUMP JUMPDEST SWAP3 SWAP2 POP POP JUMP JUMPDEST PUSH0 DUP3 DUP3 MSTORE PUSH1 0x20 DUP3 ADD SWAP1 POP SWAP3 SWAP2 POP POP JUMP JUMPDEST PUSH32 0x4465706C6F79206661696C656400000000000000000000000000000000000000 PUSH0 DUP3 ADD MSTORE POP JUMP JUMPDEST PUSH0 PUSH2 0x341 PUSH1 0xD DUP4 PUSH2 0x2FD JUMP JUMPDEST SWAP2 POP PUSH2 0x34C DUP3 PUSH2 0x30D JUMP JUMPDEST PUSH1 0x20 DUP3 ADD SWAP1 POP SWAP2 SWAP1 POP JUMP JUMPDEST PUSH0 PUSH1 0x20 DUP3 ADD SWAP1 POP DUP2 DUP2 SUB PUSH0 DUP4 ADD MSTORE PUSH2 0x36E DUP2 PUSH2 0x335 JUMP JUMPDEST SWAP1 POP SWAP2 SWAP1 POP JUMP INVALID LOG2 PUSH5 0x6970667358 0x22 SLT KECCAK256 0xD6 DUP5 CALLDATASIZE 0x29 0xD9 INVALID PUSH23 0x118F77D6532487F59CA5236D0253C71BE9175B8EAE691A SELFBALANCE 0xDD PUSH5 0x736F6C6343 STOP ADDMOD 0x1F STOP CALLER "
				},
				"gasEstimates": {
					"creation": {
						"codeDepositCost": "187800",
						"executionCost": "230",
						"totalCost": "188030"
					},
					"external": {
						"deploy(bytes)": "infinite"
					}
				},
				"methodIdentifiers": {
					"deploy(bytes)": "00774360"
				}
			},
			"storageLayout": {
				"storage": [],
				"types": null
			},
			"userdoc": {
				"kind": "user",
				"methods": {},
				"version": 1
			}
		}
	}
}