{
	"data": {
		"bytecode": {
			"linkReferences": {
				"circuits/swirlpool/contracts/Verifier2.sol": {
					"ZKTranscriptLib": [
						{
							"length": 20,
							"start": 581
						}
					]
				}
			},
			"object": "610100604052348015610010575f5ffd5b5062010000608052601060a0527f0ca3403825b73e7cd6f8f6f70d95cbdf2588169c172e8e001c3f9ce632f5440960c052601260e05260805160a05160c05160e051615ce36100dd5f395f81816101b0015261090201525f61018e01525f8181605b01528181609401528181610101015281816101d201528181610a3001528181610b3d01528181610bdc01528181610c0a01528181610c9001528181611524015281816115d3015281816116060152818161181001528181612b920152612ebb01525f5050615ce35ff3fe608060405234801561000f575f5ffd5b5060043610610029575f3560e01c8063ea50d0e41461002d575b5f5ffd5b61004061003b3660046154e4565b610054565b604051901515815260200160405180910390f35b5f5f61007f7f00000000000000000000000000000000000000000000000000000000000000006102ee565b905061008c8160206155bc565b85146100ee577f0000000000000000000000000000000000000000000000000000000000000000856100bf8360206155bc565b6040516359895a5360e01b81526004810193909352602483019190915260448201526064015b60405180910390fd5b5f6100f76103e4565b90505f61012588887f00000000000000000000000000000000000000000000000000000000000000006103f9565b90506010826040015161013891906155d3565b85146101575760405163fa06659360e01b815260040160405180910390fd5b60405163995bf45760e01b81525f9073__$829c94b1bd563db5395b2b9881aa8a246c$__9063995bf457906101fa9085908b908b907f0000000000000000000000000000000000000000000000000000000000000000907f0000000000000000000000000000000000000000000000000000000000000000907f000000000000000000000000000000000000000000000000000000000000000090600401615756565b610be060405180830381865af4158015610216573d5f5f3e3d5ffd5b505050506040513d601f19601f8201168201806040525081019061023a9190615a8f565b905061028a8787808060200260200160405190810160405280939291908181526020018383602002808284375f9201919091525050855185516060810151608090910151919350915060016108ac565b815160a0015261029a8282610a13565b6102b7576040516313f8744360e31b815260040160405180910390fd5b6102c2828483610bc8565b6102df576040516352ec174560e11b815260040160405180910390fd5b50600198975050505050505050565b5f806102fc600260086155bc565b905061030a600260046155bc565b6103149082615b39565b905060016103236009856155bc565b61032d91906155bc565b6103379082615b39565b9050610345600160296155bc565b61034f9082615b39565b905061035d600160036155bc565b6103679082615b39565b90506103746001846155bc565b61037e9082615b39565b905061038c600160046155bc565b6103969082615b39565b905060026103a56001856155d3565b6103af91906155bc565b6103b99082615b39565b90506103c66002806155bc565b6103d09082615b39565b90506103dd601082615b39565b9392505050565b6103ec615030565b6103f4611c0a565b905090565b6104016151ba565b5f805b60108110156104635761043086838761041e602083615b39565b9261042b93929190615b4c565b612541565b8351826010811061044357610443615b73565b6020020181815250506020826104599190615b39565b9150600101610404565b50610487858286610475604083615b39565b9261048293929190615b4c565b612554565b6020830152610497604082615b39565b90506104aa858286610475604083615b39565b6040808401919091526104bd9082615b39565b90506104d0858286610475604083615b39565b60608301526104e0604082615b39565b90506104f3858286610475604083615b39565b60a0830152610503604082615b39565b9050610516858286610475604083615b39565b60c0830152610526604082615b39565b9050610539858286610475604083615b39565b6080830152610549604082615b39565b905061055c858286610475604083615b39565b60e083015261056c604082615b39565b905061057f858286610475604083615b39565b610100830152610590604082615b39565b90506105a3858286610475604083615b39565b610120830151526105b5604082615b39565b90506105c885828661041e602083615b39565b6101408301526105d9602082615b39565b90505f5b83811015610657575f5b600981101561064e5761060187848861041e602083615b39565b84610160015183601c811061061857610618615b73565b6020020151826009811061062e5761062e615b73565b6020020181815250506020836106449190615b39565b92506001016105e7565b506001016105dd565b505f5b60298110156106ab5761067486838761041e602083615b39565b836101800151826029811061068b5761068b615b73565b6020020181815250506020826106a19190615b39565b915060010161065a565b506106bd85828661041e602083615b39565b6101a08301526106ce602082615b39565b90506106e1858286610475604083615b39565b610120830151602001526106f6604082615b39565b9050610709858286610475604083615b39565b61012083015160026020020152610721604082615b39565b9050610734858286610475604083615b39565b6101c0830152610745604082615b39565b905061075885828661041e602083615b39565b6101e0830152610769602082615b39565b90505f5b6107786001856155d3565b8110156107c157610790868387610475604083615b39565b83610200015182601b81106107a7576107a7615b73565b60200201526107b7604083615b39565b915060010161076d565b505f5b83811015610814576107dd86838761041e602083615b39565b83610220015182601c81106107f4576107f4615b73565b60200201818152505060208261080a9190615b39565b91506001016107c4565b505f5b60048110156108685761083186838761041e602083615b39565b836102400151826004811061084857610848615b73565b60200201818152505060208261085e9190615b39565b9150600101610817565b5061087a858286610475604083615b39565b61026083015261088b604082615b39565b905061089e858286610475604083615b39565b610280830152509392505050565b5f600180826108d9866108d4896108cf6108ca8a6310000000615b39565b6125d6565b6125ee565b612609565b90505f6108f7876108f28a6108cf6108ca8b6001615b39565b612622565b90505f5b61092660107f00000000000000000000000000000000000000000000000000000000000000006155d3565b811015610993575f6109508c838151811061094357610943615b73565b602002602001015161264a565b9050610960866108cf8684612609565b9550610970856108cf8584612609565b945061097c848b612609565b9350610988838b612622565b9250506001016108fb565b505f5b60108110156109fa575f8a82601081106109b2576109b2615b73565b602002015190506109c7866108cf8684612609565b95506109d7856108cf8584612609565b94506109e3848b612609565b93506109ef838b612622565b925050600101610996565b50610a05848461265f565b9a9950505050505050505050565b5f5f610a2883606001518561014001516125ee565b905060015f5b7f0000000000000000000000000000000000000000000000000000000000000000811015610b1a575f86610160015182601c8110610a6e57610a6e615b73565b602002015180519091505f90610a8c908360015b6020020151612609565b9050848114610aae576040516313f8744360e31b815260040160405180910390fd5b5f876080015184601c8110610ac557610ac5615b73565b60200201519050610ad6838261266d565b9550610b0a856108cf60016108d4856108cf8e604001518b601c8110610afe57610afe615b73565b60200201516001612622565b9450505050806001019050610a2e565b505f610b34866101800151865f015187602001518561281b565b9050600160025b7f0000000000000000000000000000000000000000000000000000000000000000811015610b9157610b8782886080015183601c8110610b7d57610b7d615b73565b60200201516125ee565b9150600101610b3b565b50610bb7610ba4836108cf600185612622565b6108d4896101a0015189606001516125ee565b91508382145b979650505050505050565b5f610bd16152a3565b5f610c008460c001517f0000000000000000000000000000000000000000000000000000000000000000612894565b90505f6003610c307f00000000000000000000000000000000000000000000000000000000000000006024615b39565b610c3a9190615b39565b610c45906003615b39565b6001600160401b03811115610c5c57610c5c615940565b604051908082528060200260200182016040528015610c85578160200160208202803683370190505b5090505f6003610cb67f00000000000000000000000000000000000000000000000000000000000000006024615b39565b610cc09190615b39565b610ccb906003615b39565b6001600160401b03811115610ce257610ce2615940565b604051908082528060200260200182016040528015610d1b57816020015b610d08615313565b815260200190600190039081610d005790505b509050610d4e610d49876101000151855f81518110610d3c57610d3c615b73565b6020026020010151612622565b61295d565b84610120018181525050610d83610d49876101000151855f81518110610d7657610d76615b73565b6020026020010151612609565b610140850181905261012085015160e0880151610da4926108d491906125ee565b845260c0860151610dd490610db89061295d565b6108cf8661012001516108f28a60e001518961014001516125ee565b6020850152815160019083905f90610dee57610dee615b73565b602002602001018181525050876102600151815f81518110610e1257610e12615b73565b60209081029190910101526101e088015160c085015260a080870151908501528351610e3d906129cd565b60408501526020840151610e50906129cd565b60608501526040840151825183906001908110610e6f57610e6f615b73565b60209081029190910101525f5b6024811015610f1657610e9785604001518660a001516125ee565b83610ea3836002615b39565b81518110610eb357610eb3615b73565b602002602001018181525050610ef08560c001516108d48b61018001518460298110610ee157610ee1615b73565b60200201518860a001516125ee565b60c086015260a08086015190880151610f0991906125ee565b60a0860152600101610e7c565b505f5b6005811015610fe4575f610f2e601e83615b39565b90505f610f3c602484615b39565b9050610f6d858381518110610f5357610f53615b73565b60200260200101516108d489606001518a60a001516125ee565b858381518110610f7f57610f7f615b73565b602002602001018181525050610fbc8760c001516108d48d61018001518460298110610fad57610fad615b73565b60200201518a60a001516125ee565b60c088015260a080880151908a0151610fd591906125ee565b60a08801525050600101610f19565b50876101c0015181600181518110610ffe57610ffe615b73565b602002602001018190525086606001518160028151811061102157611021615b73565b602002602001018190525086608001518160038151811061104457611044615b73565b60200260200101819052508660a001518160048151811061106757611067615b73565b60200260200101819052508660c001518160058151811061108a5761108a615b73565b60200260200101819052508660e00151816006815181106110ad576110ad615b73565b6020026020010181905250866101000151816007815181106110d1576110d1615b73565b6020026020010181905250866101200151816008815181106110f5576110f5615b73565b60200260200101819052508661014001518160098151811061111957611119615b73565b602002602001018190525086610160015181600a8151811061113d5761113d615b73565b6020026020010181905250866101c0015181600b8151811061116157611161615b73565b602002602001018190525086610180015181600c8151811061118557611185615b73565b6020026020010181905250866101a0015181600d815181106111a9576111a9615b73565b6020026020010181905250866101e0015181600e815181106111cd576111cd615b73565b602002602001018190525086610200015181600f815181106111f1576111f1615b73565b60200260200101819052508661022001518160108151811061121557611215615b73565b60200260200101819052508661024001518160118151811061123957611239615b73565b60200260200101819052508661026001518160128151811061125d5761125d615b73565b60200260200101819052508661028001518160138151811061128157611281615b73565b6020026020010181905250866102a00151816014815181106112a5576112a5615b73565b6020026020010181905250866102c00151816015815181106112c9576112c9615b73565b6020026020010181905250866102e00151816016815181106112ed576112ed615b73565b60200260200101819052508661030001518160178151811061131157611311615b73565b60200260200101819052508661032001518160188151811061133557611335615b73565b60200260200101819052508661034001518160198151811061135957611359615b73565b602002602001018190525086610360015181601a8151811061137d5761137d615b73565b602002602001018190525086610380015181601b815181106113a1576113a1615b73565b6020026020010181905250866103a0015181601c815181106113c5576113c5615b73565b6020026020010181905250866103c0015181601d815181106113e9576113e9615b73565b6020026020010181905250876020015181601e8151811061140c5761140c615b73565b6020026020010181905250876040015181601f8151811061142f5761142f615b73565b602002602001018190525087606001518160208151811061145257611452615b73565b602002602001018190525087608001518160218151811061147557611475615b73565b60200260200101819052508761010001518160228151811061149957611499615b73565b60200260200101819052508760e00151816023815181106114bc576114bc615b73565b60200260200101819052508760a00151816024815181106114df576114df615b73565b60200260200101819052508760c001518160258151811061150257611502615b73565b60200260200101819052505f61154887608001518660c001518b6102200151877f00000000000000000000000000000000000000000000000000000000000000006129df565b9050611572815f8151811061155f5761155f615b73565b60200260200101518661012001516125ee565b608086018190526102208a01515160e08901516115a392916108d49161159891906125ee565b8861014001516125ee565b608086015260e08701516115b690612b3d565b60a08601525f6115c860246002615b39565b90505f5b6115f760017f00000000000000000000000000000000000000000000000000000000000000006155d3565b811015611808575f61162a60017f00000000000000000000000000000000000000000000000000000000000000006155d3565b8210159050806117995761165e610d498b61010001518985600161164e9190615b39565b81518110610d3c57610d3c615b73565b6101208901526101008a015161168e90610d49908961167e866001615b39565b81518110610d7657610d76615b73565b61014089015260a08801516101208901516116a991906125ee565b61016089015260a088015160e08b01516116d1916116c6916125ee565b8961014001516125ee565b61018089018190526116f4906116e6906129cd565b6108d48a61016001516129cd565b866116ff8486615b39565b8151811061170f5761170f615b73565b6020026020010181815250505f6117488961018001518e61022001518560016117389190615b39565b601c8110610b7d57610b7d615b73565b9050611782816108d48b6101600151888760016117659190615b39565b8151811061177557611775615b73565b60200260200101516125ee565b9050611792896080015182612609565b60808a0152505b6117b86117ae8960a001518c60e001516125ee565b8b60e001516125ee565b60a08901526102008c015182601b81106117d4576117d4615b73565b6020020151856117e48486615b39565b815181106117f4576117f4615b73565b6020908102919091010152506001016115cc565b5061183460017f00000000000000000000000000000000000000000000000000000000000000006155d3565b61183e9082615b39565b905061185e6118568961010001518a60c00151612622565b60019061265f565b60e08701515261010088015160c08901516118a291611856916108f2907f07b0c561a6148404f086204a9f36ffb0617942546750f230c893619174a57a76906125ee565b60e0878101805160200192909252815180516040909101529051805160609091015260a0870151908901516118e4916118da916125ee565b8960e001516125ee565b60a08701525f5b6004811015611992575f61191d8860e00151836004811061190e5761190e615b73565b60200201518960a001516125ee565b9050611928816129cd565b886101000151836004811061193f5761193f615b73565b602002015260a088015160e08b015161195891906125ee565b8860a001818152505061198488608001516108d4838f61024001518660048110610b7d57610b7d615b73565b6080890152506001016118eb565b506101008601515184518590839081106119ae576119ae615b73565b602090810291909101810191909152610100870151908101516119d2916002610a82565b846119de836001615b39565b815181106119ee576119ee615b73565b60209081029190910101526101008601516060015184611a0f836002615b39565b81518110611a1f57611a1f615b73565b60209081029190910101525f5b6003811015611a81578a61012001518160038110611a4c57611a4c615b73565b60200201518483611a5c81615b87565b945081518110611a6e57611a6e615b73565b6020908102919091010152600101611a2c565b506040518060400160405280600181526020016002815250838281518110611aab57611aab615b73565b60200260200101819052508560800151848280611ac790615b87565b935081518110611ad957611ad9615b73565b602002602001018181525050611b038a61024001518960c001518a608001518d6101a00151612b48565b611b205760405163a2a2ac8360e01b815260040160405180910390fd5b5f8a6102800151905080848381518110611b3c57611b3c615b73565b6020026020010181905250886101000151858381518110611b5f57611b5f615b73565b602002602001018181525050611b7361532b565b611b7d8587612eab565b8152611b8882612fc7565b602082018190528c5182515f92611ba092919061300d565b90505f5f611bb08f5f0151613093565b91509150611bbd82613154565b611bc681613154565b8351611bd39083856131f3565b84526020840151611be59082856131f3565b602085018190528451611bf791613222565b9f9e505050505050505050505050505050565b611c12615030565b50604080516103e0810182526201000081526010602080830191909152601282840152825180840184527f24f5991477e2b081f1aa0ebaa8044776781209d8bfccd7bec9130459c517b3aa81527f15a1f2f884493664d8f01b566e0cdec23f72bd5512b25cf86cebcf239eadc7c6818301526060830152825180840184527f04511aa6127f96fb3e1482a032d6f1d356b157bd0c431241867b37324c27443b81527f2abd582523e8b79487fad7d8ad6c5e7a6c4400d64f5e2ad3d0794ac5aed74f45818301526080830152825180840184527f0dfe23513249407c32391b0d014a98fd4e2a0a4d2a59c50561722a17bc632a8981527f25866bc21a0a0602603b89e7ce834f86b0f533db03f4a2c154a2a4a2ab72b2608183015260a0830152825180840184527f2a26b2e79c20ba68faf3f773f0d6414b94b3aa111f97b16969b5c40edca0beff81527f0ab1b27695958a65c2e9ae70d75b5348ad39ea020f483439fcb53afa4ea3ce9a8183015260c0830152825180840184527f0fc7132e961738f6fd4dcf1699f2b7edab6c4f15b4f6dc38eb18ca4025165b6c81527f158bff580b1d00c42549f310cbcd055f2b957085627a7f73682fb6ce7a77c5b28183015260e0830152825180840184527f2c5afea869fec7d857143d27460ed2d7524f9b1a638abe440232482b86e6ba1281527f29ef8c5d102fe8df459565f9d58a05c68a25b77a0a7b49a6737c2e555eed779181830152610100830152825180840184527f1ad0852ae1f831506b33a76a4968849abaf87e068b8e00ba462e190ff4dc0ff981527f2b782e70b28e331338317e348ecb3d3ee69c0cb7b1ca634b32395b5349605a9381830152610120830152825180840184527f0c985ba6134f635ed8fbbeec99e52c6b8d3f4c52739ddfc11f8eb700b4b45c2681527f239f25abc0b67b3fde26a6d36eba321d242d4261052fe4f95aae5ac502f815ca81830152610140830152825180840184527f2313353fa65a4c5a2084eda4cdced2955b728ad69c578a02e5bcc575cd2c79af81527f22286ef9ba1b10021d15709beaa1ba52b7d6b43394db83fa81a6ec8e0ece8f0a81830152610160830152825180840184527f0dea1a5892ca6065d1b906d87be6c9ac1738c63815b706b83a544ae027fedd6981527f2ee2ac044f226f28fb4a09863bae77fa908ed944193d485969a759ce799cdcb581830152610180830152825180840184527f1d72ff42f9c29c482009bddf6bb7f5f1d1b2273aa1ac7c4321150d9acbfe449d81527f15b3a68d63b0a5b91d88e8f3b549b1daebec185330c01e747d41147c59d2c29b818301526101a0830152825180840184527f19d43f631cc20dd1c1cba50317a50526e1ccf905c4f56e2973466900e371a82281527f1fda726f7d1f326a293e42a5106684cb0f443b4e7d7a0ec62d08d8e6a9020790818301526101c0830152825180840184527f107bb6e6b4a8b63c0b935b4535e0912452bca41fa3fcfc5dc735d742f2854a4481527e6743595662b850722add5301e35e1178a8e8bcf48ed5f37ad48db7b15ad353818301526101e0830152825180840184527f2fbb65a4532c9b82522faf73281f0dd1f2c8511920ba67af9cd105eea02ca76281527f0f431feb7734f8e746a41d9dda9bf390ef9319b59b6ab9490b4909e4cf817fb581830152610200830152825180840184527e631fc352ab49d39aec2b3b7816fe8329074defa18df7a8cec6e43fb429444a81527f0e44775c314b211e18f8b72ff011bfecee1e233f6da9be23b10c3cf23f25c20581830152610220830152825180840184527f1ef031b520a7f4a2deb642fe03cdc8e13cc913e33920f20d928b142daa6e147a81527f0d7cac6f7727da622075a098b707a34487dcf739bf9867bc89a8798b386b2e7a81830152610240830152825180840184527f1fbfe1aeb4f4beda4c5cfe9b761047323b999b05854452731512dc423638f65681527f12175a830663b237a6ddef10127799d718ee39fadc5b05be231ae5d13e9bb08d81830152610260830152825180840184527f136eeae637aa458631dfca684947b607f44678857fefedf36ec797130a6b477c81527f129fa19e1e2e81cd7c0da21c3da6a8729e62bdeac12183993f02b3eeae1286ef81830152610280830152825180840184527f093c6f19de157581094a5832ecb8e7d1cb26dc0fc9c5137ecf90479846674e8b81527f06df953cfa56ab485511644b0ae8e208e4a6fccaeed88ba82d4b22636b015e0c818301526102a0830152825180840184527ece1f0a7d87806d2dea7b11dea0444abc7d7ee1d28c44aa6b92cf45936cf60081527f01f40f2f5d2dfaf791d89587007774ff7d169978d00e6220f1dba247f09fbd3e818301526102c0830152825180840184527f1476eae1f9868f4cdf92dd8da291d27e595109eb3b565f961f904b9cd83f1ada81527f247cbc51ec8938703d422e3e3fd5b39e82a1a44c6431602be1ca2668419e8762818301526102e0830152825180840184527f1010bb25bb88907d788ace34655a66434421bc11ca4692d801e16f6e36cd608881527f2ee8a976bbe0711aa45dac6c14fc7a98ab84f9bf196989e2eda61ff54ddc0a3281830152610300830152825180840184527f099e3bd5a0a00ab7fe18040105b9b395b5d8b7b4a63b05df652b0d10ef146d2681527e15b8d2515d76e2ccec99dcd194592129af3a637f5a622a32440f860d1e2a7f81830152610320830152825180840184527f1b917517920bad3d8bc01c9595092a222b888108dc25d1aa450e0b4bc212c37e81527f305e8992b148eedb22e6e992077a84482141c7ebe42000a1d58ccb74381f6d1981830152610340830152825180840184527f13567e3b915c81013ada15236ba5cfa60111b440400b2bca37e2b1085e924a7781527f0148d22589b91f0d8f4674af5744dedafd63caea904b434e748f9713de8cc3d781830152610360830152825180840184527f043d063b130adfb37342af45d0155a28edd1a7e46c840d9c943fdf45521c64ce81527f261522c4089330646aff96736194949330952ae74c573d1686d9cb4a007338548183015261038083015282518084018452600181526002818301526103a083015282518084019093527f18ab36079c05bcb1aaa6fd46742b617e05136bf23c90424d8f66a67782c358e783527f056d42d68cccf60cca6ddbfb3d71597fa6c996f6e13ff80a48a88030dac13b05908301526103c081019190915290565b5f6103dd61254f8385615b9f565b61264a565b61255c615313565b60408051808201909152805f516020615c6e5f395f51905f5261258260205f8789615b4c565b61258b91615b9f565b6125959190615bbc565b81526020908101905f516020615c6e5f395f51905f52906125ba906040908789615b4c565b6125c391615b9f565b6125cd9190615bbc565b90529392505050565b5f5f516020615c8e5f395f51905f52825b0692915050565b5f5f516020615c8e5f395f51905f5282840990505b92915050565b5f5f516020615c8e5f395f51905f528284089392505050565b5f5f516020615c8e5f395f51905f52825f516020615c8e5f395f51905f520384089392505050565b5f5f516020615c8e5f395f51905f52826125e7565b5f6103dd836108cf8461295d565b5f5f604051806101200160405280619d8081526020017f30644e72e131a029b85045b68181585d2833e84879b9709143e1f593efffec5181526020016105a081526020017f30644e72e131a029b85045b68181585d2833e84879b9709143e1f593effffd31815260200161024081526020017f30644e72e131a029b85045b68181585d2833e84879b9709143e1f593effffd3181526020016105a081526020017f30644e72e131a029b85045b68181585d2833e84879b9709143e1f593efffec518152602001619d8081525090505f600190505f5f90505b60098110156127665761275c826108cf8784612622565b9150600101612745565b5061276f61533e565b5f5b60098110156127c0576127a1610d4985836009811061279257612792615b73565b60200201516108cf8985612622565b8282600981106127b3576127b3615b73565b6020020152600101612771565b505f5b6009811015612806576127fc856108d48984600981106127e5576127e5615b73565b6020020151858560098110610b7d57610b7d615b73565b94506001016127c3565b5061281184836125ee565b9695505050505050565b5f61282461535d565b61282f868285613416565b61283b868683866135c2565b612847868683866137ae565b6128528682856139d3565b61285d868285613bc7565b61286986868386613f10565b6128748682856143bc565b61287f8682856147ce565b61288a868285614b8f565b6128118185614e8f565b60605f826001600160401b038111156128af576128af615940565b6040519080825280602002602001820160405280156128d8578160200160208202803683370190505b50905083815f815181106128ee576128ee615b73565b602090810291909101015260015b8381101561295557612930826129136001846155d3565b8151811061292357612923615b73565b6020026020010151612b3d565b82828151811061294257612942615b73565b60209081029190910101526001016128fc565b509392505050565b5f5f8290505f604051602081526020808201526020604082015282606082015260025f516020615c8e5f395f51905f520360808201525f516020615c8e5f395f51905f5260a082015260205f60c08360055afa806129b9575f5ffd5b505f51608091909101604052949350505050565b5f516020615c8e5f395f51905f520390565b60605f826001600160401b038111156129fa576129fa615940565b604051908082528060200260200182016040528015612a23578160200160208202803683370190505b509050825b8015612b32575f85612a3b6001846155d3565b81518110612a4b57612a4b615b73565b602002602001015190505f89600184612a6491906155d3565b601c8110612a7457612a74615b73565b602002015190505f612acf612a93612a8c858d6125ee565b60026125ee565b6108f28b612aa26001896155d3565b601c8110612ab257612ab2615b73565b60200201516108cf612ac9886108cf60018a612622565b87612622565b9050612af0816108cf610d49612aea876108cf600189612622565b86612609565b99508990508085612b026001876155d3565b81518110612b1257612b12615b73565b60200260200101818152505050505080612b2b90615bdb565b9050612a28565b509695505050505050565b5f61260382836125ee565b5f600181612b61612b5b87610100614ee8565b83612622565b905080612b815760405163835eb8f760e01b815260040160405180910390fd5b612b8961537c565b80518390525f5b7f0000000000000000000000000000000000000000000000000000000000000000811015612c72575f612bc48260096155bc565b612bcf906001615b39565b905084835f0151826101008110612be857612be8615b73565b60200201525f612bf9826001615b39565b90505b612c07600983615b39565b811015612c68578351612c4790612c1f6001846155d3565b6101008110612c3057612c30615b73565b60200201518a85601c8110610b7d57610b7d615b73565b8451826101008110612c5b57612c5b615b73565b6020020152600101612bfc565b5050600101612b90565b50608081018390525f602082018190525b610100811015612d8357612ca4612c9e83608001518a6125ee565b85612622565b8260a00151826101008110612cbb57612cbb615b73565b602002015260a0820151612ce590826101008110612cdb57612cdb615b73565b602002015161295d565b8260a00151826101008110612cfc57612cfc615b73565b602002018181525050612d4282602001516108d4845f0151846101008110612d2657612d26615b73565b60200201518560a00151856101008110610b7d57610b7d615b73565b60208301526080820151612d76907f204bd3277422fad364751ad938e2b5e6a54cf8c68712848a692c553d0329f5d66125ee565b6080830152600101612c83565b505f612d94836108cf61010061295d565b9050612da48260200151826125ee565b602083015260a0820151612dbf905f5b6020020151826125ee565b604083015260a0820151612deb90612dda60016101006155d3565b6101008110612db457612db4615b73565b60608301526040820151612e01908a6002610b7d565b60c08301819052612e61906108d4612e398b7f204bd3277422fad364751ad938e2b5e6a54cf8c68712848a692c553d0329f5d6612622565b60208d015160408e01516108cf91612e5091612622565b8e5160208901516108f291906125ee565b60c083018190526060830151612e9691612e8a916108d4906108cf8e600260200201518c612622565b6108f2858c6003610b7d565b60c08301819052159998505050505050505050565b612eb3615313565b5f6003612ee17f00000000000000000000000000000000000000000000000000000000000000006024615b39565b612eeb9190615b39565b612ef6906003615b39565b90505f5b81811015612f2c57612f24858281518110612f1757612f17615b73565b6020026020010151613154565b600101612efa565b50604051600190815b60018401811015612f915760208102870160208202870181515160408501528151602001516060850152805160808501525050604080830160606040850160075afa8316925060408260808460065afa90921691600101612f35565b5080518452602081015160208501525080612fbf576040516352ec174560e11b815260040160405180910390fd5b505092915050565b612fcf615313565b5f516020615c6e5f395f51905f5282602001515f516020615c6e5f395f51905f52612ffa91906155d3565b6130049190615bbc565b60208301525090565b5f5f5f61301986613093565b915091506130256153c0565b82518152602080840151818301528251604080840191909152838201516060840152875160808401528782015160a0840152865160c08401528682015160e084015251610bbd9161307891849101615bf0565b6040516020818303038152906040528051906020012061264a565b61309b615313565b6130a3615313565b82516020808501516040860151606087015160cc90811b608892831b604494851b90961795909517949094178652608087015160a088015160c089015160e08a0151871b90841b91851b9092171717868401526101008701516101208801516101408901516101608a0151871b90841b91851b909217171785526101808701516101a08801516101c08901516101e09099015190951b9790911b9390911b1791909117939093179281019290925291565b805160208201515f5f516020615c6e5f395f51905f528380095f516020615c6e5f395f51905f5260035f516020615c6e5f395f51905f52838709085f516020615c6e5f395f51905f5284850914915050806131ed5760405162461bcd60e51b8152602060048201526019602482015278706f696e74206973206e6f74206f6e2074686520637572766560381b60448201526064016100e5565b50505050565b6131fb615313565b613203615313565b61320d8386614f49565b90506132198185614f9f565b95945050505050565b81516020808401518351848301516040805194850195909552938301919091527f198e9393920d483a7260bfb731fb5d25f1aa493335a9e71297e485b7aef312c260608301527f1800deef121f1e76426a00665e5c4479674322d4f75edadd46debd5cd992f6ed60808301527f090689d0585ff075ec9e99ad690c3395bc4b313370b38ef355acdadcd122975b60a08301527f12c85ea5db8c6deb4aab71808dcb408fe3d1e7690c43d37b4ce6cc0166fa7daa60c083015260e08201526101008101919091527f260e01b251f6f1c7e7ff4e580791dee8ea51d87a358e038b4efe30fac09383c16101208201527f0118c4d5b837bcc2bc89b5b398b5974e9f5944073b32078b7e231fec938883b06101408201527f04fc6369f7110fe3d25156c1bb9a72859cf2a04641f99ba4ee413c80da6a5fe46101608201527f22febda3c0c0632a56475b4214e5615e11e6dd3f96e6cea2854a87d4dacc5e556101808201525f9081906101a00160405160208183030381529060405290505f5f60086001600160a01b0316836040516133b89190615c24565b5f60405180830381855afa9150503d805f81146133f0576040519150601f19603f3d011682016040523d82523d5f602084013e6133f5565b606091505b50915091508180156128115750808060200190518101906128119190615c3a565b5f613422846007615000565b90507f183227397098d014dc2822db40c0ac2e9419f4243cdcb848a1f0fac9f80000005f61348361347d613457856003612622565b6108cf6134726134678b5f615000565b6108cf8c601d615000565b6108cf8b601c615000565b836125ee565b90506135046134f96134e06134c76134ae856108d46134a38d6002615000565b6108cf8e601c615000565b6108d46134bc8c6003615000565b6108cf8d601d615000565b6108d46134d58b6004615000565b6108cf8c601e615000565b6108d46134ee8a6005615000565b6108cf8b601f615000565b6108d4886001615000565b9050613523816108d4613518866001612622565b6108cf8a6027615000565b905061352f81846125ee565b905061353b81856125ee565b8552505f905061357561356b61356061355588601c615000565b6108d489601f615000565b6108f2886024615000565b6108d4875f615000565b9050613586816108cf846002612622565b9050613597816108cf846001612622565b90506135a381836125ee565b90506135af81846125ee565b9050808460015b60200201525050505050565b5f5f5f6135f86135ee6135d689601c615000565b6108d46135e48b6012615000565b8a606001516125ee565b8760800151612609565b9050613631816108cf61362761360f8b601d615000565b6108d461361d8d6013615000565b8c606001516125ee565b8960800151612609565b9050613656816108cf6136276136488b601e615000565b6108d461361d8d6014615000565b905061367b816108cf61362761366d8b601f615000565b6108d461361d8d6015615000565b92505f905061369f6135ee61369189601c615000565b6108d46135e48b600e615000565b90506136c4816108cf6136276136b68b601d615000565b6108d461361d8d600f615000565b90506136e9816108cf6136276136db8b601e615000565b6108d461361d8d6010615000565b905061370e816108cf6136276137008b601f615000565b6108d461361d8d6011615000565b91505f905061373561372f613724896020615000565b6108d48a601a615000565b846125ee565b905061376a816108f261376461374c8b6028615000565b6108d461375a8d601b615000565b8c60a001516125ee565b856125ee565b905061377681856125ee565b6040860152505f61379961376461378e89601b615000565b6108cf8a6028615000565b9050808560035b602002015250505050505050565b5f5f61380c6137f46137dc6137c76136278a6016615000565b6108d46137d58b6017615000565b8a516125ee565b6108d46137ea8a6018615000565b89602001516125ee565b6108d4613802896019615000565b88604001516125ee565b91505f61384361382a61382089601c615000565b8860800151612609565b6108d46138388a6003615000565b6108cf8b6024615000565b90505f61386c61385489601d615000565b6108d46138618b5f615000565b6108cf8c6025615000565b90505f61389661387d8a601e615000565b6108d461388b8c6001615000565b6108cf8d6026615000565b90506138d56138bd6138af856108d4868d5f01516125ee565b6108d4848c602001516125ee565b6108d46138cb8c6004615000565b8b604001516125ee565b93505050505f6138e961372f886021615000565b90505f6138fa61372f896021615000565b90505f61393261391961390e8b6023615000565b6108d48c6006615000565b6108f26139278c6023615000565b6108cf8d6006615000565b90505f613950612b5b61394587896125ee565b6108cf8d6021615000565b905061395c81886125ee565b90505f6139846139766139708d6006615000565b876125ee565b6108f26139708e6022615000565b90505f6139928c6023615000565b90505f6139a2612b5b83846125ee565b60808c0185905260a08c0184905290506139bc818b6125ee565b8b6006602002015250505050505050505050505050565b5f6139df5f6001612622565b90505f6139ed5f6002612622565b90505f6139fb5f6003612622565b90505f613a17613a0c88601d615000565b6108f289601c615000565b90505f613a33613a2889601e615000565b6108f28a601d615000565b90505f613a4f613a448a601f615000565b6108f28b601e615000565b90505f613a6b613a608b6024615000565b6108f28c601f615000565b905083613a7c816108cf818b612609565b9050613a8c816108cf878a612609565b9050613a9c816108cf8789612609565b9050613aad816108cf8d6008615000565b9050613ab9818a6125ee565b60e08b01525082613ace816108cf818b612609565b9050613ade816108cf868a612609565b9050613aee816108cf8689612609565b9050613aff816108cf8d6008615000565b9050613b0b818a6125ee565b6101008b01525081613b21816108cf818b612609565b9050613b31816108cf858a612609565b9050613b41816108cf8589612609565b9050613b52816108cf8d6008615000565b9050613b5e818a6125ee565b6101208b01525080613b74816108cf818b612609565b9050613b84816108cf848a612609565b9050613b94816108cf8489612609565b9050613ba5816108cf8d6008615000565b9050613bb1818a6125ee565b610140909a019990995250505050505050505050565b613c006040518060e001604052805f81526020015f81526020015f81526020015f81526020015f81526020015f81526020015f81525090565b613c0b84601d615000565b8152613c1884601e615000565b6020820152613c28846024615000565b6040820152613c38846027615000565b6060820152613c48846026615000565b6080820152613c58846025615000565b60a08201525f613c69856002615000565b90505f613c76865f615000565b90505f613c8a8460400151855f0151612622565b90505f613c9f856020015186602001516125ee565b606086015190915086905f90613cb590806125ee565b90505f613cd3613ccd89602001518a606001516125ee565b886125ee565b90505f613cf2613ceb8a60a001518b60400151612609565b8a51612609565b9050613d0161397082886125ee565b9050613d28613d22613d1c613d168487612622565b88612622565b84612609565b83612609565b9050613d50613d45613d3a83876125ee565b6108cf8f6009615000565b6108cf60018a612622565b6101608c015250505050602085015160808601515f91613d6f91612609565b90505f613d8d613d838860600151886125ee565b8860200151612622565b90505f613db1613d9d84876125ee565b6108d46137648b60a001518c5f0151612622565b9050613dd9613dce613dc3838c6125ee565b6108cf8e6009615000565b6108cf600189612622565b6101808b0152505f9150613dfa9050613df3836011612609565b87516125ee565b90505f613e078384612609565b9050613e138182612609565b90505f613e218360096125ee565b9050613e4a613e4461372f613e3d8b60a001518c5f0151612609565b8b51612609565b82612622565b60c089018190525f90613e6590613ccd90613d3a908d6125ee565b9050613e788b600b602002015182612609565b6101608c0152505086515f9250613e9f9150613df390613e989080612609565b8851612609565b90505f613edf613eba836108cf8a5f01518b60a00151612622565b60208901516108f290613ecd9080612609565b6108cf8b602001518c60800151612609565b9050613efc89600c60200201516108d4613ccd613d3a858d6125ee565b89600c602002015250505050505050505050565b613f7a604051806101e001604052805f81526020015f81526020015f81526020015f81526020015f81526020015f81526020015f81526020015f81526020015f81526020015f81526020015f81526020015f81526020015f81526020015f81526020015f81525090565b613f92613f8886601e615000565b85604001516125ee565b808252613fb1906108d4613fa788601d615000565b87602001516125ee565b808252613fc6906108d4613df388601c615000565b808252613fd8906108d4876001615000565b80825260208201819052613ff1906108f287601f615000565b815261400c614001866024615000565b6108f287601c615000565b608082015261402a61401f866027615000565b6108f287601f615000565b60608201526080810151614043906108cf816001612622565b6101c082015260808101516140839061407990614072906108cf60015f516020615c8e5f395f51905f526155d3565b6001612609565b82606001516125ee565b60a082018190526140b9906140ab906108cf6140a0896002615000565b6108cf8a6003615000565b6108cf61376488600a615000565b83600e60200201526101c08101516140dd906140ab906108cf6140a0896002615000565b6101e08401528051614102906108cf6140f7886002615000565b6108cf896003615000565b6101208201525f61412161411787601f615000565b8360200151612622565b9050614132816108cf836001612622565b60e083015261414f614145876026615000565b86604001516125ee565b60408301819052614172906108d4614168896025615000565b88602001516125ee565b60408301819052614192906108d461418b896024615000565b88516125ee565b60408301526141af6141a5876027615000565b8360400151612622565b60408301525f6141ce6141c3886026615000565b6108f289601e615000565b90506142206141fb61347d614072866080015160015f516020615c8e5f395f51905f526108cf91906155d3565b6108cf614072866040015160015f516020615c8e5f395f51905f526108cf91906155d3565b60c084015260408301516142429061423890806125ee565b8460400151612622565b61010084015260c083015161426e90614260906108cf8a6004615000565b6108cf6139708a600a615000565b6102008601526101c083015161428d90614260906108cf8a6004615000565b6102208601526101008301516142ac90614260906108cf8a6004615000565b61024086015260e08301516142c6906108cf896004615000565b6101408401526142e56142da886025615000565b6108f289601d615000565b6101608401526080830151614323906141c39061431890614072906108cf60015f516020615c8e5f395f51905f526155d3565b8561016001516125ee565b61018084018190526101208401516101a0850181905261435a916108d4906108cf61434f8c6005615000565b6108cf8d6002615000565b6101a08401819052835161437a91906108d4906108cf61434f8c5f615000565b6101a084018190526101408401516143929190612609565b6101a084018190526143ac906108cf6139708a600a615000565b6101a0840181905285600d6137a0565b6143f56040518060e001604052805f81526020015f81526020015f81526020015f81526020015f81526020015f81526020015f81525090565b61442a61441161440686601c615000565b6108cf876025615000565b6108d461441f876024615000565b6108cf88601d615000565b815261446f61446461444b61444087601c615000565b6108cf88601f615000565b6108d461445988601d615000565b6108cf89601e615000565b6108f2866026615000565b6040820181905261448490600160441b6125ee565b6040820181905261449a906108f2866027615000565b6040820181905281516144ad9190612609565b604082018190526144c3906108cf866005615000565b604082015280516144d890600160441b6125ee565b8082526144f8906108d46144ed876024615000565b6108cf886025615000565b8082526020820181905261451f906108f261451487601e615000565b6108d488601f615000565b60208201819052614535906108cf866004615000565b6020820152805160608201819052614552906108d486601f615000565b60608201819052614576906108f261456b876026615000565b6108d4886027615000565b6060820181905261458b906108cf865f615000565b8160600181815250505f6145b46145aa83602001518460400151612609565b8360600151612609565b90506145c5816108cf876003615000565b90506145dd6145d5866025615000565b6140006125ee565b608083018190526145f3906108d4876024615000565b60808301819052614606906140006125ee565b6080830181905261461c906108d487601e615000565b6080830181905261462f906140006125ee565b60808301819052614645906108d487601d615000565b60808301819052614658906140006125ee565b6080830181905261466e906108d487601c615000565b60808301819052614684906108f287601f615000565b6080830181905261469a906108cf876005615000565b60808301526146ad6145d5866026615000565b60a083018190526146c3906108d4876025615000565b60a083018190526146d6906140006125ee565b60a083018190526146ec906108d4876024615000565b60a083018190526146ff906140006125ee565b60a08301819052614715906108d487601f615000565b60a08301819052614728906140006125ee565b60a0830181905261473e906108d487601e615000565b60a08301819052614754906108f2876027615000565b60a08301819052614769906108cf875f615000565b60a0830181905260808301515f916147819190612609565b9050614792816108cf886004615000565b905061479e8282612609565b60c084018190526147b7906108cf61397089600b615000565b60c084018190528560136020020152505050505050565b6148446040518061022001604052805f81526020015f81526020015f81526020015f81526020015f81526020015f81526020015f81526020015f81526020015f81526020015f81526020015f81526020015f81526020015f81526020015f81526020015f81526020015f81526020015f81525090565b61485d61485285601c615000565b6108d4866002615000565b815261487861486d85601d615000565b6108d4866003615000565b602082015261489661488b85601e615000565b6108d4866004615000565b60408201526148b46148a985601f615000565b6108d4866005615000565b606082015280516148e6906148df906148d8906148d190806125ee565b84516125ee565b83516125ee565b82516125ee565b608082015260208101516149249061491a906149109061490690806125ee565b84602001516125ee565b83602001516125ee565b82602001516125ee565b60a08201526040810151614962906149589061494e9061494490806125ee565b84604001516125ee565b83604001516125ee565b82604001516125ee565b60c08201526060810151614996906140799061498c9061498290806125ee565b84606001516125ee565b83606001516125ee565b60e0820152608081015160a08201516149af9190612609565b61010082015260c081015160e08201516149c99190612609565b61012082015260a08101516149ed906149e29080612609565b826101200151612609565b61014082015260e0810151614a1190614a069080612609565b826101000151612609565b610160820152610120810151614a279080612609565b6101e08201819052614a4890614a3d9080612609565b826101600151612609565b6101e0820152610100810151614a5e9080612609565b6101a08201819052614a7f90614a749080612609565b826101400151612609565b6101a08201819052610160820151614a9691612609565b6101808201526101408101516101e0820151614ab29190612609565b6101c0820152614ac661347d85600c615000565b6102008201819052610280840151610180830151614af1926108d4916108cf906108f28a6024615000565b8360146020020152614b2183601560200201516108d48361020001516108cf856101a001516108f28a6025615000565b8360156020020152614b5183601660200201516108d48361020001516108cf856101c001516108f28a6026615000565b8360166020020152614b8183601760200201516108d48361020001516108cf856101e001516108f28a6027615000565b836017602002015250505050565b614be16040518061016001604052805f81526020015f81526020015f81526020015f81526020015f81526020015f81526020015f81526020015f81526020015f81526020015f81526020015f81525090565b5f6040518060800160405280614c167f10dc6e9c006ea38b04b1e03b4bd9490c0d03f98929ca1d7fb56821fd19d3b6e76125d6565b8152602001614c447f0c28145b6a44df3e0149b3d0a30b3bb599df9756d4dd9b84a86b38cfb45a740b6125d6565b8152602001614c717e544b8338791518b2c7645a50392798b21f75bb60e3596170067d00141cac156125d6565b8152602001614c9f7f222c01175718386f2e2e82eb122789e352e105a3b8fa852613bc534433ee428b6125d6565b90529050614cbc614cb186601c615000565b6108d4876002615000565b6101208301819052614cfb90614cf090614ce590614cda90806125ee565b8561012001516125ee565b8461012001516125ee565b8361012001516125ee565b8252614d0885601d615000565b6020830152614d1885601e615000565b6040830152614d2885601f615000565b606083015281516020830151614d50916145aa91614d469190612609565b8460400151612609565b6080830152614d6361372f86600d615000565b6101408301528151614d8490614d7a90835f610b7d565b8360800151612609565b60a0830152614db084601860200201516108d48461014001516108cf8660a001516108f28b6024615000565b6103008501526020820151614dcb90614d7a90836001610b7d565b60c0830152614df784601960200201516108d48461014001516108cf8660c001516108f28b6025615000565b6103208501526040820151614e1290614d7a90836002610b7d565b60e0830152614e3e84601a60200201516108d48461014001516108cf8660e001516108f28b6026615000565b6103408501526060820151614e5990614d7a90836003610b7d565b610100830152614e8784601b60200201516108d48461014001516108cf8661010001516108f28b6027615000565b84601b6135b6565b815160015b601c811015614ee157614ed7826108d48684601c8110614eb657614eb6615b73565b602002015186614ec76001876155d3565b601b8110610b7d57610b7d615b73565b9150600101614e94565b5092915050565b5f5f8390505f60405160208152602080820152602060408201528260608201528460808201525f516020615c8e5f395f51905f5260a082015260205f60c08360055afa80614f34575f5ffd5b505f5160809190910160405295945050505050565b614f51615313565b614f59615313565b604051835181526020840151602082015284604082015260408160608360075afa80614f83575f5ffd5b5080518252602080820151908301526060016040529392505050565b614fa7615313565b614faf615313565b6040518451815260208501516020820152835160408201526020840151606082015260408160808360065afa80614fe4575f5ffd5b5080518252602080820151908301526080016040529392505050565b5f8282602881111561501457615014615c59565b6029811061502457615024615b73565b60200201519392505050565b604051806103e001604052805f81526020015f81526020015f8152602001615056615313565b8152602001615063615313565b8152602001615070615313565b815260200161507d615313565b815260200161508a615313565b8152602001615097615313565b81526020016150a4615313565b81526020016150b1615313565b81526020016150be615313565b81526020016150cb615313565b81526020016150d8615313565b81526020016150e5615313565b81526020016150f2615313565b81526020016150ff615313565b815260200161510c615313565b8152602001615119615313565b8152602001615126615313565b8152602001615133615313565b8152602001615140615313565b815260200161514d615313565b815260200161515a615313565b8152602001615167615313565b8152602001615174615313565b8152602001615181615313565b815260200161518e615313565b815260200161519b615313565b81526020016151a8615313565b81526020016151b5615313565b905290565b604051806102a001604052806151ce6153df565b81526020016151db615313565b81526020016151e8615313565b81526020016151f5615313565b8152602001615202615313565b815260200161520f615313565b815260200161521c615313565b8152602001615229615313565b8152602001615236615313565b81526020016152436153fe565b81526020015f815260200161525661542b565b8152602001615263615459565b81526020015f8152602001615276615313565b81526020015f8152602001615289615478565b815260200161529661535d565b815260200161519b6154a6565b604051806101c001604052805f81526020015f81526020015f81526020015f81526020015f81526020015f81526020015f81526020016152e16154a6565b81526020016152ee6154a6565b81526020015f81526020015f81526020015f81526020015f8152602001606081525090565b60405180604001604052805f81526020015f81525090565b60405180604001604052806151a8615313565b6040518061012001604052806009906020820280368337509192915050565b604051806103800160405280601c906020820280368337509192915050565b6040518060e0016040528061538f6154c4565b81526020015f81526020015f81526020015f81526020015f81526020016153b46154c4565b81526020015f81525090565b6040518061010001604052806008906020820280368337509192915050565b6040518061020001604052806010906020820280368337509192915050565b60405180606001604052806003905b615415615313565b81526020019060019003908161540d5790505090565b604051806103800160405280601c905b61544361533e565b81526020019060019003908161543b5790505090565b6040518061052001604052806029906020820280368337509192915050565b604051806103600160405280601b905b615490615313565b8152602001906001900390816154885790505090565b60405180608001604052806004906020820280368337509192915050565b604051806120000160405280610100906020820280368337509192915050565b5f5f5f5f604085870312156154f7575f5ffd5b84356001600160401b0381111561550c575f5ffd5b8501601f8101871361551c575f5ffd5b80356001600160401b03811115615531575f5ffd5b876020828401011115615542575f5ffd5b6020918201955093508501356001600160401b03811115615561575f5ffd5b8501601f81018713615571575f5ffd5b80356001600160401b03811115615586575f5ffd5b8760208260051b840101111561559a575f5ffd5b949793965060200194505050565b634e487b7160e01b5f52601160045260245ffd5b8082028115828204841417612603576126036155a8565b81810381811115612603576126036155a8565b805f5b60108110156131ed5781518452602093840193909101906001016155e9565b805f5b60038110156131ed5761562984835180518252602090810151910152565b604093909301926020919091019060010161560b565b805f5b601c8110156131ed578151845f5b600981101561566f578251825260209283019290910190600101615650565b505050610120939093019260209190910190600101615642565b805f5b60298110156131ed57815184526020938401939091019060010161568c565b805f5b601b8110156131ed576156cc84835180518252602090810151910152565b60409390930192602091909101906001016156ae565b805f5b601c8110156131ed5781518452602093840193909101906001016156e5565b805f5b60048110156131ed578151845260209384019390910190600101615707565b8183525f6001600160fb1b0383111561573d575f5ffd5b8260051b80836020870137939093016020019392505050565b6157618188516155e6565b5f602088015161577f61020084018280518252602090810151910152565b5060408801518051610240840152602090810151610260840152606089015180516102808501528101516102a0840152608089015180516102c08501528101516102e084015260a0890151805161030085015281015161032084015260c0890151805161034085015281015161036084015260e089015180516103808501528101516103a084015261010089015180516103c085015201516103e0830152610120880151615831610400840182615608565b506101408801516104c08301526101608801516158526104e084018261563f565b50610180880151615867612460840182615689565b506101a08801516129808301526101c088015180516129a0840152602001516129c08301526101e08801516129e08301526102008801516158ac612a008401826156ab565b506102208801516158c16130c08401826156e2565b506102408801516158d6613440840182615704565b5061026088015180516134c08401526020908101516134e0840152610280890151805161350085015201516135208301526135c0613540830181905261591f9083018789615726565b613560830195909552506135808101929092526135a0909101529392505050565b634e487b7160e01b5f52604160045260245ffd5b60405161014081016001600160401b038111828210171561597757615977615940565b60405290565b604051601f8201601f191681016001600160401b03811182821017156159a5576159a5615940565b604052919050565b5f60c082840312156159bd575f5ffd5b60405160c081016001600160401b03811182821017156159df576159df615940565b604090815283518252602080850151908301528381015190820152606080840151908201526080808401519082015260a0928301519281019290925250919050565b5f82601f830112615a30575f5ffd5b5f610360615a3d8161597d565b915083018185821115615a4e575f5ffd5b845b82811015615a68578051825260209182019101615a50565b509195945050505050565b5f82601f830112615a82575f5ffd5b5f610380615a3d8161597d565b5f610be0828403128015615aa1575f5ffd5b50615aaa615954565b615ab484846159ad565b8152615ac38460c08501615a21565b6020820152615ad6846104208501615a73565b60408201526107a08301516060820152615af4846107c08501615a73565b6080820152610b4083015160a0820152610b6083015160c0820152610b8083015160e0820152610ba0830151610100820152610bc09092015161012083015250919050565b80820180821115612603576126036155a8565b5f5f85851115615b5a575f5ffd5b83861115615b66575f5ffd5b5050820193919092039150565b634e487b7160e01b5f52603260045260245ffd5b5f60018201615b9857615b986155a8565b5060010190565b80356020831015612603575f19602084900360031b1b1692915050565b5f82615bd657634e487b7160e01b5f52601260045260245ffd5b500690565b5f81615be957615be96155a8565b505f190190565b5f8183825b6008811015615c14578151835260209283019290910190600101615bf5565b5050506101008201905092915050565b5f82518060208501845e5f920191825250919050565b5f60208284031215615c4a575f5ffd5b815180151581146103dd575f5ffd5b634e487b7160e01b5f52602160045260245ffdfe30644e72e131a029b85045b68181585d97816a916871ca8d3c208c16d87cfd4730644e72e131a029b85045b68181585d2833e84879b9709143e1f593f0000001a264697066735822122078e63a362dd4410de36e7b9933f5958c7e14cef9f5c361780d23c28d31ace1f064736f6c634300081f0033",
			"opcodes": "PUSH2 0x100 PUSH1 0x40 MSTORE CALLVALUE DUP1 ISZERO PUSH2 0x10 JUMPI PUSH0 PUSH0 REVERT JUMPDEST POP PUSH3 0x10000 PUSH1 0x80 MSTORE PUSH1 0x10 PUSH1 0xA0 MSTORE PUSH32 0xCA3403825B73E7CD6F8F6F70D95CBDF2588169C172E8E001C3F9CE632F54409 PUSH1 0xC0 MSTORE PUSH1 0x12 PUSH1 0xE0 MSTORE PUSH1 0x80 MLOAD PUSH1 0xA0 MLOAD PUSH1 0xC0 MLOAD PUSH1 0xE0 MLOAD PUSH2 0x5CE3 PUSH2 0xDD PUSH0 CODECOPY PUSH0 DUP2 DUP2 PUSH2 0x1B0 ADD MSTORE PUSH2 0x902 ADD MSTORE PUSH0 PUSH2 0x18E ADD MSTORE PUSH0 DUP2 DUP2 PUSH1 0x5B ADD MSTORE DUP2 DUP2 PUSH1 0x94 ADD MSTORE DUP2 DUP2 PUSH2 0x101 ADD MSTORE DUP2 DUP2 PUSH2 0x1D2 ADD MSTORE DUP2 DUP2 PUSH2 0xA30 ADD MSTORE DUP2 DUP2 PUSH2 0xB3D ADD MSTORE DUP2 DUP2 PUSH2 0xBDC ADD MSTORE DUP2 DUP2 PUSH2 0xC0A ADD MSTORE DUP2 DUP2 PUSH2 0xC90 ADD MSTORE DUP2 DUP2 PUSH2 0x1524 ADD MSTORE DUP2 DUP2 PUSH2 0x15D3 ADD MSTORE DUP2 DUP2 PUSH2 0x1606 ADD MSTORE DUP2 DUP2 PUSH2 0x1810 ADD MSTORE DUP2 DUP2 PUSH2 0x2B92 ADD MSTORE PUSH2 0x2EBB ADD MSTORE PUSH0 POP POP PUSH2 0x5CE3 PUSH0 RETURN INVALID PUSH1 0x80 PUSH1 0x40 MSTORE CALLVALUE DUP1 ISZERO PUSH2 0xF JUMPI PUSH0 PUSH0 REVERT JUMPDEST POP PUSH1 0x4 CALLDATASIZE LT PUSH2 0x29 JUMPI PUSH0 CALLDATALOAD PUSH1 0xE0 SHR DUP1 PUSH4 0xEA50D0E4 EQ PUSH2 0x2D JUMPI JUMPDEST PUSH0 PUSH0 REVERT JUMPDEST PUSH2 0x40 PUSH2 0x3B CALLDATASIZE PUSH1 0x4 PUSH2 0x54E4 JUMP JUMPDEST PUSH2 0x54 JUMP JUMPDEST PUSH1 0x40 MLOAD SWAP1 ISZERO ISZERO DUP2 MSTORE PUSH1 0x20 ADD PUSH1 0x40 MLOAD DUP1 SWAP2 SUB SWAP1 RETURN JUMPDEST PUSH0 PUSH0 PUSH2 0x7F PUSH32 0x0 PUSH2 0x2EE JUMP JUMPDEST SWAP1 POP PUSH2 0x8C DUP2 PUSH1 0x20 PUSH2 0x55BC JUMP JUMPDEST DUP6 EQ PUSH2 0xEE JUMPI PUSH32 0x0 DUP6 PUSH2 0xBF DUP4 PUSH1 0x20 PUSH2 0x55BC JUMP JUMPDEST PUSH1 0x40 MLOAD PUSH4 0x59895A53 PUSH1 0xE0 SHL DUP2 MSTORE PUSH1 0x4 DUP2 ADD SWAP4 SWAP1 SWAP4 MSTORE PUSH1 0x24 DUP4 ADD SWAP2 SWAP1 SWAP2 MSTORE PUSH1 0x44 DUP3 ADD MSTORE PUSH1 0x64 ADD JUMPDEST PUSH1 0x40 MLOAD DUP1 SWAP2 SUB SWAP1 REVERT JUMPDEST PUSH0 PUSH2 0xF7 PUSH2 0x3E4 JUMP JUMPDEST SWAP1 POP PUSH0 PUSH2 0x125 DUP9 DUP9 PUSH32 0x0 PUSH2 0x3F9 JUMP JUMPDEST SWAP1 POP PUSH1 0x10 DUP3 PUSH1 0x40 ADD MLOAD PUSH2 0x138 SWAP2 SWAP1 PUSH2 0x55D3 JUMP JUMPDEST DUP6 EQ PUSH2 0x157 JUMPI PUSH1 0x40 MLOAD PUSH4 0xFA066593 PUSH1 0xE0 SHL DUP2 MSTORE PUSH1 0x4 ADD PUSH1 0x40 MLOAD DUP1 SWAP2 SUB SWAP1 REVERT JUMPDEST PUSH1 0x40 MLOAD PUSH4 0x995BF457 PUSH1 0xE0 SHL DUP2 MSTORE PUSH0 SWAP1 PUSH20 0x0 SWAP1 PUSH4 0x995BF457 SWAP1 PUSH2 0x1FA SWAP1 DUP6 SWAP1 DUP12 SWAP1 DUP12 SWAP1 PUSH32 0x0 SWAP1 PUSH32 0x0 SWAP1 PUSH32 0x0 SWAP1 PUSH1 0x4 ADD PUSH2 0x5756 JUMP JUMPDEST PUSH2 0xBE0 PUSH1 0x40 MLOAD DUP1 DUP4 SUB DUP2 DUP7 GAS DELEGATECALL ISZERO DUP1 ISZERO PUSH2 0x216 JUMPI RETURNDATASIZE PUSH0 PUSH0 RETURNDATACOPY RETURNDATASIZE PUSH0 REVERT JUMPDEST POP POP POP POP PUSH1 0x40 MLOAD RETURNDATASIZE PUSH1 0x1F NOT PUSH1 0x1F DUP3 ADD AND DUP3 ADD DUP1 PUSH1 0x40 MSTORE POP DUP2 ADD SWAP1 PUSH2 0x23A SWAP2 SWAP1 PUSH2 0x5A8F JUMP JUMPDEST SWAP1 POP PUSH2 0x28A DUP8 DUP8 DUP1 DUP1 PUSH1 0x20 MUL PUSH1 0x20 ADD PUSH1 0x40 MLOAD SWAP1 DUP2 ADD PUSH1 0x40 MSTORE DUP1 SWAP4 SWAP3 SWAP2 SWAP1 DUP2 DUP2 MSTORE PUSH1 0x20 ADD DUP4 DUP4 PUSH1 0x20 MUL DUP1 DUP3 DUP5 CALLDATACOPY PUSH0 SWAP3 ADD SWAP2 SWAP1 SWAP2 MSTORE POP POP DUP6 MLOAD DUP6 MLOAD PUSH1 0x60 DUP2 ADD MLOAD PUSH1 0x80 SWAP1 SWAP2 ADD MLOAD SWAP2 SWAP4 POP SWAP2 POP PUSH1 0x1 PUSH2 0x8AC JUMP JUMPDEST DUP2 MLOAD PUSH1 0xA0 ADD MSTORE PUSH2 0x29A DUP3 DUP3 PUSH2 0xA13 JUMP JUMPDEST PUSH2 0x2B7 JUMPI PUSH1 0x40 MLOAD PUSH4 0x13F87443 PUSH1 0xE3 SHL DUP2 MSTORE PUSH1 0x4 ADD PUSH1 0x40 MLOAD DUP1 SWAP2 SUB SWAP1 REVERT JUMPDEST PUSH2 0x2C2 DUP3 DUP5 DUP4 PUSH2 0xBC8 JUMP JUMPDEST PUSH2 0x2DF JUMPI PUSH1 0x40 MLOAD PUSH4 0x52EC1745 PUSH1 0xE1 SHL DUP2 MSTORE PUSH1 0x4 ADD PUSH1 0x40 MLOAD DUP1 SWAP2 SUB SWAP1 REVERT JUMPDEST POP PUSH1 0x1 SWAP9 SWAP8 POP POP POP POP POP POP POP POP JUMP JUMPDEST PUSH0 DUP1 PUSH2 0x2FC PUSH1 0x2 PUSH1 0x8 PUSH2 0x55BC JUMP JUMPDEST SWAP1 POP PUSH2 0x30A PUSH1 0x2 PUSH1 0x4 PUSH2 0x55BC JUMP JUMPDEST PUSH2 0x314 SWAP1 DUP3 PUSH2 0x5B39 JUMP JUMPDEST SWAP1 POP PUSH1 0x1 PUSH2 0x323 PUSH1 0x9 DUP6 PUSH2 0x55BC JUMP JUMPDEST PUSH2 0x32D SWAP2 SWAP1 PUSH2 0x55BC JUMP JUMPDEST PUSH2 0x337 SWAP1 DUP3 PUSH2 0x5B39 JUMP JUMPDEST SWAP1 POP PUSH2 0x345 PUSH1 0x1 PUSH1 0x29 PUSH2 0x55BC JUMP JUMPDEST PUSH2 0x34F SWAP1 DUP3 PUSH2 0x5B39 JUMP JUMPDEST SWAP1 POP PUSH2 0x35D PUSH1 0x1 PUSH1 0x3 PUSH2 0x55BC JUMP JUMPDEST PUSH2 0x367 SWAP1 DUP3 PUSH2 0x5B39 JUMP JUMPDEST SWAP1 POP PUSH2 0x374 PUSH1 0x1 DUP5 PUSH2 0x55BC JUMP JUMPDEST PUSH2 0x37E SWAP1 DUP3 PUSH2 0x5B39 JUMP JUMPDEST SWAP1 POP PUSH2 0x38C PUSH1 0x1 PUSH1 0x4 PUSH2 0x55BC JUMP JUMPDEST PUSH2 0x396 SWAP1 DUP3 PUSH2 0x5B39 JUMP JUMPDEST SWAP1 POP PUSH1 0x2 PUSH2 0x3A5 PUSH1 0x1 DUP6 PUSH2 0x55D3 JUMP JUMPDEST PUSH2 0x3AF SWAP2 SWAP1 PUSH2 0x55BC JUMP JUMPDEST PUSH2 0x3B9 SWAP1 DUP3 PUSH2 0x5B39 JUMP JUMPDEST SWAP1 POP PUSH2 0x3C6 PUSH1 0x2 DUP1 PUSH2 0x55BC JUMP JUMPDEST PUSH2 0x3D0 SWAP1 DUP3 PUSH2 0x5B39 JUMP JUMPDEST SWAP1 POP PUSH2 0x3DD PUSH1 0x10 DUP3 PUSH2 0x5B39 JUMP JUMPDEST SWAP4 SWAP3 POP POP POP JUMP JUMPDEST PUSH2 0x3EC PUSH2 0x5030 JUMP JUMPDEST PUSH2 0x3F4 PUSH2 0x1C0A JUMP JUMPDEST SWAP1 POP SWAP1 JUMP JUMPDEST PUSH2 0x401 PUSH2 0x51BA JUMP JUMPDEST PUSH0 DUP1 JUMPDEST PUSH1 0x10 DUP2 LT ISZERO PUSH2 0x463 JUMPI PUSH2 0x430 DUP7 DUP4 DUP8 PUSH2 0x41E PUSH1 0x20 DUP4 PUSH2 0x5B39 JUMP JUMPDEST SWAP3 PUSH2 0x42B SWAP4 SWAP3 SWAP2 SWAP1 PUSH2 0x5B4C JUMP JUMPDEST PUSH2 0x2541 JUMP JUMPDEST DUP4 MLOAD DUP3 PUSH1 0x10 DUP2 LT PUSH2 0x443 JUMPI PUSH2 0x443 PUSH2 0x5B73 JUMP JUMPDEST PUSH1 0x20 MUL ADD DUP2 DUP2 MSTORE POP POP PUSH1 0x20 DUP3 PUSH2 0x459 SWAP2 SWAP1 PUSH2 0x5B39 JUMP JUMPDEST SWAP2 POP PUSH1 0x1 ADD PUSH2 0x404 JUMP JUMPDEST POP PUSH2 0x487 DUP6 DUP3 DUP7 PUSH2 0x475 PUSH1 0x40 DUP4 PUSH2 0x5B39 JUMP JUMPDEST SWAP3 PUSH2 0x482 SWAP4 SWAP3 SWAP2 SWAP1 PUSH2 0x5B4C JUMP JUMPDEST PUSH2 0x2554 JUMP JUMPDEST PUSH1 0x20 DUP4 ADD MSTORE PUSH2 0x497 PUSH1 0x40 DUP3 PUSH2 0x5B39 JUMP JUMPDEST SWAP1 POP PUSH2 0x4AA DUP6 DUP3 DUP7 PUSH2 0x475 PUSH1 0x40 DUP4 PUSH2 0x5B39 JUMP JUMPDEST PUSH1 0x40 DUP1 DUP5 ADD SWAP2 SWAP1 SWAP2 MSTORE PUSH2 0x4BD SWAP1 DUP3 PUSH2 0x5B39 JUMP JUMPDEST SWAP1 POP PUSH2 0x4D0 DUP6 DUP3 DUP7 PUSH2 0x475 PUSH1 0x40 DUP4 PUSH2 0x5B39 JUMP JUMPDEST PUSH1 0x60 DUP4 ADD MSTORE PUSH2 0x4E0 PUSH1 0x40 DUP3 PUSH2 0x5B39 JUMP JUMPDEST SWAP1 POP PUSH2 0x4F3 DUP6 DUP3 DUP7 PUSH2 0x475 PUSH1 0x40 DUP4 PUSH2 0x5B39 JUMP JUMPDEST PUSH1 0xA0 DUP4 ADD MSTORE PUSH2 0x503 PUSH1 0x40 DUP3 PUSH2 0x5B39 JUMP JUMPDEST SWAP1 POP PUSH2 0x516 DUP6 DUP3 DUP7 PUSH2 0x475 PUSH1 0x40 DUP4 PUSH2 0x5B39 JUMP JUMPDEST PUSH1 0xC0 DUP4 ADD MSTORE PUSH2 0x526 PUSH1 0x40 DUP3 PUSH2 0x5B39 JUMP JUMPDEST SWAP1 POP PUSH2 0x539 DUP6 DUP3 DUP7 PUSH2 0x475 PUSH1 0x40 DUP4 PUSH2 0x5B39 JUMP JUMPDEST PUSH1 0x80 DUP4 ADD MSTORE PUSH2 0x549 PUSH1 0x40 DUP3 PUSH2 0x5B39 JUMP JUMPDEST SWAP1 POP PUSH2 0x55C DUP6 DUP3 DUP7 PUSH2 0x475 PUSH1 0x40 DUP4 PUSH2 0x5B39 JUMP JUMPDEST PUSH1 0xE0 DUP4 ADD MSTORE PUSH2 0x56C PUSH1 0x40 DUP3 PUSH2 0x5B39 JUMP JUMPDEST SWAP1 POP PUSH2 0x57F DUP6 DUP3 DUP7 PUSH2 0x475 PUSH1 0x40 DUP4 PUSH2 0x5B39 JUMP JUMPDEST PUSH2 0x100 DUP4 ADD MSTORE PUSH2 0x590 PUSH1 0x40 DUP3 PUSH2 0x5B39 JUMP JUMPDEST SWAP1 POP PUSH2 0x5A3 DUP6 DUP3 DUP7 PUSH2 0x475 PUSH1 0x40 DUP4 PUSH2 0x5B39 JUMP JUMPDEST PUSH2 0x120 DUP4 ADD MLOAD MSTORE PUSH2 0x5B5 PUSH1 0x40 DUP3 PUSH2 0x5B39 JUMP JUMPDEST SWAP1 POP PUSH2 0x5C8 DUP6 DUP3 DUP7 PUSH2 0x41E PUSH1 0x20 DUP4 PUSH2 0x5B39 JUMP JUMPDEST PUSH2 0x140 DUP4 ADD MSTORE PUSH2 0x5D9 PUSH1 0x20 DUP3 PUSH2 0x5B39 JUMP JUMPDEST SWAP1 POP PUSH0 JUMPDEST DUP4 DUP2 LT ISZERO PUSH2 0x657 JUMPI PUSH0 JUMPDEST PUSH1 0x9 DUP2 LT ISZERO PUSH2 0x64E JUMPI PUSH2 0x601 DUP8 DUP5 DUP9 PUSH2 0x41E PUSH1 0x20 DUP4 PUSH2 0x5B39 JUMP JUMPDEST DUP5 PUSH2 0x160 ADD MLOAD DUP4 PUSH1 0x1C DUP2 LT PUSH2 0x618 JUMPI PUSH2 0x618 PUSH2 0x5B73 JUMP JUMPDEST PUSH1 0x20 MUL ADD MLOAD DUP3 PUSH1 0x9 DUP2 LT PUSH2 0x62E JUMPI PUSH2 0x62E PUSH2 0x5B73 JUMP JUMPDEST PUSH1 0x20 MUL ADD DUP2 DUP2 MSTORE POP POP PUSH1 0x20 DUP4 PUSH2 0x644 SWAP2 SWAP1 PUSH2 0x5B39 JUMP JUMPDEST SWAP3 POP PUSH1 0x1 ADD PUSH2 0x5E7 JUMP JUMPDEST POP PUSH1 0x1 ADD PUSH2 0x5DD JUMP JUMPDEST POP PUSH0 JUMPDEST PUSH1 0x29 DUP2 LT ISZERO PUSH2 0x6AB JUMPI PUSH2 0x674 DUP7 DUP4 DUP8 PUSH2 0x41E PUSH1 0x20 DUP4 PUSH2 0x5B39 JUMP JUMPDEST DUP4 PUSH2 0x180 ADD MLOAD DUP3 PUSH1 0x29 DUP2 LT PUSH2 0x68B JUMPI PUSH2 0x68B PUSH2 0x5B73 JUMP JUMPDEST PUSH1 0x20 MUL ADD DUP2 DUP2 MSTORE POP POP PUSH1 0x20 DUP3 PUSH2 0x6A1 SWAP2 SWAP1 PUSH2 0x5B39 JUMP JUMPDEST SWAP2 POP PUSH1 0x1 ADD PUSH2 0x65A JUMP JUMPDEST POP PUSH2 0x6BD DUP6 DUP3 DUP7 PUSH2 0x41E PUSH1 0x20 DUP4 PUSH2 0x5B39 JUMP JUMPDEST PUSH2 0x1A0 DUP4 ADD MSTORE PUSH2 0x6CE PUSH1 0x20 DUP3 PUSH2 0x5B39 JUMP JUMPDEST SWAP1 POP PUSH2 0x6E1 DUP6 DUP3 DUP7 PUSH2 0x475 PUSH1 0x40 DUP4 PUSH2 0x5B39 JUMP JUMPDEST PUSH2 0x120 DUP4 ADD MLOAD PUSH1 0x20 ADD MSTORE PUSH2 0x6F6 PUSH1 0x40 DUP3 PUSH2 0x5B39 JUMP JUMPDEST SWAP1 POP PUSH2 0x709 DUP6 DUP3 DUP7 PUSH2 0x475 PUSH1 0x40 DUP4 PUSH2 0x5B39 JUMP JUMPDEST PUSH2 0x120 DUP4 ADD MLOAD PUSH1 0x2 PUSH1 0x20 MUL ADD MSTORE PUSH2 0x721 PUSH1 0x40 DUP3 PUSH2 0x5B39 JUMP JUMPDEST SWAP1 POP PUSH2 0x734 DUP6 DUP3 DUP7 PUSH2 0x475 PUSH1 0x40 DUP4 PUSH2 0x5B39 JUMP JUMPDEST PUSH2 0x1C0 DUP4 ADD MSTORE PUSH2 0x745 PUSH1 0x40 DUP3 PUSH2 0x5B39 JUMP JUMPDEST SWAP1 POP PUSH2 0x758 DUP6 DUP3 DUP7 PUSH2 0x41E PUSH1 0x20 DUP4 PUSH2 0x5B39 JUMP JUMPDEST PUSH2 0x1E0 DUP4 ADD MSTORE PUSH2 0x769 PUSH1 0x20 DUP3 PUSH2 0x5B39 JUMP JUMPDEST SWAP1 POP PUSH0 JUMPDEST PUSH2 0x778 PUSH1 0x1 DUP6 PUSH2 0x55D3 JUMP JUMPDEST DUP2 LT ISZERO PUSH2 0x7C1 JUMPI PUSH2 0x790 DUP7 DUP4 DUP8 PUSH2 0x475 PUSH1 0x40 DUP4 PUSH2 0x5B39 JUMP JUMPDEST DUP4 PUSH2 0x200 ADD MLOAD DUP3 PUSH1 0x1B DUP2 LT PUSH2 0x7A7 JUMPI PUSH2 0x7A7 PUSH2 0x5B73 JUMP JUMPDEST PUSH1 0x20 MUL ADD MSTORE PUSH2 0x7B7 PUSH1 0x40 DUP4 PUSH2 0x5B39 JUMP JUMPDEST SWAP2 POP PUSH1 0x1 ADD PUSH2 0x76D JUMP JUMPDEST POP PUSH0 JUMPDEST DUP4 DUP2 LT ISZERO PUSH2 0x814 JUMPI PUSH2 0x7DD DUP7 DUP4 DUP8 PUSH2 0x41E PUSH1 0x20 DUP4 PUSH2 0x5B39 JUMP JUMPDEST DUP4 PUSH2 0x220 ADD MLOAD DUP3 PUSH1 0x1C DUP2 LT PUSH2 0x7F4 JUMPI PUSH2 0x7F4 PUSH2 0x5B73 JUMP JUMPDEST PUSH1 0x20 MUL ADD DUP2 DUP2 MSTORE POP POP PUSH1 0x20 DUP3 PUSH2 0x80A SWAP2 SWAP1 PUSH2 0x5B39 JUMP JUMPDEST SWAP2 POP PUSH1 0x1 ADD PUSH2 0x7C4 JUMP JUMPDEST POP PUSH0 JUMPDEST PUSH1 0x4 DUP2 LT ISZERO PUSH2 0x868 JUMPI PUSH2 0x831 DUP7 DUP4 DUP8 PUSH2 0x41E PUSH1 0x20 DUP4 PUSH2 0x5B39 JUMP JUMPDEST DUP4 PUSH2 0x240 ADD MLOAD DUP3 PUSH1 0x4 DUP2 LT PUSH2 0x848 JUMPI PUSH2 0x848 PUSH2 0x5B73 JUMP JUMPDEST PUSH1 0x20 MUL ADD DUP2 DUP2 MSTORE POP POP PUSH1 0x20 DUP3 PUSH2 0x85E SWAP2 SWAP1 PUSH2 0x5B39 JUMP JUMPDEST SWAP2 POP PUSH1 0x1 ADD PUSH2 0x817 JUMP JUMPDEST POP PUSH2 0x87A DUP6 DUP3 DUP7 PUSH2 0x475 PUSH1 0x40 DUP4 PUSH2 0x5B39 JUMP JUMPDEST PUSH2 0x260 DUP4 ADD MSTORE PUSH2 0x88B PUSH1 0x40 DUP3 PUSH2 0x5B39 JUMP JUMPDEST SWAP1 POP PUSH2 0x89E DUP6 DUP3 DUP7 PUSH2 0x475 PUSH1 0x40 DUP4 PUSH2 0x5B39 JUMP JUMPDEST PUSH2 0x280 DUP4 ADD MSTORE POP SWAP4 SWAP3 POP POP POP JUMP JUMPDEST PUSH0 PUSH1 0x1 DUP1 DUP3 PUSH2 0x8D9 DUP7 PUSH2 0x8D4 DUP10 PUSH2 0x8CF PUSH2 0x8CA DUP11 PUSH4 0x10000000 PUSH2 0x5B39 JUMP JUMPDEST PUSH2 0x25D6 JUMP JUMPDEST PUSH2 0x25EE JUMP JUMPDEST PUSH2 0x2609 JUMP JUMPDEST SWAP1 POP PUSH0 PUSH2 0x8F7 DUP8 PUSH2 0x8F2 DUP11 PUSH2 0x8CF PUSH2 0x8CA DUP12 PUSH1 0x1 PUSH2 0x5B39 JUMP JUMPDEST PUSH2 0x2622 JUMP JUMPDEST SWAP1 POP PUSH0 JUMPDEST PUSH2 0x926 PUSH1 0x10 PUSH32 0x0 PUSH2 0x55D3 JUMP JUMPDEST DUP2 LT ISZERO PUSH2 0x993 JUMPI PUSH0 PUSH2 0x950 DUP13 DUP4 DUP2 MLOAD DUP2 LT PUSH2 0x943 JUMPI PUSH2 0x943 PUSH2 0x5B73 JUMP JUMPDEST PUSH1 0x20 MUL PUSH1 0x20 ADD ADD MLOAD PUSH2 0x264A JUMP JUMPDEST SWAP1 POP PUSH2 0x960 DUP7 PUSH2 0x8CF DUP7 DUP5 PUSH2 0x2609 JUMP JUMPDEST SWAP6 POP PUSH2 0x970 DUP6 PUSH2 0x8CF DUP6 DUP5 PUSH2 0x2609 JUMP JUMPDEST SWAP5 POP PUSH2 0x97C DUP5 DUP12 PUSH2 0x2609 JUMP JUMPDEST SWAP4 POP PUSH2 0x988 DUP4 DUP12 PUSH2 0x2622 JUMP JUMPDEST SWAP3 POP POP PUSH1 0x1 ADD PUSH2 0x8FB JUMP JUMPDEST POP PUSH0 JUMPDEST PUSH1 0x10 DUP2 LT ISZERO PUSH2 0x9FA JUMPI PUSH0 DUP11 DUP3 PUSH1 0x10 DUP2 LT PUSH2 0x9B2 JUMPI PUSH2 0x9B2 PUSH2 0x5B73 JUMP JUMPDEST PUSH1 0x20 MUL ADD MLOAD SWAP1 POP PUSH2 0x9C7 DUP7 PUSH2 0x8CF DUP7 DUP5 PUSH2 0x2609 JUMP JUMPDEST SWAP6 POP PUSH2 0x9D7 DUP6 PUSH2 0x8CF DUP6 DUP5 PUSH2 0x2609 JUMP JUMPDEST SWAP5 POP PUSH2 0x9E3 DUP5 DUP12 PUSH2 0x2609 JUMP JUMPDEST SWAP4 POP PUSH2 0x9EF DUP4 DUP12 PUSH2 0x2622 JUMP JUMPDEST SWAP3 POP POP PUSH1 0x1 ADD PUSH2 0x996 JUMP JUMPDEST POP PUSH2 0xA05 DUP5 DUP5 PUSH2 0x265F JUMP JUMPDEST SWAP11 SWAP10 POP POP POP POP POP POP POP POP POP POP JUMP JUMPDEST PUSH0 PUSH0 PUSH2 0xA28 DUP4 PUSH1 0x60 ADD MLOAD DUP6 PUSH2 0x140 ADD MLOAD PUSH2 0x25EE JUMP JUMPDEST SWAP1 POP PUSH1 0x1 PUSH0 JUMPDEST PUSH32 0x0 DUP2 LT ISZERO PUSH2 0xB1A JUMPI PUSH0 DUP7 PUSH2 0x160 ADD MLOAD DUP3 PUSH1 0x1C DUP2 LT PUSH2 0xA6E JUMPI PUSH2 0xA6E PUSH2 0x5B73 JUMP JUMPDEST PUSH1 0x20 MUL ADD MLOAD DUP1 MLOAD SWAP1 SWAP2 POP PUSH0 SWAP1 PUSH2 0xA8C SWAP1 DUP4 PUSH1 0x1 JUMPDEST PUSH1 0x20 MUL ADD MLOAD PUSH2 0x2609 JUMP JUMPDEST SWAP1 POP DUP5 DUP2 EQ PUSH2 0xAAE JUMPI PUSH1 0x40 MLOAD PUSH4 0x13F87443 PUSH1 0xE3 SHL DUP2 MSTORE PUSH1 0x4 ADD PUSH1 0x40 MLOAD DUP1 SWAP2 SUB SWAP1 REVERT JUMPDEST PUSH0 DUP8 PUSH1 0x80 ADD MLOAD DUP5 PUSH1 0x1C DUP2 LT PUSH2 0xAC5 JUMPI PUSH2 0xAC5 PUSH2 0x5B73 JUMP JUMPDEST PUSH1 0x20 MUL ADD MLOAD SWAP1 POP PUSH2 0xAD6 DUP4 DUP3 PUSH2 0x266D JUMP JUMPDEST SWAP6 POP PUSH2 0xB0A DUP6 PUSH2 0x8CF PUSH1 0x1 PUSH2 0x8D4 DUP6 PUSH2 0x8CF DUP15 PUSH1 0x40 ADD MLOAD DUP12 PUSH1 0x1C DUP2 LT PUSH2 0xAFE JUMPI PUSH2 0xAFE PUSH2 0x5B73 JUMP JUMPDEST PUSH1 0x20 MUL ADD MLOAD PUSH1 0x1 PUSH2 0x2622 JUMP JUMPDEST SWAP5 POP POP POP POP DUP1 PUSH1 0x1 ADD SWAP1 POP PUSH2 0xA2E JUMP JUMPDEST POP PUSH0 PUSH2 0xB34 DUP7 PUSH2 0x180 ADD MLOAD DUP7 PUSH0 ADD MLOAD DUP8 PUSH1 0x20 ADD MLOAD DUP6 PUSH2 0x281B JUMP JUMPDEST SWAP1 POP PUSH1 0x1 PUSH1 0x2 JUMPDEST PUSH32 0x0 DUP2 LT ISZERO PUSH2 0xB91 JUMPI PUSH2 0xB87 DUP3 DUP9 PUSH1 0x80 ADD MLOAD DUP4 PUSH1 0x1C DUP2 LT PUSH2 0xB7D JUMPI PUSH2 0xB7D PUSH2 0x5B73 JUMP JUMPDEST PUSH1 0x20 MUL ADD MLOAD PUSH2 0x25EE JUMP JUMPDEST SWAP2 POP PUSH1 0x1 ADD PUSH2 0xB3B JUMP JUMPDEST POP PUSH2 0xBB7 PUSH2 0xBA4 DUP4 PUSH2 0x8CF PUSH1 0x1 DUP6 PUSH2 0x2622 JUMP JUMPDEST PUSH2 0x8D4 DUP10 PUSH2 0x1A0 ADD MLOAD DUP10 PUSH1 0x60 ADD MLOAD PUSH2 0x25EE JUMP JUMPDEST SWAP2 POP DUP4 DUP3 EQ JUMPDEST SWAP8 SWAP7 POP POP POP POP POP POP POP JUMP JUMPDEST PUSH0 PUSH2 0xBD1 PUSH2 0x52A3 JUMP JUMPDEST PUSH0 PUSH2 0xC00 DUP5 PUSH1 0xC0 ADD MLOAD PUSH32 0x0 PUSH2 0x2894 JUMP JUMPDEST SWAP1 POP PUSH0 PUSH1 0x3 PUSH2 0xC30 PUSH32 0x0 PUSH1 0x24 PUSH2 0x5B39 JUMP JUMPDEST PUSH2 0xC3A SWAP2 SWAP1 PUSH2 0x5B39 JUMP JUMPDEST PUSH2 0xC45 SWAP1 PUSH1 0x3 PUSH2 0x5B39 JUMP JUMPDEST PUSH1 0x1 PUSH1 0x1 PUSH1 0x40 SHL SUB DUP2 GT ISZERO PUSH2 0xC5C JUMPI PUSH2 0xC5C PUSH2 0x5940 JUMP JUMPDEST PUSH1 0x40 MLOAD SWAP1 DUP1 DUP3 MSTORE DUP1 PUSH1 0x20 MUL PUSH1 0x20 ADD DUP3 ADD PUSH1 0x40 MSTORE DUP1 ISZERO PUSH2 0xC85 JUMPI DUP2 PUSH1 0x20 ADD PUSH1 0x20 DUP3 MUL DUP1 CALLDATASIZE DUP4 CALLDATACOPY ADD SWAP1 POP JUMPDEST POP SWAP1 POP PUSH0 PUSH1 0x3 PUSH2 0xCB6 PUSH32 0x0 PUSH1 0x24 PUSH2 0x5B39 JUMP JUMPDEST PUSH2 0xCC0 SWAP2 SWAP1 PUSH2 0x5B39 JUMP JUMPDEST PUSH2 0xCCB SWAP1 PUSH1 0x3 PUSH2 0x5B39 JUMP JUMPDEST PUSH1 0x1 PUSH1 0x1 PUSH1 0x40 SHL SUB DUP2 GT ISZERO PUSH2 0xCE2 JUMPI PUSH2 0xCE2 PUSH2 0x5940 JUMP JUMPDEST PUSH1 0x40 MLOAD SWAP1 DUP1 DUP3 MSTORE DUP1 PUSH1 0x20 MUL PUSH1 0x20 ADD DUP3 ADD PUSH1 0x40 MSTORE DUP1 ISZERO PUSH2 0xD1B JUMPI DUP2 PUSH1 0x20 ADD JUMPDEST PUSH2 0xD08 PUSH2 0x5313 JUMP JUMPDEST DUP2 MSTORE PUSH1 0x20 ADD SWAP1 PUSH1 0x1 SWAP1 SUB SWAP1 DUP2 PUSH2 0xD00 JUMPI SWAP1 POP JUMPDEST POP SWAP1 POP PUSH2 0xD4E PUSH2 0xD49 DUP8 PUSH2 0x100 ADD MLOAD DUP6 PUSH0 DUP2 MLOAD DUP2 LT PUSH2 0xD3C JUMPI PUSH2 0xD3C PUSH2 0x5B73 JUMP JUMPDEST PUSH1 0x20 MUL PUSH1 0x20 ADD ADD MLOAD PUSH2 0x2622 JUMP JUMPDEST PUSH2 0x295D JUMP JUMPDEST DUP5 PUSH2 0x120 ADD DUP2 DUP2 MSTORE POP POP PUSH2 0xD83 PUSH2 0xD49 DUP8 PUSH2 0x100 ADD MLOAD DUP6 PUSH0 DUP2 MLOAD DUP2 LT PUSH2 0xD76 JUMPI PUSH2 0xD76 PUSH2 0x5B73 JUMP JUMPDEST PUSH1 0x20 MUL PUSH1 0x20 ADD ADD MLOAD PUSH2 0x2609 JUMP JUMPDEST PUSH2 0x140 DUP6 ADD DUP2 SWAP1 MSTORE PUSH2 0x120 DUP6 ADD MLOAD PUSH1 0xE0 DUP9 ADD MLOAD PUSH2 0xDA4 SWAP3 PUSH2 0x8D4 SWAP2 SWAP1 PUSH2 0x25EE JUMP JUMPDEST DUP5 MSTORE PUSH1 0xC0 DUP7 ADD MLOAD PUSH2 0xDD4 SWAP1 PUSH2 0xDB8 SWAP1 PUSH2 0x295D JUMP JUMPDEST PUSH2 0x8CF DUP7 PUSH2 0x120 ADD MLOAD PUSH2 0x8F2 DUP11 PUSH1 0xE0 ADD MLOAD DUP10 PUSH2 0x140 ADD MLOAD PUSH2 0x25EE JUMP JUMPDEST PUSH1 0x20 DUP6 ADD MSTORE DUP2 MLOAD PUSH1 0x1 SWAP1 DUP4 SWAP1 PUSH0 SWAP1 PUSH2 0xDEE JUMPI PUSH2 0xDEE PUSH2 0x5B73 JUMP JUMPDEST PUSH1 0x20 MUL PUSH1 0x20 ADD ADD DUP2 DUP2 MSTORE POP POP DUP8 PUSH2 0x260 ADD MLOAD DUP2 PUSH0 DUP2 MLOAD DUP2 LT PUSH2 0xE12 JUMPI PUSH2 0xE12 PUSH2 0x5B73 JUMP JUMPDEST PUSH1 0x20 SWAP1 DUP2 MUL SWAP2 SWAP1 SWAP2 ADD ADD MSTORE PUSH2 0x1E0 DUP9 ADD MLOAD PUSH1 0xC0 DUP6 ADD MSTORE PUSH1 0xA0 DUP1 DUP8 ADD MLOAD SWAP1 DUP6 ADD MSTORE DUP4 MLOAD PUSH2 0xE3D SWAP1 PUSH2 0x29CD JUMP JUMPDEST PUSH1 0x40 DUP6 ADD MSTORE PUSH1 0x20 DUP5 ADD MLOAD PUSH2 0xE50 SWAP1 PUSH2 0x29CD JUMP JUMPDEST PUSH1 0x60 DUP6 ADD MSTORE PUSH1 0x40 DUP5 ADD MLOAD DUP3 MLOAD DUP4 SWAP1 PUSH1 0x1 SWAP1 DUP2 LT PUSH2 0xE6F JUMPI PUSH2 0xE6F PUSH2 0x5B73 JUMP JUMPDEST PUSH1 0x20 SWAP1 DUP2 MUL SWAP2 SWAP1 SWAP2 ADD ADD MSTORE PUSH0 JUMPDEST PUSH1 0x24 DUP2 LT ISZERO PUSH2 0xF16 JUMPI PUSH2 0xE97 DUP6 PUSH1 0x40 ADD MLOAD DUP7 PUSH1 0xA0 ADD MLOAD PUSH2 0x25EE JUMP JUMPDEST DUP4 PUSH2 0xEA3 DUP4 PUSH1 0x2 PUSH2 0x5B39 JUMP JUMPDEST DUP2 MLOAD DUP2 LT PUSH2 0xEB3 JUMPI PUSH2 0xEB3 PUSH2 0x5B73 JUMP JUMPDEST PUSH1 0x20 MUL PUSH1 0x20 ADD ADD DUP2 DUP2 MSTORE POP POP PUSH2 0xEF0 DUP6 PUSH1 0xC0 ADD MLOAD PUSH2 0x8D4 DUP12 PUSH2 0x180 ADD MLOAD DUP5 PUSH1 0x29 DUP2 LT PUSH2 0xEE1 JUMPI PUSH2 0xEE1 PUSH2 0x5B73 JUMP JUMPDEST PUSH1 0x20 MUL ADD MLOAD DUP9 PUSH1 0xA0 ADD MLOAD PUSH2 0x25EE JUMP JUMPDEST PUSH1 0xC0 DUP7 ADD MSTORE PUSH1 0xA0 DUP1 DUP7 ADD MLOAD SWAP1 DUP9 ADD MLOAD PUSH2 0xF09 SWAP2 SWAP1 PUSH2 0x25EE JUMP JUMPDEST PUSH1 0xA0 DUP7 ADD MSTORE PUSH1 0x1 ADD PUSH2 0xE7C JUMP JUMPDEST POP PUSH0 JUMPDEST PUSH1 0x5 DUP2 LT ISZERO PUSH2 0xFE4 JUMPI PUSH0 PUSH2 0xF2E PUSH1 0x1E DUP4 PUSH2 0x5B39 JUMP JUMPDEST SWAP1 POP PUSH0 PUSH2 0xF3C PUSH1 0x24 DUP5 PUSH2 0x5B39 JUMP JUMPDEST SWAP1 POP PUSH2 0xF6D DUP6 DUP4 DUP2 MLOAD DUP2 LT PUSH2 0xF53 JUMPI PUSH2 0xF53 PUSH2 0x5B73 JUMP JUMPDEST PUSH1 0x20 MUL PUSH1 0x20 ADD ADD MLOAD PUSH2 0x8D4 DUP10 PUSH1 0x60 ADD MLOAD DUP11 PUSH1 0xA0 ADD MLOAD PUSH2 0x25EE JUMP JUMPDEST DUP6 DUP4 DUP2 MLOAD DUP2 LT PUSH2 0xF7F JUMPI PUSH2 0xF7F PUSH2 0x5B73 JUMP JUMPDEST PUSH1 0x20 MUL PUSH1 0x20 ADD ADD DUP2 DUP2 MSTORE POP POP PUSH2 0xFBC DUP8 PUSH1 0xC0 ADD MLOAD PUSH2 0x8D4 DUP14 PUSH2 0x180 ADD MLOAD DUP5 PUSH1 0x29 DUP2 LT PUSH2 0xFAD JUMPI PUSH2 0xFAD PUSH2 0x5B73 JUMP JUMPDEST PUSH1 0x20 MUL ADD MLOAD DUP11 PUSH1 0xA0 ADD MLOAD PUSH2 0x25EE JUMP JUMPDEST PUSH1 0xC0 DUP9 ADD MSTORE PUSH1 0xA0 DUP1 DUP9 ADD MLOAD SWAP1 DUP11 ADD MLOAD PUSH2 0xFD5 SWAP2 SWAP1 PUSH2 0x25EE JUMP JUMPDEST PUSH1 0xA0 DUP9 ADD MSTORE POP POP PUSH1 0x1 ADD PUSH2 0xF19 JUMP JUMPDEST POP DUP8 PUSH2 0x1C0 ADD MLOAD DUP2 PUSH1 0x1 DUP2 MLOAD DUP2 LT PUSH2 0xFFE JUMPI PUSH2 0xFFE PUSH2 0x5B73 JUMP JUMPDEST PUSH1 0x20 MUL PUSH1 0x20 ADD ADD DUP2 SWAP1 MSTORE POP DUP7 PUSH1 0x60 ADD MLOAD DUP2 PUSH1 0x2 DUP2 MLOAD DUP2 LT PUSH2 0x1021 JUMPI PUSH2 0x1021 PUSH2 0x5B73 JUMP JUMPDEST PUSH1 0x20 MUL PUSH1 0x20 ADD ADD DUP2 SWAP1 MSTORE POP DUP7 PUSH1 0x80 ADD MLOAD DUP2 PUSH1 0x3 DUP2 MLOAD DUP2 LT PUSH2 0x1044 JUMPI PUSH2 0x1044 PUSH2 0x5B73 JUMP JUMPDEST PUSH1 0x20 MUL PUSH1 0x20 ADD ADD DUP2 SWAP1 MSTORE POP DUP7 PUSH1 0xA0 ADD MLOAD DUP2 PUSH1 0x4 DUP2 MLOAD DUP2 LT PUSH2 0x1067 JUMPI PUSH2 0x1067 PUSH2 0x5B73 JUMP JUMPDEST PUSH1 0x20 MUL PUSH1 0x20 ADD ADD DUP2 SWAP1 MSTORE POP DUP7 PUSH1 0xC0 ADD MLOAD DUP2 PUSH1 0x5 DUP2 MLOAD DUP2 LT PUSH2 0x108A JUMPI PUSH2 0x108A PUSH2 0x5B73 JUMP JUMPDEST PUSH1 0x20 MUL PUSH1 0x20 ADD ADD DUP2 SWAP1 MSTORE POP DUP7 PUSH1 0xE0 ADD MLOAD DUP2 PUSH1 0x6 DUP2 MLOAD DUP2 LT PUSH2 0x10AD JUMPI PUSH2 0x10AD PUSH2 0x5B73 JUMP JUMPDEST PUSH1 0x20 MUL PUSH1 0x20 ADD ADD DUP2 SWAP1 MSTORE POP DUP7 PUSH2 0x100 ADD MLOAD DUP2 PUSH1 0x7 DUP2 MLOAD DUP2 LT PUSH2 0x10D1 JUMPI PUSH2 0x10D1 PUSH2 0x5B73 JUMP JUMPDEST PUSH1 0x20 MUL PUSH1 0x20 ADD ADD DUP2 SWAP1 MSTORE POP DUP7 PUSH2 0x120 ADD MLOAD DUP2 PUSH1 0x8 DUP2 MLOAD DUP2 LT PUSH2 0x10F5 JUMPI PUSH2 0x10F5 PUSH2 0x5B73 JUMP JUMPDEST PUSH1 0x20 MUL PUSH1 0x20 ADD ADD DUP2 SWAP1 MSTORE POP DUP7 PUSH2 0x140 ADD MLOAD DUP2 PUSH1 0x9 DUP2 MLOAD DUP2 LT PUSH2 0x1119 JUMPI PUSH2 0x1119 PUSH2 0x5B73 JUMP JUMPDEST PUSH1 0x20 MUL PUSH1 0x20 ADD ADD DUP2 SWAP1 MSTORE POP DUP7 PUSH2 0x160 ADD MLOAD DUP2 PUSH1 0xA DUP2 MLOAD DUP2 LT PUSH2 0x113D JUMPI PUSH2 0x113D PUSH2 0x5B73 JUMP JUMPDEST PUSH1 0x20 MUL PUSH1 0x20 ADD ADD DUP2 SWAP1 MSTORE POP DUP7 PUSH2 0x1C0 ADD MLOAD DUP2 PUSH1 0xB DUP2 MLOAD DUP2 LT PUSH2 0x1161 JUMPI PUSH2 0x1161 PUSH2 0x5B73 JUMP JUMPDEST PUSH1 0x20 MUL PUSH1 0x20 ADD ADD DUP2 SWAP1 MSTORE POP DUP7 PUSH2 0x180 ADD MLOAD DUP2 PUSH1 0xC DUP2 MLOAD DUP2 LT PUSH2 0x1185 JUMPI PUSH2 0x1185 PUSH2 0x5B73 JUMP JUMPDEST PUSH1 0x20 MUL PUSH1 0x20 ADD ADD DUP2 SWAP1 MSTORE POP DUP7 PUSH2 0x1A0 ADD MLOAD DUP2 PUSH1 0xD DUP2 MLOAD DUP2 LT PUSH2 0x11A9 JUMPI PUSH2 0x11A9 PUSH2 0x5B73 JUMP JUMPDEST PUSH1 0x20 MUL PUSH1 0x20 ADD ADD DUP2 SWAP1 MSTORE POP DUP7 PUSH2 0x1E0 ADD MLOAD DUP2 PUSH1 0xE DUP2 MLOAD DUP2 LT PUSH2 0x11CD JUMPI PUSH2 0x11CD PUSH2 0x5B73 JUMP JUMPDEST PUSH1 0x20 MUL PUSH1 0x20 ADD ADD DUP2 SWAP1 MSTORE POP DUP7 PUSH2 0x200 ADD MLOAD DUP2 PUSH1 0xF DUP2 MLOAD DUP2 LT PUSH2 0x11F1 JUMPI PUSH2 0x11F1 PUSH2 0x5B73 JUMP JUMPDEST PUSH1 0x20 MUL PUSH1 0x20 ADD ADD DUP2 SWAP1 MSTORE POP DUP7 PUSH2 0x220 ADD MLOAD DUP2 PUSH1 0x10 DUP2 MLOAD DUP2 LT PUSH2 0x1215 JUMPI PUSH2 0x1215 PUSH2 0x5B73 JUMP JUMPDEST PUSH1 0x20 MUL PUSH1 0x20 ADD ADD DUP2 SWAP1 MSTORE POP DUP7 PUSH2 0x240 ADD MLOAD DUP2 PUSH1 0x11 DUP2 MLOAD DUP2 LT PUSH2 0x1239 JUMPI PUSH2 0x1239 PUSH2 0x5B73 JUMP JUMPDEST PUSH1 0x20 MUL PUSH1 0x20 ADD ADD DUP2 SWAP1 MSTORE POP DUP7 PUSH2 0x260 ADD MLOAD DUP2 PUSH1 0x12 DUP2 MLOAD DUP2 LT PUSH2 0x125D JUMPI PUSH2 0x125D PUSH2 0x5B73 JUMP JUMPDEST PUSH1 0x20 MUL PUSH1 0x20 ADD ADD DUP2 SWAP1 MSTORE POP DUP7 PUSH2 0x280 ADD MLOAD DUP2 PUSH1 0x13 DUP2 MLOAD DUP2 LT PUSH2 0x1281 JUMPI PUSH2 0x1281 PUSH2 0x5B73 JUMP JUMPDEST PUSH1 0x20 MUL PUSH1 0x20 ADD ADD DUP2 SWAP1 MSTORE POP DUP7 PUSH2 0x2A0 ADD MLOAD DUP2 PUSH1 0x14 DUP2 MLOAD DUP2 LT PUSH2 0x12A5 JUMPI PUSH2 0x12A5 PUSH2 0x5B73 JUMP JUMPDEST PUSH1 0x20 MUL PUSH1 0x20 ADD ADD DUP2 SWAP1 MSTORE POP DUP7 PUSH2 0x2C0 ADD MLOAD DUP2 PUSH1 0x15 DUP2 MLOAD DUP2 LT PUSH2 0x12C9 JUMPI PUSH2 0x12C9 PUSH2 0x5B73 JUMP JUMPDEST PUSH1 0x20 MUL PUSH1 0x20 ADD ADD DUP2 SWAP1 MSTORE POP DUP7 PUSH2 0x2E0 ADD MLOAD DUP2 PUSH1 0x16 DUP2 MLOAD DUP2 LT PUSH2 0x12ED JUMPI PUSH2 0x12ED PUSH2 0x5B73 JUMP JUMPDEST PUSH1 0x20 MUL PUSH1 0x20 ADD ADD DUP2 SWAP1 MSTORE POP DUP7 PUSH2 0x300 ADD MLOAD DUP2 PUSH1 0x17 DUP2 MLOAD DUP2 LT PUSH2 0x1311 JUMPI PUSH2 0x1311 PUSH2 0x5B73 JUMP JUMPDEST PUSH1 0x20 MUL PUSH1 0x20 ADD ADD DUP2 SWAP1 MSTORE POP DUP7 PUSH2 0x320 ADD MLOAD DUP2 PUSH1 0x18 DUP2 MLOAD DUP2 LT PUSH2 0x1335 JUMPI PUSH2 0x1335 PUSH2 0x5B73 JUMP JUMPDEST PUSH1 0x20 MUL PUSH1 0x20 ADD ADD DUP2 SWAP1 MSTORE POP DUP7 PUSH2 0x340 ADD MLOAD DUP2 PUSH1 0x19 DUP2 MLOAD DUP2 LT PUSH2 0x1359 JUMPI PUSH2 0x1359 PUSH2 0x5B73 JUMP JUMPDEST PUSH1 0x20 MUL PUSH1 0x20 ADD ADD DUP2 SWAP1 MSTORE POP DUP7 PUSH2 0x360 ADD MLOAD DUP2 PUSH1 0x1A DUP2 MLOAD DUP2 LT PUSH2 0x137D JUMPI PUSH2 0x137D PUSH2 0x5B73 JUMP JUMPDEST PUSH1 0x20 MUL PUSH1 0x20 ADD ADD DUP2 SWAP1 MSTORE POP DUP7 PUSH2 0x380 ADD MLOAD DUP2 PUSH1 0x1B DUP2 MLOAD DUP2 LT PUSH2 0x13A1 JUMPI PUSH2 0x13A1 PUSH2 0x5B73 JUMP JUMPDEST PUSH1 0x20 MUL PUSH1 0x20 ADD ADD DUP2 SWAP1 MSTORE POP DUP7 PUSH2 0x3A0 ADD MLOAD DUP2 PUSH1 0x1C DUP2 MLOAD DUP2 LT PUSH2 0x13C5 JUMPI PUSH2 0x13C5 PUSH2 0x5B73 JUMP JUMPDEST PUSH1 0x20 MUL PUSH1 0x20 ADD ADD DUP2 SWAP1 MSTORE POP DUP7 PUSH2 0x3C0 ADD MLOAD DUP2 PUSH1 0x1D DUP2 MLOAD DUP2 LT PUSH2 0x13E9 JUMPI PUSH2 0x13E9 PUSH2 0x5B73 JUMP JUMPDEST PUSH1 0x20 MUL PUSH1 0x20 ADD ADD DUP2 SWAP1 MSTORE POP DUP8 PUSH1 0x20 ADD MLOAD DUP2 PUSH1 0x1E DUP2 MLOAD DUP2 LT PUSH2 0x140C JUMPI PUSH2 0x140C PUSH2 0x5B73 JUMP JUMPDEST PUSH1 0x20 MUL PUSH1 0x20 ADD ADD DUP2 SWAP1 MSTORE POP DUP8 PUSH1 0x40 ADD MLOAD DUP2 PUSH1 0x1F DUP2 MLOAD DUP2 LT PUSH2 0x142F JUMPI PUSH2 0x142F PUSH2 0x5B73 JUMP JUMPDEST PUSH1 0x20 MUL PUSH1 0x20 ADD ADD DUP2 SWAP1 MSTORE POP DUP8 PUSH1 0x60 ADD MLOAD DUP2 PUSH1 0x20 DUP2 MLOAD DUP2 LT PUSH2 0x1452 JUMPI PUSH2 0x1452 PUSH2 0x5B73 JUMP JUMPDEST PUSH1 0x20 MUL PUSH1 0x20 ADD ADD DUP2 SWAP1 MSTORE POP DUP8 PUSH1 0x80 ADD MLOAD DUP2 PUSH1 0x21 DUP2 MLOAD DUP2 LT PUSH2 0x1475 JUMPI PUSH2 0x1475 PUSH2 0x5B73 JUMP JUMPDEST PUSH1 0x20 MUL PUSH1 0x20 ADD ADD DUP2 SWAP1 MSTORE POP DUP8 PUSH2 0x100 ADD MLOAD DUP2 PUSH1 0x22 DUP2 MLOAD DUP2 LT PUSH2 0x1499 JUMPI PUSH2 0x1499 PUSH2 0x5B73 JUMP JUMPDEST PUSH1 0x20 MUL PUSH1 0x20 ADD ADD DUP2 SWAP1 MSTORE POP DUP8 PUSH1 0xE0 ADD MLOAD DUP2 PUSH1 0x23 DUP2 MLOAD DUP2 LT PUSH2 0x14BC JUMPI PUSH2 0x14BC PUSH2 0x5B73 JUMP JUMPDEST PUSH1 0x20 MUL PUSH1 0x20 ADD ADD DUP2 SWAP1 MSTORE POP DUP8 PUSH1 0xA0 ADD MLOAD DUP2 PUSH1 0x24 DUP2 MLOAD DUP2 LT PUSH2 0x14DF JUMPI PUSH2 0x14DF PUSH2 0x5B73 JUMP JUMPDEST PUSH1 0x20 MUL PUSH1 0x20 ADD ADD DUP2 SWAP1 MSTORE POP DUP8 PUSH1 0xC0 ADD MLOAD DUP2 PUSH1 0x25 DUP2 MLOAD DUP2 LT PUSH2 0x1502 JUMPI PUSH2 0x1502 PUSH2 0x5B73 JUMP JUMPDEST PUSH1 0x20 MUL PUSH1 0x20 ADD ADD DUP2 SWAP1 MSTORE POP PUSH0 PUSH2 0x1548 DUP8 PUSH1 0x80 ADD MLOAD DUP7 PUSH1 0xC0 ADD MLOAD DUP12 PUSH2 0x220 ADD MLOAD DUP8 PUSH32 0x0 PUSH2 0x29DF JUMP JUMPDEST SWAP1 POP PUSH2 0x1572 DUP2 PUSH0 DUP2 MLOAD DUP2 LT PUSH2 0x155F JUMPI PUSH2 0x155F PUSH2 0x5B73 JUMP JUMPDEST PUSH1 0x20 MUL PUSH1 0x20 ADD ADD MLOAD DUP7 PUSH2 0x120 ADD MLOAD PUSH2 0x25EE JUMP JUMPDEST PUSH1 0x80 DUP7 ADD DUP2 SWAP1 MSTORE PUSH2 0x220 DUP11 ADD MLOAD MLOAD PUSH1 0xE0 DUP10 ADD MLOAD PUSH2 0x15A3 SWAP3 SWAP2 PUSH2 0x8D4 SWAP2 PUSH2 0x1598 SWAP2 SWAP1 PUSH2 0x25EE JUMP JUMPDEST DUP9 PUSH2 0x140 ADD MLOAD PUSH2 0x25EE JUMP JUMPDEST PUSH1 0x80 DUP7 ADD MSTORE PUSH1 0xE0 DUP8 ADD MLOAD PUSH2 0x15B6 SWAP1 PUSH2 0x2B3D JUMP JUMPDEST PUSH1 0xA0 DUP7 ADD MSTORE PUSH0 PUSH2 0x15C8 PUSH1 0x24 PUSH1 0x2 PUSH2 0x5B39 JUMP JUMPDEST SWAP1 POP PUSH0 JUMPDEST PUSH2 0x15F7 PUSH1 0x1 PUSH32 0x0 PUSH2 0x55D3 JUMP JUMPDEST DUP2 LT ISZERO PUSH2 0x1808 JUMPI PUSH0 PUSH2 0x162A PUSH1 0x1 PUSH32 0x0 PUSH2 0x55D3 JUMP JUMPDEST DUP3 LT ISZERO SWAP1 POP DUP1 PUSH2 0x1799 JUMPI PUSH2 0x165E PUSH2 0xD49 DUP12 PUSH2 0x100 ADD MLOAD DUP10 DUP6 PUSH1 0x1 PUSH2 0x164E SWAP2 SWAP1 PUSH2 0x5B39 JUMP JUMPDEST DUP2 MLOAD DUP2 LT PUSH2 0xD3C JUMPI PUSH2 0xD3C PUSH2 0x5B73 JUMP JUMPDEST PUSH2 0x120 DUP10 ADD MSTORE PUSH2 0x100 DUP11 ADD MLOAD PUSH2 0x168E SWAP1 PUSH2 0xD49 SWAP1 DUP10 PUSH2 0x167E DUP7 PUSH1 0x1 PUSH2 0x5B39 JUMP JUMPDEST DUP2 MLOAD DUP2 LT PUSH2 0xD76 JUMPI PUSH2 0xD76 PUSH2 0x5B73 JUMP JUMPDEST PUSH2 0x140 DUP10 ADD MSTORE PUSH1 0xA0 DUP9 ADD MLOAD PUSH2 0x120 DUP10 ADD MLOAD PUSH2 0x16A9 SWAP2 SWAP1 PUSH2 0x25EE JUMP JUMPDEST PUSH2 0x160 DUP10 ADD MSTORE PUSH1 0xA0 DUP9 ADD MLOAD PUSH1 0xE0 DUP12 ADD MLOAD PUSH2 0x16D1 SWAP2 PUSH2 0x16C6 SWAP2 PUSH2 0x25EE JUMP JUMPDEST DUP10 PUSH2 0x140 ADD MLOAD PUSH2 0x25EE JUMP JUMPDEST PUSH2 0x180 DUP10 ADD DUP2 SWAP1 MSTORE PUSH2 0x16F4 SWAP1 PUSH2 0x16E6 SWAP1 PUSH2 0x29CD JUMP JUMPDEST PUSH2 0x8D4 DUP11 PUSH2 0x160 ADD MLOAD PUSH2 0x29CD JUMP JUMPDEST DUP7 PUSH2 0x16FF DUP5 DUP7 PUSH2 0x5B39 JUMP JUMPDEST DUP2 MLOAD DUP2 LT PUSH2 0x170F JUMPI PUSH2 0x170F PUSH2 0x5B73 JUMP JUMPDEST PUSH1 0x20 MUL PUSH1 0x20 ADD ADD DUP2 DUP2 MSTORE POP POP PUSH0 PUSH2 0x1748 DUP10 PUSH2 0x180 ADD MLOAD DUP15 PUSH2 0x220 ADD MLOAD DUP6 PUSH1 0x1 PUSH2 0x1738 SWAP2 SWAP1 PUSH2 0x5B39 JUMP JUMPDEST PUSH1 0x1C DUP2 LT PUSH2 0xB7D JUMPI PUSH2 0xB7D PUSH2 0x5B73 JUMP JUMPDEST SWAP1 POP PUSH2 0x1782 DUP2 PUSH2 0x8D4 DUP12 PUSH2 0x160 ADD MLOAD DUP9 DUP8 PUSH1 0x1 PUSH2 0x1765 SWAP2 SWAP1 PUSH2 0x5B39 JUMP JUMPDEST DUP2 MLOAD DUP2 LT PUSH2 0x1775 JUMPI PUSH2 0x1775 PUSH2 0x5B73 JUMP JUMPDEST PUSH1 0x20 MUL PUSH1 0x20 ADD ADD MLOAD PUSH2 0x25EE JUMP JUMPDEST SWAP1 POP PUSH2 0x1792 DUP10 PUSH1 0x80 ADD MLOAD DUP3 PUSH2 0x2609 JUMP JUMPDEST PUSH1 0x80 DUP11 ADD MSTORE POP JUMPDEST PUSH2 0x17B8 PUSH2 0x17AE DUP10 PUSH1 0xA0 ADD MLOAD DUP13 PUSH1 0xE0 ADD MLOAD PUSH2 0x25EE JUMP JUMPDEST DUP12 PUSH1 0xE0 ADD MLOAD PUSH2 0x25EE JUMP JUMPDEST PUSH1 0xA0 DUP10 ADD MSTORE PUSH2 0x200 DUP13 ADD MLOAD DUP3 PUSH1 0x1B DUP2 LT PUSH2 0x17D4 JUMPI PUSH2 0x17D4 PUSH2 0x5B73 JUMP JUMPDEST PUSH1 0x20 MUL ADD MLOAD DUP6 PUSH2 0x17E4 DUP5 DUP7 PUSH2 0x5B39 JUMP JUMPDEST DUP2 MLOAD DUP2 LT PUSH2 0x17F4 JUMPI PUSH2 0x17F4 PUSH2 0x5B73 JUMP JUMPDEST PUSH1 0x20 SWAP1 DUP2 MUL SWAP2 SWAP1 SWAP2 ADD ADD MSTORE POP PUSH1 0x1 ADD PUSH2 0x15CC JUMP JUMPDEST POP PUSH2 0x1834 PUSH1 0x1 PUSH32 0x0 PUSH2 0x55D3 JUMP JUMPDEST PUSH2 0x183E SWAP1 DUP3 PUSH2 0x5B39 JUMP JUMPDEST SWAP1 POP PUSH2 0x185E PUSH2 0x1856 DUP10 PUSH2 0x100 ADD MLOAD DUP11 PUSH1 0xC0 ADD MLOAD PUSH2 0x2622 JUMP JUMPDEST PUSH1 0x1 SWAP1 PUSH2 0x265F JUMP JUMPDEST PUSH1 0xE0 DUP8 ADD MLOAD MSTORE PUSH2 0x100 DUP9 ADD MLOAD PUSH1 0xC0 DUP10 ADD MLOAD PUSH2 0x18A2 SWAP2 PUSH2 0x1856 SWAP2 PUSH2 0x8F2 SWAP1 PUSH32 0x7B0C561A6148404F086204A9F36FFB0617942546750F230C893619174A57A76 SWAP1 PUSH2 0x25EE JUMP JUMPDEST PUSH1 0xE0 DUP8 DUP2 ADD DUP1 MLOAD PUSH1 0x20 ADD SWAP3 SWAP1 SWAP3 MSTORE DUP2 MLOAD DUP1 MLOAD PUSH1 0x40 SWAP1 SWAP2 ADD MSTORE SWAP1 MLOAD DUP1 MLOAD PUSH1 0x60 SWAP1 SWAP2 ADD MSTORE PUSH1 0xA0 DUP8 ADD MLOAD SWAP1 DUP10 ADD MLOAD PUSH2 0x18E4 SWAP2 PUSH2 0x18DA SWAP2 PUSH2 0x25EE JUMP JUMPDEST DUP10 PUSH1 0xE0 ADD MLOAD PUSH2 0x25EE JUMP JUMPDEST PUSH1 0xA0 DUP8 ADD MSTORE PUSH0 JUMPDEST PUSH1 0x4 DUP2 LT ISZERO PUSH2 0x1992 JUMPI PUSH0 PUSH2 0x191D DUP9 PUSH1 0xE0 ADD MLOAD DUP4 PUSH1 0x4 DUP2 LT PUSH2 0x190E JUMPI PUSH2 0x190E PUSH2 0x5B73 JUMP JUMPDEST PUSH1 0x20 MUL ADD MLOAD DUP10 PUSH1 0xA0 ADD MLOAD PUSH2 0x25EE JUMP JUMPDEST SWAP1 POP PUSH2 0x1928 DUP2 PUSH2 0x29CD JUMP JUMPDEST DUP9 PUSH2 0x100 ADD MLOAD DUP4 PUSH1 0x4 DUP2 LT PUSH2 0x193F JUMPI PUSH2 0x193F PUSH2 0x5B73 JUMP JUMPDEST PUSH1 0x20 MUL ADD MSTORE PUSH1 0xA0 DUP9 ADD MLOAD PUSH1 0xE0 DUP12 ADD MLOAD PUSH2 0x1958 SWAP2 SWAP1 PUSH2 0x25EE JUMP JUMPDEST DUP9 PUSH1 0xA0 ADD DUP2 DUP2 MSTORE POP POP PUSH2 0x1984 DUP9 PUSH1 0x80 ADD MLOAD PUSH2 0x8D4 DUP4 DUP16 PUSH2 0x240 ADD MLOAD DUP7 PUSH1 0x4 DUP2 LT PUSH2 0xB7D JUMPI PUSH2 0xB7D PUSH2 0x5B73 JUMP JUMPDEST PUSH1 0x80 DUP10 ADD MSTORE POP PUSH1 0x1 ADD PUSH2 0x18EB JUMP JUMPDEST POP PUSH2 0x100 DUP7 ADD MLOAD MLOAD DUP5 MLOAD DUP6 SWAP1 DUP4 SWAP1 DUP2 LT PUSH2 0x19AE JUMPI PUSH2 0x19AE PUSH2 0x5B73 JUMP JUMPDEST PUSH1 0x20 SWAP1 DUP2 MUL SWAP2 SWAP1 SWAP2 ADD DUP2 ADD SWAP2 SWAP1 SWAP2 MSTORE PUSH2 0x100 DUP8 ADD MLOAD SWAP1 DUP2 ADD MLOAD PUSH2 0x19D2 SWAP2 PUSH1 0x2 PUSH2 0xA82 JUMP JUMPDEST DUP5 PUSH2 0x19DE DUP4 PUSH1 0x1 PUSH2 0x5B39 JUMP JUMPDEST DUP2 MLOAD DUP2 LT PUSH2 0x19EE JUMPI PUSH2 0x19EE PUSH2 0x5B73 JUMP JUMPDEST PUSH1 0x20 SWAP1 DUP2 MUL SWAP2 SWAP1 SWAP2 ADD ADD MSTORE PUSH2 0x100 DUP7 ADD MLOAD PUSH1 0x60 ADD MLOAD DUP5 PUSH2 0x1A0F DUP4 PUSH1 0x2 PUSH2 0x5B39 JUMP JUMPDEST DUP2 MLOAD DUP2 LT PUSH2 0x1A1F JUMPI PUSH2 0x1A1F PUSH2 0x5B73 JUMP JUMPDEST PUSH1 0x20 SWAP1 DUP2 MUL SWAP2 SWAP1 SWAP2 ADD ADD MSTORE PUSH0 JUMPDEST PUSH1 0x3 DUP2 LT ISZERO PUSH2 0x1A81 JUMPI DUP11 PUSH2 0x120 ADD MLOAD DUP2 PUSH1 0x3 DUP2 LT PUSH2 0x1A4C JUMPI PUSH2 0x1A4C PUSH2 0x5B73 JUMP JUMPDEST PUSH1 0x20 MUL ADD MLOAD DUP5 DUP4 PUSH2 0x1A5C DUP2 PUSH2 0x5B87 JUMP JUMPDEST SWAP5 POP DUP2 MLOAD DUP2 LT PUSH2 0x1A6E JUMPI PUSH2 0x1A6E PUSH2 0x5B73 JUMP JUMPDEST PUSH1 0x20 SWAP1 DUP2 MUL SWAP2 SWAP1 SWAP2 ADD ADD MSTORE PUSH1 0x1 ADD PUSH2 0x1A2C JUMP JUMPDEST POP PUSH1 0x40 MLOAD DUP1 PUSH1 0x40 ADD PUSH1 0x40 MSTORE DUP1 PUSH1 0x1 DUP2 MSTORE PUSH1 0x20 ADD PUSH1 0x2 DUP2 MSTORE POP DUP4 DUP3 DUP2 MLOAD DUP2 LT PUSH2 0x1AAB JUMPI PUSH2 0x1AAB PUSH2 0x5B73 JUMP JUMPDEST PUSH1 0x20 MUL PUSH1 0x20 ADD ADD DUP2 SWAP1 MSTORE POP DUP6 PUSH1 0x80 ADD MLOAD DUP5 DUP3 DUP1 PUSH2 0x1AC7 SWAP1 PUSH2 0x5B87 JUMP JUMPDEST SWAP4 POP DUP2 MLOAD DUP2 LT PUSH2 0x1AD9 JUMPI PUSH2 0x1AD9 PUSH2 0x5B73 JUMP JUMPDEST PUSH1 0x20 MUL PUSH1 0x20 ADD ADD DUP2 DUP2 MSTORE POP POP PUSH2 0x1B03 DUP11 PUSH2 0x240 ADD MLOAD DUP10 PUSH1 0xC0 ADD MLOAD DUP11 PUSH1 0x80 ADD MLOAD DUP14 PUSH2 0x1A0 ADD MLOAD PUSH2 0x2B48 JUMP JUMPDEST PUSH2 0x1B20 JUMPI PUSH1 0x40 MLOAD PUSH4 0xA2A2AC83 PUSH1 0xE0 SHL DUP2 MSTORE PUSH1 0x4 ADD PUSH1 0x40 MLOAD DUP1 SWAP2 SUB SWAP1 REVERT JUMPDEST PUSH0 DUP11 PUSH2 0x280 ADD MLOAD SWAP1 POP DUP1 DUP5 DUP4 DUP2 MLOAD DUP2 LT PUSH2 0x1B3C JUMPI PUSH2 0x1B3C PUSH2 0x5B73 JUMP JUMPDEST PUSH1 0x20 MUL PUSH1 0x20 ADD ADD DUP2 SWAP1 MSTORE POP DUP9 PUSH2 0x100 ADD MLOAD DUP6 DUP4 DUP2 MLOAD DUP2 LT PUSH2 0x1B5F JUMPI PUSH2 0x1B5F PUSH2 0x5B73 JUMP JUMPDEST PUSH1 0x20 MUL PUSH1 0x20 ADD ADD DUP2 DUP2 MSTORE POP POP PUSH2 0x1B73 PUSH2 0x532B JUMP JUMPDEST PUSH2 0x1B7D DUP6 DUP8 PUSH2 0x2EAB JUMP JUMPDEST DUP2 MSTORE PUSH2 0x1B88 DUP3 PUSH2 0x2FC7 JUMP JUMPDEST PUSH1 0x20 DUP3 ADD DUP2 SWAP1 MSTORE DUP13 MLOAD DUP3 MLOAD PUSH0 SWAP3 PUSH2 0x1BA0 SWAP3 SWAP2 SWAP1 PUSH2 0x300D JUMP JUMPDEST SWAP1 POP PUSH0 PUSH0 PUSH2 0x1BB0 DUP16 PUSH0 ADD MLOAD PUSH2 0x3093 JUMP JUMPDEST SWAP2 POP SWAP2 POP PUSH2 0x1BBD DUP3 PUSH2 0x3154 JUMP JUMPDEST PUSH2 0x1BC6 DUP2 PUSH2 0x3154 JUMP JUMPDEST DUP4 MLOAD PUSH2 0x1BD3 SWAP1 DUP4 DUP6 PUSH2 0x31F3 JUMP JUMPDEST DUP5 MSTORE PUSH1 0x20 DUP5 ADD MLOAD PUSH2 0x1BE5 SWAP1 DUP3 DUP6 PUSH2 0x31F3 JUMP JUMPDEST PUSH1 0x20 DUP6 ADD DUP2 SWAP1 MSTORE DUP5 MLOAD PUSH2 0x1BF7 SWAP2 PUSH2 0x3222 JUMP JUMPDEST SWAP16 SWAP15 POP POP POP POP POP POP POP POP POP POP POP POP POP POP POP JUMP JUMPDEST PUSH2 0x1C12 PUSH2 0x5030 JUMP JUMPDEST POP PUSH1 0x40 DUP1 MLOAD PUSH2 0x3E0 DUP2 ADD DUP3 MSTORE PUSH3 0x10000 DUP2 MSTORE PUSH1 0x10 PUSH1 0x20 DUP1 DUP4 ADD SWAP2 SWAP1 SWAP2 MSTORE PUSH1 0x12 DUP3 DUP5 ADD MSTORE DUP3 MLOAD DUP1 DUP5 ADD DUP5 MSTORE PUSH32 0x24F5991477E2B081F1AA0EBAA8044776781209D8BFCCD7BEC9130459C517B3AA DUP2 MSTORE PUSH32 0x15A1F2F884493664D8F01B566E0CDEC23F72BD5512B25CF86CEBCF239EADC7C6 DUP2 DUP4 ADD MSTORE PUSH1 0x60 DUP4 ADD MSTORE DUP3 MLOAD DUP1 DUP5 ADD DUP5 MSTORE PUSH32 0x4511AA6127F96FB3E1482A032D6F1D356B157BD0C431241867B37324C27443B DUP2 MSTORE PUSH32 0x2ABD582523E8B79487FAD7D8AD6C5E7A6C4400D64F5E2AD3D0794AC5AED74F45 DUP2 DUP4 ADD MSTORE PUSH1 0x80 DUP4 ADD MSTORE DUP3 MLOAD DUP1 DUP5 ADD DUP5 MSTORE PUSH32 0xDFE23513249407C32391B0D014A98FD4E2A0A4D2A59C50561722A17BC632A89 DUP2 MSTORE PUSH32 0x25866BC21A0A0602603B89E7CE834F86B0F533DB03F4A2C154A2A4A2AB72B260 DUP2 DUP4 ADD MSTORE PUSH1 0xA0 DUP4 ADD MSTORE DUP3 MLOAD DUP1 DUP5 ADD DUP5 MSTORE PUSH32 0x2A26B2E79C20BA68FAF3F773F0D6414B94B3AA111F97B16969B5C40EDCA0BEFF DUP2 MSTORE PUSH32 0xAB1B27695958A65C2E9AE70D75B5348AD39EA020F483439FCB53AFA4EA3CE9A DUP2 DUP4 ADD MSTORE PUSH1 0xC0 DUP4 ADD MSTORE DUP3 MLOAD DUP1 DUP5 ADD DUP5 MSTORE PUSH32 0xFC7132E961738F6FD4DCF1699F2B7EDAB6C4F15B4F6DC38EB18CA4025165B6C DUP2 MSTORE PUSH32 0x158BFF580B1D00C42549F310CBCD055F2B957085627A7F73682FB6CE7A77C5B2 DUP2 DUP4 ADD MSTORE PUSH1 0xE0 DUP4 ADD MSTORE DUP3 MLOAD DUP1 DUP5 ADD DUP5 MSTORE PUSH32 0x2C5AFEA869FEC7D857143D27460ED2D7524F9B1A638ABE440232482B86E6BA12 DUP2 MSTORE PUSH32 0x29EF8C5D102FE8DF459565F9D58A05C68A25B77A0A7B49A6737C2E555EED7791 DUP2 DUP4 ADD MSTORE PUSH2 0x100 DUP4 ADD MSTORE DUP3 MLOAD DUP1 DUP5 ADD DUP5 MSTORE PUSH32 0x1AD0852AE1F831506B33A76A4968849ABAF87E068B8E00BA462E190FF4DC0FF9 DUP2 MSTORE PUSH32 0x2B782E70B28E331338317E348ECB3D3EE69C0CB7B1CA634B32395B5349605A93 DUP2 DUP4 ADD MSTORE PUSH2 0x120 DUP4 ADD MSTORE DUP3 MLOAD DUP1 DUP5 ADD DUP5 MSTORE PUSH32 0xC985BA6134F635ED8FBBEEC99E52C6B8D3F4C52739DDFC11F8EB700B4B45C26 DUP2 MSTORE PUSH32 0x239F25ABC0B67B3FDE26A6D36EBA321D242D4261052FE4F95AAE5AC502F815CA DUP2 DUP4 ADD MSTORE PUSH2 0x140 DUP4 ADD MSTORE DUP3 MLOAD DUP1 DUP5 ADD DUP5 MSTORE PUSH32 0x2313353FA65A4C5A2084EDA4CDCED2955B728AD69C578A02E5BCC575CD2C79AF DUP2 MSTORE PUSH32 0x22286EF9BA1B10021D15709BEAA1BA52B7D6B43394DB83FA81A6EC8E0ECE8F0A DUP2 DUP4 ADD MSTORE PUSH2 0x160 DUP4 ADD MSTORE DUP3 MLOAD DUP1 DUP5 ADD DUP5 MSTORE PUSH32 0xDEA1A5892CA6065D1B906D87BE6C9AC1738C63815B706B83A544AE027FEDD69 DUP2 MSTORE PUSH32 0x2EE2AC044F226F28FB4A09863BAE77FA908ED944193D485969A759CE799CDCB5 DUP2 DUP4 ADD MSTORE PUSH2 0x180 DUP4 ADD MSTORE DUP3 MLOAD DUP1 DUP5 ADD DUP5 MSTORE PUSH32 0x1D72FF42F9C29C482009BDDF6BB7F5F1D1B2273AA1AC7C4321150D9ACBFE449D DUP2 MSTORE PUSH32 0x15B3A68D63B0A5B91D88E8F3B549B1DAEBEC185330C01E747D41147C59D2C29B DUP2 DUP4 ADD MSTORE PUSH2 0x1A0 DUP4 ADD MSTORE DUP3 MLOAD DUP1 DUP5 ADD DUP5 MSTORE PUSH32 0x19D43F631CC20DD1C1CBA50317A50526E1CCF905C4F56E2973466900E371A822 DUP2 MSTORE PUSH32 0x1FDA726F7D1F326A293E42A5106684CB0F443B4E7D7A0EC62D08D8E6A9020790 DUP2 DUP4 ADD MSTORE PUSH2 0x1C0 DUP4 ADD MSTORE DUP3 MLOAD DUP1 DUP5 ADD DUP5 MSTORE PUSH32 0x107BB6E6B4A8B63C0B935B4535E0912452BCA41FA3FCFC5DC735D742F2854A44 DUP2 MSTORE PUSH31 0x6743595662B850722ADD5301E35E1178A8E8BCF48ED5F37AD48DB7B15AD353 DUP2 DUP4 ADD MSTORE PUSH2 0x1E0 DUP4 ADD MSTORE DUP3 MLOAD DUP1 DUP5 ADD DUP5 MSTORE PUSH32 0x2FBB65A4532C9B82522FAF73281F0DD1F2C8511920BA67AF9CD105EEA02CA762 DUP2 MSTORE PUSH32 0xF431FEB7734F8E746A41D9DDA9BF390EF9319B59B6AB9490B4909E4CF817FB5 DUP2 DUP4 ADD MSTORE PUSH2 0x200 DUP4 ADD MSTORE DUP3 MLOAD DUP1 DUP5 ADD DUP5 MSTORE PUSH31 0x631FC352AB49D39AEC2B3B7816FE8329074DEFA18DF7A8CEC6E43FB429444A DUP2 MSTORE PUSH32 0xE44775C314B211E18F8B72FF011BFECEE1E233F6DA9BE23B10C3CF23F25C205 DUP2 DUP4 ADD MSTORE PUSH2 0x220 DUP4 ADD MSTORE DUP3 MLOAD DUP1 DUP5 ADD DUP5 MSTORE PUSH32 0x1EF031B520A7F4A2DEB642FE03CDC8E13CC913E33920F20D928B142DAA6E147A DUP2 MSTORE PUSH32 0xD7CAC6F7727DA622075A098B707A34487DCF739BF9867BC89A8798B386B2E7A DUP2 DUP4 ADD MSTORE PUSH2 0x240 DUP4 ADD MSTORE DUP3 MLOAD DUP1 DUP5 ADD DUP5 MSTORE PUSH32 0x1FBFE1AEB4F4BEDA4C5CFE9B761047323B999B05854452731512DC423638F656 DUP2 MSTORE PUSH32 0x12175A830663B237A6DDEF10127799D718EE39FADC5B05BE231AE5D13E9BB08D DUP2 DUP4 ADD MSTORE PUSH2 0x260 DUP4 ADD MSTORE DUP3 MLOAD DUP1 DUP5 ADD DUP5 MSTORE PUSH32 0x136EEAE637AA458631DFCA684947B607F44678857FEFEDF36EC797130A6B477C DUP2 MSTORE PUSH32 0x129FA19E1E2E81CD7C0DA21C3DA6A8729E62BDEAC12183993F02B3EEAE1286EF DUP2 DUP4 ADD MSTORE PUSH2 0x280 DUP4 ADD MSTORE DUP3 MLOAD DUP1 DUP5 ADD DUP5 MSTORE PUSH32 0x93C6F19DE157581094A5832ECB8E7D1CB26DC0FC9C5137ECF90479846674E8B DUP2 MSTORE PUSH32 0x6DF953CFA56AB485511644B0AE8E208E4A6FCCAEED88BA82D4B22636B015E0C DUP2 DUP4 ADD MSTORE PUSH2 0x2A0 DUP4 ADD MSTORE DUP3 MLOAD DUP1 DUP5 ADD DUP5 MSTORE PUSH31 0xCE1F0A7D87806D2DEA7B11DEA0444ABC7D7EE1D28C44AA6B92CF45936CF600 DUP2 MSTORE PUSH32 0x1F40F2F5D2DFAF791D89587007774FF7D169978D00E6220F1DBA247F09FBD3E DUP2 DUP4 ADD MSTORE PUSH2 0x2C0 DUP4 ADD MSTORE DUP3 MLOAD DUP1 DUP5 ADD DUP5 MSTORE PUSH32 0x1476EAE1F9868F4CDF92DD8DA291D27E595109EB3B565F961F904B9CD83F1ADA DUP2 MSTORE PUSH32 0x247CBC51EC8938703D422E3E3FD5B39E82A1A44C6431602BE1CA2668419E8762 DUP2 DUP4 ADD MSTORE PUSH2 0x2E0 DUP4 ADD MSTORE DUP3 MLOAD DUP1 DUP5 ADD DUP5 MSTORE PUSH32 0x1010BB25BB88907D788ACE34655A66434421BC11CA4692D801E16F6E36CD6088 DUP2 MSTORE PUSH32 0x2EE8A976BBE0711AA45DAC6C14FC7A98AB84F9BF196989E2EDA61FF54DDC0A32 DUP2 DUP4 ADD MSTORE PUSH2 0x300 DUP4 ADD MSTORE DUP3 MLOAD DUP1 DUP5 ADD DUP5 MSTORE PUSH32 0x99E3BD5A0A00AB7FE18040105B9B395B5D8B7B4A63B05DF652B0D10EF146D26 DUP2 MSTORE PUSH31 0x15B8D2515D76E2CCEC99DCD194592129AF3A637F5A622A32440F860D1E2A7F DUP2 DUP4 ADD MSTORE PUSH2 0x320 DUP4 ADD MSTORE DUP3 MLOAD DUP1 DUP5 ADD DUP5 MSTORE PUSH32 0x1B917517920BAD3D8BC01C9595092A222B888108DC25D1AA450E0B4BC212C37E DUP2 MSTORE PUSH32 0x305E8992B148EEDB22E6E992077A84482141C7EBE42000A1D58CCB74381F6D19 DUP2 DUP4 ADD MSTORE PUSH2 0x340 DUP4 ADD MSTORE DUP3 MLOAD DUP1 DUP5 ADD DUP5 MSTORE PUSH32 0x13567E3B915C81013ADA15236BA5CFA60111B440400B2BCA37E2B1085E924A77 DUP2 MSTORE PUSH32 0x148D22589B91F0D8F4674AF5744DEDAFD63CAEA904B434E748F9713DE8CC3D7 DUP2 DUP4 ADD MSTORE PUSH2 0x360 DUP4 ADD MSTORE DUP3 MLOAD DUP1 DUP5 ADD DUP5 MSTORE PUSH32 0x43D063B130ADFB37342AF45D0155A28EDD1A7E46C840D9C943FDF45521C64CE DUP2 MSTORE PUSH32 0x261522C4089330646AFF96736194949330952AE74C573D1686D9CB4A00733854 DUP2 DUP4 ADD MSTORE PUSH2 0x380 DUP4 ADD MSTORE DUP3 MLOAD DUP1 DUP5 ADD DUP5 MSTORE PUSH1 0x1 DUP2 MSTORE PUSH1 0x2 DUP2 DUP4 ADD MSTORE PUSH2 0x3A0 DUP4 ADD MSTORE DUP3 MLOAD DUP1 DUP5 ADD SWAP1 SWAP4 MSTORE PUSH32 0x18AB36079C05BCB1AAA6FD46742B617E05136BF23C90424D8F66A67782C358E7 DUP4 MSTORE PUSH32 0x56D42D68CCCF60CCA6DDBFB3D71597FA6C996F6E13FF80A48A88030DAC13B05 SWAP1 DUP4 ADD MSTORE PUSH2 0x3C0 DUP2 ADD SWAP2 SWAP1 SWAP2 MSTORE SWAP1 JUMP JUMPDEST PUSH0 PUSH2 0x3DD PUSH2 0x254F DUP4 DUP6 PUSH2 0x5B9F JUMP JUMPDEST PUSH2 0x264A JUMP JUMPDEST PUSH2 0x255C PUSH2 0x5313 JUMP JUMPDEST PUSH1 0x40 DUP1 MLOAD DUP1 DUP3 ADD SWAP1 SWAP2 MSTORE DUP1 PUSH0 MLOAD PUSH1 0x20 PUSH2 0x5C6E PUSH0 CODECOPY PUSH0 MLOAD SWAP1 PUSH0 MSTORE PUSH2 0x2582 PUSH1 0x20 PUSH0 DUP8 DUP10 PUSH2 0x5B4C JUMP JUMPDEST PUSH2 0x258B SWAP2 PUSH2 0x5B9F JUMP JUMPDEST PUSH2 0x2595 SWAP2 SWAP1 PUSH2 0x5BBC JUMP JUMPDEST DUP2 MSTORE PUSH1 0x20 SWAP1 DUP2 ADD SWAP1 PUSH0 MLOAD PUSH1 0x20 PUSH2 0x5C6E PUSH0 CODECOPY PUSH0 MLOAD SWAP1 PUSH0 MSTORE SWAP1 PUSH2 0x25BA SWAP1 PUSH1 0x40 SWAP1 DUP8 DUP10 PUSH2 0x5B4C JUMP JUMPDEST PUSH2 0x25C3 SWAP2 PUSH2 0x5B9F JUMP JUMPDEST PUSH2 0x25CD SWAP2 SWAP1 PUSH2 0x5BBC JUMP JUMPDEST SWAP1 MSTORE SWAP4 SWAP3 POP POP POP JUMP JUMPDEST PUSH0 PUSH0 MLOAD PUSH1 0x20 PUSH2 0x5C8E PUSH0 CODECOPY PUSH0 MLOAD SWAP1 PUSH0 MSTORE DUP3 JUMPDEST MOD SWAP3 SWAP2 POP POP JUMP JUMPDEST PUSH0 PUSH0 MLOAD PUSH1 0x20 PUSH2 0x5C8E PUSH0 CODECOPY PUSH0 MLOAD SWAP1 PUSH0 MSTORE DUP3 DUP5 MULMOD SWAP1 POP JUMPDEST SWAP3 SWAP2 POP POP JUMP JUMPDEST PUSH0 PUSH0 MLOAD PUSH1 0x20 PUSH2 0x5C8E PUSH0 CODECOPY PUSH0 MLOAD SWAP1 PUSH0 MSTORE DUP3 DUP5 ADDMOD SWAP4 SWAP3 POP POP POP JUMP JUMPDEST PUSH0 PUSH0 MLOAD PUSH1 0x20 PUSH2 0x5C8E PUSH0 CODECOPY PUSH0 MLOAD SWAP1 PUSH0 MSTORE DUP3 PUSH0 MLOAD PUSH1 0x20 PUSH2 0x5C8E PUSH0 CODECOPY PUSH0 MLOAD SWAP1 PUSH0 MSTORE SUB DUP5 ADDMOD SWAP4 SWAP3 POP POP POP JUMP JUMPDEST PUSH0 PUSH0 MLOAD PUSH1 0x20 PUSH2 0x5C8E PUSH0 CODECOPY PUSH0 MLOAD SWAP1 PUSH0 MSTORE DUP3 PUSH2 0x25E7 JUMP JUMPDEST PUSH0 PUSH2 0x3DD DUP4 PUSH2 0x8CF DUP5 PUSH2 0x295D JUMP JUMPDEST PUSH0 PUSH0 PUSH1 0x40 MLOAD DUP1 PUSH2 0x120 ADD PUSH1 0x40 MSTORE DUP1 PUSH2 0x9D80 DUP2 MSTORE PUSH1 0x20 ADD PUSH32 0x30644E72E131A029B85045B68181585D2833E84879B9709143E1F593EFFFEC51 DUP2 MSTORE PUSH1 0x20 ADD PUSH2 0x5A0 DUP2 MSTORE PUSH1 0x20 ADD PUSH32 0x30644E72E131A029B85045B68181585D2833E84879B9709143E1F593EFFFFD31 DUP2 MSTORE PUSH1 0x20 ADD PUSH2 0x240 DUP2 MSTORE PUSH1 0x20 ADD PUSH32 0x30644E72E131A029B85045B68181585D2833E84879B9709143E1F593EFFFFD31 DUP2 MSTORE PUSH1 0x20 ADD PUSH2 0x5A0 DUP2 MSTORE PUSH1 0x20 ADD PUSH32 0x30644E72E131A029B85045B68181585D2833E84879B9709143E1F593EFFFEC51 DUP2 MSTORE PUSH1 0x20 ADD PUSH2 0x9D80 DUP2 MSTORE POP SWAP1 POP PUSH0 PUSH1 0x1 SWAP1 POP PUSH0 PUSH0 SWAP1 POP JUMPDEST PUSH1 0x9 DUP2 LT ISZERO PUSH2 0x2766 JUMPI PUSH2 0x275C DUP3 PUSH2 0x8CF DUP8 DUP5 PUSH2 0x2622 JUMP JUMPDEST SWAP2 POP PUSH1 0x1 ADD PUSH2 0x2745 JUMP JUMPDEST POP PUSH2 0x276F PUSH2 0x533E JUMP JUMPDEST PUSH0 JUMPDEST PUSH1 0x9 DUP2 LT ISZERO PUSH2 0x27C0 JUMPI PUSH2 0x27A1 PUSH2 0xD49 DUP6 DUP4 PUSH1 0x9 DUP2 LT PUSH2 0x2792 JUMPI PUSH2 0x2792 PUSH2 0x5B73 JUMP JUMPDEST PUSH1 0x20 MUL ADD MLOAD PUSH2 0x8CF DUP10 DUP6 PUSH2 0x2622 JUMP JUMPDEST DUP3 DUP3 PUSH1 0x9 DUP2 LT PUSH2 0x27B3 JUMPI PUSH2 0x27B3 PUSH2 0x5B73 JUMP JUMPDEST PUSH1 0x20 MUL ADD MSTORE PUSH1 0x1 ADD PUSH2 0x2771 JUMP JUMPDEST POP PUSH0 JUMPDEST PUSH1 0x9 DUP2 LT ISZERO PUSH2 0x2806 JUMPI PUSH2 0x27FC DUP6 PUSH2 0x8D4 DUP10 DUP5 PUSH1 0x9 DUP2 LT PUSH2 0x27E5 JUMPI PUSH2 0x27E5 PUSH2 0x5B73 JUMP JUMPDEST PUSH1 0x20 MUL ADD MLOAD DUP6 DUP6 PUSH1 0x9 DUP2 LT PUSH2 0xB7D JUMPI PUSH2 0xB7D PUSH2 0x5B73 JUMP JUMPDEST SWAP5 POP PUSH1 0x1 ADD PUSH2 0x27C3 JUMP JUMPDEST POP PUSH2 0x2811 DUP5 DUP4 PUSH2 0x25EE JUMP JUMPDEST SWAP7 SWAP6 POP POP POP POP POP POP JUMP JUMPDEST PUSH0 PUSH2 0x2824 PUSH2 0x535D JUMP JUMPDEST PUSH2 0x282F DUP7 DUP3 DUP6 PUSH2 0x3416 JUMP JUMPDEST PUSH2 0x283B DUP7 DUP7 DUP4 DUP7 PUSH2 0x35C2 JUMP JUMPDEST PUSH2 0x2847 DUP7 DUP7 DUP4 DUP7 PUSH2 0x37AE JUMP JUMPDEST PUSH2 0x2852 DUP7 DUP3 DUP6 PUSH2 0x39D3 JUMP JUMPDEST PUSH2 0x285D DUP7 DUP3 DUP6 PUSH2 0x3BC7 JUMP JUMPDEST PUSH2 0x2869 DUP7 DUP7 DUP4 DUP7 PUSH2 0x3F10 JUMP JUMPDEST PUSH2 0x2874 DUP7 DUP3 DUP6 PUSH2 0x43BC JUMP JUMPDEST PUSH2 0x287F DUP7 DUP3 DUP6 PUSH2 0x47CE JUMP JUMPDEST PUSH2 0x288A DUP7 DUP3 DUP6 PUSH2 0x4B8F JUMP JUMPDEST PUSH2 0x2811 DUP2 DUP6 PUSH2 0x4E8F JUMP JUMPDEST PUSH1 0x60 PUSH0 DUP3 PUSH1 0x1 PUSH1 0x1 PUSH1 0x40 SHL SUB DUP2 GT ISZERO PUSH2 0x28AF JUMPI PUSH2 0x28AF PUSH2 0x5940 JUMP JUMPDEST PUSH1 0x40 MLOAD SWAP1 DUP1 DUP3 MSTORE DUP1 PUSH1 0x20 MUL PUSH1 0x20 ADD DUP3 ADD PUSH1 0x40 MSTORE DUP1 ISZERO PUSH2 0x28D8 JUMPI DUP2 PUSH1 0x20 ADD PUSH1 0x20 DUP3 MUL DUP1 CALLDATASIZE DUP4 CALLDATACOPY ADD SWAP1 POP JUMPDEST POP SWAP1 POP DUP4 DUP2 PUSH0 DUP2 MLOAD DUP2 LT PUSH2 0x28EE JUMPI PUSH2 0x28EE PUSH2 0x5B73 JUMP JUMPDEST PUSH1 0x20 SWAP1 DUP2 MUL SWAP2 SWAP1 SWAP2 ADD ADD MSTORE PUSH1 0x1 JUMPDEST DUP4 DUP2 LT ISZERO PUSH2 0x2955 JUMPI PUSH2 0x2930 DUP3 PUSH2 0x2913 PUSH1 0x1 DUP5 PUSH2 0x55D3 JUMP JUMPDEST DUP2 MLOAD DUP2 LT PUSH2 0x2923 JUMPI PUSH2 0x2923 PUSH2 0x5B73 JUMP JUMPDEST PUSH1 0x20 MUL PUSH1 0x20 ADD ADD MLOAD PUSH2 0x2B3D JUMP JUMPDEST DUP3 DUP3 DUP2 MLOAD DUP2 LT PUSH2 0x2942 JUMPI PUSH2 0x2942 PUSH2 0x5B73 JUMP JUMPDEST PUSH1 0x20 SWAP1 DUP2 MUL SWAP2 SWAP1 SWAP2 ADD ADD MSTORE PUSH1 0x1 ADD PUSH2 0x28FC JUMP JUMPDEST POP SWAP4 SWAP3 POP POP POP JUMP JUMPDEST PUSH0 PUSH0 DUP3 SWAP1 POP PUSH0 PUSH1 0x40 MLOAD PUSH1 0x20 DUP2 MSTORE PUSH1 0x20 DUP1 DUP3 ADD MSTORE PUSH1 0x20 PUSH1 0x40 DUP3 ADD MSTORE DUP3 PUSH1 0x60 DUP3 ADD MSTORE PUSH1 0x2 PUSH0 MLOAD PUSH1 0x20 PUSH2 0x5C8E PUSH0 CODECOPY PUSH0 MLOAD SWAP1 PUSH0 MSTORE SUB PUSH1 0x80 DUP3 ADD MSTORE PUSH0 MLOAD PUSH1 0x20 PUSH2 0x5C8E PUSH0 CODECOPY PUSH0 MLOAD SWAP1 PUSH0 MSTORE PUSH1 0xA0 DUP3 ADD MSTORE PUSH1 0x20 PUSH0 PUSH1 0xC0 DUP4 PUSH1 0x5 GAS STATICCALL DUP1 PUSH2 0x29B9 JUMPI PUSH0 PUSH0 REVERT JUMPDEST POP PUSH0 MLOAD PUSH1 0x80 SWAP2 SWAP1 SWAP2 ADD PUSH1 0x40 MSTORE SWAP5 SWAP4 POP POP POP POP JUMP JUMPDEST PUSH0 MLOAD PUSH1 0x20 PUSH2 0x5C8E PUSH0 CODECOPY PUSH0 MLOAD SWAP1 PUSH0 MSTORE SUB SWAP1 JUMP JUMPDEST PUSH1 0x60 PUSH0 DUP3 PUSH1 0x1 PUSH1 0x1 PUSH1 0x40 SHL SUB DUP2 GT ISZERO PUSH2 0x29FA JUMPI PUSH2 0x29FA PUSH2 0x5940 JUMP JUMPDEST PUSH1 0x40 MLOAD SWAP1 DUP1 DUP3 MSTORE DUP1 PUSH1 0x20 MUL PUSH1 0x20 ADD DUP3 ADD PUSH1 0x40 MSTORE DUP1 ISZERO PUSH2 0x2A23 JUMPI DUP2 PUSH1 0x20 ADD PUSH1 0x20 DUP3 MUL DUP1 CALLDATASIZE DUP4 CALLDATACOPY ADD SWAP1 POP JUMPDEST POP SWAP1 POP DUP3 JUMPDEST DUP1 ISZERO PUSH2 0x2B32 JUMPI PUSH0 DUP6 PUSH2 0x2A3B PUSH1 0x1 DUP5 PUSH2 0x55D3 JUMP JUMPDEST DUP2 MLOAD DUP2 LT PUSH2 0x2A4B JUMPI PUSH2 0x2A4B PUSH2 0x5B73 JUMP JUMPDEST PUSH1 0x20 MUL PUSH1 0x20 ADD ADD MLOAD SWAP1 POP PUSH0 DUP10 PUSH1 0x1 DUP5 PUSH2 0x2A64 SWAP2 SWAP1 PUSH2 0x55D3 JUMP JUMPDEST PUSH1 0x1C DUP2 LT PUSH2 0x2A74 JUMPI PUSH2 0x2A74 PUSH2 0x5B73 JUMP JUMPDEST PUSH1 0x20 MUL ADD MLOAD SWAP1 POP PUSH0 PUSH2 0x2ACF PUSH2 0x2A93 PUSH2 0x2A8C DUP6 DUP14 PUSH2 0x25EE JUMP JUMPDEST PUSH1 0x2 PUSH2 0x25EE JUMP JUMPDEST PUSH2 0x8F2 DUP12 PUSH2 0x2AA2 PUSH1 0x1 DUP10 PUSH2 0x55D3 JUMP JUMPDEST PUSH1 0x1C DUP2 LT PUSH2 0x2AB2 JUMPI PUSH2 0x2AB2 PUSH2 0x5B73 JUMP JUMPDEST PUSH1 0x20 MUL ADD MLOAD PUSH2 0x8CF PUSH2 0x2AC9 DUP9 PUSH2 0x8CF PUSH1 0x1 DUP11 PUSH2 0x2622 JUMP JUMPDEST DUP8 PUSH2 0x2622 JUMP JUMPDEST SWAP1 POP PUSH2 0x2AF0 DUP2 PUSH2 0x8CF PUSH2 0xD49 PUSH2 0x2AEA DUP8 PUSH2 0x8CF PUSH1 0x1 DUP10 PUSH2 0x2622 JUMP JUMPDEST DUP7 PUSH2 0x2609 JUMP JUMPDEST SWAP10 POP DUP10 SWAP1 POP DUP1 DUP6 PUSH2 0x2B02 PUSH1 0x1 DUP8 PUSH2 0x55D3 JUMP JUMPDEST DUP2 MLOAD DUP2 LT PUSH2 0x2B12 JUMPI PUSH2 0x2B12 PUSH2 0x5B73 JUMP JUMPDEST PUSH1 0x20 MUL PUSH1 0x20 ADD ADD DUP2 DUP2 MSTORE POP POP POP POP POP DUP1 PUSH2 0x2B2B SWAP1 PUSH2 0x5BDB JUMP JUMPDEST SWAP1 POP PUSH2 0x2A28 JUMP JUMPDEST POP SWAP7 SWAP6 POP POP POP POP POP POP JUMP JUMPDEST PUSH0 PUSH2 0x2603 DUP3 DUP4 PUSH2 0x25EE JUMP JUMPDEST PUSH0 PUSH1 0x1 DUP2 PUSH2 0x2B61 PUSH2 0x2B5B DUP8 PUSH2 0x100 PUSH2 0x4EE8 JUMP JUMPDEST DUP4 PUSH2 0x2622 JUMP JUMPDEST SWAP1 POP DUP1 PUSH2 0x2B81 JUMPI PUSH1 0x40 MLOAD PUSH4 0x835EB8F7 PUSH1 0xE0 SHL DUP2 MSTORE PUSH1 0x4 ADD PUSH1 0x40 MLOAD DUP1 SWAP2 SUB SWAP1 REVERT JUMPDEST PUSH2 0x2B89 PUSH2 0x537C JUMP JUMPDEST DUP1 MLOAD DUP4 SWAP1 MSTORE PUSH0 JUMPDEST PUSH32 0x0 DUP2 LT ISZERO PUSH2 0x2C72 JUMPI PUSH0 PUSH2 0x2BC4 DUP3 PUSH1 0x9 PUSH2 0x55BC JUMP JUMPDEST PUSH2 0x2BCF SWAP1 PUSH1 0x1 PUSH2 0x5B39 JUMP JUMPDEST SWAP1 POP DUP5 DUP4 PUSH0 ADD MLOAD DUP3 PUSH2 0x100 DUP2 LT PUSH2 0x2BE8 JUMPI PUSH2 0x2BE8 PUSH2 0x5B73 JUMP JUMPDEST PUSH1 0x20 MUL ADD MSTORE PUSH0 PUSH2 0x2BF9 DUP3 PUSH1 0x1 PUSH2 0x5B39 JUMP JUMPDEST SWAP1 POP JUMPDEST PUSH2 0x2C07 PUSH1 0x9 DUP4 PUSH2 0x5B39 JUMP JUMPDEST DUP2 LT ISZERO PUSH2 0x2C68 JUMPI DUP4 MLOAD PUSH2 0x2C47 SWAP1 PUSH2 0x2C1F PUSH1 0x1 DUP5 PUSH2 0x55D3 JUMP JUMPDEST PUSH2 0x100 DUP2 LT PUSH2 0x2C30 JUMPI PUSH2 0x2C30 PUSH2 0x5B73 JUMP JUMPDEST PUSH1 0x20 MUL ADD MLOAD DUP11 DUP6 PUSH1 0x1C DUP2 LT PUSH2 0xB7D JUMPI PUSH2 0xB7D PUSH2 0x5B73 JUMP JUMPDEST DUP5 MLOAD DUP3 PUSH2 0x100 DUP2 LT PUSH2 0x2C5B JUMPI PUSH2 0x2C5B PUSH2 0x5B73 JUMP JUMPDEST PUSH1 0x20 MUL ADD MSTORE PUSH1 0x1 ADD PUSH2 0x2BFC JUMP JUMPDEST POP POP PUSH1 0x1 ADD PUSH2 0x2B90 JUMP JUMPDEST POP PUSH1 0x80 DUP2 ADD DUP4 SWAP1 MSTORE PUSH0 PUSH1 0x20 DUP3 ADD DUP2 SWAP1 MSTORE JUMPDEST PUSH2 0x100 DUP2 LT ISZERO PUSH2 0x2D83 JUMPI PUSH2 0x2CA4 PUSH2 0x2C9E DUP4 PUSH1 0x80 ADD MLOAD DUP11 PUSH2 0x25EE JUMP JUMPDEST DUP6 PUSH2 0x2622 JUMP JUMPDEST DUP3 PUSH1 0xA0 ADD MLOAD DUP3 PUSH2 0x100 DUP2 LT PUSH2 0x2CBB JUMPI PUSH2 0x2CBB PUSH2 0x5B73 JUMP JUMPDEST PUSH1 0x20 MUL ADD MSTORE PUSH1 0xA0 DUP3 ADD MLOAD PUSH2 0x2CE5 SWAP1 DUP3 PUSH2 0x100 DUP2 LT PUSH2 0x2CDB JUMPI PUSH2 0x2CDB PUSH2 0x5B73 JUMP JUMPDEST PUSH1 0x20 MUL ADD MLOAD PUSH2 0x295D JUMP JUMPDEST DUP3 PUSH1 0xA0 ADD MLOAD DUP3 PUSH2 0x100 DUP2 LT PUSH2 0x2CFC JUMPI PUSH2 0x2CFC PUSH2 0x5B73 JUMP JUMPDEST PUSH1 0x20 MUL ADD DUP2 DUP2 MSTORE POP POP PUSH2 0x2D42 DUP3 PUSH1 0x20 ADD MLOAD PUSH2 0x8D4 DUP5 PUSH0 ADD MLOAD DUP5 PUSH2 0x100 DUP2 LT PUSH2 0x2D26 JUMPI PUSH2 0x2D26 PUSH2 0x5B73 JUMP JUMPDEST PUSH1 0x20 MUL ADD MLOAD DUP6 PUSH1 0xA0 ADD MLOAD DUP6 PUSH2 0x100 DUP2 LT PUSH2 0xB7D JUMPI PUSH2 0xB7D PUSH2 0x5B73 JUMP JUMPDEST PUSH1 0x20 DUP4 ADD MSTORE PUSH1 0x80 DUP3 ADD MLOAD PUSH2 0x2D76 SWAP1 PUSH32 0x204BD3277422FAD364751AD938E2B5E6A54CF8C68712848A692C553D0329F5D6 PUSH2 0x25EE JUMP JUMPDEST PUSH1 0x80 DUP4 ADD MSTORE PUSH1 0x1 ADD PUSH2 0x2C83 JUMP JUMPDEST POP PUSH0 PUSH2 0x2D94 DUP4 PUSH2 0x8CF PUSH2 0x100 PUSH2 0x295D JUMP JUMPDEST SWAP1 POP PUSH2 0x2DA4 DUP3 PUSH1 0x20 ADD MLOAD DUP3 PUSH2 0x25EE JUMP JUMPDEST PUSH1 0x20 DUP4 ADD MSTORE PUSH1 0xA0 DUP3 ADD MLOAD PUSH2 0x2DBF SWAP1 PUSH0 JUMPDEST PUSH1 0x20 MUL ADD MLOAD DUP3 PUSH2 0x25EE JUMP JUMPDEST PUSH1 0x40 DUP4 ADD MSTORE PUSH1 0xA0 DUP3 ADD MLOAD PUSH2 0x2DEB SWAP1 PUSH2 0x2DDA PUSH1 0x1 PUSH2 0x100 PUSH2 0x55D3 JUMP JUMPDEST PUSH2 0x100 DUP2 LT PUSH2 0x2DB4 JUMPI PUSH2 0x2DB4 PUSH2 0x5B73 JUMP JUMPDEST PUSH1 0x60 DUP4 ADD MSTORE PUSH1 0x40 DUP3 ADD MLOAD PUSH2 0x2E01 SWAP1 DUP11 PUSH1 0x2 PUSH2 0xB7D JUMP JUMPDEST PUSH1 0xC0 DUP4 ADD DUP2 SWAP1 MSTORE PUSH2 0x2E61 SWAP1 PUSH2 0x8D4 PUSH2 0x2E39 DUP12 PUSH32 0x204BD3277422FAD364751AD938E2B5E6A54CF8C68712848A692C553D0329F5D6 PUSH2 0x2622 JUMP JUMPDEST PUSH1 0x20 DUP14 ADD MLOAD PUSH1 0x40 DUP15 ADD MLOAD PUSH2 0x8CF SWAP2 PUSH2 0x2E50 SWAP2 PUSH2 0x2622 JUMP JUMPDEST DUP15 MLOAD PUSH1 0x20 DUP10 ADD MLOAD PUSH2 0x8F2 SWAP2 SWAP1 PUSH2 0x25EE JUMP JUMPDEST PUSH1 0xC0 DUP4 ADD DUP2 SWAP1 MSTORE PUSH1 0x60 DUP4 ADD MLOAD PUSH2 0x2E96 SWAP2 PUSH2 0x2E8A SWAP2 PUSH2 0x8D4 SWAP1 PUSH2 0x8CF DUP15 PUSH1 0x2 PUSH1 0x20 MUL ADD MLOAD DUP13 PUSH2 0x2622 JUMP JUMPDEST PUSH2 0x8F2 DUP6 DUP13 PUSH1 0x3 PUSH2 0xB7D JUMP JUMPDEST PUSH1 0xC0 DUP4 ADD DUP2 SWAP1 MSTORE ISZERO SWAP10 SWAP9 POP POP POP POP POP POP POP POP POP JUMP JUMPDEST PUSH2 0x2EB3 PUSH2 0x5313 JUMP JUMPDEST PUSH0 PUSH1 0x3 PUSH2 0x2EE1 PUSH32 0x0 PUSH1 0x24 PUSH2 0x5B39 JUMP JUMPDEST PUSH2 0x2EEB SWAP2 SWAP1 PUSH2 0x5B39 JUMP JUMPDEST PUSH2 0x2EF6 SWAP1 PUSH1 0x3 PUSH2 0x5B39 JUMP JUMPDEST SWAP1 POP PUSH0 JUMPDEST DUP2 DUP2 LT ISZERO PUSH2 0x2F2C JUMPI PUSH2 0x2F24 DUP6 DUP3 DUP2 MLOAD DUP2 LT PUSH2 0x2F17 JUMPI PUSH2 0x2F17 PUSH2 0x5B73 JUMP JUMPDEST PUSH1 0x20 MUL PUSH1 0x20 ADD ADD MLOAD PUSH2 0x3154 JUMP JUMPDEST PUSH1 0x1 ADD PUSH2 0x2EFA JUMP JUMPDEST POP PUSH1 0x40 MLOAD PUSH1 0x1 SWAP1 DUP2 JUMPDEST PUSH1 0x1 DUP5 ADD DUP2 LT ISZERO PUSH2 0x2F91 JUMPI PUSH1 0x20 DUP2 MUL DUP8 ADD PUSH1 0x20 DUP3 MUL DUP8 ADD DUP2 MLOAD MLOAD PUSH1 0x40 DUP6 ADD MSTORE DUP2 MLOAD PUSH1 0x20 ADD MLOAD PUSH1 0x60 DUP6 ADD MSTORE DUP1 MLOAD PUSH1 0x80 DUP6 ADD MSTORE POP POP PUSH1 0x40 DUP1 DUP4 ADD PUSH1 0x60 PUSH1 0x40 DUP6 ADD PUSH1 0x7 GAS STATICCALL DUP4 AND SWAP3 POP PUSH1 0x40 DUP3 PUSH1 0x80 DUP5 PUSH1 0x6 GAS STATICCALL SWAP1 SWAP3 AND SWAP2 PUSH1 0x1 ADD PUSH2 0x2F35 JUMP JUMPDEST POP DUP1 MLOAD DUP5 MSTORE PUSH1 0x20 DUP2 ADD MLOAD PUSH1 0x20 DUP6 ADD MSTORE POP DUP1 PUSH2 0x2FBF JUMPI PUSH1 0x40 MLOAD PUSH4 0x52EC1745 PUSH1 0xE1 SHL DUP2 MSTORE PUSH1 0x4 ADD PUSH1 0x40 MLOAD DUP1 SWAP2 SUB SWAP1 REVERT JUMPDEST POP POP SWAP3 SWAP2 POP POP JUMP JUMPDEST PUSH2 0x2FCF PUSH2 0x5313 JUMP JUMPDEST PUSH0 MLOAD PUSH1 0x20 PUSH2 0x5C6E PUSH0 CODECOPY PUSH0 MLOAD SWAP1 PUSH0 MSTORE DUP3 PUSH1 0x20 ADD MLOAD PUSH0 MLOAD PUSH1 0x20 PUSH2 0x5C6E PUSH0 CODECOPY PUSH0 MLOAD SWAP1 PUSH0 MSTORE PUSH2 0x2FFA SWAP2 SWAP1 PUSH2 0x55D3 JUMP JUMPDEST PUSH2 0x3004 SWAP2 SWAP1 PUSH2 0x5BBC JUMP JUMPDEST PUSH1 0x20 DUP4 ADD MSTORE POP SWAP1 JUMP JUMPDEST PUSH0 PUSH0 PUSH0 PUSH2 0x3019 DUP7 PUSH2 0x3093 JUMP JUMPDEST SWAP2 POP SWAP2 POP PUSH2 0x3025 PUSH2 0x53C0 JUMP JUMPDEST DUP3 MLOAD DUP2 MSTORE PUSH1 0x20 DUP1 DUP5 ADD MLOAD DUP2 DUP4 ADD MSTORE DUP3 MLOAD PUSH1 0x40 DUP1 DUP5 ADD SWAP2 SWAP1 SWAP2 MSTORE DUP4 DUP3 ADD MLOAD PUSH1 0x60 DUP5 ADD MSTORE DUP8 MLOAD PUSH1 0x80 DUP5 ADD MSTORE DUP8 DUP3 ADD MLOAD PUSH1 0xA0 DUP5 ADD MSTORE DUP7 MLOAD PUSH1 0xC0 DUP5 ADD MSTORE DUP7 DUP3 ADD MLOAD PUSH1 0xE0 DUP5 ADD MSTORE MLOAD PUSH2 0xBBD SWAP2 PUSH2 0x3078 SWAP2 DUP5 SWAP2 ADD PUSH2 0x5BF0 JUMP JUMPDEST PUSH1 0x40 MLOAD PUSH1 0x20 DUP2 DUP4 SUB SUB DUP2 MSTORE SWAP1 PUSH1 0x40 MSTORE DUP1 MLOAD SWAP1 PUSH1 0x20 ADD KECCAK256 PUSH2 0x264A JUMP JUMPDEST PUSH2 0x309B PUSH2 0x5313 JUMP JUMPDEST PUSH2 0x30A3 PUSH2 0x5313 JUMP JUMPDEST DUP3 MLOAD PUSH1 0x20 DUP1 DUP6 ADD MLOAD PUSH1 0x40 DUP7 ADD MLOAD PUSH1 0x60 DUP8 ADD MLOAD PUSH1 0xCC SWAP1 DUP2 SHL PUSH1 0x88 SWAP3 DUP4 SHL PUSH1 0x44 SWAP5 DUP6 SHL SWAP1 SWAP7 OR SWAP6 SWAP1 SWAP6 OR SWAP5 SWAP1 SWAP5 OR DUP7 MSTORE PUSH1 0x80 DUP8 ADD MLOAD PUSH1 0xA0 DUP9 ADD MLOAD PUSH1 0xC0 DUP10 ADD MLOAD PUSH1 0xE0 DUP11 ADD MLOAD DUP8 SHL SWAP1 DUP5 SHL SWAP2 DUP6 SHL SWAP1 SWAP3 OR OR OR DUP7 DUP5 ADD MSTORE PUSH2 0x100 DUP8 ADD MLOAD PUSH2 0x120 DUP9 ADD MLOAD PUSH2 0x140 DUP10 ADD MLOAD PUSH2 0x160 DUP11 ADD MLOAD DUP8 SHL SWAP1 DUP5 SHL SWAP2 DUP6 SHL SWAP1 SWAP3 OR OR OR DUP6 MSTORE PUSH2 0x180 DUP8 ADD MLOAD PUSH2 0x1A0 DUP9 ADD MLOAD PUSH2 0x1C0 DUP10 ADD MLOAD PUSH2 0x1E0 SWAP1 SWAP10 ADD MLOAD SWAP1 SWAP6 SHL SWAP8 SWAP1 SWAP2 SHL SWAP4 SWAP1 SWAP2 SHL OR SWAP2 SWAP1 SWAP2 OR SWAP4 SWAP1 SWAP4 OR SWAP3 DUP2 ADD SWAP3 SWAP1 SWAP3 MSTORE SWAP2 JUMP JUMPDEST DUP1 MLOAD PUSH1 0x20 DUP3 ADD MLOAD PUSH0 PUSH0 MLOAD PUSH1 0x20 PUSH2 0x5C6E PUSH0 CODECOPY PUSH0 MLOAD SWAP1 PUSH0 MSTORE DUP4 DUP1 MULMOD PUSH0 MLOAD PUSH1 0x20 PUSH2 0x5C6E PUSH0 CODECOPY PUSH0 MLOAD SWAP1 PUSH0 MSTORE PUSH1 0x3 PUSH0 MLOAD PUSH1 0x20 PUSH2 0x5C6E PUSH0 CODECOPY PUSH0 MLOAD SWAP1 PUSH0 MSTORE DUP4 DUP8 MULMOD ADDMOD PUSH0 MLOAD PUSH1 0x20 PUSH2 0x5C6E PUSH0 CODECOPY PUSH0 MLOAD SWAP1 PUSH0 MSTORE DUP5 DUP6 MULMOD EQ SWAP2 POP POP DUP1 PUSH2 0x31ED JUMPI PUSH1 0x40 MLOAD PUSH3 0x461BCD PUSH1 0xE5 SHL DUP2 MSTORE PUSH1 0x20 PUSH1 0x4 DUP3 ADD MSTORE PUSH1 0x19 PUSH1 0x24 DUP3 ADD MSTORE PUSH25 0x706F696E74206973206E6F74206F6E20746865206375727665 PUSH1 0x38 SHL PUSH1 0x44 DUP3 ADD MSTORE PUSH1 0x64 ADD PUSH2 0xE5 JUMP JUMPDEST POP POP POP POP JUMP JUMPDEST PUSH2 0x31FB PUSH2 0x5313 JUMP JUMPDEST PUSH2 0x3203 PUSH2 0x5313 JUMP JUMPDEST PUSH2 0x320D DUP4 DUP7 PUSH2 0x4F49 JUMP JUMPDEST SWAP1 POP PUSH2 0x3219 DUP2 DUP6 PUSH2 0x4F9F JUMP JUMPDEST SWAP6 SWAP5 POP POP POP POP POP JUMP JUMPDEST DUP2 MLOAD PUSH1 0x20 DUP1 DUP5 ADD MLOAD DUP4 MLOAD DUP5 DUP4 ADD MLOAD PUSH1 0x40 DUP1 MLOAD SWAP5 DUP6 ADD SWAP6 SWAP1 SWAP6 MSTORE SWAP4 DUP4 ADD SWAP2 SWAP1 SWAP2 MSTORE PUSH32 0x198E9393920D483A7260BFB731FB5D25F1AA493335A9E71297E485B7AEF312C2 PUSH1 0x60 DUP4 ADD MSTORE PUSH32 0x1800DEEF121F1E76426A00665E5C4479674322D4F75EDADD46DEBD5CD992F6ED PUSH1 0x80 DUP4 ADD MSTORE PUSH32 0x90689D0585FF075EC9E99AD690C3395BC4B313370B38EF355ACDADCD122975B PUSH1 0xA0 DUP4 ADD MSTORE PUSH32 0x12C85EA5DB8C6DEB4AAB71808DCB408FE3D1E7690C43D37B4CE6CC0166FA7DAA PUSH1 0xC0 DUP4 ADD MSTORE PUSH1 0xE0 DUP3 ADD MSTORE PUSH2 0x100 DUP2 ADD SWAP2 SWAP1 SWAP2 MSTORE PUSH32 0x260E01B251F6F1C7E7FF4E580791DEE8EA51D87A358E038B4EFE30FAC09383C1 PUSH2 0x120 DUP3 ADD MSTORE PUSH32 0x118C4D5B837BCC2BC89B5B398B5974E9F5944073B32078B7E231FEC938883B0 PUSH2 0x140 DUP3 ADD MSTORE PUSH32 0x4FC6369F7110FE3D25156C1BB9A72859CF2A04641F99BA4EE413C80DA6A5FE4 PUSH2 0x160 DUP3 ADD MSTORE PUSH32 0x22FEBDA3C0C0632A56475B4214E5615E11E6DD3F96E6CEA2854A87D4DACC5E55 PUSH2 0x180 DUP3 ADD MSTORE PUSH0 SWAP1 DUP2 SWAP1 PUSH2 0x1A0 ADD PUSH1 0x40 MLOAD PUSH1 0x20 DUP2 DUP4 SUB SUB DUP2 MSTORE SWAP1 PUSH1 0x40 MSTORE SWAP1 POP PUSH0 PUSH0 PUSH1 0x8 PUSH1 0x1 PUSH1 0x1 PUSH1 0xA0 SHL SUB AND DUP4 PUSH1 0x40 MLOAD PUSH2 0x33B8 SWAP2 SWAP1 PUSH2 0x5C24 JUMP JUMPDEST PUSH0 PUSH1 0x40 MLOAD DUP1 DUP4 SUB DUP2 DUP6 GAS STATICCALL SWAP2 POP POP RETURNDATASIZE DUP1 PUSH0 DUP2 EQ PUSH2 0x33F0 JUMPI PUSH1 0x40 MLOAD SWAP2 POP PUSH1 0x1F NOT PUSH1 0x3F RETURNDATASIZE ADD AND DUP3 ADD PUSH1 0x40 MSTORE RETURNDATASIZE DUP3 MSTORE RETURNDATASIZE PUSH0 PUSH1 0x20 DUP5 ADD RETURNDATACOPY PUSH2 0x33F5 JUMP JUMPDEST PUSH1 0x60 SWAP2 POP JUMPDEST POP SWAP2 POP SWAP2 POP DUP2 DUP1 ISZERO PUSH2 0x2811 JUMPI POP DUP1 DUP1 PUSH1 0x20 ADD SWAP1 MLOAD DUP2 ADD SWAP1 PUSH2 0x2811 SWAP2 SWAP1 PUSH2 0x5C3A JUMP JUMPDEST PUSH0 PUSH2 0x3422 DUP5 PUSH1 0x7 PUSH2 0x5000 JUMP JUMPDEST SWAP1 POP PUSH32 0x183227397098D014DC2822DB40C0AC2E9419F4243CDCB848A1F0FAC9F8000000 PUSH0 PUSH2 0x3483 PUSH2 0x347D PUSH2 0x3457 DUP6 PUSH1 0x3 PUSH2 0x2622 JUMP JUMPDEST PUSH2 0x8CF PUSH2 0x3472 PUSH2 0x3467 DUP12 PUSH0 PUSH2 0x5000 JUMP JUMPDEST PUSH2 0x8CF DUP13 PUSH1 0x1D PUSH2 0x5000 JUMP JUMPDEST PUSH2 0x8CF DUP12 PUSH1 0x1C PUSH2 0x5000 JUMP JUMPDEST DUP4 PUSH2 0x25EE JUMP JUMPDEST SWAP1 POP PUSH2 0x3504 PUSH2 0x34F9 PUSH2 0x34E0 PUSH2 0x34C7 PUSH2 0x34AE DUP6 PUSH2 0x8D4 PUSH2 0x34A3 DUP14 PUSH1 0x2 PUSH2 0x5000 JUMP JUMPDEST PUSH2 0x8CF DUP15 PUSH1 0x1C PUSH2 0x5000 JUMP JUMPDEST PUSH2 0x8D4 PUSH2 0x34BC DUP13 PUSH1 0x3 PUSH2 0x5000 JUMP JUMPDEST PUSH2 0x8CF DUP14 PUSH1 0x1D PUSH2 0x5000 JUMP JUMPDEST PUSH2 0x8D4 PUSH2 0x34D5 DUP12 PUSH1 0x4 PUSH2 0x5000 JUMP JUMPDEST PUSH2 0x8CF DUP13 PUSH1 0x1E PUSH2 0x5000 JUMP JUMPDEST PUSH2 0x8D4 PUSH2 0x34EE DUP11 PUSH1 0x5 PUSH2 0x5000 JUMP JUMPDEST PUSH2 0x8CF DUP12 PUSH1 0x1F PUSH2 0x5000 JUMP JUMPDEST PUSH2 0x8D4 DUP9 PUSH1 0x1 PUSH2 0x5000 JUMP JUMPDEST SWAP1 POP PUSH2 0x3523 DUP2 PUSH2 0x8D4 PUSH2 0x3518 DUP7 PUSH1 0x1 PUSH2 0x2622 JUMP JUMPDEST PUSH2 0x8CF DUP11 PUSH1 0x27 PUSH2 0x5000 JUMP JUMPDEST SWAP1 POP PUSH2 0x352F DUP2 DUP5 PUSH2 0x25EE JUMP JUMPDEST SWAP1 POP PUSH2 0x353B DUP2 DUP6 PUSH2 0x25EE JUMP JUMPDEST DUP6 MSTORE POP PUSH0 SWAP1 POP PUSH2 0x3575 PUSH2 0x356B PUSH2 0x3560 PUSH2 0x3555 DUP9 PUSH1 0x1C PUSH2 0x5000 JUMP JUMPDEST PUSH2 0x8D4 DUP10 PUSH1 0x1F PUSH2 0x5000 JUMP JUMPDEST PUSH2 0x8F2 DUP9 PUSH1 0x24 PUSH2 0x5000 JUMP JUMPDEST PUSH2 0x8D4 DUP8 PUSH0 PUSH2 0x5000 JUMP JUMPDEST SWAP1 POP PUSH2 0x3586 DUP2 PUSH2 0x8CF DUP5 PUSH1 0x2 PUSH2 0x2622 JUMP JUMPDEST SWAP1 POP PUSH2 0x3597 DUP2 PUSH2 0x8CF DUP5 PUSH1 0x1 PUSH2 0x2622 JUMP JUMPDEST SWAP1 POP PUSH2 0x35A3 DUP2 DUP4 PUSH2 0x25EE JUMP JUMPDEST SWAP1 POP PUSH2 0x35AF DUP2 DUP5 PUSH2 0x25EE JUMP JUMPDEST SWAP1 POP DUP1 DUP5 PUSH1 0x1 JUMPDEST PUSH1 0x20 MUL ADD MSTORE POP POP POP POP POP JUMP JUMPDEST PUSH0 PUSH0 PUSH0 PUSH2 0x35F8 PUSH2 0x35EE PUSH2 0x35D6 DUP10 PUSH1 0x1C PUSH2 0x5000 JUMP JUMPDEST PUSH2 0x8D4 PUSH2 0x35E4 DUP12 PUSH1 0x12 PUSH2 0x5000 JUMP JUMPDEST DUP11 PUSH1 0x60 ADD MLOAD PUSH2 0x25EE JUMP JUMPDEST DUP8 PUSH1 0x80 ADD MLOAD PUSH2 0x2609 JUMP JUMPDEST SWAP1 POP PUSH2 0x3631 DUP2 PUSH2 0x8CF PUSH2 0x3627 PUSH2 0x360F DUP12 PUSH1 0x1D PUSH2 0x5000 JUMP JUMPDEST PUSH2 0x8D4 PUSH2 0x361D DUP14 PUSH1 0x13 PUSH2 0x5000 JUMP JUMPDEST DUP13 PUSH1 0x60 ADD MLOAD PUSH2 0x25EE JUMP JUMPDEST DUP10 PUSH1 0x80 ADD MLOAD PUSH2 0x2609 JUMP JUMPDEST SWAP1 POP PUSH2 0x3656 DUP2 PUSH2 0x8CF PUSH2 0x3627 PUSH2 0x3648 DUP12 PUSH1 0x1E PUSH2 0x5000 JUMP JUMPDEST PUSH2 0x8D4 PUSH2 0x361D DUP14 PUSH1 0x14 PUSH2 0x5000 JUMP JUMPDEST SWAP1 POP PUSH2 0x367B DUP2 PUSH2 0x8CF PUSH2 0x3627 PUSH2 0x366D DUP12 PUSH1 0x1F PUSH2 0x5000 JUMP JUMPDEST PUSH2 0x8D4 PUSH2 0x361D DUP14 PUSH1 0x15 PUSH2 0x5000 JUMP JUMPDEST SWAP3 POP PUSH0 SWAP1 POP PUSH2 0x369F PUSH2 0x35EE PUSH2 0x3691 DUP10 PUSH1 0x1C PUSH2 0x5000 JUMP JUMPDEST PUSH2 0x8D4 PUSH2 0x35E4 DUP12 PUSH1 0xE PUSH2 0x5000 JUMP JUMPDEST SWAP1 POP PUSH2 0x36C4 DUP2 PUSH2 0x8CF PUSH2 0x3627 PUSH2 0x36B6 DUP12 PUSH1 0x1D PUSH2 0x5000 JUMP JUMPDEST PUSH2 0x8D4 PUSH2 0x361D DUP14 PUSH1 0xF PUSH2 0x5000 JUMP JUMPDEST SWAP1 POP PUSH2 0x36E9 DUP2 PUSH2 0x8CF PUSH2 0x3627 PUSH2 0x36DB DUP12 PUSH1 0x1E PUSH2 0x5000 JUMP JUMPDEST PUSH2 0x8D4 PUSH2 0x361D DUP14 PUSH1 0x10 PUSH2 0x5000 JUMP JUMPDEST SWAP1 POP PUSH2 0x370E DUP2 PUSH2 0x8CF PUSH2 0x3627 PUSH2 0x3700 DUP12 PUSH1 0x1F PUSH2 0x5000 JUMP JUMPDEST PUSH2 0x8D4 PUSH2 0x361D DUP14 PUSH1 0x11 PUSH2 0x5000 JUMP JUMPDEST SWAP2 POP PUSH0 SWAP1 POP PUSH2 0x3735 PUSH2 0x372F PUSH2 0x3724 DUP10 PUSH1 0x20 PUSH2 0x5000 JUMP JUMPDEST PUSH2 0x8D4 DUP11 PUSH1 0x1A PUSH2 0x5000 JUMP JUMPDEST DUP5 PUSH2 0x25EE JUMP JUMPDEST SWAP1 POP PUSH2 0x376A DUP2 PUSH2 0x8F2 PUSH2 0x3764 PUSH2 0x374C DUP12 PUSH1 0x28 PUSH2 0x5000 JUMP JUMPDEST PUSH2 0x8D4 PUSH2 0x375A DUP14 PUSH1 0x1B PUSH2 0x5000 JUMP JUMPDEST DUP13 PUSH1 0xA0 ADD MLOAD PUSH2 0x25EE JUMP JUMPDEST DUP6 PUSH2 0x25EE JUMP JUMPDEST SWAP1 POP PUSH2 0x3776 DUP2 DUP6 PUSH2 0x25EE JUMP JUMPDEST PUSH1 0x40 DUP7 ADD MSTORE POP PUSH0 PUSH2 0x3799 PUSH2 0x3764 PUSH2 0x378E DUP10 PUSH1 0x1B PUSH2 0x5000 JUMP JUMPDEST PUSH2 0x8CF DUP11 PUSH1 0x28 PUSH2 0x5000 JUMP JUMPDEST SWAP1 POP DUP1 DUP6 PUSH1 0x3 JUMPDEST PUSH1 0x20 MUL ADD MSTORE POP POP POP POP POP POP POP JUMP JUMPDEST PUSH0 PUSH0 PUSH2 0x380C PUSH2 0x37F4 PUSH2 0x37DC PUSH2 0x37C7 PUSH2 0x3627 DUP11 PUSH1 0x16 PUSH2 0x5000 JUMP JUMPDEST PUSH2 0x8D4 PUSH2 0x37D5 DUP12 PUSH1 0x17 PUSH2 0x5000 JUMP JUMPDEST DUP11 MLOAD PUSH2 0x25EE JUMP JUMPDEST PUSH2 0x8D4 PUSH2 0x37EA DUP11 PUSH1 0x18 PUSH2 0x5000 JUMP JUMPDEST DUP10 PUSH1 0x20 ADD MLOAD PUSH2 0x25EE JUMP JUMPDEST PUSH2 0x8D4 PUSH2 0x3802 DUP10 PUSH1 0x19 PUSH2 0x5000 JUMP JUMPDEST DUP9 PUSH1 0x40 ADD MLOAD PUSH2 0x25EE JUMP JUMPDEST SWAP2 POP PUSH0 PUSH2 0x3843 PUSH2 0x382A PUSH2 0x3820 DUP10 PUSH1 0x1C PUSH2 0x5000 JUMP JUMPDEST DUP9 PUSH1 0x80 ADD MLOAD PUSH2 0x2609 JUMP JUMPDEST PUSH2 0x8D4 PUSH2 0x3838 DUP11 PUSH1 0x3 PUSH2 0x5000 JUMP JUMPDEST PUSH2 0x8CF DUP12 PUSH1 0x24 PUSH2 0x5000 JUMP JUMPDEST SWAP1 POP PUSH0 PUSH2 0x386C PUSH2 0x3854 DUP10 PUSH1 0x1D PUSH2 0x5000 JUMP JUMPDEST PUSH2 0x8D4 PUSH2 0x3861 DUP12 PUSH0 PUSH2 0x5000 JUMP JUMPDEST PUSH2 0x8CF DUP13 PUSH1 0x25 PUSH2 0x5000 JUMP JUMPDEST SWAP1 POP PUSH0 PUSH2 0x3896 PUSH2 0x387D DUP11 PUSH1 0x1E PUSH2 0x5000 JUMP JUMPDEST PUSH2 0x8D4 PUSH2 0x388B DUP13 PUSH1 0x1 PUSH2 0x5000 JUMP JUMPDEST PUSH2 0x8CF DUP14 PUSH1 0x26 PUSH2 0x5000 JUMP JUMPDEST SWAP1 POP PUSH2 0x38D5 PUSH2 0x38BD PUSH2 0x38AF DUP6 PUSH2 0x8D4 DUP7 DUP14 PUSH0 ADD MLOAD PUSH2 0x25EE JUMP JUMPDEST PUSH2 0x8D4 DUP5 DUP13 PUSH1 0x20 ADD MLOAD PUSH2 0x25EE JUMP JUMPDEST PUSH2 0x8D4 PUSH2 0x38CB DUP13 PUSH1 0x4 PUSH2 0x5000 JUMP JUMPDEST DUP12 PUSH1 0x40 ADD MLOAD PUSH2 0x25EE JUMP JUMPDEST SWAP4 POP POP POP POP PUSH0 PUSH2 0x38E9 PUSH2 0x372F DUP9 PUSH1 0x21 PUSH2 0x5000 JUMP JUMPDEST SWAP1 POP PUSH0 PUSH2 0x38FA PUSH2 0x372F DUP10 PUSH1 0x21 PUSH2 0x5000 JUMP JUMPDEST SWAP1 POP PUSH0 PUSH2 0x3932 PUSH2 0x3919 PUSH2 0x390E DUP12 PUSH1 0x23 PUSH2 0x5000 JUMP JUMPDEST PUSH2 0x8D4 DUP13 PUSH1 0x6 PUSH2 0x5000 JUMP JUMPDEST PUSH2 0x8F2 PUSH2 0x3927 DUP13 PUSH1 0x23 PUSH2 0x5000 JUMP JUMPDEST PUSH2 0x8CF DUP14 PUSH1 0x6 PUSH2 0x5000 JUMP JUMPDEST SWAP1 POP PUSH0 PUSH2 0x3950 PUSH2 0x2B5B PUSH2 0x3945 DUP8 DUP10 PUSH2 0x25EE JUMP JUMPDEST PUSH2 0x8CF DUP14 PUSH1 0x21 PUSH2 0x5000 JUMP JUMPDEST SWAP1 POP PUSH2 0x395C DUP2 DUP9 PUSH2 0x25EE JUMP JUMPDEST SWAP1 POP PUSH0 PUSH2 0x3984 PUSH2 0x3976 PUSH2 0x3970 DUP14 PUSH1 0x6 PUSH2 0x5000 JUMP JUMPDEST DUP8 PUSH2 0x25EE JUMP JUMPDEST PUSH2 0x8F2 PUSH2 0x3970 DUP15 PUSH1 0x22 PUSH2 0x5000 JUMP JUMPDEST SWAP1 POP PUSH0 PUSH2 0x3992 DUP13 PUSH1 0x23 PUSH2 0x5000 JUMP JUMPDEST SWAP1 POP PUSH0 PUSH2 0x39A2 PUSH2 0x2B5B DUP4 DUP5 PUSH2 0x25EE JUMP JUMPDEST PUSH1 0x80 DUP13 ADD DUP6 SWAP1 MSTORE PUSH1 0xA0 DUP13 ADD DUP5 SWAP1 MSTORE SWAP1 POP PUSH2 0x39BC DUP2 DUP12 PUSH2 0x25EE JUMP JUMPDEST DUP12 PUSH1 0x6 PUSH1 0x20 MUL ADD MSTORE POP POP POP POP POP POP POP POP POP POP POP POP POP JUMP JUMPDEST PUSH0 PUSH2 0x39DF PUSH0 PUSH1 0x1 PUSH2 0x2622 JUMP JUMPDEST SWAP1 POP PUSH0 PUSH2 0x39ED PUSH0 PUSH1 0x2 PUSH2 0x2622 JUMP JUMPDEST SWAP1 POP PUSH0 PUSH2 0x39FB PUSH0 PUSH1 0x3 PUSH2 0x2622 JUMP JUMPDEST SWAP1 POP PUSH0 PUSH2 0x3A17 PUSH2 0x3A0C DUP9 PUSH1 0x1D PUSH2 0x5000 JUMP JUMPDEST PUSH2 0x8F2 DUP10 PUSH1 0x1C PUSH2 0x5000 JUMP JUMPDEST SWAP1 POP PUSH0 PUSH2 0x3A33 PUSH2 0x3A28 DUP10 PUSH1 0x1E PUSH2 0x5000 JUMP JUMPDEST PUSH2 0x8F2 DUP11 PUSH1 0x1D PUSH2 0x5000 JUMP JUMPDEST SWAP1 POP PUSH0 PUSH2 0x3A4F PUSH2 0x3A44 DUP11 PUSH1 0x1F PUSH2 0x5000 JUMP JUMPDEST PUSH2 0x8F2 DUP12 PUSH1 0x1E PUSH2 0x5000 JUMP JUMPDEST SWAP1 POP PUSH0 PUSH2 0x3A6B PUSH2 0x3A60 DUP12 PUSH1 0x24 PUSH2 0x5000 JUMP JUMPDEST PUSH2 0x8F2 DUP13 PUSH1 0x1F PUSH2 0x5000 JUMP JUMPDEST SWAP1 POP DUP4 PUSH2 0x3A7C DUP2 PUSH2 0x8CF DUP2 DUP12 PUSH2 0x2609 JUMP JUMPDEST SWAP1 POP PUSH2 0x3A8C DUP2 PUSH2 0x8CF DUP8 DUP11 PUSH2 0x2609 JUMP JUMPDEST SWAP1 POP PUSH2 0x3A9C DUP2 PUSH2 0x8CF DUP8 DUP10 PUSH2 0x2609 JUMP JUMPDEST SWAP1 POP PUSH2 0x3AAD DUP2 PUSH2 0x8CF DUP14 PUSH1 0x8 PUSH2 0x5000 JUMP JUMPDEST SWAP1 POP PUSH2 0x3AB9 DUP2 DUP11 PUSH2 0x25EE JUMP JUMPDEST PUSH1 0xE0 DUP12 ADD MSTORE POP DUP3 PUSH2 0x3ACE DUP2 PUSH2 0x8CF DUP2 DUP12 PUSH2 0x2609 JUMP JUMPDEST SWAP1 POP PUSH2 0x3ADE DUP2 PUSH2 0x8CF DUP7 DUP11 PUSH2 0x2609 JUMP JUMPDEST SWAP1 POP PUSH2 0x3AEE DUP2 PUSH2 0x8CF DUP7 DUP10 PUSH2 0x2609 JUMP JUMPDEST SWAP1 POP PUSH2 0x3AFF DUP2 PUSH2 0x8CF DUP14 PUSH1 0x8 PUSH2 0x5000 JUMP JUMPDEST SWAP1 POP PUSH2 0x3B0B DUP2 DUP11 PUSH2 0x25EE JUMP JUMPDEST PUSH2 0x100 DUP12 ADD MSTORE POP DUP2 PUSH2 0x3B21 DUP2 PUSH2 0x8CF DUP2 DUP12 PUSH2 0x2609 JUMP JUMPDEST SWAP1 POP PUSH2 0x3B31 DUP2 PUSH2 0x8CF DUP6 DUP11 PUSH2 0x2609 JUMP JUMPDEST SWAP1 POP PUSH2 0x3B41 DUP2 PUSH2 0x8CF DUP6 DUP10 PUSH2 0x2609 JUMP JUMPDEST SWAP1 POP PUSH2 0x3B52 DUP2 PUSH2 0x8CF DUP14 PUSH1 0x8 PUSH2 0x5000 JUMP JUMPDEST SWAP1 POP PUSH2 0x3B5E DUP2 DUP11 PUSH2 0x25EE JUMP JUMPDEST PUSH2 0x120 DUP12 ADD MSTORE POP DUP1 PUSH2 0x3B74 DUP2 PUSH2 0x8CF DUP2 DUP12 PUSH2 0x2609 JUMP JUMPDEST SWAP1 POP PUSH2 0x3B84 DUP2 PUSH2 0x8CF DUP5 DUP11 PUSH2 0x2609 JUMP JUMPDEST SWAP1 POP PUSH2 0x3B94 DUP2 PUSH2 0x8CF DUP5 DUP10 PUSH2 0x2609 JUMP JUMPDEST SWAP1 POP PUSH2 0x3BA5 DUP2 PUSH2 0x8CF DUP14 PUSH1 0x8 PUSH2 0x5000 JUMP JUMPDEST SWAP1 POP PUSH2 0x3BB1 DUP2 DUP11 PUSH2 0x25EE JUMP JUMPDEST PUSH2 0x140 SWAP1 SWAP11 ADD SWAP10 SWAP1 SWAP10 MSTORE POP POP POP POP POP POP POP POP POP POP JUMP JUMPDEST PUSH2 0x3C00 PUSH1 0x40 MLOAD DUP1 PUSH1 0xE0 ADD PUSH1 0x40 MSTORE DUP1 PUSH0 DUP2 MSTORE PUSH1 0x20 ADD PUSH0 DUP2 MSTORE PUSH1 0x20 ADD PUSH0 DUP2 MSTORE PUSH1 0x20 ADD PUSH0 DUP2 MSTORE PUSH1 0x20 ADD PUSH0 DUP2 MSTORE PUSH1 0x20 ADD PUSH0 DUP2 MSTORE PUSH1 0x20 ADD PUSH0 DUP2 MSTORE POP SWAP1 JUMP JUMPDEST PUSH2 0x3C0B DUP5 PUSH1 0x1D PUSH2 0x5000 JUMP JUMPDEST DUP2 MSTORE PUSH2 0x3C18 DUP5 PUSH1 0x1E PUSH2 0x5000 JUMP JUMPDEST PUSH1 0x20 DUP3 ADD MSTORE PUSH2 0x3C28 DUP5 PUSH1 0x24 PUSH2 0x5000 JUMP JUMPDEST PUSH1 0x40 DUP3 ADD MSTORE PUSH2 0x3C38 DUP5 PUSH1 0x27 PUSH2 0x5000 JUMP JUMPDEST PUSH1 0x60 DUP3 ADD MSTORE PUSH2 0x3C48 DUP5 PUSH1 0x26 PUSH2 0x5000 JUMP JUMPDEST PUSH1 0x80 DUP3 ADD MSTORE PUSH2 0x3C58 DUP5 PUSH1 0x25 PUSH2 0x5000 JUMP JUMPDEST PUSH1 0xA0 DUP3 ADD MSTORE PUSH0 PUSH2 0x3C69 DUP6 PUSH1 0x2 PUSH2 0x5000 JUMP JUMPDEST SWAP1 POP PUSH0 PUSH2 0x3C76 DUP7 PUSH0 PUSH2 0x5000 JUMP JUMPDEST SWAP1 POP PUSH0 PUSH2 0x3C8A DUP5 PUSH1 0x40 ADD MLOAD DUP6 PUSH0 ADD MLOAD PUSH2 0x2622 JUMP JUMPDEST SWAP1 POP PUSH0 PUSH2 0x3C9F DUP6 PUSH1 0x20 ADD MLOAD DUP7 PUSH1 0x20 ADD MLOAD PUSH2 0x25EE JUMP JUMPDEST PUSH1 0x60 DUP7 ADD MLOAD SWAP1 SWAP2 POP DUP7 SWAP1 PUSH0 SWAP1 PUSH2 0x3CB5 SWAP1 DUP1 PUSH2 0x25EE JUMP JUMPDEST SWAP1 POP PUSH0 PUSH2 0x3CD3 PUSH2 0x3CCD DUP10 PUSH1 0x20 ADD MLOAD DUP11 PUSH1 0x60 ADD MLOAD PUSH2 0x25EE JUMP JUMPDEST DUP9 PUSH2 0x25EE JUMP JUMPDEST SWAP1 POP PUSH0 PUSH2 0x3CF2 PUSH2 0x3CEB DUP11 PUSH1 0xA0 ADD MLOAD DUP12 PUSH1 0x40 ADD MLOAD PUSH2 0x2609 JUMP JUMPDEST DUP11 MLOAD PUSH2 0x2609 JUMP JUMPDEST SWAP1 POP PUSH2 0x3D01 PUSH2 0x3970 DUP3 DUP9 PUSH2 0x25EE JUMP JUMPDEST SWAP1 POP PUSH2 0x3D28 PUSH2 0x3D22 PUSH2 0x3D1C PUSH2 0x3D16 DUP5 DUP8 PUSH2 0x2622 JUMP JUMPDEST DUP9 PUSH2 0x2622 JUMP JUMPDEST DUP5 PUSH2 0x2609 JUMP JUMPDEST DUP4 PUSH2 0x2609 JUMP JUMPDEST SWAP1 POP PUSH2 0x3D50 PUSH2 0x3D45 PUSH2 0x3D3A DUP4 DUP8 PUSH2 0x25EE JUMP JUMPDEST PUSH2 0x8CF DUP16 PUSH1 0x9 PUSH2 0x5000 JUMP JUMPDEST PUSH2 0x8CF PUSH1 0x1 DUP11 PUSH2 0x2622 JUMP JUMPDEST PUSH2 0x160 DUP13 ADD MSTORE POP POP POP POP PUSH1 0x20 DUP6 ADD MLOAD PUSH1 0x80 DUP7 ADD MLOAD PUSH0 SWAP2 PUSH2 0x3D6F SWAP2 PUSH2 0x2609 JUMP JUMPDEST SWAP1 POP PUSH0 PUSH2 0x3D8D PUSH2 0x3D83 DUP9 PUSH1 0x60 ADD MLOAD DUP9 PUSH2 0x25EE JUMP JUMPDEST DUP9 PUSH1 0x20 ADD MLOAD PUSH2 0x2622 JUMP JUMPDEST SWAP1 POP PUSH0 PUSH2 0x3DB1 PUSH2 0x3D9D DUP5 DUP8 PUSH2 0x25EE JUMP JUMPDEST PUSH2 0x8D4 PUSH2 0x3764 DUP12 PUSH1 0xA0 ADD MLOAD DUP13 PUSH0 ADD MLOAD PUSH2 0x2622 JUMP JUMPDEST SWAP1 POP PUSH2 0x3DD9 PUSH2 0x3DCE PUSH2 0x3DC3 DUP4 DUP13 PUSH2 0x25EE JUMP JUMPDEST PUSH2 0x8CF DUP15 PUSH1 0x9 PUSH2 0x5000 JUMP JUMPDEST PUSH2 0x8CF PUSH1 0x1 DUP10 PUSH2 0x2622 JUMP JUMPDEST PUSH2 0x180 DUP12 ADD MSTORE POP PUSH0 SWAP2 POP PUSH2 0x3DFA SWAP1 POP PUSH2 0x3DF3 DUP4 PUSH1 0x11 PUSH2 0x2609 JUMP JUMPDEST DUP8 MLOAD PUSH2 0x25EE JUMP JUMPDEST SWAP1 POP PUSH0 PUSH2 0x3E07 DUP4 DUP5 PUSH2 0x2609 JUMP JUMPDEST SWAP1 POP PUSH2 0x3E13 DUP2 DUP3 PUSH2 0x2609 JUMP JUMPDEST SWAP1 POP PUSH0 PUSH2 0x3E21 DUP4 PUSH1 0x9 PUSH2 0x25EE JUMP JUMPDEST SWAP1 POP PUSH2 0x3E4A PUSH2 0x3E44 PUSH2 0x372F PUSH2 0x3E3D DUP12 PUSH1 0xA0 ADD MLOAD DUP13 PUSH0 ADD MLOAD PUSH2 0x2609 JUMP JUMPDEST DUP12 MLOAD PUSH2 0x2609 JUMP JUMPDEST DUP3 PUSH2 0x2622 JUMP JUMPDEST PUSH1 0xC0 DUP10 ADD DUP2 SWAP1 MSTORE PUSH0 SWAP1 PUSH2 0x3E65 SWAP1 PUSH2 0x3CCD SWAP1 PUSH2 0x3D3A SWAP1 DUP14 PUSH2 0x25EE JUMP JUMPDEST SWAP1 POP PUSH2 0x3E78 DUP12 PUSH1 0xB PUSH1 0x20 MUL ADD MLOAD DUP3 PUSH2 0x2609 JUMP JUMPDEST PUSH2 0x160 DUP13 ADD MSTORE POP POP DUP7 MLOAD PUSH0 SWAP3 POP PUSH2 0x3E9F SWAP2 POP PUSH2 0x3DF3 SWAP1 PUSH2 0x3E98 SWAP1 DUP1 PUSH2 0x2609 JUMP JUMPDEST DUP9 MLOAD PUSH2 0x2609 JUMP JUMPDEST SWAP1 POP PUSH0 PUSH2 0x3EDF PUSH2 0x3EBA DUP4 PUSH2 0x8CF DUP11 PUSH0 ADD MLOAD DUP12 PUSH1 0xA0 ADD MLOAD PUSH2 0x2622 JUMP JUMPDEST PUSH1 0x20 DUP10 ADD MLOAD PUSH2 0x8F2 SWAP1 PUSH2 0x3ECD SWAP1 DUP1 PUSH2 0x2609 JUMP JUMPDEST PUSH2 0x8CF DUP12 PUSH1 0x20 ADD MLOAD DUP13 PUSH1 0x80 ADD MLOAD PUSH2 0x2609 JUMP JUMPDEST SWAP1 POP PUSH2 0x3EFC DUP10 PUSH1 0xC PUSH1 0x20 MUL ADD MLOAD PUSH2 0x8D4 PUSH2 0x3CCD PUSH2 0x3D3A DUP6 DUP14 PUSH2 0x25EE JUMP JUMPDEST DUP10 PUSH1 0xC PUSH1 0x20 MUL ADD MSTORE POP POP POP POP POP POP POP POP POP POP JUMP JUMPDEST PUSH2 0x3F7A PUSH1 0x40 MLOAD DUP1 PUSH2 0x1E0 ADD PUSH1 0x40 MSTORE DUP1 PUSH0 DUP2 MSTORE PUSH1 0x20 ADD PUSH0 DUP2 MSTORE PUSH1 0x20 ADD PUSH0 DUP2 MSTORE PUSH1 0x20 ADD PUSH0 DUP2 MSTORE PUSH1 0x20 ADD PUSH0 DUP2 MSTORE PUSH1 0x20 ADD PUSH0 DUP2 MSTORE PUSH1 0x20 ADD PUSH0 DUP2 MSTORE PUSH1 0x20 ADD PUSH0 DUP2 MSTORE PUSH1 0x20 ADD PUSH0 DUP2 MSTORE PUSH1 0x20 ADD PUSH0 DUP2 MSTORE PUSH1 0x20 ADD PUSH0 DUP2 MSTORE PUSH1 0x20 ADD PUSH0 DUP2 MSTORE PUSH1 0x20 ADD PUSH0 DUP2 MSTORE PUSH1 0x20 ADD PUSH0 DUP2 MSTORE PUSH1 0x20 ADD PUSH0 DUP2 MSTORE POP SWAP1 JUMP JUMPDEST PUSH2 0x3F92 PUSH2 0x3F88 DUP7 PUSH1 0x1E PUSH2 0x5000 JUMP JUMPDEST DUP6 PUSH1 0x40 ADD MLOAD PUSH2 0x25EE JUMP JUMPDEST DUP1 DUP3 MSTORE PUSH2 0x3FB1 SWAP1 PUSH2 0x8D4 PUSH2 0x3FA7 DUP9 PUSH1 0x1D PUSH2 0x5000 JUMP JUMPDEST DUP8 PUSH1 0x20 ADD MLOAD PUSH2 0x25EE JUMP JUMPDEST DUP1 DUP3 MSTORE PUSH2 0x3FC6 SWAP1 PUSH2 0x8D4 PUSH2 0x3DF3 DUP9 PUSH1 0x1C PUSH2 0x5000 JUMP JUMPDEST DUP1 DUP3 MSTORE PUSH2 0x3FD8 SWAP1 PUSH2 0x8D4 DUP8 PUSH1 0x1 PUSH2 0x5000 JUMP JUMPDEST DUP1 DUP3 MSTORE PUSH1 0x20 DUP3 ADD DUP2 SWAP1 MSTORE PUSH2 0x3FF1 SWAP1 PUSH2 0x8F2 DUP8 PUSH1 0x1F PUSH2 0x5000 JUMP JUMPDEST DUP2 MSTORE PUSH2 0x400C PUSH2 0x4001 DUP7 PUSH1 0x24 PUSH2 0x5000 JUMP JUMPDEST PUSH2 0x8F2 DUP8 PUSH1 0x1C PUSH2 0x5000 JUMP JUMPDEST PUSH1 0x80 DUP3 ADD MSTORE PUSH2 0x402A PUSH2 0x401F DUP7 PUSH1 0x27 PUSH2 0x5000 JUMP JUMPDEST PUSH2 0x8F2 DUP8 PUSH1 0x1F PUSH2 0x5000 JUMP JUMPDEST PUSH1 0x60 DUP3 ADD MSTORE PUSH1 0x80 DUP2 ADD MLOAD PUSH2 0x4043 SWAP1 PUSH2 0x8CF DUP2 PUSH1 0x1 PUSH2 0x2622 JUMP JUMPDEST PUSH2 0x1C0 DUP3 ADD MSTORE PUSH1 0x80 DUP2 ADD MLOAD PUSH2 0x4083 SWAP1 PUSH2 0x4079 SWAP1 PUSH2 0x4072 SWAP1 PUSH2 0x8CF PUSH1 0x1 PUSH0 MLOAD PUSH1 0x20 PUSH2 0x5C8E PUSH0 CODECOPY PUSH0 MLOAD SWAP1 PUSH0 MSTORE PUSH2 0x55D3 JUMP JUMPDEST PUSH1 0x1 PUSH2 0x2609 JUMP JUMPDEST DUP3 PUSH1 0x60 ADD MLOAD PUSH2 0x25EE JUMP JUMPDEST PUSH1 0xA0 DUP3 ADD DUP2 SWAP1 MSTORE PUSH2 0x40B9 SWAP1 PUSH2 0x40AB SWAP1 PUSH2 0x8CF PUSH2 0x40A0 DUP10 PUSH1 0x2 PUSH2 0x5000 JUMP JUMPDEST PUSH2 0x8CF DUP11 PUSH1 0x3 PUSH2 0x5000 JUMP JUMPDEST PUSH2 0x8CF PUSH2 0x3764 DUP9 PUSH1 0xA PUSH2 0x5000 JUMP JUMPDEST DUP4 PUSH1 0xE PUSH1 0x20 MUL ADD MSTORE PUSH2 0x1C0 DUP2 ADD MLOAD PUSH2 0x40DD SWAP1 PUSH2 0x40AB SWAP1 PUSH2 0x8CF PUSH2 0x40A0 DUP10 PUSH1 0x2 PUSH2 0x5000 JUMP JUMPDEST PUSH2 0x1E0 DUP5 ADD MSTORE DUP1 MLOAD PUSH2 0x4102 SWAP1 PUSH2 0x8CF PUSH2 0x40F7 DUP9 PUSH1 0x2 PUSH2 0x5000 JUMP JUMPDEST PUSH2 0x8CF DUP10 PUSH1 0x3 PUSH2 0x5000 JUMP JUMPDEST PUSH2 0x120 DUP3 ADD MSTORE PUSH0 PUSH2 0x4121 PUSH2 0x4117 DUP8 PUSH1 0x1F PUSH2 0x5000 JUMP JUMPDEST DUP4 PUSH1 0x20 ADD MLOAD PUSH2 0x2622 JUMP JUMPDEST SWAP1 POP PUSH2 0x4132 DUP2 PUSH2 0x8CF DUP4 PUSH1 0x1 PUSH2 0x2622 JUMP JUMPDEST PUSH1 0xE0 DUP4 ADD MSTORE PUSH2 0x414F PUSH2 0x4145 DUP8 PUSH1 0x26 PUSH2 0x5000 JUMP JUMPDEST DUP7 PUSH1 0x40 ADD MLOAD PUSH2 0x25EE JUMP JUMPDEST PUSH1 0x40 DUP4 ADD DUP2 SWAP1 MSTORE PUSH2 0x4172 SWAP1 PUSH2 0x8D4 PUSH2 0x4168 DUP10 PUSH1 0x25 PUSH2 0x5000 JUMP JUMPDEST DUP9 PUSH1 0x20 ADD MLOAD PUSH2 0x25EE JUMP JUMPDEST PUSH1 0x40 DUP4 ADD DUP2 SWAP1 MSTORE PUSH2 0x4192 SWAP1 PUSH2 0x8D4 PUSH2 0x418B DUP10 PUSH1 0x24 PUSH2 0x5000 JUMP JUMPDEST DUP9 MLOAD PUSH2 0x25EE JUMP JUMPDEST PUSH1 0x40 DUP4 ADD MSTORE PUSH2 0x41AF PUSH2 0x41A5 DUP8 PUSH1 0x27 PUSH2 0x5000 JUMP JUMPDEST DUP4 PUSH1 0x40 ADD MLOAD PUSH2 0x2622 JUMP JUMPDEST PUSH1 0x40 DUP4 ADD MSTORE PUSH0 PUSH2 0x41CE PUSH2 0x41C3 DUP9 PUSH1 0x26 PUSH2 0x5000 JUMP JUMPDEST PUSH2 0x8F2 DUP10 PUSH1 0x1E PUSH2 0x5000 JUMP JUMPDEST SWAP1 POP PUSH2 0x4220 PUSH2 0x41FB PUSH2 0x347D PUSH2 0x4072 DUP7 PUSH1 0x80 ADD MLOAD PUSH1 0x1 PUSH0 MLOAD PUSH1 0x20 PUSH2 0x5C8E PUSH0 CODECOPY PUSH0 MLOAD SWAP1 PUSH0 MSTORE PUSH2 0x8CF SWAP2 SWAP1 PUSH2 0x55D3 JUMP JUMPDEST PUSH2 0x8CF PUSH2 0x4072 DUP7 PUSH1 0x40 ADD MLOAD PUSH1 0x1 PUSH0 MLOAD PUSH1 0x20 PUSH2 0x5C8E PUSH0 CODECOPY PUSH0 MLOAD SWAP1 PUSH0 MSTORE PUSH2 0x8CF SWAP2 SWAP1 PUSH2 0x55D3 JUMP JUMPDEST PUSH1 0xC0 DUP5 ADD MSTORE PUSH1 0x40 DUP4 ADD MLOAD PUSH2 0x4242 SWAP1 PUSH2 0x4238 SWAP1 DUP1 PUSH2 0x25EE JUMP JUMPDEST DUP5 PUSH1 0x40 ADD MLOAD PUSH2 0x2622 JUMP JUMPDEST PUSH2 0x100 DUP5 ADD MSTORE PUSH1 0xC0 DUP4 ADD MLOAD PUSH2 0x426E SWAP1 PUSH2 0x4260 SWAP1 PUSH2 0x8CF DUP11 PUSH1 0x4 PUSH2 0x5000 JUMP JUMPDEST PUSH2 0x8CF PUSH2 0x3970 DUP11 PUSH1 0xA PUSH2 0x5000 JUMP JUMPDEST PUSH2 0x200 DUP7 ADD MSTORE PUSH2 0x1C0 DUP4 ADD MLOAD PUSH2 0x428D SWAP1 PUSH2 0x4260 SWAP1 PUSH2 0x8CF DUP11 PUSH1 0x4 PUSH2 0x5000 JUMP JUMPDEST PUSH2 0x220 DUP7 ADD MSTORE PUSH2 0x100 DUP4 ADD MLOAD PUSH2 0x42AC SWAP1 PUSH2 0x4260 SWAP1 PUSH2 0x8CF DUP11 PUSH1 0x4 PUSH2 0x5000 JUMP JUMPDEST PUSH2 0x240 DUP7 ADD MSTORE PUSH1 0xE0 DUP4 ADD MLOAD PUSH2 0x42C6 SWAP1 PUSH2 0x8CF DUP10 PUSH1 0x4 PUSH2 0x5000 JUMP JUMPDEST PUSH2 0x140 DUP5 ADD MSTORE PUSH2 0x42E5 PUSH2 0x42DA DUP9 PUSH1 0x25 PUSH2 0x5000 JUMP JUMPDEST PUSH2 0x8F2 DUP10 PUSH1 0x1D PUSH2 0x5000 JUMP JUMPDEST PUSH2 0x160 DUP5 ADD MSTORE PUSH1 0x80 DUP4 ADD MLOAD PUSH2 0x4323 SWAP1 PUSH2 0x41C3 SWAP1 PUSH2 0x4318 SWAP1 PUSH2 0x4072 SWAP1 PUSH2 0x8CF PUSH1 0x1 PUSH0 MLOAD PUSH1 0x20 PUSH2 0x5C8E PUSH0 CODECOPY PUSH0 MLOAD SWAP1 PUSH0 MSTORE PUSH2 0x55D3 JUMP JUMPDEST DUP6 PUSH2 0x160 ADD MLOAD PUSH2 0x25EE JUMP JUMPDEST PUSH2 0x180 DUP5 ADD DUP2 SWAP1 MSTORE PUSH2 0x120 DUP5 ADD MLOAD PUSH2 0x1A0 DUP6 ADD DUP2 SWAP1 MSTORE PUSH2 0x435A SWAP2 PUSH2 0x8D4 SWAP1 PUSH2 0x8CF PUSH2 0x434F DUP13 PUSH1 0x5 PUSH2 0x5000 JUMP JUMPDEST PUSH2 0x8CF DUP14 PUSH1 0x2 PUSH2 0x5000 JUMP JUMPDEST PUSH2 0x1A0 DUP5 ADD DUP2 SWAP1 MSTORE DUP4 MLOAD PUSH2 0x437A SWAP2 SWAP1 PUSH2 0x8D4 SWAP1 PUSH2 0x8CF PUSH2 0x434F DUP13 PUSH0 PUSH2 0x5000 JUMP JUMPDEST PUSH2 0x1A0 DUP5 ADD DUP2 SWAP1 MSTORE PUSH2 0x140 DUP5 ADD MLOAD PUSH2 0x4392 SWAP2 SWAP1 PUSH2 0x2609 JUMP JUMPDEST PUSH2 0x1A0 DUP5 ADD DUP2 SWAP1 MSTORE PUSH2 0x43AC SWAP1 PUSH2 0x8CF PUSH2 0x3970 DUP11 PUSH1 0xA PUSH2 0x5000 JUMP JUMPDEST PUSH2 0x1A0 DUP5 ADD DUP2 SWAP1 MSTORE DUP6 PUSH1 0xD PUSH2 0x37A0 JUMP JUMPDEST PUSH2 0x43F5 PUSH1 0x40 MLOAD DUP1 PUSH1 0xE0 ADD PUSH1 0x40 MSTORE DUP1 PUSH0 DUP2 MSTORE PUSH1 0x20 ADD PUSH0 DUP2 MSTORE PUSH1 0x20 ADD PUSH0 DUP2 MSTORE PUSH1 0x20 ADD PUSH0 DUP2 MSTORE PUSH1 0x20 ADD PUSH0 DUP2 MSTORE PUSH1 0x20 ADD PUSH0 DUP2 MSTORE PUSH1 0x20 ADD PUSH0 DUP2 MSTORE POP SWAP1 JUMP JUMPDEST PUSH2 0x442A PUSH2 0x4411 PUSH2 0x4406 DUP7 PUSH1 0x1C PUSH2 0x5000 JUMP JUMPDEST PUSH2 0x8CF DUP8 PUSH1 0x25 PUSH2 0x5000 JUMP JUMPDEST PUSH2 0x8D4 PUSH2 0x441F DUP8 PUSH1 0x24 PUSH2 0x5000 JUMP JUMPDEST PUSH2 0x8CF DUP9 PUSH1 0x1D PUSH2 0x5000 JUMP JUMPDEST DUP2 MSTORE PUSH2 0x446F PUSH2 0x4464 PUSH2 0x444B PUSH2 0x4440 DUP8 PUSH1 0x1C PUSH2 0x5000 JUMP JUMPDEST PUSH2 0x8CF DUP9 PUSH1 0x1F PUSH2 0x5000 JUMP JUMPDEST PUSH2 0x8D4 PUSH2 0x4459 DUP9 PUSH1 0x1D PUSH2 0x5000 JUMP JUMPDEST PUSH2 0x8CF DUP10 PUSH1 0x1E PUSH2 0x5000 JUMP JUMPDEST PUSH2 0x8F2 DUP7 PUSH1 0x26 PUSH2 0x5000 JUMP JUMPDEST PUSH1 0x40 DUP3 ADD DUP2 SWAP1 MSTORE PUSH2 0x4484 SWAP1 PUSH1 0x1 PUSH1 0x44 SHL PUSH2 0x25EE JUMP JUMPDEST PUSH1 0x40 DUP3 ADD DUP2 SWAP1 MSTORE PUSH2 0x449A SWAP1 PUSH2 0x8F2 DUP7 PUSH1 0x27 PUSH2 0x5000 JUMP JUMPDEST PUSH1 0x40 DUP3 ADD DUP2 SWAP1 MSTORE DUP2 MLOAD PUSH2 0x44AD SWAP2 SWAP1 PUSH2 0x2609 JUMP JUMPDEST PUSH1 0x40 DUP3 ADD DUP2 SWAP1 MSTORE PUSH2 0x44C3 SWAP1 PUSH2 0x8CF DUP7 PUSH1 0x5 PUSH2 0x5000 JUMP JUMPDEST PUSH1 0x40 DUP3 ADD MSTORE DUP1 MLOAD PUSH2 0x44D8 SWAP1 PUSH1 0x1 PUSH1 0x44 SHL PUSH2 0x25EE JUMP JUMPDEST DUP1 DUP3 MSTORE PUSH2 0x44F8 SWAP1 PUSH2 0x8D4 PUSH2 0x44ED DUP8 PUSH1 0x24 PUSH2 0x5000 JUMP JUMPDEST PUSH2 0x8CF DUP9 PUSH1 0x25 PUSH2 0x5000 JUMP JUMPDEST DUP1 DUP3 MSTORE PUSH1 0x20 DUP3 ADD DUP2 SWAP1 MSTORE PUSH2 0x451F SWAP1 PUSH2 0x8F2 PUSH2 0x4514 DUP8 PUSH1 0x1E PUSH2 0x5000 JUMP JUMPDEST PUSH2 0x8D4 DUP9 PUSH1 0x1F PUSH2 0x5000 JUMP JUMPDEST PUSH1 0x20 DUP3 ADD DUP2 SWAP1 MSTORE PUSH2 0x4535 SWAP1 PUSH2 0x8CF DUP7 PUSH1 0x4 PUSH2 0x5000 JUMP JUMPDEST PUSH1 0x20 DUP3 ADD MSTORE DUP1 MLOAD PUSH1 0x60 DUP3 ADD DUP2 SWAP1 MSTORE PUSH2 0x4552 SWAP1 PUSH2 0x8D4 DUP7 PUSH1 0x1F PUSH2 0x5000 JUMP JUMPDEST PUSH1 0x60 DUP3 ADD DUP2 SWAP1 MSTORE PUSH2 0x4576 SWAP1 PUSH2 0x8F2 PUSH2 0x456B DUP8 PUSH1 0x26 PUSH2 0x5000 JUMP JUMPDEST PUSH2 0x8D4 DUP9 PUSH1 0x27 PUSH2 0x5000 JUMP JUMPDEST PUSH1 0x60 DUP3 ADD DUP2 SWAP1 MSTORE PUSH2 0x458B SWAP1 PUSH2 0x8CF DUP7 PUSH0 PUSH2 0x5000 JUMP JUMPDEST DUP2 PUSH1 0x60 ADD DUP2 DUP2 MSTORE POP POP PUSH0 PUSH2 0x45B4 PUSH2 0x45AA DUP4 PUSH1 0x20 ADD MLOAD DUP5 PUSH1 0x40 ADD MLOAD PUSH2 0x2609 JUMP JUMPDEST DUP4 PUSH1 0x60 ADD MLOAD PUSH2 0x2609 JUMP JUMPDEST SWAP1 POP PUSH2 0x45C5 DUP2 PUSH2 0x8CF DUP8 PUSH1 0x3 PUSH2 0x5000 JUMP JUMPDEST SWAP1 POP PUSH2 0x45DD PUSH2 0x45D5 DUP7 PUSH1 0x25 PUSH2 0x5000 JUMP JUMPDEST PUSH2 0x4000 PUSH2 0x25EE JUMP JUMPDEST PUSH1 0x80 DUP4 ADD DUP2 SWAP1 MSTORE PUSH2 0x45F3 SWAP1 PUSH2 0x8D4 DUP8 PUSH1 0x24 PUSH2 0x5000 JUMP JUMPDEST PUSH1 0x80 DUP4 ADD DUP2 SWAP1 MSTORE PUSH2 0x4606 SWAP1 PUSH2 0x4000 PUSH2 0x25EE JUMP JUMPDEST PUSH1 0x80 DUP4 ADD DUP2 SWAP1 MSTORE PUSH2 0x461C SWAP1 PUSH2 0x8D4 DUP8 PUSH1 0x1E PUSH2 0x5000 JUMP JUMPDEST PUSH1 0x80 DUP4 ADD DUP2 SWAP1 MSTORE PUSH2 0x462F SWAP1 PUSH2 0x4000 PUSH2 0x25EE JUMP JUMPDEST PUSH1 0x80 DUP4 ADD DUP2 SWAP1 MSTORE PUSH2 0x4645 SWAP1 PUSH2 0x8D4 DUP8 PUSH1 0x1D PUSH2 0x5000 JUMP JUMPDEST PUSH1 0x80 DUP4 ADD DUP2 SWAP1 MSTORE PUSH2 0x4658 SWAP1 PUSH2 0x4000 PUSH2 0x25EE JUMP JUMPDEST PUSH1 0x80 DUP4 ADD DUP2 SWAP1 MSTORE PUSH2 0x466E SWAP1 PUSH2 0x8D4 DUP8 PUSH1 0x1C PUSH2 0x5000 JUMP JUMPDEST PUSH1 0x80 DUP4 ADD DUP2 SWAP1 MSTORE PUSH2 0x4684 SWAP1 PUSH2 0x8F2 DUP8 PUSH1 0x1F PUSH2 0x5000 JUMP JUMPDEST PUSH1 0x80 DUP4 ADD DUP2 SWAP1 MSTORE PUSH2 0x469A SWAP1 PUSH2 0x8CF DUP8 PUSH1 0x5 PUSH2 0x5000 JUMP JUMPDEST PUSH1 0x80 DUP4 ADD MSTORE PUSH2 0x46AD PUSH2 0x45D5 DUP7 PUSH1 0x26 PUSH2 0x5000 JUMP JUMPDEST PUSH1 0xA0 DUP4 ADD DUP2 SWAP1 MSTORE PUSH2 0x46C3 SWAP1 PUSH2 0x8D4 DUP8 PUSH1 0x25 PUSH2 0x5000 JUMP JUMPDEST PUSH1 0xA0 DUP4 ADD DUP2 SWAP1 MSTORE PUSH2 0x46D6 SWAP1 PUSH2 0x4000 PUSH2 0x25EE JUMP JUMPDEST PUSH1 0xA0 DUP4 ADD DUP2 SWAP1 MSTORE PUSH2 0x46EC SWAP1 PUSH2 0x8D4 DUP8 PUSH1 0x24 PUSH2 0x5000 JUMP JUMPDEST PUSH1 0xA0 DUP4 ADD DUP2 SWAP1 MSTORE PUSH2 0x46FF SWAP1 PUSH2 0x4000 PUSH2 0x25EE JUMP JUMPDEST PUSH1 0xA0 DUP4 ADD DUP2 SWAP1 MSTORE PUSH2 0x4715 SWAP1 PUSH2 0x8D4 DUP8 PUSH1 0x1F PUSH2 0x5000 JUMP JUMPDEST PUSH1 0xA0 DUP4 ADD DUP2 SWAP1 MSTORE PUSH2 0x4728 SWAP1 PUSH2 0x4000 PUSH2 0x25EE JUMP JUMPDEST PUSH1 0xA0 DUP4 ADD DUP2 SWAP1 MSTORE PUSH2 0x473E SWAP1 PUSH2 0x8D4 DUP8 PUSH1 0x1E PUSH2 0x5000 JUMP JUMPDEST PUSH1 0xA0 DUP4 ADD DUP2 SWAP1 MSTORE PUSH2 0x4754 SWAP1 PUSH2 0x8F2 DUP8 PUSH1 0x27 PUSH2 0x5000 JUMP JUMPDEST PUSH1 0xA0 DUP4 ADD DUP2 SWAP1 MSTORE PUSH2 0x4769 SWAP1 PUSH2 0x8CF DUP8 PUSH0 PUSH2 0x5000 JUMP JUMPDEST PUSH1 0xA0 DUP4 ADD DUP2 SWAP1 MSTORE PUSH1 0x80 DUP4 ADD MLOAD PUSH0 SWAP2 PUSH2 0x4781 SWAP2 SWAP1 PUSH2 0x2609 JUMP JUMPDEST SWAP1 POP PUSH2 0x4792 DUP2 PUSH2 0x8CF DUP9 PUSH1 0x4 PUSH2 0x5000 JUMP JUMPDEST SWAP1 POP PUSH2 0x479E DUP3 DUP3 PUSH2 0x2609 JUMP JUMPDEST PUSH1 0xC0 DUP5 ADD DUP2 SWAP1 MSTORE PUSH2 0x47B7 SWAP1 PUSH2 0x8CF PUSH2 0x3970 DUP10 PUSH1 0xB PUSH2 0x5000 JUMP JUMPDEST PUSH1 0xC0 DUP5 ADD DUP2 SWAP1 MSTORE DUP6 PUSH1 0x13 PUSH1 0x20 MUL ADD MSTORE POP POP POP POP POP POP JUMP JUMPDEST PUSH2 0x4844 PUSH1 0x40 MLOAD DUP1 PUSH2 0x220 ADD PUSH1 0x40 MSTORE DUP1 PUSH0 DUP2 MSTORE PUSH1 0x20 ADD PUSH0 DUP2 MSTORE PUSH1 0x20 ADD PUSH0 DUP2 MSTORE PUSH1 0x20 ADD PUSH0 DUP2 MSTORE PUSH1 0x20 ADD PUSH0 DUP2 MSTORE PUSH1 0x20 ADD PUSH0 DUP2 MSTORE PUSH1 0x20 ADD PUSH0 DUP2 MSTORE PUSH1 0x20 ADD PUSH0 DUP2 MSTORE PUSH1 0x20 ADD PUSH0 DUP2 MSTORE PUSH1 0x20 ADD PUSH0 DUP2 MSTORE PUSH1 0x20 ADD PUSH0 DUP2 MSTORE PUSH1 0x20 ADD PUSH0 DUP2 MSTORE PUSH1 0x20 ADD PUSH0 DUP2 MSTORE PUSH1 0x20 ADD PUSH0 DUP2 MSTORE PUSH1 0x20 ADD PUSH0 DUP2 MSTORE PUSH1 0x20 ADD PUSH0 DUP2 MSTORE PUSH1 0x20 ADD PUSH0 DUP2 MSTORE POP SWAP1 JUMP JUMPDEST PUSH2 0x485D PUSH2 0x4852 DUP6 PUSH1 0x1C PUSH2 0x5000 JUMP JUMPDEST PUSH2 0x8D4 DUP7 PUSH1 0x2 PUSH2 0x5000 JUMP JUMPDEST DUP2 MSTORE PUSH2 0x4878 PUSH2 0x486D DUP6 PUSH1 0x1D PUSH2 0x5000 JUMP JUMPDEST PUSH2 0x8D4 DUP7 PUSH1 0x3 PUSH2 0x5000 JUMP JUMPDEST PUSH1 0x20 DUP3 ADD MSTORE PUSH2 0x4896 PUSH2 0x488B DUP6 PUSH1 0x1E PUSH2 0x5000 JUMP JUMPDEST PUSH2 0x8D4 DUP7 PUSH1 0x4 PUSH2 0x5000 JUMP JUMPDEST PUSH1 0x40 DUP3 ADD MSTORE PUSH2 0x48B4 PUSH2 0x48A9 DUP6 PUSH1 0x1F PUSH2 0x5000 JUMP JUMPDEST PUSH2 0x8D4 DUP7 PUSH1 0x5 PUSH2 0x5000 JUMP JUMPDEST PUSH1 0x60 DUP3 ADD MSTORE DUP1 MLOAD PUSH2 0x48E6 SWAP1 PUSH2 0x48DF SWAP1 PUSH2 0x48D8 SWAP1 PUSH2 0x48D1 SWAP1 DUP1 PUSH2 0x25EE JUMP JUMPDEST DUP5 MLOAD PUSH2 0x25EE JUMP JUMPDEST DUP4 MLOAD PUSH2 0x25EE JUMP JUMPDEST DUP3 MLOAD PUSH2 0x25EE JUMP JUMPDEST PUSH1 0x80 DUP3 ADD MSTORE PUSH1 0x20 DUP2 ADD MLOAD PUSH2 0x4924 SWAP1 PUSH2 0x491A SWAP1 PUSH2 0x4910 SWAP1 PUSH2 0x4906 SWAP1 DUP1 PUSH2 0x25EE JUMP JUMPDEST DUP5 PUSH1 0x20 ADD MLOAD PUSH2 0x25EE JUMP JUMPDEST DUP4 PUSH1 0x20 ADD MLOAD PUSH2 0x25EE JUMP JUMPDEST DUP3 PUSH1 0x20 ADD MLOAD PUSH2 0x25EE JUMP JUMPDEST PUSH1 0xA0 DUP3 ADD MSTORE PUSH1 0x40 DUP2 ADD MLOAD PUSH2 0x4962 SWAP1 PUSH2 0x4958 SWAP1 PUSH2 0x494E SWAP1 PUSH2 0x4944 SWAP1 DUP1 PUSH2 0x25EE JUMP JUMPDEST DUP5 PUSH1 0x40 ADD MLOAD PUSH2 0x25EE JUMP JUMPDEST DUP4 PUSH1 0x40 ADD MLOAD PUSH2 0x25EE JUMP JUMPDEST DUP3 PUSH1 0x40 ADD MLOAD PUSH2 0x25EE JUMP JUMPDEST PUSH1 0xC0 DUP3 ADD MSTORE PUSH1 0x60 DUP2 ADD MLOAD PUSH2 0x4996 SWAP1 PUSH2 0x4079 SWAP1 PUSH2 0x498C SWAP1 PUSH2 0x4982 SWAP1 DUP1 PUSH2 0x25EE JUMP JUMPDEST DUP5 PUSH1 0x60 ADD MLOAD PUSH2 0x25EE JUMP JUMPDEST DUP4 PUSH1 0x60 ADD MLOAD PUSH2 0x25EE JUMP JUMPDEST PUSH1 0xE0 DUP3 ADD MSTORE PUSH1 0x80 DUP2 ADD MLOAD PUSH1 0xA0 DUP3 ADD MLOAD PUSH2 0x49AF SWAP2 SWAP1 PUSH2 0x2609 JUMP JUMPDEST PUSH2 0x100 DUP3 ADD MSTORE PUSH1 0xC0 DUP2 ADD MLOAD PUSH1 0xE0 DUP3 ADD MLOAD PUSH2 0x49C9 SWAP2 SWAP1 PUSH2 0x2609 JUMP JUMPDEST PUSH2 0x120 DUP3 ADD MSTORE PUSH1 0xA0 DUP2 ADD MLOAD PUSH2 0x49ED SWAP1 PUSH2 0x49E2 SWAP1 DUP1 PUSH2 0x2609 JUMP JUMPDEST DUP3 PUSH2 0x120 ADD MLOAD PUSH2 0x2609 JUMP JUMPDEST PUSH2 0x140 DUP3 ADD MSTORE PUSH1 0xE0 DUP2 ADD MLOAD PUSH2 0x4A11 SWAP1 PUSH2 0x4A06 SWAP1 DUP1 PUSH2 0x2609 JUMP JUMPDEST DUP3 PUSH2 0x100 ADD MLOAD PUSH2 0x2609 JUMP JUMPDEST PUSH2 0x160 DUP3 ADD MSTORE PUSH2 0x120 DUP2 ADD MLOAD PUSH2 0x4A27 SWAP1 DUP1 PUSH2 0x2609 JUMP JUMPDEST PUSH2 0x1E0 DUP3 ADD DUP2 SWAP1 MSTORE PUSH2 0x4A48 SWAP1 PUSH2 0x4A3D SWAP1 DUP1 PUSH2 0x2609 JUMP JUMPDEST DUP3 PUSH2 0x160 ADD MLOAD PUSH2 0x2609 JUMP JUMPDEST PUSH2 0x1E0 DUP3 ADD MSTORE PUSH2 0x100 DUP2 ADD MLOAD PUSH2 0x4A5E SWAP1 DUP1 PUSH2 0x2609 JUMP JUMPDEST PUSH2 0x1A0 DUP3 ADD DUP2 SWAP1 MSTORE PUSH2 0x4A7F SWAP1 PUSH2 0x4A74 SWAP1 DUP1 PUSH2 0x2609 JUMP JUMPDEST DUP3 PUSH2 0x140 ADD MLOAD PUSH2 0x2609 JUMP JUMPDEST PUSH2 0x1A0 DUP3 ADD DUP2 SWAP1 MSTORE PUSH2 0x160 DUP3 ADD MLOAD PUSH2 0x4A96 SWAP2 PUSH2 0x2609 JUMP JUMPDEST PUSH2 0x180 DUP3 ADD MSTORE PUSH2 0x140 DUP2 ADD MLOAD PUSH2 0x1E0 DUP3 ADD MLOAD PUSH2 0x4AB2 SWAP2 SWAP1 PUSH2 0x2609 JUMP JUMPDEST PUSH2 0x1C0 DUP3 ADD MSTORE PUSH2 0x4AC6 PUSH2 0x347D DUP6 PUSH1 0xC PUSH2 0x5000 JUMP JUMPDEST PUSH2 0x200 DUP3 ADD DUP2 SWAP1 MSTORE PUSH2 0x280 DUP5 ADD MLOAD PUSH2 0x180 DUP4 ADD MLOAD PUSH2 0x4AF1 SWAP3 PUSH2 0x8D4 SWAP2 PUSH2 0x8CF SWAP1 PUSH2 0x8F2 DUP11 PUSH1 0x24 PUSH2 0x5000 JUMP JUMPDEST DUP4 PUSH1 0x14 PUSH1 0x20 MUL ADD MSTORE PUSH2 0x4B21 DUP4 PUSH1 0x15 PUSH1 0x20 MUL ADD MLOAD PUSH2 0x8D4 DUP4 PUSH2 0x200 ADD MLOAD PUSH2 0x8CF DUP6 PUSH2 0x1A0 ADD MLOAD PUSH2 0x8F2 DUP11 PUSH1 0x25 PUSH2 0x5000 JUMP JUMPDEST DUP4 PUSH1 0x15 PUSH1 0x20 MUL ADD MSTORE PUSH2 0x4B51 DUP4 PUSH1 0x16 PUSH1 0x20 MUL ADD MLOAD PUSH2 0x8D4 DUP4 PUSH2 0x200 ADD MLOAD PUSH2 0x8CF DUP6 PUSH2 0x1C0 ADD MLOAD PUSH2 0x8F2 DUP11 PUSH1 0x26 PUSH2 0x5000 JUMP JUMPDEST DUP4 PUSH1 0x16 PUSH1 0x20 MUL ADD MSTORE PUSH2 0x4B81 DUP4 PUSH1 0x17 PUSH1 0x20 MUL ADD MLOAD PUSH2 0x8D4 DUP4 PUSH2 0x200 ADD MLOAD PUSH2 0x8CF DUP6 PUSH2 0x1E0 ADD MLOAD PUSH2 0x8F2 DUP11 PUSH1 0x27 PUSH2 0x5000 JUMP JUMPDEST DUP4 PUSH1 0x17 PUSH1 0x20 MUL ADD MSTORE POP POP POP POP JUMP JUMPDEST PUSH2 0x4BE1 PUSH1 0x40 MLOAD DUP1 PUSH2 0x160 ADD PUSH1 0x40 MSTORE DUP1 PUSH0 DUP2 MSTORE PUSH1 0x20 ADD PUSH0 DUP2 MSTORE PUSH1 0x20 ADD PUSH0 DUP2 MSTORE PUSH1 0x20 ADD PUSH0 DUP2 MSTORE PUSH1 0x20 ADD PUSH0 DUP2 MSTORE PUSH1 0x20 ADD PUSH0 DUP2 MSTORE PUSH1 0x20 ADD PUSH0 DUP2 MSTORE PUSH1 0x20 ADD PUSH0 DUP2 MSTORE PUSH1 0x20 ADD PUSH0 DUP2 MSTORE PUSH1 0x20 ADD PUSH0 DUP2 MSTORE PUSH1 0x20 ADD PUSH0 DUP2 MSTORE POP SWAP1 JUMP JUMPDEST PUSH0 PUSH1 0x40 MLOAD DUP1 PUSH1 0x80 ADD PUSH1 0x40 MSTORE DUP1 PUSH2 0x4C16 PUSH32 0x10DC6E9C006EA38B04B1E03B4BD9490C0D03F98929CA1D7FB56821FD19D3B6E7 PUSH2 0x25D6 JUMP JUMPDEST DUP2 MSTORE PUSH1 0x20 ADD PUSH2 0x4C44 PUSH32 0xC28145B6A44DF3E0149B3D0A30B3BB599DF9756D4DD9B84A86B38CFB45A740B PUSH2 0x25D6 JUMP JUMPDEST DUP2 MSTORE PUSH1 0x20 ADD PUSH2 0x4C71 PUSH31 0x544B8338791518B2C7645A50392798B21F75BB60E3596170067D00141CAC15 PUSH2 0x25D6 JUMP JUMPDEST DUP2 MSTORE PUSH1 0x20 ADD PUSH2 0x4C9F PUSH32 0x222C01175718386F2E2E82EB122789E352E105A3B8FA852613BC534433EE428B PUSH2 0x25D6 JUMP JUMPDEST SWAP1 MSTORE SWAP1 POP PUSH2 0x4CBC PUSH2 0x4CB1 DUP7 PUSH1 0x1C PUSH2 0x5000 JUMP JUMPDEST PUSH2 0x8D4 DUP8 PUSH1 0x2 PUSH2 0x5000 JUMP JUMPDEST PUSH2 0x120 DUP4 ADD DUP2 SWAP1 MSTORE PUSH2 0x4CFB SWAP1 PUSH2 0x4CF0 SWAP1 PUSH2 0x4CE5 SWAP1 PUSH2 0x4CDA SWAP1 DUP1 PUSH2 0x25EE JUMP JUMPDEST DUP6 PUSH2 0x120 ADD MLOAD PUSH2 0x25EE JUMP JUMPDEST DUP5 PUSH2 0x120 ADD MLOAD PUSH2 0x25EE JUMP JUMPDEST DUP4 PUSH2 0x120 ADD MLOAD PUSH2 0x25EE JUMP JUMPDEST DUP3 MSTORE PUSH2 0x4D08 DUP6 PUSH1 0x1D PUSH2 0x5000 JUMP JUMPDEST PUSH1 0x20 DUP4 ADD MSTORE PUSH2 0x4D18 DUP6 PUSH1 0x1E PUSH2 0x5000 JUMP JUMPDEST PUSH1 0x40 DUP4 ADD MSTORE PUSH2 0x4D28 DUP6 PUSH1 0x1F PUSH2 0x5000 JUMP JUMPDEST PUSH1 0x60 DUP4 ADD MSTORE DUP2 MLOAD PUSH1 0x20 DUP4 ADD MLOAD PUSH2 0x4D50 SWAP2 PUSH2 0x45AA SWAP2 PUSH2 0x4D46 SWAP2 SWAP1 PUSH2 0x2609 JUMP JUMPDEST DUP5 PUSH1 0x40 ADD MLOAD PUSH2 0x2609 JUMP JUMPDEST PUSH1 0x80 DUP4 ADD MSTORE PUSH2 0x4D63 PUSH2 0x372F DUP7 PUSH1 0xD PUSH2 0x5000 JUMP JUMPDEST PUSH2 0x140 DUP4 ADD MSTORE DUP2 MLOAD PUSH2 0x4D84 SWAP1 PUSH2 0x4D7A SWAP1 DUP4 PUSH0 PUSH2 0xB7D JUMP JUMPDEST DUP4 PUSH1 0x80 ADD MLOAD PUSH2 0x2609 JUMP JUMPDEST PUSH1 0xA0 DUP4 ADD MSTORE PUSH2 0x4DB0 DUP5 PUSH1 0x18 PUSH1 0x20 MUL ADD MLOAD PUSH2 0x8D4 DUP5 PUSH2 0x140 ADD MLOAD PUSH2 0x8CF DUP7 PUSH1 0xA0 ADD MLOAD PUSH2 0x8F2 DUP12 PUSH1 0x24 PUSH2 0x5000 JUMP JUMPDEST PUSH2 0x300 DUP6 ADD MSTORE PUSH1 0x20 DUP3 ADD MLOAD PUSH2 0x4DCB SWAP1 PUSH2 0x4D7A SWAP1 DUP4 PUSH1 0x1 PUSH2 0xB7D JUMP JUMPDEST PUSH1 0xC0 DUP4 ADD MSTORE PUSH2 0x4DF7 DUP5 PUSH1 0x19 PUSH1 0x20 MUL ADD MLOAD PUSH2 0x8D4 DUP5 PUSH2 0x140 ADD MLOAD PUSH2 0x8CF DUP7 PUSH1 0xC0 ADD MLOAD PUSH2 0x8F2 DUP12 PUSH1 0x25 PUSH2 0x5000 JUMP JUMPDEST PUSH2 0x320 DUP6 ADD MSTORE PUSH1 0x40 DUP3 ADD MLOAD PUSH2 0x4E12 SWAP1 PUSH2 0x4D7A SWAP1 DUP4 PUSH1 0x2 PUSH2 0xB7D JUMP JUMPDEST PUSH1 0xE0 DUP4 ADD MSTORE PUSH2 0x4E3E DUP5 PUSH1 0x1A PUSH1 0x20 MUL ADD MLOAD PUSH2 0x8D4 DUP5 PUSH2 0x140 ADD MLOAD PUSH2 0x8CF DUP7 PUSH1 0xE0 ADD MLOAD PUSH2 0x8F2 DUP12 PUSH1 0x26 PUSH2 0x5000 JUMP JUMPDEST PUSH2 0x340 DUP6 ADD MSTORE PUSH1 0x60 DUP3 ADD MLOAD PUSH2 0x4E59 SWAP1 PUSH2 0x4D7A SWAP1 DUP4 PUSH1 0x3 PUSH2 0xB7D JUMP JUMPDEST PUSH2 0x100 DUP4 ADD MSTORE PUSH2 0x4E87 DUP5 PUSH1 0x1B PUSH1 0x20 MUL ADD MLOAD PUSH2 0x8D4 DUP5 PUSH2 0x140 ADD MLOAD PUSH2 0x8CF DUP7 PUSH2 0x100 ADD MLOAD PUSH2 0x8F2 DUP12 PUSH1 0x27 PUSH2 0x5000 JUMP JUMPDEST DUP5 PUSH1 0x1B PUSH2 0x35B6 JUMP JUMPDEST DUP2 MLOAD PUSH1 0x1 JUMPDEST PUSH1 0x1C DUP2 LT ISZERO PUSH2 0x4EE1 JUMPI PUSH2 0x4ED7 DUP3 PUSH2 0x8D4 DUP7 DUP5 PUSH1 0x1C DUP2 LT PUSH2 0x4EB6 JUMPI PUSH2 0x4EB6 PUSH2 0x5B73 JUMP JUMPDEST PUSH1 0x20 MUL ADD MLOAD DUP7 PUSH2 0x4EC7 PUSH1 0x1 DUP8 PUSH2 0x55D3 JUMP JUMPDEST PUSH1 0x1B DUP2 LT PUSH2 0xB7D JUMPI PUSH2 0xB7D PUSH2 0x5B73 JUMP JUMPDEST SWAP2 POP PUSH1 0x1 ADD PUSH2 0x4E94 JUMP JUMPDEST POP SWAP3 SWAP2 POP POP JUMP JUMPDEST PUSH0 PUSH0 DUP4 SWAP1 POP PUSH0 PUSH1 0x40 MLOAD PUSH1 0x20 DUP2 MSTORE PUSH1 0x20 DUP1 DUP3 ADD MSTORE PUSH1 0x20 PUSH1 0x40 DUP3 ADD MSTORE DUP3 PUSH1 0x60 DUP3 ADD MSTORE DUP5 PUSH1 0x80 DUP3 ADD MSTORE PUSH0 MLOAD PUSH1 0x20 PUSH2 0x5C8E PUSH0 CODECOPY PUSH0 MLOAD SWAP1 PUSH0 MSTORE PUSH1 0xA0 DUP3 ADD MSTORE PUSH1 0x20 PUSH0 PUSH1 0xC0 DUP4 PUSH1 0x5 GAS STATICCALL DUP1 PUSH2 0x4F34 JUMPI PUSH0 PUSH0 REVERT JUMPDEST POP PUSH0 MLOAD PUSH1 0x80 SWAP2 SWAP1 SWAP2 ADD PUSH1 0x40 MSTORE SWAP6 SWAP5 POP POP POP POP POP JUMP JUMPDEST PUSH2 0x4F51 PUSH2 0x5313 JUMP JUMPDEST PUSH2 0x4F59 PUSH2 0x5313 JUMP JUMPDEST PUSH1 0x40 MLOAD DUP4 MLOAD DUP2 MSTORE PUSH1 0x20 DUP5 ADD MLOAD PUSH1 0x20 DUP3 ADD MSTORE DUP5 PUSH1 0x40 DUP3 ADD MSTORE PUSH1 0x40 DUP2 PUSH1 0x60 DUP4 PUSH1 0x7 GAS STATICCALL DUP1 PUSH2 0x4F83 JUMPI PUSH0 PUSH0 REVERT JUMPDEST POP DUP1 MLOAD DUP3 MSTORE PUSH1 0x20 DUP1 DUP3 ADD MLOAD SWAP1 DUP4 ADD MSTORE PUSH1 0x60 ADD PUSH1 0x40 MSTORE SWAP4 SWAP3 POP POP POP JUMP JUMPDEST PUSH2 0x4FA7 PUSH2 0x5313 JUMP JUMPDEST PUSH2 0x4FAF PUSH2 0x5313 JUMP JUMPDEST PUSH1 0x40 MLOAD DUP5 MLOAD DUP2 MSTORE PUSH1 0x20 DUP6 ADD MLOAD PUSH1 0x20 DUP3 ADD MSTORE DUP4 MLOAD PUSH1 0x40 DUP3 ADD MSTORE PUSH1 0x20 DUP5 ADD MLOAD PUSH1 0x60 DUP3 ADD MSTORE PUSH1 0x40 DUP2 PUSH1 0x80 DUP4 PUSH1 0x6 GAS STATICCALL DUP1 PUSH2 0x4FE4 JUMPI PUSH0 PUSH0 REVERT JUMPDEST POP DUP1 MLOAD DUP3 MSTORE PUSH1 0x20 DUP1 DUP3 ADD MLOAD SWAP1 DUP4 ADD MSTORE PUSH1 0x80 ADD PUSH1 0x40 MSTORE SWAP4 SWAP3 POP POP POP JUMP JUMPDEST PUSH0 DUP3 DUP3 PUSH1 0x28 DUP2 GT ISZERO PUSH2 0x5014 JUMPI PUSH2 0x5014 PUSH2 0x5C59 JUMP JUMPDEST PUSH1 0x29 DUP2 LT PUSH2 0x5024 JUMPI PUSH2 0x5024 PUSH2 0x5B73 JUMP JUMPDEST PUSH1 0x20 MUL ADD MLOAD SWAP4 SWAP3 POP POP POP JUMP JUMPDEST PUSH1 0x40 MLOAD DUP1 PUSH2 0x3E0 ADD PUSH1 0x40 MSTORE DUP1 PUSH0 DUP2 MSTORE PUSH1 0x20 ADD PUSH0 DUP2 MSTORE PUSH1 0x20 ADD PUSH0 DUP2 MSTORE PUSH1 0x20 ADD PUSH2 0x5056 PUSH2 0x5313 JUMP JUMPDEST DUP2 MSTORE PUSH1 0x20 ADD PUSH2 0x5063 PUSH2 0x5313 JUMP JUMPDEST DUP2 MSTORE PUSH1 0x20 ADD PUSH2 0x5070 PUSH2 0x5313 JUMP JUMPDEST DUP2 MSTORE PUSH1 0x20 ADD PUSH2 0x507D PUSH2 0x5313 JUMP JUMPDEST DUP2 MSTORE PUSH1 0x20 ADD PUSH2 0x508A PUSH2 0x5313 JUMP JUMPDEST DUP2 MSTORE PUSH1 0x20 ADD PUSH2 0x5097 PUSH2 0x5313 JUMP JUMPDEST DUP2 MSTORE PUSH1 0x20 ADD PUSH2 0x50A4 PUSH2 0x5313 JUMP JUMPDEST DUP2 MSTORE PUSH1 0x20 ADD PUSH2 0x50B1 PUSH2 0x5313 JUMP JUMPDEST DUP2 MSTORE PUSH1 0x20 ADD PUSH2 0x50BE PUSH2 0x5313 JUMP JUMPDEST DUP2 MSTORE PUSH1 0x20 ADD PUSH2 0x50CB PUSH2 0x5313 JUMP JUMPDEST DUP2 MSTORE PUSH1 0x20 ADD PUSH2 0x50D8 PUSH2 0x5313 JUMP JUMPDEST DUP2 MSTORE PUSH1 0x20 ADD PUSH2 0x50E5 PUSH2 0x5313 JUMP JUMPDEST DUP2 MSTORE PUSH1 0x20 ADD PUSH2 0x50F2 PUSH2 0x5313 JUMP JUMPDEST DUP2 MSTORE PUSH1 0x20 ADD PUSH2 0x50FF PUSH2 0x5313 JUMP JUMPDEST DUP2 MSTORE PUSH1 0x20 ADD PUSH2 0x510C PUSH2 0x5313 JUMP JUMPDEST DUP2 MSTORE PUSH1 0x20 ADD PUSH2 0x5119 PUSH2 0x5313 JUMP JUMPDEST DUP2 MSTORE PUSH1 0x20 ADD PUSH2 0x5126 PUSH2 0x5313 JUMP JUMPDEST DUP2 MSTORE PUSH1 0x20 ADD PUSH2 0x5133 PUSH2 0x5313 JUMP JUMPDEST DUP2 MSTORE PUSH1 0x20 ADD PUSH2 0x5140 PUSH2 0x5313 JUMP JUMPDEST DUP2 MSTORE PUSH1 0x20 ADD PUSH2 0x514D PUSH2 0x5313 JUMP JUMPDEST DUP2 MSTORE PUSH1 0x20 ADD PUSH2 0x515A PUSH2 0x5313 JUMP JUMPDEST DUP2 MSTORE PUSH1 0x20 ADD PUSH2 0x5167 PUSH2 0x5313 JUMP JUMPDEST DUP2 MSTORE PUSH1 0x20 ADD PUSH2 0x5174 PUSH2 0x5313 JUMP JUMPDEST DUP2 MSTORE PUSH1 0x20 ADD PUSH2 0x5181 PUSH2 0x5313 JUMP JUMPDEST DUP2 MSTORE PUSH1 0x20 ADD PUSH2 0x518E PUSH2 0x5313 JUMP JUMPDEST DUP2 MSTORE PUSH1 0x20 ADD PUSH2 0x519B PUSH2 0x5313 JUMP JUMPDEST DUP2 MSTORE PUSH1 0x20 ADD PUSH2 0x51A8 PUSH2 0x5313 JUMP JUMPDEST DUP2 MSTORE PUSH1 0x20 ADD PUSH2 0x51B5 PUSH2 0x5313 JUMP JUMPDEST SWAP1 MSTORE SWAP1 JUMP JUMPDEST PUSH1 0x40 MLOAD DUP1 PUSH2 0x2A0 ADD PUSH1 0x40 MSTORE DUP1 PUSH2 0x51CE PUSH2 0x53DF JUMP JUMPDEST DUP2 MSTORE PUSH1 0x20 ADD PUSH2 0x51DB PUSH2 0x5313 JUMP JUMPDEST DUP2 MSTORE PUSH1 0x20 ADD PUSH2 0x51E8 PUSH2 0x5313 JUMP JUMPDEST DUP2 MSTORE PUSH1 0x20 ADD PUSH2 0x51F5 PUSH2 0x5313 JUMP JUMPDEST DUP2 MSTORE PUSH1 0x20 ADD PUSH2 0x5202 PUSH2 0x5313 JUMP JUMPDEST DUP2 MSTORE PUSH1 0x20 ADD PUSH2 0x520F PUSH2 0x5313 JUMP JUMPDEST DUP2 MSTORE PUSH1 0x20 ADD PUSH2 0x521C PUSH2 0x5313 JUMP JUMPDEST DUP2 MSTORE PUSH1 0x20 ADD PUSH2 0x5229 PUSH2 0x5313 JUMP JUMPDEST DUP2 MSTORE PUSH1 0x20 ADD PUSH2 0x5236 PUSH2 0x5313 JUMP JUMPDEST DUP2 MSTORE PUSH1 0x20 ADD PUSH2 0x5243 PUSH2 0x53FE JUMP JUMPDEST DUP2 MSTORE PUSH1 0x20 ADD PUSH0 DUP2 MSTORE PUSH1 0x20 ADD PUSH2 0x5256 PUSH2 0x542B JUMP JUMPDEST DUP2 MSTORE PUSH1 0x20 ADD PUSH2 0x5263 PUSH2 0x5459 JUMP JUMPDEST DUP2 MSTORE PUSH1 0x20 ADD PUSH0 DUP2 MSTORE PUSH1 0x20 ADD PUSH2 0x5276 PUSH2 0x5313 JUMP JUMPDEST DUP2 MSTORE PUSH1 0x20 ADD PUSH0 DUP2 MSTORE PUSH1 0x20 ADD PUSH2 0x5289 PUSH2 0x5478 JUMP JUMPDEST DUP2 MSTORE PUSH1 0x20 ADD PUSH2 0x5296 PUSH2 0x535D JUMP JUMPDEST DUP2 MSTORE PUSH1 0x20 ADD PUSH2 0x519B PUSH2 0x54A6 JUMP JUMPDEST PUSH1 0x40 MLOAD DUP1 PUSH2 0x1C0 ADD PUSH1 0x40 MSTORE DUP1 PUSH0 DUP2 MSTORE PUSH1 0x20 ADD PUSH0 DUP2 MSTORE PUSH1 0x20 ADD PUSH0 DUP2 MSTORE PUSH1 0x20 ADD PUSH0 DUP2 MSTORE PUSH1 0x20 ADD PUSH0 DUP2 MSTORE PUSH1 0x20 ADD PUSH0 DUP2 MSTORE PUSH1 0x20 ADD PUSH0 DUP2 MSTORE PUSH1 0x20 ADD PUSH2 0x52E1 PUSH2 0x54A6 JUMP JUMPDEST DUP2 MSTORE PUSH1 0x20 ADD PUSH2 0x52EE PUSH2 0x54A6 JUMP JUMPDEST DUP2 MSTORE PUSH1 0x20 ADD PUSH0 DUP2 MSTORE PUSH1 0x20 ADD PUSH0 DUP2 MSTORE PUSH1 0x20 ADD PUSH0 DUP2 MSTORE PUSH1 0x20 ADD PUSH0 DUP2 MSTORE PUSH1 0x20 ADD PUSH1 0x60 DUP2 MSTORE POP SWAP1 JUMP JUMPDEST PUSH1 0x40 MLOAD DUP1 PUSH1 0x40 ADD PUSH1 0x40 MSTORE DUP1 PUSH0 DUP2 MSTORE PUSH1 0x20 ADD PUSH0 DUP2 MSTORE POP SWAP1 JUMP JUMPDEST PUSH1 0x40 MLOAD DUP1 PUSH1 0x40 ADD PUSH1 0x40 MSTORE DUP1 PUSH2 0x51A8 PUSH2 0x5313 JUMP JUMPDEST PUSH1 0x40 MLOAD DUP1 PUSH2 0x120 ADD PUSH1 0x40 MSTORE DUP1 PUSH1 0x9 SWAP1 PUSH1 0x20 DUP3 MUL DUP1 CALLDATASIZE DUP4 CALLDATACOPY POP SWAP2 SWAP3 SWAP2 POP POP JUMP JUMPDEST PUSH1 0x40 MLOAD DUP1 PUSH2 0x380 ADD PUSH1 0x40 MSTORE DUP1 PUSH1 0x1C SWAP1 PUSH1 0x20 DUP3 MUL DUP1 CALLDATASIZE DUP4 CALLDATACOPY POP SWAP2 SWAP3 SWAP2 POP POP JUMP JUMPDEST PUSH1 0x40 MLOAD DUP1 PUSH1 0xE0 ADD PUSH1 0x40 MSTORE DUP1 PUSH2 0x538F PUSH2 0x54C4 JUMP JUMPDEST DUP2 MSTORE PUSH1 0x20 ADD PUSH0 DUP2 MSTORE PUSH1 0x20 ADD PUSH0 DUP2 MSTORE PUSH1 0x20 ADD PUSH0 DUP2 MSTORE PUSH1 0x20 ADD PUSH0 DUP2 MSTORE PUSH1 0x20 ADD PUSH2 0x53B4 PUSH2 0x54C4 JUMP JUMPDEST DUP2 MSTORE PUSH1 0x20 ADD PUSH0 DUP2 MSTORE POP SWAP1 JUMP JUMPDEST PUSH1 0x40 MLOAD DUP1 PUSH2 0x100 ADD PUSH1 0x40 MSTORE DUP1 PUSH1 0x8 SWAP1 PUSH1 0x20 DUP3 MUL DUP1 CALLDATASIZE DUP4 CALLDATACOPY POP SWAP2 SWAP3 SWAP2 POP POP JUMP JUMPDEST PUSH1 0x40 MLOAD DUP1 PUSH2 0x200 ADD PUSH1 0x40 MSTORE DUP1 PUSH1 0x10 SWAP1 PUSH1 0x20 DUP3 MUL DUP1 CALLDATASIZE DUP4 CALLDATACOPY POP SWAP2 SWAP3 SWAP2 POP POP JUMP JUMPDEST PUSH1 0x40 MLOAD DUP1 PUSH1 0x60 ADD PUSH1 0x40 MSTORE DUP1 PUSH1 0x3 SWAP1 JUMPDEST PUSH2 0x5415 PUSH2 0x5313 JUMP JUMPDEST DUP2 MSTORE PUSH1 0x20 ADD SWAP1 PUSH1 0x1 SWAP1 SUB SWAP1 DUP2 PUSH2 0x540D JUMPI SWAP1 POP POP SWAP1 JUMP JUMPDEST PUSH1 0x40 MLOAD DUP1 PUSH2 0x380 ADD PUSH1 0x40 MSTORE DUP1 PUSH1 0x1C SWAP1 JUMPDEST PUSH2 0x5443 PUSH2 0x533E JUMP JUMPDEST DUP2 MSTORE PUSH1 0x20 ADD SWAP1 PUSH1 0x1 SWAP1 SUB SWAP1 DUP2 PUSH2 0x543B JUMPI SWAP1 POP POP SWAP1 JUMP JUMPDEST PUSH1 0x40 MLOAD DUP1 PUSH2 0x520 ADD PUSH1 0x40 MSTORE DUP1 PUSH1 0x29 SWAP1 PUSH1 0x20 DUP3 MUL DUP1 CALLDATASIZE DUP4 CALLDATACOPY POP SWAP2 SWAP3 SWAP2 POP POP JUMP JUMPDEST PUSH1 0x40 MLOAD DUP1 PUSH2 0x360 ADD PUSH1 0x40 MSTORE DUP1 PUSH1 0x1B SWAP1 JUMPDEST PUSH2 0x5490 PUSH2 0x5313 JUMP JUMPDEST DUP2 MSTORE PUSH1 0x20 ADD SWAP1 PUSH1 0x1 SWAP1 SUB SWAP1 DUP2 PUSH2 0x5488 JUMPI SWAP1 POP POP SWAP1 JUMP JUMPDEST PUSH1 0x40 MLOAD DUP1 PUSH1 0x80 ADD PUSH1 0x40 MSTORE DUP1 PUSH1 0x4 SWAP1 PUSH1 0x20 DUP3 MUL DUP1 CALLDATASIZE DUP4 CALLDATACOPY POP SWAP2 SWAP3 SWAP2 POP POP JUMP JUMPDEST PUSH1 0x40 MLOAD DUP1 PUSH2 0x2000 ADD PUSH1 0x40 MSTORE DUP1 PUSH2 0x100 SWAP1 PUSH1 0x20 DUP3 MUL DUP1 CALLDATASIZE DUP4 CALLDATACOPY POP SWAP2 SWAP3 SWAP2 POP POP JUMP JUMPDEST PUSH0 PUSH0 PUSH0 PUSH0 PUSH1 0x40 DUP6 DUP8 SUB SLT ISZERO PUSH2 0x54F7 JUMPI PUSH0 PUSH0 REVERT JUMPDEST DUP5 CALLDATALOAD PUSH1 0x1 PUSH1 0x1 PUSH1 0x40 SHL SUB DUP2 GT ISZERO PUSH2 0x550C JUMPI PUSH0 PUSH0 REVERT JUMPDEST DUP6 ADD PUSH1 0x1F DUP2 ADD DUP8 SGT PUSH2 0x551C JUMPI PUSH0 PUSH0 REVERT JUMPDEST DUP1 CALLDATALOAD PUSH1 0x1 PUSH1 0x1 PUSH1 0x40 SHL SUB DUP2 GT ISZERO PUSH2 0x5531 JUMPI PUSH0 PUSH0 REVERT JUMPDEST DUP8 PUSH1 0x20 DUP3 DUP5 ADD ADD GT ISZERO PUSH2 0x5542 JUMPI PUSH0 PUSH0 REVERT JUMPDEST PUSH1 0x20 SWAP2 DUP3 ADD SWAP6 POP SWAP4 POP DUP6 ADD CALLDATALOAD PUSH1 0x1 PUSH1 0x1 PUSH1 0x40 SHL SUB DUP2 GT ISZERO PUSH2 0x5561 JUMPI PUSH0 PUSH0 REVERT JUMPDEST DUP6 ADD PUSH1 0x1F DUP2 ADD DUP8 SGT PUSH2 0x5571 JUMPI PUSH0 PUSH0 REVERT JUMPDEST DUP1 CALLDATALOAD PUSH1 0x1 PUSH1 0x1 PUSH1 0x40 SHL SUB DUP2 GT ISZERO PUSH2 0x5586 JUMPI PUSH0 PUSH0 REVERT JUMPDEST DUP8 PUSH1 0x20 DUP3 PUSH1 0x5 SHL DUP5 ADD ADD GT ISZERO PUSH2 0x559A JUMPI PUSH0 PUSH0 REVERT JUMPDEST SWAP5 SWAP8 SWAP4 SWAP7 POP PUSH1 0x20 ADD SWAP5 POP POP POP JUMP JUMPDEST PUSH4 0x4E487B71 PUSH1 0xE0 SHL PUSH0 MSTORE PUSH1 0x11 PUSH1 0x4 MSTORE PUSH1 0x24 PUSH0 REVERT JUMPDEST DUP1 DUP3 MUL DUP2 ISZERO DUP3 DUP3 DIV DUP5 EQ OR PUSH2 0x2603 JUMPI PUSH2 0x2603 PUSH2 0x55A8 JUMP JUMPDEST DUP2 DUP2 SUB DUP2 DUP2 GT ISZERO PUSH2 0x2603 JUMPI PUSH2 0x2603 PUSH2 0x55A8 JUMP JUMPDEST DUP1 PUSH0 JUMPDEST PUSH1 0x10 DUP2 LT ISZERO PUSH2 0x31ED JUMPI DUP2 MLOAD DUP5 MSTORE PUSH1 0x20 SWAP4 DUP5 ADD SWAP4 SWAP1 SWAP2 ADD SWAP1 PUSH1 0x1 ADD PUSH2 0x55E9 JUMP JUMPDEST DUP1 PUSH0 JUMPDEST PUSH1 0x3 DUP2 LT ISZERO PUSH2 0x31ED JUMPI PUSH2 0x5629 DUP5 DUP4 MLOAD DUP1 MLOAD DUP3 MSTORE PUSH1 0x20 SWAP1 DUP2 ADD MLOAD SWAP2 ADD MSTORE JUMP JUMPDEST PUSH1 0x40 SWAP4 SWAP1 SWAP4 ADD SWAP3 PUSH1 0x20 SWAP2 SWAP1 SWAP2 ADD SWAP1 PUSH1 0x1 ADD PUSH2 0x560B JUMP JUMPDEST DUP1 PUSH0 JUMPDEST PUSH1 0x1C DUP2 LT ISZERO PUSH2 0x31ED JUMPI DUP2 MLOAD DUP5 PUSH0 JUMPDEST PUSH1 0x9 DUP2 LT ISZERO PUSH2 0x566F JUMPI DUP3 MLOAD DUP3 MSTORE PUSH1 0x20 SWAP3 DUP4 ADD SWAP3 SWAP1 SWAP2 ADD SWAP1 PUSH1 0x1 ADD PUSH2 0x5650 JUMP JUMPDEST POP POP POP PUSH2 0x120 SWAP4 SWAP1 SWAP4 ADD SWAP3 PUSH1 0x20 SWAP2 SWAP1 SWAP2 ADD SWAP1 PUSH1 0x1 ADD PUSH2 0x5642 JUMP JUMPDEST DUP1 PUSH0 JUMPDEST PUSH1 0x29 DUP2 LT ISZERO PUSH2 0x31ED JUMPI DUP2 MLOAD DUP5 MSTORE PUSH1 0x20 SWAP4 DUP5 ADD SWAP4 SWAP1 SWAP2 ADD SWAP1 PUSH1 0x1 ADD PUSH2 0x568C JUMP JUMPDEST DUP1 PUSH0 JUMPDEST PUSH1 0x1B DUP2 LT ISZERO PUSH2 0x31ED JUMPI PUSH2 0x56CC DUP5 DUP4 MLOAD DUP1 MLOAD DUP3 MSTORE PUSH1 0x20 SWAP1 DUP2 ADD MLOAD SWAP2 ADD MSTORE JUMP JUMPDEST PUSH1 0x40 SWAP4 SWAP1 SWAP4 ADD SWAP3 PUSH1 0x20 SWAP2 SWAP1 SWAP2 ADD SWAP1 PUSH1 0x1 ADD PUSH2 0x56AE JUMP JUMPDEST DUP1 PUSH0 JUMPDEST PUSH1 0x1C DUP2 LT ISZERO PUSH2 0x31ED JUMPI DUP2 MLOAD DUP5 MSTORE PUSH1 0x20 SWAP4 DUP5 ADD SWAP4 SWAP1 SWAP2 ADD SWAP1 PUSH1 0x1 ADD PUSH2 0x56E5 JUMP JUMPDEST DUP1 PUSH0 JUMPDEST PUSH1 0x4 DUP2 LT ISZERO PUSH2 0x31ED JUMPI DUP2 MLOAD DUP5 MSTORE PUSH1 0x20 SWAP4 DUP5 ADD SWAP4 SWAP1 SWAP2 ADD SWAP1 PUSH1 0x1 ADD PUSH2 0x5707 JUMP JUMPDEST DUP2 DUP4 MSTORE PUSH0 PUSH1 0x1 PUSH1 0x1 PUSH1 0xFB SHL SUB DUP4 GT ISZERO PUSH2 0x573D JUMPI PUSH0 PUSH0 REVERT JUMPDEST DUP3 PUSH1 0x5 SHL DUP1 DUP4 PUSH1 0x20 DUP8 ADD CALLDATACOPY SWAP4 SWAP1 SWAP4 ADD PUSH1 0x20 ADD SWAP4 SWAP3 POP POP POP JUMP JUMPDEST PUSH2 0x5761 DUP2 DUP9 MLOAD PUSH2 0x55E6 JUMP JUMPDEST PUSH0 PUSH1 0x20 DUP9 ADD MLOAD PUSH2 0x577F PUSH2 0x200 DUP5 ADD DUP3 DUP1 MLOAD DUP3 MSTORE PUSH1 0x20 SWAP1 DUP2 ADD MLOAD SWAP2 ADD MSTORE JUMP JUMPDEST POP PUSH1 0x40 DUP9 ADD MLOAD DUP1 MLOAD PUSH2 0x240 DUP5 ADD MSTORE PUSH1 0x20 SWAP1 DUP2 ADD MLOAD PUSH2 0x260 DUP5 ADD MSTORE PUSH1 0x60 DUP10 ADD MLOAD DUP1 MLOAD PUSH2 0x280 DUP6 ADD MSTORE DUP2 ADD MLOAD PUSH2 0x2A0 DUP5 ADD MSTORE PUSH1 0x80 DUP10 ADD MLOAD DUP1 MLOAD PUSH2 0x2C0 DUP6 ADD MSTORE DUP2 ADD MLOAD PUSH2 0x2E0 DUP5 ADD MSTORE PUSH1 0xA0 DUP10 ADD MLOAD DUP1 MLOAD PUSH2 0x300 DUP6 ADD MSTORE DUP2 ADD MLOAD PUSH2 0x320 DUP5 ADD MSTORE PUSH1 0xC0 DUP10 ADD MLOAD DUP1 MLOAD PUSH2 0x340 DUP6 ADD MSTORE DUP2 ADD MLOAD PUSH2 0x360 DUP5 ADD MSTORE PUSH1 0xE0 DUP10 ADD MLOAD DUP1 MLOAD PUSH2 0x380 DUP6 ADD MSTORE DUP2 ADD MLOAD PUSH2 0x3A0 DUP5 ADD MSTORE PUSH2 0x100 DUP10 ADD MLOAD DUP1 MLOAD PUSH2 0x3C0 DUP6 ADD MSTORE ADD MLOAD PUSH2 0x3E0 DUP4 ADD MSTORE PUSH2 0x120 DUP9 ADD MLOAD PUSH2 0x5831 PUSH2 0x400 DUP5 ADD DUP3 PUSH2 0x5608 JUMP JUMPDEST POP PUSH2 0x140 DUP9 ADD MLOAD PUSH2 0x4C0 DUP4 ADD MSTORE PUSH2 0x160 DUP9 ADD MLOAD PUSH2 0x5852 PUSH2 0x4E0 DUP5 ADD DUP3 PUSH2 0x563F JUMP JUMPDEST POP PUSH2 0x180 DUP9 ADD MLOAD PUSH2 0x5867 PUSH2 0x2460 DUP5 ADD DUP3 PUSH2 0x5689 JUMP JUMPDEST POP PUSH2 0x1A0 DUP9 ADD MLOAD PUSH2 0x2980 DUP4 ADD MSTORE PUSH2 0x1C0 DUP9 ADD MLOAD DUP1 MLOAD PUSH2 0x29A0 DUP5 ADD MSTORE PUSH1 0x20 ADD MLOAD PUSH2 0x29C0 DUP4 ADD MSTORE PUSH2 0x1E0 DUP9 ADD MLOAD PUSH2 0x29E0 DUP4 ADD MSTORE PUSH2 0x200 DUP9 ADD MLOAD PUSH2 0x58AC PUSH2 0x2A00 DUP5 ADD DUP3 PUSH2 0x56AB JUMP JUMPDEST POP PUSH2 0x220 DUP9 ADD MLOAD PUSH2 0x58C1 PUSH2 0x30C0 DUP5 ADD DUP3 PUSH2 0x56E2 JUMP JUMPDEST POP PUSH2 0x240 DUP9 ADD MLOAD PUSH2 0x58D6 PUSH2 0x3440 DUP5 ADD DUP3 PUSH2 0x5704 JUMP JUMPDEST POP PUSH2 0x260 DUP9 ADD MLOAD DUP1 MLOAD PUSH2 0x34C0 DUP5 ADD MSTORE PUSH1 0x20 SWAP1 DUP2 ADD MLOAD PUSH2 0x34E0 DUP5 ADD MSTORE PUSH2 0x280 DUP10 ADD MLOAD DUP1 MLOAD PUSH2 0x3500 DUP6 ADD MSTORE ADD MLOAD PUSH2 0x3520 DUP4 ADD MSTORE PUSH2 0x35C0 PUSH2 0x3540 DUP4 ADD DUP2 SWAP1 MSTORE PUSH2 0x591F SWAP1 DUP4 ADD DUP8 DUP10 PUSH2 0x5726 JUMP JUMPDEST PUSH2 0x3560 DUP4 ADD SWAP6 SWAP1 SWAP6 MSTORE POP PUSH2 0x3580 DUP2 ADD SWAP3 SWAP1 SWAP3 MSTORE PUSH2 0x35A0 SWAP1 SWAP2 ADD MSTORE SWAP4 SWAP3 POP POP POP JUMP JUMPDEST PUSH4 0x4E487B71 PUSH1 0xE0 SHL PUSH0 MSTORE PUSH1 0x41 PUSH1 0x4 MSTORE PUSH1 0x24 PUSH0 REVERT JUMPDEST PUSH1 0x40 MLOAD PUSH2 0x140 DUP2 ADD PUSH1 0x1 PUSH1 0x1 PUSH1 0x40 SHL SUB DUP2 GT DUP3 DUP3 LT OR ISZERO PUSH2 0x5977 JUMPI PUSH2 0x5977 PUSH2 0x5940 JUMP JUMPDEST PUSH1 0x40 MSTORE SWAP1 JUMP JUMPDEST PUSH1 0x40 MLOAD PUSH1 0x1F DUP3 ADD PUSH1 0x1F NOT AND DUP2 ADD PUSH1 0x1 PUSH1 0x1 PUSH1 0x40 SHL SUB DUP2 GT DUP3 DUP3 LT OR ISZERO PUSH2 0x59A5 JUMPI PUSH2 0x59A5 PUSH2 0x5940 JUMP JUMPDEST PUSH1 0x40 MSTORE SWAP2 SWAP1 POP JUMP JUMPDEST PUSH0 PUSH1 0xC0 DUP3 DUP5 SUB SLT ISZERO PUSH2 0x59BD JUMPI PUSH0 PUSH0 REVERT JUMPDEST PUSH1 0x40 MLOAD PUSH1 0xC0 DUP2 ADD PUSH1 0x1 PUSH1 0x1 PUSH1 0x40 SHL SUB DUP2 GT DUP3 DUP3 LT OR ISZERO PUSH2 0x59DF JUMPI PUSH2 0x59DF PUSH2 0x5940 JUMP JUMPDEST PUSH1 0x40 SWAP1 DUP2 MSTORE DUP4 MLOAD DUP3 MSTORE PUSH1 0x20 DUP1 DUP6 ADD MLOAD SWAP1 DUP4 ADD MSTORE DUP4 DUP2 ADD MLOAD SWAP1 DUP3 ADD MSTORE PUSH1 0x60 DUP1 DUP5 ADD MLOAD SWAP1 DUP3 ADD MSTORE PUSH1 0x80 DUP1 DUP5 ADD MLOAD SWAP1 DUP3 ADD MSTORE PUSH1 0xA0 SWAP3 DUP4 ADD MLOAD SWAP3 DUP2 ADD SWAP3 SWAP1 SWAP3 MSTORE POP SWAP2 SWAP1 POP JUMP JUMPDEST PUSH0 DUP3 PUSH1 0x1F DUP4 ADD SLT PUSH2 0x5A30 JUMPI PUSH0 PUSH0 REVERT JUMPDEST PUSH0 PUSH2 0x360 PUSH2 0x5A3D DUP2 PUSH2 0x597D JUMP JUMPDEST SWAP2 POP DUP4 ADD DUP2 DUP6 DUP3 GT ISZERO PUSH2 0x5A4E JUMPI PUSH0 PUSH0 REVERT JUMPDEST DUP5 JUMPDEST DUP3 DUP2 LT ISZERO PUSH2 0x5A68 JUMPI DUP1 MLOAD DUP3 MSTORE PUSH1 0x20 SWAP2 DUP3 ADD SWAP2 ADD PUSH2 0x5A50 JUMP JUMPDEST POP SWAP2 SWAP6 SWAP5 POP POP POP POP POP JUMP JUMPDEST PUSH0 DUP3 PUSH1 0x1F DUP4 ADD SLT PUSH2 0x5A82 JUMPI PUSH0 PUSH0 REVERT JUMPDEST PUSH0 PUSH2 0x380 PUSH2 0x5A3D DUP2 PUSH2 0x597D JUMP JUMPDEST PUSH0 PUSH2 0xBE0 DUP3 DUP5 SUB SLT DUP1 ISZERO PUSH2 0x5AA1 JUMPI PUSH0 PUSH0 REVERT JUMPDEST POP PUSH2 0x5AAA PUSH2 0x5954 JUMP JUMPDEST PUSH2 0x5AB4 DUP5 DUP5 PUSH2 0x59AD JUMP JUMPDEST DUP2 MSTORE PUSH2 0x5AC3 DUP5 PUSH1 0xC0 DUP6 ADD PUSH2 0x5A21 JUMP JUMPDEST PUSH1 0x20 DUP3 ADD MSTORE PUSH2 0x5AD6 DUP5 PUSH2 0x420 DUP6 ADD PUSH2 0x5A73 JUMP JUMPDEST PUSH1 0x40 DUP3 ADD MSTORE PUSH2 0x7A0 DUP4 ADD MLOAD PUSH1 0x60 DUP3 ADD MSTORE PUSH2 0x5AF4 DUP5 PUSH2 0x7C0 DUP6 ADD PUSH2 0x5A73 JUMP JUMPDEST PUSH1 0x80 DUP3 ADD MSTORE PUSH2 0xB40 DUP4 ADD MLOAD PUSH1 0xA0 DUP3 ADD MSTORE PUSH2 0xB60 DUP4 ADD MLOAD PUSH1 0xC0 DUP3 ADD MSTORE PUSH2 0xB80 DUP4 ADD MLOAD PUSH1 0xE0 DUP3 ADD MSTORE PUSH2 0xBA0 DUP4 ADD MLOAD PUSH2 0x100 DUP3 ADD MSTORE PUSH2 0xBC0 SWAP1 SWAP3 ADD MLOAD PUSH2 0x120 DUP4 ADD MSTORE POP SWAP2 SWAP1 POP JUMP JUMPDEST DUP1 DUP3 ADD DUP1 DUP3 GT ISZERO PUSH2 0x2603 JUMPI PUSH2 0x2603 PUSH2 0x55A8 JUMP JUMPDEST PUSH0 PUSH0 DUP6 DUP6 GT ISZERO PUSH2 0x5B5A JUMPI PUSH0 PUSH0 REVERT JUMPDEST DUP4 DUP7 GT ISZERO PUSH2 0x5B66 JUMPI PUSH0 PUSH0 REVERT JUMPDEST POP POP DUP3 ADD SWAP4 SWAP2 SWAP1 SWAP3 SUB SWAP2 POP JUMP JUMPDEST PUSH4 0x4E487B71 PUSH1 0xE0 SHL PUSH0 MSTORE PUSH1 0x32 PUSH1 0x4 MSTORE PUSH1 0x24 PUSH0 REVERT JUMPDEST PUSH0 PUSH1 0x1 DUP3 ADD PUSH2 0x5B98 JUMPI PUSH2 0x5B98 PUSH2 0x55A8 JUMP JUMPDEST POP PUSH1 0x1 ADD SWAP1 JUMP JUMPDEST DUP1 CALLDATALOAD PUSH1 0x20 DUP4 LT ISZERO PUSH2 0x2603 JUMPI PUSH0 NOT PUSH1 0x20 DUP5 SWAP1 SUB PUSH1 0x3 SHL SHL AND SWAP3 SWAP2 POP POP JUMP JUMPDEST PUSH0 DUP3 PUSH2 0x5BD6 JUMPI PUSH4 0x4E487B71 PUSH1 0xE0 SHL PUSH0 MSTORE PUSH1 0x12 PUSH1 0x4 MSTORE PUSH1 0x24 PUSH0 REVERT JUMPDEST POP MOD SWAP1 JUMP JUMPDEST PUSH0 DUP2 PUSH2 0x5BE9 JUMPI PUSH2 0x5BE9 PUSH2 0x55A8 JUMP JUMPDEST POP PUSH0 NOT ADD SWAP1 JUMP JUMPDEST PUSH0 DUP2 DUP4 DUP3 JUMPDEST PUSH1 0x8 DUP2 LT ISZERO PUSH2 0x5C14 JUMPI DUP2 MLOAD DUP4 MSTORE PUSH1 0x20 SWAP3 DUP4 ADD SWAP3 SWAP1 SWAP2 ADD SWAP1 PUSH1 0x1 ADD PUSH2 0x5BF5 JUMP JUMPDEST POP POP POP PUSH2 0x100 DUP3 ADD SWAP1 POP SWAP3 SWAP2 POP POP JUMP JUMPDEST PUSH0 DUP3 MLOAD DUP1 PUSH1 0x20 DUP6 ADD DUP5 MCOPY PUSH0 SWAP3 ADD SWAP2 DUP3 MSTORE POP SWAP2 SWAP1 POP JUMP JUMPDEST PUSH0 PUSH1 0x20 DUP3 DUP5 SUB SLT ISZERO PUSH2 0x5C4A JUMPI PUSH0 PUSH0 REVERT JUMPDEST DUP2 MLOAD DUP1 ISZERO ISZERO DUP2 EQ PUSH2 0x3DD JUMPI PUSH0 PUSH0 REVERT JUMPDEST PUSH4 0x4E487B71 PUSH1 0xE0 SHL PUSH0 MSTORE PUSH1 0x21 PUSH1 0x4 MSTORE PUSH1 0x24 PUSH0 REVERT INVALID ADDRESS PUSH5 0x4E72E131A0 0x29 0xB8 POP GASLIMIT 0xB6 DUP2 DUP2 PC TSTORE SWAP8 DUP2 PUSH11 0x916871CA8D3C208C16D87C REVERT SELFBALANCE ADDRESS PUSH5 0x4E72E131A0 0x29 0xB8 POP GASLIMIT 0xB6 DUP2 DUP2 PC TSTORE 0x28 CALLER 0xE8 BASEFEE PUSH26 0xB9709143E1F593F0000001A264697066735822122078E63A362D 0xD4 COINBASE 0xD CALLF 0x6E7B SWAP10 CALLER CREATE2 SWAP6 DUP13 PUSH31 0x14CEF9F5C361780D23C28D31ACE1F064736F6C634300081F00330000000000 "
		},
		"gasEstimates": {
			"creation": {
				"codeDepositCost": "4755800",
				"executionCost": "infinite",
				"totalCost": "infinite"
			},
			"external": {
				"verify(bytes,bytes32[])": "infinite"
			},
			"internal": {
				"loadVerificationKey()": "infinite"
			}
		},
		"methodIdentifiers": {
			"verify(bytes,bytes32[])": "ea50d0e4"
		}
	},
	"abi": [
		{
			"inputs": [],
			"name": "ConsistencyCheckFailed",
			"type": "error"
		},
		{
			"inputs": [],
			"name": "GeminiChallengeInSubgroup",
			"type": "error"
		},
		{
			"inputs": [],
			"name": "ProofLengthWrong",
			"type": "error"
		},
		{
			"inputs": [
				{
					"internalType": "uint256",
					"name": "logN",
					"type": "uint256"
				},
				{
					"internalType": "uint256",
					"name": "actualLength",
					"type": "uint256"
				},
				{
					"internalType": "uint256",
					"name": "expectedLength",
					"type": "uint256"
				}
			],
			"name": "ProofLengthWrongWithLogN",
			"type": "error"
		},
		{
			"inputs": [],
			"name": "PublicInputsLengthWrong",
			"type": "error"
		},
		{
			"inputs": [],
			"name": "ShpleminiFailed",
			"type": "error"
		},
		{
			"inputs": [],
			"name": "SumcheckFailed",
			"type": "error"
		},
		{
			"inputs": [
				{
					"internalType": "bytes",
					"name": "proof",
					"type": "bytes"
				},
				{
					"internalType": "bytes32[]",
					"name": "publicInputs",
					"type": "bytes32[]"
				}
			],
			"name": "verify",
			"outputs": [
				{
					"internalType": "bool",
					"name": "verified",
					"type": "bool"
				}
			],
			"stateMutability": "view",
			"type": "function"
		}
	]
}