{
	"data": {
		"bytecode": {
			"linkReferences": {},
			"object": "60c060405234801561000f575f5ffd5b50604051611f88380380611f8883398181016040528101906100319190610340565b8173ffffffffffffffffffffffffffffffffffffffff1660808173ffffffffffffffffffffffffffffffffffffffff16815250508073ffffffffffffffffffffffffffffffffffffffff1660a08173ffffffffffffffffffffffffffffffffffffffff16815250505f60a05173ffffffffffffffffffffffffffffffffffffffff166329a5f2f660405180604001604052805f81526020015f8152506040518263ffffffff1660e01b81526004016100e9919061042c565b602060405180830381865afa158015610104573d5f5f3e3d5ffd5b505050506040513d601f19601f82011682018060405250810190610128919061046f565b9050805f1b5f5f601481106101405761013f61049a565b5b01819055505f600190505b601463ffffffff168163ffffffff16101561021e5760a05173ffffffffffffffffffffffffffffffffffffffff166329a5f2f66040518060400160405280858152602001858152506040518263ffffffff1660e01b81526004016101af919061042c565b602060405180830381865afa1580156101ca573d5f5f3e3d5ffd5b505050506040513d601f19601f820116820180604052508101906101ee919061046f565b9150815f1b5f8263ffffffff166014811061020c5761020b61049a565b5b0181905550808060010191505061014b565b505f5f90505b601463ffffffff168163ffffffff161015610280575f8163ffffffff16601481106102525761025161049a565b5b015460148263ffffffff166014811061026e5761026d61049a565b5b01819055508080600101915050610224565b505f600160146102909190610503565b63ffffffff16601481106102a7576102a661049a565b5b01546028819055506001602b5f60285481526020019081526020015f205f6101000a81548160ff02191690831515021790555050505061053a565b5f5ffd5b5f73ffffffffffffffffffffffffffffffffffffffff82169050919050565b5f61030f826102e6565b9050919050565b61031f81610305565b8114610329575f5ffd5b50565b5f8151905061033a81610316565b92915050565b5f5f60408385031215610356576103556102e2565b5b5f6103638582860161032c565b92505060206103748582860161032c565b9150509250929050565b5f60029050919050565b5f81905092915050565b5f819050919050565b5f819050919050565b6103ad8161039b565b82525050565b5f6103be83836103a4565b60208301905092915050565b5f602082019050919050565b6103df8161037e565b6103e98184610388565b92506103f482610392565b805f5b8381101561042457815161040b87826103b3565b9650610416836103ca565b9250506001810190506103f7565b505050505050565b5f60408201905061043f5f8301846103d6565b92915050565b61044e8161039b565b8114610458575f5ffd5b50565b5f8151905061046981610445565b92915050565b5f60208284031215610484576104836102e2565b5b5f6104918482850161045b565b91505092915050565b7f4e487b71000000000000000000000000000000000000000000000000000000005f52603260045260245ffd5b5f63ffffffff82169050919050565b7f4e487b71000000000000000000000000000000000000000000000000000000005f52601160045260245ffd5b5f61050d826104c7565b9150610518836104c7565b9250828203905063ffffffff811115610534576105336104d6565b5b92915050565b60805160a051611a186105705f395f818161099501528181610b020152610bd101525f818161052c01526107930152611a185ff3fe6080604052600436106100fd575f3560e01c8063b130eaa611610094578063e829558811610063578063e829558814610343578063f16505361461037f578063f178e47c146103a9578063fc7e9c6f146103e5578063fdab463d1461040f576100fd565b8063b130eaa614610299578063c62b919e146102c1578063e29973fc146102eb578063e5285dcc14610307576100fd565b80634e73da7d116100d05780634e73da7d146101bb57806385de26b7146101f75780638b01429d146102335780639c6ad1141461025d576100fd565b806304d65f1114610101578063082febf01461012b57806317cc915c146101555780632b7ac3f314610191575b5f5ffd5b34801561010c575f5ffd5b50610115610439565b6040516101229190610ef7565b60405180910390f35b348015610136575f5ffd5b5061013f6104fe565b60405161014c9190610f35565b60405180910390f35b348015610160575f5ffd5b5061017b60048036038101906101769190610f80565b61050d565b6040516101889190610fc5565b60405180910390f35b34801561019c575f5ffd5b506101a561052a565b6040516101b29190611058565b60405180910390f35b3480156101c6575f5ffd5b506101e160048036038101906101dc9190610f80565b61054e565b6040516101ee9190610fc5565b60405180910390f35b348015610202575f5ffd5b5061021d60048036038101906102189190610f80565b61056b565b60405161022a91906110e1565b60405180910390f35b34801561023e575f5ffd5b5061024761060b565b6040516102549190611119565b60405180910390f35b348015610268575f5ffd5b50610283600480360381019061027e919061115c565b610617565b6040516102909190611196565b60405180910390f35b3480156102a4575f5ffd5b506102bf60048036038101906102ba919061124b565b61065a565b005b3480156102cc575f5ffd5b506102d5610993565b6040516102e291906112ef565b60405180910390f35b61030560048036038101906103009190611308565b6109b7565b005b348015610312575f5ffd5b5061032d60048036038101906103289190610f80565b610dc0565b60405161033a9190610fc5565b60405180910390f35b34801561034e575f5ffd5b506103696004803603810190610364919061138f565b610de6565b6040516103769190611196565b60405180910390f35b34801561038a575f5ffd5b50610393610dfe565b6040516103a09190610f35565b60405180910390f35b3480156103b4575f5ffd5b506103cf60048036038101906103ca919061138f565b610e03565b6040516103dc9190611196565b60405180910390f35b3480156103f0575f5ffd5b506103f9610e1c565b6040516104069190610f35565b60405180910390f35b34801561041a575f5ffd5b50610423610e31565b6040516104309190611196565b60405180910390f35b60605f601463ffffffff1667ffffffffffffffff81111561045d5761045c6113ba565b5b60405190808252806020026020018201604052801561048b5781602001602082028036833780820191505090505b5090505f5f90505b601463ffffffff168163ffffffff1610156104f65760148163ffffffff16601481106104c2576104c16113e7565b5b0154828263ffffffff16815181106104dd576104dc6113e7565b5b6020026020010181815250508080600101915050610493565b508091505090565b601463ffffffff166001901b81565b602a602052805f5260405f205f915054906101000a900460ff1681565b7f000000000000000000000000000000000000000000000000000000000000000081565b602b602052805f5260405f205f915054906101000a900460ff1681565b602c602052805f5260405f205f91509050805f01805461058a90611441565b80601f01602080910402602001604051908101604052809291908181526020018280546105b690611441565b80156106015780601f106105d857610100808354040283529160200191610601565b820191905f5260205f20905b8154815290600101906020018083116105e457829003601f168201915b5050505050905081565b67016345785d8a000081565b5f601463ffffffff168263ffffffff1610610636575f5f1b9050610655565b60148263ffffffff16601481106106505761064f6113e7565b5b015490505b919050565b602a5f8381526020019081526020015f205f9054906101000a900460ff16156106af576040517fcad2ae0200000000000000000000000000000000000000000000000000000000815260040160405180910390fd5b602b5f8481526020019081526020015f205f9054906101000a900460ff16610703576040517f8c52011600000000000000000000000000000000000000000000000000000000815260040160405180910390fd5b5f600267ffffffffffffffff81111561071f5761071e6113ba565b5b60405190808252806020026020018201604052801561074d5781602001602082028036833780820191505090505b50905083815f81518110610764576107636113e7565b5b6020026020010181815250508281600181518110610785576107846113e7565b5b6020026020010181815250507f000000000000000000000000000000000000000000000000000000000000000073ffffffffffffffffffffffffffffffffffffffff1663ea50d0e48787846040518463ffffffff1660e01b81526004016107ee939291906114ab565b602060405180830381865afa158015610809573d5f5f3e3d5ffd5b505050506040513d601f19601f8201168201806040525081019061082d919061150c565b610863576040517f09bde33900000000000000000000000000000000000000000000000000000000815260040160405180910390fd5b6001602a5f8581526020019081526020015f205f6101000a81548160ff0219169083151502179055505f8273ffffffffffffffffffffffffffffffffffffffff1667016345785d8a00006040516108b990611564565b5f6040518083038185875af1925050503d805f81146108f3576040519150601f19603f3d011682016040523d82523d5f602084013e6108f8565b606091505b505090508061093c576040517f08c379a0000000000000000000000000000000000000000000000000000000008152600401610933906115d2565b60405180910390fd5b8273ffffffffffffffffffffffffffffffffffffffff167f0ce490531f6c8ae2f1ff174643bc8b7ed5e52987ab50dc1e8f33655d2cd8c90b856040516109829190611196565b60405180910390a250505050505050565b7f000000000000000000000000000000000000000000000000000000000000000081565b67016345785d8a000034146109f8576040517ff067b3c600000000000000000000000000000000000000000000000000000000815260040160405180910390fd5b601463ffffffff166001901b63ffffffff1660295f9054906101000a900463ffffffff1663ffffffff1610610a59576040517fed732d0c00000000000000000000000000000000000000000000000000000000815260040160405180910390fd5b5f60295f9054906101000a900463ffffffff16905060295f81819054906101000a900463ffffffff1680929190610a8f9061161d565b91906101000a81548163ffffffff021916908363ffffffff160217905550505f845f1c90505f5f90505b601463ffffffff168163ffffffff161015610cb5575f6001841663ffffffff1603610bcf57815f1b60148263ffffffff1660148110610afb57610afa6113e7565b5b01819055507f000000000000000000000000000000000000000000000000000000000000000073ffffffffffffffffffffffffffffffffffffffff166329a5f2f660405180604001604052808581526020015f8563ffffffff1660148110610b6657610b656113e7565b5b01545f1c8152506040518263ffffffff1660e01b8152600401610b8991906116ed565b602060405180830381865afa158015610ba4573d5f5f3e3d5ffd5b505050506040513d601f19601f82011682018060405250810190610bc8919061171a565b9150610c9b565b7f000000000000000000000000000000000000000000000000000000000000000073ffffffffffffffffffffffffffffffffffffffff166329a5f2f6604051806040016040528060148563ffffffff1660148110610c3057610c2f6113e7565b5b01545f1c8152602001858152506040518263ffffffff1660e01b8152600401610c5991906116ed565b602060405180830381865afa158015610c74573d5f5f3e3d5ffd5b505050506040513d601f19601f82011682018060405250810190610c98919061171a565b91505b60018363ffffffff16901c92508080600101915050610ab9565b50805f1b6028819055506001602b5f60285481526020019081526020015f205f6101000a81548160ff021916908315150217905550604051806020016040528085858080601f0160208091040260200160405190810160405280939291908181526020018383808284375f81840152601f19601f82011690508083019250505050505050815250602c5f8781526020019081526020015f205f820151815f019081610d6091906118dc565b50905050847f84fc9eb8cd0a782a1d1734fbeed616bd0ef775f8b9bd437636b62d634fe4baf3600160295f9054906101000a900463ffffffff16610da491906119ab565b604051610db19190610f35565b60405180910390a25050505050565b5f602a5f8381526020019081526020015f205f9054906101000a900460ff169050919050565b5f8160148110610df4575f80fd5b015f915090505481565b601481565b60148160148110610e12575f80fd5b015f915090505481565b60295f9054906101000a900463ffffffff1681565b60285481565b5f81519050919050565b5f82825260208201905092915050565b5f819050602082019050919050565b5f819050919050565b610e7281610e60565b82525050565b5f610e838383610e69565b60208301905092915050565b5f602082019050919050565b5f610ea582610e37565b610eaf8185610e41565b9350610eba83610e51565b805f5b83811015610eea578151610ed18882610e78565b9750610edc83610e8f565b925050600181019050610ebd565b5085935050505092915050565b5f6020820190508181035f830152610f0f8184610e9b565b905092915050565b5f63ffffffff82169050919050565b610f2f81610f17565b82525050565b5f602082019050610f485f830184610f26565b92915050565b5f5ffd5b5f5ffd5b610f5f81610e60565b8114610f69575f5ffd5b50565b5f81359050610f7a81610f56565b92915050565b5f60208284031215610f9557610f94610f4e565b5b5f610fa284828501610f6c565b91505092915050565b5f8115159050919050565b610fbf81610fab565b82525050565b5f602082019050610fd85f830184610fb6565b92915050565b5f73ffffffffffffffffffffffffffffffffffffffff82169050919050565b5f819050919050565b5f61102061101b61101684610fde565b610ffd565b610fde565b9050919050565b5f61103182611006565b9050919050565b5f61104282611027565b9050919050565b61105281611038565b82525050565b5f60208201905061106b5f830184611049565b92915050565b5f81519050919050565b5f82825260208201905092915050565b8281835e5f83830152505050565b5f601f19601f8301169050919050565b5f6110b382611071565b6110bd818561107b565b93506110cd81856020860161108b565b6110d681611099565b840191505092915050565b5f6020820190508181035f8301526110f981846110a9565b905092915050565b5f819050919050565b61111381611101565b82525050565b5f60208201905061112c5f83018461110a565b92915050565b61113b81610f17565b8114611145575f5ffd5b50565b5f8135905061115681611132565b92915050565b5f6020828403121561117157611170610f4e565b5b5f61117e84828501611148565b91505092915050565b61119081610e60565b82525050565b5f6020820190506111a95f830184611187565b92915050565b5f5ffd5b5f5ffd5b5f5ffd5b5f5f83601f8401126111d0576111cf6111af565b5b8235905067ffffffffffffffff8111156111ed576111ec6111b3565b5b602083019150836001820283011115611209576112086111b7565b5b9250929050565b5f61121a82610fde565b9050919050565b61122a81611210565b8114611234575f5ffd5b50565b5f8135905061124581611221565b92915050565b5f5f5f5f5f6080868803121561126457611263610f4e565b5b5f86013567ffffffffffffffff81111561128157611280610f52565b5b61128d888289016111bb565b955095505060206112a088828901610f6c565b93505060406112b188828901610f6c565b92505060606112c288828901611237565b9150509295509295909350565b5f6112d982611027565b9050919050565b6112e9816112cf565b82525050565b5f6020820190506113025f8301846112e0565b92915050565b5f5f5f6040848603121561131f5761131e610f4e565b5b5f61132c86828701610f6c565b935050602084013567ffffffffffffffff81111561134d5761134c610f52565b5b611359868287016111bb565b92509250509250925092565b61136e81611101565b8114611378575f5ffd5b50565b5f8135905061138981611365565b92915050565b5f602082840312156113a4576113a3610f4e565b5b5f6113b18482850161137b565b91505092915050565b7f4e487b71000000000000000000000000000000000000000000000000000000005f52604160045260245ffd5b7f4e487b71000000000000000000000000000000000000000000000000000000005f52603260045260245ffd5b7f4e487b71000000000000000000000000000000000000000000000000000000005f52602260045260245ffd5b5f600282049050600182168061145857607f821691505b60208210810361146b5761146a611414565b5b50919050565b828183375f83830152505050565b5f61148a838561107b565b9350611497838584611471565b6114a083611099565b840190509392505050565b5f6040820190508181035f8301526114c481858761147f565b905081810360208301526114d88184610e9b565b9050949350505050565b6114eb81610fab565b81146114f5575f5ffd5b50565b5f81519050611506816114e2565b92915050565b5f6020828403121561152157611520610f4e565b5b5f61152e848285016114f8565b91505092915050565b5f81905092915050565b50565b5f61154f5f83611537565b915061155a82611541565b5f82019050919050565b5f61156e82611544565b9150819050919050565b5f82825260208201905092915050565b7f4d4e54207472616e73666572206661696c6564000000000000000000000000005f82015250565b5f6115bc601383611578565b91506115c782611588565b602082019050919050565b5f6020820190508181035f8301526115e9816115b0565b9050919050565b7f4e487b71000000000000000000000000000000000000000000000000000000005f52601160045260245ffd5b5f61162782610f17565b915063ffffffff820361163d5761163c6115f0565b5b600182019050919050565b5f60029050919050565b5f81905092915050565b5f819050919050565b61166e81611101565b82525050565b5f61167f8383611665565b60208301905092915050565b5f602082019050919050565b6116a081611648565b6116aa8184611652565b92506116b58261165c565b805f5b838110156116e55781516116cc8782611674565b96506116d78361168b565b9250506001810190506116b8565b505050505050565b5f6040820190506117005f830184611697565b92915050565b5f8151905061171481611365565b92915050565b5f6020828403121561172f5761172e610f4e565b5b5f61173c84828501611706565b91505092915050565b5f819050815f5260205f209050919050565b5f6020601f8301049050919050565b5f82821b905092915050565b5f600883026117a17fffffffffffffffffffffffffffffffffffffffffffffffffffffffffffffffff82611766565b6117ab8683611766565b95508019841693508086168417925050509392505050565b5f6117dd6117d86117d384611101565b610ffd565b611101565b9050919050565b5f819050919050565b6117f6836117c3565b61180a611802826117e4565b848454611772565b825550505050565b5f5f905090565b611821611812565b61182c8184846117ed565b505050565b5b8181101561184f576118445f82611819565b600181019050611832565b5050565b601f8211156118945761186581611745565b61186e84611757565b8101602085101561187d578190505b61189161188985611757565b830182611831565b50505b505050565b5f82821c905092915050565b5f6118b45f1984600802611899565b1980831691505092915050565b5f6118cc83836118a5565b9150826002028217905092915050565b6118e582611071565b67ffffffffffffffff8111156118fe576118fd6113ba565b5b6119088254611441565b611913828285611853565b5f60209050601f831160018114611944575f8415611932578287015190505b61193c85826118c1565b8655506119a3565b601f19841661195286611745565b5f5b8281101561197957848901518255600182019150602085019450602081019050611954565b868310156119965784890151611992601f8916826118a5565b8355505b6001600288020188555050505b505050505050565b5f6119b582610f17565b91506119c083610f17565b9250828203905063ffffffff8111156119dc576119db6115f0565b5b9291505056fea2646970667358221220fd16926d4b71c34587a85f1d8af103672e73bb80e8c89bbd2d29e291694d3e8664736f6c634300081f0033",
			"opcodes": "PUSH1 0xC0 PUSH1 0x40 MSTORE CALLVALUE DUP1 ISZERO PUSH2 0xF JUMPI PUSH0 PUSH0 REVERT JUMPDEST POP PUSH1 0x40 MLOAD PUSH2 0x1F88 CODESIZE SUB DUP1 PUSH2 0x1F88 DUP4 CODECOPY DUP2 DUP2 ADD PUSH1 0x40 MSTORE DUP2 ADD SWAP1 PUSH2 0x31 SWAP2 SWAP1 PUSH2 0x340 JUMP JUMPDEST DUP2 PUSH20 0xFFFFFFFFFFFFFFFFFFFFFFFFFFFFFFFFFFFFFFFF AND PUSH1 0x80 DUP2 PUSH20 0xFFFFFFFFFFFFFFFFFFFFFFFFFFFFFFFFFFFFFFFF AND DUP2 MSTORE POP POP DUP1 PUSH20 0xFFFFFFFFFFFFFFFFFFFFFFFFFFFFFFFFFFFFFFFF AND PUSH1 0xA0 DUP2 PUSH20 0xFFFFFFFFFFFFFFFFFFFFFFFFFFFFFFFFFFFFFFFF AND DUP2 MSTORE POP POP PUSH0 PUSH1 0xA0 MLOAD PUSH20 0xFFFFFFFFFFFFFFFFFFFFFFFFFFFFFFFFFFFFFFFF AND PUSH4 0x29A5F2F6 PUSH1 0x40 MLOAD DUP1 PUSH1 0x40 ADD PUSH1 0x40 MSTORE DUP1 PUSH0 DUP2 MSTORE PUSH1 0x20 ADD PUSH0 DUP2 MSTORE POP PUSH1 0x40 MLOAD DUP3 PUSH4 0xFFFFFFFF AND PUSH1 0xE0 SHL DUP2 MSTORE PUSH1 0x4 ADD PUSH2 0xE9 SWAP2 SWAP1 PUSH2 0x42C JUMP JUMPDEST PUSH1 0x20 PUSH1 0x40 MLOAD DUP1 DUP4 SUB DUP2 DUP7 GAS STATICCALL ISZERO DUP1 ISZERO PUSH2 0x104 JUMPI RETURNDATASIZE PUSH0 PUSH0 RETURNDATACOPY RETURNDATASIZE PUSH0 REVERT JUMPDEST POP POP POP POP PUSH1 0x40 MLOAD RETURNDATASIZE PUSH1 0x1F NOT PUSH1 0x1F DUP3 ADD AND DUP3 ADD DUP1 PUSH1 0x40 MSTORE POP DUP2 ADD SWAP1 PUSH2 0x128 SWAP2 SWAP1 PUSH2 0x46F JUMP JUMPDEST SWAP1 POP DUP1 PUSH0 SHL PUSH0 PUSH0 PUSH1 0x14 DUP2 LT PUSH2 0x140 JUMPI PUSH2 0x13F PUSH2 0x49A JUMP JUMPDEST JUMPDEST ADD DUP2 SWAP1 SSTORE POP PUSH0 PUSH1 0x1 SWAP1 POP JUMPDEST PUSH1 0x14 PUSH4 0xFFFFFFFF AND DUP2 PUSH4 0xFFFFFFFF AND LT ISZERO PUSH2 0x21E JUMPI PUSH1 0xA0 MLOAD PUSH20 0xFFFFFFFFFFFFFFFFFFFFFFFFFFFFFFFFFFFFFFFF AND PUSH4 0x29A5F2F6 PUSH1 0x40 MLOAD DUP1 PUSH1 0x40 ADD PUSH1 0x40 MSTORE DUP1 DUP6 DUP2 MSTORE PUSH1 0x20 ADD DUP6 DUP2 MSTORE POP PUSH1 0x40 MLOAD DUP3 PUSH4 0xFFFFFFFF AND PUSH1 0xE0 SHL DUP2 MSTORE PUSH1 0x4 ADD PUSH2 0x1AF SWAP2 SWAP1 PUSH2 0x42C JUMP JUMPDEST PUSH1 0x20 PUSH1 0x40 MLOAD DUP1 DUP4 SUB DUP2 DUP7 GAS STATICCALL ISZERO DUP1 ISZERO PUSH2 0x1CA JUMPI RETURNDATASIZE PUSH0 PUSH0 RETURNDATACOPY RETURNDATASIZE PUSH0 REVERT JUMPDEST POP POP POP POP PUSH1 0x40 MLOAD RETURNDATASIZE PUSH1 0x1F NOT PUSH1 0x1F DUP3 ADD AND DUP3 ADD DUP1 PUSH1 0x40 MSTORE POP DUP2 ADD SWAP1 PUSH2 0x1EE SWAP2 SWAP1 PUSH2 0x46F JUMP JUMPDEST SWAP2 POP DUP2 PUSH0 SHL PUSH0 DUP3 PUSH4 0xFFFFFFFF AND PUSH1 0x14 DUP2 LT PUSH2 0x20C JUMPI PUSH2 0x20B PUSH2 0x49A JUMP JUMPDEST JUMPDEST ADD DUP2 SWAP1 SSTORE POP DUP1 DUP1 PUSH1 0x1 ADD SWAP2 POP POP PUSH2 0x14B JUMP JUMPDEST POP PUSH0 PUSH0 SWAP1 POP JUMPDEST PUSH1 0x14 PUSH4 0xFFFFFFFF AND DUP2 PUSH4 0xFFFFFFFF AND LT ISZERO PUSH2 0x280 JUMPI PUSH0 DUP2 PUSH4 0xFFFFFFFF AND PUSH1 0x14 DUP2 LT PUSH2 0x252 JUMPI PUSH2 0x251 PUSH2 0x49A JUMP JUMPDEST JUMPDEST ADD SLOAD PUSH1 0x14 DUP3 PUSH4 0xFFFFFFFF AND PUSH1 0x14 DUP2 LT PUSH2 0x26E JUMPI PUSH2 0x26D PUSH2 0x49A JUMP JUMPDEST JUMPDEST ADD DUP2 SWAP1 SSTORE POP DUP1 DUP1 PUSH1 0x1 ADD SWAP2 POP POP PUSH2 0x224 JUMP JUMPDEST POP PUSH0 PUSH1 0x1 PUSH1 0x14 PUSH2 0x290 SWAP2 SWAP1 PUSH2 0x503 JUMP JUMPDEST PUSH4 0xFFFFFFFF AND PUSH1 0x14 DUP2 LT PUSH2 0x2A7 JUMPI PUSH2 0x2A6 PUSH2 0x49A JUMP JUMPDEST JUMPDEST ADD SLOAD PUSH1 0x28 DUP2 SWAP1 SSTORE POP PUSH1 0x1 PUSH1 0x2B PUSH0 PUSH1 0x28 SLOAD DUP2 MSTORE PUSH1 0x20 ADD SWAP1 DUP2 MSTORE PUSH1 0x20 ADD PUSH0 KECCAK256 PUSH0 PUSH2 0x100 EXP DUP2 SLOAD DUP2 PUSH1 0xFF MUL NOT AND SWAP1 DUP4 ISZERO ISZERO MUL OR SWAP1 SSTORE POP POP POP POP PUSH2 0x53A JUMP JUMPDEST PUSH0 PUSH0 REVERT JUMPDEST PUSH0 PUSH20 0xFFFFFFFFFFFFFFFFFFFFFFFFFFFFFFFFFFFFFFFF DUP3 AND SWAP1 POP SWAP2 SWAP1 POP JUMP JUMPDEST PUSH0 PUSH2 0x30F DUP3 PUSH2 0x2E6 JUMP JUMPDEST SWAP1 POP SWAP2 SWAP1 POP JUMP JUMPDEST PUSH2 0x31F DUP2 PUSH2 0x305 JUMP JUMPDEST DUP2 EQ PUSH2 0x329 JUMPI PUSH0 PUSH0 REVERT JUMPDEST POP JUMP JUMPDEST PUSH0 DUP2 MLOAD SWAP1 POP PUSH2 0x33A DUP2 PUSH2 0x316 JUMP JUMPDEST SWAP3 SWAP2 POP POP JUMP JUMPDEST PUSH0 PUSH0 PUSH1 0x40 DUP4 DUP6 SUB SLT ISZERO PUSH2 0x356 JUMPI PUSH2 0x355 PUSH2 0x2E2 JUMP JUMPDEST JUMPDEST PUSH0 PUSH2 0x363 DUP6 DUP3 DUP7 ADD PUSH2 0x32C JUMP JUMPDEST SWAP3 POP POP PUSH1 0x20 PUSH2 0x374 DUP6 DUP3 DUP7 ADD PUSH2 0x32C JUMP JUMPDEST SWAP2 POP POP SWAP3 POP SWAP3 SWAP1 POP JUMP JUMPDEST PUSH0 PUSH1 0x2 SWAP1 POP SWAP2 SWAP1 POP JUMP JUMPDEST PUSH0 DUP2 SWAP1 POP SWAP3 SWAP2 POP POP JUMP JUMPDEST PUSH0 DUP2 SWAP1 POP SWAP2 SWAP1 POP JUMP JUMPDEST PUSH0 DUP2 SWAP1 POP SWAP2 SWAP1 POP JUMP JUMPDEST PUSH2 0x3AD DUP2 PUSH2 0x39B JUMP JUMPDEST DUP3 MSTORE POP POP JUMP JUMPDEST PUSH0 PUSH2 0x3BE DUP4 DUP4 PUSH2 0x3A4 JUMP JUMPDEST PUSH1 0x20 DUP4 ADD SWAP1 POP SWAP3 SWAP2 POP POP JUMP JUMPDEST PUSH0 PUSH1 0x20 DUP3 ADD SWAP1 POP SWAP2 SWAP1 POP JUMP JUMPDEST PUSH2 0x3DF DUP2 PUSH2 0x37E JUMP JUMPDEST PUSH2 0x3E9 DUP2 DUP5 PUSH2 0x388 JUMP JUMPDEST SWAP3 POP PUSH2 0x3F4 DUP3 PUSH2 0x392 JUMP JUMPDEST DUP1 PUSH0 JUMPDEST DUP4 DUP2 LT ISZERO PUSH2 0x424 JUMPI DUP2 MLOAD PUSH2 0x40B DUP8 DUP3 PUSH2 0x3B3 JUMP JUMPDEST SWAP7 POP PUSH2 0x416 DUP4 PUSH2 0x3CA JUMP JUMPDEST SWAP3 POP POP PUSH1 0x1 DUP2 ADD SWAP1 POP PUSH2 0x3F7 JUMP JUMPDEST POP POP POP POP POP POP JUMP JUMPDEST PUSH0 PUSH1 0x40 DUP3 ADD SWAP1 POP PUSH2 0x43F PUSH0 DUP4 ADD DUP5 PUSH2 0x3D6 JUMP JUMPDEST SWAP3 SWAP2 POP POP JUMP JUMPDEST PUSH2 0x44E DUP2 PUSH2 0x39B JUMP JUMPDEST DUP2 EQ PUSH2 0x458 JUMPI PUSH0 PUSH0 REVERT JUMPDEST POP JUMP JUMPDEST PUSH0 DUP2 MLOAD SWAP1 POP PUSH2 0x469 DUP2 PUSH2 0x445 JUMP JUMPDEST SWAP3 SWAP2 POP POP JUMP JUMPDEST PUSH0 PUSH1 0x20 DUP3 DUP5 SUB SLT ISZERO PUSH2 0x484 JUMPI PUSH2 0x483 PUSH2 0x2E2 JUMP JUMPDEST JUMPDEST PUSH0 PUSH2 0x491 DUP5 DUP3 DUP6 ADD PUSH2 0x45B JUMP JUMPDEST SWAP2 POP POP SWAP3 SWAP2 POP POP JUMP JUMPDEST PUSH32 0x4E487B7100000000000000000000000000000000000000000000000000000000 PUSH0 MSTORE PUSH1 0x32 PUSH1 0x4 MSTORE PUSH1 0x24 PUSH0 REVERT JUMPDEST PUSH0 PUSH4 0xFFFFFFFF DUP3 AND SWAP1 POP SWAP2 SWAP1 POP JUMP JUMPDEST PUSH32 0x4E487B7100000000000000000000000000000000000000000000000000000000 PUSH0 MSTORE PUSH1 0x11 PUSH1 0x4 MSTORE PUSH1 0x24 PUSH0 REVERT JUMPDEST PUSH0 PUSH2 0x50D DUP3 PUSH2 0x4C7 JUMP JUMPDEST SWAP2 POP PUSH2 0x518 DUP4 PUSH2 0x4C7 JUMP JUMPDEST SWAP3 POP DUP3 DUP3 SUB SWAP1 POP PUSH4 0xFFFFFFFF DUP2 GT ISZERO PUSH2 0x534 JUMPI PUSH2 0x533 PUSH2 0x4D6 JUMP JUMPDEST JUMPDEST SWAP3 SWAP2 POP POP JUMP JUMPDEST PUSH1 0x80 MLOAD PUSH1 0xA0 MLOAD PUSH2 0x1A18 PUSH2 0x570 PUSH0 CODECOPY PUSH0 DUP2 DUP2 PUSH2 0x995 ADD MSTORE DUP2 DUP2 PUSH2 0xB02 ADD MSTORE PUSH2 0xBD1 ADD MSTORE PUSH0 DUP2 DUP2 PUSH2 0x52C ADD MSTORE PUSH2 0x793 ADD MSTORE PUSH2 0x1A18 PUSH0 RETURN INVALID PUSH1 0x80 PUSH1 0x40 MSTORE PUSH1 0x4 CALLDATASIZE LT PUSH2 0xFD JUMPI PUSH0 CALLDATALOAD PUSH1 0xE0 SHR DUP1 PUSH4 0xB130EAA6 GT PUSH2 0x94 JUMPI DUP1 PUSH4 0xE8295588 GT PUSH2 0x63 JUMPI DUP1 PUSH4 0xE8295588 EQ PUSH2 0x343 JUMPI DUP1 PUSH4 0xF1650536 EQ PUSH2 0x37F JUMPI DUP1 PUSH4 0xF178E47C EQ PUSH2 0x3A9 JUMPI DUP1 PUSH4 0xFC7E9C6F EQ PUSH2 0x3E5 JUMPI DUP1 PUSH4 0xFDAB463D EQ PUSH2 0x40F JUMPI PUSH2 0xFD JUMP JUMPDEST DUP1 PUSH4 0xB130EAA6 EQ PUSH2 0x299 JUMPI DUP1 PUSH4 0xC62B919E EQ PUSH2 0x2C1 JUMPI DUP1 PUSH4 0xE29973FC EQ PUSH2 0x2EB JUMPI DUP1 PUSH4 0xE5285DCC EQ PUSH2 0x307 JUMPI PUSH2 0xFD JUMP JUMPDEST DUP1 PUSH4 0x4E73DA7D GT PUSH2 0xD0 JUMPI DUP1 PUSH4 0x4E73DA7D EQ PUSH2 0x1BB JUMPI DUP1 PUSH4 0x85DE26B7 EQ PUSH2 0x1F7 JUMPI DUP1 PUSH4 0x8B01429D EQ PUSH2 0x233 JUMPI DUP1 PUSH4 0x9C6AD114 EQ PUSH2 0x25D JUMPI PUSH2 0xFD JUMP JUMPDEST DUP1 PUSH4 0x4D65F11 EQ PUSH2 0x101 JUMPI DUP1 PUSH4 0x82FEBF0 EQ PUSH2 0x12B JUMPI DUP1 PUSH4 0x17CC915C EQ PUSH2 0x155 JUMPI DUP1 PUSH4 0x2B7AC3F3 EQ PUSH2 0x191 JUMPI JUMPDEST PUSH0 PUSH0 REVERT JUMPDEST CALLVALUE DUP1 ISZERO PUSH2 0x10C JUMPI PUSH0 PUSH0 REVERT JUMPDEST POP PUSH2 0x115 PUSH2 0x439 JUMP JUMPDEST PUSH1 0x40 MLOAD PUSH2 0x122 SWAP2 SWAP1 PUSH2 0xEF7 JUMP JUMPDEST PUSH1 0x40 MLOAD DUP1 SWAP2 SUB SWAP1 RETURN JUMPDEST CALLVALUE DUP1 ISZERO PUSH2 0x136 JUMPI PUSH0 PUSH0 REVERT JUMPDEST POP PUSH2 0x13F PUSH2 0x4FE JUMP JUMPDEST PUSH1 0x40 MLOAD PUSH2 0x14C SWAP2 SWAP1 PUSH2 0xF35 JUMP JUMPDEST PUSH1 0x40 MLOAD DUP1 SWAP2 SUB SWAP1 RETURN JUMPDEST CALLVALUE DUP1 ISZERO PUSH2 0x160 JUMPI PUSH0 PUSH0 REVERT JUMPDEST POP PUSH2 0x17B PUSH1 0x4 DUP1 CALLDATASIZE SUB DUP2 ADD SWAP1 PUSH2 0x176 SWAP2 SWAP1 PUSH2 0xF80 JUMP JUMPDEST PUSH2 0x50D JUMP JUMPDEST PUSH1 0x40 MLOAD PUSH2 0x188 SWAP2 SWAP1 PUSH2 0xFC5 JUMP JUMPDEST PUSH1 0x40 MLOAD DUP1 SWAP2 SUB SWAP1 RETURN JUMPDEST CALLVALUE DUP1 ISZERO PUSH2 0x19C JUMPI PUSH0 PUSH0 REVERT JUMPDEST POP PUSH2 0x1A5 PUSH2 0x52A JUMP JUMPDEST PUSH1 0x40 MLOAD PUSH2 0x1B2 SWAP2 SWAP1 PUSH2 0x1058 JUMP JUMPDEST PUSH1 0x40 MLOAD DUP1 SWAP2 SUB SWAP1 RETURN JUMPDEST CALLVALUE DUP1 ISZERO PUSH2 0x1C6 JUMPI PUSH0 PUSH0 REVERT JUMPDEST POP PUSH2 0x1E1 PUSH1 0x4 DUP1 CALLDATASIZE SUB DUP2 ADD SWAP1 PUSH2 0x1DC SWAP2 SWAP1 PUSH2 0xF80 JUMP JUMPDEST PUSH2 0x54E JUMP JUMPDEST PUSH1 0x40 MLOAD PUSH2 0x1EE SWAP2 SWAP1 PUSH2 0xFC5 JUMP JUMPDEST PUSH1 0x40 MLOAD DUP1 SWAP2 SUB SWAP1 RETURN JUMPDEST CALLVALUE DUP1 ISZERO PUSH2 0x202 JUMPI PUSH0 PUSH0 REVERT JUMPDEST POP PUSH2 0x21D PUSH1 0x4 DUP1 CALLDATASIZE SUB DUP2 ADD SWAP1 PUSH2 0x218 SWAP2 SWAP1 PUSH2 0xF80 JUMP JUMPDEST PUSH2 0x56B JUMP JUMPDEST PUSH1 0x40 MLOAD PUSH2 0x22A SWAP2 SWAP1 PUSH2 0x10E1 JUMP JUMPDEST PUSH1 0x40 MLOAD DUP1 SWAP2 SUB SWAP1 RETURN JUMPDEST CALLVALUE DUP1 ISZERO PUSH2 0x23E JUMPI PUSH0 PUSH0 REVERT JUMPDEST POP PUSH2 0x247 PUSH2 0x60B JUMP JUMPDEST PUSH1 0x40 MLOAD PUSH2 0x254 SWAP2 SWAP1 PUSH2 0x1119 JUMP JUMPDEST PUSH1 0x40 MLOAD DUP1 SWAP2 SUB SWAP1 RETURN JUMPDEST CALLVALUE DUP1 ISZERO PUSH2 0x268 JUMPI PUSH0 PUSH0 REVERT JUMPDEST POP PUSH2 0x283 PUSH1 0x4 DUP1 CALLDATASIZE SUB DUP2 ADD SWAP1 PUSH2 0x27E SWAP2 SWAP1 PUSH2 0x115C JUMP JUMPDEST PUSH2 0x617 JUMP JUMPDEST PUSH1 0x40 MLOAD PUSH2 0x290 SWAP2 SWAP1 PUSH2 0x1196 JUMP JUMPDEST PUSH1 0x40 MLOAD DUP1 SWAP2 SUB SWAP1 RETURN JUMPDEST CALLVALUE DUP1 ISZERO PUSH2 0x2A4 JUMPI PUSH0 PUSH0 REVERT JUMPDEST POP PUSH2 0x2BF PUSH1 0x4 DUP1 CALLDATASIZE SUB DUP2 ADD SWAP1 PUSH2 0x2BA SWAP2 SWAP1 PUSH2 0x124B JUMP JUMPDEST PUSH2 0x65A JUMP JUMPDEST STOP JUMPDEST CALLVALUE DUP1 ISZERO PUSH2 0x2CC JUMPI PUSH0 PUSH0 REVERT JUMPDEST POP PUSH2 0x2D5 PUSH2 0x993 JUMP JUMPDEST PUSH1 0x40 MLOAD PUSH2 0x2E2 SWAP2 SWAP1 PUSH2 0x12EF JUMP JUMPDEST PUSH1 0x40 MLOAD DUP1 SWAP2 SUB SWAP1 RETURN JUMPDEST PUSH2 0x305 PUSH1 0x4 DUP1 CALLDATASIZE SUB DUP2 ADD SWAP1 PUSH2 0x300 SWAP2 SWAP1 PUSH2 0x1308 JUMP JUMPDEST PUSH2 0x9B7 JUMP JUMPDEST STOP JUMPDEST CALLVALUE DUP1 ISZERO PUSH2 0x312 JUMPI PUSH0 PUSH0 REVERT JUMPDEST POP PUSH2 0x32D PUSH1 0x4 DUP1 CALLDATASIZE SUB DUP2 ADD SWAP1 PUSH2 0x328 SWAP2 SWAP1 PUSH2 0xF80 JUMP JUMPDEST PUSH2 0xDC0 JUMP JUMPDEST PUSH1 0x40 MLOAD PUSH2 0x33A SWAP2 SWAP1 PUSH2 0xFC5 JUMP JUMPDEST PUSH1 0x40 MLOAD DUP1 SWAP2 SUB SWAP1 RETURN JUMPDEST CALLVALUE DUP1 ISZERO PUSH2 0x34E JUMPI PUSH0 PUSH0 REVERT JUMPDEST POP PUSH2 0x369 PUSH1 0x4 DUP1 CALLDATASIZE SUB DUP2 ADD SWAP1 PUSH2 0x364 SWAP2 SWAP1 PUSH2 0x138F JUMP JUMPDEST PUSH2 0xDE6 JUMP JUMPDEST PUSH1 0x40 MLOAD PUSH2 0x376 SWAP2 SWAP1 PUSH2 0x1196 JUMP JUMPDEST PUSH1 0x40 MLOAD DUP1 SWAP2 SUB SWAP1 RETURN JUMPDEST CALLVALUE DUP1 ISZERO PUSH2 0x38A JUMPI PUSH0 PUSH0 REVERT JUMPDEST POP PUSH2 0x393 PUSH2 0xDFE JUMP JUMPDEST PUSH1 0x40 MLOAD PUSH2 0x3A0 SWAP2 SWAP1 PUSH2 0xF35 JUMP JUMPDEST PUSH1 0x40 MLOAD DUP1 SWAP2 SUB SWAP1 RETURN JUMPDEST CALLVALUE DUP1 ISZERO PUSH2 0x3B4 JUMPI PUSH0 PUSH0 REVERT JUMPDEST POP PUSH2 0x3CF PUSH1 0x4 DUP1 CALLDATASIZE SUB DUP2 ADD SWAP1 PUSH2 0x3CA SWAP2 SWAP1 PUSH2 0x138F JUMP JUMPDEST PUSH2 0xE03 JUMP JUMPDEST PUSH1 0x40 MLOAD PUSH2 0x3DC SWAP2 SWAP1 PUSH2 0x1196 JUMP JUMPDEST PUSH1 0x40 MLOAD DUP1 SWAP2 SUB SWAP1 RETURN JUMPDEST CALLVALUE DUP1 ISZERO PUSH2 0x3F0 JUMPI PUSH0 PUSH0 REVERT JUMPDEST POP PUSH2 0x3F9 PUSH2 0xE1C JUMP JUMPDEST PUSH1 0x40 MLOAD PUSH2 0x406 SWAP2 SWAP1 PUSH2 0xF35 JUMP JUMPDEST PUSH1 0x40 MLOAD DUP1 SWAP2 SUB SWAP1 RETURN JUMPDEST CALLVALUE DUP1 ISZERO PUSH2 0x41A JUMPI PUSH0 PUSH0 REVERT JUMPDEST POP PUSH2 0x423 PUSH2 0xE31 JUMP JUMPDEST PUSH1 0x40 MLOAD PUSH2 0x430 SWAP2 SWAP1 PUSH2 0x1196 JUMP JUMPDEST PUSH1 0x40 MLOAD DUP1 SWAP2 SUB SWAP1 RETURN JUMPDEST PUSH1 0x60 PUSH0 PUSH1 0x14 PUSH4 0xFFFFFFFF AND PUSH8 0xFFFFFFFFFFFFFFFF DUP2 GT ISZERO PUSH2 0x45D JUMPI PUSH2 0x45C PUSH2 0x13BA JUMP JUMPDEST JUMPDEST PUSH1 0x40 MLOAD SWAP1 DUP1 DUP3 MSTORE DUP1 PUSH1 0x20 MUL PUSH1 0x20 ADD DUP3 ADD PUSH1 0x40 MSTORE DUP1 ISZERO PUSH2 0x48B JUMPI DUP2 PUSH1 0x20 ADD PUSH1 0x20 DUP3 MUL DUP1 CALLDATASIZE DUP4 CALLDATACOPY DUP1 DUP3 ADD SWAP2 POP POP SWAP1 POP JUMPDEST POP SWAP1 POP PUSH0 PUSH0 SWAP1 POP JUMPDEST PUSH1 0x14 PUSH4 0xFFFFFFFF AND DUP2 PUSH4 0xFFFFFFFF AND LT ISZERO PUSH2 0x4F6 JUMPI PUSH1 0x14 DUP2 PUSH4 0xFFFFFFFF AND PUSH1 0x14 DUP2 LT PUSH2 0x4C2 JUMPI PUSH2 0x4C1 PUSH2 0x13E7 JUMP JUMPDEST JUMPDEST ADD SLOAD DUP3 DUP3 PUSH4 0xFFFFFFFF AND DUP2 MLOAD DUP2 LT PUSH2 0x4DD JUMPI PUSH2 0x4DC PUSH2 0x13E7 JUMP JUMPDEST JUMPDEST PUSH1 0x20 MUL PUSH1 0x20 ADD ADD DUP2 DUP2 MSTORE POP POP DUP1 DUP1 PUSH1 0x1 ADD SWAP2 POP POP PUSH2 0x493 JUMP JUMPDEST POP DUP1 SWAP2 POP POP SWAP1 JUMP JUMPDEST PUSH1 0x14 PUSH4 0xFFFFFFFF AND PUSH1 0x1 SWAP1 SHL DUP2 JUMP JUMPDEST PUSH1 0x2A PUSH1 0x20 MSTORE DUP1 PUSH0 MSTORE PUSH1 0x40 PUSH0 KECCAK256 PUSH0 SWAP2 POP SLOAD SWAP1 PUSH2 0x100 EXP SWAP1 DIV PUSH1 0xFF AND DUP2 JUMP JUMPDEST PUSH32 0x0 DUP2 JUMP JUMPDEST PUSH1 0x2B PUSH1 0x20 MSTORE DUP1 PUSH0 MSTORE PUSH1 0x40 PUSH0 KECCAK256 PUSH0 SWAP2 POP SLOAD SWAP1 PUSH2 0x100 EXP SWAP1 DIV PUSH1 0xFF AND DUP2 JUMP JUMPDEST PUSH1 0x2C PUSH1 0x20 MSTORE DUP1 PUSH0 MSTORE PUSH1 0x40 PUSH0 KECCAK256 PUSH0 SWAP2 POP SWAP1 POP DUP1 PUSH0 ADD DUP1 SLOAD PUSH2 0x58A SWAP1 PUSH2 0x1441 JUMP JUMPDEST DUP1 PUSH1 0x1F ADD PUSH1 0x20 DUP1 SWAP2 DIV MUL PUSH1 0x20 ADD PUSH1 0x40 MLOAD SWAP1 DUP2 ADD PUSH1 0x40 MSTORE DUP1 SWAP3 SWAP2 SWAP1 DUP2 DUP2 MSTORE PUSH1 0x20 ADD DUP3 DUP1 SLOAD PUSH2 0x5B6 SWAP1 PUSH2 0x1441 JUMP JUMPDEST DUP1 ISZERO PUSH2 0x601 JUMPI DUP1 PUSH1 0x1F LT PUSH2 0x5D8 JUMPI PUSH2 0x100 DUP1 DUP4 SLOAD DIV MUL DUP4 MSTORE SWAP2 PUSH1 0x20 ADD SWAP2 PUSH2 0x601 JUMP JUMPDEST DUP3 ADD SWAP2 SWAP1 PUSH0 MSTORE PUSH1 0x20 PUSH0 KECCAK256 SWAP1 JUMPDEST DUP2 SLOAD DUP2 MSTORE SWAP1 PUSH1 0x1 ADD SWAP1 PUSH1 0x20 ADD DUP1 DUP4 GT PUSH2 0x5E4 JUMPI DUP3 SWAP1 SUB PUSH1 0x1F AND DUP3 ADD SWAP2 JUMPDEST POP POP POP POP POP SWAP1 POP DUP2 JUMP JUMPDEST PUSH8 0x16345785D8A0000 DUP2 JUMP JUMPDEST PUSH0 PUSH1 0x14 PUSH4 0xFFFFFFFF AND DUP3 PUSH4 0xFFFFFFFF AND LT PUSH2 0x636 JUMPI PUSH0 PUSH0 SHL SWAP1 POP PUSH2 0x655 JUMP JUMPDEST PUSH1 0x14 DUP3 PUSH4 0xFFFFFFFF AND PUSH1 0x14 DUP2 LT PUSH2 0x650 JUMPI PUSH2 0x64F PUSH2 0x13E7 JUMP JUMPDEST JUMPDEST ADD SLOAD SWAP1 POP JUMPDEST SWAP2 SWAP1 POP JUMP JUMPDEST PUSH1 0x2A PUSH0 DUP4 DUP2 MSTORE PUSH1 0x20 ADD SWAP1 DUP2 MSTORE PUSH1 0x20 ADD PUSH0 KECCAK256 PUSH0 SWAP1 SLOAD SWAP1 PUSH2 0x100 EXP SWAP1 DIV PUSH1 0xFF AND ISZERO PUSH2 0x6AF JUMPI PUSH1 0x40 MLOAD PUSH32 0xCAD2AE0200000000000000000000000000000000000000000000000000000000 DUP2 MSTORE PUSH1 0x4 ADD PUSH1 0x40 MLOAD DUP1 SWAP2 SUB SWAP1 REVERT JUMPDEST PUSH1 0x2B PUSH0 DUP5 DUP2 MSTORE PUSH1 0x20 ADD SWAP1 DUP2 MSTORE PUSH1 0x20 ADD PUSH0 KECCAK256 PUSH0 SWAP1 SLOAD SWAP1 PUSH2 0x100 EXP SWAP1 DIV PUSH1 0xFF AND PUSH2 0x703 JUMPI PUSH1 0x40 MLOAD PUSH32 0x8C52011600000000000000000000000000000000000000000000000000000000 DUP2 MSTORE PUSH1 0x4 ADD PUSH1 0x40 MLOAD DUP1 SWAP2 SUB SWAP1 REVERT JUMPDEST PUSH0 PUSH1 0x2 PUSH8 0xFFFFFFFFFFFFFFFF DUP2 GT ISZERO PUSH2 0x71F JUMPI PUSH2 0x71E PUSH2 0x13BA JUMP JUMPDEST JUMPDEST PUSH1 0x40 MLOAD SWAP1 DUP1 DUP3 MSTORE DUP1 PUSH1 0x20 MUL PUSH1 0x20 ADD DUP3 ADD PUSH1 0x40 MSTORE DUP1 ISZERO PUSH2 0x74D JUMPI DUP2 PUSH1 0x20 ADD PUSH1 0x20 DUP3 MUL DUP1 CALLDATASIZE DUP4 CALLDATACOPY DUP1 DUP3 ADD SWAP2 POP POP SWAP1 POP JUMPDEST POP SWAP1 POP DUP4 DUP2 PUSH0 DUP2 MLOAD DUP2 LT PUSH2 0x764 JUMPI PUSH2 0x763 PUSH2 0x13E7 JUMP JUMPDEST JUMPDEST PUSH1 0x20 MUL PUSH1 0x20 ADD ADD DUP2 DUP2 MSTORE POP POP DUP3 DUP2 PUSH1 0x1 DUP2 MLOAD DUP2 LT PUSH2 0x785 JUMPI PUSH2 0x784 PUSH2 0x13E7 JUMP JUMPDEST JUMPDEST PUSH1 0x20 MUL PUSH1 0x20 ADD ADD DUP2 DUP2 MSTORE POP POP PUSH32 0x0 PUSH20 0xFFFFFFFFFFFFFFFFFFFFFFFFFFFFFFFFFFFFFFFF AND PUSH4 0xEA50D0E4 DUP8 DUP8 DUP5 PUSH1 0x40 MLOAD DUP5 PUSH4 0xFFFFFFFF AND PUSH1 0xE0 SHL DUP2 MSTORE PUSH1 0x4 ADD PUSH2 0x7EE SWAP4 SWAP3 SWAP2 SWAP1 PUSH2 0x14AB JUMP JUMPDEST PUSH1 0x20 PUSH1 0x40 MLOAD DUP1 DUP4 SUB DUP2 DUP7 GAS STATICCALL ISZERO DUP1 ISZERO PUSH2 0x809 JUMPI RETURNDATASIZE PUSH0 PUSH0 RETURNDATACOPY RETURNDATASIZE PUSH0 REVERT JUMPDEST POP POP POP POP PUSH1 0x40 MLOAD RETURNDATASIZE PUSH1 0x1F NOT PUSH1 0x1F DUP3 ADD AND DUP3 ADD DUP1 PUSH1 0x40 MSTORE POP DUP2 ADD SWAP1 PUSH2 0x82D SWAP2 SWAP1 PUSH2 0x150C JUMP JUMPDEST PUSH2 0x863 JUMPI PUSH1 0x40 MLOAD PUSH32 0x9BDE33900000000000000000000000000000000000000000000000000000000 DUP2 MSTORE PUSH1 0x4 ADD PUSH1 0x40 MLOAD DUP1 SWAP2 SUB SWAP1 REVERT JUMPDEST PUSH1 0x1 PUSH1 0x2A PUSH0 DUP6 DUP2 MSTORE PUSH1 0x20 ADD SWAP1 DUP2 MSTORE PUSH1 0x20 ADD PUSH0 KECCAK256 PUSH0 PUSH2 0x100 EXP DUP2 SLOAD DUP2 PUSH1 0xFF MUL NOT AND SWAP1 DUP4 ISZERO ISZERO MUL OR SWAP1 SSTORE POP PUSH0 DUP3 PUSH20 0xFFFFFFFFFFFFFFFFFFFFFFFFFFFFFFFFFFFFFFFF AND PUSH8 0x16345785D8A0000 PUSH1 0x40 MLOAD PUSH2 0x8B9 SWAP1 PUSH2 0x1564 JUMP JUMPDEST PUSH0 PUSH1 0x40 MLOAD DUP1 DUP4 SUB DUP2 DUP6 DUP8 GAS CALL SWAP3 POP POP POP RETURNDATASIZE DUP1 PUSH0 DUP2 EQ PUSH2 0x8F3 JUMPI PUSH1 0x40 MLOAD SWAP2 POP PUSH1 0x1F NOT PUSH1 0x3F RETURNDATASIZE ADD AND DUP3 ADD PUSH1 0x40 MSTORE RETURNDATASIZE DUP3 MSTORE RETURNDATASIZE PUSH0 PUSH1 0x20 DUP5 ADD RETURNDATACOPY PUSH2 0x8F8 JUMP JUMPDEST PUSH1 0x60 SWAP2 POP JUMPDEST POP POP SWAP1 POP DUP1 PUSH2 0x93C JUMPI PUSH1 0x40 MLOAD PUSH32 0x8C379A000000000000000000000000000000000000000000000000000000000 DUP2 MSTORE PUSH1 0x4 ADD PUSH2 0x933 SWAP1 PUSH2 0x15D2 JUMP JUMPDEST PUSH1 0x40 MLOAD DUP1 SWAP2 SUB SWAP1 REVERT JUMPDEST DUP3 PUSH20 0xFFFFFFFFFFFFFFFFFFFFFFFFFFFFFFFFFFFFFFFF AND PUSH32 0xCE490531F6C8AE2F1FF174643BC8B7ED5E52987AB50DC1E8F33655D2CD8C90B DUP6 PUSH1 0x40 MLOAD PUSH2 0x982 SWAP2 SWAP1 PUSH2 0x1196 JUMP JUMPDEST PUSH1 0x40 MLOAD DUP1 SWAP2 SUB SWAP1 LOG2 POP POP POP POP POP POP POP JUMP JUMPDEST PUSH32 0x0 DUP2 JUMP JUMPDEST PUSH8 0x16345785D8A0000 CALLVALUE EQ PUSH2 0x9F8 JUMPI PUSH1 0x40 MLOAD PUSH32 0xF067B3C600000000000000000000000000000000000000000000000000000000 DUP2 MSTORE PUSH1 0x4 ADD PUSH1 0x40 MLOAD DUP1 SWAP2 SUB SWAP1 REVERT JUMPDEST PUSH1 0x14 PUSH4 0xFFFFFFFF AND PUSH1 0x1 SWAP1 SHL PUSH4 0xFFFFFFFF AND PUSH1 0x29 PUSH0 SWAP1 SLOAD SWAP1 PUSH2 0x100 EXP SWAP1 DIV PUSH4 0xFFFFFFFF AND PUSH4 0xFFFFFFFF AND LT PUSH2 0xA59 JUMPI PUSH1 0x40 MLOAD PUSH32 0xED732D0C00000000000000000000000000000000000000000000000000000000 DUP2 MSTORE PUSH1 0x4 ADD PUSH1 0x40 MLOAD DUP1 SWAP2 SUB SWAP1 REVERT JUMPDEST PUSH0 PUSH1 0x29 PUSH0 SWAP1 SLOAD SWAP1 PUSH2 0x100 EXP SWAP1 DIV PUSH4 0xFFFFFFFF AND SWAP1 POP PUSH1 0x29 PUSH0 DUP2 DUP2 SWAP1 SLOAD SWAP1 PUSH2 0x100 EXP SWAP1 DIV PUSH4 0xFFFFFFFF AND DUP1 SWAP3 SWAP2 SWAP1 PUSH2 0xA8F SWAP1 PUSH2 0x161D JUMP JUMPDEST SWAP2 SWAP1 PUSH2 0x100 EXP DUP2 SLOAD DUP2 PUSH4 0xFFFFFFFF MUL NOT AND SWAP1 DUP4 PUSH4 0xFFFFFFFF AND MUL OR SWAP1 SSTORE POP POP PUSH0 DUP5 PUSH0 SHR SWAP1 POP PUSH0 PUSH0 SWAP1 POP JUMPDEST PUSH1 0x14 PUSH4 0xFFFFFFFF AND DUP2 PUSH4 0xFFFFFFFF AND LT ISZERO PUSH2 0xCB5 JUMPI PUSH0 PUSH1 0x1 DUP5 AND PUSH4 0xFFFFFFFF AND SUB PUSH2 0xBCF JUMPI DUP2 PUSH0 SHL PUSH1 0x14 DUP3 PUSH4 0xFFFFFFFF AND PUSH1 0x14 DUP2 LT PUSH2 0xAFB JUMPI PUSH2 0xAFA PUSH2 0x13E7 JUMP JUMPDEST JUMPDEST ADD DUP2 SWAP1 SSTORE POP PUSH32 0x0 PUSH20 0xFFFFFFFFFFFFFFFFFFFFFFFFFFFFFFFFFFFFFFFF AND PUSH4 0x29A5F2F6 PUSH1 0x40 MLOAD DUP1 PUSH1 0x40 ADD PUSH1 0x40 MSTORE DUP1 DUP6 DUP2 MSTORE PUSH1 0x20 ADD PUSH0 DUP6 PUSH4 0xFFFFFFFF AND PUSH1 0x14 DUP2 LT PUSH2 0xB66 JUMPI PUSH2 0xB65 PUSH2 0x13E7 JUMP JUMPDEST JUMPDEST ADD SLOAD PUSH0 SHR DUP2 MSTORE POP PUSH1 0x40 MLOAD DUP3 PUSH4 0xFFFFFFFF AND PUSH1 0xE0 SHL DUP2 MSTORE PUSH1 0x4 ADD PUSH2 0xB89 SWAP2 SWAP1 PUSH2 0x16ED JUMP JUMPDEST PUSH1 0x20 PUSH1 0x40 MLOAD DUP1 DUP4 SUB DUP2 DUP7 GAS STATICCALL ISZERO DUP1 ISZERO PUSH2 0xBA4 JUMPI RETURNDATASIZE PUSH0 PUSH0 RETURNDATACOPY RETURNDATASIZE PUSH0 REVERT JUMPDEST POP POP POP POP PUSH1 0x40 MLOAD RETURNDATASIZE PUSH1 0x1F NOT PUSH1 0x1F DUP3 ADD AND DUP3 ADD DUP1 PUSH1 0x40 MSTORE POP DUP2 ADD SWAP1 PUSH2 0xBC8 SWAP2 SWAP1 PUSH2 0x171A JUMP JUMPDEST SWAP2 POP PUSH2 0xC9B JUMP JUMPDEST PUSH32 0x0 PUSH20 0xFFFFFFFFFFFFFFFFFFFFFFFFFFFFFFFFFFFFFFFF AND PUSH4 0x29A5F2F6 PUSH1 0x40 MLOAD DUP1 PUSH1 0x40 ADD PUSH1 0x40 MSTORE DUP1 PUSH1 0x14 DUP6 PUSH4 0xFFFFFFFF AND PUSH1 0x14 DUP2 LT PUSH2 0xC30 JUMPI PUSH2 0xC2F PUSH2 0x13E7 JUMP JUMPDEST JUMPDEST ADD SLOAD PUSH0 SHR DUP2 MSTORE PUSH1 0x20 ADD DUP6 DUP2 MSTORE POP PUSH1 0x40 MLOAD DUP3 PUSH4 0xFFFFFFFF AND PUSH1 0xE0 SHL DUP2 MSTORE PUSH1 0x4 ADD PUSH2 0xC59 SWAP2 SWAP1 PUSH2 0x16ED JUMP JUMPDEST PUSH1 0x20 PUSH1 0x40 MLOAD DUP1 DUP4 SUB DUP2 DUP7 GAS STATICCALL ISZERO DUP1 ISZERO PUSH2 0xC74 JUMPI RETURNDATASIZE PUSH0 PUSH0 RETURNDATACOPY RETURNDATASIZE PUSH0 REVERT JUMPDEST POP POP POP POP PUSH1 0x40 MLOAD RETURNDATASIZE PUSH1 0x1F NOT PUSH1 0x1F DUP3 ADD AND DUP3 ADD DUP1 PUSH1 0x40 MSTORE POP DUP2 ADD SWAP1 PUSH2 0xC98 SWAP2 SWAP1 PUSH2 0x171A JUMP JUMPDEST SWAP2 POP JUMPDEST PUSH1 0x1 DUP4 PUSH4 0xFFFFFFFF AND SWAP1 SHR SWAP3 POP DUP1 DUP1 PUSH1 0x1 ADD SWAP2 POP POP PUSH2 0xAB9 JUMP JUMPDEST POP DUP1 PUSH0 SHL PUSH1 0x28 DUP2 SWAP1 SSTORE POP PUSH1 0x1 PUSH1 0x2B PUSH0 PUSH1 0x28 SLOAD DUP2 MSTORE PUSH1 0x20 ADD SWAP1 DUP2 MSTORE PUSH1 0x20 ADD PUSH0 KECCAK256 PUSH0 PUSH2 0x100 EXP DUP2 SLOAD DUP2 PUSH1 0xFF MUL NOT AND SWAP1 DUP4 ISZERO ISZERO MUL OR SWAP1 SSTORE POP PUSH1 0x40 MLOAD DUP1 PUSH1 0x20 ADD PUSH1 0x40 MSTORE DUP1 DUP6 DUP6 DUP1 DUP1 PUSH1 0x1F ADD PUSH1 0x20 DUP1 SWAP2 DIV MUL PUSH1 0x20 ADD PUSH1 0x40 MLOAD SWAP1 DUP2 ADD PUSH1 0x40 MSTORE DUP1 SWAP4 SWAP3 SWAP2 SWAP1 DUP2 DUP2 MSTORE PUSH1 0x20 ADD DUP4 DUP4 DUP1 DUP3 DUP5 CALLDATACOPY PUSH0 DUP2 DUP5 ADD MSTORE PUSH1 0x1F NOT PUSH1 0x1F DUP3 ADD AND SWAP1 POP DUP1 DUP4 ADD SWAP3 POP POP POP POP POP POP POP DUP2 MSTORE POP PUSH1 0x2C PUSH0 DUP8 DUP2 MSTORE PUSH1 0x20 ADD SWAP1 DUP2 MSTORE PUSH1 0x20 ADD PUSH0 KECCAK256 PUSH0 DUP3 ADD MLOAD DUP2 PUSH0 ADD SWAP1 DUP2 PUSH2 0xD60 SWAP2 SWAP1 PUSH2 0x18DC JUMP JUMPDEST POP SWAP1 POP POP DUP5 PUSH32 0x84FC9EB8CD0A782A1D1734FBEED616BD0EF775F8B9BD437636B62D634FE4BAF3 PUSH1 0x1 PUSH1 0x29 PUSH0 SWAP1 SLOAD SWAP1 PUSH2 0x100 EXP SWAP1 DIV PUSH4 0xFFFFFFFF AND PUSH2 0xDA4 SWAP2 SWAP1 PUSH2 0x19AB JUMP JUMPDEST PUSH1 0x40 MLOAD PUSH2 0xDB1 SWAP2 SWAP1 PUSH2 0xF35 JUMP JUMPDEST PUSH1 0x40 MLOAD DUP1 SWAP2 SUB SWAP1 LOG2 POP POP POP POP POP JUMP JUMPDEST PUSH0 PUSH1 0x2A PUSH0 DUP4 DUP2 MSTORE PUSH1 0x20 ADD SWAP1 DUP2 MSTORE PUSH1 0x20 ADD PUSH0 KECCAK256 PUSH0 SWAP1 SLOAD SWAP1 PUSH2 0x100 EXP SWAP1 DIV PUSH1 0xFF AND SWAP1 POP SWAP2 SWAP1 POP JUMP JUMPDEST PUSH0 DUP2 PUSH1 0x14 DUP2 LT PUSH2 0xDF4 JUMPI PUSH0 DUP1 REVERT JUMPDEST ADD PUSH0 SWAP2 POP SWAP1 POP SLOAD DUP2 JUMP JUMPDEST PUSH1 0x14 DUP2 JUMP JUMPDEST PUSH1 0x14 DUP2 PUSH1 0x14 DUP2 LT PUSH2 0xE12 JUMPI PUSH0 DUP1 REVERT JUMPDEST ADD PUSH0 SWAP2 POP SWAP1 POP SLOAD DUP2 JUMP JUMPDEST PUSH1 0x29 PUSH0 SWAP1 SLOAD SWAP1 PUSH2 0x100 EXP SWAP1 DIV PUSH4 0xFFFFFFFF AND DUP2 JUMP JUMPDEST PUSH1 0x28 SLOAD DUP2 JUMP JUMPDEST PUSH0 DUP2 MLOAD SWAP1 POP SWAP2 SWAP1 POP JUMP JUMPDEST PUSH0 DUP3 DUP3 MSTORE PUSH1 0x20 DUP3 ADD SWAP1 POP SWAP3 SWAP2 POP POP JUMP JUMPDEST PUSH0 DUP2 SWAP1 POP PUSH1 0x20 DUP3 ADD SWAP1 POP SWAP2 SWAP1 POP JUMP JUMPDEST PUSH0 DUP2 SWAP1 POP SWAP2 SWAP1 POP JUMP JUMPDEST PUSH2 0xE72 DUP2 PUSH2 0xE60 JUMP JUMPDEST DUP3 MSTORE POP POP JUMP JUMPDEST PUSH0 PUSH2 0xE83 DUP4 DUP4 PUSH2 0xE69 JUMP JUMPDEST PUSH1 0x20 DUP4 ADD SWAP1 POP SWAP3 SWAP2 POP POP JUMP JUMPDEST PUSH0 PUSH1 0x20 DUP3 ADD SWAP1 POP SWAP2 SWAP1 POP JUMP JUMPDEST PUSH0 PUSH2 0xEA5 DUP3 PUSH2 0xE37 JUMP JUMPDEST PUSH2 0xEAF DUP2 DUP6 PUSH2 0xE41 JUMP JUMPDEST SWAP4 POP PUSH2 0xEBA DUP4 PUSH2 0xE51 JUMP JUMPDEST DUP1 PUSH0 JUMPDEST DUP4 DUP2 LT ISZERO PUSH2 0xEEA JUMPI DUP2 MLOAD PUSH2 0xED1 DUP9 DUP3 PUSH2 0xE78 JUMP JUMPDEST SWAP8 POP PUSH2 0xEDC DUP4 PUSH2 0xE8F JUMP JUMPDEST SWAP3 POP POP PUSH1 0x1 DUP2 ADD SWAP1 POP PUSH2 0xEBD JUMP JUMPDEST POP DUP6 SWAP4 POP POP POP POP SWAP3 SWAP2 POP POP JUMP JUMPDEST PUSH0 PUSH1 0x20 DUP3 ADD SWAP1 POP DUP2 DUP2 SUB PUSH0 DUP4 ADD MSTORE PUSH2 0xF0F DUP2 DUP5 PUSH2 0xE9B JUMP JUMPDEST SWAP1 POP SWAP3 SWAP2 POP POP JUMP JUMPDEST PUSH0 PUSH4 0xFFFFFFFF DUP3 AND SWAP1 POP SWAP2 SWAP1 POP JUMP JUMPDEST PUSH2 0xF2F DUP2 PUSH2 0xF17 JUMP JUMPDEST DUP3 MSTORE POP POP JUMP JUMPDEST PUSH0 PUSH1 0x20 DUP3 ADD SWAP1 POP PUSH2 0xF48 PUSH0 DUP4 ADD DUP5 PUSH2 0xF26 JUMP JUMPDEST SWAP3 SWAP2 POP POP JUMP JUMPDEST PUSH0 PUSH0 REVERT JUMPDEST PUSH0 PUSH0 REVERT JUMPDEST PUSH2 0xF5F DUP2 PUSH2 0xE60 JUMP JUMPDEST DUP2 EQ PUSH2 0xF69 JUMPI PUSH0 PUSH0 REVERT JUMPDEST POP JUMP JUMPDEST PUSH0 DUP2 CALLDATALOAD SWAP1 POP PUSH2 0xF7A DUP2 PUSH2 0xF56 JUMP JUMPDEST SWAP3 SWAP2 POP POP JUMP JUMPDEST PUSH0 PUSH1 0x20 DUP3 DUP5 SUB SLT ISZERO PUSH2 0xF95 JUMPI PUSH2 0xF94 PUSH2 0xF4E JUMP JUMPDEST JUMPDEST PUSH0 PUSH2 0xFA2 DUP5 DUP3 DUP6 ADD PUSH2 0xF6C JUMP JUMPDEST SWAP2 POP POP SWAP3 SWAP2 POP POP JUMP JUMPDEST PUSH0 DUP2 ISZERO ISZERO SWAP1 POP SWAP2 SWAP1 POP JUMP JUMPDEST PUSH2 0xFBF DUP2 PUSH2 0xFAB JUMP JUMPDEST DUP3 MSTORE POP POP JUMP JUMPDEST PUSH0 PUSH1 0x20 DUP3 ADD SWAP1 POP PUSH2 0xFD8 PUSH0 DUP4 ADD DUP5 PUSH2 0xFB6 JUMP JUMPDEST SWAP3 SWAP2 POP POP JUMP JUMPDEST PUSH0 PUSH20 0xFFFFFFFFFFFFFFFFFFFFFFFFFFFFFFFFFFFFFFFF DUP3 AND SWAP1 POP SWAP2 SWAP1 POP JUMP JUMPDEST PUSH0 DUP2 SWAP1 POP SWAP2 SWAP1 POP JUMP JUMPDEST PUSH0 PUSH2 0x1020 PUSH2 0x101B PUSH2 0x1016 DUP5 PUSH2 0xFDE JUMP JUMPDEST PUSH2 0xFFD JUMP JUMPDEST PUSH2 0xFDE JUMP JUMPDEST SWAP1 POP SWAP2 SWAP1 POP JUMP JUMPDEST PUSH0 PUSH2 0x1031 DUP3 PUSH2 0x1006 JUMP JUMPDEST SWAP1 POP SWAP2 SWAP1 POP JUMP JUMPDEST PUSH0 PUSH2 0x1042 DUP3 PUSH2 0x1027 JUMP JUMPDEST SWAP1 POP SWAP2 SWAP1 POP JUMP JUMPDEST PUSH2 0x1052 DUP2 PUSH2 0x1038 JUMP JUMPDEST DUP3 MSTORE POP POP JUMP JUMPDEST PUSH0 PUSH1 0x20 DUP3 ADD SWAP1 POP PUSH2 0x106B PUSH0 DUP4 ADD DUP5 PUSH2 0x1049 JUMP JUMPDEST SWAP3 SWAP2 POP POP JUMP JUMPDEST PUSH0 DUP2 MLOAD SWAP1 POP SWAP2 SWAP1 POP JUMP JUMPDEST PUSH0 DUP3 DUP3 MSTORE PUSH1 0x20 DUP3 ADD SWAP1 POP SWAP3 SWAP2 POP POP JUMP JUMPDEST DUP3 DUP2 DUP4 MCOPY PUSH0 DUP4 DUP4 ADD MSTORE POP POP POP JUMP JUMPDEST PUSH0 PUSH1 0x1F NOT PUSH1 0x1F DUP4 ADD AND SWAP1 POP SWAP2 SWAP1 POP JUMP JUMPDEST PUSH0 PUSH2 0x10B3 DUP3 PUSH2 0x1071 JUMP JUMPDEST PUSH2 0x10BD DUP2 DUP6 PUSH2 0x107B JUMP JUMPDEST SWAP4 POP PUSH2 0x10CD DUP2 DUP6 PUSH1 0x20 DUP7 ADD PUSH2 0x108B JUMP JUMPDEST PUSH2 0x10D6 DUP2 PUSH2 0x1099 JUMP JUMPDEST DUP5 ADD SWAP2 POP POP SWAP3 SWAP2 POP POP JUMP JUMPDEST PUSH0 PUSH1 0x20 DUP3 ADD SWAP1 POP DUP2 DUP2 SUB PUSH0 DUP4 ADD MSTORE PUSH2 0x10F9 DUP2 DUP5 PUSH2 0x10A9 JUMP JUMPDEST SWAP1 POP SWAP3 SWAP2 POP POP JUMP JUMPDEST PUSH0 DUP2 SWAP1 POP SWAP2 SWAP1 POP JUMP JUMPDEST PUSH2 0x1113 DUP2 PUSH2 0x1101 JUMP JUMPDEST DUP3 MSTORE POP POP JUMP JUMPDEST PUSH0 PUSH1 0x20 DUP3 ADD SWAP1 POP PUSH2 0x112C PUSH0 DUP4 ADD DUP5 PUSH2 0x110A JUMP JUMPDEST SWAP3 SWAP2 POP POP JUMP JUMPDEST PUSH2 0x113B DUP2 PUSH2 0xF17 JUMP JUMPDEST DUP2 EQ PUSH2 0x1145 JUMPI PUSH0 PUSH0 REVERT JUMPDEST POP JUMP JUMPDEST PUSH0 DUP2 CALLDATALOAD SWAP1 POP PUSH2 0x1156 DUP2 PUSH2 0x1132 JUMP JUMPDEST SWAP3 SWAP2 POP POP JUMP JUMPDEST PUSH0 PUSH1 0x20 DUP3 DUP5 SUB SLT ISZERO PUSH2 0x1171 JUMPI PUSH2 0x1170 PUSH2 0xF4E JUMP JUMPDEST JUMPDEST PUSH0 PUSH2 0x117E DUP5 DUP3 DUP6 ADD PUSH2 0x1148 JUMP JUMPDEST SWAP2 POP POP SWAP3 SWAP2 POP POP JUMP JUMPDEST PUSH2 0x1190 DUP2 PUSH2 0xE60 JUMP JUMPDEST DUP3 MSTORE POP POP JUMP JUMPDEST PUSH0 PUSH1 0x20 DUP3 ADD SWAP1 POP PUSH2 0x11A9 PUSH0 DUP4 ADD DUP5 PUSH2 0x1187 JUMP JUMPDEST SWAP3 SWAP2 POP POP JUMP JUMPDEST PUSH0 PUSH0 REVERT JUMPDEST PUSH0 PUSH0 REVERT JUMPDEST PUSH0 PUSH0 REVERT JUMPDEST PUSH0 PUSH0 DUP4 PUSH1 0x1F DUP5 ADD SLT PUSH2 0x11D0 JUMPI PUSH2 0x11CF PUSH2 0x11AF JUMP JUMPDEST JUMPDEST DUP3 CALLDATALOAD SWAP1 POP PUSH8 0xFFFFFFFFFFFFFFFF DUP2 GT ISZERO PUSH2 0x11ED JUMPI PUSH2 0x11EC PUSH2 0x11B3 JUMP JUMPDEST JUMPDEST PUSH1 0x20 DUP4 ADD SWAP2 POP DUP4 PUSH1 0x1 DUP3 MUL DUP4 ADD GT ISZERO PUSH2 0x1209 JUMPI PUSH2 0x1208 PUSH2 0x11B7 JUMP JUMPDEST JUMPDEST SWAP3 POP SWAP3 SWAP1 POP JUMP JUMPDEST PUSH0 PUSH2 0x121A DUP3 PUSH2 0xFDE JUMP JUMPDEST SWAP1 POP SWAP2 SWAP1 POP JUMP JUMPDEST PUSH2 0x122A DUP2 PUSH2 0x1210 JUMP JUMPDEST DUP2 EQ PUSH2 0x1234 JUMPI PUSH0 PUSH0 REVERT JUMPDEST POP JUMP JUMPDEST PUSH0 DUP2 CALLDATALOAD SWAP1 POP PUSH2 0x1245 DUP2 PUSH2 0x1221 JUMP JUMPDEST SWAP3 SWAP2 POP POP JUMP JUMPDEST PUSH0 PUSH0 PUSH0 PUSH0 PUSH0 PUSH1 0x80 DUP7 DUP9 SUB SLT ISZERO PUSH2 0x1264 JUMPI PUSH2 0x1263 PUSH2 0xF4E JUMP JUMPDEST JUMPDEST PUSH0 DUP7 ADD CALLDATALOAD PUSH8 0xFFFFFFFFFFFFFFFF DUP2 GT ISZERO PUSH2 0x1281 JUMPI PUSH2 0x1280 PUSH2 0xF52 JUMP JUMPDEST JUMPDEST PUSH2 0x128D DUP9 DUP3 DUP10 ADD PUSH2 0x11BB JUMP JUMPDEST SWAP6 POP SWAP6 POP POP PUSH1 0x20 PUSH2 0x12A0 DUP9 DUP3 DUP10 ADD PUSH2 0xF6C JUMP JUMPDEST SWAP4 POP POP PUSH1 0x40 PUSH2 0x12B1 DUP9 DUP3 DUP10 ADD PUSH2 0xF6C JUMP JUMPDEST SWAP3 POP POP PUSH1 0x60 PUSH2 0x12C2 DUP9 DUP3 DUP10 ADD PUSH2 0x1237 JUMP JUMPDEST SWAP2 POP POP SWAP3 SWAP6 POP SWAP3 SWAP6 SWAP1 SWAP4 POP JUMP JUMPDEST PUSH0 PUSH2 0x12D9 DUP3 PUSH2 0x1027 JUMP JUMPDEST SWAP1 POP SWAP2 SWAP1 POP JUMP JUMPDEST PUSH2 0x12E9 DUP2 PUSH2 0x12CF JUMP JUMPDEST DUP3 MSTORE POP POP JUMP JUMPDEST PUSH0 PUSH1 0x20 DUP3 ADD SWAP1 POP PUSH2 0x1302 PUSH0 DUP4 ADD DUP5 PUSH2 0x12E0 JUMP JUMPDEST SWAP3 SWAP2 POP POP JUMP JUMPDEST PUSH0 PUSH0 PUSH0 PUSH1 0x40 DUP5 DUP7 SUB SLT ISZERO PUSH2 0x131F JUMPI PUSH2 0x131E PUSH2 0xF4E JUMP JUMPDEST JUMPDEST PUSH0 PUSH2 0x132C DUP7 DUP3 DUP8 ADD PUSH2 0xF6C JUMP JUMPDEST SWAP4 POP POP PUSH1 0x20 DUP5 ADD CALLDATALOAD PUSH8 0xFFFFFFFFFFFFFFFF DUP2 GT ISZERO PUSH2 0x134D JUMPI PUSH2 0x134C PUSH2 0xF52 JUMP JUMPDEST JUMPDEST PUSH2 0x1359 DUP7 DUP3 DUP8 ADD PUSH2 0x11BB JUMP JUMPDEST SWAP3 POP SWAP3 POP POP SWAP3 POP SWAP3 POP SWAP3 JUMP JUMPDEST PUSH2 0x136E DUP2 PUSH2 0x1101 JUMP JUMPDEST DUP2 EQ PUSH2 0x1378 JUMPI PUSH0 PUSH0 REVERT JUMPDEST POP JUMP JUMPDEST PUSH0 DUP2 CALLDATALOAD SWAP1 POP PUSH2 0x1389 DUP2 PUSH2 0x1365 JUMP JUMPDEST SWAP3 SWAP2 POP POP JUMP JUMPDEST PUSH0 PUSH1 0x20 DUP3 DUP5 SUB SLT ISZERO PUSH2 0x13A4 JUMPI PUSH2 0x13A3 PUSH2 0xF4E JUMP JUMPDEST JUMPDEST PUSH0 PUSH2 0x13B1 DUP5 DUP3 DUP6 ADD PUSH2 0x137B JUMP JUMPDEST SWAP2 POP POP SWAP3 SWAP2 POP POP JUMP JUMPDEST PUSH32 0x4E487B7100000000000000000000000000000000000000000000000000000000 PUSH0 MSTORE PUSH1 0x41 PUSH1 0x4 MSTORE PUSH1 0x24 PUSH0 REVERT JUMPDEST PUSH32 0x4E487B7100000000000000000000000000000000000000000000000000000000 PUSH0 MSTORE PUSH1 0x32 PUSH1 0x4 MSTORE PUSH1 0x24 PUSH0 REVERT JUMPDEST PUSH32 0x4E487B7100000000000000000000000000000000000000000000000000000000 PUSH0 MSTORE PUSH1 0x22 PUSH1 0x4 MSTORE PUSH1 0x24 PUSH0 REVERT JUMPDEST PUSH0 PUSH1 0x2 DUP3 DIV SWAP1 POP PUSH1 0x1 DUP3 AND DUP1 PUSH2 0x1458 JUMPI PUSH1 0x7F DUP3 AND SWAP2 POP JUMPDEST PUSH1 0x20 DUP3 LT DUP2 SUB PUSH2 0x146B JUMPI PUSH2 0x146A PUSH2 0x1414 JUMP JUMPDEST JUMPDEST POP SWAP2 SWAP1 POP JUMP JUMPDEST DUP3 DUP2 DUP4 CALLDATACOPY PUSH0 DUP4 DUP4 ADD MSTORE POP POP POP JUMP JUMPDEST PUSH0 PUSH2 0x148A DUP4 DUP6 PUSH2 0x107B JUMP JUMPDEST SWAP4 POP PUSH2 0x1497 DUP4 DUP6 DUP5 PUSH2 0x1471 JUMP JUMPDEST PUSH2 0x14A0 DUP4 PUSH2 0x1099 JUMP JUMPDEST DUP5 ADD SWAP1 POP SWAP4 SWAP3 POP POP POP JUMP JUMPDEST PUSH0 PUSH1 0x40 DUP3 ADD SWAP1 POP DUP2 DUP2 SUB PUSH0 DUP4 ADD MSTORE PUSH2 0x14C4 DUP2 DUP6 DUP8 PUSH2 0x147F JUMP JUMPDEST SWAP1 POP DUP2 DUP2 SUB PUSH1 0x20 DUP4 ADD MSTORE PUSH2 0x14D8 DUP2 DUP5 PUSH2 0xE9B JUMP JUMPDEST SWAP1 POP SWAP5 SWAP4 POP POP POP POP JUMP JUMPDEST PUSH2 0x14EB DUP2 PUSH2 0xFAB JUMP JUMPDEST DUP2 EQ PUSH2 0x14F5 JUMPI PUSH0 PUSH0 REVERT JUMPDEST POP JUMP JUMPDEST PUSH0 DUP2 MLOAD SWAP1 POP PUSH2 0x1506 DUP2 PUSH2 0x14E2 JUMP JUMPDEST SWAP3 SWAP2 POP POP JUMP JUMPDEST PUSH0 PUSH1 0x20 DUP3 DUP5 SUB SLT ISZERO PUSH2 0x1521 JUMPI PUSH2 0x1520 PUSH2 0xF4E JUMP JUMPDEST JUMPDEST PUSH0 PUSH2 0x152E DUP5 DUP3 DUP6 ADD PUSH2 0x14F8 JUMP JUMPDEST SWAP2 POP POP SWAP3 SWAP2 POP POP JUMP JUMPDEST PUSH0 DUP2 SWAP1 POP SWAP3 SWAP2 POP POP JUMP JUMPDEST POP JUMP JUMPDEST PUSH0 PUSH2 0x154F PUSH0 DUP4 PUSH2 0x1537 JUMP JUMPDEST SWAP2 POP PUSH2 0x155A DUP3 PUSH2 0x1541 JUMP JUMPDEST PUSH0 DUP3 ADD SWAP1 POP SWAP2 SWAP1 POP JUMP JUMPDEST PUSH0 PUSH2 0x156E DUP3 PUSH2 0x1544 JUMP JUMPDEST SWAP2 POP DUP2 SWAP1 POP SWAP2 SWAP1 POP JUMP JUMPDEST PUSH0 DUP3 DUP3 MSTORE PUSH1 0x20 DUP3 ADD SWAP1 POP SWAP3 SWAP2 POP POP JUMP JUMPDEST PUSH32 0x4D4E54207472616E73666572206661696C656400000000000000000000000000 PUSH0 DUP3 ADD MSTORE POP JUMP JUMPDEST PUSH0 PUSH2 0x15BC PUSH1 0x13 DUP4 PUSH2 0x1578 JUMP JUMPDEST SWAP2 POP PUSH2 0x15C7 DUP3 PUSH2 0x1588 JUMP JUMPDEST PUSH1 0x20 DUP3 ADD SWAP1 POP SWAP2 SWAP1 POP JUMP JUMPDEST PUSH0 PUSH1 0x20 DUP3 ADD SWAP1 POP DUP2 DUP2 SUB PUSH0 DUP4 ADD MSTORE PUSH2 0x15E9 DUP2 PUSH2 0x15B0 JUMP JUMPDEST SWAP1 POP SWAP2 SWAP1 POP JUMP JUMPDEST PUSH32 0x4E487B7100000000000000000000000000000000000000000000000000000000 PUSH0 MSTORE PUSH1 0x11 PUSH1 0x4 MSTORE PUSH1 0x24 PUSH0 REVERT JUMPDEST PUSH0 PUSH2 0x1627 DUP3 PUSH2 0xF17 JUMP JUMPDEST SWAP2 POP PUSH4 0xFFFFFFFF DUP3 SUB PUSH2 0x163D JUMPI PUSH2 0x163C PUSH2 0x15F0 JUMP JUMPDEST JUMPDEST PUSH1 0x1 DUP3 ADD SWAP1 POP SWAP2 SWAP1 POP JUMP JUMPDEST PUSH0 PUSH1 0x2 SWAP1 POP SWAP2 SWAP1 POP JUMP JUMPDEST PUSH0 DUP2 SWAP1 POP SWAP3 SWAP2 POP POP JUMP JUMPDEST PUSH0 DUP2 SWAP1 POP SWAP2 SWAP1 POP JUMP JUMPDEST PUSH2 0x166E DUP2 PUSH2 0x1101 JUMP JUMPDEST DUP3 MSTORE POP POP JUMP JUMPDEST PUSH0 PUSH2 0x167F DUP4 DUP4 PUSH2 0x1665 JUMP JUMPDEST PUSH1 0x20 DUP4 ADD SWAP1 POP SWAP3 SWAP2 POP POP JUMP JUMPDEST PUSH0 PUSH1 0x20 DUP3 ADD SWAP1 POP SWAP2 SWAP1 POP JUMP JUMPDEST PUSH2 0x16A0 DUP2 PUSH2 0x1648 JUMP JUMPDEST PUSH2 0x16AA DUP2 DUP5 PUSH2 0x1652 JUMP JUMPDEST SWAP3 POP PUSH2 0x16B5 DUP3 PUSH2 0x165C JUMP JUMPDEST DUP1 PUSH0 JUMPDEST DUP4 DUP2 LT ISZERO PUSH2 0x16E5 JUMPI DUP2 MLOAD PUSH2 0x16CC DUP8 DUP3 PUSH2 0x1674 JUMP JUMPDEST SWAP7 POP PUSH2 0x16D7 DUP4 PUSH2 0x168B JUMP JUMPDEST SWAP3 POP POP PUSH1 0x1 DUP2 ADD SWAP1 POP PUSH2 0x16B8 JUMP JUMPDEST POP POP POP POP POP POP JUMP JUMPDEST PUSH0 PUSH1 0x40 DUP3 ADD SWAP1 POP PUSH2 0x1700 PUSH0 DUP4 ADD DUP5 PUSH2 0x1697 JUMP JUMPDEST SWAP3 SWAP2 POP POP JUMP JUMPDEST PUSH0 DUP2 MLOAD SWAP1 POP PUSH2 0x1714 DUP2 PUSH2 0x1365 JUMP JUMPDEST SWAP3 SWAP2 POP POP JUMP JUMPDEST PUSH0 PUSH1 0x20 DUP3 DUP5 SUB SLT ISZERO PUSH2 0x172F JUMPI PUSH2 0x172E PUSH2 0xF4E JUMP JUMPDEST JUMPDEST PUSH0 PUSH2 0x173C DUP5 DUP3 DUP6 ADD PUSH2 0x1706 JUMP JUMPDEST SWAP2 POP POP SWAP3 SWAP2 POP POP JUMP JUMPDEST PUSH0 DUP2 SWAP1 POP DUP2 PUSH0 MSTORE PUSH1 0x20 PUSH0 KECCAK256 SWAP1 POP SWAP2 SWAP1 POP JUMP JUMPDEST PUSH0 PUSH1 0x20 PUSH1 0x1F DUP4 ADD DIV SWAP1 POP SWAP2 SWAP1 POP JUMP JUMPDEST PUSH0 DUP3 DUP3 SHL SWAP1 POP SWAP3 SWAP2 POP POP JUMP JUMPDEST PUSH0 PUSH1 0x8 DUP4 MUL PUSH2 0x17A1 PUSH32 0xFFFFFFFFFFFFFFFFFFFFFFFFFFFFFFFFFFFFFFFFFFFFFFFFFFFFFFFFFFFFFFFF DUP3 PUSH2 0x1766 JUMP JUMPDEST PUSH2 0x17AB DUP7 DUP4 PUSH2 0x1766 JUMP JUMPDEST SWAP6 POP DUP1 NOT DUP5 AND SWAP4 POP DUP1 DUP7 AND DUP5 OR SWAP3 POP POP POP SWAP4 SWAP3 POP POP POP JUMP JUMPDEST PUSH0 PUSH2 0x17DD PUSH2 0x17D8 PUSH2 0x17D3 DUP5 PUSH2 0x1101 JUMP JUMPDEST PUSH2 0xFFD JUMP JUMPDEST PUSH2 0x1101 JUMP JUMPDEST SWAP1 POP SWAP2 SWAP1 POP JUMP JUMPDEST PUSH0 DUP2 SWAP1 POP SWAP2 SWAP1 POP JUMP JUMPDEST PUSH2 0x17F6 DUP4 PUSH2 0x17C3 JUMP JUMPDEST PUSH2 0x180A PUSH2 0x1802 DUP3 PUSH2 0x17E4 JUMP JUMPDEST DUP5 DUP5 SLOAD PUSH2 0x1772 JUMP JUMPDEST DUP3 SSTORE POP POP POP POP JUMP JUMPDEST PUSH0 PUSH0 SWAP1 POP SWAP1 JUMP JUMPDEST PUSH2 0x1821 PUSH2 0x1812 JUMP JUMPDEST PUSH2 0x182C DUP2 DUP5 DUP5 PUSH2 0x17ED JUMP JUMPDEST POP POP POP JUMP JUMPDEST JUMPDEST DUP2 DUP2 LT ISZERO PUSH2 0x184F JUMPI PUSH2 0x1844 PUSH0 DUP3 PUSH2 0x1819 JUMP JUMPDEST PUSH1 0x1 DUP2 ADD SWAP1 POP PUSH2 0x1832 JUMP JUMPDEST POP POP JUMP JUMPDEST PUSH1 0x1F DUP3 GT ISZERO PUSH2 0x1894 JUMPI PUSH2 0x1865 DUP2 PUSH2 0x1745 JUMP JUMPDEST PUSH2 0x186E DUP5 PUSH2 0x1757 JUMP JUMPDEST DUP2 ADD PUSH1 0x20 DUP6 LT ISZERO PUSH2 0x187D JUMPI DUP2 SWAP1 POP JUMPDEST PUSH2 0x1891 PUSH2 0x1889 DUP6 PUSH2 0x1757 JUMP JUMPDEST DUP4 ADD DUP3 PUSH2 0x1831 JUMP JUMPDEST POP POP JUMPDEST POP POP POP JUMP JUMPDEST PUSH0 DUP3 DUP3 SHR SWAP1 POP SWAP3 SWAP2 POP POP JUMP JUMPDEST PUSH0 PUSH2 0x18B4 PUSH0 NOT DUP5 PUSH1 0x8 MUL PUSH2 0x1899 JUMP JUMPDEST NOT DUP1 DUP4 AND SWAP2 POP POP SWAP3 SWAP2 POP POP JUMP JUMPDEST PUSH0 PUSH2 0x18CC DUP4 DUP4 PUSH2 0x18A5 JUMP JUMPDEST SWAP2 POP DUP3 PUSH1 0x2 MUL DUP3 OR SWAP1 POP SWAP3 SWAP2 POP POP JUMP JUMPDEST PUSH2 0x18E5 DUP3 PUSH2 0x1071 JUMP JUMPDEST PUSH8 0xFFFFFFFFFFFFFFFF DUP2 GT ISZERO PUSH2 0x18FE JUMPI PUSH2 0x18FD PUSH2 0x13BA JUMP JUMPDEST JUMPDEST PUSH2 0x1908 DUP3 SLOAD PUSH2 0x1441 JUMP JUMPDEST PUSH2 0x1913 DUP3 DUP3 DUP6 PUSH2 0x1853 JUMP JUMPDEST PUSH0 PUSH1 0x20 SWAP1 POP PUSH1 0x1F DUP4 GT PUSH1 0x1 DUP2 EQ PUSH2 0x1944 JUMPI PUSH0 DUP5 ISZERO PUSH2 0x1932 JUMPI DUP3 DUP8 ADD MLOAD SWAP1 POP JUMPDEST PUSH2 0x193C DUP6 DUP3 PUSH2 0x18C1 JUMP JUMPDEST DUP7 SSTORE POP PUSH2 0x19A3 JUMP JUMPDEST PUSH1 0x1F NOT DUP5 AND PUSH2 0x1952 DUP7 PUSH2 0x1745 JUMP JUMPDEST PUSH0 JUMPDEST DUP3 DUP2 LT ISZERO PUSH2 0x1979 JUMPI DUP5 DUP10 ADD MLOAD DUP3 SSTORE PUSH1 0x1 DUP3 ADD SWAP2 POP PUSH1 0x20 DUP6 ADD SWAP5 POP PUSH1 0x20 DUP2 ADD SWAP1 POP PUSH2 0x1954 JUMP JUMPDEST DUP7 DUP4 LT ISZERO PUSH2 0x1996 JUMPI DUP5 DUP10 ADD MLOAD PUSH2 0x1992 PUSH1 0x1F DUP10 AND DUP3 PUSH2 0x18A5 JUMP JUMPDEST DUP4 SSTORE POP JUMPDEST PUSH1 0x1 PUSH1 0x2 DUP9 MUL ADD DUP9 SSTORE POP POP POP JUMPDEST POP POP POP POP POP POP JUMP JUMPDEST PUSH0 PUSH2 0x19B5 DUP3 PUSH2 0xF17 JUMP JUMPDEST SWAP2 POP PUSH2 0x19C0 DUP4 PUSH2 0xF17 JUMP JUMPDEST SWAP3 POP DUP3 DUP3 SUB SWAP1 POP PUSH4 0xFFFFFFFF DUP2 GT ISZERO PUSH2 0x19DC JUMPI PUSH2 0x19DB PUSH2 0x15F0 JUMP JUMPDEST JUMPDEST SWAP3 SWAP2 POP POP JUMP INVALID LOG2 PUSH5 0x6970667358 0x22 SLT KECCAK256 REVERT AND SWAP3 PUSH14 0x4B71C34587A85F1D8AF103672E73 0xBB DUP1 0xE8 0xC8 SWAP12 0xBD 0x2D 0x29 0xE2 SWAP2 PUSH10 0x4D3E8664736F6C634300 ADDMOD 0x1F STOP CALLER "
		},
		"gasEstimates": {
			"creation": {
				"codeDepositCost": "1336000",
				"executionCost": "infinite",
				"totalCost": "infinite"
			},
			"external": {
				"DENOMINATION()": "392",
				"MAX_LEAVES()": "392",
				"TREE_DEPTH()": "375",
				"currentRoot()": "2535",
				"deposit(bytes32,bytes)": "infinite",
				"filledSubtrees(uint256)": "2788",
				"getAllFilledSubtrees()": "infinite",
				"getFilledSubtree(uint32)": "2859",
				"isSpent(bytes32)": "2899",
				"knownRoots(bytes32)": "2808",
				"nextIndex()": "2554",
				"notes(bytes32)": "infinite",
				"nullifierHashes(bytes32)": "2853",
				"poseidon()": "infinite",
				"verifier()": "infinite",
				"withdraw(bytes,bytes32,bytes32,address)": "infinite",
				"zeros(uint256)": "2743"
			}
		},
		"methodIdentifiers": {
			"DENOMINATION()": "8b01429d",
			"MAX_LEAVES()": "082febf0",
			"TREE_DEPTH()": "f1650536",
			"currentRoot()": "fdab463d",
			"deposit(bytes32,bytes)": "e29973fc",
			"filledSubtrees(uint256)": "f178e47c",
			"getAllFilledSubtrees()": "04d65f11",
			"getFilledSubtree(uint32)": "9c6ad114",
			"isSpent(bytes32)": "e5285dcc",
			"knownRoots(bytes32)": "4e73da7d",
			"nextIndex()": "fc7e9c6f",
			"notes(bytes32)": "85de26b7",
			"nullifierHashes(bytes32)": "17cc915c",
			"poseidon()": "c62b919e",
			"verifier()": "2b7ac3f3",
			"withdraw(bytes,bytes32,bytes32,address)": "b130eaa6",
			"zeros(uint256)": "e8295588"
		}
	},
	"abi": [
		{
			"inputs": [
				{
					"internalType": "address",
					"name": "_verifier",
					"type": "address"
				},
				{
					"internalType": "address",
					"name": "_poseidon",
					"type": "address"
				}
			],
			"stateMutability": "nonpayable",
			"type": "constructor"
		},
		{
			"inputs": [],
			"name": "InvalidDenomination",
			"type": "error"
		},
		{
			"inputs": [],
			"name": "InvalidProof",
			"type": "error"
		},
		{
			"inputs": [],
			"name": "NullifierAlreadyUsed",
			"type": "error"
		},
		{
			"inputs": [],
			"name": "TreeIsFull",
			"type": "error"
		},
		{
			"inputs": [],
			"name": "UnknownRoot",
			"type": "error"
		},
		{
			"anonymous": false,
			"inputs": [
				{
					"indexed": true,
					"internalType": "bytes32",
					"name": "commitment",
					"type": "bytes32"
				},
				{
					"indexed": false,
					"internalType": "uint32",
					"name": "leafIndex",
					"type": "uint32"
				}
			],
			"name": "Deposit",
			"type": "event"
		},
		{
			"anonymous": false,
			"inputs": [
				{
					"indexed": true,
					"internalType": "address",
					"name": "recipient",
					"type": "address"
				},
				{
					"indexed": false,
					"internalType": "bytes32",
					"name": "nullifierHash",
					"type": "bytes32"
				}
			],
			"name": "Withdrawal",
			"type": "event"
		},
		{
			"inputs": [],
			"name": "DENOMINATION",
			"outputs": [
				{
					"internalType": "uint256",
					"name": "",
					"type": "uint256"
				}
			],
			"stateMutability": "view",
			"type": "function"
		},
		{
			"inputs": [],
			"name": "MAX_LEAVES",
			"outputs": [
				{
					"internalType": "uint32",
					"name": "",
					"type": "uint32"
				}
			],
			"stateMutability": "view",
			"type": "function"
		},
		{
			"inputs": [],
			"name": "TREE_DEPTH",
			"outputs": [
				{
					"internalType": "uint32",
					"name": "",
					"type": "uint32"
				}
			],
			"stateMutability": "view",
			"type": "function"
		},
		{
			"inputs": [],
			"name": "currentRoot",
			"outputs": [
				{
					"internalType": "bytes32",
					"name": "",
					"type": "bytes32"
				}
			],
			"stateMutability": "view",
			"type": "function"
		},
		{
			"inputs": [
				{
					"internalType": "bytes32",
					"name": "commitment",
					"type": "bytes32"
				},
				{
					"internalType": "bytes",
					"name": "encryptedNote",
					"type": "bytes"
				}
			],
			"name": "deposit",
			"outputs": [],
			"stateMutability": "payable",
			"type": "function"
		},
		{
			"inputs": [
				{
					"internalType": "uint256",
					"name": "",
					"type": "uint256"
				}
			],
			"name": "filledSubtrees",
			"outputs": [
				{
					"internalType": "bytes32",
					"name": "",
					"type": "bytes32"
				}
			],
			"stateMutability": "view",
			"type": "function"
		},
		{
			"inputs": [],
			"name": "getAllFilledSubtrees",
			"outputs": [
				{
					"internalType": "bytes32[]",
					"name": "",
					"type": "bytes32[]"
				}
			],
			"stateMutability": "view",
			"type": "function"
		},
		{
			"inputs": [
				{
					"internalType": "uint32",
					"name": "index",
					"type": "uint32"
				}
			],
			"name": "getFilledSubtree",
			"outputs": [
				{
					"internalType": "bytes32",
					"name": "",
					"type": "bytes32"
				}
			],
			"stateMutability": "view",
			"type": "function"
		},
		{
			"inputs": [
				{
					"internalType": "bytes32",
					"name": "nullifierHash",
					"type": "bytes32"
				}
			],
			"name": "isSpent",
			"outputs": [
				{
					"internalType": "bool",
					"name": "",
					"type": "bool"
				}
			],
			"stateMutability": "view",
			"type": "function"
		},
		{
			"inputs": [
				{
					"internalType": "bytes32",
					"name": "",
					"type": "bytes32"
				}
			],
			"name": "knownRoots",
			"outputs": [
				{
					"internalType": "bool",
					"name": "",
					"type": "bool"
				}
			],
			"stateMutability": "view",
			"type": "function"
		},
		{
			"inputs": [],
			"name": "nextIndex",
			"outputs": [
				{
					"internalType": "uint32",
					"name": "",
					"type": "uint32"
				}
			],
			"stateMutability": "view",
			"type": "function"
		},
		{
			"inputs": [
				{
					"internalType": "bytes32",
					"name": "",
					"type": "bytes32"
				}
			],
			"name": "notes",
			"outputs": [
				{
					"internalType": "bytes",
					"name": "ciphertext",
					"type": "bytes"
				}
			],
			"stateMutability": "view",
			"type": "function"
		},
		{
			"inputs": [
				{
					"internalType": "bytes32",
					"name": "",
					"type": "bytes32"
				}
			],
			"name": "nullifierHashes",
			"outputs": [
				{
					"internalType": "bool",
					"name": "",
					"type": "bool"
				}
			],
			"stateMutability": "view",
			"type": "function"
		},
		{
			"inputs": [],
			"name": "poseidon",
			"outputs": [
				{
					"internalType": "contract IPoseidonT2",
					"name": "",
					"type": "address"
				}
			],
			"stateMutability": "view",
			"type": "function"
		},
		{
			"inputs": [],
			"name": "verifier",
			"outputs": [
				{
					"internalType": "contract IVerifier",
					"name": "",
					"type": "address"
				}
			],
			"stateMutability": "view",
			"type": "function"
		},
		{
			"inputs": [
				{
					"internalType": "bytes",
					"name": "proof",
					"type": "bytes"
				},
				{
					"internalType": "bytes32",
					"name": "root",
					"type": "bytes32"
				},
				{
					"internalType": "bytes32",
					"name": "nullifierHash",
					"type": "bytes32"
				},
				{
					"internalType": "address payable",
					"name": "recipient",
					"type": "address"
				}
			],
			"name": "withdraw",
			"outputs": [],
			"stateMutability": "nonpayable",
			"type": "function"
		},
		{
			"inputs": [
				{
					"internalType": "uint256",
					"name": "",
					"type": "uint256"
				}
			],
			"name": "zeros",
			"outputs": [
				{
					"internalType": "bytes32",
					"name": "",
					"type": "bytes32"
				}
			],
			"stateMutability": "view",
			"type": "function"
		}
	]
}