{
	"data": {
		"bytecode": {
			"linkReferences": {},
			"object": "60c06040525f600255348015610013575f5ffd5b50604051611823380380611823833981016040819052610032916102c5565b5f805460ff19169055338061006057604051631e4fbdf760e01b81525f600482015260240160405180910390fd5b61006981610252565b50600180556001600160a01b03808316608052811660a08190526040805180820182525f8082526020820181905291516314d2f97b60e11b81529192916329a5f2f6916100b8916004016102f6565b602060405180830381865afa1580156100d3573d5f5f3e3d5ffd5b505050506040513d601f19601f820116820180604052508101906100f79190610326565b6003819055905060015b601463ffffffff821610156101b55760a0516040805180820182528481526020810185905290516314d2f97b60e11b81526001600160a01b03909216916329a5f2f691610150916004016102f6565b602060405180830381865afa15801561016b573d5f5f3e3d5ffd5b505050506040513d601f19601f8201168201806040525081019061018f9190610326565b915081600363ffffffff8316601481106101ab576101ab61033d565b0155600101610101565b505f5b601463ffffffff821610156102055760038163ffffffff16601481106101e0576101e061033d565b015460178263ffffffff16601481106101fb576101fb61033d565b01556001016101b8565b50600361021460016014610351565b63ffffffff166014811061022a5761022a61033d565b0154602b8190555f908152602e60205260409020805460ff191660011790555061037f915050565b5f80546001600160a01b03838116610100818102610100600160a81b0319851617855560405193049190911692909183917f8be0079c531659141344cd1fd0a4f28419497f9722a3daafe3b4186f6b6457e091a35050565b80516001600160a01b03811681146102c0575f5ffd5b919050565b5f5f604083850312156102d6575f5ffd5b6102df836102aa565b91506102ed602084016102aa565b90509250929050565b6040810181835f5b600281101561031d5781518352602092830192909101906001016102fe565b50505092915050565b5f60208284031215610336575f5ffd5b5051919050565b634e487b7160e01b5f52603260045260245ffd5b63ffffffff828116828216039081111561037957634e487b7160e01b5f52601160045260245ffd5b92915050565b60805160a05161146e6103b55f395f818161045301528181610d1b0152610ddf01525f81816102bb0152610a24015261146e5ff3fe6080604052600436106101ba575f3560e01c80638b01429d116100f2578063e829558811610092578063f9f92be411610062578063f9f92be414610514578063fc7e9c6f14610533578063fdab463d1461054f578063fe575a8714610564575f5ffd5b8063e8295588146104a3578063f1650536146104c2578063f178e47c146104d6578063f2fde38b146104f5575f5ffd5b8063b130eaa6116100cd578063b130eaa614610410578063b214faa51461042f578063c62b919e14610442578063e5285dcc14610475575f5ffd5b80638b01429d1461039d5780638da5cb5b146103b857806390683e8c146103d9575f5ffd5b80633f4ba83a1161015d5780635c975abb116101385780635c975abb1461034b578063715018a6146103615780637be441d1146103755780638456cb5914610389575f5ffd5b80633f4ba83a146102f557806340f6ac31146103095780634e73da7d1461031d575f5ffd5b806314a0394e1161019857806314a0394e1461022c578063164e68de1461024d57806317cc915c1461026c5780632b7ac3f3146102aa575f5ffd5b8063082febf0146101be5780630b4501fd146101ee57806313114a9d14610217575b5f5ffd5b3480156101c9575f5ffd5b506101d46210000081565b60405163ffffffff90911681526020015b60405180910390f35b3480156101f9575f5ffd5b5061020967016345785d8a000081565b6040519081526020016101e5565b348015610222575f5ffd5b5061020960025481565b348015610237575f5ffd5b5061024b61024636600461120e565b610592565b005b348015610258575f5ffd5b5061024b61026736600461120e565b6105f1565b348015610277575f5ffd5b5061029a610286366004611230565b602d6020525f908152604090205460ff1681565b60405190151581526020016101e5565b3480156102b5575f5ffd5b506102dd7f000000000000000000000000000000000000000000000000000000000000000081565b6040516001600160a01b0390911681526020016101e5565b348015610300575f5ffd5b5061024b610780565b348015610314575f5ffd5b5061024b610792565b348015610328575f5ffd5b5061029a610337366004611230565b602e6020525f908152604090205460ff1681565b348015610356575f5ffd5b505f5460ff1661029a565b34801561036c575f5ffd5b5061024b6108c2565b348015610380575f5ffd5b50600254610209565b348015610394575f5ffd5b5061024b6108d3565b3480156103a8575f5ffd5b50610209670de0b6b3a764000081565b3480156103c3575f5ffd5b505f5461010090046001600160a01b03166102dd565b3480156103e4575f5ffd5b5061029a6103f336600461120e565b6001600160a01b03165f908152602f602052604090205460ff1690565b34801561041b575f5ffd5b5061024b61042a366004611247565b6108e3565b61024b61043d366004611230565b610bbf565b34801561044d575f5ffd5b506102dd7f000000000000000000000000000000000000000000000000000000000000000081565b348015610480575f5ffd5b5061029a61048f366004611230565b5f908152602d602052604090205460ff1690565b3480156104ae575f5ffd5b506102096104bd366004611230565b610f43565b3480156104cd575f5ffd5b506101d4601481565b3480156104e1575f5ffd5b506102096104f0366004611230565b610f59565b348015610500575f5ffd5b5061024b61050f36600461120e565b610f68565b34801561051f575f5ffd5b5061024b61052e36600461120e565b610fa2565b34801561053e575f5ffd5b50602c546101d49063ffffffff1681565b34801561055a575f5ffd5b50610209602b5481565b34801561056f575f5ffd5b5061029a61057e36600461120e565b602f6020525f908152604090205460ff1681565b61059a610ffd565b6001600160a01b0381165f818152602f6020908152604091829020805460ff1916905590519182527f258edb8cc3ac42ac5670d060ab55b20f4d1a16137ceadae6212705aaedab5d1e91015b60405180910390a150565b6105f9610ffd565b61060161102f565b5f6002541161064d5760405162461bcd60e51b81526020600482015260136024820152726e6f206665657320746f20776974686472617760681b60448201526064015b60405180910390fd5b6001600160a01b0381166106965760405162461bcd60e51b815260206004820152601060248201526f696e76616c696420747265617375727960801b6044820152606401610644565b600280545f918290556040519091906001600160a01b0384169083908381818185875af1925050503d805f81146106e8576040519150601f19603f3d011682016040523d82523d5f602084013e6106ed565b606091505b50509050806107305760405162461bcd60e51b815260206004820152600f60248201526e1dda5d1a191c985dc819985a5b1959608a1b6044820152606401610644565b604080516001600160a01b0385168152602081018490527fee33a3a9cb48e4ff209f8b1c67c4632f1dbbf55aeff8e6f17d957ade7a6fb17c910160405180910390a1505061077d60018055565b50565b610788610ffd565b610790611088565b565b61079a610ffd565b6107a261102f565b6107aa6110d9565b5f600254116107ed5760405162461bcd60e51b815260206004820152600f60248201526e3737903332b2b9903a3790313ab93760891b6044820152606401610644565b600280545f9182905560405190919061dead9083908381818185875af1925050503d805f8114610838576040519150601f19603f3d011682016040523d82523d5f602084013e61083d565b606091505b505090508061087c5760405162461bcd60e51b815260206004820152600b60248201526a189d5c9b8819985a5b195960aa1b6044820152606401610644565b6040805161dead8152602081018490527f0d9575a73e2a7da16cfde907df749d23d901528ff2e7c832b731babdecca000b910160405180910390a1505061079060018055565b6108ca610ffd565b6107905f611121565b6108db610ffd565b610790611179565b6108eb6111b5565b6108f361102f565b6001600160a01b0381165f908152602f602052604090205460ff16156109525760405162461bcd60e51b81526020600482015260146024820152731c9958da5c1a595b9d081cd85b98dd1a5bdb995960621b6044820152606401610644565b5f828152602d602052604090205460ff161561098157604051636569570160e11b815260040160405180910390fd5b5f838152602e602052604090205460ff166109af57604051634629008b60e11b815260040160405180910390fd5b6040805160028082526060820183525f9260208301908036833701905050905083815f815181106109e2576109e26112d9565b6020026020010181815250508281600181518110610a0257610a026112d9565b6020908102919091010152604051633a94343960e21b81526001600160a01b037f0000000000000000000000000000000000000000000000000000000000000000169063ea50d0e490610a5d908990899086906004016112ed565b602060405180830381865afa158015610a78573d5f5f3e3d5ffd5b505050506040513d601f19601f82011682018060405250810190610a9c9190611365565b610ab9576040516309bde33960e01b815260040160405180910390fd5b5f838152602d6020526040808220805460ff19166001179055516001600160a01b03841690670de0b6b3a7640000908381818185875af1925050503d805f8114610b1e576040519150601f19603f3d011682016040523d82523d5f602084013e610b23565b606091505b5050905080610b6a5760405162461bcd60e51b8152602060048201526013602482015272135395081d1c985b9cd9995c8819985a5b1959606a1b6044820152606401610644565b826001600160a01b03167f0ce490531f6c8ae2f1ff174643bc8b7ed5e52987ab50dc1e8f33655d2cd8c90b85604051610ba591815260200190565b60405180910390a25050610bb860018055565b5050505050565b610bc76111b5565b335f908152602f602052604090205460ff1615610c3d5760405162461bcd60e51b815260206004820152602e60248201527f74686973206164647265737320697320626c61636b6c697374656420616e642060448201526d18d85b9b9bdd0819195c1bdcda5d60921b6064820152608401610644565b5f610c5867016345785d8a0000670de0b6b3a7640000611398565b9050803414610c7a57604051637833d9e360e11b815260040160405180910390fd5b602c546210000063ffffffff90911610610ca757604051633b5ccb4360e21b815260040160405180910390fd5b602c805463ffffffff169081905f610cbe836113b1565b825463ffffffff9182166101009390930a928302919092021990911617905550825f5b601463ffffffff82161015610eaf57600183165f03610ddd5781601763ffffffff831660148110610d1457610d146112d9565b01819055507f00000000000000000000000000000000000000000000000000000000000000006001600160a01b03166329a5f2f6604051806040016040528085815260200160038563ffffffff1660148110610d7257610d726112d9565b015490526040516001600160e01b031960e084901b168152610d9791906004016113d5565b602060405180830381865afa158015610db2573d5f5f3e3d5ffd5b505050506040513d601f19601f82011682018060405250810190610dd69190611405565b9150610e9d565b7f00000000000000000000000000000000000000000000000000000000000000006001600160a01b03166329a5f2f6604051806040016040528060178563ffffffff1660148110610e3057610e306112d9565b015481526020018590526040516001600160e01b031960e084901b168152610e5b91906004016113d5565b602060405180830381865afa158015610e76573d5f5f3e3d5ffd5b505050506040513d601f19601f82011682018060405250810190610e9a9190611405565b91505b637fffffff600193841c169201610ce1565b50602b8190555f818152602e60205260408120805460ff191660011790556002805467016345785d8a00009290610ee7908490611398565b9091555050602c5484907f84fc9eb8cd0a782a1d1734fbeed616bd0ef775f8b9bd437636b62d634fe4baf390610f259060019063ffffffff1661141c565b60405163ffffffff909116815260200160405180910390a250505050565b60038160148110610f52575f80fd5b0154905081565b60178160148110610f52575f80fd5b610f70610ffd565b6001600160a01b038116610f9957604051631e4fbdf760e01b81525f6004820152602401610644565b61077d81611121565b610faa610ffd565b6001600160a01b0381165f818152602f6020908152604091829020805460ff1916600117905590519182527fffa4e6181777692565cf28528fc88fd1516ea86b56da075235fa575af6a4b85591016105e6565b5f546001600160a01b036101009091041633146107905760405163118cdaa760e01b8152336004820152602401610644565b6002600154036110815760405162461bcd60e51b815260206004820152601f60248201527f5265656e7472616e637947756172643a207265656e7472616e742063616c6c006044820152606401610644565b6002600155565b6110906110d9565b5f805460ff191690557f5db9ee0a495bf2e6ff9c91a7834c1ba4fdd244a5e8aa4e537bd38aeae4b073aa335b6040516001600160a01b03909116815260200160405180910390a1565b5f5460ff166107905760405162461bcd60e51b815260206004820152601460248201527314185d5cd8589b194e881b9bdd081c185d5cd95960621b6044820152606401610644565b5f80546001600160a01b03838116610100818102610100600160a81b0319851617855560405193049190911692909183917f8be0079c531659141344cd1fd0a4f28419497f9722a3daafe3b4186f6b6457e091a35050565b6111816111b5565b5f805460ff191660011790557f62e78cea01bee320cd4e420270b5ea74000d11b0c9f74754ebdbfc544b05a2586110bc3390565b5f5460ff16156107905760405162461bcd60e51b815260206004820152601060248201526f14185d5cd8589b194e881c185d5cd95960821b6044820152606401610644565b6001600160a01b038116811461077d575f5ffd5b5f6020828403121561121e575f5ffd5b8135611229816111fa565b9392505050565b5f60208284031215611240575f5ffd5b5035919050565b5f5f5f5f5f6080868803121561125b575f5ffd5b853567ffffffffffffffff811115611271575f5ffd5b8601601f81018813611281575f5ffd5b803567ffffffffffffffff811115611297575f5ffd5b8860208284010111156112a8575f5ffd5b60209182019650945086013592506040860135915060608601356112cb816111fa565b809150509295509295909350565b634e487b7160e01b5f52603260045260245ffd5b60408152826040820152828460608301375f606084830101525f601f19601f85011682016060810160608483030160208501528085518083526080840191506020870193505f92505b808310156113595783518252602082019150602084019350600183019250611336565b50979650505050505050565b5f60208284031215611375575f5ffd5b81518015158114611229575f5ffd5b634e487b7160e01b5f52601160045260245ffd5b808201808211156113ab576113ab611384565b92915050565b5f63ffffffff821663ffffffff81036113cc576113cc611384565b60010192915050565b6040810181835f5b60028110156113fc5781518352602092830192909101906001016113dd565b50505092915050565b5f60208284031215611415575f5ffd5b5051919050565b63ffffffff82811682821603908111156113ab576113ab61138456fea264697066735822122097345c7ee9cde15329d112120b9e0f21addb544d515da91ed60f7611d96bdb8a64736f6c634300081f0033",
			"opcodes": "PUSH1 0xC0 PUSH1 0x40 MSTORE PUSH0 PUSH1 0x2 SSTORE CALLVALUE DUP1 ISZERO PUSH2 0x13 JUMPI PUSH0 PUSH0 REVERT JUMPDEST POP PUSH1 0x40 MLOAD PUSH2 0x1823 CODESIZE SUB DUP1 PUSH2 0x1823 DUP4 CODECOPY DUP2 ADD PUSH1 0x40 DUP2 SWAP1 MSTORE PUSH2 0x32 SWAP2 PUSH2 0x2C5 JUMP JUMPDEST PUSH0 DUP1 SLOAD PUSH1 0xFF NOT AND SWAP1 SSTORE CALLER DUP1 PUSH2 0x60 JUMPI PUSH1 0x40 MLOAD PUSH4 0x1E4FBDF7 PUSH1 0xE0 SHL DUP2 MSTORE PUSH0 PUSH1 0x4 DUP3 ADD MSTORE PUSH1 0x24 ADD PUSH1 0x40 MLOAD DUP1 SWAP2 SUB SWAP1 REVERT JUMPDEST PUSH2 0x69 DUP2 PUSH2 0x252 JUMP JUMPDEST POP PUSH1 0x1 DUP1 SSTORE PUSH1 0x1 PUSH1 0x1 PUSH1 0xA0 SHL SUB DUP1 DUP4 AND PUSH1 0x80 MSTORE DUP2 AND PUSH1 0xA0 DUP2 SWAP1 MSTORE PUSH1 0x40 DUP1 MLOAD DUP1 DUP3 ADD DUP3 MSTORE PUSH0 DUP1 DUP3 MSTORE PUSH1 0x20 DUP3 ADD DUP2 SWAP1 MSTORE SWAP2 MLOAD PUSH4 0x14D2F97B PUSH1 0xE1 SHL DUP2 MSTORE SWAP2 SWAP3 SWAP2 PUSH4 0x29A5F2F6 SWAP2 PUSH2 0xB8 SWAP2 PUSH1 0x4 ADD PUSH2 0x2F6 JUMP JUMPDEST PUSH1 0x20 PUSH1 0x40 MLOAD DUP1 DUP4 SUB DUP2 DUP7 GAS STATICCALL ISZERO DUP1 ISZERO PUSH2 0xD3 JUMPI RETURNDATASIZE PUSH0 PUSH0 RETURNDATACOPY RETURNDATASIZE PUSH0 REVERT JUMPDEST POP POP POP POP PUSH1 0x40 MLOAD RETURNDATASIZE PUSH1 0x1F NOT PUSH1 0x1F DUP3 ADD AND DUP3 ADD DUP1 PUSH1 0x40 MSTORE POP DUP2 ADD SWAP1 PUSH2 0xF7 SWAP2 SWAP1 PUSH2 0x326 JUMP JUMPDEST PUSH1 0x3 DUP2 SWAP1 SSTORE SWAP1 POP PUSH1 0x1 JUMPDEST PUSH1 0x14 PUSH4 0xFFFFFFFF DUP3 AND LT ISZERO PUSH2 0x1B5 JUMPI PUSH1 0xA0 MLOAD PUSH1 0x40 DUP1 MLOAD DUP1 DUP3 ADD DUP3 MSTORE DUP5 DUP2 MSTORE PUSH1 0x20 DUP2 ADD DUP6 SWAP1 MSTORE SWAP1 MLOAD PUSH4 0x14D2F97B PUSH1 0xE1 SHL DUP2 MSTORE PUSH1 0x1 PUSH1 0x1 PUSH1 0xA0 SHL SUB SWAP1 SWAP3 AND SWAP2 PUSH4 0x29A5F2F6 SWAP2 PUSH2 0x150 SWAP2 PUSH1 0x4 ADD PUSH2 0x2F6 JUMP JUMPDEST PUSH1 0x20 PUSH1 0x40 MLOAD DUP1 DUP4 SUB DUP2 DUP7 GAS STATICCALL ISZERO DUP1 ISZERO PUSH2 0x16B JUMPI RETURNDATASIZE PUSH0 PUSH0 RETURNDATACOPY RETURNDATASIZE PUSH0 REVERT JUMPDEST POP POP POP POP PUSH1 0x40 MLOAD RETURNDATASIZE PUSH1 0x1F NOT PUSH1 0x1F DUP3 ADD AND DUP3 ADD DUP1 PUSH1 0x40 MSTORE POP DUP2 ADD SWAP1 PUSH2 0x18F SWAP2 SWAP1 PUSH2 0x326 JUMP JUMPDEST SWAP2 POP DUP2 PUSH1 0x3 PUSH4 0xFFFFFFFF DUP4 AND PUSH1 0x14 DUP2 LT PUSH2 0x1AB JUMPI PUSH2 0x1AB PUSH2 0x33D JUMP JUMPDEST ADD SSTORE PUSH1 0x1 ADD PUSH2 0x101 JUMP JUMPDEST POP PUSH0 JUMPDEST PUSH1 0x14 PUSH4 0xFFFFFFFF DUP3 AND LT ISZERO PUSH2 0x205 JUMPI PUSH1 0x3 DUP2 PUSH4 0xFFFFFFFF AND PUSH1 0x14 DUP2 LT PUSH2 0x1E0 JUMPI PUSH2 0x1E0 PUSH2 0x33D JUMP JUMPDEST ADD SLOAD PUSH1 0x17 DUP3 PUSH4 0xFFFFFFFF AND PUSH1 0x14 DUP2 LT PUSH2 0x1FB JUMPI PUSH2 0x1FB PUSH2 0x33D JUMP JUMPDEST ADD SSTORE PUSH1 0x1 ADD PUSH2 0x1B8 JUMP JUMPDEST POP PUSH1 0x3 PUSH2 0x214 PUSH1 0x1 PUSH1 0x14 PUSH2 0x351 JUMP JUMPDEST PUSH4 0xFFFFFFFF AND PUSH1 0x14 DUP2 LT PUSH2 0x22A JUMPI PUSH2 0x22A PUSH2 0x33D JUMP JUMPDEST ADD SLOAD PUSH1 0x2B DUP2 SWAP1 SSTORE PUSH0 SWAP1 DUP2 MSTORE PUSH1 0x2E PUSH1 0x20 MSTORE PUSH1 0x40 SWAP1 KECCAK256 DUP1 SLOAD PUSH1 0xFF NOT AND PUSH1 0x1 OR SWAP1 SSTORE POP PUSH2 0x37F SWAP2 POP POP JUMP JUMPDEST PUSH0 DUP1 SLOAD PUSH1 0x1 PUSH1 0x1 PUSH1 0xA0 SHL SUB DUP4 DUP2 AND PUSH2 0x100 DUP2 DUP2 MUL PUSH2 0x100 PUSH1 0x1 PUSH1 0xA8 SHL SUB NOT DUP6 AND OR DUP6 SSTORE PUSH1 0x40 MLOAD SWAP4 DIV SWAP2 SWAP1 SWAP2 AND SWAP3 SWAP1 SWAP2 DUP4 SWAP2 PUSH32 0x8BE0079C531659141344CD1FD0A4F28419497F9722A3DAAFE3B4186F6B6457E0 SWAP2 LOG3 POP POP JUMP JUMPDEST DUP1 MLOAD PUSH1 0x1 PUSH1 0x1 PUSH1 0xA0 SHL SUB DUP2 AND DUP2 EQ PUSH2 0x2C0 JUMPI PUSH0 PUSH0 REVERT JUMPDEST SWAP2 SWAP1 POP JUMP JUMPDEST PUSH0 PUSH0 PUSH1 0x40 DUP4 DUP6 SUB SLT ISZERO PUSH2 0x2D6 JUMPI PUSH0 PUSH0 REVERT JUMPDEST PUSH2 0x2DF DUP4 PUSH2 0x2AA JUMP JUMPDEST SWAP2 POP PUSH2 0x2ED PUSH1 0x20 DUP5 ADD PUSH2 0x2AA JUMP JUMPDEST SWAP1 POP SWAP3 POP SWAP3 SWAP1 POP JUMP JUMPDEST PUSH1 0x40 DUP2 ADD DUP2 DUP4 PUSH0 JUMPDEST PUSH1 0x2 DUP2 LT ISZERO PUSH2 0x31D JUMPI DUP2 MLOAD DUP4 MSTORE PUSH1 0x20 SWAP3 DUP4 ADD SWAP3 SWAP1 SWAP2 ADD SWAP1 PUSH1 0x1 ADD PUSH2 0x2FE JUMP JUMPDEST POP POP POP SWAP3 SWAP2 POP POP JUMP JUMPDEST PUSH0 PUSH1 0x20 DUP3 DUP5 SUB SLT ISZERO PUSH2 0x336 JUMPI PUSH0 PUSH0 REVERT JUMPDEST POP MLOAD SWAP2 SWAP1 POP JUMP JUMPDEST PUSH4 0x4E487B71 PUSH1 0xE0 SHL PUSH0 MSTORE PUSH1 0x32 PUSH1 0x4 MSTORE PUSH1 0x24 PUSH0 REVERT JUMPDEST PUSH4 0xFFFFFFFF DUP3 DUP2 AND DUP3 DUP3 AND SUB SWAP1 DUP2 GT ISZERO PUSH2 0x379 JUMPI PUSH4 0x4E487B71 PUSH1 0xE0 SHL PUSH0 MSTORE PUSH1 0x11 PUSH1 0x4 MSTORE PUSH1 0x24 PUSH0 REVERT JUMPDEST SWAP3 SWAP2 POP POP JUMP JUMPDEST PUSH1 0x80 MLOAD PUSH1 0xA0 MLOAD PUSH2 0x146E PUSH2 0x3B5 PUSH0 CODECOPY PUSH0 DUP2 DUP2 PUSH2 0x453 ADD MSTORE DUP2 DUP2 PUSH2 0xD1B ADD MSTORE PUSH2 0xDDF ADD MSTORE PUSH0 DUP2 DUP2 PUSH2 0x2BB ADD MSTORE PUSH2 0xA24 ADD MSTORE PUSH2 0x146E PUSH0 RETURN INVALID PUSH1 0x80 PUSH1 0x40 MSTORE PUSH1 0x4 CALLDATASIZE LT PUSH2 0x1BA JUMPI PUSH0 CALLDATALOAD PUSH1 0xE0 SHR DUP1 PUSH4 0x8B01429D GT PUSH2 0xF2 JUMPI DUP1 PUSH4 0xE8295588 GT PUSH2 0x92 JUMPI DUP1 PUSH4 0xF9F92BE4 GT PUSH2 0x62 JUMPI DUP1 PUSH4 0xF9F92BE4 EQ PUSH2 0x514 JUMPI DUP1 PUSH4 0xFC7E9C6F EQ PUSH2 0x533 JUMPI DUP1 PUSH4 0xFDAB463D EQ PUSH2 0x54F JUMPI DUP1 PUSH4 0xFE575A87 EQ PUSH2 0x564 JUMPI PUSH0 PUSH0 REVERT JUMPDEST DUP1 PUSH4 0xE8295588 EQ PUSH2 0x4A3 JUMPI DUP1 PUSH4 0xF1650536 EQ PUSH2 0x4C2 JUMPI DUP1 PUSH4 0xF178E47C EQ PUSH2 0x4D6 JUMPI DUP1 PUSH4 0xF2FDE38B EQ PUSH2 0x4F5 JUMPI PUSH0 PUSH0 REVERT JUMPDEST DUP1 PUSH4 0xB130EAA6 GT PUSH2 0xCD JUMPI DUP1 PUSH4 0xB130EAA6 EQ PUSH2 0x410 JUMPI DUP1 PUSH4 0xB214FAA5 EQ PUSH2 0x42F JUMPI DUP1 PUSH4 0xC62B919E EQ PUSH2 0x442 JUMPI DUP1 PUSH4 0xE5285DCC EQ PUSH2 0x475 JUMPI PUSH0 PUSH0 REVERT JUMPDEST DUP1 PUSH4 0x8B01429D EQ PUSH2 0x39D JUMPI DUP1 PUSH4 0x8DA5CB5B EQ PUSH2 0x3B8 JUMPI DUP1 PUSH4 0x90683E8C EQ PUSH2 0x3D9 JUMPI PUSH0 PUSH0 REVERT JUMPDEST DUP1 PUSH4 0x3F4BA83A GT PUSH2 0x15D JUMPI DUP1 PUSH4 0x5C975ABB GT PUSH2 0x138 JUMPI DUP1 PUSH4 0x5C975ABB EQ PUSH2 0x34B JUMPI DUP1 PUSH4 0x715018A6 EQ PUSH2 0x361 JUMPI DUP1 PUSH4 0x7BE441D1 EQ PUSH2 0x375 JUMPI DUP1 PUSH4 0x8456CB59 EQ PUSH2 0x389 JUMPI PUSH0 PUSH0 REVERT JUMPDEST DUP1 PUSH4 0x3F4BA83A EQ PUSH2 0x2F5 JUMPI DUP1 PUSH4 0x40F6AC31 EQ PUSH2 0x309 JUMPI DUP1 PUSH4 0x4E73DA7D EQ PUSH2 0x31D JUMPI PUSH0 PUSH0 REVERT JUMPDEST DUP1 PUSH4 0x14A0394E GT PUSH2 0x198 JUMPI DUP1 PUSH4 0x14A0394E EQ PUSH2 0x22C JUMPI DUP1 PUSH4 0x164E68DE EQ PUSH2 0x24D JUMPI DUP1 PUSH4 0x17CC915C EQ PUSH2 0x26C JUMPI DUP1 PUSH4 0x2B7AC3F3 EQ PUSH2 0x2AA JUMPI PUSH0 PUSH0 REVERT JUMPDEST DUP1 PUSH4 0x82FEBF0 EQ PUSH2 0x1BE JUMPI DUP1 PUSH4 0xB4501FD EQ PUSH2 0x1EE JUMPI DUP1 PUSH4 0x13114A9D EQ PUSH2 0x217 JUMPI JUMPDEST PUSH0 PUSH0 REVERT JUMPDEST CALLVALUE DUP1 ISZERO PUSH2 0x1C9 JUMPI PUSH0 PUSH0 REVERT JUMPDEST POP PUSH2 0x1D4 PUSH3 0x100000 DUP2 JUMP JUMPDEST PUSH1 0x40 MLOAD PUSH4 0xFFFFFFFF SWAP1 SWAP2 AND DUP2 MSTORE PUSH1 0x20 ADD JUMPDEST PUSH1 0x40 MLOAD DUP1 SWAP2 SUB SWAP1 RETURN JUMPDEST CALLVALUE DUP1 ISZERO PUSH2 0x1F9 JUMPI PUSH0 PUSH0 REVERT JUMPDEST POP PUSH2 0x209 PUSH8 0x16345785D8A0000 DUP2 JUMP JUMPDEST PUSH1 0x40 MLOAD SWAP1 DUP2 MSTORE PUSH1 0x20 ADD PUSH2 0x1E5 JUMP JUMPDEST CALLVALUE DUP1 ISZERO PUSH2 0x222 JUMPI PUSH0 PUSH0 REVERT JUMPDEST POP PUSH2 0x209 PUSH1 0x2 SLOAD DUP2 JUMP JUMPDEST CALLVALUE DUP1 ISZERO PUSH2 0x237 JUMPI PUSH0 PUSH0 REVERT JUMPDEST POP PUSH2 0x24B PUSH2 0x246 CALLDATASIZE PUSH1 0x4 PUSH2 0x120E JUMP JUMPDEST PUSH2 0x592 JUMP JUMPDEST STOP JUMPDEST CALLVALUE DUP1 ISZERO PUSH2 0x258 JUMPI PUSH0 PUSH0 REVERT JUMPDEST POP PUSH2 0x24B PUSH2 0x267 CALLDATASIZE PUSH1 0x4 PUSH2 0x120E JUMP JUMPDEST PUSH2 0x5F1 JUMP JUMPDEST CALLVALUE DUP1 ISZERO PUSH2 0x277 JUMPI PUSH0 PUSH0 REVERT JUMPDEST POP PUSH2 0x29A PUSH2 0x286 CALLDATASIZE PUSH1 0x4 PUSH2 0x1230 JUMP JUMPDEST PUSH1 0x2D PUSH1 0x20 MSTORE PUSH0 SWAP1 DUP2 MSTORE PUSH1 0x40 SWAP1 KECCAK256 SLOAD PUSH1 0xFF AND DUP2 JUMP JUMPDEST PUSH1 0x40 MLOAD SWAP1 ISZERO ISZERO DUP2 MSTORE PUSH1 0x20 ADD PUSH2 0x1E5 JUMP JUMPDEST CALLVALUE DUP1 ISZERO PUSH2 0x2B5 JUMPI PUSH0 PUSH0 REVERT JUMPDEST POP PUSH2 0x2DD PUSH32 0x0 DUP2 JUMP JUMPDEST PUSH1 0x40 MLOAD PUSH1 0x1 PUSH1 0x1 PUSH1 0xA0 SHL SUB SWAP1 SWAP2 AND DUP2 MSTORE PUSH1 0x20 ADD PUSH2 0x1E5 JUMP JUMPDEST CALLVALUE DUP1 ISZERO PUSH2 0x300 JUMPI PUSH0 PUSH0 REVERT JUMPDEST POP PUSH2 0x24B PUSH2 0x780 JUMP JUMPDEST CALLVALUE DUP1 ISZERO PUSH2 0x314 JUMPI PUSH0 PUSH0 REVERT JUMPDEST POP PUSH2 0x24B PUSH2 0x792 JUMP JUMPDEST CALLVALUE DUP1 ISZERO PUSH2 0x328 JUMPI PUSH0 PUSH0 REVERT JUMPDEST POP PUSH2 0x29A PUSH2 0x337 CALLDATASIZE PUSH1 0x4 PUSH2 0x1230 JUMP JUMPDEST PUSH1 0x2E PUSH1 0x20 MSTORE PUSH0 SWAP1 DUP2 MSTORE PUSH1 0x40 SWAP1 KECCAK256 SLOAD PUSH1 0xFF AND DUP2 JUMP JUMPDEST CALLVALUE DUP1 ISZERO PUSH2 0x356 JUMPI PUSH0 PUSH0 REVERT JUMPDEST POP PUSH0 SLOAD PUSH1 0xFF AND PUSH2 0x29A JUMP JUMPDEST CALLVALUE DUP1 ISZERO PUSH2 0x36C JUMPI PUSH0 PUSH0 REVERT JUMPDEST POP PUSH2 0x24B PUSH2 0x8C2 JUMP JUMPDEST CALLVALUE DUP1 ISZERO PUSH2 0x380 JUMPI PUSH0 PUSH0 REVERT JUMPDEST POP PUSH1 0x2 SLOAD PUSH2 0x209 JUMP JUMPDEST CALLVALUE DUP1 ISZERO PUSH2 0x394 JUMPI PUSH0 PUSH0 REVERT JUMPDEST POP PUSH2 0x24B PUSH2 0x8D3 JUMP JUMPDEST CALLVALUE DUP1 ISZERO PUSH2 0x3A8 JUMPI PUSH0 PUSH0 REVERT JUMPDEST POP PUSH2 0x209 PUSH8 0xDE0B6B3A7640000 DUP2 JUMP JUMPDEST CALLVALUE DUP1 ISZERO PUSH2 0x3C3 JUMPI PUSH0 PUSH0 REVERT JUMPDEST POP PUSH0 SLOAD PUSH2 0x100 SWAP1 DIV PUSH1 0x1 PUSH1 0x1 PUSH1 0xA0 SHL SUB AND PUSH2 0x2DD JUMP JUMPDEST CALLVALUE DUP1 ISZERO PUSH2 0x3E4 JUMPI PUSH0 PUSH0 REVERT JUMPDEST POP PUSH2 0x29A PUSH2 0x3F3 CALLDATASIZE PUSH1 0x4 PUSH2 0x120E JUMP JUMPDEST PUSH1 0x1 PUSH1 0x1 PUSH1 0xA0 SHL SUB AND PUSH0 SWAP1 DUP2 MSTORE PUSH1 0x2F PUSH1 0x20 MSTORE PUSH1 0x40 SWAP1 KECCAK256 SLOAD PUSH1 0xFF AND SWAP1 JUMP JUMPDEST CALLVALUE DUP1 ISZERO PUSH2 0x41B JUMPI PUSH0 PUSH0 REVERT JUMPDEST POP PUSH2 0x24B PUSH2 0x42A CALLDATASIZE PUSH1 0x4 PUSH2 0x1247 JUMP JUMPDEST PUSH2 0x8E3 JUMP JUMPDEST PUSH2 0x24B PUSH2 0x43D CALLDATASIZE PUSH1 0x4 PUSH2 0x1230 JUMP JUMPDEST PUSH2 0xBBF JUMP JUMPDEST CALLVALUE DUP1 ISZERO PUSH2 0x44D JUMPI PUSH0 PUSH0 REVERT JUMPDEST POP PUSH2 0x2DD PUSH32 0x0 DUP2 JUMP JUMPDEST CALLVALUE DUP1 ISZERO PUSH2 0x480 JUMPI PUSH0 PUSH0 REVERT JUMPDEST POP PUSH2 0x29A PUSH2 0x48F CALLDATASIZE PUSH1 0x4 PUSH2 0x1230 JUMP JUMPDEST PUSH0 SWAP1 DUP2 MSTORE PUSH1 0x2D PUSH1 0x20 MSTORE PUSH1 0x40 SWAP1 KECCAK256 SLOAD PUSH1 0xFF AND SWAP1 JUMP JUMPDEST CALLVALUE DUP1 ISZERO PUSH2 0x4AE JUMPI PUSH0 PUSH0 REVERT JUMPDEST POP PUSH2 0x209 PUSH2 0x4BD CALLDATASIZE PUSH1 0x4 PUSH2 0x1230 JUMP JUMPDEST PUSH2 0xF43 JUMP JUMPDEST CALLVALUE DUP1 ISZERO PUSH2 0x4CD JUMPI PUSH0 PUSH0 REVERT JUMPDEST POP PUSH2 0x1D4 PUSH1 0x14 DUP2 JUMP JUMPDEST CALLVALUE DUP1 ISZERO PUSH2 0x4E1 JUMPI PUSH0 PUSH0 REVERT JUMPDEST POP PUSH2 0x209 PUSH2 0x4F0 CALLDATASIZE PUSH1 0x4 PUSH2 0x1230 JUMP JUMPDEST PUSH2 0xF59 JUMP JUMPDEST CALLVALUE DUP1 ISZERO PUSH2 0x500 JUMPI PUSH0 PUSH0 REVERT JUMPDEST POP PUSH2 0x24B PUSH2 0x50F CALLDATASIZE PUSH1 0x4 PUSH2 0x120E JUMP JUMPDEST PUSH2 0xF68 JUMP JUMPDEST CALLVALUE DUP1 ISZERO PUSH2 0x51F JUMPI PUSH0 PUSH0 REVERT JUMPDEST POP PUSH2 0x24B PUSH2 0x52E CALLDATASIZE PUSH1 0x4 PUSH2 0x120E JUMP JUMPDEST PUSH2 0xFA2 JUMP JUMPDEST CALLVALUE DUP1 ISZERO PUSH2 0x53E JUMPI PUSH0 PUSH0 REVERT JUMPDEST POP PUSH1 0x2C SLOAD PUSH2 0x1D4 SWAP1 PUSH4 0xFFFFFFFF AND DUP2 JUMP JUMPDEST CALLVALUE DUP1 ISZERO PUSH2 0x55A JUMPI PUSH0 PUSH0 REVERT JUMPDEST POP PUSH2 0x209 PUSH1 0x2B SLOAD DUP2 JUMP JUMPDEST CALLVALUE DUP1 ISZERO PUSH2 0x56F JUMPI PUSH0 PUSH0 REVERT JUMPDEST POP PUSH2 0x29A PUSH2 0x57E CALLDATASIZE PUSH1 0x4 PUSH2 0x120E JUMP JUMPDEST PUSH1 0x2F PUSH1 0x20 MSTORE PUSH0 SWAP1 DUP2 MSTORE PUSH1 0x40 SWAP1 KECCAK256 SLOAD PUSH1 0xFF AND DUP2 JUMP JUMPDEST PUSH2 0x59A PUSH2 0xFFD JUMP JUMPDEST PUSH1 0x1 PUSH1 0x1 PUSH1 0xA0 SHL SUB DUP2 AND PUSH0 DUP2 DUP2 MSTORE PUSH1 0x2F PUSH1 0x20 SWAP1 DUP2 MSTORE PUSH1 0x40 SWAP2 DUP3 SWAP1 KECCAK256 DUP1 SLOAD PUSH1 0xFF NOT AND SWAP1 SSTORE SWAP1 MLOAD SWAP2 DUP3 MSTORE PUSH32 0x258EDB8CC3AC42AC5670D060AB55B20F4D1A16137CEADAE6212705AAEDAB5D1E SWAP2 ADD JUMPDEST PUSH1 0x40 MLOAD DUP1 SWAP2 SUB SWAP1 LOG1 POP JUMP JUMPDEST PUSH2 0x5F9 PUSH2 0xFFD JUMP JUMPDEST PUSH2 0x601 PUSH2 0x102F JUMP JUMPDEST PUSH0 PUSH1 0x2 SLOAD GT PUSH2 0x64D JUMPI PUSH1 0x40 MLOAD PUSH3 0x461BCD PUSH1 0xE5 SHL DUP2 MSTORE PUSH1 0x20 PUSH1 0x4 DUP3 ADD MSTORE PUSH1 0x13 PUSH1 0x24 DUP3 ADD MSTORE PUSH19 0x6E6F206665657320746F207769746864726177 PUSH1 0x68 SHL PUSH1 0x44 DUP3 ADD MSTORE PUSH1 0x64 ADD JUMPDEST PUSH1 0x40 MLOAD DUP1 SWAP2 SUB SWAP1 REVERT JUMPDEST PUSH1 0x1 PUSH1 0x1 PUSH1 0xA0 SHL SUB DUP2 AND PUSH2 0x696 JUMPI PUSH1 0x40 MLOAD PUSH3 0x461BCD PUSH1 0xE5 SHL DUP2 MSTORE PUSH1 0x20 PUSH1 0x4 DUP3 ADD MSTORE PUSH1 0x10 PUSH1 0x24 DUP3 ADD MSTORE PUSH16 0x696E76616C6964207472656173757279 PUSH1 0x80 SHL PUSH1 0x44 DUP3 ADD MSTORE PUSH1 0x64 ADD PUSH2 0x644 JUMP JUMPDEST PUSH1 0x2 DUP1 SLOAD PUSH0 SWAP2 DUP3 SWAP1 SSTORE PUSH1 0x40 MLOAD SWAP1 SWAP2 SWAP1 PUSH1 0x1 PUSH1 0x1 PUSH1 0xA0 SHL SUB DUP5 AND SWAP1 DUP4 SWAP1 DUP4 DUP2 DUP2 DUP2 DUP6 DUP8 GAS CALL SWAP3 POP POP POP RETURNDATASIZE DUP1 PUSH0 DUP2 EQ PUSH2 0x6E8 JUMPI PUSH1 0x40 MLOAD SWAP2 POP PUSH1 0x1F NOT PUSH1 0x3F RETURNDATASIZE ADD AND DUP3 ADD PUSH1 0x40 MSTORE RETURNDATASIZE DUP3 MSTORE RETURNDATASIZE PUSH0 PUSH1 0x20 DUP5 ADD RETURNDATACOPY PUSH2 0x6ED JUMP JUMPDEST PUSH1 0x60 SWAP2 POP JUMPDEST POP POP SWAP1 POP DUP1 PUSH2 0x730 JUMPI PUSH1 0x40 MLOAD PUSH3 0x461BCD PUSH1 0xE5 SHL DUP2 MSTORE PUSH1 0x20 PUSH1 0x4 DUP3 ADD MSTORE PUSH1 0xF PUSH1 0x24 DUP3 ADD MSTORE PUSH15 0x1DDA5D1A191C985DC819985A5B1959 PUSH1 0x8A SHL PUSH1 0x44 DUP3 ADD MSTORE PUSH1 0x64 ADD PUSH2 0x644 JUMP JUMPDEST PUSH1 0x40 DUP1 MLOAD PUSH1 0x1 PUSH1 0x1 PUSH1 0xA0 SHL SUB DUP6 AND DUP2 MSTORE PUSH1 0x20 DUP2 ADD DUP5 SWAP1 MSTORE PUSH32 0xEE33A3A9CB48E4FF209F8B1C67C4632F1DBBF55AEFF8E6F17D957ADE7A6FB17C SWAP2 ADD PUSH1 0x40 MLOAD DUP1 SWAP2 SUB SWAP1 LOG1 POP POP PUSH2 0x77D PUSH1 0x1 DUP1 SSTORE JUMP JUMPDEST POP JUMP JUMPDEST PUSH2 0x788 PUSH2 0xFFD JUMP JUMPDEST PUSH2 0x790 PUSH2 0x1088 JUMP JUMPDEST JUMP JUMPDEST PUSH2 0x79A PUSH2 0xFFD JUMP JUMPDEST PUSH2 0x7A2 PUSH2 0x102F JUMP JUMPDEST PUSH2 0x7AA PUSH2 0x10D9 JUMP JUMPDEST PUSH0 PUSH1 0x2 SLOAD GT PUSH2 0x7ED JUMPI PUSH1 0x40 MLOAD PUSH3 0x461BCD PUSH1 0xE5 SHL DUP2 MSTORE PUSH1 0x20 PUSH1 0x4 DUP3 ADD MSTORE PUSH1 0xF PUSH1 0x24 DUP3 ADD MSTORE PUSH15 0x3737903332B2B9903A3790313AB937 PUSH1 0x89 SHL PUSH1 0x44 DUP3 ADD MSTORE PUSH1 0x64 ADD PUSH2 0x644 JUMP JUMPDEST PUSH1 0x2 DUP1 SLOAD PUSH0 SWAP2 DUP3 SWAP1 SSTORE PUSH1 0x40 MLOAD SWAP1 SWAP2 SWAP1 PUSH2 0xDEAD SWAP1 DUP4 SWAP1 DUP4 DUP2 DUP2 DUP2 DUP6 DUP8 GAS CALL SWAP3 POP POP POP RETURNDATASIZE DUP1 PUSH0 DUP2 EQ PUSH2 0x838 JUMPI PUSH1 0x40 MLOAD SWAP2 POP PUSH1 0x1F NOT PUSH1 0x3F RETURNDATASIZE ADD AND DUP3 ADD PUSH1 0x40 MSTORE RETURNDATASIZE DUP3 MSTORE RETURNDATASIZE PUSH0 PUSH1 0x20 DUP5 ADD RETURNDATACOPY PUSH2 0x83D JUMP JUMPDEST PUSH1 0x60 SWAP2 POP JUMPDEST POP POP SWAP1 POP DUP1 PUSH2 0x87C JUMPI PUSH1 0x40 MLOAD PUSH3 0x461BCD PUSH1 0xE5 SHL DUP2 MSTORE PUSH1 0x20 PUSH1 0x4 DUP3 ADD MSTORE PUSH1 0xB PUSH1 0x24 DUP3 ADD MSTORE PUSH11 0x189D5C9B8819985A5B1959 PUSH1 0xAA SHL PUSH1 0x44 DUP3 ADD MSTORE PUSH1 0x64 ADD PUSH2 0x644 JUMP JUMPDEST PUSH1 0x40 DUP1 MLOAD PUSH2 0xDEAD DUP2 MSTORE PUSH1 0x20 DUP2 ADD DUP5 SWAP1 MSTORE PUSH32 0xD9575A73E2A7DA16CFDE907DF749D23D901528FF2E7C832B731BABDECCA000B SWAP2 ADD PUSH1 0x40 MLOAD DUP1 SWAP2 SUB SWAP1 LOG1 POP POP PUSH2 0x790 PUSH1 0x1 DUP1 SSTORE JUMP JUMPDEST PUSH2 0x8CA PUSH2 0xFFD JUMP JUMPDEST PUSH2 0x790 PUSH0 PUSH2 0x1121 JUMP JUMPDEST PUSH2 0x8DB PUSH2 0xFFD JUMP JUMPDEST PUSH2 0x790 PUSH2 0x1179 JUMP JUMPDEST PUSH2 0x8EB PUSH2 0x11B5 JUMP JUMPDEST PUSH2 0x8F3 PUSH2 0x102F JUMP JUMPDEST PUSH1 0x1 PUSH1 0x1 PUSH1 0xA0 SHL SUB DUP2 AND PUSH0 SWAP1 DUP2 MSTORE PUSH1 0x2F PUSH1 0x20 MSTORE PUSH1 0x40 SWAP1 KECCAK256 SLOAD PUSH1 0xFF AND ISZERO PUSH2 0x952 JUMPI PUSH1 0x40 MLOAD PUSH3 0x461BCD PUSH1 0xE5 SHL DUP2 MSTORE PUSH1 0x20 PUSH1 0x4 DUP3 ADD MSTORE PUSH1 0x14 PUSH1 0x24 DUP3 ADD MSTORE PUSH20 0x1C9958DA5C1A595B9D081CD85B98DD1A5BDB9959 PUSH1 0x62 SHL PUSH1 0x44 DUP3 ADD MSTORE PUSH1 0x64 ADD PUSH2 0x644 JUMP JUMPDEST PUSH0 DUP3 DUP2 MSTORE PUSH1 0x2D PUSH1 0x20 MSTORE PUSH1 0x40 SWAP1 KECCAK256 SLOAD PUSH1 0xFF AND ISZERO PUSH2 0x981 JUMPI PUSH1 0x40 MLOAD PUSH4 0x65695701 PUSH1 0xE1 SHL DUP2 MSTORE PUSH1 0x4 ADD PUSH1 0x40 MLOAD DUP1 SWAP2 SUB SWAP1 REVERT JUMPDEST PUSH0 DUP4 DUP2 MSTORE PUSH1 0x2E PUSH1 0x20 MSTORE PUSH1 0x40 SWAP1 KECCAK256 SLOAD PUSH1 0xFF AND PUSH2 0x9AF JUMPI PUSH1 0x40 MLOAD PUSH4 0x4629008B PUSH1 0xE1 SHL DUP2 MSTORE PUSH1 0x4 ADD PUSH1 0x40 MLOAD DUP1 SWAP2 SUB SWAP1 REVERT JUMPDEST PUSH1 0x40 DUP1 MLOAD PUSH1 0x2 DUP1 DUP3 MSTORE PUSH1 0x60 DUP3 ADD DUP4 MSTORE PUSH0 SWAP3 PUSH1 0x20 DUP4 ADD SWAP1 DUP1 CALLDATASIZE DUP4 CALLDATACOPY ADD SWAP1 POP POP SWAP1 POP DUP4 DUP2 PUSH0 DUP2 MLOAD DUP2 LT PUSH2 0x9E2 JUMPI PUSH2 0x9E2 PUSH2 0x12D9 JUMP JUMPDEST PUSH1 0x20 MUL PUSH1 0x20 ADD ADD DUP2 DUP2 MSTORE POP POP DUP3 DUP2 PUSH1 0x1 DUP2 MLOAD DUP2 LT PUSH2 0xA02 JUMPI PUSH2 0xA02 PUSH2 0x12D9 JUMP JUMPDEST PUSH1 0x20 SWAP1 DUP2 MUL SWAP2 SWAP1 SWAP2 ADD ADD MSTORE PUSH1 0x40 MLOAD PUSH4 0x3A943439 PUSH1 0xE2 SHL DUP2 MSTORE PUSH1 0x1 PUSH1 0x1 PUSH1 0xA0 SHL SUB PUSH32 0x0 AND SWAP1 PUSH4 0xEA50D0E4 SWAP1 PUSH2 0xA5D SWAP1 DUP10 SWAP1 DUP10 SWAP1 DUP7 SWAP1 PUSH1 0x4 ADD PUSH2 0x12ED JUMP JUMPDEST PUSH1 0x20 PUSH1 0x40 MLOAD DUP1 DUP4 SUB DUP2 DUP7 GAS STATICCALL ISZERO DUP1 ISZERO PUSH2 0xA78 JUMPI RETURNDATASIZE PUSH0 PUSH0 RETURNDATACOPY RETURNDATASIZE PUSH0 REVERT JUMPDEST POP POP POP POP PUSH1 0x40 MLOAD RETURNDATASIZE PUSH1 0x1F NOT PUSH1 0x1F DUP3 ADD AND DUP3 ADD DUP1 PUSH1 0x40 MSTORE POP DUP2 ADD SWAP1 PUSH2 0xA9C SWAP2 SWAP1 PUSH2 0x1365 JUMP JUMPDEST PUSH2 0xAB9 JUMPI PUSH1 0x40 MLOAD PUSH4 0x9BDE339 PUSH1 0xE0 SHL DUP2 MSTORE PUSH1 0x4 ADD PUSH1 0x40 MLOAD DUP1 SWAP2 SUB SWAP1 REVERT JUMPDEST PUSH0 DUP4 DUP2 MSTORE PUSH1 0x2D PUSH1 0x20 MSTORE PUSH1 0x40 DUP1 DUP3 KECCAK256 DUP1 SLOAD PUSH1 0xFF NOT AND PUSH1 0x1 OR SWAP1 SSTORE MLOAD PUSH1 0x1 PUSH1 0x1 PUSH1 0xA0 SHL SUB DUP5 AND SWAP1 PUSH8 0xDE0B6B3A7640000 SWAP1 DUP4 DUP2 DUP2 DUP2 DUP6 DUP8 GAS CALL SWAP3 POP POP POP RETURNDATASIZE DUP1 PUSH0 DUP2 EQ PUSH2 0xB1E JUMPI PUSH1 0x40 MLOAD SWAP2 POP PUSH1 0x1F NOT PUSH1 0x3F RETURNDATASIZE ADD AND DUP3 ADD PUSH1 0x40 MSTORE RETURNDATASIZE DUP3 MSTORE RETURNDATASIZE PUSH0 PUSH1 0x20 DUP5 ADD RETURNDATACOPY PUSH2 0xB23 JUMP JUMPDEST PUSH1 0x60 SWAP2 POP JUMPDEST POP POP SWAP1 POP DUP1 PUSH2 0xB6A JUMPI PUSH1 0x40 MLOAD PUSH3 0x461BCD PUSH1 0xE5 SHL DUP2 MSTORE PUSH1 0x20 PUSH1 0x4 DUP3 ADD MSTORE PUSH1 0x13 PUSH1 0x24 DUP3 ADD MSTORE PUSH19 0x135395081D1C985B9CD9995C8819985A5B1959 PUSH1 0x6A SHL PUSH1 0x44 DUP3 ADD MSTORE PUSH1 0x64 ADD PUSH2 0x644 JUMP JUMPDEST DUP3 PUSH1 0x1 PUSH1 0x1 PUSH1 0xA0 SHL SUB AND PUSH32 0xCE490531F6C8AE2F1FF174643BC8B7ED5E52987AB50DC1E8F33655D2CD8C90B DUP6 PUSH1 0x40 MLOAD PUSH2 0xBA5 SWAP2 DUP2 MSTORE PUSH1 0x20 ADD SWAP1 JUMP JUMPDEST PUSH1 0x40 MLOAD DUP1 SWAP2 SUB SWAP1 LOG2 POP POP PUSH2 0xBB8 PUSH1 0x1 DUP1 SSTORE JUMP JUMPDEST POP POP POP POP POP JUMP JUMPDEST PUSH2 0xBC7 PUSH2 0x11B5 JUMP JUMPDEST CALLER PUSH0 SWAP1 DUP2 MSTORE PUSH1 0x2F PUSH1 0x20 MSTORE PUSH1 0x40 SWAP1 KECCAK256 SLOAD PUSH1 0xFF AND ISZERO PUSH2 0xC3D JUMPI PUSH1 0x40 MLOAD PUSH3 0x461BCD PUSH1 0xE5 SHL DUP2 MSTORE PUSH1 0x20 PUSH1 0x4 DUP3 ADD MSTORE PUSH1 0x2E PUSH1 0x24 DUP3 ADD MSTORE PUSH32 0x74686973206164647265737320697320626C61636B6C697374656420616E6420 PUSH1 0x44 DUP3 ADD MSTORE PUSH14 0x18D85B9B9BDD0819195C1BDCDA5D PUSH1 0x92 SHL PUSH1 0x64 DUP3 ADD MSTORE PUSH1 0x84 ADD PUSH2 0x644 JUMP JUMPDEST PUSH0 PUSH2 0xC58 PUSH8 0x16345785D8A0000 PUSH8 0xDE0B6B3A7640000 PUSH2 0x1398 JUMP JUMPDEST SWAP1 POP DUP1 CALLVALUE EQ PUSH2 0xC7A JUMPI PUSH1 0x40 MLOAD PUSH4 0x7833D9E3 PUSH1 0xE1 SHL DUP2 MSTORE PUSH1 0x4 ADD PUSH1 0x40 MLOAD DUP1 SWAP2 SUB SWAP1 REVERT JUMPDEST PUSH1 0x2C SLOAD PUSH3 0x100000 PUSH4 0xFFFFFFFF SWAP1 SWAP2 AND LT PUSH2 0xCA7 JUMPI PUSH1 0x40 MLOAD PUSH4 0x3B5CCB43 PUSH1 0xE2 SHL DUP2 MSTORE PUSH1 0x4 ADD PUSH1 0x40 MLOAD DUP1 SWAP2 SUB SWAP1 REVERT JUMPDEST PUSH1 0x2C DUP1 SLOAD PUSH4 0xFFFFFFFF AND SWAP1 DUP2 SWAP1 PUSH0 PUSH2 0xCBE DUP4 PUSH2 0x13B1 JUMP JUMPDEST DUP3 SLOAD PUSH4 0xFFFFFFFF SWAP2 DUP3 AND PUSH2 0x100 SWAP4 SWAP1 SWAP4 EXP SWAP3 DUP4 MUL SWAP2 SWAP1 SWAP3 MUL NOT SWAP1 SWAP2 AND OR SWAP1 SSTORE POP DUP3 PUSH0 JUMPDEST PUSH1 0x14 PUSH4 0xFFFFFFFF DUP3 AND LT ISZERO PUSH2 0xEAF JUMPI PUSH1 0x1 DUP4 AND PUSH0 SUB PUSH2 0xDDD JUMPI DUP2 PUSH1 0x17 PUSH4 0xFFFFFFFF DUP4 AND PUSH1 0x14 DUP2 LT PUSH2 0xD14 JUMPI PUSH2 0xD14 PUSH2 0x12D9 JUMP JUMPDEST ADD DUP2 SWAP1 SSTORE POP PUSH32 0x0 PUSH1 0x1 PUSH1 0x1 PUSH1 0xA0 SHL SUB AND PUSH4 0x29A5F2F6 PUSH1 0x40 MLOAD DUP1 PUSH1 0x40 ADD PUSH1 0x40 MSTORE DUP1 DUP6 DUP2 MSTORE PUSH1 0x20 ADD PUSH1 0x3 DUP6 PUSH4 0xFFFFFFFF AND PUSH1 0x14 DUP2 LT PUSH2 0xD72 JUMPI PUSH2 0xD72 PUSH2 0x12D9 JUMP JUMPDEST ADD SLOAD SWAP1 MSTORE PUSH1 0x40 MLOAD PUSH1 0x1 PUSH1 0x1 PUSH1 0xE0 SHL SUB NOT PUSH1 0xE0 DUP5 SWAP1 SHL AND DUP2 MSTORE PUSH2 0xD97 SWAP2 SWAP1 PUSH1 0x4 ADD PUSH2 0x13D5 JUMP JUMPDEST PUSH1 0x20 PUSH1 0x40 MLOAD DUP1 DUP4 SUB DUP2 DUP7 GAS STATICCALL ISZERO DUP1 ISZERO PUSH2 0xDB2 JUMPI RETURNDATASIZE PUSH0 PUSH0 RETURNDATACOPY RETURNDATASIZE PUSH0 REVERT JUMPDEST POP POP POP POP PUSH1 0x40 MLOAD RETURNDATASIZE PUSH1 0x1F NOT PUSH1 0x1F DUP3 ADD AND DUP3 ADD DUP1 PUSH1 0x40 MSTORE POP DUP2 ADD SWAP1 PUSH2 0xDD6 SWAP2 SWAP1 PUSH2 0x1405 JUMP JUMPDEST SWAP2 POP PUSH2 0xE9D JUMP JUMPDEST PUSH32 0x0 PUSH1 0x1 PUSH1 0x1 PUSH1 0xA0 SHL SUB AND PUSH4 0x29A5F2F6 PUSH1 0x40 MLOAD DUP1 PUSH1 0x40 ADD PUSH1 0x40 MSTORE DUP1 PUSH1 0x17 DUP6 PUSH4 0xFFFFFFFF AND PUSH1 0x14 DUP2 LT PUSH2 0xE30 JUMPI PUSH2 0xE30 PUSH2 0x12D9 JUMP JUMPDEST ADD SLOAD DUP2 MSTORE PUSH1 0x20 ADD DUP6 SWAP1 MSTORE PUSH1 0x40 MLOAD PUSH1 0x1 PUSH1 0x1 PUSH1 0xE0 SHL SUB NOT PUSH1 0xE0 DUP5 SWAP1 SHL AND DUP2 MSTORE PUSH2 0xE5B SWAP2 SWAP1 PUSH1 0x4 ADD PUSH2 0x13D5 JUMP JUMPDEST PUSH1 0x20 PUSH1 0x40 MLOAD DUP1 DUP4 SUB DUP2 DUP7 GAS STATICCALL ISZERO DUP1 ISZERO PUSH2 0xE76 JUMPI RETURNDATASIZE PUSH0 PUSH0 RETURNDATACOPY RETURNDATASIZE PUSH0 REVERT JUMPDEST POP POP POP POP PUSH1 0x40 MLOAD RETURNDATASIZE PUSH1 0x1F NOT PUSH1 0x1F DUP3 ADD AND DUP3 ADD DUP1 PUSH1 0x40 MSTORE POP DUP2 ADD SWAP1 PUSH2 0xE9A SWAP2 SWAP1 PUSH2 0x1405 JUMP JUMPDEST SWAP2 POP JUMPDEST PUSH4 0x7FFFFFFF PUSH1 0x1 SWAP4 DUP5 SHR AND SWAP3 ADD PUSH2 0xCE1 JUMP JUMPDEST POP PUSH1 0x2B DUP2 SWAP1 SSTORE PUSH0 DUP2 DUP2 MSTORE PUSH1 0x2E PUSH1 0x20 MSTORE PUSH1 0x40 DUP2 KECCAK256 DUP1 SLOAD PUSH1 0xFF NOT AND PUSH1 0x1 OR SWAP1 SSTORE PUSH1 0x2 DUP1 SLOAD PUSH8 0x16345785D8A0000 SWAP3 SWAP1 PUSH2 0xEE7 SWAP1 DUP5 SWAP1 PUSH2 0x1398 JUMP JUMPDEST SWAP1 SWAP2 SSTORE POP POP PUSH1 0x2C SLOAD DUP5 SWAP1 PUSH32 0x84FC9EB8CD0A782A1D1734FBEED616BD0EF775F8B9BD437636B62D634FE4BAF3 SWAP1 PUSH2 0xF25 SWAP1 PUSH1 0x1 SWAP1 PUSH4 0xFFFFFFFF AND PUSH2 0x141C JUMP JUMPDEST PUSH1 0x40 MLOAD PUSH4 0xFFFFFFFF SWAP1 SWAP2 AND DUP2 MSTORE PUSH1 0x20 ADD PUSH1 0x40 MLOAD DUP1 SWAP2 SUB SWAP1 LOG2 POP POP POP POP JUMP JUMPDEST PUSH1 0x3 DUP2 PUSH1 0x14 DUP2 LT PUSH2 0xF52 JUMPI PUSH0 DUP1 REVERT JUMPDEST ADD SLOAD SWAP1 POP DUP2 JUMP JUMPDEST PUSH1 0x17 DUP2 PUSH1 0x14 DUP2 LT PUSH2 0xF52 JUMPI PUSH0 DUP1 REVERT JUMPDEST PUSH2 0xF70 PUSH2 0xFFD JUMP JUMPDEST PUSH1 0x1 PUSH1 0x1 PUSH1 0xA0 SHL SUB DUP2 AND PUSH2 0xF99 JUMPI PUSH1 0x40 MLOAD PUSH4 0x1E4FBDF7 PUSH1 0xE0 SHL DUP2 MSTORE PUSH0 PUSH1 0x4 DUP3 ADD MSTORE PUSH1 0x24 ADD PUSH2 0x644 JUMP JUMPDEST PUSH2 0x77D DUP2 PUSH2 0x1121 JUMP JUMPDEST PUSH2 0xFAA PUSH2 0xFFD JUMP JUMPDEST PUSH1 0x1 PUSH1 0x1 PUSH1 0xA0 SHL SUB DUP2 AND PUSH0 DUP2 DUP2 MSTORE PUSH1 0x2F PUSH1 0x20 SWAP1 DUP2 MSTORE PUSH1 0x40 SWAP2 DUP3 SWAP1 KECCAK256 DUP1 SLOAD PUSH1 0xFF NOT AND PUSH1 0x1 OR SWAP1 SSTORE SWAP1 MLOAD SWAP2 DUP3 MSTORE PUSH32 0xFFA4E6181777692565CF28528FC88FD1516EA86B56DA075235FA575AF6A4B855 SWAP2 ADD PUSH2 0x5E6 JUMP JUMPDEST PUSH0 SLOAD PUSH1 0x1 PUSH1 0x1 PUSH1 0xA0 SHL SUB PUSH2 0x100 SWAP1 SWAP2 DIV AND CALLER EQ PUSH2 0x790 JUMPI PUSH1 0x40 MLOAD PUSH4 0x118CDAA7 PUSH1 0xE0 SHL DUP2 MSTORE CALLER PUSH1 0x4 DUP3 ADD MSTORE PUSH1 0x24 ADD PUSH2 0x644 JUMP JUMPDEST PUSH1 0x2 PUSH1 0x1 SLOAD SUB PUSH2 0x1081 JUMPI PUSH1 0x40 MLOAD PUSH3 0x461BCD PUSH1 0xE5 SHL DUP2 MSTORE PUSH1 0x20 PUSH1 0x4 DUP3 ADD MSTORE PUSH1 0x1F PUSH1 0x24 DUP3 ADD MSTORE PUSH32 0x5265656E7472616E637947756172643A207265656E7472616E742063616C6C00 PUSH1 0x44 DUP3 ADD MSTORE PUSH1 0x64 ADD PUSH2 0x644 JUMP JUMPDEST PUSH1 0x2 PUSH1 0x1 SSTORE JUMP JUMPDEST PUSH2 0x1090 PUSH2 0x10D9 JUMP JUMPDEST PUSH0 DUP1 SLOAD PUSH1 0xFF NOT AND SWAP1 SSTORE PUSH32 0x5DB9EE0A495BF2E6FF9C91A7834C1BA4FDD244A5E8AA4E537BD38AEAE4B073AA CALLER JUMPDEST PUSH1 0x40 MLOAD PUSH1 0x1 PUSH1 0x1 PUSH1 0xA0 SHL SUB SWAP1 SWAP2 AND DUP2 MSTORE PUSH1 0x20 ADD PUSH1 0x40 MLOAD DUP1 SWAP2 SUB SWAP1 LOG1 JUMP JUMPDEST PUSH0 SLOAD PUSH1 0xFF AND PUSH2 0x790 JUMPI PUSH1 0x40 MLOAD PUSH3 0x461BCD PUSH1 0xE5 SHL DUP2 MSTORE PUSH1 0x20 PUSH1 0x4 DUP3 ADD MSTORE PUSH1 0x14 PUSH1 0x24 DUP3 ADD MSTORE PUSH20 0x14185D5CD8589B194E881B9BDD081C185D5CD959 PUSH1 0x62 SHL PUSH1 0x44 DUP3 ADD MSTORE PUSH1 0x64 ADD PUSH2 0x644 JUMP JUMPDEST PUSH0 DUP1 SLOAD PUSH1 0x1 PUSH1 0x1 PUSH1 0xA0 SHL SUB DUP4 DUP2 AND PUSH2 0x100 DUP2 DUP2 MUL PUSH2 0x100 PUSH1 0x1 PUSH1 0xA8 SHL SUB NOT DUP6 AND OR DUP6 SSTORE PUSH1 0x40 MLOAD SWAP4 DIV SWAP2 SWAP1 SWAP2 AND SWAP3 SWAP1 SWAP2 DUP4 SWAP2 PUSH32 0x8BE0079C531659141344CD1FD0A4F28419497F9722A3DAAFE3B4186F6B6457E0 SWAP2 LOG3 POP POP JUMP JUMPDEST PUSH2 0x1181 PUSH2 0x11B5 JUMP JUMPDEST PUSH0 DUP1 SLOAD PUSH1 0xFF NOT AND PUSH1 0x1 OR SWAP1 SSTORE PUSH32 0x62E78CEA01BEE320CD4E420270B5EA74000D11B0C9F74754EBDBFC544B05A258 PUSH2 0x10BC CALLER SWAP1 JUMP JUMPDEST PUSH0 SLOAD PUSH1 0xFF AND ISZERO PUSH2 0x790 JUMPI PUSH1 0x40 MLOAD PUSH3 0x461BCD PUSH1 0xE5 SHL DUP2 MSTORE PUSH1 0x20 PUSH1 0x4 DUP3 ADD MSTORE PUSH1 0x10 PUSH1 0x24 DUP3 ADD MSTORE PUSH16 0x14185D5CD8589B194E881C185D5CD959 PUSH1 0x82 SHL PUSH1 0x44 DUP3 ADD MSTORE PUSH1 0x64 ADD PUSH2 0x644 JUMP JUMPDEST PUSH1 0x1 PUSH1 0x1 PUSH1 0xA0 SHL SUB DUP2 AND DUP2 EQ PUSH2 0x77D JUMPI PUSH0 PUSH0 REVERT JUMPDEST PUSH0 PUSH1 0x20 DUP3 DUP5 SUB SLT ISZERO PUSH2 0x121E JUMPI PUSH0 PUSH0 REVERT JUMPDEST DUP2 CALLDATALOAD PUSH2 0x1229 DUP2 PUSH2 0x11FA JUMP JUMPDEST SWAP4 SWAP3 POP POP POP JUMP JUMPDEST PUSH0 PUSH1 0x20 DUP3 DUP5 SUB SLT ISZERO PUSH2 0x1240 JUMPI PUSH0 PUSH0 REVERT JUMPDEST POP CALLDATALOAD SWAP2 SWAP1 POP JUMP JUMPDEST PUSH0 PUSH0 PUSH0 PUSH0 PUSH0 PUSH1 0x80 DUP7 DUP9 SUB SLT ISZERO PUSH2 0x125B JUMPI PUSH0 PUSH0 REVERT JUMPDEST DUP6 CALLDATALOAD PUSH8 0xFFFFFFFFFFFFFFFF DUP2 GT ISZERO PUSH2 0x1271 JUMPI PUSH0 PUSH0 REVERT JUMPDEST DUP7 ADD PUSH1 0x1F DUP2 ADD DUP9 SGT PUSH2 0x1281 JUMPI PUSH0 PUSH0 REVERT JUMPDEST DUP1 CALLDATALOAD PUSH8 0xFFFFFFFFFFFFFFFF DUP2 GT ISZERO PUSH2 0x1297 JUMPI PUSH0 PUSH0 REVERT JUMPDEST DUP9 PUSH1 0x20 DUP3 DUP5 ADD ADD GT ISZERO PUSH2 0x12A8 JUMPI PUSH0 PUSH0 REVERT JUMPDEST PUSH1 0x20 SWAP2 DUP3 ADD SWAP7 POP SWAP5 POP DUP7 ADD CALLDATALOAD SWAP3 POP PUSH1 0x40 DUP7 ADD CALLDATALOAD SWAP2 POP PUSH1 0x60 DUP7 ADD CALLDATALOAD PUSH2 0x12CB DUP2 PUSH2 0x11FA JUMP JUMPDEST DUP1 SWAP2 POP POP SWAP3 SWAP6 POP SWAP3 SWAP6 SWAP1 SWAP4 POP JUMP JUMPDEST PUSH4 0x4E487B71 PUSH1 0xE0 SHL PUSH0 MSTORE PUSH1 0x32 PUSH1 0x4 MSTORE PUSH1 0x24 PUSH0 REVERT JUMPDEST PUSH1 0x40 DUP2 MSTORE DUP3 PUSH1 0x40 DUP3 ADD MSTORE DUP3 DUP5 PUSH1 0x60 DUP4 ADD CALLDATACOPY PUSH0 PUSH1 0x60 DUP5 DUP4 ADD ADD MSTORE PUSH0 PUSH1 0x1F NOT PUSH1 0x1F DUP6 ADD AND DUP3 ADD PUSH1 0x60 DUP2 ADD PUSH1 0x60 DUP5 DUP4 SUB ADD PUSH1 0x20 DUP6 ADD MSTORE DUP1 DUP6 MLOAD DUP1 DUP4 MSTORE PUSH1 0x80 DUP5 ADD SWAP2 POP PUSH1 0x20 DUP8 ADD SWAP4 POP PUSH0 SWAP3 POP JUMPDEST DUP1 DUP4 LT ISZERO PUSH2 0x1359 JUMPI DUP4 MLOAD DUP3 MSTORE PUSH1 0x20 DUP3 ADD SWAP2 POP PUSH1 0x20 DUP5 ADD SWAP4 POP PUSH1 0x1 DUP4 ADD SWAP3 POP PUSH2 0x1336 JUMP JUMPDEST POP SWAP8 SWAP7 POP POP POP POP POP POP POP JUMP JUMPDEST PUSH0 PUSH1 0x20 DUP3 DUP5 SUB SLT ISZERO PUSH2 0x1375 JUMPI PUSH0 PUSH0 REVERT JUMPDEST DUP2 MLOAD DUP1 ISZERO ISZERO DUP2 EQ PUSH2 0x1229 JUMPI PUSH0 PUSH0 REVERT JUMPDEST PUSH4 0x4E487B71 PUSH1 0xE0 SHL PUSH0 MSTORE PUSH1 0x11 PUSH1 0x4 MSTORE PUSH1 0x24 PUSH0 REVERT JUMPDEST DUP1 DUP3 ADD DUP1 DUP3 GT ISZERO PUSH2 0x13AB JUMPI PUSH2 0x13AB PUSH2 0x1384 JUMP JUMPDEST SWAP3 SWAP2 POP POP JUMP JUMPDEST PUSH0 PUSH4 0xFFFFFFFF DUP3 AND PUSH4 0xFFFFFFFF DUP2 SUB PUSH2 0x13CC JUMPI PUSH2 0x13CC PUSH2 0x1384 JUMP JUMPDEST PUSH1 0x1 ADD SWAP3 SWAP2 POP POP JUMP JUMPDEST PUSH1 0x40 DUP2 ADD DUP2 DUP4 PUSH0 JUMPDEST PUSH1 0x2 DUP2 LT ISZERO PUSH2 0x13FC JUMPI DUP2 MLOAD DUP4 MSTORE PUSH1 0x20 SWAP3 DUP4 ADD SWAP3 SWAP1 SWAP2 ADD SWAP1 PUSH1 0x1 ADD PUSH2 0x13DD JUMP JUMPDEST POP POP POP SWAP3 SWAP2 POP POP JUMP JUMPDEST PUSH0 PUSH1 0x20 DUP3 DUP5 SUB SLT ISZERO PUSH2 0x1415 JUMPI PUSH0 PUSH0 REVERT JUMPDEST POP MLOAD SWAP2 SWAP1 POP JUMP JUMPDEST PUSH4 0xFFFFFFFF DUP3 DUP2 AND DUP3 DUP3 AND SUB SWAP1 DUP2 GT ISZERO PUSH2 0x13AB JUMPI PUSH2 0x13AB PUSH2 0x1384 JUMP INVALID LOG2 PUSH5 0x6970667358 0x22 SLT KECCAK256 SWAP8 CALLVALUE TLOAD PUSH31 0xE9CDE15329D112120B9E0F21ADDB544D515DA91ED60F7611D96BDB8A64736F PUSH13 0x634300081F0033000000000000 "
		},
		"gasEstimates": {
			"creation": {
				"codeDepositCost": "1046000",
				"executionCost": "infinite",
				"totalCost": "infinite"
			},
			"external": {
				"DENOMINATION()": "240",
				"MAX_LEAVES()": "239",
				"PROTOCOL_FEE()": "263",
				"TREE_DEPTH()": "259",
				"blacklist(address)": "27905",
				"burnFees()": "infinite",
				"checkFees()": "2380",
				"currentRoot()": "2382",
				"deposit(bytes32)": "infinite",
				"filledSubtrees(uint256)": "2505",
				"isAddressBlacklisted(address)": "2630",
				"isBlacklisted(address)": "2632",
				"isSpent(bytes32)": "2558",
				"knownRoots(bytes32)": "2537",
				"nextIndex()": "2367",
				"nullifierHashes(bytes32)": "2537",
				"owner()": "2408",
				"pardon(address)": "27890",
				"pause()": "infinite",
				"paused()": "2347",
				"poseidon()": "infinite",
				"renounceOwnership()": "infinite",
				"totalFees()": "2385",
				"transferOwnership(address)": "infinite",
				"unpause()": "infinite",
				"verifier()": "infinite",
				"withdraw(bytes,bytes32,bytes32,address)": "infinite",
				"withdrawFees(address)": "infinite",
				"zeros(uint256)": "2461"
			}
		},
		"methodIdentifiers": {
			"DENOMINATION()": "8b01429d",
			"MAX_LEAVES()": "082febf0",
			"PROTOCOL_FEE()": "0b4501fd",
			"TREE_DEPTH()": "f1650536",
			"blacklist(address)": "f9f92be4",
			"burnFees()": "40f6ac31",
			"checkFees()": "7be441d1",
			"currentRoot()": "fdab463d",
			"deposit(bytes32)": "b214faa5",
			"filledSubtrees(uint256)": "f178e47c",
			"isAddressBlacklisted(address)": "90683e8c",
			"isBlacklisted(address)": "fe575a87",
			"isSpent(bytes32)": "e5285dcc",
			"knownRoots(bytes32)": "4e73da7d",
			"nextIndex()": "fc7e9c6f",
			"nullifierHashes(bytes32)": "17cc915c",
			"owner()": "8da5cb5b",
			"pardon(address)": "14a0394e",
			"pause()": "8456cb59",
			"paused()": "5c975abb",
			"poseidon()": "c62b919e",
			"renounceOwnership()": "715018a6",
			"totalFees()": "13114a9d",
			"transferOwnership(address)": "f2fde38b",
			"unpause()": "3f4ba83a",
			"verifier()": "2b7ac3f3",
			"withdraw(bytes,bytes32,bytes32,address)": "b130eaa6",
			"withdrawFees(address)": "164e68de",
			"zeros(uint256)": "e8295588"
		}
	},
	"abi": [
		{
			"inputs": [
				{
					"internalType": "address",
					"name": "_verifier",
					"type": "address"
				},
				{
					"internalType": "address",
					"name": "_poseidon",
					"type": "address"
				}
			],
			"stateMutability": "nonpayable",
			"type": "constructor"
		},
		{
			"inputs": [],
			"name": "InvalidDenomination",
			"type": "error"
		},
		{
			"inputs": [],
			"name": "InvalidProof",
			"type": "error"
		},
		{
			"inputs": [],
			"name": "NullifierAlreadyUsed",
			"type": "error"
		},
		{
			"inputs": [
				{
					"internalType": "address",
					"name": "owner",
					"type": "address"
				}
			],
			"name": "OwnableInvalidOwner",
			"type": "error"
		},
		{
			"inputs": [
				{
					"internalType": "address",
					"name": "account",
					"type": "address"
				}
			],
			"name": "OwnableUnauthorizedAccount",
			"type": "error"
		},
		{
			"inputs": [],
			"name": "TreeIsFull",
			"type": "error"
		},
		{
			"inputs": [],
			"name": "UnknownRoot",
			"type": "error"
		},
		{
			"anonymous": false,
			"inputs": [
				{
					"indexed": false,
					"internalType": "address",
					"name": "blacklistedAddress",
					"type": "address"
				}
			],
			"name": "Blacklisted",
			"type": "event"
		},
		{
			"anonymous": false,
			"inputs": [
				{
					"indexed": true,
					"internalType": "bytes32",
					"name": "commitment",
					"type": "bytes32"
				},
				{
					"indexed": false,
					"internalType": "uint32",
					"name": "leafIndex",
					"type": "uint32"
				}
			],
			"name": "Deposit",
			"type": "event"
		},
		{
			"anonymous": false,
			"inputs": [
				{
					"indexed": false,
					"internalType": "address",
					"name": "treasury",
					"type": "address"
				},
				{
					"indexed": false,
					"internalType": "uint256",
					"name": "amount",
					"type": "uint256"
				}
			],
			"name": "FeeWithdrawal",
			"type": "event"
		},
		{
			"anonymous": false,
			"inputs": [
				{
					"indexed": false,
					"internalType": "address",
					"name": "burnAddress",
					"type": "address"
				},
				{
					"indexed": false,
					"internalType": "uint256",
					"name": "amount",
					"type": "uint256"
				}
			],
			"name": "FeesBurned",
			"type": "event"
		},
		{
			"anonymous": false,
			"inputs": [
				{
					"indexed": true,
					"internalType": "address",
					"name": "previousOwner",
					"type": "address"
				},
				{
					"indexed": true,
					"internalType": "address",
					"name": "newOwner",
					"type": "address"
				}
			],
			"name": "OwnershipTransferred",
			"type": "event"
		},
		{
			"anonymous": false,
			"inputs": [
				{
					"indexed": false,
					"internalType": "address",
					"name": "pardonedAddress",
					"type": "address"
				}
			],
			"name": "Pardoned",
			"type": "event"
		},
		{
			"anonymous": false,
			"inputs": [
				{
					"indexed": false,
					"internalType": "address",
					"name": "account",
					"type": "address"
				}
			],
			"name": "Paused",
			"type": "event"
		},
		{
			"anonymous": false,
			"inputs": [
				{
					"indexed": false,
					"internalType": "address",
					"name": "account",
					"type": "address"
				}
			],
			"name": "Unpaused",
			"type": "event"
		},
		{
			"anonymous": false,
			"inputs": [
				{
					"indexed": true,
					"internalType": "address",
					"name": "recipient",
					"type": "address"
				},
				{
					"indexed": false,
					"internalType": "bytes32",
					"name": "nullifierHash",
					"type": "bytes32"
				}
			],
			"name": "Withdrawal",
			"type": "event"
		},
		{
			"inputs": [],
			"name": "DENOMINATION",
			"outputs": [
				{
					"internalType": "uint256",
					"name": "",
					"type": "uint256"
				}
			],
			"stateMutability": "view",
			"type": "function"
		},
		{
			"inputs": [],
			"name": "MAX_LEAVES",
			"outputs": [
				{
					"internalType": "uint32",
					"name": "",
					"type": "uint32"
				}
			],
			"stateMutability": "view",
			"type": "function"
		},
		{
			"inputs": [],
			"name": "PROTOCOL_FEE",
			"outputs": [
				{
					"internalType": "uint256",
					"name": "",
					"type": "uint256"
				}
			],
			"stateMutability": "view",
			"type": "function"
		},
		{
			"inputs": [],
			"name": "TREE_DEPTH",
			"outputs": [
				{
					"internalType": "uint32",
					"name": "",
					"type": "uint32"
				}
			],
			"stateMutability": "view",
			"type": "function"
		},
		{
			"inputs": [
				{
					"internalType": "address",
					"name": "_address",
					"type": "address"
				}
			],
			"name": "blacklist",
			"outputs": [],
			"stateMutability": "nonpayable",
			"type": "function"
		},
		{
			"inputs": [],
			"name": "burnFees",
			"outputs": [],
			"stateMutability": "nonpayable",
			"type": "function"
		},
		{
			"inputs": [],
			"name": "checkFees",
			"outputs": [
				{
					"internalType": "uint256",
					"name": "",
					"type": "uint256"
				}
			],
			"stateMutability": "view",
			"type": "function"
		},
		{
			"inputs": [],
			"name": "currentRoot",
			"outputs": [
				{
					"internalType": "bytes32",
					"name": "",
					"type": "bytes32"
				}
			],
			"stateMutability": "view",
			"type": "function"
		},
		{
			"inputs": [
				{
					"internalType": "bytes32",
					"name": "commitment",
					"type": "bytes32"
				}
			],
			"name": "deposit",
			"outputs": [],
			"stateMutability": "payable",
			"type": "function"
		},
		{
			"inputs": [
				{
					"internalType": "uint256",
					"name": "",
					"type": "uint256"
				}
			],
			"name": "filledSubtrees",
			"outputs": [
				{
					"internalType": "bytes32",
					"name": "",
					"type": "bytes32"
				}
			],
			"stateMutability": "view",
			"type": "function"
		},
		{
			"inputs": [
				{
					"internalType": "address",
					"name": "_address",
					"type": "address"
				}
			],
			"name": "isAddressBlacklisted",
			"outputs": [
				{
					"internalType": "bool",
					"name": "",
					"type": "bool"
				}
			],
			"stateMutability": "view",
			"type": "function"
		},
		{
			"inputs": [
				{
					"internalType": "address",
					"name": "",
					"type": "address"
				}
			],
			"name": "isBlacklisted",
			"outputs": [
				{
					"internalType": "bool",
					"name": "",
					"type": "bool"
				}
			],
			"stateMutability": "view",
			"type": "function"
		},
		{
			"inputs": [
				{
					"internalType": "bytes32",
					"name": "nullifierHash",
					"type": "bytes32"
				}
			],
			"name": "isSpent",
			"outputs": [
				{
					"internalType": "bool",
					"name": "",
					"type": "bool"
				}
			],
			"stateMutability": "view",
			"type": "function"
		},
		{
			"inputs": [
				{
					"internalType": "bytes32",
					"name": "",
					"type": "bytes32"
				}
			],
			"name": "knownRoots",
			"outputs": [
				{
					"internalType": "bool",
					"name": "",
					"type": "bool"
				}
			],
			"stateMutability": "view",
			"type": "function"
		},
		{
			"inputs": [],
			"name": "nextIndex",
			"outputs": [
				{
					"internalType": "uint32",
					"name": "",
					"type": "uint32"
				}
			],
			"stateMutability": "view",
			"type": "function"
		},
		{
			"inputs": [
				{
					"internalType": "bytes32",
					"name": "",
					"type": "bytes32"
				}
			],
			"name": "nullifierHashes",
			"outputs": [
				{
					"internalType": "bool",
					"name": "",
					"type": "bool"
				}
			],
			"stateMutability": "view",
			"type": "function"
		},
		{
			"inputs": [],
			"name": "owner",
			"outputs": [
				{
					"internalType": "address",
					"name": "",
					"type": "address"
				}
			],
			"stateMutability": "view",
			"type": "function"
		},
		{
			"inputs": [
				{
					"internalType": "address",
					"name": "_address",
					"type": "address"
				}
			],
			"name": "pardon",
			"outputs": [],
			"stateMutability": "nonpayable",
			"type": "function"
		},
		{
			"inputs": [],
			"name": "pause",
			"outputs": [],
			"stateMutability": "nonpayable",
			"type": "function"
		},
		{
			"inputs": [],
			"name": "paused",
			"outputs": [
				{
					"internalType": "bool",
					"name": "",
					"type": "bool"
				}
			],
			"stateMutability": "view",
			"type": "function"
		},
		{
			"inputs": [],
			"name": "poseidon",
			"outputs": [
				{
					"internalType": "contract IPoseidonT2",
					"name": "",
					"type": "address"
				}
			],
			"stateMutability": "view",
			"type": "function"
		},
		{
			"inputs": [],
			"name": "renounceOwnership",
			"outputs": [],
			"stateMutability": "nonpayable",
			"type": "function"
		},
		{
			"inputs": [],
			"name": "totalFees",
			"outputs": [
				{
					"internalType": "uint256",
					"name": "",
					"type": "uint256"
				}
			],
			"stateMutability": "view",
			"type": "function"
		},
		{
			"inputs": [
				{
					"internalType": "address",
					"name": "newOwner",
					"type": "address"
				}
			],
			"name": "transferOwnership",
			"outputs": [],
			"stateMutability": "nonpayable",
			"type": "function"
		},
		{
			"inputs": [],
			"name": "unpause",
			"outputs": [],
			"stateMutability": "nonpayable",
			"type": "function"
		},
		{
			"inputs": [],
			"name": "verifier",
			"outputs": [
				{
					"internalType": "contract IVerifier",
					"name": "",
					"type": "address"
				}
			],
			"stateMutability": "view",
			"type": "function"
		},
		{
			"inputs": [
				{
					"internalType": "bytes",
					"name": "proof",
					"type": "bytes"
				},
				{
					"internalType": "bytes32",
					"name": "root",
					"type": "bytes32"
				},
				{
					"internalType": "bytes32",
					"name": "nullifierHash",
					"type": "bytes32"
				},
				{
					"internalType": "address payable",
					"name": "recipient",
					"type": "address"
				}
			],
			"name": "withdraw",
			"outputs": [],
			"stateMutability": "nonpayable",
			"type": "function"
		},
		{
			"inputs": [
				{
					"internalType": "address",
					"name": "_treasury",
					"type": "address"
				}
			],
			"name": "withdrawFees",
			"outputs": [],
			"stateMutability": "nonpayable",
			"type": "function"
		},
		{
			"inputs": [
				{
					"internalType": "uint256",
					"name": "",
					"type": "uint256"
				}
			],
			"name": "zeros",
			"outputs": [
				{
					"internalType": "bytes32",
					"name": "",
					"type": "bytes32"
				}
			],
			"stateMutability": "view",
			"type": "function"
		}
	]
}