{
	"data": {
		"bytecode": {
			"linkReferences": {},
			"object": "60c060405234801561000f575f5ffd5b5060405161121b38038061121b83398101604081905261002e91610229565b6001600160a01b03808316608052811660a08190526040805180820182525f8082526020820181905291516314d2f97b60e11b81529192916329a5f2f6916100789160040161025a565b602060405180830381865afa158015610093573d5f5f3e3d5ffd5b505050506040513d601f19601f820116820180604052508101906100b7919061028a565b5f819055905060015b601463ffffffff821610156101735760a0516040805180820182528481526020810185905290516314d2f97b60e11b81526001600160a01b03909216916329a5f2f69161010f9160040161025a565b602060405180830381865afa15801561012a573d5f5f3e3d5ffd5b505050506040513d601f19601f8201168201806040525081019061014e919061028a565b9150815f63ffffffff831660148110610169576101696102a1565b01556001016100c0565b505f5b601463ffffffff821610156101c2575f8163ffffffff166014811061019d5761019d6102a1565b015460148263ffffffff16601481106101b8576101b86102a1565b0155600101610176565b505f6101d0600160146102b5565b63ffffffff16601481106101e6576101e66102a1565b015460288190555f908152602b60205260409020805460ff19166001179055506102e3915050565b80516001600160a01b0381168114610224575f5ffd5b919050565b5f5f6040838503121561023a575f5ffd5b6102438361020e565b91506102516020840161020e565b90509250929050565b6040810181835f5b6002811015610281578151835260209283019290910190600101610262565b50505092915050565b5f6020828403121561029a575f5ffd5b5051919050565b634e487b7160e01b5f52603260045260245ffd5b63ffffffff82811682821603908111156102dd57634e487b7160e01b5f52601160045260245ffd5b92915050565b60805160a051610f026103195f395f81816102b00152818161081d01526108e001525f81816101a201526105bf0152610f025ff3fe6080604052600436106100fa575f3560e01c8063b130eaa611610092578063e829558811610062578063e829558814610313578063f165053614610332578063f178e47c14610346578063fc7e9c6f14610365578063fdab463d14610381575f5ffd5b8063b130eaa61461027e578063c62b919e1461029f578063e29973fc146102d2578063e5285dcc146102e5575f5ffd5b80634e73da7d116100cd5780634e73da7d146101dc57806385de26b71461020a5780638b01429d146102365780639c6ad1141461025f575f5ffd5b806304d65f11146100fe578063082febf01461012857806317cc915c146101535780632b7ac3f314610191575b5f5ffd5b348015610109575f5ffd5b50610112610396565b60405161011f9190610adf565b60405180910390f35b348015610133575f5ffd5b5061013e6210000081565b60405163ffffffff909116815260200161011f565b34801561015e575f5ffd5b5061018161016d366004610af8565b602a6020525f908152604090205460ff1681565b604051901515815260200161011f565b34801561019c575f5ffd5b506101c47f000000000000000000000000000000000000000000000000000000000000000081565b6040516001600160a01b03909116815260200161011f565b3480156101e7575f5ffd5b506101816101f6366004610af8565b602b6020525f908152604090205460ff1681565b348015610215575f5ffd5b50610229610224366004610af8565b61041b565b60405161011f9190610b0f565b348015610241575f5ffd5b50610251670de0b6b3a764000081565b60405190815260200161011f565b34801561026a575f5ffd5b50610251610279366004610b44565b6104b6565b348015610289575f5ffd5b5061029d610298366004610bac565b6104ed565b005b3480156102aa575f5ffd5b506101c47f000000000000000000000000000000000000000000000000000000000000000081565b61029d6102e0366004610c1d565b610755565b3480156102f0575f5ffd5b506101816102ff366004610af8565b5f908152602a602052604090205460ff1690565b34801561031e575f5ffd5b5061025161032d366004610af8565b610a81565b34801561033d575f5ffd5b5061013e601481565b348015610351575f5ffd5b50610251610360366004610af8565b610a96565b348015610370575f5ffd5b5060295461013e9063ffffffff1681565b34801561038c575f5ffd5b5061025160285481565b6040805160148082526102a082019092526060915f919060208201610280803683370190505090505f5b601463ffffffff821610156104155760148163ffffffff16601481106103e8576103e8610c79565b0154828263ffffffff168151811061040257610402610c79565b60209081029190910101526001016103c0565b50919050565b602c6020525f908152604090208054819061043590610c8d565b80601f016020809104026020016040519081016040528092919081815260200182805461046190610c8d565b80156104ac5780601f10610483576101008083540402835291602001916104ac565b820191905f5260205f20905b81548152906001019060200180831161048f57829003601f168201915b5050505050905081565b5f601463ffffffff8316106104cc57505f919050565b60148263ffffffff16601481106104e5576104e5610c79565b015492915050565b5f828152602a602052604090205460ff161561051c57604051636569570160e11b815260040160405180910390fd5b5f838152602b602052604090205460ff1661054a57604051634629008b60e11b815260040160405180910390fd5b6040805160028082526060820183525f9260208301908036833701905050905083815f8151811061057d5761057d610c79565b602002602001018181525050828160018151811061059d5761059d610c79565b6020908102919091010152604051633a94343960e21b81526001600160a01b037f0000000000000000000000000000000000000000000000000000000000000000169063ea50d0e4906105f890899089908690600401610cbf565b602060405180830381865afa158015610613573d5f5f3e3d5ffd5b505050506040513d601f19601f820116820180604052508101906106379190610d05565b610654576040516309bde33960e01b815260040160405180910390fd5b5f838152602a6020526040808220805460ff19166001179055516001600160a01b03841690670de0b6b3a7640000908381818185875af1925050503d805f81146106b9576040519150601f19603f3d011682016040523d82523d5f602084013e6106be565b606091505b50509050806107095760405162461bcd60e51b8152602060048201526013602482015272135395081d1c985b9cd9995c8819985a5b1959606a1b604482015260640160405180910390fd5b826001600160a01b03167f0ce490531f6c8ae2f1ff174643bc8b7ed5e52987ab50dc1e8f33655d2cd8c90b8560405161074491815260200190565b60405180910390a250505050505050565b670de0b6b3a7640000341461077d57604051637833d9e360e11b815260040160405180910390fd5b6029546210000063ffffffff909116106107aa57604051633b5ccb4360e21b815260040160405180910390fd5b6029805463ffffffff169081905f6107c183610d38565b825463ffffffff9182166101009390930a928302919092021990911617905550835f5b601463ffffffff821610156109b057600183165f036108de5781601463ffffffff831681811061081657610816610c79565b01819055507f00000000000000000000000000000000000000000000000000000000000000006001600160a01b03166329a5f2f660405180604001604052808581526020015f8563ffffffff166014811061087357610873610c79565b015490526040516001600160e01b031960e084901b1681526108989190600401610d5c565b602060405180830381865afa1580156108b3573d5f5f3e3d5ffd5b505050506040513d601f19601f820116820180604052508101906108d79190610d8c565b915061099e565b7f00000000000000000000000000000000000000000000000000000000000000006001600160a01b03166329a5f2f6604051806040016040528060148563ffffffff166014811061093157610931610c79565b015481526020018590526040516001600160e01b031960e084901b16815261095c9190600401610d5c565b602060405180830381865afa158015610977573d5f5f3e3d5ffd5b505050506040513d601f19601f8201168201806040525081019061099b9190610d8c565b91505b637fffffff600193841c1692016107e4565b5060288190555f818152602b6020908152604091829020805460ff191660011790558151601f86018290048202810183018352908101858152909182919087908790819085018382808284375f920182905250939094525050878152602c6020526040902082519091508190610a269082610def565b50506029548691507f84fc9eb8cd0a782a1d1734fbeed616bd0ef775f8b9bd437636b62d634fe4baf390610a629060019063ffffffff16610eaa565b60405163ffffffff909116815260200160405180910390a25050505050565b5f8160148110610a8f575f80fd5b0154905081565b60148160148110610a8f575f80fd5b5f8151808452602084019350602083015f5b82811015610ad5578151865260209586019590910190600101610ab7565b5093949350505050565b602081525f610af16020830184610aa5565b9392505050565b5f60208284031215610b08575f5ffd5b5035919050565b602081525f82518060208401528060208501604085015e5f604082850101526040601f19601f83011684010191505092915050565b5f60208284031215610b54575f5ffd5b813563ffffffff81168114610af1575f5ffd5b5f5f83601f840112610b77575f5ffd5b50813567ffffffffffffffff811115610b8e575f5ffd5b602083019150836020828501011115610ba5575f5ffd5b9250929050565b5f5f5f5f5f60808688031215610bc0575f5ffd5b853567ffffffffffffffff811115610bd6575f5ffd5b610be288828901610b67565b909650945050602086013592506040860135915060608601356001600160a01b0381168114610c0f575f5ffd5b809150509295509295909350565b5f5f5f60408486031215610c2f575f5ffd5b83359250602084013567ffffffffffffffff811115610c4c575f5ffd5b610c5886828701610b67565b9497909650939450505050565b634e487b7160e01b5f52604160045260245ffd5b634e487b7160e01b5f52603260045260245ffd5b600181811c90821680610ca157607f821691505b60208210810361041557634e487b7160e01b5f52602260045260245ffd5b60408152826040820152828460608301375f606084830101525f601f19601f85011682016060838203016020840152610cfb6060820185610aa5565b9695505050505050565b5f60208284031215610d15575f5ffd5b81518015158114610af1575f5ffd5b634e487b7160e01b5f52601160045260245ffd5b5f63ffffffff821663ffffffff8103610d5357610d53610d24565b60010192915050565b6040810181835f5b6002811015610d83578151835260209283019290910190600101610d64565b50505092915050565b5f60208284031215610d9c575f5ffd5b5051919050565b601f821115610dea57805f5260205f20601f840160051c81016020851015610dc85750805b601f840160051c820191505b81811015610de7575f8155600101610dd4565b50505b505050565b815167ffffffffffffffff811115610e0957610e09610c65565b610e1d81610e178454610c8d565b84610da3565b6020601f821160018114610e4f575f8315610e385750848201515b5f19600385901b1c1916600184901b178455610de7565b5f84815260208120601f198516915b82811015610e7e5787850151825560209485019460019092019101610e5e565b5084821015610e9b57868401515f19600387901b60f8161c191681555b50505050600190811b01905550565b63ffffffff8281168282160390811115610ec657610ec6610d24565b9291505056fea2646970667358221220418b95b0f75463a67af58e3d93d2313422d2ca8e421e081728379b4a0688386a64736f6c634300081f0033",
			"opcodes": "PUSH1 0xC0 PUSH1 0x40 MSTORE CALLVALUE DUP1 ISZERO PUSH2 0xF JUMPI PUSH0 PUSH0 REVERT JUMPDEST POP PUSH1 0x40 MLOAD PUSH2 0x121B CODESIZE SUB DUP1 PUSH2 0x121B DUP4 CODECOPY DUP2 ADD PUSH1 0x40 DUP2 SWAP1 MSTORE PUSH2 0x2E SWAP2 PUSH2 0x229 JUMP JUMPDEST PUSH1 0x1 PUSH1 0x1 PUSH1 0xA0 SHL SUB DUP1 DUP4 AND PUSH1 0x80 MSTORE DUP2 AND PUSH1 0xA0 DUP2 SWAP1 MSTORE PUSH1 0x40 DUP1 MLOAD DUP1 DUP3 ADD DUP3 MSTORE PUSH0 DUP1 DUP3 MSTORE PUSH1 0x20 DUP3 ADD DUP2 SWAP1 MSTORE SWAP2 MLOAD PUSH4 0x14D2F97B PUSH1 0xE1 SHL DUP2 MSTORE SWAP2 SWAP3 SWAP2 PUSH4 0x29A5F2F6 SWAP2 PUSH2 0x78 SWAP2 PUSH1 0x4 ADD PUSH2 0x25A JUMP JUMPDEST PUSH1 0x20 PUSH1 0x40 MLOAD DUP1 DUP4 SUB DUP2 DUP7 GAS STATICCALL ISZERO DUP1 ISZERO PUSH2 0x93 JUMPI RETURNDATASIZE PUSH0 PUSH0 RETURNDATACOPY RETURNDATASIZE PUSH0 REVERT JUMPDEST POP POP POP POP PUSH1 0x40 MLOAD RETURNDATASIZE PUSH1 0x1F NOT PUSH1 0x1F DUP3 ADD AND DUP3 ADD DUP1 PUSH1 0x40 MSTORE POP DUP2 ADD SWAP1 PUSH2 0xB7 SWAP2 SWAP1 PUSH2 0x28A JUMP JUMPDEST PUSH0 DUP2 SWAP1 SSTORE SWAP1 POP PUSH1 0x1 JUMPDEST PUSH1 0x14 PUSH4 0xFFFFFFFF DUP3 AND LT ISZERO PUSH2 0x173 JUMPI PUSH1 0xA0 MLOAD PUSH1 0x40 DUP1 MLOAD DUP1 DUP3 ADD DUP3 MSTORE DUP5 DUP2 MSTORE PUSH1 0x20 DUP2 ADD DUP6 SWAP1 MSTORE SWAP1 MLOAD PUSH4 0x14D2F97B PUSH1 0xE1 SHL DUP2 MSTORE PUSH1 0x1 PUSH1 0x1 PUSH1 0xA0 SHL SUB SWAP1 SWAP3 AND SWAP2 PUSH4 0x29A5F2F6 SWAP2 PUSH2 0x10F SWAP2 PUSH1 0x4 ADD PUSH2 0x25A JUMP JUMPDEST PUSH1 0x20 PUSH1 0x40 MLOAD DUP1 DUP4 SUB DUP2 DUP7 GAS STATICCALL ISZERO DUP1 ISZERO PUSH2 0x12A JUMPI RETURNDATASIZE PUSH0 PUSH0 RETURNDATACOPY RETURNDATASIZE PUSH0 REVERT JUMPDEST POP POP POP POP PUSH1 0x40 MLOAD RETURNDATASIZE PUSH1 0x1F NOT PUSH1 0x1F DUP3 ADD AND DUP3 ADD DUP1 PUSH1 0x40 MSTORE POP DUP2 ADD SWAP1 PUSH2 0x14E SWAP2 SWAP1 PUSH2 0x28A JUMP JUMPDEST SWAP2 POP DUP2 PUSH0 PUSH4 0xFFFFFFFF DUP4 AND PUSH1 0x14 DUP2 LT PUSH2 0x169 JUMPI PUSH2 0x169 PUSH2 0x2A1 JUMP JUMPDEST ADD SSTORE PUSH1 0x1 ADD PUSH2 0xC0 JUMP JUMPDEST POP PUSH0 JUMPDEST PUSH1 0x14 PUSH4 0xFFFFFFFF DUP3 AND LT ISZERO PUSH2 0x1C2 JUMPI PUSH0 DUP2 PUSH4 0xFFFFFFFF AND PUSH1 0x14 DUP2 LT PUSH2 0x19D JUMPI PUSH2 0x19D PUSH2 0x2A1 JUMP JUMPDEST ADD SLOAD PUSH1 0x14 DUP3 PUSH4 0xFFFFFFFF AND PUSH1 0x14 DUP2 LT PUSH2 0x1B8 JUMPI PUSH2 0x1B8 PUSH2 0x2A1 JUMP JUMPDEST ADD SSTORE PUSH1 0x1 ADD PUSH2 0x176 JUMP JUMPDEST POP PUSH0 PUSH2 0x1D0 PUSH1 0x1 PUSH1 0x14 PUSH2 0x2B5 JUMP JUMPDEST PUSH4 0xFFFFFFFF AND PUSH1 0x14 DUP2 LT PUSH2 0x1E6 JUMPI PUSH2 0x1E6 PUSH2 0x2A1 JUMP JUMPDEST ADD SLOAD PUSH1 0x28 DUP2 SWAP1 SSTORE PUSH0 SWAP1 DUP2 MSTORE PUSH1 0x2B PUSH1 0x20 MSTORE PUSH1 0x40 SWAP1 KECCAK256 DUP1 SLOAD PUSH1 0xFF NOT AND PUSH1 0x1 OR SWAP1 SSTORE POP PUSH2 0x2E3 SWAP2 POP POP JUMP JUMPDEST DUP1 MLOAD PUSH1 0x1 PUSH1 0x1 PUSH1 0xA0 SHL SUB DUP2 AND DUP2 EQ PUSH2 0x224 JUMPI PUSH0 PUSH0 REVERT JUMPDEST SWAP2 SWAP1 POP JUMP JUMPDEST PUSH0 PUSH0 PUSH1 0x40 DUP4 DUP6 SUB SLT ISZERO PUSH2 0x23A JUMPI PUSH0 PUSH0 REVERT JUMPDEST PUSH2 0x243 DUP4 PUSH2 0x20E JUMP JUMPDEST SWAP2 POP PUSH2 0x251 PUSH1 0x20 DUP5 ADD PUSH2 0x20E JUMP JUMPDEST SWAP1 POP SWAP3 POP SWAP3 SWAP1 POP JUMP JUMPDEST PUSH1 0x40 DUP2 ADD DUP2 DUP4 PUSH0 JUMPDEST PUSH1 0x2 DUP2 LT ISZERO PUSH2 0x281 JUMPI DUP2 MLOAD DUP4 MSTORE PUSH1 0x20 SWAP3 DUP4 ADD SWAP3 SWAP1 SWAP2 ADD SWAP1 PUSH1 0x1 ADD PUSH2 0x262 JUMP JUMPDEST POP POP POP SWAP3 SWAP2 POP POP JUMP JUMPDEST PUSH0 PUSH1 0x20 DUP3 DUP5 SUB SLT ISZERO PUSH2 0x29A JUMPI PUSH0 PUSH0 REVERT JUMPDEST POP MLOAD SWAP2 SWAP1 POP JUMP JUMPDEST PUSH4 0x4E487B71 PUSH1 0xE0 SHL PUSH0 MSTORE PUSH1 0x32 PUSH1 0x4 MSTORE PUSH1 0x24 PUSH0 REVERT JUMPDEST PUSH4 0xFFFFFFFF DUP3 DUP2 AND DUP3 DUP3 AND SUB SWAP1 DUP2 GT ISZERO PUSH2 0x2DD JUMPI PUSH4 0x4E487B71 PUSH1 0xE0 SHL PUSH0 MSTORE PUSH1 0x11 PUSH1 0x4 MSTORE PUSH1 0x24 PUSH0 REVERT JUMPDEST SWAP3 SWAP2 POP POP JUMP JUMPDEST PUSH1 0x80 MLOAD PUSH1 0xA0 MLOAD PUSH2 0xF02 PUSH2 0x319 PUSH0 CODECOPY PUSH0 DUP2 DUP2 PUSH2 0x2B0 ADD MSTORE DUP2 DUP2 PUSH2 0x81D ADD MSTORE PUSH2 0x8E0 ADD MSTORE PUSH0 DUP2 DUP2 PUSH2 0x1A2 ADD MSTORE PUSH2 0x5BF ADD MSTORE PUSH2 0xF02 PUSH0 RETURN INVALID PUSH1 0x80 PUSH1 0x40 MSTORE PUSH1 0x4 CALLDATASIZE LT PUSH2 0xFA JUMPI PUSH0 CALLDATALOAD PUSH1 0xE0 SHR DUP1 PUSH4 0xB130EAA6 GT PUSH2 0x92 JUMPI DUP1 PUSH4 0xE8295588 GT PUSH2 0x62 JUMPI DUP1 PUSH4 0xE8295588 EQ PUSH2 0x313 JUMPI DUP1 PUSH4 0xF1650536 EQ PUSH2 0x332 JUMPI DUP1 PUSH4 0xF178E47C EQ PUSH2 0x346 JUMPI DUP1 PUSH4 0xFC7E9C6F EQ PUSH2 0x365 JUMPI DUP1 PUSH4 0xFDAB463D EQ PUSH2 0x381 JUMPI PUSH0 PUSH0 REVERT JUMPDEST DUP1 PUSH4 0xB130EAA6 EQ PUSH2 0x27E JUMPI DUP1 PUSH4 0xC62B919E EQ PUSH2 0x29F JUMPI DUP1 PUSH4 0xE29973FC EQ PUSH2 0x2D2 JUMPI DUP1 PUSH4 0xE5285DCC EQ PUSH2 0x2E5 JUMPI PUSH0 PUSH0 REVERT JUMPDEST DUP1 PUSH4 0x4E73DA7D GT PUSH2 0xCD JUMPI DUP1 PUSH4 0x4E73DA7D EQ PUSH2 0x1DC JUMPI DUP1 PUSH4 0x85DE26B7 EQ PUSH2 0x20A JUMPI DUP1 PUSH4 0x8B01429D EQ PUSH2 0x236 JUMPI DUP1 PUSH4 0x9C6AD114 EQ PUSH2 0x25F JUMPI PUSH0 PUSH0 REVERT JUMPDEST DUP1 PUSH4 0x4D65F11 EQ PUSH2 0xFE JUMPI DUP1 PUSH4 0x82FEBF0 EQ PUSH2 0x128 JUMPI DUP1 PUSH4 0x17CC915C EQ PUSH2 0x153 JUMPI DUP1 PUSH4 0x2B7AC3F3 EQ PUSH2 0x191 JUMPI JUMPDEST PUSH0 PUSH0 REVERT JUMPDEST CALLVALUE DUP1 ISZERO PUSH2 0x109 JUMPI PUSH0 PUSH0 REVERT JUMPDEST POP PUSH2 0x112 PUSH2 0x396 JUMP JUMPDEST PUSH1 0x40 MLOAD PUSH2 0x11F SWAP2 SWAP1 PUSH2 0xADF JUMP JUMPDEST PUSH1 0x40 MLOAD DUP1 SWAP2 SUB SWAP1 RETURN JUMPDEST CALLVALUE DUP1 ISZERO PUSH2 0x133 JUMPI PUSH0 PUSH0 REVERT JUMPDEST POP PUSH2 0x13E PUSH3 0x100000 DUP2 JUMP JUMPDEST PUSH1 0x40 MLOAD PUSH4 0xFFFFFFFF SWAP1 SWAP2 AND DUP2 MSTORE PUSH1 0x20 ADD PUSH2 0x11F JUMP JUMPDEST CALLVALUE DUP1 ISZERO PUSH2 0x15E JUMPI PUSH0 PUSH0 REVERT JUMPDEST POP PUSH2 0x181 PUSH2 0x16D CALLDATASIZE PUSH1 0x4 PUSH2 0xAF8 JUMP JUMPDEST PUSH1 0x2A PUSH1 0x20 MSTORE PUSH0 SWAP1 DUP2 MSTORE PUSH1 0x40 SWAP1 KECCAK256 SLOAD PUSH1 0xFF AND DUP2 JUMP JUMPDEST PUSH1 0x40 MLOAD SWAP1 ISZERO ISZERO DUP2 MSTORE PUSH1 0x20 ADD PUSH2 0x11F JUMP JUMPDEST CALLVALUE DUP1 ISZERO PUSH2 0x19C JUMPI PUSH0 PUSH0 REVERT JUMPDEST POP PUSH2 0x1C4 PUSH32 0x0 DUP2 JUMP JUMPDEST PUSH1 0x40 MLOAD PUSH1 0x1 PUSH1 0x1 PUSH1 0xA0 SHL SUB SWAP1 SWAP2 AND DUP2 MSTORE PUSH1 0x20 ADD PUSH2 0x11F JUMP JUMPDEST CALLVALUE DUP1 ISZERO PUSH2 0x1E7 JUMPI PUSH0 PUSH0 REVERT JUMPDEST POP PUSH2 0x181 PUSH2 0x1F6 CALLDATASIZE PUSH1 0x4 PUSH2 0xAF8 JUMP JUMPDEST PUSH1 0x2B PUSH1 0x20 MSTORE PUSH0 SWAP1 DUP2 MSTORE PUSH1 0x40 SWAP1 KECCAK256 SLOAD PUSH1 0xFF AND DUP2 JUMP JUMPDEST CALLVALUE DUP1 ISZERO PUSH2 0x215 JUMPI PUSH0 PUSH0 REVERT JUMPDEST POP PUSH2 0x229 PUSH2 0x224 CALLDATASIZE PUSH1 0x4 PUSH2 0xAF8 JUMP JUMPDEST PUSH2 0x41B JUMP JUMPDEST PUSH1 0x40 MLOAD PUSH2 0x11F SWAP2 SWAP1 PUSH2 0xB0F JUMP JUMPDEST CALLVALUE DUP1 ISZERO PUSH2 0x241 JUMPI PUSH0 PUSH0 REVERT JUMPDEST POP PUSH2 0x251 PUSH8 0xDE0B6B3A7640000 DUP2 JUMP JUMPDEST PUSH1 0x40 MLOAD SWAP1 DUP2 MSTORE PUSH1 0x20 ADD PUSH2 0x11F JUMP JUMPDEST CALLVALUE DUP1 ISZERO PUSH2 0x26A JUMPI PUSH0 PUSH0 REVERT JUMPDEST POP PUSH2 0x251 PUSH2 0x279 CALLDATASIZE PUSH1 0x4 PUSH2 0xB44 JUMP JUMPDEST PUSH2 0x4B6 JUMP JUMPDEST CALLVALUE DUP1 ISZERO PUSH2 0x289 JUMPI PUSH0 PUSH0 REVERT JUMPDEST POP PUSH2 0x29D PUSH2 0x298 CALLDATASIZE PUSH1 0x4 PUSH2 0xBAC JUMP JUMPDEST PUSH2 0x4ED JUMP JUMPDEST STOP JUMPDEST CALLVALUE DUP1 ISZERO PUSH2 0x2AA JUMPI PUSH0 PUSH0 REVERT JUMPDEST POP PUSH2 0x1C4 PUSH32 0x0 DUP2 JUMP JUMPDEST PUSH2 0x29D PUSH2 0x2E0 CALLDATASIZE PUSH1 0x4 PUSH2 0xC1D JUMP JUMPDEST PUSH2 0x755 JUMP JUMPDEST CALLVALUE DUP1 ISZERO PUSH2 0x2F0 JUMPI PUSH0 PUSH0 REVERT JUMPDEST POP PUSH2 0x181 PUSH2 0x2FF CALLDATASIZE PUSH1 0x4 PUSH2 0xAF8 JUMP JUMPDEST PUSH0 SWAP1 DUP2 MSTORE PUSH1 0x2A PUSH1 0x20 MSTORE PUSH1 0x40 SWAP1 KECCAK256 SLOAD PUSH1 0xFF AND SWAP1 JUMP JUMPDEST CALLVALUE DUP1 ISZERO PUSH2 0x31E JUMPI PUSH0 PUSH0 REVERT JUMPDEST POP PUSH2 0x251 PUSH2 0x32D CALLDATASIZE PUSH1 0x4 PUSH2 0xAF8 JUMP JUMPDEST PUSH2 0xA81 JUMP JUMPDEST CALLVALUE DUP1 ISZERO PUSH2 0x33D JUMPI PUSH0 PUSH0 REVERT JUMPDEST POP PUSH2 0x13E PUSH1 0x14 DUP2 JUMP JUMPDEST CALLVALUE DUP1 ISZERO PUSH2 0x351 JUMPI PUSH0 PUSH0 REVERT JUMPDEST POP PUSH2 0x251 PUSH2 0x360 CALLDATASIZE PUSH1 0x4 PUSH2 0xAF8 JUMP JUMPDEST PUSH2 0xA96 JUMP JUMPDEST CALLVALUE DUP1 ISZERO PUSH2 0x370 JUMPI PUSH0 PUSH0 REVERT JUMPDEST POP PUSH1 0x29 SLOAD PUSH2 0x13E SWAP1 PUSH4 0xFFFFFFFF AND DUP2 JUMP JUMPDEST CALLVALUE DUP1 ISZERO PUSH2 0x38C JUMPI PUSH0 PUSH0 REVERT JUMPDEST POP PUSH2 0x251 PUSH1 0x28 SLOAD DUP2 JUMP JUMPDEST PUSH1 0x40 DUP1 MLOAD PUSH1 0x14 DUP1 DUP3 MSTORE PUSH2 0x2A0 DUP3 ADD SWAP1 SWAP3 MSTORE PUSH1 0x60 SWAP2 PUSH0 SWAP2 SWAP1 PUSH1 0x20 DUP3 ADD PUSH2 0x280 DUP1 CALLDATASIZE DUP4 CALLDATACOPY ADD SWAP1 POP POP SWAP1 POP PUSH0 JUMPDEST PUSH1 0x14 PUSH4 0xFFFFFFFF DUP3 AND LT ISZERO PUSH2 0x415 JUMPI PUSH1 0x14 DUP2 PUSH4 0xFFFFFFFF AND PUSH1 0x14 DUP2 LT PUSH2 0x3E8 JUMPI PUSH2 0x3E8 PUSH2 0xC79 JUMP JUMPDEST ADD SLOAD DUP3 DUP3 PUSH4 0xFFFFFFFF AND DUP2 MLOAD DUP2 LT PUSH2 0x402 JUMPI PUSH2 0x402 PUSH2 0xC79 JUMP JUMPDEST PUSH1 0x20 SWAP1 DUP2 MUL SWAP2 SWAP1 SWAP2 ADD ADD MSTORE PUSH1 0x1 ADD PUSH2 0x3C0 JUMP JUMPDEST POP SWAP2 SWAP1 POP JUMP JUMPDEST PUSH1 0x2C PUSH1 0x20 MSTORE PUSH0 SWAP1 DUP2 MSTORE PUSH1 0x40 SWAP1 KECCAK256 DUP1 SLOAD DUP2 SWAP1 PUSH2 0x435 SWAP1 PUSH2 0xC8D JUMP JUMPDEST DUP1 PUSH1 0x1F ADD PUSH1 0x20 DUP1 SWAP2 DIV MUL PUSH1 0x20 ADD PUSH1 0x40 MLOAD SWAP1 DUP2 ADD PUSH1 0x40 MSTORE DUP1 SWAP3 SWAP2 SWAP1 DUP2 DUP2 MSTORE PUSH1 0x20 ADD DUP3 DUP1 SLOAD PUSH2 0x461 SWAP1 PUSH2 0xC8D JUMP JUMPDEST DUP1 ISZERO PUSH2 0x4AC JUMPI DUP1 PUSH1 0x1F LT PUSH2 0x483 JUMPI PUSH2 0x100 DUP1 DUP4 SLOAD DIV MUL DUP4 MSTORE SWAP2 PUSH1 0x20 ADD SWAP2 PUSH2 0x4AC JUMP JUMPDEST DUP3 ADD SWAP2 SWAP1 PUSH0 MSTORE PUSH1 0x20 PUSH0 KECCAK256 SWAP1 JUMPDEST DUP2 SLOAD DUP2 MSTORE SWAP1 PUSH1 0x1 ADD SWAP1 PUSH1 0x20 ADD DUP1 DUP4 GT PUSH2 0x48F JUMPI DUP3 SWAP1 SUB PUSH1 0x1F AND DUP3 ADD SWAP2 JUMPDEST POP POP POP POP POP SWAP1 POP DUP2 JUMP JUMPDEST PUSH0 PUSH1 0x14 PUSH4 0xFFFFFFFF DUP4 AND LT PUSH2 0x4CC JUMPI POP PUSH0 SWAP2 SWAP1 POP JUMP JUMPDEST PUSH1 0x14 DUP3 PUSH4 0xFFFFFFFF AND PUSH1 0x14 DUP2 LT PUSH2 0x4E5 JUMPI PUSH2 0x4E5 PUSH2 0xC79 JUMP JUMPDEST ADD SLOAD SWAP3 SWAP2 POP POP JUMP JUMPDEST PUSH0 DUP3 DUP2 MSTORE PUSH1 0x2A PUSH1 0x20 MSTORE PUSH1 0x40 SWAP1 KECCAK256 SLOAD PUSH1 0xFF AND ISZERO PUSH2 0x51C JUMPI PUSH1 0x40 MLOAD PUSH4 0x65695701 PUSH1 0xE1 SHL DUP2 MSTORE PUSH1 0x4 ADD PUSH1 0x40 MLOAD DUP1 SWAP2 SUB SWAP1 REVERT JUMPDEST PUSH0 DUP4 DUP2 MSTORE PUSH1 0x2B PUSH1 0x20 MSTORE PUSH1 0x40 SWAP1 KECCAK256 SLOAD PUSH1 0xFF AND PUSH2 0x54A JUMPI PUSH1 0x40 MLOAD PUSH4 0x4629008B PUSH1 0xE1 SHL DUP2 MSTORE PUSH1 0x4 ADD PUSH1 0x40 MLOAD DUP1 SWAP2 SUB SWAP1 REVERT JUMPDEST PUSH1 0x40 DUP1 MLOAD PUSH1 0x2 DUP1 DUP3 MSTORE PUSH1 0x60 DUP3 ADD DUP4 MSTORE PUSH0 SWAP3 PUSH1 0x20 DUP4 ADD SWAP1 DUP1 CALLDATASIZE DUP4 CALLDATACOPY ADD SWAP1 POP POP SWAP1 POP DUP4 DUP2 PUSH0 DUP2 MLOAD DUP2 LT PUSH2 0x57D JUMPI PUSH2 0x57D PUSH2 0xC79 JUMP JUMPDEST PUSH1 0x20 MUL PUSH1 0x20 ADD ADD DUP2 DUP2 MSTORE POP POP DUP3 DUP2 PUSH1 0x1 DUP2 MLOAD DUP2 LT PUSH2 0x59D JUMPI PUSH2 0x59D PUSH2 0xC79 JUMP JUMPDEST PUSH1 0x20 SWAP1 DUP2 MUL SWAP2 SWAP1 SWAP2 ADD ADD MSTORE PUSH1 0x40 MLOAD PUSH4 0x3A943439 PUSH1 0xE2 SHL DUP2 MSTORE PUSH1 0x1 PUSH1 0x1 PUSH1 0xA0 SHL SUB PUSH32 0x0 AND SWAP1 PUSH4 0xEA50D0E4 SWAP1 PUSH2 0x5F8 SWAP1 DUP10 SWAP1 DUP10 SWAP1 DUP7 SWAP1 PUSH1 0x4 ADD PUSH2 0xCBF JUMP JUMPDEST PUSH1 0x20 PUSH1 0x40 MLOAD DUP1 DUP4 SUB DUP2 DUP7 GAS STATICCALL ISZERO DUP1 ISZERO PUSH2 0x613 JUMPI RETURNDATASIZE PUSH0 PUSH0 RETURNDATACOPY RETURNDATASIZE PUSH0 REVERT JUMPDEST POP POP POP POP PUSH1 0x40 MLOAD RETURNDATASIZE PUSH1 0x1F NOT PUSH1 0x1F DUP3 ADD AND DUP3 ADD DUP1 PUSH1 0x40 MSTORE POP DUP2 ADD SWAP1 PUSH2 0x637 SWAP2 SWAP1 PUSH2 0xD05 JUMP JUMPDEST PUSH2 0x654 JUMPI PUSH1 0x40 MLOAD PUSH4 0x9BDE339 PUSH1 0xE0 SHL DUP2 MSTORE PUSH1 0x4 ADD PUSH1 0x40 MLOAD DUP1 SWAP2 SUB SWAP1 REVERT JUMPDEST PUSH0 DUP4 DUP2 MSTORE PUSH1 0x2A PUSH1 0x20 MSTORE PUSH1 0x40 DUP1 DUP3 KECCAK256 DUP1 SLOAD PUSH1 0xFF NOT AND PUSH1 0x1 OR SWAP1 SSTORE MLOAD PUSH1 0x1 PUSH1 0x1 PUSH1 0xA0 SHL SUB DUP5 AND SWAP1 PUSH8 0xDE0B6B3A7640000 SWAP1 DUP4 DUP2 DUP2 DUP2 DUP6 DUP8 GAS CALL SWAP3 POP POP POP RETURNDATASIZE DUP1 PUSH0 DUP2 EQ PUSH2 0x6B9 JUMPI PUSH1 0x40 MLOAD SWAP2 POP PUSH1 0x1F NOT PUSH1 0x3F RETURNDATASIZE ADD AND DUP3 ADD PUSH1 0x40 MSTORE RETURNDATASIZE DUP3 MSTORE RETURNDATASIZE PUSH0 PUSH1 0x20 DUP5 ADD RETURNDATACOPY PUSH2 0x6BE JUMP JUMPDEST PUSH1 0x60 SWAP2 POP JUMPDEST POP POP SWAP1 POP DUP1 PUSH2 0x709 JUMPI PUSH1 0x40 MLOAD PUSH3 0x461BCD PUSH1 0xE5 SHL DUP2 MSTORE PUSH1 0x20 PUSH1 0x4 DUP3 ADD MSTORE PUSH1 0x13 PUSH1 0x24 DUP3 ADD MSTORE PUSH19 0x135395081D1C985B9CD9995C8819985A5B1959 PUSH1 0x6A SHL PUSH1 0x44 DUP3 ADD MSTORE PUSH1 0x64 ADD PUSH1 0x40 MLOAD DUP1 SWAP2 SUB SWAP1 REVERT JUMPDEST DUP3 PUSH1 0x1 PUSH1 0x1 PUSH1 0xA0 SHL SUB AND PUSH32 0xCE490531F6C8AE2F1FF174643BC8B7ED5E52987AB50DC1E8F33655D2CD8C90B DUP6 PUSH1 0x40 MLOAD PUSH2 0x744 SWAP2 DUP2 MSTORE PUSH1 0x20 ADD SWAP1 JUMP JUMPDEST PUSH1 0x40 MLOAD DUP1 SWAP2 SUB SWAP1 LOG2 POP POP POP POP POP POP POP JUMP JUMPDEST PUSH8 0xDE0B6B3A7640000 CALLVALUE EQ PUSH2 0x77D JUMPI PUSH1 0x40 MLOAD PUSH4 0x7833D9E3 PUSH1 0xE1 SHL DUP2 MSTORE PUSH1 0x4 ADD PUSH1 0x40 MLOAD DUP1 SWAP2 SUB SWAP1 REVERT JUMPDEST PUSH1 0x29 SLOAD PUSH3 0x100000 PUSH4 0xFFFFFFFF SWAP1 SWAP2 AND LT PUSH2 0x7AA JUMPI PUSH1 0x40 MLOAD PUSH4 0x3B5CCB43 PUSH1 0xE2 SHL DUP2 MSTORE PUSH1 0x4 ADD PUSH1 0x40 MLOAD DUP1 SWAP2 SUB SWAP1 REVERT JUMPDEST PUSH1 0x29 DUP1 SLOAD PUSH4 0xFFFFFFFF AND SWAP1 DUP2 SWAP1 PUSH0 PUSH2 0x7C1 DUP4 PUSH2 0xD38 JUMP JUMPDEST DUP3 SLOAD PUSH4 0xFFFFFFFF SWAP2 DUP3 AND PUSH2 0x100 SWAP4 SWAP1 SWAP4 EXP SWAP3 DUP4 MUL SWAP2 SWAP1 SWAP3 MUL NOT SWAP1 SWAP2 AND OR SWAP1 SSTORE POP DUP4 PUSH0 JUMPDEST PUSH1 0x14 PUSH4 0xFFFFFFFF DUP3 AND LT ISZERO PUSH2 0x9B0 JUMPI PUSH1 0x1 DUP4 AND PUSH0 SUB PUSH2 0x8DE JUMPI DUP2 PUSH1 0x14 PUSH4 0xFFFFFFFF DUP4 AND DUP2 DUP2 LT PUSH2 0x816 JUMPI PUSH2 0x816 PUSH2 0xC79 JUMP JUMPDEST ADD DUP2 SWAP1 SSTORE POP PUSH32 0x0 PUSH1 0x1 PUSH1 0x1 PUSH1 0xA0 SHL SUB AND PUSH4 0x29A5F2F6 PUSH1 0x40 MLOAD DUP1 PUSH1 0x40 ADD PUSH1 0x40 MSTORE DUP1 DUP6 DUP2 MSTORE PUSH1 0x20 ADD PUSH0 DUP6 PUSH4 0xFFFFFFFF AND PUSH1 0x14 DUP2 LT PUSH2 0x873 JUMPI PUSH2 0x873 PUSH2 0xC79 JUMP JUMPDEST ADD SLOAD SWAP1 MSTORE PUSH1 0x40 MLOAD PUSH1 0x1 PUSH1 0x1 PUSH1 0xE0 SHL SUB NOT PUSH1 0xE0 DUP5 SWAP1 SHL AND DUP2 MSTORE PUSH2 0x898 SWAP2 SWAP1 PUSH1 0x4 ADD PUSH2 0xD5C JUMP JUMPDEST PUSH1 0x20 PUSH1 0x40 MLOAD DUP1 DUP4 SUB DUP2 DUP7 GAS STATICCALL ISZERO DUP1 ISZERO PUSH2 0x8B3 JUMPI RETURNDATASIZE PUSH0 PUSH0 RETURNDATACOPY RETURNDATASIZE PUSH0 REVERT JUMPDEST POP POP POP POP PUSH1 0x40 MLOAD RETURNDATASIZE PUSH1 0x1F NOT PUSH1 0x1F DUP3 ADD AND DUP3 ADD DUP1 PUSH1 0x40 MSTORE POP DUP2 ADD SWAP1 PUSH2 0x8D7 SWAP2 SWAP1 PUSH2 0xD8C JUMP JUMPDEST SWAP2 POP PUSH2 0x99E JUMP JUMPDEST PUSH32 0x0 PUSH1 0x1 PUSH1 0x1 PUSH1 0xA0 SHL SUB AND PUSH4 0x29A5F2F6 PUSH1 0x40 MLOAD DUP1 PUSH1 0x40 ADD PUSH1 0x40 MSTORE DUP1 PUSH1 0x14 DUP6 PUSH4 0xFFFFFFFF AND PUSH1 0x14 DUP2 LT PUSH2 0x931 JUMPI PUSH2 0x931 PUSH2 0xC79 JUMP JUMPDEST ADD SLOAD DUP2 MSTORE PUSH1 0x20 ADD DUP6 SWAP1 MSTORE PUSH1 0x40 MLOAD PUSH1 0x1 PUSH1 0x1 PUSH1 0xE0 SHL SUB NOT PUSH1 0xE0 DUP5 SWAP1 SHL AND DUP2 MSTORE PUSH2 0x95C SWAP2 SWAP1 PUSH1 0x4 ADD PUSH2 0xD5C JUMP JUMPDEST PUSH1 0x20 PUSH1 0x40 MLOAD DUP1 DUP4 SUB DUP2 DUP7 GAS STATICCALL ISZERO DUP1 ISZERO PUSH2 0x977 JUMPI RETURNDATASIZE PUSH0 PUSH0 RETURNDATACOPY RETURNDATASIZE PUSH0 REVERT JUMPDEST POP POP POP POP PUSH1 0x40 MLOAD RETURNDATASIZE PUSH1 0x1F NOT PUSH1 0x1F DUP3 ADD AND DUP3 ADD DUP1 PUSH1 0x40 MSTORE POP DUP2 ADD SWAP1 PUSH2 0x99B SWAP2 SWAP1 PUSH2 0xD8C JUMP JUMPDEST SWAP2 POP JUMPDEST PUSH4 0x7FFFFFFF PUSH1 0x1 SWAP4 DUP5 SHR AND SWAP3 ADD PUSH2 0x7E4 JUMP JUMPDEST POP PUSH1 0x28 DUP2 SWAP1 SSTORE PUSH0 DUP2 DUP2 MSTORE PUSH1 0x2B PUSH1 0x20 SWAP1 DUP2 MSTORE PUSH1 0x40 SWAP2 DUP3 SWAP1 KECCAK256 DUP1 SLOAD PUSH1 0xFF NOT AND PUSH1 0x1 OR SWAP1 SSTORE DUP2 MLOAD PUSH1 0x1F DUP7 ADD DUP3 SWAP1 DIV DUP3 MUL DUP2 ADD DUP4 ADD DUP4 MSTORE SWAP1 DUP2 ADD DUP6 DUP2 MSTORE SWAP1 SWAP2 DUP3 SWAP2 SWAP1 DUP8 SWAP1 DUP8 SWAP1 DUP2 SWAP1 DUP6 ADD DUP4 DUP3 DUP1 DUP3 DUP5 CALLDATACOPY PUSH0 SWAP3 ADD DUP3 SWAP1 MSTORE POP SWAP4 SWAP1 SWAP5 MSTORE POP POP DUP8 DUP2 MSTORE PUSH1 0x2C PUSH1 0x20 MSTORE PUSH1 0x40 SWAP1 KECCAK256 DUP3 MLOAD SWAP1 SWAP2 POP DUP2 SWAP1 PUSH2 0xA26 SWAP1 DUP3 PUSH2 0xDEF JUMP JUMPDEST POP POP PUSH1 0x29 SLOAD DUP7 SWAP2 POP PUSH32 0x84FC9EB8CD0A782A1D1734FBEED616BD0EF775F8B9BD437636B62D634FE4BAF3 SWAP1 PUSH2 0xA62 SWAP1 PUSH1 0x1 SWAP1 PUSH4 0xFFFFFFFF AND PUSH2 0xEAA JUMP JUMPDEST PUSH1 0x40 MLOAD PUSH4 0xFFFFFFFF SWAP1 SWAP2 AND DUP2 MSTORE PUSH1 0x20 ADD PUSH1 0x40 MLOAD DUP1 SWAP2 SUB SWAP1 LOG2 POP POP POP POP POP JUMP JUMPDEST PUSH0 DUP2 PUSH1 0x14 DUP2 LT PUSH2 0xA8F JUMPI PUSH0 DUP1 REVERT JUMPDEST ADD SLOAD SWAP1 POP DUP2 JUMP JUMPDEST PUSH1 0x14 DUP2 PUSH1 0x14 DUP2 LT PUSH2 0xA8F JUMPI PUSH0 DUP1 REVERT JUMPDEST PUSH0 DUP2 MLOAD DUP1 DUP5 MSTORE PUSH1 0x20 DUP5 ADD SWAP4 POP PUSH1 0x20 DUP4 ADD PUSH0 JUMPDEST DUP3 DUP2 LT ISZERO PUSH2 0xAD5 JUMPI DUP2 MLOAD DUP7 MSTORE PUSH1 0x20 SWAP6 DUP7 ADD SWAP6 SWAP1 SWAP2 ADD SWAP1 PUSH1 0x1 ADD PUSH2 0xAB7 JUMP JUMPDEST POP SWAP4 SWAP5 SWAP4 POP POP POP POP JUMP JUMPDEST PUSH1 0x20 DUP2 MSTORE PUSH0 PUSH2 0xAF1 PUSH1 0x20 DUP4 ADD DUP5 PUSH2 0xAA5 JUMP JUMPDEST SWAP4 SWAP3 POP POP POP JUMP JUMPDEST PUSH0 PUSH1 0x20 DUP3 DUP5 SUB SLT ISZERO PUSH2 0xB08 JUMPI PUSH0 PUSH0 REVERT JUMPDEST POP CALLDATALOAD SWAP2 SWAP1 POP JUMP JUMPDEST PUSH1 0x20 DUP2 MSTORE PUSH0 DUP3 MLOAD DUP1 PUSH1 0x20 DUP5 ADD MSTORE DUP1 PUSH1 0x20 DUP6 ADD PUSH1 0x40 DUP6 ADD MCOPY PUSH0 PUSH1 0x40 DUP3 DUP6 ADD ADD MSTORE PUSH1 0x40 PUSH1 0x1F NOT PUSH1 0x1F DUP4 ADD AND DUP5 ADD ADD SWAP2 POP POP SWAP3 SWAP2 POP POP JUMP JUMPDEST PUSH0 PUSH1 0x20 DUP3 DUP5 SUB SLT ISZERO PUSH2 0xB54 JUMPI PUSH0 PUSH0 REVERT JUMPDEST DUP2 CALLDATALOAD PUSH4 0xFFFFFFFF DUP2 AND DUP2 EQ PUSH2 0xAF1 JUMPI PUSH0 PUSH0 REVERT JUMPDEST PUSH0 PUSH0 DUP4 PUSH1 0x1F DUP5 ADD SLT PUSH2 0xB77 JUMPI PUSH0 PUSH0 REVERT JUMPDEST POP DUP2 CALLDATALOAD PUSH8 0xFFFFFFFFFFFFFFFF DUP2 GT ISZERO PUSH2 0xB8E JUMPI PUSH0 PUSH0 REVERT JUMPDEST PUSH1 0x20 DUP4 ADD SWAP2 POP DUP4 PUSH1 0x20 DUP3 DUP6 ADD ADD GT ISZERO PUSH2 0xBA5 JUMPI PUSH0 PUSH0 REVERT JUMPDEST SWAP3 POP SWAP3 SWAP1 POP JUMP JUMPDEST PUSH0 PUSH0 PUSH0 PUSH0 PUSH0 PUSH1 0x80 DUP7 DUP9 SUB SLT ISZERO PUSH2 0xBC0 JUMPI PUSH0 PUSH0 REVERT JUMPDEST DUP6 CALLDATALOAD PUSH8 0xFFFFFFFFFFFFFFFF DUP2 GT ISZERO PUSH2 0xBD6 JUMPI PUSH0 PUSH0 REVERT JUMPDEST PUSH2 0xBE2 DUP9 DUP3 DUP10 ADD PUSH2 0xB67 JUMP JUMPDEST SWAP1 SWAP7 POP SWAP5 POP POP PUSH1 0x20 DUP7 ADD CALLDATALOAD SWAP3 POP PUSH1 0x40 DUP7 ADD CALLDATALOAD SWAP2 POP PUSH1 0x60 DUP7 ADD CALLDATALOAD PUSH1 0x1 PUSH1 0x1 PUSH1 0xA0 SHL SUB DUP2 AND DUP2 EQ PUSH2 0xC0F JUMPI PUSH0 PUSH0 REVERT JUMPDEST DUP1 SWAP2 POP POP SWAP3 SWAP6 POP SWAP3 SWAP6 SWAP1 SWAP4 POP JUMP JUMPDEST PUSH0 PUSH0 PUSH0 PUSH1 0x40 DUP5 DUP7 SUB SLT ISZERO PUSH2 0xC2F JUMPI PUSH0 PUSH0 REVERT JUMPDEST DUP4 CALLDATALOAD SWAP3 POP PUSH1 0x20 DUP5 ADD CALLDATALOAD PUSH8 0xFFFFFFFFFFFFFFFF DUP2 GT ISZERO PUSH2 0xC4C JUMPI PUSH0 PUSH0 REVERT JUMPDEST PUSH2 0xC58 DUP7 DUP3 DUP8 ADD PUSH2 0xB67 JUMP JUMPDEST SWAP5 SWAP8 SWAP1 SWAP7 POP SWAP4 SWAP5 POP POP POP POP JUMP JUMPDEST PUSH4 0x4E487B71 PUSH1 0xE0 SHL PUSH0 MSTORE PUSH1 0x41 PUSH1 0x4 MSTORE PUSH1 0x24 PUSH0 REVERT JUMPDEST PUSH4 0x4E487B71 PUSH1 0xE0 SHL PUSH0 MSTORE PUSH1 0x32 PUSH1 0x4 MSTORE PUSH1 0x24 PUSH0 REVERT JUMPDEST PUSH1 0x1 DUP2 DUP2 SHR SWAP1 DUP3 AND DUP1 PUSH2 0xCA1 JUMPI PUSH1 0x7F DUP3 AND SWAP2 POP JUMPDEST PUSH1 0x20 DUP3 LT DUP2 SUB PUSH2 0x415 JUMPI PUSH4 0x4E487B71 PUSH1 0xE0 SHL PUSH0 MSTORE PUSH1 0x22 PUSH1 0x4 MSTORE PUSH1 0x24 PUSH0 REVERT JUMPDEST PUSH1 0x40 DUP2 MSTORE DUP3 PUSH1 0x40 DUP3 ADD MSTORE DUP3 DUP5 PUSH1 0x60 DUP4 ADD CALLDATACOPY PUSH0 PUSH1 0x60 DUP5 DUP4 ADD ADD MSTORE PUSH0 PUSH1 0x1F NOT PUSH1 0x1F DUP6 ADD AND DUP3 ADD PUSH1 0x60 DUP4 DUP3 SUB ADD PUSH1 0x20 DUP5 ADD MSTORE PUSH2 0xCFB PUSH1 0x60 DUP3 ADD DUP6 PUSH2 0xAA5 JUMP JUMPDEST SWAP7 SWAP6 POP POP POP POP POP POP JUMP JUMPDEST PUSH0 PUSH1 0x20 DUP3 DUP5 SUB SLT ISZERO PUSH2 0xD15 JUMPI PUSH0 PUSH0 REVERT JUMPDEST DUP2 MLOAD DUP1 ISZERO ISZERO DUP2 EQ PUSH2 0xAF1 JUMPI PUSH0 PUSH0 REVERT JUMPDEST PUSH4 0x4E487B71 PUSH1 0xE0 SHL PUSH0 MSTORE PUSH1 0x11 PUSH1 0x4 MSTORE PUSH1 0x24 PUSH0 REVERT JUMPDEST PUSH0 PUSH4 0xFFFFFFFF DUP3 AND PUSH4 0xFFFFFFFF DUP2 SUB PUSH2 0xD53 JUMPI PUSH2 0xD53 PUSH2 0xD24 JUMP JUMPDEST PUSH1 0x1 ADD SWAP3 SWAP2 POP POP JUMP JUMPDEST PUSH1 0x40 DUP2 ADD DUP2 DUP4 PUSH0 JUMPDEST PUSH1 0x2 DUP2 LT ISZERO PUSH2 0xD83 JUMPI DUP2 MLOAD DUP4 MSTORE PUSH1 0x20 SWAP3 DUP4 ADD SWAP3 SWAP1 SWAP2 ADD SWAP1 PUSH1 0x1 ADD PUSH2 0xD64 JUMP JUMPDEST POP POP POP SWAP3 SWAP2 POP POP JUMP JUMPDEST PUSH0 PUSH1 0x20 DUP3 DUP5 SUB SLT ISZERO PUSH2 0xD9C JUMPI PUSH0 PUSH0 REVERT JUMPDEST POP MLOAD SWAP2 SWAP1 POP JUMP JUMPDEST PUSH1 0x1F DUP3 GT ISZERO PUSH2 0xDEA JUMPI DUP1 PUSH0 MSTORE PUSH1 0x20 PUSH0 KECCAK256 PUSH1 0x1F DUP5 ADD PUSH1 0x5 SHR DUP2 ADD PUSH1 0x20 DUP6 LT ISZERO PUSH2 0xDC8 JUMPI POP DUP1 JUMPDEST PUSH1 0x1F DUP5 ADD PUSH1 0x5 SHR DUP3 ADD SWAP2 POP JUMPDEST DUP2 DUP2 LT ISZERO PUSH2 0xDE7 JUMPI PUSH0 DUP2 SSTORE PUSH1 0x1 ADD PUSH2 0xDD4 JUMP JUMPDEST POP POP JUMPDEST POP POP POP JUMP JUMPDEST DUP2 MLOAD PUSH8 0xFFFFFFFFFFFFFFFF DUP2 GT ISZERO PUSH2 0xE09 JUMPI PUSH2 0xE09 PUSH2 0xC65 JUMP JUMPDEST PUSH2 0xE1D DUP2 PUSH2 0xE17 DUP5 SLOAD PUSH2 0xC8D JUMP JUMPDEST DUP5 PUSH2 0xDA3 JUMP JUMPDEST PUSH1 0x20 PUSH1 0x1F DUP3 GT PUSH1 0x1 DUP2 EQ PUSH2 0xE4F JUMPI PUSH0 DUP4 ISZERO PUSH2 0xE38 JUMPI POP DUP5 DUP3 ADD MLOAD JUMPDEST PUSH0 NOT PUSH1 0x3 DUP6 SWAP1 SHL SHR NOT AND PUSH1 0x1 DUP5 SWAP1 SHL OR DUP5 SSTORE PUSH2 0xDE7 JUMP JUMPDEST PUSH0 DUP5 DUP2 MSTORE PUSH1 0x20 DUP2 KECCAK256 PUSH1 0x1F NOT DUP6 AND SWAP2 JUMPDEST DUP3 DUP2 LT ISZERO PUSH2 0xE7E JUMPI DUP8 DUP6 ADD MLOAD DUP3 SSTORE PUSH1 0x20 SWAP5 DUP6 ADD SWAP5 PUSH1 0x1 SWAP1 SWAP3 ADD SWAP2 ADD PUSH2 0xE5E JUMP JUMPDEST POP DUP5 DUP3 LT ISZERO PUSH2 0xE9B JUMPI DUP7 DUP5 ADD MLOAD PUSH0 NOT PUSH1 0x3 DUP8 SWAP1 SHL PUSH1 0xF8 AND SHR NOT AND DUP2 SSTORE JUMPDEST POP POP POP POP PUSH1 0x1 SWAP1 DUP2 SHL ADD SWAP1 SSTORE POP JUMP JUMPDEST PUSH4 0xFFFFFFFF DUP3 DUP2 AND DUP3 DUP3 AND SUB SWAP1 DUP2 GT ISZERO PUSH2 0xEC6 JUMPI PUSH2 0xEC6 PUSH2 0xD24 JUMP JUMPDEST SWAP3 SWAP2 POP POP JUMP INVALID LOG2 PUSH5 0x6970667358 0x22 SLT KECCAK256 COINBASE DUP12 SWAP6 0xB0 0xF7 SLOAD PUSH4 0xA67AF58E RETURNDATASIZE SWAP4 0xD2 BALANCE CALLVALUE 0x22 0xD2 0xCA DUP15 TIMESTAMP CLZ ADDMOD OR 0x28 CALLDATACOPY SWAP12 BLOBBASEFEE MOD DUP9 CODESIZE PUSH11 0x64736F6C634300081F0033 "
		},
		"gasEstimates": {
			"creation": {
				"codeDepositCost": "768400",
				"executionCost": "infinite",
				"totalCost": "infinite"
			},
			"external": {
				"DENOMINATION()": "261",
				"MAX_LEAVES()": "249",
				"TREE_DEPTH()": "247",
				"currentRoot()": "2404",
				"deposit(bytes32,bytes)": "infinite",
				"filledSubtrees(uint256)": "2482",
				"getAllFilledSubtrees()": "infinite",
				"getFilledSubtree(uint32)": "2578",
				"isSpent(bytes32)": "2536",
				"knownRoots(bytes32)": "2470",
				"nextIndex()": "2400",
				"notes(bytes32)": "infinite",
				"nullifierHashes(bytes32)": "2515",
				"poseidon()": "infinite",
				"verifier()": "infinite",
				"withdraw(bytes,bytes32,bytes32,address)": "infinite",
				"zeros(uint256)": "2437"
			}
		},
		"methodIdentifiers": {
			"DENOMINATION()": "8b01429d",
			"MAX_LEAVES()": "082febf0",
			"TREE_DEPTH()": "f1650536",
			"currentRoot()": "fdab463d",
			"deposit(bytes32,bytes)": "e29973fc",
			"filledSubtrees(uint256)": "f178e47c",
			"getAllFilledSubtrees()": "04d65f11",
			"getFilledSubtree(uint32)": "9c6ad114",
			"isSpent(bytes32)": "e5285dcc",
			"knownRoots(bytes32)": "4e73da7d",
			"nextIndex()": "fc7e9c6f",
			"notes(bytes32)": "85de26b7",
			"nullifierHashes(bytes32)": "17cc915c",
			"poseidon()": "c62b919e",
			"verifier()": "2b7ac3f3",
			"withdraw(bytes,bytes32,bytes32,address)": "b130eaa6",
			"zeros(uint256)": "e8295588"
		}
	},
	"abi": [
		{
			"inputs": [
				{
					"internalType": "address",
					"name": "_verifier",
					"type": "address"
				},
				{
					"internalType": "address",
					"name": "_poseidon",
					"type": "address"
				}
			],
			"stateMutability": "nonpayable",
			"type": "constructor"
		},
		{
			"inputs": [],
			"name": "InvalidDenomination",
			"type": "error"
		},
		{
			"inputs": [],
			"name": "InvalidProof",
			"type": "error"
		},
		{
			"inputs": [],
			"name": "NullifierAlreadyUsed",
			"type": "error"
		},
		{
			"inputs": [],
			"name": "TreeIsFull",
			"type": "error"
		},
		{
			"inputs": [],
			"name": "UnknownRoot",
			"type": "error"
		},
		{
			"anonymous": false,
			"inputs": [
				{
					"indexed": true,
					"internalType": "bytes32",
					"name": "commitment",
					"type": "bytes32"
				},
				{
					"indexed": false,
					"internalType": "uint32",
					"name": "leafIndex",
					"type": "uint32"
				}
			],
			"name": "Deposit",
			"type": "event"
		},
		{
			"anonymous": false,
			"inputs": [
				{
					"indexed": true,
					"internalType": "address",
					"name": "recipient",
					"type": "address"
				},
				{
					"indexed": false,
					"internalType": "bytes32",
					"name": "nullifierHash",
					"type": "bytes32"
				}
			],
			"name": "Withdrawal",
			"type": "event"
		},
		{
			"inputs": [],
			"name": "DENOMINATION",
			"outputs": [
				{
					"internalType": "uint256",
					"name": "",
					"type": "uint256"
				}
			],
			"stateMutability": "view",
			"type": "function"
		},
		{
			"inputs": [],
			"name": "MAX_LEAVES",
			"outputs": [
				{
					"internalType": "uint32",
					"name": "",
					"type": "uint32"
				}
			],
			"stateMutability": "view",
			"type": "function"
		},
		{
			"inputs": [],
			"name": "TREE_DEPTH",
			"outputs": [
				{
					"internalType": "uint32",
					"name": "",
					"type": "uint32"
				}
			],
			"stateMutability": "view",
			"type": "function"
		},
		{
			"inputs": [],
			"name": "currentRoot",
			"outputs": [
				{
					"internalType": "bytes32",
					"name": "",
					"type": "bytes32"
				}
			],
			"stateMutability": "view",
			"type": "function"
		},
		{
			"inputs": [
				{
					"internalType": "bytes32",
					"name": "commitment",
					"type": "bytes32"
				},
				{
					"internalType": "bytes",
					"name": "encryptedNote",
					"type": "bytes"
				}
			],
			"name": "deposit",
			"outputs": [],
			"stateMutability": "payable",
			"type": "function"
		},
		{
			"inputs": [
				{
					"internalType": "uint256",
					"name": "",
					"type": "uint256"
				}
			],
			"name": "filledSubtrees",
			"outputs": [
				{
					"internalType": "bytes32",
					"name": "",
					"type": "bytes32"
				}
			],
			"stateMutability": "view",
			"type": "function"
		},
		{
			"inputs": [],
			"name": "getAllFilledSubtrees",
			"outputs": [
				{
					"internalType": "bytes32[]",
					"name": "",
					"type": "bytes32[]"
				}
			],
			"stateMutability": "view",
			"type": "function"
		},
		{
			"inputs": [
				{
					"internalType": "uint32",
					"name": "index",
					"type": "uint32"
				}
			],
			"name": "getFilledSubtree",
			"outputs": [
				{
					"internalType": "bytes32",
					"name": "",
					"type": "bytes32"
				}
			],
			"stateMutability": "view",
			"type": "function"
		},
		{
			"inputs": [
				{
					"internalType": "bytes32",
					"name": "nullifierHash",
					"type": "bytes32"
				}
			],
			"name": "isSpent",
			"outputs": [
				{
					"internalType": "bool",
					"name": "",
					"type": "bool"
				}
			],
			"stateMutability": "view",
			"type": "function"
		},
		{
			"inputs": [
				{
					"internalType": "bytes32",
					"name": "",
					"type": "bytes32"
				}
			],
			"name": "knownRoots",
			"outputs": [
				{
					"internalType": "bool",
					"name": "",
					"type": "bool"
				}
			],
			"stateMutability": "view",
			"type": "function"
		},
		{
			"inputs": [],
			"name": "nextIndex",
			"outputs": [
				{
					"internalType": "uint32",
					"name": "",
					"type": "uint32"
				}
			],
			"stateMutability": "view",
			"type": "function"
		},
		{
			"inputs": [
				{
					"internalType": "bytes32",
					"name": "",
					"type": "bytes32"
				}
			],
			"name": "notes",
			"outputs": [
				{
					"internalType": "bytes",
					"name": "ciphertext",
					"type": "bytes"
				}
			],
			"stateMutability": "view",
			"type": "function"
		},
		{
			"inputs": [
				{
					"internalType": "bytes32",
					"name": "",
					"type": "bytes32"
				}
			],
			"name": "nullifierHashes",
			"outputs": [
				{
					"internalType": "bool",
					"name": "",
					"type": "bool"
				}
			],
			"stateMutability": "view",
			"type": "function"
		},
		{
			"inputs": [],
			"name": "poseidon",
			"outputs": [
				{
					"internalType": "contract IPoseidonT2",
					"name": "",
					"type": "address"
				}
			],
			"stateMutability": "view",
			"type": "function"
		},
		{
			"inputs": [],
			"name": "verifier",
			"outputs": [
				{
					"internalType": "contract IVerifier",
					"name": "",
					"type": "address"
				}
			],
			"stateMutability": "view",
			"type": "function"
		},
		{
			"inputs": [
				{
					"internalType": "bytes",
					"name": "proof",
					"type": "bytes"
				},
				{
					"internalType": "bytes32",
					"name": "root",
					"type": "bytes32"
				},
				{
					"internalType": "bytes32",
					"name": "nullifierHash",
					"type": "bytes32"
				},
				{
					"internalType": "address payable",
					"name": "recipient",
					"type": "address"
				}
			],
			"name": "withdraw",
			"outputs": [],
			"stateMutability": "nonpayable",
			"type": "function"
		},
		{
			"inputs": [
				{
					"internalType": "uint256",
					"name": "",
					"type": "uint256"
				}
			],
			"name": "zeros",
			"outputs": [
				{
					"internalType": "bytes32",
					"name": "",
					"type": "bytes32"
				}
			],
			"stateMutability": "view",
			"type": "function"
		}
	]
}